201511020010000300000000000000001926000000000000000019268000000000030708185961TRIPAYN S.R.L.                000000061846850000000000000000000000000000000000000000000000000000000000000000000000000000000000000000000000000000000000PES00010000001000000000000000020151102
201511030010000300000000000000001927000000000000000019278000000000030602325063OTESAN SA                     000000035360000000000000000000000000000000000000000000000000000000000000000000000000000000000000000000000000000000000000PES00010000001000000000000000020151103
201511030010000300000000000000001928000000000000000019288000000000030707099239TRANSLUCOM SRL                000000161393620000000000000000000000000000000000000000000000000000000000000000000000000000000000000000000000000000000000PES00010000001000000000000000020151103
201511030010000500000000000000000045000000000000000000458000000000030711598355MATHEOS Y CIA. 2010 S.A.      000000001543960000000000000000000000000000000000000000000000000000000000000000000000000000000000000000000000000000000000PES00010000001000000000000000020151103
201511040010000300000000000000001929000000000000000019298000000000020183833643PELLEGRINELLI JUAN RAMON      000000031824000000000000000000000000000000000000000000000000000000000000000000000000000000000000000000000000000000000000PES00010000001000000000000000020151104
201511040010000500000000000000000046000000000000000000468000000000030707653112MINERA TANDIL SA              000000001436996000000000000000000000000000000000000000000000000000000000000000000000000000000000000000000000000000000000PES00010000001000000000000000020151104
201511040010000500000000000000000047000000000000000000478000000000030690741691ANDERSEN S A                  000000000136488000000000000000000000000000000000000000000000000000000000000000000000000000000000000000000000000000000000PES00010000001000000000000000020151104
201511040010000500000000000000000048000000000000000000488000000000030709738751JB CONSTRUCCIONES SRL         000000000117733000000000000000000000000000000000000000000000000000000000000000000000000000000000000000000000000000000000PES00010000001000000000000000020151104
201511040020000500000000000000000013000000000000000000138000000000020173906162ANDREIS JORGE ANTONIO         000000006338439000000000000000000000000000000000000006333333000000000000000000000000000000000000000000000000000000000000PES00010000001000000000000000020151104
201511050010000300000000000000001930000000000000000019308000000000030670781492PROMIN SA                     000000128198619000000000000000000000000000000000000000000000000000000000000000000000000000000000000000000000000000000000PES00010000001000000000000000020151105
201511050010000300000000000000001931000000000000000019318000000000030670781492PROMIN SA                     000000128198619000000000000000000000000000000000000000000000000000000000000000000000000000000000000000000000000000000000PES00010000001000000000000000020151105
201511050060000500000000000000000007000000000000000000079600000000000028971881ARIEL RAJ                     000000000617100000000000000000000000000000000000000000000000000000000000000000000000000000000000000000000000000000000000PES00010000001000000000000000020151105
201511050010000500000000000000000049000000000000000000498000000000030614698795ALERO SACIFI YA               000000001266023000000000000000000000000000000000000000000000000000000000000000000000000000000000000000000000000000000000PES00010000001000000000000000020151105
201511050010000500000000000000000050000000000000000000508000000000030711712492SALOMON JORGE ALBERTO Y BARROS000000001149621000000000000000000000000000000000000000000000000000000000000000000000000000000000000000000000000000000000PES00010000001000000000000000020151105
201511060030000300000000000000000339000000000000000003398000000000030709721956FUERZA DE VENTAS SRL          000000021746400000000000000000000000000000000000000000000000000000000000000000000000000000000000000000000000000000000000PES00010000001000000000000000020151106
201511060030000300000000000000000340000000000000000003408000000000030708005157SERIND SERVICIOS INDUSTRIALES 000000025989600000000000000000000000000000000000000000000000000000000000000000000000000000000000000000000000000000000000PES00010000001000000000000000020151106
201511090010000300000000000000001932000000000000000019328000000000030711599475SUAR SRL                      000000021610485000000000000000000000000000000000000000000000000000000000000000000000000000000000000000000000000000000000PES00010000001000000000000000020151109
201511090010000300000000000000001933000000000000000019338000000000030711994951INGEE SRL                     000000026179108000000000000000000000000000000000000000000000000000000000000000000000000000000000000000000000000000000000PES00010000001000000000000000020151109
201511090010000300000000000000001934000000000000000019348000000000030709448222BAUBER S.A.                   000000040056600000000000000000000000000000000000000000000000000000000000000000000000000000000000000000000000000000000000PES00010000001000000000000000020151109
201511090010000300000000000000001935000000000000000019358000000000030709448222BAUBER S.A.                   000000040055600000000000000000000000000000000000000000000000000000000000000000000000000000000000000000000000000000000000PES00010000001000000000000000020151109
201511090010000300000000000000001936000000000000000019368000000000030707983414MINERA MONSERRAT - INSUMIN S.R000000021746400000000000000000000000000000000000000000000000000000000000000000000000000000000000000000000000000000000000PES00010000001000000000000000020151109
201511090010000500000000000000000051000000000000000000518000000000020923801406CASTRO RIOS JAIME EDUARDO     000000000884510000000000000000000000000000000000000000000000000000000000000000000000000000000000000000000000000000000000PES00010000001000000000000000020151109
201511090010000500000000000000000052000000000000000000528000000000020274795388ORTIZ JUAN MARCELO            000000000084332000000000000000000000000000000000000000000000000000000000000000000000000000000000000000000000000000000000PES00010000001000000000000000020151109
201511090030000300000000000000000341000000000000000003418000000000030711599475SUAR SRL                      000000021610485000000000000000000000000000000000000000000000000000000000000000000000000000000000000000000000000000000000PES00010000001000000000000000020151109
201511090030000300000000000000000342000000000000000003428000000000030711994951INGEE SRL                     000000025989600000000000000000000000000000000000000000000000000000000000000000000000000000000000000000000000000000000000PES00010000001000000000000000020151109
201511090030000300000000000000000343000000000000000003438000000000030709448222BAUBER S.A.                   000000040056600000000000000000000000000000000000000000000000000000000000000000000000000000000000000000000000000000000000PES00010000001000000000000000020151109
201511090030000300000000000000000344000000000000000003448000000000030707983414MINERA MONSERRAT - INSUMIN S.R000000021746400000000000000000000000000000000000000000000000000000000000000000000000000000000000000000000000000000000000PES00010000001000000000000000020151109
201511100010000300000000000000001937000000000000000019378000000000020228390624MARTINEZ DANIEL ALEJANDRO     000000028058584000000000000000000000000000000000000000000000000000000000000000000000000000000000000000000000000000000000PES00010000001000000000000000020151110
201511100010000300000000000000001938000000000000000019388000000000030545717545LA COOP.,EMPRESA ELECTRICA DE 000000535925000000000000000000000000000000000000000000000000000000000000000000000000000000000000000000000000000000000000PES00010000001000000000000000020151110
201511100010000300000000000000001939000000000000000019398000000000030714691852TERMOREVOQUES SOCIEDAD DE RESP000000024811946000000000000000000000000000000000000000000000000000000000000000000000000000000000000000000000000000000000PES00010000001000000000000000020151110
201511100010000300000000000000001940000000000000000019408000000000030714691852TERMOREVOQUES SOCIEDAD DE RESP000000046079329000000000000000000000000000000000000000000000000000000000000000000000000000000000000000000000000000000000PES00010000001000000000000000020151110
201511100010000300000000000000001941000000000000000019418000000000020922968110CARAVACA LOPEZ FRANCISCO JOSE 000000187999788000000000000000000000000000000000000000000000000000000000000000000000000000000000000000000000000000000000PES00010000001000000000000000020151110
201511100060000500000000000000000008000000000000000000088000000000020372708477RAGUSA RODRIGO DANIEL         000000000527200000000000000000000000000000000000000000000000000000000000000000000000000000000000000000000000000000000000PES00010000001000000000000000020151110
201511100030000300000000000000000345000000000000000003458000000000020922968110CARAVACA LOPEZ FRANCISCO JOSE 000000187999788000000000000000000000000000000000000000000000000000000000000000000000000000000000000000000000000000000000PES00010000001000000000000000020151110
201511110010000300000000000000001942000000000000000019428000000000030712398554INTER ACCESORIOS S.R.L.       000000041500000000000000000000000000000000000000000000000000000000000000000000000000000000000000000000000000000000000000PES00010000001000000000000000020151111
201511110010000300000000000000001943000000000000000019438000000000030710656831INVERBLOCK S.A.               000000047382754000000000000000000000000000000000000000000000000000000000000000000000000000000000000000000000000000000000PES00010000001000000000000000020151111
201511110010000300000000000000001944000000000000000019448000000000020263034555MARZORATTI HECTOR CRISTIAN    000000070824000000000000000000000000000000000000000000000000000000000000000000000000000000000000000000000000000000000000PES00010000001000000000000000020151111
201511110010000500000000000000000053000000000000000000538000000000030709399817CONCRETAR SRL                 000000002671922000000000000000000000000000000000000000000000000000000000000000000000000000000000000000000000000000000000PES00010000001000000000000000020151111
201511120010000300000000000000001945000000000000000019458000000000030714970786CERCO CONSTRUCCIONES S.A.     000000176718600000000000000000000000000000000000000000000000000000000000000000000000000000000000000000000000000000000000PES00010000001000000000000000020151112
201511120010000300000000000000001946000000000000000019468000000000030711406995COR-VIAL S.A.                 000000029857100000000000000000000000000000000000000000000000000000000000000000000000000000000000000000000000000000000000PES00010000001000000000000000020151212
201511120010000300000000000000001947000000000000000019478000000000030711406995COR-VIAL S.A.                 000000029857100000000000000000000000000000000000000000000000000000000000000000000000000000000000000000000000000000000000PES00010000001000000000000000020151212
201511120010000300000000000000001948000000000000000019488000000000030711406995COR-VIAL S.A.                 000000029857100000000000000000000000000000000000000000000000000000000000000000000000000000000000000000000000000000000000PES00010000001000000000000000020151212
201511120010000300000000000000001949000000000000000019498000000000030711406995COR-VIAL S.A.                 000000114096775000000000000000000000000000000000000000000000000000000000000000000000000000000000000000000000000000000000PES00010000001000000000000000020151212
201511120010000300000000000000001950000000000000000019508000000000030709624055INDUSTRIAL Y COMERCIAL SRL    000000068900000000000000000000000000000000000000000000000000000000000000000000000000000000000000000000000000000000000000PES00010000001000000000000000020151112
201511120010000500000000000000000054000000000000000000548000000000030711826463CONCRETAR OBRAS CIVILES S.R.L.000000002671922000000000000000000000000000000000000000000000000000000000000000000000000000000000000000000000000000000000PES00010000001000000000000000020151112
201511120010000500000000000000000055000000000000000000558000000000020183833643PELLEGRINELLI JUAN RAMON      000000000385627000000000000000000000000000000000000000000000000000000000000000000000000000000000000000000000000000000000PES00010000001000000000000000020151112
201511120010000500000000000000000056000000000000000000568000000000033711467349ENGINE S.A.                   000000000718740000000000000000000000000000000000000000000000000000000000000000000000000000000000000000000000000000000000PES00010000001000000000000000020151112
201511120030000500000000000000000005000000000000000000058000000000030709399817CONCRETAR SRL                 000000002671922000000000000000000000000000000000000000000000000000000000000000000000000000000000000000000000000000000000PES00010000001000000000000000020151112
201511120030000500000000000000000006000000000000000000068000000000030675415087CIA AZUCARERA LOS BALCANES S.A000000000884486000000000000000000000000000000000000000000000000000000000000000000000000000000000000000000000000000000000PES00010000001000000000000000020151112
201511130010000300000000000000001951000000000000000019518000000000030712398554INTER ACCESORIOS S.R.L.       000000039800001000000000000000000000000000000000000000000000000000000000000000000000000000000000000000000000000000000000PES00010000001000000000000000020151113
201511130010000300000000000000001952000000000000000019528000000000020183833643PELLEGRINELLI JUAN RAMON      000000031999998000000000000000000000000000000000000000000000000000000000000000000000000000000000000000000000000000000000PES00010000001000000000000000020151113
201511130010000300000000000000001953000000000000000019538000000000020183833643PELLEGRINELLI JUAN RAMON      000000031999998000000000000000000000000000000000000000000000000000000000000000000000000000000000000000000000000000000000PES00010000001000000000000000020151113
201511130010000300000000000000001954000000000000000019548000000000030576374247A B CONSTRUCCIONES S R L      000000000018436000000000000000000000000000000000000000000000000000000000000000000000000000000000000000000000000000000000PES00010000001000000000000000020151113
201511130010000500000000000000000057000000000000000000578000000000027207076622ALVAREZ SONIA MARCELA         000000000215622000000000000000000000000000000000000000000000000000000000000000000000000000000000000000000000000000000000PES00010000001000000000000000020151113
201511130010000500000000000000000058000000000000000000588000000000030545717545LA COOP.,EMPRESA ELECTRICA DE 000000001754500000000000000000000000000000000000000000000000000000000000000000000000000000000000000000000000000000000000PES00010000001000000000000000020151113
201511130010000500000000000000000059000000000000000000598000000000030711406995COR-VIAL S.A.                 000000000012100000000000000000000000000000000000000000000000000000000000000000000000000000000000000000000000000000000000PES00010000001000000000000000020151113
201511130010000500000000000000000060000000000000000000608000000000030711406995COR-VIAL S.A.                 000000000012112000000000000000000000000000000000000000000000000000000000000000000000000000000000000000000000000000000000PES00010000001000000000000000020151113
201511130030000300000000000000000346000000000000000003468000000000030712398554INTER ACCESORIOS S.R.L.       000000041500000000000000000000000000000000000000000000000000000000000000000000000000000000000000000000000000000000000000PES00010000001000000000000000020151113
201511130030000300000000000000000347000000000000000003478000000000020183833643PELLEGRINELLI JUAN RAMON      000000031999998000000000000000000000000000000000000000000000000000000000000000000000000000000000000000000000000000000000PES00010000001000000000000000020151113
201511130030000300000000000000000348000000000000000003488000000000020183833643PELLEGRINELLI JUAN RAMON      000000031999998000000000000000000000000000000000000000000000000000000000000000000000000000000000000000000000000000000000PES00010000001000000000000000020151113
201511160010000300000000000000001955000000000000000019558000000000030712398554INTER ACCESORIOS S.R.L.       000000039800001000000000000000000000000000000000000000000000000000000000000000000000000000000000000000000000000000000000PES00010000001000000000000000020151116
201511170060000300000000000000000201000000000000000002018000000000030640711651MUNICIPALIDAD DE GRANADERO BAI000000044500000000000000000000000000000000000000000000000000000000000000000000000000000000000000000000000000000000000000PES00010000001000000000000000020151117
201511170060000400000000000000000215000000000000000002158000000000020218169725LONCON WALTER ENRIQUE         000000000614316000000000000000000000000000000000000000614316000000000000000000000000000000000000000000000000000000000000PES00010000001N00000000000000020151117
201511170010000500000000000000000061000000000000000000618000000000030711890358PARQUES  DE TECNOLOGIAS AMBIEN000000000451209000000000000000000000000000000000000000000000000000000000000000000000000000000000000000000000000000000000PES00010000001000000000000000020151117
201511170010000500000000000000000062000000000000000000628000000000030639079860MARBEL S A                    000000000451209000000000000000000000000000000000000000000000000000000000000000000000000000000000000000000000000000000000PES00010000001000000000000000020151117
201511170010000500000000000000000063000000000000000000638000000000020265032320CAPELETTI JAVIER ALEJANDRO    000000000160567000000000000000000000000000000000000000000000000000000000000000000000000000000000000000000000000000000000PES00010000001000000000000000020151117
201511170030000500000000000000000007000000000000000000078000000000030675415087CIA AZUCARERA LOS BALCANES S.A000000002396986000000000000000000000000000000000000000000000000000000000000000000000000000000000000000000000000000000000PES00010000001000000000000000020151117
201511170030000500000000000000000008000000000000000000088000000000030711890358PARQUES  DE TECNOLOGIAS AMBIEN000000000451209000000000000000000000000000000000000000000000000000000000000000000000000000000000000000000000000000000000PES00010000001000000000000000020151117
201511170020000500000000000000000014000000000000000000148000000000030695412920PREZ S A                      000000002329491000000000000000000000000000000000000002325256000000000000000000000000000000000000000000000000000000000000PES00010000001000000000000000020151117
201511170020000500000000000000000015000000000000000000158000000000020303165119MUÑOZ JESUS ERNESTO           000000005308235000000000000000000000000000000000000005304000000000000000000000000000000000000000000000000000000000000000PES00010000001000000000000000020151117
201511180010000300000000000000001956000000000000000019568000000000030592620266INAGRO SRL                    000000039313331000000000000000000000000000000000000000000000000000000000000000000000000000000000000000000000000000000000PES00010000001000000000000000020151118
201511180010000300000000000000001957000000000000000019578000000000020214017785CASANOVES FABIAN OSCAR        000000025042063000000000000000000000000000000000000000000000000000000000000000000000000000000000000000000000000000000000PES00010000001000000000000000020151118
201511190030000500000000000000000009000000000000000000098000000000030714038660NORTUMAQ S.R.L.               000000006054220000000000000000000000000000000000000000000000000000000000000000000000000000000000000000000000000000000000PES00010000001000000000000000020151119
201511190020000500000000000000000016000000000000000000168000000000030714038660NORTUMAQ S.R.L.               000000006054220000000000000000000000000000000000000000000000000000000000000000000000000000000000000000000000000000000000PES00010000001000000000000000020151119
201511190020000500000000000000000017000000000000000000178000000000030714038660NORTUMAQ S.R.L.               000000005004220000000000000000000000000000000000000005000000000000000000000000000000000000000000000000000000000000000000PES00010000001000000000000000020151119
201511190020000500000000000000000018000000000000000000188000000000030714038660NORTUMAQ S.R.L.               000000005904220000000000000000000000000000000000000005900000000000000000000000000000000000000000000000000000000000000000PES00010000001000000000000000020151119
201511200010000300000000000000001958000000000000000019588000000000030710396783A.J.R. CONSTRUCCIONES S.R.L.  000000078677464000000000000000000000000000000000000000000000000000000000000000000000000000000000000000000000000000000000PES00010000001000000000000000020151120
201511200010000300000000000000001959000000000000000019598000000000030714597341RENTAL POWER ARGENTINA SRL    000000031989792000000000000000000000000000000000000000000000000000000000000000000000000000000000000000000000000000000000PES00010000001000000000000000020151120
201511200010000300000000000000001960000000000000000019608000000000030709624055INDUSTRIAL Y COMERCIAL SRL    000000030274033000000000000000000000000000000000000000000000000000000000000000000000000000000000000000000000000000000000PES00010000001000000000000000020151220
201511200010000300000000000000001961000000000000000019618000000000030501835354ESTABLECIMIENTO LAS MARIAS S A000000049523338000000000000000000000000000000000000000000000000000000000000000000000000000000000000000000000000000000000PES00010000001000000000000000020151120
201511200010000300000000000000001962000000000000000019628000000000030501835354ESTABLECIMIENTO LAS MARIAS S A000000049523338000000000000000000000000000000000000000000000000000000000000000000000000000000000000000000000000000000000PES00010000001000000000000000020151120
201511200030000300000000000000000349000000000000000003498000000000030712398554INTER ACCESORIOS S.R.L.       000000039800001000000000000000000000000000000000000000000000000000000000000000000000000000000000000000000000000000000000PES00010000001000000000000000020151120
201511230010000300000000000000001963000000000000000019638000000000030664197878PUNBAI SA                     000000178678500000000000000000000000000000000000000000000000000000000000000000000000000000000000000000000000000000000000PES00010000001000000000000000020151123
201511230010000300000000000000001964000000000000000019648000000000030708932937RIAL ARIEL EDUARDO Y BARONE AL000000021900452000000000000000000000000000000000000000000000000000000000000000000000000000000000000000000000000000000000PES00010000001000000000000000020151123
201511230010000500000000000000000064000000000000000000648000000000030714803626EL COYUNCO RUTA 226 KM 16,5 S.000000000464640000000000000000000000000000000000000000000000000000000000000000000000000000000000000000000000000000000000PES00010000001000000000000000020151123
201511230010000500000000000000000065000000000000000000658000000000020172166432ARNO HILLEBRAND               000000000578985000000000000000000000000000000000000000000000000000000000000000000000000000000000000000000000000000000000PES00010000001000000000000000020151123
201511230010000500000000000000000066000000000000000000668000000000030711826463CONCRETAR OBRAS CIVILES S.R.L.000000000157300000000000000000000000000000000000000000000000000000000000000000000000000000000000000000000000000000000000PES00010000001000000000000000020151123
201511230010000500000000000000000067000000000000000000678000000000030597797644V VITUCCI SA                  000000001131108000000000000000000000000000000000000000000000000000000000000000000000000000000000000000000000000000000000PES00010000001000000000000000020151123
201511230010000500000000000000000068000000000000000000688000000000030597797644V VITUCCI SA                  000000001131108000000000000000000000000000000000000000000000000000000000000000000000000000000000000000000000000000000000PES00010000001000000000000000020151123
201511240010000500000000000000000069000000000000000000698000000000030711890358PARQUES  DE TECNOLOGIAS AMBIEN000000007507324000000000000000000000000000000000000000000000000000000000000000000000000000000000000000000000000000000000PES00010000001000000000000000020151124
201511250010000300000000000000001965000000000000000019658000000000030709334731PRETENSADOS CORDOBA S.R.L. $$$000000107185000000000000000000000000000000000000000000000000000000000000000000000000000000000000000000000000000000000000PES00010000001000000000000000020151125
201511250010000300000000000000001966000000000000000019668000000000030709334731PRETENSADOS CORDOBA S.R.L. $$$000000107185000000000000000000000000000000000000000000000000000000000000000000000000000000000000000000000000000000000000PES00010000001000000000000000020151125
201511250010000300000000000000001967000000000000000019678000000000020117549608ROSNISKI JOSE CARLOS          000000044413400000000000000000000000000000000000000000000000000000000000000000000000000000000000000000000000000000000000PES00010000001000000000000000020151125
201511250010000500000000000000000070000000000000000000708000000000030711890358PARQUES  DE TECNOLOGIAS AMBIEN000000006204275000000000000000000000000000000000000000000000000000000000000000000000000000000000000000000000000000000000PES00010000001000000000000000020151125
201511250010000500000000000000000071000000000000000000718000000000030710664877CANTERAS ASOCIADAS SA         000000000605726000000000000000000000000000000000000000000000000000000000000000000000000000000000000000000000000000000000PES00010000001000000000000000020151125
201511250030000500000000000000000010000000000000000000108000000000030711890358PARQUES  DE TECNOLOGIAS AMBIEN000000007507324000000000000000000000000000000000000000000000000000000000000000000000000000000000000000000000000000000000PES00010000001000000000000000020151125
201511260010000300000000000000001968000000000000000019688000000000030714597341RENTAL POWER ARGENTINA SRL    000000078677464000000000000000000000000000000000000000000000000000000000000000000000000000000000000000000000000000000000PES00010000001000000000000000020151126
201511260030000500000000000000000011000000000000000000118000000000030711890358PARQUES  DE TECNOLOGIAS AMBIEN000000006204275000000000000000000000000000000000000000000000000000000000000000000000000000000000000000000000000000000000PES00010000001000000000000000020151126
201511300010000300000000000000001969000000000000000019698000000000030710342152REYMA ARGENTINA SA            000000078110989000000000000000000000000000000000000000000000000000000000000000000000000000000000000000000000000000000000PES00010000001000000000000000020151230
201511300010000300000000000000001970000000000000000019708000000000020117549608ROSNISKI JOSE CARLOS          000000044413400000000000000000000000000000000000000000000000000000000000000000000000000000000000000000000000000000000000PES00010000001000000000000000020151130
201511300010000300000000000000001971000000000000000019718000000000030670781492PROMIN SA                     000000096466500000000000000000000000000000000000000000000000000000000000000000000000000000000000000000000000000000000000PES00010000001000000000000000020151130
201511300010000300000000000000001972000000000000000019728000000000027292866157MENDEZ MARCELA VERONICA       000000027400464000000000000000000000000000000000000000000000000000000000000000000000000000000000000000000000000000000000PES00010000001000000000000000020151130
201511300010000300000000000000001973000000000000000019738000000000030714472026AGRO SERVICE ROAD SRL EN FORMA000000075210720000000000000000000000000000000000000000000000000000000000000000000000000000000000000000000000000000000000PES00010000001000000000000000020151130
201511300010000300000000000000001974000000000000000019748000000000030714472026AGRO SERVICE ROAD SRL EN FORMA000000003139168000000000000000000000000000000000000000000000000000000000000000000000000000000000000000000000000000000000PES00010000001000000000000000020151130
201511300010000300000000000000001975000000000000000019758000000000020083905752RUIZ FRANCISCO                000000077224079000000000000000000000000000000000000000000000000000000000000000000000000000000000000000000000000000000000PES00010000001000000000000000020151130
201511300010000300000000000000001976000000000000000019768000000000030711265011CAMINO DEL ESTE SA            000000042500011000000000000000000000000000000000000000000000000000000000000000000000000000000000000000000000000000000000PES00010000001000000000000000020151130
201511300010000300000000000000001977000000000000000019778000000000020938679666SIMAL Y LAPIEDRA JORGE JUAN   000000015918630000000000000000000000000000000000000000000000000000000000000000000000000000000000000000000000000000000000PES00010000001000000000000000020151230
201511300010000300000000000000001978000000000000000019788000000000020938679666SIMAL Y LAPIEDRA JORGE JUAN   000000015918630000000000000000000000000000000000000000000000000000000000000000000000000000000000000000000000000000000000PES00010000001000000000000000020151230
201511300010000500000000000000000072000000000000000000728000000000030710342152REYMA ARGENTINA SA            000000000650980000000000000000000000000000000000000000000000000000000000000000000000000000000000000000000000000000000000PES00010000001000000000000000020151130
201511300010000500000000000000000073000000000000000000738000000000030675415087CIA AZUCARERA LOS BALCANES S.A000000003879018000000000000000000000000000000000000000000000000000000000000000000000000000000000000000000000000000000000PES00010000001000000000000000020151130
201511300030000300000000000000000350000000000000000003508000000000030709334731PRETENSADOS CORDOBA S.R.L. $$$000000107185000000000000000000000000000000000000000000000000000000000000000000000000000000000000000000000000000000000000PES00010000001000000000000000020151130
201511300030000300000000000000000351000000000000000003518000000000020117549608ROSNISKI JOSE CARLOS          000000044413400000000000000000000000000000000000000000000000000000000000000000000000000000000000000000000000000000000000PES00010000001000000000000000020151130
201511300030000300000000000000000352000000000000000003528000000000030714472026AGRO SERVICE ROAD SRL EN FORMA000000038100000000000000000000000000000000000000000000000000000000000000000000000000000000000000000000000000000000000000PES00010000001000000000000000020151130
201511300030000300000000000000000353000000000000000003538000000000030711265011CAMINO DEL ESTE SA            000000042500011000000000000000000000000000000000000000000000000000000000000000000000000000000000000000000000000000000000PES00010000001000000000000000020151130
201511300030000300000000000000000354000000000000000003548000000000020938679666SIMAL Y LAPIEDRA JORGE JUAN   000000015918630000000000000000000000000000000000000000000000000000000000000000000000000000000000000000000000000000000000PES00010000001000000000000000020151130
201511300030000300000000000000000355000000000000000003558000000000020938679666SIMAL Y LAPIEDRA JORGE JUAN   000000015918630000000000000000000000000000000000000000000000000000000000000000000000000000000000000000000000000000000000PES00010000001000000000000000020151130
