201503010060000800000000000000123526000000000000001235269900000000000000000000Consumidor Final              000000000035000000000000000000000000000000000000000000000000000000000000000000000000000000000000000000000000000000000000PES00010000001 00000000000000020150311
201503010060000600000000000000607124000000000000006071249900000000000000000000Consumidor Final              000000000043000000000000000000000000000000000000000000000000000000000000000000000000000000000000000000000000000000000000PES00010000001 00000000000000020150311
201503010060000600000000000000607125000000000000006071259900000000000000000000Consumidor Final              000000000043000000000000000000000000000000000000000000000000000000000000000000000000000000000000000000000000000000000000PES00010000001 00000000000000020150311
201503010060000600000000000000607126000000000000006071269900000000000000000000Consumidor Final              000000000040000000000000000000000000000000000000000000000000000000000000000000000000000000000000000000000000000000000000PES00010000001 00000000000000020150311
201503010060000600000000000000607127000000000000006071279900000000000000000000Consumidor Final              000000000043000000000000000000000000000000000000000000000000000000000000000000000000000000000000000000000000000000000000PES00010000001 00000000000000020150311
201503010060000600000000000000607129000000000000006071299900000000000000000000Consumidor Final              000000000040000000000000000000000000000000000000000000000000000000000000000000000000000000000000000000000000000000000000PES00010000001 00000000000000020150311
201503010060000300000000000000102718000000000000001027189900000000000000000000Consumidor Final              000000000040000000000000000000000000000000000000000000000000000000000000000000000000000000000000000000000000000000000000PES00010000001 00000000000000020150311
201503010060000600000000000000607130000000000000006071309900000000000000000000Consumidor Final              000000000040000000000000000000000000000000000000000000000000000000000000000000000000000000000000000000000000000000000000PES00010000001 00000000000000020150311
201503010060000700000000000000396316000000000000003963169900000000000000000000Consumidor Final              000000000043000000000000000000000000000000000000000000000000000000000000000000000000000000000000000000000000000000000000PES00010000001 00000000000000020150311
201503010060000600000000000000607131000000000000006071319900000000000000000000Consumidor Final              000000000044000000000000000000000000000000000000000000000000000000000000000000000000000000000000000000000000000000000000PES00010000001 00000000000000020150311
201503010060000700000000000000396317000000000000003963179900000000000000000000Consumidor Final              000000000040000000000000000000000000000000000000000000000000000000000000000000000000000000000000000000000000000000000000PES00010000001 00000000000000020150311
201503010060000800000000000000123537000000000000001235379900000000000000000000Consumidor Final              000000000067000000000000000000000000000000000000000000000000000000000000000000000000000000000000000000000000000000000000PES00010000001 00000000000000020150311
201503010060000800000000000000123538000000000000001235389900000000000000000000Consumidor Final              000000000040000000000000000000000000000000000000000000000000000000000000000000000000000000000000000000000000000000000000PES00010000001 00000000000000020150311
201503010060000800000000000000123539000000000000001235399900000000000000000000Consumidor Final              000000000035000000000000000000000000000000000000000000000000000000000000000000000000000000000000000000000000000000000000PES00010000001 00000000000000020150311
201503030060000600000000000000607401000000000000006074019900000000000000000000Consumidor Final              000000000048000000000000000000000000000000000000000000000000000000000000000000000000000000000000000000000000000000000000PES00010000001 00000000000000020150313
201503030060000600000000000000607417000000000000006074179900000000000000000000Consumidor Final              000000000060000000000000000000000000000000000000000000000000000000000000000000000000000000000000000000000000000000000000PES00010000001 00000000000000020150313
201503030060000100000000000000185106000000000000001851069900000000000000000000Consumidor Final              000000000040000000000000000000000000000000000000000000000000000000000000000000000000000000000000000000000000000000000000PES00010000001 00000000000000020150313
201503030060000100000000000000185107000000000000001851079900000000000000000000Consumidor Final              000000000040000000000000000000000000000000000000000000000000000000000000000000000000000000000000000000000000000000000000PES00010000001 00000000000000020150313
201503030060000100000000000000185108000000000000001851089900000000000000000000Consumidor Final              000000000040000000000000000000000000000000000000000000000000000000000000000000000000000000000000000000000000000000000000PES00010000001 00000000000000020150313
201503030060000100000000000000185109000000000000001851099900000000000000000000Consumidor Final              000000000040000000000000000000000000000000000000000000000000000000000000000000000000000000000000000000000000000000000000PES00010000001 00000000000000020150313
201503030060000100000000000000185110000000000000001851109900000000000000000000Consumidor Final              000000000040000000000000000000000000000000000000000000000000000000000000000000000000000000000000000000000000000000000000PES00010000001 00000000000000020150313
201503030060000700000000000000396604000000000000003966049900000000000000000000Consumidor Final              000000000040000000000000000000000000000000000000000000000000000000000000000000000000000000000000000000000000000000000000PES00010000001 00000000000000020150313
201503030060000700000000000000396605000000000000003966059900000000000000000000Consumidor Final              000000000040000000000000000000000000000000000000000000000000000000000000000000000000000000000000000000000000000000000000PES00010000001 00000000000000020150313
201503030060000700000000000000396606000000000000003966069900000000000000000000Consumidor Final              000000000040000000000000000000000000000000000000000000000000000000000000000000000000000000000000000000000000000000000000PES00010000001 00000000000000020150313
201503030060000600000000000000607420000000000000006074209900000000000000000000Consumidor Final              000000000055000000000000000000000000000000000000000000000000000000000000000000000000000000000000000000000000000000000000PES00010000001 00000000000000020150313
201503030060000600000000000000607421000000000000006074219900000000000000000000Consumidor Final              000000000055000000000000000000000000000000000000000000000000000000000000000000000000000000000000000000000000000000000000PES00010000001 00000000000000020150313
201503030060000600000000000000607423000000000000006074239900000000000000000000Consumidor Final              000000000047000000000000000000000000000000000000000000000000000000000000000000000000000000000000000000000000000000000000PES00010000001 00000000000000020150313
201503030060000600000000000000607424000000000000006074249900000000000000000000Consumidor Final              000000000040000000000000000000000000000000000000000000000000000000000000000000000000000000000000000000000000000000000000PES00010000001 00000000000000020150313
201503040060000700000000000000396840000000000000003968409900000000000000000000Consumidor Final              000000000026000000000000000000000000000000000000000000000000000000000000000000000000000000000000000000000000000000000000PES00010000001 00000000000000020150314
201503050060000700000000000000396861000000000000003968619900000000000000000000Consumidor Final              000000000035000000000000000000000000000000000000000000000000000000000000000000000000000000000000000000000000000000000000PES00010000001 00000000000000020150315
201503050060000600000000000000607754000000000000006077549900000000000000000000Consumidor Final              000000000043000000000000000000000000000000000000000000000000000000000000000000000000000000000000000000000000000000000000PES00010000001 00000000000000020150315
201503050060000100000000000000185155000000000000001851559900000000000000000000Consumidor Final              000000000040000000000000000000000000000000000000000000000000000000000000000000000000000000000000000000000000000000000000PES00010000001 00000000000000020150315
201503050060000600000000000000607770000000000000006077709900000000000000000000Consumidor Final              000000000040000000000000000000000000000000000000000000000000000000000000000000000000000000000000000000000000000000000000PES00010000001 00000000000000020150315
201503050060000600000000000000607772000000000000006077729900000000000000000000Consumidor Final              000000000040000000000000000000000000000000000000000000000000000000000000000000000000000000000000000000000000000000000000PES00010000001 00000000000000020150315
201503050060000600000000000000607773000000000000006077739900000000000000000000Consumidor Final              000000000040000000000000000000000000000000000000000000000000000000000000000000000000000000000000000000000000000000000000PES00010000001 00000000000000020150315
201503050060000600000000000000607774000000000000006077749900000000000000000000Consumidor Final              000000000040000000000000000000000000000000000000000000000000000000000000000000000000000000000000000000000000000000000000PES00010000001 00000000000000020150315
201503050060000700000000000000396911000000000000003969119900000000000000000000Consumidor Final              000000000039000000000000000000000000000000000000000000000000000000000000000000000000000000000000000000000000000000000000PES00010000001 00000000000000020150315
201503050060000700000000000000396912000000000000003969129900000000000000000000Consumidor Final              000000000040000000000000000000000000000000000000000000000000000000000000000000000000000000000000000000000000000000000000PES00010000001 00000000000000020150315
201503050060000700000000000000396913000000000000003969139900000000000000000000Consumidor Final              000000000040000000000000000000000000000000000000000000000000000000000000000000000000000000000000000000000000000000000000PES00010000001 00000000000000020150315
201503050060000700000000000000396914000000000000003969149900000000000000000000Consumidor Final              000000000040000000000000000000000000000000000000000000000000000000000000000000000000000000000000000000000000000000000000PES00010000001 00000000000000020150315
201503050060000700000000000000396915000000000000003969159900000000000000000000Consumidor Final              000000000040000000000000000000000000000000000000000000000000000000000000000000000000000000000000000000000000000000000000PES00010000001 00000000000000020150315
201503050060000700000000000000396916000000000000003969169900000000000000000000Consumidor Final              000000000040000000000000000000000000000000000000000000000000000000000000000000000000000000000000000000000000000000000000PES00010000001 00000000000000020150315
201503060060000600000000000000608047000000000000006080479900000000000000000000Consumidor Final              000000000040000000000000000000000000000000000000000000000000000000000000000000000000000000000000000000000000000000000000PES00010000001 00000000000000020150316
201503060060000600000000000000608056000000000000006080569900000000000000000000Consumidor Final              000000000040000000000000000000000000000000000000000000000000000000000000000000000000000000000000000000000000000000000000PES00010000001 00000000000000020150316
201503060060000600000000000000608057000000000000006080579900000000000000000000Consumidor Final              000000000040000000000000000000000000000000000000000000000000000000000000000000000000000000000000000000000000000000000000PES00010000001 00000000000000020150316
201503060060000600000000000000608058000000000000006080589900000000000000000000Consumidor Final              000000000040000000000000000000000000000000000000000000000000000000000000000000000000000000000000000000000000000000000000PES00010000001 00000000000000020150316
201503060060000600000000000000608059000000000000006080599900000000000000000000Consumidor Final              000000000040000000000000000000000000000000000000000000000000000000000000000000000000000000000000000000000000000000000000PES00010000001 00000000000000020150316
201503060060000600000000000000608075000000000000006080759900000000000000000000Consumidor Final              000000000040000000000000000000000000000000000000000000000000000000000000000000000000000000000000000000000000000000000000PES00010000001 00000000000000020150316
201503070060000700000000000000397291000000000000003972919900000000000000000000Consumidor Final              000000000040000000000000000000000000000000000000000000000000000000000000000000000000000000000000000000000000000000000000PES00010000001 00000000000000020150317
201503070060000700000000000000397292000000000000003972929900000000000000000000Consumidor Final              000000000040000000000000000000000000000000000000000000000000000000000000000000000000000000000000000000000000000000000000PES00010000001 00000000000000020150317
201503070060000600000000000000608076000000000000006080769900000000000000000000Consumidor Final              000000000040000000000000000000000000000000000000000000000000000000000000000000000000000000000000000000000000000000000000PES00010000001 00000000000000020150317
201503070060000700000000000000397293000000000000003972939900000000000000000000Consumidor Final              000000000040000000000000000000000000000000000000000000000000000000000000000000000000000000000000000000000000000000000000PES00010000001 00000000000000020150317
201503070060000700000000000000397294000000000000003972949900000000000000000000Consumidor Final              000000000043000000000000000000000000000000000000000000000000000000000000000000000000000000000000000000000000000000000000PES00010000001 00000000000000020150317
201503070060000800000000000000123824000000000000001238249900000000000000000000Consumidor Final              000000000035000000000000000000000000000000000000000000000000000000000000000000000000000000000000000000000000000000000000PES00010000001 00000000000000020150317
201503070060000700000000000000397295000000000000003972959900000000000000000000Consumidor Final              000000000040000000000000000000000000000000000000000000000000000000000000000000000000000000000000000000000000000000000000PES00010000001 00000000000000020150317
201503070060000700000000000000397296000000000000003972969900000000000000000000Consumidor Final              000000000040000000000000000000000000000000000000000000000000000000000000000000000000000000000000000000000000000000000000PES00010000001 00000000000000020150317
201503080060000800000000000000123917000000000000001239179900000000000000000000Consumidor Final              000000000035000000000000000000000000000000000000000000000000000000000000000000000000000000000000000000000000000000000000PES00010000001 00000000000000020150318
201503080060000800000000000000123918000000000000001239189900000000000000000000Consumidor Final              000000000035000000000000000000000000000000000000000000000000000000000000000000000000000000000000000000000000000000000000PES00010000001 00000000000000020150318
201503080060000800000000000000123919000000000000001239199900000000000000000000Consumidor Final              000000000035000000000000000000000000000000000000000000000000000000000000000000000000000000000000000000000000000000000000PES00010000001 00000000000000020150318
201503080060000800000000000000123920000000000000001239209900000000000000000000Consumidor Final              000000000035000000000000000000000000000000000000000000000000000000000000000000000000000000000000000000000000000000000000PES00010000001 00000000000000020150318
201503080060000700000000000000397556000000000000003975569900000000000000000000Consumidor Final              000000000043000000000000000000000000000000000000000000000000000000000000000000000000000000000000000000000000000000000000PES00010000001 00000000000000020150318
201503080060000700000000000000397557000000000000003975579900000000000000000000Consumidor Final              000000000040000000000000000000000000000000000000000000000000000000000000000000000000000000000000000000000000000000000000PES00010000001 00000000000000020150318
201503080060000700000000000000397558000000000000003975589900000000000000000000Consumidor Final              000000000040000000000000000000000000000000000000000000000000000000000000000000000000000000000000000000000000000000000000PES00010000001 00000000000000020150318
201503080060000600000000000000608422000000000000006084229900000000000000000000Consumidor Final              000000000041000000000000000000000000000000000000000000000000000000000000000000000000000000000000000000000000000000000000PES00010000001 00000000000000020150318
201503080060000600000000000000608423000000000000006084239900000000000000000000Consumidor Final              000000000050000000000000000000000000000000000000000000000000000000000000000000000000000000000000000000000000000000000000PES00010000001 00000000000000020150318
201503080060000600000000000000608424000000000000006084249900000000000000000000Consumidor Final              000000000040000000000000000000000000000000000000000000000000000000000000000000000000000000000000000000000000000000000000PES00010000001 00000000000000020150318
201503080060000800000000000000123921000000000000001239219900000000000000000000Consumidor Final              000000000035000000000000000000000000000000000000000000000000000000000000000000000000000000000000000000000000000000000000PES00010000001 00000000000000020150318
201503080060000800000000000000123922000000000000001239229900000000000000000000Consumidor Final              000000000035000000000000000000000000000000000000000000000000000000000000000000000000000000000000000000000000000000000000PES00010000001 00000000000000020150318
201503080060000800000000000000123923000000000000001239239900000000000000000000Consumidor Final              000000000035000000000000000000000000000000000000000000000000000000000000000000000000000000000000000000000000000000000000PES00010000001 00000000000000020150318
201503080060000800000000000000123924000000000000001239249900000000000000000000Consumidor Final              000000000035000000000000000000000000000000000000000000000000000000000000000000000000000000000000000000000000000000000000PES00010000001 00000000000000020150318
201503100060000700000000000000397863000000000000003978639900000000000000000000Consumidor Final              000000000040000000000000000000000000000000000000000000000000000000000000000000000000000000000000000000000000000000000000PES00010000001 00000000000000020150320
201503100060000600000000000000608792000000000000006087929900000000000000000000Consumidor Final              000000000040000000000000000000000000000000000000000000000000000000000000000000000000000000000000000000000000000000000000PES00010000001 00000000000000020150320
201503100060000800000000000000124019000000000000001240199900000000000000000000Consumidor Final              000000000035000000000000000000000000000000000000000000000000000000000000000000000000000000000000000000000000000000000000PES00010000001 00000000000000020150320
201503100060000300000000000000102929000000000000001029299900000000000000000000Consumidor Final              000000000040000000000000000000000000000000000000000000000000000000000000000000000000000000000000000000000000000000000000PES00010000001 00000000000000020150320
201503100060000600000000000000608805000000000000006088059900000000000000000000Consumidor Final              000000000040000000000000000000000000000000000000000000000000000000000000000000000000000000000000000000000000000000000000PES00010000001 00000000000000020150320
201503100060000700000000000000397873000000000000003978739900000000000000000000Consumidor Final              000000000040000000000000000000000000000000000000000000000000000000000000000000000000000000000000000000000000000000000000PES00010000001 00000000000000020150320
201503100060000600000000000000608806000000000000006088069900000000000000000000Consumidor Final              000000000040000000000000000000000000000000000000000000000000000000000000000000000000000000000000000000000000000000000000PES00010000001 00000000000000020150320
201503100060000600000000000000608807000000000000006088079900000000000000000000Consumidor Final              000000000040000000000000000000000000000000000000000000000000000000000000000000000000000000000000000000000000000000000000PES00010000001 00000000000000020150320
201503100060000700000000000000397874000000000000003978749900000000000000000000Consumidor Final              000000000043000000000000000000000000000000000000000000000000000000000000000000000000000000000000000000000000000000000000PES00010000001 00000000000000020150320
201503100060000600000000000000608808000000000000006088089900000000000000000000Consumidor Final              000000000040000000000000000000000000000000000000000000000000000000000000000000000000000000000000000000000000000000000000PES00010000001 00000000000000020150320
201503100060000700000000000000397878000000000000003978789900000000000000000000Consumidor Final              000000000040000000000000000000000000000000000000000000000000000000000000000000000000000000000000000000000000000000000000PES00010000001 00000000000000020150320
201503100060000700000000000000397879000000000000003978799900000000000000000000Consumidor Final              000000000040000000000000000000000000000000000000000000000000000000000000000000000000000000000000000000000000000000000000PES00010000001 00000000000000020150320
201503100060000600000000000000608809000000000000006088099900000000000000000000Consumidor Final              000000000040000000000000000000000000000000000000000000000000000000000000000000000000000000000000000000000000000000000000PES00010000001 00000000000000020150320
201503100060000600000000000000608810000000000000006088109900000000000000000000Consumidor Final              000000000040000000000000000000000000000000000000000000000000000000000000000000000000000000000000000000000000000000000000PES00010000001 00000000000000020150320
201503110060000700000000000000398039000000000000003980399900000000000000000000Consumidor Final              000000000040000000000000000000000000000000000000000000000000000000000000000000000000000000000000000000000000000000000000PES00010000001 00000000000000020150321
201503120060000300000000000000102970000000000000001029709900000000000000000000Consumidor Final              000000000040000000000000000000000000000000000000000000000000000000000000000000000000000000000000000000000000000000000000PES00010000001 00000000000000020150322
201503120060000300000000000000102971000000000000001029719900000000000000000000Consumidor Final              000000000040000000000000000000000000000000000000000000000000000000000000000000000000000000000000000000000000000000000000PES00010000001 00000000000000020150322
201503120060000300000000000000102972000000000000001029729900000000000000000000Consumidor Final              000000000040000000000000000000000000000000000000000000000000000000000000000000000000000000000000000000000000000000000000PES00010000001 00000000000000020150322
201503120060000300000000000000102973000000000000001029739900000000000000000000Consumidor Final              000000000041000000000000000000000000000000000000000000000000000000000000000000000000000000000000000000000000000000000000PES00010000001 00000000000000020150322
201503120060000300000000000000102974000000000000001029749900000000000000000000Consumidor Final              000000000040000000000000000000000000000000000000000000000000000000000000000000000000000000000000000000000000000000000000PES00010000001 00000000000000020150322
201503120060000300000000000000102975000000000000001029759900000000000000000000Consumidor Final              000000000015000000000000000000000000000000000000000000000000000000000000000000000000000000000000000000000000000000000000PES00010000001 00000000000000020150322
201503120060000700000000000000398040000000000000003980409900000000000000000000Consumidor Final              000000000040000000000000000000000000000000000000000000000000000000000000000000000000000000000000000000000000000000000000PES00010000001 00000000000000020150322
201503120060000300000000000000102976000000000000001029769900000000000000000000Consumidor Final              000000000040000000000000000000000000000000000000000000000000000000000000000000000000000000000000000000000000000000000000PES00010000001 00000000000000020150322
201503120060000300000000000000102977000000000000001029779900000000000000000000Consumidor Final              000000000040000000000000000000000000000000000000000000000000000000000000000000000000000000000000000000000000000000000000PES00010000001 00000000000000020150322
201503120060000300000000000000102978000000000000001029789900000000000000000000Consumidor Final              000000000048000000000000000000000000000000000000000000000000000000000000000000000000000000000000000000000000000000000000PES00010000001 00000000000000020150322
201503120060000300000000000000102979000000000000001029799900000000000000000000Consumidor Final              000000000040000000000000000000000000000000000000000000000000000000000000000000000000000000000000000000000000000000000000PES00010000001 00000000000000020150322
201503120060000300000000000000102980000000000000001029809900000000000000000000Consumidor Final              000000000040000000000000000000000000000000000000000000000000000000000000000000000000000000000000000000000000000000000000PES00010000001 00000000000000020150322
201503120060000600000000000000608972000000000000006089729900000000000000000000Consumidor Final              000000000040000000000000000000000000000000000000000000000000000000000000000000000000000000000000000000000000000000000000PES00010000001 00000000000000020150322
201503120060000300000000000000102981000000000000001029819900000000000000000000Consumidor Final              000000000043000000000000000000000000000000000000000000000000000000000000000000000000000000000000000000000000000000000000PES00010000001 00000000000000020150322
201503120060000300000000000000102982000000000000001029829900000000000000000000Consumidor Final              000000000040000000000000000000000000000000000000000000000000000000000000000000000000000000000000000000000000000000000000PES00010000001 00000000000000020150322
201503120060000300000000000000102983000000000000001029839900000000000000000000Consumidor Final              000000000040000000000000000000000000000000000000000000000000000000000000000000000000000000000000000000000000000000000000PES00010000001 00000000000000020150322
201503120060000100000000000000185382000000000000001853829900000000000000000000Consumidor Final              000000000040000000000000000000000000000000000000000000000000000000000000000000000000000000000000000000000000000000000000PES00010000001 00000000000000020150322
201503120060000100000000000000185383000000000000001853839900000000000000000000Consumidor Final              000000000040000000000000000000000000000000000000000000000000000000000000000000000000000000000000000000000000000000000000PES00010000001 00000000000000020150322
201503120060000100000000000000185384000000000000001853849900000000000000000000Consumidor Final              000000000048000000000000000000000000000000000000000000000000000000000000000000000000000000000000000000000000000000000000PES00010000001 00000000000000020150322
201503110060000400000000000000011636000000000000000116369900000000000000000000Consumidor Final              000000000040000000000000000000000000000000000000000000000000000000000000000000000000000000000000000000000000000000000000PES00010000001 00000000000000020150321
201503110060000400000000000000011637000000000000000116379900000000000000000000Consumidor Final              000000000038000000000000000000000000000000000000000000000000000000000000000000000000000000000000000000000000000000000000PES00010000001 00000000000000020150321
201503110060000100000000000000185329000000000000001853299900000000000000000000Consumidor Final              000000000040000000000000000000000000000000000000000000000000000000000000000000000000000000000000000000000000000000000000PES00010000001 00000000000000020150321
201503110060000100000000000000185330000000000000001853309900000000000000000000Consumidor Final              000000000040000000000000000000000000000000000000000000000000000000000000000000000000000000000000000000000000000000000000PES00010000001 00000000000000020150321
201503120060000800000000000000124134000000000000001241349900000000000000000000Consumidor Final              000000000035000000000000000000000000000000000000000000000000000000000000000000000000000000000000000000000000000000000000PES00010000001 00000000000000020150322
201503120060000100000000000000185386000000000000001853869900000000000000000000Consumidor Final              000000000040000000000000000000000000000000000000000000000000000000000000000000000000000000000000000000000000000000000000PES00010000001 00000000000000020150322
201503120060000300000000000000103021000000000000001030219900000000000000000000Consumidor Final              000000000040000000000000000000000000000000000000000000000000000000000000000000000000000000000000000000000000000000000000PES00010000001 00000000000000020150322
201503120060000700000000000000398042000000000000003980429900000000000000000000Consumidor Final              000000000029000000000000000000000000000000000000000000000000000000000000000000000000000000000000000000000000000000000000PES00010000001 00000000000000020150322
201503120060000100000000000000185387000000000000001853879900000000000000000000Consumidor Final              000000000040000000000000000000000000000000000000000000000000000000000000000000000000000000000000000000000000000000000000PES00010000001 00000000000000020150322
201503120060000800000000000000124135000000000000001241359900000000000000000000Consumidor Final              000000000035000000000000000000000000000000000000000000000000000000000000000000000000000000000000000000000000000000000000PES00010000001 00000000000000020150322
201503120060000800000000000000124136000000000000001241369900000000000000000000Consumidor Final              000000000035000000000000000000000000000000000000000000000000000000000000000000000000000000000000000000000000000000000000PES00010000001 00000000000000020150322
201503120060000800000000000000124137000000000000001241379900000000000000000000Consumidor Final              000000000015000000000000000000000000000000000000000000000000000000000000000000000000000000000000000000000000000000000000PES00010000001 00000000000000020150322
201503120060000800000000000000124138000000000000001241389900000000000000000000Consumidor Final              000000000035000000000000000000000000000000000000000000000000000000000000000000000000000000000000000000000000000000000000PES00010000001 00000000000000020150322
201503120060000300000000000000103024000000000000001030249900000000000000000000Consumidor Final              000000000038000000000000000000000000000000000000000000000000000000000000000000000000000000000000000000000000000000000000PES00010000001 00000000000000020150322
201503120060000300000000000000103025000000000000001030259900000000000000000000Consumidor Final              000000000040000000000000000000000000000000000000000000000000000000000000000000000000000000000000000000000000000000000000PES00010000001 00000000000000020150322
201503120060000300000000000000103026000000000000001030269900000000000000000000Consumidor Final              000000000045000000000000000000000000000000000000000000000000000000000000000000000000000000000000000000000000000000000000PES00010000001 00000000000000020150322
201503120060000300000000000000103027000000000000001030279900000000000000000000Consumidor Final              000000000040000000000000000000000000000000000000000000000000000000000000000000000000000000000000000000000000000000000000PES00010000001 00000000000000020150322
201503120060000700000000000000398053000000000000003980539900000000000000000000Consumidor Final              000000000040000000000000000000000000000000000000000000000000000000000000000000000000000000000000000000000000000000000000PES00010000001 00000000000000020150322
201503120060000300000000000000103045000000000000001030459900000000000000000000Consumidor Final              000000000040000000000000000000000000000000000000000000000000000000000000000000000000000000000000000000000000000000000000PES00010000001 00000000000000020150322
201503120060000700000000000000398054000000000000003980549900000000000000000000Consumidor Final              000000000040000000000000000000000000000000000000000000000000000000000000000000000000000000000000000000000000000000000000PES00010000001 00000000000000020150322
201503120060000700000000000000398055000000000000003980559900000000000000000000Consumidor Final              000000000040000000000000000000000000000000000000000000000000000000000000000000000000000000000000000000000000000000000000PES00010000001 00000000000000020150322
201503120060000300000000000000103008000000000000001030089900000000000000000000Consumidor Final              000000000040000000000000000000000000000000000000000000000000000000000000000000000000000000000000000000000000000000000000PES00010000001 00000000000000020150322
201503120060000300000000000000103009000000000000001030099900000000000000000000Consumidor Final              000000000040000000000000000000000000000000000000000000000000000000000000000000000000000000000000000000000000000000000000PES00010000001 00000000000000020150322
201503110060000400000000000000011630000000000000000116309900000000000000000000Consumidor Final              000000000040000000000000000000000000000000000000000000000000000000000000000000000000000000000000000000000000000000000000PES00010000001 00000000000000020150321
201503110060000400000000000000011631000000000000000116319900000000000000000000Consumidor Final              000000000040000000000000000000000000000000000000000000000000000000000000000000000000000000000000000000000000000000000000PES00010000001 00000000000000020150321
201503110060000400000000000000011632000000000000000116329900000000000000000000Consumidor Final              000000000040000000000000000000000000000000000000000000000000000000000000000000000000000000000000000000000000000000000000PES00010000001 00000000000000020150321
201503110060000400000000000000011633000000000000000116339900000000000000000000Consumidor Final              000000000040000000000000000000000000000000000000000000000000000000000000000000000000000000000000000000000000000000000000PES00010000001 00000000000000020150321
201503120060000300000000000000103034000000000000001030349900000000000000000000Consumidor Final              000000000048000000000000000000000000000000000000000000000000000000000000000000000000000000000000000000000000000000000000PES00010000001 00000000000000020150322
201503110060000400000000000000011638000000000000000116389900000000000000000000Consumidor Final              000000000040000000000000000000000000000000000000000000000000000000000000000000000000000000000000000000000000000000000000PES00010000001 00000000000000020150321
201503110060000400000000000000011639000000000000000116399900000000000000000000Consumidor Final              000000000043000000000000000000000000000000000000000000000000000000000000000000000000000000000000000000000000000000000000PES00010000001 00000000000000020150321
201503110060000400000000000000011640000000000000000116409900000000000000000000Consumidor Final              000000000040000000000000000000000000000000000000000000000000000000000000000000000000000000000000000000000000000000000000PES00010000001 00000000000000020150321
201503110060000400000000000000011641000000000000000116419900000000000000000000Consumidor Final              000000000043000000000000000000000000000000000000000000000000000000000000000000000000000000000000000000000000000000000000PES00010000001 00000000000000020150321
201503110060000400000000000000011642000000000000000116429900000000000000000000Consumidor Final              000000000040000000000000000000000000000000000000000000000000000000000000000000000000000000000000000000000000000000000000PES00010000001 00000000000000020150321
201503110060000400000000000000011643000000000000000116439900000000000000000000Consumidor Final              000000000040000000000000000000000000000000000000000000000000000000000000000000000000000000000000000000000000000000000000PES00010000001 00000000000000020150321
201503110060000400000000000000011644000000000000000116449900000000000000000000Consumidor Final              000000000040000000000000000000000000000000000000000000000000000000000000000000000000000000000000000000000000000000000000PES00010000001 00000000000000020150321
201503120010000100000000000000001372000000000000000013728000000000030712176578EQUILIBRIO DINAMICO SA        000000000050000000000000000000000000000000000000000000000000000000000000000000000000000000000000000000000000000000000000PES00010000001 00000000000000020150322
201503120060000100000000000000185378000000000000001853789900000000000000000000Consumidor Final              000000000040000000000000000000000000000000000000000000000000000000000000000000000000000000000000000000000000000000000000PES00010000001 00000000000000020150322
201503120060000100000000000000185379000000000000001853799900000000000000000000Consumidor Final              000000000040000000000000000000000000000000000000000000000000000000000000000000000000000000000000000000000000000000000000PES00010000001 00000000000000020150322
201503110060000400000000000000011629000000000000000116299900000000000000000000Consumidor Final              000000000040000000000000000000000000000000000000000000000000000000000000000000000000000000000000000000000000000000000000PES00010000001 00000000000000020150321
201503120060000100000000000000185380000000000000001853809900000000000000000000Consumidor Final              000000000038000000000000000000000000000000000000000000000000000000000000000000000000000000000000000000000000000000000000PES00010000001 00000000000000020150322
201503120060000100000000000000185381000000000000001853819900000000000000000000Consumidor Final              000000000040000000000000000000000000000000000000000000000000000000000000000000000000000000000000000000000000000000000000PES00010000001 00000000000000020150322
201503110060000400000000000000011645000000000000000116459900000000000000000000Consumidor Final              000000000040000000000000000000000000000000000000000000000000000000000000000000000000000000000000000000000000000000000000PES00010000001 00000000000000020150321
201503110060000400000000000000011646000000000000000116469900000000000000000000Consumidor Final              000000000040000000000000000000000000000000000000000000000000000000000000000000000000000000000000000000000000000000000000PES00010000001 00000000000000020150321
201503110060000400000000000000011647000000000000000116479900000000000000000000Consumidor Final              000000000040000000000000000000000000000000000000000000000000000000000000000000000000000000000000000000000000000000000000PES00010000001 00000000000000020150321
201503120060000400000000000000011648000000000000000116489900000000000000000000Consumidor Final              000000000040000000000000000000000000000000000000000000000000000000000000000000000000000000000000000000000000000000000000PES00010000001 00000000000000020150322
201503120060000400000000000000011649000000000000000116499900000000000000000000Consumidor Final              000000000040000000000000000000000000000000000000000000000000000000000000000000000000000000000000000000000000000000000000PES00010000001 00000000000000020150322
201503120060000400000000000000011650000000000000000116509900000000000000000000Consumidor Final              000000000048000000000000000000000000000000000000000000000000000000000000000000000000000000000000000000000000000000000000PES00010000001 00000000000000020150322
201503120060000100000000000000185426000000000000001854269900000000000000000000Consumidor Final              000000000040000000000000000000000000000000000000000000000000000000000000000000000000000000000000000000000000000000000000PES00010000001 00000000000000020150322
201503120060000100000000000000185427000000000000001854279900000000000000000000Consumidor Final              000000000040000000000000000000000000000000000000000000000000000000000000000000000000000000000000000000000000000000000000PES00010000001 00000000000000020150322
201503120060000700000000000000398045000000000000003980459900000000000000000000Consumidor Final              000000000040000000000000000000000000000000000000000000000000000000000000000000000000000000000000000000000000000000000000PES00010000001 00000000000000020150322
201503120060000700000000000000398046000000000000003980469900000000000000000000Consumidor Final              000000000040000000000000000000000000000000000000000000000000000000000000000000000000000000000000000000000000000000000000PES00010000001 00000000000000020150322
201503110060000400000000000000011634000000000000000116349900000000000000000000Consumidor Final              000000000040000000000000000000000000000000000000000000000000000000000000000000000000000000000000000000000000000000000000PES00010000001 00000000000000020150321
201503110060000400000000000000011635000000000000000116359900000000000000000000Consumidor Final              000000000040000000000000000000000000000000000000000000000000000000000000000000000000000000000000000000000000000000000000PES00010000001 00000000000000020150321
201503120060000700000000000000398047000000000000003980479900000000000000000000Consumidor Final              000000000040000000000000000000000000000000000000000000000000000000000000000000000000000000000000000000000000000000000000PES00010000001 00000000000000020150322
201503110060000100000000000000185331000000000000001853319900000000000000000000Consumidor Final              000000000040000000000000000000000000000000000000000000000000000000000000000000000000000000000000000000000000000000000000PES00010000001 00000000000000020150321
201503110060000100000000000000185332000000000000001853329900000000000000000000Consumidor Final              000000000041000000000000000000000000000000000000000000000000000000000000000000000000000000000000000000000000000000000000PES00010000001 00000000000000020150321
201503110060000100000000000000185333000000000000001853339900000000000000000000Consumidor Final              000000000040000000000000000000000000000000000000000000000000000000000000000000000000000000000000000000000000000000000000PES00010000001 00000000000000020150321
201503110060000100000000000000185334000000000000001853349900000000000000000000Consumidor Final              000000000041000000000000000000000000000000000000000000000000000000000000000000000000000000000000000000000000000000000000PES00010000001 00000000000000020150321
201503110060000100000000000000185335000000000000001853359900000000000000000000Consumidor Final              000000000040000000000000000000000000000000000000000000000000000000000000000000000000000000000000000000000000000000000000PES00010000001 00000000000000020150321
201503110060000100000000000000185336000000000000001853369900000000000000000000Consumidor Final              000000000040000000000000000000000000000000000000000000000000000000000000000000000000000000000000000000000000000000000000PES00010000001 00000000000000020150321
201503110060000100000000000000185337000000000000001853379900000000000000000000Consumidor Final              000000000040000000000000000000000000000000000000000000000000000000000000000000000000000000000000000000000000000000000000PES00010000001 00000000000000020150321
201503110060000100000000000000185338000000000000001853389900000000000000000000Consumidor Final              000000000040000000000000000000000000000000000000000000000000000000000000000000000000000000000000000000000000000000000000PES00010000001 00000000000000020150321
201503110060000100000000000000185339000000000000001853399900000000000000000000Consumidor Final              000000000040000000000000000000000000000000000000000000000000000000000000000000000000000000000000000000000000000000000000PES00010000001 00000000000000020150321
201503120060000600000000000000608977000000000000006089779900000000000000000000Consumidor Final              000000000040000000000000000000000000000000000000000000000000000000000000000000000000000000000000000000000000000000000000PES00010000001 00000000000000020150322
201503120060000800000000000000124125000000000000001241259900000000000000000000Consumidor Final              000000000035000000000000000000000000000000000000000000000000000000000000000000000000000000000000000000000000000000000000PES00010000001 00000000000000020150322
201503120060000800000000000000124126000000000000001241269900000000000000000000Consumidor Final              000000000035000000000000000000000000000000000000000000000000000000000000000000000000000000000000000000000000000000000000PES00010000001 00000000000000020150322
201503120060000800000000000000124127000000000000001241279900000000000000000000Consumidor Final              000000000035000000000000000000000000000000000000000000000000000000000000000000000000000000000000000000000000000000000000PES00010000001 00000000000000020150322
201503120060000800000000000000124128000000000000001241289900000000000000000000Consumidor Final              000000000035000000000000000000000000000000000000000000000000000000000000000000000000000000000000000000000000000000000000PES00010000001 00000000000000020150322
201503120060000800000000000000124129000000000000001241299900000000000000000000Consumidor Final              000000000035000000000000000000000000000000000000000000000000000000000000000000000000000000000000000000000000000000000000PES00010000001 00000000000000020150322
201503120060000800000000000000124130000000000000001241309900000000000000000000Consumidor Final              000000000035000000000000000000000000000000000000000000000000000000000000000000000000000000000000000000000000000000000000PES00010000001 00000000000000020150322
201503120060000600000000000000608979000000000000006089799900000000000000000000Consumidor Final              000000000040000000000000000000000000000000000000000000000000000000000000000000000000000000000000000000000000000000000000PES00010000001 00000000000000020150322
201503120060000800000000000000124131000000000000001241319900000000000000000000Consumidor Final              000000000035000000000000000000000000000000000000000000000000000000000000000000000000000000000000000000000000000000000000PES00010000001 00000000000000020150322
201503120060000800000000000000124132000000000000001241329900000000000000000000Consumidor Final              000000000035000000000000000000000000000000000000000000000000000000000000000000000000000000000000000000000000000000000000PES00010000001 00000000000000020150322
201503120060000300000000000000103019000000000000001030199900000000000000000000Consumidor Final              000000000039000000000000000000000000000000000000000000000000000000000000000000000000000000000000000000000000000000000000PES00010000001 00000000000000020150322
201503120060000800000000000000124133000000000000001241339900000000000000000000Consumidor Final              000000000035000000000000000000000000000000000000000000000000000000000000000000000000000000000000000000000000000000000000PES00010000001 00000000000000020150322
201503120060000100000000000000185385000000000000001853859900000000000000000000Consumidor Final              000000000040000000000000000000000000000000000000000000000000000000000000000000000000000000000000000000000000000000000000PES00010000001 00000000000000020150322
201503120060000300000000000000103020000000000000001030209900000000000000000000Consumidor Final              000000000040000000000000000000000000000000000000000000000000000000000000000000000000000000000000000000000000000000000000PES00010000001 00000000000000020150322
201503010060000600000000000000607018000000000000006070189900000000000000000000Consumidor Final              000000000038000000000000000000000000000000000000000000000000000000000000000000000000000000000000000000000000000000000000PES00010000001 00000000000000020150311
201503010060000600000000000000607019000000000000006070199900000000000000000000Consumidor Final              000000000038000000000000000000000000000000000000000000000000000000000000000000000000000000000000000000000000000000000000PES00010000001 00000000000000020150311
201503010060000600000000000000607020000000000000006070209900000000000000000000Consumidor Final              000000000040000000000000000000000000000000000000000000000000000000000000000000000000000000000000000000000000000000000000PES00010000001 00000000000000020150311
201503010060000600000000000000607021000000000000006070219900000000000000000000Consumidor Final              000000000040000000000000000000000000000000000000000000000000000000000000000000000000000000000000000000000000000000000000PES00010000001 00000000000000020150311
201503010060000600000000000000607022000000000000006070229900000000000000000000Consumidor Final              000000000043000000000000000000000000000000000000000000000000000000000000000000000000000000000000000000000000000000000000PES00010000001 00000000000000020150311
201503010060000700000000000000396242000000000000003962429900000000000000000000Consumidor Final              000000000015000000000000000000000000000000000000000000000000000000000000000000000000000000000000000000000000000000000000PES00010000001 00000000000000020150311
201503010060000600000000000000607033000000000000006070339900000000000000000000Consumidor Final              000000000038000000000000000000000000000000000000000000000000000000000000000000000000000000000000000000000000000000000000PES00010000001 00000000000000020150311
201503010060000700000000000000396252000000000000003962529900000000000000000000Consumidor Final              000000000039000000000000000000000000000000000000000000000000000000000000000000000000000000000000000000000000000000000000PES00010000001 00000000000000020150311
201503010060000600000000000000607039000000000000006070399900000000000000000000Consumidor Final              000000000040000000000000000000000000000000000000000000000000000000000000000000000000000000000000000000000000000000000000PES00010000001 00000000000000020150311
201503010060000600000000000000607040000000000000006070409900000000000000000000Consumidor Final              000000000042000000000000000000000000000000000000000000000000000000000000000000000000000000000000000000000000000000000000PES00010000001 00000000000000020150311
201503010060000700000000000000396253000000000000003962539900000000000000000000Consumidor Final              000000000040000000000000000000000000000000000000000000000000000000000000000000000000000000000000000000000000000000000000PES00010000001 00000000000000020150311
201503010010000600000000000000004654000000000000000046548000000000030687327256AON RICK SERVICES             000000000026000000000000000000000000000000000000000000000000000000000000000000000000000000000000000000000000000000000000PES00010000001 00000000000000020150311
201503010060000600000000000000607041000000000000006070419900000000000000000000Consumidor Final              000000000040000000000000000000000000000000000000000000000000000000000000000000000000000000000000000000000000000000000000PES00010000001 00000000000000020150311
201503010060000600000000000000607044000000000000006070449900000000000000000000Consumidor Final              000000000048000000000000000000000000000000000000000000000000000000000000000000000000000000000000000000000000000000000000PES00010000001 00000000000000020150311
201503010060000700000000000000396258000000000000003962589900000000000000000000Consumidor Final              000000000040000000000000000000000000000000000000000000000000000000000000000000000000000000000000000000000000000000000000PES00010000001 00000000000000020150311
201503010060000700000000000000396259000000000000003962599900000000000000000000Consumidor Final              000000000040000000000000000000000000000000000000000000000000000000000000000000000000000000000000000000000000000000000000PES00010000001 00000000000000020150311
201503010060000700000000000000396260000000000000003962609900000000000000000000Consumidor Final              000000000040000000000000000000000000000000000000000000000000000000000000000000000000000000000000000000000000000000000000PES00010000001 00000000000000020150311
201503010060000600000000000000607045000000000000006070459900000000000000000000Consumidor Final              000000000035000000000000000000000000000000000000000000000000000000000000000000000000000000000000000000000000000000000000PES00010000001 00000000000000020150311
201503010060000600000000000000607046000000000000006070469900000000000000000000Consumidor Final              000000000040000000000000000000000000000000000000000000000000000000000000000000000000000000000000000000000000000000000000PES00010000001 00000000000000020150311
201503010060000700000000000000396261000000000000003962619900000000000000000000Consumidor Final              000000000040000000000000000000000000000000000000000000000000000000000000000000000000000000000000000000000000000000000000PES00010000001 00000000000000020150311
201503010060000600000000000000607047000000000000006070479900000000000000000000Consumidor Final              000000000048000000000000000000000000000000000000000000000000000000000000000000000000000000000000000000000000000000000000PES00010000001 00000000000000020150311
201503010060000600000000000000607048000000000000006070489900000000000000000000Consumidor Final              000000000052000000000000000000000000000000000000000000000000000000000000000000000000000000000000000000000000000000000000PES00010000001 00000000000000020150311
201503010060000600000000000000607049000000000000006070499900000000000000000000Consumidor Final              000000000040000000000000000000000000000000000000000000000000000000000000000000000000000000000000000000000000000000000000PES00010000001 00000000000000020150311
201503010060000600000000000000607050000000000000006070509900000000000000000000Consumidor Final              000000000038000000000000000000000000000000000000000000000000000000000000000000000000000000000000000000000000000000000000PES00010000001 00000000000000020150311
201503010060000600000000000000607051000000000000006070519900000000000000000000Consumidor Final              000000000048000000000000000000000000000000000000000000000000000000000000000000000000000000000000000000000000000000000000PES00010000001 00000000000000020150311
201503010060000600000000000000607052000000000000006070529900000000000000000000Consumidor Final              000000000040000000000000000000000000000000000000000000000000000000000000000000000000000000000000000000000000000000000000PES00010000001 00000000000000020150311
201503010060000600000000000000607053000000000000006070539900000000000000000000Consumidor Final              000000000040000000000000000000000000000000000000000000000000000000000000000000000000000000000000000000000000000000000000PES00010000001 00000000000000020150311
201503010010000700000000000000002714000000000000000027148000000000020273145746ALEJANDRO CARROZZO            000000000084000000000000000000000000000000000000000000000000000000000000000000000000000000000000000000000000000000000000PES00010000001 00000000000000020150311
201503010060000300000000000000102710000000000000001027109900000000000000000000Consumidor Final              000000000040000000000000000000000000000000000000000000000000000000000000000000000000000000000000000000000000000000000000PES00010000001 00000000000000020150311
201503010060000600000000000000607072000000000000006070729900000000000000000000Consumidor Final              000000000040000000000000000000000000000000000000000000000000000000000000000000000000000000000000000000000000000000000000PES00010000001 00000000000000020150311
201503010060000600000000000000607073000000000000006070739900000000000000000000Consumidor Final              000000000040000000000000000000000000000000000000000000000000000000000000000000000000000000000000000000000000000000000000PES00010000001 00000000000000020150311
201503010060000800000000000000123507000000000000001235079900000000000000000000Consumidor Final              000000000035000000000000000000000000000000000000000000000000000000000000000000000000000000000000000000000000000000000000PES00010000001 00000000000000020150311
201503010060000800000000000000123508000000000000001235089900000000000000000000Consumidor Final              000000000035000000000000000000000000000000000000000000000000000000000000000000000000000000000000000000000000000000000000PES00010000001 00000000000000020150311
201503010060000800000000000000123509000000000000001235099900000000000000000000Consumidor Final              000000000035000000000000000000000000000000000000000000000000000000000000000000000000000000000000000000000000000000000000PES00010000001 00000000000000020150311
201503010060000600000000000000607089000000000000006070899900000000000000000000Consumidor Final              000000000040000000000000000000000000000000000000000000000000000000000000000000000000000000000000000000000000000000000000PES00010000001 00000000000000020150311
201503010060000600000000000000607090000000000000006070909900000000000000000000Consumidor Final              000000000040000000000000000000000000000000000000000000000000000000000000000000000000000000000000000000000000000000000000PES00010000001 00000000000000020150311
201503010060000600000000000000607091000000000000006070919900000000000000000000Consumidor Final              000000000040000000000000000000000000000000000000000000000000000000000000000000000000000000000000000000000000000000000000PES00010000001 00000000000000020150311
201503010060000600000000000000607092000000000000006070929900000000000000000000Consumidor Final              000000000040000000000000000000000000000000000000000000000000000000000000000000000000000000000000000000000000000000000000PES00010000001 00000000000000020150311
201503010060000700000000000000396286000000000000003962869900000000000000000000Consumidor Final              000000000040000000000000000000000000000000000000000000000000000000000000000000000000000000000000000000000000000000000000PES00010000001 00000000000000020150311
201503010060000600000000000000607094000000000000006070949900000000000000000000Consumidor Final              000000000040000000000000000000000000000000000000000000000000000000000000000000000000000000000000000000000000000000000000PES00010000001 00000000000000020150311
201503010060000600000000000000607096000000000000006070969900000000000000000000Consumidor Final              000000000040000000000000000000000000000000000000000000000000000000000000000000000000000000000000000000000000000000000000PES00010000001 00000000000000020150311
201503010060000600000000000000607012000000000000006070129900000000000000000000Consumidor Final              000000000040000000000000000000000000000000000000000000000000000000000000000000000000000000000000000000000000000000000000PES00010000001 00000000000000020150311
201503010060000600000000000000607013000000000000006070139900000000000000000000Consumidor Final              000000000040000000000000000000000000000000000000000000000000000000000000000000000000000000000000000000000000000000000000PES00010000001 00000000000000020150311
201503010060000600000000000000607015000000000000006070159900000000000000000000Consumidor Final              000000000040000000000000000000000000000000000000000000000000000000000000000000000000000000000000000000000000000000000000PES00010000001 00000000000000020150311
201503010060000600000000000000607017000000000000006070179900000000000000000000Consumidor Final              000000000048000000000000000000000000000000000000000000000000000000000000000000000000000000000000000000000000000000000000PES00010000001 00000000000000020150311
201503010060000700000000000000396229000000000000003962299900000000000000000000Consumidor Final              000000000052000000000000000000000000000000000000000000000000000000000000000000000000000000000000000000000000000000000000PES00010000001 00000000000000020150311
201503010060000700000000000000396230000000000000003962309900000000000000000000Consumidor Final              000000000040000000000000000000000000000000000000000000000000000000000000000000000000000000000000000000000000000000000000PES00010000001 00000000000000020150311
201503010060000700000000000000396231000000000000003962319900000000000000000000Consumidor Final              000000000040000000000000000000000000000000000000000000000000000000000000000000000000000000000000000000000000000000000000PES00010000001 00000000000000020150311
201503010060000700000000000000396233000000000000003962339900000000000000000000Consumidor Final              000000000040000000000000000000000000000000000000000000000000000000000000000000000000000000000000000000000000000000000000PES00010000001 00000000000000020150311
201503010010000700000000000000002713000000000000000027138000000000020133806602DE CECCO JAVIER GASPAR        000000000040000000000000000000000000000000000000000000000000000000000000000000000000000000000000000000000000000000000000PES00010000001 00000000000000020150311
201503010060000700000000000000396234000000000000003962349900000000000000000000Consumidor Final              000000000041000000000000000000000000000000000000000000000000000000000000000000000000000000000000000000000000000000000000PES00010000001 00000000000000020150311
201503010060000700000000000000396235000000000000003962359900000000000000000000Consumidor Final              000000000045000000000000000000000000000000000000000000000000000000000000000000000000000000000000000000000000000000000000PES00010000001 00000000000000020150311
201503010060000600000000000000607024000000000000006070249900000000000000000000Consumidor Final              000000000040000000000000000000000000000000000000000000000000000000000000000000000000000000000000000000000000000000000000PES00010000001 00000000000000020150311
201503010060000700000000000000396243000000000000003962439900000000000000000000Consumidor Final              000000000040000000000000000000000000000000000000000000000000000000000000000000000000000000000000000000000000000000000000PES00010000001 00000000000000020150311
201503010060000600000000000000607014000000000000006070149900000000000000000000Consumidor Final              000000000040000000000000000000000000000000000000000000000000000000000000000000000000000000000000000000000000000000000000PES00010000001 00000000000000020150311
201503010060000700000000000000396232000000000000003962329900000000000000000000Consumidor Final              000000000040000000000000000000000000000000000000000000000000000000000000000000000000000000000000000000000000000000000000PES00010000001 00000000000000020150311
201503010060000600000000000000607016000000000000006070169900000000000000000000Consumidor Final              000000000040000000000000000000000000000000000000000000000000000000000000000000000000000000000000000000000000000000000000PES00010000001 00000000000000020150311
201503010060000700000000000000396236000000000000003962369900000000000000000000Consumidor Final              000000000043000000000000000000000000000000000000000000000000000000000000000000000000000000000000000000000000000000000000PES00010000001 00000000000000020150311
201503010060000700000000000000396237000000000000003962379900000000000000000000Consumidor Final              000000000040000000000000000000000000000000000000000000000000000000000000000000000000000000000000000000000000000000000000PES00010000001 00000000000000020150311
201503010060000700000000000000396238000000000000003962389900000000000000000000Consumidor Final              000000000040000000000000000000000000000000000000000000000000000000000000000000000000000000000000000000000000000000000000PES00010000001 00000000000000020150311
201503010060000700000000000000396239000000000000003962399900000000000000000000Consumidor Final              000000000040000000000000000000000000000000000000000000000000000000000000000000000000000000000000000000000000000000000000PES00010000001 00000000000000020150311
201503010060000700000000000000396240000000000000003962409900000000000000000000Consumidor Final              000000000040000000000000000000000000000000000000000000000000000000000000000000000000000000000000000000000000000000000000PES00010000001 00000000000000020150311
201503010060000600000000000000607027000000000000006070279900000000000000000000Consumidor Final              000000000040000000000000000000000000000000000000000000000000000000000000000000000000000000000000000000000000000000000000PES00010000001 00000000000000020150311
201503010060000600000000000000607028000000000000006070289900000000000000000000Consumidor Final              000000000043000000000000000000000000000000000000000000000000000000000000000000000000000000000000000000000000000000000000PES00010000001 00000000000000020150311
201503010060000600000000000000607029000000000000006070299900000000000000000000Consumidor Final              000000000040000000000000000000000000000000000000000000000000000000000000000000000000000000000000000000000000000000000000PES00010000001 00000000000000020150311
201503010060000600000000000000607030000000000000006070309900000000000000000000Consumidor Final              000000000040000000000000000000000000000000000000000000000000000000000000000000000000000000000000000000000000000000000000PES00010000001 00000000000000020150311
201503010060000600000000000000607031000000000000006070319900000000000000000000Consumidor Final              000000000040000000000000000000000000000000000000000000000000000000000000000000000000000000000000000000000000000000000000PES00010000001 00000000000000020150311
201503010060000600000000000000607032000000000000006070329900000000000000000000Consumidor Final              000000000040000000000000000000000000000000000000000000000000000000000000000000000000000000000000000000000000000000000000PES00010000001 00000000000000020150311
201503010060000700000000000000396245000000000000003962459900000000000000000000Consumidor Final              000000000048000000000000000000000000000000000000000000000000000000000000000000000000000000000000000000000000000000000000PES00010000001 00000000000000020150311
201503010060000700000000000000396246000000000000003962469900000000000000000000Consumidor Final              000000000035000000000000000000000000000000000000000000000000000000000000000000000000000000000000000000000000000000000000PES00010000001 00000000000000020150311
201503010060000600000000000000607023000000000000006070239900000000000000000000Consumidor Final              000000000048000000000000000000000000000000000000000000000000000000000000000000000000000000000000000000000000000000000000PES00010000001 00000000000000020150311
201503010060000700000000000000396241000000000000003962419900000000000000000000Consumidor Final              000000000040000000000000000000000000000000000000000000000000000000000000000000000000000000000000000000000000000000000000PES00010000001 00000000000000020150311
201503010060000700000000000000396244000000000000003962449900000000000000000000Consumidor Final              000000000035000000000000000000000000000000000000000000000000000000000000000000000000000000000000000000000000000000000000PES00010000001 00000000000000020150311
201503010060000700000000000000396247000000000000003962479900000000000000000000Consumidor Final              000000000031000000000000000000000000000000000000000000000000000000000000000000000000000000000000000000000000000000000000PES00010000001 00000000000000020150311
201503010060000700000000000000396248000000000000003962489900000000000000000000Consumidor Final              000000000038000000000000000000000000000000000000000000000000000000000000000000000000000000000000000000000000000000000000PES00010000001 00000000000000020150311
201503010060000700000000000000396249000000000000003962499900000000000000000000Consumidor Final              000000000040000000000000000000000000000000000000000000000000000000000000000000000000000000000000000000000000000000000000PES00010000001 00000000000000020150311
201503010060000700000000000000396250000000000000003962509900000000000000000000Consumidor Final              000000000040000000000000000000000000000000000000000000000000000000000000000000000000000000000000000000000000000000000000PES00010000001 00000000000000020150311
201503010060000700000000000000396251000000000000003962519900000000000000000000Consumidor Final              000000000040000000000000000000000000000000000000000000000000000000000000000000000000000000000000000000000000000000000000PES00010000001 00000000000000020150311
201503010060000700000000000000396254000000000000003962549900000000000000000000Consumidor Final              000000000040000000000000000000000000000000000000000000000000000000000000000000000000000000000000000000000000000000000000PES00010000001 00000000000000020150311
201503010060000600000000000000607042000000000000006070429900000000000000000000Consumidor Final              000000000042000000000000000000000000000000000000000000000000000000000000000000000000000000000000000000000000000000000000PES00010000001 00000000000000020150311
201503010060000700000000000000396255000000000000003962559900000000000000000000Consumidor Final              000000000040000000000000000000000000000000000000000000000000000000000000000000000000000000000000000000000000000000000000PES00010000001 00000000000000020150311
201503010060000600000000000000607043000000000000006070439900000000000000000000Consumidor Final              000000000040000000000000000000000000000000000000000000000000000000000000000000000000000000000000000000000000000000000000PES00010000001 00000000000000020150311
201503010060000700000000000000396256000000000000003962569900000000000000000000Consumidor Final              000000000040000000000000000000000000000000000000000000000000000000000000000000000000000000000000000000000000000000000000PES00010000001 00000000000000020150311
201503010060000700000000000000396257000000000000003962579900000000000000000000Consumidor Final              000000000047000000000000000000000000000000000000000000000000000000000000000000000000000000000000000000000000000000000000PES00010000001 00000000000000020150311
201503010060000600000000000000607025000000000000006070259900000000000000000000Consumidor Final              000000000040000000000000000000000000000000000000000000000000000000000000000000000000000000000000000000000000000000000000PES00010000001 00000000000000020150311
201503010060000600000000000000607026000000000000006070269900000000000000000000Consumidor Final              000000000040000000000000000000000000000000000000000000000000000000000000000000000000000000000000000000000000000000000000PES00010000001 00000000000000020150311
201503010060000600000000000000607034000000000000006070349900000000000000000000Consumidor Final              000000000042000000000000000000000000000000000000000000000000000000000000000000000000000000000000000000000000000000000000PES00010000001 00000000000000020150311
201503010060000600000000000000607035000000000000006070359900000000000000000000Consumidor Final              000000000040000000000000000000000000000000000000000000000000000000000000000000000000000000000000000000000000000000000000PES00010000001 00000000000000020150311
201503010060000600000000000000607036000000000000006070369900000000000000000000Consumidor Final              000000000040000000000000000000000000000000000000000000000000000000000000000000000000000000000000000000000000000000000000PES00010000001 00000000000000020150311
201503010060000600000000000000607037000000000000006070379900000000000000000000Consumidor Final              000000000041000000000000000000000000000000000000000000000000000000000000000000000000000000000000000000000000000000000000PES00010000001 00000000000000020150311
201503010060000600000000000000607038000000000000006070389900000000000000000000Consumidor Final              000000000035000000000000000000000000000000000000000000000000000000000000000000000000000000000000000000000000000000000000PES00010000001 00000000000000020150311
201503010010000600000000000000004653000000000000000046538000000000030714166324ROCKSTARR CONSULTING SA       000000000040000000000000000000000000000000000000000000000000000000000000000000000000000000000000000000000000000000000000PES00010000001 00000000000000020150311
201503010060000700000000000000396262000000000000003962629900000000000000000000Consumidor Final              000000000040000000000000000000000000000000000000000000000000000000000000000000000000000000000000000000000000000000000000PES00010000001 00000000000000020150311
201503010060000700000000000000396263000000000000003962639900000000000000000000Consumidor Final              000000000040000000000000000000000000000000000000000000000000000000000000000000000000000000000000000000000000000000000000PES00010000001 00000000000000020150311
201503010060000600000000000000607057000000000000006070579900000000000000000000Consumidor Final              000000000040000000000000000000000000000000000000000000000000000000000000000000000000000000000000000000000000000000000000PES00010000001 00000000000000020150311
201503010060000600000000000000607058000000000000006070589900000000000000000000Consumidor Final              000000000040000000000000000000000000000000000000000000000000000000000000000000000000000000000000000000000000000000000000PES00010000001 00000000000000020150311
201503010060000600000000000000607059000000000000006070599900000000000000000000Consumidor Final              000000000040000000000000000000000000000000000000000000000000000000000000000000000000000000000000000000000000000000000000PES00010000001 00000000000000020150311
201503010060000600000000000000607060000000000000006070609900000000000000000000Consumidor Final              000000000040000000000000000000000000000000000000000000000000000000000000000000000000000000000000000000000000000000000000PES00010000001 00000000000000020150311
201503010060000600000000000000607054000000000000006070549900000000000000000000Consumidor Final              000000000049000000000000000000000000000000000000000000000000000000000000000000000000000000000000000000000000000000000000PES00010000001 00000000000000020150311
201503010060000100000000000000185026000000000000001850269900000000000000000000Consumidor Final              000000000040000000000000000000000000000000000000000000000000000000000000000000000000000000000000000000000000000000000000PES00010000001 00000000000000020150311
201503010060000600000000000000607061000000000000006070619900000000000000000000Consumidor Final              000000000040000000000000000000000000000000000000000000000000000000000000000000000000000000000000000000000000000000000000PES00010000001 00000000000000020150311
201503010060000700000000000000396265000000000000003962659900000000000000000000Consumidor Final              000000000040000000000000000000000000000000000000000000000000000000000000000000000000000000000000000000000000000000000000PES00010000001 00000000000000020150311
201503010060000600000000000000607062000000000000006070629900000000000000000000Consumidor Final              000000000040000000000000000000000000000000000000000000000000000000000000000000000000000000000000000000000000000000000000PES00010000001 00000000000000020150311
201503010060000600000000000000607063000000000000006070639900000000000000000000Consumidor Final              000000000040000000000000000000000000000000000000000000000000000000000000000000000000000000000000000000000000000000000000PES00010000001 00000000000000020150311
201503010060000700000000000000396266000000000000003962669900000000000000000000Consumidor Final              000000000040000000000000000000000000000000000000000000000000000000000000000000000000000000000000000000000000000000000000PES00010000001 00000000000000020150311
201503010060000600000000000000607064000000000000006070649900000000000000000000Consumidor Final              000000000040000000000000000000000000000000000000000000000000000000000000000000000000000000000000000000000000000000000000PES00010000001 00000000000000020150311
201503010060000700000000000000396267000000000000003962679900000000000000000000Consumidor Final              000000000047000000000000000000000000000000000000000000000000000000000000000000000000000000000000000000000000000000000000PES00010000001 00000000000000020150311
201503010060000600000000000000607065000000000000006070659900000000000000000000Consumidor Final              000000000040000000000000000000000000000000000000000000000000000000000000000000000000000000000000000000000000000000000000PES00010000001 00000000000000020150311
201503010060000800000000000000123502000000000000001235029900000000000000000000Consumidor Final              000000000035000000000000000000000000000000000000000000000000000000000000000000000000000000000000000000000000000000000000PES00010000001 00000000000000020150311
201503010060000700000000000000396270000000000000003962709900000000000000000000Consumidor Final              000000000067000000000000000000000000000000000000000000000000000000000000000000000000000000000000000000000000000000000000PES00010000001 00000000000000020150311
201503010060000600000000000000607068000000000000006070689900000000000000000000Consumidor Final              000000000076000000000000000000000000000000000000000000000000000000000000000000000000000000000000000000000000000000000000PES00010000001 00000000000000020150311
201503010060000700000000000000396271000000000000003962719900000000000000000000Consumidor Final              000000000040000000000000000000000000000000000000000000000000000000000000000000000000000000000000000000000000000000000000PES00010000001 00000000000000020150311
201503010060000600000000000000607055000000000000006070559900000000000000000000Consumidor Final              000000000040000000000000000000000000000000000000000000000000000000000000000000000000000000000000000000000000000000000000PES00010000001 00000000000000020150311
201503010060000600000000000000607056000000000000006070569900000000000000000000Consumidor Final              000000000026000000000000000000000000000000000000000000000000000000000000000000000000000000000000000000000000000000000000PES00010000001 00000000000000020150311
201503010060000800000000000000123490000000000000001234909900000000000000000000Consumidor Final              000000000035000000000000000000000000000000000000000000000000000000000000000000000000000000000000000000000000000000000000PES00010000001 00000000000000020150311
201503010060000800000000000000123491000000000000001234919900000000000000000000Consumidor Final              000000000042000000000000000000000000000000000000000000000000000000000000000000000000000000000000000000000000000000000000PES00010000001 00000000000000020150311
201503010060000800000000000000123492000000000000001234929900000000000000000000Consumidor Final              000000000000035000000000000000000000000000000000000000000000000000000000000000000000000000000000000000000000000000000000PES00010000001 00000000000000020150311
201503010060000800000000000000123493000000000000001234939900000000000000000000Consumidor Final              000000000035000000000000000000000000000000000000000000000000000000000000000000000000000000000000000000000000000000000000PES00010000001 00000000000000020150311
201503010060000800000000000000123494000000000000001234949900000000000000000000Consumidor Final              000000000035000000000000000000000000000000000000000000000000000000000000000000000000000000000000000000000000000000000000PES00010000001 00000000000000020150311
201503010060000800000000000000123495000000000000001234959900000000000000000000Consumidor Final              000000000035000000000000000000000000000000000000000000000000000000000000000000000000000000000000000000000000000000000000PES00010000001 00000000000000020150311
201503010060000800000000000000123496000000000000001234969900000000000000000000Consumidor Final              000000000035000000000000000000000000000000000000000000000000000000000000000000000000000000000000000000000000000000000000PES00010000001 00000000000000020150311
201503010060000800000000000000123497000000000000001234979900000000000000000000Consumidor Final              000000000035000000000000000000000000000000000000000000000000000000000000000000000000000000000000000000000000000000000000PES00010000001 00000000000000020150311
201503010060000800000000000000123498000000000000001234989900000000000000000000Consumidor Final              000000000035000000000000000000000000000000000000000000000000000000000000000000000000000000000000000000000000000000000000PES00010000001 00000000000000020150311
201503010060000800000000000000123499000000000000001234999900000000000000000000Consumidor Final              000000000035000000000000000000000000000000000000000000000000000000000000000000000000000000000000000000000000000000000000PES00010000001 00000000000000020150311
201503010060000800000000000000123500000000000000001235009900000000000000000000Consumidor Final              000000000035000000000000000000000000000000000000000000000000000000000000000000000000000000000000000000000000000000000000PES00010000001 00000000000000020150311
201503010060000700000000000000396264000000000000003962649900000000000000000000Consumidor Final              000000000053000000000000000000000000000000000000000000000000000000000000000000000000000000000000000000000000000000000000PES00010000001 00000000000000020150311
201503010060000800000000000000123501000000000000001235019900000000000000000000Consumidor Final              000000000035000000000000000000000000000000000000000000000000000000000000000000000000000000000000000000000000000000000000PES00010000001 00000000000000020150311
201503010060000700000000000000396268000000000000003962689900000000000000000000Consumidor Final              000000000015000000000000000000000000000000000000000000000000000000000000000000000000000000000000000000000000000000000000PES00010000001 00000000000000020150311
201503010060000700000000000000396269000000000000003962699900000000000000000000Consumidor Final              000000000015000000000000000000000000000000000000000000000000000000000000000000000000000000000000000000000000000000000000PES00010000001 00000000000000020150311
201503010060000600000000000000607066000000000000006070669900000000000000000000Consumidor Final              000000000040000000000000000000000000000000000000000000000000000000000000000000000000000000000000000000000000000000000000PES00010000001 00000000000000020150311
201503010060000600000000000000607067000000000000006070679900000000000000000000Consumidor Final              000000000040000000000000000000000000000000000000000000000000000000000000000000000000000000000000000000000000000000000000PES00010000001 00000000000000020150311
201503010060000800000000000000123503000000000000001235039900000000000000000000Consumidor Final              000000000042000000000000000000000000000000000000000000000000000000000000000000000000000000000000000000000000000000000000PES00010000001 00000000000000020150311
201503010060000300000000000000102709000000000000001027099900000000000000000000Consumidor Final              000000000040000000000000000000000000000000000000000000000000000000000000000000000000000000000000000000000000000000000000PES00010000001 00000000000000020150311
201503010060000100000000000000185027000000000000001850279900000000000000000000Consumidor Final              000000000040000000000000000000000000000000000000000000000000000000000000000000000000000000000000000000000000000000000000PES00010000001 00000000000000020150311
201503010060000800000000000000123504000000000000001235049900000000000000000000Consumidor Final              000000000035000000000000000000000000000000000000000000000000000000000000000000000000000000000000000000000000000000000000PES00010000001 00000000000000020150311
201503010060000600000000000000607070000000000000006070709900000000000000000000Consumidor Final              000000000043000000000000000000000000000000000000000000000000000000000000000000000000000000000000000000000000000000000000PES00010000001 00000000000000020150311
201503010060000800000000000000123505000000000000001235059900000000000000000000Consumidor Final              000000000035000000000000000000000000000000000000000000000000000000000000000000000000000000000000000000000000000000000000PES00010000001 00000000000000020150311
201503010060000700000000000000396274000000000000003962749900000000000000000000Consumidor Final              000000000041000000000000000000000000000000000000000000000000000000000000000000000000000000000000000000000000000000000000PES00010000001 00000000000000020150311
201503010060000600000000000000607071000000000000006070719900000000000000000000Consumidor Final              000000000015000000000000000000000000000000000000000000000000000000000000000000000000000000000000000000000000000000000000PES00010000001 00000000000000020150311
201503010060000800000000000000123506000000000000001235069900000000000000000000Consumidor Final              000000000035000000000000000000000000000000000000000000000000000000000000000000000000000000000000000000000000000000000000PES00010000001 00000000000000020150311
201503010060000700000000000000396272000000000000003962729900000000000000000000Consumidor Final              000000000041000000000000000000000000000000000000000000000000000000000000000000000000000000000000000000000000000000000000PES00010000001 00000000000000020150311
201503010060000600000000000000607074000000000000006070749900000000000000000000Consumidor Final              000000000048000000000000000000000000000000000000000000000000000000000000000000000000000000000000000000000000000000000000PES00010000001 00000000000000020150311
201503010060000600000000000000607075000000000000006070759900000000000000000000Consumidor Final              000000000040000000000000000000000000000000000000000000000000000000000000000000000000000000000000000000000000000000000000PES00010000001 00000000000000020150311
201503010060000700000000000000396276000000000000003962769900000000000000000000Consumidor Final              000000000040000000000000000000000000000000000000000000000000000000000000000000000000000000000000000000000000000000000000PES00010000001 00000000000000020150311
201503010060000700000000000000396277000000000000003962779900000000000000000000Consumidor Final              000000000040000000000000000000000000000000000000000000000000000000000000000000000000000000000000000000000000000000000000PES00010000001 00000000000000020150311
201503010060000600000000000000607076000000000000006070769900000000000000000000Consumidor Final              000000000040000000000000000000000000000000000000000000000000000000000000000000000000000000000000000000000000000000000000PES00010000001 00000000000000020150311
201503010060000600000000000000607077000000000000006070779900000000000000000000Consumidor Final              000000000048000000000000000000000000000000000000000000000000000000000000000000000000000000000000000000000000000000000000PES00010000001 00000000000000020150311
201503010060000600000000000000607078000000000000006070789900000000000000000000Consumidor Final              000000000040000000000000000000000000000000000000000000000000000000000000000000000000000000000000000000000000000000000000PES00010000001 00000000000000020150311
201503010060000700000000000000396278000000000000003962789900000000000000000000Consumidor Final              000000000040000000000000000000000000000000000000000000000000000000000000000000000000000000000000000000000000000000000000PES00010000001 00000000000000020150311
201503010060000600000000000000607079000000000000006070799900000000000000000000Consumidor Final              000000000069000000000000000000000000000000000000000000000000000000000000000000000000000000000000000000000000000000000000PES00010000001 00000000000000020150311
201503010060000600000000000000607080000000000000006070809900000000000000000000Consumidor Final              000000000040000000000000000000000000000000000000000000000000000000000000000000000000000000000000000000000000000000000000PES00010000001 00000000000000020150311
201503010060000700000000000000396279000000000000003962799900000000000000000000Consumidor Final              000000000040000000000000000000000000000000000000000000000000000000000000000000000000000000000000000000000000000000000000PES00010000001 00000000000000020150311
201503010060000600000000000000607081000000000000006070819900000000000000000000Consumidor Final              000000000040000000000000000000000000000000000000000000000000000000000000000000000000000000000000000000000000000000000000PES00010000001 00000000000000020150311
201503010060000700000000000000396273000000000000003962739900000000000000000000Consumidor Final              000000000040000000000000000000000000000000000000000000000000000000000000000000000000000000000000000000000000000000000000PES00010000001 00000000000000020150311
201503010060000700000000000000396280000000000000003962809900000000000000000000Consumidor Final              000000000040000000000000000000000000000000000000000000000000000000000000000000000000000000000000000000000000000000000000PES00010000001 00000000000000020150311
201503010060000700000000000000396281000000000000003962819900000000000000000000Consumidor Final              000000000040000000000000000000000000000000000000000000000000000000000000000000000000000000000000000000000000000000000000PES00010000001 00000000000000020150311
201503010060000600000000000000607082000000000000006070829900000000000000000000Consumidor Final              000000000029000000000000000000000000000000000000000000000000000000000000000000000000000000000000000000000000000000000000PES00010000001 00000000000000020150311
201503010060000700000000000000396282000000000000003962829900000000000000000000Consumidor Final              000000000040000000000000000000000000000000000000000000000000000000000000000000000000000000000000000000000000000000000000PES00010000001 00000000000000020150311
201503010060000600000000000000607083000000000000006070839900000000000000000000Consumidor Final              000000000040000000000000000000000000000000000000000000000000000000000000000000000000000000000000000000000000000000000000PES00010000001 00000000000000020150311
201503010060000600000000000000607084000000000000006070849900000000000000000000Consumidor Final              000000000040000000000000000000000000000000000000000000000000000000000000000000000000000000000000000000000000000000000000PES00010000001 00000000000000020150311
201503010060000700000000000000396283000000000000003962839900000000000000000000Consumidor Final              000000000040000000000000000000000000000000000000000000000000000000000000000000000000000000000000000000000000000000000000PES00010000001 00000000000000020150311
201503010060000700000000000000396284000000000000003962849900000000000000000000Consumidor Final              000000000040000000000000000000000000000000000000000000000000000000000000000000000000000000000000000000000000000000000000PES00010000001 00000000000000020150311
201503010060000700000000000000396285000000000000003962859900000000000000000000Consumidor Final              000000000029000000000000000000000000000000000000000000000000000000000000000000000000000000000000000000000000000000000000PES00010000001 00000000000000020150311
201503010060000600000000000000607093000000000000006070938000000000027175002974ROSA GABRIELA PUIG            000000000288000000000000000000000000000000000000000000000000000000000000000000000000000000000000000000000000000000000000PES00010000001 00000000000000020150311
201503010060000600000000000000607095000000000000006070959900000000000000000000Consumidor Final              000000000040000000000000000000000000000000000000000000000000000000000000000000000000000000000000000000000000000000000000PES00010000001 00000000000000020150311
201503010060000700000000000000396291000000000000003962919900000000000000000000Consumidor Final              000000000040000000000000000000000000000000000000000000000000000000000000000000000000000000000000000000000000000000000000PES00010000001 00000000000000020150311
201503010060000600000000000000607069000000000000006070699900000000000000000000Consumidor Final              000000000062000000000000000000000000000000000000000000000000000000000000000000000000000000000000000000000000000000000000PES00010000001 00000000000000020150311
201503010060000700000000000000396287000000000000003962879900000000000000000000Consumidor Final              000000000040000000000000000000000000000000000000000000000000000000000000000000000000000000000000000000000000000000000000PES00010000001 00000000000000020150311
201503010010000700000000000000002715000000000000000027158000000000033710420519ALFALFA Y FORRAJE DE LA PATAGO000000000040000000000000000000000000000000000000000000000000000000000000000000000000000000000000000000000000000000000000PES00010000001 00000000000000020150311
201503010060000700000000000000396288000000000000003962889900000000000000000000Consumidor Final              000000000040000000000000000000000000000000000000000000000000000000000000000000000000000000000000000000000000000000000000PES00010000001 00000000000000020150311
201503010060000700000000000000396289000000000000003962899900000000000000000000Consumidor Final              000000000040000000000000000000000000000000000000000000000000000000000000000000000000000000000000000000000000000000000000PES00010000001 00000000000000020150311
201503010060000700000000000000396290000000000000003962909900000000000000000000Consumidor Final              000000000045000000000000000000000000000000000000000000000000000000000000000000000000000000000000000000000000000000000000PES00010000001 00000000000000020150311
201503010060000600000000000000607106000000000000006071069900000000000000000000Consumidor Final              000000000051000000000000000000000000000000000000000000000000000000000000000000000000000000000000000000000000000000000000PES00010000001 00000000000000020150311
201503010060000600000000000000607107000000000000006071079900000000000000000000Consumidor Final              000000000040000000000000000000000000000000000000000000000000000000000000000000000000000000000000000000000000000000000000PES00010000001 00000000000000020150311
201503010060000100000000000000185029000000000000001850299900000000000000000000Consumidor Final              000000000043000000000000000000000000000000000000000000000000000000000000000000000000000000000000000000000000000000000000PES00010000001 00000000000000020150311
201503010060000100000000000000185030000000000000001850309900000000000000000000Consumidor Final              000000000058000000000000000000000000000000000000000000000000000000000000000000000000000000000000000000000000000000000000PES00010000001 00000000000000020150311
201503010060000600000000000000607111000000000000006071119900000000000000000000Consumidor Final              000000000040000000000000000000000000000000000000000000000000000000000000000000000000000000000000000000000000000000000000PES00010000001 00000000000000020150311
201503010060000100000000000000185031000000000000001850319900000000000000000000Consumidor Final              000000000040000000000000000000000000000000000000000000000000000000000000000000000000000000000000000000000000000000000000PES00010000001 00000000000000020150311
201503010060000100000000000000185032000000000000001850329900000000000000000000Consumidor Final              000000000040000000000000000000000000000000000000000000000000000000000000000000000000000000000000000000000000000000000000PES00010000001 00000000000000020150311
201503010060000700000000000000396275000000000000003962759900000000000000000000Consumidor Final              000000000040000000000000000000000000000000000000000000000000000000000000000000000000000000000000000000000000000000000000PES00010000001 00000000000000020150311
201503010060000100000000000000185033000000000000001850339900000000000000000000Consumidor Final              000000000040000000000000000000000000000000000000000000000000000000000000000000000000000000000000000000000000000000000000PES00010000001 00000000000000020150311
201503010060000100000000000000185034000000000000001850349900000000000000000000Consumidor Final              000000000043000000000000000000000000000000000000000000000000000000000000000000000000000000000000000000000000000000000000PES00010000001 00000000000000020150311
201503010060000100000000000000185036000000000000001850369900000000000000000000Consumidor Final              000000000040000000000000000000000000000000000000000000000000000000000000000000000000000000000000000000000000000000000000PES00010000001 00000000000000020150311
201503010060000800000000000000123516000000000000001235169900000000000000000000Consumidor Final              000000000035000000000000000000000000000000000000000000000000000000000000000000000000000000000000000000000000000000000000PES00010000001 00000000000000020150311
201503010060000800000000000000123517000000000000001235179900000000000000000000Consumidor Final              000000000035000000000000000000000000000000000000000000000000000000000000000000000000000000000000000000000000000000000000PES00010000001 00000000000000020150311
201503010060000800000000000000123518000000000000001235189900000000000000000000Consumidor Final              000000000035000000000000000000000000000000000000000000000000000000000000000000000000000000000000000000000000000000000000PES00010000001 00000000000000020150311
201503010060000700000000000000396306000000000000003963069900000000000000000000Consumidor Final              000000000040000000000000000000000000000000000000000000000000000000000000000000000000000000000000000000000000000000000000PES00010000001 00000000000000020150311
201503010060000700000000000000396307000000000000003963079900000000000000000000Consumidor Final              000000000040000000000000000000000000000000000000000000000000000000000000000000000000000000000000000000000000000000000000PES00010000001 00000000000000020150311
201503010060000300000000000000102716000000000000001027169900000000000000000000Consumidor Final              000000000040000000000000000000000000000000000000000000000000000000000000000000000000000000000000000000000000000000000000PES00010000001 00000000000000020150311
201503010060000800000000000000123519000000000000001235199900000000000000000000Consumidor Final              000000000035000000000000000000000000000000000000000000000000000000000000000000000000000000000000000000000000000000000000PES00010000001 00000000000000020150311
201503010060000600000000000000607118000000000000006071189900000000000000000000Consumidor Final              000000000040000000000000000000000000000000000000000000000000000000000000000000000000000000000000000000000000000000000000PES00010000001 00000000000000020150311
201503010060000600000000000000607119000000000000006071199900000000000000000000Consumidor Final              000000000043000000000000000000000000000000000000000000000000000000000000000000000000000000000000000000000000000000000000PES00010000001 00000000000000020150311
201503010060000800000000000000123520000000000000001235209900000000000000000000Consumidor Final              000000000035000000000000000000000000000000000000000000000000000000000000000000000000000000000000000000000000000000000000PES00010000001 00000000000000020150311
