201504020060000700000000000000401258000000000000004012589900000000000000000000Consumidor Final              000000000040000000000000000000000000000000000000000000000000000000000000000000000000000000000000000000000000000000000000PES00010000001 00000000000000020150412
201504020060000700000000000000401267000000000000004012679900000000000000000000Consumidor Final              000000000043000000000000000000000000000000000000000000000000000000000000000000000000000000000000000000000000000000000000PES00010000001 00000000000000020150412
201504020060000600000000000000612512000000000000006125129900000000000000000000Consumidor Final              000000000040000000000000000000000000000000000000000000000000000000000000000000000000000000000000000000000000000000000000PES00010000001 00000000000000020150412
201504020060000700000000000000401268000000000000004012689900000000000000000000Consumidor Final              000000000040000000000000000000000000000000000000000000000000000000000000000000000000000000000000000000000000000000000000PES00010000001 00000000000000020150412
201504020060000700000000000000401269000000000000004012699900000000000000000000Consumidor Final              000000000040000000000000000000000000000000000000000000000000000000000000000000000000000000000000000000000000000000000000PES00010000001 00000000000000020150412
201504020060000700000000000000401270000000000000004012709900000000000000000000Consumidor Final              000000000040000000000000000000000000000000000000000000000000000000000000000000000000000000000000000000000000000000000000PES00010000001 00000000000000020150412
201504020060000700000000000000401271000000000000004012719900000000000000000000Consumidor Final              000000000040000000000000000000000000000000000000000000000000000000000000000000000000000000000000000000000000000000000000PES00010000001 00000000000000020150412
201504020060000600000000000000612513000000000000006125139900000000000000000000Consumidor Final              000000000045000000000000000000000000000000000000000000000000000000000000000000000000000000000000000000000000000000000000PES00010000001 00000000000000020150412
201504020060000600000000000000612514000000000000006125149900000000000000000000Consumidor Final              000000000040000000000000000000000000000000000000000000000000000000000000000000000000000000000000000000000000000000000000PES00010000001 00000000000000020150412
201504020010000600000000000000004711000000000000000047118000000000030711970114QUIMICA MORENO SA             000000000048000000000000000000000000000000000000000000000000000000000000000000000000000000000000000000000000000000000000PES00010000001 00000000000000020150412
201504020060000800000000000000125281000000000000001252819900000000000000000000Consumidor Final              000000000035000000000000000000000000000000000000000000000000000000000000000000000000000000000000000000000000000000000000PES00010000001 00000000000000020150412
201504020060000800000000000000125282000000000000001252829900000000000000000000Consumidor Final              000000000035000000000000000000000000000000000000000000000000000000000000000000000000000000000000000000000000000000000000PES00010000001 00000000000000020150412
201504020060000800000000000000125283000000000000001252839900000000000000000000Consumidor Final              000000000035000000000000000000000000000000000000000000000000000000000000000000000000000000000000000000000000000000000000PES00010000001 00000000000000020150412
201504020060000800000000000000125284000000000000001252849900000000000000000000Consumidor Final              000000000035000000000000000000000000000000000000000000000000000000000000000000000000000000000000000000000000000000000000PES00010000001 00000000000000020150412
201504030060000700000000000000401642000000000000004016429900000000000000000000Consumidor Final              000000000040000000000000000000000000000000000000000000000000000000000000000000000000000000000000000000000000000000000000PES00010000001 00000000000000020150413
201504030060000700000000000000401643000000000000004016439900000000000000000000Consumidor Final              000000000040000000000000000000000000000000000000000000000000000000000000000000000000000000000000000000000000000000000000PES00010000001 00000000000000020150413
201504030060000700000000000000401644000000000000004016449900000000000000000000Consumidor Final              000000000048000000000000000000000000000000000000000000000000000000000000000000000000000000000000000000000000000000000000PES00010000001 00000000000000020150413
201504030060000700000000000000401645000000000000004016459900000000000000000000Consumidor Final              000000000048000000000000000000000000000000000000000000000000000000000000000000000000000000000000000000000000000000000000PES00010000001 00000000000000020150413
201504030060000700000000000000401646000000000000004016469900000000000000000000Consumidor Final              000000000040000000000000000000000000000000000000000000000000000000000000000000000000000000000000000000000000000000000000PES00010000001 00000000000000020150413
201504030060000700000000000000401647000000000000004016479900000000000000000000Consumidor Final              000000000040000000000000000000000000000000000000000000000000000000000000000000000000000000000000000000000000000000000000PES00010000001 00000000000000020150413
201504030060000700000000000000401648000000000000004016489900000000000000000000Consumidor Final              000000000040000000000000000000000000000000000000000000000000000000000000000000000000000000000000000000000000000000000000PES00010000001 00000000000000020150413
201504030060000700000000000000401649000000000000004016499900000000000000000000Consumidor Final              000000000040000000000000000000000000000000000000000000000000000000000000000000000000000000000000000000000000000000000000PES00010000001 00000000000000020150413
201504030060000700000000000000401650000000000000004016509900000000000000000000Consumidor Final              000000000040000000000000000000000000000000000000000000000000000000000000000000000000000000000000000000000000000000000000PES00010000001 00000000000000020150413
201504030060000700000000000000401651000000000000004016519900000000000000000000Consumidor Final              000000000040000000000000000000000000000000000000000000000000000000000000000000000000000000000000000000000000000000000000PES00010000001 00000000000000020150413
201504030060000700000000000000401656000000000000004016569900000000000000000000Consumidor Final              000000000040000000000000000000000000000000000000000000000000000000000000000000000000000000000000000000000000000000000000PES00010000001 00000000000000020150413
201504030060000700000000000000401657000000000000004016579900000000000000000000Consumidor Final              000000000040000000000000000000000000000000000000000000000000000000000000000000000000000000000000000000000000000000000000PES00010000001 00000000000000020150413
201504030060000700000000000000401659000000000000004016599900000000000000000000Consumidor Final              000000000045000000000000000000000000000000000000000000000000000000000000000000000000000000000000000000000000000000000000PES00010000001 00000000000000020150413
201504030060000700000000000000401660000000000000004016609900000000000000000000Consumidor Final              000000000040000000000000000000000000000000000000000000000000000000000000000000000000000000000000000000000000000000000000PES00010000001 00000000000000020150413
201504150060000100000000000000186180000000000000001861809900000000000000000000Consumidor Final              000000000040000000000000000000000000000000000000000000000000000000000000000000000000000000000000000000000000000000000000PES00010000001 00000000000000020150425
201504150060000300000000000000103852000000000000001038529900000000000000000000Consumidor Final              000000000040000000000000000000000000000000000000000000000000000000000000000000000000000000000000000000000000000000000000PES00010000001 00000000000000020150425
201504150060000300000000000000103854000000000000001038549900000000000000000000Consumidor Final              000000000040000000000000000000000000000000000000000000000000000000000000000000000000000000000000000000000000000000000000PES00010000001 00000000000000020150425
201504150060000700000000000000403682000000000000004036829900000000000000000000Consumidor Final              000000000040000000000000000000000000000000000000000000000000000000000000000000000000000000000000000000000000000000000000PES00010000001 00000000000000020150425
201504150060000700000000000000403683000000000000004036839900000000000000000000Consumidor Final              000000000040000000000000000000000000000000000000000000000000000000000000000000000000000000000000000000000000000000000000PES00010000001 00000000000000020150425
201504150060000700000000000000403684000000000000004036849900000000000000000000Consumidor Final              000000000058000000000000000000000000000000000000000000000000000000000000000000000000000000000000000000000000000000000000PES00010000001 00000000000000020150425
201504150060000700000000000000403685000000000000004036859900000000000000000000Consumidor Final              000000000040000000000000000000000000000000000000000000000000000000000000000000000000000000000000000000000000000000000000PES00010000001 00000000000000020150425
201504150060000700000000000000403686000000000000004036869900000000000000000000Consumidor Final              000000000040000000000000000000000000000000000000000000000000000000000000000000000000000000000000000000000000000000000000PES00010000001 00000000000000020150425
201504150060000700000000000000403687000000000000004036879900000000000000000000Consumidor Final              000000000040000000000000000000000000000000000000000000000000000000000000000000000000000000000000000000000000000000000000PES00010000001 00000000000000020150425
201504150060000700000000000000403688000000000000004036889900000000000000000000Consumidor Final              000000000043000000000000000000000000000000000000000000000000000000000000000000000000000000000000000000000000000000000000PES00010000001 00000000000000020150425
201504150060000800000000000000126167000000000000001261679900000000000000000000Consumidor Final              000000000035000000000000000000000000000000000000000000000000000000000000000000000000000000000000000000000000000000000000PES00010000001 00000000000000020150425
201504150060000900000000000000019741000000000000000197419900000000000000000000Consumidor Final              000000000043000000000000000000000000000000000000000000000000000000000000000000000000000000000000000000000000000000000000PES00010000001 00000000000000020150425
201504150060000900000000000000019742000000000000000197429900000000000000000000Consumidor Final              000000000040000000000000000000000000000000000000000000000000000000000000000000000000000000000000000000000000000000000000PES00010000001 00000000000000020150425
201504150060000900000000000000019743000000000000000197439900000000000000000000Consumidor Final              000000000040000000000000000000000000000000000000000000000000000000000000000000000000000000000000000000000000000000000000PES00010000001 00000000000000020150425
201504150060000100000000000000186181000000000000001861819900000000000000000000Consumidor Final              000000000040000000000000000000000000000000000000000000000000000000000000000000000000000000000000000000000000000000000000PES00010000001 00000000000000020150425
201504150060000300000000000000103853000000000000001038539900000000000000000000Consumidor Final              000000000045000000000000000000000000000000000000000000000000000000000000000000000000000000000000000000000000000000000000PES00010000001 00000000000000020150425
201504150060000100000000000000186182000000000000001861829900000000000000000000Consumidor Final              000000000040000000000000000000000000000000000000000000000000000000000000000000000000000000000000000000000000000000000000PES00010000001 00000000000000020150425
201504150060000700000000000000403689000000000000004036899900000000000000000000Consumidor Final              000000000040000000000000000000000000000000000000000000000000000000000000000000000000000000000000000000000000000000000000PES00010000001 00000000000000020150425
201504150060000700000000000000403690000000000000004036909900000000000000000000Consumidor Final              000000000045000000000000000000000000000000000000000000000000000000000000000000000000000000000000000000000000000000000000PES00010000001 00000000000000020150425
201504150060000700000000000000403691000000000000004036919900000000000000000000Consumidor Final              000000000016000000000000000000000000000000000000000000000000000000000000000000000000000000000000000000000000000000000000PES00010000001 00000000000000020150425
201504150060000700000000000000403692000000000000004036929900000000000000000000Consumidor Final              000000000040000000000000000000000000000000000000000000000000000000000000000000000000000000000000000000000000000000000000PES00010000001 00000000000000020150425
201504150060000600000000000000614872000000000000006148729900000000000000000000Consumidor Final              000000000038000000000000000000000000000000000000000000000000000000000000000000000000000000000000000000000000000000000000PES00010000001 00000000000000020150425
201504150060000600000000000000614873000000000000006148739900000000000000000000Consumidor Final              000000000040000000000000000000000000000000000000000000000000000000000000000000000000000000000000000000000000000000000000PES00010000001 00000000000000020150425
201504150060000600000000000000614874000000000000006148749900000000000000000000Consumidor Final              000000000040000000000000000000000000000000000000000000000000000000000000000000000000000000000000000000000000000000000000PES00010000001 00000000000000020150425
201504150060000600000000000000614881000000000000006148819900000000000000000000Consumidor Final              000000000048000000000000000000000000000000000000000000000000000000000000000000000000000000000000000000000000000000000000PES00010000001 00000000000000020150425
201504150060000600000000000000614882000000000000006148829900000000000000000000Consumidor Final              000000000048000000000000000000000000000000000000000000000000000000000000000000000000000000000000000000000000000000000000PES00010000001 00000000000000020150425
201504150060000600000000000000614883000000000000006148839900000000000000000000Consumidor Final              000000000050000000000000000000000000000000000000000000000000000000000000000000000000000000000000000000000000000000000000PES00010000001 00000000000000020150425
201504150060000300000000000000103860000000000000001038609900000000000000000000Consumidor Final              000000000040000000000000000000000000000000000000000000000000000000000000000000000000000000000000000000000000000000000000PES00010000001 00000000000000020150425
201504150060000700000000000000403703000000000000004037039900000000000000000000Consumidor Final              000000000040000000000000000000000000000000000000000000000000000000000000000000000000000000000000000000000000000000000000PES00010000001 00000000000000020150425
201504150060000700000000000000403704000000000000004037049900000000000000000000Consumidor Final              000000000067000000000000000000000000000000000000000000000000000000000000000000000000000000000000000000000000000000000000PES00010000001 00000000000000020150425
201504150060000600000000000000614875000000000000006148759900000000000000000000Consumidor Final              000000000040000000000000000000000000000000000000000000000000000000000000000000000000000000000000000000000000000000000000PES00010000001 00000000000000020150425
201504150060000600000000000000614889000000000000006148899900000000000000000000Consumidor Final              000000000048000000000000000000000000000000000000000000000000000000000000000000000000000000000000000000000000000000000000PES00010000001 00000000000000020150425
201504150060000600000000000000614890000000000000006148909900000000000000000000Consumidor Final              000000000040000000000000000000000000000000000000000000000000000000000000000000000000000000000000000000000000000000000000PES00010000001 00000000000000020150425
201504150060000600000000000000614891000000000000006148919900000000000000000000Consumidor Final              000000000040000000000000000000000000000000000000000000000000000000000000000000000000000000000000000000000000000000000000PES00010000001 00000000000000020150425
201504150060000600000000000000614895000000000000006148959900000000000000000000Consumidor Final              000000000048000000000000000000000000000000000000000000000000000000000000000000000000000000000000000000000000000000000000PES00010000001 00000000000000020150425
201504150060000600000000000000614896000000000000006148969900000000000000000000Consumidor Final              000000000015000000000000000000000000000000000000000000000000000000000000000000000000000000000000000000000000000000000000PES00010000001 00000000000000020150425
201504150060000600000000000000614897000000000000006148979900000000000000000000Consumidor Final              000000000040000000000000000000000000000000000000000000000000000000000000000000000000000000000000000000000000000000000000PES00010000001 00000000000000020150425
201504150060000600000000000000614900000000000000006149009900000000000000000000Consumidor Final              000000000039000000000000000000000000000000000000000000000000000000000000000000000000000000000000000000000000000000000000PES00010000001 00000000000000020150425
201504160060000700000000000000403743000000000000004037439900000000000000000000Consumidor Final              000000000040000000000000000000000000000000000000000000000000000000000000000000000000000000000000000000000000000000000000PES00010000001 00000000000000020150426
201504160060000600000000000000614926000000000000006149269900000000000000000000Consumidor Final              000000000048000000000000000000000000000000000000000000000000000000000000000000000000000000000000000000000000000000000000PES00010000001 00000000000000020150426
201504150060000700000000000000403694000000000000004036949900000000000000000000Consumidor Final              000000000040000000000000000000000000000000000000000000000000000000000000000000000000000000000000000000000000000000000000PES00010000001 00000000000000020150425
201504150060000700000000000000403695000000000000004036959900000000000000000000Consumidor Final              000000000040000000000000000000000000000000000000000000000000000000000000000000000000000000000000000000000000000000000000PES00010000001 00000000000000020150425
201504150060000700000000000000403696000000000000004036969900000000000000000000Consumidor Final              000000000040000000000000000000000000000000000000000000000000000000000000000000000000000000000000000000000000000000000000PES00010000001 00000000000000020150425
201504150060000700000000000000403697000000000000004036979900000000000000000000Consumidor Final              000000000040000000000000000000000000000000000000000000000000000000000000000000000000000000000000000000000000000000000000PES00010000001 00000000000000020150425
201504150060000700000000000000403698000000000000004036989900000000000000000000Consumidor Final              000000000040000000000000000000000000000000000000000000000000000000000000000000000000000000000000000000000000000000000000PES00010000001 00000000000000020150425
201504150060000700000000000000403700000000000000004037009900000000000000000000Consumidor Final              000000000040000000000000000000000000000000000000000000000000000000000000000000000000000000000000000000000000000000000000PES00010000001 00000000000000020150425
201504150060000700000000000000403702000000000000004037029900000000000000000000Consumidor Final              000000000040000000000000000000000000000000000000000000000000000000000000000000000000000000000000000000000000000000000000PES00010000001 00000000000000020150425
201504150060000600000000000000614870000000000000006148709900000000000000000000Consumidor Final              000000000049000000000000000000000000000000000000000000000000000000000000000000000000000000000000000000000000000000000000PES00010000001 00000000000000020150425
201504150060000300000000000000103863000000000000001038639900000000000000000000Consumidor Final              000000000043000000000000000000000000000000000000000000000000000000000000000000000000000000000000000000000000000000000000PES00010000001 00000000000000020150425
201504150060000300000000000000103864000000000000001038649900000000000000000000Consumidor Final              000000000040000000000000000000000000000000000000000000000000000000000000000000000000000000000000000000000000000000000000PES00010000001 00000000000000020150425
201504150060000700000000000000403708000000000000004037089900000000000000000000Consumidor Final              000000000040000000000000000000000000000000000000000000000000000000000000000000000000000000000000000000000000000000000000PES00010000001 00000000000000020150425
201504150060000700000000000000403714000000000000004037149900000000000000000000Consumidor Final              000000000043000000000000000000000000000000000000000000000000000000000000000000000000000000000000000000000000000000000000PES00010000001 00000000000000020150425
201504150060000700000000000000403715000000000000004037159900000000000000000000Consumidor Final              000000000040000000000000000000000000000000000000000000000000000000000000000000000000000000000000000000000000000000000000PES00010000001 00000000000000020150425
201504150060000700000000000000403710000000000000004037109900000000000000000000Consumidor Final              000000000048000000000000000000000000000000000000000000000000000000000000000000000000000000000000000000000000000000000000PES00010000001 00000000000000020150425
201504150060000300000000000000103866000000000000001038669900000000000000000000Consumidor Final              000000000040000000000000000000000000000000000000000000000000000000000000000000000000000000000000000000000000000000000000PES00010000001 00000000000000020150425
201504150060000300000000000000103867000000000000001038679900000000000000000000Consumidor Final              000000000040000000000000000000000000000000000000000000000000000000000000000000000000000000000000000000000000000000000000PES00010000001 00000000000000020150425
201504150060000300000000000000103868000000000000001038689900000000000000000000Consumidor Final              000000000040000000000000000000000000000000000000000000000000000000000000000000000000000000000000000000000000000000000000PES00010000001 00000000000000020150425
201504150060000300000000000000103869000000000000001038699900000000000000000000Consumidor Final              000000000040000000000000000000000000000000000000000000000000000000000000000000000000000000000000000000000000000000000000PES00010000001 00000000000000020150425
201504150060000300000000000000103870000000000000001038709900000000000000000000Consumidor Final              000000000040000000000000000000000000000000000000000000000000000000000000000000000000000000000000000000000000000000000000PES00010000001 00000000000000020150425
201504150060000300000000000000103871000000000000001038719900000000000000000000Consumidor Final              000000000040000000000000000000000000000000000000000000000000000000000000000000000000000000000000000000000000000000000000PES00010000001 00000000000000020150425
201504150060000300000000000000103872000000000000001038729900000000000000000000Consumidor Final              000000000040000000000000000000000000000000000000000000000000000000000000000000000000000000000000000000000000000000000000PES00010000001 00000000000000020150425
201504150060000300000000000000103873000000000000001038739900000000000000000000Consumidor Final              000000000059000000000000000000000000000000000000000000000000000000000000000000000000000000000000000000000000000000000000PES00010000001 00000000000000020150425
201504150060000300000000000000103874000000000000001038749900000000000000000000Consumidor Final              000000000040000000000000000000000000000000000000000000000000000000000000000000000000000000000000000000000000000000000000PES00010000001 00000000000000020150425
201504150060000300000000000000103875000000000000001038759900000000000000000000Consumidor Final              000000000040000000000000000000000000000000000000000000000000000000000000000000000000000000000000000000000000000000000000PES00010000001 00000000000000020150425
201504150060000700000000000000403712000000000000004037129900000000000000000000Consumidor Final              000000000040000000000000000000000000000000000000000000000000000000000000000000000000000000000000000000000000000000000000PES00010000001 00000000000000020150425
201504150060000700000000000000403713000000000000004037139900000000000000000000Consumidor Final              000000000040000000000000000000000000000000000000000000000000000000000000000000000000000000000000000000000000000000000000PES00010000001 00000000000000020150425
201504150060000700000000000000403716000000000000004037169900000000000000000000Consumidor Final              000000000040000000000000000000000000000000000000000000000000000000000000000000000000000000000000000000000000000000000000PES00010000001 00000000000000020150425
201504150060000700000000000000403717000000000000004037179900000000000000000000Consumidor Final              000000000040000000000000000000000000000000000000000000000000000000000000000000000000000000000000000000000000000000000000PES00010000001 00000000000000020150425
201504150060000700000000000000403718000000000000004037189900000000000000000000Consumidor Final              000000000040000000000000000000000000000000000000000000000000000000000000000000000000000000000000000000000000000000000000PES00010000001 00000000000000020150425
201504150060000700000000000000403719000000000000004037199900000000000000000000Consumidor Final              000000000038000000000000000000000000000000000000000000000000000000000000000000000000000000000000000000000000000000000000PES00010000001 00000000000000020150425
201504150060000700000000000000403720000000000000004037209900000000000000000000Consumidor Final              000000000040000000000000000000000000000000000000000000000000000000000000000000000000000000000000000000000000000000000000PES00010000001 00000000000000020150425
201504150060000700000000000000403721000000000000004037219900000000000000000000Consumidor Final              000000000040000000000000000000000000000000000000000000000000000000000000000000000000000000000000000000000000000000000000PES00010000001 00000000000000020150425
201504150060000900000000000000019750000000000000000197509900000000000000000000Consumidor Final              000000000040000000000000000000000000000000000000000000000000000000000000000000000000000000000000000000000000000000000000PES00010000001 00000000000000020150425
201504150060000400000000000000011830000000000000000118309900000000000000000000Consumidor Final              000000000040000000000000000000000000000000000000000000000000000000000000000000000000000000000000000000000000000000000000PES00010000001 00000000000000020150425
201504150060000700000000000000403725000000000000004037259900000000000000000000Consumidor Final              000000000040000000000000000000000000000000000000000000000000000000000000000000000000000000000000000000000000000000000000PES00010000001 00000000000000020150425
201504150060000700000000000000403726000000000000004037269900000000000000000000Consumidor Final              000000000040000000000000000000000000000000000000000000000000000000000000000000000000000000000000000000000000000000000000PES00010000001 00000000000000020150425
201504150060000700000000000000403727000000000000004037279900000000000000000000Consumidor Final              000000000015000000000000000000000000000000000000000000000000000000000000000000000000000000000000000000000000000000000000PES00010000001 00000000000000020150425
201504150060000700000000000000403728000000000000004037289900000000000000000000Consumidor Final              000000000040000000000000000000000000000000000000000000000000000000000000000000000000000000000000000000000000000000000000PES00010000001 00000000000000020150425
201504150010000700000000000000002787000000000000000027878000000000030511114876TIERRA SURE¤AS SA             000000000040000000000000000000000000000000000000000000000000000000000000000000000000000000000000000000000000000000000000PES00010000001 00000000000000020150425
201504150060000700000000000000403729000000000000004037299900000000000000000000Consumidor Final              000000000015000000000000000000000000000000000000000000000000000000000000000000000000000000000000000000000000000000000000PES00010000001 00000000000000020150425
201504150060000700000000000000403730000000000000004037309900000000000000000000Consumidor Final              000000000015000000000000000000000000000000000000000000000000000000000000000000000000000000000000000000000000000000000000PES00010000001 00000000000000020150425
201504010060000700000000000000401041000000000000004010419900000000000000000000Consumidor Final              000000000040000000000000000000000000000000000000000000000000000000000000000000000000000000000000000000000000000000000000PES00010000001 00000000000000020150411
201504010060000600000000000000612249000000000000006122499900000000000000000000Consumidor Final              000000000028000000000000000000000000000000000000000000000000000000000000000000000000000000000000000000000000000000000000PES00010000001 00000000000000020150411
201504010060000600000000000000612250000000000000006122509900000000000000000000Consumidor Final              000000000040000000000000000000000000000000000000000000000000000000000000000000000000000000000000000000000000000000000000PES00010000001 00000000000000020150411
201504010060000600000000000000612251000000000000006122519900000000000000000000Consumidor Final              000000000046000000000000000000000000000000000000000000000000000000000000000000000000000000000000000000000000000000000000PES00010000001 00000000000000020150411
201504010060000600000000000000612252000000000000006122529900000000000000000000Consumidor Final              000000000040000000000000000000000000000000000000000000000000000000000000000000000000000000000000000000000000000000000000PES00010000001 00000000000000020150411
201504010060000600000000000000612256000000000000006122569900000000000000000000Consumidor Final              000000000040000000000000000000000000000000000000000000000000000000000000000000000000000000000000000000000000000000000000PES00010000001 00000000000000020150411
201504010060000600000000000000612257000000000000006122579900000000000000000000Consumidor Final              000000000040000000000000000000000000000000000000000000000000000000000000000000000000000000000000000000000000000000000000PES00010000001 00000000000000020150411
201504010060000600000000000000612258000000000000006122589900000000000000000000Consumidor Final              000000000035000000000000000000000000000000000000000000000000000000000000000000000000000000000000000000000000000000000000PES00010000001 00000000000000020150411
201504010060000800000000000000125222000000000000001252229900000000000000000000Consumidor Final              000000000035000000000000000000000000000000000000000000000000000000000000000000000000000000000000000000000000000000000000PES00010000001 00000000000000020150411
201504010060000800000000000000125223000000000000001252239900000000000000000000Consumidor Final              000000000035000000000000000000000000000000000000000000000000000000000000000000000000000000000000000000000000000000000000PES00010000001 00000000000000020150411
201504010060000800000000000000125224000000000000001252249900000000000000000000Consumidor Final              000000000035000000000000000000000000000000000000000000000000000000000000000000000000000000000000000000000000000000000000PES00010000001 00000000000000020150411
201504010060000700000000000000401072000000000000004010729900000000000000000000Consumidor Final              000000000040000000000000000000000000000000000000000000000000000000000000000000000000000000000000000000000000000000000000PES00010000001 00000000000000020150411
201504010060000700000000000000401073000000000000004010739900000000000000000000Consumidor Final              000000000040000000000000000000000000000000000000000000000000000000000000000000000000000000000000000000000000000000000000PES00010000001 00000000000000020150411
201504010060000700000000000000401074000000000000004010749900000000000000000000Consumidor Final              000000000040000000000000000000000000000000000000000000000000000000000000000000000000000000000000000000000000000000000000PES00010000001 00000000000000020150411
201504010060000700000000000000401091000000000000004010919900000000000000000000Consumidor Final              000000000040000000000000000000000000000000000000000000000000000000000000000000000000000000000000000000000000000000000000PES00010000001 00000000000000020150411
201504010060000700000000000000401092000000000000004010929900000000000000000000Consumidor Final              000000000040000000000000000000000000000000000000000000000000000000000000000000000000000000000000000000000000000000000000PES00010000001 00000000000000020150411
201504010060000700000000000000401093000000000000004010939900000000000000000000Consumidor Final              000000000048000000000000000000000000000000000000000000000000000000000000000000000000000000000000000000000000000000000000PES00010000001 00000000000000020150411
201504010060000600000000000000612282000000000000006122829900000000000000000000Consumidor Final              000000000040000000000000000000000000000000000000000000000000000000000000000000000000000000000000000000000000000000000000PES00010000001 00000000000000020150411
201504010060000600000000000000612283000000000000006122839900000000000000000000Consumidor Final              000000000040000000000000000000000000000000000000000000000000000000000000000000000000000000000000000000000000000000000000PES00010000001 00000000000000020150411
201504010060000600000000000000612284000000000000006122849900000000000000000000Consumidor Final              000000000040000000000000000000000000000000000000000000000000000000000000000000000000000000000000000000000000000000000000PES00010000001 00000000000000020150411
201504010060000600000000000000612285000000000000006122859900000000000000000000Consumidor Final              000000000040000000000000000000000000000000000000000000000000000000000000000000000000000000000000000000000000000000000000PES00010000001 00000000000000020150411
201504010060000700000000000000401097000000000000004010979900000000000000000000Consumidor Final              000000000040000000000000000000000000000000000000000000000000000000000000000000000000000000000000000000000000000000000000PES00010000001 00000000000000020150411
201504010060000700000000000000401103000000000000004011039900000000000000000000Consumidor Final              000000000040000000000000000000000000000000000000000000000000000000000000000000000000000000000000000000000000000000000000PES00010000001 00000000000000020150411
201504010060000700000000000000401111000000000000004011119900000000000000000000Consumidor Final              000000000045000000000000000000000000000000000000000000000000000000000000000000000000000000000000000000000000000000000000PES00010000001 00000000000000020150411
201504010060000700000000000000401112000000000000004011129900000000000000000000Consumidor Final              000000000040000000000000000000000000000000000000000000000000000000000000000000000000000000000000000000000000000000000000PES00010000001 00000000000000020150411
201504010060000700000000000000401113000000000000004011139900000000000000000000Consumidor Final              000000000048000000000000000000000000000000000000000000000000000000000000000000000000000000000000000000000000000000000000PES00010000001 00000000000000020150411
201504010060000700000000000000401133000000000000004011339900000000000000000000Consumidor Final              000000000040000000000000000000000000000000000000000000000000000000000000000000000000000000000000000000000000000000000000PES00010000001 00000000000000020150411
201504010060000700000000000000401134000000000000004011349900000000000000000000Consumidor Final              000000000040000000000000000000000000000000000000000000000000000000000000000000000000000000000000000000000000000000000000PES00010000001 00000000000000020150411
201504010060000700000000000000401135000000000000004011359900000000000000000000Consumidor Final              000000000045000000000000000000000000000000000000000000000000000000000000000000000000000000000000000000000000000000000000PES00010000001 00000000000000020150411
201504010060000700000000000000401136000000000000004011369900000000000000000000Consumidor Final              000000000040000000000000000000000000000000000000000000000000000000000000000000000000000000000000000000000000000000000000PES00010000001 00000000000000020150411
201504010060000700000000000000401137000000000000004011379900000000000000000000Consumidor Final              000000000040000000000000000000000000000000000000000000000000000000000000000000000000000000000000000000000000000000000000PES00010000001 00000000000000020150411
201504010060000800000000000000125254000000000000001252549900000000000000000000Consumidor Final              000000000035000000000000000000000000000000000000000000000000000000000000000000000000000000000000000000000000000000000000PES00010000001 00000000000000020150411
201504010060000800000000000000125255000000000000001252559900000000000000000000Consumidor Final              000000000035000000000000000000000000000000000000000000000000000000000000000000000000000000000000000000000000000000000000PES00010000001 00000000000000020150411
201504010060000700000000000000401138000000000000004011389900000000000000000000Consumidor Final              000000000040000000000000000000000000000000000000000000000000000000000000000000000000000000000000000000000000000000000000PES00010000001 00000000000000020150411
201504010060000700000000000000401139000000000000004011399900000000000000000000Consumidor Final              000000000040000000000000000000000000000000000000000000000000000000000000000000000000000000000000000000000000000000000000PES00010000001 00000000000000020150411
201504010060000700000000000000401140000000000000004011409900000000000000000000Consumidor Final              000000000040000000000000000000000000000000000000000000000000000000000000000000000000000000000000000000000000000000000000PES00010000001 00000000000000020150411
201504010060000700000000000000401166000000000000004011669900000000000000000000Consumidor Final              000000000040000000000000000000000000000000000000000000000000000000000000000000000000000000000000000000000000000000000000PES00010000001 00000000000000020150411
201504010060000700000000000000401167000000000000004011679900000000000000000000Consumidor Final              000000000040000000000000000000000000000000000000000000000000000000000000000000000000000000000000000000000000000000000000PES00010000001 00000000000000020150411
201504010060000700000000000000401168000000000000004011689900000000000000000000Consumidor Final              000000000045000000000000000000000000000000000000000000000000000000000000000000000000000000000000000000000000000000000000PES00010000001 00000000000000020150411
201504010060000700000000000000401186000000000000004011869900000000000000000000Consumidor Final              000000000040000000000000000000000000000000000000000000000000000000000000000000000000000000000000000000000000000000000000PES00010000001 00000000000000020150411
201504010060000800000000000000125268000000000000001252689900000000000000000000Consumidor Final              000000000035000000000000000000000000000000000000000000000000000000000000000000000000000000000000000000000000000000000000PES00010000001 00000000000000020150411
201504010060000800000000000000125269000000000000001252699900000000000000000000Consumidor Final              000000000035000000000000000000000000000000000000000000000000000000000000000000000000000000000000000000000000000000000000PES00010000001 00000000000000020150411
201504010060000800000000000000125270000000000000001252709900000000000000000000Consumidor Final              000000000040000000000000000000000000000000000000000000000000000000000000000000000000000000000000000000000000000000000000PES00010000001 00000000000000020150411
201504010060000600000000000000612382000000000000006123829900000000000000000000Consumidor Final              000000000040000000000000000000000000000000000000000000000000000000000000000000000000000000000000000000000000000000000000PES00010000001 00000000000000020150411
201504010060000600000000000000612383000000000000006123839900000000000000000000Consumidor Final              000000000043000000000000000000000000000000000000000000000000000000000000000000000000000000000000000000000000000000000000PES00010000001 00000000000000020150411
201504010060000700000000000000401190000000000000004011909900000000000000000000Consumidor Final              000000000039000000000000000000000000000000000000000000000000000000000000000000000000000000000000000000000000000000000000PES00010000001 00000000000000020150411
201504010060000700000000000000401191000000000000004011919900000000000000000000Consumidor Final              000000000039000000000000000000000000000000000000000000000000000000000000000000000000000000000000000000000000000000000000PES00010000001 00000000000000020150411
201504010060000800000000000000125274000000000000001252749900000000000000000000Consumidor Final              000000000035000000000000000000000000000000000000000000000000000000000000000000000000000000000000000000000000000000000000PES00010000001 00000000000000020150411
201504010060000800000000000000125275000000000000001252759900000000000000000000Consumidor Final              000000000042000000000000000000000000000000000000000000000000000000000000000000000000000000000000000000000000000000000000PES00010000001 00000000000000020150411
201504010060000700000000000000401192000000000000004011929900000000000000000000Consumidor Final              000000000048000000000000000000000000000000000000000000000000000000000000000000000000000000000000000000000000000000000000PES00010000001 00000000000000020150411
201504010060000700000000000000401193000000000000004011939900000000000000000000Consumidor Final              000000000040000000000000000000000000000000000000000000000000000000000000000000000000000000000000000000000000000000000000PES00010000001 00000000000000020150411
201504010060000700000000000000401194000000000000004011949900000000000000000000Consumidor Final              000000000040000000000000000000000000000000000000000000000000000000000000000000000000000000000000000000000000000000000000PES00010000001 00000000000000020150411
201504010060000600000000000000612394000000000000006123949900000000000000000000Consumidor Final              000000000050000000000000000000000000000000000000000000000000000000000000000000000000000000000000000000000000000000000000PES00010000001 00000000000000020150411
201504010060000700000000000000401205000000000000004012059900000000000000000000Consumidor Final              000000000040000000000000000000000000000000000000000000000000000000000000000000000000000000000000000000000000000000000000PES00010000001 00000000000000020150411
201504020060000600000000000000612480000000000000006124809900000000000000000000Consumidor Final              000000000040000000000000000000000000000000000000000000000000000000000000000000000000000000000000000000000000000000000000PES00010000001 00000000000000020150412
201504020060000600000000000000612481000000000000006124819900000000000000000000Consumidor Final              000000000063000000000000000000000000000000000000000000000000000000000000000000000000000000000000000000000000000000000000PES00010000001 00000000000000020150412
201504020060000600000000000000612486000000000000006124869900000000000000000000Consumidor Final              000000000048000000000000000000000000000000000000000000000000000000000000000000000000000000000000000000000000000000000000PES00010000001 00000000000000020150412
201504020060000600000000000000612488000000000000006124889900000000000000000000Consumidor Final              000000000040000000000000000000000000000000000000000000000000000000000000000000000000000000000000000000000000000000000000PES00010000001 00000000000000020150412
201504020060000600000000000000612489000000000000006124899900000000000000000000Consumidor Final              000000000040000000000000000000000000000000000000000000000000000000000000000000000000000000000000000000000000000000000000PES00010000001 00000000000000020150412
201504020060000600000000000000612490000000000000006124909900000000000000000000Consumidor Final              000000000043000000000000000000000000000000000000000000000000000000000000000000000000000000000000000000000000000000000000PES00010000001 00000000000000020150412
201504020060000700000000000000401250000000000000004012509900000000000000000000Consumidor Final              000000000038000000000000000000000000000000000000000000000000000000000000000000000000000000000000000000000000000000000000PES00010000001 00000000000000020150412
201504020060000700000000000000401251000000000000004012519900000000000000000000Consumidor Final              000000000035000000000000000000000000000000000000000000000000000000000000000000000000000000000000000000000000000000000000PES00010000001 00000000000000020150412
201504020060000700000000000000401252000000000000004012529900000000000000000000Consumidor Final              000000000048000000000000000000000000000000000000000000000000000000000000000000000000000000000000000000000000000000000000PES00010000001 00000000000000020150412
201504020060000700000000000000401253000000000000004012539900000000000000000000Consumidor Final              000000000040000000000000000000000000000000000000000000000000000000000000000000000000000000000000000000000000000000000000PES00010000001 00000000000000020150412
201504020060000700000000000000401254000000000000004012549900000000000000000000Consumidor Final              000000000040000000000000000000000000000000000000000000000000000000000000000000000000000000000000000000000000000000000000PES00010000001 00000000000000020150412
201504020060000700000000000000401255000000000000004012559900000000000000000000Consumidor Final              000000000040000000000000000000000000000000000000000000000000000000000000000000000000000000000000000000000000000000000000PES00010000001 00000000000000020150412
201504020060000700000000000000401256000000000000004012569900000000000000000000Consumidor Final              000000000040000000000000000000000000000000000000000000000000000000000000000000000000000000000000000000000000000000000000PES00010000001 00000000000000020150412
201504010060000700000000000000401040000000000000004010409900000000000000000000Consumidor Final              000000000040000000000000000000000000000000000000000000000000000000000000000000000000000000000000000000000000000000000000PES00010000001 00000000000000020150411
201504010060000600000000000000612235000000000000006122359900000000000000000000Consumidor Final              000000000040000000000000000000000000000000000000000000000000000000000000000000000000000000000000000000000000000000000000PES00010000001 00000000000000020150411
201504010060000700000000000000401042000000000000004010429900000000000000000000Consumidor Final              000000000040000000000000000000000000000000000000000000000000000000000000000000000000000000000000000000000000000000000000PES00010000001 00000000000000020150411
201504010060000700000000000000401043000000000000004010439900000000000000000000Consumidor Final              000000000040000000000000000000000000000000000000000000000000000000000000000000000000000000000000000000000000000000000000PES00010000001 00000000000000020150411
201504010060000600000000000000612236000000000000006122369900000000000000000000Consumidor Final              000000000047000000000000000000000000000000000000000000000000000000000000000000000000000000000000000000000000000000000000PES00010000001 00000000000000020150411
201504010060000700000000000000401044000000000000004010449900000000000000000000Consumidor Final              000000000038000000000000000000000000000000000000000000000000000000000000000000000000000000000000000000000000000000000000PES00010000001 00000000000000020150411
201504010060000600000000000000612237000000000000006122379900000000000000000000Consumidor Final              000000000040000000000000000000000000000000000000000000000000000000000000000000000000000000000000000000000000000000000000PES00010000001 00000000000000020150411
201504010060000700000000000000401045000000000000004010459900000000000000000000Consumidor Final              000000000076000000000000000000000000000000000000000000000000000000000000000000000000000000000000000000000000000000000000PES00010000001 00000000000000020150411
201504010060000600000000000000612238000000000000006122389900000000000000000000Consumidor Final              000000000040000000000000000000000000000000000000000000000000000000000000000000000000000000000000000000000000000000000000PES00010000001 00000000000000020150411
201504010060000600000000000000612239000000000000006122399900000000000000000000Consumidor Final              000000000040000000000000000000000000000000000000000000000000000000000000000000000000000000000000000000000000000000000000PES00010000001 00000000000000020150411
201504010060000700000000000000401052000000000000004010529900000000000000000000Consumidor Final              000000000040000000000000000000000000000000000000000000000000000000000000000000000000000000000000000000000000000000000000PES00010000001 00000000000000020150411
201504010060000700000000000000401053000000000000004010539900000000000000000000Consumidor Final              000000000040000000000000000000000000000000000000000000000000000000000000000000000000000000000000000000000000000000000000PES00010000001 00000000000000020150411
201504010060000700000000000000401055000000000000004010559900000000000000000000Consumidor Final              000000000040000000000000000000000000000000000000000000000000000000000000000000000000000000000000000000000000000000000000PES00010000001 00000000000000020150411
201504010060000700000000000000401056000000000000004010569900000000000000000000Consumidor Final              000000000040000000000000000000000000000000000000000000000000000000000000000000000000000000000000000000000000000000000000PES00010000001 00000000000000020150411
201504010060000600000000000000612246000000000000006122469900000000000000000000Consumidor Final              000000000040000000000000000000000000000000000000000000000000000000000000000000000000000000000000000000000000000000000000PES00010000001 00000000000000020150411
201504010060000700000000000000401050000000000000004010509900000000000000000000Consumidor Final              000000000040000000000000000000000000000000000000000000000000000000000000000000000000000000000000000000000000000000000000PES00010000001 00000000000000020150411
201504010060000700000000000000401051000000000000004010519900000000000000000000Consumidor Final              000000000050000000000000000000000000000000000000000000000000000000000000000000000000000000000000000000000000000000000000PES00010000001 00000000000000020150411
201504010060000600000000000000612241000000000000006122419900000000000000000000Consumidor Final              000000000043000000000000000000000000000000000000000000000000000000000000000000000000000000000000000000000000000000000000PES00010000001 00000000000000020150411
201504010060000700000000000000401059000000000000004010599900000000000000000000Consumidor Final              000000000035000000000000000000000000000000000000000000000000000000000000000000000000000000000000000000000000000000000000PES00010000001 00000000000000020150411
201504010060000700000000000000401068000000000000004010689900000000000000000000Consumidor Final              000000000040000000000000000000000000000000000000000000000000000000000000000000000000000000000000000000000000000000000000PES00010000001 00000000000000020150411
201504010060000700000000000000401069000000000000004010699900000000000000000000Consumidor Final              000000000035000000000000000000000000000000000000000000000000000000000000000000000000000000000000000000000000000000000000PES00010000001 00000000000000020150411
201504010060000700000000000000401070000000000000004010709900000000000000000000Consumidor Final              000000000035000000000000000000000000000000000000000000000000000000000000000000000000000000000000000000000000000000000000PES00010000001 00000000000000020150411
201504010060000600000000000000612253000000000000006122539900000000000000000000Consumidor Final              000000000040000000000000000000000000000000000000000000000000000000000000000000000000000000000000000000000000000000000000PES00010000001 00000000000000020150411
201504010060000600000000000000612254000000000000006122549900000000000000000000Consumidor Final              000000000041000000000000000000000000000000000000000000000000000000000000000000000000000000000000000000000000000000000000PES00010000001 00000000000000020150411
201504010060000600000000000000612262000000000000006122629900000000000000000000Consumidor Final              000000000043000000000000000000000000000000000000000000000000000000000000000000000000000000000000000000000000000000000000PES00010000001 00000000000000020150411
201504010060000600000000000000612263000000000000006122639900000000000000000000Consumidor Final              000000000058000000000000000000000000000000000000000000000000000000000000000000000000000000000000000000000000000000000000PES00010000001 00000000000000020150411
201504010060000600000000000000612264000000000000006122649900000000000000000000Consumidor Final              000000000040000000000000000000000000000000000000000000000000000000000000000000000000000000000000000000000000000000000000PES00010000001 00000000000000020150411
201504010060000600000000000000612265000000000000006122659900000000000000000000Consumidor Final              000000000040000000000000000000000000000000000000000000000000000000000000000000000000000000000000000000000000000000000000PES00010000001 00000000000000020150411
201504010060000600000000000000612240000000000000006122409900000000000000000000Consumidor Final              000000000043000000000000000000000000000000000000000000000000000000000000000000000000000000000000000000000000000000000000PES00010000001 00000000000000020150411
201504010060000700000000000000401054000000000000004010549900000000000000000000Consumidor Final              000000000040000000000000000000000000000000000000000000000000000000000000000000000000000000000000000000000000000000000000PES00010000001 00000000000000020150411
201504010060000600000000000000612255000000000000006122559900000000000000000000Consumidor Final              000000000045000000000000000000000000000000000000000000000000000000000000000000000000000000000000000000000000000000000000PES00010000001 00000000000000020150411
201504010060000600000000000000612266000000000000006122669900000000000000000000Consumidor Final              000000000040000000000000000000000000000000000000000000000000000000000000000000000000000000000000000000000000000000000000PES00010000001 00000000000000020150411
201504010060000600000000000000612267000000000000006122679900000000000000000000Consumidor Final              000000000019000000000000000000000000000000000000000000000000000000000000000000000000000000000000000000000000000000000000PES00010000001 00000000000000020150411
201504010060000600000000000000612268000000000000006122689900000000000000000000Consumidor Final              000000000038000000000000000000000000000000000000000000000000000000000000000000000000000000000000000000000000000000000000PES00010000001 00000000000000020150411
201504010060000600000000000000612271000000000000006122719900000000000000000000Consumidor Final              000000000040000000000000000000000000000000000000000000000000000000000000000000000000000000000000000000000000000000000000PES00010000001 00000000000000020150411
201504010060000600000000000000612272000000000000006122729900000000000000000000Consumidor Final              000000000040000000000000000000000000000000000000000000000000000000000000000000000000000000000000000000000000000000000000PES00010000001 00000000000000020150411
201504010060000600000000000000612273000000000000006122739900000000000000000000Consumidor Final              000000000040000000000000000000000000000000000000000000000000000000000000000000000000000000000000000000000000000000000000PES00010000001 00000000000000020150411
201504010060000700000000000000401080000000000000004010809900000000000000000000Consumidor Final              000000000040000000000000000000000000000000000000000000000000000000000000000000000000000000000000000000000000000000000000PES00010000001 00000000000000020150411
201504010060000700000000000000401081000000000000004010819900000000000000000000Consumidor Final              000000000050000000000000000000000000000000000000000000000000000000000000000000000000000000000000000000000000000000000000PES00010000001 00000000000000020150411
201504010060000700000000000000401082000000000000004010829900000000000000000000Consumidor Final              000000000048000000000000000000000000000000000000000000000000000000000000000000000000000000000000000000000000000000000000PES00010000001 00000000000000020150411
201504010060000600000000000000612276000000000000006122769900000000000000000000Consumidor Final              000000000048000000000000000000000000000000000000000000000000000000000000000000000000000000000000000000000000000000000000PES00010000001 00000000000000020150411
201504010060000700000000000000401046000000000000004010469900000000000000000000Consumidor Final              000000000040000000000000000000000000000000000000000000000000000000000000000000000000000000000000000000000000000000000000PES00010000001 00000000000000020150411
201504010060000700000000000000401047000000000000004010479900000000000000000000Consumidor Final              000000000040000000000000000000000000000000000000000000000000000000000000000000000000000000000000000000000000000000000000PES00010000001 00000000000000020150411
201504010060000700000000000000401048000000000000004010489900000000000000000000Consumidor Final              000000000043000000000000000000000000000000000000000000000000000000000000000000000000000000000000000000000000000000000000PES00010000001 00000000000000020150411
201504010060000700000000000000401049000000000000004010499900000000000000000000Consumidor Final              000000000040000000000000000000000000000000000000000000000000000000000000000000000000000000000000000000000000000000000000PES00010000001 00000000000000020150411
201504010060000700000000000000401060000000000000004010609900000000000000000000Consumidor Final              000000000040000000000000000000000000000000000000000000000000000000000000000000000000000000000000000000000000000000000000PES00010000001 00000000000000020150411
201504010060000700000000000000401071000000000000004010719900000000000000000000Consumidor Final              000000000040000000000000000000000000000000000000000000000000000000000000000000000000000000000000000000000000000000000000PES00010000001 00000000000000020150411
201504010060000700000000000000401075000000000000004010759900000000000000000000Consumidor Final              000000000040000000000000000000000000000000000000000000000000000000000000000000000000000000000000000000000000000000000000PES00010000001 00000000000000020150411
201504010060000700000000000000401076000000000000004010769900000000000000000000Consumidor Final              000000000040000000000000000000000000000000000000000000000000000000000000000000000000000000000000000000000000000000000000PES00010000001 00000000000000020150411
201504010060000800000000000000125233000000000000001252339900000000000000000000Consumidor Final              000000000035000000000000000000000000000000000000000000000000000000000000000000000000000000000000000000000000000000000000PES00010000001 00000000000000020150411
201504010060000800000000000000125234000000000000001252349900000000000000000000Consumidor Final              000000000042000000000000000000000000000000000000000000000000000000000000000000000000000000000000000000000000000000000000PES00010000001 00000000000000020150411
201504010060000800000000000000125235000000000000001252359900000000000000000000Consumidor Final              000000000035000000000000000000000000000000000000000000000000000000000000000000000000000000000000000000000000000000000000PES00010000001 00000000000000020150411
201504010060000800000000000000125236000000000000001252369900000000000000000000Consumidor Final              000000000035000000000000000000000000000000000000000000000000000000000000000000000000000000000000000000000000000000000000PES00010000001 00000000000000020150411
201504010060000800000000000000125237000000000000001252379900000000000000000000Consumidor Final              000000000035000000000000000000000000000000000000000000000000000000000000000000000000000000000000000000000000000000000000PES00010000001 00000000000000020150411
201504010060000800000000000000125238000000000000001252389900000000000000000000Consumidor Final              000000000035000000000000000000000000000000000000000000000000000000000000000000000000000000000000000000000000000000000000PES00010000001 00000000000000020150411
201504010060000600000000000000612242000000000000006122429900000000000000000000Consumidor Final              000000000040000000000000000000000000000000000000000000000000000000000000000000000000000000000000000000000000000000000000PES00010000001 00000000000000020150411
201504010060000800000000000000125239000000000000001252399900000000000000000000Consumidor Final              000000000035000000000000000000000000000000000000000000000000000000000000000000000000000000000000000000000000000000000000PES00010000001 00000000000000020150411
201504010060000800000000000000125240000000000000001252409900000000000000000000Consumidor Final              000000000035000000000000000000000000000000000000000000000000000000000000000000000000000000000000000000000000000000000000PES00010000001 00000000000000020150411
201504010060000700000000000000401083000000000000004010839900000000000000000000Consumidor Final              000000000040000000000000000000000000000000000000000000000000000000000000000000000000000000000000000000000000000000000000PES00010000001 00000000000000020150411
201504010060000700000000000000401084000000000000004010849900000000000000000000Consumidor Final              000000000043000000000000000000000000000000000000000000000000000000000000000000000000000000000000000000000000000000000000PES00010000001 00000000000000020150411
201504010060000700000000000000401089000000000000004010899900000000000000000000Consumidor Final              000000000043000000000000000000000000000000000000000000000000000000000000000000000000000000000000000000000000000000000000PES00010000001 00000000000000020150411
201504010060000700000000000000401090000000000000004010909900000000000000000000Consumidor Final              000000000040000000000000000000000000000000000000000000000000000000000000000000000000000000000000000000000000000000000000PES00010000001 00000000000000020150411
201504010060000800000000000000125241000000000000001252419900000000000000000000Consumidor Final              000000000035000000000000000000000000000000000000000000000000000000000000000000000000000000000000000000000000000000000000PES00010000001 00000000000000020150411
201504010060000800000000000000125242000000000000001252429900000000000000000000Consumidor Final              000000000035000000000000000000000000000000000000000000000000000000000000000000000000000000000000000000000000000000000000PES00010000001 00000000000000020150411
201504010060000800000000000000125243000000000000001252439900000000000000000000Consumidor Final              000000000035000000000000000000000000000000000000000000000000000000000000000000000000000000000000000000000000000000000000PES00010000001 00000000000000020150411
201504010060000700000000000000401094000000000000004010949900000000000000000000Consumidor Final              000000000040000000000000000000000000000000000000000000000000000000000000000000000000000000000000000000000000000000000000PES00010000001 00000000000000020150411
201504010060000700000000000000401095000000000000004010959900000000000000000000Consumidor Final              000000000040000000000000000000000000000000000000000000000000000000000000000000000000000000000000000000000000000000000000PES00010000001 00000000000000020150411
201504010060000700000000000000401096000000000000004010969900000000000000000000Consumidor Final              000000000040000000000000000000000000000000000000000000000000000000000000000000000000000000000000000000000000000000000000PES00010000001 00000000000000020150411
201504010060000600000000000000612289000000000000006122899900000000000000000000Consumidor Final              000000000040000000000000000000000000000000000000000000000000000000000000000000000000000000000000000000000000000000000000PES00010000001 00000000000000020150411
201504010060000600000000000000612243000000000000006122439900000000000000000000Consumidor Final              000000000040000000000000000000000000000000000000000000000000000000000000000000000000000000000000000000000000000000000000PES00010000001 00000000000000020150411
201504010060000600000000000000612244000000000000006122449900000000000000000000Consumidor Final              000000000040000000000000000000000000000000000000000000000000000000000000000000000000000000000000000000000000000000000000PES00010000001 00000000000000020150411
201504010060000700000000000000401057000000000000004010579900000000000000000000Consumidor Final              000000000040000000000000000000000000000000000000000000000000000000000000000000000000000000000000000000000000000000000000PES00010000001 00000000000000020150411
201504010060000700000000000000401058000000000000004010589900000000000000000000Consumidor Final              000000000035000000000000000000000000000000000000000000000000000000000000000000000000000000000000000000000000000000000000PES00010000001 00000000000000020150411
201504010060000600000000000000612245000000000000006122459900000000000000000000Consumidor Final              000000000035000000000000000000000000000000000000000000000000000000000000000000000000000000000000000000000000000000000000PES00010000001 00000000000000020150411
201504010060000600000000000000612247000000000000006122479900000000000000000000Consumidor Final              000000000063000000000000000000000000000000000000000000000000000000000000000000000000000000000000000000000000000000000000PES00010000001 00000000000000020150411
201504010060000600000000000000612248000000000000006122489900000000000000000000Consumidor Final              000000000040000000000000000000000000000000000000000000000000000000000000000000000000000000000000000000000000000000000000PES00010000001 00000000000000020150411
201504010060000700000000000000401061000000000000004010619900000000000000000000Consumidor Final              000000000040000000000000000000000000000000000000000000000000000000000000000000000000000000000000000000000000000000000000PES00010000001 00000000000000020150411
201504010060000700000000000000401062000000000000004010629900000000000000000000Consumidor Final              000000000047000000000000000000000000000000000000000000000000000000000000000000000000000000000000000000000000000000000000PES00010000001 00000000000000020150411
201504010060000700000000000000401063000000000000004010639900000000000000000000Consumidor Final              000000000040000000000000000000000000000000000000000000000000000000000000000000000000000000000000000000000000000000000000PES00010000001 00000000000000020150411
201504010060000700000000000000401064000000000000004010649900000000000000000000Consumidor Final              000000000040000000000000000000000000000000000000000000000000000000000000000000000000000000000000000000000000000000000000PES00010000001 00000000000000020150411
201504010060000700000000000000401065000000000000004010659900000000000000000000Consumidor Final              000000000035000000000000000000000000000000000000000000000000000000000000000000000000000000000000000000000000000000000000PES00010000001 00000000000000020150411
201504010060000700000000000000401066000000000000004010669900000000000000000000Consumidor Final              000000000035000000000000000000000000000000000000000000000000000000000000000000000000000000000000000000000000000000000000PES00010000001 00000000000000020150411
201504010060000700000000000000401067000000000000004010679900000000000000000000Consumidor Final              000000000035000000000000000000000000000000000000000000000000000000000000000000000000000000000000000000000000000000000000PES00010000001 00000000000000020150411
201504010060000800000000000000125225000000000000001252259900000000000000000000Consumidor Final              000000000035000000000000000000000000000000000000000000000000000000000000000000000000000000000000000000000000000000000000PES00010000001 00000000000000020150411
201504010060000600000000000000612290000000000000006122909900000000000000000000Consumidor Final              000000000040000000000000000000000000000000000000000000000000000000000000000000000000000000000000000000000000000000000000PES00010000001 00000000000000020150411
201504010060000800000000000000125244000000000000001252449900000000000000000000Consumidor Final              000000000035000000000000000000000000000000000000000000000000000000000000000000000000000000000000000000000000000000000000PES00010000001 00000000000000020150411
201504010060000600000000000000612298000000000000006122989900000000000000000000Consumidor Final              000000000040000000000000000000000000000000000000000000000000000000000000000000000000000000000000000000000000000000000000PES00010000001 00000000000000020150411
201504010060000600000000000000612299000000000000006122999900000000000000000000Consumidor Final              000000000043000000000000000000000000000000000000000000000000000000000000000000000000000000000000000000000000000000000000PES00010000001 00000000000000020150411
201504010060000600000000000000612300000000000000006123009900000000000000000000Consumidor Final              000000000040000000000000000000000000000000000000000000000000000000000000000000000000000000000000000000000000000000000000PES00010000001 00000000000000020150411
201504010060000600000000000000612301000000000000006123019900000000000000000000Consumidor Final              000000000040000000000000000000000000000000000000000000000000000000000000000000000000000000000000000000000000000000000000PES00010000001 00000000000000020150411
201504010060000600000000000000612302000000000000006123029900000000000000000000Consumidor Final              000000000040000000000000000000000000000000000000000000000000000000000000000000000000000000000000000000000000000000000000PES00010000001 00000000000000020150411
201504010060000600000000000000612303000000000000006123039900000000000000000000Consumidor Final              000000000040000000000000000000000000000000000000000000000000000000000000000000000000000000000000000000000000000000000000PES00010000001 00000000000000020150411
201504010060000600000000000000612304000000000000006123049900000000000000000000Consumidor Final              000000000047000000000000000000000000000000000000000000000000000000000000000000000000000000000000000000000000000000000000PES00010000001 00000000000000020150411
201504010060000600000000000000612305000000000000006123059900000000000000000000Consumidor Final              000000000048000000000000000000000000000000000000000000000000000000000000000000000000000000000000000000000000000000000000PES00010000001 00000000000000020150411
201504010060000600000000000000612306000000000000006123069900000000000000000000Consumidor Final              000000000040000000000000000000000000000000000000000000000000000000000000000000000000000000000000000000000000000000000000PES00010000001 00000000000000020150411
201504010060000600000000000000612307000000000000006123079900000000000000000000Consumidor Final              000000000040000000000000000000000000000000000000000000000000000000000000000000000000000000000000000000000000000000000000PES00010000001 00000000000000020150411
201504010060000600000000000000612308000000000000006123089900000000000000000000Consumidor Final              000000000043000000000000000000000000000000000000000000000000000000000000000000000000000000000000000000000000000000000000PES00010000001 00000000000000020150411
201504010060000800000000000000125226000000000000001252269900000000000000000000Consumidor Final              000000000036000000000000000000000000000000000000000000000000000000000000000000000000000000000000000000000000000000000000PES00010000001 00000000000000020150411
201504010060000800000000000000125227000000000000001252279900000000000000000000Consumidor Final              000000000035000000000000000000000000000000000000000000000000000000000000000000000000000000000000000000000000000000000000PES00010000001 00000000000000020150411
201504010060000800000000000000125228000000000000001252289900000000000000000000Consumidor Final              000000000035000000000000000000000000000000000000000000000000000000000000000000000000000000000000000000000000000000000000PES00010000001 00000000000000020150411
201504010060000800000000000000125229000000000000001252299900000000000000000000Consumidor Final              000000000035000000000000000000000000000000000000000000000000000000000000000000000000000000000000000000000000000000000000PES00010000001 00000000000000020150411
201504010060000800000000000000125230000000000000001252309900000000000000000000Consumidor Final              000000000035000000000000000000000000000000000000000000000000000000000000000000000000000000000000000000000000000000000000PES00010000001 00000000000000020150411
201504010060000800000000000000125231000000000000001252319900000000000000000000Consumidor Final              000000000035000000000000000000000000000000000000000000000000000000000000000000000000000000000000000000000000000000000000PES00010000001 00000000000000020150411
201504010060000800000000000000125232000000000000001252329900000000000000000000Consumidor Final              000000000035000000000000000000000000000000000000000000000000000000000000000000000000000000000000000000000000000000000000PES00010000001 00000000000000020150411
201504010060000600000000000000612259000000000000006122599900000000000000000000Consumidor Final              000000000039000000000000000000000000000000000000000000000000000000000000000000000000000000000000000000000000000000000000PES00010000001 00000000000000020150411
201504010060000600000000000000612260000000000000006122609900000000000000000000Consumidor Final              000000000040000000000000000000000000000000000000000000000000000000000000000000000000000000000000000000000000000000000000PES00010000001 00000000000000020150411
201504010060000600000000000000612261000000000000006122619900000000000000000000Consumidor Final              000000000040000000000000000000000000000000000000000000000000000000000000000000000000000000000000000000000000000000000000PES00010000001 00000000000000020150411
201504010060000600000000000000612269000000000000006122699900000000000000000000Consumidor Final              000000000040000000000000000000000000000000000000000000000000000000000000000000000000000000000000000000000000000000000000PES00010000001 00000000000000020150411
201504010060000600000000000000612270000000000000006122709900000000000000000000Consumidor Final              000000000040000000000000000000000000000000000000000000000000000000000000000000000000000000000000000000000000000000000000PES00010000001 00000000000000020150411
201504010060000700000000000000401077000000000000004010779900000000000000000000Consumidor Final              000000000040000000000000000000000000000000000000000000000000000000000000000000000000000000000000000000000000000000000000PES00010000001 00000000000000020150411
201504010060000700000000000000401078000000000000004010789900000000000000000000Consumidor Final              000000000040000000000000000000000000000000000000000000000000000000000000000000000000000000000000000000000000000000000000PES00010000001 00000000000000020150411
201504010060000700000000000000401079000000000000004010799900000000000000000000Consumidor Final              000000000040000000000000000000000000000000000000000000000000000000000000000000000000000000000000000000000000000000000000PES00010000001 00000000000000020150411
201504010060000600000000000000612275000000000000006122759900000000000000000000Consumidor Final              000000000040000000000000000000000000000000000000000000000000000000000000000000000000000000000000000000000000000000000000PES00010000001 00000000000000020150411
201504010060000700000000000000401085000000000000004010859900000000000000000000Consumidor Final              000000000040000000000000000000000000000000000000000000000000000000000000000000000000000000000000000000000000000000000000PES00010000001 00000000000000020150411
201504010060000700000000000000401086000000000000004010869900000000000000000000Consumidor Final              000000000043000000000000000000000000000000000000000000000000000000000000000000000000000000000000000000000000000000000000PES00010000001 00000000000000020150411
201504010060000700000000000000401087000000000000004010879900000000000000000000Consumidor Final              000000000040000000000000000000000000000000000000000000000000000000000000000000000000000000000000000000000000000000000000PES00010000001 00000000000000020150411
201504010060000600000000000000612277000000000000006122779900000000000000000000Consumidor Final              000000000040000000000000000000000000000000000000000000000000000000000000000000000000000000000000000000000000000000000000PES00010000001 00000000000000020150411
201504010060000700000000000000401088000000000000004010889900000000000000000000Consumidor Final              000000000040000000000000000000000000000000000000000000000000000000000000000000000000000000000000000000000000000000000000PES00010000001 00000000000000020150411
201504010060000600000000000000612278000000000000006122789900000000000000000000Consumidor Final              000000000048000000000000000000000000000000000000000000000000000000000000000000000000000000000000000000000000000000000000PES00010000001 00000000000000020150411
201504010060000600000000000000612279000000000000006122799900000000000000000000Consumidor Final              000000000040000000000000000000000000000000000000000000000000000000000000000000000000000000000000000000000000000000000000PES00010000001 00000000000000020150411
201504010060000600000000000000612280000000000000006122809900000000000000000000Consumidor Final              000000000040000000000000000000000000000000000000000000000000000000000000000000000000000000000000000000000000000000000000PES00010000001 00000000000000020150411
201504010060000600000000000000612281000000000000006122819900000000000000000000Consumidor Final              000000000040000000000000000000000000000000000000000000000000000000000000000000000000000000000000000000000000000000000000PES00010000001 00000000000000020150411
201504010060000600000000000000612286000000000000006122869900000000000000000000Consumidor Final              000000000052000000000000000000000000000000000000000000000000000000000000000000000000000000000000000000000000000000000000PES00010000001 00000000000000020150411
201504010060000600000000000000612287000000000000006122879900000000000000000000Consumidor Final              000000000040000000000000000000000000000000000000000000000000000000000000000000000000000000000000000000000000000000000000PES00010000001 00000000000000020150411
201504010060000600000000000000612288000000000000006122889900000000000000000000Consumidor Final              000000000040000000000000000000000000000000000000000000000000000000000000000000000000000000000000000000000000000000000000PES00010000001 00000000000000020150411
201504010060000600000000000000612274000000000000006122749900000000000000000000Consumidor Final              000000000040000000000000000000000000000000000000000000000000000000000000000000000000000000000000000000000000000000000000PES00010000001 00000000000000020150411
201504010060000700000000000000401101000000000000004011019900000000000000000000Consumidor Final              000000000041000000000000000000000000000000000000000000000000000000000000000000000000000000000000000000000000000000000000PES00010000001 00000000000000020150411
201504010060000700000000000000401102000000000000004011029900000000000000000000Consumidor Final              000000000040000000000000000000000000000000000000000000000000000000000000000000000000000000000000000000000000000000000000PES00010000001 00000000000000020150411
201504010060000700000000000000401104000000000000004011049900000000000000000000Consumidor Final              000000000040000000000000000000000000000000000000000000000000000000000000000000000000000000000000000000000000000000000000PES00010000001 00000000000000020150411
201504010060000700000000000000401105000000000000004011059900000000000000000000Consumidor Final              000000000040000000000000000000000000000000000000000000000000000000000000000000000000000000000000000000000000000000000000PES00010000001 00000000000000020150411
201504010060000700000000000000401106000000000000004011069900000000000000000000Consumidor Final              000000000069000000000000000000000000000000000000000000000000000000000000000000000000000000000000000000000000000000000000PES00010000001 00000000000000020150411
201504010060000600000000000000612309000000000000006123099900000000000000000000Consumidor Final              000000000040000000000000000000000000000000000000000000000000000000000000000000000000000000000000000000000000000000000000PES00010000001 00000000000000020150411
201504010060000800000000000000125246000000000000001252469900000000000000000000Consumidor Final              000000000035000000000000000000000000000000000000000000000000000000000000000000000000000000000000000000000000000000000000PES00010000001 00000000000000020150411
201504010060000800000000000000125247000000000000001252479900000000000000000000Consumidor Final              000000000035000000000000000000000000000000000000000000000000000000000000000000000000000000000000000000000000000000000000PES00010000001 00000000000000020150411
201504010060000800000000000000125248000000000000001252489900000000000000000000Consumidor Final              000000000035000000000000000000000000000000000000000000000000000000000000000000000000000000000000000000000000000000000000PES00010000001 00000000000000020150411
201504010060000800000000000000125249000000000000001252499900000000000000000000Consumidor Final              000000000035000000000000000000000000000000000000000000000000000000000000000000000000000000000000000000000000000000000000PES00010000001 00000000000000020150411
201504010060000700000000000000401123000000000000004011239900000000000000000000Consumidor Final              000000000040000000000000000000000000000000000000000000000000000000000000000000000000000000000000000000000000000000000000PES00010000001 00000000000000020150411
201504010060000700000000000000401124000000000000004011249900000000000000000000Consumidor Final              000000000040000000000000000000000000000000000000000000000000000000000000000000000000000000000000000000000000000000000000PES00010000001 00000000000000020150411
201504010060000800000000000000125252000000000000001252529900000000000000000000Consumidor Final              000000000035000000000000000000000000000000000000000000000000000000000000000000000000000000000000000000000000000000000000PES00010000001 00000000000000020150411
201504010060000700000000000000401098000000000000004010989900000000000000000000Consumidor Final              000000000040000000000000000000000000000000000000000000000000000000000000000000000000000000000000000000000000000000000000PES00010000001 00000000000000020150411
201504010060000700000000000000401109000000000000004011099900000000000000000000Consumidor Final              000000000067000000000000000000000000000000000000000000000000000000000000000000000000000000000000000000000000000000000000PES00010000001 00000000000000020150411
201504010060000700000000000000401126000000000000004011269900000000000000000000Consumidor Final              000000000040000000000000000000000000000000000000000000000000000000000000000000000000000000000000000000000000000000000000PES00010000001 00000000000000020150411
201504010060000800000000000000125253000000000000001252539900000000000000000000Consumidor Final              000000000035000000000000000000000000000000000000000000000000000000000000000000000000000000000000000000000000000000000000PES00010000001 00000000000000020150411
201504010060000700000000000000401127000000000000004011279900000000000000000000Consumidor Final              000000000040000000000000000000000000000000000000000000000000000000000000000000000000000000000000000000000000000000000000PES00010000001 00000000000000020150411
201504010060000700000000000000401142000000000000004011429900000000000000000000Consumidor Final              000000000038000000000000000000000000000000000000000000000000000000000000000000000000000000000000000000000000000000000000PES00010000001 00000000000000020150411
201504010060000700000000000000401144000000000000004011449900000000000000000000Consumidor Final              000000000041000000000000000000000000000000000000000000000000000000000000000000000000000000000000000000000000000000000000PES00010000001 00000000000000020150411
201504010060000700000000000000401145000000000000004011459900000000000000000000Consumidor Final              000000000043000000000000000000000000000000000000000000000000000000000000000000000000000000000000000000000000000000000000PES00010000001 00000000000000020150411
201504010060000700000000000000401146000000000000004011469900000000000000000000Consumidor Final              000000000040000000000000000000000000000000000000000000000000000000000000000000000000000000000000000000000000000000000000PES00010000001 00000000000000020150411
201504010060000800000000000000125256000000000000001252569900000000000000000000Consumidor Final              000000000035000000000000000000000000000000000000000000000000000000000000000000000000000000000000000000000000000000000000PES00010000001 00000000000000020150411
201504010060000700000000000000401147000000000000004011479900000000000000000000Consumidor Final              000000000040000000000000000000000000000000000000000000000000000000000000000000000000000000000000000000000000000000000000PES00010000001 00000000000000020150411
201504010060000700000000000000401148000000000000004011489900000000000000000000Consumidor Final              000000000040000000000000000000000000000000000000000000000000000000000000000000000000000000000000000000000000000000000000PES00010000001 00000000000000020150411
201504010060000700000000000000401149000000000000004011499900000000000000000000Consumidor Final              000000000040000000000000000000000000000000000000000000000000000000000000000000000000000000000000000000000000000000000000PES00010000001 00000000000000020150411
201504010060000700000000000000401150000000000000004011509900000000000000000000Consumidor Final              000000000040000000000000000000000000000000000000000000000000000000000000000000000000000000000000000000000000000000000000PES00010000001 00000000000000020150411
201504010060000700000000000000401099000000000000004010999900000000000000000000Consumidor Final              000000000039000000000000000000000000000000000000000000000000000000000000000000000000000000000000000000000000000000000000PES00010000001 00000000000000020150411
201504010060000600000000000000612291000000000000006122919900000000000000000000Consumidor Final              000000000040000000000000000000000000000000000000000000000000000000000000000000000000000000000000000000000000000000000000PES00010000001 00000000000000020150411
201504010060000700000000000000401107000000000000004011079900000000000000000000Consumidor Final              000000000040000000000000000000000000000000000000000000000000000000000000000000000000000000000000000000000000000000000000PES00010000001 00000000000000020150411
201504010060000700000000000000401108000000000000004011089900000000000000000000Consumidor Final              000000000031000000000000000000000000000000000000000000000000000000000000000000000000000000000000000000000000000000000000PES00010000001 00000000000000020150411
201504010060000700000000000000401110000000000000004011109900000000000000000000Consumidor Final              000000000040000000000000000000000000000000000000000000000000000000000000000000000000000000000000000000000000000000000000PES00010000001 00000000000000020150411
201504010060000700000000000000401114000000000000004011149900000000000000000000Consumidor Final              000000000040000000000000000000000000000000000000000000000000000000000000000000000000000000000000000000000000000000000000PES00010000001 00000000000000020150411
201504010060000700000000000000401115000000000000004011159900000000000000000000Consumidor Final              000000000048000000000000000000000000000000000000000000000000000000000000000000000000000000000000000000000000000000000000PES00010000001 00000000000000020150411
201504010060000700000000000000401116000000000000004011169900000000000000000000Consumidor Final              000000000048000000000000000000000000000000000000000000000000000000000000000000000000000000000000000000000000000000000000PES00010000001 00000000000000020150411
201504010060000700000000000000401117000000000000004011179900000000000000000000Consumidor Final              000000000043000000000000000000000000000000000000000000000000000000000000000000000000000000000000000000000000000000000000PES00010000001 00000000000000020150411
201504010060000700000000000000401118000000000000004011189900000000000000000000Consumidor Final              000000000043000000000000000000000000000000000000000000000000000000000000000000000000000000000000000000000000000000000000PES00010000001 00000000000000020150411
201504010060000700000000000000401119000000000000004011199900000000000000000000Consumidor Final              000000000043000000000000000000000000000000000000000000000000000000000000000000000000000000000000000000000000000000000000PES00010000001 00000000000000020150411
201504010060000700000000000000401120000000000000004011209900000000000000000000Consumidor Final              000000000043000000000000000000000000000000000000000000000000000000000000000000000000000000000000000000000000000000000000PES00010000001 00000000000000020150411
201504010060000700000000000000401121000000000000004011219900000000000000000000Consumidor Final              000000000043000000000000000000000000000000000000000000000000000000000000000000000000000000000000000000000000000000000000PES00010000001 00000000000000020150411
201504010060000700000000000000401100000000000000004011009900000000000000000000Consumidor Final              000000000024000000000000000000000000000000000000000000000000000000000000000000000000000000000000000000000000000000000000PES00010000001 00000000000000020150411
201504010060000600000000000000612292000000000000006122929900000000000000000000Consumidor Final              000000000040000000000000000000000000000000000000000000000000000000000000000000000000000000000000000000000000000000000000PES00010000001 00000000000000020150411
201504010060000600000000000000612293000000000000006122939900000000000000000000Consumidor Final              000000000048000000000000000000000000000000000000000000000000000000000000000000000000000000000000000000000000000000000000PES00010000001 00000000000000020150411
201504010060000600000000000000612294000000000000006122949900000000000000000000Consumidor Final              000000000048000000000000000000000000000000000000000000000000000000000000000000000000000000000000000000000000000000000000PES00010000001 00000000000000020150411
201504010060000600000000000000612295000000000000006122959900000000000000000000Consumidor Final              000000000040000000000000000000000000000000000000000000000000000000000000000000000000000000000000000000000000000000000000PES00010000001 00000000000000020150411
201504010060000600000000000000612296000000000000006122969900000000000000000000Consumidor Final              000000000040000000000000000000000000000000000000000000000000000000000000000000000000000000000000000000000000000000000000PES00010000001 00000000000000020150411
201504010060000600000000000000612297000000000000006122979900000000000000000000Consumidor Final              000000000040000000000000000000000000000000000000000000000000000000000000000000000000000000000000000000000000000000000000PES00010000001 00000000000000020150411
201504010060000700000000000000401122000000000000004011229900000000000000000000Consumidor Final              000000000040000000000000000000000000000000000000000000000000000000000000000000000000000000000000000000000000000000000000PES00010000001 00000000000000020150411
201504010060000700000000000000401125000000000000004011259900000000000000000000Consumidor Final              000000000040000000000000000000000000000000000000000000000000000000000000000000000000000000000000000000000000000000000000PES00010000001 00000000000000020150411
201504010060000600000000000000612322000000000000006123229900000000000000000000Consumidor Final              000000000040000000000000000000000000000000000000000000000000000000000000000000000000000000000000000000000000000000000000PES00010000001 00000000000000020150411
201504010060000600000000000000612327000000000000006123279900000000000000000000Consumidor Final              000000000040000000000000000000000000000000000000000000000000000000000000000000000000000000000000000000000000000000000000PES00010000001 00000000000000020150411
201504010060000600000000000000612328000000000000006123289900000000000000000000Consumidor Final              000000000040000000000000000000000000000000000000000000000000000000000000000000000000000000000000000000000000000000000000PES00010000001 00000000000000020150411
201504010060000600000000000000612331000000000000006123319900000000000000000000Consumidor Final              000000000040000000000000000000000000000000000000000000000000000000000000000000000000000000000000000000000000000000000000PES00010000001 00000000000000020150411
201504010010000800000000000000004356000000000000000043568000000000030712101942HOTEL BUENOS AIRES AIRPORT    000000000015000000000000000000000000000000000000000000000000000000000000000000000000000000000000000000000000000000000000PES00010000001 00000000000000020150411
201504010010000800000000000000004357000000000000000043578000000000030712101942HOTEL BUENOS AIRES AIRPORT    000000000015000000000000000000000000000000000000000000000000000000000000000000000000000000000000000000000000000000000000PES00010000001 00000000000000020150411
201504010010000800000000000000004358000000000000000043588000000000030712101942HOTEL BUENOS AIRES AIRPORT    000000000015000000000000000000000000000000000000000000000000000000000000000000000000000000000000000000000000000000000000PES00010000001 00000000000000020150411
201504010010000800000000000000004359000000000000000043598000000000030712101942HOTEL BUENOS AIRES AIRPORT    000000000015000000000000000000000000000000000000000000000000000000000000000000000000000000000000000000000000000000000000PES00010000001 00000000000000020150411
201504010010000800000000000000004360000000000000000043608000000000030712101942HOTEL BUENOS AIRES AIRPORT    000000000015000000000000000000000000000000000000000000000000000000000000000000000000000000000000000000000000000000000000PES00010000001 00000000000000020150411
201504010010000800000000000000004361000000000000000043618000000000030712101942HOTEL BUENOS AIRES AIRPORT    000000000015000000000000000000000000000000000000000000000000000000000000000000000000000000000000000000000000000000000000PES00010000001 00000000000000020150411
201504010010000800000000000000004362000000000000000043628000000000030712101942HOTEL BUENOS AIRES AIRPORT    000000000015000000000000000000000000000000000000000000000000000000000000000000000000000000000000000000000000000000000000PES00010000001 00000000000000020150411
201504010010000800000000000000004363000000000000000043638000000000030712101942HOTEL BUENOS AIRES AIRPORT    000000000015000000000000000000000000000000000000000000000000000000000000000000000000000000000000000000000000000000000000PES00010000001 00000000000000020150411
201504010010000800000000000000004364000000000000000043648000000000030712101942HOTEL BUENOS AIRES AIRPORT    000000000015000000000000000000000000000000000000000000000000000000000000000000000000000000000000000000000000000000000000PES00010000001 00000000000000020150411
201504010010000800000000000000004365000000000000000043658000000000030712101942HOTEL BUENOS AIRES AIRPORT    000000000015000000000000000000000000000000000000000000000000000000000000000000000000000000000000000000000000000000000000PES00010000001 00000000000000020150411
201504010010000800000000000000004366000000000000000043668000000000030712101942HOTEL BUENOS AIRES AIRPORT    000000000015000000000000000000000000000000000000000000000000000000000000000000000000000000000000000000000000000000000000PES00010000001 00000000000000020150411
201504010060000800000000000000125245000000000000001252459900000000000000000000Consumidor Final              000000000035000000000000000000000000000000000000000000000000000000000000000000000000000000000000000000000000000000000000PES00010000001 00000000000000020150411
201504010060000600000000000000612312000000000000006123129900000000000000000000Consumidor Final              000000000040000000000000000000000000000000000000000000000000000000000000000000000000000000000000000000000000000000000000PES00010000001 00000000000000020150411
201504010060000600000000000000612313000000000000006123139900000000000000000000Consumidor Final              000000000040000000000000000000000000000000000000000000000000000000000000000000000000000000000000000000000000000000000000PES00010000001 00000000000000020150411
201504010060000600000000000000612310000000000000006123109900000000000000000000Consumidor Final              000000000038000000000000000000000000000000000000000000000000000000000000000000000000000000000000000000000000000000000000PES00010000001 00000000000000020150411
201504010060000600000000000000612311000000000000006123119900000000000000000000Consumidor Final              000000000040000000000000000000000000000000000000000000000000000000000000000000000000000000000000000000000000000000000000PES00010000001 00000000000000020150411
201504010060000600000000000000612314000000000000006123149900000000000000000000Consumidor Final              000000000040000000000000000000000000000000000000000000000000000000000000000000000000000000000000000000000000000000000000PES00010000001 00000000000000020150411
201504010060000600000000000000612315000000000000006123159900000000000000000000Consumidor Final              000000000040000000000000000000000000000000000000000000000000000000000000000000000000000000000000000000000000000000000000PES00010000001 00000000000000020150411
201504010060000600000000000000612316000000000000006123169900000000000000000000Consumidor Final              000000000040000000000000000000000000000000000000000000000000000000000000000000000000000000000000000000000000000000000000PES00010000001 00000000000000020150411
