201808080060000600000000000000831817000000000000008318179900000000000000000000Consumidor Final              000000000089500000000000089500000000000000000000000000000000000000000000000000000000000000000000000000000000000000000000PES00010000001N00000000000000020180818
201808080060000600000000000000831818000000000000008318189900000000000000000000Consumidor Final              000000000085000000000000085000000000000000000000000000000000000000000000000000000000000000000000000000000000000000000000PES00010000001N00000000000000020180818
201808080060000600000000000000831819000000000000008318199000000000099999999999Consumidor Final              000000000104500000000000104500000000000000000000000000000000000000000000000000000000000000000000000000000000000000000000PES00010000001N00000000000000020180818
201808080060000600000000000000831820000000000000008318209900000000000000000000Consumidor Final              000000000089500000000000089500000000000000000000000000000000000000000000000000000000000000000000000000000000000000000000PES00010000001N00000000000000020180818
201808080060000600000000000000831821000000000000008318219000000000099999999999Consumidor Final              000000000100000000000000100000000000000000000000000000000000000000000000000000000000000000000000000000000000000000000000PES00010000001N00000000000000020180818
201808080060000600000000000000831822000000000000008318229900000000000000000000Consumidor Final              000000000078000000000000078000000000000000000000000000000000000000000000000000000000000000000000000000000000000000000000PES00010000001N00000000000000020180818
201808080060000600000000000000831827000000000000008318279900000000000000000000Consumidor Final              000000000098400000000000098400000000000000000000000000000000000000000000000000000000000000000000000000000000000000000000PES00010000001N00000000000000020180818
201808080060000700000000000000612561000000000000006125618000000000030653309461Consumidor Final              000000000078000000000000078000000000000000000000000000000000000000000000000000000000000000000000000000000000000000000000PES00010000001N00000000000000020180818
201808080060000800000000000000208104000000000000002081049900000000000000000000Consumidor Final              000000000085000000000000085000000000000000000000000000000000000000000000000000000000000000000000000000000000000000000000PES00010000001N00000000000000020180818
201808080060000800000000000000208105000000000000002081059900000000000000000000Consumidor Final              000000000042000000000000042000000000000000000000000000000000000000000000000000000000000000000000000000000000000000000000PES00010000001N00000000000000020180818
201808080060000600000000000000831848000000000000008318489000000000099999999999Consumidor Final              000000000101200000000000101200000000000000000000000000000000000000000000000000000000000000000000000000000000000000000000PES00010000001N00000000000000020180818
201808080060000600000000000000831849000000000000008318499900000000000000000000Consumidor Final              000000000085000000000000085000000000000000000000000000000000000000000000000000000000000000000000000000000000000000000000PES00010000001N00000000000000020180818
201808080060000600000000000000831850000000000000008318509900000000000000000000Consumidor Final              000000000078000000000000078000000000000000000000000000000000000000000000000000000000000000000000000000000000000000000000PES00010000001N00000000000000020180818
201808080060000600000000000000831851000000000000008318519900000000000000000000Consumidor Final              000000000089500000000000089500000000000000000000000000000000000000000000000000000000000000000000000000000000000000000000PES00010000001N00000000000000020180818
201808080060000700000000000000612573000000000000006125739900000000000000000000Consumidor Final              000000000089500000000000089500000000000000000000000000000000000000000000000000000000000000000000000000000000000000000000PES00010000001N00000000000000020180818
201808080060000800000000000000208106000000000000002081069900000000000000000000Consumidor Final              000000000078000000000000078000000000000000000000000000000000000000000000000000000000000000000000000000000000000000000000PES00010000001N00000000000000020180818
201808080060000800000000000000208107000000000000002081079900000000000000000000Consumidor Final              000000000042000000000000042000000000000000000000000000000000000000000000000000000000000000000000000000000000000000000000PES00010000001N00000000000000020180818
201808080060000600000000000000831828000000000000008318289900000000000000000000Consumidor Final              000000000089500000000000089500000000000000000000000000000000000000000000000000000000000000000000000000000000000000000000PES00010000001N00000000000000020180818
201808080060000600000000000000831830000000000000008318309900000000000000000000Consumidor Final              000000000089500000000000089500000000000000000000000000000000000000000000000000000000000000000000000000000000000000000000PES00010000001N00000000000000020180818
201808080060000600000000000000831831000000000000008318319000000000099999999999Consumidor Final              000000000172500000000000172500000000000000000000000000000000000000000000000000000000000000000000000000000000000000000000PES00010000001N00000000000000020180818
201808080060000700000000000000612558000000000000006125589900000000000000000000Consumidor Final              000000000089500000000000089500000000000000000000000000000000000000000000000000000000000000000000000000000000000000000000PES00010000001N00000000000000020180818
201808080060000700000000000000612560000000000000006125609000000000099999999999Consumidor Final              000000000104500000000000104500000000000000000000000000000000000000000000000000000000000000000000000000000000000000000000PES00010000001N00000000000000020180818
201808080060000600000000000000831837000000000000008318379900000000000000000000Consumidor Final              000000000046200000000000046200000000000000000000000000000000000000000000000000000000000000000000000000000000000000000000PES00010000001N00000000000000020180818
201808080060000600000000000000831838000000000000008318389900000000000000000000Consumidor Final              000000000046200000000000046200000000000000000000000000000000000000000000000000000000000000000000000000000000000000000000PES00010000001N00000000000000020180818
201808080060000600000000000000831839000000000000008318399900000000000000000000Consumidor Final              000000000085000000000000085000000000000000000000000000000000000000000000000000000000000000000000000000000000000000000000PES00010000001N00000000000000020180818
201808080060000700000000000000612562000000000000006125629900000000000000000000Consumidor Final              000000000085000000000000085000000000000000000000000000000000000000000000000000000000000000000000000000000000000000000000PES00010000001N00000000000000020180818
201808080060000700000000000000612563000000000000006125639900000000000000000000Consumidor Final              000000000089500000000000089500000000000000000000000000000000000000000000000000000000000000000000000000000000000000000000PES00010000001N00000000000000020180818
201808080060000600000000000000831846000000000000008318469900000000000000000000Consumidor Final              000000000089500000000000089500000000000000000000000000000000000000000000000000000000000000000000000000000000000000000000PES00010000001N00000000000000020180818
201808080060000700000000000000612600000000000000006126009900000000000000000000Consumidor Final              000000000089500000000000089500000000000000000000000000000000000000000000000000000000000000000000000000000000000000000000PES00010000001N00000000000000020180818
201808080060000800000000000000208109000000000000002081099900000000000000000000Consumidor Final              000000000078000000000000078000000000000000000000000000000000000000000000000000000000000000000000000000000000000000000000PES00010000001N00000000000000020180818
201808080060000600000000000000831879000000000000008318799900000000000000000000Consumidor Final              000000000089500000000000089500000000000000000000000000000000000000000000000000000000000000000000000000000000000000000000PES00010000001N00000000000000020180818
201808080060000800000000000000208110000000000000002081109900000000000000000000Consumidor Final              000000000089500000000000089500000000000000000000000000000000000000000000000000000000000000000000000000000000000000000000PES00010000001N00000000000000020180818
201808080060000700000000000000612603000000000000006126039000000000099999999999Consumidor Final              000000000118800000000000118800000000000000000000000000000000000000000000000000000000000000000000000000000000000000000000PES00010000001N00000000000000020180818
201808080060000800000000000000208111000000000000002081119900000000000000000000Consumidor Final              000000000078000000000000078000000000000000000000000000000000000000000000000000000000000000000000000000000000000000000000PES00010000001N00000000000000020180818
201808080060000800000000000000208112000000000000002081129900000000000000000000Consumidor Final              000000000078000000000000078000000000000000000000000000000000000000000000000000000000000000000000000000000000000000000000PES00010000001N00000000000000020180818
201808080060000700000000000000612604000000000000006126049900000000000000000000Consumidor Final              000000000089500000000000089500000000000000000000000000000000000000000000000000000000000000000000000000000000000000000000PES00010000001N00000000000000020180818
201808080060000700000000000000612605000000000000006126059900000000000000000000Consumidor Final              000000000089500000000000089500000000000000000000000000000000000000000000000000000000000000000000000000000000000000000000PES00010000001N00000000000000020180818
201808080060000600000000000000831880000000000000008318809000000000099999999999Consumidor Final              000000000104500000000000104500000000000000000000000000000000000000000000000000000000000000000000000000000000000000000000PES00010000001N00000000000000020180818
201808080060000600000000000000831881000000000000008318819000000000099999999999Consumidor Final              000000000104500000000000104500000000000000000000000000000000000000000000000000000000000000000000000000000000000000000000PES00010000001N00000000000000020180818
201808080060000700000000000000612622000000000000006126229900000000000000000000Consumidor Final              000000000098400000000000098400000000000000000000000000000000000000000000000000000000000000000000000000000000000000000000PES00010000001N00000000000000020180818
201808080060000700000000000000612623000000000000006126239900000000000000000000Consumidor Final              000000000089500000000000089500000000000000000000000000000000000000000000000000000000000000000000000000000000000000000000PES00010000001N00000000000000020180818
201808080060000700000000000000612624000000000000006126249900000000000000000000Consumidor Final              000000000089500000000000089500000000000000000000000000000000000000000000000000000000000000000000000000000000000000000000PES00010000001N00000000000000020180818
201808080060000800000000000000208118000000000000002081189900000000000000000000Consumidor Final              000000000078000000000000078000000000000000000000000000000000000000000000000000000000000000000000000000000000000000000000PES00010000001N00000000000000020180818
201808080060000800000000000000208119000000000000002081199900000000000000000000Consumidor Final              000000000078000000000000078000000000000000000000000000000000000000000000000000000000000000000000000000000000000000000000PES00010000001N00000000000000020180818
201808080060000700000000000000612625000000000000006126259900000000000000000000Consumidor Final              000000000089500000000000089500000000000000000000000000000000000000000000000000000000000000000000000000000000000000000000PES00010000001N00000000000000020180818
201808080060000700000000000000612626000000000000006126269900000000000000000000Consumidor Final              000000000089500000000000089500000000000000000000000000000000000000000000000000000000000000000000000000000000000000000000PES00010000001N00000000000000020180818
201808080060000600000000000000831916000000000000008319169000000000099999999999Consumidor Final              000000000114900000000000114900000000000000000000000000000000000000000000000000000000000000000000000000000000000000000000PES00010000001N00000000000000020180818
201808080060000600000000000000831917000000000000008319179900000000000000000000Consumidor Final              000000000089500000000000089500000000000000000000000000000000000000000000000000000000000000000000000000000000000000000000PES00010000001N00000000000000020180818
201808080060000600000000000000831918000000000000008319189900000000000000000000Consumidor Final              000000000098400000000000098400000000000000000000000000000000000000000000000000000000000000000000000000000000000000000000PES00010000001N00000000000000020180818
201808080060000600000000000000831923000000000000008319239900000000000000000000Consumidor Final              000000000089500000000000089500000000000000000000000000000000000000000000000000000000000000000000000000000000000000000000PES00010000001N00000000000000020180818
201808080060000600000000000000831834000000000000008318349900000000000000000000Consumidor Final              000000000093500000000000093500000000000000000000000000000000000000000000000000000000000000000000000000000000000000000000PES00010000001N00000000000000020180818
201808080060000600000000000000831835000000000000008318359900000000000000000000Consumidor Final              000000000089500000000000089500000000000000000000000000000000000000000000000000000000000000000000000000000000000000000000PES00010000001N00000000000000020180818
201808080060000600000000000000831836000000000000008318369900000000000000000000Consumidor Final              000000000092000000000000092000000000000000000000000000000000000000000000000000000000000000000000000000000000000000000000PES00010000001N00000000000000020180818
201808080060000600000000000000831840000000000000008318409900000000000000000000Consumidor Final              000000000085000000000000085000000000000000000000000000000000000000000000000000000000000000000000000000000000000000000000PES00010000001N00000000000000020180818
201808080060000600000000000000831841000000000000008318419000000000099999999999Consumidor Final              000000000107500000000000107500000000000000000000000000000000000000000000000000000000000000000000000000000000000000000000PES00010000001N00000000000000020180818
201808080060000600000000000000831842000000000000008318429900000000000000000000Consumidor Final              000000000089500000000000089500000000000000000000000000000000000000000000000000000000000000000000000000000000000000000000PES00010000001N00000000000000020180818
201808080060000600000000000000831843000000000000008318439900000000000000000000Consumidor Final              000000000092000000000000092000000000000000000000000000000000000000000000000000000000000000000000000000000000000000000000PES00010000001N00000000000000020180818
201808080060000600000000000000831844000000000000008318449000000000099999999999Consumidor Final              000000000100000000000000100000000000000000000000000000000000000000000000000000000000000000000000000000000000000000000000PES00010000001N00000000000000020180818
201808080060000600000000000000831845000000000000008318459900000000000000000000Consumidor Final              000000000090000000000000090000000000000000000000000000000000000000000000000000000000000000000000000000000000000000000000PES00010000001N00000000000000020180818
201808080060000700000000000000612564000000000000006125649900000000000000000000Consumidor Final              000000000085000000000000085000000000000000000000000000000000000000000000000000000000000000000000000000000000000000000000PES00010000001N00000000000000020180818
201808080060000600000000000000831847000000000000008318479900000000000000000000Consumidor Final              000000000098400000000000098400000000000000000000000000000000000000000000000000000000000000000000000000000000000000000000PES00010000001N00000000000000020180818
201808080060000700000000000000612565000000000000006125659900000000000000000000Consumidor Final              000000000085800000000000085800000000000000000000000000000000000000000000000000000000000000000000000000000000000000000000PES00010000001N00000000000000020180818
201808080060000700000000000000612566000000000000006125669900000000000000000000Consumidor Final              000000000085000000000000085000000000000000000000000000000000000000000000000000000000000000000000000000000000000000000000PES00010000001N00000000000000020180818
201808080060000600000000000000831854000000000000008318549900000000000000000000Consumidor Final              000000000089500000000000089500000000000000000000000000000000000000000000000000000000000000000000000000000000000000000000PES00010000001N00000000000000020180818
201808080060000600000000000000831855000000000000008318559000000000099999999999Consumidor Final              000000000104500000000000104500000000000000000000000000000000000000000000000000000000000000000000000000000000000000000000PES00010000001N00000000000000020180818
201808080060000700000000000000612578000000000000006125789900000000000000000000Consumidor Final              000000000085800000000000085800000000000000000000000000000000000000000000000000000000000000000000000000000000000000000000PES00010000001N00000000000000020180818
201808080060000700000000000000612579000000000000006125799000000000099999999999Consumidor Final              000000000101200000000000101200000000000000000000000000000000000000000000000000000000000000000000000000000000000000000000PES00010000001N00000000000000020180818
201808080060000700000000000000612580000000000000006125809000000000099999999999Consumidor Final              000000000101200000000000101200000000000000000000000000000000000000000000000000000000000000000000000000000000000000000000PES00010000001N00000000000000020180818
201808080060000700000000000000612581000000000000006125819000000000099999999999Consumidor Final              000000000101200000000000101200000000000000000000000000000000000000000000000000000000000000000000000000000000000000000000PES00010000001N00000000000000020180818
201808080060000700000000000000612582000000000000006125829000000000099999999999Consumidor Final              000000000114900000000000114900000000000000000000000000000000000000000000000000000000000000000000000000000000000000000000PES00010000001N00000000000000020180818
201808080060000700000000000000612567000000000000006125679900000000000000000000Consumidor Final              000000000085000000000000085000000000000000000000000000000000000000000000000000000000000000000000000000000000000000000000PES00010000001N00000000000000020180818
201808080060000700000000000000612568000000000000006125689900000000000000000000Consumidor Final              000000000085000000000000085000000000000000000000000000000000000000000000000000000000000000000000000000000000000000000000PES00010000001N00000000000000020180818
201808080060000600000000000000831852000000000000008318529900000000000000000000Consumidor Final              000000000078000000000000078000000000000000000000000000000000000000000000000000000000000000000000000000000000000000000000PES00010000001N00000000000000020180818
201808080060000700000000000000612569000000000000006125699000000000099999999999Consumidor Final              000000000104500000000000104500000000000000000000000000000000000000000000000000000000000000000000000000000000000000000000PES00010000001N00000000000000020180818
201808080060000700000000000000612570000000000000006125709900000000000000000000Consumidor Final              000000000089500000000000089500000000000000000000000000000000000000000000000000000000000000000000000000000000000000000000PES00010000001N00000000000000020180818
201808080060000700000000000000612571000000000000006125719900000000000000000000Consumidor Final              000000000089500000000000089500000000000000000000000000000000000000000000000000000000000000000000000000000000000000000000PES00010000001N00000000000000020180818
201808080060000700000000000000612572000000000000006125729900000000000000000000Consumidor Final              000000000098400000000000098400000000000000000000000000000000000000000000000000000000000000000000000000000000000000000000PES00010000001N00000000000000020180818
201808080060000700000000000000612574000000000000006125749900000000000000000000Consumidor Final              000000000089500000000000089500000000000000000000000000000000000000000000000000000000000000000000000000000000000000000000PES00010000001N00000000000000020180818
201808080060000700000000000000612575000000000000006125759900000000000000000000Consumidor Final              000000000089500000000000089500000000000000000000000000000000000000000000000000000000000000000000000000000000000000000000PES00010000001N00000000000000020180818
201808080060000700000000000000612576000000000000006125769900000000000000000000Consumidor Final              000000000089500000000000089500000000000000000000000000000000000000000000000000000000000000000000000000000000000000000000PES00010000001N00000000000000020180818
201808080060000700000000000000612577000000000000006125779900000000000000000000Consumidor Final              000000000089500000000000089500000000000000000000000000000000000000000000000000000000000000000000000000000000000000000000PES00010000001N00000000000000020180818
201808080060000600000000000000831853000000000000008318539900000000000000000000Consumidor Final              000000000092000000000000092000000000000000000000000000000000000000000000000000000000000000000000000000000000000000000000PES00010000001N00000000000000020180818
201808080060000600000000000000831856000000000000008318569900000000000000000000Consumidor Final              000000000089500000000000089500000000000000000000000000000000000000000000000000000000000000000000000000000000000000000000PES00010000001N00000000000000020180818
201808080060000600000000000000831857000000000000008318579900000000000000000000Consumidor Final              000000000098400000000000098400000000000000000000000000000000000000000000000000000000000000000000000000000000000000000000PES00010000001N00000000000000020180818
201808080060000600000000000000831858000000000000008318589900000000000000000000Consumidor Final              000000000089500000000000089500000000000000000000000000000000000000000000000000000000000000000000000000000000000000000000PES00010000001N00000000000000020180818
201808080060000700000000000000612583000000000000006125839900000000000000000000Consumidor Final              000000000089500000000000089500000000000000000000000000000000000000000000000000000000000000000000000000000000000000000000PES00010000001N00000000000000020180818
201808080060000600000000000000831859000000000000008318599900000000000000000000Consumidor Final              000000000085000000000000085000000000000000000000000000000000000000000000000000000000000000000000000000000000000000000000PES00010000001N00000000000000020180818
201808080060000700000000000000612584000000000000006125849900000000000000000000Consumidor Final              000000000089500000000000089500000000000000000000000000000000000000000000000000000000000000000000000000000000000000000000PES00010000001N00000000000000020180818
201808080060000700000000000000612585000000000000006125859900000000000000000000Consumidor Final              000000000089500000000000089500000000000000000000000000000000000000000000000000000000000000000000000000000000000000000000PES00010000001N00000000000000020180818
201808080060000700000000000000612586000000000000006125869900000000000000000000Consumidor Final              000000000089500000000000089500000000000000000000000000000000000000000000000000000000000000000000000000000000000000000000PES00010000001N00000000000000020180818
201808080060000600000000000000831860000000000000008318609000000000099999999999Consumidor Final              000000000101000000000000101000000000000000000000000000000000000000000000000000000000000000000000000000000000000000000000PES00010000001N00000000000000020180818
201808080060000600000000000000831861000000000000008318619900000000000000000000Consumidor Final              000000000089500000000000089500000000000000000000000000000000000000000000000000000000000000000000000000000000000000000000PES00010000001N00000000000000020180818
201808080060000700000000000000612596000000000000006125969000000000099999999999Consumidor Final              000000000145000000000000145000000000000000000000000000000000000000000000000000000000000000000000000000000000000000000000PES00010000001N00000000000000020180818
201808080060000600000000000000831873000000000000008318739900000000000000000000Consumidor Final              000000000098400000000000098400000000000000000000000000000000000000000000000000000000000000000000000000000000000000000000PES00010000001N00000000000000020180818
201808080060000700000000000000612597000000000000006125979000000000099999999999Consumidor Final              000000000104500000000000104500000000000000000000000000000000000000000000000000000000000000000000000000000000000000000000PES00010000001N00000000000000020180818
201808080060000700000000000000612598000000000000006125989900000000000000000000Consumidor Final              000000000098400000000000098400000000000000000000000000000000000000000000000000000000000000000000000000000000000000000000PES00010000001N00000000000000020180818
201808080060000600000000000000831874000000000000008318749900000000000000000000Consumidor Final              000000000089500000000000089500000000000000000000000000000000000000000000000000000000000000000000000000000000000000000000PES00010000001N00000000000000020180818
201808080060000600000000000000831875000000000000008318759900000000000000000000Consumidor Final              000000000085000000000000085000000000000000000000000000000000000000000000000000000000000000000000000000000000000000000000PES00010000001N00000000000000020180818
201808080060000600000000000000831876000000000000008318769000000000099999999999Consumidor Final              000000000100000000000000100000000000000000000000000000000000000000000000000000000000000000000000000000000000000000000000PES00010000001N00000000000000020180818
201808080060000600000000000000831877000000000000008318779000000000099999999999Consumidor Final              000000000113500000000000113500000000000000000000000000000000000000000000000000000000000000000000000000000000000000000000PES00010000001N00000000000000020180818
201808080060000600000000000000831878000000000000008318789900000000000000000000Consumidor Final              000000000098400000000000098400000000000000000000000000000000000000000000000000000000000000000000000000000000000000000000PES00010000001N00000000000000020180818
201808080060000700000000000000612587000000000000006125879900000000000000000000Consumidor Final              000000000089500000000000089500000000000000000000000000000000000000000000000000000000000000000000000000000000000000000000PES00010000001N00000000000000020180818
201808080060000600000000000000831862000000000000008318629900000000000000000000Consumidor Final              000000000098400000000000098400000000000000000000000000000000000000000000000000000000000000000000000000000000000000000000PES00010000001N00000000000000020180818
201808080060000600000000000000831864000000000000008318649900000000000000000000Consumidor Final              000000000089500000000000089500000000000000000000000000000000000000000000000000000000000000000000000000000000000000000000PES00010000001N00000000000000020180818
201808080060000600000000000000831865000000000000008318659900000000000000000000Consumidor Final              000000000092000000000000092000000000000000000000000000000000000000000000000000000000000000000000000000000000000000000000PES00010000001N00000000000000020180818
201808080060000600000000000000831866000000000000008318669900000000000000000000Consumidor Final              000000000098400000000000098400000000000000000000000000000000000000000000000000000000000000000000000000000000000000000000PES00010000001N00000000000000020180818
201808080060000700000000000000612591000000000000006125919900000000000000000000Consumidor Final              000000000089500000000000089500000000000000000000000000000000000000000000000000000000000000000000000000000000000000000000PES00010000001N00000000000000020180818
201808080060000700000000000000612592000000000000006125929900000000000000000000Consumidor Final              000000000089500000000000089500000000000000000000000000000000000000000000000000000000000000000000000000000000000000000000PES00010000001N00000000000000020180818
201808080060000600000000000000831868000000000000008318689900000000000000000000Consumidor Final              000000000089500000000000089500000000000000000000000000000000000000000000000000000000000000000000000000000000000000000000PES00010000001N00000000000000020180818
201808080060000700000000000000612593000000000000006125939900000000000000000000Consumidor Final              000000000089500000000000089500000000000000000000000000000000000000000000000000000000000000000000000000000000000000000000PES00010000001N00000000000000020180818
201808080060000700000000000000612594000000000000006125949900000000000000000000Consumidor Final              000000000089500000000000089500000000000000000000000000000000000000000000000000000000000000000000000000000000000000000000PES00010000001N00000000000000020180818
201808080060000700000000000000612595000000000000006125959900000000000000000000Consumidor Final              000000000089500000000000089500000000000000000000000000000000000000000000000000000000000000000000000000000000000000000000PES00010000001N00000000000000020180818
201808080060000600000000000000831863000000000000008318639900000000000000000000Consumidor Final              000000000089500000000000089500000000000000000000000000000000000000000000000000000000000000000000000000000000000000000000PES00010000001N00000000000000020180818
201808080060000700000000000000612588000000000000006125889900000000000000000000Consumidor Final              000000000089500000000000089500000000000000000000000000000000000000000000000000000000000000000000000000000000000000000000PES00010000001N00000000000000020180818
201808080060000700000000000000612589000000000000006125899900000000000000000000Consumidor Final              000000000085000000000000085000000000000000000000000000000000000000000000000000000000000000000000000000000000000000000000PES00010000001N00000000000000020180818
201808080060000700000000000000612590000000000000006125909000000000099999999999Consumidor Final              000000000104500000000000104500000000000000000000000000000000000000000000000000000000000000000000000000000000000000000000PES00010000001N00000000000000020180818
201808080060000600000000000000831867000000000000008318679900000000000000000000Consumidor Final              000000000093000000000000093000000000000000000000000000000000000000000000000000000000000000000000000000000000000000000000PES00010000001N00000000000000020180818
201808080060000800000000000000208108000000000000002081089900000000000000000000Consumidor Final              000000000099000000000000099000000000000000000000000000000000000000000000000000000000000000000000000000000000000000000000PES00010000001N00000000000000020180818
201808080060000600000000000000831869000000000000008318699900000000000000000000Consumidor Final              000000000085800000000000085800000000000000000000000000000000000000000000000000000000000000000000000000000000000000000000PES00010000001N00000000000000020180818
201808080060000600000000000000831870000000000000008318709900000000000000000000Consumidor Final              000000000089500000000000089500000000000000000000000000000000000000000000000000000000000000000000000000000000000000000000PES00010000001N00000000000000020180818
201808080060000600000000000000831871000000000000008318719900000000000000000000Consumidor Final              000000000089500000000000089500000000000000000000000000000000000000000000000000000000000000000000000000000000000000000000PES00010000001N00000000000000020180818
201808080060000600000000000000831872000000000000008318729000000000099999999999Consumidor Final              000000000145200000000000145200000000000000000000000000000000000000000000000000000000000000000000000000000000000000000000PES00010000001N00000000000000020180818
201808080060000700000000000000612599000000000000006125999900000000000000000000Consumidor Final              000000000089500000000000089500000000000000000000000000000000000000000000000000000000000000000000000000000000000000000000PES00010000001N00000000000000020180818
201808080060000700000000000000612601000000000000006126019900000000000000000000Consumidor Final              000000000089500000000000089500000000000000000000000000000000000000000000000000000000000000000000000000000000000000000000PES00010000001N00000000000000020180818
201808080060000700000000000000612602000000000000006126029900000000000000000000Consumidor Final              000000000089500000000000089500000000000000000000000000000000000000000000000000000000000000000000000000000000000000000000PES00010000001N00000000000000020180818
201808080060000600000000000000831885000000000000008318859000000000099999999999Consumidor Final              000000000182500000000000182500000000000000000000000000000000000000000000000000000000000000000000000000000000000000000000PES00010000001N00000000000000020180818
201808080060000600000000000000831886000000000000008318869900000000000000000000Consumidor Final              000000000089500000000000089500000000000000000000000000000000000000000000000000000000000000000000000000000000000000000000PES00010000001N00000000000000020180818
201808080060000800000000000000208115000000000000002081159900000000000000000000Consumidor Final              000000000078000000000000078000000000000000000000000000000000000000000000000000000000000000000000000000000000000000000000PES00010000001N00000000000000020180818
201808080060000600000000000000831890000000000000008318909900000000000000000000Consumidor Final              000000000089500000000000089500000000000000000000000000000000000000000000000000000000000000000000000000000000000000000000PES00010000001N00000000000000020180818
201808080060000600000000000000831900000000000000008319009900000000000000000000Consumidor Final              000000000089500000000000089500000000000000000000000000000000000000000000000000000000000000000000000000000000000000000000PES00010000001N00000000000000020180818
201808080060000600000000000000831901000000000000008319019900000000000000000000Consumidor Final              000000000093000000000000093000000000000000000000000000000000000000000000000000000000000000000000000000000000000000000000PES00010000001N00000000000000020180818
201808080060000600000000000000831902000000000000008319029900000000000000000000Consumidor Final              000000000089500000000000089500000000000000000000000000000000000000000000000000000000000000000000000000000000000000000000PES00010000001N00000000000000020180818
201808080060000700000000000000612616000000000000006126169900000000000000000000Consumidor Final              000000000089500000000000089500000000000000000000000000000000000000000000000000000000000000000000000000000000000000000000PES00010000001N00000000000000020180818
201808080060000600000000000000831904000000000000008319049900000000000000000000Consumidor Final              000000000098500000000000098500000000000000000000000000000000000000000000000000000000000000000000000000000000000000000000PES00010000001N00000000000000020180818
201808080060000600000000000000831882000000000000008318829000000000099999999999Consumidor Final              000000000145000000000000145000000000000000000000000000000000000000000000000000000000000000000000000000000000000000000000PES00010000001N00000000000000020180818
201808080060000600000000000000831883000000000000008318839900000000000000000000Consumidor Final              000000000089500000000000089500000000000000000000000000000000000000000000000000000000000000000000000000000000000000000000PES00010000001N00000000000000020180818
201808080060000600000000000000831884000000000000008318849900000000000000000000Consumidor Final              000000000089500000000000089500000000000000000000000000000000000000000000000000000000000000000000000000000000000000000000PES00010000001N00000000000000020180818
201808080060000700000000000000612606000000000000006126069900000000000000000000Consumidor Final              000000000089500000000000089500000000000000000000000000000000000000000000000000000000000000000000000000000000000000000000PES00010000001N00000000000000020180818
201808080060000700000000000000612607000000000000006126079900000000000000000000Consumidor Final              000000000089500000000000089500000000000000000000000000000000000000000000000000000000000000000000000000000000000000000000PES00010000001N00000000000000020180818
201808080060000700000000000000612608000000000000006126089900000000000000000000Consumidor Final              000000000085000000000000085000000000000000000000000000000000000000000000000000000000000000000000000000000000000000000000PES00010000001N00000000000000020180818
201808080060000600000000000000831887000000000000008318879900000000000000000000Consumidor Final              000000000099000000000000099000000000000000000000000000000000000000000000000000000000000000000000000000000000000000000000PES00010000001N00000000000000020180818
201808080060000700000000000000612609000000000000006126099900000000000000000000Consumidor Final              000000000093500000000000093500000000000000000000000000000000000000000000000000000000000000000000000000000000000000000000PES00010000001N00000000000000020180818
201808080060000800000000000000208113000000000000002081139900000000000000000000Consumidor Final              000000000078000000000000078000000000000000000000000000000000000000000000000000000000000000000000000000000000000000000000PES00010000001N00000000000000020180818
201808080060000600000000000000831888000000000000008318889900000000000000000000Consumidor Final              000000000089500000000000089500000000000000000000000000000000000000000000000000000000000000000000000000000000000000000000PES00010000001N00000000000000020180818
201808080060000800000000000000208114000000000000002081149900000000000000000000Consumidor Final              000000000078000000000000078000000000000000000000000000000000000000000000000000000000000000000000000000000000000000000000PES00010000001N00000000000000020180818
201808080060000600000000000000831889000000000000008318899900000000000000000000Consumidor Final              000000000085000000000000085000000000000000000000000000000000000000000000000000000000000000000000000000000000000000000000PES00010000001N00000000000000020180818
201808080060000700000000000000612610000000000000006126109900000000000000000000Consumidor Final              000000000089500000000000089500000000000000000000000000000000000000000000000000000000000000000000000000000000000000000000PES00010000001N00000000000000020180818
201808080060000600000000000000831891000000000000008318919000000000099999999999Consumidor Final              000000000160000000000000160000000000000000000000000000000000000000000000000000000000000000000000000000000000000000000000PES00010000001N00000000000000020180818
201808080060000600000000000000831892000000000000008318929900000000000000000000Consumidor Final              000000000089500000000000089500000000000000000000000000000000000000000000000000000000000000000000000000000000000000000000PES00010000001N00000000000000020180818
201808080060000600000000000000831893000000000000008318939900000000000000000000Consumidor Final              000000000089500000000000089500000000000000000000000000000000000000000000000000000000000000000000000000000000000000000000PES00010000001N00000000000000020180818
201808080060000600000000000000831894000000000000008318949900000000000000000000Consumidor Final              000000000089500000000000089500000000000000000000000000000000000000000000000000000000000000000000000000000000000000000000PES00010000001N00000000000000020180818
201808080060000600000000000000831895000000000000008318959900000000000000000000Consumidor Final              000000000089500000000000089500000000000000000000000000000000000000000000000000000000000000000000000000000000000000000000PES00010000001N00000000000000020180818
201808080060000600000000000000831896000000000000008318969900000000000000000000Consumidor Final              000000000092000000000000092000000000000000000000000000000000000000000000000000000000000000000000000000000000000000000000PES00010000001N00000000000000020180818
201808080060000600000000000000831897000000000000008318979000000000099999999999Consumidor Final              000000000104500000000000104500000000000000000000000000000000000000000000000000000000000000000000000000000000000000000000PES00010000001N00000000000000020180818
201808080060000600000000000000831898000000000000008318989900000000000000000000Consumidor Final              000000000082000000000000082000000000000000000000000000000000000000000000000000000000000000000000000000000000000000000000PES00010000001N00000000000000020180818
201808080060000600000000000000831899000000000000008318999900000000000000000000Consumidor Final              000000000089500000000000089500000000000000000000000000000000000000000000000000000000000000000000000000000000000000000000PES00010000001N00000000000000020180818
201808080060000700000000000000612611000000000000006126119900000000000000000000Consumidor Final              000000000089500000000000089500000000000000000000000000000000000000000000000000000000000000000000000000000000000000000000PES00010000001N00000000000000020180818
201808080060000800000000000000208116000000000000002081169900000000000000000000Consumidor Final              000000000078000000000000078000000000000000000000000000000000000000000000000000000000000000000000000000000000000000000000PES00010000001N00000000000000020180818
201808080060000700000000000000612612000000000000006126129900000000000000000000Consumidor Final              000000000089500000000000089500000000000000000000000000000000000000000000000000000000000000000000000000000000000000000000PES00010000001N00000000000000020180818
201808080060000700000000000000612613000000000000006126139900000000000000000000Consumidor Final              000000000089500000000000089500000000000000000000000000000000000000000000000000000000000000000000000000000000000000000000PES00010000001N00000000000000020180818
201808080060000700000000000000612614000000000000006126149900000000000000000000Consumidor Final              000000000078000000000000078000000000000000000000000000000000000000000000000000000000000000000000000000000000000000000000PES00010000001N00000000000000020180818
201808080060000600000000000000831903000000000000008319039900000000000000000000Consumidor Final              000000000089500000000000089500000000000000000000000000000000000000000000000000000000000000000000000000000000000000000000PES00010000001N00000000000000020180818
201808080060000700000000000000612615000000000000006126159900000000000000000000Consumidor Final              000000000089500000000000089500000000000000000000000000000000000000000000000000000000000000000000000000000000000000000000PES00010000001N00000000000000020180818
201808080060000600000000000000831908000000000000008319089900000000000000000000Consumidor Final              000000000098400000000000098400000000000000000000000000000000000000000000000000000000000000000000000000000000000000000000PES00010000001N00000000000000020180818
201808080060000600000000000000831909000000000000008319099900000000000000000000Consumidor Final              000000000089500000000000089500000000000000000000000000000000000000000000000000000000000000000000000000000000000000000000PES00010000001N00000000000000020180818
201808080060000800000000000000208117000000000000002081179900000000000000000000Consumidor Final              000000000044000000000000044000000000000000000000000000000000000000000000000000000000000000000000000000000000000000000000PES00010000001N00000000000000020180818
201808080060000600000000000000831910000000000000008319109900000000000000000000Consumidor Final              000000000089500000000000089500000000000000000000000000000000000000000000000000000000000000000000000000000000000000000000PES00010000001N00000000000000020180818
201808080060000600000000000000831905000000000000008319059900000000000000000000Consumidor Final              000000000089500000000000089500000000000000000000000000000000000000000000000000000000000000000000000000000000000000000000PES00010000001N00000000000000020180818
201808080060000600000000000000831906000000000000008319069900000000000000000000Consumidor Final              000000000089500000000000089500000000000000000000000000000000000000000000000000000000000000000000000000000000000000000000PES00010000001N00000000000000020180818
201808080060000600000000000000831907000000000000008319079900000000000000000000Consumidor Final              000000000089500000000000089500000000000000000000000000000000000000000000000000000000000000000000000000000000000000000000PES00010000001N00000000000000020180818
201808080060000700000000000000612619000000000000006126199900000000000000000000Consumidor Final              000000000092000000000000092000000000000000000000000000000000000000000000000000000000000000000000000000000000000000000000PES00010000001N00000000000000020180818
201808080060000700000000000000612620000000000000006126209000000000099999999999Consumidor Final              000000000104500000000000104500000000000000000000000000000000000000000000000000000000000000000000000000000000000000000000PES00010000001N00000000000000020180818
201808080060000800000000000000208121000000000000002081219900000000000000000000Consumidor Final              000000000078000000000000078000000000000000000000000000000000000000000000000000000000000000000000000000000000000000000000PES00010000001N00000000000000020180818
201808080060000600000000000000831924000000000000008319249900000000000000000000Consumidor Final              000000000089500000000000089500000000000000000000000000000000000000000000000000000000000000000000000000000000000000000000PES00010000001N00000000000000020180818
201808080060000800000000000000208122000000000000002081229900000000000000000000Consumidor Final              000000000078000000000000078000000000000000000000000000000000000000000000000000000000000000000000000000000000000000000000PES00010000001N00000000000000020180818
201808080060000800000000000000208123000000000000002081239900000000000000000000Consumidor Final              000000000085000000000000085000000000000000000000000000000000000000000000000000000000000000000000000000000000000000000000PES00010000001N00000000000000020180818
201808080060000800000000000000208124000000000000002081249900000000000000000000Consumidor Final              000000000078000000000000078000000000000000000000000000000000000000000000000000000000000000000000000000000000000000000000PES00010000001N00000000000000020180818
201808080060000800000000000000208125000000000000002081259900000000000000000000Consumidor Final              000000000078000000000000078000000000000000000000000000000000000000000000000000000000000000000000000000000000000000000000PES00010000001N00000000000000020180818
201808080060000700000000000000612617000000000000006126179900000000000000000000Consumidor Final              000000000089500000000000089500000000000000000000000000000000000000000000000000000000000000000000000000000000000000000000PES00010000001N00000000000000020180818
201808080060000700000000000000612618000000000000006126189900000000000000000000Consumidor Final              000000000089500000000000089500000000000000000000000000000000000000000000000000000000000000000000000000000000000000000000PES00010000001N00000000000000020180818
201808080060000600000000000000831940000000000000008319409000000000000463709858DANILO DA COSTA SIQUEIRA      000000000101200000000000101200000000000000000000000000000000000000000000000000000000000000000000000000000000000000000000PES00010000001N00000000000000020180818
201808080060000700000000000000612621000000000000006126219900000000000000000000Consumidor Final              000000000092000000000000092000000000000000000000000000000000000000000000000000000000000000000000000000000000000000000000PES00010000001N00000000000000020180818
201808080060000600000000000000831911000000000000008319119900000000000000000000Consumidor Final              000000000089500000000000089500000000000000000000000000000000000000000000000000000000000000000000000000000000000000000000PES00010000001N00000000000000020180818
201808080060000600000000000000831912000000000000008319129000000000099999999999Consumidor Final              000000000100000000000000100000000000000000000000000000000000000000000000000000000000000000000000000000000000000000000000PES00010000001N00000000000000020180818
201808080060000600000000000000831913000000000000008319139900000000000000000000Consumidor Final              000000000089500000000000089500000000000000000000000000000000000000000000000000000000000000000000000000000000000000000000PES00010000001N00000000000000020180818
201808080060000600000000000000831914000000000000008319149900000000000000000000Consumidor Final              000000000089500000000000089500000000000000000000000000000000000000000000000000000000000000000000000000000000000000000000PES00010000001N00000000000000020180818
201808080060000800000000000000208120000000000000002081209900000000000000000000Consumidor Final              000000000078000000000000078000000000000000000000000000000000000000000000000000000000000000000000000000000000000000000000PES00010000001N00000000000000020180818
201808080060000600000000000000831915000000000000008319159900000000000000000000Consumidor Final              000000000092000000000000092000000000000000000000000000000000000000000000000000000000000000000000000000000000000000000000PES00010000001N00000000000000020180818
201808080060000600000000000000831919000000000000008319199900000000000000000000Consumidor Final              000000000089500000000000089500000000000000000000000000000000000000000000000000000000000000000000000000000000000000000000PES00010000001N00000000000000020180818
201808080060000600000000000000831920000000000000008319209900000000000000000000Consumidor Final              000000000098400000000000098400000000000000000000000000000000000000000000000000000000000000000000000000000000000000000000PES00010000001N00000000000000020180818
201808080060000600000000000000831921000000000000008319219900000000000000000000Consumidor Final              000000000098400000000000098400000000000000000000000000000000000000000000000000000000000000000000000000000000000000000000PES00010000001N00000000000000020180818
201808080060000600000000000000831922000000000000008319229900000000000000000000Consumidor Final              000000000092000000000000092000000000000000000000000000000000000000000000000000000000000000000000000000000000000000000000PES00010000001N00000000000000020180818
201808080060000600000000000000831925000000000000008319259900000000000000000000Consumidor Final              000000000098400000000000098400000000000000000000000000000000000000000000000000000000000000000000000000000000000000000000PES00010000001N00000000000000020180818
201808080060000600000000000000831936000000000000008319369900000000000000000000Consumidor Final              000000000089500000000000089500000000000000000000000000000000000000000000000000000000000000000000000000000000000000000000PES00010000001N00000000000000020180818
201808080060000600000000000000831938000000000000008319389000000000099999999999Consumidor Final              000000000104500000000000104500000000000000000000000000000000000000000000000000000000000000000000000000000000000000000000PES00010000001N00000000000000020180818
201808080060000600000000000000831939000000000000008319399900000000000000000000Consumidor Final              000000000089500000000000089500000000000000000000000000000000000000000000000000000000000000000000000000000000000000000000PES00010000001N00000000000000020180818
201808080060000600000000000000831926000000000000008319269900000000000000000000Consumidor Final              000000000085000000000000085000000000000000000000000000000000000000000000000000000000000000000000000000000000000000000000PES00010000001N00000000000000020180818
201808080060000600000000000000831927000000000000008319279900000000000000000000Consumidor Final              000000000082000000000000082000000000000000000000000000000000000000000000000000000000000000000000000000000000000000000000PES00010000001N00000000000000020180818
201808080060000600000000000000831928000000000000008319289900000000000000000000Consumidor Final              000000000089500000000000089500000000000000000000000000000000000000000000000000000000000000000000000000000000000000000000PES00010000001N00000000000000020180818
201808080060000600000000000000831929000000000000008319299000000000099999999999Consumidor Final              000000000107000000000000107000000000000000000000000000000000000000000000000000000000000000000000000000000000000000000000PES00010000001N00000000000000020180818
201808080060000600000000000000831930000000000000008319309900000000000000000000Consumidor Final              000000000092000000000000092000000000000000000000000000000000000000000000000000000000000000000000000000000000000000000000PES00010000001N00000000000000020180818
201808080060000600000000000000831931000000000000008319319900000000000000000000Consumidor Final              000000000098400000000000098400000000000000000000000000000000000000000000000000000000000000000000000000000000000000000000PES00010000001N00000000000000020180818
201808080060000600000000000000831932000000000000008319329900000000000000000000Consumidor Final              000000000089500000000000089500000000000000000000000000000000000000000000000000000000000000000000000000000000000000000000PES00010000001N00000000000000020180818
201808080060000600000000000000831933000000000000008319339900000000000000000000Consumidor Final              000000000089500000000000089500000000000000000000000000000000000000000000000000000000000000000000000000000000000000000000PES00010000001N00000000000000020180818
201808080060000600000000000000831934000000000000008319349900000000000000000000Consumidor Final              000000000089500000000000089500000000000000000000000000000000000000000000000000000000000000000000000000000000000000000000PES00010000001N00000000000000020180818
201808080060000600000000000000831935000000000000008319359900000000000000000000Consumidor Final              000000000089500000000000089500000000000000000000000000000000000000000000000000000000000000000000000000000000000000000000PES00010000001N00000000000000020180818
201808080060000600000000000000831937000000000000008319379900000000000000000000Consumidor Final              000000000098400000000000098400000000000000000000000000000000000000000000000000000000000000000000000000000000000000000000PES00010000001N00000000000000020180818
201808080060000700000000000000612627000000000000006126279900000000000000000000Consumidor Final              000000000089500000000000089500000000000000000000000000000000000000000000000000000000000000000000000000000000000000000000PES00010000001N00000000000000020180818
201808080060000600000000000000831823000000000000008318239900000000000000000000Consumidor Final              000000000089500000000000089500000000000000000000000000000000000000000000000000000000000000000000000000000000000000000000PES00010000001N00000000000000020180818
201808080060000600000000000000831824000000000000008318249900000000000000000000Consumidor Final              000000000089500000000000089500000000000000000000000000000000000000000000000000000000000000000000000000000000000000000000PES00010000001N00000000000000020180818
201808080060000600000000000000831825000000000000008318259900000000000000000000Consumidor Final              000000000089500000000000089500000000000000000000000000000000000000000000000000000000000000000000000000000000000000000000PES00010000001N00000000000000020180818
201808080060000600000000000000831826000000000000008318269900000000000000000000Consumidor Final              000000000089500000000000089500000000000000000000000000000000000000000000000000000000000000000000000000000000000000000000PES00010000001N00000000000000020180818
201808080060000800000000000000208098000000000000002080989900000000000000000000Consumidor Final              000000000078000000000000078000000000000000000000000000000000000000000000000000000000000000000000000000000000000000000000PES00010000001N00000000000000020180818
201808080060000800000000000000208099000000000000002080999900000000000000000000Consumidor Final              000000000078000000000000078000000000000000000000000000000000000000000000000000000000000000000000000000000000000000000000PES00010000001N00000000000000020180818
201808080060000800000000000000208100000000000000002081009900000000000000000000Consumidor Final              000000000078000000000000078000000000000000000000000000000000000000000000000000000000000000000000000000000000000000000000PES00010000001N00000000000000020180818
201808080060000800000000000000208101000000000000002081019900000000000000000000Consumidor Final              000000000078000000000000078000000000000000000000000000000000000000000000000000000000000000000000000000000000000000000000PES00010000001N00000000000000020180818
201808080060000600000000000000831829000000000000008318299900000000000000000000Consumidor Final              000000000089500000000000089500000000000000000000000000000000000000000000000000000000000000000000000000000000000000000000PES00010000001N00000000000000020180818
201808080060000800000000000000208102000000000000002081029900000000000000000000Consumidor Final              000000000078000000000000078000000000000000000000000000000000000000000000000000000000000000000000000000000000000000000000PES00010000001N00000000000000020180818
201808080060000800000000000000208103000000000000002081039900000000000000000000Consumidor Final              000000000026000000000000026000000000000000000000000000000000000000000000000000000000000000000000000000000000000000000000PES00010000001N00000000000000020180818
201808080060000600000000000000831832000000000000008318329900000000000000000000Consumidor Final              000000000098400000000000098400000000000000000000000000000000000000000000000000000000000000000000000000000000000000000000PES00010000001N00000000000000020180818
201808080060000700000000000000612559000000000000006125599900000000000000000000Consumidor Final              000000000089500000000000089500000000000000000000000000000000000000000000000000000000000000000000000000000000000000000000PES00010000001N00000000000000020180818
201808080060000600000000000000831833000000000000008318339900000000000000000000Consumidor Final              000000000085000000000000085000000000000000000000000000000000000000000000000000000000000000000000000000000000000000000000PES00010000001N00000000000000020180818
201808070060000600000000000000831800000000000000008318009900000000000000000000Consumidor Final              000000000089500000000000089500000000000000000000000000000000000000000000000000000000000000000000000000000000000000000000PES00010000001N00000000000000020180817
201808070060000600000000000000831809000000000000008318099900000000000000000000Consumidor Final              000000000089500000000000089500000000000000000000000000000000000000000000000000000000000000000000000000000000000000000000PES00010000001N00000000000000020180817
201808070060000700000000000000612314000000000000006123149900000000000000000000Consumidor Final              000000000098400000000000098400000000000000000000000000000000000000000000000000000000000000000000000000000000000000000000PES00010000001N00000000000000020180817
201808070060000600000000000000831801000000000000008318019900000000000000000000Consumidor Final              000000000089500000000000089500000000000000000000000000000000000000000000000000000000000000000000000000000000000000000000PES00010000001N00000000000000020180817
201808070060000600000000000000831802000000000000008318029900000000000000000000Consumidor Final              000000000098400000000000098400000000000000000000000000000000000000000000000000000000000000000000000000000000000000000000PES00010000001N00000000000000020180817
201808070060000700000000000000612552000000000000006125529900000000000000000000Consumidor Final              000000000089500000000000089500000000000000000000000000000000000000000000000000000000000000000000000000000000000000000000PES00010000001N00000000000000020180817
201808070060000700000000000000612553000000000000006125539900000000000000000000Consumidor Final              000000000089500000000000089500000000000000000000000000000000000000000000000000000000000000000000000000000000000000000000PES00010000001N00000000000000020180817
201808070060000700000000000000612554000000000000006125549000000000099999999999Consumidor Final              000000000104500000000000104500000000000000000000000000000000000000000000000000000000000000000000000000000000000000000000PES00010000001N00000000000000020180817
201808070060000700000000000000612555000000000000006125559900000000000000000000Consumidor Final              000000000089500000000000089500000000000000000000000000000000000000000000000000000000000000000000000000000000000000000000PES00010000001N00000000000000020180817
201808070060000600000000000000831805000000000000008318059000000000099999999999Consumidor Final              000000000107500000000000107500000000000000000000000000000000000000000000000000000000000000000000000000000000000000000000PES00010000001N00000000000000020180817
201808070060000700000000000000612556000000000000006125569900000000000000000000Consumidor Final              000000000098400000000000098400000000000000000000000000000000000000000000000000000000000000000000000000000000000000000000PES00010000001N00000000000000020180817
201808070060000600000000000000831806000000000000008318069900000000000000000000Consumidor Final              000000000093500000000000093500000000000000000000000000000000000000000000000000000000000000000000000000000000000000000000PES00010000001N00000000000000020180817
201808070060000700000000000000612557000000000000006125579900000000000000000000Consumidor Final              000000000098400000000000098400000000000000000000000000000000000000000000000000000000000000000000000000000000000000000000PES00010000001N00000000000000020180817
201808070060000600000000000000831807000000000000008318079900000000000000000000Consumidor Final              000000000089500000000000089500000000000000000000000000000000000000000000000000000000000000000000000000000000000000000000PES00010000001N00000000000000020180817
201808070060000600000000000000831808000000000000008318089900000000000000000000Consumidor Final              000000000089500000000000089500000000000000000000000000000000000000000000000000000000000000000000000000000000000000000000PES00010000001N00000000000000020180817
201808070060000600000000000000831814000000000000008318149900000000000000000000Consumidor Final              000000000089500000000000089500000000000000000000000000000000000000000000000000000000000000000000000000000000000000000000PES00010000001N00000000000000020180817
201808070060000600000000000000831815000000000000008318159000000000000026626051Consumidor Final              000000000099000000000000099000000000000000000000000000000000000000000000000000000000000000000000000000000000000000000000PES00010000001N00000000000000020180817
201808070060000700000000000000612310000000000000006123109900000000000000000000Consumidor Final              000000000090000000000000090000000000000000000000000000000000000000000000000000000000000000000000000000000000000000000000PES00010000001N00000000000000020180817
201808070060000700000000000000612311000000000000006123119900000000000000000000Consumidor Final              000000000050000000000000050000000000000000000000000000000000000000000000000000000000000000000000000000000000000000000000PES00010000001N00000000000000020180817
201808070060000700000000000000612308000000000000006123089000000000099999999999Consumidor Final              000000000104500000000000104500000000000000000000000000000000000000000000000000000000000000000000000000000000000000000000PES00010000001N00000000000000020180817
201808070060000700000000000000612309000000000000006123099900000000000000000000Consumidor Final              000000000089500000000000089500000000000000000000000000000000000000000000000000000000000000000000000000000000000000000000PES00010000001N00000000000000020180817
201808070060000900000000000000051928000000000000000519289000000000099999999999Consumidor Final              000000000164000000000000164000000000000000000000000000000000000000000000000000000000000000000000000000000000000000000000PES00010000001N00000000000000020180817
201808070060000700000000000000612323000000000000006123239000000000099999999999Consumidor Final              000000000104500000000000104500000000000000000000000000000000000000000000000000000000000000000000000000000000000000000000PES00010000001N00000000000000020180817
201808070060000800000000000000208053000000000000002080539900000000000000000000Consumidor Final              000000000042000000000000042000000000000000000000000000000000000000000000000000000000000000000000000000000000000000000000PES00010000001N00000000000000020180817
201808070060000800000000000000208054000000000000002080549900000000000000000000Consumidor Final              000000000078000000000000078000000000000000000000000000000000000000000000000000000000000000000000000000000000000000000000PES00010000001N00000000000000020180817
201808070060000800000000000000208055000000000000002080559900000000000000000000Consumidor Final              000000000078000000000000078000000000000000000000000000000000000000000000000000000000000000000000000000000000000000000000PES00010000001N00000000000000020180817
201808070060000800000000000000208056000000000000002080569900000000000000000000Consumidor Final              000000000078000000000000078000000000000000000000000000000000000000000000000000000000000000000000000000000000000000000000PES00010000001N00000000000000020180817
201808070060000800000000000000208057000000000000002080579900000000000000000000Consumidor Final              000000000078000000000000078000000000000000000000000000000000000000000000000000000000000000000000000000000000000000000000PES00010000001N00000000000000020180817
201808070060000700000000000000612342000000000000006123429900000000000000000000Consumidor Final              000000000085000000000000085000000000000000000000000000000000000000000000000000000000000000000000000000000000000000000000PES00010000001N00000000000000020180817
201808070060000700000000000000612343000000000000006123439000000000099999999999Consumidor Final              000000000130000000000000130000000000000000000000000000000000000000000000000000000000000000000000000000000000000000000000PES00010000001N00000000000000020180817
201808070060000800000000000000208052000000000000002080529900000000000000000000Consumidor Final              000000000078000000000000078000000000000000000000000000000000000000000000000000000000000000000000000000000000000000000000PES00010000001N00000000000000020180817
201808070060000700000000000000612312000000000000006123129900000000000000000000Consumidor Final              000000000089500000000000089500000000000000000000000000000000000000000000000000000000000000000000000000000000000000000000PES00010000001N00000000000000020180817
201808070060000700000000000000612313000000000000006123139900000000000000000000Consumidor Final              000000000089500000000000089500000000000000000000000000000000000000000000000000000000000000000000000000000000000000000000PES00010000001N00000000000000020180817
201808070060000700000000000000612315000000000000006123159900000000000000000000Consumidor Final              000000000089500000000000089500000000000000000000000000000000000000000000000000000000000000000000000000000000000000000000PES00010000001N00000000000000020180817
201808070060000700000000000000612318000000000000006123189900000000000000000000Consumidor Final              000000000089500000000000089500000000000000000000000000000000000000000000000000000000000000000000000000000000000000000000PES00010000001N00000000000000020180817
201808070060000700000000000000612319000000000000006123199900000000000000000000Consumidor Final              000000000089500000000000089500000000000000000000000000000000000000000000000000000000000000000000000000000000000000000000PES00010000001N00000000000000020180817
201808070060000700000000000000612320000000000000006123209900000000000000000000Consumidor Final              000000000085000000000000085000000000000000000000000000000000000000000000000000000000000000000000000000000000000000000000PES00010000001N00000000000000020180817
201808070060000700000000000000612321000000000000006123219900000000000000000000Consumidor Final              000000000089500000000000089500000000000000000000000000000000000000000000000000000000000000000000000000000000000000000000PES00010000001N00000000000000020180817
201808070060000700000000000000612324000000000000006123249900000000000000000000Consumidor Final              000000000089500000000000089500000000000000000000000000000000000000000000000000000000000000000000000000000000000000000000PES00010000001N00000000000000020180817
201808070060000600000000000000831713000000000000008317139900000000000000000000Consumidor Final              000000000089500000000000089500000000000000000000000000000000000000000000000000000000000000000000000000000000000000000000PES00010000001N00000000000000020180817
201808070060000600000000000000831714000000000000008317149900000000000000000000Consumidor Final              000000000078000000000000078000000000000000000000000000000000000000000000000000000000000000000000000000000000000000000000PES00010000001N00000000000000020180817
201808070060000700000000000000612325000000000000006123259900000000000000000000Consumidor Final              000000000089500000000000089500000000000000000000000000000000000000000000000000000000000000000000000000000000000000000000PES00010000001N00000000000000020180817
201808070060000700000000000000612329000000000000006123299900000000000000000000Consumidor Final              000000000089500000000000089500000000000000000000000000000000000000000000000000000000000000000000000000000000000000000000PES00010000001N00000000000000020180817
201808070060000700000000000000612339000000000000006123399000000000099999999999Consumidor Final              000000000104500000000000104500000000000000000000000000000000000000000000000000000000000000000000000000000000000000000000PES00010000001N00000000000000020180817
201808070060000700000000000000612340000000000000006123409900000000000000000000Consumidor Final              000000000092000000000000092000000000000000000000000000000000000000000000000000000000000000000000000000000000000000000000PES00010000001N00000000000000020180817
201808070060000700000000000000612341000000000000006123419900000000000000000000Consumidor Final              000000000089500000000000089500000000000000000000000000000000000000000000000000000000000000000000000000000000000000000000PES00010000001N00000000000000020180817
201808070060000700000000000000612344000000000000006123449000000000099999999999Consumidor Final              000000000100000000000000100000000000000000000000000000000000000000000000000000000000000000000000000000000000000000000000PES00010000001N00000000000000020180817
201808070060000700000000000000612345000000000000006123459000000000099999999999Consumidor Final              000000000104500000000000104500000000000000000000000000000000000000000000000000000000000000000000000000000000000000000000PES00010000001N00000000000000020180817
201808070060000700000000000000612348000000000000006123489900000000000000000000Consumidor Final              000000000089500000000000089500000000000000000000000000000000000000000000000000000000000000000000000000000000000000000000PES00010000001N00000000000000020180817
201808070060000700000000000000612349000000000000006123499900000000000000000000Consumidor Final              000000000093500000000000093500000000000000000000000000000000000000000000000000000000000000000000000000000000000000000000PES00010000001N00000000000000020180817
201808070060000700000000000000612350000000000000006123509900000000000000000000Consumidor Final              000000000089500000000000089500000000000000000000000000000000000000000000000000000000000000000000000000000000000000000000PES00010000001N00000000000000020180817
201808070060000700000000000000612326000000000000006123269900000000000000000000Consumidor Final              000000000089500000000000089500000000000000000000000000000000000000000000000000000000000000000000000000000000000000000000PES00010000001N00000000000000020180817
201808070060000700000000000000612327000000000000006123279900000000000000000000Consumidor Final              000000000089500000000000089500000000000000000000000000000000000000000000000000000000000000000000000000000000000000000000PES00010000001N00000000000000020180817
201808070060000700000000000000612328000000000000006123289900000000000000000000Consumidor Final              000000000092000000000000092000000000000000000000000000000000000000000000000000000000000000000000000000000000000000000000PES00010000001N00000000000000020180817
201808070060000700000000000000612330000000000000006123309900000000000000000000Consumidor Final              000000000042000000000000042000000000000000000000000000000000000000000000000000000000000000000000000000000000000000000000PES00010000001N00000000000000020180817
201808070060000700000000000000612331000000000000006123319900000000000000000000Consumidor Final              000000000089500000000000089500000000000000000000000000000000000000000000000000000000000000000000000000000000000000000000PES00010000001N00000000000000020180817
201808070060000700000000000000612332000000000000006123329000000000099999999999Consumidor Final              000000000108900000000000108900000000000000000000000000000000000000000000000000000000000000000000000000000000000000000000PES00010000001N00000000000000020180817
201808070060000700000000000000612333000000000000006123339000000000099999999999Consumidor Final              000000000170000000000000170000000000000000000000000000000000000000000000000000000000000000000000000000000000000000000000PES00010000001N00000000000000020180817
201808070060000800000000000000208058000000000000002080589900000000000000000000Consumidor Final              000000000078000000000000078000000000000000000000000000000000000000000000000000000000000000000000000000000000000000000000PES00010000001N00000000000000020180817
201808070060000800000000000000208059000000000000002080599900000000000000000000Consumidor Final              000000000078000000000000078000000000000000000000000000000000000000000000000000000000000000000000000000000000000000000000PES00010000001N00000000000000020180817
201808070060000800000000000000208060000000000000002080609900000000000000000000Consumidor Final              000000000078000000000000078000000000000000000000000000000000000000000000000000000000000000000000000000000000000000000000PES00010000001N00000000000000020180817
201808070060000700000000000000612346000000000000006123469900000000000000000000Consumidor Final              000000000082000000000000082000000000000000000000000000000000000000000000000000000000000000000000000000000000000000000000PES00010000001N00000000000000020180817
201808070060000700000000000000612347000000000000006123479900000000000000000000Consumidor Final              000000000092000000000000092000000000000000000000000000000000000000000000000000000000000000000000000000000000000000000000PES00010000001N00000000000000020180817
201808070060000600000000000000831718000000000000008317189000000000099999999999Consumidor Final              000000000165000000000000165000000000000000000000000000000000000000000000000000000000000000000000000000000000000000000000PES00010000001N00000000000000020180817
201808070060000600000000000000831719000000000000008317199900000000000000000000Consumidor Final              000000000089500000000000089500000000000000000000000000000000000000000000000000000000000000000000000000000000000000000000PES00010000001N00000000000000020180817
201808070060000700000000000000612354000000000000006123549900000000000000000000Consumidor Final              000000000089500000000000089500000000000000000000000000000000000000000000000000000000000000000000000000000000000000000000PES00010000001N00000000000000020180817
201808070060000800000000000000208063000000000000002080639900000000000000000000Consumidor Final              000000000078000000000000078000000000000000000000000000000000000000000000000000000000000000000000000000000000000000000000PES00010000001N00000000000000020180817
201808070060000800000000000000208064000000000000002080649900000000000000000000Consumidor Final              000000000078000000000000078000000000000000000000000000000000000000000000000000000000000000000000000000000000000000000000PES00010000001N00000000000000020180817
201808070060000800000000000000208065000000000000002080659900000000000000000000Consumidor Final              000000000078000000000000078000000000000000000000000000000000000000000000000000000000000000000000000000000000000000000000PES00010000001N00000000000000020180817
201808070060000600000000000000831729000000000000008317299900000000000000000000Consumidor Final              000000000089500000000000089500000000000000000000000000000000000000000000000000000000000000000000000000000000000000000000PES00010000001N00000000000000020180817
201808070060000600000000000000831730000000000000008317309900000000000000000000Consumidor Final              000000000089500000000000089500000000000000000000000000000000000000000000000000000000000000000000000000000000000000000000PES00010000001N00000000000000020180817
201808070060000600000000000000831731000000000000008317319900000000000000000000Consumidor Final              000000000089500000000000089500000000000000000000000000000000000000000000000000000000000000000000000000000000000000000000PES00010000001N00000000000000020180817
201808070060000600000000000000831732000000000000008317329900000000000000000000Consumidor Final              000000000092000000000000092000000000000000000000000000000000000000000000000000000000000000000000000000000000000000000000PES00010000001N00000000000000020180817
201808070060000700000000000000612351000000000000006123519900000000000000000000Consumidor Final              000000000089500000000000089500000000000000000000000000000000000000000000000000000000000000000000000000000000000000000000PES00010000001N00000000000000020180817
201808070060000700000000000000612352000000000000006123529000000000099999999999Consumidor Final              000000000165000000000000165000000000000000000000000000000000000000000000000000000000000000000000000000000000000000000000PES00010000001N00000000000000020180817
201808070060000700000000000000612353000000000000006123539900000000000000000000Consumidor Final              000000000089500000000000089500000000000000000000000000000000000000000000000000000000000000000000000000000000000000000000PES00010000001N00000000000000020180817
201808070060000800000000000000208061000000000000002080619900000000000000000000Consumidor Final              000000000078000000000000078000000000000000000000000000000000000000000000000000000000000000000000000000000000000000000000PES00010000001N00000000000000020180817
201808070060000800000000000000208062000000000000002080629900000000000000000000Consumidor Final              000000000078000000000000078000000000000000000000000000000000000000000000000000000000000000000000000000000000000000000000PES00010000001N00000000000000020180817
201808070060000600000000000000831721000000000000008317219900000000000000000000Consumidor Final              000000000089500000000000089500000000000000000000000000000000000000000000000000000000000000000000000000000000000000000000PES00010000001N00000000000000020180817
201808070060000600000000000000831722000000000000008317229900000000000000000000Consumidor Final              000000000098400000000000098400000000000000000000000000000000000000000000000000000000000000000000000000000000000000000000PES00010000001N00000000000000020180817
201808070060000600000000000000831723000000000000008317239900000000000000000000Consumidor Final              000000000085000000000000085000000000000000000000000000000000000000000000000000000000000000000000000000000000000000000000PES00010000001N00000000000000020180817
201808070060000600000000000000831724000000000000008317249900000000000000000000Consumidor Final              000000000089500000000000089500000000000000000000000000000000000000000000000000000000000000000000000000000000000000000000PES00010000001N00000000000000020180817
201808070060000600000000000000831725000000000000008317259900000000000000000000Consumidor Final              000000000085000000000000085000000000000000000000000000000000000000000000000000000000000000000000000000000000000000000000PES00010000001N00000000000000020180817
201808070060000600000000000000831726000000000000008317269900000000000000000000Consumidor Final              000000000098400000000000098400000000000000000000000000000000000000000000000000000000000000000000000000000000000000000000PES00010000001N00000000000000020180817
201808070060000600000000000000831720000000000000008317209000000000099999999999Consumidor Final              000000000260500000000000260500000000000000000000000000000000000000000000000000000000000000000000000000000000000000000000PES00010000001N00000000000000020180817
201808070060000700000000000000612355000000000000006123559900000000000000000000Consumidor Final              000000000098400000000000098400000000000000000000000000000000000000000000000000000000000000000000000000000000000000000000PES00010000001N00000000000000020180817
201808070060000700000000000000612356000000000000006123569900000000000000000000Consumidor Final              000000000085000000000000085000000000000000000000000000000000000000000000000000000000000000000000000000000000000000000000PES00010000001N00000000000000020180817
201808070060000700000000000000612357000000000000006123579900000000000000000000Consumidor Final              000000000089500000000000089500000000000000000000000000000000000000000000000000000000000000000000000000000000000000000000PES00010000001N00000000000000020180817
201808070060000700000000000000612358000000000000006123589900000000000000000000Consumidor Final              000000000098400000000000098400000000000000000000000000000000000000000000000000000000000000000000000000000000000000000000PES00010000001N00000000000000020180817
201808070060000700000000000000612361000000000000006123619000000000099999999999Consumidor Final              000000000107000000000000107000000000000000000000000000000000000000000000000000000000000000000000000000000000000000000000PES00010000001N00000000000000020180817
201808070060000700000000000000612362000000000000006123629900000000000000000000Consumidor Final              000000000089500000000000089500000000000000000000000000000000000000000000000000000000000000000000000000000000000000000000PES00010000001N00000000000000020180817
201808070060000700000000000000612363000000000000006123639000000000099999999999Consumidor Final              000000000119000000000000119000000000000000000000000000000000000000000000000000000000000000000000000000000000000000000000PES00010000001N00000000000000020180817
201808070060000700000000000000612364000000000000006123649900000000000000000000Consumidor Final              000000000098400000000000098400000000000000000000000000000000000000000000000000000000000000000000000000000000000000000000PES00010000001N00000000000000020180817
201808070060000700000000000000612365000000000000006123659000000000099999999999Consumidor Final              000000000107500000000000107500000000000000000000000000000000000000000000000000000000000000000000000000000000000000000000PES00010000001N00000000000000020180817
201808070060000700000000000000612359000000000000006123599900000000000000000000Consumidor Final              000000000098400000000000098400000000000000000000000000000000000000000000000000000000000000000000000000000000000000000000PES00010000001N00000000000000020180817
201808070060000600000000000000831727000000000000008317279000000000099999999999Consumidor Final              000000000145000000000000145000000000000000000000000000000000000000000000000000000000000000000000000000000000000000000000PES00010000001N00000000000000020180817
201808070060000600000000000000831728000000000000008317289000000000099999999999Consumidor Final              000000000100000000000000100000000000000000000000000000000000000000000000000000000000000000000000000000000000000000000000PES00010000001N00000000000000020180817
201808070060000700000000000000612369000000000000006123699000000000099999999999Consumidor Final              000000000104500000000000104500000000000000000000000000000000000000000000000000000000000000000000000000000000000000000000PES00010000001N00000000000000020180817
201808070060000700000000000000612370000000000000006123709000000000099999999999Consumidor Final              000000000104500000000000104500000000000000000000000000000000000000000000000000000000000000000000000000000000000000000000PES00010000001N00000000000000020180817
201808070060000700000000000000612371000000000000006123719900000000000000000000Consumidor Final              000000000089500000000000089500000000000000000000000000000000000000000000000000000000000000000000000000000000000000000000PES00010000001N00000000000000020180817
201808070060000700000000000000612372000000000000006123729900000000000000000000Consumidor Final              000000000098400000000000098400000000000000000000000000000000000000000000000000000000000000000000000000000000000000000000PES00010000001N00000000000000020180817
201808070060000700000000000000612375000000000000006123759900000000000000000000Consumidor Final              000000000089500000000000089500000000000000000000000000000000000000000000000000000000000000000000000000000000000000000000PES00010000001N00000000000000020180817
201808070060000700000000000000612376000000000000006123769900000000000000000000Consumidor Final              000000000089500000000000089500000000000000000000000000000000000000000000000000000000000000000000000000000000000000000000PES00010000001N00000000000000020180817
201808070060000700000000000000612377000000000000006123779900000000000000000000Consumidor Final              000000000085000000000000085000000000000000000000000000000000000000000000000000000000000000000000000000000000000000000000PES00010000001N00000000000000020180817
201808070060000700000000000000612360000000000000006123609900000000000000000000Consumidor Final              000000000098400000000000098400000000000000000000000000000000000000000000000000000000000000000000000000000000000000000000PES00010000001N00000000000000020180817
201808070060000700000000000000612366000000000000006123669000000000099999999999Consumidor Final              000000000165000000000000165000000000000000000000000000000000000000000000000000000000000000000000000000000000000000000000PES00010000001N00000000000000020180817
201808070060000700000000000000612368000000000000006123689900000000000000000000Consumidor Final              000000000085000000000000085000000000000000000000000000000000000000000000000000000000000000000000000000000000000000000000PES00010000001N00000000000000020180817
201808070060000600000000000000831733000000000000008317339900000000000000000000Consumidor Final              000000000089500000000000089500000000000000000000000000000000000000000000000000000000000000000000000000000000000000000000PES00010000001N00000000000000020180817
201808070060000600000000000000831734000000000000008317349900000000000000000000Consumidor Final              000000000089500000000000089500000000000000000000000000000000000000000000000000000000000000000000000000000000000000000000PES00010000001N00000000000000020180817
201808070060000600000000000000831735000000000000008317359900000000000000000000Consumidor Final              000000000098400000000000098400000000000000000000000000000000000000000000000000000000000000000000000000000000000000000000PES00010000001N00000000000000020180817
201808070060000600000000000000831736000000000000008317369900000000000000000000Consumidor Final              000000000089500000000000089500000000000000000000000000000000000000000000000000000000000000000000000000000000000000000000PES00010000001N00000000000000020180817
201808070060000600000000000000831737000000000000008317379900000000000000000000Consumidor Final              000000000089500000000000089500000000000000000000000000000000000000000000000000000000000000000000000000000000000000000000PES00010000001N00000000000000020180817
201808070060000600000000000000831738000000000000008317389900000000000000000000Consumidor Final              000000000090000000000000090000000000000000000000000000000000000000000000000000000000000000000000000000000000000000000000PES00010000001N00000000000000020180817
201808070060000600000000000000831739000000000000008317399900000000000000000000Consumidor Final              000000000085000000000000085000000000000000000000000000000000000000000000000000000000000000000000000000000000000000000000PES00010000001N00000000000000020180817
201808070060000600000000000000831740000000000000008317409900000000000000000000Consumidor Final              000000000085000000000000085000000000000000000000000000000000000000000000000000000000000000000000000000000000000000000000PES00010000001N00000000000000020180817
201808070060000600000000000000831741000000000000008317419000000000099999999999Consumidor Final              000000000100000000000000100000000000000000000000000000000000000000000000000000000000000000000000000000000000000000000000PES00010000001N00000000000000020180817
201808070060000600000000000000831742000000000000008317429900000000000000000000Consumidor Final              000000000085000000000000085000000000000000000000000000000000000000000000000000000000000000000000000000000000000000000000PES00010000001N00000000000000020180817
201808070060000600000000000000831743000000000000008317439900000000000000000000Consumidor Final              000000000085000000000000085000000000000000000000000000000000000000000000000000000000000000000000000000000000000000000000PES00010000001N00000000000000020180817
201808070060000700000000000000612386000000000000006123869900000000000000000000Consumidor Final              000000000093500000000000093500000000000000000000000000000000000000000000000000000000000000000000000000000000000000000000PES00010000001N00000000000000020180817
201808070060000700000000000000612387000000000000006123879900000000000000000000Consumidor Final              000000000089500000000000089500000000000000000000000000000000000000000000000000000000000000000000000000000000000000000000PES00010000001N00000000000000020180817
201808070060000700000000000000612389000000000000006123899900000000000000000000Consumidor Final              000000000089500000000000089500000000000000000000000000000000000000000000000000000000000000000000000000000000000000000000PES00010000001N00000000000000020180817
201808070060000700000000000000612390000000000000006123909900000000000000000000Consumidor Final              000000000089500000000000089500000000000000000000000000000000000000000000000000000000000000000000000000000000000000000000PES00010000001N00000000000000020180817
201808070060000700000000000000612391000000000000006123919900000000000000000000Consumidor Final              000000000092000000000000092000000000000000000000000000000000000000000000000000000000000000000000000000000000000000000000PES00010000001N00000000000000020180817
201808070060000700000000000000612392000000000000006123929000000000099999999999Consumidor Final              000000000160000000000000160000000000000000000000000000000000000000000000000000000000000000000000000000000000000000000000PES00010000001N00000000000000020180817
201808070060000700000000000000612393000000000000006123939900000000000000000000Consumidor Final              000000000089500000000000089500000000000000000000000000000000000000000000000000000000000000000000000000000000000000000000PES00010000001N00000000000000020180817
201808070060000700000000000000612394000000000000006123949900000000000000000000Consumidor Final              000000000098400000000000098400000000000000000000000000000000000000000000000000000000000000000000000000000000000000000000PES00010000001N00000000000000020180817
201808070060000700000000000000612373000000000000006123739900000000000000000000Consumidor Final              000000000089500000000000089500000000000000000000000000000000000000000000000000000000000000000000000000000000000000000000PES00010000001N00000000000000020180817
201808070060000600000000000000831744000000000000008317449900000000000000000000Consumidor Final              000000000028600000000000028600000000000000000000000000000000000000000000000000000000000000000000000000000000000000000000PES00010000001N00000000000000020180817
201808070060000700000000000000612374000000000000006123749900000000000000000000Consumidor Final              000000000085000000000000085000000000000000000000000000000000000000000000000000000000000000000000000000000000000000000000PES00010000001N00000000000000020180817
201808070060000600000000000000831745000000000000008317459900000000000000000000Consumidor Final              000000000089500000000000089500000000000000000000000000000000000000000000000000000000000000000000000000000000000000000000PES00010000001N00000000000000020180817
201808070060000800000000000000208066000000000000002080669900000000000000000000Consumidor Final              000000000078000000000000078000000000000000000000000000000000000000000000000000000000000000000000000000000000000000000000PES00010000001N00000000000000020180817
201808070060000800000000000000208067000000000000002080679900000000000000000000Consumidor Final              000000000078000000000000078000000000000000000000000000000000000000000000000000000000000000000000000000000000000000000000PES00010000001N00000000000000020180817
201808070060000800000000000000208068000000000000002080689900000000000000000000Consumidor Final              000000000078000000000000078000000000000000000000000000000000000000000000000000000000000000000000000000000000000000000000PES00010000001N00000000000000020180817
201808070060000800000000000000208069000000000000002080699900000000000000000000Consumidor Final              000000000078000000000000078000000000000000000000000000000000000000000000000000000000000000000000000000000000000000000000PES00010000001N00000000000000020180817
201808070060000800000000000000208070000000000000002080709900000000000000000000Consumidor Final              000000000078000000000000078000000000000000000000000000000000000000000000000000000000000000000000000000000000000000000000PES00010000001N00000000000000020180817
201808070060000800000000000000208071000000000000002080719900000000000000000000Consumidor Final              000000000078000000000000078000000000000000000000000000000000000000000000000000000000000000000000000000000000000000000000PES00010000001N00000000000000020180817
201808070060000700000000000000612388000000000000006123889900000000000000000000Consumidor Final              000000000098400000000000098400000000000000000000000000000000000000000000000000000000000000000000000000000000000000000000PES00010000001N00000000000000020180817
201808070060000700000000000000612395000000000000006123959900000000000000000000Consumidor Final              000000000093500000000000093500000000000000000000000000000000000000000000000000000000000000000000000000000000000000000000PES00010000001N00000000000000020180817
201808070060000700000000000000612396000000000000006123969900000000000000000000Consumidor Final              000000000089500000000000089500000000000000000000000000000000000000000000000000000000000000000000000000000000000000000000PES00010000001N00000000000000020180817
201808070060000700000000000000612398000000000000006123989900000000000000000000Consumidor Final              000000000099000000000000099000000000000000000000000000000000000000000000000000000000000000000000000000000000000000000000PES00010000001N00000000000000020180817
201808070060000700000000000000612399000000000000006123999900000000000000000000Consumidor Final              000000000089500000000000089500000000000000000000000000000000000000000000000000000000000000000000000000000000000000000000PES00010000001N00000000000000020180817
201808070060000700000000000000612400000000000000006124009900000000000000000000Consumidor Final              000000000026000000000000026000000000000000000000000000000000000000000000000000000000000000000000000000000000000000000000PES00010000001N00000000000000020180817
201808070060000600000000000000831747000000000000008317479000000000099999999999Consumidor Final              000000000104500000000000104500000000000000000000000000000000000000000000000000000000000000000000000000000000000000000000PES00010000001N00000000000000020180817
201808070060000700000000000000612401000000000000006124019900000000000000000000Consumidor Final              000000000098400000000000098400000000000000000000000000000000000000000000000000000000000000000000000000000000000000000000PES00010000001N00000000000000020180817
201808070060000600000000000000831748000000000000008317489900000000000000000000Consumidor Final              000000000092000000000000092000000000000000000000000000000000000000000000000000000000000000000000000000000000000000000000PES00010000001N00000000000000020180817
201808070060000700000000000000612402000000000000006124029900000000000000000000Consumidor Final              000000000093500000000000093500000000000000000000000000000000000000000000000000000000000000000000000000000000000000000000PES00010000001N00000000000000020180817
201808070060000600000000000000831749000000000000008317499900000000000000000000Consumidor Final              000000000089500000000000089500000000000000000000000000000000000000000000000000000000000000000000000000000000000000000000PES00010000001N00000000000000020180817
201808070060000700000000000000612397000000000000006123979000000000099999999999Consumidor Final              000000000100000000000000100000000000000000000000000000000000000000000000000000000000000000000000000000000000000000000000PES00010000001N00000000000000020180817
201808070060000800000000000000208072000000000000002080729900000000000000000000Consumidor Final              000000000078000000000000078000000000000000000000000000000000000000000000000000000000000000000000000000000000000000000000PES00010000001N00000000000000020180817
201808070060000800000000000000208073000000000000002080739900000000000000000000Consumidor Final              000000000078000000000000078000000000000000000000000000000000000000000000000000000000000000000000000000000000000000000000PES00010000001N00000000000000020180817
201808070060000700000000000000612410000000000000006124109900000000000000000000Consumidor Final              000000000089500000000000089500000000000000000000000000000000000000000000000000000000000000000000000000000000000000000000PES00010000001N00000000000000020180817
201808070060000700000000000000612411000000000000006124119900000000000000000000Consumidor Final              000000000098400000000000098400000000000000000000000000000000000000000000000000000000000000000000000000000000000000000000PES00010000001N00000000000000020180817
