201807310060000600000000000000830475000000000000008304759900000000000000000000Consumidor Final              000000000085000000000000085000000000000000000000000000000000000000000000000000000000000000000000000000000000000000000000PES00010000001N00000000000000020180810
201807310060000900000000000000051813000000000000000518139900000000000000000000Consumidor Final              000000000089500000000000089500000000000000000000000000000000000000000000000000000000000000000000000000000000000000000000PES00010000001N00000000000000020180810
201807310060000600000000000000830491000000000000008304919900000000000000000000Consumidor Final              000000000085000000000000085000000000000000000000000000000000000000000000000000000000000000000000000000000000000000000000PES00010000001N00000000000000020180810
201807310060000600000000000000830492000000000000008304929900000000000000000000Consumidor Final              000000000089500000000000089500000000000000000000000000000000000000000000000000000000000000000000000000000000000000000000PES00010000001N00000000000000020180810
201807310060000600000000000000830330000000000000008303309000000000099999999999Consumidor Final              000000000108000000000000108000000000000000000000000000000000000000000000000000000000000000000000000000000000000000000000PES00010000001N00000000000000020180810
201807310060000800000000000000207728000000000000002077289900000000000000000000Consumidor Final              000000000042000000000000042000000000000000000000000000000000000000000000000000000000000000000000000000000000000000000000PES00010000001N00000000000000020180810
201807310060000700000000000000611039000000000000006110399900000000000000000000Consumidor Final              000000000078000000000000078000000000000000000000000000000000000000000000000000000000000000000000000000000000000000000000PES00010000001N00000000000000020180810
201807310060000700000000000000611040000000000000006110409900000000000000000000Consumidor Final              000000000078000000000000078000000000000000000000000000000000000000000000000000000000000000000000000000000000000000000000PES00010000001N00000000000000020180810
201807310060000600000000000000830383000000000000008303839000000000099999999999Consumidor Final              000000000104500000000000104500000000000000000000000000000000000000000000000000000000000000000000000000000000000000000000PES00010000001N00000000000000020180810
201807310060000600000000000000830384000000000000008303849900000000000000000000Consumidor Final              000000000078000000000000078000000000000000000000000000000000000000000000000000000000000000000000000000000000000000000000PES00010000001N00000000000000020180810
201807310060000700000000000000611041000000000000006110419900000000000000000000Consumidor Final              000000000078000000000000078000000000000000000000000000000000000000000000000000000000000000000000000000000000000000000000PES00010000001N00000000000000020180810
201807310060000600000000000000830385000000000000008303859900000000000000000000Consumidor Final              000000000089500000000000089500000000000000000000000000000000000000000000000000000000000000000000000000000000000000000000PES00010000001N00000000000000020180810
201807310060000700000000000000611042000000000000006110429000000000099999999999Consumidor Final              000000000104500000000000104500000000000000000000000000000000000000000000000000000000000000000000000000000000000000000000PES00010000001N00000000000000020180810
201807310060000600000000000000830386000000000000008303869900000000000000000000Consumidor Final              000000000089500000000000089500000000000000000000000000000000000000000000000000000000000000000000000000000000000000000000PES00010000001N00000000000000020180810
201807310060000800000000000000207713000000000000002077139900000000000000000000Consumidor Final              000000000078000000000000078000000000000000000000000000000000000000000000000000000000000000000000000000000000000000000000PES00010000001N00000000000000020180810
201807310060000700000000000000611036000000000000006110369000000000099999999999Consumidor Final              000000000107000000000000107000000000000000000000000000000000000000000000000000000000000000000000000000000000000000000000PES00010000001N00000000000000020180810
201807310060000700000000000000611037000000000000006110379900000000000000000000Consumidor Final              000000000089500000000000089500000000000000000000000000000000000000000000000000000000000000000000000000000000000000000000PES00010000001N00000000000000020180810
201807310060000700000000000000611043000000000000006110439900000000000000000000Consumidor Final              000000000042000000000000042000000000000000000000000000000000000000000000000000000000000000000000000000000000000000000000PES00010000001N00000000000000020180810
201807310060000600000000000000830387000000000000008303879900000000000000000000Consumidor Final              000000000089500000000000089500000000000000000000000000000000000000000000000000000000000000000000000000000000000000000000PES00010000001N00000000000000020180810
201807310060000600000000000000830389000000000000008303898000000000030541244154INSTITUTO GOETHE PARA EL FOMEN000000000748000000000000748000000000000000000000000000000000000000000000000000000000000000000000000000000000000000000000PES00010000001N00000000000000020180810
201807310510000100000000000000001606000000000000000016068000000000030641405554AEROLINEAS ARGENTINAS S.A.    000000003272500000000003272500000000000000000000000000000000000000000000000000000000000000000000000000000000000000000000PES00010000001N00000000000000000000000
201807310060000600000000000000830390000000000000008303909900000000000000000000Consumidor Final              000000000089500000000000089500000000000000000000000000000000000000000000000000000000000000000000000000000000000000000000PES00010000001N00000000000000020180810
201807310060000800000000000000207714000000000000002077149900000000000000000000Consumidor Final              000000000078000000000000078000000000000000000000000000000000000000000000000000000000000000000000000000000000000000000000PES00010000001N00000000000000020180810
201807310060000600000000000000830334000000000000008303349900000000000000000000Consumidor Final              000000000082000000000000082000000000000000000000000000000000000000000000000000000000000000000000000000000000000000000000PES00010000001N00000000000000020180810
201807310060000800000000000000207715000000000000002077159900000000000000000000Consumidor Final              000000000078000000000000078000000000000000000000000000000000000000000000000000000000000000000000000000000000000000000000PES00010000001N00000000000000020180810
201807310060000800000000000000207716000000000000002077169900000000000000000000Consumidor Final              000000000026000000000000026000000000000000000000000000000000000000000000000000000000000000000000000000000000000000000000PES00010000001N00000000000000020180810
201807310060000600000000000000830337000000000000008303379900000000000000000000Consumidor Final              000000000092000000000000092000000000000000000000000000000000000000000000000000000000000000000000000000000000000000000000PES00010000001N00000000000000020180810
201807310060000600000000000000830338000000000000008303389900000000000000000000Consumidor Final              000000000089500000000000089500000000000000000000000000000000000000000000000000000000000000000000000000000000000000000000PES00010000001N00000000000000020180810
201807310060000600000000000000830339000000000000008303399900000000000000000000Consumidor Final              000000000089500000000000089500000000000000000000000000000000000000000000000000000000000000000000000000000000000000000000PES00010000001N00000000000000020180810
201807310060000600000000000000830340000000000000008303409900000000000000000000Consumidor Final              000000000089500000000000089500000000000000000000000000000000000000000000000000000000000000000000000000000000000000000000PES00010000001N00000000000000020180810
201807310060000800000000000000207717000000000000002077179900000000000000000000Consumidor Final              000000000078000000000000078000000000000000000000000000000000000000000000000000000000000000000000000000000000000000000000PES00010000001N00000000000000020180810
201807310060000600000000000000830341000000000000008303419900000000000000000000Consumidor Final              000000000089500000000000089500000000000000000000000000000000000000000000000000000000000000000000000000000000000000000000PES00010000001N00000000000000020180810
201807310060000600000000000000830342000000000000008303429900000000000000000000Consumidor Final              000000000089500000000000089500000000000000000000000000000000000000000000000000000000000000000000000000000000000000000000PES00010000001N00000000000000020180810
201807310060000600000000000000830336000000000000008303369900000000000000000000Consumidor Final              000000000089500000000000089500000000000000000000000000000000000000000000000000000000000000000000000000000000000000000000PES00010000001N00000000000000020180810
201807310060000600000000000000830393000000000000008303939900000000000000000000Consumidor Final              000000000085000000000000085000000000000000000000000000000000000000000000000000000000000000000000000000000000000000000000PES00010000001N00000000000000020180810
201807310060000600000000000000830343000000000000008303439900000000000000000000Consumidor Final              000000000089500000000000089500000000000000000000000000000000000000000000000000000000000000000000000000000000000000000000PES00010000001N00000000000000020180810
201807310060000600000000000000830344000000000000008303449900000000000000000000Consumidor Final              000000000085000000000000085000000000000000000000000000000000000000000000000000000000000000000000000000000000000000000000PES00010000001N00000000000000020180810
201807310060000800000000000000207718000000000000002077189900000000000000000000Consumidor Final              000000000078000000000000078000000000000000000000000000000000000000000000000000000000000000000000000000000000000000000000PES00010000001N00000000000000020180810
201807310060000600000000000000830345000000000000008303459900000000000000000000Consumidor Final              000000000089500000000000089500000000000000000000000000000000000000000000000000000000000000000000000000000000000000000000PES00010000001N00000000000000020180810
201807310060000800000000000000207719000000000000002077199900000000000000000000Consumidor Final              000000000078000000000000078000000000000000000000000000000000000000000000000000000000000000000000000000000000000000000000PES00010000001N00000000000000020180810
201807310060000600000000000000830346000000000000008303469900000000000000000000Consumidor Final              000000000089500000000000089500000000000000000000000000000000000000000000000000000000000000000000000000000000000000000000PES00010000001N00000000000000020180810
201807310060000600000000000000830347000000000000008303479900000000000000000000Consumidor Final              000000000089500000000000089500000000000000000000000000000000000000000000000000000000000000000000000000000000000000000000PES00010000001N00000000000000020180810
201807310060000600000000000000830348000000000000008303489900000000000000000000Consumidor Final              000000000085000000000000085000000000000000000000000000000000000000000000000000000000000000000000000000000000000000000000PES00010000001N00000000000000020180810
201807310060000800000000000000207720000000000000002077209900000000000000000000Consumidor Final              000000000078000000000000078000000000000000000000000000000000000000000000000000000000000000000000000000000000000000000000PES00010000001N00000000000000020180810
201807310060000800000000000000207721000000000000002077219900000000000000000000Consumidor Final              000000000078000000000000078000000000000000000000000000000000000000000000000000000000000000000000000000000000000000000000PES00010000001N00000000000000020180810
201807310060000800000000000000207722000000000000002077229900000000000000000000Consumidor Final              000000000078000000000000078000000000000000000000000000000000000000000000000000000000000000000000000000000000000000000000PES00010000001N00000000000000020180810
201807310060000800000000000000207723000000000000002077239900000000000000000000Consumidor Final              000000000078000000000000078000000000000000000000000000000000000000000000000000000000000000000000000000000000000000000000PES00010000001N00000000000000020180810
201807310060000800000000000000207724000000000000002077249900000000000000000000Consumidor Final              000000000078000000000000078000000000000000000000000000000000000000000000000000000000000000000000000000000000000000000000PES00010000001N00000000000000020180810
201807310060000800000000000000207725000000000000002077259900000000000000000000Consumidor Final              000000000078000000000000078000000000000000000000000000000000000000000000000000000000000000000000000000000000000000000000PES00010000001N00000000000000020180810
201807310060000800000000000000207726000000000000002077269900000000000000000000Consumidor Final              000000000078000000000000078000000000000000000000000000000000000000000000000000000000000000000000000000000000000000000000PES00010000001N00000000000000020180810
201807310060000800000000000000207727000000000000002077279900000000000000000000Consumidor Final              000000000078000000000000078000000000000000000000000000000000000000000000000000000000000000000000000000000000000000000000PES00010000001N00000000000000020180810
201807310060000600000000000000830349000000000000008303499900000000000000000000Consumidor Final              000000000089500000000000089500000000000000000000000000000000000000000000000000000000000000000000000000000000000000000000PES00010000001N00000000000000020180810
201807310060000600000000000000830350000000000000008303509900000000000000000000Consumidor Final              000000000089500000000000089500000000000000000000000000000000000000000000000000000000000000000000000000000000000000000000PES00010000001N00000000000000020180810
201807310060000600000000000000830351000000000000008303519900000000000000000000Consumidor Final              000000000078000000000000078000000000000000000000000000000000000000000000000000000000000000000000000000000000000000000000PES00010000001N00000000000000020180810
201807310060000600000000000000830352000000000000008303529900000000000000000000Consumidor Final              000000000089500000000000089500000000000000000000000000000000000000000000000000000000000000000000000000000000000000000000PES00010000001N00000000000000020180810
201807310060000600000000000000830353000000000000008303539900000000000000000000Consumidor Final              000000000089500000000000089500000000000000000000000000000000000000000000000000000000000000000000000000000000000000000000PES00010000001N00000000000000020180810
201807310060000600000000000000830354000000000000008303549900000000000000000000Consumidor Final              000000000092000000000000092000000000000000000000000000000000000000000000000000000000000000000000000000000000000000000000PES00010000001N00000000000000020180810
201807310060000600000000000000830356000000000000008303569900000000000000000000Consumidor Final              000000000089500000000000089500000000000000000000000000000000000000000000000000000000000000000000000000000000000000000000PES00010000001N00000000000000020180810
201807310060000700000000000000611030000000000000006110309900000000000000000000Consumidor Final              000000000089500000000000089500000000000000000000000000000000000000000000000000000000000000000000000000000000000000000000PES00010000001N00000000000000020180810
201807310060000600000000000000830395000000000000008303959000000000099999999999Consumidor Final              000000000104500000000000104500000000000000000000000000000000000000000000000000000000000000000000000000000000000000000000PES00010000001N00000000000000020180810
201807310060000600000000000000830396000000000000008303969900000000000000000000Consumidor Final              000000000078000000000000078000000000000000000000000000000000000000000000000000000000000000000000000000000000000000000000PES00010000001N00000000000000020180810
201807310060000600000000000000830359000000000000008303599000000000099999999999Consumidor Final              000000000100000000000000100000000000000000000000000000000000000000000000000000000000000000000000000000000000000000000000PES00010000001N00000000000000020180810
201807310060000700000000000000611012000000000000006110129000000000099999999999Consumidor Final              000000000107000000000000107000000000000000000000000000000000000000000000000000000000000000000000000000000000000000000000PES00010000001N00000000000000020180810
201807310060000700000000000000611013000000000000006110139900000000000000000000Consumidor Final              000000000085000000000000085000000000000000000000000000000000000000000000000000000000000000000000000000000000000000000000PES00010000001N00000000000000020180810
201807310060000700000000000000611014000000000000006110149000000000099999999999Consumidor Final              000000000104500000000000104500000000000000000000000000000000000000000000000000000000000000000000000000000000000000000000PES00010000001N00000000000000020180810
201807310060000700000000000000611015000000000000006110159900000000000000000000Consumidor Final              000000000089500000000000089500000000000000000000000000000000000000000000000000000000000000000000000000000000000000000000PES00010000001N00000000000000020180810
201807310060000700000000000000611016000000000000006110169000000000099999999999Consumidor Final              000000000104500000000000104500000000000000000000000000000000000000000000000000000000000000000000000000000000000000000000PES00010000001N00000000000000020180810
201807310060000600000000000000830394000000000000008303949900000000000000000000Consumidor Final              000000000050000000000000050000000000000000000000000000000000000000000000000000000000000000000000000000000000000000000000PES00010000001N00000000000000020180810
201807310060000600000000000000830360000000000000008303609900000000000000000000Consumidor Final              000000000089500000000000089500000000000000000000000000000000000000000000000000000000000000000000000000000000000000000000PES00010000001N00000000000000020180810
201807310060000700000000000000611032000000000000006110329900000000000000000000Consumidor Final              000000000085000000000000085000000000000000000000000000000000000000000000000000000000000000000000000000000000000000000000PES00010000001N00000000000000020180810
201807310060000700000000000000611033000000000000006110339900000000000000000000Consumidor Final              000000000089500000000000089500000000000000000000000000000000000000000000000000000000000000000000000000000000000000000000PES00010000001N00000000000000020180810
201807310060000700000000000000611034000000000000006110349000000000099999999999Consumidor Final              000000000104500000000000104500000000000000000000000000000000000000000000000000000000000000000000000000000000000000000000PES00010000001N00000000000000020180810
201807310060000700000000000000611035000000000000006110359000000000099999999999Consumidor Final              000000000107000000000000107000000000000000000000000000000000000000000000000000000000000000000000000000000000000000000000PES00010000001N00000000000000020180810
201807310060000600000000000000830397000000000000008303979900000000000000000000Consumidor Final              000000000089500000000000089500000000000000000000000000000000000000000000000000000000000000000000000000000000000000000000PES00010000001N00000000000000020180810
201807310060000600000000000000830398000000000000008303989900000000000000000000Consumidor Final              000000000098400000000000098400000000000000000000000000000000000000000000000000000000000000000000000000000000000000000000PES00010000001N00000000000000020180810
201807310060000600000000000000830361000000000000008303619000000000099999999999Consumidor Final              000000000100000000000000100000000000000000000000000000000000000000000000000000000000000000000000000000000000000000000000PES00010000001N00000000000000020180810
201807310060000600000000000000830368000000000000008303689900000000000000000000Consumidor Final              000000000085000000000000085000000000000000000000000000000000000000000000000000000000000000000000000000000000000000000000PES00010000001N00000000000000020180810
201807310060000600000000000000830369000000000000008303699900000000000000000000Consumidor Final              000000000089500000000000089500000000000000000000000000000000000000000000000000000000000000000000000000000000000000000000PES00010000001N00000000000000020180810
201807310060000700000000000000611027000000000000006110279000000000099999999999Consumidor Final              000000000138600000000000138600000000000000000000000000000000000000000000000000000000000000000000000000000000000000000000PES00010000001N00000000000000020180810
201807310060000700000000000000611028000000000000006110289900000000000000000000Consumidor Final              000000000044000000000000044000000000000000000000000000000000000000000000000000000000000000000000000000000000000000000000PES00010000001N00000000000000020180810
201807310060000600000000000000830382000000000000008303828000000000030541244154INSTITUTO GOETHE PARA EL FOMEN000000000748000000000000748000000000000000000000000000000000000000000000000000000000000000000000000000000000000000000000PES00010000001N00000000000000020180810
201807310060000600000000000000830399000000000000008303999900000000000000000000Consumidor Final              000000000085000000000000085000000000000000000000000000000000000000000000000000000000000000000000000000000000000000000000PES00010000001N00000000000000020180810
201807310060000700000000000000611044000000000000006110449000000000099999999999Consumidor Final              000000000100000000000000100000000000000000000000000000000000000000000000000000000000000000000000000000000000000000000000PES00010000001N00000000000000020180810
201807310060000600000000000000830362000000000000008303629900000000000000000000Consumidor Final              000000000099000000000000099000000000000000000000000000000000000000000000000000000000000000000000000000000000000000000000PES00010000001N00000000000000020180810
201807310060000800000000000000207729000000000000002077299900000000000000000000Consumidor Final              000000000078000000000000078000000000000000000000000000000000000000000000000000000000000000000000000000000000000000000000PES00010000001N00000000000000020180810
201807310060000800000000000000207730000000000000002077309900000000000000000000Consumidor Final              000000000078000000000000078000000000000000000000000000000000000000000000000000000000000000000000000000000000000000000000PES00010000001N00000000000000020180810
201807310060000600000000000000830365000000000000008303659000000000099999999999Consumidor Final              000000000104500000000000104500000000000000000000000000000000000000000000000000000000000000000000000000000000000000000000PES00010000001N00000000000000020180810
201807310060000600000000000000830366000000000000008303669900000000000000000000Consumidor Final              000000000085000000000000085000000000000000000000000000000000000000000000000000000000000000000000000000000000000000000000PES00010000001N00000000000000020180810
201807310060000600000000000000830367000000000000008303679900000000000000000000Consumidor Final              000000000085000000000000085000000000000000000000000000000000000000000000000000000000000000000000000000000000000000000000PES00010000001N00000000000000020180810
201807310060000600000000000000830370000000000000008303709000000000099999999999Consumidor Final              000000000130000000000000130000000000000000000000000000000000000000000000000000000000000000000000000000000000000000000000PES00010000001N00000000000000020180810
201807310060000600000000000000830371000000000000008303719900000000000000000000Consumidor Final              000000000098400000000000098400000000000000000000000000000000000000000000000000000000000000000000000000000000000000000000PES00010000001N00000000000000020180810
201807310060000600000000000000830374000000000000008303749900000000000000000000Consumidor Final              000000000089500000000000089500000000000000000000000000000000000000000000000000000000000000000000000000000000000000000000PES00010000001N00000000000000020180810
201807310060000700000000000000611029000000000000006110299900000000000000000000Consumidor Final              000000000098400000000000098400000000000000000000000000000000000000000000000000000000000000000000000000000000000000000000PES00010000001N00000000000000020180810
201807310060000600000000000000830375000000000000008303759900000000000000000000Consumidor Final              000000000085000000000000085000000000000000000000000000000000000000000000000000000000000000000000000000000000000000000000PES00010000001N00000000000000020180810
201807310060000600000000000000830363000000000000008303639900000000000000000000Consumidor Final              000000000098400000000000098400000000000000000000000000000000000000000000000000000000000000000000000000000000000000000000PES00010000001N00000000000000020180810
201807310060000600000000000000830376000000000000008303769900000000000000000000Consumidor Final              000000000092000000000000092000000000000000000000000000000000000000000000000000000000000000000000000000000000000000000000PES00010000001N00000000000000020180810
201807310060000600000000000000830377000000000000008303779900000000000000000000Consumidor Final              000000000089500000000000089500000000000000000000000000000000000000000000000000000000000000000000000000000000000000000000PES00010000001N00000000000000020180810
201807310060000600000000000000830378000000000000008303789900000000000000000000Consumidor Final              000000000099000000000000099000000000000000000000000000000000000000000000000000000000000000000000000000000000000000000000PES00010000001N00000000000000020180810
201807310060000600000000000000830379000000000000008303799900000000000000000000Consumidor Final              000000000092000000000000092000000000000000000000000000000000000000000000000000000000000000000000000000000000000000000000PES00010000001N00000000000000020180810
201807310060000600000000000000830380000000000000008303809900000000000000000000Consumidor Final              000000000089500000000000089500000000000000000000000000000000000000000000000000000000000000000000000000000000000000000000PES00010000001N00000000000000020180810
201807310060000600000000000000830388000000000000008303889000000000099999999999Consumidor Final              000000000939000000000000939000000000000000000000000000000000000000000000000000000000000000000000000000000000000000000000PES00010000001N00000000000000020180810
201807310060000600000000000000830408000000000000008304089900000000000000000000Consumidor Final              000000000089500000000000089500000000000000000000000000000000000000000000000000000000000000000000000000000000000000000000PES00010000001N00000000000000020180810
201807310060000600000000000000830364000000000000008303649900000000000000000000Consumidor Final              000000000098400000000000098400000000000000000000000000000000000000000000000000000000000000000000000000000000000000000000PES00010000001N00000000000000020180810
201807310060000700000000000000611025000000000000006110259900000000000000000000Consumidor Final              000000000089500000000000089500000000000000000000000000000000000000000000000000000000000000000000000000000000000000000000PES00010000001N00000000000000020180810
201807310060000700000000000000611026000000000000006110269000000000099999999999Consumidor Final              000000000114900000000000114900000000000000000000000000000000000000000000000000000000000000000000000000000000000000000000PES00010000001N00000000000000020180810
201807310060000600000000000000830372000000000000008303729900000000000000000000Consumidor Final              000000000089500000000000089500000000000000000000000000000000000000000000000000000000000000000000000000000000000000000000PES00010000001N00000000000000020180810
201807310060000800000000000000207731000000000000002077319900000000000000000000Consumidor Final              000000000078000000000000078000000000000000000000000000000000000000000000000000000000000000000000000000000000000000000000PES00010000001N00000000000000020180810
201807310060000600000000000000830373000000000000008303739900000000000000000000Consumidor Final              000000000098400000000000098400000000000000000000000000000000000000000000000000000000000000000000000000000000000000000000PES00010000001N00000000000000020180810
201807310060000800000000000000207732000000000000002077329900000000000000000000Consumidor Final              000000000078000000000000078000000000000000000000000000000000000000000000000000000000000000000000000000000000000000000000PES00010000001N00000000000000020180810
201807310060000800000000000000207733000000000000002077339900000000000000000000Consumidor Final              000000000078000000000000078000000000000000000000000000000000000000000000000000000000000000000000000000000000000000000000PES00010000001N00000000000000020180810
201807310060000800000000000000207734000000000000002077349900000000000000000000Consumidor Final              000000000078000000000000078000000000000000000000000000000000000000000000000000000000000000000000000000000000000000000000PES00010000001N00000000000000020180810
201807310060000600000000000000830407000000000000008304079900000000000000000000Consumidor Final              000000000098400000000000098400000000000000000000000000000000000000000000000000000000000000000000000000000000000000000000PES00010000001N00000000000000020180810
201807310060000600000000000000830400000000000000008304009900000000000000000000Consumidor Final              000000000089500000000000089500000000000000000000000000000000000000000000000000000000000000000000000000000000000000000000PES00010000001N00000000000000020180810
201807310060000700000000000000611045000000000000006110459900000000000000000000Consumidor Final              000000000089500000000000089500000000000000000000000000000000000000000000000000000000000000000000000000000000000000000000PES00010000001N00000000000000020180810
201807310060000600000000000000830401000000000000008304019900000000000000000000Consumidor Final              000000000098400000000000098400000000000000000000000000000000000000000000000000000000000000000000000000000000000000000000PES00010000001N00000000000000020180810
201807310060000800000000000000207737000000000000002077379900000000000000000000Consumidor Final              000000000078000000000000078000000000000000000000000000000000000000000000000000000000000000000000000000000000000000000000PES00010000001N00000000000000020180810
201807310060000700000000000000611046000000000000006110469900000000000000000000Consumidor Final              000000000089500000000000089500000000000000000000000000000000000000000000000000000000000000000000000000000000000000000000PES00010000001N00000000000000020180810
201807310060000600000000000000830402000000000000008304029900000000000000000000Consumidor Final              000000000089500000000000089500000000000000000000000000000000000000000000000000000000000000000000000000000000000000000000PES00010000001N00000000000000020180810
201807310060000600000000000000830403000000000000008304039900000000000000000000Consumidor Final              000000000089500000000000089500000000000000000000000000000000000000000000000000000000000000000000000000000000000000000000PES00010000001N00000000000000020180810
201807310060000600000000000000830404000000000000008304049900000000000000000000Consumidor Final              000000000089500000000000089500000000000000000000000000000000000000000000000000000000000000000000000000000000000000000000PES00010000001N00000000000000020180810
201807310060000700000000000000611056000000000000006110569900000000000000000000Consumidor Final              000000000098400000000000098400000000000000000000000000000000000000000000000000000000000000000000000000000000000000000000PES00010000001N00000000000000020180810
201807310060000600000000000000830406000000000000008304069900000000000000000000Consumidor Final              000000000098400000000000098400000000000000000000000000000000000000000000000000000000000000000000000000000000000000000000PES00010000001N00000000000000020180810
201807310060000700000000000000611057000000000000006110579000000000099999999999Consumidor Final              000000000165000000000000165000000000000000000000000000000000000000000000000000000000000000000000000000000000000000000000PES00010000001N00000000000000020180810
201807310060000700000000000000611058000000000000006110589000000000099999999999Consumidor Final              000000000145200000000000145200000000000000000000000000000000000000000000000000000000000000000000000000000000000000000000PES00010000001N00000000000000020180810
201807310060000700000000000000611059000000000000006110599000000000099999999999Consumidor Final              000000000104500000000000104500000000000000000000000000000000000000000000000000000000000000000000000000000000000000000000PES00010000001N00000000000000020180810
201807310060000800000000000000207738000000000000002077389900000000000000000000Consumidor Final              000000000078000000000000078000000000000000000000000000000000000000000000000000000000000000000000000000000000000000000000PES00010000001N00000000000000020180810
201807310060000100000000000000203794000000000000002037949900000000000000000000Consumidor Final              000000000098400000000000098400000000000000000000000000000000000000000000000000000000000000000000000000000000000000000000PES00010000001N00000000000000020180810
201807310060000700000000000000611060000000000000006110609900000000000000000000Consumidor Final              000000000098400000000000098400000000000000000000000000000000000000000000000000000000000000000000000000000000000000000000PES00010000001N00000000000000020180810
201807310060000700000000000000611048000000000000006110489000000000099999999999Consumidor Final              000000000104500000000000104500000000000000000000000000000000000000000000000000000000000000000000000000000000000000000000PES00010000001N00000000000000020180810
201807310060000700000000000000611049000000000000006110499900000000000000000000Consumidor Final              000000000089500000000000089500000000000000000000000000000000000000000000000000000000000000000000000000000000000000000000PES00010000001N00000000000000020180810
201807310060000700000000000000611050000000000000006110509900000000000000000000Consumidor Final              000000000089500000000000089500000000000000000000000000000000000000000000000000000000000000000000000000000000000000000000PES00010000001N00000000000000020180810
201807310060000600000000000000830409000000000000008304099900000000000000000000Consumidor Final              000000000085000000000000085000000000000000000000000000000000000000000000000000000000000000000000000000000000000000000000PES00010000001N00000000000000020180810
201807310060000700000000000000611061000000000000006110619000000000099999999999Consumidor Final              000000000104500000000000104500000000000000000000000000000000000000000000000000000000000000000000000000000000000000000000PES00010000001N00000000000000020180810
201807310060000700000000000000611062000000000000006110629900000000000000000000Consumidor Final              000000000098400000000000098400000000000000000000000000000000000000000000000000000000000000000000000000000000000000000000PES00010000001N00000000000000020180810
201807310060000700000000000000611063000000000000006110639900000000000000000000Consumidor Final              000000000089500000000000089500000000000000000000000000000000000000000000000000000000000000000000000000000000000000000000PES00010000001N00000000000000020180810
201807310060000700000000000000611064000000000000006110649900000000000000000000Consumidor Final              000000000098400000000000098400000000000000000000000000000000000000000000000000000000000000000000000000000000000000000000PES00010000001N00000000000000020180810
201807310060000600000000000000830434000000000000008304349900000000000000000000Consumidor Final              000000000089500000000000089500000000000000000000000000000000000000000000000000000000000000000000000000000000000000000000PES00010000001N00000000000000020180810
201807310060000600000000000000830435000000000000008304359900000000000000000000Consumidor Final              000000000098400000000000098400000000000000000000000000000000000000000000000000000000000000000000000000000000000000000000PES00010000001N00000000000000020180810
201807310060000600000000000000830436000000000000008304369900000000000000000000Consumidor Final              000000000089500000000000089500000000000000000000000000000000000000000000000000000000000000000000000000000000000000000000PES00010000001N00000000000000020180810
201807310060000600000000000000830437000000000000008304379000000000099999999999Consumidor Final              000000000104500000000000104500000000000000000000000000000000000000000000000000000000000000000000000000000000000000000000PES00010000001N00000000000000020180810
201807310060000600000000000000830438000000000000008304389900000000000000000000Consumidor Final              000000000089500000000000089500000000000000000000000000000000000000000000000000000000000000000000000000000000000000000000PES00010000001N00000000000000020180810
201807310060000600000000000000830439000000000000008304399000000000099999999999Consumidor Final              000000000104500000000000104500000000000000000000000000000000000000000000000000000000000000000000000000000000000000000000PES00010000001N00000000000000020180810
201807310060000700000000000000611070000000000000006110709900000000000000000000Consumidor Final              000000000089500000000000089500000000000000000000000000000000000000000000000000000000000000000000000000000000000000000000PES00010000001N00000000000000020180810
201807310060000700000000000000611073000000000000006110739900000000000000000000Consumidor Final              000000000089500000000000089500000000000000000000000000000000000000000000000000000000000000000000000000000000000000000000PES00010000001N00000000000000020180810
201807310060000700000000000000611074000000000000006110749000000000099999999999Consumidor Final              000000000114900000000000114900000000000000000000000000000000000000000000000000000000000000000000000000000000000000000000PES00010000001N00000000000000020180810
201807310060000700000000000000611075000000000000006110759900000000000000000000Consumidor Final              000000000089500000000000089500000000000000000000000000000000000000000000000000000000000000000000000000000000000000000000PES00010000001N00000000000000020180810
201807310060000700000000000000611076000000000000006110769900000000000000000000Consumidor Final              000000000092000000000000092000000000000000000000000000000000000000000000000000000000000000000000000000000000000000000000PES00010000001N00000000000000020180810
201807310060000700000000000000611077000000000000006110779900000000000000000000Consumidor Final              000000000098400000000000098400000000000000000000000000000000000000000000000000000000000000000000000000000000000000000000PES00010000001N00000000000000020180810
201807310060000100000000000000203795000000000000002037959900000000000000000000Consumidor Final              000000000085800000000000085800000000000000000000000000000000000000000000000000000000000000000000000000000000000000000000PES00010000001N00000000000000020180810
201807310060000700000000000000611078000000000000006110789900000000000000000000Consumidor Final              000000000089500000000000089500000000000000000000000000000000000000000000000000000000000000000000000000000000000000000000PES00010000001N00000000000000020180810
201807310060000600000000000000830455000000000000008304559900000000000000000000Consumidor Final              000000000089500000000000089500000000000000000000000000000000000000000000000000000000000000000000000000000000000000000000PES00010000001N00000000000000020180810
201807310060000600000000000000830457000000000000008304579900000000000000000000Consumidor Final              000000000092000000000000092000000000000000000000000000000000000000000000000000000000000000000000000000000000000000000000PES00010000001N00000000000000020180810
201807310060000700000000000000611047000000000000006110479900000000000000000000Consumidor Final              000000000089500000000000089500000000000000000000000000000000000000000000000000000000000000000000000000000000000000000000PES00010000001N00000000000000020180810
201807310060000600000000000000830405000000000000008304059900000000000000000000Consumidor Final              000000000089500000000000089500000000000000000000000000000000000000000000000000000000000000000000000000000000000000000000PES00010000001N00000000000000020180810
201807310060000600000000000000830458000000000000008304589900000000000000000000Consumidor Final              000000000089500000000000089500000000000000000000000000000000000000000000000000000000000000000000000000000000000000000000PES00010000001N00000000000000020180810
201807310060000800000000000000207741000000000000002077419900000000000000000000Consumidor Final              000000000049000000000000049000000000000000000000000000000000000000000000000000000000000000000000000000000000000000000000PES00010000001N00000000000000020180810
201807310060000700000000000000611051000000000000006110519900000000000000000000Consumidor Final              000000000089500000000000089500000000000000000000000000000000000000000000000000000000000000000000000000000000000000000000PES00010000001N00000000000000020180810
201807310060000700000000000000611052000000000000006110529900000000000000000000Consumidor Final              000000000092000000000000092000000000000000000000000000000000000000000000000000000000000000000000000000000000000000000000PES00010000001N00000000000000020180810
201807310060000700000000000000611053000000000000006110539900000000000000000000Consumidor Final              000000000085000000000000085000000000000000000000000000000000000000000000000000000000000000000000000000000000000000000000PES00010000001N00000000000000020180810
201807310060000700000000000000611054000000000000006110549900000000000000000000Consumidor Final              000000000089000000000000089000000000000000000000000000000000000000000000000000000000000000000000000000000000000000000000PES00010000001N00000000000000020180810
201807310060000700000000000000611055000000000000006110559900000000000000000000Consumidor Final              000000000089000000000000089000000000000000000000000000000000000000000000000000000000000000000000000000000000000000000000PES00010000001N00000000000000020180810
201807310060000700000000000000611084000000000000006110849900000000000000000000Consumidor Final              000000000089500000000000089500000000000000000000000000000000000000000000000000000000000000000000000000000000000000000000PES00010000001N00000000000000020180810
201807310060000700000000000000611085000000000000006110859000000000099999999999Consumidor Final              000000000184200000000000184200000000000000000000000000000000000000000000000000000000000000000000000000000000000000000000PES00010000001N00000000000000020180810
201807310060000600000000000000830464000000000000008304649900000000000000000000Consumidor Final              000000000089500000000000089500000000000000000000000000000000000000000000000000000000000000000000000000000000000000000000PES00010000001N00000000000000020180810
201807310060000700000000000000611091000000000000006110919900000000000000000000Consumidor Final              000000000085800000000000085800000000000000000000000000000000000000000000000000000000000000000000000000000000000000000000PES00010000001N00000000000000020180810
201807310060000700000000000000611092000000000000006110929900000000000000000000Consumidor Final              000000000085800000000000085800000000000000000000000000000000000000000000000000000000000000000000000000000000000000000000PES00010000001N00000000000000020180810
201807310060000700000000000000611095000000000000006110959900000000000000000000Consumidor Final              000000000099000000000000099000000000000000000000000000000000000000000000000000000000000000000000000000000000000000000000PES00010000001N00000000000000020180810
201807310060000700000000000000611096000000000000006110969900000000000000000000Consumidor Final              000000000085000000000000085000000000000000000000000000000000000000000000000000000000000000000000000000000000000000000000PES00010000001N00000000000000020180810
201807310060000700000000000000611097000000000000006110979900000000000000000000Consumidor Final              000000000098400000000000098400000000000000000000000000000000000000000000000000000000000000000000000000000000000000000000PES00010000001N00000000000000020180810
201807310060000700000000000000611098000000000000006110989900000000000000000000Consumidor Final              000000000092000000000000092000000000000000000000000000000000000000000000000000000000000000000000000000000000000000000000PES00010000001N00000000000000020180810
201807310060000600000000000000830426000000000000008304269900000000000000000000Consumidor Final              000000000089500000000000089500000000000000000000000000000000000000000000000000000000000000000000000000000000000000000000PES00010000001N00000000000000020180810
201807310060000600000000000000830427000000000000008304279900000000000000000000Consumidor Final              000000000098400000000000098400000000000000000000000000000000000000000000000000000000000000000000000000000000000000000000PES00010000001N00000000000000020180810
201807310060000600000000000000830428000000000000008304289900000000000000000000Consumidor Final              000000000089500000000000089500000000000000000000000000000000000000000000000000000000000000000000000000000000000000000000PES00010000001N00000000000000020180810
201807310060000600000000000000830429000000000000008304299900000000000000000000Consumidor Final              000000000098500000000000098500000000000000000000000000000000000000000000000000000000000000000000000000000000000000000000PES00010000001N00000000000000020180810
201807310060000600000000000000830430000000000000008304309900000000000000000000Consumidor Final              000000000089500000000000089500000000000000000000000000000000000000000000000000000000000000000000000000000000000000000000PES00010000001N00000000000000020180810
201807310060000600000000000000830431000000000000008304319900000000000000000000Consumidor Final              000000000085800000000000085800000000000000000000000000000000000000000000000000000000000000000000000000000000000000000000PES00010000001N00000000000000020180810
201807310060000600000000000000830432000000000000008304329900000000000000000000Consumidor Final              000000000098400000000000098400000000000000000000000000000000000000000000000000000000000000000000000000000000000000000000PES00010000001N00000000000000020180810
201807310060000600000000000000830433000000000000008304339000000000099999999999Consumidor Final              000000000100000000000000100000000000000000000000000000000000000000000000000000000000000000000000000000000000000000000000PES00010000001N00000000000000020180810
201807310060000600000000000000830456000000000000008304569900000000000000000000Consumidor Final              000000000098400000000000098400000000000000000000000000000000000000000000000000000000000000000000000000000000000000000000PES00010000001N00000000000000020180810
201807310060000700000000000000611107000000000000006111079900000000000000000000Consumidor Final              000000000089500000000000089500000000000000000000000000000000000000000000000000000000000000000000000000000000000000000000PES00010000001N00000000000000020180810
201807310060000600000000000000830468000000000000008304689900000000000000000000Consumidor Final              000000000078000000000000078000000000000000000000000000000000000000000000000000000000000000000000000000000000000000000000PES00010000001N00000000000000020180810
201807310060000600000000000000830469000000000000008304699900000000000000000000Consumidor Final              000000000078000000000000078000000000000000000000000000000000000000000000000000000000000000000000000000000000000000000000PES00010000001N00000000000000020180810
201807310060000600000000000000830470000000000000008304709900000000000000000000Consumidor Final              000000000078000000000000078000000000000000000000000000000000000000000000000000000000000000000000000000000000000000000000PES00010000001N00000000000000020180810
201807310060000700000000000000611099000000000000006110999900000000000000000000Consumidor Final              000000000089500000000000089500000000000000000000000000000000000000000000000000000000000000000000000000000000000000000000PES00010000001N00000000000000020180810
201807310060000800000000000000207748000000000000002077489900000000000000000000Consumidor Final              000000000078000000000000078000000000000000000000000000000000000000000000000000000000000000000000000000000000000000000000PES00010000001N00000000000000020180810
201807310060000800000000000000207749000000000000002077499900000000000000000000Consumidor Final              000000000078000000000000078000000000000000000000000000000000000000000000000000000000000000000000000000000000000000000000PES00010000001N00000000000000020180810
201807310060000700000000000000611105000000000000006111059900000000000000000000Consumidor Final              000000000098400000000000098400000000000000000000000000000000000000000000000000000000000000000000000000000000000000000000PES00010000001N00000000000000020180810
201807310060000700000000000000611106000000000000006111069900000000000000000000Consumidor Final              000000000098400000000000098400000000000000000000000000000000000000000000000000000000000000000000000000000000000000000000PES00010000001N00000000000000020180810
201807310060000700000000000000611065000000000000006110659900000000000000000000Consumidor Final              000000000089500000000000089500000000000000000000000000000000000000000000000000000000000000000000000000000000000000000000PES00010000001N00000000000000020180810
201807310060000700000000000000611066000000000000006110669900000000000000000000Consumidor Final              000000000089500000000000089500000000000000000000000000000000000000000000000000000000000000000000000000000000000000000000PES00010000001N00000000000000020180810
201807310060000900000000000000051801000000000000000518019900000000000000000000Consumidor Final              000000000089500000000000089500000000000000000000000000000000000000000000000000000000000000000000000000000000000000000000PES00010000001N00000000000000020180810
201807310060000900000000000000051802000000000000000518029900000000000000000000Consumidor Final              000000000098400000000000098400000000000000000000000000000000000000000000000000000000000000000000000000000000000000000000PES00010000001N00000000000000020180810
201807310060000900000000000000051803000000000000000518039900000000000000000000Consumidor Final              000000000098400000000000098400000000000000000000000000000000000000000000000000000000000000000000000000000000000000000000PES00010000001N00000000000000020180810
201807310060000800000000000000207739000000000000002077399900000000000000000000Consumidor Final              000000000085000000000000085000000000000000000000000000000000000000000000000000000000000000000000000000000000000000000000PES00010000001N00000000000000020180810
201807310060000600000000000000830459000000000000008304599000000000099999999999Consumidor Final              000000000114000000000000114000000000000000000000000000000000000000000000000000000000000000000000000000000000000000000000PES00010000001N00000000000000020180810
201807310060000600000000000000830460000000000000008304609000000000099999999999Consumidor Final              000000000114000000000000114000000000000000000000000000000000000000000000000000000000000000000000000000000000000000000000PES00010000001N00000000000000020180810
201807310060000700000000000000611094000000000000006110949900000000000000000000Consumidor Final              000000000089500000000000089500000000000000000000000000000000000000000000000000000000000000000000000000000000000000000000PES00010000001N00000000000000020180810
201807310060000700000000000000611116000000000000006111169900000000000000000000Consumidor Final              000000000098400000000000098400000000000000000000000000000000000000000000000000000000000000000000000000000000000000000000PES00010000001N00000000000000020180810
201807310060000600000000000000830418000000000000008304189900000000000000000000Consumidor Final              000000000089500000000000089500000000000000000000000000000000000000000000000000000000000000000000000000000000000000000000PES00010000001N00000000000000020180810
201807310060000800000000000000207740000000000000002077409900000000000000000000Consumidor Final              000000000078000000000000078000000000000000000000000000000000000000000000000000000000000000000000000000000000000000000000PES00010000001N00000000000000020180810
201807310060000700000000000000611112000000000000006111129900000000000000000000Consumidor Final              000000000042000000000000042000000000000000000000000000000000000000000000000000000000000000000000000000000000000000000000PES00010000001N00000000000000020180810
201807310060000700000000000000611113000000000000006111139900000000000000000000Consumidor Final              000000000094000000000000094000000000000000000000000000000000000000000000000000000000000000000000000000000000000000000000PES00010000001N00000000000000020180810
201807310060000700000000000000611114000000000000006111149900000000000000000000Consumidor Final              000000000089500000000000089500000000000000000000000000000000000000000000000000000000000000000000000000000000000000000000PES00010000001N00000000000000020180810
201807310060000700000000000000611117000000000000006111179900000000000000000000Consumidor Final              000000000089500000000000089500000000000000000000000000000000000000000000000000000000000000000000000000000000000000000000PES00010000001N00000000000000020180810
201807310060000700000000000000611118000000000000006111189900000000000000000000Consumidor Final              000000000089500000000000089500000000000000000000000000000000000000000000000000000000000000000000000000000000000000000000PES00010000001N00000000000000020180810
201807310060000700000000000000611119000000000000006111199900000000000000000000Consumidor Final              000000000089500000000000089500000000000000000000000000000000000000000000000000000000000000000000000000000000000000000000PES00010000001N00000000000000020180810
201807310060000700000000000000611120000000000000006111209900000000000000000000Consumidor Final              000000000089500000000000089500000000000000000000000000000000000000000000000000000000000000000000000000000000000000000000PES00010000001N00000000000000020180810
201807310060000900000000000000051804000000000000000518049000000000099999999999Consumidor Final              000000000110000000000000110000000000000000000000000000000000000000000000000000000000000000000000000000000000000000000000PES00010000001N00000000000000020180810
201807310060000700000000000000611121000000000000006111219900000000000000000000Consumidor Final              000000000089500000000000089500000000000000000000000000000000000000000000000000000000000000000000000000000000000000000000PES00010000001N00000000000000020180810
201807310060000600000000000000830419000000000000008304199900000000000000000000Consumidor Final              000000000098400000000000098400000000000000000000000000000000000000000000000000000000000000000000000000000000000000000000PES00010000001N00000000000000020180810
201807310060000600000000000000830420000000000000008304209900000000000000000000Consumidor Final              000000000089500000000000089500000000000000000000000000000000000000000000000000000000000000000000000000000000000000000000PES00010000001N00000000000000020180810
201807310060000600000000000000830421000000000000008304219900000000000000000000Consumidor Final              000000000089500000000000089500000000000000000000000000000000000000000000000000000000000000000000000000000000000000000000PES00010000001N00000000000000020180810
201807310060000600000000000000830422000000000000008304229900000000000000000000Consumidor Final              000000000093500000000000093500000000000000000000000000000000000000000000000000000000000000000000000000000000000000000000PES00010000001N00000000000000020180810
201807310060000600000000000000830423000000000000008304239900000000000000000000Consumidor Final              000000000093500000000000093500000000000000000000000000000000000000000000000000000000000000000000000000000000000000000000PES00010000001N00000000000000020180810
201807310060000600000000000000830424000000000000008304249900000000000000000000Consumidor Final              000000000089500000000000089500000000000000000000000000000000000000000000000000000000000000000000000000000000000000000000PES00010000001N00000000000000020180810
201807310060000600000000000000830425000000000000008304259000000000099999999999Consumidor Final              000000000100000000000000100000000000000000000000000000000000000000000000000000000000000000000000000000000000000000000000PES00010000001N00000000000000020180810
201807310060000600000000000000830445000000000000008304459900000000000000000000Consumidor Final              000000000089500000000000089500000000000000000000000000000000000000000000000000000000000000000000000000000000000000000000PES00010000001N00000000000000020180810
201807310060000600000000000000830446000000000000008304469900000000000000000000Consumidor Final              000000000089500000000000089500000000000000000000000000000000000000000000000000000000000000000000000000000000000000000000PES00010000001N00000000000000020180810
201807310060000600000000000000830447000000000000008304479900000000000000000000Consumidor Final              000000000098400000000000098400000000000000000000000000000000000000000000000000000000000000000000000000000000000000000000PES00010000001N00000000000000020180810
201807310060000700000000000000611071000000000000006110719900000000000000000000Consumidor Final              000000000098400000000000098400000000000000000000000000000000000000000000000000000000000000000000000000000000000000000000PES00010000001N00000000000000020180810
201807310060000600000000000000830449000000000000008304499900000000000000000000Consumidor Final              000000000089500000000000089500000000000000000000000000000000000000000000000000000000000000000000000000000000000000000000PES00010000001N00000000000000020180810
201807310060000600000000000000830450000000000000008304509900000000000000000000Consumidor Final              000000000098400000000000098400000000000000000000000000000000000000000000000000000000000000000000000000000000000000000000PES00010000001N00000000000000020180810
201807310060000700000000000000611088000000000000006110889900000000000000000000Consumidor Final              000000000089500000000000089500000000000000000000000000000000000000000000000000000000000000000000000000000000000000000000PES00010000001N00000000000000020180810
201807310060000700000000000000611089000000000000006110899900000000000000000000Consumidor Final              000000000046200000000000046200000000000000000000000000000000000000000000000000000000000000000000000000000000000000000000PES00010000001N00000000000000020180810
201807310060000700000000000000611100000000000000006111009900000000000000000000Consumidor Final              000000000026000000000000026000000000000000000000000000000000000000000000000000000000000000000000000000000000000000000000PES00010000001N00000000000000020180810
201807310060000700000000000000611101000000000000006111019900000000000000000000Consumidor Final              000000000089500000000000089500000000000000000000000000000000000000000000000000000000000000000000000000000000000000000000PES00010000001N00000000000000020180810
201807310060000900000000000000051812000000000000000518129900000000000000000000Consumidor Final              000000000089500000000000089500000000000000000000000000000000000000000000000000000000000000000000000000000000000000000000PES00010000001N00000000000000020180810
201807310060000900000000000000051814000000000000000518149900000000000000000000Consumidor Final              000000000089500000000000089500000000000000000000000000000000000000000000000000000000000000000000000000000000000000000000PES00010000001N00000000000000020180810
201807310060000900000000000000051815000000000000000518159900000000000000000000Consumidor Final              000000000089500000000000089500000000000000000000000000000000000000000000000000000000000000000000000000000000000000000000PES00010000001N00000000000000020180810
201807310060000700000000000000611072000000000000006110729000000000099999999999Consumidor Final              000000000104500000000000104500000000000000000000000000000000000000000000000000000000000000000000000000000000000000000000PES00010000001N00000000000000020180810
201807310060000700000000000000611079000000000000006110799000000000099999999999Consumidor Final              000000000104500000000000104500000000000000000000000000000000000000000000000000000000000000000000000000000000000000000000PES00010000001N00000000000000020180810
201807310060000700000000000000611080000000000000006110809900000000000000000000Consumidor Final              000000000089500000000000089500000000000000000000000000000000000000000000000000000000000000000000000000000000000000000000PES00010000001N00000000000000020180810
201807310060000700000000000000611081000000000000006110819900000000000000000000Consumidor Final              000000000089500000000000089500000000000000000000000000000000000000000000000000000000000000000000000000000000000000000000PES00010000001N00000000000000020180810
201807310060000700000000000000611086000000000000006110869900000000000000000000Consumidor Final              000000000098400000000000098400000000000000000000000000000000000000000000000000000000000000000000000000000000000000000000PES00010000001N00000000000000020180810
201807310060000700000000000000611087000000000000006110879900000000000000000000Consumidor Final              000000000089500000000000089500000000000000000000000000000000000000000000000000000000000000000000000000000000000000000000PES00010000001N00000000000000020180810
201807310060000900000000000000051807000000000000000518079900000000000000000000Consumidor Final              000000000042000000000000042000000000000000000000000000000000000000000000000000000000000000000000000000000000000000000000PES00010000001N00000000000000020180810
201807310060000700000000000000611167000000000000006111679900000000000000000000Consumidor Final              000000000089500000000000089500000000000000000000000000000000000000000000000000000000000000000000000000000000000000000000PES00010000001N00000000000000020180810
201807310060000700000000000000611168000000000000006111689900000000000000000000Consumidor Final              000000000098400000000000098400000000000000000000000000000000000000000000000000000000000000000000000000000000000000000000PES00010000001N00000000000000020180810
201807310060000600000000000000830482000000000000008304829900000000000000000000Consumidor Final              000000000098400000000000098400000000000000000000000000000000000000000000000000000000000000000000000000000000000000000000PES00010000001N00000000000000020180810
201807310060000600000000000000830451000000000000008304519900000000000000000000Consumidor Final              000000000098400000000000098400000000000000000000000000000000000000000000000000000000000000000000000000000000000000000000PES00010000001N00000000000000020180810
201807310060000600000000000000830452000000000000008304529900000000000000000000Consumidor Final              000000000089500000000000089500000000000000000000000000000000000000000000000000000000000000000000000000000000000000000000PES00010000001N00000000000000020180810
201807310060000600000000000000830453000000000000008304539900000000000000000000Consumidor Final              000000000089500000000000089500000000000000000000000000000000000000000000000000000000000000000000000000000000000000000000PES00010000001N00000000000000020180810
201807310060000600000000000000830454000000000000008304549900000000000000000000Consumidor Final              000000000098400000000000098400000000000000000000000000000000000000000000000000000000000000000000000000000000000000000000PES00010000001N00000000000000020180810
201807310060000700000000000000611082000000000000006110829900000000000000000000Consumidor Final              000000000089500000000000089500000000000000000000000000000000000000000000000000000000000000000000000000000000000000000000PES00010000001N00000000000000020180810
201807310060000700000000000000611083000000000000006110839900000000000000000000Consumidor Final              000000000089500000000000089500000000000000000000000000000000000000000000000000000000000000000000000000000000000000000000PES00010000001N00000000000000020180810
201807310060000800000000000000207742000000000000002077429900000000000000000000Consumidor Final              000000000078000000000000078000000000000000000000000000000000000000000000000000000000000000000000000000000000000000000000PES00010000001N00000000000000020180810
201807310060000800000000000000207743000000000000002077439900000000000000000000Consumidor Final              000000000078000000000000078000000000000000000000000000000000000000000000000000000000000000000000000000000000000000000000PES00010000001N00000000000000020180810
201807310060000800000000000000207744000000000000002077449900000000000000000000Consumidor Final              000000000078000000000000078000000000000000000000000000000000000000000000000000000000000000000000000000000000000000000000PES00010000001N00000000000000020180810
201807310060000700000000000000611093000000000000006110939900000000000000000000Consumidor Final              000000000089500000000000089500000000000000000000000000000000000000000000000000000000000000000000000000000000000000000000PES00010000001N00000000000000020180810
201807310060000600000000000000830483000000000000008304839000000000099999999999Consumidor Final              000000000159800000000000159800000000000000000000000000000000000000000000000000000000000000000000000000000000000000000000PES00010000001N00000000000000020180810
201807310060000700000000000000611102000000000000006111029900000000000000000000Consumidor Final              000000000046200000000000046200000000000000000000000000000000000000000000000000000000000000000000000000000000000000000000PES00010000001N00000000000000020180810
201807310060000700000000000000611104000000000000006111049900000000000000000000Consumidor Final              000000000089500000000000089500000000000000000000000000000000000000000000000000000000000000000000000000000000000000000000PES00010000001N00000000000000020180810
201807310060000700000000000000611122000000000000006111229900000000000000000000Consumidor Final              000000000085800000000000085800000000000000000000000000000000000000000000000000000000000000000000000000000000000000000000PES00010000001N00000000000000020180810
201807310060000700000000000000611123000000000000006111239900000000000000000000Consumidor Final              000000000085800000000000085800000000000000000000000000000000000000000000000000000000000000000000000000000000000000000000PES00010000001N00000000000000020180810
201807310060000700000000000000611124000000000000006111249000000000099999999999Consumidor Final              000000000130000000000000130000000000000000000000000000000000000000000000000000000000000000000000000000000000000000000000PES00010000001N00000000000000020180810
201807310060000700000000000000611125000000000000006111259900000000000000000000Consumidor Final              000000000098400000000000098400000000000000000000000000000000000000000000000000000000000000000000000000000000000000000000PES00010000001N00000000000000020180810
201807310060000700000000000000611141000000000000006111419900000000000000000000Consumidor Final              000000000089500000000000089500000000000000000000000000000000000000000000000000000000000000000000000000000000000000000000PES00010000001N00000000000000020180810
201807310060000700000000000000611151000000000000006111519900000000000000000000Consumidor Final              000000000099000000000000099000000000000000000000000000000000000000000000000000000000000000000000000000000000000000000000PES00010000001N00000000000000020180810
201807310060000900000000000000051810000000000000000518109900000000000000000000Consumidor Final              000000000098400000000000098400000000000000000000000000000000000000000000000000000000000000000000000000000000000000000000PES00010000001N00000000000000020180810
201807310060000900000000000000051811000000000000000518119900000000000000000000Consumidor Final              000000000092000000000000092000000000000000000000000000000000000000000000000000000000000000000000000000000000000000000000PES00010000001N00000000000000020180810
201807310060000700000000000000611103000000000000006111039900000000000000000000Consumidor Final              000000000089500000000000089500000000000000000000000000000000000000000000000000000000000000000000000000000000000000000000PES00010000001N00000000000000020180810
201807310060000700000000000000611131000000000000006111319900000000000000000000Consumidor Final              000000000089500000000000089500000000000000000000000000000000000000000000000000000000000000000000000000000000000000000000PES00010000001N00000000000000020180810
201807310060000700000000000000611132000000000000006111329900000000000000000000Consumidor Final              000000000089500000000000089500000000000000000000000000000000000000000000000000000000000000000000000000000000000000000000PES00010000001N00000000000000020180810
201807310060000700000000000000611136000000000000006111369900000000000000000000Consumidor Final              000000000089500000000000089500000000000000000000000000000000000000000000000000000000000000000000000000000000000000000000PES00010000001N00000000000000020180810
201807310060000700000000000000611139000000000000006111399000000000099999999999Consumidor Final              000000000105000000000000105000000000000000000000000000000000000000000000000000000000000000000000000000000000000000000000PES00010000001N00000000000000020180810
201807310060000700000000000000611140000000000000006111409900000000000000000000Consumidor Final              000000000089500000000000089500000000000000000000000000000000000000000000000000000000000000000000000000000000000000000000PES00010000001N00000000000000020180810
201807310060000600000000000000830471000000000000008304719900000000000000000000Consumidor Final              000000000007800000000000007800000000000000000000000000000000000000000000000000000000000000000000000000000000000000000000PES00010000001N00000000000000020180810
201807310060000600000000000000830472000000000000008304729900000000000000000000Consumidor Final              000000000085000000000000085000000000000000000000000000000000000000000000000000000000000000000000000000000000000000000000PES00010000001N00000000000000020180810
201807310060000600000000000000830473000000000000008304739900000000000000000000Consumidor Final              000000000078000000000000078000000000000000000000000000000000000000000000000000000000000000000000000000000000000000000000PES00010000001N00000000000000020180810
201807310060000700000000000000611173000000000000006111739000000000099999999999Consumidor Final              000000000140000000000000140000000000000000000000000000000000000000000000000000000000000000000000000000000000000000000000PES00010000001N00000000000000020180810
201807310060000700000000000000611174000000000000006111749900000000000000000000Consumidor Final              000000000089500000000000089500000000000000000000000000000000000000000000000000000000000000000000000000000000000000000000PES00010000001N00000000000000020180810
201807310060000700000000000000611108000000000000006111089900000000000000000000Consumidor Final              000000000089500000000000089500000000000000000000000000000000000000000000000000000000000000000000000000000000000000000000PES00010000001N00000000000000020180810
201807310060000900000000000000051808000000000000000518089900000000000000000000Consumidor Final              000000000078000000000000078000000000000000000000000000000000000000000000000000000000000000000000000000000000000000000000PES00010000001N00000000000000020180810
201807310060000900000000000000051809000000000000000518099900000000000000000000Consumidor Final              000000000098400000000000098400000000000000000000000000000000000000000000000000000000000000000000000000000000000000000000PES00010000001N00000000000000020180810
201807310060000700000000000000611158000000000000006111589900000000000000000000Consumidor Final              000000000089500000000000089500000000000000000000000000000000000000000000000000000000000000000000000000000000000000000000PES00010000001N00000000000000020180810
201807310060000700000000000000611159000000000000006111599900000000000000000000Consumidor Final              000000000082000000000000082000000000000000000000000000000000000000000000000000000000000000000000000000000000000000000000PES00010000001N00000000000000020180810
201807310060000700000000000000611160000000000000006111609900000000000000000000Consumidor Final              000000000082000000000000082000000000000000000000000000000000000000000000000000000000000000000000000000000000000000000000PES00010000001N00000000000000020180810
201807310060000700000000000000611161000000000000006111619900000000000000000000Consumidor Final              000000000092000000000000092000000000000000000000000000000000000000000000000000000000000000000000000000000000000000000000PES00010000001N00000000000000020180810
201807310060000700000000000000611162000000000000006111629900000000000000000000Consumidor Final              000000000089500000000000089500000000000000000000000000000000000000000000000000000000000000000000000000000000000000000000PES00010000001N00000000000000020180810
201807310060000700000000000000611163000000000000006111639900000000000000000000Consumidor Final              000000000089500000000000089500000000000000000000000000000000000000000000000000000000000000000000000000000000000000000000PES00010000001N00000000000000020180810
201807310060000700000000000000611164000000000000006111649900000000000000000000Consumidor Final              000000000089500000000000089500000000000000000000000000000000000000000000000000000000000000000000000000000000000000000000PES00010000001N00000000000000020180810
201807310060000700000000000000611165000000000000006111659000000000099999999999Consumidor Final              000000000104500000000000104500000000000000000000000000000000000000000000000000000000000000000000000000000000000000000000PES00010000001N00000000000000020180810
201807310060000700000000000000611109000000000000006111099900000000000000000000Consumidor Final              000000000089500000000000089500000000000000000000000000000000000000000000000000000000000000000000000000000000000000000000PES00010000001N00000000000000020180810
201807310060000700000000000000611115000000000000006111159900000000000000000000Consumidor Final              000000000085000000000000085000000000000000000000000000000000000000000000000000000000000000000000000000000000000000000000PES00010000001N00000000000000020180810
201807310060000700000000000000611129000000000000006111299900000000000000000000Consumidor Final              000000000085000000000000085000000000000000000000000000000000000000000000000000000000000000000000000000000000000000000000PES00010000001N00000000000000020180810
201807310060000700000000000000611133000000000000006111339900000000000000000000Consumidor Final              000000000089500000000000089500000000000000000000000000000000000000000000000000000000000000000000000000000000000000000000PES00010000001N00000000000000020180810
201807310060000700000000000000611134000000000000006111349900000000000000000000Consumidor Final              000000000089500000000000089500000000000000000000000000000000000000000000000000000000000000000000000000000000000000000000PES00010000001N00000000000000020180810
201807310060000700000000000000611135000000000000006111359000000000099999999999Consumidor Final              000000000107000000000000107000000000000000000000000000000000000000000000000000000000000000000000000000000000000000000000PES00010000001N00000000000000020180810
201807310060000700000000000000611137000000000000006111379900000000000000000000Consumidor Final              000000000089500000000000089500000000000000000000000000000000000000000000000000000000000000000000000000000000000000000000PES00010000001N00000000000000020180810
201807310060000700000000000000611138000000000000006111389900000000000000000000Consumidor Final              000000000089500000000000089500000000000000000000000000000000000000000000000000000000000000000000000000000000000000000000PES00010000001N00000000000000020180810
201807310060000600000000000000830465000000000000008304659900000000000000000000Consumidor Final              000000000093000000000000093000000000000000000000000000000000000000000000000000000000000000000000000000000000000000000000PES00010000001N00000000000000020180810
201807310060000600000000000000830466000000000000008304669900000000000000000000Consumidor Final              000000000078000000000000078000000000000000000000000000000000000000000000000000000000000000000000000000000000000000000000PES00010000001N00000000000000020180810
201807310060000600000000000000830467000000000000008304679900000000000000000000Consumidor Final              000000000078000000000000078000000000000000000000000000000000000000000000000000000000000000000000000000000000000000000000PES00010000001N00000000000000020180810
201807310060000700000000000000611110000000000000006111109900000000000000000000Consumidor Final              000000000089500000000000089500000000000000000000000000000000000000000000000000000000000000000000000000000000000000000000PES00010000001N00000000000000020180810
201807310060000900000000000000051805000000000000000518059900000000000000000000Consumidor Final              000000000089500000000000089500000000000000000000000000000000000000000000000000000000000000000000000000000000000000000000PES00010000001N00000000000000020180810
201807310060000900000000000000051806000000000000000518069900000000000000000000Consumidor Final              000000000082000000000000082000000000000000000000000000000000000000000000000000000000000000000000000000000000000000000000PES00010000001N00000000000000020180810
201807310060000700000000000000611142000000000000006111429900000000000000000000Consumidor Final              000000000085000000000000085000000000000000000000000000000000000000000000000000000000000000000000000000000000000000000000PES00010000001N00000000000000020180810
201807310060000700000000000000611166000000000000006111669900000000000000000000Consumidor Final              000000000078000000000000078000000000000000000000000000000000000000000000000000000000000000000000000000000000000000000000PES00010000001N00000000000000020180810
201807310060000700000000000000611175000000000000006111759900000000000000000000Consumidor Final              000000000089500000000000089500000000000000000000000000000000000000000000000000000000000000000000000000000000000000000000PES00010000001N00000000000000020180810
201807310060000700000000000000611176000000000000006111769900000000000000000000Consumidor Final              000000000093500000000000093500000000000000000000000000000000000000000000000000000000000000000000000000000000000000000000PES00010000001N00000000000000020180810
201807310060000900000000000000051817000000000000000518179900000000000000000000Consumidor Final              000000000093500000000000093500000000000000000000000000000000000000000000000000000000000000000000000000000000000000000000PES00010000001N00000000000000020180810
201807310060000900000000000000051818000000000000000518189900000000000000000000Consumidor Final              000000000085000000000000085000000000000000000000000000000000000000000000000000000000000000000000000000000000000000000000PES00010000001N00000000000000020180810
201807310060000900000000000000051819000000000000000518199900000000000000000000Consumidor Final              000000000089500000000000089500000000000000000000000000000000000000000000000000000000000000000000000000000000000000000000PES00010000001N00000000000000020180810
201807310060000700000000000000611111000000000000006111119900000000000000000000Consumidor Final              000000000089500000000000089500000000000000000000000000000000000000000000000000000000000000000000000000000000000000000000PES00010000001N00000000000000020180810
201807310060000700000000000000611169000000000000006111699900000000000000000000Consumidor Final              000000000089500000000000089500000000000000000000000000000000000000000000000000000000000000000000000000000000000000000000PES00010000001N00000000000000020180810
201807310060000700000000000000611170000000000000006111709900000000000000000000Consumidor Final              000000000085000000000000085000000000000000000000000000000000000000000000000000000000000000000000000000000000000000000000PES00010000001N00000000000000020180810
201807310060000700000000000000611171000000000000006111719900000000000000000000Consumidor Final              000000000085000000000000085000000000000000000000000000000000000000000000000000000000000000000000000000000000000000000000PES00010000001N00000000000000020180810
201807310060000700000000000000611172000000000000006111729900000000000000000000Consumidor Final              000000000098400000000000098400000000000000000000000000000000000000000000000000000000000000000000000000000000000000000000PES00010000001N00000000000000020180810
201807310060000700000000000000611177000000000000006111779900000000000000000000Consumidor Final              000000000089500000000000089500000000000000000000000000000000000000000000000000000000000000000000000000000000000000000000PES00010000001N00000000000000020180810
201807310060000700000000000000611178000000000000006111789900000000000000000000Consumidor Final              000000000089500000000000089500000000000000000000000000000000000000000000000000000000000000000000000000000000000000000000PES00010000001N00000000000000020180810
201807310060000600000000000000830478000000000000008304789900000000000000000000Consumidor Final              000000000089500000000000089500000000000000000000000000000000000000000000000000000000000000000000000000000000000000000000PES00010000001N00000000000000020180810
201807310060000600000000000000830479000000000000008304799000000000099999999999Consumidor Final              000000000108000000000000108000000000000000000000000000000000000000000000000000000000000000000000000000000000000000000000PES00010000001N00000000000000020180810
201807310060000600000000000000830480000000000000008304809900000000000000000000Consumidor Final              000000000089500000000000089500000000000000000000000000000000000000000000000000000000000000000000000000000000000000000000PES00010000001N00000000000000020180810
201807310060000600000000000000830481000000000000008304819900000000000000000000Consumidor Final              000000000042000000000000042000000000000000000000000000000000000000000000000000000000000000000000000000000000000000000000PES00010000001N00000000000000020180810
201807310060000600000000000000830474000000000000008304749900000000000000000000Consumidor Final              000000000078000000000000078000000000000000000000000000000000000000000000000000000000000000000000000000000000000000000000PES00010000001N00000000000000020180810
201807310060000900000000000000051820000000000000000518209900000000000000000000Consumidor Final              000000000089500000000000089500000000000000000000000000000000000000000000000000000000000000000000000000000000000000000000PES00010000001N00000000000000020180810
201807310060000600000000000000830506000000000000008305069900000000000000000000Consumidor Final              000000000089500000000000089500000000000000000000000000000000000000000000000000000000000000000000000000000000000000000000PES00010000001N00000000000000020180810
201807310060000700000000000000611185000000000000006111859900000000000000000000Consumidor Final              000000000085000000000000085000000000000000000000000000000000000000000000000000000000000000000000000000000000000000000000PES00010000001N00000000000000020180810
201807310060000600000000000000830507000000000000008305079900000000000000000000Consumidor Final              000000000098400000000000098400000000000000000000000000000000000000000000000000000000000000000000000000000000000000000000PES00010000001N00000000000000020180810
201807310060000700000000000000611186000000000000006111869900000000000000000000Consumidor Final              000000000089500000000000089500000000000000000000000000000000000000000000000000000000000000000000000000000000000000000000PES00010000001N00000000000000020180810
201807310060000600000000000000830508000000000000008305089900000000000000000000Consumidor Final              000000000089500000000000089500000000000000000000000000000000000000000000000000000000000000000000000000000000000000000000PES00010000001N00000000000000020180810
201807310060000600000000000000830509000000000000008305099900000000000000000000Consumidor Final              000000000085000000000000085000000000000000000000000000000000000000000000000000000000000000000000000000000000000000000000PES00010000001N00000000000000020180810
201807310060000700000000000000611187000000000000006111879900000000000000000000Consumidor Final              000000000089500000000000089500000000000000000000000000000000000000000000000000000000000000000000000000000000000000000000PES00010000001N00000000000000020180810
201807310060000700000000000000611188000000000000006111889900000000000000000000Consumidor Final              000000000089500000000000089500000000000000000000000000000000000000000000000000000000000000000000000000000000000000000000PES00010000001N00000000000000020180810
201807310060000600000000000000830476000000000000008304769900000000000000000000Consumidor Final              000000000078000000000000078000000000000000000000000000000000000000000000000000000000000000000000000000000000000000000000PES00010000001N00000000000000020180810
201807310060000600000000000000830477000000000000008304779900000000000000000000Consumidor Final              000000000085800000000000085800000000000000000000000000000000000000000000000000000000000000000000000000000000000000000000PES00010000001N00000000000000020180810
201807310060000700000000000000611143000000000000006111439900000000000000000000Consumidor Final              000000000089500000000000089500000000000000000000000000000000000000000000000000000000000000000000000000000000000000000000PES00010000001N00000000000000020180810
201807310060000700000000000000611144000000000000006111449900000000000000000000Consumidor Final              000000000089500000000000089500000000000000000000000000000000000000000000000000000000000000000000000000000000000000000000PES00010000001N00000000000000020180810
201807310060000700000000000000611145000000000000006111459000000000099999999999Consumidor Final              000000000110000000000000110000000000000000000000000000000000000000000000000000000000000000000000000000000000000000000000PES00010000001N00000000000000020180810
201807310060000700000000000000611146000000000000006111469900000000000000000000Consumidor Final              000000000089500000000000089500000000000000000000000000000000000000000000000000000000000000000000000000000000000000000000PES00010000001N00000000000000020180810
201807310060000700000000000000611147000000000000006111479900000000000000000000Consumidor Final              000000000090000000000000090000000000000000000000000000000000000000000000000000000000000000000000000000000000000000000000PES00010000001N00000000000000020180810
201807310060000700000000000000611148000000000000006111489900000000000000000000Consumidor Final              000000000089500000000000089500000000000000000000000000000000000000000000000000000000000000000000000000000000000000000000PES00010000001N00000000000000020180810
201807310060000700000000000000611149000000000000006111499900000000000000000000Consumidor Final              000000000085000000000000085000000000000000000000000000000000000000000000000000000000000000000000000000000000000000000000PES00010000001N00000000000000020180810
201807310060000700000000000000611150000000000000006111509900000000000000000000Consumidor Final              000000000048400000000000048400000000000000000000000000000000000000000000000000000000000000000000000000000000000000000000PES00010000001N00000000000000020180810
201807310060000700000000000000611152000000000000006111529900000000000000000000Consumidor Final              000000000098400000000000098400000000000000000000000000000000000000000000000000000000000000000000000000000000000000000000PES00010000001N00000000000000020180810
201807310060000700000000000000611153000000000000006111539900000000000000000000Consumidor Final              000000000098400000000000098400000000000000000000000000000000000000000000000000000000000000000000000000000000000000000000PES00010000001N00000000000000020180810
201807310060000700000000000000611154000000000000006111549900000000000000000000Consumidor Final              000000000078000000000000078000000000000000000000000000000000000000000000000000000000000000000000000000000000000000000000PES00010000001N00000000000000020180810
201807310060000600000000000000830493000000000000008304939900000000000000000000Consumidor Final              000000000089500000000000089500000000000000000000000000000000000000000000000000000000000000000000000000000000000000000000PES00010000001N00000000000000020180810
201807310060000600000000000000830494000000000000008304949900000000000000000000Consumidor Final              000000000089500000000000089500000000000000000000000000000000000000000000000000000000000000000000000000000000000000000000PES00010000001N00000000000000020180810
201807310060000600000000000000830495000000000000008304959900000000000000000000Consumidor Final              000000000089500000000000089500000000000000000000000000000000000000000000000000000000000000000000000000000000000000000000PES00010000001N00000000000000020180810
201807310060000600000000000000830496000000000000008304969900000000000000000000Consumidor Final              000000000089500000000000089500000000000000000000000000000000000000000000000000000000000000000000000000000000000000000000PES00010000001N00000000000000020180810
201807310060000600000000000000830499000000000000008304999900000000000000000000Consumidor Final              000000000085000000000000085000000000000000000000000000000000000000000000000000000000000000000000000000000000000000000000PES00010000001N00000000000000020180810
201807310060000600000000000000830500000000000000008305009000000000099999999999Consumidor Final              000000000104500000000000104500000000000000000000000000000000000000000000000000000000000000000000000000000000000000000000PES00010000001N00000000000000020180810
201807310060000600000000000000830501000000000000008305019900000000000000000000Consumidor Final              000000000089500000000000089500000000000000000000000000000000000000000000000000000000000000000000000000000000000000000000PES00010000001N00000000000000020180810
201807310060000600000000000000830510000000000000008305109900000000000000000000Consumidor Final              000000000093500000000000093500000000000000000000000000000000000000000000000000000000000000000000000000000000000000000000PES00010000001N00000000000000020180810
201807310060000700000000000000611155000000000000006111559900000000000000000000Consumidor Final              000000000085000000000000085000000000000000000000000000000000000000000000000000000000000000000000000000000000000000000000PES00010000001N00000000000000020180810
201807310060000800000000000000207750000000000000002077509900000000000000000000Consumidor Final              000000000078000000000000078000000000000000000000000000000000000000000000000000000000000000000000000000000000000000000000PES00010000001N00000000000000020180810
201807310060000800000000000000207751000000000000002077519900000000000000000000Consumidor Final              000000000078000000000000078000000000000000000000000000000000000000000000000000000000000000000000000000000000000000000000PES00010000001N00000000000000020180810
201807310060000800000000000000207752000000000000002077529900000000000000000000Consumidor Final              000000000089500000000000089500000000000000000000000000000000000000000000000000000000000000000000000000000000000000000000PES00010000001N00000000000000020180810
201807310060000900000000000000051816000000000000000518169900000000000000000000Consumidor Final              000000000078000000000000078000000000000000000000000000000000000000000000000000000000000000000000000000000000000000000000PES00010000001N00000000000000020180810
201807310060000700000000000000611156000000000000006111569900000000000000000000Consumidor Final              000000000085000000000000085000000000000000000000000000000000000000000000000000000000000000000000000000000000000000000000PES00010000001N00000000000000020180810
201807310060000700000000000000611157000000000000006111579900000000000000000000Consumidor Final              000000000098400000000000098400000000000000000000000000000000000000000000000000000000000000000000000000000000000000000000PES00010000001N00000000000000020180810
201807310060000600000000000000830484000000000000008304849900000000000000000000Consumidor Final              000000000089500000000000089500000000000000000000000000000000000000000000000000000000000000000000000000000000000000000000PES00010000001N00000000000000020180810
201807310060000600000000000000830485000000000000008304859900000000000000000000Consumidor Final              000000000098400000000000098400000000000000000000000000000000000000000000000000000000000000000000000000000000000000000000PES00010000001N00000000000000020180810
201807310060000600000000000000830486000000000000008304869900000000000000000000Consumidor Final              000000000089500000000000089500000000000000000000000000000000000000000000000000000000000000000000000000000000000000000000PES00010000001N00000000000000020180810
201807310060000600000000000000830487000000000000008304879900000000000000000000Consumidor Final              000000000089500000000000089500000000000000000000000000000000000000000000000000000000000000000000000000000000000000000000PES00010000001N00000000000000020180810
201807310060000600000000000000830488000000000000008304889900000000000000000000Consumidor Final              000000000085000000000000085000000000000000000000000000000000000000000000000000000000000000000000000000000000000000000000PES00010000001N00000000000000020180810
201807310060000600000000000000830489000000000000008304899900000000000000000000Consumidor Final              000000000092000000000000092000000000000000000000000000000000000000000000000000000000000000000000000000000000000000000000PES00010000001N00000000000000020180810
201807310060000600000000000000830490000000000000008304909900000000000000000000Consumidor Final              000000000089500000000000089500000000000000000000000000000000000000000000000000000000000000000000000000000000000000000000PES00010000001N00000000000000020180810
201807310060000700000000000000611179000000000000006111799900000000000000000000Consumidor Final              000000000098400000000000098400000000000000000000000000000000000000000000000000000000000000000000000000000000000000000000PES00010000001N00000000000000020180810
201807310060000700000000000000611180000000000000006111809900000000000000000000Consumidor Final              000000000089500000000000089500000000000000000000000000000000000000000000000000000000000000000000000000000000000000000000PES00010000001N00000000000000020180810
201807310060000600000000000000830497000000000000008304979900000000000000000000Consumidor Final              000000000089500000000000089500000000000000000000000000000000000000000000000000000000000000000000000000000000000000000000PES00010000001N00000000000000020180810
201807310060000600000000000000830498000000000000008304989900000000000000000000Consumidor Final              000000000089500000000000089500000000000000000000000000000000000000000000000000000000000000000000000000000000000000000000PES00010000001N00000000000000020180810
201807310060000700000000000000611181000000000000006111819900000000000000000000Consumidor Final              000000000089500000000000089500000000000000000000000000000000000000000000000000000000000000000000000000000000000000000000PES00010000001N00000000000000020180810
201807310060000700000000000000611182000000000000006111829900000000000000000000Consumidor Final              000000000089500000000000089500000000000000000000000000000000000000000000000000000000000000000000000000000000000000000000PES00010000001N00000000000000020180810
201807310060000600000000000000830502000000000000008305029900000000000000000000Consumidor Final              000000000085000000000000085000000000000000000000000000000000000000000000000000000000000000000000000000000000000000000000PES00010000001N00000000000000020180810
201807310060000700000000000000611183000000000000006111839900000000000000000000Consumidor Final              000000000089500000000000089500000000000000000000000000000000000000000000000000000000000000000000000000000000000000000000PES00010000001N00000000000000020180810
201807310060000600000000000000830503000000000000008305039900000000000000000000Consumidor Final              000000000089500000000000089500000000000000000000000000000000000000000000000000000000000000000000000000000000000000000000PES00010000001N00000000000000020180810
201807310060000600000000000000830504000000000000008305049900000000000000000000Consumidor Final              000000000089500000000000089500000000000000000000000000000000000000000000000000000000000000000000000000000000000000000000PES00010000001N00000000000000020180810
201807310060000600000000000000830505000000000000008305059900000000000000000000Consumidor Final              000000000098400000000000098400000000000000000000000000000000000000000000000000000000000000000000000000000000000000000000PES00010000001N00000000000000020180810
201807310060000700000000000000611184000000000000006111849900000000000000000000Consumidor Final              000000000089500000000000089500000000000000000000000000000000000000000000000000000000000000000000000000000000000000000000PES00010000001N00000000000000020180810
201807310060000600000000000000830355000000000000008303559900000000000000000000Consumidor Final              000000000082000000000000082000000000000000000000000000000000000000000000000000000000000000000000000000000000000000000000PES00010000001N00000000000000020180810
201807310060000600000000000000830357000000000000008303579000000000099999999999Consumidor Final              000000000100000000000000100000000000000000000000000000000000000000000000000000000000000000000000000000000000000000000000PES00010000001N00000000000000020180810
201807310060000600000000000000830358000000000000008303589900000000000000000000Consumidor Final              000000000090000000000000090000000000000000000000000000000000000000000000000000000000000000000000000000000000000000000000PES00010000001N00000000000000020180810
