201506010060000600000000000000622164000000000000006221649900000000000000000000Consumidor Final              000000000045000000000000000000000000000000000000000000000000000000000000000000000000000000000000000000000000000000000000PES00010000001 00000000000000020150611
201506010060000600000000000000622165000000000000006221659900000000000000000000Consumidor Final              000000000045000000000000000000000000000000000000000000000000000000000000000000000000000000000000000000000000000000000000PES00010000001 00000000000000020150611
201506010060000600000000000000622166000000000000006221669900000000000000000000Consumidor Final              000000000045000000000000000000000000000000000000000000000000000000000000000000000000000000000000000000000000000000000000PES00010000001 00000000000000020150611
201506010060000700000000000000410441000000000000004104419900000000000000000000Consumidor Final              000000000054000000000000000000000000000000000000000000000000000000000000000000000000000000000000000000000000000000000000PES00010000001 00000000000000020150611
201506010060000600000000000000622209000000000000006222099900000000000000000000Consumidor Final              000000000045000000000000000000000000000000000000000000000000000000000000000000000000000000000000000000000000000000000000PES00010000001 00000000000000020150611
201506010060000800000000000000129244000000000000001292449900000000000000000000Consumidor Final              000000000035000000000000000000000000000000000000000000000000000000000000000000000000000000000000000000000000000000000000PES00010000001 00000000000000020150611
201506010060000800000000000000129245000000000000001292459900000000000000000000Consumidor Final              000000000035000000000000000000000000000000000000000000000000000000000000000000000000000000000000000000000000000000000000PES00010000001 00000000000000020150611
201506010060000800000000000000129246000000000000001292469900000000000000000000Consumidor Final              000000000035000000000000000000000000000000000000000000000000000000000000000000000000000000000000000000000000000000000000PES00010000001 00000000000000020150611
201506010060000800000000000000129247000000000000001292479900000000000000000000Consumidor Final              000000000035000000000000000000000000000000000000000000000000000000000000000000000000000000000000000000000000000000000000PES00010000001 00000000000000020150611
201506010060000800000000000000129248000000000000001292489900000000000000000000Consumidor Final              000000000035000000000000000000000000000000000000000000000000000000000000000000000000000000000000000000000000000000000000PES00010000001 00000000000000020150611
201506010060000800000000000000129249000000000000001292499900000000000000000000Consumidor Final              000000000035000000000000000000000000000000000000000000000000000000000000000000000000000000000000000000000000000000000000PES00010000001 00000000000000020150611
201506010060000800000000000000129250000000000000001292509900000000000000000000Consumidor Final              000000000035000000000000000000000000000000000000000000000000000000000000000000000000000000000000000000000000000000000000PES00010000001 00000000000000020150611
201506010060000800000000000000129251000000000000001292519900000000000000000000Consumidor Final              000000000035000000000000000000000000000000000000000000000000000000000000000000000000000000000000000000000000000000000000PES00010000001 00000000000000020150611
201506010060000800000000000000129252000000000000001292529900000000000000000000Consumidor Final              000000000035000000000000000000000000000000000000000000000000000000000000000000000000000000000000000000000000000000000000PES00010000001 00000000000000020150611
201506010060000600000000000000622222000000000000006222229900000000000000000000Consumidor Final              000000000033000000000000000000000000000000000000000000000000000000000000000000000000000000000000000000000000000000000000PES00010000001 00000000000000020150611
201506010060000600000000000000622223000000000000006222239900000000000000000000Consumidor Final              000000000045000000000000000000000000000000000000000000000000000000000000000000000000000000000000000000000000000000000000PES00010000001 00000000000000020150611
201506010060000600000000000000622224000000000000006222249900000000000000000000Consumidor Final              000000000057000000000000000000000000000000000000000000000000000000000000000000000000000000000000000000000000000000000000PES00010000001 00000000000000020150611
201506010060000700000000000000410480000000000000004104809900000000000000000000Consumidor Final              000000000054000000000000000000000000000000000000000000000000000000000000000000000000000000000000000000000000000000000000PES00010000001 00000000000000020150611
201506010060000800000000000000129259000000000000001292599900000000000000000000Consumidor Final              000000000035000000000000000000000000000000000000000000000000000000000000000000000000000000000000000000000000000000000000PES00010000001 00000000000000020150611
201506010060000800000000000000129260000000000000001292609900000000000000000000Consumidor Final              000000000035000000000000000000000000000000000000000000000000000000000000000000000000000000000000000000000000000000000000PES00010000001 00000000000000020150611
201506010060000600000000000000622242000000000000006222429900000000000000000000Consumidor Final              000000000047000000000000000000000000000000000000000000000000000000000000000000000000000000000000000000000000000000000000PES00010000001 00000000000000020150611
201506010060000600000000000000622243000000000000006222439900000000000000000000Consumidor Final              000000000045000000000000000000000000000000000000000000000000000000000000000000000000000000000000000000000000000000000000PES00010000001 00000000000000020150611
201506010060000600000000000000622244000000000000006222449900000000000000000000Consumidor Final              000000000045000000000000000000000000000000000000000000000000000000000000000000000000000000000000000000000000000000000000PES00010000001 00000000000000020150611
201506010060000600000000000000622245000000000000006222459900000000000000000000Consumidor Final              000000000045000000000000000000000000000000000000000000000000000000000000000000000000000000000000000000000000000000000000PES00010000001 00000000000000020150611
201506010060000800000000000000129261000000000000001292619900000000000000000000Consumidor Final              000000000035000000000000000000000000000000000000000000000000000000000000000000000000000000000000000000000000000000000000PES00010000001 00000000000000020150611
201506010060000600000000000000622246000000000000006222469900000000000000000000Consumidor Final              000000000045000000000000000000000000000000000000000000000000000000000000000000000000000000000000000000000000000000000000PES00010000001 00000000000000020150611
201506010060000800000000000000129262000000000000001292629900000000000000000000Consumidor Final              000000000035000000000000000000000000000000000000000000000000000000000000000000000000000000000000000000000000000000000000PES00010000001 00000000000000020150611
201506010060000800000000000000129263000000000000001292639900000000000000000000Consumidor Final              000000000035000000000000000000000000000000000000000000000000000000000000000000000000000000000000000000000000000000000000PES00010000001 00000000000000020150611
201506010060000800000000000000129264000000000000001292649900000000000000000000Consumidor Final              000000000035000000000000000000000000000000000000000000000000000000000000000000000000000000000000000000000000000000000000PES00010000001 00000000000000020150611
201506010060000600000000000000622253000000000000006222539900000000000000000000Consumidor Final              000000000045000000000000000000000000000000000000000000000000000000000000000000000000000000000000000000000000000000000000PES00010000001 00000000000000020150611
201506010060000600000000000000622254000000000000006222549900000000000000000000Consumidor Final              000000000054000000000000000000000000000000000000000000000000000000000000000000000000000000000000000000000000000000000000PES00010000001 00000000000000020150611
201506010060000600000000000000622255000000000000006222559900000000000000000000Consumidor Final              000000000045000000000000000000000000000000000000000000000000000000000000000000000000000000000000000000000000000000000000PES00010000001 00000000000000020150611
201506010060000700000000000000410561000000000000004105619900000000000000000000Consumidor Final              000000000045000000000000000000000000000000000000000000000000000000000000000000000000000000000000000000000000000000000000PES00010000001 00000000000000020150611
201506010060000700000000000000410562000000000000004105629900000000000000000000Consumidor Final              000000000045000000000000000000000000000000000000000000000000000000000000000000000000000000000000000000000000000000000000PES00010000001 00000000000000020150611
201506010060000700000000000000410563000000000000004105639900000000000000000000Consumidor Final              000000000045000000000000000000000000000000000000000000000000000000000000000000000000000000000000000000000000000000000000PES00010000001 00000000000000020150611
201506010060000700000000000000410564000000000000004105649900000000000000000000Consumidor Final              000000000045000000000000000000000000000000000000000000000000000000000000000000000000000000000000000000000000000000000000PES00010000001 00000000000000020150611
201506010060000600000000000000622300000000000000006223009900000000000000000000Consumidor Final              000000000045000000000000000000000000000000000000000000000000000000000000000000000000000000000000000000000000000000000000PES00010000001 00000000000000020150611
201506010060000600000000000000622301000000000000006223019900000000000000000000Consumidor Final              000000000045000000000000000000000000000000000000000000000000000000000000000000000000000000000000000000000000000000000000PES00010000001 00000000000000020150611
201506010060000600000000000000622302000000000000006223029900000000000000000000Consumidor Final              000000000045000000000000000000000000000000000000000000000000000000000000000000000000000000000000000000000000000000000000PES00010000001 00000000000000020150611
201506010060000600000000000000622306000000000000006223069900000000000000000000Consumidor Final              000000000045000000000000000000000000000000000000000000000000000000000000000000000000000000000000000000000000000000000000PES00010000001 00000000000000020150611
201506010060000600000000000000622307000000000000006223079900000000000000000000Consumidor Final              000000000045000000000000000000000000000000000000000000000000000000000000000000000000000000000000000000000000000000000000PES00010000001 00000000000000020150611
201506010060000700000000000000410584000000000000004105849900000000000000000000Consumidor Final              000000000045000000000000000000000000000000000000000000000000000000000000000000000000000000000000000000000000000000000000PES00010000001 00000000000000020150611
201506010060000800000000000000129312000000000000001293129900000000000000000000Consumidor Final              000000000035000000000000000000000000000000000000000000000000000000000000000000000000000000000000000000000000000000000000PES00010000001 00000000000000020150611
201506010060000800000000000000129313000000000000001293139900000000000000000000Consumidor Final              000000000035000000000000000000000000000000000000000000000000000000000000000000000000000000000000000000000000000000000000PES00010000001 00000000000000020150611
201506010060000800000000000000129314000000000000001293149900000000000000000000Consumidor Final              000000000035000000000000000000000000000000000000000000000000000000000000000000000000000000000000000000000000000000000000PES00010000001 00000000000000020150611
201506010060000600000000000000622318000000000000006223189900000000000000000000Consumidor Final              000000000045000000000000000000000000000000000000000000000000000000000000000000000000000000000000000000000000000000000000PES00010000001 00000000000000020150611
201506010060000800000000000000129316000000000000001293169900000000000000000000Consumidor Final              000000000035000000000000000000000000000000000000000000000000000000000000000000000000000000000000000000000000000000000000PES00010000001 00000000000000020150611
201506010060000700000000000000410598000000000000004105989900000000000000000000Consumidor Final              000000000045000000000000000000000000000000000000000000000000000000000000000000000000000000000000000000000000000000000000PES00010000001 00000000000000020150611
201506010060000700000000000000410599000000000000004105999900000000000000000000Consumidor Final              000000000045000000000000000000000000000000000000000000000000000000000000000000000000000000000000000000000000000000000000PES00010000001 00000000000000020150611
201506010060000800000000000000129323000000000000001293239900000000000000000000Consumidor Final              000000000042000000000000000000000000000000000000000000000000000000000000000000000000000000000000000000000000000000000000PES00010000001 00000000000000020150611
201506010060000700000000000000410607000000000000004106079900000000000000000000Consumidor Final              000000000045000000000000000000000000000000000000000000000000000000000000000000000000000000000000000000000000000000000000PES00010000001 00000000000000020150611
201506010060000700000000000000410609000000000000004106099900000000000000000000Consumidor Final              000000000056000000000000000000000000000000000000000000000000000000000000000000000000000000000000000000000000000000000000PES00010000001 00000000000000020150611
201506010060000700000000000000410610000000000000004106109900000000000000000000Consumidor Final              000000000045000000000000000000000000000000000000000000000000000000000000000000000000000000000000000000000000000000000000PES00010000001 00000000000000020150611
201506010060000700000000000000410614000000000000004106149900000000000000000000Consumidor Final              000000000054000000000000000000000000000000000000000000000000000000000000000000000000000000000000000000000000000000000000PES00010000001 00000000000000020150611
201506010060000700000000000000410616000000000000004106169900000000000000000000Consumidor Final              000000000045000000000000000000000000000000000000000000000000000000000000000000000000000000000000000000000000000000000000PES00010000001 00000000000000020150611
201506010060000700000000000000410617000000000000004106179900000000000000000000Consumidor Final              000000000045000000000000000000000000000000000000000000000000000000000000000000000000000000000000000000000000000000000000PES00010000001 00000000000000020150611
201506010060000700000000000000410618000000000000004106189900000000000000000000Consumidor Final              000000000045000000000000000000000000000000000000000000000000000000000000000000000000000000000000000000000000000000000000PES00010000001 00000000000000020150611
201506010060000700000000000000410619000000000000004106199900000000000000000000Consumidor Final              000000000045000000000000000000000000000000000000000000000000000000000000000000000000000000000000000000000000000000000000PES00010000001 00000000000000020150611
201506010060000900000000000000020343000000000000000203439900000000000000000000Consumidor Final              000000000032000000000000000000000000000000000000000000000000000000000000000000000000000000000000000000000000000000000000PES00010000001 00000000000000020150611
201506010060000700000000000000410630000000000000004106309900000000000000000000Consumidor Final              000000000057000000000000000000000000000000000000000000000000000000000000000000000000000000000000000000000000000000000000PES00010000001 00000000000000020150611
201506020060000600000000000000622343000000000000006223439900000000000000000000Consumidor Final              000000000044000000000000000000000000000000000000000000000000000000000000000000000000000000000000000000000000000000000000PES00010000001 00000000000000020150612
201506020060000600000000000000622345000000000000006223459900000000000000000000Consumidor Final              000000000043000000000000000000000000000000000000000000000000000000000000000000000000000000000000000000000000000000000000PES00010000001 00000000000000020150612
201506020060000600000000000000622346000000000000006223469900000000000000000000Consumidor Final              000000000045000000000000000000000000000000000000000000000000000000000000000000000000000000000000000000000000000000000000PES00010000001 00000000000000020150612
201506020060000600000000000000622347000000000000006223479900000000000000000000Consumidor Final              000000000043000000000000000000000000000000000000000000000000000000000000000000000000000000000000000000000000000000000000PES00010000001 00000000000000020150612
201506020060000600000000000000622348000000000000006223489900000000000000000000Consumidor Final              000000000045000000000000000000000000000000000000000000000000000000000000000000000000000000000000000000000000000000000000PES00010000001 00000000000000020150612
201506020060000600000000000000622349000000000000006223499900000000000000000000Consumidor Final              000000000035000000000000000000000000000000000000000000000000000000000000000000000000000000000000000000000000000000000000PES00010000001 00000000000000020150612
201506020060000600000000000000622350000000000000006223509900000000000000000000Consumidor Final              000000000035000000000000000000000000000000000000000000000000000000000000000000000000000000000000000000000000000000000000PES00010000001 00000000000000020150612
201506020060000600000000000000622355000000000000006223559900000000000000000000Consumidor Final              000000000045000000000000000000000000000000000000000000000000000000000000000000000000000000000000000000000000000000000000PES00010000001 00000000000000020150612
201506020060000600000000000000622356000000000000006223569900000000000000000000Consumidor Final              000000000045000000000000000000000000000000000000000000000000000000000000000000000000000000000000000000000000000000000000PES00010000001 00000000000000020150612
201506020060000600000000000000622357000000000000006223579900000000000000000000Consumidor Final              000000000045000000000000000000000000000000000000000000000000000000000000000000000000000000000000000000000000000000000000PES00010000001 00000000000000020150612
201506020060000600000000000000622358000000000000006223589900000000000000000000Consumidor Final              000000000045000000000000000000000000000000000000000000000000000000000000000000000000000000000000000000000000000000000000PES00010000001 00000000000000020150612
201506020060000600000000000000622359000000000000006223599900000000000000000000Consumidor Final              000000000045000000000000000000000000000000000000000000000000000000000000000000000000000000000000000000000000000000000000PES00010000001 00000000000000020150612
201506020060000700000000000000410672000000000000004106729900000000000000000000Consumidor Final              000000000045000000000000000000000000000000000000000000000000000000000000000000000000000000000000000000000000000000000000PES00010000001 00000000000000020150612
201506020060000700000000000000410673000000000000004106739900000000000000000000Consumidor Final              000000000043000000000000000000000000000000000000000000000000000000000000000000000000000000000000000000000000000000000000PES00010000001 00000000000000020150612
201506020060000700000000000000410710000000000000004107109900000000000000000000Consumidor Final              000000000045000000000000000000000000000000000000000000000000000000000000000000000000000000000000000000000000000000000000PES00010000001 00000000000000020150612
201506020060000600000000000000622403000000000000006224039900000000000000000000Consumidor Final              000000000059000000000000000000000000000000000000000000000000000000000000000000000000000000000000000000000000000000000000PES00010000001 00000000000000020150612
201506020060000600000000000000622404000000000000006224049900000000000000000000Consumidor Final              000000000045000000000000000000000000000000000000000000000000000000000000000000000000000000000000000000000000000000000000PES00010000001 00000000000000020150612
201506020060000800000000000000129339000000000000001293399900000000000000000000Consumidor Final              000000000035000000000000000000000000000000000000000000000000000000000000000000000000000000000000000000000000000000000000PES00010000001 00000000000000020150612
201506020060000800000000000000129340000000000000001293409900000000000000000000Consumidor Final              000000000035000000000000000000000000000000000000000000000000000000000000000000000000000000000000000000000000000000000000PES00010000001 00000000000000020150612
201506020060000800000000000000129341000000000000001293419900000000000000000000Consumidor Final              000000000035000000000000000000000000000000000000000000000000000000000000000000000000000000000000000000000000000000000000PES00010000001 00000000000000020150612
201506020060000800000000000000129342000000000000001293429900000000000000000000Consumidor Final              000000000035000000000000000000000000000000000000000000000000000000000000000000000000000000000000000000000000000000000000PES00010000001 00000000000000020150612
201506020060000800000000000000129343000000000000001293439900000000000000000000Consumidor Final              000000000035000000000000000000000000000000000000000000000000000000000000000000000000000000000000000000000000000000000000PES00010000001 00000000000000020150612
201506020060000800000000000000129344000000000000001293449900000000000000000000Consumidor Final              000000000035000000000000000000000000000000000000000000000000000000000000000000000000000000000000000000000000000000000000PES00010000001 00000000000000020150612
201506020060000600000000000000622405000000000000006224059900000000000000000000Consumidor Final              000000000045000000000000000000000000000000000000000000000000000000000000000000000000000000000000000000000000000000000000PES00010000001 00000000000000020150612
201506020060000600000000000000622406000000000000006224069900000000000000000000Consumidor Final              000000000048000000000000000000000000000000000000000000000000000000000000000000000000000000000000000000000000000000000000PES00010000001 00000000000000020150612
201506020060000600000000000000622407000000000000006224079900000000000000000000Consumidor Final              000000000045000000000000000000000000000000000000000000000000000000000000000000000000000000000000000000000000000000000000PES00010000001 00000000000000020150612
201506020060000700000000000000410715000000000000004107159900000000000000000000Consumidor Final              000000000051000000000000000000000000000000000000000000000000000000000000000000000000000000000000000000000000000000000000PES00010000001 00000000000000020150612
201506020060000700000000000000410716000000000000004107169900000000000000000000Consumidor Final              000000000054000000000000000000000000000000000000000000000000000000000000000000000000000000000000000000000000000000000000PES00010000001 00000000000000020150612
201506030060000800000000000000129404000000000000001294049900000000000000000000Consumidor Final              000000000035000000000000000000000000000000000000000000000000000000000000000000000000000000000000000000000000000000000000PES00010000001 00000000000000020150613
201506030060000300000000000000105095000000000000001050959900000000000000000000Consumidor Final              000000000045000000000000000000000000000000000000000000000000000000000000000000000000000000000000000000000000000000000000PES00010000001 00000000000000020150613
201506030060000100000000000000187331000000000000001873319900000000000000000000Consumidor Final              000000000060000000000000000000000000000000000000000000000000000000000000000000000000000000000000000000000000000000000000PES00010000001 00000000000000020150613
201506030060000600000000000000622593000000000000006225939900000000000000000000Consumidor Final              000000000045000000000000000000000000000000000000000000000000000000000000000000000000000000000000000000000000000000000000PES00010000001 00000000000000020150613
201506030060000600000000000000622594000000000000006225949900000000000000000000Consumidor Final              000000000045000000000000000000000000000000000000000000000000000000000000000000000000000000000000000000000000000000000000PES00010000001 00000000000000020150613
201506030060000700000000000000410895000000000000004108959900000000000000000000Consumidor Final              000000000045000000000000000000000000000000000000000000000000000000000000000000000000000000000000000000000000000000000000PES00010000001 00000000000000020150613
201506030060000700000000000000410896000000000000004108969900000000000000000000Consumidor Final              000000000045000000000000000000000000000000000000000000000000000000000000000000000000000000000000000000000000000000000000PES00010000001 00000000000000020150613
201506030060000700000000000000410897000000000000004108979900000000000000000000Consumidor Final              000000000045000000000000000000000000000000000000000000000000000000000000000000000000000000000000000000000000000000000000PES00010000001 00000000000000020150613
201506030060000800000000000000129416000000000000001294169900000000000000000000Consumidor Final              000000000035000000000000000000000000000000000000000000000000000000000000000000000000000000000000000000000000000000000000PES00010000001 00000000000000020150613
201506030060000800000000000000129417000000000000001294179900000000000000000000Consumidor Final              000000000035000000000000000000000000000000000000000000000000000000000000000000000000000000000000000000000000000000000000PES00010000001 00000000000000020150613
201506030060000800000000000000129418000000000000001294189900000000000000000000Consumidor Final              000000000035000000000000000000000000000000000000000000000000000000000000000000000000000000000000000000000000000000000000PES00010000001 00000000000000020150613
201506030060000600000000000000622625000000000000006226259900000000000000000000Consumidor Final              000000000045000000000000000000000000000000000000000000000000000000000000000000000000000000000000000000000000000000000000PES00010000001 00000000000000020150613
201506030060000800000000000000129424000000000000001294249900000000000000000000Consumidor Final              000000000035000000000000000000000000000000000000000000000000000000000000000000000000000000000000000000000000000000000000PES00010000001 00000000000000020150613
201506030060000800000000000000129425000000000000001294259900000000000000000000Consumidor Final              000000000035000000000000000000000000000000000000000000000000000000000000000000000000000000000000000000000000000000000000PES00010000001 00000000000000020150613
201506030060000800000000000000129405000000000000001294059900000000000000000000Consumidor Final              000000000035000000000000000000000000000000000000000000000000000000000000000000000000000000000000000000000000000000000000PES00010000001 00000000000000020150613
201506030060000800000000000000129406000000000000001294069900000000000000000000Consumidor Final              000000000035000000000000000000000000000000000000000000000000000000000000000000000000000000000000000000000000000000000000PES00010000001 00000000000000020150613
201506030060000100000000000000187330000000000000001873309900000000000000000000Consumidor Final              000000000045000000000000000000000000000000000000000000000000000000000000000000000000000000000000000000000000000000000000PES00010000001 00000000000000020150613
201506030060000600000000000000622598000000000000006225989900000000000000000000Consumidor Final              000000000045000000000000000000000000000000000000000000000000000000000000000000000000000000000000000000000000000000000000PES00010000001 00000000000000020150613
201506030060000600000000000000622599000000000000006225999900000000000000000000Consumidor Final              000000000054000000000000000000000000000000000000000000000000000000000000000000000000000000000000000000000000000000000000PES00010000001 00000000000000020150613
201506030060000600000000000000622602000000000000006226029900000000000000000000Consumidor Final              000000000045000000000000000000000000000000000000000000000000000000000000000000000000000000000000000000000000000000000000PES00010000001 00000000000000020150613
201506030060000600000000000000622603000000000000006226039900000000000000000000Consumidor Final              000000000065000000000000000000000000000000000000000000000000000000000000000000000000000000000000000000000000000000000000PES00010000001 00000000000000020150613
201506030060000600000000000000622604000000000000006226049900000000000000000000Consumidor Final              000000000045000000000000000000000000000000000000000000000000000000000000000000000000000000000000000000000000000000000000PES00010000001 00000000000000020150613
201506030060000600000000000000622605000000000000006226059900000000000000000000Consumidor Final              000000000045000000000000000000000000000000000000000000000000000000000000000000000000000000000000000000000000000000000000PES00010000001 00000000000000020150613
201506030060000800000000000000129411000000000000001294119900000000000000000000Consumidor Final              000000000035000000000000000000000000000000000000000000000000000000000000000000000000000000000000000000000000000000000000PES00010000001 00000000000000020150613
201506030060000700000000000000410898000000000000004108989900000000000000000000Consumidor Final              000000000045000000000000000000000000000000000000000000000000000000000000000000000000000000000000000000000000000000000000PES00010000001 00000000000000020150613
201506030060000600000000000000622609000000000000006226099900000000000000000000Consumidor Final              000000000054000000000000000000000000000000000000000000000000000000000000000000000000000000000000000000000000000000000000PES00010000001 00000000000000020150613
201506030060000600000000000000622610000000000000006226109900000000000000000000Consumidor Final              000000000045000000000000000000000000000000000000000000000000000000000000000000000000000000000000000000000000000000000000PES00010000001 00000000000000020150613
201506030060000600000000000000622611000000000000006226119900000000000000000000Consumidor Final              000000000045000000000000000000000000000000000000000000000000000000000000000000000000000000000000000000000000000000000000PES00010000001 00000000000000020150613
201506030060000800000000000000129419000000000000001294199900000000000000000000Consumidor Final              000000000035000000000000000000000000000000000000000000000000000000000000000000000000000000000000000000000000000000000000PES00010000001 00000000000000020150613
201506030060000800000000000000129426000000000000001294269900000000000000000000Consumidor Final              000000000035000000000000000000000000000000000000000000000000000000000000000000000000000000000000000000000000000000000000PES00010000001 00000000000000020150613
201506030060000600000000000000622650000000000000006226509900000000000000000000Consumidor Final              000000000045000000000000000000000000000000000000000000000000000000000000000000000000000000000000000000000000000000000000PES00010000001 00000000000000020150613
201506030060000600000000000000622651000000000000006226519900000000000000000000Consumidor Final              000000000045000000000000000000000000000000000000000000000000000000000000000000000000000000000000000000000000000000000000PES00010000001 00000000000000020150613
201506030060000600000000000000622652000000000000006226529900000000000000000000Consumidor Final              000000000045000000000000000000000000000000000000000000000000000000000000000000000000000000000000000000000000000000000000PES00010000001 00000000000000020150613
201506030060000600000000000000622653000000000000006226539900000000000000000000Consumidor Final              000000000045000000000000000000000000000000000000000000000000000000000000000000000000000000000000000000000000000000000000PES00010000001 00000000000000020150613
201506030060000600000000000000622654000000000000006226549900000000000000000000Consumidor Final              000000000057000000000000000000000000000000000000000000000000000000000000000000000000000000000000000000000000000000000000PES00010000001 00000000000000020150613
201506030060000600000000000000622655000000000000006226559900000000000000000000Consumidor Final              000000000045000000000000000000000000000000000000000000000000000000000000000000000000000000000000000000000000000000000000PES00010000001 00000000000000020150613
201506030060000600000000000000622656000000000000006226569900000000000000000000Consumidor Final              000000000045000000000000000000000000000000000000000000000000000000000000000000000000000000000000000000000000000000000000PES00010000001 00000000000000020150613
201506030060000600000000000000622657000000000000006226579900000000000000000000Consumidor Final              000000000045000000000000000000000000000000000000000000000000000000000000000000000000000000000000000000000000000000000000PES00010000001 00000000000000020150613
201506030060000600000000000000622666000000000000006226669900000000000000000000Consumidor Final              000000000057000000000000000000000000000000000000000000000000000000000000000000000000000000000000000000000000000000000000PES00010000001 00000000000000020150613
201506030060000600000000000000622667000000000000006226679900000000000000000000Consumidor Final              000000000045000000000000000000000000000000000000000000000000000000000000000000000000000000000000000000000000000000000000PES00010000001 00000000000000020150613
201506030060000600000000000000622668000000000000006226689900000000000000000000Consumidor Final              000000000045000000000000000000000000000000000000000000000000000000000000000000000000000000000000000000000000000000000000PES00010000001 00000000000000020150613
201506030060000600000000000000622670000000000000006226709900000000000000000000Consumidor Final              000000000045000000000000000000000000000000000000000000000000000000000000000000000000000000000000000000000000000000000000PES00010000001 00000000000000020150613
201506030060000600000000000000622617000000000000006226179900000000000000000000Consumidor Final              000000000043000000000000000000000000000000000000000000000000000000000000000000000000000000000000000000000000000000000000PES00010000001 00000000000000020150613
201506030060000600000000000000622618000000000000006226189900000000000000000000Consumidor Final              000000000045000000000000000000000000000000000000000000000000000000000000000000000000000000000000000000000000000000000000PES00010000001 00000000000000020150613
201506030060000600000000000000622658000000000000006226589900000000000000000000Consumidor Final              000000000054000000000000000000000000000000000000000000000000000000000000000000000000000000000000000000000000000000000000PES00010000001 00000000000000020150613
201506030060000600000000000000622671000000000000006226719900000000000000000000Consumidor Final              000000000045000000000000000000000000000000000000000000000000000000000000000000000000000000000000000000000000000000000000PES00010000001 00000000000000020150613
201506030060000600000000000000622672000000000000006226729900000000000000000000Consumidor Final              000000000045000000000000000000000000000000000000000000000000000000000000000000000000000000000000000000000000000000000000PES00010000001 00000000000000020150613
201506030060000600000000000000622673000000000000006226739900000000000000000000Consumidor Final              000000000045000000000000000000000000000000000000000000000000000000000000000000000000000000000000000000000000000000000000PES00010000001 00000000000000020150613
201506030060000600000000000000622674000000000000006226749900000000000000000000Consumidor Final              000000000045000000000000000000000000000000000000000000000000000000000000000000000000000000000000000000000000000000000000PES00010000001 00000000000000020150613
201506030060000600000000000000622675000000000000006226759900000000000000000000Consumidor Final              000000000045000000000000000000000000000000000000000000000000000000000000000000000000000000000000000000000000000000000000PES00010000001 00000000000000020150613
201506030060000600000000000000622676000000000000006226769900000000000000000000Consumidor Final              000000000045000000000000000000000000000000000000000000000000000000000000000000000000000000000000000000000000000000000000PES00010000001 00000000000000020150613
201506030060000600000000000000622677000000000000006226779900000000000000000000Consumidor Final              000000000045000000000000000000000000000000000000000000000000000000000000000000000000000000000000000000000000000000000000PES00010000001 00000000000000020150613
201506030060000600000000000000622678000000000000006226789900000000000000000000Consumidor Final              000000000045000000000000000000000000000000000000000000000000000000000000000000000000000000000000000000000000000000000000PES00010000001 00000000000000020150613
201506030060000600000000000000622679000000000000006226799900000000000000000000Consumidor Final              000000000045000000000000000000000000000000000000000000000000000000000000000000000000000000000000000000000000000000000000PES00010000001 00000000000000020150613
201506030060000600000000000000622680000000000000006226809900000000000000000000Consumidor Final              000000000045000000000000000000000000000000000000000000000000000000000000000000000000000000000000000000000000000000000000PES00010000001 00000000000000020150613
201506030060000600000000000000622681000000000000006226819900000000000000000000Consumidor Final              000000000045000000000000000000000000000000000000000000000000000000000000000000000000000000000000000000000000000000000000PES00010000001 00000000000000020150613
201506030060000600000000000000622623000000000000006226239900000000000000000000Consumidor Final              000000000044000000000000000000000000000000000000000000000000000000000000000000000000000000000000000000000000000000000000PES00010000001 00000000000000020150613
201506030060000600000000000000622624000000000000006226249900000000000000000000Consumidor Final              000000000045000000000000000000000000000000000000000000000000000000000000000000000000000000000000000000000000000000000000PES00010000001 00000000000000020150613
201506030060000600000000000000622630000000000000006226309900000000000000000000Consumidor Final              000000000045000000000000000000000000000000000000000000000000000000000000000000000000000000000000000000000000000000000000PES00010000001 00000000000000020150613
201506030060000600000000000000622631000000000000006226319900000000000000000000Consumidor Final              000000000045000000000000000000000000000000000000000000000000000000000000000000000000000000000000000000000000000000000000PES00010000001 00000000000000020150613
201506030060000600000000000000622632000000000000006226329900000000000000000000Consumidor Final              000000000045000000000000000000000000000000000000000000000000000000000000000000000000000000000000000000000000000000000000PES00010000001 00000000000000020150613
201506030060000600000000000000622633000000000000006226339900000000000000000000Consumidor Final              000000000045000000000000000000000000000000000000000000000000000000000000000000000000000000000000000000000000000000000000PES00010000001 00000000000000020150613
201506030060000600000000000000622642000000000000006226429900000000000000000000Consumidor Final              000000000045000000000000000000000000000000000000000000000000000000000000000000000000000000000000000000000000000000000000PES00010000001 00000000000000020150613
201506030060000600000000000000622643000000000000006226439900000000000000000000Consumidor Final              000000000045000000000000000000000000000000000000000000000000000000000000000000000000000000000000000000000000000000000000PES00010000001 00000000000000020150613
201506030060000600000000000000622644000000000000006226449900000000000000000000Consumidor Final              000000000045000000000000000000000000000000000000000000000000000000000000000000000000000000000000000000000000000000000000PES00010000001 00000000000000020150613
201506030060000600000000000000622645000000000000006226459900000000000000000000Consumidor Final              000000000087000000000000000000000000000000000000000000000000000000000000000000000000000000000000000000000000000000000000PES00010000001 00000000000000020150613
201506030060000600000000000000622646000000000000006226469900000000000000000000Consumidor Final              000000000045000000000000000000000000000000000000000000000000000000000000000000000000000000000000000000000000000000000000PES00010000001 00000000000000020150613
201506030060000600000000000000622647000000000000006226479900000000000000000000Consumidor Final              000000000045000000000000000000000000000000000000000000000000000000000000000000000000000000000000000000000000000000000000PES00010000001 00000000000000020150613
201506030060000900000000000000020361000000000000000203619900000000000000000000Consumidor Final              000000000045000000000000000000000000000000000000000000000000000000000000000000000000000000000000000000000000000000000000PES00010000001 00000000000000020150613
201506040060000700000000000000410952000000000000004109529900000000000000000000Consumidor Final              000000000045000000000000000000000000000000000000000000000000000000000000000000000000000000000000000000000000000000000000PES00010000001 00000000000000020150614
201506030060000800000000000000129427000000000000001294279900000000000000000000Consumidor Final              000000000035000000000000000000000000000000000000000000000000000000000000000000000000000000000000000000000000000000000000PES00010000001 00000000000000020150613
201506030060000800000000000000129428000000000000001294289900000000000000000000Consumidor Final              000000000035000000000000000000000000000000000000000000000000000000000000000000000000000000000000000000000000000000000000PES00010000001 00000000000000020150613
201506030060000600000000000000622626000000000000006226269900000000000000000000Consumidor Final              000000000045000000000000000000000000000000000000000000000000000000000000000000000000000000000000000000000000000000000000PES00010000001 00000000000000020150613
201506030060000600000000000000622627000000000000006226279900000000000000000000Consumidor Final              000000000045000000000000000000000000000000000000000000000000000000000000000000000000000000000000000000000000000000000000PES00010000001 00000000000000020150613
201506030060000600000000000000622628000000000000006226289900000000000000000000Consumidor Final              000000000045000000000000000000000000000000000000000000000000000000000000000000000000000000000000000000000000000000000000PES00010000001 00000000000000020150613
201506030060000600000000000000622629000000000000006226299900000000000000000000Consumidor Final              000000000045000000000000000000000000000000000000000000000000000000000000000000000000000000000000000000000000000000000000PES00010000001 00000000000000020150613
201506030060000800000000000000129429000000000000001294299900000000000000000000Consumidor Final              000000000035000000000000000000000000000000000000000000000000000000000000000000000000000000000000000000000000000000000000PES00010000001 00000000000000020150613
201506030060000600000000000000622635000000000000006226359900000000000000000000Consumidor Final              000000000045000000000000000000000000000000000000000000000000000000000000000000000000000000000000000000000000000000000000PES00010000001 00000000000000020150613
201506030060000600000000000000622636000000000000006226369900000000000000000000Consumidor Final              000000000079000000000000000000000000000000000000000000000000000000000000000000000000000000000000000000000000000000000000PES00010000001 00000000000000020150613
201506030060000600000000000000622637000000000000006226379900000000000000000000Consumidor Final              000000000054000000000000000000000000000000000000000000000000000000000000000000000000000000000000000000000000000000000000PES00010000001 00000000000000020150613
201506030060000600000000000000622638000000000000006226389900000000000000000000Consumidor Final              000000000054000000000000000000000000000000000000000000000000000000000000000000000000000000000000000000000000000000000000PES00010000001 00000000000000020150613
201506030060000600000000000000622639000000000000006226399900000000000000000000Consumidor Final              000000000045000000000000000000000000000000000000000000000000000000000000000000000000000000000000000000000000000000000000PES00010000001 00000000000000020150613
201506030060000600000000000000622640000000000000006226409900000000000000000000Consumidor Final              000000000045000000000000000000000000000000000000000000000000000000000000000000000000000000000000000000000000000000000000PES00010000001 00000000000000020150613
201506030060000600000000000000622641000000000000006226419900000000000000000000Consumidor Final              000000000045000000000000000000000000000000000000000000000000000000000000000000000000000000000000000000000000000000000000PES00010000001 00000000000000020150613
201506030060000600000000000000622685000000000000006226859900000000000000000000Consumidor Final              000000000045000000000000000000000000000000000000000000000000000000000000000000000000000000000000000000000000000000000000PES00010000001 00000000000000020150613
201506030060000700000000000000410937000000000000004109379900000000000000000000Consumidor Final              000000000045000000000000000000000000000000000000000000000000000000000000000000000000000000000000000000000000000000000000PES00010000001 00000000000000020150613
201506030060000700000000000000410938000000000000004109389900000000000000000000Consumidor Final              000000000045000000000000000000000000000000000000000000000000000000000000000000000000000000000000000000000000000000000000PES00010000001 00000000000000020150613
201506030060000700000000000000410942000000000000004109429900000000000000000000Consumidor Final              000000000045000000000000000000000000000000000000000000000000000000000000000000000000000000000000000000000000000000000000PES00010000001 00000000000000020150613
201506030060000700000000000000410943000000000000004109439900000000000000000000Consumidor Final              000000000045000000000000000000000000000000000000000000000000000000000000000000000000000000000000000000000000000000000000PES00010000001 00000000000000020150613
201506030060000700000000000000410944000000000000004109449900000000000000000000Consumidor Final              000000000054000000000000000000000000000000000000000000000000000000000000000000000000000000000000000000000000000000000000PES00010000001 00000000000000020150613
201506030060000700000000000000410945000000000000004109459900000000000000000000Consumidor Final              000000000045000000000000000000000000000000000000000000000000000000000000000000000000000000000000000000000000000000000000PES00010000001 00000000000000020150613
201506030060000700000000000000410946000000000000004109469900000000000000000000Consumidor Final              000000000054000000000000000000000000000000000000000000000000000000000000000000000000000000000000000000000000000000000000PES00010000001 00000000000000020150613
201506030060000700000000000000410947000000000000004109479900000000000000000000Consumidor Final              000000000045000000000000000000000000000000000000000000000000000000000000000000000000000000000000000000000000000000000000PES00010000001 00000000000000020150613
201506030060000700000000000000410948000000000000004109489900000000000000000000Consumidor Final              000000000045000000000000000000000000000000000000000000000000000000000000000000000000000000000000000000000000000000000000PES00010000001 00000000000000020150613
201506030060000700000000000000410949000000000000004109499900000000000000000000Consumidor Final              000000000045000000000000000000000000000000000000000000000000000000000000000000000000000000000000000000000000000000000000PES00010000001 00000000000000020150613
201506030060000700000000000000410950000000000000004109509900000000000000000000Consumidor Final              000000000045000000000000000000000000000000000000000000000000000000000000000000000000000000000000000000000000000000000000PES00010000001 00000000000000020150613
201506040060000700000000000000410951000000000000004109519900000000000000000000Consumidor Final              000000000018000000000000000000000000000000000000000000000000000000000000000000000000000000000000000000000000000000000000PES00010000001 00000000000000020150614
201506040060000600000000000000622690000000000000006226909900000000000000000000Consumidor Final              000000000045000000000000000000000000000000000000000000000000000000000000000000000000000000000000000000000000000000000000PES00010000001 00000000000000020150614
201506040060000700000000000000411028000000000000004110289900000000000000000000Consumidor Final              000000000045000000000000000000000000000000000000000000000000000000000000000000000000000000000000000000000000000000000000PES00010000001 00000000000000020150614
201506040060000700000000000000411030000000000000004110309900000000000000000000Consumidor Final              000000000045000000000000000000000000000000000000000000000000000000000000000000000000000000000000000000000000000000000000PES00010000001 00000000000000020150614
201506040060000700000000000000411033000000000000004110339900000000000000000000Consumidor Final              000000000045000000000000000000000000000000000000000000000000000000000000000000000000000000000000000000000000000000000000PES00010000001 00000000000000020150614
201506040060000700000000000000411046000000000000004110469900000000000000000000Consumidor Final              000000000045000000000000000000000000000000000000000000000000000000000000000000000000000000000000000000000000000000000000PES00010000001 00000000000000020150614
201506040060000700000000000000411047000000000000004110479900000000000000000000Consumidor Final              000000000045000000000000000000000000000000000000000000000000000000000000000000000000000000000000000000000000000000000000PES00010000001 00000000000000020150614
201506040060000700000000000000411048000000000000004110489900000000000000000000Consumidor Final              000000000045000000000000000000000000000000000000000000000000000000000000000000000000000000000000000000000000000000000000PES00010000001 00000000000000020150614
201506040060000700000000000000411049000000000000004110499900000000000000000000Consumidor Final              000000000045000000000000000000000000000000000000000000000000000000000000000000000000000000000000000000000000000000000000PES00010000001 00000000000000020150614
201506040060000700000000000000411050000000000000004110509900000000000000000000Consumidor Final              000000000054000000000000000000000000000000000000000000000000000000000000000000000000000000000000000000000000000000000000PES00010000001 00000000000000020150614
201506040060000800000000000000129440000000000000001294409900000000000000000000Consumidor Final              000000000045000000000000000000000000000000000000000000000000000000000000000000000000000000000000000000000000000000000000PES00010000001 00000000000000020150614
201506040060000700000000000000411072000000000000004110729900000000000000000000Consumidor Final              000000000045000000000000000000000000000000000000000000000000000000000000000000000000000000000000000000000000000000000000PES00010000001 00000000000000020150614
201506040060000800000000000000129441000000000000001294419900000000000000000000Consumidor Final              000000000035000000000000000000000000000000000000000000000000000000000000000000000000000000000000000000000000000000000000PES00010000001 00000000000000020150614
201506040060000800000000000000129442000000000000001294429900000000000000000000Consumidor Final              000000000035000000000000000000000000000000000000000000000000000000000000000000000000000000000000000000000000000000000000PES00010000001 00000000000000020150614
201506040060000800000000000000129443000000000000001294439900000000000000000000Consumidor Final              000000000035000000000000000000000000000000000000000000000000000000000000000000000000000000000000000000000000000000000000PES00010000001 00000000000000020150614
201506040060000700000000000000411093000000000000004110939900000000000000000000Consumidor Final              000000000057000000000000000000000000000000000000000000000000000000000000000000000000000000000000000000000000000000000000PES00010000001 00000000000000020150614
201506040060000600000000000000622762000000000000006227629900000000000000000000Consumidor Final              000000000045000000000000000000000000000000000000000000000000000000000000000000000000000000000000000000000000000000000000PES00010000001 00000000000000020150614
201506040060000600000000000000622763000000000000006227639900000000000000000000Consumidor Final              000000000045000000000000000000000000000000000000000000000000000000000000000000000000000000000000000000000000000000000000PES00010000001 00000000000000020150614
201506040060000600000000000000622764000000000000006227649900000000000000000000Consumidor Final              000000000045000000000000000000000000000000000000000000000000000000000000000000000000000000000000000000000000000000000000PES00010000001 00000000000000020150614
201506040060000600000000000000622765000000000000006227659900000000000000000000Consumidor Final              000000000045000000000000000000000000000000000000000000000000000000000000000000000000000000000000000000000000000000000000PES00010000001 00000000000000020150614
201506040060000600000000000000622766000000000000006227669900000000000000000000Consumidor Final              000000000045000000000000000000000000000000000000000000000000000000000000000000000000000000000000000000000000000000000000PES00010000001 00000000000000020150614
201506040060000600000000000000622767000000000000006227679900000000000000000000Consumidor Final              000000000045000000000000000000000000000000000000000000000000000000000000000000000000000000000000000000000000000000000000PES00010000001 00000000000000020150614
201506040060000700000000000000411112000000000000004111129900000000000000000000Consumidor Final              000000000045000000000000000000000000000000000000000000000000000000000000000000000000000000000000000000000000000000000000PES00010000001 00000000000000020150614
201506040060000700000000000000411113000000000000004111139900000000000000000000Consumidor Final              000000000045000000000000000000000000000000000000000000000000000000000000000000000000000000000000000000000000000000000000PES00010000001 00000000000000020150614
201506040060000700000000000000411114000000000000004111149900000000000000000000Consumidor Final              000000000045000000000000000000000000000000000000000000000000000000000000000000000000000000000000000000000000000000000000PES00010000001 00000000000000020150614
201506040060000600000000000000622768000000000000006227689900000000000000000000Consumidor Final              000000000051000000000000000000000000000000000000000000000000000000000000000000000000000000000000000000000000000000000000PES00010000001 00000000000000020150614
201506040060000700000000000000411115000000000000004111159900000000000000000000Consumidor Final              000000000045000000000000000000000000000000000000000000000000000000000000000000000000000000000000000000000000000000000000PES00010000001 00000000000000020150614
201506040060000700000000000000411116000000000000004111169900000000000000000000Consumidor Final              000000000045000000000000000000000000000000000000000000000000000000000000000000000000000000000000000000000000000000000000PES00010000001 00000000000000020150614
201506040060000800000000000000129459000000000000001294599900000000000000000000Consumidor Final              000000000035000000000000000000000000000000000000000000000000000000000000000000000000000000000000000000000000000000000000PES00010000001 00000000000000020150614
201506040060000600000000000000622830000000000000006228309900000000000000000000Consumidor Final              000000000045000000000000000000000000000000000000000000000000000000000000000000000000000000000000000000000000000000000000PES00010000001 00000000000000020150614
201506040060000700000000000000411141000000000000004111419900000000000000000000Consumidor Final              000000000045000000000000000000000000000000000000000000000000000000000000000000000000000000000000000000000000000000000000PES00010000001 00000000000000020150614
201506040060000700000000000000411142000000000000004111429900000000000000000000Consumidor Final              000000000045000000000000000000000000000000000000000000000000000000000000000000000000000000000000000000000000000000000000PES00010000001 00000000000000020150614
201506040060000600000000000000622845000000000000006228459900000000000000000000Consumidor Final              000000000035000000000000000000000000000000000000000000000000000000000000000000000000000000000000000000000000000000000000PES00010000001 00000000000000020150614
201506040060000600000000000000622846000000000000006228469900000000000000000000Consumidor Final              000000000068000000000000000000000000000000000000000000000000000000000000000000000000000000000000000000000000000000000000PES00010000001 00000000000000020150614
201506040060000600000000000000622847000000000000006228479900000000000000000000Consumidor Final              000000000052000000000000000000000000000000000000000000000000000000000000000000000000000000000000000000000000000000000000PES00010000001 00000000000000020150614
201506040060000600000000000000622848000000000000006228489900000000000000000000Consumidor Final              000000000045000000000000000000000000000000000000000000000000000000000000000000000000000000000000000000000000000000000000PES00010000001 00000000000000020150614
201506040060000600000000000000622849000000000000006228499900000000000000000000Consumidor Final              000000000045000000000000000000000000000000000000000000000000000000000000000000000000000000000000000000000000000000000000PES00010000001 00000000000000020150614
201506040060000600000000000000622850000000000000006228509900000000000000000000Consumidor Final              000000000045000000000000000000000000000000000000000000000000000000000000000000000000000000000000000000000000000000000000PES00010000001 00000000000000020150614
201506040060000600000000000000622851000000000000006228519900000000000000000000Consumidor Final              000000000045000000000000000000000000000000000000000000000000000000000000000000000000000000000000000000000000000000000000PES00010000001 00000000000000020150614
201506040060000600000000000000622852000000000000006228529900000000000000000000Consumidor Final              000000000045000000000000000000000000000000000000000000000000000000000000000000000000000000000000000000000000000000000000PES00010000001 00000000000000020150614
201506040060000600000000000000622876000000000000006228769900000000000000000000Consumidor Final              000000000045000000000000000000000000000000000000000000000000000000000000000000000000000000000000000000000000000000000000PES00010000001 00000000000000020150614
201506040060000600000000000000622877000000000000006228779900000000000000000000Consumidor Final              000000000045000000000000000000000000000000000000000000000000000000000000000000000000000000000000000000000000000000000000PES00010000001 00000000000000020150614
201506040060000600000000000000622875000000000000006228759900000000000000000000Consumidor Final              000000000045000000000000000000000000000000000000000000000000000000000000000000000000000000000000000000000000000000000000PES00010000001 00000000000000020150614
201506040060000700000000000000411143000000000000004111439900000000000000000000Consumidor Final              000000000045000000000000000000000000000000000000000000000000000000000000000000000000000000000000000000000000000000000000PES00010000001 00000000000000020150614
201506040060000700000000000000411144000000000000004111449900000000000000000000Consumidor Final              000000000045000000000000000000000000000000000000000000000000000000000000000000000000000000000000000000000000000000000000PES00010000001 00000000000000020150614
201506040060000700000000000000411145000000000000004111459900000000000000000000Consumidor Final              000000000045000000000000000000000000000000000000000000000000000000000000000000000000000000000000000000000000000000000000PES00010000001 00000000000000020150614
201506040060000700000000000000411146000000000000004111469900000000000000000000Consumidor Final              000000000054000000000000000000000000000000000000000000000000000000000000000000000000000000000000000000000000000000000000PES00010000001 00000000000000020150614
201506040060000700000000000000411147000000000000004111479900000000000000000000Consumidor Final              000000000045000000000000000000000000000000000000000000000000000000000000000000000000000000000000000000000000000000000000PES00010000001 00000000000000020150614
201506040060000700000000000000411177000000000000004111779900000000000000000000Consumidor Final              000000000045000000000000000000000000000000000000000000000000000000000000000000000000000000000000000000000000000000000000PES00010000001 00000000000000020150614
201506040060000600000000000000622895000000000000006228959900000000000000000000Consumidor Final              000000000045000000000000000000000000000000000000000000000000000000000000000000000000000000000000000000000000000000000000PES00010000001 00000000000000020150614
201506040060000600000000000000622896000000000000006228969900000000000000000000Consumidor Final              000000000045000000000000000000000000000000000000000000000000000000000000000000000000000000000000000000000000000000000000PES00010000001 00000000000000020150614
201506040060000600000000000000622897000000000000006228979900000000000000000000Consumidor Final              000000000045000000000000000000000000000000000000000000000000000000000000000000000000000000000000000000000000000000000000PES00010000001 00000000000000020150614
201506050060000700000000000000411192000000000000004111929900000000000000000000Consumidor Final              000000000045000000000000000000000000000000000000000000000000000000000000000000000000000000000000000000000000000000000000PES00010000001 00000000000000020150615
201506050060000700000000000000411193000000000000004111939900000000000000000000Consumidor Final              000000000045000000000000000000000000000000000000000000000000000000000000000000000000000000000000000000000000000000000000PES00010000001 00000000000000020150615
201506050060000700000000000000411194000000000000004111949900000000000000000000Consumidor Final              000000000045000000000000000000000000000000000000000000000000000000000000000000000000000000000000000000000000000000000000PES00010000001 00000000000000020150615
201506050060000700000000000000411229000000000000004112299900000000000000000000Consumidor Final              000000000033000000000000000000000000000000000000000000000000000000000000000000000000000000000000000000000000000000000000PES00010000001 00000000000000020150615
201506050060000700000000000000411231000000000000004112319900000000000000000000Consumidor Final              000000000045000000000000000000000000000000000000000000000000000000000000000000000000000000000000000000000000000000000000PES00010000001 00000000000000020150615
201506050060000700000000000000411244000000000000004112449900000000000000000000Consumidor Final              000000000045000000000000000000000000000000000000000000000000000000000000000000000000000000000000000000000000000000000000PES00010000001 00000000000000020150615
201506050060000700000000000000411245000000000000004112459900000000000000000000Consumidor Final              000000000035000000000000000000000000000000000000000000000000000000000000000000000000000000000000000000000000000000000000PES00010000001 00000000000000020150615
201506050060000700000000000000411246000000000000004112469900000000000000000000Consumidor Final              000000000045000000000000000000000000000000000000000000000000000000000000000000000000000000000000000000000000000000000000PES00010000001 00000000000000020150615
201506050060000700000000000000411247000000000000004112479900000000000000000000Consumidor Final              000000000035000000000000000000000000000000000000000000000000000000000000000000000000000000000000000000000000000000000000PES00010000001 00000000000000020150615
201506050060000700000000000000411248000000000000004112489900000000000000000000Consumidor Final              000000000048000000000000000000000000000000000000000000000000000000000000000000000000000000000000000000000000000000000000PES00010000001 00000000000000020150615
201506050060000600000000000000622924000000000000006229249900000000000000000000Consumidor Final              000000000045000000000000000000000000000000000000000000000000000000000000000000000000000000000000000000000000000000000000PES00010000001 00000000000000020150615
201506050060000600000000000000622925000000000000006229259900000000000000000000Consumidor Final              000000000035000000000000000000000000000000000000000000000000000000000000000000000000000000000000000000000000000000000000PES00010000001 00000000000000020150615
201506050060000600000000000000622926000000000000006229269900000000000000000000Consumidor Final              000000000035000000000000000000000000000000000000000000000000000000000000000000000000000000000000000000000000000000000000PES00010000001 00000000000000020150615
201506050060000600000000000000622927000000000000006229279900000000000000000000Consumidor Final              000000000045000000000000000000000000000000000000000000000000000000000000000000000000000000000000000000000000000000000000PES00010000001 00000000000000020150615
201506050060000700000000000000411254000000000000004112549900000000000000000000Consumidor Final              000000000045000000000000000000000000000000000000000000000000000000000000000000000000000000000000000000000000000000000000PES00010000001 00000000000000020150615
201506050060000700000000000000411255000000000000004112559900000000000000000000Consumidor Final              000000000054000000000000000000000000000000000000000000000000000000000000000000000000000000000000000000000000000000000000PES00010000001 00000000000000020150615
201506050060000700000000000000411256000000000000004112569900000000000000000000Consumidor Final              000000000054000000000000000000000000000000000000000000000000000000000000000000000000000000000000000000000000000000000000PES00010000001 00000000000000020150615
201506050060000600000000000000622931000000000000006229319900000000000000000000Consumidor Final              000000000045000000000000000000000000000000000000000000000000000000000000000000000000000000000000000000000000000000000000PES00010000001 00000000000000020150615
201506010060000600000000000000622167000000000000006221679900000000000000000000Consumidor Final              000000000045000000000000000000000000000000000000000000000000000000000000000000000000000000000000000000000000000000000000PES00010000001 00000000000000020150611
201506010060000700000000000000410442000000000000004104429900000000000000000000Consumidor Final              000000000057000000000000000000000000000000000000000000000000000000000000000000000000000000000000000000000000000000000000PES00010000001 00000000000000020150611
201506010060000600000000000000622171000000000000006221719900000000000000000000Consumidor Final              000000000018000000000000000000000000000000000000000000000000000000000000000000000000000000000000000000000000000000000000PES00010000001 00000000000000020150611
201506010060000600000000000000622172000000000000006221729900000000000000000000Consumidor Final              000000000054000000000000000000000000000000000000000000000000000000000000000000000000000000000000000000000000000000000000PES00010000001 00000000000000020150611
201506010060000600000000000000622173000000000000006221739900000000000000000000Consumidor Final              000000000045000000000000000000000000000000000000000000000000000000000000000000000000000000000000000000000000000000000000PES00010000001 00000000000000020150611
201506010060000600000000000000622175000000000000006221759900000000000000000000Consumidor Final              000000000043000000000000000000000000000000000000000000000000000000000000000000000000000000000000000000000000000000000000PES00010000001 00000000000000020150611
201506010060000600000000000000622177000000000000006221779900000000000000000000Consumidor Final              000000000045000000000000000000000000000000000000000000000000000000000000000000000000000000000000000000000000000000000000PES00010000001 00000000000000020150611
201506010060000600000000000000622178000000000000006221789900000000000000000000Consumidor Final              000000000045000000000000000000000000000000000000000000000000000000000000000000000000000000000000000000000000000000000000PES00010000001 00000000000000020150611
201506010060000700000000000000410443000000000000004104439900000000000000000000Consumidor Final              000000000045000000000000000000000000000000000000000000000000000000000000000000000000000000000000000000000000000000000000PES00010000001 00000000000000020150611
201506010060000600000000000000622179000000000000006221799900000000000000000000Consumidor Final              000000000045000000000000000000000000000000000000000000000000000000000000000000000000000000000000000000000000000000000000PES00010000001 00000000000000020150611
201506010060000600000000000000622180000000000000006221809900000000000000000000Consumidor Final              000000000049000000000000000000000000000000000000000000000000000000000000000000000000000000000000000000000000000000000000PES00010000001 00000000000000020150611
201506010060000700000000000000410444000000000000004104449900000000000000000000Consumidor Final              000000000045000000000000000000000000000000000000000000000000000000000000000000000000000000000000000000000000000000000000PES00010000001 00000000000000020150611
201506010060000700000000000000410445000000000000004104459900000000000000000000Consumidor Final              000000000048000000000000000000000000000000000000000000000000000000000000000000000000000000000000000000000000000000000000PES00010000001 00000000000000020150611
201506010060000600000000000000622168000000000000006221689900000000000000000000Consumidor Final              000000000045000000000000000000000000000000000000000000000000000000000000000000000000000000000000000000000000000000000000PES00010000001 00000000000000020150611
201506010060000600000000000000622169000000000000006221699900000000000000000000Consumidor Final              000000000045000000000000000000000000000000000000000000000000000000000000000000000000000000000000000000000000000000000000PES00010000001 00000000000000020150611
201506010060000600000000000000622170000000000000006221709900000000000000000000Consumidor Final              000000000054000000000000000000000000000000000000000000000000000000000000000000000000000000000000000000000000000000000000PES00010000001 00000000000000020150611
201506010060000600000000000000622174000000000000006221749900000000000000000000Consumidor Final              000000000045000000000000000000000000000000000000000000000000000000000000000000000000000000000000000000000000000000000000PES00010000001 00000000000000020150611
201506010060000600000000000000622176000000000000006221769900000000000000000000Consumidor Final              000000000045000000000000000000000000000000000000000000000000000000000000000000000000000000000000000000000000000000000000PES00010000001 00000000000000020150611
201506010060000600000000000000622181000000000000006221819900000000000000000000Consumidor Final              000000000045000000000000000000000000000000000000000000000000000000000000000000000000000000000000000000000000000000000000PES00010000001 00000000000000020150611
201506010060000600000000000000622182000000000000006221829900000000000000000000Consumidor Final              000000000045000000000000000000000000000000000000000000000000000000000000000000000000000000000000000000000000000000000000PES00010000001 00000000000000020150611
201506010060000700000000000000410446000000000000004104469900000000000000000000Consumidor Final              000000000045000000000000000000000000000000000000000000000000000000000000000000000000000000000000000000000000000000000000PES00010000001 00000000000000020150611
201506010060000700000000000000410447000000000000004104479900000000000000000000Consumidor Final              000000000045000000000000000000000000000000000000000000000000000000000000000000000000000000000000000000000000000000000000PES00010000001 00000000000000020150611
201506010060000700000000000000410448000000000000004104489900000000000000000000Consumidor Final              000000000049000000000000000000000000000000000000000000000000000000000000000000000000000000000000000000000000000000000000PES00010000001 00000000000000020150611
201506010060000600000000000000622185000000000000006221859900000000000000000000Consumidor Final              000000000035000000000000000000000000000000000000000000000000000000000000000000000000000000000000000000000000000000000000PES00010000001 00000000000000020150611
201506010060000600000000000000622183000000000000006221839900000000000000000000Consumidor Final              000000000045000000000000000000000000000000000000000000000000000000000000000000000000000000000000000000000000000000000000PES00010000001 00000000000000020150611
201506010060000600000000000000622186000000000000006221869900000000000000000000Consumidor Final              000000000045000000000000000000000000000000000000000000000000000000000000000000000000000000000000000000000000000000000000PES00010000001 00000000000000020150611
201506010060000700000000000000410449000000000000004104499900000000000000000000Consumidor Final              000000000048000000000000000000000000000000000000000000000000000000000000000000000000000000000000000000000000000000000000PES00010000001 00000000000000020150611
201506010060000600000000000000622187000000000000006221879900000000000000000000Consumidor Final              000000000045000000000000000000000000000000000000000000000000000000000000000000000000000000000000000000000000000000000000PES00010000001 00000000000000020150611
201506010060000700000000000000410453000000000000004104539900000000000000000000Consumidor Final              000000000045000000000000000000000000000000000000000000000000000000000000000000000000000000000000000000000000000000000000PES00010000001 00000000000000020150611
201506010060000700000000000000410454000000000000004104549900000000000000000000Consumidor Final              000000000045000000000000000000000000000000000000000000000000000000000000000000000000000000000000000000000000000000000000PES00010000001 00000000000000020150611
201506010060000600000000000000622184000000000000006221849900000000000000000000Consumidor Final              000000000077000000000000000000000000000000000000000000000000000000000000000000000000000000000000000000000000000000000000PES00010000001 00000000000000020150611
201506010060000700000000000000410450000000000000004104509900000000000000000000Consumidor Final              000000000045000000000000000000000000000000000000000000000000000000000000000000000000000000000000000000000000000000000000PES00010000001 00000000000000020150611
201506010060000700000000000000410451000000000000004104519900000000000000000000Consumidor Final              000000000044000000000000000000000000000000000000000000000000000000000000000000000000000000000000000000000000000000000000PES00010000001 00000000000000020150611
201506010060000700000000000000410452000000000000004104529900000000000000000000Consumidor Final              000000000045000000000000000000000000000000000000000000000000000000000000000000000000000000000000000000000000000000000000PES00010000001 00000000000000020150611
201506010060000700000000000000410456000000000000004104569900000000000000000000Consumidor Final              000000000045000000000000000000000000000000000000000000000000000000000000000000000000000000000000000000000000000000000000PES00010000001 00000000000000020150611
201506010060000700000000000000410457000000000000004104579900000000000000000000Consumidor Final              000000000045000000000000000000000000000000000000000000000000000000000000000000000000000000000000000000000000000000000000PES00010000001 00000000000000020150611
201506010060000700000000000000410458000000000000004104589900000000000000000000Consumidor Final              000000000045000000000000000000000000000000000000000000000000000000000000000000000000000000000000000000000000000000000000PES00010000001 00000000000000020150611
201506010060000700000000000000410459000000000000004104599900000000000000000000Consumidor Final              000000000045000000000000000000000000000000000000000000000000000000000000000000000000000000000000000000000000000000000000PES00010000001 00000000000000020150611
201506010060000700000000000000410460000000000000004104609900000000000000000000Consumidor Final              000000000045000000000000000000000000000000000000000000000000000000000000000000000000000000000000000000000000000000000000PES00010000001 00000000000000020150611
201506010060000700000000000000410461000000000000004104619900000000000000000000Consumidor Final              000000000045000000000000000000000000000000000000000000000000000000000000000000000000000000000000000000000000000000000000PES00010000001 00000000000000020150611
201506010060000700000000000000410462000000000000004104629900000000000000000000Consumidor Final              000000000054000000000000000000000000000000000000000000000000000000000000000000000000000000000000000000000000000000000000PES00010000001 00000000000000020150611
201506010060000600000000000000622211000000000000006222119900000000000000000000Consumidor Final              000000000045000000000000000000000000000000000000000000000000000000000000000000000000000000000000000000000000000000000000PES00010000001 00000000000000020150611
201506010060000600000000000000622212000000000000006222129900000000000000000000Consumidor Final              000000000035000000000000000000000000000000000000000000000000000000000000000000000000000000000000000000000000000000000000PES00010000001 00000000000000020150611
201506010060000600000000000000622213000000000000006222139900000000000000000000Consumidor Final              000000000045000000000000000000000000000000000000000000000000000000000000000000000000000000000000000000000000000000000000PES00010000001 00000000000000020150611
201506010060000600000000000000622188000000000000006221889900000000000000000000Consumidor Final              000000000045000000000000000000000000000000000000000000000000000000000000000000000000000000000000000000000000000000000000PES00010000001 00000000000000020150611
201506010060000600000000000000622189000000000000006221899900000000000000000000Consumidor Final              000000000035000000000000000000000000000000000000000000000000000000000000000000000000000000000000000000000000000000000000PES00010000001 00000000000000020150611
201506010060000600000000000000622190000000000000006221909900000000000000000000Consumidor Final              000000000035000000000000000000000000000000000000000000000000000000000000000000000000000000000000000000000000000000000000PES00010000001 00000000000000020150611
201506010060000600000000000000622191000000000000006221919900000000000000000000Consumidor Final              000000000042000000000000000000000000000000000000000000000000000000000000000000000000000000000000000000000000000000000000PES00010000001 00000000000000020150611
201506010060000600000000000000622192000000000000006221929900000000000000000000Consumidor Final              000000000045000000000000000000000000000000000000000000000000000000000000000000000000000000000000000000000000000000000000PES00010000001 00000000000000020150611
201506010060000600000000000000622193000000000000006221939900000000000000000000Consumidor Final              000000000045000000000000000000000000000000000000000000000000000000000000000000000000000000000000000000000000000000000000PES00010000001 00000000000000020150611
201506010060000600000000000000622205000000000000006222059900000000000000000000Consumidor Final              000000000035000000000000000000000000000000000000000000000000000000000000000000000000000000000000000000000000000000000000PES00010000001 00000000000000020150611
201506010060000700000000000000410463000000000000004104639900000000000000000000Consumidor Final              000000000035000000000000000000000000000000000000000000000000000000000000000000000000000000000000000000000000000000000000PES00010000001 00000000000000020150611
201506010060000700000000000000410464000000000000004104649900000000000000000000Consumidor Final              000000000035000000000000000000000000000000000000000000000000000000000000000000000000000000000000000000000000000000000000PES00010000001 00000000000000020150611
201506010060000700000000000000410465000000000000004104659900000000000000000000Consumidor Final              000000000045000000000000000000000000000000000000000000000000000000000000000000000000000000000000000000000000000000000000PES00010000001 00000000000000020150611
201506010060000700000000000000410466000000000000004104669900000000000000000000Consumidor Final              000000000045000000000000000000000000000000000000000000000000000000000000000000000000000000000000000000000000000000000000PES00010000001 00000000000000020150611
201506010060000700000000000000410467000000000000004104679900000000000000000000Consumidor Final              000000000045000000000000000000000000000000000000000000000000000000000000000000000000000000000000000000000000000000000000PES00010000001 00000000000000020150611
201506010060000700000000000000410468000000000000004104689900000000000000000000Consumidor Final              000000000045000000000000000000000000000000000000000000000000000000000000000000000000000000000000000000000000000000000000PES00010000001 00000000000000020150611
201506010060000700000000000000410469000000000000004104699900000000000000000000Consumidor Final              000000000045000000000000000000000000000000000000000000000000000000000000000000000000000000000000000000000000000000000000PES00010000001 00000000000000020150611
201506010060000700000000000000410455000000000000004104559900000000000000000000Consumidor Final              000000000054000000000000000000000000000000000000000000000000000000000000000000000000000000000000000000000000000000000000PES00010000001 00000000000000020150611
201506010060000600000000000000622194000000000000006221949900000000000000000000Consumidor Final              000000000045000000000000000000000000000000000000000000000000000000000000000000000000000000000000000000000000000000000000PES00010000001 00000000000000020150611
201506010060000600000000000000622195000000000000006221959900000000000000000000Consumidor Final              000000000045000000000000000000000000000000000000000000000000000000000000000000000000000000000000000000000000000000000000PES00010000001 00000000000000020150611
201506010060000600000000000000622196000000000000006221969900000000000000000000Consumidor Final              000000000035000000000000000000000000000000000000000000000000000000000000000000000000000000000000000000000000000000000000PES00010000001 00000000000000020150611
201506010060000600000000000000622197000000000000006221979900000000000000000000Consumidor Final              000000000035000000000000000000000000000000000000000000000000000000000000000000000000000000000000000000000000000000000000PES00010000001 00000000000000020150611
201506010060000600000000000000622198000000000000006221989900000000000000000000Consumidor Final              000000000043000000000000000000000000000000000000000000000000000000000000000000000000000000000000000000000000000000000000PES00010000001 00000000000000020150611
201506010060000600000000000000622199000000000000006221999900000000000000000000Consumidor Final              000000000045000000000000000000000000000000000000000000000000000000000000000000000000000000000000000000000000000000000000PES00010000001 00000000000000020150611
201506010060000600000000000000622200000000000000006222009900000000000000000000Consumidor Final              000000000045000000000000000000000000000000000000000000000000000000000000000000000000000000000000000000000000000000000000PES00010000001 00000000000000020150611
201506010060000600000000000000622201000000000000006222019900000000000000000000Consumidor Final              000000000045000000000000000000000000000000000000000000000000000000000000000000000000000000000000000000000000000000000000PES00010000001 00000000000000020150611
201506010060000600000000000000622202000000000000006222029900000000000000000000Consumidor Final              000000000045000000000000000000000000000000000000000000000000000000000000000000000000000000000000000000000000000000000000PES00010000001 00000000000000020150611
201506010060000600000000000000622203000000000000006222039900000000000000000000Consumidor Final              000000000045000000000000000000000000000000000000000000000000000000000000000000000000000000000000000000000000000000000000PES00010000001 00000000000000020150611
201506010060000600000000000000622204000000000000006222049900000000000000000000Consumidor Final              000000000045000000000000000000000000000000000000000000000000000000000000000000000000000000000000000000000000000000000000PES00010000001 00000000000000020150611
201506010060000600000000000000622206000000000000006222069900000000000000000000Consumidor Final              000000000045000000000000000000000000000000000000000000000000000000000000000000000000000000000000000000000000000000000000PES00010000001 00000000000000020150611
201506010060000600000000000000622207000000000000006222079900000000000000000000Consumidor Final              000000000043000000000000000000000000000000000000000000000000000000000000000000000000000000000000000000000000000000000000PES00010000001 00000000000000020150611
201506010060000600000000000000622208000000000000006222089900000000000000000000Consumidor Final              000000000043000000000000000000000000000000000000000000000000000000000000000000000000000000000000000000000000000000000000PES00010000001 00000000000000020150611
201506010060000600000000000000622217000000000000006222179900000000000000000000Consumidor Final              000000000046000000000000000000000000000000000000000000000000000000000000000000000000000000000000000000000000000000000000PES00010000001 00000000000000020150611
201506010060000600000000000000622218000000000000006222189900000000000000000000Consumidor Final              000000000045000000000000000000000000000000000000000000000000000000000000000000000000000000000000000000000000000000000000PES00010000001 00000000000000020150611
201506010060000700000000000000410470000000000000004104709900000000000000000000Consumidor Final              000000000045000000000000000000000000000000000000000000000000000000000000000000000000000000000000000000000000000000000000PES00010000001 00000000000000020150611
201506010060000600000000000000622219000000000000006222199900000000000000000000Consumidor Final              000000000045000000000000000000000000000000000000000000000000000000000000000000000000000000000000000000000000000000000000PES00010000001 00000000000000020150611
201506010060000600000000000000622220000000000000006222209900000000000000000000Consumidor Final              000000000045000000000000000000000000000000000000000000000000000000000000000000000000000000000000000000000000000000000000PES00010000001 00000000000000020150611
201506010060000700000000000000410471000000000000004104719900000000000000000000Consumidor Final              000000000045000000000000000000000000000000000000000000000000000000000000000000000000000000000000000000000000000000000000PES00010000001 00000000000000020150611
201506010060000700000000000000410472000000000000004104729900000000000000000000Consumidor Final              000000000045000000000000000000000000000000000000000000000000000000000000000000000000000000000000000000000000000000000000PES00010000001 00000000000000020150611
201506010060000700000000000000410473000000000000004104739900000000000000000000Consumidor Final              000000000045000000000000000000000000000000000000000000000000000000000000000000000000000000000000000000000000000000000000PES00010000001 00000000000000020150611
201506010060000700000000000000410474000000000000004104749900000000000000000000Consumidor Final              000000000045000000000000000000000000000000000000000000000000000000000000000000000000000000000000000000000000000000000000PES00010000001 00000000000000020150611
201506010060000700000000000000410475000000000000004104759900000000000000000000Consumidor Final              000000000045000000000000000000000000000000000000000000000000000000000000000000000000000000000000000000000000000000000000PES00010000001 00000000000000020150611
201506010060000700000000000000410476000000000000004104769900000000000000000000Consumidor Final              000000000045000000000000000000000000000000000000000000000000000000000000000000000000000000000000000000000000000000000000PES00010000001 00000000000000020150611
201506010060000800000000000000129242000000000000001292429900000000000000000000Consumidor Final              000000000035000000000000000000000000000000000000000000000000000000000000000000000000000000000000000000000000000000000000PES00010000001 00000000000000020150611
201506010060000800000000000000129243000000000000001292439900000000000000000000Consumidor Final              000000000035000000000000000000000000000000000000000000000000000000000000000000000000000000000000000000000000000000000000PES00010000001 00000000000000020150611
201506010060000600000000000000622210000000000000006222109900000000000000000000Consumidor Final              000000000045000000000000000000000000000000000000000000000000000000000000000000000000000000000000000000000000000000000000PES00010000001 00000000000000020150611
201506010060000700000000000000410477000000000000004104779900000000000000000000Consumidor Final              000000000045000000000000000000000000000000000000000000000000000000000000000000000000000000000000000000000000000000000000PES00010000001 00000000000000020150611
201506010060000700000000000000410478000000000000004104789900000000000000000000Consumidor Final              000000000044000000000000000000000000000000000000000000000000000000000000000000000000000000000000000000000000000000000000PES00010000001 00000000000000020150611
201506010060000700000000000000410479000000000000004104799900000000000000000000Consumidor Final              000000000045000000000000000000000000000000000000000000000000000000000000000000000000000000000000000000000000000000000000PES00010000001 00000000000000020150611
201506010060000700000000000000410482000000000000004104829900000000000000000000Consumidor Final              000000000045000000000000000000000000000000000000000000000000000000000000000000000000000000000000000000000000000000000000PES00010000001 00000000000000020150611
201506010060000700000000000000410483000000000000004104839900000000000000000000Consumidor Final              000000000045000000000000000000000000000000000000000000000000000000000000000000000000000000000000000000000000000000000000PES00010000001 00000000000000020150611
201506010060000600000000000000622225000000000000006222259900000000000000000000Consumidor Final              000000000045000000000000000000000000000000000000000000000000000000000000000000000000000000000000000000000000000000000000PES00010000001 00000000000000020150611
201506010060000600000000000000622226000000000000006222269900000000000000000000Consumidor Final              000000000045000000000000000000000000000000000000000000000000000000000000000000000000000000000000000000000000000000000000PES00010000001 00000000000000020150611
201506010060000600000000000000622227000000000000006222279900000000000000000000Consumidor Final              000000000045000000000000000000000000000000000000000000000000000000000000000000000000000000000000000000000000000000000000PES00010000001 00000000000000020150611
201506010060000600000000000000622228000000000000006222289900000000000000000000Consumidor Final              000000000045000000000000000000000000000000000000000000000000000000000000000000000000000000000000000000000000000000000000PES00010000001 00000000000000020150611
201506010060000700000000000000410484000000000000004104849900000000000000000000Consumidor Final              000000000045000000000000000000000000000000000000000000000000000000000000000000000000000000000000000000000000000000000000PES00010000001 00000000000000020150611
201506010060000700000000000000410485000000000000004104859900000000000000000000Consumidor Final              000000000045000000000000000000000000000000000000000000000000000000000000000000000000000000000000000000000000000000000000PES00010000001 00000000000000020150611
201506010060000700000000000000410486000000000000004104869900000000000000000000Consumidor Final              000000000045000000000000000000000000000000000000000000000000000000000000000000000000000000000000000000000000000000000000PES00010000001 00000000000000020150611
201506010060000700000000000000410487000000000000004104879900000000000000000000Consumidor Final              000000000045000000000000000000000000000000000000000000000000000000000000000000000000000000000000000000000000000000000000PES00010000001 00000000000000020150611
201506010060000600000000000000622214000000000000006222149900000000000000000000Consumidor Final              000000000045000000000000000000000000000000000000000000000000000000000000000000000000000000000000000000000000000000000000PES00010000001 00000000000000020150611
201506010060000600000000000000622215000000000000006222159900000000000000000000Consumidor Final              000000000045000000000000000000000000000000000000000000000000000000000000000000000000000000000000000000000000000000000000PES00010000001 00000000000000020150611
201506010060000600000000000000622216000000000000006222169900000000000000000000Consumidor Final              000000000060000000000000000000000000000000000000000000000000000000000000000000000000000000000000000000000000000000000000PES00010000001 00000000000000020150611
201506010060000600000000000000622221000000000000006222219900000000000000000000Consumidor Final              000000000045000000000000000000000000000000000000000000000000000000000000000000000000000000000000000000000000000000000000PES00010000001 00000000000000020150611
201506010060000600000000000000622229000000000000006222299900000000000000000000Consumidor Final              000000000057000000000000000000000000000000000000000000000000000000000000000000000000000000000000000000000000000000000000PES00010000001 00000000000000020150611
201506010060000600000000000000622230000000000000006222309900000000000000000000Consumidor Final              000000000045000000000000000000000000000000000000000000000000000000000000000000000000000000000000000000000000000000000000PES00010000001 00000000000000020150611
201506010060000600000000000000622241000000000000006222419900000000000000000000Consumidor Final              000000000048000000000000000000000000000000000000000000000000000000000000000000000000000000000000000000000000000000000000PES00010000001 00000000000000020150611
201506010060000700000000000000410510000000000000004105109900000000000000000000Consumidor Final              000000000051000000000000000000000000000000000000000000000000000000000000000000000000000000000000000000000000000000000000PES00010000001 00000000000000020150611
201506010060000700000000000000410511000000000000004105119900000000000000000000Consumidor Final              000000000045000000000000000000000000000000000000000000000000000000000000000000000000000000000000000000000000000000000000PES00010000001 00000000000000020150611
201506010060000700000000000000410512000000000000004105129900000000000000000000Consumidor Final              000000000045000000000000000000000000000000000000000000000000000000000000000000000000000000000000000000000000000000000000PES00010000001 00000000000000020150611
201506010060000700000000000000410513000000000000004105139900000000000000000000Consumidor Final              000000000045000000000000000000000000000000000000000000000000000000000000000000000000000000000000000000000000000000000000PES00010000001 00000000000000020150611
201506010060000700000000000000410514000000000000004105149900000000000000000000Consumidor Final              000000000045000000000000000000000000000000000000000000000000000000000000000000000000000000000000000000000000000000000000PES00010000001 00000000000000020150611
201506010060000600000000000000622247000000000000006222479900000000000000000000Consumidor Final              000000000045000000000000000000000000000000000000000000000000000000000000000000000000000000000000000000000000000000000000PES00010000001 00000000000000020150611
201506010060000700000000000000410481000000000000004104819900000000000000000000Consumidor Final              000000000045000000000000000000000000000000000000000000000000000000000000000000000000000000000000000000000000000000000000PES00010000001 00000000000000020150611
201506010060000700000000000000410494000000000000004104949900000000000000000000Consumidor Final              000000000045000000000000000000000000000000000000000000000000000000000000000000000000000000000000000000000000000000000000PES00010000001 00000000000000020150611
201506010060000700000000000000410495000000000000004104959900000000000000000000Consumidor Final              000000000045000000000000000000000000000000000000000000000000000000000000000000000000000000000000000000000000000000000000PES00010000001 00000000000000020150611
201506010060000600000000000000622233000000000000006222339900000000000000000000Consumidor Final              000000000047000000000000000000000000000000000000000000000000000000000000000000000000000000000000000000000000000000000000PES00010000001 00000000000000020150611
201506010060000700000000000000410496000000000000004104969900000000000000000000Consumidor Final              000000000045000000000000000000000000000000000000000000000000000000000000000000000000000000000000000000000000000000000000PES00010000001 00000000000000020150611
201506010060000600000000000000622261000000000000006222619900000000000000000000Consumidor Final              000000000045000000000000000000000000000000000000000000000000000000000000000000000000000000000000000000000000000000000000PES00010000001 00000000000000020150611
201506010060000600000000000000622262000000000000006222629900000000000000000000Consumidor Final              000000000045000000000000000000000000000000000000000000000000000000000000000000000000000000000000000000000000000000000000PES00010000001 00000000000000020150611
