201509010060000600000000000000636939000000000000006369399900000000000000000000Consumidor Final              000000000023000000000000000000000000000000000000000000000000000000000000000000000000000000000000000000000000000000000000PES00010000001 00000000000000020150911
201509010060000700000000000000425062000000000000004250629900000000000000000000Consumidor Final              000000000045000000000000000000000000000000000000000000000000000000000000000000000000000000000000000000000000000000000000PES00010000001 00000000000000020150911
201509010060000700000000000000425063000000000000004250639900000000000000000000Consumidor Final              000000000045000000000000000000000000000000000000000000000000000000000000000000000000000000000000000000000000000000000000PES00010000001 00000000000000020150911
201509010060000600000000000000636941000000000000006369419900000000000000000000Consumidor Final              000000000045000000000000000000000000000000000000000000000000000000000000000000000000000000000000000000000000000000000000PES00010000001 00000000000000020150911
201509010060000600000000000000636942000000000000006369429900000000000000000000Consumidor Final              000000000045000000000000000000000000000000000000000000000000000000000000000000000000000000000000000000000000000000000000PES00010000001 00000000000000020150911
201509010060000700000000000000425068000000000000004250689900000000000000000000Consumidor Final              000000000045000000000000000000000000000000000000000000000000000000000000000000000000000000000000000000000000000000000000PES00010000001 00000000000000020150911
201509010060000700000000000000425069000000000000004250699900000000000000000000Consumidor Final              000000000045000000000000000000000000000000000000000000000000000000000000000000000000000000000000000000000000000000000000PES00010000001 00000000000000020150911
201509010060000700000000000000425070000000000000004250709900000000000000000000Consumidor Final              000000000045000000000000000000000000000000000000000000000000000000000000000000000000000000000000000000000000000000000000PES00010000001 00000000000000020150911
201509010060000700000000000000425071000000000000004250719900000000000000000000Consumidor Final              000000000045000000000000000000000000000000000000000000000000000000000000000000000000000000000000000000000000000000000000PES00010000001 00000000000000020150911
201509010010000600000000000000006218000000000000000062188000000000030641405554AEROLINEAS ARGENTINAS S.A.    000000000054000000000000000000000000000000000000000000000000000000000000000000000000000000000000000000000000000000000000PES00010000001 00000000000000020150911
201509010010000600000000000000006219000000000000000062198000000000030641405554AEROLINEAS ARGENTINAS S.A.    000000000035000000000000000000000000000000000000000000000000000000000000000000000000000000000000000000000000000000000000PES00010000001 00000000000000020150911
201509010060000600000000000000636945000000000000006369459900000000000000000000Consumidor Final              000000000045000000000000000000000000000000000000000000000000000000000000000000000000000000000000000000000000000000000000PES00010000001 00000000000000020150911
201509010010000600000000000000006220000000000000000062208000000000030641405554AEROLINEAS ARGENTINAS S.A.    000000000035000000000000000000000000000000000000000000000000000000000000000000000000000000000000000000000000000000000000PES00010000001 00000000000000020150911
201509010060000700000000000000425079000000000000004250799900000000000000000000Consumidor Final              000000000045000000000000000000000000000000000000000000000000000000000000000000000000000000000000000000000000000000000000PES00010000001 00000000000000020150911
201509030060000700000000000000425283000000000000004252839900000000000000000000Consumidor Final              000000000045000000000000000000000000000000000000000000000000000000000000000000000000000000000000000000000000000000000000PES00010000001 00000000000000020150913
201509030060000700000000000000425284000000000000004252849900000000000000000000Consumidor Final              000000000045000000000000000000000000000000000000000000000000000000000000000000000000000000000000000000000000000000000000PES00010000001 00000000000000020150913
201509030060000700000000000000425286000000000000004252869900000000000000000000Consumidor Final              000000000045000000000000000000000000000000000000000000000000000000000000000000000000000000000000000000000000000000000000PES00010000001 00000000000000020150913
201509030060000600000000000000637293000000000000006372939900000000000000000000Consumidor Final              000000000045000000000000000000000000000000000000000000000000000000000000000000000000000000000000000000000000000000000000PES00010000001 00000000000000020150913
201509030060000700000000000000425287000000000000004252879900000000000000000000Consumidor Final              000000000045000000000000000000000000000000000000000000000000000000000000000000000000000000000000000000000000000000000000PES00010000001 00000000000000020150913
201509030060000600000000000000637294000000000000006372949900000000000000000000Consumidor Final              000000000045000000000000000000000000000000000000000000000000000000000000000000000000000000000000000000000000000000000000PES00010000001 00000000000000020150913
201509030060000700000000000000425290000000000000004252909900000000000000000000Consumidor Final              000000000045000000000000000000000000000000000000000000000000000000000000000000000000000000000000000000000000000000000000PES00010000001 00000000000000020150913
201509030060000600000000000000637301000000000000006373019900000000000000000000Consumidor Final              000000000045000000000000000000000000000000000000000000000000000000000000000000000000000000000000000000000000000000000000PES00010000001 00000000000000020150913
201509030060000700000000000000425292000000000000004252929900000000000000000000Consumidor Final              000000000045000000000000000000000000000000000000000000000000000000000000000000000000000000000000000000000000000000000000PES00010000001 00000000000000020150913
201509030060000600000000000000637302000000000000006373029900000000000000000000Consumidor Final              000000000045000000000000000000000000000000000000000000000000000000000000000000000000000000000000000000000000000000000000PES00010000001 00000000000000020150913
201509030060000600000000000000637303000000000000006373039900000000000000000000Consumidor Final              000000000054000000000000000000000000000000000000000000000000000000000000000000000000000000000000000000000000000000000000PES00010000001 00000000000000020150913
201509030060000700000000000000425293000000000000004252939900000000000000000000Consumidor Final              000000000044000000000000000000000000000000000000000000000000000000000000000000000000000000000000000000000000000000000000PES00010000001 00000000000000020150913
201509030060000600000000000000637304000000000000006373049900000000000000000000Consumidor Final              000000000054000000000000000000000000000000000000000000000000000000000000000000000000000000000000000000000000000000000000PES00010000001 00000000000000020150913
201509040060000700000000000000425630000000000000004256309900000000000000000000Consumidor Final              000000000045000000000000000000000000000000000000000000000000000000000000000000000000000000000000000000000000000000000000PES00010000001 00000000000000020150914
201509040060000700000000000000425631000000000000004256319900000000000000000000Consumidor Final              000000000044000000000000000000000000000000000000000000000000000000000000000000000000000000000000000000000000000000000000PES00010000001 00000000000000020150914
201509040060000700000000000000425632000000000000004256329900000000000000000000Consumidor Final              000000000045000000000000000000000000000000000000000000000000000000000000000000000000000000000000000000000000000000000000PES00010000001 00000000000000020150914
201509040010000700000000000000003050000000000000000030508000000000030632465137ALUSTIN SA                    000000000045000000000000000000000000000000000000000000000000000000000000000000000000000000000000000000000000000000000000PES00010000001 00000000000000020150914
201509040060000700000000000000425633000000000000004256339900000000000000000000Consumidor Final              000000000045000000000000000000000000000000000000000000000000000000000000000000000000000000000000000000000000000000000000PES00010000001 00000000000000020150914
201509040060000700000000000000425634000000000000004256349900000000000000000000Consumidor Final              000000000045000000000000000000000000000000000000000000000000000000000000000000000000000000000000000000000000000000000000PES00010000001 00000000000000020150914
201509040060000700000000000000425635000000000000004256359900000000000000000000Consumidor Final              000000000057000000000000000000000000000000000000000000000000000000000000000000000000000000000000000000000000000000000000PES00010000001 00000000000000020150914
201509040060000700000000000000425636000000000000004256369900000000000000000000Consumidor Final              000000000045000000000000000000000000000000000000000000000000000000000000000000000000000000000000000000000000000000000000PES00010000001 00000000000000020150914
201509040060000700000000000000425643000000000000004256439900000000000000000000Consumidor Final              000000000045000000000000000000000000000000000000000000000000000000000000000000000000000000000000000000000000000000000000PES00010000001 00000000000000020150914
201509040060000700000000000000425644000000000000004256449900000000000000000000Consumidor Final              000000000045000000000000000000000000000000000000000000000000000000000000000000000000000000000000000000000000000000000000PES00010000001 00000000000000020150914
201509040060000700000000000000425645000000000000004256459900000000000000000000Consumidor Final              000000000045000000000000000000000000000000000000000000000000000000000000000000000000000000000000000000000000000000000000PES00010000001 00000000000000020150914
201509040060000700000000000000425651000000000000004256519900000000000000000000Consumidor Final              000000000045000000000000000000000000000000000000000000000000000000000000000000000000000000000000000000000000000000000000PES00010000001 00000000000000020150914
201509040060000700000000000000425652000000000000004256529900000000000000000000Consumidor Final              000000000045000000000000000000000000000000000000000000000000000000000000000000000000000000000000000000000000000000000000PES00010000001 00000000000000020150914
201509040060000900000000000000022872000000000000000228729900000000000000000000Consumidor Final              000000000045000000000000000000000000000000000000000000000000000000000000000000000000000000000000000000000000000000000000PES00010000001 00000000000000020150914
201509160060000800000000000000138397000000000000001383979900000000000000000000Consumidor Final              000000000035000000000000000000000000000000000000000000000000000000000000000000000000000000000000000000000000000000000000PES00010000001 00000000000000020150926
201509160060000600000000000000639406000000000000006394069900000000000000000000Consumidor Final              000000000054000000000000000000000000000000000000000000000000000000000000000000000000000000000000000000000000000000000000PES00010000001 00000000000000020150926
201509160060000600000000000000639407000000000000006394079900000000000000000000Consumidor Final              000000000045000000000000000000000000000000000000000000000000000000000000000000000000000000000000000000000000000000000000PES00010000001 00000000000000020150926
201509160060000800000000000000138398000000000000001383989900000000000000000000Consumidor Final              000000000035000000000000000000000000000000000000000000000000000000000000000000000000000000000000000000000000000000000000PES00010000001 00000000000000020150926
201509160060000800000000000000138399000000000000001383999900000000000000000000Consumidor Final              000000000035000000000000000000000000000000000000000000000000000000000000000000000000000000000000000000000000000000000000PES00010000001 00000000000000020150926
201509160060000800000000000000138400000000000000001384009900000000000000000000Consumidor Final              000000000035000000000000000000000000000000000000000000000000000000000000000000000000000000000000000000000000000000000000PES00010000001 00000000000000020150926
201509160060000800000000000000138401000000000000001384019900000000000000000000Consumidor Final              000000000035000000000000000000000000000000000000000000000000000000000000000000000000000000000000000000000000000000000000PES00010000001 00000000000000020150926
201509160060000600000000000000639412000000000000006394129900000000000000000000Consumidor Final              000000000045000000000000000000000000000000000000000000000000000000000000000000000000000000000000000000000000000000000000PES00010000001 00000000000000020150926
201509160060000800000000000000138402000000000000001384029900000000000000000000Consumidor Final              000000000035000000000000000000000000000000000000000000000000000000000000000000000000000000000000000000000000000000000000PES00010000001 00000000000000020150926
201509160060000800000000000000138403000000000000001384039900000000000000000000Consumidor Final              000000000035000000000000000000000000000000000000000000000000000000000000000000000000000000000000000000000000000000000000PES00010000001 00000000000000020150926
201509160060000800000000000000138404000000000000001384049900000000000000000000Consumidor Final              000000000035000000000000000000000000000000000000000000000000000000000000000000000000000000000000000000000000000000000000PES00010000001 00000000000000020150926
201509160060000700000000000000427375000000000000004273759900000000000000000000Consumidor Final              000000000045000000000000000000000000000000000000000000000000000000000000000000000000000000000000000000000000000000000000PES00010000001 00000000000000020150926
201509160060000600000000000000639420000000000000006394209900000000000000000000Consumidor Final              000000000045000000000000000000000000000000000000000000000000000000000000000000000000000000000000000000000000000000000000PES00010000001 00000000000000020150926
201509160060000600000000000000639421000000000000006394219900000000000000000000Consumidor Final              000000000045000000000000000000000000000000000000000000000000000000000000000000000000000000000000000000000000000000000000PES00010000001 00000000000000020150926
201509160060000300000000000000106525000000000000001065259900000000000000000000Consumidor Final              000000000045000000000000000000000000000000000000000000000000000000000000000000000000000000000000000000000000000000000000PES00010000001 00000000000000020150926
201509160060000700000000000000427364000000000000004273649900000000000000000000Consumidor Final              000000000045000000000000000000000000000000000000000000000000000000000000000000000000000000000000000000000000000000000000PES00010000001 00000000000000020150926
201509160060000700000000000000427365000000000000004273659900000000000000000000Consumidor Final              000000000045000000000000000000000000000000000000000000000000000000000000000000000000000000000000000000000000000000000000PES00010000001 00000000000000020150926
201509160060000400000000000000012369000000000000000123699900000000000000000000Consumidor Final              000000000045000000000000000000000000000000000000000000000000000000000000000000000000000000000000000000000000000000000000PES00010000001 00000000000000020150926
201509160060000700000000000000427366000000000000004273669900000000000000000000Consumidor Final              000000000043000000000000000000000000000000000000000000000000000000000000000000000000000000000000000000000000000000000000PES00010000001 00000000000000020150926
201509160060000600000000000000639417000000000000006394179900000000000000000000Consumidor Final              000000000043000000000000000000000000000000000000000000000000000000000000000000000000000000000000000000000000000000000000PES00010000001 00000000000000020150926
201509160060000600000000000000639434000000000000006394349900000000000000000000Consumidor Final              000000000051000000000000000000000000000000000000000000000000000000000000000000000000000000000000000000000000000000000000PES00010000001 00000000000000020150926
201509160060000600000000000000639435000000000000006394359900000000000000000000Consumidor Final              000000000045000000000000000000000000000000000000000000000000000000000000000000000000000000000000000000000000000000000000PES00010000001 00000000000000020150926
201509160060000600000000000000639436000000000000006394369900000000000000000000Consumidor Final              000000000045000000000000000000000000000000000000000000000000000000000000000000000000000000000000000000000000000000000000PES00010000001 00000000000000020150926
201509160060000600000000000000639437000000000000006394379900000000000000000000Consumidor Final              000000000045000000000000000000000000000000000000000000000000000000000000000000000000000000000000000000000000000000000000PES00010000001 00000000000000020150926
201509160060000600000000000000639438000000000000006394389900000000000000000000Consumidor Final              000000000045000000000000000000000000000000000000000000000000000000000000000000000000000000000000000000000000000000000000PES00010000001 00000000000000020150926
201509160060000800000000000000138418000000000000001384189900000000000000000000Consumidor Final              000000000035000000000000000000000000000000000000000000000000000000000000000000000000000000000000000000000000000000000000PES00010000001 00000000000000020150926
201509160060000800000000000000138419000000000000001384199900000000000000000000Consumidor Final              000000000035000000000000000000000000000000000000000000000000000000000000000000000000000000000000000000000000000000000000PES00010000001 00000000000000020150926
201509160060000800000000000000138420000000000000001384209900000000000000000000Consumidor Final              000000000035000000000000000000000000000000000000000000000000000000000000000000000000000000000000000000000000000000000000PES00010000001 00000000000000020150926
201509160060000600000000000000639445000000000000006394459900000000000000000000Consumidor Final              000000000045000000000000000000000000000000000000000000000000000000000000000000000000000000000000000000000000000000000000PES00010000001 00000000000000020150926
201509160060000600000000000000639446000000000000006394469900000000000000000000Consumidor Final              000000000045000000000000000000000000000000000000000000000000000000000000000000000000000000000000000000000000000000000000PES00010000001 00000000000000020150926
201509160060000700000000000000427370000000000000004273709900000000000000000000Consumidor Final              000000000045000000000000000000000000000000000000000000000000000000000000000000000000000000000000000000000000000000000000PES00010000001 00000000000000020150926
201509160060000900000000000000023124000000000000000231249900000000000000000000Consumidor Final              000000000057000000000000000000000000000000000000000000000000000000000000000000000000000000000000000000000000000000000000PES00010000001 00000000000000020150926
201509160060000600000000000000639413000000000000006394139900000000000000000000Consumidor Final              000000000045000000000000000000000000000000000000000000000000000000000000000000000000000000000000000000000000000000000000PES00010000001 00000000000000020150926
201509160060000600000000000000639414000000000000006394149900000000000000000000Consumidor Final              000000000045000000000000000000000000000000000000000000000000000000000000000000000000000000000000000000000000000000000000PES00010000001 00000000000000020150926
201509160060000600000000000000639415000000000000006394159900000000000000000000Consumidor Final              000000000045000000000000000000000000000000000000000000000000000000000000000000000000000000000000000000000000000000000000PES00010000001 00000000000000020150926
201509160060000600000000000000639416000000000000006394169900000000000000000000Consumidor Final              000000000057000000000000000000000000000000000000000000000000000000000000000000000000000000000000000000000000000000000000PES00010000001 00000000000000020150926
201509160060000600000000000000639422000000000000006394229900000000000000000000Consumidor Final              000000000051000000000000000000000000000000000000000000000000000000000000000000000000000000000000000000000000000000000000PES00010000001 00000000000000020150926
201509160060000600000000000000639423000000000000006394239900000000000000000000Consumidor Final              000000000045000000000000000000000000000000000000000000000000000000000000000000000000000000000000000000000000000000000000PES00010000001 00000000000000020150926
201509160060000600000000000000639439000000000000006394399900000000000000000000Consumidor Final              000000000045000000000000000000000000000000000000000000000000000000000000000000000000000000000000000000000000000000000000PES00010000001 00000000000000020150926
201509160060000700000000000000427383000000000000004273839900000000000000000000Consumidor Final              000000000045000000000000000000000000000000000000000000000000000000000000000000000000000000000000000000000000000000000000PES00010000001 00000000000000020150926
201509160060000600000000000000639449000000000000006394499900000000000000000000Consumidor Final              000000000045000000000000000000000000000000000000000000000000000000000000000000000000000000000000000000000000000000000000PES00010000001 00000000000000020150926
201509160060000600000000000000639450000000000000006394509900000000000000000000Consumidor Final              000000000045000000000000000000000000000000000000000000000000000000000000000000000000000000000000000000000000000000000000PES00010000001 00000000000000020150926
201509160060000600000000000000639451000000000000006394519900000000000000000000Consumidor Final              000000000045000000000000000000000000000000000000000000000000000000000000000000000000000000000000000000000000000000000000PES00010000001 00000000000000020150926
201509160060000700000000000000427389000000000000004273899900000000000000000000Consumidor Final              000000000054000000000000000000000000000000000000000000000000000000000000000000000000000000000000000000000000000000000000PES00010000001 00000000000000020150926
201509160060000700000000000000427390000000000000004273909900000000000000000000Consumidor Final              000000000045000000000000000000000000000000000000000000000000000000000000000000000000000000000000000000000000000000000000PES00010000001 00000000000000020150926
201509160060000700000000000000427391000000000000004273919900000000000000000000Consumidor Final              000000000045000000000000000000000000000000000000000000000000000000000000000000000000000000000000000000000000000000000000PES00010000001 00000000000000020150926
201509160060000700000000000000427373000000000000004273739900000000000000000000Consumidor Final              000000000045000000000000000000000000000000000000000000000000000000000000000000000000000000000000000000000000000000000000PES00010000001 00000000000000020150926
201509160060000700000000000000427374000000000000004273749900000000000000000000Consumidor Final              000000000045000000000000000000000000000000000000000000000000000000000000000000000000000000000000000000000000000000000000PES00010000001 00000000000000020150926
201509160060000600000000000000639419000000000000006394199900000000000000000000Consumidor Final              000000000045000000000000000000000000000000000000000000000000000000000000000000000000000000000000000000000000000000000000PES00010000001 00000000000000020150926
201509160060000800000000000000138405000000000000001384059900000000000000000000Consumidor Final              000000000035000000000000000000000000000000000000000000000000000000000000000000000000000000000000000000000000000000000000PES00010000001 00000000000000020150926
201509160060000800000000000000138406000000000000001384069900000000000000000000Consumidor Final              000000000035000000000000000000000000000000000000000000000000000000000000000000000000000000000000000000000000000000000000PES00010000001 00000000000000020150926
201509160060000800000000000000138407000000000000001384079900000000000000000000Consumidor Final              000000000035000000000000000000000000000000000000000000000000000000000000000000000000000000000000000000000000000000000000PES00010000001 00000000000000020150926
201509160060000800000000000000138408000000000000001384089900000000000000000000Consumidor Final              000000000060500000000000000000000000000000000000000000000000000000000000000000000000000000000000000000000000000000000000PES00010000001 00000000000000020150926
201509160060000800000000000000138409000000000000001384099900000000000000000000Consumidor Final              000000000035000000000000000000000000000000000000000000000000000000000000000000000000000000000000000000000000000000000000PES00010000001 00000000000000020150926
201509160060000800000000000000138410000000000000001384109900000000000000000000Consumidor Final              000000000042000000000000000000000000000000000000000000000000000000000000000000000000000000000000000000000000000000000000PES00010000001 00000000000000020150926
201509160060000800000000000000138411000000000000001384119900000000000000000000Consumidor Final              000000000035000000000000000000000000000000000000000000000000000000000000000000000000000000000000000000000000000000000000PES00010000001 00000000000000020150926
201509160060000800000000000000138412000000000000001384129900000000000000000000Consumidor Final              000000000035000000000000000000000000000000000000000000000000000000000000000000000000000000000000000000000000000000000000PES00010000001 00000000000000020150926
201509160060000800000000000000138413000000000000001384139900000000000000000000Consumidor Final              000000000035000000000000000000000000000000000000000000000000000000000000000000000000000000000000000000000000000000000000PES00010000001 00000000000000020150926
201509160060000800000000000000138414000000000000001384149900000000000000000000Consumidor Final              000000000035000000000000000000000000000000000000000000000000000000000000000000000000000000000000000000000000000000000000PES00010000001 00000000000000020150926
201509160060000700000000000000427378000000000000004273789900000000000000000000Consumidor Final              000000000045000000000000000000000000000000000000000000000000000000000000000000000000000000000000000000000000000000000000PES00010000001 00000000000000020150926
201509010060000300000000000000106166000000000000001061669900000000000000000000Consumidor Final              000000000045000000000000000000000000000000000000000000000000000000000000000000000000000000000000000000000000000000000000PES00010000001 00000000000000020150911
201509010060000300000000000000106167000000000000001061679900000000000000000000Consumidor Final              000000000045000000000000000000000000000000000000000000000000000000000000000000000000000000000000000000000000000000000000PES00010000001 00000000000000020150911
201509010060000300000000000000106168000000000000001061689900000000000000000000Consumidor Final              000000000045000000000000000000000000000000000000000000000000000000000000000000000000000000000000000000000000000000000000PES00010000001 00000000000000020150911
201509010060000300000000000000106169000000000000001061699900000000000000000000Consumidor Final              000000000045000000000000000000000000000000000000000000000000000000000000000000000000000000000000000000000000000000000000PES00010000001 00000000000000020150911
201509010060000300000000000000106170000000000000001061709900000000000000000000Consumidor Final              000000000045000000000000000000000000000000000000000000000000000000000000000000000000000000000000000000000000000000000000PES00010000001 00000000000000020150911
201509010060000600000000000000636919000000000000006369199900000000000000000000Consumidor Final              000000000046000000000000000000000000000000000000000000000000000000000000000000000000000000000000000000000000000000000000PES00010000001 00000000000000020150911
201509010060000300000000000000106171000000000000001061719900000000000000000000Consumidor Final              000000000045000000000000000000000000000000000000000000000000000000000000000000000000000000000000000000000000000000000000PES00010000001 00000000000000020150911
201509010060000300000000000000106172000000000000001061729900000000000000000000Consumidor Final              000000000045000000000000000000000000000000000000000000000000000000000000000000000000000000000000000000000000000000000000PES00010000001 00000000000000020150911
201509010060000700000000000000425038000000000000004250389900000000000000000000Consumidor Final              000000000048000000000000000000000000000000000000000000000000000000000000000000000000000000000000000000000000000000000000PES00010000001 00000000000000020150911
201509010060000700000000000000425039000000000000004250399900000000000000000000Consumidor Final              000000000043000000000000000000000000000000000000000000000000000000000000000000000000000000000000000000000000000000000000PES00010000001 00000000000000020150911
201509010060000700000000000000425040000000000000004250409900000000000000000000Consumidor Final              000000000045000000000000000000000000000000000000000000000000000000000000000000000000000000000000000000000000000000000000PES00010000001 00000000000000020150911
201509010060000800000000000000137038000000000000001370389900000000000000000000Consumidor Final              000000000045000000000000000000000000000000000000000000000000000000000000000000000000000000000000000000000000000000000000PES00010000001 00000000000000020150911
201509010060000800000000000000137039000000000000001370399900000000000000000000Consumidor Final              000000000035000000000000000000000000000000000000000000000000000000000000000000000000000000000000000000000000000000000000PES00010000001 00000000000000020150911
201509010060000800000000000000137040000000000000001370409900000000000000000000Consumidor Final              000000000035000000000000000000000000000000000000000000000000000000000000000000000000000000000000000000000000000000000000PES00010000001 00000000000000020150911
201509010060000800000000000000137014000000000000001370149900000000000000000000Consumidor Final              000000000035000000000000000000000000000000000000000000000000000000000000000000000000000000000000000000000000000000000000PES00010000001 00000000000000020150911
201509010060000800000000000000137015000000000000001370159900000000000000000000Consumidor Final              000000000018000000000000000000000000000000000000000000000000000000000000000000000000000000000000000000000000000000000000PES00010000001 00000000000000020150911
201509010060000800000000000000137016000000000000001370169900000000000000000000Consumidor Final              000000000042000000000000000000000000000000000000000000000000000000000000000000000000000000000000000000000000000000000000PES00010000001 00000000000000020150911
201509010060000800000000000000137017000000000000001370179900000000000000000000Consumidor Final              000000000035000000000000000000000000000000000000000000000000000000000000000000000000000000000000000000000000000000000000PES00010000001 00000000000000020150911
201509010060000600000000000000636918000000000000006369189900000000000000000000Consumidor Final              000000000045000000000000000000000000000000000000000000000000000000000000000000000000000000000000000000000000000000000000PES00010000001 00000000000000020150911
201509010060000600000000000000636907000000000000006369079900000000000000000000Consumidor Final              000000000045000000000000000000000000000000000000000000000000000000000000000000000000000000000000000000000000000000000000PES00010000001 00000000000000020150911
201509010060000600000000000000636908000000000000006369089900000000000000000000Consumidor Final              000000000045000000000000000000000000000000000000000000000000000000000000000000000000000000000000000000000000000000000000PES00010000001 00000000000000020150911
201509010060000600000000000000636909000000000000006369099900000000000000000000Consumidor Final              000000000045000000000000000000000000000000000000000000000000000000000000000000000000000000000000000000000000000000000000PES00010000001 00000000000000020150911
201509010060000600000000000000636910000000000000006369109900000000000000000000Consumidor Final              000000000045000000000000000000000000000000000000000000000000000000000000000000000000000000000000000000000000000000000000PES00010000001 00000000000000020150911
201509010060000600000000000000636915000000000000006369159900000000000000000000Consumidor Final              000000000045000000000000000000000000000000000000000000000000000000000000000000000000000000000000000000000000000000000000PES00010000001 00000000000000020150911
201509010060000600000000000000636916000000000000006369169900000000000000000000Consumidor Final              000000000045000000000000000000000000000000000000000000000000000000000000000000000000000000000000000000000000000000000000PES00010000001 00000000000000020150911
201509010060000600000000000000636917000000000000006369179900000000000000000000Consumidor Final              000000000045000000000000000000000000000000000000000000000000000000000000000000000000000000000000000000000000000000000000PES00010000001 00000000000000020150911
201509010060000800000000000000137012000000000000001370129900000000000000000000Consumidor Final              000000000035000000000000000000000000000000000000000000000000000000000000000000000000000000000000000000000000000000000000PES00010000001 00000000000000020150911
201509010060000800000000000000137013000000000000001370139900000000000000000000Consumidor Final              000000000035000000000000000000000000000000000000000000000000000000000000000000000000000000000000000000000000000000000000PES00010000001 00000000000000020150911
201509010060000600000000000000636911000000000000006369119900000000000000000000Consumidor Final              000000000045000000000000000000000000000000000000000000000000000000000000000000000000000000000000000000000000000000000000PES00010000001 00000000000000020150911
201509010060000600000000000000636912000000000000006369129900000000000000000000Consumidor Final              000000000051000000000000000000000000000000000000000000000000000000000000000000000000000000000000000000000000000000000000PES00010000001 00000000000000020150911
201509010060000600000000000000636913000000000000006369139900000000000000000000Consumidor Final              000000000045000000000000000000000000000000000000000000000000000000000000000000000000000000000000000000000000000000000000PES00010000001 00000000000000020150911
201509010060000600000000000000636914000000000000006369149900000000000000000000Consumidor Final              000000000051000000000000000000000000000000000000000000000000000000000000000000000000000000000000000000000000000000000000PES00010000001 00000000000000020150911
201509010060000800000000000000137018000000000000001370189900000000000000000000Consumidor Final              000000000045000000000000000000000000000000000000000000000000000000000000000000000000000000000000000000000000000000000000PES00010000001 00000000000000020150911
201509010060000800000000000000137033000000000000001370339900000000000000000000Consumidor Final              000000000022000000000000000000000000000000000000000000000000000000000000000000000000000000000000000000000000000000000000PES00010000001 00000000000000020150911
201509010060000800000000000000137034000000000000001370349900000000000000000000Consumidor Final              000000000035000000000000000000000000000000000000000000000000000000000000000000000000000000000000000000000000000000000000PES00010000001 00000000000000020150911
201509010060000800000000000000137035000000000000001370359900000000000000000000Consumidor Final              000000000035000000000000000000000000000000000000000000000000000000000000000000000000000000000000000000000000000000000000PES00010000001 00000000000000020150911
201509010060000800000000000000137036000000000000001370369900000000000000000000Consumidor Final              000000000035000000000000000000000000000000000000000000000000000000000000000000000000000000000000000000000000000000000000PES00010000001 00000000000000020150911
201509010060000800000000000000137037000000000000001370379900000000000000000000Consumidor Final              000000000035000000000000000000000000000000000000000000000000000000000000000000000000000000000000000000000000000000000000PES00010000001 00000000000000020150911
201509010060000800000000000000137019000000000000001370199900000000000000000000Consumidor Final              000000000022000000000000000000000000000000000000000000000000000000000000000000000000000000000000000000000000000000000000PES00010000001 00000000000000020150911
201509010060000800000000000000137020000000000000001370209900000000000000000000Consumidor Final              000000000035000000000000000000000000000000000000000000000000000000000000000000000000000000000000000000000000000000000000PES00010000001 00000000000000020150911
201509010060000800000000000000137021000000000000001370219900000000000000000000Consumidor Final              000000000035000000000000000000000000000000000000000000000000000000000000000000000000000000000000000000000000000000000000PES00010000001 00000000000000020150911
201509010060000800000000000000137022000000000000001370229900000000000000000000Consumidor Final              000000000035000000000000000000000000000000000000000000000000000000000000000000000000000000000000000000000000000000000000PES00010000001 00000000000000020150911
201509010060000800000000000000137023000000000000001370239900000000000000000000Consumidor Final              000000000035000000000000000000000000000000000000000000000000000000000000000000000000000000000000000000000000000000000000PES00010000001 00000000000000020150911
201509010060000800000000000000137024000000000000001370249900000000000000000000Consumidor Final              000000000045000000000000000000000000000000000000000000000000000000000000000000000000000000000000000000000000000000000000PES00010000001 00000000000000020150911
201509010060000800000000000000137025000000000000001370259900000000000000000000Consumidor Final              000000000035000000000000000000000000000000000000000000000000000000000000000000000000000000000000000000000000000000000000PES00010000001 00000000000000020150911
201509010060000800000000000000137026000000000000001370269900000000000000000000Consumidor Final              000000000035000000000000000000000000000000000000000000000000000000000000000000000000000000000000000000000000000000000000PES00010000001 00000000000000020150911
201509010060000800000000000000137027000000000000001370279900000000000000000000Consumidor Final              000000000035000000000000000000000000000000000000000000000000000000000000000000000000000000000000000000000000000000000000PES00010000001 00000000000000020150911
201509010060000800000000000000137028000000000000001370289900000000000000000000Consumidor Final              000000000045000000000000000000000000000000000000000000000000000000000000000000000000000000000000000000000000000000000000PES00010000001 00000000000000020150911
201509010060000800000000000000137029000000000000001370299900000000000000000000Consumidor Final              000000000045000000000000000000000000000000000000000000000000000000000000000000000000000000000000000000000000000000000000PES00010000001 00000000000000020150911
201509010060000800000000000000137030000000000000001370309900000000000000000000Consumidor Final              000000000045000000000000000000000000000000000000000000000000000000000000000000000000000000000000000000000000000000000000PES00010000001 00000000000000020150911
201509010060000800000000000000137031000000000000001370319900000000000000000000Consumidor Final              000000000047000000000000000000000000000000000000000000000000000000000000000000000000000000000000000000000000000000000000PES00010000001 00000000000000020150911
201509010060000800000000000000137032000000000000001370329900000000000000000000Consumidor Final              000000000035000000000000000000000000000000000000000000000000000000000000000000000000000000000000000000000000000000000000PES00010000001 00000000000000020150911
201509010060000700000000000000425036000000000000004250369900000000000000000000Consumidor Final              000000000049000000000000000000000000000000000000000000000000000000000000000000000000000000000000000000000000000000000000PES00010000001 00000000000000020150911
201509010060000600000000000000636921000000000000006369219900000000000000000000Consumidor Final              000000000045000000000000000000000000000000000000000000000000000000000000000000000000000000000000000000000000000000000000PES00010000001 00000000000000020150911
201509010060000800000000000000137041000000000000001370419900000000000000000000Consumidor Final              000000000041000000000000000000000000000000000000000000000000000000000000000000000000000000000000000000000000000000000000PES00010000001 00000000000000020150911
201509010060000700000000000000425041000000000000004250419900000000000000000000Consumidor Final              000000000045000000000000000000000000000000000000000000000000000000000000000000000000000000000000000000000000000000000000PES00010000001 00000000000000020150911
201509010060000700000000000000425042000000000000004250429900000000000000000000Consumidor Final              000000000045000000000000000000000000000000000000000000000000000000000000000000000000000000000000000000000000000000000000PES00010000001 00000000000000020150911
201509010060000700000000000000425043000000000000004250439900000000000000000000Consumidor Final              000000000045000000000000000000000000000000000000000000000000000000000000000000000000000000000000000000000000000000000000PES00010000001 00000000000000020150911
201509010060000700000000000000425044000000000000004250449900000000000000000000Consumidor Final              000000000045000000000000000000000000000000000000000000000000000000000000000000000000000000000000000000000000000000000000PES00010000001 00000000000000020150911
201509010060000700000000000000425045000000000000004250459900000000000000000000Consumidor Final              000000000045000000000000000000000000000000000000000000000000000000000000000000000000000000000000000000000000000000000000PES00010000001 00000000000000020150911
201509010060000700000000000000425046000000000000004250469900000000000000000000Consumidor Final              000000000045000000000000000000000000000000000000000000000000000000000000000000000000000000000000000000000000000000000000PES00010000001 00000000000000020150911
201509010060000700000000000000425047000000000000004250479900000000000000000000Consumidor Final              000000000045000000000000000000000000000000000000000000000000000000000000000000000000000000000000000000000000000000000000PES00010000001 00000000000000020150911
201509010060000100000000000000188809000000000000001888099900000000000000000000Consumidor Final              000000000045000000000000000000000000000000000000000000000000000000000000000000000000000000000000000000000000000000000000PES00010000001 00000000000000020150911
201509010060000100000000000000188810000000000000001888109900000000000000000000Consumidor Final              000000000083000000000000000000000000000000000000000000000000000000000000000000000000000000000000000000000000000000000000PES00010000001 00000000000000020150911
201509010060000100000000000000188811000000000000001888119900000000000000000000Consumidor Final              000000000045000000000000000000000000000000000000000000000000000000000000000000000000000000000000000000000000000000000000PES00010000001 00000000000000020150911
201509010060000600000000000000636920000000000000006369209900000000000000000000Consumidor Final              000000000045000000000000000000000000000000000000000000000000000000000000000000000000000000000000000000000000000000000000PES00010000001 00000000000000020150911
201509010060000700000000000000425037000000000000004250379900000000000000000000Consumidor Final              000000000045000000000000000000000000000000000000000000000000000000000000000000000000000000000000000000000000000000000000PES00010000001 00000000000000020150911
201509010060000600000000000000636922000000000000006369229900000000000000000000Consumidor Final              000000000054000000000000000000000000000000000000000000000000000000000000000000000000000000000000000000000000000000000000PES00010000001 00000000000000020150911
201509010060000600000000000000636923000000000000006369239900000000000000000000Consumidor Final              000000000045000000000000000000000000000000000000000000000000000000000000000000000000000000000000000000000000000000000000PES00010000001 00000000000000020150911
201509010060000600000000000000636924000000000000006369249900000000000000000000Consumidor Final              000000000045000000000000000000000000000000000000000000000000000000000000000000000000000000000000000000000000000000000000PES00010000001 00000000000000020150911
201509010060000600000000000000636925000000000000006369259900000000000000000000Consumidor Final              000000000045000000000000000000000000000000000000000000000000000000000000000000000000000000000000000000000000000000000000PES00010000001 00000000000000020150911
201509010060000600000000000000636926000000000000006369269900000000000000000000Consumidor Final              000000000047000000000000000000000000000000000000000000000000000000000000000000000000000000000000000000000000000000000000PES00010000001 00000000000000020150911
201509010060000600000000000000636927000000000000006369279900000000000000000000Consumidor Final              000000000045000000000000000000000000000000000000000000000000000000000000000000000000000000000000000000000000000000000000PES00010000001 00000000000000020150911
201509010060000700000000000000425048000000000000004250489900000000000000000000Consumidor Final              000000000046000000000000000000000000000000000000000000000000000000000000000000000000000000000000000000000000000000000000PES00010000001 00000000000000020150911
201509010060000700000000000000425049000000000000004250499900000000000000000000Consumidor Final              000000000033000000000000000000000000000000000000000000000000000000000000000000000000000000000000000000000000000000000000PES00010000001 00000000000000020150911
201509010060000800000000000000137042000000000000001370429900000000000000000000Consumidor Final              000000000035000000000000000000000000000000000000000000000000000000000000000000000000000000000000000000000000000000000000PES00010000001 00000000000000020150911
201509010060000800000000000000137043000000000000001370439900000000000000000000Consumidor Final              000000000035000000000000000000000000000000000000000000000000000000000000000000000000000000000000000000000000000000000000PES00010000001 00000000000000020150911
201509010060000700000000000000425050000000000000004250509900000000000000000000Consumidor Final              000000000045000000000000000000000000000000000000000000000000000000000000000000000000000000000000000000000000000000000000PES00010000001 00000000000000020150911
201509010060000700000000000000425051000000000000004250519900000000000000000000Consumidor Final              000000000045000000000000000000000000000000000000000000000000000000000000000000000000000000000000000000000000000000000000PES00010000001 00000000000000020150911
201509010060000100000000000000188808000000000000001888089900000000000000000000Consumidor Final              000000000047000000000000000000000000000000000000000000000000000000000000000000000000000000000000000000000000000000000000PES00010000001 00000000000000020150911
201509010060000800000000000000137044000000000000001370449900000000000000000000Consumidor Final              000000000045000000000000000000000000000000000000000000000000000000000000000000000000000000000000000000000000000000000000PES00010000001 00000000000000020150911
201509010060000800000000000000137045000000000000001370459900000000000000000000Consumidor Final              000000000047000000000000000000000000000000000000000000000000000000000000000000000000000000000000000000000000000000000000PES00010000001 00000000000000020150911
201509010060000600000000000000636930000000000000006369309900000000000000000000Consumidor Final              000000000045000000000000000000000000000000000000000000000000000000000000000000000000000000000000000000000000000000000000PES00010000001 00000000000000020150911
201509010060000600000000000000636931000000000000006369319900000000000000000000Consumidor Final              000000000043000000000000000000000000000000000000000000000000000000000000000000000000000000000000000000000000000000000000PES00010000001 00000000000000020150911
201509010060000700000000000000425057000000000000004250579900000000000000000000Consumidor Final              000000000068000000000000000000000000000000000000000000000000000000000000000000000000000000000000000000000000000000000000PES00010000001 00000000000000020150911
201509010060000800000000000000137046000000000000001370469900000000000000000000Consumidor Final              000000000035000000000000000000000000000000000000000000000000000000000000000000000000000000000000000000000000000000000000PES00010000001 00000000000000020150911
201509010060000800000000000000137047000000000000001370479900000000000000000000Consumidor Final              000000000035000000000000000000000000000000000000000000000000000000000000000000000000000000000000000000000000000000000000PES00010000001 00000000000000020150911
201509010060000800000000000000137048000000000000001370489900000000000000000000Consumidor Final              000000000045000000000000000000000000000000000000000000000000000000000000000000000000000000000000000000000000000000000000PES00010000001 00000000000000020150911
201509010060000800000000000000137049000000000000001370499900000000000000000000Consumidor Final              000000000035000000000000000000000000000000000000000000000000000000000000000000000000000000000000000000000000000000000000PES00010000001 00000000000000020150911
201509010060000800000000000000137050000000000000001370509900000000000000000000Consumidor Final              000000000035000000000000000000000000000000000000000000000000000000000000000000000000000000000000000000000000000000000000PES00010000001 00000000000000020150911
201509010060000800000000000000137051000000000000001370519900000000000000000000Consumidor Final              000000000035000000000000000000000000000000000000000000000000000000000000000000000000000000000000000000000000000000000000PES00010000001 00000000000000020150911
201509010060000800000000000000137052000000000000001370529900000000000000000000Consumidor Final              000000000035000000000000000000000000000000000000000000000000000000000000000000000000000000000000000000000000000000000000PES00010000001 00000000000000020150911
201509010060000800000000000000137053000000000000001370539900000000000000000000Consumidor Final              000000000035000000000000000000000000000000000000000000000000000000000000000000000000000000000000000000000000000000000000PES00010000001 00000000000000020150911
201509010060000100000000000000188812000000000000001888129900000000000000000000Consumidor Final              000000000045000000000000000000000000000000000000000000000000000000000000000000000000000000000000000000000000000000000000PES00010000001 00000000000000020150911
201509010060000100000000000000188813000000000000001888139900000000000000000000Consumidor Final              000000000057000000000000000000000000000000000000000000000000000000000000000000000000000000000000000000000000000000000000PES00010000001 00000000000000020150911
201509010060000100000000000000188814000000000000001888149900000000000000000000Consumidor Final              000000000048000000000000000000000000000000000000000000000000000000000000000000000000000000000000000000000000000000000000PES00010000001 00000000000000020150911
201509010060000100000000000000188815000000000000001888159900000000000000000000Consumidor Final              000000000048000000000000000000000000000000000000000000000000000000000000000000000000000000000000000000000000000000000000PES00010000001 00000000000000020150911
201509010060000100000000000000188816000000000000001888169900000000000000000000Consumidor Final              000000000054000000000000000000000000000000000000000000000000000000000000000000000000000000000000000000000000000000000000PES00010000001 00000000000000020150911
201509010060000100000000000000188817000000000000001888179900000000000000000000Consumidor Final              000000000045000000000000000000000000000000000000000000000000000000000000000000000000000000000000000000000000000000000000PES00010000001 00000000000000020150911
201509010060000100000000000000188818000000000000001888189900000000000000000000Consumidor Final              000000000047000000000000000000000000000000000000000000000000000000000000000000000000000000000000000000000000000000000000PES00010000001 00000000000000020150911
201509010060000100000000000000188819000000000000001888199900000000000000000000Consumidor Final              000000000045000000000000000000000000000000000000000000000000000000000000000000000000000000000000000000000000000000000000PES00010000001 00000000000000020150911
201509010060000100000000000000188820000000000000001888209900000000000000000000Consumidor Final              000000000045000000000000000000000000000000000000000000000000000000000000000000000000000000000000000000000000000000000000PES00010000001 00000000000000020150911
201509010060000100000000000000188821000000000000001888219900000000000000000000Consumidor Final              000000000045000000000000000000000000000000000000000000000000000000000000000000000000000000000000000000000000000000000000PES00010000001 00000000000000020150911
201509010060000100000000000000188822000000000000001888229900000000000000000000Consumidor Final              000000000045000000000000000000000000000000000000000000000000000000000000000000000000000000000000000000000000000000000000PES00010000001 00000000000000020150911
201509010060000100000000000000188823000000000000001888239900000000000000000000Consumidor Final              000000000045000000000000000000000000000000000000000000000000000000000000000000000000000000000000000000000000000000000000PES00010000001 00000000000000020150911
201509010060000100000000000000188824000000000000001888249900000000000000000000Consumidor Final              000000000027000000000000000000000000000000000000000000000000000000000000000000000000000000000000000000000000000000000000PES00010000001 00000000000000020150911
201509010060000100000000000000188825000000000000001888259900000000000000000000Consumidor Final              000000000045000000000000000000000000000000000000000000000000000000000000000000000000000000000000000000000000000000000000PES00010000001 00000000000000020150911
201509010060000100000000000000188826000000000000001888269900000000000000000000Consumidor Final              000000000045000000000000000000000000000000000000000000000000000000000000000000000000000000000000000000000000000000000000PES00010000001 00000000000000020150911
201509010060000100000000000000188827000000000000001888279900000000000000000000Consumidor Final              000000000045000000000000000000000000000000000000000000000000000000000000000000000000000000000000000000000000000000000000PES00010000001 00000000000000020150911
201509010060000100000000000000188828000000000000001888289900000000000000000000Consumidor Final              000000000045000000000000000000000000000000000000000000000000000000000000000000000000000000000000000000000000000000000000PES00010000001 00000000000000020150911
201509010060000100000000000000188829000000000000001888299900000000000000000000Consumidor Final              000000000087000000000000000000000000000000000000000000000000000000000000000000000000000000000000000000000000000000000000PES00010000001 00000000000000020150911
201509010060000100000000000000188830000000000000001888309900000000000000000000Consumidor Final              000000000045000000000000000000000000000000000000000000000000000000000000000000000000000000000000000000000000000000000000PES00010000001 00000000000000020150911
201509010060000100000000000000188831000000000000001888319900000000000000000000Consumidor Final              000000000051000000000000000000000000000000000000000000000000000000000000000000000000000000000000000000000000000000000000PES00010000001 00000000000000020150911
201509010060000100000000000000188832000000000000001888329900000000000000000000Consumidor Final              000000000045000000000000000000000000000000000000000000000000000000000000000000000000000000000000000000000000000000000000PES00010000001 00000000000000020150911
201509010060000100000000000000188833000000000000001888339900000000000000000000Consumidor Final              000000000045000000000000000000000000000000000000000000000000000000000000000000000000000000000000000000000000000000000000PES00010000001 00000000000000020150911
201509010060000800000000000000137054000000000000001370549900000000000000000000Consumidor Final              000000000045000000000000000000000000000000000000000000000000000000000000000000000000000000000000000000000000000000000000PES00010000001 00000000000000020150911
201509010060000800000000000000137055000000000000001370559900000000000000000000Consumidor Final              000000000045000000000000000000000000000000000000000000000000000000000000000000000000000000000000000000000000000000000000PES00010000001 00000000000000020150911
201509010060000800000000000000137056000000000000001370569900000000000000000000Consumidor Final              000000000022000000000000000000000000000000000000000000000000000000000000000000000000000000000000000000000000000000000000PES00010000001 00000000000000020150911
201509010060000600000000000000636936000000000000006369368000000000020937594772JOSE RILO PEREIRA             000000000116000000000000000000000000000000000000000000000000000000000000000000000000000000000000000000000000000000000000PES00010000001 00000000000000020150911
201509010060000600000000000000636937000000000000006369379900000000000000000000Consumidor Final              000000000045000000000000000000000000000000000000000000000000000000000000000000000000000000000000000000000000000000000000PES00010000001 00000000000000020150911
201509010060000600000000000000636938000000000000006369389900000000000000000000Consumidor Final              000000000045000000000000000000000000000000000000000000000000000000000000000000000000000000000000000000000000000000000000PES00010000001 00000000000000020150911
201509010060000600000000000000636928000000000000006369289900000000000000000000Consumidor Final              000000000045000000000000000000000000000000000000000000000000000000000000000000000000000000000000000000000000000000000000PES00010000001 00000000000000020150911
201509010060000600000000000000636929000000000000006369299900000000000000000000Consumidor Final              000000000045000000000000000000000000000000000000000000000000000000000000000000000000000000000000000000000000000000000000PES00010000001 00000000000000020150911
201509010060000700000000000000425052000000000000004250529900000000000000000000Consumidor Final              000000000079000000000000000000000000000000000000000000000000000000000000000000000000000000000000000000000000000000000000PES00010000001 00000000000000020150911
201509010060000700000000000000425053000000000000004250539900000000000000000000Consumidor Final              000000000048000000000000000000000000000000000000000000000000000000000000000000000000000000000000000000000000000000000000PES00010000001 00000000000000020150911
201509010060000700000000000000425054000000000000004250549900000000000000000000Consumidor Final              000000000045000000000000000000000000000000000000000000000000000000000000000000000000000000000000000000000000000000000000PES00010000001 00000000000000020150911
201509010060000700000000000000425055000000000000004250559900000000000000000000Consumidor Final              000000000045000000000000000000000000000000000000000000000000000000000000000000000000000000000000000000000000000000000000PES00010000001 00000000000000020150911
201509010060000700000000000000425056000000000000004250569900000000000000000000Consumidor Final              000000000068000000000000000000000000000000000000000000000000000000000000000000000000000000000000000000000000000000000000PES00010000001 00000000000000020150911
201509010060000700000000000000425058000000000000004250589900000000000000000000Consumidor Final              000000000045000000000000000000000000000000000000000000000000000000000000000000000000000000000000000000000000000000000000PES00010000001 00000000000000020150911
201509010060000700000000000000425059000000000000004250599900000000000000000000Consumidor Final              000000000045000000000000000000000000000000000000000000000000000000000000000000000000000000000000000000000000000000000000PES00010000001 00000000000000020150911
201509010060000700000000000000425060000000000000004250609900000000000000000000Consumidor Final              000000000045000000000000000000000000000000000000000000000000000000000000000000000000000000000000000000000000000000000000PES00010000001 00000000000000020150911
201509010060000700000000000000425061000000000000004250619900000000000000000000Consumidor Final              000000000087000000000000000000000000000000000000000000000000000000000000000000000000000000000000000000000000000000000000PES00010000001 00000000000000020150911
201509010060000600000000000000636932000000000000006369329900000000000000000000Consumidor Final              000000000048000000000000000000000000000000000000000000000000000000000000000000000000000000000000000000000000000000000000PES00010000001 00000000000000020150911
201509010060000600000000000000636933000000000000006369339900000000000000000000Consumidor Final              000000000045000000000000000000000000000000000000000000000000000000000000000000000000000000000000000000000000000000000000PES00010000001 00000000000000020150911
201509010060000600000000000000636934000000000000006369349900000000000000000000Consumidor Final              000000000045000000000000000000000000000000000000000000000000000000000000000000000000000000000000000000000000000000000000PES00010000001 00000000000000020150911
201509010060000600000000000000636935000000000000006369359900000000000000000000Consumidor Final              000000000057000000000000000000000000000000000000000000000000000000000000000000000000000000000000000000000000000000000000PES00010000001 00000000000000020150911
201509010060000600000000000000636940000000000000006369409900000000000000000000Consumidor Final              000000000045000000000000000000000000000000000000000000000000000000000000000000000000000000000000000000000000000000000000PES00010000001 00000000000000020150911
201509010060000800000000000000137057000000000000001370579900000000000000000000Consumidor Final              000000000035000000000000000000000000000000000000000000000000000000000000000000000000000000000000000000000000000000000000PES00010000001 00000000000000020150911
201509010060000800000000000000137058000000000000001370589900000000000000000000Consumidor Final              000000000035000000000000000000000000000000000000000000000000000000000000000000000000000000000000000000000000000000000000PES00010000001 00000000000000020150911
201509010060000700000000000000425064000000000000004250649900000000000000000000Consumidor Final              000000000045000000000000000000000000000000000000000000000000000000000000000000000000000000000000000000000000000000000000PES00010000001 00000000000000020150911
201509010060000700000000000000425065000000000000004250659900000000000000000000Consumidor Final              000000000045000000000000000000000000000000000000000000000000000000000000000000000000000000000000000000000000000000000000PES00010000001 00000000000000020150911
201509010060000700000000000000425066000000000000004250669900000000000000000000Consumidor Final              000000000045000000000000000000000000000000000000000000000000000000000000000000000000000000000000000000000000000000000000PES00010000001 00000000000000020150911
201509010060000700000000000000425067000000000000004250679900000000000000000000Consumidor Final              000000000045000000000000000000000000000000000000000000000000000000000000000000000000000000000000000000000000000000000000PES00010000001 00000000000000020150911
201509010010000800000000000000004668000000000000000046688000000000030501032545PLATA LAPPAS S.A.             000000000035000000000000000000000000000000000000000000000000000000000000000000000000000000000000000000000000000000000000PES00010000001 00000000000000020150911
201509010060000800000000000000137059000000000000001370599900000000000000000000Consumidor Final              000000000045000000000000000000000000000000000000000000000000000000000000000000000000000000000000000000000000000000000000PES00010000001 00000000000000020150911
201509010060000800000000000000137060000000000000001370609900000000000000000000Consumidor Final              000000000035000000000000000000000000000000000000000000000000000000000000000000000000000000000000000000000000000000000000PES00010000001 00000000000000020150911
201509010060000800000000000000137061000000000000001370619900000000000000000000Consumidor Final              000000000035000000000000000000000000000000000000000000000000000000000000000000000000000000000000000000000000000000000000PES00010000001 00000000000000020150911
201509010060000800000000000000137062000000000000001370629900000000000000000000Consumidor Final              000000000035000000000000000000000000000000000000000000000000000000000000000000000000000000000000000000000000000000000000PES00010000001 00000000000000020150911
201509010060000600000000000000636943000000000000006369439900000000000000000000Consumidor Final              000000000045000000000000000000000000000000000000000000000000000000000000000000000000000000000000000000000000000000000000PES00010000001 00000000000000020150911
201509010010000600000000000000006213000000000000000062138000000000030641405554AEROLINEAS ARGENTINAS S.A.    000000000035000000000000000000000000000000000000000000000000000000000000000000000000000000000000000000000000000000000000PES00010000001 00000000000000020150911
201509010010000600000000000000006214000000000000000062148000000000030641405554AEROLINEAS ARGENTINAS S.A.    000000000044000000000000000000000000000000000000000000000000000000000000000000000000000000000000000000000000000000000000PES00010000001 00000000000000020150911
201509010060000600000000000000636944000000000000006369449900000000000000000000Consumidor Final              000000000045000000000000000000000000000000000000000000000000000000000000000000000000000000000000000000000000000000000000PES00010000001 00000000000000020150911
201509010010000600000000000000006215000000000000000062158000000000030641405554AEROLINEAS ARGENTINAS S.A.    000000000044000000000000000000000000000000000000000000000000000000000000000000000000000000000000000000000000000000000000PES00010000001 00000000000000020150911
201509010010000600000000000000006216000000000000000062168000000000030641405554AEROLINEAS ARGENTINAS S.A.    000000000059000000000000000000000000000000000000000000000000000000000000000000000000000000000000000000000000000000000000PES00010000001 00000000000000020150911
201509010010000600000000000000006217000000000000000062178000000000030641405554AEROLINEAS ARGENTINAS S.A.    000000000068000000000000000000000000000000000000000000000000000000000000000000000000000000000000000000000000000000000000PES00010000001 00000000000000020150911
201509010060000700000000000000425072000000000000004250729900000000000000000000Consumidor Final              000000000045000000000000000000000000000000000000000000000000000000000000000000000000000000000000000000000000000000000000PES00010000001 00000000000000020150911
201509010060000700000000000000425073000000000000004250739900000000000000000000Consumidor Final              000000000045000000000000000000000000000000000000000000000000000000000000000000000000000000000000000000000000000000000000PES00010000001 00000000000000020150911
201509010060000700000000000000425074000000000000004250749900000000000000000000Consumidor Final              000000000045000000000000000000000000000000000000000000000000000000000000000000000000000000000000000000000000000000000000PES00010000001 00000000000000020150911
201509010010000600000000000000006221000000000000000062218000000000030641405554AEROLINEAS ARGENTINAS S.A.    000000000073000000000000000000000000000000000000000000000000000000000000000000000000000000000000000000000000000000000000PES00010000001 00000000000000020150911
201509010010000600000000000000006222000000000000000062228000000000030641405554AEROLINEAS ARGENTINAS S.A.    000000000041000000000000000000000000000000000000000000000000000000000000000000000000000000000000000000000000000000000000PES00010000001 00000000000000020150911
201509010010000600000000000000006223000000000000000062238000000000030641405554AEROLINEAS ARGENTINAS S.A.    000000000035000000000000000000000000000000000000000000000000000000000000000000000000000000000000000000000000000000000000PES00010000001 00000000000000020150911
201509010010000600000000000000006224000000000000000062248000000000030641405554AEROLINEAS ARGENTINAS S.A.    000000000035000000000000000000000000000000000000000000000000000000000000000000000000000000000000000000000000000000000000PES00010000001 00000000000000020150911
201509010010000600000000000000006225000000000000000062258000000000030641405554AEROLINEAS ARGENTINAS S.A.    000000000035000000000000000000000000000000000000000000000000000000000000000000000000000000000000000000000000000000000000PES00010000001 00000000000000020150911
201509010060000700000000000000425080000000000000004250809900000000000000000000Consumidor Final              000000000045000000000000000000000000000000000000000000000000000000000000000000000000000000000000000000000000000000000000PES00010000001 00000000000000020150911
201509010060000700000000000000425081000000000000004250819900000000000000000000Consumidor Final              000000000045000000000000000000000000000000000000000000000000000000000000000000000000000000000000000000000000000000000000PES00010000001 00000000000000020150911
201509010060000700000000000000425082000000000000004250829900000000000000000000Consumidor Final              000000000045000000000000000000000000000000000000000000000000000000000000000000000000000000000000000000000000000000000000PES00010000001 00000000000000020150911
201509010060000700000000000000425083000000000000004250839900000000000000000000Consumidor Final              000000000045000000000000000000000000000000000000000000000000000000000000000000000000000000000000000000000000000000000000PES00010000001 00000000000000020150911
201509010060000700000000000000425084000000000000004250849900000000000000000000Consumidor Final              000000000047000000000000000000000000000000000000000000000000000000000000000000000000000000000000000000000000000000000000PES00010000001 00000000000000020150911
201509010060000700000000000000425085000000000000004250859900000000000000000000Consumidor Final              000000000045000000000000000000000000000000000000000000000000000000000000000000000000000000000000000000000000000000000000PES00010000001 00000000000000020150911
201509010060000700000000000000425086000000000000004250869900000000000000000000Consumidor Final              000000000047000000000000000000000000000000000000000000000000000000000000000000000000000000000000000000000000000000000000PES00010000001 00000000000000020150911
201509010010000600000000000000006241000000000000000062418000000000030641405554AEROLINEAS ARGENTINAS S.A.    000000000061500000000000000000000000000000000000000000000000000000000000000000000000000000000000000000000000000000000000PES00010000001 00000000000000020150911
201509010010000600000000000000006242000000000000000062428000000000030641405554AEROLINEAS ARGENTINAS S.A.    000000000047000000000000000000000000000000000000000000000000000000000000000000000000000000000000000000000000000000000000PES00010000001 00000000000000020150911
201509010010000600000000000000006243000000000000000062438000000000030641405554AEROLINEAS ARGENTINAS S.A.    000000000047000000000000000000000000000000000000000000000000000000000000000000000000000000000000000000000000000000000000PES00010000001 00000000000000020150911
201509010060000600000000000000636953000000000000006369539900000000000000000000Consumidor Final              000000000045000000000000000000000000000000000000000000000000000000000000000000000000000000000000000000000000000000000000PES00010000001 00000000000000020150911
201509010060000600000000000000636954000000000000006369549900000000000000000000Consumidor Final              000000000048000000000000000000000000000000000000000000000000000000000000000000000000000000000000000000000000000000000000PES00010000001 00000000000000020150911
201509010060000600000000000000636955000000000000006369559900000000000000000000Consumidor Final              000000000045000000000000000000000000000000000000000000000000000000000000000000000000000000000000000000000000000000000000PES00010000001 00000000000000020150911
201509010010000600000000000000006226000000000000000062268000000000030641405554AEROLINEAS ARGENTINAS S.A.    000000000060000000000000000000000000000000000000000000000000000000000000000000000000000000000000000000000000000000000000PES00010000001 00000000000000020150911
201509010010000600000000000000006227000000000000000062278000000000030641405554AEROLINEAS ARGENTINAS S.A.    000000000054000000000000000000000000000000000000000000000000000000000000000000000000000000000000000000000000000000000000PES00010000001 00000000000000020150911
201509010060000700000000000000425075000000000000004250759900000000000000000000Consumidor Final              000000000045000000000000000000000000000000000000000000000000000000000000000000000000000000000000000000000000000000000000PES00010000001 00000000000000020150911
201509010010000600000000000000006228000000000000000062288000000000030641405554AEROLINEAS ARGENTINAS S.A.    000000000103000000000000000000000000000000000000000000000000000000000000000000000000000000000000000000000000000000000000PES00010000001 00000000000000020150911
201509010010000600000000000000006229000000000000000062298000000000030641405554AEROLINEAS ARGENTINAS S.A.    000000000089000000000000000000000000000000000000000000000000000000000000000000000000000000000000000000000000000000000000PES00010000001 00000000000000020150911
201509010060000700000000000000425076000000000000004250769900000000000000000000Consumidor Final              000000000045000000000000000000000000000000000000000000000000000000000000000000000000000000000000000000000000000000000000PES00010000001 00000000000000020150911
201509010010000600000000000000006230000000000000000062308000000000030641405554AEROLINEAS ARGENTINAS S.A.    000000000061000000000000000000000000000000000000000000000000000000000000000000000000000000000000000000000000000000000000PES00010000001 00000000000000020150911
201509010010000600000000000000006231000000000000000062318000000000030641405554AEROLINEAS ARGENTINAS S.A.    000000000060000000000000000000000000000000000000000000000000000000000000000000000000000000000000000000000000000000000000PES00010000001 00000000000000020150911
201509010010000600000000000000006232000000000000000062328000000000030641405554AEROLINEAS ARGENTINAS S.A.    000000000047000000000000000000000000000000000000000000000000000000000000000000000000000000000000000000000000000000000000PES00010000001 00000000000000020150911
201509010060000700000000000000425077000000000000004250779900000000000000000000Consumidor Final              000000000045000000000000000000000000000000000000000000000000000000000000000000000000000000000000000000000000000000000000PES00010000001 00000000000000020150911
201509010060000600000000000000636946000000000000006369469900000000000000000000Consumidor Final              000000000045000000000000000000000000000000000000000000000000000000000000000000000000000000000000000000000000000000000000PES00010000001 00000000000000020150911
201509010060000700000000000000425078000000000000004250789900000000000000000000Consumidor Final              000000000045000000000000000000000000000000000000000000000000000000000000000000000000000000000000000000000000000000000000PES00010000001 00000000000000020150911
201509010060000600000000000000636947000000000000006369479900000000000000000000Consumidor Final              000000000057000000000000000000000000000000000000000000000000000000000000000000000000000000000000000000000000000000000000PES00010000001 00000000000000020150911
201509010010000600000000000000006233000000000000000062338000000000030641405554AEROLINEAS ARGENTINAS S.A.    000000000107000000000000000000000000000000000000000000000000000000000000000000000000000000000000000000000000000000000000PES00010000001 00000000000000020150911
201509010060000600000000000000636948000000000000006369489900000000000000000000Consumidor Final              000000000045000000000000000000000000000000000000000000000000000000000000000000000000000000000000000000000000000000000000PES00010000001 00000000000000020150911
201509010010000600000000000000006234000000000000000062348000000000030641405554AEROLINEAS ARGENTINAS S.A.    000000000060000000000000000000000000000000000000000000000000000000000000000000000000000000000000000000000000000000000000PES00010000001 00000000000000020150911
201509010010000600000000000000006235000000000000000062358000000000030641405554AEROLINEAS ARGENTINAS S.A.    000000000047000000000000000000000000000000000000000000000000000000000000000000000000000000000000000000000000000000000000PES00010000001 00000000000000020150911
201509010010000600000000000000006236000000000000000062368000000000030641405554AEROLINEAS ARGENTINAS S.A.    000000000047000000000000000000000000000000000000000000000000000000000000000000000000000000000000000000000000000000000000PES00010000001 00000000000000020150911
201509010060000600000000000000636949000000000000006369499900000000000000000000Consumidor Final              000000000045000000000000000000000000000000000000000000000000000000000000000000000000000000000000000000000000000000000000PES00010000001 00000000000000020150911
201509010060000600000000000000636950000000000000006369509900000000000000000000Consumidor Final              000000000048000000000000000000000000000000000000000000000000000000000000000000000000000000000000000000000000000000000000PES00010000001 00000000000000020150911
201509010010000600000000000000006237000000000000000062378000000000030641405554AEROLINEAS ARGENTINAS S.A.    000000000060000000000000000000000000000000000000000000000000000000000000000000000000000000000000000000000000000000000000PES00010000001 00000000000000020150911
201509010010000600000000000000006238000000000000000062388000000000030641405554AEROLINEAS ARGENTINAS S.A.    000000000101000000000000000000000000000000000000000000000000000000000000000000000000000000000000000000000000000000000000PES00010000001 00000000000000020150911
201509010010000600000000000000006239000000000000000062398000000000030641405554AEROLINEAS ARGENTINAS S.A.    000000000097000000000000000000000000000000000000000000000000000000000000000000000000000000000000000000000000000000000000PES00010000001 00000000000000020150911
201509010060000600000000000000636951000000000000006369519900000000000000000000Consumidor Final              000000000045000000000000000000000000000000000000000000000000000000000000000000000000000000000000000000000000000000000000PES00010000001 00000000000000020150911
201509010060000600000000000000636952000000000000006369529900000000000000000000Consumidor Final              000000000045000000000000000000000000000000000000000000000000000000000000000000000000000000000000000000000000000000000000PES00010000001 00000000000000020150911
201509010060000700000000000000425087000000000000004250879900000000000000000000Consumidor Final              000000000045000000000000000000000000000000000000000000000000000000000000000000000000000000000000000000000000000000000000PES00010000001 00000000000000020150911
201509010010000600000000000000006240000000000000000062408000000000030641405554AEROLINEAS ARGENTINAS S.A.    000000000083000000000000000000000000000000000000000000000000000000000000000000000000000000000000000000000000000000000000PES00010000001 00000000000000020150911
201509010060000700000000000000425088000000000000004250889900000000000000000000Consumidor Final              000000000047000000000000000000000000000000000000000000000000000000000000000000000000000000000000000000000000000000000000PES00010000001 00000000000000020150911
201509010060000700000000000000425089000000000000004250899900000000000000000000Consumidor Final              000000000045000000000000000000000000000000000000000000000000000000000000000000000000000000000000000000000000000000000000PES00010000001 00000000000000020150911
201509010060000700000000000000425090000000000000004250909900000000000000000000Consumidor Final              000000000048000000000000000000000000000000000000000000000000000000000000000000000000000000000000000000000000000000000000PES00010000001 00000000000000020150911
201509010060000700000000000000425091000000000000004250919900000000000000000000Consumidor Final              000000000048000000000000000000000000000000000000000000000000000000000000000000000000000000000000000000000000000000000000PES00010000001 00000000000000020150911
201509010060000700000000000000425092000000000000004250929900000000000000000000Consumidor Final              000000000048000000000000000000000000000000000000000000000000000000000000000000000000000000000000000000000000000000000000PES00010000001 00000000000000020150911
201509010060000700000000000000425093000000000000004250939900000000000000000000Consumidor Final              000000000077000000000000000000000000000000000000000000000000000000000000000000000000000000000000000000000000000000000000PES00010000001 00000000000000020150911
201509010060000700000000000000425094000000000000004250949900000000000000000000Consumidor Final              000000000045000000000000000000000000000000000000000000000000000000000000000000000000000000000000000000000000000000000000PES00010000001 00000000000000020150911
201509010060000700000000000000425095000000000000004250959900000000000000000000Consumidor Final              000000000045000000000000000000000000000000000000000000000000000000000000000000000000000000000000000000000000000000000000PES00010000001 00000000000000020150911
201509010060000700000000000000425096000000000000004250969900000000000000000000Consumidor Final              000000000045000000000000000000000000000000000000000000000000000000000000000000000000000000000000000000000000000000000000PES00010000001 00000000000000020150911
201509010060000700000000000000425097000000000000004250979900000000000000000000Consumidor Final              000000000045000000000000000000000000000000000000000000000000000000000000000000000000000000000000000000000000000000000000PES00010000001 00000000000000020150911
201509010060000700000000000000425098000000000000004250989900000000000000000000Consumidor Final              000000000045000000000000000000000000000000000000000000000000000000000000000000000000000000000000000000000000000000000000PES00010000001 00000000000000020150911
201509010060000700000000000000425099000000000000004250999900000000000000000000Consumidor Final              000000000045000000000000000000000000000000000000000000000000000000000000000000000000000000000000000000000000000000000000PES00010000001 00000000000000020150911
201509010060000600000000000000636956000000000000006369569900000000000000000000Consumidor Final              000000000045000000000000000000000000000000000000000000000000000000000000000000000000000000000000000000000000000000000000PES00010000001 00000000000000020150911
201509010060000800000000000000137063000000000000001370639900000000000000000000Consumidor Final              000000000035000000000000000000000000000000000000000000000000000000000000000000000000000000000000000000000000000000000000PES00010000001 00000000000000020150911
201509010060000100000000000000188834000000000000001888349900000000000000000000Consumidor Final              000000000045000000000000000000000000000000000000000000000000000000000000000000000000000000000000000000000000000000000000PES00010000001 00000000000000020150911
201509010060000700000000000000425100000000000000004251009900000000000000000000Consumidor Final              000000000018000000000000000000000000000000000000000000000000000000000000000000000000000000000000000000000000000000000000PES00010000001 00000000000000020150911
201509010060000700000000000000425101000000000000004251019900000000000000000000Consumidor Final              000000000048000000000000000000000000000000000000000000000000000000000000000000000000000000000000000000000000000000000000PES00010000001 00000000000000020150911
201509010060000600000000000000636963000000000000006369639900000000000000000000Consumidor Final              000000000045000000000000000000000000000000000000000000000000000000000000000000000000000000000000000000000000000000000000PES00010000001 00000000000000020150911
201509010060000600000000000000636964000000000000006369649900000000000000000000Consumidor Final              000000000045000000000000000000000000000000000000000000000000000000000000000000000000000000000000000000000000000000000000PES00010000001 00000000000000020150911
201509010060000100000000000000188835000000000000001888359900000000000000000000Consumidor Final              000000000045000000000000000000000000000000000000000000000000000000000000000000000000000000000000000000000000000000000000PES00010000001 00000000000000020150911
201509010060000100000000000000188836000000000000001888369900000000000000000000Consumidor Final              000000000044000000000000000000000000000000000000000000000000000000000000000000000000000000000000000000000000000000000000PES00010000001 00000000000000020150911
201509010060000100000000000000188837000000000000001888379900000000000000000000Consumidor Final              000000000045000000000000000000000000000000000000000000000000000000000000000000000000000000000000000000000000000000000000PES00010000001 00000000000000020150911
201509010060000100000000000000188838000000000000001888389900000000000000000000Consumidor Final              000000000045000000000000000000000000000000000000000000000000000000000000000000000000000000000000000000000000000000000000PES00010000001 00000000000000020150911
201509010060000100000000000000188839000000000000001888399900000000000000000000Consumidor Final              000000000045000000000000000000000000000000000000000000000000000000000000000000000000000000000000000000000000000000000000PES00010000001 00000000000000020150911
201509010060000600000000000000636965000000000000006369659900000000000000000000Consumidor Final              000000000051000000000000000000000000000000000000000000000000000000000000000000000000000000000000000000000000000000000000PES00010000001 00000000000000020150911
201509010060000600000000000000636966000000000000006369669900000000000000000000Consumidor Final              000000000057000000000000000000000000000000000000000000000000000000000000000000000000000000000000000000000000000000000000PES00010000001 00000000000000020150911
201509010060000600000000000000636957000000000000006369579900000000000000000000Consumidor Final              000000000048000000000000000000000000000000000000000000000000000000000000000000000000000000000000000000000000000000000000PES00010000001 00000000000000020150911
201509010060000700000000000000425102000000000000004251029900000000000000000000Consumidor Final              000000000048000000000000000000000000000000000000000000000000000000000000000000000000000000000000000000000000000000000000PES00010000001 00000000000000020150911
201509010060000700000000000000425103000000000000004251039900000000000000000000Consumidor Final              000000000045000000000000000000000000000000000000000000000000000000000000000000000000000000000000000000000000000000000000PES00010000001 00000000000000020150911
201509010060000700000000000000425104000000000000004251049900000000000000000000Consumidor Final              000000000045000000000000000000000000000000000000000000000000000000000000000000000000000000000000000000000000000000000000PES00010000001 00000000000000020150911
201509010060000700000000000000425110000000000000004251109900000000000000000000Consumidor Final              000000000027000000000000000000000000000000000000000000000000000000000000000000000000000000000000000000000000000000000000PES00010000001 00000000000000020150911
201509010060000600000000000000636968000000000000006369689900000000000000000000Consumidor Final              000000000048000000000000000000000000000000000000000000000000000000000000000000000000000000000000000000000000000000000000PES00010000001 00000000000000020150911
201509010060000700000000000000425113000000000000004251139900000000000000000000Consumidor Final              000000000045000000000000000000000000000000000000000000000000000000000000000000000000000000000000000000000000000000000000PES00010000001 00000000000000020150911
201509010060000100000000000000188840000000000000001888409900000000000000000000Consumidor Final              000000000045000000000000000000000000000000000000000000000000000000000000000000000000000000000000000000000000000000000000PES00010000001 00000000000000020150911
201509010060000600000000000000636973000000000000006369739900000000000000000000Consumidor Final              000000000045000000000000000000000000000000000000000000000000000000000000000000000000000000000000000000000000000000000000PES00010000001 00000000000000020150911
201509010060000600000000000000636980000000000000006369809900000000000000000000Consumidor Final              000000000045000000000000000000000000000000000000000000000000000000000000000000000000000000000000000000000000000000000000PES00010000001 00000000000000020150911
201509010060000600000000000000636981000000000000006369819900000000000000000000Consumidor Final              000000000045000000000000000000000000000000000000000000000000000000000000000000000000000000000000000000000000000000000000PES00010000001 00000000000000020150911
201509010060000800000000000000137071000000000000001370719900000000000000000000Consumidor Final              000000000035000000000000000000000000000000000000000000000000000000000000000000000000000000000000000000000000000000000000PES00010000001 00000000000000020150911
201509010060000800000000000000137072000000000000001370729900000000000000000000Consumidor Final              000000000035000000000000000000000000000000000000000000000000000000000000000000000000000000000000000000000000000000000000PES00010000001 00000000000000020150911
201509010060000600000000000000636991000000000000006369919900000000000000000000Consumidor Final              000000000045000000000000000000000000000000000000000000000000000000000000000000000000000000000000000000000000000000000000PES00010000001 00000000000000020150911
201509010060000600000000000000636958000000000000006369589900000000000000000000Consumidor Final              000000000045000000000000000000000000000000000000000000000000000000000000000000000000000000000000000000000000000000000000PES00010000001 00000000000000020150911
201509010060000600000000000000636959000000000000006369599900000000000000000000Consumidor Final              000000000054000000000000000000000000000000000000000000000000000000000000000000000000000000000000000000000000000000000000PES00010000001 00000000000000020150911
201509010060000600000000000000636960000000000000006369609900000000000000000000Consumidor Final              000000000045000000000000000000000000000000000000000000000000000000000000000000000000000000000000000000000000000000000000PES00010000001 00000000000000020150911
201509010060000600000000000000636961000000000000006369619900000000000000000000Consumidor Final              000000000045000000000000000000000000000000000000000000000000000000000000000000000000000000000000000000000000000000000000PES00010000001 00000000000000020150911
201509010060000600000000000000636962000000000000006369629900000000000000000000Consumidor Final              000000000045000000000000000000000000000000000000000000000000000000000000000000000000000000000000000000000000000000000000PES00010000001 00000000000000020150911
201509010060000700000000000000425105000000000000004251059900000000000000000000Consumidor Final              000000000045000000000000000000000000000000000000000000000000000000000000000000000000000000000000000000000000000000000000PES00010000001 00000000000000020150911
201509010060000700000000000000425106000000000000004251069900000000000000000000Consumidor Final              000000000045000000000000000000000000000000000000000000000000000000000000000000000000000000000000000000000000000000000000PES00010000001 00000000000000020150911
201509010060000700000000000000425107000000000000004251079900000000000000000000Consumidor Final              000000000045000000000000000000000000000000000000000000000000000000000000000000000000000000000000000000000000000000000000PES00010000001 00000000000000020150911
201509010060000600000000000000636967000000000000006369679900000000000000000000Consumidor Final              000000000045000000000000000000000000000000000000000000000000000000000000000000000000000000000000000000000000000000000000PES00010000001 00000000000000020150911
201509010060000700000000000000425109000000000000004251099900000000000000000000Consumidor Final              000000000027000000000000000000000000000000000000000000000000000000000000000000000000000000000000000000000000000000000000PES00010000001 00000000000000020150911
201509010060000700000000000000425111000000000000004251119900000000000000000000Consumidor Final              000000000045000000000000000000000000000000000000000000000000000000000000000000000000000000000000000000000000000000000000PES00010000001 00000000000000020150911
201509010060000700000000000000425112000000000000004251129900000000000000000000Consumidor Final              000000000045000000000000000000000000000000000000000000000000000000000000000000000000000000000000000000000000000000000000PES00010000001 00000000000000020150911
201509010060000600000000000000636969000000000000006369699900000000000000000000Consumidor Final              000000000047000000000000000000000000000000000000000000000000000000000000000000000000000000000000000000000000000000000000PES00010000001 00000000000000020150911
201509010060000600000000000000636970000000000000006369709900000000000000000000Consumidor Final              000000000045000000000000000000000000000000000000000000000000000000000000000000000000000000000000000000000000000000000000PES00010000001 00000000000000020150911
201509010060000900000000000000022822000000000000000228229900000000000000000000Consumidor Final              000000000043000000000000000000000000000000000000000000000000000000000000000000000000000000000000000000000000000000000000PES00010000001 00000000000000020150911
201509010060000900000000000000022824000000000000000228249900000000000000000000Consumidor Final              000000000044000000000000000000000000000000000000000000000000000000000000000000000000000000000000000000000000000000000000PES00010000001 00000000000000020150911
201509010060000900000000000000022825000000000000000228259900000000000000000000Consumidor Final              000000000045000000000000000000000000000000000000000000000000000000000000000000000000000000000000000000000000000000000000PES00010000001 00000000000000020150911
201509010060000900000000000000022826000000000000000228269900000000000000000000Consumidor Final              000000000027000000000000000000000000000000000000000000000000000000000000000000000000000000000000000000000000000000000000PES00010000001 00000000000000020150911
201509010060000900000000000000022827000000000000000228279900000000000000000000Consumidor Final              000000000027000000000000000000000000000000000000000000000000000000000000000000000000000000000000000000000000000000000000PES00010000001 00000000000000020150911
201509010060000700000000000000425114000000000000004251149900000000000000000000Consumidor Final              000000000045000000000000000000000000000000000000000000000000000000000000000000000000000000000000000000000000000000000000PES00010000001 00000000000000020150911
201509010060000700000000000000425115000000000000004251159900000000000000000000Consumidor Final              000000000045000000000000000000000000000000000000000000000000000000000000000000000000000000000000000000000000000000000000PES00010000001 00000000000000020150911
201509010060000700000000000000425116000000000000004251169900000000000000000000Consumidor Final              000000000047000000000000000000000000000000000000000000000000000000000000000000000000000000000000000000000000000000000000PES00010000001 00000000000000020150911
201509010060000600000000000000637055000000000000006370559900000000000000000000Consumidor Final              000000000045000000000000000000000000000000000000000000000000000000000000000000000000000000000000000000000000000000000000PES00010000001 00000000000000020150911
201509010060000600000000000000637056000000000000006370569900000000000000000000Consumidor Final              000000000044000000000000000000000000000000000000000000000000000000000000000000000000000000000000000000000000000000000000PES00010000001 00000000000000020150911
201509010060000600000000000000637061000000000000006370619900000000000000000000Consumidor Final              000000000083000000000000000000000000000000000000000000000000000000000000000000000000000000000000000000000000000000000000PES00010000001 00000000000000020150911
201509010060000600000000000000637062000000000000006370629900000000000000000000Consumidor Final              000000000045000000000000000000000000000000000000000000000000000000000000000000000000000000000000000000000000000000000000PES00010000001 00000000000000020150911
201509010060000600000000000000637063000000000000006370639900000000000000000000Consumidor Final              000000000045000000000000000000000000000000000000000000000000000000000000000000000000000000000000000000000000000000000000PES00010000001 00000000000000020150911
201509010060000600000000000000637064000000000000006370649900000000000000000000Consumidor Final              000000000048000000000000000000000000000000000000000000000000000000000000000000000000000000000000000000000000000000000000PES00010000001 00000000000000020150911
201509020060000800000000000000137100000000000000001371009900000000000000000000Consumidor Final              000000000035000000000000000000000000000000000000000000000000000000000000000000000000000000000000000000000000000000000000PES00010000001 00000000000000020150912
201509020060000600000000000000637075000000000000006370759900000000000000000000Consumidor Final              000000000045000000000000000000000000000000000000000000000000000000000000000000000000000000000000000000000000000000000000PES00010000001 00000000000000020150912
