201710310060000600000000000000778905000000000000007789059900000000000000000000Consumidor Final              000000000072000000000000072000000000000000000000000000000000000000000000000000000000000000000000000000000000000000000000PES00010000001N00000000000000020171110
201710310060000600000000000000778906000000000000007789069900000000000000000000Consumidor Final              000000000072000000000000072000000000000000000000000000000000000000000000000000000000000000000000000000000000000000000000PES00010000001N00000000000000020171110
201710310060000600000000000000778907000000000000007789079900000000000000000000Consumidor Final              000000000072000000000000072000000000000000000000000000000000000000000000000000000000000000000000000000000000000000000000PES00010000001N00000000000000020171110
201710310060000600000000000000778908000000000000007789089900000000000000000000Consumidor Final              000000000072000000000000072000000000000000000000000000000000000000000000000000000000000000000000000000000000000000000000PES00010000001N00000000000000020171110
201710310060000600000000000000778909000000000000007789099900000000000000000000Consumidor Final              000000000072000000000000072000000000000000000000000000000000000000000000000000000000000000000000000000000000000000000000PES00010000001N00000000000000020171110
201710310060000800000000000000191821000000000000001918219900000000000000000000Consumidor Final              000000000062000000000000062000000000000000000000000000000000000000000000000000000000000000000000000000000000000000000000PES00010000001N00000000000000020171110
201710310060000600000000000000778910000000000000007789109900000000000000000000Consumidor Final              000000000079000000000000079000000000000000000000000000000000000000000000000000000000000000000000000000000000000000000000PES00010000001N00000000000000020171110
201710310060000800000000000000191822000000000000001918229900000000000000000000Consumidor Final              000000000072000000000000072000000000000000000000000000000000000000000000000000000000000000000000000000000000000000000000PES00010000001N00000000000000020171110
201710310060000700000000000000559854000000000000005598549900000000000000000000Consumidor Final              000000000072000000000000072000000000000000000000000000000000000000000000000000000000000000000000000000000000000000000000PES00010000001N00000000000000020171110
201710310060000700000000000000559855000000000000005598559900000000000000000000Consumidor Final              000000000072000000000000072000000000000000000000000000000000000000000000000000000000000000000000000000000000000000000000PES00010000001N00000000000000020171110
201710310060000800000000000000191823000000000000001918239900000000000000000000Consumidor Final              000000000072000000000000072000000000000000000000000000000000000000000000000000000000000000000000000000000000000000000000PES00010000001N00000000000000020171110
201710310060000800000000000000191795000000000000001917959900000000000000000000Consumidor Final              000000000062000000000000062000000000000000000000000000000000000000000000000000000000000000000000000000000000000000000000PES00010000001N00000000000000020171110
201710310060000700000000000000559749000000000000005597499900000000000000000000Consumidor Final              000000000072000000000000072000000000000000000000000000000000000000000000000000000000000000000000000000000000000000000000PES00010000001N00000000000000020171110
201710310060000700000000000000559750000000000000005597509900000000000000000000Consumidor Final              000000000072000000000000072000000000000000000000000000000000000000000000000000000000000000000000000000000000000000000000PES00010000001N00000000000000020171110
201710310060000700000000000000559751000000000000005597519900000000000000000000Consumidor Final              000000000072000000000000072000000000000000000000000000000000000000000000000000000000000000000000000000000000000000000000PES00010000001N00000000000000020171110
201710310060000700000000000000559752000000000000005597529900000000000000000000Consumidor Final              000000000072000000000000072000000000000000000000000000000000000000000000000000000000000000000000000000000000000000000000PES00010000001N00000000000000020171110
201710310060000700000000000000559753000000000000005597539900000000000000000000Consumidor Final              000000000072000000000000072000000000000000000000000000000000000000000000000000000000000000000000000000000000000000000000PES00010000001N00000000000000020171110
201710310060000700000000000000559754000000000000005597549900000000000000000000Consumidor Final              000000000072000000000000072000000000000000000000000000000000000000000000000000000000000000000000000000000000000000000000PES00010000001N00000000000000020171110
201710310060000700000000000000559755000000000000005597559900000000000000000000Consumidor Final              000000000050000000000000050000000000000000000000000000000000000000000000000000000000000000000000000000000000000000000000PES00010000001N00000000000000020171110
201710310060000700000000000000559756000000000000005597569900000000000000000000Consumidor Final              000000000065000000000000065000000000000000000000000000000000000000000000000000000000000000000000000000000000000000000000PES00010000001N00000000000000020171110
201710310060000800000000000000191807000000000000001918079900000000000000000000Consumidor Final              000000000062000000000000062000000000000000000000000000000000000000000000000000000000000000000000000000000000000000000000PES00010000001N00000000000000020171110
201710310060000700000000000000559787000000000000005597879900000000000000000000Consumidor Final              000000000086000000000000086000000000000000000000000000000000000000000000000000000000000000000000000000000000000000000000PES00010000001N00000000000000020171110
201710310060000700000000000000559788000000000000005597889900000000000000000000Consumidor Final              000000000079200000000000079200000000000000000000000000000000000000000000000000000000000000000000000000000000000000000000PES00010000001N00000000000000020171110
201710310060000600000000000000778847000000000000007788479900000000000000000000Consumidor Final              000000000072000000000000072000000000000000000000000000000000000000000000000000000000000000000000000000000000000000000000PES00010000001N00000000000000020171110
201710310060000600000000000000778848000000000000007788489900000000000000000000Consumidor Final              000000000072000000000000072000000000000000000000000000000000000000000000000000000000000000000000000000000000000000000000PES00010000001N00000000000000020171110
201710310060000700000000000000559789000000000000005597899900000000000000000000Consumidor Final              000000000079200000000000079200000000000000000000000000000000000000000000000000000000000000000000000000000000000000000000PES00010000001N00000000000000020171110
201710310060000600000000000000778849000000000000007788499900000000000000000000Consumidor Final              000000000072000000000000072000000000000000000000000000000000000000000000000000000000000000000000000000000000000000000000PES00010000001N00000000000000020171110
201710310060000600000000000000778850000000000000007788509900000000000000000000Consumidor Final              000000000072000000000000072000000000000000000000000000000000000000000000000000000000000000000000000000000000000000000000PES00010000001N00000000000000020171110
201710310060000600000000000000778852000000000000007788529900000000000000000000Consumidor Final              000000000072000000000000072000000000000000000000000000000000000000000000000000000000000000000000000000000000000000000000PES00010000001N00000000000000020171110
201710310060000600000000000000778853000000000000007788539900000000000000000000Consumidor Final              000000000086000000000000086000000000000000000000000000000000000000000000000000000000000000000000000000000000000000000000PES00010000001N00000000000000020171110
201710310060000800000000000000191813000000000000001918139900000000000000000000Consumidor Final              000000000062000000000000062000000000000000000000000000000000000000000000000000000000000000000000000000000000000000000000PES00010000001N00000000000000020171110
201710310060000600000000000000778876000000000000007788769900000000000000000000Consumidor Final              000000000072000000000000072000000000000000000000000000000000000000000000000000000000000000000000000000000000000000000000PES00010000001N00000000000000020171110
201710310060000600000000000000778877000000000000007788779900000000000000000000Consumidor Final              000000000072000000000000072000000000000000000000000000000000000000000000000000000000000000000000000000000000000000000000PES00010000001N00000000000000020171110
201710310060000600000000000000778878000000000000007788789900000000000000000000Consumidor Final              000000000072000000000000072000000000000000000000000000000000000000000000000000000000000000000000000000000000000000000000PES00010000001N00000000000000020171110
201710310060000600000000000000778879000000000000007788799900000000000000000000Consumidor Final              000000000072000000000000072000000000000000000000000000000000000000000000000000000000000000000000000000000000000000000000PES00010000001N00000000000000020171110
201710310060000600000000000000778880000000000000007788809900000000000000000000Consumidor Final              000000000079200000000000079200000000000000000000000000000000000000000000000000000000000000000000000000000000000000000000PES00010000001N00000000000000020171110
201710310060000600000000000000778881000000000000007788819900000000000000000000Consumidor Final              000000000072000000000000072000000000000000000000000000000000000000000000000000000000000000000000000000000000000000000000PES00010000001N00000000000000020171110
201710310060000600000000000000778882000000000000007788829900000000000000000000Consumidor Final              000000000072000000000000072000000000000000000000000000000000000000000000000000000000000000000000000000000000000000000000PES00010000001N00000000000000020171110
201710310060000600000000000000778883000000000000007788839900000000000000000000Consumidor Final              000000000072000000000000072000000000000000000000000000000000000000000000000000000000000000000000000000000000000000000000PES00010000001N00000000000000020171110
201710310060000600000000000000778884000000000000007788849900000000000000000000Consumidor Final              000000000087000000000000087000000000000000000000000000000000000000000000000000000000000000000000000000000000000000000000PES00010000001N00000000000000020171110
201710310060000600000000000000778885000000000000007788859900000000000000000000Consumidor Final              000000000072000000000000072000000000000000000000000000000000000000000000000000000000000000000000000000000000000000000000PES00010000001N00000000000000020171110
201710310060000700000000000000559743000000000000005597439900000000000000000000Consumidor Final              000000000086000000000000086000000000000000000000000000000000000000000000000000000000000000000000000000000000000000000000PES00010000001N00000000000000020171110
201710310060000700000000000000559744000000000000005597449900000000000000000000Consumidor Final              000000000072000000000000072000000000000000000000000000000000000000000000000000000000000000000000000000000000000000000000PES00010000001N00000000000000020171110
201710310060000700000000000000559745000000000000005597459900000000000000000000Consumidor Final              000000000072000000000000072000000000000000000000000000000000000000000000000000000000000000000000000000000000000000000000PES00010000001N00000000000000020171110
201710310060000700000000000000559746000000000000005597469900000000000000000000Consumidor Final              000000000072000000000000072000000000000000000000000000000000000000000000000000000000000000000000000000000000000000000000PES00010000001N00000000000000020171110
201710310060000700000000000000559747000000000000005597479900000000000000000000Consumidor Final              000000000072000000000000072000000000000000000000000000000000000000000000000000000000000000000000000000000000000000000000PES00010000001N00000000000000020171110
201710310060000700000000000000559748000000000000005597489900000000000000000000Consumidor Final              000000000086000000000000086000000000000000000000000000000000000000000000000000000000000000000000000000000000000000000000PES00010000001N00000000000000020171110
201710310060000600000000000000778831000000000000007788319900000000000000000000Consumidor Final              000000000072000000000000072000000000000000000000000000000000000000000000000000000000000000000000000000000000000000000000PES00010000001N00000000000000020171110
201710310060000800000000000000191796000000000000001917969900000000000000000000Consumidor Final              000000000062000000000000062000000000000000000000000000000000000000000000000000000000000000000000000000000000000000000000PES00010000001N00000000000000020171110
201710310060000800000000000000191797000000000000001917979900000000000000000000Consumidor Final              000000000062000000000000062000000000000000000000000000000000000000000000000000000000000000000000000000000000000000000000PES00010000001N00000000000000020171110
201710310060000800000000000000191798000000000000001917989900000000000000000000Consumidor Final              000000000070000000000000070000000000000000000000000000000000000000000000000000000000000000000000000000000000000000000000PES00010000001N00000000000000020171110
201710310060000800000000000000191799000000000000001917999900000000000000000000Consumidor Final              000000000035000000000000035000000000000000000000000000000000000000000000000000000000000000000000000000000000000000000000PES00010000001N00000000000000020171110
201710310060000800000000000000191800000000000000001918009900000000000000000000Consumidor Final              000000000035000000000000035000000000000000000000000000000000000000000000000000000000000000000000000000000000000000000000PES00010000001N00000000000000020171110
201710310060000700000000000000559757000000000000005597579900000000000000000000Consumidor Final              000000000035000000000000035000000000000000000000000000000000000000000000000000000000000000000000000000000000000000000000PES00010000001N00000000000000020171110
201710310060000700000000000000559758000000000000005597589900000000000000000000Consumidor Final              000000000072000000000000072000000000000000000000000000000000000000000000000000000000000000000000000000000000000000000000PES00010000001N00000000000000020171110
201710310060000700000000000000559759000000000000005597599900000000000000000000Consumidor Final              000000000072000000000000072000000000000000000000000000000000000000000000000000000000000000000000000000000000000000000000PES00010000001N00000000000000020171110
201710310060000700000000000000559760000000000000005597609900000000000000000000Consumidor Final              000000000072000000000000072000000000000000000000000000000000000000000000000000000000000000000000000000000000000000000000PES00010000001N00000000000000020171110
201710310060000800000000000000191801000000000000001918019000000000099999999999Consumidor Final              000000000118000000000000118000000000000000000000000000000000000000000000000000000000000000000000000000000000000000000000PES00010000001N00000000000000020171110
201710310060000600000000000000778832000000000000007788329900000000000000000000Consumidor Final              000000000079200000000000079200000000000000000000000000000000000000000000000000000000000000000000000000000000000000000000PES00010000001N00000000000000020171110
201710310060000600000000000000778833000000000000007788339900000000000000000000Consumidor Final              000000000072000000000000072000000000000000000000000000000000000000000000000000000000000000000000000000000000000000000000PES00010000001N00000000000000020171110
201710310060000600000000000000778834000000000000007788349900000000000000000000Consumidor Final              000000000072000000000000072000000000000000000000000000000000000000000000000000000000000000000000000000000000000000000000PES00010000001N00000000000000020171110
201710310060000600000000000000778835000000000000007788359900000000000000000000Consumidor Final              000000000072000000000000072000000000000000000000000000000000000000000000000000000000000000000000000000000000000000000000PES00010000001N00000000000000020171110
201710310060000600000000000000778836000000000000007788369900000000000000000000Consumidor Final              000000000072000000000000072000000000000000000000000000000000000000000000000000000000000000000000000000000000000000000000PES00010000001N00000000000000020171110
201710310060000600000000000000778837000000000000007788379900000000000000000000Consumidor Final              000000000072000000000000072000000000000000000000000000000000000000000000000000000000000000000000000000000000000000000000PES00010000001N00000000000000020171110
201710310060000700000000000000559768000000000000005597689900000000000000000000Consumidor Final              000000000072000000000000072000000000000000000000000000000000000000000000000000000000000000000000000000000000000000000000PES00010000001N00000000000000020171110
201710310060000700000000000000559769000000000000005597699900000000000000000000Consumidor Final              000000000079200000000000079200000000000000000000000000000000000000000000000000000000000000000000000000000000000000000000PES00010000001N00000000000000020171110
201710310060000700000000000000559770000000000000005597709900000000000000000000Consumidor Final              000000000079200000000000079200000000000000000000000000000000000000000000000000000000000000000000000000000000000000000000PES00010000001N00000000000000020171110
201710310060000700000000000000559771000000000000005597719900000000000000000000Consumidor Final              000000000072000000000000072000000000000000000000000000000000000000000000000000000000000000000000000000000000000000000000PES00010000001N00000000000000020171110
201710310060000800000000000000191802000000000000001918029900000000000000000000Consumidor Final              000000000035000000000000035000000000000000000000000000000000000000000000000000000000000000000000000000000000000000000000PES00010000001N00000000000000020171110
201710310060000700000000000000559776000000000000005597769900000000000000000000Consumidor Final              000000000086000000000000086000000000000000000000000000000000000000000000000000000000000000000000000000000000000000000000PES00010000001N00000000000000020171110
201710310060000700000000000000559777000000000000005597779900000000000000000000Consumidor Final              000000000086000000000000086000000000000000000000000000000000000000000000000000000000000000000000000000000000000000000000PES00010000001N00000000000000020171110
201710310060000700000000000000559778000000000000005597789900000000000000000000Consumidor Final              000000000072000000000000072000000000000000000000000000000000000000000000000000000000000000000000000000000000000000000000PES00010000001N00000000000000020171110
201710310060000700000000000000559779000000000000005597799900000000000000000000Consumidor Final              000000000072000000000000072000000000000000000000000000000000000000000000000000000000000000000000000000000000000000000000PES00010000001N00000000000000020171110
201710310060000700000000000000559780000000000000005597809900000000000000000000Consumidor Final              000000000072000000000000072000000000000000000000000000000000000000000000000000000000000000000000000000000000000000000000PES00010000001N00000000000000020171110
201710310060000700000000000000559781000000000000005597819900000000000000000000Consumidor Final              000000000072000000000000072000000000000000000000000000000000000000000000000000000000000000000000000000000000000000000000PES00010000001N00000000000000020171110
201710310060000700000000000000559782000000000000005597829900000000000000000000Consumidor Final              000000000072000000000000072000000000000000000000000000000000000000000000000000000000000000000000000000000000000000000000PES00010000001N00000000000000020171110
201710310060000700000000000000559783000000000000005597839900000000000000000000Consumidor Final              000000000079200000000000079200000000000000000000000000000000000000000000000000000000000000000000000000000000000000000000PES00010000001N00000000000000020171110
201710310060000600000000000000778845000000000000007788459900000000000000000000Consumidor Final              000000000072000000000000072000000000000000000000000000000000000000000000000000000000000000000000000000000000000000000000PES00010000001N00000000000000020171110
201710310060000800000000000000191803000000000000001918039900000000000000000000Consumidor Final              000000000062000000000000062000000000000000000000000000000000000000000000000000000000000000000000000000000000000000000000PES00010000001N00000000000000020171110
201710310060000700000000000000559761000000000000005597619900000000000000000000Consumidor Final              000000000072000000000000072000000000000000000000000000000000000000000000000000000000000000000000000000000000000000000000PES00010000001N00000000000000020171110
201710310060000700000000000000559762000000000000005597629900000000000000000000Consumidor Final              000000000070000000000000070000000000000000000000000000000000000000000000000000000000000000000000000000000000000000000000PES00010000001N00000000000000020171110
201710310060000700000000000000559763000000000000005597639900000000000000000000Consumidor Final              000000000069000000000000069000000000000000000000000000000000000000000000000000000000000000000000000000000000000000000000PES00010000001N00000000000000020171110
201710310060000700000000000000559764000000000000005597649000000000099999999999Consumidor Final              000000000113300000000000113300000000000000000000000000000000000000000000000000000000000000000000000000000000000000000000PES00010000001N00000000000000020171110
201710310060000800000000000000191804000000000000001918049900000000000000000000Consumidor Final              000000000062000000000000062000000000000000000000000000000000000000000000000000000000000000000000000000000000000000000000PES00010000001N00000000000000020171110
201710310060000700000000000000559765000000000000005597659900000000000000000000Consumidor Final              000000000077000000000000077000000000000000000000000000000000000000000000000000000000000000000000000000000000000000000000PES00010000001N00000000000000020171110
201710310060000700000000000000559766000000000000005597669900000000000000000000Consumidor Final              000000000033000000000000033000000000000000000000000000000000000000000000000000000000000000000000000000000000000000000000PES00010000001N00000000000000020171110
201710310060000700000000000000559767000000000000005597679900000000000000000000Consumidor Final              000000000072000000000000072000000000000000000000000000000000000000000000000000000000000000000000000000000000000000000000PES00010000001N00000000000000020171110
201710310060000700000000000000559772000000000000005597729900000000000000000000Consumidor Final              000000000079000000000000079000000000000000000000000000000000000000000000000000000000000000000000000000000000000000000000PES00010000001N00000000000000020171110
201710310060000700000000000000559773000000000000005597739900000000000000000000Consumidor Final              000000000072000000000000072000000000000000000000000000000000000000000000000000000000000000000000000000000000000000000000PES00010000001N00000000000000020171110
201710310060000700000000000000559774000000000000005597749900000000000000000000Consumidor Final              000000000072000000000000072000000000000000000000000000000000000000000000000000000000000000000000000000000000000000000000PES00010000001N00000000000000020171110
201710310060000700000000000000559775000000000000005597759900000000000000000000Consumidor Final              000000000072000000000000072000000000000000000000000000000000000000000000000000000000000000000000000000000000000000000000PES00010000001N00000000000000020171110
201710310060000600000000000000778838000000000000007788389900000000000000000000Consumidor Final              000000000072000000000000072000000000000000000000000000000000000000000000000000000000000000000000000000000000000000000000PES00010000001N00000000000000020171110
201710310060000600000000000000778839000000000000007788399900000000000000000000Consumidor Final              000000000072000000000000072000000000000000000000000000000000000000000000000000000000000000000000000000000000000000000000PES00010000001N00000000000000020171110
201710310060000600000000000000778840000000000000007788409000000000099999999999Consumidor Final              000000000125000000000000125000000000000000000000000000000000000000000000000000000000000000000000000000000000000000000000PES00010000001N00000000000000020171110
201710310060000600000000000000778851000000000000007788519900000000000000000000Consumidor Final              000000000073000000000000073000000000000000000000000000000000000000000000000000000000000000000000000000000000000000000000PES00010000001N00000000000000020171110
201710310060000700000000000000559790000000000000005597908000000000030708603690Consumidor Final              000000000072000000000000072000000000000000000000000000000000000000000000000000000000000000000000000000000000000000000000PES00010000001N00000000000000020171110
201710310060000800000000000000191809000000000000001918099900000000000000000000Consumidor Final              000000000062000000000000062000000000000000000000000000000000000000000000000000000000000000000000000000000000000000000000PES00010000001N00000000000000020171110
201710310060000800000000000000191810000000000000001918109900000000000000000000Consumidor Final              000000000062000000000000062000000000000000000000000000000000000000000000000000000000000000000000000000000000000000000000PES00010000001N00000000000000020171110
201710310060000800000000000000191811000000000000001918119900000000000000000000Consumidor Final              000000000062000000000000062000000000000000000000000000000000000000000000000000000000000000000000000000000000000000000000PES00010000001N00000000000000020171110
201710310060000800000000000000191812000000000000001918129900000000000000000000Consumidor Final              000000000062000000000000062000000000000000000000000000000000000000000000000000000000000000000000000000000000000000000000PES00010000001N00000000000000020171110
201710310060000600000000000000778841000000000000007788419900000000000000000000Consumidor Final              000000000072000000000000072000000000000000000000000000000000000000000000000000000000000000000000000000000000000000000000PES00010000001N00000000000000020171110
201710310060000600000000000000778842000000000000007788429900000000000000000000Consumidor Final              000000000072000000000000072000000000000000000000000000000000000000000000000000000000000000000000000000000000000000000000PES00010000001N00000000000000020171110
201710310060000600000000000000778843000000000000007788439900000000000000000000Consumidor Final              000000000072000000000000072000000000000000000000000000000000000000000000000000000000000000000000000000000000000000000000PES00010000001N00000000000000020171110
201710310060000600000000000000778844000000000000007788449900000000000000000000Consumidor Final              000000000079200000000000079200000000000000000000000000000000000000000000000000000000000000000000000000000000000000000000PES00010000001N00000000000000020171110
201710310060000700000000000000559784000000000000005597849900000000000000000000Consumidor Final              000000000079200000000000079200000000000000000000000000000000000000000000000000000000000000000000000000000000000000000000PES00010000001N00000000000000020171110
201710310060000700000000000000559785000000000000005597859900000000000000000000Consumidor Final              000000000072000000000000072000000000000000000000000000000000000000000000000000000000000000000000000000000000000000000000PES00010000001N00000000000000020171110
201710310060000600000000000000778846000000000000007788469900000000000000000000Consumidor Final              000000000079200000000000079200000000000000000000000000000000000000000000000000000000000000000000000000000000000000000000PES00010000001N00000000000000020171110
201710310060000700000000000000559786000000000000005597869900000000000000000000Consumidor Final              000000000072000000000000072000000000000000000000000000000000000000000000000000000000000000000000000000000000000000000000PES00010000001N00000000000000020171110
201710310060000800000000000000191805000000000000001918059900000000000000000000Consumidor Final              000000000062000000000000062000000000000000000000000000000000000000000000000000000000000000000000000000000000000000000000PES00010000001N00000000000000020171110
201710310060000800000000000000191806000000000000001918069900000000000000000000Consumidor Final              000000000062000000000000062000000000000000000000000000000000000000000000000000000000000000000000000000000000000000000000PES00010000001N00000000000000020171110
201710310060000700000000000000559791000000000000005597919900000000000000000000Consumidor Final              000000000072000000000000072000000000000000000000000000000000000000000000000000000000000000000000000000000000000000000000PES00010000001N00000000000000020171110
201710310060000600000000000000778854000000000000007788549900000000000000000000Consumidor Final              000000000072000000000000072000000000000000000000000000000000000000000000000000000000000000000000000000000000000000000000PES00010000001N00000000000000020171110
201710310060000600000000000000778857000000000000007788579900000000000000000000Consumidor Final              000000000072000000000000072000000000000000000000000000000000000000000000000000000000000000000000000000000000000000000000PES00010000001N00000000000000020171110
201710310060000600000000000000778858000000000000007788589900000000000000000000Consumidor Final              000000000079200000000000079200000000000000000000000000000000000000000000000000000000000000000000000000000000000000000000PES00010000001N00000000000000020171110
201710310060000600000000000000778859000000000000007788599900000000000000000000Consumidor Final              000000000096000000000000096000000000000000000000000000000000000000000000000000000000000000000000000000000000000000000000PES00010000001N00000000000000020171110
201710310060000600000000000000778860000000000000007788609900000000000000000000Consumidor Final              000000000079200000000000079200000000000000000000000000000000000000000000000000000000000000000000000000000000000000000000PES00010000001N00000000000000020171110
201710310060000600000000000000778861000000000000007788619900000000000000000000Consumidor Final              000000000079200000000000079200000000000000000000000000000000000000000000000000000000000000000000000000000000000000000000PES00010000001N00000000000000020171110
201710310060000700000000000000559804000000000000005598049900000000000000000000Consumidor Final              000000000040000000000000040000000000000000000000000000000000000000000000000000000000000000000000000000000000000000000000PES00010000001N00000000000000020171110
201710310060000700000000000000559805000000000000005598059900000000000000000000Consumidor Final              000000000072000000000000072000000000000000000000000000000000000000000000000000000000000000000000000000000000000000000000PES00010000001N00000000000000020171110
201710310060000700000000000000559806000000000000005598069900000000000000000000Consumidor Final              000000000072000000000000072000000000000000000000000000000000000000000000000000000000000000000000000000000000000000000000PES00010000001N00000000000000020171110
201710310060000700000000000000559807000000000000005598079900000000000000000000Consumidor Final              000000000075000000000000075000000000000000000000000000000000000000000000000000000000000000000000000000000000000000000000PES00010000001N00000000000000020171110
201710310060000600000000000000778855000000000000007788559900000000000000000000Consumidor Final              000000000072000000000000072000000000000000000000000000000000000000000000000000000000000000000000000000000000000000000000PES00010000001N00000000000000020171110
201710310060000600000000000000778856000000000000007788569900000000000000000000Consumidor Final              000000000072000000000000072000000000000000000000000000000000000000000000000000000000000000000000000000000000000000000000PES00010000001N00000000000000020171110
201710310060000700000000000000559794000000000000005597949900000000000000000000Consumidor Final              000000000079200000000000079200000000000000000000000000000000000000000000000000000000000000000000000000000000000000000000PES00010000001N00000000000000020171110
201710310060000700000000000000559795000000000000005597959900000000000000000000Consumidor Final              000000000072000000000000072000000000000000000000000000000000000000000000000000000000000000000000000000000000000000000000PES00010000001N00000000000000020171110
201710310060000700000000000000559796000000000000005597969900000000000000000000Consumidor Final              000000000079200000000000079200000000000000000000000000000000000000000000000000000000000000000000000000000000000000000000PES00010000001N00000000000000020171110
201710310060000700000000000000559792000000000000005597929900000000000000000000Consumidor Final              000000000072000000000000072000000000000000000000000000000000000000000000000000000000000000000000000000000000000000000000PES00010000001N00000000000000020171110
201710310060000700000000000000559793000000000000005597939900000000000000000000Consumidor Final              000000000072000000000000072000000000000000000000000000000000000000000000000000000000000000000000000000000000000000000000PES00010000001N00000000000000020171110
201710310060000700000000000000559800000000000000005598009900000000000000000000Consumidor Final              000000000079200000000000079200000000000000000000000000000000000000000000000000000000000000000000000000000000000000000000PES00010000001N00000000000000020171110
201710310060000700000000000000559801000000000000005598019900000000000000000000Consumidor Final              000000000072000000000000072000000000000000000000000000000000000000000000000000000000000000000000000000000000000000000000PES00010000001N00000000000000020171110
201710310060000700000000000000559802000000000000005598029900000000000000000000Consumidor Final              000000000072000000000000072000000000000000000000000000000000000000000000000000000000000000000000000000000000000000000000PES00010000001N00000000000000020171110
201710310060000700000000000000559803000000000000005598039900000000000000000000Consumidor Final              000000000072000000000000072000000000000000000000000000000000000000000000000000000000000000000000000000000000000000000000PES00010000001N00000000000000020171110
201710310060000700000000000000559808000000000000005598089900000000000000000000Consumidor Final              000000000069000000000000069000000000000000000000000000000000000000000000000000000000000000000000000000000000000000000000PES00010000001N00000000000000020171110
201710310060000600000000000000778867000000000000007788679900000000000000000000Consumidor Final              000000000072000000000000072000000000000000000000000000000000000000000000000000000000000000000000000000000000000000000000PES00010000001N00000000000000020171110
201710310060000600000000000000778868000000000000007788689900000000000000000000Consumidor Final              000000000079200000000000079200000000000000000000000000000000000000000000000000000000000000000000000000000000000000000000PES00010000001N00000000000000020171110
201710310060000700000000000000559809000000000000005598099900000000000000000000Consumidor Final              000000000072000000000000072000000000000000000000000000000000000000000000000000000000000000000000000000000000000000000000PES00010000001N00000000000000020171110
201710310060000700000000000000559797000000000000005597979900000000000000000000Consumidor Final              000000000072000000000000072000000000000000000000000000000000000000000000000000000000000000000000000000000000000000000000PES00010000001N00000000000000020171110
201710310060000700000000000000559798000000000000005597989900000000000000000000Consumidor Final              000000000082500000000000082500000000000000000000000000000000000000000000000000000000000000000000000000000000000000000000PES00010000001N00000000000000020171110
201710310060000700000000000000559799000000000000005597999900000000000000000000Consumidor Final              000000000086000000000000086000000000000000000000000000000000000000000000000000000000000000000000000000000000000000000000PES00010000001N00000000000000020171110
201710310060000600000000000000778862000000000000007788629900000000000000000000Consumidor Final              000000000072000000000000072000000000000000000000000000000000000000000000000000000000000000000000000000000000000000000000PES00010000001N00000000000000020171110
201710310060000600000000000000778863000000000000007788639900000000000000000000Consumidor Final              000000000082500000000000082500000000000000000000000000000000000000000000000000000000000000000000000000000000000000000000PES00010000001N00000000000000020171110
201710310060000600000000000000778864000000000000007788649900000000000000000000Consumidor Final              000000000072000000000000072000000000000000000000000000000000000000000000000000000000000000000000000000000000000000000000PES00010000001N00000000000000020171110
201710310060000600000000000000778865000000000000007788659900000000000000000000Consumidor Final              000000000082500000000000082500000000000000000000000000000000000000000000000000000000000000000000000000000000000000000000PES00010000001N00000000000000020171110
201710310060000600000000000000778866000000000000007788669900000000000000000000Consumidor Final              000000000094600000000000094600000000000000000000000000000000000000000000000000000000000000000000000000000000000000000000PES00010000001N00000000000000020171110
201710310060000600000000000000778869000000000000007788699900000000000000000000Consumidor Final              000000000079200000000000079200000000000000000000000000000000000000000000000000000000000000000000000000000000000000000000PES00010000001N00000000000000020171110
201710310060000800000000000000191808000000000000001918089900000000000000000000Consumidor Final              000000000062000000000000062000000000000000000000000000000000000000000000000000000000000000000000000000000000000000000000PES00010000001N00000000000000020171110
201710310060000700000000000000559810000000000000005598109900000000000000000000Consumidor Final              000000000069000000000000069000000000000000000000000000000000000000000000000000000000000000000000000000000000000000000000PES00010000001N00000000000000020171110
201710310060000700000000000000559811000000000000005598119900000000000000000000Consumidor Final              000000000072000000000000072000000000000000000000000000000000000000000000000000000000000000000000000000000000000000000000PES00010000001N00000000000000020171110
201710310060000700000000000000559812000000000000005598129900000000000000000000Consumidor Final              000000000079200000000000079200000000000000000000000000000000000000000000000000000000000000000000000000000000000000000000PES00010000001N00000000000000020171110
201710310060000600000000000000778870000000000000007788709900000000000000000000Consumidor Final              000000000072000000000000072000000000000000000000000000000000000000000000000000000000000000000000000000000000000000000000PES00010000001N00000000000000020171110
201710310060000600000000000000778871000000000000007788719900000000000000000000Consumidor Final              000000000079200000000000079200000000000000000000000000000000000000000000000000000000000000000000000000000000000000000000PES00010000001N00000000000000020171110
201710310060000600000000000000778872000000000000007788729900000000000000000000Consumidor Final              000000000079200000000000079200000000000000000000000000000000000000000000000000000000000000000000000000000000000000000000PES00010000001N00000000000000020171110
201710310060000600000000000000778873000000000000007788739900000000000000000000Consumidor Final              000000000075000000000000075000000000000000000000000000000000000000000000000000000000000000000000000000000000000000000000PES00010000001N00000000000000020171110
201710310060000600000000000000778874000000000000007788749900000000000000000000Consumidor Final              000000000075000000000000075000000000000000000000000000000000000000000000000000000000000000000000000000000000000000000000PES00010000001N00000000000000020171110
201710310060000600000000000000778875000000000000007788759900000000000000000000Consumidor Final              000000000072000000000000072000000000000000000000000000000000000000000000000000000000000000000000000000000000000000000000PES00010000001N00000000000000020171110
201710310060000600000000000000778916000000000000007789169900000000000000000000Consumidor Final              000000000072000000000000072000000000000000000000000000000000000000000000000000000000000000000000000000000000000000000000PES00010000001N00000000000000020171110
201710310060000700000000000000559813000000000000005598139900000000000000000000Consumidor Final              000000000075000000000000075000000000000000000000000000000000000000000000000000000000000000000000000000000000000000000000PES00010000001N00000000000000020171110
201710310060000700000000000000559814000000000000005598149900000000000000000000Consumidor Final              000000000072000000000000072000000000000000000000000000000000000000000000000000000000000000000000000000000000000000000000PES00010000001N00000000000000020171110
201710310060000700000000000000559815000000000000005598159900000000000000000000Consumidor Final              000000000072000000000000072000000000000000000000000000000000000000000000000000000000000000000000000000000000000000000000PES00010000001N00000000000000020171110
201710310060000700000000000000559816000000000000005598169900000000000000000000Consumidor Final              000000000072000000000000072000000000000000000000000000000000000000000000000000000000000000000000000000000000000000000000PES00010000001N00000000000000020171110
201710310060000700000000000000559817000000000000005598179900000000000000000000Consumidor Final              000000000072000000000000072000000000000000000000000000000000000000000000000000000000000000000000000000000000000000000000PES00010000001N00000000000000020171110
201710310060000700000000000000559818000000000000005598189900000000000000000000Consumidor Final              000000000072000000000000072000000000000000000000000000000000000000000000000000000000000000000000000000000000000000000000PES00010000001N00000000000000020171110
201710310060000700000000000000559819000000000000005598199900000000000000000000Consumidor Final              000000000072000000000000072000000000000000000000000000000000000000000000000000000000000000000000000000000000000000000000PES00010000001N00000000000000020171110
201710310060000700000000000000559823000000000000005598239900000000000000000000Consumidor Final              000000000072000000000000072000000000000000000000000000000000000000000000000000000000000000000000000000000000000000000000PES00010000001N00000000000000020171110
201710310060000700000000000000559824000000000000005598249900000000000000000000Consumidor Final              000000000079200000000000079200000000000000000000000000000000000000000000000000000000000000000000000000000000000000000000PES00010000001N00000000000000020171110
201710310060000700000000000000559825000000000000005598259900000000000000000000Consumidor Final              000000000072000000000000072000000000000000000000000000000000000000000000000000000000000000000000000000000000000000000000PES00010000001N00000000000000020171110
201710310060000700000000000000559826000000000000005598269900000000000000000000Consumidor Final              000000000072000000000000072000000000000000000000000000000000000000000000000000000000000000000000000000000000000000000000PES00010000001N00000000000000020171110
201710310060000700000000000000559820000000000000005598209900000000000000000000Consumidor Final              000000000072000000000000072000000000000000000000000000000000000000000000000000000000000000000000000000000000000000000000PES00010000001N00000000000000020171110
201710310060000700000000000000559827000000000000005598279900000000000000000000Consumidor Final              000000000072000000000000072000000000000000000000000000000000000000000000000000000000000000000000000000000000000000000000PES00010000001N00000000000000020171110
201710310060000700000000000000559828000000000000005598289900000000000000000000Consumidor Final              000000000072000000000000072000000000000000000000000000000000000000000000000000000000000000000000000000000000000000000000PES00010000001N00000000000000020171110
201710310060000700000000000000559829000000000000005598299900000000000000000000Consumidor Final              000000000072000000000000072000000000000000000000000000000000000000000000000000000000000000000000000000000000000000000000PES00010000001N00000000000000020171110
201710310060000700000000000000559830000000000000005598309900000000000000000000Consumidor Final              000000000072000000000000072000000000000000000000000000000000000000000000000000000000000000000000000000000000000000000000PES00010000001N00000000000000020171110
201710310510000100000000000000001216000000000000000012168000000000030715661582CONSTRUCTORA SAN JOSE S.A.-TEC000000000100000000000000100000000000000000000000000000000000000000000000000000000000000000000000000000000000000000000000PES00010000001N00000000000000000000000
201710310060000600000000000000778889000000000000007788899900000000000000000000Consumidor Final              000000000072000000000000072000000000000000000000000000000000000000000000000000000000000000000000000000000000000000000000PES00010000001N00000000000000020171110
201710310060000700000000000000559831000000000000005598319900000000000000000000Consumidor Final              000000000072000000000000072000000000000000000000000000000000000000000000000000000000000000000000000000000000000000000000PES00010000001N00000000000000020171110
201710310060000700000000000000559832000000000000005598329900000000000000000000Consumidor Final              000000000079200000000000079200000000000000000000000000000000000000000000000000000000000000000000000000000000000000000000PES00010000001N00000000000000020171110
201710310060000600000000000000778890000000000000007788909900000000000000000000Consumidor Final              000000000072000000000000072000000000000000000000000000000000000000000000000000000000000000000000000000000000000000000000PES00010000001N00000000000000020171110
201710310060000700000000000000559821000000000000005598219900000000000000000000Consumidor Final              000000000079200000000000079200000000000000000000000000000000000000000000000000000000000000000000000000000000000000000000PES00010000001N00000000000000020171110
201710310060000700000000000000559822000000000000005598229900000000000000000000Consumidor Final              000000000072000000000000072000000000000000000000000000000000000000000000000000000000000000000000000000000000000000000000PES00010000001N00000000000000020171110
201710310060000600000000000000778886000000000000007788869900000000000000000000Consumidor Final              000000000072000000000000072000000000000000000000000000000000000000000000000000000000000000000000000000000000000000000000PES00010000001N00000000000000020171110
201710310060000600000000000000778887000000000000007788879900000000000000000000Consumidor Final              000000000072000000000000072000000000000000000000000000000000000000000000000000000000000000000000000000000000000000000000PES00010000001N00000000000000020171110
201710310060000600000000000000778888000000000000007788889900000000000000000000Consumidor Final              000000000072000000000000072000000000000000000000000000000000000000000000000000000000000000000000000000000000000000000000PES00010000001N00000000000000020171110
201710310060000800000000000000191814000000000000001918149900000000000000000000Consumidor Final              000000000062000000000000062000000000000000000000000000000000000000000000000000000000000000000000000000000000000000000000PES00010000001N00000000000000020171110
201710310060000800000000000000191815000000000000001918159900000000000000000000Consumidor Final              000000000062000000000000062000000000000000000000000000000000000000000000000000000000000000000000000000000000000000000000PES00010000001N00000000000000020171110
201710310060000700000000000000559833000000000000005598339000000000099999999999Consumidor Final              000000000134000000000000134000000000000000000000000000000000000000000000000000000000000000000000000000000000000000000000PES00010000001N00000000000000020171110
201710310060000700000000000000559834000000000000005598349900000000000000000000Consumidor Final              000000000086000000000000086000000000000000000000000000000000000000000000000000000000000000000000000000000000000000000000PES00010000001N00000000000000020171110
201710310060000600000000000000778891000000000000007788919900000000000000000000Consumidor Final              000000000079200000000000079200000000000000000000000000000000000000000000000000000000000000000000000000000000000000000000PES00010000001N00000000000000020171110
201710310060000600000000000000778892000000000000007788929900000000000000000000Consumidor Final              000000000072000000000000072000000000000000000000000000000000000000000000000000000000000000000000000000000000000000000000PES00010000001N00000000000000020171110
201710310060000700000000000000559835000000000000005598359900000000000000000000Consumidor Final              000000000072000000000000072000000000000000000000000000000000000000000000000000000000000000000000000000000000000000000000PES00010000001N00000000000000020171110
201710310060000600000000000000778893000000000000007788939900000000000000000000Consumidor Final              000000000072000000000000072000000000000000000000000000000000000000000000000000000000000000000000000000000000000000000000PES00010000001N00000000000000020171110
201710310060000600000000000000778894000000000000007788949900000000000000000000Consumidor Final              000000000072000000000000072000000000000000000000000000000000000000000000000000000000000000000000000000000000000000000000PES00010000001N00000000000000020171110
201710310060000700000000000000559856000000000000005598569900000000000000000000Consumidor Final              000000000072000000000000072000000000000000000000000000000000000000000000000000000000000000000000000000000000000000000000PES00010000001N00000000000000020171110
201710310060000700000000000000559857000000000000005598579900000000000000000000Consumidor Final              000000000072000000000000072000000000000000000000000000000000000000000000000000000000000000000000000000000000000000000000PES00010000001N00000000000000020171110
201710310060000600000000000000778912000000000000007789129900000000000000000000Consumidor Final              000000000086000000000000086000000000000000000000000000000000000000000000000000000000000000000000000000000000000000000000PES00010000001N00000000000000020171110
201710310060000600000000000000778913000000000000007789139900000000000000000000Consumidor Final              000000000072000000000000072000000000000000000000000000000000000000000000000000000000000000000000000000000000000000000000PES00010000001N00000000000000020171110
201710310060000600000000000000778914000000000000007789149900000000000000000000Consumidor Final              000000000072000000000000072000000000000000000000000000000000000000000000000000000000000000000000000000000000000000000000PES00010000001N00000000000000020171110
201710310060000600000000000000778915000000000000007789159900000000000000000000Consumidor Final              000000000086000000000000086000000000000000000000000000000000000000000000000000000000000000000000000000000000000000000000PES00010000001N00000000000000020171110
201710310060000700000000000000559859000000000000005598599900000000000000000000Consumidor Final              000000000072000000000000072000000000000000000000000000000000000000000000000000000000000000000000000000000000000000000000PES00010000001N00000000000000020171110
201710310060000700000000000000559836000000000000005598369900000000000000000000Consumidor Final              000000000079200000000000079200000000000000000000000000000000000000000000000000000000000000000000000000000000000000000000PES00010000001N00000000000000020171110
201710310060000700000000000000559837000000000000005598379900000000000000000000Consumidor Final              000000000072000000000000072000000000000000000000000000000000000000000000000000000000000000000000000000000000000000000000PES00010000001N00000000000000020171110
201710310060000600000000000000778895000000000000007788959900000000000000000000Consumidor Final              000000000079200000000000079200000000000000000000000000000000000000000000000000000000000000000000000000000000000000000000PES00010000001N00000000000000020171110
201710310060000700000000000000559838000000000000005598389900000000000000000000Consumidor Final              000000000072000000000000072000000000000000000000000000000000000000000000000000000000000000000000000000000000000000000000PES00010000001N00000000000000020171110
201710310060000700000000000000559839000000000000005598399900000000000000000000Consumidor Final              000000000079200000000000079200000000000000000000000000000000000000000000000000000000000000000000000000000000000000000000PES00010000001N00000000000000020171110
201710310060000600000000000000778896000000000000007788969900000000000000000000Consumidor Final              000000000072000000000000072000000000000000000000000000000000000000000000000000000000000000000000000000000000000000000000PES00010000001N00000000000000020171110
201710310060000600000000000000778897000000000000007788979900000000000000000000Consumidor Final              000000000079200000000000079200000000000000000000000000000000000000000000000000000000000000000000000000000000000000000000PES00010000001N00000000000000020171110
201710310060000700000000000000559840000000000000005598409900000000000000000000Consumidor Final              000000000072000000000000072000000000000000000000000000000000000000000000000000000000000000000000000000000000000000000000PES00010000001N00000000000000020171110
201710310060000600000000000000778898000000000000007788989900000000000000000000Consumidor Final              000000000072000000000000072000000000000000000000000000000000000000000000000000000000000000000000000000000000000000000000PES00010000001N00000000000000020171110
201710310060000700000000000000559841000000000000005598419900000000000000000000Consumidor Final              000000000072000000000000072000000000000000000000000000000000000000000000000000000000000000000000000000000000000000000000PES00010000001N00000000000000020171110
201710310060000600000000000000778899000000000000007788999900000000000000000000Consumidor Final              000000000072000000000000072000000000000000000000000000000000000000000000000000000000000000000000000000000000000000000000PES00010000001N00000000000000020171110
201710310060000700000000000000559860000000000000005598609900000000000000000000Consumidor Final              000000000072000000000000072000000000000000000000000000000000000000000000000000000000000000000000000000000000000000000000PES00010000001N00000000000000020171110
201710310060000600000000000000778917000000000000007789179900000000000000000000Consumidor Final              000000000079000000000000079000000000000000000000000000000000000000000000000000000000000000000000000000000000000000000000PES00010000001N00000000000000020171110
201710310060000600000000000000778918000000000000007789189900000000000000000000Consumidor Final              000000000079000000000000079000000000000000000000000000000000000000000000000000000000000000000000000000000000000000000000PES00010000001N00000000000000020171110
201710310060000600000000000000778919000000000000007789199900000000000000000000Consumidor Final              000000000072000000000000072000000000000000000000000000000000000000000000000000000000000000000000000000000000000000000000PES00010000001N00000000000000020171110
201710310060000600000000000000778920000000000000007789209900000000000000000000Consumidor Final              000000000072000000000000072000000000000000000000000000000000000000000000000000000000000000000000000000000000000000000000PES00010000001N00000000000000020171110
201710310060000800000000000000191825000000000000001918259900000000000000000000Consumidor Final              000000000062000000000000062000000000000000000000000000000000000000000000000000000000000000000000000000000000000000000000PES00010000001N00000000000000020171110
201710310060000800000000000000191826000000000000001918269900000000000000000000Consumidor Final              000000000062000000000000062000000000000000000000000000000000000000000000000000000000000000000000000000000000000000000000PES00010000001N00000000000000020171110
201710310060000800000000000000191827000000000000001918279900000000000000000000Consumidor Final              000000000074000000000000074000000000000000000000000000000000000000000000000000000000000000000000000000000000000000000000PES00010000001N00000000000000020171110
201710310060000600000000000000778929000000000000007789299900000000000000000000Consumidor Final              000000000072000000000000072000000000000000000000000000000000000000000000000000000000000000000000000000000000000000000000PES00010000001N00000000000000020171110
201710310060000600000000000000778930000000000000007789309900000000000000000000Consumidor Final              000000000075000000000000075000000000000000000000000000000000000000000000000000000000000000000000000000000000000000000000PES00010000001N00000000000000020171110
201710310060000700000000000000559842000000000000005598429900000000000000000000Consumidor Final              000000000072000000000000072000000000000000000000000000000000000000000000000000000000000000000000000000000000000000000000PES00010000001N00000000000000020171110
201710310060000700000000000000559843000000000000005598439900000000000000000000Consumidor Final              000000000072000000000000072000000000000000000000000000000000000000000000000000000000000000000000000000000000000000000000PES00010000001N00000000000000020171110
201710310060000600000000000000778900000000000000007789009900000000000000000000Consumidor Final              000000000072000000000000072000000000000000000000000000000000000000000000000000000000000000000000000000000000000000000000PES00010000001N00000000000000020171110
201710310060000600000000000000778901000000000000007789019900000000000000000000Consumidor Final              000000000072000000000000072000000000000000000000000000000000000000000000000000000000000000000000000000000000000000000000PES00010000001N00000000000000020171110
201710310060000700000000000000559844000000000000005598449900000000000000000000Consumidor Final              000000000072000000000000072000000000000000000000000000000000000000000000000000000000000000000000000000000000000000000000PES00010000001N00000000000000020171110
201710310060000600000000000000778902000000000000007789029900000000000000000000Consumidor Final              000000000080000000000000080000000000000000000000000000000000000000000000000000000000000000000000000000000000000000000000PES00010000001N00000000000000020171110
201710310060000600000000000000778903000000000000007789039900000000000000000000Consumidor Final              000000000072000000000000072000000000000000000000000000000000000000000000000000000000000000000000000000000000000000000000PES00010000001N00000000000000020171110
201710310060000600000000000000778904000000000000007789049900000000000000000000Consumidor Final              000000000072000000000000072000000000000000000000000000000000000000000000000000000000000000000000000000000000000000000000PES00010000001N00000000000000020171110
201710310060000700000000000000559845000000000000005598459900000000000000000000Consumidor Final              000000000089000000000000089000000000000000000000000000000000000000000000000000000000000000000000000000000000000000000000PES00010000001N00000000000000020171110
201710310060000700000000000000559846000000000000005598469900000000000000000000Consumidor Final              000000000072000000000000072000000000000000000000000000000000000000000000000000000000000000000000000000000000000000000000PES00010000001N00000000000000020171110
201710310060000800000000000000191816000000000000001918169900000000000000000000Consumidor Final              000000000062000000000000062000000000000000000000000000000000000000000000000000000000000000000000000000000000000000000000PES00010000001N00000000000000020171110
201710310060000800000000000000191817000000000000001918179900000000000000000000Consumidor Final              000000000062000000000000062000000000000000000000000000000000000000000000000000000000000000000000000000000000000000000000PES00010000001N00000000000000020171110
201710310060000800000000000000191818000000000000001918189900000000000000000000Consumidor Final              000000000062000000000000062000000000000000000000000000000000000000000000000000000000000000000000000000000000000000000000PES00010000001N00000000000000020171110
201710310060000700000000000000559847000000000000005598479900000000000000000000Consumidor Final              000000000080000000000000080000000000000000000000000000000000000000000000000000000000000000000000000000000000000000000000PES00010000001N00000000000000020171110
201710310060000800000000000000191819000000000000001918199900000000000000000000Consumidor Final              000000000062000000000000062000000000000000000000000000000000000000000000000000000000000000000000000000000000000000000000PES00010000001N00000000000000020171110
201710310060000700000000000000559848000000000000005598489900000000000000000000Consumidor Final              000000000072000000000000072000000000000000000000000000000000000000000000000000000000000000000000000000000000000000000000PES00010000001N00000000000000020171110
201710310060000700000000000000559849000000000000005598499900000000000000000000Consumidor Final              000000000072000000000000072000000000000000000000000000000000000000000000000000000000000000000000000000000000000000000000PES00010000001N00000000000000020171110
201710310060000700000000000000559850000000000000005598509900000000000000000000Consumidor Final              000000000072000000000000072000000000000000000000000000000000000000000000000000000000000000000000000000000000000000000000PES00010000001N00000000000000020171110
201710310060000800000000000000191820000000000000001918209900000000000000000000Consumidor Final              000000000072000000000000072000000000000000000000000000000000000000000000000000000000000000000000000000000000000000000000PES00010000001N00000000000000020171110
201710310060000700000000000000559851000000000000005598519900000000000000000000Consumidor Final              000000000072000000000000072000000000000000000000000000000000000000000000000000000000000000000000000000000000000000000000PES00010000001N00000000000000020171110
201710310060000700000000000000559852000000000000005598529900000000000000000000Consumidor Final              000000000072000000000000072000000000000000000000000000000000000000000000000000000000000000000000000000000000000000000000PES00010000001N00000000000000020171110
201710310060000700000000000000559853000000000000005598539900000000000000000000Consumidor Final              000000000072000000000000072000000000000000000000000000000000000000000000000000000000000000000000000000000000000000000000PES00010000001N00000000000000020171110
201710310060000600000000000000778911000000000000007789119900000000000000000000Consumidor Final              000000000072000000000000072000000000000000000000000000000000000000000000000000000000000000000000000000000000000000000000PES00010000001N00000000000000020171110
201710310060000700000000000000559858000000000000005598589900000000000000000000Consumidor Final              000000000072000000000000072000000000000000000000000000000000000000000000000000000000000000000000000000000000000000000000PES00010000001N00000000000000020171110
201710310060000800000000000000191824000000000000001918249900000000000000000000Consumidor Final              000000000062000000000000062000000000000000000000000000000000000000000000000000000000000000000000000000000000000000000000PES00010000001N00000000000000020171110
201710310060000700000000000000559861000000000000005598619900000000000000000000Consumidor Final              000000000035000000000000035000000000000000000000000000000000000000000000000000000000000000000000000000000000000000000000PES00010000001N00000000000000020171110
201710310060000700000000000000559862000000000000005598629900000000000000000000Consumidor Final              000000000035000000000000035000000000000000000000000000000000000000000000000000000000000000000000000000000000000000000000PES00010000001N00000000000000020171110
201710310060000700000000000000559863000000000000005598639900000000000000000000Consumidor Final              000000000072000000000000072000000000000000000000000000000000000000000000000000000000000000000000000000000000000000000000PES00010000001N00000000000000020171110
201710310060000700000000000000559864000000000000005598649900000000000000000000Consumidor Final              000000000072000000000000072000000000000000000000000000000000000000000000000000000000000000000000000000000000000000000000PES00010000001N00000000000000020171110
201710310060000700000000000000559865000000000000005598659900000000000000000000Consumidor Final              000000000039000000000000039000000000000000000000000000000000000000000000000000000000000000000000000000000000000000000000PES00010000001N00000000000000020171110
201710310060000700000000000000559866000000000000005598669900000000000000000000Consumidor Final              000000000025000000000000025000000000000000000000000000000000000000000000000000000000000000000000000000000000000000000000PES00010000001N00000000000000020171110
201710310060000700000000000000559867000000000000005598679900000000000000000000Consumidor Final              000000000072000000000000072000000000000000000000000000000000000000000000000000000000000000000000000000000000000000000000PES00010000001N00000000000000020171110
201710310060000700000000000000559868000000000000005598689900000000000000000000Consumidor Final              000000000072000000000000072000000000000000000000000000000000000000000000000000000000000000000000000000000000000000000000PES00010000001N00000000000000020171110
201710310060000700000000000000559869000000000000005598699900000000000000000000Consumidor Final              000000000072000000000000072000000000000000000000000000000000000000000000000000000000000000000000000000000000000000000000PES00010000001N00000000000000020171110
201710310060000600000000000000778921000000000000007789219900000000000000000000Consumidor Final              000000000072000000000000072000000000000000000000000000000000000000000000000000000000000000000000000000000000000000000000PES00010000001N00000000000000020171110
201710310060000600000000000000778922000000000000007789229900000000000000000000Consumidor Final              000000000072000000000000072000000000000000000000000000000000000000000000000000000000000000000000000000000000000000000000PES00010000001N00000000000000020171110
201710310060000600000000000000778923000000000000007789239900000000000000000000Consumidor Final              000000000072000000000000072000000000000000000000000000000000000000000000000000000000000000000000000000000000000000000000PES00010000001N00000000000000020171110
201710310060000600000000000000778924000000000000007789249900000000000000000000Consumidor Final              000000000072000000000000072000000000000000000000000000000000000000000000000000000000000000000000000000000000000000000000PES00010000001N00000000000000020171110
201710310060000600000000000000778925000000000000007789259900000000000000000000Consumidor Final              000000000072000000000000072000000000000000000000000000000000000000000000000000000000000000000000000000000000000000000000PES00010000001N00000000000000020171110
201710310060000800000000000000191828000000000000001918289900000000000000000000Consumidor Final              000000000072000000000000072000000000000000000000000000000000000000000000000000000000000000000000000000000000000000000000PES00010000001N00000000000000020171110
201710310060000800000000000000191829000000000000001918299900000000000000000000Consumidor Final              000000000073700000000000073700000000000000000000000000000000000000000000000000000000000000000000000000000000000000000000PES00010000001N00000000000000020171110
201710310060000800000000000000191830000000000000001918309900000000000000000000Consumidor Final              000000000073700000000000073700000000000000000000000000000000000000000000000000000000000000000000000000000000000000000000PES00010000001N00000000000000020171110
201710310060000600000000000000778927000000000000007789279900000000000000000000Consumidor Final              000000000072000000000000072000000000000000000000000000000000000000000000000000000000000000000000000000000000000000000000PES00010000001N00000000000000020171110
201710310060000600000000000000778928000000000000007789289900000000000000000000Consumidor Final              000000000072000000000000072000000000000000000000000000000000000000000000000000000000000000000000000000000000000000000000PES00010000001N00000000000000020171110
201710310060000700000000000000559870000000000000005598709900000000000000000000Consumidor Final              000000000072000000000000072000000000000000000000000000000000000000000000000000000000000000000000000000000000000000000000PES00010000001N00000000000000020171110
201710310060000600000000000000778931000000000000007789319900000000000000000000Consumidor Final              000000000072000000000000072000000000000000000000000000000000000000000000000000000000000000000000000000000000000000000000PES00010000001N00000000000000020171110
201710310060000800000000000000191831000000000000001918319900000000000000000000Consumidor Final              000000000062000000000000062000000000000000000000000000000000000000000000000000000000000000000000000000000000000000000000PES00010000001N00000000000000020171110
201710310060000800000000000000191832000000000000001918329900000000000000000000Consumidor Final              000000000062000000000000062000000000000000000000000000000000000000000000000000000000000000000000000000000000000000000000PES00010000001N00000000000000020171110
201710310060000700000000000000559880000000000000005598809900000000000000000000Consumidor Final              000000000072000000000000072000000000000000000000000000000000000000000000000000000000000000000000000000000000000000000000PES00010000001N00000000000000020171110
201710310060000600000000000000778932000000000000007789329900000000000000000000Consumidor Final              000000000086900000000000086900000000000000000000000000000000000000000000000000000000000000000000000000000000000000000000PES00010000001N00000000000000020171110
201710310060000800000000000000191833000000000000001918339900000000000000000000Consumidor Final              000000000062000000000000062000000000000000000000000000000000000000000000000000000000000000000000000000000000000000000000PES00010000001N00000000000000020171110
201710310060000800000000000000191834000000000000001918349900000000000000000000Consumidor Final              000000000062000000000000062000000000000000000000000000000000000000000000000000000000000000000000000000000000000000000000PES00010000001N00000000000000020171110
201710310060000600000000000000778935000000000000007789359900000000000000000000Consumidor Final              000000000072000000000000072000000000000000000000000000000000000000000000000000000000000000000000000000000000000000000000PES00010000001N00000000000000020171110
201710310060000600000000000000778936000000000000007789369900000000000000000000Consumidor Final              000000000075000000000000075000000000000000000000000000000000000000000000000000000000000000000000000000000000000000000000PES00010000001N00000000000000020171110
201710310060000700000000000000559899000000000000005598999900000000000000000000Consumidor Final              000000000072000000000000072000000000000000000000000000000000000000000000000000000000000000000000000000000000000000000000PES00010000001N00000000000000020171110
201710310060000700000000000000559871000000000000005598719900000000000000000000Consumidor Final              000000000072000000000000072000000000000000000000000000000000000000000000000000000000000000000000000000000000000000000000PES00010000001N00000000000000020171110
201710310060000600000000000000778926000000000000007789269900000000000000000000Consumidor Final              000000000072000000000000072000000000000000000000000000000000000000000000000000000000000000000000000000000000000000000000PES00010000001N00000000000000020171110
201710310060000700000000000000559881000000000000005598819900000000000000000000Consumidor Final              000000000079200000000000079200000000000000000000000000000000000000000000000000000000000000000000000000000000000000000000PES00010000001N00000000000000020171110
201710310060000600000000000000778933000000000000007789339900000000000000000000Consumidor Final              000000000086000000000000086000000000000000000000000000000000000000000000000000000000000000000000000000000000000000000000PES00010000001N00000000000000020171110
201710310060000600000000000000778934000000000000007789349900000000000000000000Consumidor Final              000000000086000000000000086000000000000000000000000000000000000000000000000000000000000000000000000000000000000000000000PES00010000001N00000000000000020171110
201710310060000700000000000000559884000000000000005598849900000000000000000000Consumidor Final              000000000072000000000000072000000000000000000000000000000000000000000000000000000000000000000000000000000000000000000000PES00010000001N00000000000000020171110
201710310060000700000000000000559885000000000000005598859900000000000000000000Consumidor Final              000000000072000000000000072000000000000000000000000000000000000000000000000000000000000000000000000000000000000000000000PES00010000001N00000000000000020171110
201710310060000700000000000000559886000000000000005598869900000000000000000000Consumidor Final              000000000072000000000000072000000000000000000000000000000000000000000000000000000000000000000000000000000000000000000000PES00010000001N00000000000000020171110
201710310060000700000000000000559887000000000000005598879900000000000000000000Consumidor Final              000000000072000000000000072000000000000000000000000000000000000000000000000000000000000000000000000000000000000000000000PES00010000001N00000000000000020171110
201710310060000700000000000000559872000000000000005598729900000000000000000000Consumidor Final              000000000072000000000000072000000000000000000000000000000000000000000000000000000000000000000000000000000000000000000000PES00010000001N00000000000000020171110
201710310060000700000000000000559882000000000000005598829900000000000000000000Consumidor Final              000000000033000000000000033000000000000000000000000000000000000000000000000000000000000000000000000000000000000000000000PES00010000001N00000000000000020171110
201710310060000700000000000000559883000000000000005598839900000000000000000000Consumidor Final              000000000079200000000000079200000000000000000000000000000000000000000000000000000000000000000000000000000000000000000000PES00010000001N00000000000000020171110
201710310060000700000000000000559896000000000000005598969900000000000000000000Consumidor Final              000000000072000000000000072000000000000000000000000000000000000000000000000000000000000000000000000000000000000000000000PES00010000001N00000000000000020171110
201710310060000700000000000000559897000000000000005598979900000000000000000000Consumidor Final              000000000082500000000000082500000000000000000000000000000000000000000000000000000000000000000000000000000000000000000000PES00010000001N00000000000000020171110
201710310060000700000000000000559898000000000000005598989900000000000000000000Consumidor Final              000000000072000000000000072000000000000000000000000000000000000000000000000000000000000000000000000000000000000000000000PES00010000001N00000000000000020171110
201710310060000800000000000000191841000000000000001918419000000000000027770372Consumidor Final              000000000072000000000000072000000000000000000000000000000000000000000000000000000000000000000000000000000000000000000000PES00010000001N00000000000000020171110
201710310060000800000000000000191842000000000000001918429900000000000000000000Consumidor Final              000000000062000000000000062000000000000000000000000000000000000000000000000000000000000000000000000000000000000000000000PES00010000001N00000000000000020171110
201710310060000800000000000000191843000000000000001918439900000000000000000000Consumidor Final              000000000062000000000000062000000000000000000000000000000000000000000000000000000000000000000000000000000000000000000000PES00010000001N00000000000000020171110
201710310060000800000000000000191844000000000000001918449900000000000000000000Consumidor Final              000000000062000000000000062000000000000000000000000000000000000000000000000000000000000000000000000000000000000000000000PES00010000001N00000000000000020171110
201710310060000800000000000000191845000000000000001918459900000000000000000000Consumidor Final              000000000062000000000000062000000000000000000000000000000000000000000000000000000000000000000000000000000000000000000000PES00010000001N00000000000000020171110
201710310060000700000000000000559873000000000000005598739900000000000000000000Consumidor Final              000000000072000000000000072000000000000000000000000000000000000000000000000000000000000000000000000000000000000000000000PES00010000001N00000000000000020171110
201710310060000700000000000000559874000000000000005598749900000000000000000000Consumidor Final              000000000089000000000000089000000000000000000000000000000000000000000000000000000000000000000000000000000000000000000000PES00010000001N00000000000000020171110
201710310060000700000000000000559875000000000000005598759900000000000000000000Consumidor Final              000000000072000000000000072000000000000000000000000000000000000000000000000000000000000000000000000000000000000000000000PES00010000001N00000000000000020171110
201710310060000700000000000000559876000000000000005598769900000000000000000000Consumidor Final              000000000072000000000000072000000000000000000000000000000000000000000000000000000000000000000000000000000000000000000000PES00010000001N00000000000000020171110
201710310060000700000000000000559877000000000000005598779900000000000000000000Consumidor Final              000000000072000000000000072000000000000000000000000000000000000000000000000000000000000000000000000000000000000000000000PES00010000001N00000000000000020171110
201710310060000700000000000000559878000000000000005598789900000000000000000000Consumidor Final              000000000072000000000000072000000000000000000000000000000000000000000000000000000000000000000000000000000000000000000000PES00010000001N00000000000000020171110
201710310060000700000000000000559879000000000000005598799900000000000000000000Consumidor Final              000000000072000000000000072000000000000000000000000000000000000000000000000000000000000000000000000000000000000000000000PES00010000001N00000000000000020171110
201710310060000700000000000000559888000000000000005598889900000000000000000000Consumidor Final              000000000079200000000000079200000000000000000000000000000000000000000000000000000000000000000000000000000000000000000000PES00010000001N00000000000000020171110
201710310060000700000000000000559889000000000000005598899900000000000000000000Consumidor Final              000000000072000000000000072000000000000000000000000000000000000000000000000000000000000000000000000000000000000000000000PES00010000001N00000000000000020171110
201710310060000700000000000000559892000000000000005598929900000000000000000000Consumidor Final              000000000065000000000000065000000000000000000000000000000000000000000000000000000000000000000000000000000000000000000000PES00010000001N00000000000000020171110
201710310060000700000000000000559893000000000000005598939000000000099999999999Consumidor Final              000000000106000000000000106000000000000000000000000000000000000000000000000000000000000000000000000000000000000000000000PES00010000001N00000000000000020171110
201710310060000700000000000000559890000000000000005598909900000000000000000000Consumidor Final              000000000079200000000000079200000000000000000000000000000000000000000000000000000000000000000000000000000000000000000000PES00010000001N00000000000000020171110
201710310060000800000000000000191846000000000000001918469900000000000000000000Consumidor Final              000000000062000000000000062000000000000000000000000000000000000000000000000000000000000000000000000000000000000000000000PES00010000001N00000000000000020171110
201710310060000800000000000000191847000000000000001918479900000000000000000000Consumidor Final              000000000062000000000000062000000000000000000000000000000000000000000000000000000000000000000000000000000000000000000000PES00010000001N00000000000000020171110
201710310060000800000000000000191848000000000000001918489900000000000000000000Consumidor Final              000000000062000000000000062000000000000000000000000000000000000000000000000000000000000000000000000000000000000000000000PES00010000001N00000000000000020171110
201710310060000800000000000000191849000000000000001918499900000000000000000000Consumidor Final              000000000062000000000000062000000000000000000000000000000000000000000000000000000000000000000000000000000000000000000000PES00010000001N00000000000000020171110
201710310060000700000000000000559916000000000000005599169900000000000000000000Consumidor Final              000000000079200000000000079200000000000000000000000000000000000000000000000000000000000000000000000000000000000000000000PES00010000001N00000000000000020171110
201710310060000700000000000000559917000000000000005599179000000000020172356720Consumidor Final              000000000072000000000000072000000000000000000000000000000000000000000000000000000000000000000000000000000000000000000000PES00010000001N00000000000000020171110
201710310060000800000000000000191850000000000000001918509900000000000000000000Consumidor Final              000000000062000000000000062000000000000000000000000000000000000000000000000000000000000000000000000000000000000000000000PES00010000001N00000000000000020171110
201710310060000800000000000000191851000000000000001918519900000000000000000000Consumidor Final              000000000062000000000000062000000000000000000000000000000000000000000000000000000000000000000000000000000000000000000000PES00010000001N00000000000000020171110
201710310060000800000000000000191852000000000000001918529900000000000000000000Consumidor Final              000000000062000000000000062000000000000000000000000000000000000000000000000000000000000000000000000000000000000000000000PES00010000001N00000000000000020171110
201710310060000800000000000000191853000000000000001918539900000000000000000000Consumidor Final              000000000062000000000000062000000000000000000000000000000000000000000000000000000000000000000000000000000000000000000000PES00010000001N00000000000000020171110
201710310060000700000000000000559891000000000000005598919900000000000000000000Consumidor Final              000000000072000000000000072000000000000000000000000000000000000000000000000000000000000000000000000000000000000000000000PES00010000001N00000000000000020171110
201710310060000800000000000000191835000000000000001918359900000000000000000000Consumidor Final              000000000062000000000000062000000000000000000000000000000000000000000000000000000000000000000000000000000000000000000000PES00010000001N00000000000000020171110
201710310060000800000000000000191836000000000000001918369900000000000000000000Consumidor Final              000000000062000000000000062000000000000000000000000000000000000000000000000000000000000000000000000000000000000000000000PES00010000001N00000000000000020171110
201710310060000800000000000000191837000000000000001918379900000000000000000000Consumidor Final              000000000062000000000000062000000000000000000000000000000000000000000000000000000000000000000000000000000000000000000000PES00010000001N00000000000000020171110
201710310060000700000000000000559894000000000000005598949000000000099999999999Consumidor Final              000000000102000000000000102000000000000000000000000000000000000000000000000000000000000000000000000000000000000000000000PES00010000001N00000000000000020171110
201710310060000800000000000000191838000000000000001918389900000000000000000000Consumidor Final              000000000062000000000000062000000000000000000000000000000000000000000000000000000000000000000000000000000000000000000000PES00010000001N00000000000000020171110
201710310060000700000000000000559895000000000000005598959900000000000000000000Consumidor Final              000000000079000000000000079000000000000000000000000000000000000000000000000000000000000000000000000000000000000000000000PES00010000001N00000000000000020171110
201710310060000800000000000000191839000000000000001918399900000000000000000000Consumidor Final              000000000062000000000000062000000000000000000000000000000000000000000000000000000000000000000000000000000000000000000000PES00010000001N00000000000000020171110
201710310060000800000000000000191840000000000000001918409900000000000000000000Consumidor Final              000000000072000000000000072000000000000000000000000000000000000000000000000000000000000000000000000000000000000000000000PES00010000001N00000000000000020171110
201710310060000700000000000000559900000000000000005599009900000000000000000000Consumidor Final              000000000079200000000000079200000000000000000000000000000000000000000000000000000000000000000000000000000000000000000000PES00010000001N00000000000000020171110
201710310060000700000000000000559901000000000000005599019900000000000000000000Consumidor Final              000000000079200000000000079200000000000000000000000000000000000000000000000000000000000000000000000000000000000000000000PES00010000001N00000000000000020171110
201710310060000700000000000000559951000000000000005599519900000000000000000000Consumidor Final              000000000072000000000000072000000000000000000000000000000000000000000000000000000000000000000000000000000000000000000000PES00010000001N00000000000000020171110
201710310060000700000000000000559952000000000000005599529900000000000000000000Consumidor Final              000000000072000000000000072000000000000000000000000000000000000000000000000000000000000000000000000000000000000000000000PES00010000001N00000000000000020171110
201710310060000600000000000000778951000000000000007789519900000000000000000000Consumidor Final              000000000033000000000000033000000000000000000000000000000000000000000000000000000000000000000000000000000000000000000000PES00010000001N00000000000000020171110
201710310060000600000000000000778952000000000000007789529900000000000000000000Consumidor Final              000000000079200000000000079200000000000000000000000000000000000000000000000000000000000000000000000000000000000000000000PES00010000001N00000000000000020171110
201710310060000600000000000000778953000000000000007789539900000000000000000000Consumidor Final              000000000079200000000000079200000000000000000000000000000000000000000000000000000000000000000000000000000000000000000000PES00010000001N00000000000000020171110
201710310060000600000000000000778954000000000000007789549900000000000000000000Consumidor Final              000000000072000000000000072000000000000000000000000000000000000000000000000000000000000000000000000000000000000000000000PES00010000001N00000000000000020171110
201710310060000600000000000000778955000000000000007789559900000000000000000000Consumidor Final              000000000072000000000000072000000000000000000000000000000000000000000000000000000000000000000000000000000000000000000000PES00010000001N00000000000000020171110
201710310060000600000000000000778956000000000000007789569900000000000000000000Consumidor Final              000000000079200000000000079200000000000000000000000000000000000000000000000000000000000000000000000000000000000000000000PES00010000001N00000000000000020171110
201710310060000600000000000000778957000000000000007789579900000000000000000000Consumidor Final              000000000079200000000000079200000000000000000000000000000000000000000000000000000000000000000000000000000000000000000000PES00010000001N00000000000000020171110
201710310060000700000000000000559955000000000000005599559900000000000000000000Consumidor Final              000000000072000000000000072000000000000000000000000000000000000000000000000000000000000000000000000000000000000000000000PES00010000001N00000000000000020171110
201710310060000700000000000000559902000000000000005599029900000000000000000000Consumidor Final              000000000072000000000000072000000000000000000000000000000000000000000000000000000000000000000000000000000000000000000000PES00010000001N00000000000000020171110
201710310060000600000000000000778937000000000000007789379900000000000000000000Consumidor Final              000000000072000000000000072000000000000000000000000000000000000000000000000000000000000000000000000000000000000000000000PES00010000001N00000000000000020171110
201710310060000700000000000000559903000000000000005599039900000000000000000000Consumidor Final              000000000072000000000000072000000000000000000000000000000000000000000000000000000000000000000000000000000000000000000000PES00010000001N00000000000000020171110
201710310060000700000000000000559904000000000000005599049900000000000000000000Consumidor Final              000000000075000000000000075000000000000000000000000000000000000000000000000000000000000000000000000000000000000000000000PES00010000001N00000000000000020171110
201710310060000700000000000000559905000000000000005599059900000000000000000000Consumidor Final              000000000072000000000000072000000000000000000000000000000000000000000000000000000000000000000000000000000000000000000000PES00010000001N00000000000000020171110
201710310060000700000000000000559906000000000000005599069900000000000000000000Consumidor Final              000000000072000000000000072000000000000000000000000000000000000000000000000000000000000000000000000000000000000000000000PES00010000001N00000000000000020171110
201710310060000700000000000000559907000000000000005599079900000000000000000000Consumidor Final              000000000072000000000000072000000000000000000000000000000000000000000000000000000000000000000000000000000000000000000000PES00010000001N00000000000000020171110
201710310060000700000000000000559908000000000000005599089900000000000000000000Consumidor Final              000000000072000000000000072000000000000000000000000000000000000000000000000000000000000000000000000000000000000000000000PES00010000001N00000000000000020171110
201710310060000600000000000000778938000000000000007789389900000000000000000000Consumidor Final              000000000086000000000000086000000000000000000000000000000000000000000000000000000000000000000000000000000000000000000000PES00010000001N00000000000000020171110
201710310060000700000000000000559909000000000000005599099900000000000000000000Consumidor Final              000000000072000000000000072000000000000000000000000000000000000000000000000000000000000000000000000000000000000000000000PES00010000001N00000000000000020171110
201710310060000700000000000000559910000000000000005599109000000000001710632652Consumidor Final              000000000072000000000000072000000000000000000000000000000000000000000000000000000000000000000000000000000000000000000000PES00010000001N00000000000000020171110
201710310060000700000000000000559911000000000000005599119900000000000000000000Consumidor Final              000000000072000000000000072000000000000000000000000000000000000000000000000000000000000000000000000000000000000000000000PES00010000001N00000000000000020171110
201710310060000600000000000000778939000000000000007789399900000000000000000000Consumidor Final              000000000072000000000000072000000000000000000000000000000000000000000000000000000000000000000000000000000000000000000000PES00010000001N00000000000000020171110
201710310060000700000000000000559912000000000000005599129900000000000000000000Consumidor Final              000000000072000000000000072000000000000000000000000000000000000000000000000000000000000000000000000000000000000000000000PES00010000001N00000000000000020171110
201710310060000700000000000000559913000000000000005599139900000000000000000000Consumidor Final              000000000079200000000000079200000000000000000000000000000000000000000000000000000000000000000000000000000000000000000000PES00010000001N00000000000000020171110
201710310060000600000000000000778940000000000000007789409900000000000000000000Consumidor Final              000000000072000000000000072000000000000000000000000000000000000000000000000000000000000000000000000000000000000000000000PES00010000001N00000000000000020171110
201710310060000700000000000000559914000000000000005599149900000000000000000000Consumidor Final              000000000079200000000000079200000000000000000000000000000000000000000000000000000000000000000000000000000000000000000000PES00010000001N00000000000000020171110
201710310060000700000000000000559915000000000000005599159900000000000000000000Consumidor Final              000000000075000000000000075000000000000000000000000000000000000000000000000000000000000000000000000000000000000000000000PES00010000001N00000000000000020171110
201710310060000600000000000000778941000000000000007789419900000000000000000000Consumidor Final              000000000072000000000000072000000000000000000000000000000000000000000000000000000000000000000000000000000000000000000000PES00010000001N00000000000000020171110
201710310060000700000000000000559919000000000000005599199900000000000000000000Consumidor Final              000000000072000000000000072000000000000000000000000000000000000000000000000000000000000000000000000000000000000000000000PES00010000001N00000000000000020171110
201710310060000700000000000000559918000000000000005599189000000000000023150280Consumidor Final              000000000025000000000000025000000000000000000000000000000000000000000000000000000000000000000000000000000000000000000000PES00010000001N00000000000000020171110
201710310060000700000000000000559922000000000000005599229900000000000000000000Consumidor Final              000000000079200000000000079200000000000000000000000000000000000000000000000000000000000000000000000000000000000000000000PES00010000001N00000000000000020171110
201710310060000700000000000000559923000000000000005599239900000000000000000000Consumidor Final              000000000072000000000000072000000000000000000000000000000000000000000000000000000000000000000000000000000000000000000000PES00010000001N00000000000000020171110
201710310060000700000000000000559924000000000000005599249900000000000000000000Consumidor Final              000000000072000000000000072000000000000000000000000000000000000000000000000000000000000000000000000000000000000000000000PES00010000001N00000000000000020171110
201710310060000800000000000000191854000000000000001918549900000000000000000000Consumidor Final              000000000062000000000000062000000000000000000000000000000000000000000000000000000000000000000000000000000000000000000000PES00010000001N00000000000000020171110
201710310060000700000000000000559938000000000000005599389900000000000000000000Consumidor Final              000000000086000000000000086000000000000000000000000000000000000000000000000000000000000000000000000000000000000000000000PES00010000001N00000000000000020171110
201710310060000700000000000000559939000000000000005599399900000000000000000000Consumidor Final              000000000038500000000000038500000000000000000000000000000000000000000000000000000000000000000000000000000000000000000000PES00010000001N00000000000000020171110
201710310060000700000000000000559940000000000000005599409900000000000000000000Consumidor Final              000000000072000000000000072000000000000000000000000000000000000000000000000000000000000000000000000000000000000000000000PES00010000001N00000000000000020171110
201710310060000700000000000000559941000000000000005599419900000000000000000000Consumidor Final              000000000079000000000000079000000000000000000000000000000000000000000000000000000000000000000000000000000000000000000000PES00010000001N00000000000000020171110
201710310060000700000000000000559942000000000000005599429900000000000000000000Consumidor Final              000000000079200000000000079200000000000000000000000000000000000000000000000000000000000000000000000000000000000000000000PES00010000001N00000000000000020171110
201710310060000700000000000000559943000000000000005599439900000000000000000000Consumidor Final              000000000079200000000000079200000000000000000000000000000000000000000000000000000000000000000000000000000000000000000000PES00010000001N00000000000000020171110
201710310060000700000000000000559920000000000000005599209900000000000000000000Consumidor Final              000000000072000000000000072000000000000000000000000000000000000000000000000000000000000000000000000000000000000000000000PES00010000001N00000000000000020171110
201710310060000700000000000000559921000000000000005599219900000000000000000000Consumidor Final              000000000079200000000000079200000000000000000000000000000000000000000000000000000000000000000000000000000000000000000000PES00010000001N00000000000000020171110
201710310060000600000000000000778942000000000000007789429900000000000000000000Consumidor Final              000000000072000000000000072000000000000000000000000000000000000000000000000000000000000000000000000000000000000000000000PES00010000001N00000000000000020171110
201710310060000600000000000000778943000000000000007789439900000000000000000000Consumidor Final              000000000072000000000000072000000000000000000000000000000000000000000000000000000000000000000000000000000000000000000000PES00010000001N00000000000000020171110
201710310510000100000000000000001217000000000000000012178000000000030715460560ESPACIO DEL NORTE             000000000075000000000000075000000000000000000000000000000000000000000000000000000000000000000000000000000000000000000000PES00010000001N00000000000000000000000
201710310060000600000000000000778944000000000000007789449900000000000000000000Consumidor Final              000000000072000000000000072000000000000000000000000000000000000000000000000000000000000000000000000000000000000000000000PES00010000001N00000000000000020171110
