201804300060000900000000000000049920000000000000000499209900000000000000000000Consumidor Final              000000000089500000000000089500000000000000000000000000000000000000000000000000000000000000000000000000000000000000000000PES00010000001N00000000000000020180510
201804300060000600000000000000813295000000000000008132959900000000000000000000Consumidor Final              000000000089500000000000089500000000000000000000000000000000000000000000000000000000000000000000000000000000000000000000PES00010000001N00000000000000020180510
201804300060000600000000000000813296000000000000008132969900000000000000000000Consumidor Final              000000000089500000000000089500000000000000000000000000000000000000000000000000000000000000000000000000000000000000000000PES00010000001N00000000000000020180510
201804300060000600000000000000813297000000000000008132979900000000000000000000Consumidor Final              000000000089500000000000089500000000000000000000000000000000000000000000000000000000000000000000000000000000000000000000PES00010000001N00000000000000020180510
201804300060000600000000000000813298000000000000008132989000000000099999999999Consumidor Final              000000000134000000000000134000000000000000000000000000000000000000000000000000000000000000000000000000000000000000000000PES00010000001N00000000000000020180510
201804300060000800000000000000202391000000000000002023919900000000000000000000Consumidor Final              000000000078000000000000078000000000000000000000000000000000000000000000000000000000000000000000000000000000000000000000PES00010000001N00000000000000020180510
201804300060000800000000000000202392000000000000002023929900000000000000000000Consumidor Final              000000000078000000000000078000000000000000000000000000000000000000000000000000000000000000000000000000000000000000000000PES00010000001N00000000000000020180510
201804300060000600000000000000813309000000000000008133099900000000000000000000Consumidor Final              000000000089500000000000089500000000000000000000000000000000000000000000000000000000000000000000000000000000000000000000PES00010000001N00000000000000020180510
201804300060000700000000000000593934000000000000005939349900000000000000000000Consumidor Final              000000000089500000000000089500000000000000000000000000000000000000000000000000000000000000000000000000000000000000000000PES00010000001N00000000000000020180510
201804300060000600000000000000813310000000000000008133109900000000000000000000Consumidor Final              000000000089500000000000089500000000000000000000000000000000000000000000000000000000000000000000000000000000000000000000PES00010000001N00000000000000020180510
201804300060000600000000000000813315000000000000008133159000000000099999999999Consumidor Final              000000000179000000000000179000000000000000000000000000000000000000000000000000000000000000000000000000000000000000000000PES00010000001N00000000000000020180510
201804300060000700000000000000593938000000000000005939389900000000000000000000Consumidor Final              000000000052000000000000052000000000000000000000000000000000000000000000000000000000000000000000000000000000000000000000PES00010000001N00000000000000020180510
201804300060000700000000000000593939000000000000005939399900000000000000000000Consumidor Final              000000000089500000000000089500000000000000000000000000000000000000000000000000000000000000000000000000000000000000000000PES00010000001N00000000000000020180510
201804300060000800000000000000202403000000000000002024039900000000000000000000Consumidor Final              000000000085000000000000085000000000000000000000000000000000000000000000000000000000000000000000000000000000000000000000PES00010000001N00000000000000020180510
201804300060000800000000000000202404000000000000002024049900000000000000000000Consumidor Final              000000000078000000000000078000000000000000000000000000000000000000000000000000000000000000000000000000000000000000000000PES00010000001N00000000000000020180510
201804300060000700000000000000593991000000000000005939919900000000000000000000Consumidor Final              000000000089500000000000089500000000000000000000000000000000000000000000000000000000000000000000000000000000000000000000PES00010000001N00000000000000020180510
201804300060000800000000000000202405000000000000002024059900000000000000000000Consumidor Final              000000000078000000000000078000000000000000000000000000000000000000000000000000000000000000000000000000000000000000000000PES00010000001N00000000000000020180510
201804300060000700000000000000593995000000000000005939959900000000000000000000Consumidor Final              000000000089500000000000089500000000000000000000000000000000000000000000000000000000000000000000000000000000000000000000PES00010000001N00000000000000020180510
201804300060000700000000000000593996000000000000005939969900000000000000000000Consumidor Final              000000000089500000000000089500000000000000000000000000000000000000000000000000000000000000000000000000000000000000000000PES00010000001N00000000000000020180510
201804300060000700000000000000593997000000000000005939979900000000000000000000Consumidor Final              000000000098400000000000098400000000000000000000000000000000000000000000000000000000000000000000000000000000000000000000PES00010000001N00000000000000020180510
201804300060000700000000000000593998000000000000005939989900000000000000000000Consumidor Final              000000000089500000000000089500000000000000000000000000000000000000000000000000000000000000000000000000000000000000000000PES00010000001N00000000000000020180510
201804300060000700000000000000593999000000000000005939999900000000000000000000Consumidor Final              000000000089500000000000089500000000000000000000000000000000000000000000000000000000000000000000000000000000000000000000PES00010000001N00000000000000020180510
201804300060000700000000000000593993000000000000005939939900000000000000000000Consumidor Final              000000000085000000000000085000000000000000000000000000000000000000000000000000000000000000000000000000000000000000000000PES00010000001N00000000000000020180510
201804300060000600000000000000813388000000000000008133889900000000000000000000Consumidor Final              000000000089500000000000089500000000000000000000000000000000000000000000000000000000000000000000000000000000000000000000PES00010000001N00000000000000020180510
201804300060000600000000000000813389000000000000008133899900000000000000000000Consumidor Final              000000000092000000000000092000000000000000000000000000000000000000000000000000000000000000000000000000000000000000000000PES00010000001N00000000000000020180510
201804300060000700000000000000594028000000000000005940289900000000000000000000Consumidor Final              000000000098400000000000098400000000000000000000000000000000000000000000000000000000000000000000000000000000000000000000PES00010000001N00000000000000020180510
201804300060000600000000000000813390000000000000008133909900000000000000000000Consumidor Final              000000000089500000000000089500000000000000000000000000000000000000000000000000000000000000000000000000000000000000000000PES00010000001N00000000000000020180510
201804300060000600000000000000813391000000000000008133919900000000000000000000Consumidor Final              000000000089500000000000089500000000000000000000000000000000000000000000000000000000000000000000000000000000000000000000PES00010000001N00000000000000020180510
201804300510000100000000000000001466000000000000000014668000000000030715480685ZAKINI SRL                    000000000093500000000000093500000000000000000000000000000000000000000000000000000000000000000000000000000000000000000000PES00010000001N00000000000000000000000
201804300060000700000000000000594029000000000000005940299900000000000000000000Consumidor Final              000000000089500000000000089500000000000000000000000000000000000000000000000000000000000000000000000000000000000000000000PES00010000001N00000000000000020180510
201804300060000700000000000000594030000000000000005940309900000000000000000000Consumidor Final              000000000089500000000000089500000000000000000000000000000000000000000000000000000000000000000000000000000000000000000000PES00010000001N00000000000000020180510
201804300060000700000000000000594031000000000000005940319900000000000000000000Consumidor Final              000000000089500000000000089500000000000000000000000000000000000000000000000000000000000000000000000000000000000000000000PES00010000001N00000000000000020180510
201804300060000700000000000000594032000000000000005940329900000000000000000000Consumidor Final              000000000089500000000000089500000000000000000000000000000000000000000000000000000000000000000000000000000000000000000000PES00010000001N00000000000000020180510
201804300060000800000000000000202428000000000000002024289900000000000000000000Consumidor Final              000000000078000000000000078000000000000000000000000000000000000000000000000000000000000000000000000000000000000000000000PES00010000001N00000000000000020180510
201804300060000600000000000000813420000000000000008134209900000000000000000000Consumidor Final              000000000098400000000000098400000000000000000000000000000000000000000000000000000000000000000000000000000000000000000000PES00010000001N00000000000000020180510
201804300060000600000000000000813438000000000000008134389900000000000000000000Consumidor Final              000000000085000000000000085000000000000000000000000000000000000000000000000000000000000000000000000000000000000000000000PES00010000001N00000000000000020180510
201804300060000700000000000000594080000000000000005940809900000000000000000000Consumidor Final              000000000089500000000000089500000000000000000000000000000000000000000000000000000000000000000000000000000000000000000000PES00010000001N00000000000000020180510
201804300060000700000000000000594081000000000000005940819900000000000000000000Consumidor Final              000000000049000000000000049000000000000000000000000000000000000000000000000000000000000000000000000000000000000000000000PES00010000001N00000000000000020180510
201804300060000700000000000000594082000000000000005940829900000000000000000000Consumidor Final              000000000089500000000000089500000000000000000000000000000000000000000000000000000000000000000000000000000000000000000000PES00010000001N00000000000000020180510
201804300060000900000000000000049936000000000000000499369000000000099999999999Consumidor Final              000000000101200000000000101200000000000000000000000000000000000000000000000000000000000000000000000000000000000000000000PES00010000001N00000000000000020180510
201804300060000600000000000000813452000000000000008134529000000000099999999999Consumidor Final              000000000104500000000000104500000000000000000000000000000000000000000000000000000000000000000000000000000000000000000000PES00010000001N00000000000000020180510
201804300060000700000000000000594056000000000000005940569900000000000000000000Consumidor Final              000000000044000000000000044000000000000000000000000000000000000000000000000000000000000000000000000000000000000000000000PES00010000001N00000000000000020180510
201804300060000600000000000000813416000000000000008134169900000000000000000000Consumidor Final              000000000085000000000000085000000000000000000000000000000000000000000000000000000000000000000000000000000000000000000000PES00010000001N00000000000000020180510
201804300060000600000000000000813417000000000000008134179000000000099999999999Consumidor Final              000000000107000000000000107000000000000000000000000000000000000000000000000000000000000000000000000000000000000000000000PES00010000001N00000000000000020180510
201804300060000700000000000000594057000000000000005940579900000000000000000000Consumidor Final              000000000089500000000000089500000000000000000000000000000000000000000000000000000000000000000000000000000000000000000000PES00010000001N00000000000000020180510
201804300060000600000000000000813418000000000000008134189900000000000000000000Consumidor Final              000000000078000000000000078000000000000000000000000000000000000000000000000000000000000000000000000000000000000000000000PES00010000001N00000000000000020180510
201804300060000700000000000000594058000000000000005940589900000000000000000000Consumidor Final              000000000098500000000000098500000000000000000000000000000000000000000000000000000000000000000000000000000000000000000000PES00010000001N00000000000000020180510
201804300060000600000000000000813419000000000000008134199900000000000000000000Consumidor Final              000000000089500000000000089500000000000000000000000000000000000000000000000000000000000000000000000000000000000000000000PES00010000001N00000000000000020180510
201804300060000900000000000000049928000000000000000499289900000000000000000000Consumidor Final              000000000085000000000000085000000000000000000000000000000000000000000000000000000000000000000000000000000000000000000000PES00010000001N00000000000000020180510
201804300060000700000000000000594059000000000000005940599900000000000000000000Consumidor Final              000000000089500000000000089500000000000000000000000000000000000000000000000000000000000000000000000000000000000000000000PES00010000001N00000000000000020180510
201804300060000700000000000000594060000000000000005940609900000000000000000000Consumidor Final              000000000044000000000000044000000000000000000000000000000000000000000000000000000000000000000000000000000000000000000000PES00010000001N00000000000000020180510
201804300060000600000000000000813292000000000000008132929900000000000000000000Consumidor Final              000000000089500000000000089500000000000000000000000000000000000000000000000000000000000000000000000000000000000000000000PES00010000001N00000000000000020180510
201804300060000900000000000000049916000000000000000499169000000000099999999999Consumidor Final              000000000104000000000000104000000000000000000000000000000000000000000000000000000000000000000000000000000000000000000000PES00010000001N00000000000000020180510
201804300060000900000000000000049917000000000000000499179900000000000000000000Consumidor Final              000000000089500000000000089500000000000000000000000000000000000000000000000000000000000000000000000000000000000000000000PES00010000001N00000000000000020180510
201804300060000900000000000000049918000000000000000499189900000000000000000000Consumidor Final              000000000089500000000000089500000000000000000000000000000000000000000000000000000000000000000000000000000000000000000000PES00010000001N00000000000000020180510
201804300060000600000000000000813293000000000000008132939900000000000000000000Consumidor Final              000000000089500000000000089500000000000000000000000000000000000000000000000000000000000000000000000000000000000000000000PES00010000001N00000000000000020180510
201804300060000900000000000000049919000000000000000499199900000000000000000000Consumidor Final              000000000089500000000000089500000000000000000000000000000000000000000000000000000000000000000000000000000000000000000000PES00010000001N00000000000000020180510
201804300060000600000000000000813294000000000000008132949000000000099999999999Consumidor Final              000000000134000000000000134000000000000000000000000000000000000000000000000000000000000000000000000000000000000000000000PES00010000001N00000000000000020180510
201804300060000600000000000000813300000000000000008133009900000000000000000000Consumidor Final              000000000089500000000000089500000000000000000000000000000000000000000000000000000000000000000000000000000000000000000000PES00010000001N00000000000000020180510
201804300060000600000000000000813328000000000000008133289900000000000000000000Consumidor Final              000000000085800000000000085800000000000000000000000000000000000000000000000000000000000000000000000000000000000000000000PES00010000001N00000000000000020180510
201804300060000600000000000000813329000000000000008133298000000000030711198594Consumidor Final              000000000092000000000000092000000000000000000000000000000000000000000000000000000000000000000000000000000000000000000000PES00010000001N00000000000000020180510
201804300060000600000000000000813331000000000000008133319900000000000000000000Consumidor Final              000000000095000000000000095000000000000000000000000000000000000000000000000000000000000000000000000000000000000000000000PES00010000001N00000000000000020180510
201804300060000600000000000000813332000000000000008133329900000000000000000000Consumidor Final              000000000082000000000000082000000000000000000000000000000000000000000000000000000000000000000000000000000000000000000000PES00010000001N00000000000000020180510
201804300060000600000000000000813333000000000000008133339900000000000000000000Consumidor Final              000000000089500000000000089500000000000000000000000000000000000000000000000000000000000000000000000000000000000000000000PES00010000001N00000000000000020180510
201804300060000700000000000000593954000000000000005939549900000000000000000000Consumidor Final              000000000089500000000000089500000000000000000000000000000000000000000000000000000000000000000000000000000000000000000000PES00010000001N00000000000000020180510
201804300060000700000000000000593955000000000000005939559000000000099999999999Consumidor Final              000000000100000000000000100000000000000000000000000000000000000000000000000000000000000000000000000000000000000000000000PES00010000001N00000000000000020180510
201804300060000700000000000000593956000000000000005939569900000000000000000000Consumidor Final              000000000098400000000000098400000000000000000000000000000000000000000000000000000000000000000000000000000000000000000000PES00010000001N00000000000000020180510
201804300060000700000000000000593957000000000000005939579900000000000000000000Consumidor Final              000000000089500000000000089500000000000000000000000000000000000000000000000000000000000000000000000000000000000000000000PES00010000001N00000000000000020180510
201804300060000600000000000000813301000000000000008133019000000000099999999999Consumidor Final              000000000169400000000000169400000000000000000000000000000000000000000000000000000000000000000000000000000000000000000000PES00010000001N00000000000000020180510
201804300060000600000000000000813302000000000000008133029900000000000000000000Consumidor Final              000000000089500000000000089500000000000000000000000000000000000000000000000000000000000000000000000000000000000000000000PES00010000001N00000000000000020180510
201804300060000600000000000000813303000000000000008133039000000000099999999999Consumidor Final              000000000155000000000000155000000000000000000000000000000000000000000000000000000000000000000000000000000000000000000000PES00010000001N00000000000000020180510
201804300060000600000000000000813304000000000000008133049000000000099999999999Consumidor Final              000000000104500000000000104500000000000000000000000000000000000000000000000000000000000000000000000000000000000000000000PES00010000001N00000000000000020180510
201804300060000800000000000000202384000000000000002023849900000000000000000000Consumidor Final              000000000078000000000000078000000000000000000000000000000000000000000000000000000000000000000000000000000000000000000000PES00010000001N00000000000000020180510
201804300060000800000000000000202385000000000000002023859900000000000000000000Consumidor Final              000000000078200000000000078200000000000000000000000000000000000000000000000000000000000000000000000000000000000000000000PES00010000001N00000000000000020180510
201804300060000800000000000000202386000000000000002023869000000000099999999999Consumidor Final              000000000102000000000000102000000000000000000000000000000000000000000000000000000000000000000000000000000000000000000000PES00010000001N00000000000000020180510
201804300060000800000000000000202387000000000000002023879900000000000000000000Consumidor Final              000000000078000000000000078000000000000000000000000000000000000000000000000000000000000000000000000000000000000000000000PES00010000001N00000000000000020180510
201804300060000800000000000000202388000000000000002023889900000000000000000000Consumidor Final              000000000078000000000000078000000000000000000000000000000000000000000000000000000000000000000000000000000000000000000000PES00010000001N00000000000000020180510
201804300060000800000000000000202389000000000000002023899900000000000000000000Consumidor Final              000000000078000000000000078000000000000000000000000000000000000000000000000000000000000000000000000000000000000000000000PES00010000001N00000000000000020180510
201804300060000800000000000000202390000000000000002023909900000000000000000000Consumidor Final              000000000078000000000000078000000000000000000000000000000000000000000000000000000000000000000000000000000000000000000000PES00010000001N00000000000000020180510
201804300060000600000000000000813311000000000000008133119900000000000000000000Consumidor Final              000000000089500000000000089500000000000000000000000000000000000000000000000000000000000000000000000000000000000000000000PES00010000001N00000000000000020180510
201804300060000600000000000000813316000000000000008133169900000000000000000000Consumidor Final              000000000089500000000000089500000000000000000000000000000000000000000000000000000000000000000000000000000000000000000000PES00010000001N00000000000000020180510
201804300060000600000000000000813323000000000000008133239900000000000000000000Consumidor Final              000000000085000000000000085000000000000000000000000000000000000000000000000000000000000000000000000000000000000000000000PES00010000001N00000000000000020180510
201804300060000600000000000000813324000000000000008133249900000000000000000000Consumidor Final              000000000089500000000000089500000000000000000000000000000000000000000000000000000000000000000000000000000000000000000000PES00010000001N00000000000000020180510
201804300060000600000000000000813325000000000000008133259900000000000000000000Consumidor Final              000000000078000000000000078000000000000000000000000000000000000000000000000000000000000000000000000000000000000000000000PES00010000001N00000000000000020180510
201804300060000600000000000000813326000000000000008133269900000000000000000000Consumidor Final              000000000085000000000000085000000000000000000000000000000000000000000000000000000000000000000000000000000000000000000000PES00010000001N00000000000000020180510
201804300060000700000000000000593935000000000000005939359900000000000000000000Consumidor Final              000000000082000000000000082000000000000000000000000000000000000000000000000000000000000000000000000000000000000000000000PES00010000001N00000000000000020180510
201804300060000700000000000000593936000000000000005939369900000000000000000000Consumidor Final              000000000085000000000000085000000000000000000000000000000000000000000000000000000000000000000000000000000000000000000000PES00010000001N00000000000000020180510
201804300060000600000000000000813330000000000000008133309900000000000000000000Consumidor Final              000000000092000000000000092000000000000000000000000000000000000000000000000000000000000000000000000000000000000000000000PES00010000001N00000000000000020180510
201804300060000700000000000000593940000000000000005939409000000000099999999999Consumidor Final              000000000114900000000000114900000000000000000000000000000000000000000000000000000000000000000000000000000000000000000000PES00010000001N00000000000000020180510
201804300060000700000000000000593943000000000000005939439900000000000000000000Consumidor Final              000000000089500000000000089500000000000000000000000000000000000000000000000000000000000000000000000000000000000000000000PES00010000001N00000000000000020180510
201804300060000600000000000000813312000000000000008133129900000000000000000000Consumidor Final              000000000089500000000000089500000000000000000000000000000000000000000000000000000000000000000000000000000000000000000000PES00010000001N00000000000000020180510
201804300060000700000000000000593958000000000000005939589900000000000000000000Consumidor Final              000000000089500000000000089500000000000000000000000000000000000000000000000000000000000000000000000000000000000000000000PES00010000001N00000000000000020180510
201804300060000700000000000000593959000000000000005939599900000000000000000000Consumidor Final              000000000098400000000000098400000000000000000000000000000000000000000000000000000000000000000000000000000000000000000000PES00010000001N00000000000000020180510
201804300060000700000000000000593960000000000000005939609900000000000000000000Consumidor Final              000000000089500000000000089500000000000000000000000000000000000000000000000000000000000000000000000000000000000000000000PES00010000001N00000000000000020180510
201804300060000700000000000000593961000000000000005939619900000000000000000000Consumidor Final              000000000078000000000000078000000000000000000000000000000000000000000000000000000000000000000000000000000000000000000000PES00010000001N00000000000000020180510
201804300060000700000000000000593962000000000000005939629900000000000000000000Consumidor Final              000000000089500000000000089500000000000000000000000000000000000000000000000000000000000000000000000000000000000000000000PES00010000001N00000000000000020180510
201804300060000700000000000000593963000000000000005939639900000000000000000000Consumidor Final              000000000098400000000000098400000000000000000000000000000000000000000000000000000000000000000000000000000000000000000000PES00010000001N00000000000000020180510
201804300060000700000000000000593964000000000000005939649900000000000000000000Consumidor Final              000000000089500000000000089500000000000000000000000000000000000000000000000000000000000000000000000000000000000000000000PES00010000001N00000000000000020180510
201804300060000700000000000000593965000000000000005939659000000000099999999999Consumidor Final              000000000101200000000000101200000000000000000000000000000000000000000000000000000000000000000000000000000000000000000000PES00010000001N00000000000000020180510
201804300060000700000000000000593966000000000000005939669900000000000000000000Consumidor Final              000000000089500000000000089500000000000000000000000000000000000000000000000000000000000000000000000000000000000000000000PES00010000001N00000000000000020180510
201804300060000600000000000000813313000000000000008133139900000000000000000000Consumidor Final              000000000085000000000000085000000000000000000000000000000000000000000000000000000000000000000000000000000000000000000000PES00010000001N00000000000000020180510
201804300060000600000000000000813314000000000000008133149900000000000000000000Consumidor Final              000000000085000000000000085000000000000000000000000000000000000000000000000000000000000000000000000000000000000000000000PES00010000001N00000000000000020180510
201804300060000800000000000000202393000000000000002023939900000000000000000000Consumidor Final              000000000042000000000000042000000000000000000000000000000000000000000000000000000000000000000000000000000000000000000000PES00010000001N00000000000000020180510
201804300060000600000000000000813318000000000000008133189000000000099999999999Consumidor Final              000000000134000000000000134000000000000000000000000000000000000000000000000000000000000000000000000000000000000000000000PES00010000001N00000000000000020180510
201804300060000600000000000000813319000000000000008133199900000000000000000000Consumidor Final              000000000089500000000000089500000000000000000000000000000000000000000000000000000000000000000000000000000000000000000000PES00010000001N00000000000000020180510
201804300060000600000000000000813320000000000000008133209000000000099999999999Consumidor Final              000000000101200000000000101200000000000000000000000000000000000000000000000000000000000000000000000000000000000000000000PES00010000001N00000000000000020180510
201804300060000600000000000000813321000000000000008133219900000000000000000000Consumidor Final              000000000094000000000000094000000000000000000000000000000000000000000000000000000000000000000000000000000000000000000000PES00010000001N00000000000000020180510
201804300060000600000000000000813322000000000000008133229900000000000000000000Consumidor Final              000000000098400000000000098400000000000000000000000000000000000000000000000000000000000000000000000000000000000000000000PES00010000001N00000000000000020180510
201804300060000800000000000000202394000000000000002023949900000000000000000000Consumidor Final              000000000044000000000000044000000000000000000000000000000000000000000000000000000000000000000000000000000000000000000000PES00010000001N00000000000000020180510
201804300060000800000000000000202395000000000000002023959900000000000000000000Consumidor Final              000000000044000000000000044000000000000000000000000000000000000000000000000000000000000000000000000000000000000000000000PES00010000001N00000000000000020180510
201804300060000800000000000000202396000000000000002023969900000000000000000000Consumidor Final              000000000078000000000000078000000000000000000000000000000000000000000000000000000000000000000000000000000000000000000000PES00010000001N00000000000000020180510
201804300060000800000000000000202397000000000000002023979900000000000000000000Consumidor Final              000000000044000000000000044000000000000000000000000000000000000000000000000000000000000000000000000000000000000000000000PES00010000001N00000000000000020180510
201804300060000600000000000000813334000000000000008133349900000000000000000000Consumidor Final              000000000057000000000000057000000000000000000000000000000000000000000000000000000000000000000000000000000000000000000000PES00010000001N00000000000000020180510
201804300060000600000000000000813335000000000000008133359000000000099999999999Consumidor Final              000000000104500000000000104500000000000000000000000000000000000000000000000000000000000000000000000000000000000000000000PES00010000001N00000000000000020180510
201804300060000600000000000000813336000000000000008133369900000000000000000000Consumidor Final              000000000089500000000000089500000000000000000000000000000000000000000000000000000000000000000000000000000000000000000000PES00010000001N00000000000000020180510
201804300060000600000000000000813337000000000000008133379900000000000000000000Consumidor Final              000000000089500000000000089500000000000000000000000000000000000000000000000000000000000000000000000000000000000000000000PES00010000001N00000000000000020180510
201804300060000600000000000000813338000000000000008133389900000000000000000000Consumidor Final              000000000089500000000000089500000000000000000000000000000000000000000000000000000000000000000000000000000000000000000000PES00010000001N00000000000000020180510
201804300060000600000000000000813339000000000000008133399900000000000000000000Consumidor Final              000000000089500000000000089500000000000000000000000000000000000000000000000000000000000000000000000000000000000000000000PES00010000001N00000000000000020180510
201804300060000600000000000000813340000000000000008133409900000000000000000000Consumidor Final              000000000089500000000000089500000000000000000000000000000000000000000000000000000000000000000000000000000000000000000000PES00010000001N00000000000000020180510
201804300060000700000000000000593984000000000000005939849900000000000000000000Consumidor Final              000000000089500000000000089500000000000000000000000000000000000000000000000000000000000000000000000000000000000000000000PES00010000001N00000000000000020180510
201804300060000700000000000000593985000000000000005939859900000000000000000000Consumidor Final              000000000089500000000000089500000000000000000000000000000000000000000000000000000000000000000000000000000000000000000000PES00010000001N00000000000000020180510
201804300060000700000000000000593986000000000000005939869900000000000000000000Consumidor Final              000000000098400000000000098400000000000000000000000000000000000000000000000000000000000000000000000000000000000000000000PES00010000001N00000000000000020180510
201804300060000700000000000000593937000000000000005939379900000000000000000000Consumidor Final              000000000052000000000000052000000000000000000000000000000000000000000000000000000000000000000000000000000000000000000000PES00010000001N00000000000000020180510
201804300060000600000000000000813366000000000000008133669900000000000000000000Consumidor Final              000000000089500000000000089500000000000000000000000000000000000000000000000000000000000000000000000000000000000000000000PES00010000001N00000000000000020180510
201804300060000700000000000000593987000000000000005939879900000000000000000000Consumidor Final              000000000042000000000000042000000000000000000000000000000000000000000000000000000000000000000000000000000000000000000000PES00010000001N00000000000000020180510
201804300060000700000000000000593988000000000000005939889000000000099999999999Consumidor Final              000000000120000000000000120000000000000000000000000000000000000000000000000000000000000000000000000000000000000000000000PES00010000001N00000000000000020180510
201804300060000600000000000000813367000000000000008133679900000000000000000000Consumidor Final              000000000085000000000000085000000000000000000000000000000000000000000000000000000000000000000000000000000000000000000000PES00010000001N00000000000000020180510
201804300060000700000000000000593989000000000000005939899900000000000000000000Consumidor Final              000000000089500000000000089500000000000000000000000000000000000000000000000000000000000000000000000000000000000000000000PES00010000001N00000000000000020180510
201804300060000600000000000000813368000000000000008133689000000000099999999999Consumidor Final              000000000293500000000000293500000000000000000000000000000000000000000000000000000000000000000000000000000000000000000000PES00010000001N00000000000000020180510
201804300060000700000000000000593990000000000000005939909900000000000000000000Consumidor Final              000000000098400000000000098400000000000000000000000000000000000000000000000000000000000000000000000000000000000000000000PES00010000001N00000000000000020180510
201804300060000800000000000000202401000000000000002024019900000000000000000000Consumidor Final              000000000085000000000000085000000000000000000000000000000000000000000000000000000000000000000000000000000000000000000000PES00010000001N00000000000000020180510
201804300060000800000000000000202402000000000000002024029900000000000000000000Consumidor Final              000000000085000000000000085000000000000000000000000000000000000000000000000000000000000000000000000000000000000000000000PES00010000001N00000000000000020180510
201804300060000700000000000000593944000000000000005939449900000000000000000000Consumidor Final              000000000098400000000000098400000000000000000000000000000000000000000000000000000000000000000000000000000000000000000000PES00010000001N00000000000000020180510
201804300060000700000000000000593945000000000000005939459900000000000000000000Consumidor Final              000000000089500000000000089500000000000000000000000000000000000000000000000000000000000000000000000000000000000000000000PES00010000001N00000000000000020180510
201804300060000700000000000000593946000000000000005939469000000000099999999999Consumidor Final              000000000104500000000000104500000000000000000000000000000000000000000000000000000000000000000000000000000000000000000000PES00010000001N00000000000000020180510
201804300060000700000000000000593947000000000000005939479900000000000000000000Consumidor Final              000000000085000000000000085000000000000000000000000000000000000000000000000000000000000000000000000000000000000000000000PES00010000001N00000000000000020180510
201804300060000700000000000000593948000000000000005939489900000000000000000000Consumidor Final              000000000085000000000000085000000000000000000000000000000000000000000000000000000000000000000000000000000000000000000000PES00010000001N00000000000000020180510
201804300060000700000000000000593949000000000000005939499900000000000000000000Consumidor Final              000000000085000000000000085000000000000000000000000000000000000000000000000000000000000000000000000000000000000000000000PES00010000001N00000000000000020180510
201804300060000700000000000000593950000000000000005939509900000000000000000000Consumidor Final              000000000089500000000000089500000000000000000000000000000000000000000000000000000000000000000000000000000000000000000000PES00010000001N00000000000000020180510
201804300060000700000000000000593951000000000000005939519900000000000000000000Consumidor Final              000000000092000000000000092000000000000000000000000000000000000000000000000000000000000000000000000000000000000000000000PES00010000001N00000000000000020180510
201804300060000700000000000000593952000000000000005939529900000000000000000000Consumidor Final              000000000098400000000000098400000000000000000000000000000000000000000000000000000000000000000000000000000000000000000000PES00010000001N00000000000000020180510
201804300060000700000000000000593953000000000000005939539900000000000000000000Consumidor Final              000000000057000000000000057000000000000000000000000000000000000000000000000000000000000000000000000000000000000000000000PES00010000001N00000000000000020180510
201804300060000600000000000000813346000000000000008133469900000000000000000000Consumidor Final              000000000098400000000000098400000000000000000000000000000000000000000000000000000000000000000000000000000000000000000000PES00010000001N00000000000000020180510
201804300060000800000000000000202398000000000000002023989900000000000000000000Consumidor Final              000000000078000000000000078000000000000000000000000000000000000000000000000000000000000000000000000000000000000000000000PES00010000001N00000000000000020180510
201804300060000800000000000000202399000000000000002023999900000000000000000000Consumidor Final              000000000078000000000000078000000000000000000000000000000000000000000000000000000000000000000000000000000000000000000000PES00010000001N00000000000000020180510
201804300060000800000000000000202400000000000000002024009900000000000000000000Consumidor Final              000000000078000000000000078000000000000000000000000000000000000000000000000000000000000000000000000000000000000000000000PES00010000001N00000000000000020180510
201804300060000700000000000000593977000000000000005939778000000000030709974757Consumidor Final              000000000089500000000000089500000000000000000000000000000000000000000000000000000000000000000000000000000000000000000000PES00010000001N00000000000000020180510
201804300060000700000000000000593978000000000000005939789900000000000000000000Consumidor Final              000000000089500000000000089500000000000000000000000000000000000000000000000000000000000000000000000000000000000000000000PES00010000001N00000000000000020180510
201804300060000700000000000000593979000000000000005939799900000000000000000000Consumidor Final              000000000098400000000000098400000000000000000000000000000000000000000000000000000000000000000000000000000000000000000000PES00010000001N00000000000000020180510
201804300060000700000000000000593980000000000000005939809900000000000000000000Consumidor Final              000000000095000000000000095000000000000000000000000000000000000000000000000000000000000000000000000000000000000000000000PES00010000001N00000000000000020180510
201804300060000700000000000000593981000000000000005939819900000000000000000000Consumidor Final              000000000095000000000000095000000000000000000000000000000000000000000000000000000000000000000000000000000000000000000000PES00010000001N00000000000000020180510
201804300060000700000000000000593982000000000000005939829900000000000000000000Consumidor Final              000000000090000000000000090000000000000000000000000000000000000000000000000000000000000000000000000000000000000000000000PES00010000001N00000000000000020180510
201804300060000700000000000000593983000000000000005939839900000000000000000000Consumidor Final              000000000090000000000000090000000000000000000000000000000000000000000000000000000000000000000000000000000000000000000000PES00010000001N00000000000000020180510
201804300060000600000000000000813347000000000000008133479900000000000000000000Consumidor Final              000000000098400000000000098400000000000000000000000000000000000000000000000000000000000000000000000000000000000000000000PES00010000001N00000000000000020180510
201804300060000600000000000000813348000000000000008133489900000000000000000000Consumidor Final              000000000089500000000000089500000000000000000000000000000000000000000000000000000000000000000000000000000000000000000000PES00010000001N00000000000000020180510
201804300060000600000000000000813349000000000000008133499900000000000000000000Consumidor Final              000000000078000000000000078000000000000000000000000000000000000000000000000000000000000000000000000000000000000000000000PES00010000001N00000000000000020180510
201804300060000600000000000000813350000000000000008133509900000000000000000000Consumidor Final              000000000089500000000000089500000000000000000000000000000000000000000000000000000000000000000000000000000000000000000000PES00010000001N00000000000000020180510
201804300060000600000000000000813351000000000000008133519900000000000000000000Consumidor Final              000000000089500000000000089500000000000000000000000000000000000000000000000000000000000000000000000000000000000000000000PES00010000001N00000000000000020180510
201804300060000600000000000000813352000000000000008133529000000000099999999999Consumidor Final              000000000100000000000000100000000000000000000000000000000000000000000000000000000000000000000000000000000000000000000000PES00010000001N00000000000000020180510
201804300060000600000000000000813353000000000000008133539900000000000000000000Consumidor Final              000000000098400000000000098400000000000000000000000000000000000000000000000000000000000000000000000000000000000000000000PES00010000001N00000000000000020180510
201804300060000600000000000000813354000000000000008133549900000000000000000000Consumidor Final              000000000098400000000000098400000000000000000000000000000000000000000000000000000000000000000000000000000000000000000000PES00010000001N00000000000000020180510
201804300060000600000000000000813355000000000000008133559900000000000000000000Consumidor Final              000000000089500000000000089500000000000000000000000000000000000000000000000000000000000000000000000000000000000000000000PES00010000001N00000000000000020180510
201804300060000600000000000000813356000000000000008133569900000000000000000000Consumidor Final              000000000042000000000000042000000000000000000000000000000000000000000000000000000000000000000000000000000000000000000000PES00010000001N00000000000000020180510
201804300060000600000000000000813357000000000000008133579900000000000000000000Consumidor Final              000000000098400000000000098400000000000000000000000000000000000000000000000000000000000000000000000000000000000000000000PES00010000001N00000000000000020180510
201804300060000700000000000000594000000000000000005940009000000000099999999999Consumidor Final              000000000114900000000000114900000000000000000000000000000000000000000000000000000000000000000000000000000000000000000000PES00010000001N00000000000000020180510
201804300060000700000000000000594001000000000000005940019900000000000000000000Consumidor Final              000000000098400000000000098400000000000000000000000000000000000000000000000000000000000000000000000000000000000000000000PES00010000001N00000000000000020180510
201804300060000700000000000000594002000000000000005940029900000000000000000000Consumidor Final              000000000089500000000000089500000000000000000000000000000000000000000000000000000000000000000000000000000000000000000000PES00010000001N00000000000000020180510
201804300060000700000000000000594003000000000000005940039900000000000000000000Consumidor Final              000000000078000000000000078000000000000000000000000000000000000000000000000000000000000000000000000000000000000000000000PES00010000001N00000000000000020180510
201804300060000700000000000000594004000000000000005940049900000000000000000000Consumidor Final              000000000092000000000000092000000000000000000000000000000000000000000000000000000000000000000000000000000000000000000000PES00010000001N00000000000000020180510
201804300060000700000000000000594005000000000000005940059000000000099999999999Consumidor Final              000000000107000000000000107000000000000000000000000000000000000000000000000000000000000000000000000000000000000000000000PES00010000001N00000000000000020180510
201804300060000700000000000000594006000000000000005940069900000000000000000000Consumidor Final              000000000089500000000000089500000000000000000000000000000000000000000000000000000000000000000000000000000000000000000000PES00010000001N00000000000000020180510
201804300060000700000000000000594007000000000000005940079000000000099999999999Consumidor Final              000000000110000000000000110000000000000000000000000000000000000000000000000000000000000000000000000000000000000000000000PES00010000001N00000000000000020180510
201804300060000700000000000000594008000000000000005940089900000000000000000000Consumidor Final              000000000089500000000000089500000000000000000000000000000000000000000000000000000000000000000000000000000000000000000000PES00010000001N00000000000000020180510
201804300060000600000000000000813358000000000000008133589900000000000000000000Consumidor Final              000000000089500000000000089500000000000000000000000000000000000000000000000000000000000000000000000000000000000000000000PES00010000001N00000000000000020180510
201804300060000600000000000000813360000000000000008133609900000000000000000000Consumidor Final              000000000089500000000000089500000000000000000000000000000000000000000000000000000000000000000000000000000000000000000000PES00010000001N00000000000000020180510
201804300060000600000000000000813361000000000000008133619000000000099999999999Consumidor Final              000000000182000000000000182000000000000000000000000000000000000000000000000000000000000000000000000000000000000000000000PES00010000001N00000000000000020180510
201804300060000600000000000000813362000000000000008133629900000000000000000000Consumidor Final              000000000085000000000000085000000000000000000000000000000000000000000000000000000000000000000000000000000000000000000000PES00010000001N00000000000000020180510
201804300060000600000000000000813363000000000000008133639900000000000000000000Consumidor Final              000000000089500000000000089500000000000000000000000000000000000000000000000000000000000000000000000000000000000000000000PES00010000001N00000000000000020180510
201804300060000600000000000000813364000000000000008133649900000000000000000000Consumidor Final              000000000089500000000000089500000000000000000000000000000000000000000000000000000000000000000000000000000000000000000000PES00010000001N00000000000000020180510
201804300060000600000000000000813365000000000000008133659900000000000000000000Consumidor Final              000000000089500000000000089500000000000000000000000000000000000000000000000000000000000000000000000000000000000000000000PES00010000001N00000000000000020180510
201804300060000600000000000000813369000000000000008133699900000000000000000000Consumidor Final              000000000089500000000000089500000000000000000000000000000000000000000000000000000000000000000000000000000000000000000000PES00010000001N00000000000000020180510
201804300060000600000000000000813370000000000000008133709900000000000000000000Consumidor Final              000000000085000000000000085000000000000000000000000000000000000000000000000000000000000000000000000000000000000000000000PES00010000001N00000000000000020180510
201804300060000600000000000000813371000000000000008133719000000000099999999999Consumidor Final              000000000116000000000000116000000000000000000000000000000000000000000000000000000000000000000000000000000000000000000000PES00010000001N00000000000000020180510
201804300060000600000000000000813359000000000000008133599900000000000000000000Consumidor Final              000000000089500000000000089500000000000000000000000000000000000000000000000000000000000000000000000000000000000000000000PES00010000001N00000000000000020180510
201804300060000700000000000000593967000000000000005939679900000000000000000000Consumidor Final              000000000089500000000000089500000000000000000000000000000000000000000000000000000000000000000000000000000000000000000000PES00010000001N00000000000000020180510
201804300060000700000000000000593968000000000000005939689900000000000000000000Consumidor Final              000000000089500000000000089500000000000000000000000000000000000000000000000000000000000000000000000000000000000000000000PES00010000001N00000000000000020180510
201804300060000700000000000000593969000000000000005939699900000000000000000000Consumidor Final              000000000085000000000000085000000000000000000000000000000000000000000000000000000000000000000000000000000000000000000000PES00010000001N00000000000000020180510
201804300060000700000000000000593970000000000000005939709900000000000000000000Consumidor Final              000000000089500000000000089500000000000000000000000000000000000000000000000000000000000000000000000000000000000000000000PES00010000001N00000000000000020180510
201804300060000700000000000000593971000000000000005939719900000000000000000000Consumidor Final              000000000089500000000000089500000000000000000000000000000000000000000000000000000000000000000000000000000000000000000000PES00010000001N00000000000000020180510
201804300060000700000000000000593972000000000000005939729900000000000000000000Consumidor Final              000000000089500000000000089500000000000000000000000000000000000000000000000000000000000000000000000000000000000000000000PES00010000001N00000000000000020180510
201804300060000700000000000000593973000000000000005939739900000000000000000000Consumidor Final              000000000089500000000000089500000000000000000000000000000000000000000000000000000000000000000000000000000000000000000000PES00010000001N00000000000000020180510
201804300060000700000000000000593974000000000000005939749900000000000000000000Consumidor Final              000000000092000000000000092000000000000000000000000000000000000000000000000000000000000000000000000000000000000000000000PES00010000001N00000000000000020180510
201804300060000700000000000000593975000000000000005939759900000000000000000000Consumidor Final              000000000089500000000000089500000000000000000000000000000000000000000000000000000000000000000000000000000000000000000000PES00010000001N00000000000000020180510
201804300060000700000000000000593976000000000000005939769900000000000000000000Consumidor Final              000000000089500000000000089500000000000000000000000000000000000000000000000000000000000000000000000000000000000000000000PES00010000001N00000000000000020180510
201804300060000700000000000000593992000000000000005939929900000000000000000000Consumidor Final              000000000089500000000000089500000000000000000000000000000000000000000000000000000000000000000000000000000000000000000000PES00010000001N00000000000000020180510
201804300060000700000000000000594010000000000000005940109900000000000000000000Consumidor Final              000000000089500000000000089500000000000000000000000000000000000000000000000000000000000000000000000000000000000000000000PES00010000001N00000000000000020180510
201804300060000600000000000000813380000000000000008133809900000000000000000000Consumidor Final              000000000089500000000000089500000000000000000000000000000000000000000000000000000000000000000000000000000000000000000000PES00010000001N00000000000000020180510
201804300060000800000000000000202406000000000000002024069900000000000000000000Consumidor Final              000000000078000000000000078000000000000000000000000000000000000000000000000000000000000000000000000000000000000000000000PES00010000001N00000000000000020180510
201804300060000800000000000000202407000000000000002024079900000000000000000000Consumidor Final              000000000085000000000000085000000000000000000000000000000000000000000000000000000000000000000000000000000000000000000000PES00010000001N00000000000000020180510
201804300060000800000000000000202408000000000000002024089900000000000000000000Consumidor Final              000000000078000000000000078000000000000000000000000000000000000000000000000000000000000000000000000000000000000000000000PES00010000001N00000000000000020180510
201804300060000800000000000000202409000000000000002024099900000000000000000000Consumidor Final              000000000078000000000000078000000000000000000000000000000000000000000000000000000000000000000000000000000000000000000000PES00010000001N00000000000000020180510
201804300060000800000000000000202410000000000000002024109900000000000000000000Consumidor Final              000000000078000000000000078000000000000000000000000000000000000000000000000000000000000000000000000000000000000000000000PES00010000001N00000000000000020180510
201804300060000600000000000000813384000000000000008133849900000000000000000000Consumidor Final              000000000098400000000000098400000000000000000000000000000000000000000000000000000000000000000000000000000000000000000000PES00010000001N00000000000000020180510
201804300060000600000000000000813385000000000000008133859900000000000000000000Consumidor Final              000000000098400000000000098400000000000000000000000000000000000000000000000000000000000000000000000000000000000000000000PES00010000001N00000000000000020180510
201804300060000600000000000000813386000000000000008133869900000000000000000000Consumidor Final              000000000098400000000000098400000000000000000000000000000000000000000000000000000000000000000000000000000000000000000000PES00010000001N00000000000000020180510
201804300060000700000000000000593994000000000000005939949900000000000000000000Consumidor Final              000000000092000000000000092000000000000000000000000000000000000000000000000000000000000000000000000000000000000000000000PES00010000001N00000000000000020180510
201804300060000600000000000000813372000000000000008133729000000000099999999999Consumidor Final              000000000134000000000000134000000000000000000000000000000000000000000000000000000000000000000000000000000000000000000000PES00010000001N00000000000000020180510
201804300060000600000000000000813373000000000000008133739000000000099999999999Consumidor Final              000000000104500000000000104500000000000000000000000000000000000000000000000000000000000000000000000000000000000000000000PES00010000001N00000000000000020180510
201804300060000600000000000000813374000000000000008133749900000000000000000000Consumidor Final              000000000089500000000000089500000000000000000000000000000000000000000000000000000000000000000000000000000000000000000000PES00010000001N00000000000000020180510
201804300060000600000000000000813375000000000000008133759900000000000000000000Consumidor Final              000000000049000000000000049000000000000000000000000000000000000000000000000000000000000000000000000000000000000000000000PES00010000001N00000000000000020180510
201804300060000600000000000000813376000000000000008133769900000000000000000000Consumidor Final              000000000089500000000000089500000000000000000000000000000000000000000000000000000000000000000000000000000000000000000000PES00010000001N00000000000000020180510
201804300060000600000000000000813377000000000000008133779900000000000000000000Consumidor Final              000000000089500000000000089500000000000000000000000000000000000000000000000000000000000000000000000000000000000000000000PES00010000001N00000000000000020180510
201804300060000600000000000000813378000000000000008133789900000000000000000000Consumidor Final              000000000089500000000000089500000000000000000000000000000000000000000000000000000000000000000000000000000000000000000000PES00010000001N00000000000000020180510
201804300060000600000000000000813379000000000000008133799000000000099999999999Consumidor Final              000000000101200000000000101200000000000000000000000000000000000000000000000000000000000000000000000000000000000000000000PES00010000001N00000000000000020180510
201804300060000700000000000000594009000000000000005940099900000000000000000000Consumidor Final              000000000089500000000000089500000000000000000000000000000000000000000000000000000000000000000000000000000000000000000000PES00010000001N00000000000000020180510
201804300060000900000000000000049922000000000000000499229900000000000000000000Consumidor Final              000000000098400000000000098400000000000000000000000000000000000000000000000000000000000000000000000000000000000000000000PES00010000001N00000000000000020180510
201804300060000900000000000000049923000000000000000499239900000000000000000000Consumidor Final              000000000089500000000000089500000000000000000000000000000000000000000000000000000000000000000000000000000000000000000000PES00010000001N00000000000000020180510
201804300060000600000000000000813381000000000000008133819900000000000000000000Consumidor Final              000000000098400000000000098400000000000000000000000000000000000000000000000000000000000000000000000000000000000000000000PES00010000001N00000000000000020180510
201804300060000700000000000000594011000000000000005940119900000000000000000000Consumidor Final              000000000089500000000000089500000000000000000000000000000000000000000000000000000000000000000000000000000000000000000000PES00010000001N00000000000000020180510
201804300060000700000000000000594012000000000000005940129900000000000000000000Consumidor Final              000000000085000000000000085000000000000000000000000000000000000000000000000000000000000000000000000000000000000000000000PES00010000001N00000000000000020180510
201804300060000700000000000000594013000000000000005940139000000000099999999999Consumidor Final              000000000106000000000000106000000000000000000000000000000000000000000000000000000000000000000000000000000000000000000000PES00010000001N00000000000000020180510
201804300060000600000000000000813382000000000000008133829900000000000000000000Consumidor Final              000000000089500000000000089500000000000000000000000000000000000000000000000000000000000000000000000000000000000000000000PES00010000001N00000000000000020180510
201804300060000700000000000000594014000000000000005940149900000000000000000000Consumidor Final              000000000093500000000000093500000000000000000000000000000000000000000000000000000000000000000000000000000000000000000000PES00010000001N00000000000000020180510
201804300060000600000000000000813383000000000000008133839000000000099999999999Consumidor Final              000000000104500000000000104500000000000000000000000000000000000000000000000000000000000000000000000000000000000000000000PES00010000001N00000000000000020180510
201804300060000700000000000000594015000000000000005940159900000000000000000000Consumidor Final              000000000089500000000000089500000000000000000000000000000000000000000000000000000000000000000000000000000000000000000000PES00010000001N00000000000000020180510
201804300060000700000000000000594016000000000000005940169900000000000000000000Consumidor Final              000000000089500000000000089500000000000000000000000000000000000000000000000000000000000000000000000000000000000000000000PES00010000001N00000000000000020180510
201804300060000800000000000000202412000000000000002024129900000000000000000000Consumidor Final              000000000078000000000000078000000000000000000000000000000000000000000000000000000000000000000000000000000000000000000000PES00010000001N00000000000000020180510
201804300060000600000000000000813387000000000000008133879900000000000000000000Consumidor Final              000000000089500000000000089500000000000000000000000000000000000000000000000000000000000000000000000000000000000000000000PES00010000001N00000000000000020180510
201804300060000700000000000000594022000000000000005940229900000000000000000000Consumidor Final              000000000098400000000000098400000000000000000000000000000000000000000000000000000000000000000000000000000000000000000000PES00010000001N00000000000000020180510
201804300060000700000000000000594023000000000000005940239900000000000000000000Consumidor Final              000000000098400000000000098400000000000000000000000000000000000000000000000000000000000000000000000000000000000000000000PES00010000001N00000000000000020180510
201804300060000800000000000000202413000000000000002024139900000000000000000000Consumidor Final              000000000078000000000000078000000000000000000000000000000000000000000000000000000000000000000000000000000000000000000000PES00010000001N00000000000000020180510
201804300060000800000000000000202414000000000000002024149900000000000000000000Consumidor Final              000000000078000000000000078000000000000000000000000000000000000000000000000000000000000000000000000000000000000000000000PES00010000001N00000000000000020180510
201804300060000800000000000000202415000000000000002024159900000000000000000000Consumidor Final              000000000078000000000000078000000000000000000000000000000000000000000000000000000000000000000000000000000000000000000000PES00010000001N00000000000000020180510
201804300060000700000000000000594025000000000000005940259900000000000000000000Consumidor Final              000000000098400000000000098400000000000000000000000000000000000000000000000000000000000000000000000000000000000000000000PES00010000001N00000000000000020180510
201804300060000700000000000000594026000000000000005940269900000000000000000000Consumidor Final              000000000089500000000000089500000000000000000000000000000000000000000000000000000000000000000000000000000000000000000000PES00010000001N00000000000000020180510
201804300060000700000000000000594027000000000000005940279900000000000000000000Consumidor Final              000000000098400000000000098400000000000000000000000000000000000000000000000000000000000000000000000000000000000000000000PES00010000001N00000000000000020180510
201804300060000700000000000000594017000000000000005940179900000000000000000000Consumidor Final              000000000089500000000000089500000000000000000000000000000000000000000000000000000000000000000000000000000000000000000000PES00010000001N00000000000000020180510
201804300060000700000000000000594018000000000000005940189000000000099999999999Consumidor Final              000000000101200000000000101200000000000000000000000000000000000000000000000000000000000000000000000000000000000000000000PES00010000001N00000000000000020180510
201804300060000700000000000000594019000000000000005940199900000000000000000000Consumidor Final              000000000089500000000000089500000000000000000000000000000000000000000000000000000000000000000000000000000000000000000000PES00010000001N00000000000000020180510
201804300060000700000000000000594020000000000000005940209900000000000000000000Consumidor Final              000000000092000000000000092000000000000000000000000000000000000000000000000000000000000000000000000000000000000000000000PES00010000001N00000000000000020180510
201804300060000700000000000000594021000000000000005940219000000000099999999999Consumidor Final              000000000101200000000000101200000000000000000000000000000000000000000000000000000000000000000000000000000000000000000000PES00010000001N00000000000000020180510
201804300060000700000000000000594033000000000000005940339900000000000000000000Consumidor Final              000000000089500000000000089500000000000000000000000000000000000000000000000000000000000000000000000000000000000000000000PES00010000001N00000000000000020180510
201804300060000700000000000000594034000000000000005940349900000000000000000000Consumidor Final              000000000085000000000000085000000000000000000000000000000000000000000000000000000000000000000000000000000000000000000000PES00010000001N00000000000000020180510
201804300060000600000000000000813392000000000000008133929900000000000000000000Consumidor Final              000000000085800000000000085800000000000000000000000000000000000000000000000000000000000000000000000000000000000000000000PES00010000001N00000000000000020180510
201804300060000600000000000000813393000000000000008133939900000000000000000000Consumidor Final              000000000089500000000000089500000000000000000000000000000000000000000000000000000000000000000000000000000000000000000000PES00010000001N00000000000000020180510
201804300060000700000000000000594035000000000000005940359900000000000000000000Consumidor Final              000000000092000000000000092000000000000000000000000000000000000000000000000000000000000000000000000000000000000000000000PES00010000001N00000000000000020180510
201804300060000800000000000000202411000000000000002024119900000000000000000000Consumidor Final              000000000078000000000000078000000000000000000000000000000000000000000000000000000000000000000000000000000000000000000000PES00010000001N00000000000000020180510
201804300060000700000000000000594024000000000000005940249900000000000000000000Consumidor Final              000000000085800000000000085800000000000000000000000000000000000000000000000000000000000000000000000000000000000000000000PES00010000001N00000000000000020180510
201804300060000800000000000000202416000000000000002024169900000000000000000000Consumidor Final              000000000078000000000000078000000000000000000000000000000000000000000000000000000000000000000000000000000000000000000000PES00010000001N00000000000000020180510
201804300060000800000000000000202417000000000000002024179900000000000000000000Consumidor Final              000000000078000000000000078000000000000000000000000000000000000000000000000000000000000000000000000000000000000000000000PES00010000001N00000000000000020180510
201804300060000800000000000000202418000000000000002024189900000000000000000000Consumidor Final              000000000089500000000000089500000000000000000000000000000000000000000000000000000000000000000000000000000000000000000000PES00010000001N00000000000000020180510
201804300060000800000000000000202419000000000000002024199900000000000000000000Consumidor Final              000000000078000000000000078000000000000000000000000000000000000000000000000000000000000000000000000000000000000000000000PES00010000001N00000000000000020180510
201804300060000800000000000000202426000000000000002024269900000000000000000000Consumidor Final              000000000078000000000000078000000000000000000000000000000000000000000000000000000000000000000000000000000000000000000000PES00010000001N00000000000000020180510
201804300060000800000000000000202427000000000000002024279900000000000000000000Consumidor Final              000000000078000000000000078000000000000000000000000000000000000000000000000000000000000000000000000000000000000000000000PES00010000001N00000000000000020180510
201804300060000700000000000000594041000000000000005940419900000000000000000000Consumidor Final              000000000093500000000000093500000000000000000000000000000000000000000000000000000000000000000000000000000000000000000000PES00010000001N00000000000000020180510
201804300060000700000000000000594042000000000000005940429900000000000000000000Consumidor Final              000000000085000000000000085000000000000000000000000000000000000000000000000000000000000000000000000000000000000000000000PES00010000001N00000000000000020180510
201804300060000700000000000000594043000000000000005940439000000000099999999999Consumidor Final              000000000110000000000000110000000000000000000000000000000000000000000000000000000000000000000000000000000000000000000000PES00010000001N00000000000000020180510
201804300060000600000000000000813394000000000000008133949900000000000000000000Consumidor Final              000000000078000000000000078000000000000000000000000000000000000000000000000000000000000000000000000000000000000000000000PES00010000001N00000000000000020180510
201804300060000600000000000000813395000000000000008133959900000000000000000000Consumidor Final              000000000089500000000000089500000000000000000000000000000000000000000000000000000000000000000000000000000000000000000000PES00010000001N00000000000000020180510
201804300060000600000000000000813396000000000000008133969900000000000000000000Consumidor Final              000000000098400000000000098400000000000000000000000000000000000000000000000000000000000000000000000000000000000000000000PES00010000001N00000000000000020180510
201804300060000600000000000000813397000000000000008133979900000000000000000000Consumidor Final              000000000098400000000000098400000000000000000000000000000000000000000000000000000000000000000000000000000000000000000000PES00010000001N00000000000000020180510
201804300060000600000000000000813398000000000000008133989900000000000000000000Consumidor Final              000000000098400000000000098400000000000000000000000000000000000000000000000000000000000000000000000000000000000000000000PES00010000001N00000000000000020180510
201804300060000700000000000000594044000000000000005940449900000000000000000000Consumidor Final              000000000089500000000000089500000000000000000000000000000000000000000000000000000000000000000000000000000000000000000000PES00010000001N00000000000000020180510
201804300060000700000000000000594045000000000000005940459900000000000000000000Consumidor Final              000000000098400000000000098400000000000000000000000000000000000000000000000000000000000000000000000000000000000000000000PES00010000001N00000000000000020180510
201804300060000600000000000000813412000000000000008134129900000000000000000000Consumidor Final              000000000089500000000000089500000000000000000000000000000000000000000000000000000000000000000000000000000000000000000000PES00010000001N00000000000000020180510
201804300060000600000000000000813413000000000000008134139900000000000000000000Consumidor Final              000000000089500000000000089500000000000000000000000000000000000000000000000000000000000000000000000000000000000000000000PES00010000001N00000000000000020180510
201804300060000700000000000000594061000000000000005940619900000000000000000000Consumidor Final              000000000089500000000000089500000000000000000000000000000000000000000000000000000000000000000000000000000000000000000000PES00010000001N00000000000000020180510
201804300060000700000000000000594036000000000000005940369900000000000000000000Consumidor Final              000000000089500000000000089500000000000000000000000000000000000000000000000000000000000000000000000000000000000000000000PES00010000001N00000000000000020180510
201804300060000700000000000000594037000000000000005940379900000000000000000000Consumidor Final              000000000098400000000000098400000000000000000000000000000000000000000000000000000000000000000000000000000000000000000000PES00010000001N00000000000000020180510
201804300060000700000000000000594038000000000000005940389900000000000000000000Consumidor Final              000000000089500000000000089500000000000000000000000000000000000000000000000000000000000000000000000000000000000000000000PES00010000001N00000000000000020180510
201804300060000700000000000000594039000000000000005940399900000000000000000000Consumidor Final              000000000089500000000000089500000000000000000000000000000000000000000000000000000000000000000000000000000000000000000000PES00010000001N00000000000000020180510
201804300060000700000000000000594040000000000000005940409900000000000000000000Consumidor Final              000000000089500000000000089500000000000000000000000000000000000000000000000000000000000000000000000000000000000000000000PES00010000001N00000000000000020180510
201804300060000800000000000000202420000000000000002024209900000000000000000000Consumidor Final              000000000078000000000000078000000000000000000000000000000000000000000000000000000000000000000000000000000000000000000000PES00010000001N00000000000000020180510
201804300060000800000000000000202421000000000000002024219900000000000000000000Consumidor Final              000000000078000000000000078000000000000000000000000000000000000000000000000000000000000000000000000000000000000000000000PES00010000001N00000000000000020180510
201804300060000800000000000000202422000000000000002024229900000000000000000000Consumidor Final              000000000078000000000000078000000000000000000000000000000000000000000000000000000000000000000000000000000000000000000000PES00010000001N00000000000000020180510
201804300060000800000000000000202423000000000000002024239900000000000000000000Consumidor Final              000000000078000000000000078000000000000000000000000000000000000000000000000000000000000000000000000000000000000000000000PES00010000001N00000000000000020180510
201804300060000800000000000000202424000000000000002024249900000000000000000000Consumidor Final              000000000078000000000000078000000000000000000000000000000000000000000000000000000000000000000000000000000000000000000000PES00010000001N00000000000000020180510
201804300060000800000000000000202425000000000000002024259900000000000000000000Consumidor Final              000000000078000000000000078000000000000000000000000000000000000000000000000000000000000000000000000000000000000000000000PES00010000001N00000000000000020180510
201804300060000800000000000000202429000000000000002024299900000000000000000000Consumidor Final              000000000078000000000000078000000000000000000000000000000000000000000000000000000000000000000000000000000000000000000000PES00010000001N00000000000000020180510
201804300060000800000000000000202430000000000000002024309900000000000000000000Consumidor Final              000000000078000000000000078000000000000000000000000000000000000000000000000000000000000000000000000000000000000000000000PES00010000001N00000000000000020180510
201804300060000800000000000000202431000000000000002024319900000000000000000000Consumidor Final              000000000078000000000000078000000000000000000000000000000000000000000000000000000000000000000000000000000000000000000000PES00010000001N00000000000000020180510
201804300060000800000000000000202432000000000000002024329900000000000000000000Consumidor Final              000000000078000000000000078000000000000000000000000000000000000000000000000000000000000000000000000000000000000000000000PES00010000001N00000000000000020180510
201804300060000800000000000000202433000000000000002024339900000000000000000000Consumidor Final              000000000078000000000000078000000000000000000000000000000000000000000000000000000000000000000000000000000000000000000000PES00010000001N00000000000000020180510
201804300060000800000000000000202434000000000000002024349900000000000000000000Consumidor Final              000000000078000000000000078000000000000000000000000000000000000000000000000000000000000000000000000000000000000000000000PES00010000001N00000000000000020180510
201804300060000800000000000000202435000000000000002024359900000000000000000000Consumidor Final              000000000078000000000000078000000000000000000000000000000000000000000000000000000000000000000000000000000000000000000000PES00010000001N00000000000000020180510
201804300060000800000000000000202436000000000000002024369900000000000000000000Consumidor Final              000000000078000000000000078000000000000000000000000000000000000000000000000000000000000000000000000000000000000000000000PES00010000001N00000000000000020180510
201804300060000800000000000000202437000000000000002024379900000000000000000000Consumidor Final              000000000078000000000000078000000000000000000000000000000000000000000000000000000000000000000000000000000000000000000000PES00010000001N00000000000000020180510
201804300060000800000000000000202438000000000000002024389900000000000000000000Consumidor Final              000000000078000000000000078000000000000000000000000000000000000000000000000000000000000000000000000000000000000000000000PES00010000001N00000000000000020180510
201804300060000800000000000000202439000000000000002024399900000000000000000000Consumidor Final              000000000078000000000000078000000000000000000000000000000000000000000000000000000000000000000000000000000000000000000000PES00010000001N00000000000000020180510
201804300060000600000000000000813399000000000000008133999900000000000000000000Consumidor Final              000000000089500000000000089500000000000000000000000000000000000000000000000000000000000000000000000000000000000000000000PES00010000001N00000000000000020180510
201804300060000600000000000000813400000000000000008134009900000000000000000000Consumidor Final              000000000089500000000000089500000000000000000000000000000000000000000000000000000000000000000000000000000000000000000000PES00010000001N00000000000000020180510
201804300060000600000000000000813401000000000000008134019900000000000000000000Consumidor Final              000000000093500000000000093500000000000000000000000000000000000000000000000000000000000000000000000000000000000000000000PES00010000001N00000000000000020180510
201804300060000900000000000000049924000000000000000499249900000000000000000000Consumidor Final              000000000085000000000000085000000000000000000000000000000000000000000000000000000000000000000000000000000000000000000000PES00010000001N00000000000000020180510
201804300060000900000000000000049925000000000000000499259900000000000000000000Consumidor Final              000000000042000000000000042000000000000000000000000000000000000000000000000000000000000000000000000000000000000000000000PES00010000001N00000000000000020180510
201804300060000600000000000000813402000000000000008134029900000000000000000000Consumidor Final              000000000089500000000000089500000000000000000000000000000000000000000000000000000000000000000000000000000000000000000000PES00010000001N00000000000000020180510
201804300060000600000000000000813403000000000000008134039900000000000000000000Consumidor Final              000000000089500000000000089500000000000000000000000000000000000000000000000000000000000000000000000000000000000000000000PES00010000001N00000000000000020180510
201804300060000700000000000000594046000000000000005940469900000000000000000000Consumidor Final              000000000089500000000000089500000000000000000000000000000000000000000000000000000000000000000000000000000000000000000000PES00010000001N00000000000000020180510
201804300060000600000000000000813404000000000000008134049900000000000000000000Consumidor Final              000000000098400000000000098400000000000000000000000000000000000000000000000000000000000000000000000000000000000000000000PES00010000001N00000000000000020180510
201804300060000900000000000000049926000000000000000499269900000000000000000000Consumidor Final              000000000089500000000000089500000000000000000000000000000000000000000000000000000000000000000000000000000000000000000000PES00010000001N00000000000000020180510
201804300060000700000000000000594047000000000000005940479900000000000000000000Consumidor Final              000000000089500000000000089500000000000000000000000000000000000000000000000000000000000000000000000000000000000000000000PES00010000001N00000000000000020180510
201804300060000600000000000000813415000000000000008134159900000000000000000000Consumidor Final              000000000078000000000000078000000000000000000000000000000000000000000000000000000000000000000000000000000000000000000000PES00010000001N00000000000000020180510
201804300060000900000000000000049929000000000000000499299900000000000000000000Consumidor Final              000000000049000000000000049000000000000000000000000000000000000000000000000000000000000000000000000000000000000000000000PES00010000001N00000000000000020180510
201804300060000700000000000000594062000000000000005940629900000000000000000000Consumidor Final              000000000089500000000000089500000000000000000000000000000000000000000000000000000000000000000000000000000000000000000000PES00010000001N00000000000000020180510
201804300060000700000000000000594063000000000000005940639900000000000000000000Consumidor Final              000000000085000000000000085000000000000000000000000000000000000000000000000000000000000000000000000000000000000000000000PES00010000001N00000000000000020180510
201804300060000900000000000000049930000000000000000499309900000000000000000000Consumidor Final              000000000089500000000000089500000000000000000000000000000000000000000000000000000000000000000000000000000000000000000000PES00010000001N00000000000000020180510
201804300060000700000000000000594069000000000000005940699900000000000000000000Consumidor Final              000000000089500000000000089500000000000000000000000000000000000000000000000000000000000000000000000000000000000000000000PES00010000001N00000000000000020180510
201804300060000700000000000000594070000000000000005940709900000000000000000000Consumidor Final              000000000089500000000000089500000000000000000000000000000000000000000000000000000000000000000000000000000000000000000000PES00010000001N00000000000000020180510
201804300060000700000000000000594071000000000000005940719900000000000000000000Consumidor Final              000000000089500000000000089500000000000000000000000000000000000000000000000000000000000000000000000000000000000000000000PES00010000001N00000000000000020180510
201804300060000700000000000000594072000000000000005940729900000000000000000000Consumidor Final              000000000089500000000000089500000000000000000000000000000000000000000000000000000000000000000000000000000000000000000000PES00010000001N00000000000000020180510
201804300060000700000000000000594077000000000000005940779900000000000000000000Consumidor Final              000000000089500000000000089500000000000000000000000000000000000000000000000000000000000000000000000000000000000000000000PES00010000001N00000000000000020180510
201804300060000900000000000000049927000000000000000499279900000000000000000000Consumidor Final              000000000042000000000000042000000000000000000000000000000000000000000000000000000000000000000000000000000000000000000000PES00010000001N00000000000000020180510
201804300060000600000000000000813431000000000000008134319900000000000000000000Consumidor Final              000000000092000000000000092000000000000000000000000000000000000000000000000000000000000000000000000000000000000000000000PES00010000001N00000000000000020180510
201804300060000600000000000000813432000000000000008134329900000000000000000000Consumidor Final              000000000085000000000000085000000000000000000000000000000000000000000000000000000000000000000000000000000000000000000000PES00010000001N00000000000000020180510
201804300510000100000000000000001467000000000000000014678000000000033653239829FRIMSA SA                     000000000113300000000000113300000000000000000000000000000000000000000000000000000000000000000000000000000000000000000000PES00010000001N00000000000000000000000
201804300060000600000000000000813433000000000000008134339900000000000000000000Consumidor Final              000000000095000000000000095000000000000000000000000000000000000000000000000000000000000000000000000000000000000000000000PES00010000001N00000000000000020180510
201804300060000600000000000000813434000000000000008134349900000000000000000000Consumidor Final              000000000089500000000000089500000000000000000000000000000000000000000000000000000000000000000000000000000000000000000000PES00010000001N00000000000000020180510
201804300060000600000000000000813435000000000000008134359900000000000000000000Consumidor Final              000000000089500000000000089500000000000000000000000000000000000000000000000000000000000000000000000000000000000000000000PES00010000001N00000000000000020180510
201804300060000600000000000000813445000000000000008134459900000000000000000000Consumidor Final              000000000085000000000000085000000000000000000000000000000000000000000000000000000000000000000000000000000000000000000000PES00010000001N00000000000000020180510
201804300060000600000000000000813447000000000000008134479900000000000000000000Consumidor Final              000000000089500000000000089500000000000000000000000000000000000000000000000000000000000000000000000000000000000000000000PES00010000001N00000000000000020180510
201804300060000900000000000000049940000000000000000499409900000000000000000000Consumidor Final              000000000042000000000000042000000000000000000000000000000000000000000000000000000000000000000000000000000000000000000000PES00010000001N00000000000000020180510
201804300060000900000000000000049941000000000000000499419900000000000000000000Consumidor Final              000000000098400000000000098400000000000000000000000000000000000000000000000000000000000000000000000000000000000000000000PES00010000001N00000000000000020180510
201804300060000700000000000000594048000000000000005940489900000000000000000000Consumidor Final              000000000098400000000000098400000000000000000000000000000000000000000000000000000000000000000000000000000000000000000000PES00010000001N00000000000000020180510
201804300060000600000000000000813405000000000000008134059900000000000000000000Consumidor Final              000000000089500000000000089500000000000000000000000000000000000000000000000000000000000000000000000000000000000000000000PES00010000001N00000000000000020180510
201804300060000700000000000000594049000000000000005940499000000000099999999999Consumidor Final              000000000104500000000000104500000000000000000000000000000000000000000000000000000000000000000000000000000000000000000000PES00010000001N00000000000000020180510
201804300060000600000000000000813406000000000000008134069900000000000000000000Consumidor Final              000000000089500000000000089500000000000000000000000000000000000000000000000000000000000000000000000000000000000000000000PES00010000001N00000000000000020180510
201804300060000700000000000000594050000000000000005940509900000000000000000000Consumidor Final              000000000089500000000000089500000000000000000000000000000000000000000000000000000000000000000000000000000000000000000000PES00010000001N00000000000000020180510
201804300060000600000000000000813407000000000000008134079900000000000000000000Consumidor Final              000000000089500000000000089500000000000000000000000000000000000000000000000000000000000000000000000000000000000000000000PES00010000001N00000000000000020180510
201804300060000600000000000000813408000000000000008134089000000000099999999999Consumidor Final              000000000114900000000000114900000000000000000000000000000000000000000000000000000000000000000000000000000000000000000000PES00010000001N00000000000000020180510
201804300060000700000000000000594051000000000000005940519900000000000000000000Consumidor Final              000000000093000000000000093000000000000000000000000000000000000000000000000000000000000000000000000000000000000000000000PES00010000001N00000000000000020180510
201804300060000600000000000000813409000000000000008134099900000000000000000000Consumidor Final              000000000089500000000000089500000000000000000000000000000000000000000000000000000000000000000000000000000000000000000000PES00010000001N00000000000000020180510
201804300060000600000000000000813410000000000000008134109900000000000000000000Consumidor Final              000000000055000000000000055000000000000000000000000000000000000000000000000000000000000000000000000000000000000000000000PES00010000001N00000000000000020180510
201804300060000700000000000000594052000000000000005940529900000000000000000000Consumidor Final              000000000089500000000000089500000000000000000000000000000000000000000000000000000000000000000000000000000000000000000000PES00010000001N00000000000000020180510
201804300060000700000000000000594053000000000000005940539900000000000000000000Consumidor Final              000000000089500000000000089500000000000000000000000000000000000000000000000000000000000000000000000000000000000000000000PES00010000001N00000000000000020180510
201804300060000600000000000000813411000000000000008134119900000000000000000000Consumidor Final              000000000046200000000000046200000000000000000000000000000000000000000000000000000000000000000000000000000000000000000000PES00010000001N00000000000000020180510
201804300060000700000000000000594054000000000000005940549000000000099999999999Consumidor Final              000000000104500000000000104500000000000000000000000000000000000000000000000000000000000000000000000000000000000000000000PES00010000001N00000000000000020180510
201804300060000800000000000000202440000000000000002024409900000000000000000000Consumidor Final              000000000078000000000000078000000000000000000000000000000000000000000000000000000000000000000000000000000000000000000000PES00010000001N00000000000000020180510
201804300060000800000000000000202441000000000000002024419900000000000000000000Consumidor Final              000000000078000000000000078000000000000000000000000000000000000000000000000000000000000000000000000000000000000000000000PES00010000001N00000000000000020180510
201804300060000800000000000000202442000000000000002024429900000000000000000000Consumidor Final              000000000078000000000000078000000000000000000000000000000000000000000000000000000000000000000000000000000000000000000000PES00010000001N00000000000000020180510
201804300060000800000000000000202443000000000000002024439900000000000000000000Consumidor Final              000000000078000000000000078000000000000000000000000000000000000000000000000000000000000000000000000000000000000000000000PES00010000001N00000000000000020180510
201804300060000800000000000000202444000000000000002024449900000000000000000000Consumidor Final              000000000078000000000000078000000000000000000000000000000000000000000000000000000000000000000000000000000000000000000000PES00010000001N00000000000000020180510
201804300060000800000000000000202445000000000000002024459900000000000000000000Consumidor Final              000000000078000000000000078000000000000000000000000000000000000000000000000000000000000000000000000000000000000000000000PES00010000001N00000000000000020180510
201804300060000600000000000000813414000000000000008134149900000000000000000000Consumidor Final              000000000044000000000000044000000000000000000000000000000000000000000000000000000000000000000000000000000000000000000000PES00010000001N00000000000000020180510
201804300060000700000000000000594055000000000000005940559900000000000000000000Consumidor Final              000000000085000000000000085000000000000000000000000000000000000000000000000000000000000000000000000000000000000000000000PES00010000001N00000000000000020180510
201804300060000600000000000000813437000000000000008134379900000000000000000000Consumidor Final              000000000042000000000000042000000000000000000000000000000000000000000000000000000000000000000000000000000000000000000000PES00010000001N00000000000000020180510
201804300060000700000000000000594078000000000000005940789900000000000000000000Consumidor Final              000000000098400000000000098400000000000000000000000000000000000000000000000000000000000000000000000000000000000000000000PES00010000001N00000000000000020180510
201804300060000700000000000000594079000000000000005940799900000000000000000000Consumidor Final              000000000098400000000000098400000000000000000000000000000000000000000000000000000000000000000000000000000000000000000000PES00010000001N00000000000000020180510
201804300060000600000000000000813448000000000000008134489900000000000000000000Consumidor Final              000000000098400000000000098400000000000000000000000000000000000000000000000000000000000000000000000000000000000000000000PES00010000001N00000000000000020180510
201804300060000600000000000000813449000000000000008134499900000000000000000000Consumidor Final              000000000089500000000000089500000000000000000000000000000000000000000000000000000000000000000000000000000000000000000000PES00010000001N00000000000000020180510
201804300060000600000000000000813421000000000000008134219900000000000000000000Consumidor Final              000000000095000000000000095000000000000000000000000000000000000000000000000000000000000000000000000000000000000000000000PES00010000001N00000000000000020180510
201804300060000600000000000000813439000000000000008134399900000000000000000000Consumidor Final              000000000098400000000000098400000000000000000000000000000000000000000000000000000000000000000000000000000000000000000000PES00010000001N00000000000000020180510
201804300060000600000000000000813440000000000000008134409900000000000000000000Consumidor Final              000000000089500000000000089500000000000000000000000000000000000000000000000000000000000000000000000000000000000000000000PES00010000001N00000000000000020180510
201804300060000600000000000000813441000000000000008134419900000000000000000000Consumidor Final              000000000089500000000000089500000000000000000000000000000000000000000000000000000000000000000000000000000000000000000000PES00010000001N00000000000000020180510
201804300060000600000000000000813442000000000000008134429900000000000000000000Consumidor Final              000000000085000000000000085000000000000000000000000000000000000000000000000000000000000000000000000000000000000000000000PES00010000001N00000000000000020180510
201804300060000600000000000000813422000000000000008134229000000000099999999999Consumidor Final              000000000102000000000000102000000000000000000000000000000000000000000000000000000000000000000000000000000000000000000000PES00010000001N00000000000000020180510
201804300060000600000000000000813423000000000000008134239900000000000000000000Consumidor Final              000000000089500000000000089500000000000000000000000000000000000000000000000000000000000000000000000000000000000000000000PES00010000001N00000000000000020180510
201804300060000700000000000000594064000000000000005940649900000000000000000000Consumidor Final              000000000089500000000000089500000000000000000000000000000000000000000000000000000000000000000000000000000000000000000000PES00010000001N00000000000000020180510
201804300060000600000000000000813424000000000000008134249900000000000000000000Consumidor Final              000000000085000000000000085000000000000000000000000000000000000000000000000000000000000000000000000000000000000000000000PES00010000001N00000000000000020180510
201804300060000600000000000000813425000000000000008134259900000000000000000000Consumidor Final              000000000085000000000000085000000000000000000000000000000000000000000000000000000000000000000000000000000000000000000000PES00010000001N00000000000000020180510
201804300060000700000000000000594065000000000000005940659900000000000000000000Consumidor Final              000000000050000000000000050000000000000000000000000000000000000000000000000000000000000000000000000000000000000000000000PES00010000001N00000000000000020180510
201804300060000700000000000000594066000000000000005940669900000000000000000000Consumidor Final              000000000098400000000000098400000000000000000000000000000000000000000000000000000000000000000000000000000000000000000000PES00010000001N00000000000000020180510
201804300060000600000000000000813426000000000000008134269000000000099999999999Consumidor Final              000000000114000000000000114000000000000000000000000000000000000000000000000000000000000000000000000000000000000000000000PES00010000001N00000000000000020180510
201804300060000700000000000000594067000000000000005940679900000000000000000000Consumidor Final              000000000085000000000000085000000000000000000000000000000000000000000000000000000000000000000000000000000000000000000000PES00010000001N00000000000000020180510
201804300060000700000000000000594068000000000000005940689900000000000000000000Consumidor Final              000000000089500000000000089500000000000000000000000000000000000000000000000000000000000000000000000000000000000000000000PES00010000001N00000000000000020180510
201804300060000600000000000000813427000000000000008134279900000000000000000000Consumidor Final              000000000089500000000000089500000000000000000000000000000000000000000000000000000000000000000000000000000000000000000000PES00010000001N00000000000000020180510
201804300060000600000000000000813428000000000000008134289900000000000000000000Consumidor Final              000000000089500000000000089500000000000000000000000000000000000000000000000000000000000000000000000000000000000000000000PES00010000001N00000000000000020180510
201804300060000900000000000000049942000000000000000499429900000000000000000000Consumidor Final              000000000030000000000000030000000000000000000000000000000000000000000000000000000000000000000000000000000000000000000000PES00010000001N00000000000000020180510
201804300060000600000000000000813429000000000000008134299000000000099999999999Consumidor Final              000000000104500000000000104500000000000000000000000000000000000000000000000000000000000000000000000000000000000000000000PES00010000001N00000000000000020180510
201804300060000600000000000000813430000000000000008134309900000000000000000000Consumidor Final              000000000089500000000000089500000000000000000000000000000000000000000000000000000000000000000000000000000000000000000000PES00010000001N00000000000000020180510
201804300060000700000000000000594073000000000000005940739900000000000000000000Consumidor Final              000000000089500000000000089500000000000000000000000000000000000000000000000000000000000000000000000000000000000000000000PES00010000001N00000000000000020180510
201804300060000900000000000000049931000000000000000499319900000000000000000000Consumidor Final              000000000042000000000000042000000000000000000000000000000000000000000000000000000000000000000000000000000000000000000000PES00010000001N00000000000000020180510
201804300060000700000000000000594074000000000000005940749900000000000000000000Consumidor Final              000000000085000000000000085000000000000000000000000000000000000000000000000000000000000000000000000000000000000000000000PES00010000001N00000000000000020180510
201804300060000900000000000000049932000000000000000499329900000000000000000000Consumidor Final              000000000042000000000000042000000000000000000000000000000000000000000000000000000000000000000000000000000000000000000000PES00010000001N00000000000000020180510
201804300060000900000000000000049933000000000000000499339900000000000000000000Consumidor Final              000000000093500000000000093500000000000000000000000000000000000000000000000000000000000000000000000000000000000000000000PES00010000001N00000000000000020180510
201804300060000700000000000000594075000000000000005940759000000000099999999999Consumidor Final              000000000110000000000000110000000000000000000000000000000000000000000000000000000000000000000000000000000000000000000000PES00010000001N00000000000000020180510
