201803310060000600000000000000807483000000000000008074839900000000000000000000Consumidor Final              000000000078000000000000078000000000000000000000000000000000000000000000000000000000000000000000000000000000000000000000PES00010000001N00000000000000020180410
201803310060000600000000000000807484000000000000008074849900000000000000000000Consumidor Final              000000000084000000000000084000000000000000000000000000000000000000000000000000000000000000000000000000000000000000000000PES00010000001N00000000000000020180410
201803310060000600000000000000807485000000000000008074859900000000000000000000Consumidor Final              000000000078000000000000078000000000000000000000000000000000000000000000000000000000000000000000000000000000000000000000PES00010000001N00000000000000020180410
201803310060000600000000000000807486000000000000008074869900000000000000000000Consumidor Final              000000000085000000000000085000000000000000000000000000000000000000000000000000000000000000000000000000000000000000000000PES00010000001N00000000000000020180410
201803310060000800000000000000200637000000000000002006379900000000000000000000Consumidor Final              000000000068000000000000068000000000000000000000000000000000000000000000000000000000000000000000000000000000000000000000PES00010000001N00000000000000020180410
201803310060000600000000000000807495000000000000008074959900000000000000000000Consumidor Final              000000000078000000000000078000000000000000000000000000000000000000000000000000000000000000000000000000000000000000000000PES00010000001N00000000000000020180410
201803310060000600000000000000807496000000000000008074969900000000000000000000Consumidor Final              000000000093000000000000093000000000000000000000000000000000000000000000000000000000000000000000000000000000000000000000PES00010000001N00000000000000020180410
201803310060000800000000000000200638000000000000002006389900000000000000000000Consumidor Final              000000000068000000000000068000000000000000000000000000000000000000000000000000000000000000000000000000000000000000000000PES00010000001N00000000000000020180410
201803310060000800000000000000200639000000000000002006399900000000000000000000Consumidor Final              000000000068000000000000068000000000000000000000000000000000000000000000000000000000000000000000000000000000000000000000PES00010000001N00000000000000020180410
201803310060000800000000000000200640000000000000002006409900000000000000000000Consumidor Final              000000000068000000000000068000000000000000000000000000000000000000000000000000000000000000000000000000000000000000000000PES00010000001N00000000000000020180410
201803310060000600000000000000807503000000000000008075039900000000000000000000Consumidor Final              000000000078000000000000078000000000000000000000000000000000000000000000000000000000000000000000000000000000000000000000PES00010000001N00000000000000020180410
201803310060000700000000000000588741000000000000005887419900000000000000000000Consumidor Final              000000000092000000000000092000000000000000000000000000000000000000000000000000000000000000000000000000000000000000000000PES00010000001N00000000000000020180410
201803310060000700000000000000588742000000000000005887429900000000000000000000Consumidor Final              000000000092000000000000092000000000000000000000000000000000000000000000000000000000000000000000000000000000000000000000PES00010000001N00000000000000020180410
201803310060000700000000000000588743000000000000005887439900000000000000000000Consumidor Final              000000000075000000000000075000000000000000000000000000000000000000000000000000000000000000000000000000000000000000000000PES00010000001N00000000000000020180410
201803310060000700000000000000588744000000000000005887449900000000000000000000Consumidor Final              000000000078000000000000078000000000000000000000000000000000000000000000000000000000000000000000000000000000000000000000PES00010000001N00000000000000020180410
201803310060000800000000000000200614000000000000002006149900000000000000000000Consumidor Final              000000000068000000000000068000000000000000000000000000000000000000000000000000000000000000000000000000000000000000000000PES00010000001N00000000000000020180410
201803310060000800000000000000200615000000000000002006159900000000000000000000Consumidor Final              000000000068000000000000068000000000000000000000000000000000000000000000000000000000000000000000000000000000000000000000PES00010000001N00000000000000020180410
201803310060000800000000000000200616000000000000002006169900000000000000000000Consumidor Final              000000000068000000000000068000000000000000000000000000000000000000000000000000000000000000000000000000000000000000000000PES00010000001N00000000000000020180410
201803310060000800000000000000200617000000000000002006179900000000000000000000Consumidor Final              000000000068000000000000068000000000000000000000000000000000000000000000000000000000000000000000000000000000000000000000PES00010000001N00000000000000020180410
201803310060000800000000000000200618000000000000002006189900000000000000000000Consumidor Final              000000000068000000000000068000000000000000000000000000000000000000000000000000000000000000000000000000000000000000000000PES00010000001N00000000000000020180410
201803310060000700000000000000588748000000000000005887489900000000000000000000Consumidor Final              000000000092000000000000092000000000000000000000000000000000000000000000000000000000000000000000000000000000000000000000PES00010000001N00000000000000020180410
201803310060000700000000000000588749000000000000005887499000000000099999999999Consumidor Final              000000000100000000000000100000000000000000000000000000000000000000000000000000000000000000000000000000000000000000000000PES00010000001N00000000000000020180410
201803310060000700000000000000588750000000000000005887509900000000000000000000Consumidor Final              000000000082000000000000082000000000000000000000000000000000000000000000000000000000000000000000000000000000000000000000PES00010000001N00000000000000020180410
201803310060000700000000000000588754000000000000005887549000000000099999999999Consumidor Final              000000000102000000000000102000000000000000000000000000000000000000000000000000000000000000000000000000000000000000000000PES00010000001N00000000000000020180410
201803310060000700000000000000588755000000000000005887559000000000000027950944Consumidor Final              000000000092000000000000092000000000000000000000000000000000000000000000000000000000000000000000000000000000000000000000PES00010000001N00000000000000020180410
201803310060000800000000000000200619000000000000002006199900000000000000000000Consumidor Final              000000000068000000000000068000000000000000000000000000000000000000000000000000000000000000000000000000000000000000000000PES00010000001N00000000000000020180410
201803310060000800000000000000200620000000000000002006209900000000000000000000Consumidor Final              000000000092000000000000092000000000000000000000000000000000000000000000000000000000000000000000000000000000000000000000PES00010000001N00000000000000020180410
201803310060000800000000000000200621000000000000002006219900000000000000000000Consumidor Final              000000000068000000000000068000000000000000000000000000000000000000000000000000000000000000000000000000000000000000000000PES00010000001N00000000000000020180410
201803310060000800000000000000200622000000000000002006229900000000000000000000Consumidor Final              000000000068000000000000068000000000000000000000000000000000000000000000000000000000000000000000000000000000000000000000PES00010000001N00000000000000020180410
201803310060000800000000000000200623000000000000002006239900000000000000000000Consumidor Final              000000000068000000000000068000000000000000000000000000000000000000000000000000000000000000000000000000000000000000000000PES00010000001N00000000000000020180410
201803310060000800000000000000200624000000000000002006249900000000000000000000Consumidor Final              000000000068000000000000068000000000000000000000000000000000000000000000000000000000000000000000000000000000000000000000PES00010000001N00000000000000020180410
201803310060000800000000000000200626000000000000002006269900000000000000000000Consumidor Final              000000000068000000000000068000000000000000000000000000000000000000000000000000000000000000000000000000000000000000000000PES00010000001N00000000000000020180410
201803310060000700000000000000588768000000000000005887689900000000000000000000Consumidor Final              000000000078000000000000078000000000000000000000000000000000000000000000000000000000000000000000000000000000000000000000PES00010000001N00000000000000020180410
201803310060000700000000000000588769000000000000005887699900000000000000000000Consumidor Final              000000000078000000000000078000000000000000000000000000000000000000000000000000000000000000000000000000000000000000000000PES00010000001N00000000000000020180410
201803310060000700000000000000588770000000000000005887709900000000000000000000Consumidor Final              000000000078000000000000078000000000000000000000000000000000000000000000000000000000000000000000000000000000000000000000PES00010000001N00000000000000020180410
201803310060000700000000000000588771000000000000005887719900000000000000000000Consumidor Final              000000000078000000000000078000000000000000000000000000000000000000000000000000000000000000000000000000000000000000000000PES00010000001N00000000000000020180410
201803310060000700000000000000588772000000000000005887729900000000000000000000Consumidor Final              000000000085000000000000085000000000000000000000000000000000000000000000000000000000000000000000000000000000000000000000PES00010000001N00000000000000020180410
201803310060000700000000000000588773000000000000005887739900000000000000000000Consumidor Final              000000000078000000000000078000000000000000000000000000000000000000000000000000000000000000000000000000000000000000000000PES00010000001N00000000000000020180410
201803310060000700000000000000588774000000000000005887749900000000000000000000Consumidor Final              000000000092000000000000092000000000000000000000000000000000000000000000000000000000000000000000000000000000000000000000PES00010000001N00000000000000020180410
201803310060000700000000000000588775000000000000005887759900000000000000000000Consumidor Final              000000000078000000000000078000000000000000000000000000000000000000000000000000000000000000000000000000000000000000000000PES00010000001N00000000000000020180410
201803310060000700000000000000588776000000000000005887769900000000000000000000Consumidor Final              000000000078000000000000078000000000000000000000000000000000000000000000000000000000000000000000000000000000000000000000PES00010000001N00000000000000020180410
201803310060000700000000000000588777000000000000005887779900000000000000000000Consumidor Final              000000000069000000000000069000000000000000000000000000000000000000000000000000000000000000000000000000000000000000000000PES00010000001N00000000000000020180410
201803310060000700000000000000588756000000000000005887569900000000000000000000Consumidor Final              000000000079000000000000079000000000000000000000000000000000000000000000000000000000000000000000000000000000000000000000PES00010000001N00000000000000020180410
201803310060000600000000000000807487000000000000008074879900000000000000000000Consumidor Final              000000000095000000000000095000000000000000000000000000000000000000000000000000000000000000000000000000000000000000000000PES00010000001N00000000000000020180410
201803310060000600000000000000807488000000000000008074889900000000000000000000Consumidor Final              000000000045000000000000045000000000000000000000000000000000000000000000000000000000000000000000000000000000000000000000PES00010000001N00000000000000020180410
201803310060000700000000000000588778000000000000005887789900000000000000000000Consumidor Final              000000000038000000000000038000000000000000000000000000000000000000000000000000000000000000000000000000000000000000000000PES00010000001N00000000000000020180410
201803310060000700000000000000588779000000000000005887799900000000000000000000Consumidor Final              000000000092000000000000092000000000000000000000000000000000000000000000000000000000000000000000000000000000000000000000PES00010000001N00000000000000020180410
201803310060000700000000000000588780000000000000005887809900000000000000000000Consumidor Final              000000000092000000000000092000000000000000000000000000000000000000000000000000000000000000000000000000000000000000000000PES00010000001N00000000000000020180410
201803310060000700000000000000588781000000000000005887819900000000000000000000Consumidor Final              000000000092000000000000092000000000000000000000000000000000000000000000000000000000000000000000000000000000000000000000PES00010000001N00000000000000020180410
201803310060000700000000000000588782000000000000005887829900000000000000000000Consumidor Final              000000000092000000000000092000000000000000000000000000000000000000000000000000000000000000000000000000000000000000000000PES00010000001N00000000000000020180410
201803310060000600000000000000807489000000000000008074899900000000000000000000Consumidor Final              000000000092000000000000092000000000000000000000000000000000000000000000000000000000000000000000000000000000000000000000PES00010000001N00000000000000020180410
201803310060000700000000000000588783000000000000005887839900000000000000000000Consumidor Final              000000000078000000000000078000000000000000000000000000000000000000000000000000000000000000000000000000000000000000000000PES00010000001N00000000000000020180410
201803310060000700000000000000588757000000000000005887579900000000000000000000Consumidor Final              000000000078000000000000078000000000000000000000000000000000000000000000000000000000000000000000000000000000000000000000PES00010000001N00000000000000020180410
201803310060000700000000000000588758000000000000005887589900000000000000000000Consumidor Final              000000000086900000000000086900000000000000000000000000000000000000000000000000000000000000000000000000000000000000000000PES00010000001N00000000000000020180410
201803310060000700000000000000588759000000000000005887599900000000000000000000Consumidor Final              000000000092000000000000092000000000000000000000000000000000000000000000000000000000000000000000000000000000000000000000PES00010000001N00000000000000020180410
201803310060000700000000000000588760000000000000005887609900000000000000000000Consumidor Final              000000000078000000000000078000000000000000000000000000000000000000000000000000000000000000000000000000000000000000000000PES00010000001N00000000000000020180410
201803310060000700000000000000588761000000000000005887619900000000000000000000Consumidor Final              000000000079000000000000079000000000000000000000000000000000000000000000000000000000000000000000000000000000000000000000PES00010000001N00000000000000020180410
201803310060000700000000000000588762000000000000005887629900000000000000000000Consumidor Final              000000000078000000000000078000000000000000000000000000000000000000000000000000000000000000000000000000000000000000000000PES00010000001N00000000000000020180410
201803310060000700000000000000588763000000000000005887639900000000000000000000Consumidor Final              000000000089000000000000089000000000000000000000000000000000000000000000000000000000000000000000000000000000000000000000PES00010000001N00000000000000020180410
201803310060000700000000000000588764000000000000005887649900000000000000000000Consumidor Final              000000000078000000000000078000000000000000000000000000000000000000000000000000000000000000000000000000000000000000000000PES00010000001N00000000000000020180410
201803310060000700000000000000588765000000000000005887659900000000000000000000Consumidor Final              000000000085800000000000085800000000000000000000000000000000000000000000000000000000000000000000000000000000000000000000PES00010000001N00000000000000020180410
201803310060000700000000000000588766000000000000005887669900000000000000000000Consumidor Final              000000000092000000000000092000000000000000000000000000000000000000000000000000000000000000000000000000000000000000000000PES00010000001N00000000000000020180410
201803310060000700000000000000588767000000000000005887679900000000000000000000Consumidor Final              000000000078000000000000078000000000000000000000000000000000000000000000000000000000000000000000000000000000000000000000PES00010000001N00000000000000020180410
201803310060000800000000000000200627000000000000002006279900000000000000000000Consumidor Final              000000000068000000000000068000000000000000000000000000000000000000000000000000000000000000000000000000000000000000000000PES00010000001N00000000000000020180410
201803310060000800000000000000200628000000000000002006289900000000000000000000Consumidor Final              000000000068000000000000068000000000000000000000000000000000000000000000000000000000000000000000000000000000000000000000PES00010000001N00000000000000020180410
201803310060000800000000000000200629000000000000002006299900000000000000000000Consumidor Final              000000000078000000000000078000000000000000000000000000000000000000000000000000000000000000000000000000000000000000000000PES00010000001N00000000000000020180410
201803310060000800000000000000200630000000000000002006309900000000000000000000Consumidor Final              000000000078000000000000078000000000000000000000000000000000000000000000000000000000000000000000000000000000000000000000PES00010000001N00000000000000020180410
201803310060000800000000000000200631000000000000002006319900000000000000000000Consumidor Final              000000000068000000000000068000000000000000000000000000000000000000000000000000000000000000000000000000000000000000000000PES00010000001N00000000000000020180410
201803310060000800000000000000200632000000000000002006329900000000000000000000Consumidor Final              000000000068000000000000068000000000000000000000000000000000000000000000000000000000000000000000000000000000000000000000PES00010000001N00000000000000020180410
201803310060000800000000000000200633000000000000002006339900000000000000000000Consumidor Final              000000000068000000000000068000000000000000000000000000000000000000000000000000000000000000000000000000000000000000000000PES00010000001N00000000000000020180410
201803310060000800000000000000200634000000000000002006349900000000000000000000Consumidor Final              000000000078000000000000078000000000000000000000000000000000000000000000000000000000000000000000000000000000000000000000PES00010000001N00000000000000020180410
201803310060000800000000000000200635000000000000002006359900000000000000000000Consumidor Final              000000000078000000000000078000000000000000000000000000000000000000000000000000000000000000000000000000000000000000000000PES00010000001N00000000000000020180410
201803310060000800000000000000200636000000000000002006369900000000000000000000Consumidor Final              000000000068000000000000068000000000000000000000000000000000000000000000000000000000000000000000000000000000000000000000PES00010000001N00000000000000020180410
201803310060000600000000000000807490000000000000008074909900000000000000000000Consumidor Final              000000000078000000000000078000000000000000000000000000000000000000000000000000000000000000000000000000000000000000000000PES00010000001N00000000000000020180410
201803310060000600000000000000807482000000000000008074829900000000000000000000Consumidor Final              000000000094000000000000094000000000000000000000000000000000000000000000000000000000000000000000000000000000000000000000PES00010000001N00000000000000020180410
201803310060000700000000000000588784000000000000005887849900000000000000000000Consumidor Final              000000000078000000000000078000000000000000000000000000000000000000000000000000000000000000000000000000000000000000000000PES00010000001N00000000000000020180410
201803310060000600000000000000807491000000000000008074919900000000000000000000Consumidor Final              000000000078000000000000078000000000000000000000000000000000000000000000000000000000000000000000000000000000000000000000PES00010000001N00000000000000020180410
201803310060000700000000000000588785000000000000005887859900000000000000000000Consumidor Final              000000000081000000000000081000000000000000000000000000000000000000000000000000000000000000000000000000000000000000000000PES00010000001N00000000000000020180410
201803310060000600000000000000807492000000000000008074929900000000000000000000Consumidor Final              000000000078000000000000078000000000000000000000000000000000000000000000000000000000000000000000000000000000000000000000PES00010000001N00000000000000020180410
201803310060000700000000000000588786000000000000005887869900000000000000000000Consumidor Final              000000000078000000000000078000000000000000000000000000000000000000000000000000000000000000000000000000000000000000000000PES00010000001N00000000000000020180410
201803310060000700000000000000588787000000000000005887879900000000000000000000Consumidor Final              000000000081000000000000081000000000000000000000000000000000000000000000000000000000000000000000000000000000000000000000PES00010000001N00000000000000020180410
201803310060000700000000000000588788000000000000005887889900000000000000000000Consumidor Final              000000000089100000000000089100000000000000000000000000000000000000000000000000000000000000000000000000000000000000000000PES00010000001N00000000000000020180410
201803310060000600000000000000807493000000000000008074939900000000000000000000Consumidor Final              000000000038000000000000038000000000000000000000000000000000000000000000000000000000000000000000000000000000000000000000PES00010000001N00000000000000020180410
201803310060000600000000000000807494000000000000008074949900000000000000000000Consumidor Final              000000000078000000000000078000000000000000000000000000000000000000000000000000000000000000000000000000000000000000000000PES00010000001N00000000000000020180410
201803310060000700000000000000588789000000000000005887899900000000000000000000Consumidor Final              000000000078000000000000078000000000000000000000000000000000000000000000000000000000000000000000000000000000000000000000PES00010000001N00000000000000020180410
201803310060000700000000000000588791000000000000005887919900000000000000000000Consumidor Final              000000000078000000000000078000000000000000000000000000000000000000000000000000000000000000000000000000000000000000000000PES00010000001N00000000000000020180410
201803310060000700000000000000588792000000000000005887929900000000000000000000Consumidor Final              000000000078000000000000078000000000000000000000000000000000000000000000000000000000000000000000000000000000000000000000PES00010000001N00000000000000020180410
201803310060000700000000000000588793000000000000005887939900000000000000000000Consumidor Final              000000000092000000000000092000000000000000000000000000000000000000000000000000000000000000000000000000000000000000000000PES00010000001N00000000000000020180410
201803310060000600000000000000807504000000000000008075049900000000000000000000Consumidor Final              000000000078000000000000078000000000000000000000000000000000000000000000000000000000000000000000000000000000000000000000PES00010000001N00000000000000020180410
201803310060000600000000000000807505000000000000008075059900000000000000000000Consumidor Final              000000000047000000000000047000000000000000000000000000000000000000000000000000000000000000000000000000000000000000000000PES00010000001N00000000000000020180410
201803310060000600000000000000807506000000000000008075069900000000000000000000Consumidor Final              000000000078000000000000078000000000000000000000000000000000000000000000000000000000000000000000000000000000000000000000PES00010000001N00000000000000020180410
201803310060000700000000000000588798000000000000005887989900000000000000000000Consumidor Final              000000000078000000000000078000000000000000000000000000000000000000000000000000000000000000000000000000000000000000000000PES00010000001N00000000000000020180410
201803310060000600000000000000807507000000000000008075079900000000000000000000Consumidor Final              000000000095000000000000095000000000000000000000000000000000000000000000000000000000000000000000000000000000000000000000PES00010000001N00000000000000020180410
201803310060000600000000000000807508000000000000008075089900000000000000000000Consumidor Final              000000000078000000000000078000000000000000000000000000000000000000000000000000000000000000000000000000000000000000000000PES00010000001N00000000000000020180410
201803310060000700000000000000588790000000000000005887909900000000000000000000Consumidor Final              000000000078000000000000078000000000000000000000000000000000000000000000000000000000000000000000000000000000000000000000PES00010000001N00000000000000020180410
201803310060000600000000000000807497000000000000008074979900000000000000000000Consumidor Final              000000000078000000000000078000000000000000000000000000000000000000000000000000000000000000000000000000000000000000000000PES00010000001N00000000000000020180410
201803310060000600000000000000807498000000000000008074989900000000000000000000Consumidor Final              000000000078000000000000078000000000000000000000000000000000000000000000000000000000000000000000000000000000000000000000PES00010000001N00000000000000020180410
201803310060000600000000000000807499000000000000008074999900000000000000000000Consumidor Final              000000000092000000000000092000000000000000000000000000000000000000000000000000000000000000000000000000000000000000000000PES00010000001N00000000000000020180410
201803310060000600000000000000807500000000000000008075009900000000000000000000Consumidor Final              000000000078000000000000078000000000000000000000000000000000000000000000000000000000000000000000000000000000000000000000PES00010000001N00000000000000020180410
201803310060000600000000000000807501000000000000008075019900000000000000000000Consumidor Final              000000000078000000000000078000000000000000000000000000000000000000000000000000000000000000000000000000000000000000000000PES00010000001N00000000000000020180410
201803310060000700000000000000588794000000000000005887949900000000000000000000Consumidor Final              000000000078000000000000078000000000000000000000000000000000000000000000000000000000000000000000000000000000000000000000PES00010000001N00000000000000020180410
201803310060000600000000000000807502000000000000008075029900000000000000000000Consumidor Final              000000000094600000000000094600000000000000000000000000000000000000000000000000000000000000000000000000000000000000000000PES00010000001N00000000000000020180410
201803310060000700000000000000588795000000000000005887959900000000000000000000Consumidor Final              000000000078000000000000078000000000000000000000000000000000000000000000000000000000000000000000000000000000000000000000PES00010000001N00000000000000020180410
201803310060000700000000000000588796000000000000005887969900000000000000000000Consumidor Final              000000000078000000000000078000000000000000000000000000000000000000000000000000000000000000000000000000000000000000000000PES00010000001N00000000000000020180410
201803310060000700000000000000588797000000000000005887979900000000000000000000Consumidor Final              000000000078000000000000078000000000000000000000000000000000000000000000000000000000000000000000000000000000000000000000PES00010000001N00000000000000020180410
201803310060000600000000000000807515000000000000008075159900000000000000000000Consumidor Final              000000000085800000000000085800000000000000000000000000000000000000000000000000000000000000000000000000000000000000000000PES00010000001N00000000000000020180410
201803310060000600000000000000807516000000000000008075169900000000000000000000Consumidor Final              000000000078000000000000078000000000000000000000000000000000000000000000000000000000000000000000000000000000000000000000PES00010000001N00000000000000020180410
201803310060000600000000000000807517000000000000008075179900000000000000000000Consumidor Final              000000000078000000000000078000000000000000000000000000000000000000000000000000000000000000000000000000000000000000000000PES00010000001N00000000000000020180410
201803310060000600000000000000807518000000000000008075189900000000000000000000Consumidor Final              000000000078000000000000078000000000000000000000000000000000000000000000000000000000000000000000000000000000000000000000PES00010000001N00000000000000020180410
201803310060000600000000000000807519000000000000008075199900000000000000000000Consumidor Final              000000000078000000000000078000000000000000000000000000000000000000000000000000000000000000000000000000000000000000000000PES00010000001N00000000000000020180410
201803310060000600000000000000807520000000000000008075209900000000000000000000Consumidor Final              000000000081000000000000081000000000000000000000000000000000000000000000000000000000000000000000000000000000000000000000PES00010000001N00000000000000020180410
201803310060000600000000000000807525000000000000008075259900000000000000000000Consumidor Final              000000000078000000000000078000000000000000000000000000000000000000000000000000000000000000000000000000000000000000000000PES00010000001N00000000000000020180410
201803310060000700000000000000588806000000000000005888069900000000000000000000Consumidor Final              000000000078000000000000078000000000000000000000000000000000000000000000000000000000000000000000000000000000000000000000PES00010000001N00000000000000020180410
201803310060000700000000000000588807000000000000005888079900000000000000000000Consumidor Final              000000000078000000000000078000000000000000000000000000000000000000000000000000000000000000000000000000000000000000000000PES00010000001N00000000000000020180410
201803310060000600000000000000807531000000000000008075319900000000000000000000Consumidor Final              000000000078000000000000078000000000000000000000000000000000000000000000000000000000000000000000000000000000000000000000PES00010000001N00000000000000020180410
201803310060000700000000000000588799000000000000005887999900000000000000000000Consumidor Final              000000000081000000000000081000000000000000000000000000000000000000000000000000000000000000000000000000000000000000000000PES00010000001N00000000000000020180410
201803310060000800000000000000200641000000000000002006419900000000000000000000Consumidor Final              000000000068000000000000068000000000000000000000000000000000000000000000000000000000000000000000000000000000000000000000PES00010000001N00000000000000020180410
201803310060000800000000000000200642000000000000002006429900000000000000000000Consumidor Final              000000000068000000000000068000000000000000000000000000000000000000000000000000000000000000000000000000000000000000000000PES00010000001N00000000000000020180410
201803310060000800000000000000200643000000000000002006439900000000000000000000Consumidor Final              000000000068000000000000068000000000000000000000000000000000000000000000000000000000000000000000000000000000000000000000PES00010000001N00000000000000020180410
201803310060000600000000000000807521000000000000008075219900000000000000000000Consumidor Final              000000000075000000000000075000000000000000000000000000000000000000000000000000000000000000000000000000000000000000000000PES00010000001N00000000000000020180410
201803310060000600000000000000807522000000000000008075229900000000000000000000Consumidor Final              000000000075000000000000075000000000000000000000000000000000000000000000000000000000000000000000000000000000000000000000PES00010000001N00000000000000020180410
201803310060000600000000000000807523000000000000008075239900000000000000000000Consumidor Final              000000000081000000000000081000000000000000000000000000000000000000000000000000000000000000000000000000000000000000000000PES00010000001N00000000000000020180410
201803310060000600000000000000807524000000000000008075249900000000000000000000Consumidor Final              000000000081000000000000081000000000000000000000000000000000000000000000000000000000000000000000000000000000000000000000PES00010000001N00000000000000020180410
201803310060000600000000000000807532000000000000008075329900000000000000000000Consumidor Final              000000000078000000000000078000000000000000000000000000000000000000000000000000000000000000000000000000000000000000000000PES00010000001N00000000000000020180410
201803310060000800000000000000200644000000000000002006449900000000000000000000Consumidor Final              000000000068000000000000068000000000000000000000000000000000000000000000000000000000000000000000000000000000000000000000PES00010000001N00000000000000020180410
201803310060000600000000000000807533000000000000008075339900000000000000000000Consumidor Final              000000000085800000000000085800000000000000000000000000000000000000000000000000000000000000000000000000000000000000000000PES00010000001N00000000000000020180410
201803310060000700000000000000588800000000000000005888009900000000000000000000Consumidor Final              000000000078000000000000078000000000000000000000000000000000000000000000000000000000000000000000000000000000000000000000PES00010000001N00000000000000020180410
201803310060000700000000000000588801000000000000005888019000000000099999999999Consumidor Final              000000000108000000000000108000000000000000000000000000000000000000000000000000000000000000000000000000000000000000000000PES00010000001N00000000000000020180410
201803310060000600000000000000807509000000000000008075099900000000000000000000Consumidor Final              000000000078000000000000078000000000000000000000000000000000000000000000000000000000000000000000000000000000000000000000PES00010000001N00000000000000020180410
201803310060000600000000000000807510000000000000008075109900000000000000000000Consumidor Final              000000000078000000000000078000000000000000000000000000000000000000000000000000000000000000000000000000000000000000000000PES00010000001N00000000000000020180410
201803310060000700000000000000588802000000000000005888029000000000099999999999Consumidor Final              000000000150000000000000150000000000000000000000000000000000000000000000000000000000000000000000000000000000000000000000PES00010000001N00000000000000020180410
201803310060000700000000000000588803000000000000005888039000000000099999999999Consumidor Final              000000000150000000000000150000000000000000000000000000000000000000000000000000000000000000000000000000000000000000000000PES00010000001N00000000000000020180410
201803310060000600000000000000807511000000000000008075119900000000000000000000Consumidor Final              000000000078000000000000078000000000000000000000000000000000000000000000000000000000000000000000000000000000000000000000PES00010000001N00000000000000020180410
201803310060000700000000000000588804000000000000005888049900000000000000000000Consumidor Final              000000000079000000000000079000000000000000000000000000000000000000000000000000000000000000000000000000000000000000000000PES00010000001N00000000000000020180410
201803310060000600000000000000807512000000000000008075129900000000000000000000Consumidor Final              000000000080000000000000080000000000000000000000000000000000000000000000000000000000000000000000000000000000000000000000PES00010000001N00000000000000020180410
201803310060000700000000000000588805000000000000005888059000000000099999999999Consumidor Final              000000000134000000000000134000000000000000000000000000000000000000000000000000000000000000000000000000000000000000000000PES00010000001N00000000000000020180410
201803310060000600000000000000807513000000000000008075139900000000000000000000Consumidor Final              000000000084000000000000084000000000000000000000000000000000000000000000000000000000000000000000000000000000000000000000PES00010000001N00000000000000020180410
201803310060000600000000000000807514000000000000008075149900000000000000000000Consumidor Final              000000000085800000000000085800000000000000000000000000000000000000000000000000000000000000000000000000000000000000000000PES00010000001N00000000000000020180410
201803310060000600000000000000807526000000000000008075269900000000000000000000Consumidor Final              000000000085800000000000085800000000000000000000000000000000000000000000000000000000000000000000000000000000000000000000PES00010000001N00000000000000020180410
201803310060000600000000000000807527000000000000008075279900000000000000000000Consumidor Final              000000000078000000000000078000000000000000000000000000000000000000000000000000000000000000000000000000000000000000000000PES00010000001N00000000000000020180410
201803310060000600000000000000807528000000000000008075289900000000000000000000Consumidor Final              000000000078000000000000078000000000000000000000000000000000000000000000000000000000000000000000000000000000000000000000PES00010000001N00000000000000020180410
201803310060000600000000000000807529000000000000008075299900000000000000000000Consumidor Final              000000000078000000000000078000000000000000000000000000000000000000000000000000000000000000000000000000000000000000000000PES00010000001N00000000000000020180410
201803310060000600000000000000807530000000000000008075309900000000000000000000Consumidor Final              000000000092000000000000092000000000000000000000000000000000000000000000000000000000000000000000000000000000000000000000PES00010000001N00000000000000020180410
201803310060000700000000000000588808000000000000005888089900000000000000000000Consumidor Final              000000000078000000000000078000000000000000000000000000000000000000000000000000000000000000000000000000000000000000000000PES00010000001N00000000000000020180410
201803310060000700000000000000588809000000000000005888099900000000000000000000Consumidor Final              000000000078000000000000078000000000000000000000000000000000000000000000000000000000000000000000000000000000000000000000PES00010000001N00000000000000020180410
201803310060000700000000000000588810000000000000005888109900000000000000000000Consumidor Final              000000000026000000000000026000000000000000000000000000000000000000000000000000000000000000000000000000000000000000000000PES00010000001N00000000000000020180410
201803310060000800000000000000200645000000000000002006459900000000000000000000Consumidor Final              000000000068000000000000068000000000000000000000000000000000000000000000000000000000000000000000000000000000000000000000PES00010000001N00000000000000020180410
201803310060000600000000000000807539000000000000008075399900000000000000000000Consumidor Final              000000000078000000000000078000000000000000000000000000000000000000000000000000000000000000000000000000000000000000000000PES00010000001N00000000000000020180410
201803310060000600000000000000807540000000000000008075409000000000099999999999Consumidor Final              000000000102000000000000102000000000000000000000000000000000000000000000000000000000000000000000000000000000000000000000PES00010000001N00000000000000020180410
201803310060000600000000000000807541000000000000008075419900000000000000000000Consumidor Final              000000000078000000000000078000000000000000000000000000000000000000000000000000000000000000000000000000000000000000000000PES00010000001N00000000000000020180410
201803310060000600000000000000807542000000000000008075429900000000000000000000Consumidor Final              000000000075000000000000075000000000000000000000000000000000000000000000000000000000000000000000000000000000000000000000PES00010000001N00000000000000020180410
201803310060000900000000000000048972000000000000000489729900000000000000000000Consumidor Final              000000000078000000000000078000000000000000000000000000000000000000000000000000000000000000000000000000000000000000000000PES00010000001N00000000000000020180410
201803310510000100000000000000001381000000000000000013818000000000020082755218BICHMAN MARIO SAUL            000000000075000000000000075000000000000000000000000000000000000000000000000000000000000000000000000000000000000000000000PES00010000001N00000000000000000000000
201803310060000600000000000000807597000000000000008075979900000000000000000000Consumidor Final              000000000078000000000000078000000000000000000000000000000000000000000000000000000000000000000000000000000000000000000000PES00010000001N00000000000000020180410
201803310060000600000000000000807613000000000000008076139900000000000000000000Consumidor Final              000000000079000000000000079000000000000000000000000000000000000000000000000000000000000000000000000000000000000000000000PES00010000001N00000000000000020180410
201803310060000600000000000000807614000000000000008076149900000000000000000000Consumidor Final              000000000078000000000000078000000000000000000000000000000000000000000000000000000000000000000000000000000000000000000000PES00010000001N00000000000000020180410
201803310060000700000000000000588846000000000000005888469900000000000000000000Consumidor Final              000000000078000000000000078000000000000000000000000000000000000000000000000000000000000000000000000000000000000000000000PES00010000001N00000000000000020180410
201803310060000800000000000000200646000000000000002006469900000000000000000000Consumidor Final              000000000068000000000000068000000000000000000000000000000000000000000000000000000000000000000000000000000000000000000000PES00010000001N00000000000000020180410
201803310060000700000000000000588811000000000000005888119900000000000000000000Consumidor Final              000000000078000000000000078000000000000000000000000000000000000000000000000000000000000000000000000000000000000000000000PES00010000001N00000000000000020180410
201803310060000700000000000000588812000000000000005888129900000000000000000000Consumidor Final              000000000078000000000000078000000000000000000000000000000000000000000000000000000000000000000000000000000000000000000000PES00010000001N00000000000000020180410
201803310060000600000000000000807534000000000000008075349900000000000000000000Consumidor Final              000000000044000000000000044000000000000000000000000000000000000000000000000000000000000000000000000000000000000000000000PES00010000001N00000000000000020180410
201803310060000700000000000000588813000000000000005888139900000000000000000000Consumidor Final              000000000078000000000000078000000000000000000000000000000000000000000000000000000000000000000000000000000000000000000000PES00010000001N00000000000000020180410
201803310060000700000000000000588814000000000000005888149900000000000000000000Consumidor Final              000000000078000000000000078000000000000000000000000000000000000000000000000000000000000000000000000000000000000000000000PES00010000001N00000000000000020180410
201803310060000600000000000000807535000000000000008075359900000000000000000000Consumidor Final              000000000092000000000000092000000000000000000000000000000000000000000000000000000000000000000000000000000000000000000000PES00010000001N00000000000000020180410
201803310060000600000000000000807536000000000000008075369900000000000000000000Consumidor Final              000000000078000000000000078000000000000000000000000000000000000000000000000000000000000000000000000000000000000000000000PES00010000001N00000000000000020180410
201803310060000700000000000000588815000000000000005888159900000000000000000000Consumidor Final              000000000078000000000000078000000000000000000000000000000000000000000000000000000000000000000000000000000000000000000000PES00010000001N00000000000000020180410
201803310060000700000000000000588816000000000000005888169900000000000000000000Consumidor Final              000000000069000000000000069000000000000000000000000000000000000000000000000000000000000000000000000000000000000000000000PES00010000001N00000000000000020180410
201803310060000700000000000000588817000000000000005888179900000000000000000000Consumidor Final              000000000038000000000000038000000000000000000000000000000000000000000000000000000000000000000000000000000000000000000000PES00010000001N00000000000000020180410
201803310060000700000000000000588834000000000000005888349900000000000000000000Consumidor Final              000000000078000000000000078000000000000000000000000000000000000000000000000000000000000000000000000000000000000000000000PES00010000001N00000000000000020180410
201803310060000800000000000000200659000000000000002006599900000000000000000000Consumidor Final              000000000068000000000000068000000000000000000000000000000000000000000000000000000000000000000000000000000000000000000000PES00010000001N00000000000000020180410
201803310060000800000000000000200660000000000000002006609900000000000000000000Consumidor Final              000000000068000000000000068000000000000000000000000000000000000000000000000000000000000000000000000000000000000000000000PES00010000001N00000000000000020180410
201803310060000800000000000000200661000000000000002006619900000000000000000000Consumidor Final              000000000068000000000000068000000000000000000000000000000000000000000000000000000000000000000000000000000000000000000000PES00010000001N00000000000000020180410
201803310060000800000000000000200662000000000000002006629900000000000000000000Consumidor Final              000000000068000000000000068000000000000000000000000000000000000000000000000000000000000000000000000000000000000000000000PES00010000001N00000000000000020180410
201803310060000800000000000000200663000000000000002006639900000000000000000000Consumidor Final              000000000068000000000000068000000000000000000000000000000000000000000000000000000000000000000000000000000000000000000000PES00010000001N00000000000000020180410
201803310060000800000000000000200664000000000000002006649900000000000000000000Consumidor Final              000000000068000000000000068000000000000000000000000000000000000000000000000000000000000000000000000000000000000000000000PES00010000001N00000000000000020180410
201803310060000800000000000000200677000000000000002006779900000000000000000000Consumidor Final              000000000068000000000000068000000000000000000000000000000000000000000000000000000000000000000000000000000000000000000000PES00010000001N00000000000000020180410
201803310060000600000000000000807621000000000000008076219900000000000000000000Consumidor Final              000000000078000000000000078000000000000000000000000000000000000000000000000000000000000000000000000000000000000000000000PES00010000001N00000000000000020180410
201803310060000600000000000000807622000000000000008076229900000000000000000000Consumidor Final              000000000078000000000000078000000000000000000000000000000000000000000000000000000000000000000000000000000000000000000000PES00010000001N00000000000000020180410
201803310060000800000000000000200678000000000000002006789900000000000000000000Consumidor Final              000000000068000000000000068000000000000000000000000000000000000000000000000000000000000000000000000000000000000000000000PES00010000001N00000000000000020180410
201803310060000900000000000000048978000000000000000489789900000000000000000000Consumidor Final              000000000085800000000000085800000000000000000000000000000000000000000000000000000000000000000000000000000000000000000000PES00010000001N00000000000000020180410
201803310060000900000000000000048979000000000000000489799900000000000000000000Consumidor Final              000000000078000000000000078000000000000000000000000000000000000000000000000000000000000000000000000000000000000000000000PES00010000001N00000000000000020180410
201803310060000900000000000000048980000000000000000489809900000000000000000000Consumidor Final              000000000092000000000000092000000000000000000000000000000000000000000000000000000000000000000000000000000000000000000000PES00010000001N00000000000000020180410
201803310060000900000000000000048981000000000000000489819900000000000000000000Consumidor Final              000000000081000000000000081000000000000000000000000000000000000000000000000000000000000000000000000000000000000000000000PES00010000001N00000000000000020180410
201803310060000800000000000000200675000000000000002006759900000000000000000000Consumidor Final              000000000068000000000000068000000000000000000000000000000000000000000000000000000000000000000000000000000000000000000000PES00010000001N00000000000000020180410
201803310060000800000000000000200676000000000000002006769900000000000000000000Consumidor Final              000000000068000000000000068000000000000000000000000000000000000000000000000000000000000000000000000000000000000000000000PES00010000001N00000000000000020180410
201803310060000600000000000000807618000000000000008076189900000000000000000000Consumidor Final              000000000079000000000000079000000000000000000000000000000000000000000000000000000000000000000000000000000000000000000000PES00010000001N00000000000000020180410
201803310060000600000000000000807619000000000000008076199900000000000000000000Consumidor Final              000000000078000000000000078000000000000000000000000000000000000000000000000000000000000000000000000000000000000000000000PES00010000001N00000000000000020180410
201803310060000600000000000000807620000000000000008076209900000000000000000000Consumidor Final              000000000085800000000000085800000000000000000000000000000000000000000000000000000000000000000000000000000000000000000000PES00010000001N00000000000000020180410
201803310060000600000000000000807623000000000000008076239900000000000000000000Consumidor Final              000000000092000000000000092000000000000000000000000000000000000000000000000000000000000000000000000000000000000000000000PES00010000001N00000000000000020180410
201803310060000600000000000000807624000000000000008076249900000000000000000000Consumidor Final              000000000045000000000000045000000000000000000000000000000000000000000000000000000000000000000000000000000000000000000000PES00010000001N00000000000000020180410
201803310060000700000000000000588847000000000000005888479900000000000000000000Consumidor Final              000000000040000000000000040000000000000000000000000000000000000000000000000000000000000000000000000000000000000000000000PES00010000001N00000000000000020180410
201803310060000600000000000000807681000000000000008076819900000000000000000000Consumidor Final              000000000078000000000000078000000000000000000000000000000000000000000000000000000000000000000000000000000000000000000000PES00010000001N00000000000000020180410
201803310060000600000000000000807682000000000000008076829900000000000000000000Consumidor Final              000000000078000000000000078000000000000000000000000000000000000000000000000000000000000000000000000000000000000000000000PES00010000001N00000000000000020180410
201803310060000600000000000000807683000000000000008076839900000000000000000000Consumidor Final              000000000078000000000000078000000000000000000000000000000000000000000000000000000000000000000000000000000000000000000000PES00010000001N00000000000000020180410
201803310060000600000000000000807684000000000000008076849900000000000000000000Consumidor Final              000000000078000000000000078000000000000000000000000000000000000000000000000000000000000000000000000000000000000000000000PES00010000001N00000000000000020180410
201803310060000900000000000000049009000000000000000490099900000000000000000000Consumidor Final              000000000078000000000000078000000000000000000000000000000000000000000000000000000000000000000000000000000000000000000000PES00010000001N00000000000000020180410
201803310060000900000000000000049014000000000000000490149900000000000000000000Consumidor Final              000000000078000000000000078000000000000000000000000000000000000000000000000000000000000000000000000000000000000000000000PES00010000001N00000000000000020180410
201803310060000900000000000000049015000000000000000490159900000000000000000000Consumidor Final              000000000092000000000000092000000000000000000000000000000000000000000000000000000000000000000000000000000000000000000000PES00010000001N00000000000000020180410
201803310060000900000000000000049016000000000000000490169900000000000000000000Consumidor Final              000000000078000000000000078000000000000000000000000000000000000000000000000000000000000000000000000000000000000000000000PES00010000001N00000000000000020180410
201803310060000900000000000000049017000000000000000490179900000000000000000000Consumidor Final              000000000078000000000000078000000000000000000000000000000000000000000000000000000000000000000000000000000000000000000000PES00010000001N00000000000000020180410
201803310060000700000000000000588818000000000000005888189900000000000000000000Consumidor Final              000000000078000000000000078000000000000000000000000000000000000000000000000000000000000000000000000000000000000000000000PES00010000001N00000000000000020180410
201803310060000600000000000000807537000000000000008075379900000000000000000000Consumidor Final              000000000078000000000000078000000000000000000000000000000000000000000000000000000000000000000000000000000000000000000000PES00010000001N00000000000000020180410
201803310060000600000000000000807538000000000000008075389900000000000000000000Consumidor Final              000000000082500000000000082500000000000000000000000000000000000000000000000000000000000000000000000000000000000000000000PES00010000001N00000000000000020180410
201803310060000700000000000000588819000000000000005888199900000000000000000000Consumidor Final              000000000078000000000000078000000000000000000000000000000000000000000000000000000000000000000000000000000000000000000000PES00010000001N00000000000000020180410
201803310060000700000000000000588820000000000000005888209900000000000000000000Consumidor Final              000000000078000000000000078000000000000000000000000000000000000000000000000000000000000000000000000000000000000000000000PES00010000001N00000000000000020180410
201803310060000700000000000000588821000000000000005888219900000000000000000000Consumidor Final              000000000099000000000000099000000000000000000000000000000000000000000000000000000000000000000000000000000000000000000000PES00010000001N00000000000000020180410
201803310060000700000000000000588822000000000000005888229900000000000000000000Consumidor Final              000000000078000000000000078000000000000000000000000000000000000000000000000000000000000000000000000000000000000000000000PES00010000001N00000000000000020180410
201803310060000700000000000000588823000000000000005888239900000000000000000000Consumidor Final              000000000078000000000000078000000000000000000000000000000000000000000000000000000000000000000000000000000000000000000000PES00010000001N00000000000000020180410
201803310060000700000000000000588824000000000000005888249900000000000000000000Consumidor Final              000000000078000000000000078000000000000000000000000000000000000000000000000000000000000000000000000000000000000000000000PES00010000001N00000000000000020180410
201803310060000600000000000000807543000000000000008075439900000000000000000000Consumidor Final              000000000092000000000000092000000000000000000000000000000000000000000000000000000000000000000000000000000000000000000000PES00010000001N00000000000000020180410
201803310060000600000000000000807544000000000000008075449000000000099999999999Consumidor Final              000000000124000000000000124000000000000000000000000000000000000000000000000000000000000000000000000000000000000000000000PES00010000001N00000000000000020180410
201803310060000800000000000000200647000000000000002006479900000000000000000000Consumidor Final              000000000068000000000000068000000000000000000000000000000000000000000000000000000000000000000000000000000000000000000000PES00010000001N00000000000000020180410
201803310060000600000000000000807545000000000000008075459900000000000000000000Consumidor Final              000000000078000000000000078000000000000000000000000000000000000000000000000000000000000000000000000000000000000000000000PES00010000001N00000000000000020180410
201803310060000600000000000000807546000000000000008075469900000000000000000000Consumidor Final              000000000085800000000000085800000000000000000000000000000000000000000000000000000000000000000000000000000000000000000000PES00010000001N00000000000000020180410
201803310060000700000000000000588825000000000000005888259900000000000000000000Consumidor Final              000000000078000000000000078000000000000000000000000000000000000000000000000000000000000000000000000000000000000000000000PES00010000001N00000000000000020180410
201803310060000700000000000000588826000000000000005888269900000000000000000000Consumidor Final              000000000089100000000000089100000000000000000000000000000000000000000000000000000000000000000000000000000000000000000000PES00010000001N00000000000000020180410
201803310060000600000000000000807547000000000000008075479900000000000000000000Consumidor Final              000000000078000000000000078000000000000000000000000000000000000000000000000000000000000000000000000000000000000000000000PES00010000001N00000000000000020180410
201803310060000600000000000000807548000000000000008075489900000000000000000000Consumidor Final              000000000078000000000000078000000000000000000000000000000000000000000000000000000000000000000000000000000000000000000000PES00010000001N00000000000000020180410
201803310060000700000000000000588827000000000000005888279900000000000000000000Consumidor Final              000000000026000000000000026000000000000000000000000000000000000000000000000000000000000000000000000000000000000000000000PES00010000001N00000000000000020180410
201803310060000600000000000000807549000000000000008075499900000000000000000000Consumidor Final              000000000078000000000000078000000000000000000000000000000000000000000000000000000000000000000000000000000000000000000000PES00010000001N00000000000000020180410
201803310060000600000000000000807550000000000000008075509900000000000000000000Consumidor Final              000000000089100000000000089100000000000000000000000000000000000000000000000000000000000000000000000000000000000000000000PES00010000001N00000000000000020180410
201803310060000700000000000000588828000000000000005888289900000000000000000000Consumidor Final              000000000078000000000000078000000000000000000000000000000000000000000000000000000000000000000000000000000000000000000000PES00010000001N00000000000000020180410
201803310060000800000000000000200648000000000000002006489900000000000000000000Consumidor Final              000000000068000000000000068000000000000000000000000000000000000000000000000000000000000000000000000000000000000000000000PES00010000001N00000000000000020180410
201803310060000600000000000000807551000000000000008075519900000000000000000000Consumidor Final              000000000078000000000000078000000000000000000000000000000000000000000000000000000000000000000000000000000000000000000000PES00010000001N00000000000000020180410
201803310060000600000000000000807552000000000000008075529900000000000000000000Consumidor Final              000000000078000000000000078000000000000000000000000000000000000000000000000000000000000000000000000000000000000000000000PES00010000001N00000000000000020180410
201803310060000600000000000000807553000000000000008075539900000000000000000000Consumidor Final              000000000092000000000000092000000000000000000000000000000000000000000000000000000000000000000000000000000000000000000000PES00010000001N00000000000000020180410
201803310060000600000000000000807554000000000000008075549900000000000000000000Consumidor Final              000000000075000000000000075000000000000000000000000000000000000000000000000000000000000000000000000000000000000000000000PES00010000001N00000000000000020180410
201803310060000600000000000000807555000000000000008075559900000000000000000000Consumidor Final              000000000075000000000000075000000000000000000000000000000000000000000000000000000000000000000000000000000000000000000000PES00010000001N00000000000000020180410
201803310060000700000000000000588829000000000000005888299900000000000000000000Consumidor Final              000000000092000000000000092000000000000000000000000000000000000000000000000000000000000000000000000000000000000000000000PES00010000001N00000000000000020180410
201803310060000700000000000000588830000000000000005888309900000000000000000000Consumidor Final              000000000078000000000000078000000000000000000000000000000000000000000000000000000000000000000000000000000000000000000000PES00010000001N00000000000000020180410
201803310060000600000000000000807556000000000000008075569000000000099999999999Consumidor Final              000000000108000000000000108000000000000000000000000000000000000000000000000000000000000000000000000000000000000000000000PES00010000001N00000000000000020180410
201803310060000700000000000000588831000000000000005888319900000000000000000000Consumidor Final              000000000078000000000000078000000000000000000000000000000000000000000000000000000000000000000000000000000000000000000000PES00010000001N00000000000000020180410
201803310060000700000000000000588832000000000000005888329900000000000000000000Consumidor Final              000000000081000000000000081000000000000000000000000000000000000000000000000000000000000000000000000000000000000000000000PES00010000001N00000000000000020180410
201803310060000600000000000000807572000000000000008075729900000000000000000000Consumidor Final              000000000085800000000000085800000000000000000000000000000000000000000000000000000000000000000000000000000000000000000000PES00010000001N00000000000000020180410
201803310060000600000000000000807573000000000000008075739900000000000000000000Consumidor Final              000000000078000000000000078000000000000000000000000000000000000000000000000000000000000000000000000000000000000000000000PES00010000001N00000000000000020180410
201803310060000600000000000000807574000000000000008075749900000000000000000000Consumidor Final              000000000078000000000000078000000000000000000000000000000000000000000000000000000000000000000000000000000000000000000000PES00010000001N00000000000000020180410
201803310060000600000000000000807587000000000000008075879900000000000000000000Consumidor Final              000000000078000000000000078000000000000000000000000000000000000000000000000000000000000000000000000000000000000000000000PES00010000001N00000000000000020180410
201803310060000600000000000000807588000000000000008075889900000000000000000000Consumidor Final              000000000092000000000000092000000000000000000000000000000000000000000000000000000000000000000000000000000000000000000000PES00010000001N00000000000000020180410
201803310060000600000000000000807589000000000000008075899900000000000000000000Consumidor Final              000000000069000000000000069000000000000000000000000000000000000000000000000000000000000000000000000000000000000000000000PES00010000001N00000000000000020180410
201803310060000600000000000000807590000000000000008075909900000000000000000000Consumidor Final              000000000078000000000000078000000000000000000000000000000000000000000000000000000000000000000000000000000000000000000000PES00010000001N00000000000000020180410
201803310060000900000000000000048973000000000000000489739900000000000000000000Consumidor Final              000000000038000000000000038000000000000000000000000000000000000000000000000000000000000000000000000000000000000000000000PES00010000001N00000000000000020180410
201803310060000900000000000000048974000000000000000489749900000000000000000000Consumidor Final              000000000038000000000000038000000000000000000000000000000000000000000000000000000000000000000000000000000000000000000000PES00010000001N00000000000000020180410
201803310060000600000000000000807557000000000000008075579900000000000000000000Consumidor Final              000000000078000000000000078000000000000000000000000000000000000000000000000000000000000000000000000000000000000000000000PES00010000001N00000000000000020180410
201803310060000600000000000000807569000000000000008075699900000000000000000000Consumidor Final              000000000078000000000000078000000000000000000000000000000000000000000000000000000000000000000000000000000000000000000000PES00010000001N00000000000000020180410
201803310060000600000000000000807570000000000000008075709900000000000000000000Consumidor Final              000000000078000000000000078000000000000000000000000000000000000000000000000000000000000000000000000000000000000000000000PES00010000001N00000000000000020180410
201803310060000600000000000000807579000000000000008075799900000000000000000000Consumidor Final              000000000078000000000000078000000000000000000000000000000000000000000000000000000000000000000000000000000000000000000000PES00010000001N00000000000000020180410
201803310060000600000000000000807585000000000000008075859900000000000000000000Consumidor Final              000000000040000000000000040000000000000000000000000000000000000000000000000000000000000000000000000000000000000000000000PES00010000001N00000000000000020180410
201803310060000600000000000000807586000000000000008075869900000000000000000000Consumidor Final              000000000078000000000000078000000000000000000000000000000000000000000000000000000000000000000000000000000000000000000000PES00010000001N00000000000000020180410
201803310060000600000000000000807591000000000000008075919900000000000000000000Consumidor Final              000000000078000000000000078000000000000000000000000000000000000000000000000000000000000000000000000000000000000000000000PES00010000001N00000000000000020180410
201803310060000600000000000000807592000000000000008075929900000000000000000000Consumidor Final              000000000078000000000000078000000000000000000000000000000000000000000000000000000000000000000000000000000000000000000000PES00010000001N00000000000000020180410
201803310060000600000000000000807593000000000000008075939000000000099999999999Consumidor Final              000000000147400000000000147400000000000000000000000000000000000000000000000000000000000000000000000000000000000000000000PES00010000001N00000000000000020180410
201803310060000600000000000000807596000000000000008075969900000000000000000000Consumidor Final              000000000085800000000000085800000000000000000000000000000000000000000000000000000000000000000000000000000000000000000000PES00010000001N00000000000000020180410
201803310060000700000000000000588833000000000000005888339900000000000000000000Consumidor Final              000000000078000000000000078000000000000000000000000000000000000000000000000000000000000000000000000000000000000000000000PES00010000001N00000000000000020180410
201803310060000800000000000000200649000000000000002006499900000000000000000000Consumidor Final              000000000068000000000000068000000000000000000000000000000000000000000000000000000000000000000000000000000000000000000000PES00010000001N00000000000000020180410
201803310060000800000000000000200650000000000000002006509900000000000000000000Consumidor Final              000000000068000000000000068000000000000000000000000000000000000000000000000000000000000000000000000000000000000000000000PES00010000001N00000000000000020180410
201803310060000800000000000000200651000000000000002006519900000000000000000000Consumidor Final              000000000068000000000000068000000000000000000000000000000000000000000000000000000000000000000000000000000000000000000000PES00010000001N00000000000000020180410
201803310060000800000000000000200652000000000000002006529900000000000000000000Consumidor Final              000000000068000000000000068000000000000000000000000000000000000000000000000000000000000000000000000000000000000000000000PES00010000001N00000000000000020180410
201803310060000800000000000000200653000000000000002006539900000000000000000000Consumidor Final              000000000068000000000000068000000000000000000000000000000000000000000000000000000000000000000000000000000000000000000000PES00010000001N00000000000000020180410
201803310060000800000000000000200654000000000000002006549900000000000000000000Consumidor Final              000000000068000000000000068000000000000000000000000000000000000000000000000000000000000000000000000000000000000000000000PES00010000001N00000000000000020180410
201803310060000800000000000000200655000000000000002006559900000000000000000000Consumidor Final              000000000068000000000000068000000000000000000000000000000000000000000000000000000000000000000000000000000000000000000000PES00010000001N00000000000000020180410
201803310060000800000000000000200656000000000000002006569900000000000000000000Consumidor Final              000000000068000000000000068000000000000000000000000000000000000000000000000000000000000000000000000000000000000000000000PES00010000001N00000000000000020180410
201803310060000800000000000000200657000000000000002006579900000000000000000000Consumidor Final              000000000068000000000000068000000000000000000000000000000000000000000000000000000000000000000000000000000000000000000000PES00010000001N00000000000000020180410
201803310060000800000000000000200658000000000000002006589900000000000000000000Consumidor Final              000000000068000000000000068000000000000000000000000000000000000000000000000000000000000000000000000000000000000000000000PES00010000001N00000000000000020180410
201803310060000600000000000000807558000000000000008075589900000000000000000000Consumidor Final              000000000078000000000000078000000000000000000000000000000000000000000000000000000000000000000000000000000000000000000000PES00010000001N00000000000000020180410
201803310060000600000000000000807575000000000000008075759900000000000000000000Consumidor Final              000000000078000000000000078000000000000000000000000000000000000000000000000000000000000000000000000000000000000000000000PES00010000001N00000000000000020180410
201803310060000600000000000000807576000000000000008075769900000000000000000000Consumidor Final              000000000078000000000000078000000000000000000000000000000000000000000000000000000000000000000000000000000000000000000000PES00010000001N00000000000000020180410
201803310060000600000000000000807577000000000000008075779900000000000000000000Consumidor Final              000000000078000000000000078000000000000000000000000000000000000000000000000000000000000000000000000000000000000000000000PES00010000001N00000000000000020180410
201803310060000600000000000000807578000000000000008075789900000000000000000000Consumidor Final              000000000078000000000000078000000000000000000000000000000000000000000000000000000000000000000000000000000000000000000000PES00010000001N00000000000000020180410
201803310060000600000000000000807580000000000000008075809900000000000000000000Consumidor Final              000000000078000000000000078000000000000000000000000000000000000000000000000000000000000000000000000000000000000000000000PES00010000001N00000000000000020180410
201803310060000600000000000000807581000000000000008075819900000000000000000000Consumidor Final              000000000075000000000000075000000000000000000000000000000000000000000000000000000000000000000000000000000000000000000000PES00010000001N00000000000000020180410
201803310060000600000000000000807582000000000000008075829900000000000000000000Consumidor Final              000000000078000000000000078000000000000000000000000000000000000000000000000000000000000000000000000000000000000000000000PES00010000001N00000000000000020180410
201803310060000600000000000000807583000000000000008075839900000000000000000000Consumidor Final              000000000078000000000000078000000000000000000000000000000000000000000000000000000000000000000000000000000000000000000000PES00010000001N00000000000000020180410
201803310060000600000000000000807584000000000000008075849900000000000000000000Consumidor Final              000000000078000000000000078000000000000000000000000000000000000000000000000000000000000000000000000000000000000000000000PES00010000001N00000000000000020180410
201803310060000600000000000000807559000000000000008075599900000000000000000000Consumidor Final              000000000078000000000000078000000000000000000000000000000000000000000000000000000000000000000000000000000000000000000000PES00010000001N00000000000000020180410
201803310060000700000000000000588835000000000000005888359900000000000000000000Consumidor Final              000000000078000000000000078000000000000000000000000000000000000000000000000000000000000000000000000000000000000000000000PES00010000001N00000000000000020180410
201803310060000600000000000000807560000000000000008075609900000000000000000000Consumidor Final              000000000085800000000000085800000000000000000000000000000000000000000000000000000000000000000000000000000000000000000000PES00010000001N00000000000000020180410
201803310060000700000000000000588836000000000000005888369900000000000000000000Consumidor Final              000000000078000000000000078000000000000000000000000000000000000000000000000000000000000000000000000000000000000000000000PES00010000001N00000000000000020180410
201803310060000600000000000000807561000000000000008075619900000000000000000000Consumidor Final              000000000085800000000000085800000000000000000000000000000000000000000000000000000000000000000000000000000000000000000000PES00010000001N00000000000000020180410
201803310060000700000000000000588837000000000000005888379900000000000000000000Consumidor Final              000000000078000000000000078000000000000000000000000000000000000000000000000000000000000000000000000000000000000000000000PES00010000001N00000000000000020180410
201803310060000600000000000000807562000000000000008075629900000000000000000000Consumidor Final              000000000085800000000000085800000000000000000000000000000000000000000000000000000000000000000000000000000000000000000000PES00010000001N00000000000000020180410
201803310060000700000000000000588838000000000000005888389900000000000000000000Consumidor Final              000000000078000000000000078000000000000000000000000000000000000000000000000000000000000000000000000000000000000000000000PES00010000001N00000000000000020180410
201803310060000700000000000000588839000000000000005888399900000000000000000000Consumidor Final              000000000078000000000000078000000000000000000000000000000000000000000000000000000000000000000000000000000000000000000000PES00010000001N00000000000000020180410
201803310060000600000000000000807563000000000000008075639900000000000000000000Consumidor Final              000000000078000000000000078000000000000000000000000000000000000000000000000000000000000000000000000000000000000000000000PES00010000001N00000000000000020180410
201803310060000600000000000000807564000000000000008075649000000000099999999999Consumidor Final              000000000101200000000000101200000000000000000000000000000000000000000000000000000000000000000000000000000000000000000000PES00010000001N00000000000000020180410
201803310060000800000000000000200679000000000000002006799900000000000000000000Consumidor Final              000000000068000000000000068000000000000000000000000000000000000000000000000000000000000000000000000000000000000000000000PES00010000001N00000000000000020180410
201803310060000800000000000000200680000000000000002006809900000000000000000000Consumidor Final              000000000068000000000000068000000000000000000000000000000000000000000000000000000000000000000000000000000000000000000000PES00010000001N00000000000000020180410
201803310060000800000000000000200681000000000000002006819900000000000000000000Consumidor Final              000000000068000000000000068000000000000000000000000000000000000000000000000000000000000000000000000000000000000000000000PES00010000001N00000000000000020180410
201803310060000800000000000000200682000000000000002006829900000000000000000000Consumidor Final              000000000068000000000000068000000000000000000000000000000000000000000000000000000000000000000000000000000000000000000000PES00010000001N00000000000000020180410
201803310060000800000000000000200683000000000000002006839900000000000000000000Consumidor Final              000000000068000000000000068000000000000000000000000000000000000000000000000000000000000000000000000000000000000000000000PES00010000001N00000000000000020180410
201803310060000800000000000000200684000000000000002006849900000000000000000000Consumidor Final              000000000068000000000000068000000000000000000000000000000000000000000000000000000000000000000000000000000000000000000000PES00010000001N00000000000000020180410
201803310060000600000000000000807629000000000000008076299900000000000000000000Consumidor Final              000000000078000000000000078000000000000000000000000000000000000000000000000000000000000000000000000000000000000000000000PES00010000001N00000000000000020180410
201803310060000600000000000000807630000000000000008076309900000000000000000000Consumidor Final              000000000078000000000000078000000000000000000000000000000000000000000000000000000000000000000000000000000000000000000000PES00010000001N00000000000000020180410
201803310060000600000000000000807631000000000000008076319900000000000000000000Consumidor Final              000000000078000000000000078000000000000000000000000000000000000000000000000000000000000000000000000000000000000000000000PES00010000001N00000000000000020180410
201803310060000600000000000000807632000000000000008076329900000000000000000000Consumidor Final              000000000078000000000000078000000000000000000000000000000000000000000000000000000000000000000000000000000000000000000000PES00010000001N00000000000000020180410
201803310060000600000000000000807565000000000000008075659900000000000000000000Consumidor Final              000000000085800000000000085800000000000000000000000000000000000000000000000000000000000000000000000000000000000000000000PES00010000001N00000000000000020180410
201803310060000700000000000000588840000000000000005888409900000000000000000000Consumidor Final              000000000095000000000000095000000000000000000000000000000000000000000000000000000000000000000000000000000000000000000000PES00010000001N00000000000000020180410
201803310060000600000000000000807566000000000000008075669900000000000000000000Consumidor Final              000000000078000000000000078000000000000000000000000000000000000000000000000000000000000000000000000000000000000000000000PES00010000001N00000000000000020180410
201803310060000700000000000000588841000000000000005888419900000000000000000000Consumidor Final              000000000078000000000000078000000000000000000000000000000000000000000000000000000000000000000000000000000000000000000000PES00010000001N00000000000000020180410
201803310060000600000000000000807567000000000000008075679900000000000000000000Consumidor Final              000000000078000000000000078000000000000000000000000000000000000000000000000000000000000000000000000000000000000000000000PES00010000001N00000000000000020180410
201803310060000600000000000000807568000000000000008075689900000000000000000000Consumidor Final              000000000078000000000000078000000000000000000000000000000000000000000000000000000000000000000000000000000000000000000000PES00010000001N00000000000000020180410
201803310060000700000000000000588842000000000000005888429900000000000000000000Consumidor Final              000000000078000000000000078000000000000000000000000000000000000000000000000000000000000000000000000000000000000000000000PES00010000001N00000000000000020180410
201803310060000700000000000000588843000000000000005888439900000000000000000000Consumidor Final              000000000078000000000000078000000000000000000000000000000000000000000000000000000000000000000000000000000000000000000000PES00010000001N00000000000000020180410
201803310060000700000000000000588844000000000000005888449900000000000000000000Consumidor Final              000000000078000000000000078000000000000000000000000000000000000000000000000000000000000000000000000000000000000000000000PES00010000001N00000000000000020180410
201803310060000600000000000000807571000000000000008075719900000000000000000000Consumidor Final              000000000078000000000000078000000000000000000000000000000000000000000000000000000000000000000000000000000000000000000000PES00010000001N00000000000000020180410
201803310060000700000000000000588845000000000000005888459900000000000000000000Consumidor Final              000000000078000000000000078000000000000000000000000000000000000000000000000000000000000000000000000000000000000000000000PES00010000001N00000000000000020180410
201803310060000600000000000000807615000000000000008076159900000000000000000000Consumidor Final              000000000045000000000000045000000000000000000000000000000000000000000000000000000000000000000000000000000000000000000000PES00010000001N00000000000000020180410
201803310060000600000000000000807616000000000000008076169900000000000000000000Consumidor Final              000000000078000000000000078000000000000000000000000000000000000000000000000000000000000000000000000000000000000000000000PES00010000001N00000000000000020180410
201803310060000600000000000000807617000000000000008076179900000000000000000000Consumidor Final              000000000089100000000000089100000000000000000000000000000000000000000000000000000000000000000000000000000000000000000000PES00010000001N00000000000000020180410
201803310060000600000000000000807638000000000000008076389900000000000000000000Consumidor Final              000000000078000000000000078000000000000000000000000000000000000000000000000000000000000000000000000000000000000000000000PES00010000001N00000000000000020180410
201803310060000600000000000000807639000000000000008076399900000000000000000000Consumidor Final              000000000078000000000000078000000000000000000000000000000000000000000000000000000000000000000000000000000000000000000000PES00010000001N00000000000000020180410
201803310060000600000000000000807640000000000000008076409900000000000000000000Consumidor Final              000000000078000000000000078000000000000000000000000000000000000000000000000000000000000000000000000000000000000000000000PES00010000001N00000000000000020180410
201803310060000600000000000000807641000000000000008076419900000000000000000000Consumidor Final              000000000081000000000000081000000000000000000000000000000000000000000000000000000000000000000000000000000000000000000000PES00010000001N00000000000000020180410
201803310060000600000000000000807642000000000000008076429900000000000000000000Consumidor Final              000000000092000000000000092000000000000000000000000000000000000000000000000000000000000000000000000000000000000000000000PES00010000001N00000000000000020180410
201803310060000600000000000000807643000000000000008076439900000000000000000000Consumidor Final              000000000078000000000000078000000000000000000000000000000000000000000000000000000000000000000000000000000000000000000000PES00010000001N00000000000000020180410
201803310060000600000000000000807644000000000000008076449900000000000000000000Consumidor Final              000000000078000000000000078000000000000000000000000000000000000000000000000000000000000000000000000000000000000000000000PES00010000001N00000000000000020180410
201803310060000900000000000000048975000000000000000489759900000000000000000000Consumidor Final              000000000078000000000000078000000000000000000000000000000000000000000000000000000000000000000000000000000000000000000000PES00010000001N00000000000000020180410
201803310060000600000000000000807594000000000000008075949900000000000000000000Consumidor Final              000000000078000000000000078000000000000000000000000000000000000000000000000000000000000000000000000000000000000000000000PES00010000001N00000000000000020180410
201803310060000600000000000000807595000000000000008075959900000000000000000000Consumidor Final              000000000078000000000000078000000000000000000000000000000000000000000000000000000000000000000000000000000000000000000000PES00010000001N00000000000000020180410
201803310060000600000000000000807598000000000000008075989900000000000000000000Consumidor Final              000000000078000000000000078000000000000000000000000000000000000000000000000000000000000000000000000000000000000000000000PES00010000001N00000000000000020180410
201803310060000600000000000000807607000000000000008076079900000000000000000000Consumidor Final              000000000078000000000000078000000000000000000000000000000000000000000000000000000000000000000000000000000000000000000000PES00010000001N00000000000000020180410
201803310060000600000000000000807608000000000000008076089900000000000000000000Consumidor Final              000000000078000000000000078000000000000000000000000000000000000000000000000000000000000000000000000000000000000000000000PES00010000001N00000000000000020180410
201803310060000600000000000000807609000000000000008076099900000000000000000000Consumidor Final              000000000038000000000000038000000000000000000000000000000000000000000000000000000000000000000000000000000000000000000000PES00010000001N00000000000000020180410
201803310060000600000000000000807610000000000000008076109900000000000000000000Consumidor Final              000000000078000000000000078000000000000000000000000000000000000000000000000000000000000000000000000000000000000000000000PES00010000001N00000000000000020180410
201803310060000600000000000000807611000000000000008076119900000000000000000000Consumidor Final              000000000093000000000000093000000000000000000000000000000000000000000000000000000000000000000000000000000000000000000000PES00010000001N00000000000000020180410
201803310060000600000000000000807612000000000000008076129900000000000000000000Consumidor Final              000000000078000000000000078000000000000000000000000000000000000000000000000000000000000000000000000000000000000000000000PES00010000001N00000000000000020180410
201803310060000900000000000000048976000000000000000489769900000000000000000000Consumidor Final              000000000078000000000000078000000000000000000000000000000000000000000000000000000000000000000000000000000000000000000000PES00010000001N00000000000000020180410
201803310060000600000000000000807599000000000000008075999900000000000000000000Consumidor Final              000000000078000000000000078000000000000000000000000000000000000000000000000000000000000000000000000000000000000000000000PES00010000001N00000000000000020180410
201803310060000600000000000000807600000000000000008076009900000000000000000000Consumidor Final              000000000078000000000000078000000000000000000000000000000000000000000000000000000000000000000000000000000000000000000000PES00010000001N00000000000000020180410
201803310060000600000000000000807601000000000000008076019000000000099999999999Consumidor Final              000000000134000000000000134000000000000000000000000000000000000000000000000000000000000000000000000000000000000000000000PES00010000001N00000000000000020180410
201803310060000600000000000000807602000000000000008076029900000000000000000000Consumidor Final              000000000078000000000000078000000000000000000000000000000000000000000000000000000000000000000000000000000000000000000000PES00010000001N00000000000000020180410
201803310060000600000000000000807603000000000000008076039900000000000000000000Consumidor Final              000000000038000000000000038000000000000000000000000000000000000000000000000000000000000000000000000000000000000000000000PES00010000001N00000000000000020180410
201803310060000600000000000000807604000000000000008076049900000000000000000000Consumidor Final              000000000078000000000000078000000000000000000000000000000000000000000000000000000000000000000000000000000000000000000000PES00010000001N00000000000000020180410
201803310060000600000000000000807605000000000000008076059900000000000000000000Consumidor Final              000000000078000000000000078000000000000000000000000000000000000000000000000000000000000000000000000000000000000000000000PES00010000001N00000000000000020180410
201803310060000600000000000000807606000000000000008076069900000000000000000000Consumidor Final              000000000078000000000000078000000000000000000000000000000000000000000000000000000000000000000000000000000000000000000000PES00010000001N00000000000000020180410
201803310510000100000000000000001382000000000000000013828000000000020225057142FEDRICO UCEDO                 000000000078000000000000078000000000000000000000000000000000000000000000000000000000000000000000000000000000000000000000PES00010000001N00000000000000000000000
201803310060000900000000000000048977000000000000000489779900000000000000000000Consumidor Final              000000000078000000000000078000000000000000000000000000000000000000000000000000000000000000000000000000000000000000000000PES00010000001N00000000000000020180410
201803310060000800000000000000200665000000000000002006659900000000000000000000Consumidor Final              000000000068000000000000068000000000000000000000000000000000000000000000000000000000000000000000000000000000000000000000PES00010000001N00000000000000020180410
201803310060000800000000000000200666000000000000002006669900000000000000000000Consumidor Final              000000000068000000000000068000000000000000000000000000000000000000000000000000000000000000000000000000000000000000000000PES00010000001N00000000000000020180410
201803310060000800000000000000200667000000000000002006679900000000000000000000Consumidor Final              000000000068000000000000068000000000000000000000000000000000000000000000000000000000000000000000000000000000000000000000PES00010000001N00000000000000020180410
201803310060000800000000000000200668000000000000002006689900000000000000000000Consumidor Final              000000000068000000000000068000000000000000000000000000000000000000000000000000000000000000000000000000000000000000000000PES00010000001N00000000000000020180410
201803310060000800000000000000200669000000000000002006699900000000000000000000Consumidor Final              000000000068000000000000068000000000000000000000000000000000000000000000000000000000000000000000000000000000000000000000PES00010000001N00000000000000020180410
201803310060000800000000000000200670000000000000002006709900000000000000000000Consumidor Final              000000000068000000000000068000000000000000000000000000000000000000000000000000000000000000000000000000000000000000000000PES00010000001N00000000000000020180410
201803310060000800000000000000200671000000000000002006719900000000000000000000Consumidor Final              000000000068000000000000068000000000000000000000000000000000000000000000000000000000000000000000000000000000000000000000PES00010000001N00000000000000020180410
201803310060000800000000000000200672000000000000002006729900000000000000000000Consumidor Final              000000000068000000000000068000000000000000000000000000000000000000000000000000000000000000000000000000000000000000000000PES00010000001N00000000000000020180410
201803310060000800000000000000200673000000000000002006739900000000000000000000Consumidor Final              000000000068000000000000068000000000000000000000000000000000000000000000000000000000000000000000000000000000000000000000PES00010000001N00000000000000020180410
201803310060000800000000000000200674000000000000002006749900000000000000000000Consumidor Final              000000000068000000000000068000000000000000000000000000000000000000000000000000000000000000000000000000000000000000000000PES00010000001N00000000000000020180410
201803310060000600000000000000807625000000000000008076259900000000000000000000Consumidor Final              000000000085800000000000085800000000000000000000000000000000000000000000000000000000000000000000000000000000000000000000PES00010000001N00000000000000020180410
201803310060000900000000000000048982000000000000000489829900000000000000000000Consumidor Final              000000000079000000000000079000000000000000000000000000000000000000000000000000000000000000000000000000000000000000000000PES00010000001N00000000000000020180410
201803310060000600000000000000807633000000000000008076339900000000000000000000Consumidor Final              000000000078000000000000078000000000000000000000000000000000000000000000000000000000000000000000000000000000000000000000PES00010000001N00000000000000020180410
201803310060000900000000000000048983000000000000000489839900000000000000000000Consumidor Final              000000000085800000000000085800000000000000000000000000000000000000000000000000000000000000000000000000000000000000000000PES00010000001N00000000000000020180410
201803310060000900000000000000048984000000000000000489849900000000000000000000Consumidor Final              000000000078000000000000078000000000000000000000000000000000000000000000000000000000000000000000000000000000000000000000PES00010000001N00000000000000020180410
201803310060000600000000000000807634000000000000008076349900000000000000000000Consumidor Final              000000000038000000000000038000000000000000000000000000000000000000000000000000000000000000000000000000000000000000000000PES00010000001N00000000000000020180410
201803310060000900000000000000048985000000000000000489859900000000000000000000Consumidor Final              000000000078000000000000078000000000000000000000000000000000000000000000000000000000000000000000000000000000000000000000PES00010000001N00000000000000020180410
201803310060000900000000000000048986000000000000000489869900000000000000000000Consumidor Final              000000000078000000000000078000000000000000000000000000000000000000000000000000000000000000000000000000000000000000000000PES00010000001N00000000000000020180410
201803310060000600000000000000807635000000000000008076359900000000000000000000Consumidor Final              000000000078000000000000078000000000000000000000000000000000000000000000000000000000000000000000000000000000000000000000PES00010000001N00000000000000020180410
201803310060000600000000000000807636000000000000008076369900000000000000000000Consumidor Final              000000000078000000000000078000000000000000000000000000000000000000000000000000000000000000000000000000000000000000000000PES00010000001N00000000000000020180410
201803310060000600000000000000807637000000000000008076379900000000000000000000Consumidor Final              000000000078000000000000078000000000000000000000000000000000000000000000000000000000000000000000000000000000000000000000PES00010000001N00000000000000020180410
201803310060000600000000000000807626000000000000008076269900000000000000000000Consumidor Final              000000000078000000000000078000000000000000000000000000000000000000000000000000000000000000000000000000000000000000000000PES00010000001N00000000000000020180410
201803310060000600000000000000807645000000000000008076459900000000000000000000Consumidor Final              000000000078000000000000078000000000000000000000000000000000000000000000000000000000000000000000000000000000000000000000PES00010000001N00000000000000020180410
201803310060000600000000000000807646000000000000008076469900000000000000000000Consumidor Final              000000000078000000000000078000000000000000000000000000000000000000000000000000000000000000000000000000000000000000000000PES00010000001N00000000000000020180410
201803310060000900000000000000048987000000000000000489879900000000000000000000Consumidor Final              000000000078000000000000078000000000000000000000000000000000000000000000000000000000000000000000000000000000000000000000PES00010000001N00000000000000020180410
201803310060000600000000000000807647000000000000008076479000000000099999999999Consumidor Final              000000000134000000000000134000000000000000000000000000000000000000000000000000000000000000000000000000000000000000000000PES00010000001N00000000000000020180410
201803310060000600000000000000807648000000000000008076489900000000000000000000Consumidor Final              000000000040000000000000040000000000000000000000000000000000000000000000000000000000000000000000000000000000000000000000PES00010000001N00000000000000020180410
201803310060000600000000000000807649000000000000008076499000000000099999999999Consumidor Final              000000000134000000000000134000000000000000000000000000000000000000000000000000000000000000000000000000000000000000000000PES00010000001N00000000000000020180410
201803310060000600000000000000807650000000000000008076509900000000000000000000Consumidor Final              000000000092000000000000092000000000000000000000000000000000000000000000000000000000000000000000000000000000000000000000PES00010000001N00000000000000020180410
201803310060000600000000000000807651000000000000008076519900000000000000000000Consumidor Final              000000000092000000000000092000000000000000000000000000000000000000000000000000000000000000000000000000000000000000000000PES00010000001N00000000000000020180410
201803310060000600000000000000807652000000000000008076529900000000000000000000Consumidor Final              000000000078000000000000078000000000000000000000000000000000000000000000000000000000000000000000000000000000000000000000PES00010000001N00000000000000020180410
201803310060000600000000000000807627000000000000008076279900000000000000000000Consumidor Final              000000000078000000000000078000000000000000000000000000000000000000000000000000000000000000000000000000000000000000000000PES00010000001N00000000000000020180410
201803310060000900000000000000048988000000000000000489889900000000000000000000Consumidor Final              000000000052000000000000052000000000000000000000000000000000000000000000000000000000000000000000000000000000000000000000PES00010000001N00000000000000020180410
201803310060000900000000000000048989000000000000000489899900000000000000000000Consumidor Final              000000000045000000000000045000000000000000000000000000000000000000000000000000000000000000000000000000000000000000000000PES00010000001N00000000000000020180410
201803310060000800000000000000200685000000000000002006859900000000000000000000Consumidor Final              000000000068000000000000068000000000000000000000000000000000000000000000000000000000000000000000000000000000000000000000PES00010000001N00000000000000020180410
201803310060000800000000000000200686000000000000002006869900000000000000000000Consumidor Final              000000000068000000000000068000000000000000000000000000000000000000000000000000000000000000000000000000000000000000000000PES00010000001N00000000000000020180410
201803310060000900000000000000048990000000000000000489909900000000000000000000Consumidor Final              000000000097000000000000097000000000000000000000000000000000000000000000000000000000000000000000000000000000000000000000PES00010000001N00000000000000020180410
201803310060000900000000000000048991000000000000000489919900000000000000000000Consumidor Final              000000000078000000000000078000000000000000000000000000000000000000000000000000000000000000000000000000000000000000000000PES00010000001N00000000000000020180410
