201501120060000700000000000000387117000000000000003871179900000000000000000000Consumidor Final              000000000040000000000000040000000000000000000000000000000000000000000000000000000000000000000000000000000000000000000000PES00010000001N00000000000000020150122
201501120060000700000000000000387119000000000000003871199900000000000000000000Consumidor Final              000000000043000000000000043000000000000000000000000000000000000000000000000000000000000000000000000000000000000000000000PES00010000001N00000000000000020150122
201501120060000700000000000000387120000000000000003871209900000000000000000000Consumidor Final              000000000043000000000000043000000000000000000000000000000000000000000000000000000000000000000000000000000000000000000000PES00010000001N00000000000000020150122
201501120060000700000000000000387121000000000000003871219900000000000000000000Consumidor Final              000000000040000000000000040000000000000000000000000000000000000000000000000000000000000000000000000000000000000000000000PES00010000001N00000000000000020150122
201501120060000700000000000000387122000000000000003871229900000000000000000000Consumidor Final              000000000040000000000000040000000000000000000000000000000000000000000000000000000000000000000000000000000000000000000000PES00010000001N00000000000000020150122
201501120060000700000000000000387123000000000000003871239900000000000000000000Consumidor Final              000000000040000000000000040000000000000000000000000000000000000000000000000000000000000000000000000000000000000000000000PES00010000001N00000000000000020150122
201501120060000600000000000000597730000000000000005977309900000000000000000000Consumidor Final              000000000051000000000000051000000000000000000000000000000000000000000000000000000000000000000000000000000000000000000000PES00010000001N00000000000000020150122
201501120060000700000000000000387133000000000000003871339900000000000000000000Consumidor Final              000000000040000000000000040000000000000000000000000000000000000000000000000000000000000000000000000000000000000000000000PES00010000001N00000000000000020150122
201501120060000700000000000000387134000000000000003871349900000000000000000000Consumidor Final              000000000040000000000000040000000000000000000000000000000000000000000000000000000000000000000000000000000000000000000000PES00010000001N00000000000000020150122
201501120060000700000000000000387135000000000000003871359900000000000000000000Consumidor Final              000000000040000000000000040000000000000000000000000000000000000000000000000000000000000000000000000000000000000000000000PES00010000001N00000000000000020150122
201501120060000800000000000000120947000000000000001209479900000000000000000000Consumidor Final              000000000035000000000000035000000000000000000000000000000000000000000000000000000000000000000000000000000000000000000000PES00010000001N00000000000000020150122
201501120060000800000000000000120948000000000000001209489900000000000000000000Consumidor Final              000000000035000000000000035000000000000000000000000000000000000000000000000000000000000000000000000000000000000000000000PES00010000001N00000000000000020150122
201501120060000800000000000000120949000000000000001209499900000000000000000000Consumidor Final              000000000035000000000000035000000000000000000000000000000000000000000000000000000000000000000000000000000000000000000000PES00010000001N00000000000000020150122
201501120060000800000000000000120950000000000000001209509900000000000000000000Consumidor Final              000000000035000000000000035000000000000000000000000000000000000000000000000000000000000000000000000000000000000000000000PES00010000001N00000000000000020150122
201501260060000900000000000000017984000000000000000179849900000000000000000000Consumidor Final              000000000040000000000000040000000000000000000000000000000000000000000000000000000000000000000000000000000000000000000000PES00010000001N00000000000000020150205
201501260060000900000000000000017992000000000000000179929900000000000000000000Consumidor Final              000000000040000000000000040000000000000000000000000000000000000000000000000000000000000000000000000000000000000000000000PES00010000001N00000000000000020150205
201501270060000700000000000000389873000000000000003898739900000000000000000000Consumidor Final              000000000040000000000000040000000000000000000000000000000000000000000000000000000000000000000000000000000000000000000000PES00010000001N00000000000000020150206
201501270060000700000000000000389874000000000000003898749900000000000000000000Consumidor Final              000000000035000000000000035000000000000000000000000000000000000000000000000000000000000000000000000000000000000000000000PES00010000001N00000000000000020150206
201501270060000600000000000000600594000000000000006005949900000000000000000000Consumidor Final              000000000040000000000000040000000000000000000000000000000000000000000000000000000000000000000000000000000000000000000000PES00010000001N00000000000000020150206
201501270060000600000000000000600595000000000000006005959900000000000000000000Consumidor Final              000000000040000000000000040000000000000000000000000000000000000000000000000000000000000000000000000000000000000000000000PES00010000001N00000000000000020150206
201501270060000600000000000000600596000000000000006005969900000000000000000000Consumidor Final              000000000040000000000000040000000000000000000000000000000000000000000000000000000000000000000000000000000000000000000000PES00010000001N00000000000000020150206
201501270010000600000000000000004601000000000000000046018000000000030711656398NOVAMER SRL                   000000000040000000000000040000000000000000000000000000000000000000000000000000000000000000000000000000000000000000000000PES00010000001N00000000000000020150206
201501270060000600000000000000600597000000000000006005979900000000000000000000Consumidor Final              000000000043000000000000043000000000000000000000000000000000000000000000000000000000000000000000000000000000000000000000PES00010000001N00000000000000020150206
201501270060000600000000000000600598000000000000006005989900000000000000000000Consumidor Final              000000000040000000000000040000000000000000000000000000000000000000000000000000000000000000000000000000000000000000000000PES00010000001N00000000000000020150206
201501270060000700000000000000389882000000000000003898829900000000000000000000Consumidor Final              000000000040000000000000040000000000000000000000000000000000000000000000000000000000000000000000000000000000000000000000PES00010000001N00000000000000020150206
201501270060000800000000000000121776000000000000001217769900000000000000000000Consumidor Final              000000000035000000000000035000000000000000000000000000000000000000000000000000000000000000000000000000000000000000000000PES00010000001N00000000000000020150206
201501270060000800000000000000121777000000000000001217779900000000000000000000Consumidor Final              000000000035000000000000035000000000000000000000000000000000000000000000000000000000000000000000000000000000000000000000PES00010000001N00000000000000020150206
201501270060000800000000000000121778000000000000001217789900000000000000000000Consumidor Final              000000000035000000000000035000000000000000000000000000000000000000000000000000000000000000000000000000000000000000000000PES00010000001N00000000000000020150206
201501010060000600000000000000595387000000000000005953879900000000000000000000Consumidor Final              000000000040000000000000040000000000000000000000000000000000000000000000000000000000000000000000000000000000000000000000PES00010000001N00000000000000020150111
201501010060000700000000000000384646000000000000003846469900000000000000000000Consumidor Final              000000000040000000000000040000000000000000000000000000000000000000000000000000000000000000000000000000000000000000000000PES00010000001N00000000000000020150111
201501010060000700000000000000384655000000000000003846559900000000000000000000Consumidor Final              000000000043000000000000043000000000000000000000000000000000000000000000000000000000000000000000000000000000000000000000PES00010000001N00000000000000020150111
201501010060000700000000000000384657000000000000003846579900000000000000000000Consumidor Final              000000000040000000000000040000000000000000000000000000000000000000000000000000000000000000000000000000000000000000000000PES00010000001N00000000000000020150111
201501010060000700000000000000384658000000000000003846589900000000000000000000Consumidor Final              000000000040000000000000040000000000000000000000000000000000000000000000000000000000000000000000000000000000000000000000PES00010000001N00000000000000020150111
201501010060000700000000000000384659000000000000003846599900000000000000000000Consumidor Final              000000000040000000000000040000000000000000000000000000000000000000000000000000000000000000000000000000000000000000000000PES00010000001N00000000000000020150111
201501010060000700000000000000384660000000000000003846609900000000000000000000Consumidor Final              000000000040000000000000040000000000000000000000000000000000000000000000000000000000000000000000000000000000000000000000PES00010000001N00000000000000020150111
201501010060000700000000000000384661000000000000003846619900000000000000000000Consumidor Final              000000000049000000000000049000000000000000000000000000000000000000000000000000000000000000000000000000000000000000000000PES00010000001N00000000000000020150111
201501010060000700000000000000384662000000000000003846629900000000000000000000Consumidor Final              000000000043000000000000043000000000000000000000000000000000000000000000000000000000000000000000000000000000000000000000PES00010000001N00000000000000020150111
201501010060000700000000000000384663000000000000003846639900000000000000000000Consumidor Final              000000000040000000000000040000000000000000000000000000000000000000000000000000000000000000000000000000000000000000000000PES00010000001N00000000000000020150111
201501010060000700000000000000384664000000000000003846649900000000000000000000Consumidor Final              000000000040000000000000040000000000000000000000000000000000000000000000000000000000000000000000000000000000000000000000PES00010000001N00000000000000020150111
201501010060000700000000000000384665000000000000003846659900000000000000000000Consumidor Final              000000000040000000000000040000000000000000000000000000000000000000000000000000000000000000000000000000000000000000000000PES00010000001N00000000000000020150111
201501010060000700000000000000384666000000000000003846669900000000000000000000Consumidor Final              000000000040000000000000040000000000000000000000000000000000000000000000000000000000000000000000000000000000000000000000PES00010000001N00000000000000020150111
201501010060000700000000000000384667000000000000003846679900000000000000000000Consumidor Final              000000000040000000000000040000000000000000000000000000000000000000000000000000000000000000000000000000000000000000000000PES00010000001N00000000000000020150111
201501020060000900000000000000017094000000000000000170949900000000000000000000Consumidor Final              000000000040000000000000040000000000000000000000000000000000000000000000000000000000000000000000000000000000000000000000PES00010000001N00000000000000020150112
201501020060000900000000000000017095000000000000000170959900000000000000000000Consumidor Final              000000000040000000000000040000000000000000000000000000000000000000000000000000000000000000000000000000000000000000000000PES00010000001N00000000000000020150112
201501020060000900000000000000017096000000000000000170969900000000000000000000Consumidor Final              000000000040000000000000040000000000000000000000000000000000000000000000000000000000000000000000000000000000000000000000PES00010000001N00000000000000020150112
201501020060000900000000000000017097000000000000000170979900000000000000000000Consumidor Final              000000000040000000000000040000000000000000000000000000000000000000000000000000000000000000000000000000000000000000000000PES00010000001N00000000000000020150112
201501020060000900000000000000017098000000000000000170989900000000000000000000Consumidor Final              000000000040000000000000040000000000000000000000000000000000000000000000000000000000000000000000000000000000000000000000PES00010000001N00000000000000020150112
201501020060000800000000000000120334000000000000001203349900000000000000000000Consumidor Final              000000000035000000000000035000000000000000000000000000000000000000000000000000000000000000000000000000000000000000000000PES00010000001N00000000000000020150112
201501020060000900000000000000017099000000000000000170999900000000000000000000Consumidor Final              000000000040000000000000040000000000000000000000000000000000000000000000000000000000000000000000000000000000000000000000PES00010000001N00000000000000020150112
201501020060000900000000000000017100000000000000000171009900000000000000000000Consumidor Final              000000000040000000000000040000000000000000000000000000000000000000000000000000000000000000000000000000000000000000000000PES00010000001N00000000000000020150112
201501020060000900000000000000017101000000000000000171019900000000000000000000Consumidor Final              000000000040000000000000040000000000000000000000000000000000000000000000000000000000000000000000000000000000000000000000PES00010000001N00000000000000020150112
201501020060000900000000000000017102000000000000000171029900000000000000000000Consumidor Final              000000000040000000000000040000000000000000000000000000000000000000000000000000000000000000000000000000000000000000000000PES00010000001N00000000000000020150112
201501020060000700000000000000385070000000000000003850709900000000000000000000Consumidor Final              000000000040000000000000040000000000000000000000000000000000000000000000000000000000000000000000000000000000000000000000PES00010000001N00000000000000020150112
201501020060000700000000000000385071000000000000003850719900000000000000000000Consumidor Final              000000000040000000000000040000000000000000000000000000000000000000000000000000000000000000000000000000000000000000000000PES00010000001N00000000000000020150112
201501020060000700000000000000385072000000000000003850729900000000000000000000Consumidor Final              000000000040000000000000040000000000000000000000000000000000000000000000000000000000000000000000000000000000000000000000PES00010000001N00000000000000020150112
201501020060000700000000000000385073000000000000003850739900000000000000000000Consumidor Final              000000000040000000000000040000000000000000000000000000000000000000000000000000000000000000000000000000000000000000000000PES00010000001N00000000000000020150112
201501040060000600000000000000595910000000000000005959109900000000000000000000Consumidor Final              000000000042000000000000042000000000000000000000000000000000000000000000000000000000000000000000000000000000000000000000PES00010000001N00000000000000020150114
201501040060000700000000000000385500000000000000003855009900000000000000000000Consumidor Final              000000000040000000000000040000000000000000000000000000000000000000000000000000000000000000000000000000000000000000000000PES00010000001N00000000000000020150114
201501040060000700000000000000385502000000000000003855029900000000000000000000Consumidor Final              000000000040000000000000040000000000000000000000000000000000000000000000000000000000000000000000000000000000000000000000PES00010000001N00000000000000020150114
201501040060000700000000000000385503000000000000003855039900000000000000000000Consumidor Final              000000000035000000000000035000000000000000000000000000000000000000000000000000000000000000000000000000000000000000000000PES00010000001N00000000000000020150114
201501040060000700000000000000385504000000000000003855049900000000000000000000Consumidor Final              000000000040000000000000040000000000000000000000000000000000000000000000000000000000000000000000000000000000000000000000PES00010000001N00000000000000020150114
201501040060000600000000000000595915000000000000005959159900000000000000000000Consumidor Final              000000000038000000000000038000000000000000000000000000000000000000000000000000000000000000000000000000000000000000000000PES00010000001N00000000000000020150114
201501040060000600000000000000595916000000000000005959169900000000000000000000Consumidor Final              000000000035000000000000035000000000000000000000000000000000000000000000000000000000000000000000000000000000000000000000PES00010000001N00000000000000020150114
201501040060000600000000000000595917000000000000005959179900000000000000000000Consumidor Final              000000000015000000000000015000000000000000000000000000000000000000000000000000000000000000000000000000000000000000000000PES00010000001N00000000000000020150114
201501040060000600000000000000595918000000000000005959189900000000000000000000Consumidor Final              000000000015000000000000015000000000000000000000000000000000000000000000000000000000000000000000000000000000000000000000PES00010000001N00000000000000020150114
201501040060000600000000000000595919000000000000005959199900000000000000000000Consumidor Final              000000000015000000000000015000000000000000000000000000000000000000000000000000000000000000000000000000000000000000000000PES00010000001N00000000000000020150114
201501040060000600000000000000595922000000000000005959229900000000000000000000Consumidor Final              000000000051000000000000051000000000000000000000000000000000000000000000000000000000000000000000000000000000000000000000PES00010000001N00000000000000020150114
201501040060000600000000000000595923000000000000005959239900000000000000000000Consumidor Final              000000000043000000000000043000000000000000000000000000000000000000000000000000000000000000000000000000000000000000000000PES00010000001N00000000000000020150114
201501040060000600000000000000595932000000000000005959329900000000000000000000Consumidor Final              000000000040000000000000040000000000000000000000000000000000000000000000000000000000000000000000000000000000000000000000PES00010000001N00000000000000020150114
201501040060000700000000000000385506000000000000003855069900000000000000000000Consumidor Final              000000000040000000000000040000000000000000000000000000000000000000000000000000000000000000000000000000000000000000000000PES00010000001N00000000000000020150114
201501050060000600000000000000596259000000000000005962599900000000000000000000Consumidor Final              000000000048000000000000048000000000000000000000000000000000000000000000000000000000000000000000000000000000000000000000PES00010000001N00000000000000020150115
201501050060000600000000000000596260000000000000005962609900000000000000000000Consumidor Final              000000000040000000000000040000000000000000000000000000000000000000000000000000000000000000000000000000000000000000000000PES00010000001N00000000000000020150115
201501050060000700000000000000385818000000000000003858189900000000000000000000Consumidor Final              000000000040000000000000040000000000000000000000000000000000000000000000000000000000000000000000000000000000000000000000PES00010000001N00000000000000020150115
201501050060000700000000000000385819000000000000003858199900000000000000000000Consumidor Final              000000000040000000000000040000000000000000000000000000000000000000000000000000000000000000000000000000000000000000000000PES00010000001N00000000000000020150115
201501050060000700000000000000385820000000000000003858209900000000000000000000Consumidor Final              000000000040000000000000040000000000000000000000000000000000000000000000000000000000000000000000000000000000000000000000PES00010000001N00000000000000020150115
201501050060000700000000000000385844000000000000003858449900000000000000000000Consumidor Final              000000000040000000000000040000000000000000000000000000000000000000000000000000000000000000000000000000000000000000000000PES00010000001N00000000000000020150115
201501050060000700000000000000385845000000000000003858459900000000000000000000Consumidor Final              000000000040000000000000040000000000000000000000000000000000000000000000000000000000000000000000000000000000000000000000PES00010000001N00000000000000020150115
201501050060000700000000000000385846000000000000003858469900000000000000000000Consumidor Final              000000000040000000000000040000000000000000000000000000000000000000000000000000000000000000000000000000000000000000000000PES00010000001N00000000000000020150115
201501050060000700000000000000385847000000000000003858479900000000000000000000Consumidor Final              000000000040000000000000040000000000000000000000000000000000000000000000000000000000000000000000000000000000000000000000PES00010000001N00000000000000020150115
201501050060000700000000000000385848000000000000003858489900000000000000000000Consumidor Final              000000000040000000000000040000000000000000000000000000000000000000000000000000000000000000000000000000000000000000000000PES00010000001N00000000000000020150115
201501050060000700000000000000385849000000000000003858499900000000000000000000Consumidor Final              000000000040000000000000040000000000000000000000000000000000000000000000000000000000000000000000000000000000000000000000PES00010000001N00000000000000020150115
201501050060000600000000000000596282000000000000005962829900000000000000000000Consumidor Final              000000000040000000000000040000000000000000000000000000000000000000000000000000000000000000000000000000000000000000000000PES00010000001N00000000000000020150115
201501050060000600000000000000596283000000000000005962839900000000000000000000Consumidor Final              000000000040000000000000040000000000000000000000000000000000000000000000000000000000000000000000000000000000000000000000PES00010000001N00000000000000020150115
201501050060000700000000000000385856000000000000003858569900000000000000000000Consumidor Final              000000000048000000000000048000000000000000000000000000000000000000000000000000000000000000000000000000000000000000000000PES00010000001N00000000000000020150115
201501070060000600000000000000596580000000000000005965809900000000000000000000Consumidor Final              000000000043000000000000043000000000000000000000000000000000000000000000000000000000000000000000000000000000000000000000PES00010000001N00000000000000020150117
201501070060000700000000000000386217000000000000003862179900000000000000000000Consumidor Final              000000000040000000000000040000000000000000000000000000000000000000000000000000000000000000000000000000000000000000000000PES00010000001N00000000000000020150117
201501070060000700000000000000386218000000000000003862189900000000000000000000Consumidor Final              000000000040000000000000040000000000000000000000000000000000000000000000000000000000000000000000000000000000000000000000PES00010000001N00000000000000020150117
201501070060000700000000000000386219000000000000003862199900000000000000000000Consumidor Final              000000000024000000000000024000000000000000000000000000000000000000000000000000000000000000000000000000000000000000000000PES00010000001N00000000000000020150117
201501070060000700000000000000386220000000000000003862209900000000000000000000Consumidor Final              000000000040000000000000040000000000000000000000000000000000000000000000000000000000000000000000000000000000000000000000PES00010000001N00000000000000020150117
201501070060000700000000000000386221000000000000003862219900000000000000000000Consumidor Final              000000000040000000000000040000000000000000000000000000000000000000000000000000000000000000000000000000000000000000000000PES00010000001N00000000000000020150117
201501070060000700000000000000386222000000000000003862229900000000000000000000Consumidor Final              000000000040000000000000040000000000000000000000000000000000000000000000000000000000000000000000000000000000000000000000PES00010000001N00000000000000020150117
201501070060000700000000000000386223000000000000003862239900000000000000000000Consumidor Final              000000000059000000000000059000000000000000000000000000000000000000000000000000000000000000000000000000000000000000000000PES00010000001N00000000000000020150117
201501070060000700000000000000386224000000000000003862249900000000000000000000Consumidor Final              000000000040000000000000040000000000000000000000000000000000000000000000000000000000000000000000000000000000000000000000PES00010000001N00000000000000020150117
201501070060000700000000000000386225000000000000003862259900000000000000000000Consumidor Final              000000000040000000000000040000000000000000000000000000000000000000000000000000000000000000000000000000000000000000000000PES00010000001N00000000000000020150117
201501070060000700000000000000386226000000000000003862269900000000000000000000Consumidor Final              000000000040000000000000040000000000000000000000000000000000000000000000000000000000000000000000000000000000000000000000PES00010000001N00000000000000020150117
201501070060000700000000000000386234000000000000003862349900000000000000000000Consumidor Final              000000000040000000000000040000000000000000000000000000000000000000000000000000000000000000000000000000000000000000000000PES00010000001N00000000000000020150117
201501070060000700000000000000386235000000000000003862359900000000000000000000Consumidor Final              000000000040000000000000040000000000000000000000000000000000000000000000000000000000000000000000000000000000000000000000PES00010000001N00000000000000020150117
201501070060000800000000000000120632000000000000001206329900000000000000000000Consumidor Final              000000000035000000000000035000000000000000000000000000000000000000000000000000000000000000000000000000000000000000000000PES00010000001N00000000000000020150117
201501090060000600000000000000596912000000000000005969129900000000000000000000Consumidor Final              000000000040000000000000040000000000000000000000000000000000000000000000000000000000000000000000000000000000000000000000PES00010000001N00000000000000020150119
201501090060000700000000000000386572000000000000003865729900000000000000000000Consumidor Final              000000000040000000000000040000000000000000000000000000000000000000000000000000000000000000000000000000000000000000000000PES00010000001N00000000000000020150119
201501090060000700000000000000386579000000000000003865799900000000000000000000Consumidor Final              000000000043000000000000043000000000000000000000000000000000000000000000000000000000000000000000000000000000000000000000PES00010000001N00000000000000020150119
201501080060000400000000000000102114000000000000001021149900000000000000000000Consumidor Final              000000000040000000000000040000000000000000000000000000000000000000000000000000000000000000000000000000000000000000000000PES00010000001N00000000000000020150118
201501080060000400000000000000102115000000000000001021159900000000000000000000Consumidor Final              000000000040000000000000040000000000000000000000000000000000000000000000000000000000000000000000000000000000000000000000PES00010000001N00000000000000020150118
201501090060000600000000000000596940000000000000005969409900000000000000000000Consumidor Final              000000000043000000000000043000000000000000000000000000000000000000000000000000000000000000000000000000000000000000000000PES00010000001N00000000000000020150119
201501080060000400000000000000102116000000000000001021169900000000000000000000Consumidor Final              000000000040000000000000040000000000000000000000000000000000000000000000000000000000000000000000000000000000000000000000PES00010000001N00000000000000020150118
201501080060000400000000000000102117000000000000001021179900000000000000000000Consumidor Final              000000000040000000000000040000000000000000000000000000000000000000000000000000000000000000000000000000000000000000000000PES00010000001N00000000000000020150118
201501090060000700000000000000386580000000000000003865809900000000000000000000Consumidor Final              000000000043000000000000043000000000000000000000000000000000000000000000000000000000000000000000000000000000000000000000PES00010000001N00000000000000020150119
201501090060000600000000000000596941000000000000005969419900000000000000000000Consumidor Final              000000000040000000000000040000000000000000000000000000000000000000000000000000000000000000000000000000000000000000000000PES00010000001N00000000000000020150119
201501090060000600000000000000596942000000000000005969429900000000000000000000Consumidor Final              000000000040000000000000040000000000000000000000000000000000000000000000000000000000000000000000000000000000000000000000PES00010000001N00000000000000020150119
201501090060000700000000000000386581000000000000003865819900000000000000000000Consumidor Final              000000000040000000000000040000000000000000000000000000000000000000000000000000000000000000000000000000000000000000000000PES00010000001N00000000000000020150119
201501090060000700000000000000386582000000000000003865829900000000000000000000Consumidor Final              000000000041000000000000041000000000000000000000000000000000000000000000000000000000000000000000000000000000000000000000PES00010000001N00000000000000020150119
201501090060000600000000000000596943000000000000005969439900000000000000000000Consumidor Final              000000000040000000000000040000000000000000000000000000000000000000000000000000000000000000000000000000000000000000000000PES00010000001N00000000000000020150119
201501100060000700000000000000386785000000000000003867859900000000000000000000Consumidor Final              000000000040000000000000040000000000000000000000000000000000000000000000000000000000000000000000000000000000000000000000PES00010000001N00000000000000020150120
201501100060000700000000000000386786000000000000003867869900000000000000000000Consumidor Final              000000000040000000000000040000000000000000000000000000000000000000000000000000000000000000000000000000000000000000000000PES00010000001N00000000000000020150120
201501100060000700000000000000386795000000000000003867959900000000000000000000Consumidor Final              000000000040000000000000040000000000000000000000000000000000000000000000000000000000000000000000000000000000000000000000PES00010000001N00000000000000020150120
201501100060000700000000000000386796000000000000003867969900000000000000000000Consumidor Final              000000000040000000000000040000000000000000000000000000000000000000000000000000000000000000000000000000000000000000000000PES00010000001N00000000000000020150120
201501100060000700000000000000386797000000000000003867979900000000000000000000Consumidor Final              000000000040000000000000040000000000000000000000000000000000000000000000000000000000000000000000000000000000000000000000PES00010000001N00000000000000020150120
201501100060000700000000000000386798000000000000003867989900000000000000000000Consumidor Final              000000000048000000000000048000000000000000000000000000000000000000000000000000000000000000000000000000000000000000000000PES00010000001N00000000000000020150120
201501100060000700000000000000386799000000000000003867999900000000000000000000Consumidor Final              000000000040000000000000040000000000000000000000000000000000000000000000000000000000000000000000000000000000000000000000PES00010000001N00000000000000020150120
201501100060000700000000000000386800000000000000003868009900000000000000000000Consumidor Final              000000000040000000000000040000000000000000000000000000000000000000000000000000000000000000000000000000000000000000000000PES00010000001N00000000000000020150120
201501100060000700000000000000386801000000000000003868019900000000000000000000Consumidor Final              000000000040000000000000040000000000000000000000000000000000000000000000000000000000000000000000000000000000000000000000PES00010000001N00000000000000020150120
201501100060000600000000000000597282000000000000005972829900000000000000000000Consumidor Final              000000000040000000000000040000000000000000000000000000000000000000000000000000000000000000000000000000000000000000000000PES00010000001N00000000000000020150120
201501100060000700000000000000386802000000000000003868029900000000000000000000Consumidor Final              000000000051000000000000051000000000000000000000000000000000000000000000000000000000000000000000000000000000000000000000PES00010000001N00000000000000020150120
201501100060000700000000000000386803000000000000003868039900000000000000000000Consumidor Final              000000000024000000000000024000000000000000000000000000000000000000000000000000000000000000000000000000000000000000000000PES00010000001N00000000000000020150120
201501100060000600000000000000597283000000000000005972839900000000000000000000Consumidor Final              000000000040000000000000040000000000000000000000000000000000000000000000000000000000000000000000000000000000000000000000PES00010000001N00000000000000020150120
201501100060000600000000000000597284000000000000005972849900000000000000000000Consumidor Final              000000000040000000000000040000000000000000000000000000000000000000000000000000000000000000000000000000000000000000000000PES00010000001N00000000000000020150120
201501010060000600000000000000595397000000000000005953979900000000000000000000Consumidor Final              000000000040000000000000040000000000000000000000000000000000000000000000000000000000000000000000000000000000000000000000PES00010000001N00000000000000020150111
201501010060000700000000000000384627000000000000003846279900000000000000000000Consumidor Final              000000000043000000000000043000000000000000000000000000000000000000000000000000000000000000000000000000000000000000000000PES00010000001N00000000000000020150111
201501010060000700000000000000384628000000000000003846289900000000000000000000Consumidor Final              000000000028000000000000028000000000000000000000000000000000000000000000000000000000000000000000000000000000000000000000PES00010000001N00000000000000020150111
201501010060000700000000000000384629000000000000003846299900000000000000000000Consumidor Final              000000000028000000000000028000000000000000000000000000000000000000000000000000000000000000000000000000000000000000000000PES00010000001N00000000000000020150111
201501010060000700000000000000384630000000000000003846309900000000000000000000Consumidor Final              000000000040000000000000040000000000000000000000000000000000000000000000000000000000000000000000000000000000000000000000PES00010000001N00000000000000020150111
201501010060000700000000000000384644000000000000003846449900000000000000000000Consumidor Final              000000000040000000000000040000000000000000000000000000000000000000000000000000000000000000000000000000000000000000000000PES00010000001N00000000000000020150111
201501010060000700000000000000384645000000000000003846459900000000000000000000Consumidor Final              000000000040000000000000040000000000000000000000000000000000000000000000000000000000000000000000000000000000000000000000PES00010000001N00000000000000020150111
201501010060000600000000000000595389000000000000005953899900000000000000000000Consumidor Final              000000000040000000000000040000000000000000000000000000000000000000000000000000000000000000000000000000000000000000000000PES00010000001N00000000000000020150111
201501010060000600000000000000595390000000000000005953909900000000000000000000Consumidor Final              000000000035000000000000035000000000000000000000000000000000000000000000000000000000000000000000000000000000000000000000PES00010000001N00000000000000020150111
201501010060000600000000000000595391000000000000005953919900000000000000000000Consumidor Final              000000000040000000000000040000000000000000000000000000000000000000000000000000000000000000000000000000000000000000000000PES00010000001N00000000000000020150111
201501010060000600000000000000595392000000000000005953929900000000000000000000Consumidor Final              000000000040000000000000040000000000000000000000000000000000000000000000000000000000000000000000000000000000000000000000PES00010000001N00000000000000020150111
201501010060000600000000000000595393000000000000005953939900000000000000000000Consumidor Final              000000000040000000000000040000000000000000000000000000000000000000000000000000000000000000000000000000000000000000000000PES00010000001N00000000000000020150111
201501010060000600000000000000595394000000000000005953949900000000000000000000Consumidor Final              000000000042000000000000042000000000000000000000000000000000000000000000000000000000000000000000000000000000000000000000PES00010000001N00000000000000020150111
201501010060000600000000000000595395000000000000005953959900000000000000000000Consumidor Final              000000000035000000000000035000000000000000000000000000000000000000000000000000000000000000000000000000000000000000000000PES00010000001N00000000000000020150111
201501010060000600000000000000595398000000000000005953989900000000000000000000Consumidor Final              000000000040000000000000040000000000000000000000000000000000000000000000000000000000000000000000000000000000000000000000PES00010000001N00000000000000020150111
201501010060000600000000000000595399000000000000005953999900000000000000000000Consumidor Final              000000000040000000000000040000000000000000000000000000000000000000000000000000000000000000000000000000000000000000000000PES00010000001N00000000000000020150111
201501010060000600000000000000595400000000000000005954009900000000000000000000Consumidor Final              000000000040000000000000040000000000000000000000000000000000000000000000000000000000000000000000000000000000000000000000PES00010000001N00000000000000020150111
201501010060000600000000000000595401000000000000005954019900000000000000000000Consumidor Final              000000000055000000000000055000000000000000000000000000000000000000000000000000000000000000000000000000000000000000000000PES00010000001N00000000000000020150111
201501010060000600000000000000595384000000000000005953849900000000000000000000Consumidor Final              000000000040000000000000040000000000000000000000000000000000000000000000000000000000000000000000000000000000000000000000PES00010000001N00000000000000020150111
201501010060000600000000000000595385000000000000005953859900000000000000000000Consumidor Final              000000000040000000000000040000000000000000000000000000000000000000000000000000000000000000000000000000000000000000000000PES00010000001N00000000000000020150111
201501010060000600000000000000595386000000000000005953869900000000000000000000Consumidor Final              000000000040000000000000040000000000000000000000000000000000000000000000000000000000000000000000000000000000000000000000PES00010000001N00000000000000020150111
201501010060000600000000000000595388000000000000005953889900000000000000000000Consumidor Final              000000000040000000000000040000000000000000000000000000000000000000000000000000000000000000000000000000000000000000000000PES00010000001N00000000000000020150111
201501010060000600000000000000595396000000000000005953969900000000000000000000Consumidor Final              000000000040000000000000040000000000000000000000000000000000000000000000000000000000000000000000000000000000000000000000PES00010000001N00000000000000020150111
201501010060000700000000000000384677000000000000003846779900000000000000000000Consumidor Final              000000000040000000000000040000000000000000000000000000000000000000000000000000000000000000000000000000000000000000000000PES00010000001N00000000000000020150111
201501010060000700000000000000384678000000000000003846789900000000000000000000Consumidor Final              000000000052000000000000052000000000000000000000000000000000000000000000000000000000000000000000000000000000000000000000PES00010000001N00000000000000020150111
201501010060000700000000000000384679000000000000003846799900000000000000000000Consumidor Final              000000000040000000000000040000000000000000000000000000000000000000000000000000000000000000000000000000000000000000000000PES00010000001N00000000000000020150111
201501010060000700000000000000384680000000000000003846809900000000000000000000Consumidor Final              000000000040000000000000040000000000000000000000000000000000000000000000000000000000000000000000000000000000000000000000PES00010000001N00000000000000020150111
201501010060000700000000000000384681000000000000003846819900000000000000000000Consumidor Final              000000000040000000000000040000000000000000000000000000000000000000000000000000000000000000000000000000000000000000000000PES00010000001N00000000000000020150111
201501010060000700000000000000384685000000000000003846859900000000000000000000Consumidor Final              000000000041000000000000041000000000000000000000000000000000000000000000000000000000000000000000000000000000000000000000PES00010000001N00000000000000020150111
201501010060000700000000000000384686000000000000003846869900000000000000000000Consumidor Final              000000000041000000000000041000000000000000000000000000000000000000000000000000000000000000000000000000000000000000000000PES00010000001N00000000000000020150111
201501010060000700000000000000384687000000000000003846879900000000000000000000Consumidor Final              000000000041000000000000041000000000000000000000000000000000000000000000000000000000000000000000000000000000000000000000PES00010000001N00000000000000020150111
201501010060000700000000000000384688000000000000003846889900000000000000000000Consumidor Final              000000000040000000000000040000000000000000000000000000000000000000000000000000000000000000000000000000000000000000000000PES00010000001N00000000000000020150111
201501010060000700000000000000384689000000000000003846899900000000000000000000Consumidor Final              000000000040000000000000040000000000000000000000000000000000000000000000000000000000000000000000000000000000000000000000PES00010000001N00000000000000020150111
201501010060000800000000000000120240000000000000001202409900000000000000000000Consumidor Final              000000000035000000000000035000000000000000000000000000000000000000000000000000000000000000000000000000000000000000000000PES00010000001N00000000000000020150111
201501010060000800000000000000120241000000000000001202419900000000000000000000Consumidor Final              000000000035000000000000035000000000000000000000000000000000000000000000000000000000000000000000000000000000000000000000PES00010000001N00000000000000020150111
201501010060000600000000000000595402000000000000005954029900000000000000000000Consumidor Final              000000000040000000000000040000000000000000000000000000000000000000000000000000000000000000000000000000000000000000000000PES00010000001N00000000000000020150111
201501010060000600000000000000595403000000000000005954039900000000000000000000Consumidor Final              000000000063000000000000063000000000000000000000000000000000000000000000000000000000000000000000000000000000000000000000PES00010000001N00000000000000020150111
201501010060000600000000000000595404000000000000005954049900000000000000000000Consumidor Final              000000000015000000000000015000000000000000000000000000000000000000000000000000000000000000000000000000000000000000000000PES00010000001N00000000000000020150111
201501010060000600000000000000595405000000000000005954059900000000000000000000Consumidor Final              000000000015000000000000015000000000000000000000000000000000000000000000000000000000000000000000000000000000000000000000PES00010000001N00000000000000020150111
201501010060000600000000000000595406000000000000005954069900000000000000000000Consumidor Final              000000000063000000000000063000000000000000000000000000000000000000000000000000000000000000000000000000000000000000000000PES00010000001N00000000000000020150111
201501010060000600000000000000595407000000000000005954079900000000000000000000Consumidor Final              000000000040000000000000040000000000000000000000000000000000000000000000000000000000000000000000000000000000000000000000PES00010000001N00000000000000020150111
201501010060000700000000000000384606000000000000003846069900000000000000000000Consumidor Final              000000000040000000000000040000000000000000000000000000000000000000000000000000000000000000000000000000000000000000000000PES00010000001N00000000000000020150111
201501010060000700000000000000384607000000000000003846079900000000000000000000Consumidor Final              000000000040000000000000040000000000000000000000000000000000000000000000000000000000000000000000000000000000000000000000PES00010000001N00000000000000020150111
201501010060000700000000000000384608000000000000003846089900000000000000000000Consumidor Final              000000000040000000000000040000000000000000000000000000000000000000000000000000000000000000000000000000000000000000000000PES00010000001N00000000000000020150111
201501010060000700000000000000384609000000000000003846099900000000000000000000Consumidor Final              000000000040000000000000040000000000000000000000000000000000000000000000000000000000000000000000000000000000000000000000PES00010000001N00000000000000020150111
201501010060000700000000000000384672000000000000003846729900000000000000000000Consumidor Final              000000000040000000000000040000000000000000000000000000000000000000000000000000000000000000000000000000000000000000000000PES00010000001N00000000000000020150111
201501010060000700000000000000384673000000000000003846739900000000000000000000Consumidor Final              000000000040000000000000040000000000000000000000000000000000000000000000000000000000000000000000000000000000000000000000PES00010000001N00000000000000020150111
201501010060000700000000000000384674000000000000003846749900000000000000000000Consumidor Final              000000000040000000000000040000000000000000000000000000000000000000000000000000000000000000000000000000000000000000000000PES00010000001N00000000000000020150111
201501010060000700000000000000384675000000000000003846759900000000000000000000Consumidor Final              000000000040000000000000040000000000000000000000000000000000000000000000000000000000000000000000000000000000000000000000PES00010000001N00000000000000020150111
201501010060000600000000000000595408000000000000005954089900000000000000000000Consumidor Final              000000000040000000000000040000000000000000000000000000000000000000000000000000000000000000000000000000000000000000000000PES00010000001N00000000000000020150111
201501010060000600000000000000595409000000000000005954099900000000000000000000Consumidor Final              000000000035000000000000035000000000000000000000000000000000000000000000000000000000000000000000000000000000000000000000PES00010000001N00000000000000020150111
201501010060000600000000000000595410000000000000005954109900000000000000000000Consumidor Final              000000000035000000000000035000000000000000000000000000000000000000000000000000000000000000000000000000000000000000000000PES00010000001N00000000000000020150111
201501010060000600000000000000595411000000000000005954119900000000000000000000Consumidor Final              000000000040000000000000040000000000000000000000000000000000000000000000000000000000000000000000000000000000000000000000PES00010000001N00000000000000020150111
201501010060000600000000000000595412000000000000005954129900000000000000000000Consumidor Final              000000000040000000000000040000000000000000000000000000000000000000000000000000000000000000000000000000000000000000000000PES00010000001N00000000000000020150111
201501010060000700000000000000384604000000000000003846049900000000000000000000Consumidor Final              000000000040000000000000040000000000000000000000000000000000000000000000000000000000000000000000000000000000000000000000PES00010000001N00000000000000020150111
201501010060000700000000000000384605000000000000003846059900000000000000000000Consumidor Final              000000000048000000000000048000000000000000000000000000000000000000000000000000000000000000000000000000000000000000000000PES00010000001N00000000000000020150111
201501010060000800000000000000120234000000000000001202349900000000000000000000Consumidor Final              000000000035000000000000035000000000000000000000000000000000000000000000000000000000000000000000000000000000000000000000PES00010000001N00000000000000020150111
201501010060000700000000000000384625000000000000003846259900000000000000000000Consumidor Final              000000000040000000000000040000000000000000000000000000000000000000000000000000000000000000000000000000000000000000000000PES00010000001N00000000000000020150111
201501010060000700000000000000384626000000000000003846269900000000000000000000Consumidor Final              000000000040000000000000040000000000000000000000000000000000000000000000000000000000000000000000000000000000000000000000PES00010000001N00000000000000020150111
201501010060000800000000000000120239000000000000001202399900000000000000000000Consumidor Final              000000000035000000000000035000000000000000000000000000000000000000000000000000000000000000000000000000000000000000000000PES00010000001N00000000000000020150111
201501010060000700000000000000384653000000000000003846539900000000000000000000Consumidor Final              000000000040000000000000040000000000000000000000000000000000000000000000000000000000000000000000000000000000000000000000PES00010000001N00000000000000020150111
201501010060000700000000000000384654000000000000003846549900000000000000000000Consumidor Final              000000000024000000000000024000000000000000000000000000000000000000000000000000000000000000000000000000000000000000000000PES00010000001N00000000000000020150111
201501010060000700000000000000384656000000000000003846569900000000000000000000Consumidor Final              000000000040000000000000040000000000000000000000000000000000000000000000000000000000000000000000000000000000000000000000PES00010000001N00000000000000020150111
201501010060000700000000000000384610000000000000003846109900000000000000000000Consumidor Final              000000000040000000000000040000000000000000000000000000000000000000000000000000000000000000000000000000000000000000000000PES00010000001N00000000000000020150111
201501010060000800000000000000120235000000000000001202359900000000000000000000Consumidor Final              000000000035000000000000035000000000000000000000000000000000000000000000000000000000000000000000000000000000000000000000PES00010000001N00000000000000020150111
201501010060000800000000000000120236000000000000001202369900000000000000000000Consumidor Final              000000000035000000000000035000000000000000000000000000000000000000000000000000000000000000000000000000000000000000000000PES00010000001N00000000000000020150111
201501010060000800000000000000120237000000000000001202379900000000000000000000Consumidor Final              000000000035000000000000035000000000000000000000000000000000000000000000000000000000000000000000000000000000000000000000PES00010000001N00000000000000020150111
201501010060000700000000000000384631000000000000003846319900000000000000000000Consumidor Final              000000000040000000000000040000000000000000000000000000000000000000000000000000000000000000000000000000000000000000000000PES00010000001N00000000000000020150111
201501010060000700000000000000384632000000000000003846329900000000000000000000Consumidor Final              000000000040000000000000040000000000000000000000000000000000000000000000000000000000000000000000000000000000000000000000PES00010000001N00000000000000020150111
201501010060000700000000000000384633000000000000003846339900000000000000000000Consumidor Final              000000000048000000000000048000000000000000000000000000000000000000000000000000000000000000000000000000000000000000000000PES00010000001N00000000000000020150111
201501010060000700000000000000384634000000000000003846349900000000000000000000Consumidor Final              000000000040000000000000040000000000000000000000000000000000000000000000000000000000000000000000000000000000000000000000PES00010000001N00000000000000020150111
201501010060000700000000000000384635000000000000003846359900000000000000000000Consumidor Final              000000000040000000000000040000000000000000000000000000000000000000000000000000000000000000000000000000000000000000000000PES00010000001N00000000000000020150111
201501010060000700000000000000384639000000000000003846399900000000000000000000Consumidor Final              000000000040000000000000040000000000000000000000000000000000000000000000000000000000000000000000000000000000000000000000PES00010000001N00000000000000020150111
201501010060000700000000000000384668000000000000003846689900000000000000000000Consumidor Final              000000000040000000000000040000000000000000000000000000000000000000000000000000000000000000000000000000000000000000000000PES00010000001N00000000000000020150111
201501010060000700000000000000384669000000000000003846699900000000000000000000Consumidor Final              000000000040000000000000040000000000000000000000000000000000000000000000000000000000000000000000000000000000000000000000PES00010000001N00000000000000020150111
201501010060000700000000000000384670000000000000003846709900000000000000000000Consumidor Final              000000000043000000000000043000000000000000000000000000000000000000000000000000000000000000000000000000000000000000000000PES00010000001N00000000000000020150111
201501010060000700000000000000384671000000000000003846719900000000000000000000Consumidor Final              000000000040000000000000040000000000000000000000000000000000000000000000000000000000000000000000000000000000000000000000PES00010000001N00000000000000020150111
201501010060000700000000000000384611000000000000003846119900000000000000000000Consumidor Final              000000000040000000000000040000000000000000000000000000000000000000000000000000000000000000000000000000000000000000000000PES00010000001N00000000000000020150111
201501010060000700000000000000384612000000000000003846129900000000000000000000Consumidor Final              000000000040000000000000040000000000000000000000000000000000000000000000000000000000000000000000000000000000000000000000PES00010000001N00000000000000020150111
201501010060000700000000000000384613000000000000003846139900000000000000000000Consumidor Final              000000000040000000000000040000000000000000000000000000000000000000000000000000000000000000000000000000000000000000000000PES00010000001N00000000000000020150111
201501010060000700000000000000384614000000000000003846149900000000000000000000Consumidor Final              000000000040000000000000040000000000000000000000000000000000000000000000000000000000000000000000000000000000000000000000PES00010000001N00000000000000020150111
201501010060000700000000000000384615000000000000003846159900000000000000000000Consumidor Final              000000000040000000000000040000000000000000000000000000000000000000000000000000000000000000000000000000000000000000000000PES00010000001N00000000000000020150111
201501010060000700000000000000384616000000000000003846169900000000000000000000Consumidor Final              000000000040000000000000040000000000000000000000000000000000000000000000000000000000000000000000000000000000000000000000PES00010000001N00000000000000020150111
201501010060000700000000000000384617000000000000003846179900000000000000000000Consumidor Final              000000000040000000000000040000000000000000000000000000000000000000000000000000000000000000000000000000000000000000000000PES00010000001N00000000000000020150111
201501010060000700000000000000384618000000000000003846189900000000000000000000Consumidor Final              000000000040000000000000040000000000000000000000000000000000000000000000000000000000000000000000000000000000000000000000PES00010000001N00000000000000020150111
201501010060000700000000000000384619000000000000003846199900000000000000000000Consumidor Final              000000000040000000000000040000000000000000000000000000000000000000000000000000000000000000000000000000000000000000000000PES00010000001N00000000000000020150111
201501010060000700000000000000384620000000000000003846209900000000000000000000Consumidor Final              000000000040000000000000040000000000000000000000000000000000000000000000000000000000000000000000000000000000000000000000PES00010000001N00000000000000020150111
201501010060000700000000000000384621000000000000003846219900000000000000000000Consumidor Final              000000000040000000000000040000000000000000000000000000000000000000000000000000000000000000000000000000000000000000000000PES00010000001N00000000000000020150111
201501010060000700000000000000384622000000000000003846229900000000000000000000Consumidor Final              000000000040000000000000040000000000000000000000000000000000000000000000000000000000000000000000000000000000000000000000PES00010000001N00000000000000020150111
201501010060000700000000000000384623000000000000003846239900000000000000000000Consumidor Final              000000000040000000000000040000000000000000000000000000000000000000000000000000000000000000000000000000000000000000000000PES00010000001N00000000000000020150111
201501010060000700000000000000384624000000000000003846249900000000000000000000Consumidor Final              000000000040000000000000040000000000000000000000000000000000000000000000000000000000000000000000000000000000000000000000PES00010000001N00000000000000020150111
201501010060000800000000000000120238000000000000001202389900000000000000000000Consumidor Final              000000000035000000000000035000000000000000000000000000000000000000000000000000000000000000000000000000000000000000000000PES00010000001N00000000000000020150111
201501010060000700000000000000384636000000000000003846369900000000000000000000Consumidor Final              000000000040000000000000040000000000000000000000000000000000000000000000000000000000000000000000000000000000000000000000PES00010000001N00000000000000020150111
201501010060000700000000000000384637000000000000003846379900000000000000000000Consumidor Final              000000000040000000000000040000000000000000000000000000000000000000000000000000000000000000000000000000000000000000000000PES00010000001N00000000000000020150111
201501010060000700000000000000384638000000000000003846389900000000000000000000Consumidor Final              000000000040000000000000040000000000000000000000000000000000000000000000000000000000000000000000000000000000000000000000PES00010000001N00000000000000020150111
201501010060000700000000000000384640000000000000003846409900000000000000000000Consumidor Final              000000000040000000000000040000000000000000000000000000000000000000000000000000000000000000000000000000000000000000000000PES00010000001N00000000000000020150111
201501010060000700000000000000384641000000000000003846419900000000000000000000Consumidor Final              000000000040000000000000040000000000000000000000000000000000000000000000000000000000000000000000000000000000000000000000PES00010000001N00000000000000020150111
201501010060000700000000000000384642000000000000003846429900000000000000000000Consumidor Final              000000000048000000000000048000000000000000000000000000000000000000000000000000000000000000000000000000000000000000000000PES00010000001N00000000000000020150111
201501010060000700000000000000384643000000000000003846439900000000000000000000Consumidor Final              000000000040000000000000040000000000000000000000000000000000000000000000000000000000000000000000000000000000000000000000PES00010000001N00000000000000020150111
201501010060000700000000000000384647000000000000003846479900000000000000000000Consumidor Final              000000000043000000000000043000000000000000000000000000000000000000000000000000000000000000000000000000000000000000000000PES00010000001N00000000000000020150111
201501010060000700000000000000384648000000000000003846489900000000000000000000Consumidor Final              000000000040000000000000040000000000000000000000000000000000000000000000000000000000000000000000000000000000000000000000PES00010000001N00000000000000020150111
201501010060000700000000000000384649000000000000003846499900000000000000000000Consumidor Final              000000000040000000000000040000000000000000000000000000000000000000000000000000000000000000000000000000000000000000000000PES00010000001N00000000000000020150111
201501010060000700000000000000384650000000000000003846509900000000000000000000Consumidor Final              000000000040000000000000040000000000000000000000000000000000000000000000000000000000000000000000000000000000000000000000PES00010000001N00000000000000020150111
201501010060000700000000000000384651000000000000003846519900000000000000000000Consumidor Final              000000000040000000000000040000000000000000000000000000000000000000000000000000000000000000000000000000000000000000000000PES00010000001N00000000000000020150111
201501010060000700000000000000384652000000000000003846529900000000000000000000Consumidor Final              000000000040000000000000040000000000000000000000000000000000000000000000000000000000000000000000000000000000000000000000PES00010000001N00000000000000020150111
201501010060000700000000000000384676000000000000003846769900000000000000000000Consumidor Final              000000000040000000000000040000000000000000000000000000000000000000000000000000000000000000000000000000000000000000000000PES00010000001N00000000000000020150111
201501300060000700000000000000390479000000000000003904799900000000000000000000Consumidor Final              000000000051000000000000051000000000000000000000000000000000000000000000000000000000000000000000000000000000000000000000PES00010000001N00000000000000020150209
201501300060000700000000000000390480000000000000003904809900000000000000000000Consumidor Final              000000000040000000000000040000000000000000000000000000000000000000000000000000000000000000000000000000000000000000000000PES00010000001N00000000000000020150209
201501300060000300000000000000102206000000000000001022069900000000000000000000Consumidor Final              000000000040000000000000040000000000000000000000000000000000000000000000000000000000000000000000000000000000000000000000PES00010000001N00000000000000020150209
201501300060000300000000000000102207000000000000001022079900000000000000000000Consumidor Final              000000000040000000000000040000000000000000000000000000000000000000000000000000000000000000000000000000000000000000000000PES00010000001N00000000000000020150209
201501300060000300000000000000102208000000000000001022089900000000000000000000Consumidor Final              000000000040000000000000040000000000000000000000000000000000000000000000000000000000000000000000000000000000000000000000PES00010000001N00000000000000020150209
201501300060000600000000000000601181000000000000006011819900000000000000000000Consumidor Final              000000000040000000000000040000000000000000000000000000000000000000000000000000000000000000000000000000000000000000000000PES00010000001N00000000000000020150209
201501300060000800000000000000121932000000000000001219329900000000000000000000Consumidor Final              000000000035000000000000035000000000000000000000000000000000000000000000000000000000000000000000000000000000000000000000PES00010000001N00000000000000020150209
201501300060000600000000000000601182000000000000006011829900000000000000000000Consumidor Final              000000000040000000000000040000000000000000000000000000000000000000000000000000000000000000000000000000000000000000000000PES00010000001N00000000000000020150209
201501300060000800000000000000121933000000000000001219339900000000000000000000Consumidor Final              000000000035000000000000035000000000000000000000000000000000000000000000000000000000000000000000000000000000000000000000PES00010000001N00000000000000020150209
201501300060000600000000000000601183000000000000006011839900000000000000000000Consumidor Final              000000000040000000000000040000000000000000000000000000000000000000000000000000000000000000000000000000000000000000000000PES00010000001N00000000000000020150209
201501300060000700000000000000390486000000000000003904869900000000000000000000Consumidor Final              000000000040000000000000040000000000000000000000000000000000000000000000000000000000000000000000000000000000000000000000PES00010000001N00000000000000020150209
201501300060000700000000000000390474000000000000003904749900000000000000000000Consumidor Final              000000000041000000000000041000000000000000000000000000000000000000000000000000000000000000000000000000000000000000000000PES00010000001N00000000000000020150209
201501300060000700000000000000390475000000000000003904759900000000000000000000Consumidor Final              000000000040000000000000040000000000000000000000000000000000000000000000000000000000000000000000000000000000000000000000PES00010000001N00000000000000020150209
201501300060000700000000000000390476000000000000003904769900000000000000000000Consumidor Final              000000000040000000000000040000000000000000000000000000000000000000000000000000000000000000000000000000000000000000000000PES00010000001N00000000000000020150209
201501300060000700000000000000390477000000000000003904779900000000000000000000Consumidor Final              000000000040000000000000040000000000000000000000000000000000000000000000000000000000000000000000000000000000000000000000PES00010000001N00000000000000020150209
201501300060000700000000000000390478000000000000003904789900000000000000000000Consumidor Final              000000000040000000000000040000000000000000000000000000000000000000000000000000000000000000000000000000000000000000000000PES00010000001N00000000000000020150209
201501300060000700000000000000390481000000000000003904819900000000000000000000Consumidor Final              000000000040000000000000040000000000000000000000000000000000000000000000000000000000000000000000000000000000000000000000PES00010000001N00000000000000020150209
201501300060000700000000000000390482000000000000003904829900000000000000000000Consumidor Final              000000000040000000000000040000000000000000000000000000000000000000000000000000000000000000000000000000000000000000000000PES00010000001N00000000000000020150209
201501300060000700000000000000390485000000000000003904859900000000000000000000Consumidor Final              000000000043000000000000043000000000000000000000000000000000000000000000000000000000000000000000000000000000000000000000PES00010000001N00000000000000020150209
201501300060000700000000000000390497000000000000003904979900000000000000000000Consumidor Final              000000000040000000000000040000000000000000000000000000000000000000000000000000000000000000000000000000000000000000000000PES00010000001N00000000000000020150209
201501300060000700000000000000390498000000000000003904989900000000000000000000Consumidor Final              000000000048000000000000048000000000000000000000000000000000000000000000000000000000000000000000000000000000000000000000PES00010000001N00000000000000020150209
201501300060000700000000000000390499000000000000003904999900000000000000000000Consumidor Final              000000000048000000000000048000000000000000000000000000000000000000000000000000000000000000000000000000000000000000000000PES00010000001N00000000000000020150209
201501300060000700000000000000390500000000000000003905009900000000000000000000Consumidor Final              000000000048000000000000048000000000000000000000000000000000000000000000000000000000000000000000000000000000000000000000PES00010000001N00000000000000020150209
201501300060000700000000000000390501000000000000003905019900000000000000000000Consumidor Final              000000000043000000000000043000000000000000000000000000000000000000000000000000000000000000000000000000000000000000000000PES00010000001N00000000000000020150209
201501300060000800000000000000121931000000000000001219319900000000000000000000Consumidor Final              000000000035000000000000035000000000000000000000000000000000000000000000000000000000000000000000000000000000000000000000PES00010000001N00000000000000020150209
201501300060000700000000000000390484000000000000003904849900000000000000000000Consumidor Final              000000000040000000000000040000000000000000000000000000000000000000000000000000000000000000000000000000000000000000000000PES00010000001N00000000000000020150209
201501300060000600000000000000601172000000000000006011729900000000000000000000Consumidor Final              000000000040000000000000040000000000000000000000000000000000000000000000000000000000000000000000000000000000000000000000PES00010000001N00000000000000020150209
201501300060000600000000000000601173000000000000006011739900000000000000000000Consumidor Final              000000000040000000000000040000000000000000000000000000000000000000000000000000000000000000000000000000000000000000000000PES00010000001N00000000000000020150209
201501300060000600000000000000601174000000000000006011749900000000000000000000Consumidor Final              000000000048000000000000048000000000000000000000000000000000000000000000000000000000000000000000000000000000000000000000PES00010000001N00000000000000020150209
201501300060000600000000000000601175000000000000006011759900000000000000000000Consumidor Final              000000000040000000000000040000000000000000000000000000000000000000000000000000000000000000000000000000000000000000000000PES00010000001N00000000000000020150209
201501300060000600000000000000601176000000000000006011769900000000000000000000Consumidor Final              000000000043000000000000043000000000000000000000000000000000000000000000000000000000000000000000000000000000000000000000PES00010000001N00000000000000020150209
201501300060000600000000000000601177000000000000006011779900000000000000000000Consumidor Final              000000000040000000000000040000000000000000000000000000000000000000000000000000000000000000000000000000000000000000000000PES00010000001N00000000000000020150209
201501300060000300000000000000102203000000000000001022039900000000000000000000Consumidor Final              000000000040000000000000040000000000000000000000000000000000000000000000000000000000000000000000000000000000000000000000PES00010000001N00000000000000020150209
201501300060000300000000000000102204000000000000001022049900000000000000000000Consumidor Final              000000000040000000000000040000000000000000000000000000000000000000000000000000000000000000000000000000000000000000000000PES00010000001N00000000000000020150209
201501300060000600000000000000601178000000000000006011789900000000000000000000Consumidor Final              000000000040000000000000040000000000000000000000000000000000000000000000000000000000000000000000000000000000000000000000PES00010000001N00000000000000020150209
201501300060000300000000000000102205000000000000001022059900000000000000000000Consumidor Final              000000000040000000000000040000000000000000000000000000000000000000000000000000000000000000000000000000000000000000000000PES00010000001N00000000000000020150209
201501300060000600000000000000601179000000000000006011799900000000000000000000Consumidor Final              000000000040000000000000040000000000000000000000000000000000000000000000000000000000000000000000000000000000000000000000PES00010000001N00000000000000020150209
201501300060000600000000000000601180000000000000006011809900000000000000000000Consumidor Final              000000000040000000000000040000000000000000000000000000000000000000000000000000000000000000000000000000000000000000000000PES00010000001N00000000000000020150209
201501300060000600000000000000601184000000000000006011849900000000000000000000Consumidor Final              000000000048000000000000048000000000000000000000000000000000000000000000000000000000000000000000000000000000000000000000PES00010000001N00000000000000020150209
201501300060000700000000000000390504000000000000003905049900000000000000000000Consumidor Final              000000000040000000000000040000000000000000000000000000000000000000000000000000000000000000000000000000000000000000000000PES00010000001N00000000000000020150209
201501300060000700000000000000390505000000000000003905059900000000000000000000Consumidor Final              000000000040000000000000040000000000000000000000000000000000000000000000000000000000000000000000000000000000000000000000PES00010000001N00000000000000020150209
201501300060000800000000000000121943000000000000001219439900000000000000000000Consumidor Final              000000000035000000000000035000000000000000000000000000000000000000000000000000000000000000000000000000000000000000000000PES00010000001N00000000000000020150209
201501300060000600000000000000601211000000000000006012119900000000000000000000Consumidor Final              000000000040000000000000040000000000000000000000000000000000000000000000000000000000000000000000000000000000000000000000PES00010000001N00000000000000020150209
201501300060000600000000000000601212000000000000006012129900000000000000000000Consumidor Final              000000000040000000000000040000000000000000000000000000000000000000000000000000000000000000000000000000000000000000000000PES00010000001N00000000000000020150209
201501300060000700000000000000390512000000000000003905129900000000000000000000Consumidor Final              000000000067000000000000067000000000000000000000000000000000000000000000000000000000000000000000000000000000000000000000PES00010000001N00000000000000020150209
201501300060000600000000000000601213000000000000006012139900000000000000000000Consumidor Final              000000000040000000000000040000000000000000000000000000000000000000000000000000000000000000000000000000000000000000000000PES00010000001N00000000000000020150209
201501300060000700000000000000390513000000000000003905139900000000000000000000Consumidor Final              000000000040000000000000040000000000000000000000000000000000000000000000000000000000000000000000000000000000000000000000PES00010000001N00000000000000020150209
201501300060000700000000000000390514000000000000003905149900000000000000000000Consumidor Final              000000000043000000000000043000000000000000000000000000000000000000000000000000000000000000000000000000000000000000000000PES00010000001N00000000000000020150209
201501300060000600000000000000601214000000000000006012149900000000000000000000Consumidor Final              000000000052000000000000052000000000000000000000000000000000000000000000000000000000000000000000000000000000000000000000PES00010000001N00000000000000020150209
201501300060000600000000000000601215000000000000006012159900000000000000000000Consumidor Final              000000000040000000000000040000000000000000000000000000000000000000000000000000000000000000000000000000000000000000000000PES00010000001N00000000000000020150209
201501300060000700000000000000390515000000000000003905159900000000000000000000Consumidor Final              000000000040000000000000040000000000000000000000000000000000000000000000000000000000000000000000000000000000000000000000PES00010000001N00000000000000020150209
201501300060000600000000000000601216000000000000006012169900000000000000000000Consumidor Final              000000000040000000000000040000000000000000000000000000000000000000000000000000000000000000000000000000000000000000000000PES00010000001N00000000000000020150209
201501300060000600000000000000601185000000000000006011859900000000000000000000Consumidor Final              000000000040000000000000040000000000000000000000000000000000000000000000000000000000000000000000000000000000000000000000PES00010000001N00000000000000020150209
201501300060000700000000000000390496000000000000003904969900000000000000000000Consumidor Final              000000000048000000000000048000000000000000000000000000000000000000000000000000000000000000000000000000000000000000000000PES00010000001N00000000000000020150209
201501300060000600000000000000601193000000000000006011939900000000000000000000Consumidor Final              000000000048000000000000048000000000000000000000000000000000000000000000000000000000000000000000000000000000000000000000PES00010000001N00000000000000020150209
201501300060000600000000000000601194000000000000006011949900000000000000000000Consumidor Final              000000000040000000000000040000000000000000000000000000000000000000000000000000000000000000000000000000000000000000000000PES00010000001N00000000000000020150209
201501300060000800000000000000121934000000000000001219349900000000000000000000Consumidor Final              000000000035000000000000035000000000000000000000000000000000000000000000000000000000000000000000000000000000000000000000PES00010000001N00000000000000020150209
201501300060000800000000000000121935000000000000001219359900000000000000000000Consumidor Final              000000000035000000000000035000000000000000000000000000000000000000000000000000000000000000000000000000000000000000000000PES00010000001N00000000000000020150209
201501300060000800000000000000121936000000000000001219369900000000000000000000Consumidor Final              000000000035000000000000035000000000000000000000000000000000000000000000000000000000000000000000000000000000000000000000PES00010000001N00000000000000020150209
201501300060000300000000000000102209000000000000001022099900000000000000000000Consumidor Final              000000000040000000000000040000000000000000000000000000000000000000000000000000000000000000000000000000000000000000000000PES00010000001N00000000000000020150209
201501300060000800000000000000121937000000000000001219379900000000000000000000Consumidor Final              000000000035000000000000035000000000000000000000000000000000000000000000000000000000000000000000000000000000000000000000PES00010000001N00000000000000020150209
201501300060000300000000000000102210000000000000001022109900000000000000000000Consumidor Final              000000000040000000000000040000000000000000000000000000000000000000000000000000000000000000000000000000000000000000000000PES00010000001N00000000000000020150209
201501300060000300000000000000102211000000000000001022119900000000000000000000Consumidor Final              000000000043000000000000043000000000000000000000000000000000000000000000000000000000000000000000000000000000000000000000PES00010000001N00000000000000020150209
201501300060000300000000000000102212000000000000001022129900000000000000000000Consumidor Final              000000000043000000000000043000000000000000000000000000000000000000000000000000000000000000000000000000000000000000000000PES00010000001N00000000000000020150209
201501300060000600000000000000601198000000000000006011989900000000000000000000Consumidor Final              000000000047000000000000047000000000000000000000000000000000000000000000000000000000000000000000000000000000000000000000PES00010000001N00000000000000020150209
201501300060000600000000000000601199000000000000006011999900000000000000000000Consumidor Final              000000000048000000000000048000000000000000000000000000000000000000000000000000000000000000000000000000000000000000000000PES00010000001N00000000000000020150209
201501300060000600000000000000601186000000000000006011869900000000000000000000Consumidor Final              000000000040000000000000040000000000000000000000000000000000000000000000000000000000000000000000000000000000000000000000PES00010000001N00000000000000020150209
201501300060000600000000000000601187000000000000006011879900000000000000000000Consumidor Final              000000000040000000000000040000000000000000000000000000000000000000000000000000000000000000000000000000000000000000000000PES00010000001N00000000000000020150209
201501300060000600000000000000601188000000000000006011889900000000000000000000Consumidor Final              000000000040000000000000040000000000000000000000000000000000000000000000000000000000000000000000000000000000000000000000PES00010000001N00000000000000020150209
201501300060000100000000000000184466000000000000001844669900000000000000000000Consumidor Final              000000000048000000000000048000000000000000000000000000000000000000000000000000000000000000000000000000000000000000000000PES00010000001N00000000000000020150209
201501300060000100000000000000184467000000000000001844679900000000000000000000Consumidor Final              000000000057000000000000057000000000000000000000000000000000000000000000000000000000000000000000000000000000000000000000PES00010000001N00000000000000020150209
201501300060000100000000000000184468000000000000001844689900000000000000000000Consumidor Final              000000000047000000000000047000000000000000000000000000000000000000000000000000000000000000000000000000000000000000000000PES00010000001N00000000000000020150209
201501300060000100000000000000184469000000000000001844699900000000000000000000Consumidor Final              000000000040000000000000040000000000000000000000000000000000000000000000000000000000000000000000000000000000000000000000PES00010000001N00000000000000020150209
201501300060000600000000000000601189000000000000006011899900000000000000000000Consumidor Final              000000000040000000000000040000000000000000000000000000000000000000000000000000000000000000000000000000000000000000000000PES00010000001N00000000000000020150209
201501300060000600000000000000601190000000000000006011909900000000000000000000Consumidor Final              000000000040000000000000040000000000000000000000000000000000000000000000000000000000000000000000000000000000000000000000PES00010000001N00000000000000020150209
201501300060000600000000000000601191000000000000006011919900000000000000000000Consumidor Final              000000000024000000000000024000000000000000000000000000000000000000000000000000000000000000000000000000000000000000000000PES00010000001N00000000000000020150209
201501300060000600000000000000601192000000000000006011929900000000000000000000Consumidor Final              000000000040000000000000040000000000000000000000000000000000000000000000000000000000000000000000000000000000000000000000PES00010000001N00000000000000020150209
201501300060000600000000000000601195000000000000006011959900000000000000000000Consumidor Final              000000000040000000000000040000000000000000000000000000000000000000000000000000000000000000000000000000000000000000000000PES00010000001N00000000000000020150209
201501300060000600000000000000601196000000000000006011969900000000000000000000Consumidor Final              000000000040000000000000040000000000000000000000000000000000000000000000000000000000000000000000000000000000000000000000PES00010000001N00000000000000020150209
201501300060000600000000000000601197000000000000006011979900000000000000000000Consumidor Final              000000000043000000000000043000000000000000000000000000000000000000000000000000000000000000000000000000000000000000000000PES00010000001N00000000000000020150209
201501300060000800000000000000121938000000000000001219389900000000000000000000Consumidor Final              000000000035000000000000035000000000000000000000000000000000000000000000000000000000000000000000000000000000000000000000PES00010000001N00000000000000020150209
201501300060000600000000000000601217000000000000006012179900000000000000000000Consumidor Final              000000000040000000000000040000000000000000000000000000000000000000000000000000000000000000000000000000000000000000000000PES00010000001N00000000000000020150209
201501300060000700000000000000390516000000000000003905169900000000000000000000Consumidor Final              000000000040000000000000040000000000000000000000000000000000000000000000000000000000000000000000000000000000000000000000PES00010000001N00000000000000020150209
201501300060000600000000000000601218000000000000006012189900000000000000000000Consumidor Final              000000000040000000000000040000000000000000000000000000000000000000000000000000000000000000000000000000000000000000000000PES00010000001N00000000000000020150209
201501300060000600000000000000601219000000000000006012199900000000000000000000Consumidor Final              000000000040000000000000040000000000000000000000000000000000000000000000000000000000000000000000000000000000000000000000PES00010000001N00000000000000020150209
201501300060000700000000000000390521000000000000003905219900000000000000000000Consumidor Final              000000000040000000000000040000000000000000000000000000000000000000000000000000000000000000000000000000000000000000000000PES00010000001N00000000000000020150209
201501300060000700000000000000390522000000000000003905229900000000000000000000Consumidor Final              000000000041000000000000041000000000000000000000000000000000000000000000000000000000000000000000000000000000000000000000PES00010000001N00000000000000020150209
201501300060000800000000000000121944000000000000001219449900000000000000000000Consumidor Final              000000000035000000000000035000000000000000000000000000000000000000000000000000000000000000000000000000000000000000000000PES00010000001N00000000000000020150209
201501300060000800000000000000121945000000000000001219459900000000000000000000Consumidor Final              000000000035000000000000035000000000000000000000000000000000000000000000000000000000000000000000000000000000000000000000PES00010000001N00000000000000020150209
201501300060000700000000000000390523000000000000003905239900000000000000000000Consumidor Final              000000000019000000000000019000000000000000000000000000000000000000000000000000000000000000000000000000000000000000000000PES00010000001N00000000000000020150209
201501300060000700000000000000390524000000000000003905249900000000000000000000Consumidor Final              000000000040000000000000040000000000000000000000000000000000000000000000000000000000000000000000000000000000000000000000PES00010000001N00000000000000020150209
201501300060000700000000000000390525000000000000003905259900000000000000000000Consumidor Final              000000000040000000000000040000000000000000000000000000000000000000000000000000000000000000000000000000000000000000000000PES00010000001N00000000000000020150209
201501300060000700000000000000390526000000000000003905269900000000000000000000Consumidor Final              000000000040000000000000040000000000000000000000000000000000000000000000000000000000000000000000000000000000000000000000PES00010000001N00000000000000020150209
201501300060000700000000000000390527000000000000003905279900000000000000000000Consumidor Final              000000000040000000000000040000000000000000000000000000000000000000000000000000000000000000000000000000000000000000000000PES00010000001N00000000000000020150209
201501300060000800000000000000121939000000000000001219399900000000000000000000Consumidor Final              000000000035000000000000035000000000000000000000000000000000000000000000000000000000000000000000000000000000000000000000PES00010000001N00000000000000020150209
201501300060000800000000000000121940000000000000001219409900000000000000000000Consumidor Final              000000000035000000000000035000000000000000000000000000000000000000000000000000000000000000000000000000000000000000000000PES00010000001N00000000000000020150209
201501300060000600000000000000601206000000000000006012069900000000000000000000Consumidor Final              000000000040000000000000040000000000000000000000000000000000000000000000000000000000000000000000000000000000000000000000PES00010000001N00000000000000020150209
201501300060000600000000000000601207000000000000006012079900000000000000000000Consumidor Final              000000000040000000000000040000000000000000000000000000000000000000000000000000000000000000000000000000000000000000000000PES00010000001N00000000000000020150209
201501300060000800000000000000121941000000000000001219419900000000000000000000Consumidor Final              000000000035000000000000035000000000000000000000000000000000000000000000000000000000000000000000000000000000000000000000PES00010000001N00000000000000020150209
201501300060000800000000000000121942000000000000001219429900000000000000000000Consumidor Final              000000000035000000000000035000000000000000000000000000000000000000000000000000000000000000000000000000000000000000000000PES00010000001N00000000000000020150209
201501300060000600000000000000601208000000000000006012089900000000000000000000Consumidor Final              000000000040000000000000040000000000000000000000000000000000000000000000000000000000000000000000000000000000000000000000PES00010000001N00000000000000020150209
201501300060000700000000000000390506000000000000003905069900000000000000000000Consumidor Final              000000000040000000000000040000000000000000000000000000000000000000000000000000000000000000000000000000000000000000000000PES00010000001N00000000000000020150209
201501300060000600000000000000601209000000000000006012099900000000000000000000Consumidor Final              000000000040000000000000040000000000000000000000000000000000000000000000000000000000000000000000000000000000000000000000PES00010000001N00000000000000020150209
201501300060000700000000000000390507000000000000003905079900000000000000000000Consumidor Final              000000000043000000000000043000000000000000000000000000000000000000000000000000000000000000000000000000000000000000000000PES00010000001N00000000000000020150209
201501300060000600000000000000601210000000000000006012109900000000000000000000Consumidor Final              000000000040000000000000040000000000000000000000000000000000000000000000000000000000000000000000000000000000000000000000PES00010000001N00000000000000020150209
201501300060000700000000000000390508000000000000003905089900000000000000000000Consumidor Final              000000000040000000000000040000000000000000000000000000000000000000000000000000000000000000000000000000000000000000000000PES00010000001N00000000000000020150209
201501300060000700000000000000390509000000000000003905099900000000000000000000Consumidor Final              000000000040000000000000040000000000000000000000000000000000000000000000000000000000000000000000000000000000000000000000PES00010000001N00000000000000020150209
201501300060000700000000000000390510000000000000003905109900000000000000000000Consumidor Final              000000000047000000000000047000000000000000000000000000000000000000000000000000000000000000000000000000000000000000000000PES00010000001N00000000000000020150209
201501300060000700000000000000390511000000000000003905119900000000000000000000Consumidor Final              000000000040000000000000040000000000000000000000000000000000000000000000000000000000000000000000000000000000000000000000PES00010000001N00000000000000020150209
201501300060000700000000000000390531000000000000003905319900000000000000000000Consumidor Final              000000000040000000000000040000000000000000000000000000000000000000000000000000000000000000000000000000000000000000000000PES00010000001N00000000000000020150209
201501300060000700000000000000390532000000000000003905329900000000000000000000Consumidor Final              000000000040000000000000040000000000000000000000000000000000000000000000000000000000000000000000000000000000000000000000PES00010000001N00000000000000020150209
201501300060000700000000000000390533000000000000003905339900000000000000000000Consumidor Final              000000000065000000000000065000000000000000000000000000000000000000000000000000000000000000000000000000000000000000000000PES00010000001N00000000000000020150209
201501300060000700000000000000390534000000000000003905349900000000000000000000Consumidor Final              000000000043000000000000043000000000000000000000000000000000000000000000000000000000000000000000000000000000000000000000PES00010000001N00000000000000020150209
201501300060000700000000000000390535000000000000003905359900000000000000000000Consumidor Final              000000000040000000000000040000000000000000000000000000000000000000000000000000000000000000000000000000000000000000000000PES00010000001N00000000000000020150209
201501300060000700000000000000390536000000000000003905369900000000000000000000Consumidor Final              000000000040000000000000040000000000000000000000000000000000000000000000000000000000000000000000000000000000000000000000PES00010000001N00000000000000020150209
201501300060000700000000000000390537000000000000003905379900000000000000000000Consumidor Final              000000000040000000000000040000000000000000000000000000000000000000000000000000000000000000000000000000000000000000000000PES00010000001N00000000000000020150209
201501300060000600000000000000601251000000000000006012519900000000000000000000Consumidor Final              000000000040000000000000040000000000000000000000000000000000000000000000000000000000000000000000000000000000000000000000PES00010000001N00000000000000020150209
201501300060000600000000000000601252000000000000006012529900000000000000000000Consumidor Final              000000000040000000000000040000000000000000000000000000000000000000000000000000000000000000000000000000000000000000000000PES00010000001N00000000000000020150209
201501300060000900000000000000018114000000000000000181149900000000000000000000Consumidor Final              000000000040000000000000040000000000000000000000000000000000000000000000000000000000000000000000000000000000000000000000PES00010000001N00000000000000020150209
201501300060000600000000000000601253000000000000006012539900000000000000000000Consumidor Final              000000000040000000000000040000000000000000000000000000000000000000000000000000000000000000000000000000000000000000000000PES00010000001N00000000000000020150209
201501300060000900000000000000018115000000000000000181159900000000000000000000Consumidor Final              000000000040000000000000040000000000000000000000000000000000000000000000000000000000000000000000000000000000000000000000PES00010000001N00000000000000020150209
201501300060000800000000000000121955000000000000001219559900000000000000000000Consumidor Final              000000000035000000000000035000000000000000000000000000000000000000000000000000000000000000000000000000000000000000000000PES00010000001N00000000000000020150209
201501300060000700000000000000390528000000000000003905289900000000000000000000Consumidor Final              000000000040000000000000040000000000000000000000000000000000000000000000000000000000000000000000000000000000000000000000PES00010000001N00000000000000020150209
201501300060000900000000000000018127000000000000000181279900000000000000000000Consumidor Final              000000000048000000000000048000000000000000000000000000000000000000000000000000000000000000000000000000000000000000000000PES00010000001N00000000000000020150209
201501300060000700000000000000390548000000000000003905489900000000000000000000Consumidor Final              000000000041000000000000041000000000000000000000000000000000000000000000000000000000000000000000000000000000000000000000PES00010000001N00000000000000020150209
201501300060000700000000000000390549000000000000003905499900000000000000000000Consumidor Final              000000000038000000000000038000000000000000000000000000000000000000000000000000000000000000000000000000000000000000000000PES00010000001N00000000000000020150209
201501300060000700000000000000390550000000000000003905509900000000000000000000Consumidor Final              000000000041000000000000041000000000000000000000000000000000000000000000000000000000000000000000000000000000000000000000PES00010000001N00000000000000020150209
201501300060000800000000000000121962000000000000001219629900000000000000000000Consumidor Final              000000000035000000000000035000000000000000000000000000000000000000000000000000000000000000000000000000000000000000000000PES00010000001N00000000000000020150209
201501300060000800000000000000121963000000000000001219639900000000000000000000Consumidor Final              000000000035000000000000035000000000000000000000000000000000000000000000000000000000000000000000000000000000000000000000PES00010000001N00000000000000020150209
201501300060000700000000000000390553000000000000003905539900000000000000000000Consumidor Final              000000000040000000000000040000000000000000000000000000000000000000000000000000000000000000000000000000000000000000000000PES00010000001N00000000000000020150209
201501300060000700000000000000390554000000000000003905549900000000000000000000Consumidor Final              000000000040000000000000040000000000000000000000000000000000000000000000000000000000000000000000000000000000000000000000PES00010000001N00000000000000020150209
201501300060000700000000000000390555000000000000003905559900000000000000000000Consumidor Final              000000000040000000000000040000000000000000000000000000000000000000000000000000000000000000000000000000000000000000000000PES00010000001N00000000000000020150209
201501300060000700000000000000390556000000000000003905569900000000000000000000Consumidor Final              000000000040000000000000040000000000000000000000000000000000000000000000000000000000000000000000000000000000000000000000PES00010000001N00000000000000020150209
201501300060000700000000000000390557000000000000003905579900000000000000000000Consumidor Final              000000000040000000000000040000000000000000000000000000000000000000000000000000000000000000000000000000000000000000000000PES00010000001N00000000000000020150209
201501300060000700000000000000390589000000000000003905899900000000000000000000Consumidor Final              000000000040000000000000040000000000000000000000000000000000000000000000000000000000000000000000000000000000000000000000PES00010000001N00000000000000020150209
201501300060000700000000000000390590000000000000003905909900000000000000000000Consumidor Final              000000000040000000000000040000000000000000000000000000000000000000000000000000000000000000000000000000000000000000000000PES00010000001N00000000000000020150209
201501300060000800000000000000121946000000000000001219469900000000000000000000Consumidor Final              000000000035000000000000035000000000000000000000000000000000000000000000000000000000000000000000000000000000000000000000PES00010000001N00000000000000020150209
201501300060000700000000000000390529000000000000003905299900000000000000000000Consumidor Final              000000000040000000000000040000000000000000000000000000000000000000000000000000000000000000000000000000000000000000000000PES00010000001N00000000000000020150209
201501300010000700000000000000002662000000000000000026628000000000030646190424TOGETHER SRL                  000000000040000000000000040000000000000000000000000000000000000000000000000000000000000000000000000000000000000000000000PES00010000001N00000000000000020150209
201501300060000700000000000000390530000000000000003905309900000000000000000000Consumidor Final              000000000040000000000000040000000000000000000000000000000000000000000000000000000000000000000000000000000000000000000000PES00010000001N00000000000000020150209
201501300060000600000000000000601230000000000000006012309900000000000000000000Consumidor Final              000000000043000000000000043000000000000000000000000000000000000000000000000000000000000000000000000000000000000000000000PES00010000001N00000000000000020150209
201501300060000800000000000000121947000000000000001219479900000000000000000000Consumidor Final              000000000035000000000000035000000000000000000000000000000000000000000000000000000000000000000000000000000000000000000000PES00010000001N00000000000000020150209
