201708310060000100000000000000202638000000000000002026389900000000000000000000Consumidor Final              000000000033000000000000033000000000000000000000000000000000000000000000000000000000000000000000000000000000000000000000PES00010000001N00000000000000020170910
201708310060000100000000000000202639000000000000002026399900000000000000000000Consumidor Final              000000000079200000000000079200000000000000000000000000000000000000000000000000000000000000000000000000000000000000000000PES00010000001N00000000000000020170910
201708310060000100000000000000202640000000000000002026409900000000000000000000Consumidor Final              000000000072000000000000072000000000000000000000000000000000000000000000000000000000000000000000000000000000000000000000PES00010000001N00000000000000020170910
201708310060000100000000000000202641000000000000002026419900000000000000000000Consumidor Final              000000000072000000000000072000000000000000000000000000000000000000000000000000000000000000000000000000000000000000000000PES00010000001N00000000000000020170910
201708310060000100000000000000202650000000000000002026509900000000000000000000Consumidor Final              000000000072000000000000072000000000000000000000000000000000000000000000000000000000000000000000000000000000000000000000PES00010000001N00000000000000020170910
201708310060000100000000000000202651000000000000002026519900000000000000000000Consumidor Final              000000000072000000000000072000000000000000000000000000000000000000000000000000000000000000000000000000000000000000000000PES00010000001N00000000000000020170910
201708310060000600000000000000767595000000000000007675959900000000000000000000Consumidor Final              000000000072000000000000072000000000000000000000000000000000000000000000000000000000000000000000000000000000000000000000PES00010000001N00000000000000020170910
201708310060000700000000000000548309000000000000005483099900000000000000000000Consumidor Final              000000000094000000000000094000000000000000000000000000000000000000000000000000000000000000000000000000000000000000000000PES00010000001N00000000000000020170910
201708310060000700000000000000548310000000000000005483109900000000000000000000Consumidor Final              000000000072000000000000072000000000000000000000000000000000000000000000000000000000000000000000000000000000000000000000PES00010000001N00000000000000020170910
201708310060000700000000000000548311000000000000005483119900000000000000000000Consumidor Final              000000000072000000000000072000000000000000000000000000000000000000000000000000000000000000000000000000000000000000000000PES00010000001N00000000000000020170910
201708310060000700000000000000548312000000000000005483129900000000000000000000Consumidor Final              000000000039000000000000039000000000000000000000000000000000000000000000000000000000000000000000000000000000000000000000PES00010000001N00000000000000020170910
201708310060000700000000000000548313000000000000005483139900000000000000000000Consumidor Final              000000000098000000000000098000000000000000000000000000000000000000000000000000000000000000000000000000000000000000000000PES00010000001N00000000000000020170910
201708310060000700000000000000548314000000000000005483149900000000000000000000Consumidor Final              000000000033000000000000033000000000000000000000000000000000000000000000000000000000000000000000000000000000000000000000PES00010000001N00000000000000020170910
201708310060000700000000000000548315000000000000005483159900000000000000000000Consumidor Final              000000000072000000000000072000000000000000000000000000000000000000000000000000000000000000000000000000000000000000000000PES00010000001N00000000000000020170910
201708310060000600000000000000767596000000000000007675969900000000000000000000Consumidor Final              000000000079200000000000079200000000000000000000000000000000000000000000000000000000000000000000000000000000000000000000PES00010000001N00000000000000020170910
201708310060000600000000000000767597000000000000007675979900000000000000000000Consumidor Final              000000000072000000000000072000000000000000000000000000000000000000000000000000000000000000000000000000000000000000000000PES00010000001N00000000000000020170910
201708310060000600000000000000767601000000000000007676019900000000000000000000Consumidor Final              000000000072000000000000072000000000000000000000000000000000000000000000000000000000000000000000000000000000000000000000PES00010000001N00000000000000020170910
201708310060000600000000000000767602000000000000007676029900000000000000000000Consumidor Final              000000000072000000000000072000000000000000000000000000000000000000000000000000000000000000000000000000000000000000000000PES00010000001N00000000000000020170910
201708310060000600000000000000767606000000000000007676069900000000000000000000Consumidor Final              000000000062000000000000062000000000000000000000000000000000000000000000000000000000000000000000000000000000000000000000PES00010000001N00000000000000020170910
201708310060000600000000000000767607000000000000007676079900000000000000000000Consumidor Final              000000000095000000000000095000000000000000000000000000000000000000000000000000000000000000000000000000000000000000000000PES00010000001N00000000000000020170910
201708310060000600000000000000767626000000000000007676269900000000000000000000Consumidor Final              000000000068000000000000068000000000000000000000000000000000000000000000000000000000000000000000000000000000000000000000PES00010000001N00000000000000020170910
201708310060000600000000000000767627000000000000007676279900000000000000000000Consumidor Final              000000000072000000000000072000000000000000000000000000000000000000000000000000000000000000000000000000000000000000000000PES00010000001N00000000000000020170910
201708310060000100000000000000202652000000000000002026529900000000000000000000Consumidor Final              000000000086000000000000086000000000000000000000000000000000000000000000000000000000000000000000000000000000000000000000PES00010000001N00000000000000020170910
201708310060000600000000000000767628000000000000007676289900000000000000000000Consumidor Final              000000000072000000000000072000000000000000000000000000000000000000000000000000000000000000000000000000000000000000000000PES00010000001N00000000000000020170910
201708310060000700000000000000548316000000000000005483169900000000000000000000Consumidor Final              000000000072000000000000072000000000000000000000000000000000000000000000000000000000000000000000000000000000000000000000PES00010000001N00000000000000020170910
201708310060000700000000000000548317000000000000005483179900000000000000000000Consumidor Final              000000000072000000000000072000000000000000000000000000000000000000000000000000000000000000000000000000000000000000000000PES00010000001N00000000000000020170910
201708310060000700000000000000548318000000000000005483189900000000000000000000Consumidor Final              000000000069000000000000069000000000000000000000000000000000000000000000000000000000000000000000000000000000000000000000PES00010000001N00000000000000020170910
201708310060000700000000000000548319000000000000005483199000000000099999999999Consumidor Final              000000000129000000000000129000000000000000000000000000000000000000000000000000000000000000000000000000000000000000000000PES00010000001N00000000000000020170910
201708310060000600000000000000767598000000000000007675989900000000000000000000Consumidor Final              000000000079000000000000079000000000000000000000000000000000000000000000000000000000000000000000000000000000000000000000PES00010000001N00000000000000020170910
201708310060000700000000000000548320000000000000005483209900000000000000000000Consumidor Final              000000000079200000000000079200000000000000000000000000000000000000000000000000000000000000000000000000000000000000000000PES00010000001N00000000000000020170910
201708310060000800000000000000188203000000000000001882039900000000000000000000Consumidor Final              000000000072000000000000072000000000000000000000000000000000000000000000000000000000000000000000000000000000000000000000PES00010000001N00000000000000020170910
201708310060000800000000000000188204000000000000001882049900000000000000000000Consumidor Final              000000000072000000000000072000000000000000000000000000000000000000000000000000000000000000000000000000000000000000000000PES00010000001N00000000000000020170910
201708310060000600000000000000767714000000000000007677149900000000000000000000Consumidor Final              000000000072000000000000072000000000000000000000000000000000000000000000000000000000000000000000000000000000000000000000PES00010000001N00000000000000020170910
201708310060000600000000000000767715000000000000007677159900000000000000000000Consumidor Final              000000000072000000000000072000000000000000000000000000000000000000000000000000000000000000000000000000000000000000000000PES00010000001N00000000000000020170910
201708310060000600000000000000767716000000000000007677169900000000000000000000Consumidor Final              000000000072000000000000072000000000000000000000000000000000000000000000000000000000000000000000000000000000000000000000PES00010000001N00000000000000020170910
201708310060000600000000000000767608000000000000007676089900000000000000000000Consumidor Final              000000000075900000000000075900000000000000000000000000000000000000000000000000000000000000000000000000000000000000000000PES00010000001N00000000000000020170910
201708310060000700000000000000548321000000000000005483219900000000000000000000Consumidor Final              000000000088000000000000088000000000000000000000000000000000000000000000000000000000000000000000000000000000000000000000PES00010000001N00000000000000020170910
201708310060000700000000000000548322000000000000005483229900000000000000000000Consumidor Final              000000000072000000000000072000000000000000000000000000000000000000000000000000000000000000000000000000000000000000000000PES00010000001N00000000000000020170910
201708310060000700000000000000548323000000000000005483239900000000000000000000Consumidor Final              000000000072000000000000072000000000000000000000000000000000000000000000000000000000000000000000000000000000000000000000PES00010000001N00000000000000020170910
201708310060000700000000000000548324000000000000005483249900000000000000000000Consumidor Final              000000000038500000000000038500000000000000000000000000000000000000000000000000000000000000000000000000000000000000000000PES00010000001N00000000000000020170910
201708310060000700000000000000548325000000000000005483259900000000000000000000Consumidor Final              000000000072000000000000072000000000000000000000000000000000000000000000000000000000000000000000000000000000000000000000PES00010000001N00000000000000020170910
201708310060000700000000000000548326000000000000005483269900000000000000000000Consumidor Final              000000000072000000000000072000000000000000000000000000000000000000000000000000000000000000000000000000000000000000000000PES00010000001N00000000000000020170910
201708310060000700000000000000548327000000000000005483279900000000000000000000Consumidor Final              000000000072000000000000072000000000000000000000000000000000000000000000000000000000000000000000000000000000000000000000PES00010000001N00000000000000020170910
201708310060000700000000000000548328000000000000005483289900000000000000000000Consumidor Final              000000000075900000000000075900000000000000000000000000000000000000000000000000000000000000000000000000000000000000000000PES00010000001N00000000000000020170910
201708310060000600000000000000767629000000000000007676299900000000000000000000Consumidor Final              000000000072000000000000072000000000000000000000000000000000000000000000000000000000000000000000000000000000000000000000PES00010000001N00000000000000020170910
201708310060000600000000000000767630000000000000007676309900000000000000000000Consumidor Final              000000000069000000000000069000000000000000000000000000000000000000000000000000000000000000000000000000000000000000000000PES00010000001N00000000000000020170910
201708310060000600000000000000767609000000000000007676099900000000000000000000Consumidor Final              000000000072000000000000072000000000000000000000000000000000000000000000000000000000000000000000000000000000000000000000PES00010000001N00000000000000020170910
201708310060000700000000000000548329000000000000005483299900000000000000000000Consumidor Final              000000000072000000000000072000000000000000000000000000000000000000000000000000000000000000000000000000000000000000000000PES00010000001N00000000000000020170910
201708310060000600000000000000767631000000000000007676319900000000000000000000Consumidor Final              000000000065000000000000065000000000000000000000000000000000000000000000000000000000000000000000000000000000000000000000PES00010000001N00000000000000020170910
201708310060000600000000000000767632000000000000007676329900000000000000000000Consumidor Final              000000000072000000000000072000000000000000000000000000000000000000000000000000000000000000000000000000000000000000000000PES00010000001N00000000000000020170910
201708310060000600000000000000767633000000000000007676339900000000000000000000Consumidor Final              000000000079200000000000079200000000000000000000000000000000000000000000000000000000000000000000000000000000000000000000PES00010000001N00000000000000020170910
201708310060000600000000000000767634000000000000007676349900000000000000000000Consumidor Final              000000000072000000000000072000000000000000000000000000000000000000000000000000000000000000000000000000000000000000000000PES00010000001N00000000000000020170910
201708310060000600000000000000767635000000000000007676359900000000000000000000Consumidor Final              000000000079200000000000079200000000000000000000000000000000000000000000000000000000000000000000000000000000000000000000PES00010000001N00000000000000020170910
201708310060000600000000000000767636000000000000007676369900000000000000000000Consumidor Final              000000000072000000000000072000000000000000000000000000000000000000000000000000000000000000000000000000000000000000000000PES00010000001N00000000000000020170910
201708310060000600000000000000767637000000000000007676379900000000000000000000Consumidor Final              000000000072000000000000072000000000000000000000000000000000000000000000000000000000000000000000000000000000000000000000PES00010000001N00000000000000020170910
201708310060000600000000000000767638000000000000007676389900000000000000000000Consumidor Final              000000000072000000000000072000000000000000000000000000000000000000000000000000000000000000000000000000000000000000000000PES00010000001N00000000000000020170910
201708310060000600000000000000767610000000000000007676109900000000000000000000Consumidor Final              000000000062000000000000062000000000000000000000000000000000000000000000000000000000000000000000000000000000000000000000PES00010000001N00000000000000020170910
201708310060000800000000000000188160000000000000001881609900000000000000000000Consumidor Final              000000000035000000000000035000000000000000000000000000000000000000000000000000000000000000000000000000000000000000000000PES00010000001N00000000000000020170910
201708310060000800000000000000188161000000000000001881619900000000000000000000Consumidor Final              000000000062000000000000062000000000000000000000000000000000000000000000000000000000000000000000000000000000000000000000PES00010000001N00000000000000020170910
201708310060000800000000000000188162000000000000001881629900000000000000000000Consumidor Final              000000000062000000000000062000000000000000000000000000000000000000000000000000000000000000000000000000000000000000000000PES00010000001N00000000000000020170910
201708310060000600000000000000767639000000000000007676399900000000000000000000Consumidor Final              000000000072000000000000072000000000000000000000000000000000000000000000000000000000000000000000000000000000000000000000PES00010000001N00000000000000020170910
201708310060000600000000000000767640000000000000007676409900000000000000000000Consumidor Final              000000000072000000000000072000000000000000000000000000000000000000000000000000000000000000000000000000000000000000000000PES00010000001N00000000000000020170910
201708310060000600000000000000767641000000000000007676419900000000000000000000Consumidor Final              000000000079200000000000079200000000000000000000000000000000000000000000000000000000000000000000000000000000000000000000PES00010000001N00000000000000020170910
201708310060000600000000000000767642000000000000007676429900000000000000000000Consumidor Final              000000000079200000000000079200000000000000000000000000000000000000000000000000000000000000000000000000000000000000000000PES00010000001N00000000000000020170910
201708310060000600000000000000767645000000000000007676459900000000000000000000Consumidor Final              000000000087000000000000087000000000000000000000000000000000000000000000000000000000000000000000000000000000000000000000PES00010000001N00000000000000020170910
201708310060000600000000000000767646000000000000007676469900000000000000000000Consumidor Final              000000000072000000000000072000000000000000000000000000000000000000000000000000000000000000000000000000000000000000000000PES00010000001N00000000000000020170910
201708310060000600000000000000767647000000000000007676479900000000000000000000Consumidor Final              000000000079200000000000079200000000000000000000000000000000000000000000000000000000000000000000000000000000000000000000PES00010000001N00000000000000020170910
201708310060000600000000000000767611000000000000007676119900000000000000000000Consumidor Final              000000000072000000000000072000000000000000000000000000000000000000000000000000000000000000000000000000000000000000000000PES00010000001N00000000000000020170910
201708310060000600000000000000767623000000000000007676239900000000000000000000Consumidor Final              000000000072000000000000072000000000000000000000000000000000000000000000000000000000000000000000000000000000000000000000PES00010000001N00000000000000020170910
201708310060000600000000000000767624000000000000007676249900000000000000000000Consumidor Final              000000000072000000000000072000000000000000000000000000000000000000000000000000000000000000000000000000000000000000000000PES00010000001N00000000000000020170910
201708310060000800000000000000188172000000000000001881729900000000000000000000Consumidor Final              000000000062000000000000062000000000000000000000000000000000000000000000000000000000000000000000000000000000000000000000PES00010000001N00000000000000020170910
201708310060000800000000000000188173000000000000001881739900000000000000000000Consumidor Final              000000000062000000000000062000000000000000000000000000000000000000000000000000000000000000000000000000000000000000000000PES00010000001N00000000000000020170910
201708310060000800000000000000188174000000000000001881749900000000000000000000Consumidor Final              000000000062000000000000062000000000000000000000000000000000000000000000000000000000000000000000000000000000000000000000PES00010000001N00000000000000020170910
201708310060000700000000000000548370000000000000005483709900000000000000000000Consumidor Final              000000000079000000000000079000000000000000000000000000000000000000000000000000000000000000000000000000000000000000000000PES00010000001N00000000000000020170910
201708310060000600000000000000767660000000000000007676609900000000000000000000Consumidor Final              000000000072000000000000072000000000000000000000000000000000000000000000000000000000000000000000000000000000000000000000PES00010000001N00000000000000020170910
201708310060000700000000000000548371000000000000005483719900000000000000000000Consumidor Final              000000000079200000000000079200000000000000000000000000000000000000000000000000000000000000000000000000000000000000000000PES00010000001N00000000000000020170910
201708310060000600000000000000767661000000000000007676619900000000000000000000Consumidor Final              000000000088000000000000088000000000000000000000000000000000000000000000000000000000000000000000000000000000000000000000PES00010000001N00000000000000020170910
201708310060000600000000000000767662000000000000007676629900000000000000000000Consumidor Final              000000000072000000000000072000000000000000000000000000000000000000000000000000000000000000000000000000000000000000000000PES00010000001N00000000000000020170910
201708310060000700000000000000548342000000000000005483429900000000000000000000Consumidor Final              000000000072000000000000072000000000000000000000000000000000000000000000000000000000000000000000000000000000000000000000PES00010000001N00000000000000020170910
201708310060000700000000000000548344000000000000005483449900000000000000000000Consumidor Final              000000000072000000000000072000000000000000000000000000000000000000000000000000000000000000000000000000000000000000000000PES00010000001N00000000000000020170910
201708310060000700000000000000548345000000000000005483459900000000000000000000Consumidor Final              000000000072000000000000072000000000000000000000000000000000000000000000000000000000000000000000000000000000000000000000PES00010000001N00000000000000020170910
201708310060000800000000000000188164000000000000001881649900000000000000000000Consumidor Final              000000000062000000000000062000000000000000000000000000000000000000000000000000000000000000000000000000000000000000000000PES00010000001N00000000000000020170910
201708310060000700000000000000548346000000000000005483469900000000000000000000Consumidor Final              000000000086000000000000086000000000000000000000000000000000000000000000000000000000000000000000000000000000000000000000PES00010000001N00000000000000020170910
201708310060000700000000000000548347000000000000005483479900000000000000000000Consumidor Final              000000000072000000000000072000000000000000000000000000000000000000000000000000000000000000000000000000000000000000000000PES00010000001N00000000000000020170910
201708310060000700000000000000548348000000000000005483489900000000000000000000Consumidor Final              000000000072000000000000072000000000000000000000000000000000000000000000000000000000000000000000000000000000000000000000PES00010000001N00000000000000020170910
201708310060000800000000000000188165000000000000001881659900000000000000000000Consumidor Final              000000000035000000000000035000000000000000000000000000000000000000000000000000000000000000000000000000000000000000000000PES00010000001N00000000000000020170910
201708310060000700000000000000548349000000000000005483499900000000000000000000Consumidor Final              000000000072000000000000072000000000000000000000000000000000000000000000000000000000000000000000000000000000000000000000PES00010000001N00000000000000020170910
201708310060000700000000000000548350000000000000005483509000000000099999999999Consumidor Final              000000000101000000000000101000000000000000000000000000000000000000000000000000000000000000000000000000000000000000000000PES00010000001N00000000000000020170910
201708310060000700000000000000548351000000000000005483519900000000000000000000Consumidor Final              000000000072000000000000072000000000000000000000000000000000000000000000000000000000000000000000000000000000000000000000PES00010000001N00000000000000020170910
201708310060000800000000000000188189000000000000001881899900000000000000000000Consumidor Final              000000000062000000000000062000000000000000000000000000000000000000000000000000000000000000000000000000000000000000000000PES00010000001N00000000000000020170910
201708310060000600000000000000767725000000000000007677259900000000000000000000Consumidor Final              000000000069000000000000069000000000000000000000000000000000000000000000000000000000000000000000000000000000000000000000PES00010000001N00000000000000020170910
201708310060000600000000000000767726000000000000007677269900000000000000000000Consumidor Final              000000000079200000000000079200000000000000000000000000000000000000000000000000000000000000000000000000000000000000000000PES00010000001N00000000000000020170910
201708310060000600000000000000767727000000000000007677279900000000000000000000Consumidor Final              000000000079000000000000079000000000000000000000000000000000000000000000000000000000000000000000000000000000000000000000PES00010000001N00000000000000020170910
201708310060000600000000000000767728000000000000007677289900000000000000000000Consumidor Final              000000000072000000000000072000000000000000000000000000000000000000000000000000000000000000000000000000000000000000000000PES00010000001N00000000000000020170910
201708310060000600000000000000767729000000000000007677299900000000000000000000Consumidor Final              000000000072000000000000072000000000000000000000000000000000000000000000000000000000000000000000000000000000000000000000PES00010000001N00000000000000020170910
201708310060000600000000000000767730000000000000007677309900000000000000000000Consumidor Final              000000000072000000000000072000000000000000000000000000000000000000000000000000000000000000000000000000000000000000000000PES00010000001N00000000000000020170910
201708310060000600000000000000767731000000000000007677319900000000000000000000Consumidor Final              000000000079200000000000079200000000000000000000000000000000000000000000000000000000000000000000000000000000000000000000PES00010000001N00000000000000020170910
201708310060000600000000000000767732000000000000007677329900000000000000000000Consumidor Final              000000000039000000000000039000000000000000000000000000000000000000000000000000000000000000000000000000000000000000000000PES00010000001N00000000000000020170910
201708310060000600000000000000767733000000000000007677339900000000000000000000Consumidor Final              000000000079200000000000079200000000000000000000000000000000000000000000000000000000000000000000000000000000000000000000PES00010000001N00000000000000020170910
201708310060000600000000000000767734000000000000007677349000000000099999999999Consumidor Final              000000000101200000000000101200000000000000000000000000000000000000000000000000000000000000000000000000000000000000000000PES00010000001N00000000000000020170910
201708310060000600000000000000767743000000000000007677439900000000000000000000Consumidor Final              000000000069000000000000069000000000000000000000000000000000000000000000000000000000000000000000000000000000000000000000PES00010000001N00000000000000020170910
201708310060000900000000000000040519000000000000000405199900000000000000000000Consumidor Final              000000000039000000000000039000000000000000000000000000000000000000000000000000000000000000000000000000000000000000000000PES00010000001N00000000000000020170910
201708310060000700000000000000548390000000000000005483909900000000000000000000Consumidor Final              000000000035000000000000035000000000000000000000000000000000000000000000000000000000000000000000000000000000000000000000PES00010000001N00000000000000020170910
201708310060000700000000000000548391000000000000005483919900000000000000000000Consumidor Final              000000000072000000000000072000000000000000000000000000000000000000000000000000000000000000000000000000000000000000000000PES00010000001N00000000000000020170910
201708310060000700000000000000548392000000000000005483929900000000000000000000Consumidor Final              000000000072000000000000072000000000000000000000000000000000000000000000000000000000000000000000000000000000000000000000PES00010000001N00000000000000020170910
201708310060000700000000000000548393000000000000005483939900000000000000000000Consumidor Final              000000000072000000000000072000000000000000000000000000000000000000000000000000000000000000000000000000000000000000000000PES00010000001N00000000000000020170910
201708310060000700000000000000548425000000000000005484259900000000000000000000Consumidor Final              000000000035000000000000035000000000000000000000000000000000000000000000000000000000000000000000000000000000000000000000PES00010000001N00000000000000020170910
201708310060000700000000000000548426000000000000005484269900000000000000000000Consumidor Final              000000000072000000000000072000000000000000000000000000000000000000000000000000000000000000000000000000000000000000000000PES00010000001N00000000000000020170910
201708310060000700000000000000548427000000000000005484279900000000000000000000Consumidor Final              000000000079200000000000079200000000000000000000000000000000000000000000000000000000000000000000000000000000000000000000PES00010000001N00000000000000020170910
201708310060000700000000000000548428000000000000005484289900000000000000000000Consumidor Final              000000000079200000000000079200000000000000000000000000000000000000000000000000000000000000000000000000000000000000000000PES00010000001N00000000000000020170910
201708310060000600000000000000767786000000000000007677869900000000000000000000Consumidor Final              000000000072000000000000072000000000000000000000000000000000000000000000000000000000000000000000000000000000000000000000PES00010000001N00000000000000020170910
201708310060000600000000000000767763000000000000007677639900000000000000000000Consumidor Final              000000000072000000000000072000000000000000000000000000000000000000000000000000000000000000000000000000000000000000000000PES00010000001N00000000000000020170910
201708310060000100000000000000202653000000000000002026539900000000000000000000Consumidor Final              000000000073700000000000073700000000000000000000000000000000000000000000000000000000000000000000000000000000000000000000PES00010000001N00000000000000020170910
201708310060000600000000000000767767000000000000007677679900000000000000000000Consumidor Final              000000000072000000000000072000000000000000000000000000000000000000000000000000000000000000000000000000000000000000000000PES00010000001N00000000000000020170910
201708310060000600000000000000767768000000000000007677689000000000099999999999Consumidor Final              000000000116600000000000116600000000000000000000000000000000000000000000000000000000000000000000000000000000000000000000PES00010000001N00000000000000020170910
201708310060000600000000000000767769000000000000007677699900000000000000000000Consumidor Final              000000000033000000000000033000000000000000000000000000000000000000000000000000000000000000000000000000000000000000000000PES00010000001N00000000000000020170910
201708310060000600000000000000767770000000000000007677709900000000000000000000Consumidor Final              000000000065000000000000065000000000000000000000000000000000000000000000000000000000000000000000000000000000000000000000PES00010000001N00000000000000020170910
201708310060000600000000000000767771000000000000007677719900000000000000000000Consumidor Final              000000000072000000000000072000000000000000000000000000000000000000000000000000000000000000000000000000000000000000000000PES00010000001N00000000000000020170910
201708310060000600000000000000767772000000000000007677729900000000000000000000Consumidor Final              000000000079200000000000079200000000000000000000000000000000000000000000000000000000000000000000000000000000000000000000PES00010000001N00000000000000020170910
201708310060000600000000000000767773000000000000007677739900000000000000000000Consumidor Final              000000000079200000000000079200000000000000000000000000000000000000000000000000000000000000000000000000000000000000000000PES00010000001N00000000000000020170910
201708310060000600000000000000767774000000000000007677749900000000000000000000Consumidor Final              000000000072000000000000072000000000000000000000000000000000000000000000000000000000000000000000000000000000000000000000PES00010000001N00000000000000020170910
201708310060000600000000000000767612000000000000007676129900000000000000000000Consumidor Final              000000000072000000000000072000000000000000000000000000000000000000000000000000000000000000000000000000000000000000000000PES00010000001N00000000000000020170910
201708310060000900000000000000040509000000000000000405099900000000000000000000Consumidor Final              000000000072000000000000072000000000000000000000000000000000000000000000000000000000000000000000000000000000000000000000PES00010000001N00000000000000020170910
201708310060000700000000000000548373000000000000005483739900000000000000000000Consumidor Final              000000000072000000000000072000000000000000000000000000000000000000000000000000000000000000000000000000000000000000000000PES00010000001N00000000000000020170910
201708310060000700000000000000548374000000000000005483749900000000000000000000Consumidor Final              000000000072000000000000072000000000000000000000000000000000000000000000000000000000000000000000000000000000000000000000PES00010000001N00000000000000020170910
201708310060000700000000000000548375000000000000005483759900000000000000000000Consumidor Final              000000000072000000000000072000000000000000000000000000000000000000000000000000000000000000000000000000000000000000000000PES00010000001N00000000000000020170910
201708310060000700000000000000548376000000000000005483769900000000000000000000Consumidor Final              000000000072000000000000072000000000000000000000000000000000000000000000000000000000000000000000000000000000000000000000PES00010000001N00000000000000020170910
201708310060000700000000000000548378000000000000005483789000000000099999999999Consumidor Final              000000000239000000000000239000000000000000000000000000000000000000000000000000000000000000000000000000000000000000000000PES00010000001N00000000000000020170910
201708310060000700000000000000548379000000000000005483799900000000000000000000Consumidor Final              000000000086000000000000086000000000000000000000000000000000000000000000000000000000000000000000000000000000000000000000PES00010000001N00000000000000020170910
201708310060000700000000000000548380000000000000005483809900000000000000000000Consumidor Final              000000000086000000000000086000000000000000000000000000000000000000000000000000000000000000000000000000000000000000000000PES00010000001N00000000000000020170910
201708310060000700000000000000548381000000000000005483819900000000000000000000Consumidor Final              000000000072000000000000072000000000000000000000000000000000000000000000000000000000000000000000000000000000000000000000PES00010000001N00000000000000020170910
201708310060000700000000000000548382000000000000005483829900000000000000000000Consumidor Final              000000000072000000000000072000000000000000000000000000000000000000000000000000000000000000000000000000000000000000000000PES00010000001N00000000000000020170910
201708310060000600000000000000767613000000000000007676139900000000000000000000Consumidor Final              000000000072000000000000072000000000000000000000000000000000000000000000000000000000000000000000000000000000000000000000PES00010000001N00000000000000020170910
201708310060000600000000000000767614000000000000007676149900000000000000000000Consumidor Final              000000000035000000000000035000000000000000000000000000000000000000000000000000000000000000000000000000000000000000000000PES00010000001N00000000000000020170910
201708310060000600000000000000767615000000000000007676159900000000000000000000Consumidor Final              000000000065000000000000065000000000000000000000000000000000000000000000000000000000000000000000000000000000000000000000PES00010000001N00000000000000020170910
201708310060000600000000000000767616000000000000007676169900000000000000000000Consumidor Final              000000000072000000000000072000000000000000000000000000000000000000000000000000000000000000000000000000000000000000000000PES00010000001N00000000000000020170910
201708310060000600000000000000767617000000000000007676179900000000000000000000Consumidor Final              000000000072000000000000072000000000000000000000000000000000000000000000000000000000000000000000000000000000000000000000PES00010000001N00000000000000020170910
201708310060000600000000000000767618000000000000007676189900000000000000000000Consumidor Final              000000000075000000000000075000000000000000000000000000000000000000000000000000000000000000000000000000000000000000000000PES00010000001N00000000000000020170910
201708310060000600000000000000767619000000000000007676199900000000000000000000Consumidor Final              000000000086000000000000086000000000000000000000000000000000000000000000000000000000000000000000000000000000000000000000PES00010000001N00000000000000020170910
201708310060000600000000000000767620000000000000007676209900000000000000000000Consumidor Final              000000000079200000000000079200000000000000000000000000000000000000000000000000000000000000000000000000000000000000000000PES00010000001N00000000000000020170910
201708310060000600000000000000767621000000000000007676219900000000000000000000Consumidor Final              000000000072000000000000072000000000000000000000000000000000000000000000000000000000000000000000000000000000000000000000PES00010000001N00000000000000020170910
201708310060000600000000000000767622000000000000007676229900000000000000000000Consumidor Final              000000000072000000000000072000000000000000000000000000000000000000000000000000000000000000000000000000000000000000000000PES00010000001N00000000000000020170910
201708310060000600000000000000767625000000000000007676259900000000000000000000Consumidor Final              000000000079200000000000079200000000000000000000000000000000000000000000000000000000000000000000000000000000000000000000PES00010000001N00000000000000020170910
201708310060000700000000000000548330000000000000005483309900000000000000000000Consumidor Final              000000000079200000000000079200000000000000000000000000000000000000000000000000000000000000000000000000000000000000000000PES00010000001N00000000000000020170910
201708310060000600000000000000767648000000000000007676489900000000000000000000Consumidor Final              000000000072000000000000072000000000000000000000000000000000000000000000000000000000000000000000000000000000000000000000PES00010000001N00000000000000020170910
201708310060000800000000000000188163000000000000001881639900000000000000000000Consumidor Final              000000000062000000000000062000000000000000000000000000000000000000000000000000000000000000000000000000000000000000000000PES00010000001N00000000000000020170910
201708310060000700000000000000548352000000000000005483529900000000000000000000Consumidor Final              000000000072000000000000072000000000000000000000000000000000000000000000000000000000000000000000000000000000000000000000PES00010000001N00000000000000020170910
201708310060000700000000000000548353000000000000005483539900000000000000000000Consumidor Final              000000000072000000000000072000000000000000000000000000000000000000000000000000000000000000000000000000000000000000000000PES00010000001N00000000000000020170910
201708310060000700000000000000548354000000000000005483549900000000000000000000Consumidor Final              000000000072000000000000072000000000000000000000000000000000000000000000000000000000000000000000000000000000000000000000PES00010000001N00000000000000020170910
201708310060000700000000000000548355000000000000005483559900000000000000000000Consumidor Final              000000000075000000000000075000000000000000000000000000000000000000000000000000000000000000000000000000000000000000000000PES00010000001N00000000000000020170910
201708310060000700000000000000548356000000000000005483569900000000000000000000Consumidor Final              000000000072000000000000072000000000000000000000000000000000000000000000000000000000000000000000000000000000000000000000PES00010000001N00000000000000020170910
201708310060000700000000000000548357000000000000005483579900000000000000000000Consumidor Final              000000000072000000000000072000000000000000000000000000000000000000000000000000000000000000000000000000000000000000000000PES00010000001N00000000000000020170910
201708310060000700000000000000548364000000000000005483649900000000000000000000Consumidor Final              000000000079000000000000079000000000000000000000000000000000000000000000000000000000000000000000000000000000000000000000PES00010000001N00000000000000020170910
201708310060000700000000000000548365000000000000005483659900000000000000000000Consumidor Final              000000000072000000000000072000000000000000000000000000000000000000000000000000000000000000000000000000000000000000000000PES00010000001N00000000000000020170910
201708310060000700000000000000548331000000000000005483319900000000000000000000Consumidor Final              000000000072000000000000072000000000000000000000000000000000000000000000000000000000000000000000000000000000000000000000PES00010000001N00000000000000020170910
201708310060000700000000000000548358000000000000005483589900000000000000000000Consumidor Final              000000000072000000000000072000000000000000000000000000000000000000000000000000000000000000000000000000000000000000000000PES00010000001N00000000000000020170910
201708310060000700000000000000548359000000000000005483599900000000000000000000Consumidor Final              000000000093000000000000093000000000000000000000000000000000000000000000000000000000000000000000000000000000000000000000PES00010000001N00000000000000020170910
201708310060000700000000000000548360000000000000005483609900000000000000000000Consumidor Final              000000000072000000000000072000000000000000000000000000000000000000000000000000000000000000000000000000000000000000000000PES00010000001N00000000000000020170910
201708310060000700000000000000548361000000000000005483619900000000000000000000Consumidor Final              000000000065000000000000065000000000000000000000000000000000000000000000000000000000000000000000000000000000000000000000PES00010000001N00000000000000020170910
201708310060000700000000000000548362000000000000005483629900000000000000000000Consumidor Final              000000000072000000000000072000000000000000000000000000000000000000000000000000000000000000000000000000000000000000000000PES00010000001N00000000000000020170910
201708310060000700000000000000548363000000000000005483639900000000000000000000Consumidor Final              000000000079200000000000079200000000000000000000000000000000000000000000000000000000000000000000000000000000000000000000PES00010000001N00000000000000020170910
201708310060000600000000000000767721000000000000007677219000000000099999999999Consumidor Final              000000000143000000000000143000000000000000000000000000000000000000000000000000000000000000000000000000000000000000000000PES00010000001N00000000000000020170910
201708310060000900000000000000040518000000000000000405189900000000000000000000Consumidor Final              000000000039000000000000039000000000000000000000000000000000000000000000000000000000000000000000000000000000000000000000PES00010000001N00000000000000020170910
201708310060000800000000000000188205000000000000001882059900000000000000000000Consumidor Final              000000000072000000000000072000000000000000000000000000000000000000000000000000000000000000000000000000000000000000000000PES00010000001N00000000000000020170910
201708310060000800000000000000188206000000000000001882069900000000000000000000Consumidor Final              000000000062000000000000062000000000000000000000000000000000000000000000000000000000000000000000000000000000000000000000PES00010000001N00000000000000020170910
201708310060000700000000000000548332000000000000005483329900000000000000000000Consumidor Final              000000000072000000000000072000000000000000000000000000000000000000000000000000000000000000000000000000000000000000000000PES00010000001N00000000000000020170910
201708310060000700000000000000548366000000000000005483669900000000000000000000Consumidor Final              000000000072000000000000072000000000000000000000000000000000000000000000000000000000000000000000000000000000000000000000PES00010000001N00000000000000020170910
201708310060000700000000000000548367000000000000005483679900000000000000000000Consumidor Final              000000000079200000000000079200000000000000000000000000000000000000000000000000000000000000000000000000000000000000000000PES00010000001N00000000000000020170910
201708310060000600000000000000767658000000000000007676588000000000030663024120Consumidor Final              000000000072000000000000072000000000000000000000000000000000000000000000000000000000000000000000000000000000000000000000PES00010000001N00000000000000020170910
201708310060000700000000000000548368000000000000005483689900000000000000000000Consumidor Final              000000000086000000000000086000000000000000000000000000000000000000000000000000000000000000000000000000000000000000000000PES00010000001N00000000000000020170910
201708310060000800000000000000188168000000000000001881689900000000000000000000Consumidor Final              000000000062000000000000062000000000000000000000000000000000000000000000000000000000000000000000000000000000000000000000PES00010000001N00000000000000020170910
201708310060000800000000000000188169000000000000001881699900000000000000000000Consumidor Final              000000000072000000000000072000000000000000000000000000000000000000000000000000000000000000000000000000000000000000000000PES00010000001N00000000000000020170910
201708310060000700000000000000548369000000000000005483699900000000000000000000Consumidor Final              000000000094600000000000094600000000000000000000000000000000000000000000000000000000000000000000000000000000000000000000PES00010000001N00000000000000020170910
201708310060000800000000000000188170000000000000001881709900000000000000000000Consumidor Final              000000000072000000000000072000000000000000000000000000000000000000000000000000000000000000000000000000000000000000000000PES00010000001N00000000000000020170910
201708310060000800000000000000188171000000000000001881719900000000000000000000Consumidor Final              000000000072000000000000072000000000000000000000000000000000000000000000000000000000000000000000000000000000000000000000PES00010000001N00000000000000020170910
201708310060000600000000000000767659000000000000007676599900000000000000000000Consumidor Final              000000000086000000000000086000000000000000000000000000000000000000000000000000000000000000000000000000000000000000000000PES00010000001N00000000000000020170910
201708310060000700000000000000548333000000000000005483339900000000000000000000Consumidor Final              000000000072000000000000072000000000000000000000000000000000000000000000000000000000000000000000000000000000000000000000PES00010000001N00000000000000020170910
201708310060000600000000000000767643000000000000007676439900000000000000000000Consumidor Final              000000000079200000000000079200000000000000000000000000000000000000000000000000000000000000000000000000000000000000000000PES00010000001N00000000000000020170910
201708310060000700000000000000548334000000000000005483349900000000000000000000Consumidor Final              000000000072000000000000072000000000000000000000000000000000000000000000000000000000000000000000000000000000000000000000PES00010000001N00000000000000020170910
201708310060000700000000000000548335000000000000005483359900000000000000000000Consumidor Final              000000000086000000000000086000000000000000000000000000000000000000000000000000000000000000000000000000000000000000000000PES00010000001N00000000000000020170910
201708310060000600000000000000767644000000000000007676449900000000000000000000Consumidor Final              000000000072000000000000072000000000000000000000000000000000000000000000000000000000000000000000000000000000000000000000PES00010000001N00000000000000020170910
201708310060000700000000000000548336000000000000005483369900000000000000000000Consumidor Final              000000000072000000000000072000000000000000000000000000000000000000000000000000000000000000000000000000000000000000000000PES00010000001N00000000000000020170910
201708310060000700000000000000548337000000000000005483379900000000000000000000Consumidor Final              000000000072000000000000072000000000000000000000000000000000000000000000000000000000000000000000000000000000000000000000PES00010000001N00000000000000020170910
201708310060000700000000000000548338000000000000005483389900000000000000000000Consumidor Final              000000000072000000000000072000000000000000000000000000000000000000000000000000000000000000000000000000000000000000000000PES00010000001N00000000000000020170910
201708310060000700000000000000548339000000000000005483399900000000000000000000Consumidor Final              000000000072000000000000072000000000000000000000000000000000000000000000000000000000000000000000000000000000000000000000PES00010000001N00000000000000020170910
201708310060000700000000000000548340000000000000005483409900000000000000000000Consumidor Final              000000000072000000000000072000000000000000000000000000000000000000000000000000000000000000000000000000000000000000000000PES00010000001N00000000000000020170910
201708310060000700000000000000548341000000000000005483419900000000000000000000Consumidor Final              000000000089000000000000089000000000000000000000000000000000000000000000000000000000000000000000000000000000000000000000PES00010000001N00000000000000020170910
201708310060000600000000000000767649000000000000007676499900000000000000000000Consumidor Final              000000000075000000000000075000000000000000000000000000000000000000000000000000000000000000000000000000000000000000000000PES00010000001N00000000000000020170910
201708310060000700000000000000548372000000000000005483729900000000000000000000Consumidor Final              000000000072000000000000072000000000000000000000000000000000000000000000000000000000000000000000000000000000000000000000PES00010000001N00000000000000020170910
201708310060000600000000000000767663000000000000007676639900000000000000000000Consumidor Final              000000000072000000000000072000000000000000000000000000000000000000000000000000000000000000000000000000000000000000000000PES00010000001N00000000000000020170910
201708310060000600000000000000767664000000000000007676649000000000099999999999Consumidor Final              000000000118000000000000118000000000000000000000000000000000000000000000000000000000000000000000000000000000000000000000PES00010000001N00000000000000020170910
201708310060000900000000000000040510000000000000000405109900000000000000000000Consumidor Final              000000000072000000000000072000000000000000000000000000000000000000000000000000000000000000000000000000000000000000000000PES00010000001N00000000000000020170910
201708310060000600000000000000767666000000000000007676669900000000000000000000Consumidor Final              000000000079200000000000079200000000000000000000000000000000000000000000000000000000000000000000000000000000000000000000PES00010000001N00000000000000020170910
201708310060000900000000000000040511000000000000000405119900000000000000000000Consumidor Final              000000000025000000000000025000000000000000000000000000000000000000000000000000000000000000000000000000000000000000000000PES00010000001N00000000000000020170910
201708310060000700000000000000548377000000000000005483779900000000000000000000Consumidor Final              000000000072000000000000072000000000000000000000000000000000000000000000000000000000000000000000000000000000000000000000PES00010000001N00000000000000020170910
201708310060000600000000000000767667000000000000007676679900000000000000000000Consumidor Final              000000000072000000000000072000000000000000000000000000000000000000000000000000000000000000000000000000000000000000000000PES00010000001N00000000000000020170910
201708310060000600000000000000767668000000000000007676689900000000000000000000Consumidor Final              000000000075000000000000075000000000000000000000000000000000000000000000000000000000000000000000000000000000000000000000PES00010000001N00000000000000020170910
201708310060000600000000000000767669000000000000007676699900000000000000000000Consumidor Final              000000000072000000000000072000000000000000000000000000000000000000000000000000000000000000000000000000000000000000000000PES00010000001N00000000000000020170910
201708310060000600000000000000767650000000000000007676509900000000000000000000Consumidor Final              000000000072000000000000072000000000000000000000000000000000000000000000000000000000000000000000000000000000000000000000PES00010000001N00000000000000020170910
201708310060000700000000000000548343000000000000005483439900000000000000000000Consumidor Final              000000000072000000000000072000000000000000000000000000000000000000000000000000000000000000000000000000000000000000000000PES00010000001N00000000000000020170910
201708310060000600000000000000767651000000000000007676519900000000000000000000Consumidor Final              000000000072000000000000072000000000000000000000000000000000000000000000000000000000000000000000000000000000000000000000PES00010000001N00000000000000020170910
201708310060000600000000000000767652000000000000007676529900000000000000000000Consumidor Final              000000000090000000000000090000000000000000000000000000000000000000000000000000000000000000000000000000000000000000000000PES00010000001N00000000000000020170910
201708310060000600000000000000767653000000000000007676539900000000000000000000Consumidor Final              000000000079000000000000079000000000000000000000000000000000000000000000000000000000000000000000000000000000000000000000PES00010000001N00000000000000020170910
201708310060000600000000000000767654000000000000007676549900000000000000000000Consumidor Final              000000000072000000000000072000000000000000000000000000000000000000000000000000000000000000000000000000000000000000000000PES00010000001N00000000000000020170910
201708310510000100000000000000001020000000000000000010208000000000023225396094RIESGO MARIA GABRIELA         000000000079200000000000079200000000000000000000000000000000000000000000000000000000000000000000000000000000000000000000PES00010000001N00000000000000000000000
201708310510000100000000000000001021000000000000000010218000000000023225396094RIESGO MARIA GABRIELA         000000000079200000000000079200000000000000000000000000000000000000000000000000000000000000000000000000000000000000000000PES00010000001N00000000000000000000000
201708310060000600000000000000767655000000000000007676559900000000000000000000Consumidor Final              000000000069000000000000069000000000000000000000000000000000000000000000000000000000000000000000000000000000000000000000PES00010000001N00000000000000020170910
201708310060000800000000000000188166000000000000001881669900000000000000000000Consumidor Final              000000000062000000000000062000000000000000000000000000000000000000000000000000000000000000000000000000000000000000000000PES00010000001N00000000000000020170910
201708310060000600000000000000767656000000000000007676569000000000030264732302Consumidor Final              000000000072000000000000072000000000000000000000000000000000000000000000000000000000000000000000000000000000000000000000PES00010000001N00000000000000020170910
201708310060000800000000000000188167000000000000001881679900000000000000000000Consumidor Final              000000000062000000000000062000000000000000000000000000000000000000000000000000000000000000000000000000000000000000000000PES00010000001N00000000000000020170910
201708310060000700000000000000548383000000000000005483839000000000099999999999Consumidor Final              000000000180000000000000180000000000000000000000000000000000000000000000000000000000000000000000000000000000000000000000PES00010000001N00000000000000020170910
201708310060000700000000000000548384000000000000005483849900000000000000000000Consumidor Final              000000000072000000000000072000000000000000000000000000000000000000000000000000000000000000000000000000000000000000000000PES00010000001N00000000000000020170910
201708310060000300000000000000118946000000000000001189469900000000000000000000Consumidor Final              000000000073700000000000073700000000000000000000000000000000000000000000000000000000000000000000000000000000000000000000PES00010000001N00000000000000020170910
201708310060000600000000000000767681000000000000007676819000000000099999999999Consumidor Final              000000000141900000000000141900000000000000000000000000000000000000000000000000000000000000000000000000000000000000000000PES00010000001N00000000000000020170910
201708310060000600000000000000767682000000000000007676829900000000000000000000Consumidor Final              000000000069000000000000069000000000000000000000000000000000000000000000000000000000000000000000000000000000000000000000PES00010000001N00000000000000020170910
201708310060000800000000000000188195000000000000001881959900000000000000000000Consumidor Final              000000000072000000000000072000000000000000000000000000000000000000000000000000000000000000000000000000000000000000000000PES00010000001N00000000000000020170910
201708310060000800000000000000188199000000000000001881999900000000000000000000Consumidor Final              000000000062000000000000062000000000000000000000000000000000000000000000000000000000000000000000000000000000000000000000PES00010000001N00000000000000020170910
201708310060000800000000000000188200000000000000001882009900000000000000000000Consumidor Final              000000000062000000000000062000000000000000000000000000000000000000000000000000000000000000000000000000000000000000000000PES00010000001N00000000000000020170910
201708310060000800000000000000188201000000000000001882019900000000000000000000Consumidor Final              000000000062000000000000062000000000000000000000000000000000000000000000000000000000000000000000000000000000000000000000PES00010000001N00000000000000020170910
201708310060000800000000000000188202000000000000001882029900000000000000000000Consumidor Final              000000000039000000000000039000000000000000000000000000000000000000000000000000000000000000000000000000000000000000000000PES00010000001N00000000000000020170910
201708310060000600000000000000767657000000000000007676579900000000000000000000Consumidor Final              000000000072000000000000072000000000000000000000000000000000000000000000000000000000000000000000000000000000000000000000PES00010000001N00000000000000020170910
201708310060000700000000000000548385000000000000005483859900000000000000000000Consumidor Final              000000000072000000000000072000000000000000000000000000000000000000000000000000000000000000000000000000000000000000000000PES00010000001N00000000000000020170910
201708310060000600000000000000767677000000000000007676779900000000000000000000Consumidor Final              000000000072000000000000072000000000000000000000000000000000000000000000000000000000000000000000000000000000000000000000PES00010000001N00000000000000020170910
201708310060000600000000000000767678000000000000007676789900000000000000000000Consumidor Final              000000000072000000000000072000000000000000000000000000000000000000000000000000000000000000000000000000000000000000000000PES00010000001N00000000000000020170910
201708310060000600000000000000767679000000000000007676799900000000000000000000Consumidor Final              000000000065000000000000065000000000000000000000000000000000000000000000000000000000000000000000000000000000000000000000PES00010000001N00000000000000020170910
201708310060000600000000000000767680000000000000007676809900000000000000000000Consumidor Final              000000000072000000000000072000000000000000000000000000000000000000000000000000000000000000000000000000000000000000000000PES00010000001N00000000000000020170910
201708310060000600000000000000767717000000000000007677179900000000000000000000Consumidor Final              000000000079200000000000079200000000000000000000000000000000000000000000000000000000000000000000000000000000000000000000PES00010000001N00000000000000020170910
201708310060000600000000000000767718000000000000007677189900000000000000000000Consumidor Final              000000000072000000000000072000000000000000000000000000000000000000000000000000000000000000000000000000000000000000000000PES00010000001N00000000000000020170910
201708310060000600000000000000767719000000000000007677199900000000000000000000Consumidor Final              000000000072000000000000072000000000000000000000000000000000000000000000000000000000000000000000000000000000000000000000PES00010000001N00000000000000020170910
201708310060000600000000000000767720000000000000007677209900000000000000000000Consumidor Final              000000000072000000000000072000000000000000000000000000000000000000000000000000000000000000000000000000000000000000000000PES00010000001N00000000000000020170910
201708310510000100000000000000001022000000000000000010228000000000030710635974DAFING GROUP                  000000000072000000000000072000000000000000000000000000000000000000000000000000000000000000000000000000000000000000000000PES00010000001N00000000000000000000000
201708310060000400000000000000015334000000000000000153349900000000000000000000Consumidor Final              000000000033000000000000033000000000000000000000000000000000000000000000000000000000000000000000000000000000000000000000PES00010000001N00000000000000020170910
201708310060000400000000000000015335000000000000000153359900000000000000000000Consumidor Final              000000000072000000000000072000000000000000000000000000000000000000000000000000000000000000000000000000000000000000000000PES00010000001N00000000000000020170910
201708310060000800000000000000188175000000000000001881759900000000000000000000Consumidor Final              000000000062000000000000062000000000000000000000000000000000000000000000000000000000000000000000000000000000000000000000PES00010000001N00000000000000020170910
201708310060000800000000000000188176000000000000001881769900000000000000000000Consumidor Final              000000000062000000000000062000000000000000000000000000000000000000000000000000000000000000000000000000000000000000000000PES00010000001N00000000000000020170910
201708310060000800000000000000188177000000000000001881779900000000000000000000Consumidor Final              000000000062000000000000062000000000000000000000000000000000000000000000000000000000000000000000000000000000000000000000PES00010000001N00000000000000020170910
201708310060000800000000000000188178000000000000001881789900000000000000000000Consumidor Final              000000000062000000000000062000000000000000000000000000000000000000000000000000000000000000000000000000000000000000000000PES00010000001N00000000000000020170910
201708310060000600000000000000767665000000000000007676659900000000000000000000Consumidor Final              000000000072000000000000072000000000000000000000000000000000000000000000000000000000000000000000000000000000000000000000PES00010000001N00000000000000020170910
201708310060000600000000000000767670000000000000007676709900000000000000000000Consumidor Final              000000000079200000000000079200000000000000000000000000000000000000000000000000000000000000000000000000000000000000000000PES00010000001N00000000000000020170910
201708310060000600000000000000767671000000000000007676719900000000000000000000Consumidor Final              000000000075000000000000075000000000000000000000000000000000000000000000000000000000000000000000000000000000000000000000PES00010000001N00000000000000020170910
201708310060000600000000000000767672000000000000007676729900000000000000000000Consumidor Final              000000000069000000000000069000000000000000000000000000000000000000000000000000000000000000000000000000000000000000000000PES00010000001N00000000000000020170910
201708310060000600000000000000767673000000000000007676739900000000000000000000Consumidor Final              000000000072000000000000072000000000000000000000000000000000000000000000000000000000000000000000000000000000000000000000PES00010000001N00000000000000020170910
201708310060000700000000000000548386000000000000005483869900000000000000000000Consumidor Final              000000000079200000000000079200000000000000000000000000000000000000000000000000000000000000000000000000000000000000000000PES00010000001N00000000000000020170910
201708310060000600000000000000767674000000000000007676749900000000000000000000Consumidor Final              000000000086000000000000086000000000000000000000000000000000000000000000000000000000000000000000000000000000000000000000PES00010000001N00000000000000020170910
201708310060000600000000000000767675000000000000007676759900000000000000000000Consumidor Final              000000000086000000000000086000000000000000000000000000000000000000000000000000000000000000000000000000000000000000000000PES00010000001N00000000000000020170910
201708310060000800000000000000188179000000000000001881799900000000000000000000Consumidor Final              000000000062000000000000062000000000000000000000000000000000000000000000000000000000000000000000000000000000000000000000PES00010000001N00000000000000020170910
201708310060000800000000000000188180000000000000001881809900000000000000000000Consumidor Final              000000000062000000000000062000000000000000000000000000000000000000000000000000000000000000000000000000000000000000000000PES00010000001N00000000000000020170910
201708310060000800000000000000188181000000000000001881819900000000000000000000Consumidor Final              000000000062000000000000062000000000000000000000000000000000000000000000000000000000000000000000000000000000000000000000PES00010000001N00000000000000020170910
201708310060000800000000000000188182000000000000001881829900000000000000000000Consumidor Final              000000000062000000000000062000000000000000000000000000000000000000000000000000000000000000000000000000000000000000000000PES00010000001N00000000000000020170910
201708310060000800000000000000188183000000000000001881839900000000000000000000Consumidor Final              000000000062000000000000062000000000000000000000000000000000000000000000000000000000000000000000000000000000000000000000PES00010000001N00000000000000020170910
201708310060000800000000000000188184000000000000001881849900000000000000000000Consumidor Final              000000000062000000000000062000000000000000000000000000000000000000000000000000000000000000000000000000000000000000000000PES00010000001N00000000000000020170910
201708310060000800000000000000188185000000000000001881859900000000000000000000Consumidor Final              000000000062000000000000062000000000000000000000000000000000000000000000000000000000000000000000000000000000000000000000PES00010000001N00000000000000020170910
201708310060000800000000000000188186000000000000001881869900000000000000000000Consumidor Final              000000000077000000000000077000000000000000000000000000000000000000000000000000000000000000000000000000000000000000000000PES00010000001N00000000000000020170910
201708310060000800000000000000188187000000000000001881879900000000000000000000Consumidor Final              000000000062000000000000062000000000000000000000000000000000000000000000000000000000000000000000000000000000000000000000PES00010000001N00000000000000020170910
201708310060000800000000000000188207000000000000001882079900000000000000000000Consumidor Final              000000000062000000000000062000000000000000000000000000000000000000000000000000000000000000000000000000000000000000000000PES00010000001N00000000000000020170910
201708310060000800000000000000188208000000000000001882089900000000000000000000Consumidor Final              000000000062000000000000062000000000000000000000000000000000000000000000000000000000000000000000000000000000000000000000PES00010000001N00000000000000020170910
201708310060000800000000000000188209000000000000001882099900000000000000000000Consumidor Final              000000000062000000000000062000000000000000000000000000000000000000000000000000000000000000000000000000000000000000000000PES00010000001N00000000000000020170910
201708310060000800000000000000188210000000000000001882109900000000000000000000Consumidor Final              000000000062000000000000062000000000000000000000000000000000000000000000000000000000000000000000000000000000000000000000PES00010000001N00000000000000020170910
201708310060000800000000000000188211000000000000001882119900000000000000000000Consumidor Final              000000000062000000000000062000000000000000000000000000000000000000000000000000000000000000000000000000000000000000000000PES00010000001N00000000000000020170910
201708310060000800000000000000188212000000000000001882129900000000000000000000Consumidor Final              000000000072000000000000072000000000000000000000000000000000000000000000000000000000000000000000000000000000000000000000PES00010000001N00000000000000020170910
201708310060000800000000000000188213000000000000001882139900000000000000000000Consumidor Final              000000000062000000000000062000000000000000000000000000000000000000000000000000000000000000000000000000000000000000000000PES00010000001N00000000000000020170910
201708310060000600000000000000767722000000000000007677229900000000000000000000Consumidor Final              000000000079200000000000079200000000000000000000000000000000000000000000000000000000000000000000000000000000000000000000PES00010000001N00000000000000020170910
201708310060000600000000000000767723000000000000007677239900000000000000000000Consumidor Final              000000000033000000000000033000000000000000000000000000000000000000000000000000000000000000000000000000000000000000000000PES00010000001N00000000000000020170910
201708310060000600000000000000767724000000000000007677249900000000000000000000Consumidor Final              000000000072000000000000072000000000000000000000000000000000000000000000000000000000000000000000000000000000000000000000PES00010000001N00000000000000020170910
201708310060000800000000000000188188000000000000001881889900000000000000000000Consumidor Final              000000000062000000000000062000000000000000000000000000000000000000000000000000000000000000000000000000000000000000000000PES00010000001N00000000000000020170910
201708310060000600000000000000767676000000000000007676769900000000000000000000Consumidor Final              000000000079200000000000079200000000000000000000000000000000000000000000000000000000000000000000000000000000000000000000PES00010000001N00000000000000020170910
201708310060000600000000000000767683000000000000007676839900000000000000000000Consumidor Final              000000000072000000000000072000000000000000000000000000000000000000000000000000000000000000000000000000000000000000000000PES00010000001N00000000000000020170910
201708310060000600000000000000767692000000000000007676929900000000000000000000Consumidor Final              000000000097000000000000097000000000000000000000000000000000000000000000000000000000000000000000000000000000000000000000PES00010000001N00000000000000020170910
201708310060000600000000000000767701000000000000007677019900000000000000000000Consumidor Final              000000000072000000000000072000000000000000000000000000000000000000000000000000000000000000000000000000000000000000000000PES00010000001N00000000000000020170910
201708310060000600000000000000767702000000000000007677029900000000000000000000Consumidor Final              000000000072000000000000072000000000000000000000000000000000000000000000000000000000000000000000000000000000000000000000PES00010000001N00000000000000020170910
201708310060000600000000000000767703000000000000007677039900000000000000000000Consumidor Final              000000000086000000000000086000000000000000000000000000000000000000000000000000000000000000000000000000000000000000000000PES00010000001N00000000000000020170910
201708310060000600000000000000767704000000000000007677049900000000000000000000Consumidor Final              000000000072000000000000072000000000000000000000000000000000000000000000000000000000000000000000000000000000000000000000PES00010000001N00000000000000020170910
201708310060000600000000000000767705000000000000007677059900000000000000000000Consumidor Final              000000000072000000000000072000000000000000000000000000000000000000000000000000000000000000000000000000000000000000000000PES00010000001N00000000000000020170910
201708310060000600000000000000767706000000000000007677069900000000000000000000Consumidor Final              000000000072000000000000072000000000000000000000000000000000000000000000000000000000000000000000000000000000000000000000PES00010000001N00000000000000020170910
201708310060000600000000000000767707000000000000007677079900000000000000000000Consumidor Final              000000000089000000000000089000000000000000000000000000000000000000000000000000000000000000000000000000000000000000000000PES00010000001N00000000000000020170910
201708310060000800000000000000188190000000000000001881909900000000000000000000Consumidor Final              000000000062000000000000062000000000000000000000000000000000000000000000000000000000000000000000000000000000000000000000PES00010000001N00000000000000020170910
201708310060000800000000000000188191000000000000001881919900000000000000000000Consumidor Final              000000000062000000000000062000000000000000000000000000000000000000000000000000000000000000000000000000000000000000000000PES00010000001N00000000000000020170910
201708310060000700000000000000548387000000000000005483879900000000000000000000Consumidor Final              000000000072000000000000072000000000000000000000000000000000000000000000000000000000000000000000000000000000000000000000PES00010000001N00000000000000020170910
201708310060000700000000000000548388000000000000005483889900000000000000000000Consumidor Final              000000000072000000000000072000000000000000000000000000000000000000000000000000000000000000000000000000000000000000000000PES00010000001N00000000000000020170910
201708310060000800000000000000188192000000000000001881929900000000000000000000Consumidor Final              000000000062000000000000062000000000000000000000000000000000000000000000000000000000000000000000000000000000000000000000PES00010000001N00000000000000020170910
201708310060000800000000000000188193000000000000001881939900000000000000000000Consumidor Final              000000000062000000000000062000000000000000000000000000000000000000000000000000000000000000000000000000000000000000000000PES00010000001N00000000000000020170910
201708310060000800000000000000188194000000000000001881949900000000000000000000Consumidor Final              000000000062000000000000062000000000000000000000000000000000000000000000000000000000000000000000000000000000000000000000PES00010000001N00000000000000020170910
201708310060000600000000000000767684000000000000007676849900000000000000000000Consumidor Final              000000000079200000000000079200000000000000000000000000000000000000000000000000000000000000000000000000000000000000000000PES00010000001N00000000000000020170910
201708310060000600000000000000767685000000000000007676859900000000000000000000Consumidor Final              000000000072000000000000072000000000000000000000000000000000000000000000000000000000000000000000000000000000000000000000PES00010000001N00000000000000020170910
201708310060000600000000000000767686000000000000007676869900000000000000000000Consumidor Final              000000000086000000000000086000000000000000000000000000000000000000000000000000000000000000000000000000000000000000000000PES00010000001N00000000000000020170910
201708310060000600000000000000767687000000000000007676879900000000000000000000Consumidor Final              000000000086000000000000086000000000000000000000000000000000000000000000000000000000000000000000000000000000000000000000PES00010000001N00000000000000020170910
201708310060000800000000000000188196000000000000001881969900000000000000000000Consumidor Final              000000000062000000000000062000000000000000000000000000000000000000000000000000000000000000000000000000000000000000000000PES00010000001N00000000000000020170910
201708310060000600000000000000767688000000000000007676889900000000000000000000Consumidor Final              000000000072000000000000072000000000000000000000000000000000000000000000000000000000000000000000000000000000000000000000PES00010000001N00000000000000020170910
201708310060000600000000000000767689000000000000007676899900000000000000000000Consumidor Final              000000000079200000000000079200000000000000000000000000000000000000000000000000000000000000000000000000000000000000000000PES00010000001N00000000000000020170910
201708310060000600000000000000767693000000000000007676939900000000000000000000Consumidor Final              000000000079000000000000079000000000000000000000000000000000000000000000000000000000000000000000000000000000000000000000PES00010000001N00000000000000020170910
201708310060000600000000000000767694000000000000007676949900000000000000000000Consumidor Final              000000000072000000000000072000000000000000000000000000000000000000000000000000000000000000000000000000000000000000000000PES00010000001N00000000000000020170910
201708310060000600000000000000767695000000000000007676959900000000000000000000Consumidor Final              000000000072000000000000072000000000000000000000000000000000000000000000000000000000000000000000000000000000000000000000PES00010000001N00000000000000020170910
201708310060000600000000000000767696000000000000007676969900000000000000000000Consumidor Final              000000000072000000000000072000000000000000000000000000000000000000000000000000000000000000000000000000000000000000000000PES00010000001N00000000000000020170910
201708310060000600000000000000767697000000000000007676979900000000000000000000Consumidor Final              000000000072000000000000072000000000000000000000000000000000000000000000000000000000000000000000000000000000000000000000PES00010000001N00000000000000020170910
201708310060000600000000000000767698000000000000007676989900000000000000000000Consumidor Final              000000000072000000000000072000000000000000000000000000000000000000000000000000000000000000000000000000000000000000000000PES00010000001N00000000000000020170910
201708310060000600000000000000767699000000000000007676999900000000000000000000Consumidor Final              000000000072000000000000072000000000000000000000000000000000000000000000000000000000000000000000000000000000000000000000PES00010000001N00000000000000020170910
201708310060000600000000000000767700000000000000007677009900000000000000000000Consumidor Final              000000000079200000000000079200000000000000000000000000000000000000000000000000000000000000000000000000000000000000000000PES00010000001N00000000000000020170910
201708310060000800000000000000188197000000000000001881979900000000000000000000Consumidor Final              000000000062000000000000062000000000000000000000000000000000000000000000000000000000000000000000000000000000000000000000PES00010000001N00000000000000020170910
201708310060000800000000000000188198000000000000001881989900000000000000000000Consumidor Final              000000000062000000000000062000000000000000000000000000000000000000000000000000000000000000000000000000000000000000000000PES00010000001N00000000000000020170910
201708310060000900000000000000040512000000000000000405129900000000000000000000Consumidor Final              000000000080000000000000080000000000000000000000000000000000000000000000000000000000000000000000000000000000000000000000PES00010000001N00000000000000020170910
201708310060000600000000000000767708000000000000007677089900000000000000000000Consumidor Final              000000000089000000000000089000000000000000000000000000000000000000000000000000000000000000000000000000000000000000000000PES00010000001N00000000000000020170910
201708310060000600000000000000767709000000000000007677099900000000000000000000Consumidor Final              000000000079000000000000079000000000000000000000000000000000000000000000000000000000000000000000000000000000000000000000PES00010000001N00000000000000020170910
201708310060000600000000000000767710000000000000007677109900000000000000000000Consumidor Final              000000000072000000000000072000000000000000000000000000000000000000000000000000000000000000000000000000000000000000000000PES00010000001N00000000000000020170910
201708310060000600000000000000767711000000000000007677119900000000000000000000Consumidor Final              000000000072000000000000072000000000000000000000000000000000000000000000000000000000000000000000000000000000000000000000PES00010000001N00000000000000020170910
201708310060000600000000000000767712000000000000007677129900000000000000000000Consumidor Final              000000000033000000000000033000000000000000000000000000000000000000000000000000000000000000000000000000000000000000000000PES00010000001N00000000000000020170910
201708310060000600000000000000767713000000000000007677139900000000000000000000Consumidor Final              000000000072000000000000072000000000000000000000000000000000000000000000000000000000000000000000000000000000000000000000PES00010000001N00000000000000020170910
201708310060000900000000000000040513000000000000000405139900000000000000000000Consumidor Final              000000000035000000000000035000000000000000000000000000000000000000000000000000000000000000000000000000000000000000000000PES00010000001N00000000000000020170910
201708310060000900000000000000040514000000000000000405149900000000000000000000Consumidor Final              000000000035000000000000035000000000000000000000000000000000000000000000000000000000000000000000000000000000000000000000PES00010000001N00000000000000020170910
201708310060000600000000000000767690000000000000007676909900000000000000000000Consumidor Final              000000000069000000000000069000000000000000000000000000000000000000000000000000000000000000000000000000000000000000000000PES00010000001N00000000000000020170910
201708310060000600000000000000767691000000000000007676919900000000000000000000Consumidor Final              000000000072000000000000072000000000000000000000000000000000000000000000000000000000000000000000000000000000000000000000PES00010000001N00000000000000020170910
201708310060000900000000000000040515000000000000000405159000000000099999999999Consumidor Final              000000000137500000000000137500000000000000000000000000000000000000000000000000000000000000000000000000000000000000000000PES00010000001N00000000000000020170910
201708310060000900000000000000040516000000000000000405169900000000000000000000Consumidor Final              000000000042900000000000042900000000000000000000000000000000000000000000000000000000000000000000000000000000000000000000PES00010000001N00000000000000020170910
201708310060000900000000000000040517000000000000000405179900000000000000000000Consumidor Final              000000000039000000000000039000000000000000000000000000000000000000000000000000000000000000000000000000000000000000000000PES00010000001N00000000000000020170910
201708310060000700000000000000548389000000000000005483899900000000000000000000Consumidor Final              000000000072000000000000072000000000000000000000000000000000000000000000000000000000000000000000000000000000000000000000PES00010000001N00000000000000020170910
201708310060000600000000000000767735000000000000007677359900000000000000000000Consumidor Final              000000000072000000000000072000000000000000000000000000000000000000000000000000000000000000000000000000000000000000000000PES00010000001N00000000000000020170910
201708310060000600000000000000767736000000000000007677369900000000000000000000Consumidor Final              000000000072000000000000072000000000000000000000000000000000000000000000000000000000000000000000000000000000000000000000PES00010000001N00000000000000020170910
201708310060000600000000000000767737000000000000007677379000000000099999999999Consumidor Final              000000000129000000000000129000000000000000000000000000000000000000000000000000000000000000000000000000000000000000000000PES00010000001N00000000000000020170910
201708310060000600000000000000767738000000000000007677389000000000099999999999Consumidor Final              000000000129000000000000129000000000000000000000000000000000000000000000000000000000000000000000000000000000000000000000PES00010000001N00000000000000020170910
201708310060000600000000000000767739000000000000007677399900000000000000000000Consumidor Final              000000000072000000000000072000000000000000000000000000000000000000000000000000000000000000000000000000000000000000000000PES00010000001N00000000000000020170910
201708310060000600000000000000767740000000000000007677409900000000000000000000Consumidor Final              000000000035000000000000035000000000000000000000000000000000000000000000000000000000000000000000000000000000000000000000PES00010000001N00000000000000020170910
201708310060000600000000000000767758000000000000007677589900000000000000000000Consumidor Final              000000000072000000000000072000000000000000000000000000000000000000000000000000000000000000000000000000000000000000000000PES00010000001N00000000000000020170910
201708310060000600000000000000767759000000000000007677599900000000000000000000Consumidor Final              000000000072000000000000072000000000000000000000000000000000000000000000000000000000000000000000000000000000000000000000PES00010000001N00000000000000020170910
201708310060000700000000000000548402000000000000005484029900000000000000000000Consumidor Final              000000000072000000000000072000000000000000000000000000000000000000000000000000000000000000000000000000000000000000000000PES00010000001N00000000000000020170910
201708310060000700000000000000548403000000000000005484039900000000000000000000Consumidor Final              000000000072000000000000072000000000000000000000000000000000000000000000000000000000000000000000000000000000000000000000PES00010000001N00000000000000020170910
201708310060000700000000000000548404000000000000005484049000000000099999999999Consumidor Final              000000000103000000000000103000000000000000000000000000000000000000000000000000000000000000000000000000000000000000000000PES00010000001N00000000000000020170910
201708310060000700000000000000548405000000000000005484059900000000000000000000Consumidor Final              000000000072000000000000072000000000000000000000000000000000000000000000000000000000000000000000000000000000000000000000PES00010000001N00000000000000020170910
201708310060000700000000000000548406000000000000005484069900000000000000000000Consumidor Final              000000000072000000000000072000000000000000000000000000000000000000000000000000000000000000000000000000000000000000000000PES00010000001N00000000000000020170910
201708310060000700000000000000548407000000000000005484079900000000000000000000Consumidor Final              000000000072000000000000072000000000000000000000000000000000000000000000000000000000000000000000000000000000000000000000PES00010000001N00000000000000020170910
201708310060000700000000000000548408000000000000005484089900000000000000000000Consumidor Final              000000000072000000000000072000000000000000000000000000000000000000000000000000000000000000000000000000000000000000000000PES00010000001N00000000000000020170910
201708310060000700000000000000548409000000000000005484099900000000000000000000Consumidor Final              000000000072000000000000072000000000000000000000000000000000000000000000000000000000000000000000000000000000000000000000PES00010000001N00000000000000020170910
201708310060000600000000000000767741000000000000007677419900000000000000000000Consumidor Final              000000000094600000000000094600000000000000000000000000000000000000000000000000000000000000000000000000000000000000000000PES00010000001N00000000000000020170910
201708310060000900000000000000040524000000000000000405249900000000000000000000Consumidor Final              000000000073000000000000073000000000000000000000000000000000000000000000000000000000000000000000000000000000000000000000PES00010000001N00000000000000020170910
201708310060000700000000000000548410000000000000005484109900000000000000000000Consumidor Final              000000000072000000000000072000000000000000000000000000000000000000000000000000000000000000000000000000000000000000000000PES00010000001N00000000000000020170910
201708310060000700000000000000548411000000000000005484119900000000000000000000Consumidor Final              000000000086000000000000086000000000000000000000000000000000000000000000000000000000000000000000000000000000000000000000PES00010000001N00000000000000020170910
201708310060000700000000000000548412000000000000005484129900000000000000000000Consumidor Final              000000000086000000000000086000000000000000000000000000000000000000000000000000000000000000000000000000000000000000000000PES00010000001N00000000000000020170910
201708310060000700000000000000548413000000000000005484139900000000000000000000Consumidor Final              000000000086000000000000086000000000000000000000000000000000000000000000000000000000000000000000000000000000000000000000PES00010000001N00000000000000020170910
201708310060000600000000000000767778000000000000007677789900000000000000000000Consumidor Final              000000000035000000000000035000000000000000000000000000000000000000000000000000000000000000000000000000000000000000000000PES00010000001N00000000000000020170910
201708310060000700000000000000548414000000000000005484149900000000000000000000Consumidor Final              000000000033000000000000033000000000000000000000000000000000000000000000000000000000000000000000000000000000000000000000PES00010000001N00000000000000020170910
201708310060000700000000000000548415000000000000005484159900000000000000000000Consumidor Final              000000000072000000000000072000000000000000000000000000000000000000000000000000000000000000000000000000000000000000000000PES00010000001N00000000000000020170910
201708310060000700000000000000548416000000000000005484169900000000000000000000Consumidor Final              000000000079200000000000079200000000000000000000000000000000000000000000000000000000000000000000000000000000000000000000PES00010000001N00000000000000020170910
201708310060000600000000000000767742000000000000007677429900000000000000000000Consumidor Final              000000000072000000000000072000000000000000000000000000000000000000000000000000000000000000000000000000000000000000000000PES00010000001N00000000000000020170910
201708310060000700000000000000548417000000000000005484179900000000000000000000Consumidor Final              000000000072000000000000072000000000000000000000000000000000000000000000000000000000000000000000000000000000000000000000PES00010000001N00000000000000020170910
201708310060000600000000000000767779000000000000007677799900000000000000000000Consumidor Final              000000000072000000000000072000000000000000000000000000000000000000000000000000000000000000000000000000000000000000000000PES00010000001N00000000000000020170910
201708310060000700000000000000548418000000000000005484189900000000000000000000Consumidor Final              000000000072000000000000072000000000000000000000000000000000000000000000000000000000000000000000000000000000000000000000PES00010000001N00000000000000020170910
201708310060000700000000000000548419000000000000005484199900000000000000000000Consumidor Final              000000000072000000000000072000000000000000000000000000000000000000000000000000000000000000000000000000000000000000000000PES00010000001N00000000000000020170910
201708310060000600000000000000767780000000000000007677809900000000000000000000Consumidor Final              000000000079200000000000079200000000000000000000000000000000000000000000000000000000000000000000000000000000000000000000PES00010000001N00000000000000020170910
201708310060000700000000000000548420000000000000005484209900000000000000000000Consumidor Final              000000000072000000000000072000000000000000000000000000000000000000000000000000000000000000000000000000000000000000000000PES00010000001N00000000000000020170910
201708310060000700000000000000548421000000000000005484219900000000000000000000Consumidor Final              000000000072000000000000072000000000000000000000000000000000000000000000000000000000000000000000000000000000000000000000PES00010000001N00000000000000020170910
201708310060000700000000000000548422000000000000005484229900000000000000000000Consumidor Final              000000000072000000000000072000000000000000000000000000000000000000000000000000000000000000000000000000000000000000000000PES00010000001N00000000000000020170910
201708310060000600000000000000767781000000000000007677819900000000000000000000Consumidor Final              000000000072000000000000072000000000000000000000000000000000000000000000000000000000000000000000000000000000000000000000PES00010000001N00000000000000020170910
201708310060000600000000000000767782000000000000007677829000000000099999999999Consumidor Final              000000000142000000000000142000000000000000000000000000000000000000000000000000000000000000000000000000000000000000000000PES00010000001N00000000000000020170910
201708310060000600000000000000767744000000000000007677449900000000000000000000Consumidor Final              000000000072000000000000072000000000000000000000000000000000000000000000000000000000000000000000000000000000000000000000PES00010000001N00000000000000020170910
201708310060000900000000000000040520000000000000000405209900000000000000000000Consumidor Final              000000000038500000000000038500000000000000000000000000000000000000000000000000000000000000000000000000000000000000000000PES00010000001N00000000000000020170910
201708310060000900000000000000040521000000000000000405219900000000000000000000Consumidor Final              000000000072000000000000072000000000000000000000000000000000000000000000000000000000000000000000000000000000000000000000PES00010000001N00000000000000020170910
201708310060000900000000000000040522000000000000000405229900000000000000000000Consumidor Final              000000000075000000000000075000000000000000000000000000000000000000000000000000000000000000000000000000000000000000000000PES00010000001N00000000000000020170910
201708310060000900000000000000040523000000000000000405239900000000000000000000Consumidor Final              000000000072000000000000072000000000000000000000000000000000000000000000000000000000000000000000000000000000000000000000PES00010000001N00000000000000020170910
201708310060000600000000000000767745000000000000007677459900000000000000000000Consumidor Final              000000000072000000000000072000000000000000000000000000000000000000000000000000000000000000000000000000000000000000000000PES00010000001N00000000000000020170910
201708310060000700000000000000548394000000000000005483949900000000000000000000Consumidor Final              000000000072000000000000072000000000000000000000000000000000000000000000000000000000000000000000000000000000000000000000PES00010000001N00000000000000020170910
201708310060000700000000000000548395000000000000005483959900000000000000000000Consumidor Final              000000000072000000000000072000000000000000000000000000000000000000000000000000000000000000000000000000000000000000000000PES00010000001N00000000000000020170910
201708310060000600000000000000767783000000000000007677839900000000000000000000Consumidor Final              000000000072000000000000072000000000000000000000000000000000000000000000000000000000000000000000000000000000000000000000PES00010000001N00000000000000020170910
201708310060000600000000000000767784000000000000007677849900000000000000000000Consumidor Final              000000000065000000000000065000000000000000000000000000000000000000000000000000000000000000000000000000000000000000000000PES00010000001N00000000000000020170910
201708310060000900000000000000040525000000000000000405259900000000000000000000Consumidor Final              000000000072000000000000072000000000000000000000000000000000000000000000000000000000000000000000000000000000000000000000PES00010000001N00000000000000020170910
201708310060000900000000000000040526000000000000000405269900000000000000000000Consumidor Final              000000000072000000000000072000000000000000000000000000000000000000000000000000000000000000000000000000000000000000000000PES00010000001N00000000000000020170910
201708310060000900000000000000040527000000000000000405279900000000000000000000Consumidor Final              000000000072000000000000072000000000000000000000000000000000000000000000000000000000000000000000000000000000000000000000PES00010000001N00000000000000020170910
201708310060000900000000000000040528000000000000000405289900000000000000000000Consumidor Final              000000000072000000000000072000000000000000000000000000000000000000000000000000000000000000000000000000000000000000000000PES00010000001N00000000000000020170910
201708310060000900000000000000040529000000000000000405299900000000000000000000Consumidor Final              000000000072000000000000072000000000000000000000000000000000000000000000000000000000000000000000000000000000000000000000PES00010000001N00000000000000020170910
201708310060000600000000000000767785000000000000007677859900000000000000000000Consumidor Final              000000000072000000000000072000000000000000000000000000000000000000000000000000000000000000000000000000000000000000000000PES00010000001N00000000000000020170910
201708310060000600000000000000767746000000000000007677469900000000000000000000Consumidor Final              000000000069000000000000069000000000000000000000000000000000000000000000000000000000000000000000000000000000000000000000PES00010000001N00000000000000020170910
201708310060000600000000000000767747000000000000007677479900000000000000000000Consumidor Final              000000000072000000000000072000000000000000000000000000000000000000000000000000000000000000000000000000000000000000000000PES00010000001N00000000000000020170910
201708310060000600000000000000767748000000000000007677489900000000000000000000Consumidor Final              000000000072000000000000072000000000000000000000000000000000000000000000000000000000000000000000000000000000000000000000PES00010000001N00000000000000020170910
201708310060000600000000000000767749000000000000007677499900000000000000000000Consumidor Final              000000000036300000000000036300000000000000000000000000000000000000000000000000000000000000000000000000000000000000000000PES00010000001N00000000000000020170910
201708310060000600000000000000767750000000000000007677509900000000000000000000Consumidor Final              000000000072000000000000072000000000000000000000000000000000000000000000000000000000000000000000000000000000000000000000PES00010000001N00000000000000020170910
201708310060000600000000000000767751000000000000007677519900000000000000000000Consumidor Final              000000000033000000000000033000000000000000000000000000000000000000000000000000000000000000000000000000000000000000000000PES00010000001N00000000000000020170910
201708310060000600000000000000767752000000000000007677529900000000000000000000Consumidor Final              000000000072000000000000072000000000000000000000000000000000000000000000000000000000000000000000000000000000000000000000PES00010000001N00000000000000020170910
