201604010060000800000000000000154796000000000000001547969900000000000000000000Consumidor Final              000000000051000000000000051000000000000000000000000000000000000000000000000000000000000000000000000000000000000000000000PES00010000001N00000000000000020160411
201604010060000800000000000000154797000000000000001547979900000000000000000000Consumidor Final              000000000043000000000000043000000000000000000000000000000000000000000000000000000000000000000000000000000000000000000000PES00010000001N00000000000000020160411
201604010060000800000000000000154798000000000000001547989900000000000000000000Consumidor Final              000000000043000000000000043000000000000000000000000000000000000000000000000000000000000000000000000000000000000000000000PES00010000001N00000000000000020160411
201604010060000800000000000000154799000000000000001547999900000000000000000000Consumidor Final              000000000043000000000000043000000000000000000000000000000000000000000000000000000000000000000000000000000000000000000000PES00010000001N00000000000000020160411
201604010060000800000000000000154800000000000000001548009900000000000000000000Consumidor Final              000000000043000000000000043000000000000000000000000000000000000000000000000000000000000000000000000000000000000000000000PES00010000001N00000000000000020160411
201604010060000800000000000000154801000000000000001548019900000000000000000000Consumidor Final              000000000043000000000000043000000000000000000000000000000000000000000000000000000000000000000000000000000000000000000000PES00010000001N00000000000000020160411
201604010060000800000000000000154805000000000000001548059900000000000000000000Consumidor Final              000000000043000000000000043000000000000000000000000000000000000000000000000000000000000000000000000000000000000000000000PES00010000001N00000000000000020160411
201604010060000800000000000000154806000000000000001548069900000000000000000000Consumidor Final              000000000025000000000000025000000000000000000000000000000000000000000000000000000000000000000000000000000000000000000000PES00010000001N00000000000000020160411
201604010060000800000000000000154807000000000000001548079900000000000000000000Consumidor Final              000000000043000000000000043000000000000000000000000000000000000000000000000000000000000000000000000000000000000000000000PES00010000001N00000000000000020160411
201604010060000100000000000000197094000000000000001970949900000000000000000000Consumidor Final              000000000043000000000000043000000000000000000000000000000000000000000000000000000000000000000000000000000000000000000000PES00010000001N00000000000000020160411
201604010060000100000000000000197095000000000000001970959900000000000000000000Consumidor Final              000000000053000000000000053000000000000000000000000000000000000000000000000000000000000000000000000000000000000000000000PES00010000001N00000000000000020160411
201604010060000100000000000000197096000000000000001970969900000000000000000000Consumidor Final              000000000053000000000000053000000000000000000000000000000000000000000000000000000000000000000000000000000000000000000000PES00010000001N00000000000000020160411
201604010060000300000000000000112686000000000000001126869900000000000000000000Consumidor Final              000000000053000000000000053000000000000000000000000000000000000000000000000000000000000000000000000000000000000000000000PES00010000001N00000000000000020160411
201604010060000300000000000000112687000000000000001126879900000000000000000000Consumidor Final              000000000054000000000000054000000000000000000000000000000000000000000000000000000000000000000000000000000000000000000000PES00010000001N00000000000000020160411
201604010060000300000000000000112688000000000000001126889900000000000000000000Consumidor Final              000000000053000000000000053000000000000000000000000000000000000000000000000000000000000000000000000000000000000000000000PES00010000001N00000000000000020160411
201604010060000800000000000000154802000000000000001548029900000000000000000000Consumidor Final              000000000043000000000000043000000000000000000000000000000000000000000000000000000000000000000000000000000000000000000000PES00010000001N00000000000000020160411
201604010060000800000000000000154803000000000000001548039900000000000000000000Consumidor Final              000000000043000000000000043000000000000000000000000000000000000000000000000000000000000000000000000000000000000000000000PES00010000001N00000000000000020160411
201604010060000800000000000000154804000000000000001548049900000000000000000000Consumidor Final              000000000025000000000000025000000000000000000000000000000000000000000000000000000000000000000000000000000000000000000000PES00010000001N00000000000000020160411
201604010060000800000000000000154808000000000000001548089900000000000000000000Consumidor Final              000000000019000000000000019000000000000000000000000000000000000000000000000000000000000000000000000000000000000000000000PES00010000001N00000000000000020160411
201604010060000800000000000000154809000000000000001548099900000000000000000000Consumidor Final              000000000043000000000000043000000000000000000000000000000000000000000000000000000000000000000000000000000000000000000000PES00010000001N00000000000000020160411
201604010060000800000000000000154810000000000000001548109900000000000000000000Consumidor Final              000000000043000000000000043000000000000000000000000000000000000000000000000000000000000000000000000000000000000000000000PES00010000001N00000000000000020160411
201604010060000800000000000000154811000000000000001548119900000000000000000000Consumidor Final              000000000043000000000000043000000000000000000000000000000000000000000000000000000000000000000000000000000000000000000000PES00010000001N00000000000000020160411
201604010060000800000000000000154812000000000000001548129900000000000000000000Consumidor Final              000000000054000000000000054000000000000000000000000000000000000000000000000000000000000000000000000000000000000000000000PES00010000001N00000000000000020160411
201604010060000100000000000000197107000000000000001971079900000000000000000000Consumidor Final              000000000053000000000000053000000000000000000000000000000000000000000000000000000000000000000000000000000000000000000000PES00010000001N00000000000000020160411
201604010060000800000000000000154816000000000000001548169900000000000000000000Consumidor Final              000000000043000000000000043000000000000000000000000000000000000000000000000000000000000000000000000000000000000000000000PES00010000001N00000000000000020160411
201604010060000800000000000000154817000000000000001548179900000000000000000000Consumidor Final              000000000043000000000000043000000000000000000000000000000000000000000000000000000000000000000000000000000000000000000000PES00010000001N00000000000000020160411
201604010060000800000000000000154818000000000000001548189900000000000000000000Consumidor Final              000000000043000000000000043000000000000000000000000000000000000000000000000000000000000000000000000000000000000000000000PES00010000001N00000000000000020160411
201604010060000800000000000000154819000000000000001548199900000000000000000000Consumidor Final              000000000053000000000000053000000000000000000000000000000000000000000000000000000000000000000000000000000000000000000000PES00010000001N00000000000000020160411
201604010060000600000000000000673059000000000000006730599900000000000000000000Consumidor Final              000000000082000000000000082000000000000000000000000000000000000000000000000000000000000000000000000000000000000000000000PES00010000001N00000000000000020160411
201604010060000300000000000000112696000000000000001126969900000000000000000000Consumidor Final              000000000053000000000000053000000000000000000000000000000000000000000000000000000000000000000000000000000000000000000000PES00010000001N00000000000000020160411
201604010060000300000000000000112697000000000000001126979900000000000000000000Consumidor Final              000000000053000000000000053000000000000000000000000000000000000000000000000000000000000000000000000000000000000000000000PES00010000001N00000000000000020160411
201604010060000300000000000000112698000000000000001126989900000000000000000000Consumidor Final              000000000060000000000000060000000000000000000000000000000000000000000000000000000000000000000000000000000000000000000000PES00010000001N00000000000000020160411
201604010060000300000000000000112699000000000000001126999900000000000000000000Consumidor Final              000000000055000000000000055000000000000000000000000000000000000000000000000000000000000000000000000000000000000000000000PES00010000001N00000000000000020160411
201604010060000300000000000000112700000000000000001127009900000000000000000000Consumidor Final              000000000053000000000000053000000000000000000000000000000000000000000000000000000000000000000000000000000000000000000000PES00010000001N00000000000000020160411
201604010060000300000000000000112701000000000000001127019900000000000000000000Consumidor Final              000000000053000000000000053000000000000000000000000000000000000000000000000000000000000000000000000000000000000000000000PES00010000001N00000000000000020160411
201604010060000700000000000000458407000000000000004584079900000000000000000000Consumidor Final              000000000035000000000000035000000000000000000000000000000000000000000000000000000000000000000000000000000000000000000000PES00010000001N00000000000000020160411
201604010060000600000000000000673057000000000000006730579900000000000000000000Consumidor Final              000000000055000000000000055000000000000000000000000000000000000000000000000000000000000000000000000000000000000000000000PES00010000001N00000000000000020160411
201604010060000600000000000000673058000000000000006730589900000000000000000000Consumidor Final              000000000053000000000000053000000000000000000000000000000000000000000000000000000000000000000000000000000000000000000000PES00010000001N00000000000000020160411
201604010060000700000000000000458410000000000000004584109900000000000000000000Consumidor Final              000000000053000000000000053000000000000000000000000000000000000000000000000000000000000000000000000000000000000000000000PES00010000001N00000000000000020160411
201604010060000700000000000000458411000000000000004584119900000000000000000000Consumidor Final              000000000053000000000000053000000000000000000000000000000000000000000000000000000000000000000000000000000000000000000000PES00010000001N00000000000000020160411
201604010060000700000000000000458412000000000000004584129900000000000000000000Consumidor Final              000000000053000000000000053000000000000000000000000000000000000000000000000000000000000000000000000000000000000000000000PES00010000001N00000000000000020160411
201604010060000700000000000000458413000000000000004584139900000000000000000000Consumidor Final              000000000062000000000000062000000000000000000000000000000000000000000000000000000000000000000000000000000000000000000000PES00010000001N00000000000000020160411
201604010060000700000000000000458415000000000000004584159900000000000000000000Consumidor Final              000000000053000000000000053000000000000000000000000000000000000000000000000000000000000000000000000000000000000000000000PES00010000001N00000000000000020160411
201604010060000800000000000000154813000000000000001548139900000000000000000000Consumidor Final              000000000043000000000000043000000000000000000000000000000000000000000000000000000000000000000000000000000000000000000000PES00010000001N00000000000000020160411
201604010060000800000000000000154814000000000000001548149900000000000000000000Consumidor Final              000000000043000000000000043000000000000000000000000000000000000000000000000000000000000000000000000000000000000000000000PES00010000001N00000000000000020160411
201604010060000800000000000000154815000000000000001548159900000000000000000000Consumidor Final              000000000043000000000000043000000000000000000000000000000000000000000000000000000000000000000000000000000000000000000000PES00010000001N00000000000000020160411
201604010060000700000000000000458416000000000000004584169900000000000000000000Consumidor Final              000000000077000000000000077000000000000000000000000000000000000000000000000000000000000000000000000000000000000000000000PES00010000001N00000000000000020160411
201604010060000600000000000000673072000000000000006730729900000000000000000000Consumidor Final              000000000053000000000000053000000000000000000000000000000000000000000000000000000000000000000000000000000000000000000000PES00010000001N00000000000000020160411
201604010060000600000000000000673073000000000000006730739900000000000000000000Consumidor Final              000000000053000000000000053000000000000000000000000000000000000000000000000000000000000000000000000000000000000000000000PES00010000001N00000000000000020160411
201604010060000700000000000000458419000000000000004584199900000000000000000000Consumidor Final              000000000053000000000000053000000000000000000000000000000000000000000000000000000000000000000000000000000000000000000000PES00010000001N00000000000000020160411
201604010060000700000000000000458420000000000000004584209900000000000000000000Consumidor Final              000000000053000000000000053000000000000000000000000000000000000000000000000000000000000000000000000000000000000000000000PES00010000001N00000000000000020160411
201604010060000600000000000000673078000000000000006730789900000000000000000000Consumidor Final              000000000053000000000000053000000000000000000000000000000000000000000000000000000000000000000000000000000000000000000000PES00010000001N00000000000000020160411
201604010060000600000000000000673086000000000000006730869900000000000000000000Consumidor Final              000000000058000000000000058000000000000000000000000000000000000000000000000000000000000000000000000000000000000000000000PES00010000001N00000000000000020160411
201604010060000600000000000000673087000000000000006730879900000000000000000000Consumidor Final              000000000053000000000000053000000000000000000000000000000000000000000000000000000000000000000000000000000000000000000000PES00010000001N00000000000000020160411
201604010060000800000000000000154827000000000000001548279900000000000000000000Consumidor Final              000000000043000000000000043000000000000000000000000000000000000000000000000000000000000000000000000000000000000000000000PES00010000001N00000000000000020160411
201604010060000600000000000000673088000000000000006730889900000000000000000000Consumidor Final              000000000053000000000000053000000000000000000000000000000000000000000000000000000000000000000000000000000000000000000000PES00010000001N00000000000000020160411
201604010060000800000000000000154828000000000000001548289900000000000000000000Consumidor Final              000000000043000000000000043000000000000000000000000000000000000000000000000000000000000000000000000000000000000000000000PES00010000001N00000000000000020160411
201604010060000800000000000000154823000000000000001548239900000000000000000000Consumidor Final              000000000043000000000000043000000000000000000000000000000000000000000000000000000000000000000000000000000000000000000000PES00010000001N00000000000000020160411
201604010010000600000000000000007368000000000000000073688000000000030641405554AEROLINEAS ARGENTINAS S.A.    000000001591000000000001591000000000000000000000000000000000000000000000000000000000000000000000000000000000000000000000PES00010000001N00000000000000020160411
201604010010000600000000000000007369000000000000000073698000000000030641405554AEROLINEAS ARGENTINAS S.A.    000000001591000000000001591000000000000000000000000000000000000000000000000000000000000000000000000000000000000000000000PES00010000001N00000000000000020160411
201604010060000800000000000000154829000000000000001548299900000000000000000000Consumidor Final              000000000043000000000000043000000000000000000000000000000000000000000000000000000000000000000000000000000000000000000000PES00010000001N00000000000000020160411
201604010060000600000000000000673089000000000000006730899900000000000000000000Consumidor Final              000000000053000000000000053000000000000000000000000000000000000000000000000000000000000000000000000000000000000000000000PES00010000001N00000000000000020160411
201604010010000600000000000000007370000000000000000073708000000000030641405554AEROLINEAS ARGENTINAS S.A.    000000000065000000000000065000000000000000000000000000000000000000000000000000000000000000000000000000000000000000000000PES00010000001N00000000000000020160411
201604010010000600000000000000007371000000000000000073718000000000030641405554AEROLINEAS ARGENTINAS S.A.    000000001591000000000001591000000000000000000000000000000000000000000000000000000000000000000000000000000000000000000000PES00010000001N00000000000000020160411
201604010060000800000000000000154841000000000000001548419900000000000000000000Consumidor Final              000000000043000000000000043000000000000000000000000000000000000000000000000000000000000000000000000000000000000000000000PES00010000001N00000000000000020160411
201604010060000800000000000000154842000000000000001548429900000000000000000000Consumidor Final              000000000043000000000000043000000000000000000000000000000000000000000000000000000000000000000000000000000000000000000000PES00010000001N00000000000000020160411
201604010060000700000000000000458483000000000000004584839900000000000000000000Consumidor Final              000000000053000000000000053000000000000000000000000000000000000000000000000000000000000000000000000000000000000000000000PES00010000001N00000000000000020160411
201604010060000600000000000000673120000000000000006731209900000000000000000000Consumidor Final              000000000053000000000000053000000000000000000000000000000000000000000000000000000000000000000000000000000000000000000000PES00010000001N00000000000000020160411
201604010060000700000000000000458484000000000000004584849900000000000000000000Consumidor Final              000000000053000000000000053000000000000000000000000000000000000000000000000000000000000000000000000000000000000000000000PES00010000001N00000000000000020160411
201604010060000600000000000000673121000000000000006731219900000000000000000000Consumidor Final              000000000053000000000000053000000000000000000000000000000000000000000000000000000000000000000000000000000000000000000000PES00010000001N00000000000000020160411
201604010060000600000000000000673122000000000000006731229900000000000000000000Consumidor Final              000000000053000000000000053000000000000000000000000000000000000000000000000000000000000000000000000000000000000000000000PES00010000001N00000000000000020160411
201604010060000600000000000000673071000000000000006730719900000000000000000000Consumidor Final              000000000053000000000000053000000000000000000000000000000000000000000000000000000000000000000000000000000000000000000000PES00010000001N00000000000000020160411
201604010060000700000000000000458418000000000000004584189900000000000000000000Consumidor Final              000000000053000000000000053000000000000000000000000000000000000000000000000000000000000000000000000000000000000000000000PES00010000001N00000000000000020160411
201604010060000600000000000000673074000000000000006730749900000000000000000000Consumidor Final              000000000053000000000000053000000000000000000000000000000000000000000000000000000000000000000000000000000000000000000000PES00010000001N00000000000000020160411
201604010060000800000000000000154824000000000000001548249900000000000000000000Consumidor Final              000000000043000000000000043000000000000000000000000000000000000000000000000000000000000000000000000000000000000000000000PES00010000001N00000000000000020160411
201604010060000800000000000000154825000000000000001548259900000000000000000000Consumidor Final              000000000043000000000000043000000000000000000000000000000000000000000000000000000000000000000000000000000000000000000000PES00010000001N00000000000000020160411
201604010060000800000000000000154826000000000000001548269900000000000000000000Consumidor Final              000000000043000000000000043000000000000000000000000000000000000000000000000000000000000000000000000000000000000000000000PES00010000001N00000000000000020160411
201604010060000600000000000000673075000000000000006730759900000000000000000000Consumidor Final              000000000053000000000000053000000000000000000000000000000000000000000000000000000000000000000000000000000000000000000000PES00010000001N00000000000000020160411
201604010060000600000000000000673076000000000000006730769900000000000000000000Consumidor Final              000000000067000000000000067000000000000000000000000000000000000000000000000000000000000000000000000000000000000000000000PES00010000001N00000000000000020160411
201604010060000700000000000000458421000000000000004584219900000000000000000000Consumidor Final              000000000060000000000000060000000000000000000000000000000000000000000000000000000000000000000000000000000000000000000000PES00010000001N00000000000000020160411
201604010060000600000000000000673077000000000000006730779900000000000000000000Consumidor Final              000000000077000000000000077000000000000000000000000000000000000000000000000000000000000000000000000000000000000000000000PES00010000001N00000000000000020160411
201604010060000700000000000000458422000000000000004584229900000000000000000000Consumidor Final              000000000052000000000000052000000000000000000000000000000000000000000000000000000000000000000000000000000000000000000000PES00010000001N00000000000000020160411
201604010060000700000000000000458423000000000000004584239900000000000000000000Consumidor Final              000000000053000000000000053000000000000000000000000000000000000000000000000000000000000000000000000000000000000000000000PES00010000001N00000000000000020160411
201604010060000700000000000000458424000000000000004584249900000000000000000000Consumidor Final              000000000053000000000000053000000000000000000000000000000000000000000000000000000000000000000000000000000000000000000000PES00010000001N00000000000000020160411
201604010060000700000000000000458425000000000000004584259900000000000000000000Consumidor Final              000000000053000000000000053000000000000000000000000000000000000000000000000000000000000000000000000000000000000000000000PES00010000001N00000000000000020160411
201604010060000700000000000000458426000000000000004584269900000000000000000000Consumidor Final              000000000063000000000000063000000000000000000000000000000000000000000000000000000000000000000000000000000000000000000000PES00010000001N00000000000000020160411
201604010060000600000000000000673079000000000000006730799900000000000000000000Consumidor Final              000000000053000000000000053000000000000000000000000000000000000000000000000000000000000000000000000000000000000000000000PES00010000001N00000000000000020160411
201604010060000600000000000000673080000000000000006730809900000000000000000000Consumidor Final              000000000053000000000000053000000000000000000000000000000000000000000000000000000000000000000000000000000000000000000000PES00010000001N00000000000000020160411
201604010060000700000000000000458427000000000000004584279900000000000000000000Consumidor Final              000000000053000000000000053000000000000000000000000000000000000000000000000000000000000000000000000000000000000000000000PES00010000001N00000000000000020160411
201604010060000600000000000000673081000000000000006730819900000000000000000000Consumidor Final              000000000065000000000000065000000000000000000000000000000000000000000000000000000000000000000000000000000000000000000000PES00010000001N00000000000000020160411
201604010060000700000000000000458428000000000000004584289900000000000000000000Consumidor Final              000000000053000000000000053000000000000000000000000000000000000000000000000000000000000000000000000000000000000000000000PES00010000001N00000000000000020160411
201604010060000600000000000000673082000000000000006730829900000000000000000000Consumidor Final              000000000053000000000000053000000000000000000000000000000000000000000000000000000000000000000000000000000000000000000000PES00010000001N00000000000000020160411
201604010060000700000000000000458429000000000000004584299900000000000000000000Consumidor Final              000000000053000000000000053000000000000000000000000000000000000000000000000000000000000000000000000000000000000000000000PES00010000001N00000000000000020160411
201604010060000600000000000000673083000000000000006730839900000000000000000000Consumidor Final              000000000053000000000000053000000000000000000000000000000000000000000000000000000000000000000000000000000000000000000000PES00010000001N00000000000000020160411
201604010060000700000000000000458430000000000000004584309900000000000000000000Consumidor Final              000000000053000000000000053000000000000000000000000000000000000000000000000000000000000000000000000000000000000000000000PES00010000001N00000000000000020160411
201604010060000600000000000000673084000000000000006730849900000000000000000000Consumidor Final              000000000053000000000000053000000000000000000000000000000000000000000000000000000000000000000000000000000000000000000000PES00010000001N00000000000000020160411
201604010060000600000000000000673085000000000000006730859900000000000000000000Consumidor Final              000000000053000000000000053000000000000000000000000000000000000000000000000000000000000000000000000000000000000000000000PES00010000001N00000000000000020160411
201604010060000700000000000000458431000000000000004584319900000000000000000000Consumidor Final              000000000053000000000000053000000000000000000000000000000000000000000000000000000000000000000000000000000000000000000000PES00010000001N00000000000000020160411
201604010060000700000000000000458464000000000000004584649900000000000000000000Consumidor Final              000000000053000000000000053000000000000000000000000000000000000000000000000000000000000000000000000000000000000000000000PES00010000001N00000000000000020160411
201604010060000700000000000000458474000000000000004584749900000000000000000000Consumidor Final              000000000053000000000000053000000000000000000000000000000000000000000000000000000000000000000000000000000000000000000000PES00010000001N00000000000000020160411
201604010060000300000000000000112702000000000000001127029900000000000000000000Consumidor Final              000000000053000000000000053000000000000000000000000000000000000000000000000000000000000000000000000000000000000000000000PES00010000001N00000000000000020160411
201604010060000700000000000000458475000000000000004584759900000000000000000000Consumidor Final              000000000053000000000000053000000000000000000000000000000000000000000000000000000000000000000000000000000000000000000000PES00010000001N00000000000000020160411
201604010060000700000000000000458497000000000000004584979900000000000000000000Consumidor Final              000000000053000000000000053000000000000000000000000000000000000000000000000000000000000000000000000000000000000000000000PES00010000001N00000000000000020160411
201604010060000700000000000000458498000000000000004584989900000000000000000000Consumidor Final              000000000053000000000000053000000000000000000000000000000000000000000000000000000000000000000000000000000000000000000000PES00010000001N00000000000000020160411
201604010060000800000000000000154857000000000000001548579900000000000000000000Consumidor Final              000000000043000000000000043000000000000000000000000000000000000000000000000000000000000000000000000000000000000000000000PES00010000001N00000000000000020160411
201604010060000800000000000000154858000000000000001548589900000000000000000000Consumidor Final              000000000043000000000000043000000000000000000000000000000000000000000000000000000000000000000000000000000000000000000000PES00010000001N00000000000000020160411
201604010060000700000000000000458500000000000000004585009900000000000000000000Consumidor Final              000000000053000000000000053000000000000000000000000000000000000000000000000000000000000000000000000000000000000000000000PES00010000001N00000000000000020160411
201604010060000800000000000000154859000000000000001548599900000000000000000000Consumidor Final              000000000051000000000000051000000000000000000000000000000000000000000000000000000000000000000000000000000000000000000000PES00010000001N00000000000000020160411
201604010060000800000000000000154860000000000000001548609900000000000000000000Consumidor Final              000000000043000000000000043000000000000000000000000000000000000000000000000000000000000000000000000000000000000000000000PES00010000001N00000000000000020160411
201604010060000800000000000000154861000000000000001548619900000000000000000000Consumidor Final              000000000043000000000000043000000000000000000000000000000000000000000000000000000000000000000000000000000000000000000000PES00010000001N00000000000000020160411
201604010060000800000000000000154862000000000000001548629900000000000000000000Consumidor Final              000000000043000000000000043000000000000000000000000000000000000000000000000000000000000000000000000000000000000000000000PES00010000001N00000000000000020160411
201604010060000600000000000000673137000000000000006731379900000000000000000000Consumidor Final              000000000063000000000000063000000000000000000000000000000000000000000000000000000000000000000000000000000000000000000000PES00010000001N00000000000000020160411
201604010060000600000000000000673138000000000000006731389900000000000000000000Consumidor Final              000000000063000000000000063000000000000000000000000000000000000000000000000000000000000000000000000000000000000000000000PES00010000001N00000000000000020160411
201604010060000600000000000000673141000000000000006731419900000000000000000000Consumidor Final              000000000053000000000000053000000000000000000000000000000000000000000000000000000000000000000000000000000000000000000000PES00010000001N00000000000000020160411
201604010060000700000000000000458540000000000000004585409900000000000000000000Consumidor Final              000000000053000000000000053000000000000000000000000000000000000000000000000000000000000000000000000000000000000000000000PES00010000001N00000000000000020160411
201604010060000700000000000000458546000000000000004585469900000000000000000000Consumidor Final              000000000053000000000000053000000000000000000000000000000000000000000000000000000000000000000000000000000000000000000000PES00010000001N00000000000000020160411
201604010060000700000000000000458547000000000000004585479900000000000000000000Consumidor Final              000000000051000000000000051000000000000000000000000000000000000000000000000000000000000000000000000000000000000000000000PES00010000001N00000000000000020160411
201604010060000700000000000000458548000000000000004585489900000000000000000000Consumidor Final              000000000053000000000000053000000000000000000000000000000000000000000000000000000000000000000000000000000000000000000000PES00010000001N00000000000000020160411
201604010060000800000000000000154883000000000000001548839900000000000000000000Consumidor Final              000000000043000000000000043000000000000000000000000000000000000000000000000000000000000000000000000000000000000000000000PES00010000001N00000000000000020160411
201604010060000800000000000000154884000000000000001548849900000000000000000000Consumidor Final              000000000043000000000000043000000000000000000000000000000000000000000000000000000000000000000000000000000000000000000000PES00010000001N00000000000000020160411
201604010060000800000000000000154885000000000000001548859900000000000000000000Consumidor Final              000000000043000000000000043000000000000000000000000000000000000000000000000000000000000000000000000000000000000000000000PES00010000001N00000000000000020160411
201604010060000700000000000000458553000000000000004585539900000000000000000000Consumidor Final              000000000077000000000000077000000000000000000000000000000000000000000000000000000000000000000000000000000000000000000000PES00010000001N00000000000000020160411
201604010060000700000000000000458554000000000000004585549900000000000000000000Consumidor Final              000000000053000000000000053000000000000000000000000000000000000000000000000000000000000000000000000000000000000000000000PES00010000001N00000000000000020160411
201604010060000700000000000000458557000000000000004585579900000000000000000000Consumidor Final              000000000053000000000000053000000000000000000000000000000000000000000000000000000000000000000000000000000000000000000000PES00010000001N00000000000000020160411
201604010060000800000000000000154886000000000000001548869900000000000000000000Consumidor Final              000000000043000000000000043000000000000000000000000000000000000000000000000000000000000000000000000000000000000000000000PES00010000001N00000000000000020160411
201604010060000800000000000000154887000000000000001548879900000000000000000000Consumidor Final              000000000043000000000000043000000000000000000000000000000000000000000000000000000000000000000000000000000000000000000000PES00010000001N00000000000000020160411
201604010060000800000000000000154891000000000000001548919900000000000000000000Consumidor Final              000000000043000000000000043000000000000000000000000000000000000000000000000000000000000000000000000000000000000000000000PES00010000001N00000000000000020160411
201604010060000800000000000000154892000000000000001548929900000000000000000000Consumidor Final              000000000043000000000000043000000000000000000000000000000000000000000000000000000000000000000000000000000000000000000000PES00010000001N00000000000000020160411
201604010060000800000000000000154893000000000000001548939900000000000000000000Consumidor Final              000000000043000000000000043000000000000000000000000000000000000000000000000000000000000000000000000000000000000000000000PES00010000001N00000000000000020160411
201604010060000800000000000000154894000000000000001548949900000000000000000000Consumidor Final              000000000043000000000000043000000000000000000000000000000000000000000000000000000000000000000000000000000000000000000000PES00010000001N00000000000000020160411
201604010060000800000000000000154895000000000000001548959900000000000000000000Consumidor Final              000000000043000000000000043000000000000000000000000000000000000000000000000000000000000000000000000000000000000000000000PES00010000001N00000000000000020160411
201604010060000700000000000000458564000000000000004585649900000000000000000000Consumidor Final              000000000053000000000000053000000000000000000000000000000000000000000000000000000000000000000000000000000000000000000000PES00010000001N00000000000000020160411
201604010060000700000000000000458565000000000000004585659900000000000000000000Consumidor Final              000000000053000000000000053000000000000000000000000000000000000000000000000000000000000000000000000000000000000000000000PES00010000001N00000000000000020160411
201604010060000700000000000000458566000000000000004585669900000000000000000000Consumidor Final              000000000053000000000000053000000000000000000000000000000000000000000000000000000000000000000000000000000000000000000000PES00010000001N00000000000000020160411
201604010060000700000000000000458567000000000000004585679900000000000000000000Consumidor Final              000000000067000000000000067000000000000000000000000000000000000000000000000000000000000000000000000000000000000000000000PES00010000001N00000000000000020160411
201604010060000700000000000000458568000000000000004585689900000000000000000000Consumidor Final              000000000053000000000000053000000000000000000000000000000000000000000000000000000000000000000000000000000000000000000000PES00010000001N00000000000000020160411
201604010060000700000000000000458569000000000000004585699900000000000000000000Consumidor Final              000000000053000000000000053000000000000000000000000000000000000000000000000000000000000000000000000000000000000000000000PES00010000001N00000000000000020160411
201604010060000700000000000000458570000000000000004585709900000000000000000000Consumidor Final              000000000053000000000000053000000000000000000000000000000000000000000000000000000000000000000000000000000000000000000000PES00010000001N00000000000000020160411
201604010060000700000000000000458571000000000000004585719900000000000000000000Consumidor Final              000000000053000000000000053000000000000000000000000000000000000000000000000000000000000000000000000000000000000000000000PES00010000001N00000000000000020160411
201604010060000700000000000000458572000000000000004585729900000000000000000000Consumidor Final              000000000053000000000000053000000000000000000000000000000000000000000000000000000000000000000000000000000000000000000000PES00010000001N00000000000000020160411
201604020060000700000000000000458582000000000000004585829900000000000000000000Consumidor Final              000000000053000000000000053000000000000000000000000000000000000000000000000000000000000000000000000000000000000000000000PES00010000001N00000000000000020160412
201604020060000600000000000000673245000000000000006732459900000000000000000000Consumidor Final              000000000053000000000000053000000000000000000000000000000000000000000000000000000000000000000000000000000000000000000000PES00010000001N00000000000000020160412
201604020060000600000000000000673246000000000000006732469900000000000000000000Consumidor Final              000000000053000000000000053000000000000000000000000000000000000000000000000000000000000000000000000000000000000000000000PES00010000001N00000000000000020160412
201604020060000800000000000000154918000000000000001549189900000000000000000000Consumidor Final              000000000043000000000000043000000000000000000000000000000000000000000000000000000000000000000000000000000000000000000000PES00010000001N00000000000000020160412
201604020060000700000000000000458609000000000000004586099900000000000000000000Consumidor Final              000000000060000000000000060000000000000000000000000000000000000000000000000000000000000000000000000000000000000000000000PES00010000001N00000000000000020160412
201604020060000700000000000000458610000000000000004586109900000000000000000000Consumidor Final              000000000053000000000000053000000000000000000000000000000000000000000000000000000000000000000000000000000000000000000000PES00010000001N00000000000000020160412
201604020060000700000000000000458611000000000000004586119900000000000000000000Consumidor Final              000000000053000000000000053000000000000000000000000000000000000000000000000000000000000000000000000000000000000000000000PES00010000001N00000000000000020160412
201604020060000700000000000000458612000000000000004586129900000000000000000000Consumidor Final              000000000053000000000000053000000000000000000000000000000000000000000000000000000000000000000000000000000000000000000000PES00010000001N00000000000000020160412
201604020060000600000000000000673270000000000000006732709900000000000000000000Consumidor Final              000000000053000000000000053000000000000000000000000000000000000000000000000000000000000000000000000000000000000000000000PES00010000001N00000000000000020160412
201604020060000600000000000000673271000000000000006732719900000000000000000000Consumidor Final              000000000053000000000000053000000000000000000000000000000000000000000000000000000000000000000000000000000000000000000000PES00010000001N00000000000000020160412
201604020060000600000000000000673272000000000000006732729900000000000000000000Consumidor Final              000000000053000000000000053000000000000000000000000000000000000000000000000000000000000000000000000000000000000000000000PES00010000001N00000000000000020160412
201604020060000600000000000000673273000000000000006732739900000000000000000000Consumidor Final              000000000053000000000000053000000000000000000000000000000000000000000000000000000000000000000000000000000000000000000000PES00010000001N00000000000000020160412
201604020060000600000000000000673274000000000000006732749900000000000000000000Consumidor Final              000000000053000000000000053000000000000000000000000000000000000000000000000000000000000000000000000000000000000000000000PES00010000001N00000000000000020160412
201604020060000600000000000000673279000000000000006732799900000000000000000000Consumidor Final              000000000053000000000000053000000000000000000000000000000000000000000000000000000000000000000000000000000000000000000000PES00010000001N00000000000000020160412
201604020060000600000000000000673260000000000000006732609900000000000000000000Consumidor Final              000000000053000000000000053000000000000000000000000000000000000000000000000000000000000000000000000000000000000000000000PES00010000001N00000000000000020160412
201604020060000800000000000000154919000000000000001549199900000000000000000000Consumidor Final              000000000010000000000000010000000000000000000000000000000000000000000000000000000000000000000000000000000000000000000000PES00010000001N00000000000000020160412
201604020060000800000000000000154920000000000000001549209900000000000000000000Consumidor Final              000000000043000000000000043000000000000000000000000000000000000000000000000000000000000000000000000000000000000000000000PES00010000001N00000000000000020160412
201604020060000800000000000000154921000000000000001549219900000000000000000000Consumidor Final              000000000043000000000000043000000000000000000000000000000000000000000000000000000000000000000000000000000000000000000000PES00010000001N00000000000000020160412
201604020060000800000000000000154922000000000000001549229900000000000000000000Consumidor Final              000000000053000000000000053000000000000000000000000000000000000000000000000000000000000000000000000000000000000000000000PES00010000001N00000000000000020160412
201604020060000800000000000000154923000000000000001549239900000000000000000000Consumidor Final              000000000043000000000000043000000000000000000000000000000000000000000000000000000000000000000000000000000000000000000000PES00010000001N00000000000000020160412
201604020060000800000000000000154924000000000000001549249900000000000000000000Consumidor Final              000000000053000000000000053000000000000000000000000000000000000000000000000000000000000000000000000000000000000000000000PES00010000001N00000000000000020160412
201604020060000800000000000000154925000000000000001549259900000000000000000000Consumidor Final              000000000043000000000000043000000000000000000000000000000000000000000000000000000000000000000000000000000000000000000000PES00010000001N00000000000000020160412
201604020060000800000000000000154926000000000000001549269900000000000000000000Consumidor Final              000000000053000000000000053000000000000000000000000000000000000000000000000000000000000000000000000000000000000000000000PES00010000001N00000000000000020160412
201604020060000600000000000000673262000000000000006732629900000000000000000000Consumidor Final              000000000053000000000000053000000000000000000000000000000000000000000000000000000000000000000000000000000000000000000000PES00010000001N00000000000000020160412
201604020060000600000000000000673263000000000000006732639900000000000000000000Consumidor Final              000000000074000000000000074000000000000000000000000000000000000000000000000000000000000000000000000000000000000000000000PES00010000001N00000000000000020160412
201604020060000600000000000000673264000000000000006732649900000000000000000000Consumidor Final              000000000053000000000000053000000000000000000000000000000000000000000000000000000000000000000000000000000000000000000000PES00010000001N00000000000000020160412
201604020060000600000000000000673267000000000000006732679900000000000000000000Consumidor Final              000000000053000000000000053000000000000000000000000000000000000000000000000000000000000000000000000000000000000000000000PES00010000001N00000000000000020160412
201604020060000600000000000000673268000000000000006732689900000000000000000000Consumidor Final              000000000053000000000000053000000000000000000000000000000000000000000000000000000000000000000000000000000000000000000000PES00010000001N00000000000000020160412
201604020060000700000000000000458683000000000000004586839900000000000000000000Consumidor Final              000000000053000000000000053000000000000000000000000000000000000000000000000000000000000000000000000000000000000000000000PES00010000001N00000000000000020160412
201604020060000700000000000000458684000000000000004586849900000000000000000000Consumidor Final              000000000053000000000000053000000000000000000000000000000000000000000000000000000000000000000000000000000000000000000000PES00010000001N00000000000000020160412
201604020060000700000000000000458685000000000000004586859900000000000000000000Consumidor Final              000000000053000000000000053000000000000000000000000000000000000000000000000000000000000000000000000000000000000000000000PES00010000001N00000000000000020160412
201604020060000700000000000000458686000000000000004586869900000000000000000000Consumidor Final              000000000053000000000000053000000000000000000000000000000000000000000000000000000000000000000000000000000000000000000000PES00010000001N00000000000000020160412
201604020060000700000000000000458687000000000000004586879900000000000000000000Consumidor Final              000000000053000000000000053000000000000000000000000000000000000000000000000000000000000000000000000000000000000000000000PES00010000001N00000000000000020160412
201604020060000900000000000000028025000000000000000280259900000000000000000000Consumidor Final              000000000053000000000000053000000000000000000000000000000000000000000000000000000000000000000000000000000000000000000000PES00010000001N00000000000000020160412
201604020060000900000000000000028026000000000000000280269900000000000000000000Consumidor Final              000000000055000000000000055000000000000000000000000000000000000000000000000000000000000000000000000000000000000000000000PES00010000001N00000000000000020160412
201604020060000700000000000000458688000000000000004586889900000000000000000000Consumidor Final              000000000053000000000000053000000000000000000000000000000000000000000000000000000000000000000000000000000000000000000000PES00010000001N00000000000000020160412
201604020060000700000000000000458689000000000000004586899900000000000000000000Consumidor Final              000000000053000000000000053000000000000000000000000000000000000000000000000000000000000000000000000000000000000000000000PES00010000001N00000000000000020160412
201604020060000700000000000000458690000000000000004586909900000000000000000000Consumidor Final              000000000053000000000000053000000000000000000000000000000000000000000000000000000000000000000000000000000000000000000000PES00010000001N00000000000000020160412
201604020060000900000000000000028027000000000000000280279900000000000000000000Consumidor Final              000000000053000000000000053000000000000000000000000000000000000000000000000000000000000000000000000000000000000000000000PES00010000001N00000000000000020160412
201604020060000900000000000000028028000000000000000280289900000000000000000000Consumidor Final              000000000053000000000000053000000000000000000000000000000000000000000000000000000000000000000000000000000000000000000000PES00010000001N00000000000000020160412
201604020060000700000000000000458697000000000000004586979900000000000000000000Consumidor Final              000000000053000000000000053000000000000000000000000000000000000000000000000000000000000000000000000000000000000000000000PES00010000001N00000000000000020160412
201604020060000700000000000000458698000000000000004586989900000000000000000000Consumidor Final              000000000053000000000000053000000000000000000000000000000000000000000000000000000000000000000000000000000000000000000000PES00010000001N00000000000000020160412
201604010060000600000000000000673049000000000000006730499900000000000000000000Consumidor Final              000000000053000000000000053000000000000000000000000000000000000000000000000000000000000000000000000000000000000000000000PES00010000001N00000000000000020160411
201604010060000600000000000000673050000000000000006730509900000000000000000000Consumidor Final              000000000053000000000000053000000000000000000000000000000000000000000000000000000000000000000000000000000000000000000000PES00010000001N00000000000000020160411
201604020060000700000000000000458735000000000000004587359900000000000000000000Consumidor Final              000000000053000000000000053000000000000000000000000000000000000000000000000000000000000000000000000000000000000000000000PES00010000001N00000000000000020160412
201604020060000700000000000000458736000000000000004587369900000000000000000000Consumidor Final              000000000053000000000000053000000000000000000000000000000000000000000000000000000000000000000000000000000000000000000000PES00010000001N00000000000000020160412
201604020060000700000000000000458737000000000000004587379900000000000000000000Consumidor Final              000000000053000000000000053000000000000000000000000000000000000000000000000000000000000000000000000000000000000000000000PES00010000001N00000000000000020160412
201604020060000700000000000000458738000000000000004587389900000000000000000000Consumidor Final              000000000053000000000000053000000000000000000000000000000000000000000000000000000000000000000000000000000000000000000000PES00010000001N00000000000000020160412
201604020060000700000000000000458739000000000000004587399900000000000000000000Consumidor Final              000000000053000000000000053000000000000000000000000000000000000000000000000000000000000000000000000000000000000000000000PES00010000001N00000000000000020160412
201604020060000700000000000000458740000000000000004587409900000000000000000000Consumidor Final              000000000053000000000000053000000000000000000000000000000000000000000000000000000000000000000000000000000000000000000000PES00010000001N00000000000000020160412
201604020060000700000000000000458746000000000000004587469900000000000000000000Consumidor Final              000000000053000000000000053000000000000000000000000000000000000000000000000000000000000000000000000000000000000000000000PES00010000001N00000000000000020160412
201604020060000700000000000000458747000000000000004587479900000000000000000000Consumidor Final              000000000028000000000000028000000000000000000000000000000000000000000000000000000000000000000000000000000000000000000000PES00010000001N00000000000000020160412
201604020060000700000000000000458748000000000000004587489900000000000000000000Consumidor Final              000000000055000000000000055000000000000000000000000000000000000000000000000000000000000000000000000000000000000000000000PES00010000001N00000000000000020160412
201604020060000700000000000000458749000000000000004587499900000000000000000000Consumidor Final              000000000053000000000000053000000000000000000000000000000000000000000000000000000000000000000000000000000000000000000000PES00010000001N00000000000000020160412
201604020060000700000000000000458751000000000000004587519900000000000000000000Consumidor Final              000000000028000000000000028000000000000000000000000000000000000000000000000000000000000000000000000000000000000000000000PES00010000001N00000000000000020160412
201604020060000700000000000000458752000000000000004587529900000000000000000000Consumidor Final              000000000053000000000000053000000000000000000000000000000000000000000000000000000000000000000000000000000000000000000000PES00010000001N00000000000000020160412
201604020060000700000000000000458753000000000000004587539900000000000000000000Consumidor Final              000000000053000000000000053000000000000000000000000000000000000000000000000000000000000000000000000000000000000000000000PES00010000001N00000000000000020160412
201604020060000700000000000000458754000000000000004587549900000000000000000000Consumidor Final              000000000053000000000000053000000000000000000000000000000000000000000000000000000000000000000000000000000000000000000000PES00010000001N00000000000000020160412
201604040060000700000000000000459007000000000000004590079900000000000000000000Consumidor Final              000000000053000000000000053000000000000000000000000000000000000000000000000000000000000000000000000000000000000000000000PES00010000001N00000000000000020160414
201604040060000700000000000000459008000000000000004590089900000000000000000000Consumidor Final              000000000053000000000000053000000000000000000000000000000000000000000000000000000000000000000000000000000000000000000000PES00010000001N00000000000000020160414
201604040060000800000000000000155108000000000000001551089900000000000000000000Consumidor Final              000000000053000000000000053000000000000000000000000000000000000000000000000000000000000000000000000000000000000000000000PES00010000001N00000000000000020160414
201604040060000800000000000000155109000000000000001551099900000000000000000000Consumidor Final              000000000045000000000000045000000000000000000000000000000000000000000000000000000000000000000000000000000000000000000000PES00010000001N00000000000000020160414
201604040060000700000000000000459013000000000000004590139900000000000000000000Consumidor Final              000000000053000000000000053000000000000000000000000000000000000000000000000000000000000000000000000000000000000000000000PES00010000001N00000000000000020160414
201604040060000700000000000000459014000000000000004590149900000000000000000000Consumidor Final              000000000063000000000000063000000000000000000000000000000000000000000000000000000000000000000000000000000000000000000000PES00010000001N00000000000000020160414
201604040060000700000000000000459015000000000000004590159900000000000000000000Consumidor Final              000000000053000000000000053000000000000000000000000000000000000000000000000000000000000000000000000000000000000000000000PES00010000001N00000000000000020160414
201604040060000800000000000000155110000000000000001551109900000000000000000000Consumidor Final              000000000043000000000000043000000000000000000000000000000000000000000000000000000000000000000000000000000000000000000000PES00010000001N00000000000000020160414
201604040060000800000000000000155111000000000000001551119900000000000000000000Consumidor Final              000000000025000000000000025000000000000000000000000000000000000000000000000000000000000000000000000000000000000000000000PES00010000001N00000000000000020160414
201604040060000800000000000000155112000000000000001551129900000000000000000000Consumidor Final              000000000025000000000000025000000000000000000000000000000000000000000000000000000000000000000000000000000000000000000000PES00010000001N00000000000000020160414
201604040060000800000000000000155113000000000000001551139900000000000000000000Consumidor Final              000000000025000000000000025000000000000000000000000000000000000000000000000000000000000000000000000000000000000000000000PES00010000001N00000000000000020160414
201604040060000800000000000000155114000000000000001551149900000000000000000000Consumidor Final              000000000025000000000000025000000000000000000000000000000000000000000000000000000000000000000000000000000000000000000000PES00010000001N00000000000000020160414
201604040060000800000000000000155115000000000000001551159900000000000000000000Consumidor Final              000000000043000000000000043000000000000000000000000000000000000000000000000000000000000000000000000000000000000000000000PES00010000001N00000000000000020160414
201604040060000600000000000000673762000000000000006737629900000000000000000000Consumidor Final              000000000063000000000000063000000000000000000000000000000000000000000000000000000000000000000000000000000000000000000000PES00010000001N00000000000000020160414
201604050060000300000000000000112710000000000000001127109900000000000000000000Consumidor Final              000000000053000000000000053000000000000000000000000000000000000000000000000000000000000000000000000000000000000000000000PES00010000001N00000000000000020160415
201604050060000300000000000000112711000000000000001127119900000000000000000000Consumidor Final              000000000064000000000000064000000000000000000000000000000000000000000000000000000000000000000000000000000000000000000000PES00010000001N00000000000000020160415
201604050060000700000000000000459188000000000000004591889900000000000000000000Consumidor Final              000000000053000000000000053000000000000000000000000000000000000000000000000000000000000000000000000000000000000000000000PES00010000001N00000000000000020160415
201604050060000600000000000000673965000000000000006739659900000000000000000000Consumidor Final              000000000053000000000000053000000000000000000000000000000000000000000000000000000000000000000000000000000000000000000000PES00010000001N00000000000000020160415
201604050060000600000000000000673968000000000000006739689900000000000000000000Consumidor Final              000000000053000000000000053000000000000000000000000000000000000000000000000000000000000000000000000000000000000000000000PES00010000001N00000000000000020160415
201604050060000600000000000000673969000000000000006739699900000000000000000000Consumidor Final              000000000055000000000000055000000000000000000000000000000000000000000000000000000000000000000000000000000000000000000000PES00010000001N00000000000000020160415
201604050060000700000000000000459195000000000000004591959900000000000000000000Consumidor Final              000000000053000000000000053000000000000000000000000000000000000000000000000000000000000000000000000000000000000000000000PES00010000001N00000000000000020160415
201604050060000600000000000000673988000000000000006739889900000000000000000000Consumidor Final              000000000053000000000000053000000000000000000000000000000000000000000000000000000000000000000000000000000000000000000000PES00010000001N00000000000000020160415
201604050060000600000000000000673989000000000000006739899900000000000000000000Consumidor Final              000000000063000000000000063000000000000000000000000000000000000000000000000000000000000000000000000000000000000000000000PES00010000001N00000000000000020160415
201604050060000800000000000000155195000000000000001551959900000000000000000000Consumidor Final              000000000043000000000000043000000000000000000000000000000000000000000000000000000000000000000000000000000000000000000000PES00010000001N00000000000000020160415
201604050060000600000000000000673990000000000000006739909900000000000000000000Consumidor Final              000000000053000000000000053000000000000000000000000000000000000000000000000000000000000000000000000000000000000000000000PES00010000001N00000000000000020160415
201604050060000600000000000000673991000000000000006739919900000000000000000000Consumidor Final              000000000053000000000000053000000000000000000000000000000000000000000000000000000000000000000000000000000000000000000000PES00010000001N00000000000000020160415
201604050060000600000000000000673992000000000000006739929900000000000000000000Consumidor Final              000000000053000000000000053000000000000000000000000000000000000000000000000000000000000000000000000000000000000000000000PES00010000001N00000000000000020160415
201604050060000600000000000000673993000000000000006739939900000000000000000000Consumidor Final              000000000053000000000000053000000000000000000000000000000000000000000000000000000000000000000000000000000000000000000000PES00010000001N00000000000000020160415
201604050060000300000000000000112712000000000000001127129900000000000000000000Consumidor Final              000000000054000000000000054000000000000000000000000000000000000000000000000000000000000000000000000000000000000000000000PES00010000001N00000000000000020160415
201604050060000100000000000000197113000000000000001971139900000000000000000000Consumidor Final              000000000059000000000000059000000000000000000000000000000000000000000000000000000000000000000000000000000000000000000000PES00010000001N00000000000000020160415
201604050060000600000000000000673966000000000000006739669900000000000000000000Consumidor Final              000000000053000000000000053000000000000000000000000000000000000000000000000000000000000000000000000000000000000000000000PES00010000001N00000000000000020160415
201604050060000600000000000000673967000000000000006739679900000000000000000000Consumidor Final              000000000053000000000000053000000000000000000000000000000000000000000000000000000000000000000000000000000000000000000000PES00010000001N00000000000000020160415
201604050060000600000000000000673970000000000000006739709900000000000000000000Consumidor Final              000000000053000000000000053000000000000000000000000000000000000000000000000000000000000000000000000000000000000000000000PES00010000001N00000000000000020160415
201604050060000600000000000000673971000000000000006739719900000000000000000000Consumidor Final              000000000053000000000000053000000000000000000000000000000000000000000000000000000000000000000000000000000000000000000000PES00010000001N00000000000000020160415
201604050060000600000000000000673972000000000000006739729900000000000000000000Consumidor Final              000000000055000000000000055000000000000000000000000000000000000000000000000000000000000000000000000000000000000000000000PES00010000001N00000000000000020160415
201604050060000600000000000000673973000000000000006739739900000000000000000000Consumidor Final              000000000053000000000000053000000000000000000000000000000000000000000000000000000000000000000000000000000000000000000000PES00010000001N00000000000000020160415
201604050060000600000000000000673974000000000000006739749900000000000000000000Consumidor Final              000000000053000000000000053000000000000000000000000000000000000000000000000000000000000000000000000000000000000000000000PES00010000001N00000000000000020160415
201604050060000600000000000000673975000000000000006739759900000000000000000000Consumidor Final              000000000053000000000000053000000000000000000000000000000000000000000000000000000000000000000000000000000000000000000000PES00010000001N00000000000000020160415
201604050060000600000000000000673976000000000000006739769900000000000000000000Consumidor Final              000000000053000000000000053000000000000000000000000000000000000000000000000000000000000000000000000000000000000000000000PES00010000001N00000000000000020160415
201604050060000600000000000000673977000000000000006739779900000000000000000000Consumidor Final              000000000053000000000000053000000000000000000000000000000000000000000000000000000000000000000000000000000000000000000000PES00010000001N00000000000000020160415
201604050060000600000000000000673978000000000000006739789900000000000000000000Consumidor Final              000000000053000000000000053000000000000000000000000000000000000000000000000000000000000000000000000000000000000000000000PES00010000001N00000000000000020160415
201604050060000600000000000000673979000000000000006739799900000000000000000000Consumidor Final              000000000053000000000000053000000000000000000000000000000000000000000000000000000000000000000000000000000000000000000000PES00010000001N00000000000000020160415
201604010060000300000000000000112685000000000000001126859900000000000000000000Consumidor Final              000000000025000000000000025000000000000000000000000000000000000000000000000000000000000000000000000000000000000000000000PES00010000001N00000000000000020160411
201604010060000100000000000000197097000000000000001970979900000000000000000000Consumidor Final              000000000051000000000000051000000000000000000000000000000000000000000000000000000000000000000000000000000000000000000000PES00010000001N00000000000000020160411
201604010060000300000000000000112689000000000000001126899900000000000000000000Consumidor Final              000000000053000000000000053000000000000000000000000000000000000000000000000000000000000000000000000000000000000000000000PES00010000001N00000000000000020160411
201604010060000300000000000000112690000000000000001126909900000000000000000000Consumidor Final              000000000063000000000000063000000000000000000000000000000000000000000000000000000000000000000000000000000000000000000000PES00010000001N00000000000000020160411
201604010060000100000000000000197098000000000000001970989900000000000000000000Consumidor Final              000000000055000000000000055000000000000000000000000000000000000000000000000000000000000000000000000000000000000000000000PES00010000001N00000000000000020160411
201604010060000300000000000000112691000000000000001126919900000000000000000000Consumidor Final              000000000063000000000000063000000000000000000000000000000000000000000000000000000000000000000000000000000000000000000000PES00010000001N00000000000000020160411
201604010060000300000000000000112692000000000000001126929900000000000000000000Consumidor Final              000000000063000000000000063000000000000000000000000000000000000000000000000000000000000000000000000000000000000000000000PES00010000001N00000000000000020160411
201604010060000100000000000000197099000000000000001970999900000000000000000000Consumidor Final              000000000096000000000000096000000000000000000000000000000000000000000000000000000000000000000000000000000000000000000000PES00010000001N00000000000000020160411
201604010060000300000000000000112693000000000000001126939900000000000000000000Consumidor Final              000000000063000000000000063000000000000000000000000000000000000000000000000000000000000000000000000000000000000000000000PES00010000001N00000000000000020160411
201604010060000100000000000000197100000000000000001971009900000000000000000000Consumidor Final              000000000053000000000000053000000000000000000000000000000000000000000000000000000000000000000000000000000000000000000000PES00010000001N00000000000000020160411
201604010060000300000000000000112694000000000000001126949900000000000000000000Consumidor Final              000000000053000000000000053000000000000000000000000000000000000000000000000000000000000000000000000000000000000000000000PES00010000001N00000000000000020160411
201604010060000300000000000000112695000000000000001126959900000000000000000000Consumidor Final              000000000045000000000000045000000000000000000000000000000000000000000000000000000000000000000000000000000000000000000000PES00010000001N00000000000000020160411
201604010060000700000000000000458400000000000000004584009900000000000000000000Consumidor Final              000000000035000000000000035000000000000000000000000000000000000000000000000000000000000000000000000000000000000000000000PES00010000001N00000000000000020160411
201604010060000100000000000000197101000000000000001971019900000000000000000000Consumidor Final              000000000057000000000000057000000000000000000000000000000000000000000000000000000000000000000000000000000000000000000000PES00010000001N00000000000000020160411
201604010060000100000000000000197102000000000000001971029900000000000000000000Consumidor Final              000000000053000000000000053000000000000000000000000000000000000000000000000000000000000000000000000000000000000000000000PES00010000001N00000000000000020160411
201604010060000100000000000000197103000000000000001971039900000000000000000000Consumidor Final              000000000063000000000000063000000000000000000000000000000000000000000000000000000000000000000000000000000000000000000000PES00010000001N00000000000000020160411
201604010060000100000000000000197104000000000000001971049900000000000000000000Consumidor Final              000000000053000000000000053000000000000000000000000000000000000000000000000000000000000000000000000000000000000000000000PES00010000001N00000000000000020160411
201604010060000100000000000000197105000000000000001971059900000000000000000000Consumidor Final              000000000053000000000000053000000000000000000000000000000000000000000000000000000000000000000000000000000000000000000000PES00010000001N00000000000000020160411
201604010060000100000000000000197106000000000000001971069900000000000000000000Consumidor Final              000000000053000000000000053000000000000000000000000000000000000000000000000000000000000000000000000000000000000000000000PES00010000001N00000000000000020160411
201604010060000700000000000000458405000000000000004584059900000000000000000000Consumidor Final              000000000033000000000000033000000000000000000000000000000000000000000000000000000000000000000000000000000000000000000000PES00010000001N00000000000000020160411
201604010060000700000000000000458406000000000000004584069900000000000000000000Consumidor Final              000000000033000000000000033000000000000000000000000000000000000000000000000000000000000000000000000000000000000000000000PES00010000001N00000000000000020160411
201604010060000600000000000000673053000000000000006730539900000000000000000000Consumidor Final              000000000067000000000000067000000000000000000000000000000000000000000000000000000000000000000000000000000000000000000000PES00010000001N00000000000000020160411
201604010060000600000000000000673054000000000000006730549900000000000000000000Consumidor Final              000000000053000000000000053000000000000000000000000000000000000000000000000000000000000000000000000000000000000000000000PES00010000001N00000000000000020160411
201604010060000700000000000000458408000000000000004584089900000000000000000000Consumidor Final              000000000063000000000000063000000000000000000000000000000000000000000000000000000000000000000000000000000000000000000000PES00010000001N00000000000000020160411
201604010060000600000000000000673051000000000000006730519900000000000000000000Consumidor Final              000000000053000000000000053000000000000000000000000000000000000000000000000000000000000000000000000000000000000000000000PES00010000001N00000000000000020160411
201604010060000600000000000000673052000000000000006730529900000000000000000000Consumidor Final              000000000053000000000000053000000000000000000000000000000000000000000000000000000000000000000000000000000000000000000000PES00010000001N00000000000000020160411
201604010060000600000000000000673055000000000000006730559900000000000000000000Consumidor Final              000000000053000000000000053000000000000000000000000000000000000000000000000000000000000000000000000000000000000000000000PES00010000001N00000000000000020160411
201604010060000100000000000000197108000000000000001971089900000000000000000000Consumidor Final              000000000053000000000000053000000000000000000000000000000000000000000000000000000000000000000000000000000000000000000000PES00010000001N00000000000000020160411
201604010060000100000000000000197109000000000000001971099900000000000000000000Consumidor Final              000000000053000000000000053000000000000000000000000000000000000000000000000000000000000000000000000000000000000000000000PES00010000001N00000000000000020160411
201604010060000100000000000000197110000000000000001971109900000000000000000000Consumidor Final              000000000053000000000000053000000000000000000000000000000000000000000000000000000000000000000000000000000000000000000000PES00010000001N00000000000000020160411
201604010060000600000000000000673056000000000000006730569900000000000000000000Consumidor Final              000000000053000000000000053000000000000000000000000000000000000000000000000000000000000000000000000000000000000000000000PES00010000001N00000000000000020160411
201604010060000600000000000000673047000000000000006730479900000000000000000000Consumidor Final              000000000053000000000000053000000000000000000000000000000000000000000000000000000000000000000000000000000000000000000000PES00010000001N00000000000000020160411
201604010060000600000000000000673048000000000000006730489900000000000000000000Consumidor Final              000000000053000000000000053000000000000000000000000000000000000000000000000000000000000000000000000000000000000000000000PES00010000001N00000000000000020160411
201604010060000700000000000000458401000000000000004584019900000000000000000000Consumidor Final              000000000053000000000000053000000000000000000000000000000000000000000000000000000000000000000000000000000000000000000000PES00010000001N00000000000000020160411
201604010060000700000000000000458402000000000000004584029900000000000000000000Consumidor Final              000000000053000000000000053000000000000000000000000000000000000000000000000000000000000000000000000000000000000000000000PES00010000001N00000000000000020160411
201604010060000700000000000000458403000000000000004584039900000000000000000000Consumidor Final              000000000053000000000000053000000000000000000000000000000000000000000000000000000000000000000000000000000000000000000000PES00010000001N00000000000000020160411
201604010060000700000000000000458404000000000000004584049900000000000000000000Consumidor Final              000000000053000000000000053000000000000000000000000000000000000000000000000000000000000000000000000000000000000000000000PES00010000001N00000000000000020160411
201604010060000700000000000000458409000000000000004584099900000000000000000000Consumidor Final              000000000053000000000000053000000000000000000000000000000000000000000000000000000000000000000000000000000000000000000000PES00010000001N00000000000000020160411
201604010060000700000000000000458414000000000000004584149900000000000000000000Consumidor Final              000000000079500000000000079500000000000000000000000000000000000000000000000000000000000000000000000000000000000000000000PES00010000001N00000000000000020160411
201604010060000800000000000000154820000000000000001548209900000000000000000000Consumidor Final              000000000043000000000000043000000000000000000000000000000000000000000000000000000000000000000000000000000000000000000000PES00010000001N00000000000000020160411
201604010060000800000000000000154821000000000000001548219900000000000000000000Consumidor Final              000000000043000000000000043000000000000000000000000000000000000000000000000000000000000000000000000000000000000000000000PES00010000001N00000000000000020160411
201604010060000800000000000000154795000000000000001547959900000000000000000000Consumidor Final              000000000043000000000000043000000000000000000000000000000000000000000000000000000000000000000000000000000000000000000000PES00010000001N00000000000000020160411
201604010060000600000000000000673060000000000000006730609900000000000000000000Consumidor Final              000000000053000000000000053000000000000000000000000000000000000000000000000000000000000000000000000000000000000000000000PES00010000001N00000000000000020160411
201604010060000600000000000000673061000000000000006730619900000000000000000000Consumidor Final              000000000025000000000000025000000000000000000000000000000000000000000000000000000000000000000000000000000000000000000000PES00010000001N00000000000000020160411
201604010060000600000000000000673062000000000000006730629900000000000000000000Consumidor Final              000000000063000000000000063000000000000000000000000000000000000000000000000000000000000000000000000000000000000000000000PES00010000001N00000000000000020160411
201604010060000600000000000000673063000000000000006730639900000000000000000000Consumidor Final              000000000053000000000000053000000000000000000000000000000000000000000000000000000000000000000000000000000000000000000000PES00010000001N00000000000000020160411
201604010060000800000000000000154822000000000000001548229900000000000000000000Consumidor Final              000000000043000000000000043000000000000000000000000000000000000000000000000000000000000000000000000000000000000000000000PES00010000001N00000000000000020160411
201604010060000600000000000000673064000000000000006730649900000000000000000000Consumidor Final              000000000028000000000000028000000000000000000000000000000000000000000000000000000000000000000000000000000000000000000000PES00010000001N00000000000000020160411
201604010060000600000000000000673065000000000000006730659900000000000000000000Consumidor Final              000000000028000000000000028000000000000000000000000000000000000000000000000000000000000000000000000000000000000000000000PES00010000001N00000000000000020160411
201604010060000600000000000000673066000000000000006730669900000000000000000000Consumidor Final              000000000053000000000000053000000000000000000000000000000000000000000000000000000000000000000000000000000000000000000000PES00010000001N00000000000000020160411
201604010060000600000000000000673067000000000000006730679900000000000000000000Consumidor Final              000000000053000000000000053000000000000000000000000000000000000000000000000000000000000000000000000000000000000000000000PES00010000001N00000000000000020160411
201604010060000600000000000000673068000000000000006730689900000000000000000000Consumidor Final              000000000053000000000000053000000000000000000000000000000000000000000000000000000000000000000000000000000000000000000000PES00010000001N00000000000000020160411
201604010060000600000000000000673069000000000000006730699900000000000000000000Consumidor Final              000000000053000000000000053000000000000000000000000000000000000000000000000000000000000000000000000000000000000000000000PES00010000001N00000000000000020160411
201604010060000700000000000000458417000000000000004584179900000000000000000000Consumidor Final              000000000053000000000000053000000000000000000000000000000000000000000000000000000000000000000000000000000000000000000000PES00010000001N00000000000000020160411
201604010060000600000000000000673070000000000000006730709900000000000000000000Consumidor Final              000000000053000000000000053000000000000000000000000000000000000000000000000000000000000000000000000000000000000000000000PES00010000001N00000000000000020160411
201604050060000300000000000000112713000000000000001127139900000000000000000000Consumidor Final              000000000051000000000000051000000000000000000000000000000000000000000000000000000000000000000000000000000000000000000000PES00010000001N00000000000000020160415
201604050060000300000000000000112714000000000000001127149900000000000000000000Consumidor Final              000000000053000000000000053000000000000000000000000000000000000000000000000000000000000000000000000000000000000000000000PES00010000001N00000000000000020160415
201604050060000100000000000000197114000000000000001971149900000000000000000000Consumidor Final              000000000053000000000000053000000000000000000000000000000000000000000000000000000000000000000000000000000000000000000000PES00010000001N00000000000000020160415
201604050060000100000000000000197115000000000000001971159900000000000000000000Consumidor Final              000000000053000000000000053000000000000000000000000000000000000000000000000000000000000000000000000000000000000000000000PES00010000001N00000000000000020160415
201604050060000700000000000000459189000000000000004591899900000000000000000000Consumidor Final              000000000064000000000000064000000000000000000000000000000000000000000000000000000000000000000000000000000000000000000000PES00010000001N00000000000000020160415
201604050060000700000000000000459190000000000000004591909900000000000000000000Consumidor Final              000000000059000000000000059000000000000000000000000000000000000000000000000000000000000000000000000000000000000000000000PES00010000001N00000000000000020160415
201604050060000700000000000000459191000000000000004591919900000000000000000000Consumidor Final              000000000053000000000000053000000000000000000000000000000000000000000000000000000000000000000000000000000000000000000000PES00010000001N00000000000000020160415
201604050060000700000000000000459192000000000000004591929900000000000000000000Consumidor Final              000000000053000000000000053000000000000000000000000000000000000000000000000000000000000000000000000000000000000000000000PES00010000001N00000000000000020160415
201604050060000700000000000000459193000000000000004591939900000000000000000000Consumidor Final              000000000053000000000000053000000000000000000000000000000000000000000000000000000000000000000000000000000000000000000000PES00010000001N00000000000000020160415
201604050060000700000000000000459194000000000000004591949900000000000000000000Consumidor Final              000000000063000000000000063000000000000000000000000000000000000000000000000000000000000000000000000000000000000000000000PES00010000001N00000000000000020160415
201604050060000800000000000000155192000000000000001551929900000000000000000000Consumidor Final              000000000043000000000000043000000000000000000000000000000000000000000000000000000000000000000000000000000000000000000000PES00010000001N00000000000000020160415
201604050060000800000000000000155193000000000000001551939900000000000000000000Consumidor Final              000000000043000000000000043000000000000000000000000000000000000000000000000000000000000000000000000000000000000000000000PES00010000001N00000000000000020160415
201604050060000800000000000000155194000000000000001551949900000000000000000000Consumidor Final              000000000043000000000000043000000000000000000000000000000000000000000000000000000000000000000000000000000000000000000000PES00010000001N00000000000000020160415
201604050060000600000000000000673980000000000000006739809900000000000000000000Consumidor Final              000000000053000000000000053000000000000000000000000000000000000000000000000000000000000000000000000000000000000000000000PES00010000001N00000000000000020160415
201604050060000600000000000000674063000000000000006740639900000000000000000000Consumidor Final              000000000053000000000000053000000000000000000000000000000000000000000000000000000000000000000000000000000000000000000000PES00010000001N00000000000000020160415
201604050060000700000000000000459217000000000000004592179900000000000000000000Consumidor Final              000000000033000000000000033000000000000000000000000000000000000000000000000000000000000000000000000000000000000000000000PES00010000001N00000000000000020160415
201604050060000600000000000000674077000000000000006740779900000000000000000000Consumidor Final              000000000053000000000000053000000000000000000000000000000000000000000000000000000000000000000000000000000000000000000000PES00010000001N00000000000000020160415
201604050060000600000000000000674078000000000000006740789900000000000000000000Consumidor Final              000000000053000000000000053000000000000000000000000000000000000000000000000000000000000000000000000000000000000000000000PES00010000001N00000000000000020160415
201604050060000600000000000000674079000000000000006740799900000000000000000000Consumidor Final              000000000053000000000000053000000000000000000000000000000000000000000000000000000000000000000000000000000000000000000000PES00010000001N00000000000000020160415
201604050060000600000000000000674080000000000000006740809900000000000000000000Consumidor Final              000000000053000000000000053000000000000000000000000000000000000000000000000000000000000000000000000000000000000000000000PES00010000001N00000000000000020160415
201604050060000600000000000000674081000000000000006740819900000000000000000000Consumidor Final              000000000053000000000000053000000000000000000000000000000000000000000000000000000000000000000000000000000000000000000000PES00010000001N00000000000000020160415
201604050060000700000000000000459221000000000000004592219900000000000000000000Consumidor Final              000000000053000000000000053000000000000000000000000000000000000000000000000000000000000000000000000000000000000000000000PES00010000001N00000000000000020160415
201604050060000600000000000000674082000000000000006740829900000000000000000000Consumidor Final              000000000053000000000000053000000000000000000000000000000000000000000000000000000000000000000000000000000000000000000000PES00010000001N00000000000000020160415
201604050060000600000000000000674083000000000000006740839900000000000000000000Consumidor Final              000000000053000000000000053000000000000000000000000000000000000000000000000000000000000000000000000000000000000000000000PES00010000001N00000000000000020160415
201604050060000700000000000000459222000000000000004592229900000000000000000000Consumidor Final              000000000053000000000000053000000000000000000000000000000000000000000000000000000000000000000000000000000000000000000000PES00010000001N00000000000000020160415
201604050060000700000000000000459223000000000000004592239900000000000000000000Consumidor Final              000000000053000000000000053000000000000000000000000000000000000000000000000000000000000000000000000000000000000000000000PES00010000001N00000000000000020160415
201604050060000700000000000000459224000000000000004592249900000000000000000000Consumidor Final              000000000053000000000000053000000000000000000000000000000000000000000000000000000000000000000000000000000000000000000000PES00010000001N00000000000000020160415
201604050060000700000000000000459225000000000000004592259900000000000000000000Consumidor Final              000000000053000000000000053000000000000000000000000000000000000000000000000000000000000000000000000000000000000000000000PES00010000001N00000000000000020160415
201604050060000700000000000000459236000000000000004592369900000000000000000000Consumidor Final              000000000053000000000000053000000000000000000000000000000000000000000000000000000000000000000000000000000000000000000000PES00010000001N00000000000000020160415
201604050060000600000000000000674092000000000000006740929900000000000000000000Consumidor Final              000000000060000000000000060000000000000000000000000000000000000000000000000000000000000000000000000000000000000000000000PES00010000001N00000000000000020160415
201604050060000600000000000000674093000000000000006740939900000000000000000000Consumidor Final              000000000054000000000000054000000000000000000000000000000000000000000000000000000000000000000000000000000000000000000000PES00010000001N00000000000000020160415
201604050060000600000000000000674094000000000000006740949900000000000000000000Consumidor Final              000000000033000000000000033000000000000000000000000000000000000000000000000000000000000000000000000000000000000000000000PES00010000001N00000000000000020160415
201604050060000600000000000000674095000000000000006740959900000000000000000000Consumidor Final              000000000053000000000000053000000000000000000000000000000000000000000000000000000000000000000000000000000000000000000000PES00010000001N00000000000000020160415
201604050060000600000000000000674096000000000000006740969900000000000000000000Consumidor Final              000000000053000000000000053000000000000000000000000000000000000000000000000000000000000000000000000000000000000000000000PES00010000001N00000000000000020160415
201604050060000600000000000000674097000000000000006740979900000000000000000000Consumidor Final              000000000053000000000000053000000000000000000000000000000000000000000000000000000000000000000000000000000000000000000000PES00010000001N00000000000000020160415
201604050060000600000000000000674098000000000000006740989900000000000000000000Consumidor Final              000000000053000000000000053000000000000000000000000000000000000000000000000000000000000000000000000000000000000000000000PES00010000001N00000000000000020160415
201604050060000600000000000000674099000000000000006740999900000000000000000000Consumidor Final              000000000053000000000000053000000000000000000000000000000000000000000000000000000000000000000000000000000000000000000000PES00010000001N00000000000000020160415
201604050060000600000000000000674100000000000000006741009900000000000000000000Consumidor Final              000000000053000000000000053000000000000000000000000000000000000000000000000000000000000000000000000000000000000000000000PES00010000001N00000000000000020160415
201604060060000600000000000000674111000000000000006741119900000000000000000000Consumidor Final              000000000025000000000000025000000000000000000000000000000000000000000000000000000000000000000000000000000000000000000000PES00010000001N00000000000000020160416
201604060060000600000000000000674112000000000000006741129900000000000000000000Consumidor Final              000000000053000000000000053000000000000000000000000000000000000000000000000000000000000000000000000000000000000000000000PES00010000001N00000000000000020160416
201604060060000600000000000000674113000000000000006741139900000000000000000000Consumidor Final              000000000025000000000000025000000000000000000000000000000000000000000000000000000000000000000000000000000000000000000000PES00010000001N00000000000000020160416
201604060060000600000000000000674138000000000000006741389900000000000000000000Consumidor Final              000000000055000000000000055000000000000000000000000000000000000000000000000000000000000000000000000000000000000000000000PES00010000001N00000000000000020160416
201604060060000800000000000000155251000000000000001552519900000000000000000000Consumidor Final              000000000043000000000000043000000000000000000000000000000000000000000000000000000000000000000000000000000000000000000000PES00010000001N00000000000000020160416
201604060060000800000000000000155252000000000000001552529900000000000000000000Consumidor Final              000000000043000000000000043000000000000000000000000000000000000000000000000000000000000000000000000000000000000000000000PES00010000001N00000000000000020160416
201604060060000800000000000000155253000000000000001552539900000000000000000000Consumidor Final              000000000043000000000000043000000000000000000000000000000000000000000000000000000000000000000000000000000000000000000000PES00010000001N00000000000000020160416
201604060060000600000000000000674149000000000000006741499900000000000000000000Consumidor Final              000000000053000000000000053000000000000000000000000000000000000000000000000000000000000000000000000000000000000000000000PES00010000001N00000000000000020160416
201604060060000600000000000000674150000000000000006741509900000000000000000000Consumidor Final              000000000060000000000000060000000000000000000000000000000000000000000000000000000000000000000000000000000000000000000000PES00010000001N00000000000000020160416
201604060060000600000000000000674151000000000000006741519900000000000000000000Consumidor Final              000000000060000000000000060000000000000000000000000000000000000000000000000000000000000000000000000000000000000000000000PES00010000001N00000000000000020160416
201604060060000600000000000000674152000000000000006741529900000000000000000000Consumidor Final              000000000055000000000000055000000000000000000000000000000000000000000000000000000000000000000000000000000000000000000000PES00010000001N00000000000000020160416
201604060060000600000000000000674164000000000000006741649900000000000000000000Consumidor Final              000000000053000000000000053000000000000000000000000000000000000000000000000000000000000000000000000000000000000000000000PES00010000001N00000000000000020160416
201604060060000600000000000000674165000000000000006741659900000000000000000000Consumidor Final              000000000053000000000000053000000000000000000000000000000000000000000000000000000000000000000000000000000000000000000000PES00010000001N00000000000000020160416
201604060060000600000000000000674166000000000000006741669900000000000000000000Consumidor Final              000000000053000000000000053000000000000000000000000000000000000000000000000000000000000000000000000000000000000000000000PES00010000001N00000000000000020160416
201604060060000600000000000000674167000000000000006741679900000000000000000000Consumidor Final              000000000053000000000000053000000000000000000000000000000000000000000000000000000000000000000000000000000000000000000000PES00010000001N00000000000000020160416
201604060060000600000000000000674168000000000000006741689900000000000000000000Consumidor Final              000000000053000000000000053000000000000000000000000000000000000000000000000000000000000000000000000000000000000000000000PES00010000001N00000000000000020160416
201604060060000600000000000000674169000000000000006741699900000000000000000000Consumidor Final              000000000053000000000000053000000000000000000000000000000000000000000000000000000000000000000000000000000000000000000000PES00010000001N00000000000000020160416
201604010060000700000000000000458432000000000000004584329900000000000000000000Consumidor Final              000000000053000000000000053000000000000000000000000000000000000000000000000000000000000000000000000000000000000000000000PES00010000001N00000000000000020160411
201604010060000600000000000000673090000000000000006730909900000000000000000000Consumidor Final              000000000051000000000000051000000000000000000000000000000000000000000000000000000000000000000000000000000000000000000000PES00010000001N00000000000000020160411
201604010060000600000000000000673091000000000000006730919900000000000000000000Consumidor Final              000000000028000000000000028000000000000000000000000000000000000000000000000000000000000000000000000000000000000000000000PES00010000001N00000000000000020160411
201604010060000600000000000000673092000000000000006730929900000000000000000000Consumidor Final              000000000053000000000000053000000000000000000000000000000000000000000000000000000000000000000000000000000000000000000000PES00010000001N00000000000000020160411
201604010060000600000000000000673097000000000000006730979900000000000000000000Consumidor Final              000000000053000000000000053000000000000000000000000000000000000000000000000000000000000000000000000000000000000000000000PES00010000001N00000000000000020160411
201604010060000600000000000000673098000000000000006730989900000000000000000000Consumidor Final              000000000053000000000000053000000000000000000000000000000000000000000000000000000000000000000000000000000000000000000000PES00010000001N00000000000000020160411
201604010060000700000000000000458440000000000000004584409900000000000000000000Consumidor Final              000000000033000000000000033000000000000000000000000000000000000000000000000000000000000000000000000000000000000000000000PES00010000001N00000000000000020160411
201604010060000700000000000000458441000000000000004584419900000000000000000000Consumidor Final              000000000053000000000000053000000000000000000000000000000000000000000000000000000000000000000000000000000000000000000000PES00010000001N00000000000000020160411
201604010060000700000000000000458442000000000000004584429900000000000000000000Consumidor Final              000000000053000000000000053000000000000000000000000000000000000000000000000000000000000000000000000000000000000000000000PES00010000001N00000000000000020160411
201604010060000700000000000000458443000000000000004584439900000000000000000000Consumidor Final              000000000051000000000000051000000000000000000000000000000000000000000000000000000000000000000000000000000000000000000000PES00010000001N00000000000000020160411
201604010060000700000000000000458444000000000000004584449900000000000000000000Consumidor Final              000000000053000000000000053000000000000000000000000000000000000000000000000000000000000000000000000000000000000000000000PES00010000001N00000000000000020160411
201604010060000700000000000000458445000000000000004584459900000000000000000000Consumidor Final              000000000053000000000000053000000000000000000000000000000000000000000000000000000000000000000000000000000000000000000000PES00010000001N00000000000000020160411
201604010060000600000000000000673100000000000000006731009900000000000000000000Consumidor Final              000000000063000000000000063000000000000000000000000000000000000000000000000000000000000000000000000000000000000000000000PES00010000001N00000000000000020160411
201604010060000600000000000000673101000000000000006731019900000000000000000000Consumidor Final              000000000060000000000000060000000000000000000000000000000000000000000000000000000000000000000000000000000000000000000000PES00010000001N00000000000000020160411
201604010060000700000000000000458433000000000000004584339900000000000000000000Consumidor Final              000000000053000000000000053000000000000000000000000000000000000000000000000000000000000000000000000000000000000000000000PES00010000001N00000000000000020160411
201604010060000800000000000000154830000000000000001548309900000000000000000000Consumidor Final              000000000043000000000000043000000000000000000000000000000000000000000000000000000000000000000000000000000000000000000000PES00010000001N00000000000000020160411
201604010060000800000000000000154831000000000000001548319900000000000000000000Consumidor Final              000000000043000000000000043000000000000000000000000000000000000000000000000000000000000000000000000000000000000000000000PES00010000001N00000000000000020160411
201604010060000800000000000000154832000000000000001548329900000000000000000000Consumidor Final              000000000043000000000000043000000000000000000000000000000000000000000000000000000000000000000000000000000000000000000000PES00010000001N00000000000000020160411
201604010060000800000000000000154833000000000000001548339900000000000000000000Consumidor Final              000000000043000000000000043000000000000000000000000000000000000000000000000000000000000000000000000000000000000000000000PES00010000001N00000000000000020160411
201604010060000800000000000000154834000000000000001548349900000000000000000000Consumidor Final              000000000043000000000000043000000000000000000000000000000000000000000000000000000000000000000000000000000000000000000000PES00010000001N00000000000000020160411
201604010060000700000000000000458454000000000000004584549900000000000000000000Consumidor Final              000000000053000000000000053000000000000000000000000000000000000000000000000000000000000000000000000000000000000000000000PES00010000001N00000000000000020160411
201604010060000700000000000000458455000000000000004584559900000000000000000000Consumidor Final              000000000053000000000000053000000000000000000000000000000000000000000000000000000000000000000000000000000000000000000000PES00010000001N00000000000000020160411
201604010060000700000000000000458456000000000000004584569900000000000000000000Consumidor Final              000000000053000000000000053000000000000000000000000000000000000000000000000000000000000000000000000000000000000000000000PES00010000001N00000000000000020160411
201604010060000700000000000000458457000000000000004584579900000000000000000000Consumidor Final              000000000063000000000000063000000000000000000000000000000000000000000000000000000000000000000000000000000000000000000000PES00010000001N00000000000000020160411
