201601050060000100000000000000193295000000000000001932959900000000000000000000Consumidor Final              000000000050000000000000050000000000000000000000000000000000000000000000000000000000000000000000000000000000000000000000PES00010000001N00000000000000020160115
201601050060000100000000000000193338000000000000001933389900000000000000000000Consumidor Final              000000000050000000000000050000000000000000000000000000000000000000000000000000000000000000000000000000000000000000000000PES00010000001N00000000000000020160115
201601050060000100000000000000193339000000000000001933399900000000000000000000Consumidor Final              000000000050000000000000050000000000000000000000000000000000000000000000000000000000000000000000000000000000000000000000PES00010000001N00000000000000020160115
201601050060000100000000000000193340000000000000001933409900000000000000000000Consumidor Final              000000000050000000000000050000000000000000000000000000000000000000000000000000000000000000000000000000000000000000000000PES00010000001N00000000000000020160115
201601050060000100000000000000193341000000000000001933419900000000000000000000Consumidor Final              000000000050000000000000050000000000000000000000000000000000000000000000000000000000000000000000000000000000000000000000PES00010000001N00000000000000020160115
201601050060000100000000000000193342000000000000001933429900000000000000000000Consumidor Final              000000000050000000000000050000000000000000000000000000000000000000000000000000000000000000000000000000000000000000000000PES00010000001N00000000000000020160115
201601050060000100000000000000193343000000000000001933439900000000000000000000Consumidor Final              000000000050000000000000050000000000000000000000000000000000000000000000000000000000000000000000000000000000000000000000PES00010000001N00000000000000020160115
201601050060000100000000000000193344000000000000001933449900000000000000000000Consumidor Final              000000000050000000000000050000000000000000000000000000000000000000000000000000000000000000000000000000000000000000000000PES00010000001N00000000000000020160115
201601050060000100000000000000193345000000000000001933459900000000000000000000Consumidor Final              000000000050000000000000050000000000000000000000000000000000000000000000000000000000000000000000000000000000000000000000PES00010000001N00000000000000020160115
201601050060000100000000000000193346000000000000001933469900000000000000000000Consumidor Final              000000000050000000000000050000000000000000000000000000000000000000000000000000000000000000000000000000000000000000000000PES00010000001N00000000000000020160115
201601050060000100000000000000193347000000000000001933479900000000000000000000Consumidor Final              000000000050000000000000050000000000000000000000000000000000000000000000000000000000000000000000000000000000000000000000PES00010000001N00000000000000020160115
201601050060000100000000000000193348000000000000001933489900000000000000000000Consumidor Final              000000000094000000000000094000000000000000000000000000000000000000000000000000000000000000000000000000000000000000000000PES00010000001N00000000000000020160115
201601050060000100000000000000193349000000000000001933499900000000000000000000Consumidor Final              000000000052000000000000052000000000000000000000000000000000000000000000000000000000000000000000000000000000000000000000PES00010000001N00000000000000020160115
201601050060000100000000000000193350000000000000001933509900000000000000000000Consumidor Final              000000000050000000000000050000000000000000000000000000000000000000000000000000000000000000000000000000000000000000000000PES00010000001N00000000000000020160115
201601190060000300000000000000110808000000000000001108089900000000000000000000Consumidor Final              000000000060000000000000060000000000000000000000000000000000000000000000000000000000000000000000000000000000000000000000PES00010000001N00000000000000020160129
201601190060000300000000000000110809000000000000001108099900000000000000000000Consumidor Final              000000000050000000000000050000000000000000000000000000000000000000000000000000000000000000000000000000000000000000000000PES00010000001N00000000000000020160129
201601190060000900000000000000025767000000000000000257679900000000000000000000Consumidor Final              000000000045000000000000045000000000000000000000000000000000000000000000000000000000000000000000000000000000000000000000PES00010000001N00000000000000020160129
201601190060000900000000000000025768000000000000000257689900000000000000000000Consumidor Final              000000000045000000000000045000000000000000000000000000000000000000000000000000000000000000000000000000000000000000000000PES00010000001N00000000000000020160129
201601190060000300000000000000110824000000000000001108249900000000000000000000Consumidor Final              000000000050000000000000050000000000000000000000000000000000000000000000000000000000000000000000000000000000000000000000PES00010000001N00000000000000020160129
201601190060000300000000000000110825000000000000001108259900000000000000000000Consumidor Final              000000000050000000000000050000000000000000000000000000000000000000000000000000000000000000000000000000000000000000000000PES00010000001N00000000000000020160129
201601190060000900000000000000025772000000000000000257729900000000000000000000Consumidor Final              000000000050000000000000050000000000000000000000000000000000000000000000000000000000000000000000000000000000000000000000PES00010000001N00000000000000020160129
201601190060000900000000000000025773000000000000000257739900000000000000000000Consumidor Final              000000000050000000000000050000000000000000000000000000000000000000000000000000000000000000000000000000000000000000000000PES00010000001N00000000000000020160129
201601190060000900000000000000025774000000000000000257749900000000000000000000Consumidor Final              000000000050000000000000050000000000000000000000000000000000000000000000000000000000000000000000000000000000000000000000PES00010000001N00000000000000020160129
201601190060000900000000000000025775000000000000000257759900000000000000000000Consumidor Final              000000000033000000000000033000000000000000000000000000000000000000000000000000000000000000000000000000000000000000000000PES00010000001N00000000000000020160129
201601190060000400000000000000013335000000000000000133359900000000000000000000Consumidor Final              000000000050000000000000050000000000000000000000000000000000000000000000000000000000000000000000000000000000000000000000PES00010000001N00000000000000020160129
201601190060000400000000000000013336000000000000000133369900000000000000000000Consumidor Final              000000000033000000000000033000000000000000000000000000000000000000000000000000000000000000000000000000000000000000000000PES00010000001N00000000000000020160129
201601190060000400000000000000013337000000000000000133379900000000000000000000Consumidor Final              000000000050000000000000050000000000000000000000000000000000000000000000000000000000000000000000000000000000000000000000PES00010000001N00000000000000020160129
201601190060000300000000000000110844000000000000001108449900000000000000000000Consumidor Final              000000000046000000000000046000000000000000000000000000000000000000000000000000000000000000000000000000000000000000000000PES00010000001N00000000000000020160129
201601020060000600000000000000658115000000000000006581159900000000000000000000Consumidor Final              000000000052000000000000052000000000000000000000000000000000000000000000000000000000000000000000000000000000000000000000PES00010000001N00000000000000020160112
201601020060000900000000000000025376000000000000000253769900000000000000000000Consumidor Final              000000000050000000000000050000000000000000000000000000000000000000000000000000000000000000000000000000000000000000000000PES00010000001N00000000000000020160112
201601020060000600000000000000658116000000000000006581169900000000000000000000Consumidor Final              000000000050000000000000050000000000000000000000000000000000000000000000000000000000000000000000000000000000000000000000PES00010000001N00000000000000020160112
201601020060000900000000000000025377000000000000000253779900000000000000000000Consumidor Final              000000000050000000000000050000000000000000000000000000000000000000000000000000000000000000000000000000000000000000000000PES00010000001N00000000000000020160112
201601020060000800000000000000148470000000000000001484709900000000000000000000Consumidor Final              000000000040000000000000040000000000000000000000000000000000000000000000000000000000000000000000000000000000000000000000PES00010000001N00000000000000020160112
201601020060000900000000000000025378000000000000000253789900000000000000000000Consumidor Final              000000000050000000000000050000000000000000000000000000000000000000000000000000000000000000000000000000000000000000000000PES00010000001N00000000000000020160112
201601020060000800000000000000148471000000000000001484719900000000000000000000Consumidor Final              000000000040000000000000040000000000000000000000000000000000000000000000000000000000000000000000000000000000000000000000PES00010000001N00000000000000020160112
201601020060000600000000000000658117000000000000006581179900000000000000000000Consumidor Final              000000000050000000000000050000000000000000000000000000000000000000000000000000000000000000000000000000000000000000000000PES00010000001N00000000000000020160112
201601020060000900000000000000025379000000000000000253799900000000000000000000Consumidor Final              000000000050000000000000050000000000000000000000000000000000000000000000000000000000000000000000000000000000000000000000PES00010000001N00000000000000020160112
201601020060000600000000000000658121000000000000006581219900000000000000000000Consumidor Final              000000000050000000000000050000000000000000000000000000000000000000000000000000000000000000000000000000000000000000000000PES00010000001N00000000000000020160112
201601020060000600000000000000658122000000000000006581229900000000000000000000Consumidor Final              000000000062000000000000062000000000000000000000000000000000000000000000000000000000000000000000000000000000000000000000PES00010000001N00000000000000020160112
201601020060000600000000000000658123000000000000006581239900000000000000000000Consumidor Final              000000000050000000000000050000000000000000000000000000000000000000000000000000000000000000000000000000000000000000000000PES00010000001N00000000000000020160112
201601020060000600000000000000658124000000000000006581249900000000000000000000Consumidor Final              000000000050000000000000050000000000000000000000000000000000000000000000000000000000000000000000000000000000000000000000PES00010000001N00000000000000020160112
201601020060000600000000000000658125000000000000006581259900000000000000000000Consumidor Final              000000000050000000000000050000000000000000000000000000000000000000000000000000000000000000000000000000000000000000000000PES00010000001N00000000000000020160112
201601040060000800000000000000148620000000000000001486209900000000000000000000Consumidor Final              000000000048000000000000048000000000000000000000000000000000000000000000000000000000000000000000000000000000000000000000PES00010000001N00000000000000020160114
201601040060000800000000000000148621000000000000001486219900000000000000000000Consumidor Final              000000000022000000000000022000000000000000000000000000000000000000000000000000000000000000000000000000000000000000000000PES00010000001N00000000000000020160114
201601040060000700000000000000446865000000000000004468659900000000000000000000Consumidor Final              000000000050000000000000050000000000000000000000000000000000000000000000000000000000000000000000000000000000000000000000PES00010000001N00000000000000020160114
201601040060000700000000000000446866000000000000004468669900000000000000000000Consumidor Final              000000000060000000000000060000000000000000000000000000000000000000000000000000000000000000000000000000000000000000000000PES00010000001N00000000000000020160114
201601040060000300000000000000109264000000000000001092649900000000000000000000Consumidor Final              000000000050000000000000050000000000000000000000000000000000000000000000000000000000000000000000000000000000000000000000PES00010000001N00000000000000020160114
201601040060000300000000000000109265000000000000001092659900000000000000000000Consumidor Final              000000000050000000000000050000000000000000000000000000000000000000000000000000000000000000000000000000000000000000000000PES00010000001N00000000000000020160114
201601040060000300000000000000109266000000000000001092669900000000000000000000Consumidor Final              000000000050000000000000050000000000000000000000000000000000000000000000000000000000000000000000000000000000000000000000PES00010000001N00000000000000020160114
201601040060000600000000000000658326000000000000006583269900000000000000000000Consumidor Final              000000000060000000000000060000000000000000000000000000000000000000000000000000000000000000000000000000000000000000000000PES00010000001N00000000000000020160114
201601040060000300000000000000109267000000000000001092679900000000000000000000Consumidor Final              000000000050000000000000050000000000000000000000000000000000000000000000000000000000000000000000000000000000000000000000PES00010000001N00000000000000020160114
201601040060000300000000000000109268000000000000001092689900000000000000000000Consumidor Final              000000000050000000000000050000000000000000000000000000000000000000000000000000000000000000000000000000000000000000000000PES00010000001N00000000000000020160114
201601040060000300000000000000109269000000000000001092699900000000000000000000Consumidor Final              000000000050000000000000050000000000000000000000000000000000000000000000000000000000000000000000000000000000000000000000PES00010000001N00000000000000020160114
201601040060000100000000000000193111000000000000001931119900000000000000000000Consumidor Final              000000000050000000000000050000000000000000000000000000000000000000000000000000000000000000000000000000000000000000000000PES00010000001N00000000000000020160114
201601040060000300000000000000109270000000000000001092709900000000000000000000Consumidor Final              000000000050000000000000050000000000000000000000000000000000000000000000000000000000000000000000000000000000000000000000PES00010000001N00000000000000020160114
201601040060000100000000000000193112000000000000001931129900000000000000000000Consumidor Final              000000000050000000000000050000000000000000000000000000000000000000000000000000000000000000000000000000000000000000000000PES00010000001N00000000000000020160114
201601040060000600000000000000658437000000000000006584379900000000000000000000Consumidor Final              000000000050000000000000050000000000000000000000000000000000000000000000000000000000000000000000000000000000000000000000PES00010000001N00000000000000020160114
201601040060000600000000000000658438000000000000006584389900000000000000000000Consumidor Final              000000000050000000000000050000000000000000000000000000000000000000000000000000000000000000000000000000000000000000000000PES00010000001N00000000000000020160114
201601040060000600000000000000658439000000000000006584399900000000000000000000Consumidor Final              000000000022000000000000022000000000000000000000000000000000000000000000000000000000000000000000000000000000000000000000PES00010000001N00000000000000020160114
201601040060000800000000000000148698000000000000001486989900000000000000000000Consumidor Final              000000000040000000000000040000000000000000000000000000000000000000000000000000000000000000000000000000000000000000000000PES00010000001N00000000000000020160114
201601040060000800000000000000148699000000000000001486999900000000000000000000Consumidor Final              000000000040000000000000040000000000000000000000000000000000000000000000000000000000000000000000000000000000000000000000PES00010000001N00000000000000020160114
201601040060000600000000000000658445000000000000006584459900000000000000000000Consumidor Final              000000000050000000000000050000000000000000000000000000000000000000000000000000000000000000000000000000000000000000000000PES00010000001N00000000000000020160114
201601040060000600000000000000658453000000000000006584539900000000000000000000Consumidor Final              000000000060000000000000060000000000000000000000000000000000000000000000000000000000000000000000000000000000000000000000PES00010000001N00000000000000020160114
201601040060000600000000000000658454000000000000006584549900000000000000000000Consumidor Final              000000000050000000000000050000000000000000000000000000000000000000000000000000000000000000000000000000000000000000000000PES00010000001N00000000000000020160114
201601210060000300000000000000110954000000000000001109549900000000000000000000Consumidor Final              000000000050000000000000050000000000000000000000000000000000000000000000000000000000000000000000000000000000000000000000PES00010000001N00000000000000020160131
201601210060000100000000000000194585000000000000001945859900000000000000000000Consumidor Final              000000000050000000000000050000000000000000000000000000000000000000000000000000000000000000000000000000000000000000000000PES00010000001N00000000000000020160131
201601210060000400000000000000013358000000000000000133589900000000000000000000Consumidor Final              000000000050000000000000050000000000000000000000000000000000000000000000000000000000000000000000000000000000000000000000PES00010000001N00000000000000020160131
201601210060000400000000000000013359000000000000000133599900000000000000000000Consumidor Final              000000000050000000000000050000000000000000000000000000000000000000000000000000000000000000000000000000000000000000000000PES00010000001N00000000000000020160131
201601210060000400000000000000013360000000000000000133609900000000000000000000Consumidor Final              000000000033000000000000033000000000000000000000000000000000000000000000000000000000000000000000000000000000000000000000PES00010000001N00000000000000020160131
201601210060000400000000000000013361000000000000000133619900000000000000000000Consumidor Final              000000000050000000000000050000000000000000000000000000000000000000000000000000000000000000000000000000000000000000000000PES00010000001N00000000000000020160131
201601210060000400000000000000013362000000000000000133629900000000000000000000Consumidor Final              000000000028000000000000028000000000000000000000000000000000000000000000000000000000000000000000000000000000000000000000PES00010000001N00000000000000020160131
201601210060000400000000000000013363000000000000000133639900000000000000000000Consumidor Final              000000000048000000000000048000000000000000000000000000000000000000000000000000000000000000000000000000000000000000000000PES00010000001N00000000000000020160131
201601210060000300000000000000110983000000000000001109839900000000000000000000Consumidor Final              000000000050000000000000050000000000000000000000000000000000000000000000000000000000000000000000000000000000000000000000PES00010000001N00000000000000020160131
201601220060000300000000000000111008000000000000001110089900000000000000000000Consumidor Final              000000000062000000000000062000000000000000000000000000000000000000000000000000000000000000000000000000000000000000000000PES00010000001N00000000000000020160201
201601220060000300000000000000111009000000000000001110099900000000000000000000Consumidor Final              000000000050000000000000050000000000000000000000000000000000000000000000000000000000000000000000000000000000000000000000PES00010000001N00000000000000020160201
201601220060000300000000000000111010000000000000001110109900000000000000000000Consumidor Final              000000000050000000000000050000000000000000000000000000000000000000000000000000000000000000000000000000000000000000000000PES00010000001N00000000000000020160201
201601220060000300000000000000111011000000000000001110119900000000000000000000Consumidor Final              000000000050000000000000050000000000000000000000000000000000000000000000000000000000000000000000000000000000000000000000PES00010000001N00000000000000020160201
201601220060000300000000000000111012000000000000001110129900000000000000000000Consumidor Final              000000000050000000000000050000000000000000000000000000000000000000000000000000000000000000000000000000000000000000000000PES00010000001N00000000000000020160201
201601210060000300000000000000110955000000000000001109559900000000000000000000Consumidor Final              000000000050000000000000050000000000000000000000000000000000000000000000000000000000000000000000000000000000000000000000PES00010000001N00000000000000020160131
201601210060000300000000000000110956000000000000001109569900000000000000000000Consumidor Final              000000000050000000000000050000000000000000000000000000000000000000000000000000000000000000000000000000000000000000000000PES00010000001N00000000000000020160131
201601210060000300000000000000110957000000000000001109579900000000000000000000Consumidor Final              000000000050000000000000050000000000000000000000000000000000000000000000000000000000000000000000000000000000000000000000PES00010000001N00000000000000020160131
201601210060000300000000000000110958000000000000001109589900000000000000000000Consumidor Final              000000000050000000000000050000000000000000000000000000000000000000000000000000000000000000000000000000000000000000000000PES00010000001N00000000000000020160131
201601210060000300000000000000110959000000000000001109599900000000000000000000Consumidor Final              000000000050000000000000050000000000000000000000000000000000000000000000000000000000000000000000000000000000000000000000PES00010000001N00000000000000020160131
201601210060000300000000000000110960000000000000001109609900000000000000000000Consumidor Final              000000000050000000000000050000000000000000000000000000000000000000000000000000000000000000000000000000000000000000000000PES00010000001N00000000000000020160131
201601210060000100000000000000194586000000000000001945869900000000000000000000Consumidor Final              000000000050000000000000050000000000000000000000000000000000000000000000000000000000000000000000000000000000000000000000PES00010000001N00000000000000020160131
201601210060000100000000000000194587000000000000001945879900000000000000000000Consumidor Final              000000000050000000000000050000000000000000000000000000000000000000000000000000000000000000000000000000000000000000000000PES00010000001N00000000000000020160131
201601210060000100000000000000194588000000000000001945889900000000000000000000Consumidor Final              000000000050000000000000050000000000000000000000000000000000000000000000000000000000000000000000000000000000000000000000PES00010000001N00000000000000020160131
201601210060000100000000000000194589000000000000001945899900000000000000000000Consumidor Final              000000000050000000000000050000000000000000000000000000000000000000000000000000000000000000000000000000000000000000000000PES00010000001N00000000000000020160131
201601210060000100000000000000194590000000000000001945909900000000000000000000Consumidor Final              000000000036000000000000036000000000000000000000000000000000000000000000000000000000000000000000000000000000000000000000PES00010000001N00000000000000020160131
201601210060000100000000000000194591000000000000001945919900000000000000000000Consumidor Final              000000000050000000000000050000000000000000000000000000000000000000000000000000000000000000000000000000000000000000000000PES00010000001N00000000000000020160131
201601220060000300000000000000111013000000000000001110139900000000000000000000Consumidor Final              000000000050000000000000050000000000000000000000000000000000000000000000000000000000000000000000000000000000000000000000PES00010000001N00000000000000020160201
201601210060000300000000000000110975000000000000001109758000000000020107775758JORGE ALBERTO MIRAMONTES      000000000174000000000000174000000000000000000000000000000000000000000000000000000000000000000000000000000000000000000000PES00010000001N00000000000000020160131
201601210060000300000000000000110976000000000000001109769900000000000000000000Consumidor Final              000000000050000000000000050000000000000000000000000000000000000000000000000000000000000000000000000000000000000000000000PES00010000001N00000000000000020160131
201601210060000300000000000000110977000000000000001109779900000000000000000000Consumidor Final              000000000050000000000000050000000000000000000000000000000000000000000000000000000000000000000000000000000000000000000000PES00010000001N00000000000000020160131
201601210060000300000000000000110978000000000000001109789900000000000000000000Consumidor Final              000000000049000000000000049000000000000000000000000000000000000000000000000000000000000000000000000000000000000000000000PES00010000001N00000000000000020160131
201601210060000300000000000000110979000000000000001109799900000000000000000000Consumidor Final              000000000040000000000000040000000000000000000000000000000000000000000000000000000000000000000000000000000000000000000000PES00010000001N00000000000000020160131
201601210060000300000000000000110980000000000000001109809900000000000000000000Consumidor Final              000000000040000000000000040000000000000000000000000000000000000000000000000000000000000000000000000000000000000000000000PES00010000001N00000000000000020160131
201601210060000300000000000000110981000000000000001109819900000000000000000000Consumidor Final              000000000060000000000000060000000000000000000000000000000000000000000000000000000000000000000000000000000000000000000000PES00010000001N00000000000000020160131
201601210060000300000000000000110982000000000000001109829900000000000000000000Consumidor Final              000000000051000000000000051000000000000000000000000000000000000000000000000000000000000000000000000000000000000000000000PES00010000001N00000000000000020160131
201601210060000400000000000000013352000000000000000133529900000000000000000000Consumidor Final              000000000050000000000000050000000000000000000000000000000000000000000000000000000000000000000000000000000000000000000000PES00010000001N00000000000000020160131
201601210060000400000000000000013353000000000000000133539900000000000000000000Consumidor Final              000000000050000000000000050000000000000000000000000000000000000000000000000000000000000000000000000000000000000000000000PES00010000001N00000000000000020160131
201601210060000400000000000000013354000000000000000133549900000000000000000000Consumidor Final              000000000050000000000000050000000000000000000000000000000000000000000000000000000000000000000000000000000000000000000000PES00010000001N00000000000000020160131
201601210060000400000000000000013355000000000000000133559900000000000000000000Consumidor Final              000000000050000000000000050000000000000000000000000000000000000000000000000000000000000000000000000000000000000000000000PES00010000001N00000000000000020160131
201601210060000400000000000000013356000000000000000133569900000000000000000000Consumidor Final              000000000050000000000000050000000000000000000000000000000000000000000000000000000000000000000000000000000000000000000000PES00010000001N00000000000000020160131
201601210060000400000000000000013357000000000000000133579900000000000000000000Consumidor Final              000000000050000000000000050000000000000000000000000000000000000000000000000000000000000000000000000000000000000000000000PES00010000001N00000000000000020160131
201601210060000300000000000000110991000000000000001109919900000000000000000000Consumidor Final              000000000050000000000000050000000000000000000000000000000000000000000000000000000000000000000000000000000000000000000000PES00010000001N00000000000000020160131
201601210060000300000000000000110992000000000000001109929900000000000000000000Consumidor Final              000000000050000000000000050000000000000000000000000000000000000000000000000000000000000000000000000000000000000000000000PES00010000001N00000000000000020160131
201601210060000300000000000000110993000000000000001109939900000000000000000000Consumidor Final              000000000050000000000000050000000000000000000000000000000000000000000000000000000000000000000000000000000000000000000000PES00010000001N00000000000000020160131
201601210060000300000000000000110994000000000000001109949900000000000000000000Consumidor Final              000000000050000000000000050000000000000000000000000000000000000000000000000000000000000000000000000000000000000000000000PES00010000001N00000000000000020160131
201601210060000300000000000000110995000000000000001109959900000000000000000000Consumidor Final              000000000050000000000000050000000000000000000000000000000000000000000000000000000000000000000000000000000000000000000000PES00010000001N00000000000000020160131
201601210060000300000000000000110996000000000000001109969900000000000000000000Consumidor Final              000000000050000000000000050000000000000000000000000000000000000000000000000000000000000000000000000000000000000000000000PES00010000001N00000000000000020160131
201601210060000300000000000000110997000000000000001109979900000000000000000000Consumidor Final              000000000050000000000000050000000000000000000000000000000000000000000000000000000000000000000000000000000000000000000000PES00010000001N00000000000000020160131
201601210060000300000000000000110998000000000000001109989900000000000000000000Consumidor Final              000000000050000000000000050000000000000000000000000000000000000000000000000000000000000000000000000000000000000000000000PES00010000001N00000000000000020160131
201601210060000300000000000000110999000000000000001109999900000000000000000000Consumidor Final              000000000050000000000000050000000000000000000000000000000000000000000000000000000000000000000000000000000000000000000000PES00010000001N00000000000000020160131
201601210060000300000000000000111000000000000000001110009900000000000000000000Consumidor Final              000000000050000000000000050000000000000000000000000000000000000000000000000000000000000000000000000000000000000000000000PES00010000001N00000000000000020160131
201601210060000300000000000000111001000000000000001110019900000000000000000000Consumidor Final              000000000050000000000000050000000000000000000000000000000000000000000000000000000000000000000000000000000000000000000000PES00010000001N00000000000000020160131
201601210060000300000000000000111002000000000000001110029900000000000000000000Consumidor Final              000000000040000000000000040000000000000000000000000000000000000000000000000000000000000000000000000000000000000000000000PES00010000001N00000000000000020160131
201601210060000300000000000000111003000000000000001110039900000000000000000000Consumidor Final              000000000050000000000000050000000000000000000000000000000000000000000000000000000000000000000000000000000000000000000000PES00010000001N00000000000000020160131
201601220060000300000000000000111004000000000000001110049900000000000000000000Consumidor Final              000000000050000000000000050000000000000000000000000000000000000000000000000000000000000000000000000000000000000000000000PES00010000001N00000000000000020160201
201601220060000300000000000000111005000000000000001110059900000000000000000000Consumidor Final              000000000071000000000000071000000000000000000000000000000000000000000000000000000000000000000000000000000000000000000000PES00010000001N00000000000000020160201
201601220060000300000000000000111006000000000000001110069900000000000000000000Consumidor Final              000000000050000000000000050000000000000000000000000000000000000000000000000000000000000000000000000000000000000000000000PES00010000001N00000000000000020160201
201601220060000300000000000000111007000000000000001110079900000000000000000000Consumidor Final              000000000062000000000000062000000000000000000000000000000000000000000000000000000000000000000000000000000000000000000000PES00010000001N00000000000000020160201
201601220060000300000000000000111044000000000000001110449900000000000000000000Consumidor Final              000000000045000000000000045000000000000000000000000000000000000000000000000000000000000000000000000000000000000000000000PES00010000001N00000000000000020160201
201601220060000300000000000000111045000000000000001110459900000000000000000000Consumidor Final              000000000050000000000000050000000000000000000000000000000000000000000000000000000000000000000000000000000000000000000000PES00010000001N00000000000000020160201
201601220060000300000000000000111046000000000000001110469900000000000000000000Consumidor Final              000000000062000000000000062000000000000000000000000000000000000000000000000000000000000000000000000000000000000000000000PES00010000001N00000000000000020160201
201601220060000800000000000000149862000000000000001498629900000000000000000000Consumidor Final              000000000040000000000000040000000000000000000000000000000000000000000000000000000000000000000000000000000000000000000000PES00010000001N00000000000000020160201
201601220060000800000000000000149863000000000000001498639900000000000000000000Consumidor Final              000000000040000000000000040000000000000000000000000000000000000000000000000000000000000000000000000000000000000000000000PES00010000001N00000000000000020160201
201601210060000100000000000000194635000000000000001946359900000000000000000000Consumidor Final              000000000040000000000000040000000000000000000000000000000000000000000000000000000000000000000000000000000000000000000000PES00010000001N00000000000000020160131
201601210060000100000000000000194636000000000000001946369900000000000000000000Consumidor Final              000000000050000000000000050000000000000000000000000000000000000000000000000000000000000000000000000000000000000000000000PES00010000001N00000000000000020160131
201601210060000100000000000000194637000000000000001946379900000000000000000000Consumidor Final              000000000050000000000000050000000000000000000000000000000000000000000000000000000000000000000000000000000000000000000000PES00010000001N00000000000000020160131
201601210060000100000000000000194638000000000000001946389900000000000000000000Consumidor Final              000000000060000000000000060000000000000000000000000000000000000000000000000000000000000000000000000000000000000000000000PES00010000001N00000000000000020160131
201601210060000100000000000000194639000000000000001946399900000000000000000000Consumidor Final              000000000060000000000000060000000000000000000000000000000000000000000000000000000000000000000000000000000000000000000000PES00010000001N00000000000000020160131
201601210060000100000000000000194640000000000000001946409900000000000000000000Consumidor Final              000000000060000000000000060000000000000000000000000000000000000000000000000000000000000000000000000000000000000000000000PES00010000001N00000000000000020160131
201601220060000300000000000000111014000000000000001110149900000000000000000000Consumidor Final              000000000068000000000000068000000000000000000000000000000000000000000000000000000000000000000000000000000000000000000000PES00010000001N00000000000000020160201
201601220060000300000000000000111015000000000000001110159900000000000000000000Consumidor Final              000000000050000000000000050000000000000000000000000000000000000000000000000000000000000000000000000000000000000000000000PES00010000001N00000000000000020160201
201601220060000300000000000000111016000000000000001110169900000000000000000000Consumidor Final              000000000060000000000000060000000000000000000000000000000000000000000000000000000000000000000000000000000000000000000000PES00010000001N00000000000000020160201
201601220060000300000000000000111017000000000000001110179900000000000000000000Consumidor Final              000000000051000000000000051000000000000000000000000000000000000000000000000000000000000000000000000000000000000000000000PES00010000001N00000000000000020160201
201601220060000300000000000000111018000000000000001110189900000000000000000000Consumidor Final              000000000050000000000000050000000000000000000000000000000000000000000000000000000000000000000000000000000000000000000000PES00010000001N00000000000000020160201
201601220060000300000000000000111019000000000000001110199900000000000000000000Consumidor Final              000000000050000000000000050000000000000000000000000000000000000000000000000000000000000000000000000000000000000000000000PES00010000001N00000000000000020160201
201601220060000300000000000000111020000000000000001110209900000000000000000000Consumidor Final              000000000050000000000000050000000000000000000000000000000000000000000000000000000000000000000000000000000000000000000000PES00010000001N00000000000000020160201
201601220060000300000000000000111021000000000000001110219900000000000000000000Consumidor Final              000000000019000000000000019000000000000000000000000000000000000000000000000000000000000000000000000000000000000000000000PES00010000001N00000000000000020160201
201601220060000300000000000000111022000000000000001110229900000000000000000000Consumidor Final              000000000048000000000000048000000000000000000000000000000000000000000000000000000000000000000000000000000000000000000000PES00010000001N00000000000000020160201
201601220060000300000000000000111023000000000000001110239900000000000000000000Consumidor Final              000000000040000000000000040000000000000000000000000000000000000000000000000000000000000000000000000000000000000000000000PES00010000001N00000000000000020160201
201601220060000300000000000000111024000000000000001110249900000000000000000000Consumidor Final              000000000050000000000000050000000000000000000000000000000000000000000000000000000000000000000000000000000000000000000000PES00010000001N00000000000000020160201
201601220060000300000000000000111025000000000000001110259900000000000000000000Consumidor Final              000000000053000000000000053000000000000000000000000000000000000000000000000000000000000000000000000000000000000000000000PES00010000001N00000000000000020160201
201601220060000300000000000000111026000000000000001110269900000000000000000000Consumidor Final              000000000052000000000000052000000000000000000000000000000000000000000000000000000000000000000000000000000000000000000000PES00010000001N00000000000000020160201
201601220060000300000000000000111027000000000000001110279900000000000000000000Consumidor Final              000000000050000000000000050000000000000000000000000000000000000000000000000000000000000000000000000000000000000000000000PES00010000001N00000000000000020160201
201601220060000300000000000000111028000000000000001110289900000000000000000000Consumidor Final              000000000050000000000000050000000000000000000000000000000000000000000000000000000000000000000000000000000000000000000000PES00010000001N00000000000000020160201
201601220060000300000000000000111029000000000000001110299900000000000000000000Consumidor Final              000000000062000000000000062000000000000000000000000000000000000000000000000000000000000000000000000000000000000000000000PES00010000001N00000000000000020160201
201601220060000300000000000000111030000000000000001110309900000000000000000000Consumidor Final              000000000040000000000000040000000000000000000000000000000000000000000000000000000000000000000000000000000000000000000000PES00010000001N00000000000000020160201
201601220060000300000000000000111031000000000000001110319900000000000000000000Consumidor Final              000000000040000000000000040000000000000000000000000000000000000000000000000000000000000000000000000000000000000000000000PES00010000001N00000000000000020160201
201601220060000300000000000000111032000000000000001110329900000000000000000000Consumidor Final              000000000040000000000000040000000000000000000000000000000000000000000000000000000000000000000000000000000000000000000000PES00010000001N00000000000000020160201
201601220060000300000000000000111033000000000000001110339900000000000000000000Consumidor Final              000000000049000000000000049000000000000000000000000000000000000000000000000000000000000000000000000000000000000000000000PES00010000001N00000000000000020160201
201601220060000300000000000000111034000000000000001110349900000000000000000000Consumidor Final              000000000040000000000000040000000000000000000000000000000000000000000000000000000000000000000000000000000000000000000000PES00010000001N00000000000000020160201
201601220060000300000000000000111035000000000000001110359900000000000000000000Consumidor Final              000000000028000000000000028000000000000000000000000000000000000000000000000000000000000000000000000000000000000000000000PES00010000001N00000000000000020160201
201601220060000300000000000000111036000000000000001110369900000000000000000000Consumidor Final              000000000066000000000000066000000000000000000000000000000000000000000000000000000000000000000000000000000000000000000000PES00010000001N00000000000000020160201
201601220060000300000000000000111037000000000000001110379900000000000000000000Consumidor Final              000000000022000000000000022000000000000000000000000000000000000000000000000000000000000000000000000000000000000000000000PES00010000001N00000000000000020160201
201601220060000300000000000000111038000000000000001110389900000000000000000000Consumidor Final              000000000050000000000000050000000000000000000000000000000000000000000000000000000000000000000000000000000000000000000000PES00010000001N00000000000000020160201
201601220060000300000000000000111039000000000000001110399900000000000000000000Consumidor Final              000000000050000000000000050000000000000000000000000000000000000000000000000000000000000000000000000000000000000000000000PES00010000001N00000000000000020160201
201601220060000300000000000000111040000000000000001110409900000000000000000000Consumidor Final              000000000050000000000000050000000000000000000000000000000000000000000000000000000000000000000000000000000000000000000000PES00010000001N00000000000000020160201
201601220060000300000000000000111041000000000000001110419900000000000000000000Consumidor Final              000000000050000000000000050000000000000000000000000000000000000000000000000000000000000000000000000000000000000000000000PES00010000001N00000000000000020160201
201601220060000300000000000000111042000000000000001110429900000000000000000000Consumidor Final              000000000049000000000000049000000000000000000000000000000000000000000000000000000000000000000000000000000000000000000000PES00010000001N00000000000000020160201
201601220060000300000000000000111043000000000000001110439900000000000000000000Consumidor Final              000000000050000000000000050000000000000000000000000000000000000000000000000000000000000000000000000000000000000000000000PES00010000001N00000000000000020160201
201601210060000100000000000000194644000000000000001946449900000000000000000000Consumidor Final              000000000050000000000000050000000000000000000000000000000000000000000000000000000000000000000000000000000000000000000000PES00010000001N00000000000000020160131
201601210060000100000000000000194645000000000000001946459900000000000000000000Consumidor Final              000000000056000000000000056000000000000000000000000000000000000000000000000000000000000000000000000000000000000000000000PES00010000001N00000000000000020160131
201601210060000100000000000000194646000000000000001946469900000000000000000000Consumidor Final              000000000056000000000000056000000000000000000000000000000000000000000000000000000000000000000000000000000000000000000000PES00010000001N00000000000000020160131
201601210060000100000000000000194647000000000000001946479900000000000000000000Consumidor Final              000000000050000000000000050000000000000000000000000000000000000000000000000000000000000000000000000000000000000000000000PES00010000001N00000000000000020160131
201601210060000100000000000000194648000000000000001946489900000000000000000000Consumidor Final              000000000050000000000000050000000000000000000000000000000000000000000000000000000000000000000000000000000000000000000000PES00010000001N00000000000000020160131
201601210060000100000000000000194649000000000000001946499900000000000000000000Consumidor Final              000000000050000000000000050000000000000000000000000000000000000000000000000000000000000000000000000000000000000000000000PES00010000001N00000000000000020160131
201601210060000100000000000000194650000000000000001946509900000000000000000000Consumidor Final              000000000050000000000000050000000000000000000000000000000000000000000000000000000000000000000000000000000000000000000000PES00010000001N00000000000000020160131
201601210060000100000000000000194651000000000000001946519900000000000000000000Consumidor Final              000000000096000000000000096000000000000000000000000000000000000000000000000000000000000000000000000000000000000000000000PES00010000001N00000000000000020160131
201601210060000100000000000000194652000000000000001946529900000000000000000000Consumidor Final              000000000060000000000000060000000000000000000000000000000000000000000000000000000000000000000000000000000000000000000000PES00010000001N00000000000000020160131
201601210060000100000000000000194653000000000000001946539900000000000000000000Consumidor Final              000000000050000000000000050000000000000000000000000000000000000000000000000000000000000000000000000000000000000000000000PES00010000001N00000000000000020160131
201601210060000100000000000000194654000000000000001946549900000000000000000000Consumidor Final              000000000050000000000000050000000000000000000000000000000000000000000000000000000000000000000000000000000000000000000000PES00010000001N00000000000000020160131
201601220060000100000000000000194971000000000000001949719900000000000000000000Consumidor Final              000000000050000000000000050000000000000000000000000000000000000000000000000000000000000000000000000000000000000000000000PES00010000001N00000000000000020160201
201601220060000100000000000000194972000000000000001949729900000000000000000000Consumidor Final              000000000050000000000000050000000000000000000000000000000000000000000000000000000000000000000000000000000000000000000000PES00010000001N00000000000000020160201
201601220060000100000000000000194973000000000000001949739900000000000000000000Consumidor Final              000000000045000000000000045000000000000000000000000000000000000000000000000000000000000000000000000000000000000000000000PES00010000001N00000000000000020160201
201601220060000100000000000000194974000000000000001949749900000000000000000000Consumidor Final              000000000050000000000000050000000000000000000000000000000000000000000000000000000000000000000000000000000000000000000000PES00010000001N00000000000000020160201
201601220060000100000000000000194975000000000000001949759900000000000000000000Consumidor Final              000000000050000000000000050000000000000000000000000000000000000000000000000000000000000000000000000000000000000000000000PES00010000001N00000000000000020160201
201601220060000100000000000000194976000000000000001949769900000000000000000000Consumidor Final              000000000050000000000000050000000000000000000000000000000000000000000000000000000000000000000000000000000000000000000000PES00010000001N00000000000000020160201
201601220060000100000000000000194977000000000000001949779900000000000000000000Consumidor Final              000000000028000000000000028000000000000000000000000000000000000000000000000000000000000000000000000000000000000000000000PES00010000001N00000000000000020160201
201601220060000100000000000000194978000000000000001949789900000000000000000000Consumidor Final              000000000050000000000000050000000000000000000000000000000000000000000000000000000000000000000000000000000000000000000000PES00010000001N00000000000000020160201
201601220060000100000000000000194979000000000000001949799900000000000000000000Consumidor Final              000000000050000000000000050000000000000000000000000000000000000000000000000000000000000000000000000000000000000000000000PES00010000001N00000000000000020160201
201601220060000300000000000000111124000000000000001111249900000000000000000000Consumidor Final              000000000050000000000000050000000000000000000000000000000000000000000000000000000000000000000000000000000000000000000000PES00010000001N00000000000000020160201
201601220060000300000000000000111125000000000000001111259900000000000000000000Consumidor Final              000000000050000000000000050000000000000000000000000000000000000000000000000000000000000000000000000000000000000000000000PES00010000001N00000000000000020160201
201601220060000100000000000000195023000000000000001950239900000000000000000000Consumidor Final              000000000051000000000000051000000000000000000000000000000000000000000000000000000000000000000000000000000000000000000000PES00010000001N00000000000000020160201
201601220060000100000000000000195024000000000000001950249900000000000000000000Consumidor Final              000000000050000000000000050000000000000000000000000000000000000000000000000000000000000000000000000000000000000000000000PES00010000001N00000000000000020160201
201601220060000100000000000000195025000000000000001950259900000000000000000000Consumidor Final              000000000050000000000000050000000000000000000000000000000000000000000000000000000000000000000000000000000000000000000000PES00010000001N00000000000000020160201
201601220060000100000000000000195026000000000000001950269900000000000000000000Consumidor Final              000000000050000000000000050000000000000000000000000000000000000000000000000000000000000000000000000000000000000000000000PES00010000001N00000000000000020160201
201601220060000300000000000000111117000000000000001111179900000000000000000000Consumidor Final              000000000060000000000000060000000000000000000000000000000000000000000000000000000000000000000000000000000000000000000000PES00010000001N00000000000000020160201
201601220060000300000000000000111118000000000000001111189900000000000000000000Consumidor Final              000000000050000000000000050000000000000000000000000000000000000000000000000000000000000000000000000000000000000000000000PES00010000001N00000000000000020160201
201601220060000300000000000000111119000000000000001111199900000000000000000000Consumidor Final              000000000050000000000000050000000000000000000000000000000000000000000000000000000000000000000000000000000000000000000000PES00010000001N00000000000000020160201
201601220060000300000000000000111120000000000000001111209900000000000000000000Consumidor Final              000000000050000000000000050000000000000000000000000000000000000000000000000000000000000000000000000000000000000000000000PES00010000001N00000000000000020160201
201601220060000300000000000000111121000000000000001111219900000000000000000000Consumidor Final              000000000050000000000000050000000000000000000000000000000000000000000000000000000000000000000000000000000000000000000000PES00010000001N00000000000000020160201
201601220060000300000000000000111122000000000000001111229900000000000000000000Consumidor Final              000000000050000000000000050000000000000000000000000000000000000000000000000000000000000000000000000000000000000000000000PES00010000001N00000000000000020160201
201601220060000300000000000000111123000000000000001111239900000000000000000000Consumidor Final              000000000050000000000000050000000000000000000000000000000000000000000000000000000000000000000000000000000000000000000000PES00010000001N00000000000000020160201
201601220060000700000000000000448136000000000000004481369900000000000000000000Consumidor Final              000000000062000000000000062000000000000000000000000000000000000000000000000000000000000000000000000000000000000000000000PES00010000001N00000000000000020160201
201601220060000700000000000000448137000000000000004481379900000000000000000000Consumidor Final              000000000096000000000000096000000000000000000000000000000000000000000000000000000000000000000000000000000000000000000000PES00010000001N00000000000000020160201
201601220060000700000000000000448138000000000000004481389900000000000000000000Consumidor Final              000000000051000000000000051000000000000000000000000000000000000000000000000000000000000000000000000000000000000000000000PES00010000001N00000000000000020160201
201601220060000700000000000000448139000000000000004481399900000000000000000000Consumidor Final              000000000050000000000000050000000000000000000000000000000000000000000000000000000000000000000000000000000000000000000000PES00010000001N00000000000000020160201
201601220060000600000000000000660039000000000000006600399900000000000000000000Consumidor Final              000000000050000000000000050000000000000000000000000000000000000000000000000000000000000000000000000000000000000000000000PES00010000001N00000000000000020160201
201601220060000600000000000000660040000000000000006600409900000000000000000000Consumidor Final              000000000050000000000000050000000000000000000000000000000000000000000000000000000000000000000000000000000000000000000000PES00010000001N00000000000000020160201
201601220060000100000000000000195057000000000000001950579900000000000000000000Consumidor Final              000000000061000000000000061000000000000000000000000000000000000000000000000000000000000000000000000000000000000000000000PES00010000001N00000000000000020160201
201601220060000600000000000000660026000000000000006600269900000000000000000000Consumidor Final              000000000050000000000000050000000000000000000000000000000000000000000000000000000000000000000000000000000000000000000000PES00010000001N00000000000000020160201
201601220060000600000000000000660027000000000000006600279900000000000000000000Consumidor Final              000000000052000000000000052000000000000000000000000000000000000000000000000000000000000000000000000000000000000000000000PES00010000001N00000000000000020160201
201601220060000600000000000000660028000000000000006600289900000000000000000000Consumidor Final              000000000056000000000000056000000000000000000000000000000000000000000000000000000000000000000000000000000000000000000000PES00010000001N00000000000000020160201
201601220060000300000000000000111129000000000000001111299900000000000000000000Consumidor Final              000000000050000000000000050000000000000000000000000000000000000000000000000000000000000000000000000000000000000000000000PES00010000001N00000000000000020160201
201601220060000100000000000000195047000000000000001950479900000000000000000000Consumidor Final              000000000050000000000000050000000000000000000000000000000000000000000000000000000000000000000000000000000000000000000000PES00010000001N00000000000000020160201
201601220060000300000000000000111130000000000000001111309900000000000000000000Consumidor Final              000000000050000000000000050000000000000000000000000000000000000000000000000000000000000000000000000000000000000000000000PES00010000001N00000000000000020160201
201601220060000100000000000000195048000000000000001950489900000000000000000000Consumidor Final              000000000050000000000000050000000000000000000000000000000000000000000000000000000000000000000000000000000000000000000000PES00010000001N00000000000000020160201
201601220060000300000000000000111131000000000000001111319900000000000000000000Consumidor Final              000000000050000000000000050000000000000000000000000000000000000000000000000000000000000000000000000000000000000000000000PES00010000001N00000000000000020160201
201601220060000100000000000000195049000000000000001950499900000000000000000000Consumidor Final              000000000062000000000000062000000000000000000000000000000000000000000000000000000000000000000000000000000000000000000000PES00010000001N00000000000000020160201
201601220060000700000000000000448131000000000000004481319900000000000000000000Consumidor Final              000000000050000000000000050000000000000000000000000000000000000000000000000000000000000000000000000000000000000000000000PES00010000001N00000000000000020160201
201601220060000100000000000000195050000000000000001950509900000000000000000000Consumidor Final              000000000050000000000000050000000000000000000000000000000000000000000000000000000000000000000000000000000000000000000000PES00010000001N00000000000000020160201
201601220060000600000000000000660029000000000000006600299900000000000000000000Consumidor Final              000000000050000000000000050000000000000000000000000000000000000000000000000000000000000000000000000000000000000000000000PES00010000001N00000000000000020160201
201601220060000300000000000000111132000000000000001111329900000000000000000000Consumidor Final              000000000050000000000000050000000000000000000000000000000000000000000000000000000000000000000000000000000000000000000000PES00010000001N00000000000000020160201
201601220060000300000000000000111133000000000000001111339900000000000000000000Consumidor Final              000000000028000000000000028000000000000000000000000000000000000000000000000000000000000000000000000000000000000000000000PES00010000001N00000000000000020160201
201601220060000900000000000000025823000000000000000258239900000000000000000000Consumidor Final              000000000050000000000000050000000000000000000000000000000000000000000000000000000000000000000000000000000000000000000000PES00010000001N00000000000000020160201
201601220060000900000000000000025824000000000000000258249900000000000000000000Consumidor Final              000000000050000000000000050000000000000000000000000000000000000000000000000000000000000000000000000000000000000000000000PES00010000001N00000000000000020160201
201601220060000100000000000000195059000000000000001950599900000000000000000000Consumidor Final              000000000050000000000000050000000000000000000000000000000000000000000000000000000000000000000000000000000000000000000000PES00010000001N00000000000000020160201
201601220060000700000000000000448155000000000000004481559900000000000000000000Consumidor Final              000000000050000000000000050000000000000000000000000000000000000000000000000000000000000000000000000000000000000000000000PES00010000001N00000000000000020160201
201601220060000300000000000000111144000000000000001111449900000000000000000000Consumidor Final              000000000050000000000000050000000000000000000000000000000000000000000000000000000000000000000000000000000000000000000000PES00010000001N00000000000000020160201
201601220060000700000000000000448156000000000000004481569900000000000000000000Consumidor Final              000000000050000000000000050000000000000000000000000000000000000000000000000000000000000000000000000000000000000000000000PES00010000001N00000000000000020160201
201601220060000700000000000000448157000000000000004481579900000000000000000000Consumidor Final              000000000050000000000000050000000000000000000000000000000000000000000000000000000000000000000000000000000000000000000000PES00010000001N00000000000000020160201
201601220060000300000000000000111145000000000000001111459900000000000000000000Consumidor Final              000000000050000000000000050000000000000000000000000000000000000000000000000000000000000000000000000000000000000000000000PES00010000001N00000000000000020160201
201601220060000300000000000000111146000000000000001111469900000000000000000000Consumidor Final              000000000050000000000000050000000000000000000000000000000000000000000000000000000000000000000000000000000000000000000000PES00010000001N00000000000000020160201
201601220060000300000000000000111153000000000000001111539900000000000000000000Consumidor Final              000000000050000000000000050000000000000000000000000000000000000000000000000000000000000000000000000000000000000000000000PES00010000001N00000000000000020160201
201601220060000300000000000000111154000000000000001111549900000000000000000000Consumidor Final              000000000050000000000000050000000000000000000000000000000000000000000000000000000000000000000000000000000000000000000000PES00010000001N00000000000000020160201
201601220060000300000000000000111155000000000000001111559900000000000000000000Consumidor Final              000000000050000000000000050000000000000000000000000000000000000000000000000000000000000000000000000000000000000000000000PES00010000001N00000000000000020160201
201601220060000700000000000000448167000000000000004481679900000000000000000000Consumidor Final              000000000050000000000000050000000000000000000000000000000000000000000000000000000000000000000000000000000000000000000000PES00010000001N00000000000000020160201
201601220060000300000000000000111156000000000000001111569900000000000000000000Consumidor Final              000000000056000000000000056000000000000000000000000000000000000000000000000000000000000000000000000000000000000000000000PES00010000001N00000000000000020160201
201601230060000800000000000000149891000000000000001498919900000000000000000000Consumidor Final              000000000040000000000000040000000000000000000000000000000000000000000000000000000000000000000000000000000000000000000000PES00010000001N00000000000000020160202
201601220060000100000000000000195077000000000000001950779900000000000000000000Consumidor Final              000000000050000000000000050000000000000000000000000000000000000000000000000000000000000000000000000000000000000000000000PES00010000001N00000000000000020160201
201601220060000100000000000000195078000000000000001950789900000000000000000000Consumidor Final              000000000050000000000000050000000000000000000000000000000000000000000000000000000000000000000000000000000000000000000000PES00010000001N00000000000000020160201
201601220060000100000000000000195079000000000000001950799900000000000000000000Consumidor Final              000000000050000000000000050000000000000000000000000000000000000000000000000000000000000000000000000000000000000000000000PES00010000001N00000000000000020160201
201601220060000100000000000000195080000000000000001950809900000000000000000000Consumidor Final              000000000050000000000000050000000000000000000000000000000000000000000000000000000000000000000000000000000000000000000000PES00010000001N00000000000000020160201
201601220060000100000000000000195081000000000000001950819900000000000000000000Consumidor Final              000000000050000000000000050000000000000000000000000000000000000000000000000000000000000000000000000000000000000000000000PES00010000001N00000000000000020160201
201601220060000100000000000000195082000000000000001950829900000000000000000000Consumidor Final              000000000050000000000000050000000000000000000000000000000000000000000000000000000000000000000000000000000000000000000000PES00010000001N00000000000000020160201
201601220060000100000000000000195083000000000000001950839900000000000000000000Consumidor Final              000000000050000000000000050000000000000000000000000000000000000000000000000000000000000000000000000000000000000000000000PES00010000001N00000000000000020160201
201601220060000100000000000000195084000000000000001950849900000000000000000000Consumidor Final              000000000050000000000000050000000000000000000000000000000000000000000000000000000000000000000000000000000000000000000000PES00010000001N00000000000000020160201
201601220060000100000000000000195085000000000000001950859900000000000000000000Consumidor Final              000000000050000000000000050000000000000000000000000000000000000000000000000000000000000000000000000000000000000000000000PES00010000001N00000000000000020160201
201601230060000900000000000000025827000000000000000258279900000000000000000000Consumidor Final              000000000052000000000000052000000000000000000000000000000000000000000000000000000000000000000000000000000000000000000000PES00010000001N00000000000000020160202
201601220060000100000000000000195086000000000000001950869900000000000000000000Consumidor Final              000000000050000000000000050000000000000000000000000000000000000000000000000000000000000000000000000000000000000000000000PES00010000001N00000000000000020160201
201601220060000100000000000000195087000000000000001950879900000000000000000000Consumidor Final              000000000050000000000000050000000000000000000000000000000000000000000000000000000000000000000000000000000000000000000000PES00010000001N00000000000000020160201
201601220060000100000000000000195088000000000000001950889900000000000000000000Consumidor Final              000000000060000000000000060000000000000000000000000000000000000000000000000000000000000000000000000000000000000000000000PES00010000001N00000000000000020160201
201601230060000300000000000000111191000000000000001111919900000000000000000000Consumidor Final              000000000050000000000000050000000000000000000000000000000000000000000000000000000000000000000000000000000000000000000000PES00010000001N00000000000000020160202
201601230060000800000000000000149926000000000000001499269900000000000000000000Consumidor Final              000000000040000000000000040000000000000000000000000000000000000000000000000000000000000000000000000000000000000000000000PES00010000001N00000000000000020160202
201601230060000800000000000000149927000000000000001499279900000000000000000000Consumidor Final              000000000040000000000000040000000000000000000000000000000000000000000000000000000000000000000000000000000000000000000000PES00010000001N00000000000000020160202
201601230060000300000000000000111216000000000000001112169900000000000000000000Consumidor Final              000000000050000000000000050000000000000000000000000000000000000000000000000000000000000000000000000000000000000000000000PES00010000001N00000000000000020160202
201601230060000300000000000000111217000000000000001112179900000000000000000000Consumidor Final              000000000050000000000000050000000000000000000000000000000000000000000000000000000000000000000000000000000000000000000000PES00010000001N00000000000000020160202
201601230060000300000000000000111218000000000000001112189900000000000000000000Consumidor Final              000000000050000000000000050000000000000000000000000000000000000000000000000000000000000000000000000000000000000000000000PES00010000001N00000000000000020160202
201601230060000300000000000000111219000000000000001112199900000000000000000000Consumidor Final              000000000050000000000000050000000000000000000000000000000000000000000000000000000000000000000000000000000000000000000000PES00010000001N00000000000000020160202
201601230060000300000000000000111220000000000000001112209900000000000000000000Consumidor Final              000000000050000000000000050000000000000000000000000000000000000000000000000000000000000000000000000000000000000000000000PES00010000001N00000000000000020160202
201601230060000300000000000000111221000000000000001112219900000000000000000000Consumidor Final              000000000050000000000000050000000000000000000000000000000000000000000000000000000000000000000000000000000000000000000000PES00010000001N00000000000000020160202
201601230060000300000000000000111222000000000000001112229900000000000000000000Consumidor Final              000000000050000000000000050000000000000000000000000000000000000000000000000000000000000000000000000000000000000000000000PES00010000001N00000000000000020160202
201601230060000300000000000000111232000000000000001112329900000000000000000000Consumidor Final              000000000052000000000000052000000000000000000000000000000000000000000000000000000000000000000000000000000000000000000000PES00010000001N00000000000000020160202
201601230060000300000000000000111233000000000000001112339900000000000000000000Consumidor Final              000000000050000000000000050000000000000000000000000000000000000000000000000000000000000000000000000000000000000000000000PES00010000001N00000000000000020160202
201601230060000300000000000000111234000000000000001112349900000000000000000000Consumidor Final              000000000052000000000000052000000000000000000000000000000000000000000000000000000000000000000000000000000000000000000000PES00010000001N00000000000000020160202
201601230060000300000000000000111235000000000000001112359900000000000000000000Consumidor Final              000000000050000000000000050000000000000000000000000000000000000000000000000000000000000000000000000000000000000000000000PES00010000001N00000000000000020160202
201601230060000300000000000000111256000000000000001112569900000000000000000000Consumidor Final              000000000050000000000000050000000000000000000000000000000000000000000000000000000000000000000000000000000000000000000000PES00010000001N00000000000000020160202
201601230060000100000000000000195167000000000000001951679900000000000000000000Consumidor Final              000000000050000000000000050000000000000000000000000000000000000000000000000000000000000000000000000000000000000000000000PES00010000001N00000000000000020160202
201601230060000100000000000000195168000000000000001951689900000000000000000000Consumidor Final              000000000050000000000000050000000000000000000000000000000000000000000000000000000000000000000000000000000000000000000000PES00010000001N00000000000000020160202
201601230060000100000000000000195169000000000000001951699900000000000000000000Consumidor Final              000000000050000000000000050000000000000000000000000000000000000000000000000000000000000000000000000000000000000000000000PES00010000001N00000000000000020160202
201601230060000100000000000000195170000000000000001951709900000000000000000000Consumidor Final              000000000050000000000000050000000000000000000000000000000000000000000000000000000000000000000000000000000000000000000000PES00010000001N00000000000000020160202
201601230060000300000000000000111240000000000000001112409900000000000000000000Consumidor Final              000000000050000000000000050000000000000000000000000000000000000000000000000000000000000000000000000000000000000000000000PES00010000001N00000000000000020160202
201601230060000300000000000000111241000000000000001112419900000000000000000000Consumidor Final              000000000050000000000000050000000000000000000000000000000000000000000000000000000000000000000000000000000000000000000000PES00010000001N00000000000000020160202
201601230060000100000000000000195171000000000000001951719900000000000000000000Consumidor Final              000000000062000000000000062000000000000000000000000000000000000000000000000000000000000000000000000000000000000000000000PES00010000001N00000000000000020160202
201601230060000300000000000000111242000000000000001112429900000000000000000000Consumidor Final              000000000050000000000000050000000000000000000000000000000000000000000000000000000000000000000000000000000000000000000000PES00010000001N00000000000000020160202
201601230060000100000000000000195172000000000000001951729900000000000000000000Consumidor Final              000000000050000000000000050000000000000000000000000000000000000000000000000000000000000000000000000000000000000000000000PES00010000001N00000000000000020160202
201601230060000100000000000000195173000000000000001951739900000000000000000000Consumidor Final              000000000050000000000000050000000000000000000000000000000000000000000000000000000000000000000000000000000000000000000000PES00010000001N00000000000000020160202
201601230060000300000000000000111243000000000000001112439900000000000000000000Consumidor Final              000000000050000000000000050000000000000000000000000000000000000000000000000000000000000000000000000000000000000000000000PES00010000001N00000000000000020160202
201601230060000100000000000000195174000000000000001951749900000000000000000000Consumidor Final              000000000050000000000000050000000000000000000000000000000000000000000000000000000000000000000000000000000000000000000000PES00010000001N00000000000000020160202
201601230060000300000000000000111244000000000000001112449900000000000000000000Consumidor Final              000000000050000000000000050000000000000000000000000000000000000000000000000000000000000000000000000000000000000000000000PES00010000001N00000000000000020160202
201601230060000100000000000000195175000000000000001951759900000000000000000000Consumidor Final              000000000052000000000000052000000000000000000000000000000000000000000000000000000000000000000000000000000000000000000000PES00010000001N00000000000000020160202
201601230060000300000000000000111245000000000000001112459900000000000000000000Consumidor Final              000000000050000000000000050000000000000000000000000000000000000000000000000000000000000000000000000000000000000000000000PES00010000001N00000000000000020160202
201601240060000400000000000000013430000000000000000134309900000000000000000000Consumidor Final              000000000050000000000000050000000000000000000000000000000000000000000000000000000000000000000000000000000000000000000000PES00010000001N00000000000000020160203
201601250060000800000000000000150107000000000000001501079900000000000000000000Consumidor Final              000000000050000000000000050000000000000000000000000000000000000000000000000000000000000000000000000000000000000000000000PES00010000001N00000000000000020160204
201601250060000100000000000000195504000000000000001955049900000000000000000000Consumidor Final              000000000050000000000000050000000000000000000000000000000000000000000000000000000000000000000000000000000000000000000000PES00010000001N00000000000000020160204
201601250060000100000000000000195505000000000000001955059900000000000000000000Consumidor Final              000000000050000000000000050000000000000000000000000000000000000000000000000000000000000000000000000000000000000000000000PES00010000001N00000000000000020160204
201601250060000100000000000000195506000000000000001955069900000000000000000000Consumidor Final              000000000081000000000000081000000000000000000000000000000000000000000000000000000000000000000000000000000000000000000000PES00010000001N00000000000000020160204
201601250060000100000000000000195507000000000000001955079900000000000000000000Consumidor Final              000000000050000000000000050000000000000000000000000000000000000000000000000000000000000000000000000000000000000000000000PES00010000001N00000000000000020160204
201601250060000100000000000000195508000000000000001955089900000000000000000000Consumidor Final              000000000051000000000000051000000000000000000000000000000000000000000000000000000000000000000000000000000000000000000000PES00010000001N00000000000000020160204
201601250060000100000000000000195509000000000000001955099900000000000000000000Consumidor Final              000000000050000000000000050000000000000000000000000000000000000000000000000000000000000000000000000000000000000000000000PES00010000001N00000000000000020160204
201601250060000100000000000000195510000000000000001955109900000000000000000000Consumidor Final              000000000049000000000000049000000000000000000000000000000000000000000000000000000000000000000000000000000000000000000000PES00010000001N00000000000000020160204
201601250060000100000000000000195526000000000000001955269900000000000000000000Consumidor Final              000000000060000000000000060000000000000000000000000000000000000000000000000000000000000000000000000000000000000000000000PES00010000001N00000000000000020160204
201601250060000100000000000000195527000000000000001955279900000000000000000000Consumidor Final              000000000050000000000000050000000000000000000000000000000000000000000000000000000000000000000000000000000000000000000000PES00010000001N00000000000000020160204
201601250060000100000000000000195528000000000000001955289900000000000000000000Consumidor Final              000000000050000000000000050000000000000000000000000000000000000000000000000000000000000000000000000000000000000000000000PES00010000001N00000000000000020160204
201601250060000100000000000000195529000000000000001955299900000000000000000000Consumidor Final              000000000050000000000000050000000000000000000000000000000000000000000000000000000000000000000000000000000000000000000000PES00010000001N00000000000000020160204
201601250060000100000000000000195530000000000000001955309900000000000000000000Consumidor Final              000000000050000000000000050000000000000000000000000000000000000000000000000000000000000000000000000000000000000000000000PES00010000001N00000000000000020160204
201601250060000100000000000000195531000000000000001955319900000000000000000000Consumidor Final              000000000055000000000000055000000000000000000000000000000000000000000000000000000000000000000000000000000000000000000000PES00010000001N00000000000000020160204
201601270060000600000000000000660334000000000000006603349900000000000000000000Consumidor Final              000000000050000000000000050000000000000000000000000000000000000000000000000000000000000000000000000000000000000000000000PES00010000001N00000000000000020160206
201601270060000600000000000000660341000000000000006603419900000000000000000000Consumidor Final              000000000050000000000000050000000000000000000000000000000000000000000000000000000000000000000000000000000000000000000000PES00010000001N00000000000000020160206
201601270060000100000000000000195774000000000000001957749900000000000000000000Consumidor Final              000000000050000000000000050000000000000000000000000000000000000000000000000000000000000000000000000000000000000000000000PES00010000001N00000000000000020160206
201601270060000100000000000000195775000000000000001957759900000000000000000000Consumidor Final              000000000050000000000000050000000000000000000000000000000000000000000000000000000000000000000000000000000000000000000000PES00010000001N00000000000000020160206
201601270060000300000000000000111595000000000000001115959900000000000000000000Consumidor Final              000000000050000000000000050000000000000000000000000000000000000000000000000000000000000000000000000000000000000000000000PES00010000001N00000000000000020160206
201601270060000300000000000000111596000000000000001115969900000000000000000000Consumidor Final              000000000056000000000000056000000000000000000000000000000000000000000000000000000000000000000000000000000000000000000000PES00010000001N00000000000000020160206
201601270060000300000000000000111597000000000000001115979900000000000000000000Consumidor Final              000000000050000000000000050000000000000000000000000000000000000000000000000000000000000000000000000000000000000000000000PES00010000001N00000000000000020160206
201601270060000300000000000000111598000000000000001115989900000000000000000000Consumidor Final              000000000060000000000000060000000000000000000000000000000000000000000000000000000000000000000000000000000000000000000000PES00010000001N00000000000000020160206
201601270060000300000000000000111599000000000000001115999900000000000000000000Consumidor Final              000000000060000000000000060000000000000000000000000000000000000000000000000000000000000000000000000000000000000000000000PES00010000001N00000000000000020160206
201601270060000300000000000000111600000000000000001116009900000000000000000000Consumidor Final              000000000050000000000000050000000000000000000000000000000000000000000000000000000000000000000000000000000000000000000000PES00010000001N00000000000000020160206
201601270060000600000000000000660343000000000000006603439900000000000000000000Consumidor Final              000000000052000000000000052000000000000000000000000000000000000000000000000000000000000000000000000000000000000000000000PES00010000001N00000000000000020160206
201601270060000300000000000000111601000000000000001116019900000000000000000000Consumidor Final              000000000048000000000000048000000000000000000000000000000000000000000000000000000000000000000000000000000000000000000000PES00010000001N00000000000000020160206
201601270060000700000000000000448429000000000000004484299900000000000000000000Consumidor Final              000000000060000000000000060000000000000000000000000000000000000000000000000000000000000000000000000000000000000000000000PES00010000001N00000000000000020160206
201601270060000700000000000000448430000000000000004484309900000000000000000000Consumidor Final              000000000050000000000000050000000000000000000000000000000000000000000000000000000000000000000000000000000000000000000000PES00010000001N00000000000000020160206
201601290060000600000000000000660651000000000000006606519900000000000000000000Consumidor Final              000000000048000000000000048000000000000000000000000000000000000000000000000000000000000000000000000000000000000000000000PES00010000001N00000000000000020160208
201601290060000800000000000000150321000000000000001503219900000000000000000000Consumidor Final              000000000040000000000000040000000000000000000000000000000000000000000000000000000000000000000000000000000000000000000000PES00010000001N00000000000000020160208
201601290060000600000000000000660677000000000000006606779900000000000000000000Consumidor Final              000000000050000000000000050000000000000000000000000000000000000000000000000000000000000000000000000000000000000000000000PES00010000001N00000000000000020160208
201601290060000600000000000000660678000000000000006606789900000000000000000000Consumidor Final              000000000091000000000000091000000000000000000000000000000000000000000000000000000000000000000000000000000000000000000000PES00010000001N00000000000000020160208
201601290060000600000000000000660684000000000000006606849900000000000000000000Consumidor Final              000000000050000000000000050000000000000000000000000000000000000000000000000000000000000000000000000000000000000000000000PES00010000001N00000000000000020160208
201601290060000600000000000000660685000000000000006606859900000000000000000000Consumidor Final              000000000050000000000000050000000000000000000000000000000000000000000000000000000000000000000000000000000000000000000000PES00010000001N00000000000000020160208
201601290060000600000000000000660686000000000000006606869900000000000000000000Consumidor Final              000000000050000000000000050000000000000000000000000000000000000000000000000000000000000000000000000000000000000000000000PES00010000001N00000000000000020160208
201601290060000600000000000000660689000000000000006606899900000000000000000000Consumidor Final              000000000050000000000000050000000000000000000000000000000000000000000000000000000000000000000000000000000000000000000000PES00010000001N00000000000000020160208
201601290060000600000000000000660690000000000000006606909900000000000000000000Consumidor Final              000000000060000000000000060000000000000000000000000000000000000000000000000000000000000000000000000000000000000000000000PES00010000001N00000000000000020160208
201601290060000600000000000000660691000000000000006606919900000000000000000000Consumidor Final              000000000052000000000000052000000000000000000000000000000000000000000000000000000000000000000000000000000000000000000000PES00010000001N00000000000000020160208
201601290060000600000000000000660692000000000000006606929900000000000000000000Consumidor Final              000000000050000000000000050000000000000000000000000000000000000000000000000000000000000000000000000000000000000000000000PES00010000001N00000000000000020160208
201601290060000600000000000000660693000000000000006606939900000000000000000000Consumidor Final              000000000050000000000000050000000000000000000000000000000000000000000000000000000000000000000000000000000000000000000000PES00010000001N00000000000000020160208
201601290060000800000000000000150338000000000000001503389900000000000000000000Consumidor Final              000000000040000000000000040000000000000000000000000000000000000000000000000000000000000000000000000000000000000000000000PES00010000001N00000000000000020160208
201601290060000800000000000000150339000000000000001503399900000000000000000000Consumidor Final              000000000040000000000000040000000000000000000000000000000000000000000000000000000000000000000000000000000000000000000000PES00010000001N00000000000000020160208
201601300060000600000000000000661118000000000000006611189900000000000000000000Consumidor Final              000000000092000000000000092000000000000000000000000000000000000000000000000000000000000000000000000000000000000000000000PES00010000001N00000000000000020160209
201601300060000100000000000000195815000000000000001958159900000000000000000000Consumidor Final              000000000050000000000000050000000000000000000000000000000000000000000000000000000000000000000000000000000000000000000000PES00010000001N00000000000000020160209
201601300060000600000000000000661124000000000000006611249900000000000000000000Consumidor Final              000000000050000000000000050000000000000000000000000000000000000000000000000000000000000000000000000000000000000000000000PES00010000001N00000000000000020160209
201601300060000600000000000000661125000000000000006611259900000000000000000000Consumidor Final              000000000028000000000000028000000000000000000000000000000000000000000000000000000000000000000000000000000000000000000000PES00010000001N00000000000000020160209
201601300060000600000000000000661126000000000000006611269900000000000000000000Consumidor Final              000000000050000000000000050000000000000000000000000000000000000000000000000000000000000000000000000000000000000000000000PES00010000001N00000000000000020160209
201601300060000600000000000000661127000000000000006611279900000000000000000000Consumidor Final              000000000050000000000000050000000000000000000000000000000000000000000000000000000000000000000000000000000000000000000000PES00010000001N00000000000000020160209
201601300060000900000000000000026066000000000000000260669900000000000000000000Consumidor Final              000000000033000000000000033000000000000000000000000000000000000000000000000000000000000000000000000000000000000000000000PES00010000001N00000000000000020160209
201601300060000600000000000000661140000000000000006611409900000000000000000000Consumidor Final              000000000050000000000000050000000000000000000000000000000000000000000000000000000000000000000000000000000000000000000000PES00010000001N00000000000000020160209
201601300060000600000000000000661141000000000000006611419900000000000000000000Consumidor Final              000000000050000000000000050000000000000000000000000000000000000000000000000000000000000000000000000000000000000000000000PES00010000001N00000000000000020160209
201601300060000600000000000000661142000000000000006611429900000000000000000000Consumidor Final              000000000050000000000000050000000000000000000000000000000000000000000000000000000000000000000000000000000000000000000000PES00010000001N00000000000000020160209
201601300060000900000000000000026067000000000000000260679900000000000000000000Consumidor Final              000000000050000000000000050000000000000000000000000000000000000000000000000000000000000000000000000000000000000000000000PES00010000001N00000000000000020160209
201601300060000600000000000000661147000000000000006611479900000000000000000000Consumidor Final              000000000050000000000000050000000000000000000000000000000000000000000000000000000000000000000000000000000000000000000000PES00010000001N00000000000000020160209
201601300060000600000000000000661148000000000000006611489900000000000000000000Consumidor Final              000000000050000000000000050000000000000000000000000000000000000000000000000000000000000000000000000000000000000000000000PES00010000001N00000000000000020160209
201601300060000100000000000000195820000000000000001958209900000000000000000000Consumidor Final              000000000062000000000000062000000000000000000000000000000000000000000000000000000000000000000000000000000000000000000000PES00010000001N00000000000000020160209
201601010060000600000000000000657923000000000000006579239900000000000000000000Consumidor Final              000000000050000000000000050000000000000000000000000000000000000000000000000000000000000000000000000000000000000000000000PES00010000001N00000000000000020160111
201601010060000600000000000000657911000000000000006579119900000000000000000000Consumidor Final              000000000050000000000000050000000000000000000000000000000000000000000000000000000000000000000000000000000000000000000000PES00010000001N00000000000000020160111
201601010060000600000000000000657912000000000000006579129900000000000000000000Consumidor Final              000000000050000000000000050000000000000000000000000000000000000000000000000000000000000000000000000000000000000000000000PES00010000001N00000000000000020160111
201601010060000600000000000000657913000000000000006579139900000000000000000000Consumidor Final              000000000050000000000000050000000000000000000000000000000000000000000000000000000000000000000000000000000000000000000000PES00010000001N00000000000000020160111
201601010060000600000000000000657926000000000000006579269900000000000000000000Consumidor Final              000000000050000000000000050000000000000000000000000000000000000000000000000000000000000000000000000000000000000000000000PES00010000001N00000000000000020160111
201601010060000600000000000000657927000000000000006579279900000000000000000000Consumidor Final              000000000050000000000000050000000000000000000000000000000000000000000000000000000000000000000000000000000000000000000000PES00010000001N00000000000000020160111
201601010060000700000000000000446407000000000000004464079900000000000000000000Consumidor Final              000000000050000000000000050000000000000000000000000000000000000000000000000000000000000000000000000000000000000000000000PES00010000001N00000000000000020160111
201601010060000700000000000000446408000000000000004464089900000000000000000000Consumidor Final              000000000060000000000000060000000000000000000000000000000000000000000000000000000000000000000000000000000000000000000000PES00010000001N00000000000000020160111
201601010060000700000000000000446409000000000000004464099900000000000000000000Consumidor Final              000000000050000000000000050000000000000000000000000000000000000000000000000000000000000000000000000000000000000000000000PES00010000001N00000000000000020160111
201601010060000700000000000000446414000000000000004464149900000000000000000000Consumidor Final              000000000050000000000000050000000000000000000000000000000000000000000000000000000000000000000000000000000000000000000000PES00010000001N00000000000000020160111
201601010060000700000000000000446415000000000000004464159900000000000000000000Consumidor Final              000000000050000000000000050000000000000000000000000000000000000000000000000000000000000000000000000000000000000000000000PES00010000001N00000000000000020160111
201601010060000100000000000000192878000000000000001928789900000000000000000000Consumidor Final              000000000051000000000000051000000000000000000000000000000000000000000000000000000000000000000000000000000000000000000000PES00010000001N00000000000000020160111
201601010060000100000000000000192879000000000000001928799900000000000000000000Consumidor Final              000000000050000000000000050000000000000000000000000000000000000000000000000000000000000000000000000000000000000000000000PES00010000001N00000000000000020160111
201601010060000600000000000000657925000000000000006579259900000000000000000000Consumidor Final              000000000050000000000000050000000000000000000000000000000000000000000000000000000000000000000000000000000000000000000000PES00010000001N00000000000000020160111
201601010060000700000000000000446412000000000000004464129900000000000000000000Consumidor Final              000000000050000000000000050000000000000000000000000000000000000000000000000000000000000000000000000000000000000000000000PES00010000001N00000000000000020160111
201601010060000700000000000000446413000000000000004464139900000000000000000000Consumidor Final              000000000050000000000000050000000000000000000000000000000000000000000000000000000000000000000000000000000000000000000000PES00010000001N00000000000000020160111
201601010060000800000000000000148389000000000000001483899900000000000000000000Consumidor Final              000000000033000000000000033000000000000000000000000000000000000000000000000000000000000000000000000000000000000000000000PES00010000001N00000000000000020160111
201601010060000800000000000000148390000000000000001483909900000000000000000000Consumidor Final              000000000033000000000000033000000000000000000000000000000000000000000000000000000000000000000000000000000000000000000000PES00010000001N00000000000000020160111
201601010060000700000000000000446423000000000000004464239900000000000000000000Consumidor Final              000000000050000000000000050000000000000000000000000000000000000000000000000000000000000000000000000000000000000000000000PES00010000001N00000000000000020160111
201601010060000700000000000000446424000000000000004464249900000000000000000000Consumidor Final              000000000050000000000000050000000000000000000000000000000000000000000000000000000000000000000000000000000000000000000000PES00010000001N00000000000000020160111
201601010060000700000000000000446425000000000000004464259900000000000000000000Consumidor Final              000000000028000000000000028000000000000000000000000000000000000000000000000000000000000000000000000000000000000000000000PES00010000001N00000000000000020160111
201601010060000700000000000000446426000000000000004464269900000000000000000000Consumidor Final              000000000050000000000000050000000000000000000000000000000000000000000000000000000000000000000000000000000000000000000000PES00010000001N00000000000000020160111
201601010060000100000000000000192897000000000000001928979900000000000000000000Consumidor Final              000000000050000000000000050000000000000000000000000000000000000000000000000000000000000000000000000000000000000000000000PES00010000001N00000000000000020160111
201601010060000700000000000000446429000000000000004464299900000000000000000000Consumidor Final              000000000028000000000000028000000000000000000000000000000000000000000000000000000000000000000000000000000000000000000000PES00010000001N00000000000000020160111
201601010060000600000000000000657941000000000000006579419900000000000000000000Consumidor Final              000000000050000000000000050000000000000000000000000000000000000000000000000000000000000000000000000000000000000000000000PES00010000001N00000000000000020160111
201601010060000700000000000000446430000000000000004464309900000000000000000000Consumidor Final              000000000050000000000000050000000000000000000000000000000000000000000000000000000000000000000000000000000000000000000000PES00010000001N00000000000000020160111
201601010060000600000000000000657946000000000000006579469900000000000000000000Consumidor Final              000000000050000000000000050000000000000000000000000000000000000000000000000000000000000000000000000000000000000000000000PES00010000001N00000000000000020160111
201601010060000700000000000000446456000000000000004464569900000000000000000000Consumidor Final              000000000050000000000000050000000000000000000000000000000000000000000000000000000000000000000000000000000000000000000000PES00010000001N00000000000000020160111
201601010060000700000000000000446459000000000000004464599900000000000000000000Consumidor Final              000000000048000000000000048000000000000000000000000000000000000000000000000000000000000000000000000000000000000000000000PES00010000001N00000000000000020160111
201601010060000700000000000000446460000000000000004464609900000000000000000000Consumidor Final              000000000050000000000000050000000000000000000000000000000000000000000000000000000000000000000000000000000000000000000000PES00010000001N00000000000000020160111
201601010060000700000000000000446461000000000000004464619900000000000000000000Consumidor Final              000000000050000000000000050000000000000000000000000000000000000000000000000000000000000000000000000000000000000000000000PES00010000001N00000000000000020160111
201601010060000700000000000000446462000000000000004464629900000000000000000000Consumidor Final              000000000050000000000000050000000000000000000000000000000000000000000000000000000000000000000000000000000000000000000000PES00010000001N00000000000000020160111
201601010060000700000000000000446463000000000000004464639900000000000000000000Consumidor Final              000000000050000000000000050000000000000000000000000000000000000000000000000000000000000000000000000000000000000000000000PES00010000001N00000000000000020160111
201601010060000700000000000000446502000000000000004465029900000000000000000000Consumidor Final              000000000050000000000000050000000000000000000000000000000000000000000000000000000000000000000000000000000000000000000000PES00010000001N00000000000000020160111
201601010060000700000000000000446503000000000000004465039900000000000000000000Consumidor Final              000000000022000000000000022000000000000000000000000000000000000000000000000000000000000000000000000000000000000000000000PES00010000001N00000000000000020160111
201601010060000700000000000000446504000000000000004465049900000000000000000000Consumidor Final              000000000022000000000000022000000000000000000000000000000000000000000000000000000000000000000000000000000000000000000000PES00010000001N00000000000000020160111
201601010060000700000000000000446510000000000000004465109900000000000000000000Consumidor Final              000000000056000000000000056000000000000000000000000000000000000000000000000000000000000000000000000000000000000000000000PES00010000001N00000000000000020160111
201601010060000800000000000000148411000000000000001484119900000000000000000000Consumidor Final              000000000040000000000000040000000000000000000000000000000000000000000000000000000000000000000000000000000000000000000000PES00010000001N00000000000000020160111
201601010060000800000000000000148412000000000000001484129900000000000000000000Consumidor Final              000000000040000000000000040000000000000000000000000000000000000000000000000000000000000000000000000000000000000000000000PES00010000001N00000000000000020160111
201601010060000800000000000000148413000000000000001484139900000000000000000000Consumidor Final              000000000040000000000000040000000000000000000000000000000000000000000000000000000000000000000000000000000000000000000000PES00010000001N00000000000000020160111
201601010060000700000000000000446501000000000000004465019900000000000000000000Consumidor Final              000000000050000000000000050000000000000000000000000000000000000000000000000000000000000000000000000000000000000000000000PES00010000001N00000000000000020160111
201601010060000700000000000000446505000000000000004465059900000000000000000000Consumidor Final              000000000050000000000000050000000000000000000000000000000000000000000000000000000000000000000000000000000000000000000000PES00010000001N00000000000000020160111
