201703310060000700000000000000523181000000000000005231819900000000000000000000Consumidor Final              000000000068000000000000068000000000000000000000000000000000000000000000000000000000000000000000000000000000000000000000PES00010000001N00000000000000020170410
201703310060000600000000000000741630000000000000007416309900000000000000000000Consumidor Final              000000000068000000000000068000000000000000000000000000000000000000000000000000000000000000000000000000000000000000000000PES00010000001N00000000000000020170410
201703310060000700000000000000523182000000000000005231829900000000000000000000Consumidor Final              000000000096000000000000096000000000000000000000000000000000000000000000000000000000000000000000000000000000000000000000PES00010000001N00000000000000020170410
201703310060000700000000000000523183000000000000005231839900000000000000000000Consumidor Final              000000000073800000000000073800000000000000000000000000000000000000000000000000000000000000000000000000000000000000000000PES00010000001N00000000000000020170410
201703310060000700000000000000523184000000000000005231849900000000000000000000Consumidor Final              000000000068000000000000068000000000000000000000000000000000000000000000000000000000000000000000000000000000000000000000PES00010000001N00000000000000020170410
201703310060000700000000000000523185000000000000005231859900000000000000000000Consumidor Final              000000000068000000000000068000000000000000000000000000000000000000000000000000000000000000000000000000000000000000000000PES00010000001N00000000000000020170410
201703310060000700000000000000523186000000000000005231869900000000000000000000Consumidor Final              000000000073800000000000073800000000000000000000000000000000000000000000000000000000000000000000000000000000000000000000PES00010000001N00000000000000020170410
201703310060000700000000000000523105000000000000005231059900000000000000000000Consumidor Final              000000000070000000000000070000000000000000000000000000000000000000000000000000000000000000000000000000000000000000000000PES00010000001N00000000000000020170410
201703310060000800000000000000179003000000000000001790039900000000000000000000Consumidor Final              000000000068000000000000068000000000000000000000000000000000000000000000000000000000000000000000000000000000000000000000PES00010000001N00000000000000020170410
201703310060000800000000000000179004000000000000001790049900000000000000000000Consumidor Final              000000000058000000000000058000000000000000000000000000000000000000000000000000000000000000000000000000000000000000000000PES00010000001N00000000000000020170410
201703310060000700000000000000523150000000000000005231509900000000000000000000Consumidor Final              000000000068000000000000068000000000000000000000000000000000000000000000000000000000000000000000000000000000000000000000PES00010000001N00000000000000020170410
201703310060000600000000000000741607000000000000007416079900000000000000000000Consumidor Final              000000000073800000000000073800000000000000000000000000000000000000000000000000000000000000000000000000000000000000000000PES00010000001N00000000000000020170410
201703310060000800000000000000179005000000000000001790059900000000000000000000Consumidor Final              000000000058000000000000058000000000000000000000000000000000000000000000000000000000000000000000000000000000000000000000PES00010000001N00000000000000020170410
201703310060000800000000000000179006000000000000001790069900000000000000000000Consumidor Final              000000000058000000000000058000000000000000000000000000000000000000000000000000000000000000000000000000000000000000000000PES00010000001N00000000000000020170410
201703310060000800000000000000179007000000000000001790079900000000000000000000Consumidor Final              000000000058000000000000058000000000000000000000000000000000000000000000000000000000000000000000000000000000000000000000PES00010000001N00000000000000020170410
201703310060000800000000000000179008000000000000001790089900000000000000000000Consumidor Final              000000000058000000000000058000000000000000000000000000000000000000000000000000000000000000000000000000000000000000000000PES00010000001N00000000000000020170410
201703310060000800000000000000179009000000000000001790099900000000000000000000Consumidor Final              000000000058000000000000058000000000000000000000000000000000000000000000000000000000000000000000000000000000000000000000PES00010000001N00000000000000020170410
201703310060000800000000000000179010000000000000001790109900000000000000000000Consumidor Final              000000000058000000000000058000000000000000000000000000000000000000000000000000000000000000000000000000000000000000000000PES00010000001N00000000000000020170410
201703310060000600000000000000741608000000000000007416089900000000000000000000Consumidor Final              000000000068000000000000068000000000000000000000000000000000000000000000000000000000000000000000000000000000000000000000PES00010000001N00000000000000020170410
201703310060000800000000000000179011000000000000001790119900000000000000000000Consumidor Final              000000000058000000000000058000000000000000000000000000000000000000000000000000000000000000000000000000000000000000000000PES00010000001N00000000000000020170410
201703310060000800000000000000179012000000000000001790129900000000000000000000Consumidor Final              000000000058000000000000058000000000000000000000000000000000000000000000000000000000000000000000000000000000000000000000PES00010000001N00000000000000020170410
201703310060000800000000000000178991000000000000001789919900000000000000000000Consumidor Final              000000000023000000000000023000000000000000000000000000000000000000000000000000000000000000000000000000000000000000000000PES00010000001N00000000000000020170410
201703310060000800000000000000178992000000000000001789929900000000000000000000Consumidor Final              000000000023000000000000023000000000000000000000000000000000000000000000000000000000000000000000000000000000000000000000PES00010000001N00000000000000020170410
201703310060000800000000000000178993000000000000001789939900000000000000000000Consumidor Final              000000000033000000000000033000000000000000000000000000000000000000000000000000000000000000000000000000000000000000000000PES00010000001N00000000000000020170410
201703310060000800000000000000178994000000000000001789949900000000000000000000Consumidor Final              000000000058000000000000058000000000000000000000000000000000000000000000000000000000000000000000000000000000000000000000PES00010000001N00000000000000020170410
201703310060000800000000000000178995000000000000001789959900000000000000000000Consumidor Final              000000000058000000000000058000000000000000000000000000000000000000000000000000000000000000000000000000000000000000000000PES00010000001N00000000000000020170410
201703310060000800000000000000178996000000000000001789969900000000000000000000Consumidor Final              000000000058000000000000058000000000000000000000000000000000000000000000000000000000000000000000000000000000000000000000PES00010000001N00000000000000020170410
201703310060000600000000000000741546000000000000007415469900000000000000000000Consumidor Final              000000000073800000000000073800000000000000000000000000000000000000000000000000000000000000000000000000000000000000000000PES00010000001N00000000000000020170410
201703310060000600000000000000741547000000000000007415479900000000000000000000Consumidor Final              000000000068000000000000068000000000000000000000000000000000000000000000000000000000000000000000000000000000000000000000PES00010000001N00000000000000020170410
201703310060000800000000000000178997000000000000001789979900000000000000000000Consumidor Final              000000000033000000000000033000000000000000000000000000000000000000000000000000000000000000000000000000000000000000000000PES00010000001N00000000000000020170410
201703310060000600000000000000741548000000000000007415489900000000000000000000Consumidor Final              000000000076000000000000076000000000000000000000000000000000000000000000000000000000000000000000000000000000000000000000PES00010000001N00000000000000020170410
201703310060000600000000000000741549000000000000007415499900000000000000000000Consumidor Final              000000000060000000000000060000000000000000000000000000000000000000000000000000000000000000000000000000000000000000000000PES00010000001N00000000000000020170410
201703310060000600000000000000741552000000000000007415529900000000000000000000Consumidor Final              000000000067000000000000067000000000000000000000000000000000000000000000000000000000000000000000000000000000000000000000PES00010000001N00000000000000020170410
201703310060000600000000000000741553000000000000007415539900000000000000000000Consumidor Final              000000000068000000000000068000000000000000000000000000000000000000000000000000000000000000000000000000000000000000000000PES00010000001N00000000000000020170410
201703310060000600000000000000741554000000000000007415549900000000000000000000Consumidor Final              000000000076000000000000076000000000000000000000000000000000000000000000000000000000000000000000000000000000000000000000PES00010000001N00000000000000020170410
201703310060000700000000000000523099000000000000005230999900000000000000000000Consumidor Final              000000000076000000000000076000000000000000000000000000000000000000000000000000000000000000000000000000000000000000000000PES00010000001N00000000000000020170410
201703310060000700000000000000523100000000000000005231009900000000000000000000Consumidor Final              000000000068000000000000068000000000000000000000000000000000000000000000000000000000000000000000000000000000000000000000PES00010000001N00000000000000020170410
201703310060000600000000000000741555000000000000007415559900000000000000000000Consumidor Final              000000000059000000000000059000000000000000000000000000000000000000000000000000000000000000000000000000000000000000000000PES00010000001N00000000000000020170410
201703310060000600000000000000741556000000000000007415569900000000000000000000Consumidor Final              000000000073800000000000073800000000000000000000000000000000000000000000000000000000000000000000000000000000000000000000PES00010000001N00000000000000020170410
201703310060000600000000000000741568000000000000007415689900000000000000000000Consumidor Final              000000000070000000000000070000000000000000000000000000000000000000000000000000000000000000000000000000000000000000000000PES00010000001N00000000000000020170410
201703310060000600000000000000741569000000000000007415699900000000000000000000Consumidor Final              000000000077100000000000077100000000000000000000000000000000000000000000000000000000000000000000000000000000000000000000PES00010000001N00000000000000020170410
201703310060000600000000000000741570000000000000007415709900000000000000000000Consumidor Final              000000000076000000000000076000000000000000000000000000000000000000000000000000000000000000000000000000000000000000000000PES00010000001N00000000000000020170410
201703310060000600000000000000741571000000000000007415719000000000099999999999Consumidor Final              000000000122000000000000122000000000000000000000000000000000000000000000000000000000000000000000000000000000000000000000PES00010000001N00000000000000020170410
201703310060000700000000000000523101000000000000005231019900000000000000000000Consumidor Final              000000000068000000000000068000000000000000000000000000000000000000000000000000000000000000000000000000000000000000000000PES00010000001N00000000000000020170410
201703310060000600000000000000741566000000000000007415669900000000000000000000Consumidor Final              000000000068000000000000068000000000000000000000000000000000000000000000000000000000000000000000000000000000000000000000PES00010000001N00000000000000020170410
201703310060000600000000000000741567000000000000007415679900000000000000000000Consumidor Final              000000000068000000000000068000000000000000000000000000000000000000000000000000000000000000000000000000000000000000000000PES00010000001N00000000000000020170410
201703310060000600000000000000741573000000000000007415739900000000000000000000Consumidor Final              000000000068000000000000068000000000000000000000000000000000000000000000000000000000000000000000000000000000000000000000PES00010000001N00000000000000020170410
201703310060000600000000000000741574000000000000007415749900000000000000000000Consumidor Final              000000000083000000000000083000000000000000000000000000000000000000000000000000000000000000000000000000000000000000000000PES00010000001N00000000000000020170410
201703310060000600000000000000741575000000000000007415759900000000000000000000Consumidor Final              000000000068000000000000068000000000000000000000000000000000000000000000000000000000000000000000000000000000000000000000PES00010000001N00000000000000020170410
201703310060000700000000000000523122000000000000005231229900000000000000000000Consumidor Final              000000000068000000000000068000000000000000000000000000000000000000000000000000000000000000000000000000000000000000000000PES00010000001N00000000000000020170410
201703310060000600000000000000741576000000000000007415769900000000000000000000Consumidor Final              000000000076000000000000076000000000000000000000000000000000000000000000000000000000000000000000000000000000000000000000PES00010000001N00000000000000020170410
201703310060000700000000000000523123000000000000005231239900000000000000000000Consumidor Final              000000000068000000000000068000000000000000000000000000000000000000000000000000000000000000000000000000000000000000000000PES00010000001N00000000000000020170410
201703310060000600000000000000741577000000000000007415779900000000000000000000Consumidor Final              000000000068000000000000068000000000000000000000000000000000000000000000000000000000000000000000000000000000000000000000PES00010000001N00000000000000020170410
201703310060000700000000000000523124000000000000005231249900000000000000000000Consumidor Final              000000000068000000000000068000000000000000000000000000000000000000000000000000000000000000000000000000000000000000000000PES00010000001N00000000000000020170410
201703310060000700000000000000523102000000000000005231029900000000000000000000Consumidor Final              000000000068000000000000068000000000000000000000000000000000000000000000000000000000000000000000000000000000000000000000PES00010000001N00000000000000020170410
201703310060000700000000000000523144000000000000005231449900000000000000000000Consumidor Final              000000000063000000000000063000000000000000000000000000000000000000000000000000000000000000000000000000000000000000000000PES00010000001N00000000000000020170410
201703310060000700000000000000523103000000000000005231039900000000000000000000Consumidor Final              000000000068000000000000068000000000000000000000000000000000000000000000000000000000000000000000000000000000000000000000PES00010000001N00000000000000020170410
201703310060000600000000000000741557000000000000007415579900000000000000000000Consumidor Final              000000000068000000000000068000000000000000000000000000000000000000000000000000000000000000000000000000000000000000000000PES00010000001N00000000000000020170410
201703310060000600000000000000741558000000000000007415589900000000000000000000Consumidor Final              000000000068000000000000068000000000000000000000000000000000000000000000000000000000000000000000000000000000000000000000PES00010000001N00000000000000020170410
201703310060000600000000000000741559000000000000007415599900000000000000000000Consumidor Final              000000000068000000000000068000000000000000000000000000000000000000000000000000000000000000000000000000000000000000000000PES00010000001N00000000000000020170410
201703310060000600000000000000741560000000000000007415609900000000000000000000Consumidor Final              000000000068000000000000068000000000000000000000000000000000000000000000000000000000000000000000000000000000000000000000PES00010000001N00000000000000020170410
201703310060000700000000000000523106000000000000005231069900000000000000000000Consumidor Final              000000000059000000000000059000000000000000000000000000000000000000000000000000000000000000000000000000000000000000000000PES00010000001N00000000000000020170410
201703310060000700000000000000523107000000000000005231079900000000000000000000Consumidor Final              000000000068000000000000068000000000000000000000000000000000000000000000000000000000000000000000000000000000000000000000PES00010000001N00000000000000020170410
201703310060000700000000000000523108000000000000005231089000000000099999999999Consumidor Final              000000000103000000000000103000000000000000000000000000000000000000000000000000000000000000000000000000000000000000000000PES00010000001N00000000000000020170410
201703310060000600000000000000741561000000000000007415619900000000000000000000Consumidor Final              000000000068000000000000068000000000000000000000000000000000000000000000000000000000000000000000000000000000000000000000PES00010000001N00000000000000020170410
201703310060000600000000000000741562000000000000007415629900000000000000000000Consumidor Final              000000000076000000000000076000000000000000000000000000000000000000000000000000000000000000000000000000000000000000000000PES00010000001N00000000000000020170410
201703310060000600000000000000741563000000000000007415639900000000000000000000Consumidor Final              000000000081000000000000081000000000000000000000000000000000000000000000000000000000000000000000000000000000000000000000PES00010000001N00000000000000020170410
201703310060000700000000000000523104000000000000005231049900000000000000000000Consumidor Final              000000000068000000000000068000000000000000000000000000000000000000000000000000000000000000000000000000000000000000000000PES00010000001N00000000000000020170410
201703310060000700000000000000523125000000000000005231259900000000000000000000Consumidor Final              000000000068000000000000068000000000000000000000000000000000000000000000000000000000000000000000000000000000000000000000PES00010000001N00000000000000020170410
201703310060000700000000000000523126000000000000005231269900000000000000000000Consumidor Final              000000000068000000000000068000000000000000000000000000000000000000000000000000000000000000000000000000000000000000000000PES00010000001N00000000000000020170410
201703310060000700000000000000523127000000000000005231279900000000000000000000Consumidor Final              000000000068000000000000068000000000000000000000000000000000000000000000000000000000000000000000000000000000000000000000PES00010000001N00000000000000020170410
201703310060000700000000000000523128000000000000005231289900000000000000000000Consumidor Final              000000000068000000000000068000000000000000000000000000000000000000000000000000000000000000000000000000000000000000000000PES00010000001N00000000000000020170410
201703310060000600000000000000741579000000000000007415799900000000000000000000Consumidor Final              000000000073800000000000073800000000000000000000000000000000000000000000000000000000000000000000000000000000000000000000PES00010000001N00000000000000020170410
201703310060000700000000000000523129000000000000005231299900000000000000000000Consumidor Final              000000000073800000000000073800000000000000000000000000000000000000000000000000000000000000000000000000000000000000000000PES00010000001N00000000000000020170410
201703310060000600000000000000741580000000000000007415809900000000000000000000Consumidor Final              000000000068000000000000068000000000000000000000000000000000000000000000000000000000000000000000000000000000000000000000PES00010000001N00000000000000020170410
201703310060000600000000000000741581000000000000007415819900000000000000000000Consumidor Final              000000000068000000000000068000000000000000000000000000000000000000000000000000000000000000000000000000000000000000000000PES00010000001N00000000000000020170410
201703310060000700000000000000523130000000000000005231309900000000000000000000Consumidor Final              000000000094000000000000094000000000000000000000000000000000000000000000000000000000000000000000000000000000000000000000PES00010000001N00000000000000020170410
201703310060000600000000000000741582000000000000007415829900000000000000000000Consumidor Final              000000000078000000000000078000000000000000000000000000000000000000000000000000000000000000000000000000000000000000000000PES00010000001N00000000000000020170410
201703310060000700000000000000523109000000000000005231099900000000000000000000Consumidor Final              000000000096600000000000096600000000000000000000000000000000000000000000000000000000000000000000000000000000000000000000PES00010000001N00000000000000020170410
201703310060000700000000000000523110000000000000005231109900000000000000000000Consumidor Final              000000000070000000000000070000000000000000000000000000000000000000000000000000000000000000000000000000000000000000000000PES00010000001N00000000000000020170410
201703310060000700000000000000523111000000000000005231119900000000000000000000Consumidor Final              000000000071000000000000071000000000000000000000000000000000000000000000000000000000000000000000000000000000000000000000PES00010000001N00000000000000020170410
201703310060000700000000000000523115000000000000005231159900000000000000000000Consumidor Final              000000000073800000000000073800000000000000000000000000000000000000000000000000000000000000000000000000000000000000000000PES00010000001N00000000000000020170410
201703310060000700000000000000523116000000000000005231169900000000000000000000Consumidor Final              000000000068000000000000068000000000000000000000000000000000000000000000000000000000000000000000000000000000000000000000PES00010000001N00000000000000020170410
201703310060000700000000000000523117000000000000005231179900000000000000000000Consumidor Final              000000000068000000000000068000000000000000000000000000000000000000000000000000000000000000000000000000000000000000000000PES00010000001N00000000000000020170410
201703310060000700000000000000523118000000000000005231189900000000000000000000Consumidor Final              000000000066000000000000066000000000000000000000000000000000000000000000000000000000000000000000000000000000000000000000PES00010000001N00000000000000020170410
201703310060000700000000000000523119000000000000005231199900000000000000000000Consumidor Final              000000000066000000000000066000000000000000000000000000000000000000000000000000000000000000000000000000000000000000000000PES00010000001N00000000000000020170410
201703310060000700000000000000523120000000000000005231209900000000000000000000Consumidor Final              000000000068000000000000068000000000000000000000000000000000000000000000000000000000000000000000000000000000000000000000PES00010000001N00000000000000020170410
201703310060000700000000000000523121000000000000005231219900000000000000000000Consumidor Final              000000000068000000000000068000000000000000000000000000000000000000000000000000000000000000000000000000000000000000000000PES00010000001N00000000000000020170410
201703310060000700000000000000523137000000000000005231379900000000000000000000Consumidor Final              000000000068000000000000068000000000000000000000000000000000000000000000000000000000000000000000000000000000000000000000PES00010000001N00000000000000020170410
201703310060000700000000000000523113000000000000005231139900000000000000000000Consumidor Final              000000000065000000000000065000000000000000000000000000000000000000000000000000000000000000000000000000000000000000000000PES00010000001N00000000000000020170410
201703310060000700000000000000523114000000000000005231149900000000000000000000Consumidor Final              000000000065000000000000065000000000000000000000000000000000000000000000000000000000000000000000000000000000000000000000PES00010000001N00000000000000020170410
201703310060000700000000000000523138000000000000005231389900000000000000000000Consumidor Final              000000000068000000000000068000000000000000000000000000000000000000000000000000000000000000000000000000000000000000000000PES00010000001N00000000000000020170410
201703310060000700000000000000523139000000000000005231399900000000000000000000Consumidor Final              000000000068000000000000068000000000000000000000000000000000000000000000000000000000000000000000000000000000000000000000PES00010000001N00000000000000020170410
201703310060000700000000000000523140000000000000005231409900000000000000000000Consumidor Final              000000000068000000000000068000000000000000000000000000000000000000000000000000000000000000000000000000000000000000000000PES00010000001N00000000000000020170410
201703310060000700000000000000523141000000000000005231419900000000000000000000Consumidor Final              000000000068000000000000068000000000000000000000000000000000000000000000000000000000000000000000000000000000000000000000PES00010000001N00000000000000020170410
201703310060000700000000000000523142000000000000005231429900000000000000000000Consumidor Final              000000000068000000000000068000000000000000000000000000000000000000000000000000000000000000000000000000000000000000000000PES00010000001N00000000000000020170410
201703310060000700000000000000523143000000000000005231439900000000000000000000Consumidor Final              000000000032000000000000032000000000000000000000000000000000000000000000000000000000000000000000000000000000000000000000PES00010000001N00000000000000020170410
201703310060000700000000000000523145000000000000005231459900000000000000000000Consumidor Final              000000000072000000000000072000000000000000000000000000000000000000000000000000000000000000000000000000000000000000000000PES00010000001N00000000000000020170410
201703310060000600000000000000741572000000000000007415729900000000000000000000Consumidor Final              000000000068000000000000068000000000000000000000000000000000000000000000000000000000000000000000000000000000000000000000PES00010000001N00000000000000020170410
201703310060000600000000000000741583000000000000007415839900000000000000000000Consumidor Final              000000000068000000000000068000000000000000000000000000000000000000000000000000000000000000000000000000000000000000000000PES00010000001N00000000000000020170410
201703310060000600000000000000741584000000000000007415849900000000000000000000Consumidor Final              000000000068000000000000068000000000000000000000000000000000000000000000000000000000000000000000000000000000000000000000PES00010000001N00000000000000020170410
201703310060000700000000000000523131000000000000005231319900000000000000000000Consumidor Final              000000000068000000000000068000000000000000000000000000000000000000000000000000000000000000000000000000000000000000000000PES00010000001N00000000000000020170410
201703310060000700000000000000523132000000000000005231329900000000000000000000Consumidor Final              000000000068000000000000068000000000000000000000000000000000000000000000000000000000000000000000000000000000000000000000PES00010000001N00000000000000020170410
201703310060000600000000000000741585000000000000007415859900000000000000000000Consumidor Final              000000000081000000000000081000000000000000000000000000000000000000000000000000000000000000000000000000000000000000000000PES00010000001N00000000000000020170410
201703310060000700000000000000523133000000000000005231339900000000000000000000Consumidor Final              000000000073800000000000073800000000000000000000000000000000000000000000000000000000000000000000000000000000000000000000PES00010000001N00000000000000020170410
201703310060000600000000000000741586000000000000007415869900000000000000000000Consumidor Final              000000000081000000000000081000000000000000000000000000000000000000000000000000000000000000000000000000000000000000000000PES00010000001N00000000000000020170410
201703310060000600000000000000741587000000000000007415879900000000000000000000Consumidor Final              000000000068000000000000068000000000000000000000000000000000000000000000000000000000000000000000000000000000000000000000PES00010000001N00000000000000020170410
201703310060000700000000000000523134000000000000005231349900000000000000000000Consumidor Final              000000000073800000000000073800000000000000000000000000000000000000000000000000000000000000000000000000000000000000000000PES00010000001N00000000000000020170410
201703310060000600000000000000741588000000000000007415889900000000000000000000Consumidor Final              000000000068000000000000068000000000000000000000000000000000000000000000000000000000000000000000000000000000000000000000PES00010000001N00000000000000020170410
201703310060000600000000000000741578000000000000007415789900000000000000000000Consumidor Final              000000000081000000000000081000000000000000000000000000000000000000000000000000000000000000000000000000000000000000000000PES00010000001N00000000000000020170410
201703310060000600000000000000741597000000000000007415979900000000000000000000Consumidor Final              000000000068000000000000068000000000000000000000000000000000000000000000000000000000000000000000000000000000000000000000PES00010000001N00000000000000020170410
201703310060000700000000000000523146000000000000005231469900000000000000000000Consumidor Final              000000000073800000000000073800000000000000000000000000000000000000000000000000000000000000000000000000000000000000000000PES00010000001N00000000000000020170410
201703310060000600000000000000741596000000000000007415969900000000000000000000Consumidor Final              000000000068000000000000068000000000000000000000000000000000000000000000000000000000000000000000000000000000000000000000PES00010000001N00000000000000020170410
201703310060000600000000000000741598000000000000007415989900000000000000000000Consumidor Final              000000000068000000000000068000000000000000000000000000000000000000000000000000000000000000000000000000000000000000000000PES00010000001N00000000000000020170410
201703310060000600000000000000741599000000000000007415999900000000000000000000Consumidor Final              000000000068000000000000068000000000000000000000000000000000000000000000000000000000000000000000000000000000000000000000PES00010000001N00000000000000020170410
201703310060000700000000000000523147000000000000005231479900000000000000000000Consumidor Final              000000000068000000000000068000000000000000000000000000000000000000000000000000000000000000000000000000000000000000000000PES00010000001N00000000000000020170410
201703310060000700000000000000523148000000000000005231489900000000000000000000Consumidor Final              000000000073800000000000073800000000000000000000000000000000000000000000000000000000000000000000000000000000000000000000PES00010000001N00000000000000020170410
201703310060000600000000000000741600000000000000007416009900000000000000000000Consumidor Final              000000000068000000000000068000000000000000000000000000000000000000000000000000000000000000000000000000000000000000000000PES00010000001N00000000000000020170410
201703310060000600000000000000741601000000000000007416019900000000000000000000Consumidor Final              000000000068000000000000068000000000000000000000000000000000000000000000000000000000000000000000000000000000000000000000PES00010000001N00000000000000020170410
201703310060000600000000000000741602000000000000007416029900000000000000000000Consumidor Final              000000000081000000000000081000000000000000000000000000000000000000000000000000000000000000000000000000000000000000000000PES00010000001N00000000000000020170410
201703310060000600000000000000741603000000000000007416039900000000000000000000Consumidor Final              000000000068000000000000068000000000000000000000000000000000000000000000000000000000000000000000000000000000000000000000PES00010000001N00000000000000020170410
201703310060000600000000000000741604000000000000007416049900000000000000000000Consumidor Final              000000000076000000000000076000000000000000000000000000000000000000000000000000000000000000000000000000000000000000000000PES00010000001N00000000000000020170410
201703310060000600000000000000741605000000000000007416059900000000000000000000Consumidor Final              000000000068000000000000068000000000000000000000000000000000000000000000000000000000000000000000000000000000000000000000PES00010000001N00000000000000020170410
201703310060000600000000000000741606000000000000007416069900000000000000000000Consumidor Final              000000000068000000000000068000000000000000000000000000000000000000000000000000000000000000000000000000000000000000000000PES00010000001N00000000000000020170410
201703310060000700000000000000523149000000000000005231499900000000000000000000Consumidor Final              000000000073800000000000073800000000000000000000000000000000000000000000000000000000000000000000000000000000000000000000PES00010000001N00000000000000020170410
201703310060000600000000000000741620000000000000007416209900000000000000000000Consumidor Final              000000000068000000000000068000000000000000000000000000000000000000000000000000000000000000000000000000000000000000000000PES00010000001N00000000000000020170410
201703310060000600000000000000741621000000000000007416219900000000000000000000Consumidor Final              000000000073800000000000073800000000000000000000000000000000000000000000000000000000000000000000000000000000000000000000PES00010000001N00000000000000020170410
201703310060000700000000000000523177000000000000005231779900000000000000000000Consumidor Final              000000000068000000000000068000000000000000000000000000000000000000000000000000000000000000000000000000000000000000000000PES00010000001N00000000000000020170410
201703310060000600000000000000741627000000000000007416279900000000000000000000Consumidor Final              000000000073800000000000073800000000000000000000000000000000000000000000000000000000000000000000000000000000000000000000PES00010000001N00000000000000020170410
201703310060000700000000000000523151000000000000005231519900000000000000000000Consumidor Final              000000000068000000000000068000000000000000000000000000000000000000000000000000000000000000000000000000000000000000000000PES00010000001N00000000000000020170410
201703310060000700000000000000523168000000000000005231689900000000000000000000Consumidor Final              000000000073800000000000073800000000000000000000000000000000000000000000000000000000000000000000000000000000000000000000PES00010000001N00000000000000020170410
201703310060000700000000000000523169000000000000005231699900000000000000000000Consumidor Final              000000000078200000000000078200000000000000000000000000000000000000000000000000000000000000000000000000000000000000000000PES00010000001N00000000000000020170410
201703310060000600000000000000741628000000000000007416289900000000000000000000Consumidor Final              000000000068000000000000068000000000000000000000000000000000000000000000000000000000000000000000000000000000000000000000PES00010000001N00000000000000020170410
201703310060000600000000000000741629000000000000007416299900000000000000000000Consumidor Final              000000000066000000000000066000000000000000000000000000000000000000000000000000000000000000000000000000000000000000000000PES00010000001N00000000000000020170410
201703310060000700000000000000523152000000000000005231529900000000000000000000Consumidor Final              000000000068000000000000068000000000000000000000000000000000000000000000000000000000000000000000000000000000000000000000PES00010000001N00000000000000020170410
201703310060000600000000000000741609000000000000007416099900000000000000000000Consumidor Final              000000000073800000000000073800000000000000000000000000000000000000000000000000000000000000000000000000000000000000000000PES00010000001N00000000000000020170410
201703310060000600000000000000741610000000000000007416109900000000000000000000Consumidor Final              000000000087900000000000087900000000000000000000000000000000000000000000000000000000000000000000000000000000000000000000PES00010000001N00000000000000020170410
201703310060000600000000000000741611000000000000007416119900000000000000000000Consumidor Final              000000000068000000000000068000000000000000000000000000000000000000000000000000000000000000000000000000000000000000000000PES00010000001N00000000000000020170410
201703310060000600000000000000741612000000000000007416129900000000000000000000Consumidor Final              000000000068000000000000068000000000000000000000000000000000000000000000000000000000000000000000000000000000000000000000PES00010000001N00000000000000020170410
201703310060000700000000000000523162000000000000005231629900000000000000000000Consumidor Final              000000000068000000000000068000000000000000000000000000000000000000000000000000000000000000000000000000000000000000000000PES00010000001N00000000000000020170410
201703310060000700000000000000523163000000000000005231639900000000000000000000Consumidor Final              000000000068000000000000068000000000000000000000000000000000000000000000000000000000000000000000000000000000000000000000PES00010000001N00000000000000020170410
201703310060000700000000000000523164000000000000005231649900000000000000000000Consumidor Final              000000000081000000000000081000000000000000000000000000000000000000000000000000000000000000000000000000000000000000000000PES00010000001N00000000000000020170410
201703310060000700000000000000523165000000000000005231659900000000000000000000Consumidor Final              000000000073800000000000073800000000000000000000000000000000000000000000000000000000000000000000000000000000000000000000PES00010000001N00000000000000020170410
201703310060000700000000000000523166000000000000005231669900000000000000000000Consumidor Final              000000000073800000000000073800000000000000000000000000000000000000000000000000000000000000000000000000000000000000000000PES00010000001N00000000000000020170410
201703310060000700000000000000523167000000000000005231679900000000000000000000Consumidor Final              000000000070000000000000070000000000000000000000000000000000000000000000000000000000000000000000000000000000000000000000PES00010000001N00000000000000020170410
201703310060000700000000000000523153000000000000005231539900000000000000000000Consumidor Final              000000000068000000000000068000000000000000000000000000000000000000000000000000000000000000000000000000000000000000000000PES00010000001N00000000000000020170410
201703310060000700000000000000523154000000000000005231549900000000000000000000Consumidor Final              000000000068000000000000068000000000000000000000000000000000000000000000000000000000000000000000000000000000000000000000PES00010000001N00000000000000020170410
201703310060000700000000000000523155000000000000005231559900000000000000000000Consumidor Final              000000000068000000000000068000000000000000000000000000000000000000000000000000000000000000000000000000000000000000000000PES00010000001N00000000000000020170410
201703310060000700000000000000523156000000000000005231569900000000000000000000Consumidor Final              000000000068000000000000068000000000000000000000000000000000000000000000000000000000000000000000000000000000000000000000PES00010000001N00000000000000020170410
201703310060000700000000000000523157000000000000005231579900000000000000000000Consumidor Final              000000000068000000000000068000000000000000000000000000000000000000000000000000000000000000000000000000000000000000000000PES00010000001N00000000000000020170410
201703310060000700000000000000523158000000000000005231589900000000000000000000Consumidor Final              000000000073800000000000073800000000000000000000000000000000000000000000000000000000000000000000000000000000000000000000PES00010000001N00000000000000020170410
201703310060000700000000000000523159000000000000005231599900000000000000000000Consumidor Final              000000000073800000000000073800000000000000000000000000000000000000000000000000000000000000000000000000000000000000000000PES00010000001N00000000000000020170410
201703310060000700000000000000523160000000000000005231609900000000000000000000Consumidor Final              000000000068000000000000068000000000000000000000000000000000000000000000000000000000000000000000000000000000000000000000PES00010000001N00000000000000020170410
201703310060000700000000000000523161000000000000005231619900000000000000000000Consumidor Final              000000000073800000000000073800000000000000000000000000000000000000000000000000000000000000000000000000000000000000000000PES00010000001N00000000000000020170410
201703310060000600000000000000741622000000000000007416229900000000000000000000Consumidor Final              000000000097000000000000097000000000000000000000000000000000000000000000000000000000000000000000000000000000000000000000PES00010000001N00000000000000020170410
201703310060000600000000000000741623000000000000007416239900000000000000000000Consumidor Final              000000000072000000000000072000000000000000000000000000000000000000000000000000000000000000000000000000000000000000000000PES00010000001N00000000000000020170410
201703310060000600000000000000741613000000000000007416139000000000099999999999Consumidor Final              000000000116000000000000116000000000000000000000000000000000000000000000000000000000000000000000000000000000000000000000PES00010000001N00000000000000020170410
201703310060000900000000000000038108000000000000000381089900000000000000000000Consumidor Final              000000000068000000000000068000000000000000000000000000000000000000000000000000000000000000000000000000000000000000000000PES00010000001N00000000000000020170410
201703310060000600000000000000741619000000000000007416199900000000000000000000Consumidor Final              000000000073000000000000073000000000000000000000000000000000000000000000000000000000000000000000000000000000000000000000PES00010000001N00000000000000020170410
201703310060000700000000000000523170000000000000005231709900000000000000000000Consumidor Final              000000000073800000000000073800000000000000000000000000000000000000000000000000000000000000000000000000000000000000000000PES00010000001N00000000000000020170410
201703310060000900000000000000038109000000000000000381099900000000000000000000Consumidor Final              000000000068000000000000068000000000000000000000000000000000000000000000000000000000000000000000000000000000000000000000PES00010000001N00000000000000020170410
201703310060000900000000000000038110000000000000000381109900000000000000000000Consumidor Final              000000000068000000000000068000000000000000000000000000000000000000000000000000000000000000000000000000000000000000000000PES00010000001N00000000000000020170410
201703310060000700000000000000523174000000000000005231749000000000099999999999Consumidor Final              000000000115100000000000115100000000000000000000000000000000000000000000000000000000000000000000000000000000000000000000PES00010000001N00000000000000020170410
201703310060000700000000000000523175000000000000005231759900000000000000000000Consumidor Final              000000000070000000000000070000000000000000000000000000000000000000000000000000000000000000000000000000000000000000000000PES00010000001N00000000000000020170410
201703310060000700000000000000523176000000000000005231769900000000000000000000Consumidor Final              000000000068000000000000068000000000000000000000000000000000000000000000000000000000000000000000000000000000000000000000PES00010000001N00000000000000020170410
201703310060000600000000000000741614000000000000007416149900000000000000000000Consumidor Final              000000000081000000000000081000000000000000000000000000000000000000000000000000000000000000000000000000000000000000000000PES00010000001N00000000000000020170410
201703310060000800000000000000179013000000000000001790139900000000000000000000Consumidor Final              000000000068000000000000068000000000000000000000000000000000000000000000000000000000000000000000000000000000000000000000PES00010000001N00000000000000020170410
201703310060000700000000000000523171000000000000005231719900000000000000000000Consumidor Final              000000000068000000000000068000000000000000000000000000000000000000000000000000000000000000000000000000000000000000000000PES00010000001N00000000000000020170410
201703310060000700000000000000523172000000000000005231729900000000000000000000Consumidor Final              000000000068000000000000068000000000000000000000000000000000000000000000000000000000000000000000000000000000000000000000PES00010000001N00000000000000020170410
201703310060000700000000000000523173000000000000005231739900000000000000000000Consumidor Final              000000000068000000000000068000000000000000000000000000000000000000000000000000000000000000000000000000000000000000000000PES00010000001N00000000000000020170410
201703310060000900000000000000038111000000000000000381119900000000000000000000Consumidor Final              000000000068000000000000068000000000000000000000000000000000000000000000000000000000000000000000000000000000000000000000PES00010000001N00000000000000020170410
201703310060000900000000000000038112000000000000000381129900000000000000000000Consumidor Final              000000000068000000000000068000000000000000000000000000000000000000000000000000000000000000000000000000000000000000000000PES00010000001N00000000000000020170410
201703310060000900000000000000038113000000000000000381139900000000000000000000Consumidor Final              000000000068000000000000068000000000000000000000000000000000000000000000000000000000000000000000000000000000000000000000PES00010000001N00000000000000020170410
201703310060000600000000000000741624000000000000007416249900000000000000000000Consumidor Final              000000000068000000000000068000000000000000000000000000000000000000000000000000000000000000000000000000000000000000000000PES00010000001N00000000000000020170410
201703310060000600000000000000741625000000000000007416259900000000000000000000Consumidor Final              000000000068000000000000068000000000000000000000000000000000000000000000000000000000000000000000000000000000000000000000PES00010000001N00000000000000020170410
201703310060000600000000000000741615000000000000007416159900000000000000000000Consumidor Final              000000000068000000000000068000000000000000000000000000000000000000000000000000000000000000000000000000000000000000000000PES00010000001N00000000000000020170410
201703310060000600000000000000741616000000000000007416169900000000000000000000Consumidor Final              000000000068000000000000068000000000000000000000000000000000000000000000000000000000000000000000000000000000000000000000PES00010000001N00000000000000020170410
201703310060000600000000000000741617000000000000007416179900000000000000000000Consumidor Final              000000000068000000000000068000000000000000000000000000000000000000000000000000000000000000000000000000000000000000000000PES00010000001N00000000000000020170410
201703310060000600000000000000741618000000000000007416189900000000000000000000Consumidor Final              000000000068000000000000068000000000000000000000000000000000000000000000000000000000000000000000000000000000000000000000PES00010000001N00000000000000020170410
201703310060000600000000000000741626000000000000007416269900000000000000000000Consumidor Final              000000000068000000000000068000000000000000000000000000000000000000000000000000000000000000000000000000000000000000000000PES00010000001N00000000000000020170410
201703310060000700000000000000523178000000000000005231789900000000000000000000Consumidor Final              000000000068000000000000068000000000000000000000000000000000000000000000000000000000000000000000000000000000000000000000PES00010000001N00000000000000020170410
201703310060000700000000000000523179000000000000005231799900000000000000000000Consumidor Final              000000000068000000000000068000000000000000000000000000000000000000000000000000000000000000000000000000000000000000000000PES00010000001N00000000000000020170410
201703310060000700000000000000523180000000000000005231809900000000000000000000Consumidor Final              000000000068000000000000068000000000000000000000000000000000000000000000000000000000000000000000000000000000000000000000PES00010000001N00000000000000020170410
201703310060000600000000000000741631000000000000007416319900000000000000000000Consumidor Final              000000000081000000000000081000000000000000000000000000000000000000000000000000000000000000000000000000000000000000000000PES00010000001N00000000000000020170410
201703310060000600000000000000741632000000000000007416329900000000000000000000Consumidor Final              000000000073800000000000073800000000000000000000000000000000000000000000000000000000000000000000000000000000000000000000PES00010000001N00000000000000020170410
201703310060000600000000000000741633000000000000007416339900000000000000000000Consumidor Final              000000000068000000000000068000000000000000000000000000000000000000000000000000000000000000000000000000000000000000000000PES00010000001N00000000000000020170410
201703310060000600000000000000741634000000000000007416349900000000000000000000Consumidor Final              000000000066000000000000066000000000000000000000000000000000000000000000000000000000000000000000000000000000000000000000PES00010000001N00000000000000020170410
201703310060000600000000000000741635000000000000007416359900000000000000000000Consumidor Final              000000000068000000000000068000000000000000000000000000000000000000000000000000000000000000000000000000000000000000000000PES00010000001N00000000000000020170410
201703310060000700000000000000523189000000000000005231899900000000000000000000Consumidor Final              000000000068000000000000068000000000000000000000000000000000000000000000000000000000000000000000000000000000000000000000PES00010000001N00000000000000020170410
201703310060000700000000000000523187000000000000005231879900000000000000000000Consumidor Final              000000000068000000000000068000000000000000000000000000000000000000000000000000000000000000000000000000000000000000000000PES00010000001N00000000000000020170410
201703310060000600000000000000741636000000000000007416369900000000000000000000Consumidor Final              000000000068000000000000068000000000000000000000000000000000000000000000000000000000000000000000000000000000000000000000PES00010000001N00000000000000020170410
201703310060000700000000000000523188000000000000005231889900000000000000000000Consumidor Final              000000000068000000000000068000000000000000000000000000000000000000000000000000000000000000000000000000000000000000000000PES00010000001N00000000000000020170410
201703310060000600000000000000741637000000000000007416379900000000000000000000Consumidor Final              000000000068000000000000068000000000000000000000000000000000000000000000000000000000000000000000000000000000000000000000PES00010000001N00000000000000020170410
201703310060000700000000000000523194000000000000005231949900000000000000000000Consumidor Final              000000000081000000000000081000000000000000000000000000000000000000000000000000000000000000000000000000000000000000000000PES00010000001N00000000000000020170410
201703310060000600000000000000741638000000000000007416389900000000000000000000Consumidor Final              000000000068000000000000068000000000000000000000000000000000000000000000000000000000000000000000000000000000000000000000PES00010000001N00000000000000020170410
201703310060000700000000000000523190000000000000005231909900000000000000000000Consumidor Final              000000000068000000000000068000000000000000000000000000000000000000000000000000000000000000000000000000000000000000000000PES00010000001N00000000000000020170410
201703310060000700000000000000523191000000000000005231919900000000000000000000Consumidor Final              000000000073800000000000073800000000000000000000000000000000000000000000000000000000000000000000000000000000000000000000PES00010000001N00000000000000020170410
201703310060000700000000000000523192000000000000005231929900000000000000000000Consumidor Final              000000000032000000000000032000000000000000000000000000000000000000000000000000000000000000000000000000000000000000000000PES00010000001N00000000000000020170410
201703310060000600000000000000741639000000000000007416399900000000000000000000Consumidor Final              000000000068000000000000068000000000000000000000000000000000000000000000000000000000000000000000000000000000000000000000PES00010000001N00000000000000020170410
201703310060000600000000000000741640000000000000007416409000000000099999999999Consumidor Final              000000000217200000000000217200000000000000000000000000000000000000000000000000000000000000000000000000000000000000000000PES00010000001N00000000000000020170410
201703310060000700000000000000523195000000000000005231959900000000000000000000Consumidor Final              000000000068000000000000068000000000000000000000000000000000000000000000000000000000000000000000000000000000000000000000PES00010000001N00000000000000020170410
201703310060000600000000000000741641000000000000007416419900000000000000000000Consumidor Final              000000000068000000000000068000000000000000000000000000000000000000000000000000000000000000000000000000000000000000000000PES00010000001N00000000000000020170410
201703310060000600000000000000741642000000000000007416429000000000099999999999Consumidor Final              000000000150900000000000150900000000000000000000000000000000000000000000000000000000000000000000000000000000000000000000PES00010000001N00000000000000020170410
201703310060000600000000000000741651000000000000007416519900000000000000000000Consumidor Final              000000000068000000000000068000000000000000000000000000000000000000000000000000000000000000000000000000000000000000000000PES00010000001N00000000000000020170410
201703310060000600000000000000741652000000000000007416529900000000000000000000Consumidor Final              000000000070000000000000070000000000000000000000000000000000000000000000000000000000000000000000000000000000000000000000PES00010000001N00000000000000020170410
201703310060000600000000000000741666000000000000007416669900000000000000000000Consumidor Final              000000000073800000000000073800000000000000000000000000000000000000000000000000000000000000000000000000000000000000000000PES00010000001N00000000000000020170410
201703310060000700000000000000523193000000000000005231939900000000000000000000Consumidor Final              000000000068000000000000068000000000000000000000000000000000000000000000000000000000000000000000000000000000000000000000PES00010000001N00000000000000020170410
201703310060000800000000000000179014000000000000001790149900000000000000000000Consumidor Final              000000000058000000000000058000000000000000000000000000000000000000000000000000000000000000000000000000000000000000000000PES00010000001N00000000000000020170410
201703310060000800000000000000179015000000000000001790159900000000000000000000Consumidor Final              000000000058000000000000058000000000000000000000000000000000000000000000000000000000000000000000000000000000000000000000PES00010000001N00000000000000020170410
201703310060000800000000000000179016000000000000001790169900000000000000000000Consumidor Final              000000000058000000000000058000000000000000000000000000000000000000000000000000000000000000000000000000000000000000000000PES00010000001N00000000000000020170410
201703310060000700000000000000523196000000000000005231969900000000000000000000Consumidor Final              000000000068000000000000068000000000000000000000000000000000000000000000000000000000000000000000000000000000000000000000PES00010000001N00000000000000020170410
201703310060000700000000000000523197000000000000005231979900000000000000000000Consumidor Final              000000000032000000000000032000000000000000000000000000000000000000000000000000000000000000000000000000000000000000000000PES00010000001N00000000000000020170410
201703310060000700000000000000523198000000000000005231989900000000000000000000Consumidor Final              000000000032000000000000032000000000000000000000000000000000000000000000000000000000000000000000000000000000000000000000PES00010000001N00000000000000020170410
201703310060000700000000000000523199000000000000005231999900000000000000000000Consumidor Final              000000000068000000000000068000000000000000000000000000000000000000000000000000000000000000000000000000000000000000000000PES00010000001N00000000000000020170410
201703310060000600000000000000741643000000000000007416439900000000000000000000Consumidor Final              000000000079000000000000079000000000000000000000000000000000000000000000000000000000000000000000000000000000000000000000PES00010000001N00000000000000020170410
201703310060000700000000000000523200000000000000005232009900000000000000000000Consumidor Final              000000000068000000000000068000000000000000000000000000000000000000000000000000000000000000000000000000000000000000000000PES00010000001N00000000000000020170410
201703310060000700000000000000523201000000000000005232019900000000000000000000Consumidor Final              000000000068000000000000068000000000000000000000000000000000000000000000000000000000000000000000000000000000000000000000PES00010000001N00000000000000020170410
201703310060000700000000000000523202000000000000005232029900000000000000000000Consumidor Final              000000000068000000000000068000000000000000000000000000000000000000000000000000000000000000000000000000000000000000000000PES00010000001N00000000000000020170410
201703310060000600000000000000741665000000000000007416659900000000000000000000Consumidor Final              000000000073800000000000073800000000000000000000000000000000000000000000000000000000000000000000000000000000000000000000PES00010000001N00000000000000020170410
201703310060000800000000000000179024000000000000001790249900000000000000000000Consumidor Final              000000000058000000000000058000000000000000000000000000000000000000000000000000000000000000000000000000000000000000000000PES00010000001N00000000000000020170410
201703310060000800000000000000179025000000000000001790259900000000000000000000Consumidor Final              000000000058000000000000058000000000000000000000000000000000000000000000000000000000000000000000000000000000000000000000PES00010000001N00000000000000020170410
201703310060000800000000000000179026000000000000001790269900000000000000000000Consumidor Final              000000000058000000000000058000000000000000000000000000000000000000000000000000000000000000000000000000000000000000000000PES00010000001N00000000000000020170410
201703310060000800000000000000179027000000000000001790279900000000000000000000Consumidor Final              000000000058000000000000058000000000000000000000000000000000000000000000000000000000000000000000000000000000000000000000PES00010000001N00000000000000020170410
201703310060000800000000000000179028000000000000001790289900000000000000000000Consumidor Final              000000000058000000000000058000000000000000000000000000000000000000000000000000000000000000000000000000000000000000000000PES00010000001N00000000000000020170410
201703310060000600000000000000741678000000000000007416789900000000000000000000Consumidor Final              000000000064000000000000064000000000000000000000000000000000000000000000000000000000000000000000000000000000000000000000PES00010000001N00000000000000020170410
201703310060000600000000000000741679000000000000007416799900000000000000000000Consumidor Final              000000000068000000000000068000000000000000000000000000000000000000000000000000000000000000000000000000000000000000000000PES00010000001N00000000000000020170410
201703310060000600000000000000741680000000000000007416809900000000000000000000Consumidor Final              000000000068000000000000068000000000000000000000000000000000000000000000000000000000000000000000000000000000000000000000PES00010000001N00000000000000020170410
201703310060000600000000000000741681000000000000007416819900000000000000000000Consumidor Final              000000000068000000000000068000000000000000000000000000000000000000000000000000000000000000000000000000000000000000000000PES00010000001N00000000000000020170410
201703310060000700000000000000523203000000000000005232039900000000000000000000Consumidor Final              000000000068000000000000068000000000000000000000000000000000000000000000000000000000000000000000000000000000000000000000PES00010000001N00000000000000020170410
201703310060000800000000000000179017000000000000001790179900000000000000000000Consumidor Final              000000000058000000000000058000000000000000000000000000000000000000000000000000000000000000000000000000000000000000000000PES00010000001N00000000000000020170410
201703310060000800000000000000179018000000000000001790189900000000000000000000Consumidor Final              000000000058000000000000058000000000000000000000000000000000000000000000000000000000000000000000000000000000000000000000PES00010000001N00000000000000020170410
201703310060000800000000000000179019000000000000001790199900000000000000000000Consumidor Final              000000000058000000000000058000000000000000000000000000000000000000000000000000000000000000000000000000000000000000000000PES00010000001N00000000000000020170410
201703310060000800000000000000179020000000000000001790209900000000000000000000Consumidor Final              000000000033000000000000033000000000000000000000000000000000000000000000000000000000000000000000000000000000000000000000PES00010000001N00000000000000020170410
201703310060000800000000000000179021000000000000001790219900000000000000000000Consumidor Final              000000000058000000000000058000000000000000000000000000000000000000000000000000000000000000000000000000000000000000000000PES00010000001N00000000000000020170410
201703310060000800000000000000179022000000000000001790229900000000000000000000Consumidor Final              000000000058000000000000058000000000000000000000000000000000000000000000000000000000000000000000000000000000000000000000PES00010000001N00000000000000020170410
201703310060000800000000000000179023000000000000001790239900000000000000000000Consumidor Final              000000000058000000000000058000000000000000000000000000000000000000000000000000000000000000000000000000000000000000000000PES00010000001N00000000000000020170410
201703310060000600000000000000741649000000000000007416499900000000000000000000Consumidor Final              000000000068000000000000068000000000000000000000000000000000000000000000000000000000000000000000000000000000000000000000PES00010000001N00000000000000020170410
201703310060000600000000000000741650000000000000007416509900000000000000000000Consumidor Final              000000000068000000000000068000000000000000000000000000000000000000000000000000000000000000000000000000000000000000000000PES00010000001N00000000000000020170410
201703310060000600000000000000741664000000000000007416649900000000000000000000Consumidor Final              000000000083000000000000083000000000000000000000000000000000000000000000000000000000000000000000000000000000000000000000PES00010000001N00000000000000020170410
201703310060000600000000000000741688000000000000007416889900000000000000000000Consumidor Final              000000000068000000000000068000000000000000000000000000000000000000000000000000000000000000000000000000000000000000000000PES00010000001N00000000000000020170410
201703310060000600000000000000741689000000000000007416899900000000000000000000Consumidor Final              000000000068000000000000068000000000000000000000000000000000000000000000000000000000000000000000000000000000000000000000PES00010000001N00000000000000020170410
201703310060000600000000000000741690000000000000007416909900000000000000000000Consumidor Final              000000000034800000000000034800000000000000000000000000000000000000000000000000000000000000000000000000000000000000000000PES00010000001N00000000000000020170410
201703310060000600000000000000741710000000000000007417109900000000000000000000Consumidor Final              000000000070000000000000070000000000000000000000000000000000000000000000000000000000000000000000000000000000000000000000PES00010000001N00000000000000020170410
201703310060000600000000000000741711000000000000007417119900000000000000000000Consumidor Final              000000000073800000000000073800000000000000000000000000000000000000000000000000000000000000000000000000000000000000000000PES00010000001N00000000000000020170410
201703310060000600000000000000741712000000000000007417129900000000000000000000Consumidor Final              000000000068000000000000068000000000000000000000000000000000000000000000000000000000000000000000000000000000000000000000PES00010000001N00000000000000020170410
201703310060000600000000000000741715000000000000007417159900000000000000000000Consumidor Final              000000000039000000000000039000000000000000000000000000000000000000000000000000000000000000000000000000000000000000000000PES00010000001N00000000000000020170410
201703310060000600000000000000741716000000000000007417169900000000000000000000Consumidor Final              000000000073800000000000073800000000000000000000000000000000000000000000000000000000000000000000000000000000000000000000PES00010000001N00000000000000020170410
201703310060000600000000000000741717000000000000007417179900000000000000000000Consumidor Final              000000000073800000000000073800000000000000000000000000000000000000000000000000000000000000000000000000000000000000000000PES00010000001N00000000000000020170410
201703310060000600000000000000741718000000000000007417189900000000000000000000Consumidor Final              000000000073800000000000073800000000000000000000000000000000000000000000000000000000000000000000000000000000000000000000PES00010000001N00000000000000020170410
201703310060000600000000000000741719000000000000007417199900000000000000000000Consumidor Final              000000000073800000000000073800000000000000000000000000000000000000000000000000000000000000000000000000000000000000000000PES00010000001N00000000000000020170410
201703310060000600000000000000741726000000000000007417269900000000000000000000Consumidor Final              000000000073800000000000073800000000000000000000000000000000000000000000000000000000000000000000000000000000000000000000PES00010000001N00000000000000020170410
201703310060000700000000000000523235000000000000005232359900000000000000000000Consumidor Final              000000000068000000000000068000000000000000000000000000000000000000000000000000000000000000000000000000000000000000000000PES00010000001N00000000000000020170410
201703310060000600000000000000741791000000000000007417919900000000000000000000Consumidor Final              000000000073800000000000073800000000000000000000000000000000000000000000000000000000000000000000000000000000000000000000PES00010000001N00000000000000020170410
201703310060000600000000000000741792000000000000007417929900000000000000000000Consumidor Final              000000000068000000000000068000000000000000000000000000000000000000000000000000000000000000000000000000000000000000000000PES00010000001N00000000000000020170410
201703310060000600000000000000741644000000000000007416449900000000000000000000Consumidor Final              000000000073800000000000073800000000000000000000000000000000000000000000000000000000000000000000000000000000000000000000PES00010000001N00000000000000020170410
201703310060000600000000000000741667000000000000007416679900000000000000000000Consumidor Final              000000000073800000000000073800000000000000000000000000000000000000000000000000000000000000000000000000000000000000000000PES00010000001N00000000000000020170410
201703310060000600000000000000741668000000000000007416689900000000000000000000Consumidor Final              000000000073800000000000073800000000000000000000000000000000000000000000000000000000000000000000000000000000000000000000PES00010000001N00000000000000020170410
201703310060000600000000000000741682000000000000007416829000000000099999999999Consumidor Final              000000000644800000000000000000000000000000000000000000000000000000000000000000000000000000000000000000000000000000000000PES00010000001 00000000000000020170410
201703310060000600000000000000741683000000000000007416839900000000000000000000Consumidor Final              000000000068000000000000068000000000000000000000000000000000000000000000000000000000000000000000000000000000000000000000PES00010000001N00000000000000020170410
201703310060000600000000000000741684000000000000007416849900000000000000000000Consumidor Final              000000000068000000000000068000000000000000000000000000000000000000000000000000000000000000000000000000000000000000000000PES00010000001N00000000000000020170410
201703310060000600000000000000741685000000000000007416859900000000000000000000Consumidor Final              000000000069000000000000069000000000000000000000000000000000000000000000000000000000000000000000000000000000000000000000PES00010000001N00000000000000020170410
201703310060000600000000000000741686000000000000007416869900000000000000000000Consumidor Final              000000000068000000000000068000000000000000000000000000000000000000000000000000000000000000000000000000000000000000000000PES00010000001N00000000000000020170410
201703310060000600000000000000741687000000000000007416879900000000000000000000Consumidor Final              000000000068000000000000068000000000000000000000000000000000000000000000000000000000000000000000000000000000000000000000PES00010000001N00000000000000020170410
201703310060000900000000000000038114000000000000000381149900000000000000000000Consumidor Final              000000000068000000000000068000000000000000000000000000000000000000000000000000000000000000000000000000000000000000000000PES00010000001N00000000000000020170410
201703310060000600000000000000741691000000000000007416919900000000000000000000Consumidor Final              000000000068000000000000068000000000000000000000000000000000000000000000000000000000000000000000000000000000000000000000PES00010000001N00000000000000020170410
201703310060000700000000000000523204000000000000005232049900000000000000000000Consumidor Final              000000000068000000000000068000000000000000000000000000000000000000000000000000000000000000000000000000000000000000000000PES00010000001N00000000000000020170410
201703310060000700000000000000523205000000000000005232059900000000000000000000Consumidor Final              000000000068000000000000068000000000000000000000000000000000000000000000000000000000000000000000000000000000000000000000PES00010000001N00000000000000020170410
201703310060000900000000000000038115000000000000000381159900000000000000000000Consumidor Final              000000000059000000000000059000000000000000000000000000000000000000000000000000000000000000000000000000000000000000000000PES00010000001N00000000000000020170410
201703310060000600000000000000741692000000000000007416929900000000000000000000Consumidor Final              000000000076000000000000076000000000000000000000000000000000000000000000000000000000000000000000000000000000000000000000PES00010000001N00000000000000020170410
201703310060000600000000000000741693000000000000007416939900000000000000000000Consumidor Final              000000000078200000000000078200000000000000000000000000000000000000000000000000000000000000000000000000000000000000000000PES00010000001N00000000000000020170410
201703310060000600000000000000741694000000000000007416949900000000000000000000Consumidor Final              000000000068000000000000068000000000000000000000000000000000000000000000000000000000000000000000000000000000000000000000PES00010000001N00000000000000020170410
201703310060000600000000000000741695000000000000007416959900000000000000000000Consumidor Final              000000000068000000000000068000000000000000000000000000000000000000000000000000000000000000000000000000000000000000000000PES00010000001N00000000000000020170410
201703310060000600000000000000741696000000000000007416969900000000000000000000Consumidor Final              000000000068000000000000068000000000000000000000000000000000000000000000000000000000000000000000000000000000000000000000PES00010000001N00000000000000020170410
201703310060000600000000000000741697000000000000007416979900000000000000000000Consumidor Final              000000000068000000000000068000000000000000000000000000000000000000000000000000000000000000000000000000000000000000000000PES00010000001N00000000000000020170410
201703310060000900000000000000038117000000000000000381179900000000000000000000Consumidor Final              000000000072000000000000072000000000000000000000000000000000000000000000000000000000000000000000000000000000000000000000PES00010000001N00000000000000020170410
201703310060000900000000000000038118000000000000000381189900000000000000000000Consumidor Final              000000000066000000000000066000000000000000000000000000000000000000000000000000000000000000000000000000000000000000000000PES00010000001N00000000000000020170410
201703310060000600000000000000741645000000000000007416459900000000000000000000Consumidor Final              000000000076000000000000076000000000000000000000000000000000000000000000000000000000000000000000000000000000000000000000PES00010000001N00000000000000020170410
201703310060000600000000000000741698000000000000007416989900000000000000000000Consumidor Final              000000000068000000000000068000000000000000000000000000000000000000000000000000000000000000000000000000000000000000000000PES00010000001N00000000000000020170410
201703310060000600000000000000741699000000000000007416999900000000000000000000Consumidor Final              000000000066000000000000066000000000000000000000000000000000000000000000000000000000000000000000000000000000000000000000PES00010000001N00000000000000020170410
201703310060000900000000000000038119000000000000000381199900000000000000000000Consumidor Final              000000000032000000000000032000000000000000000000000000000000000000000000000000000000000000000000000000000000000000000000PES00010000001N00000000000000020170410
201703310060000600000000000000741700000000000000007417009900000000000000000000Consumidor Final              000000000068000000000000068000000000000000000000000000000000000000000000000000000000000000000000000000000000000000000000PES00010000001N00000000000000020170410
201703310060000600000000000000741701000000000000007417019900000000000000000000Consumidor Final              000000000068000000000000068000000000000000000000000000000000000000000000000000000000000000000000000000000000000000000000PES00010000001N00000000000000020170410
201703310060000600000000000000741702000000000000007417029900000000000000000000Consumidor Final              000000000041000000000000041000000000000000000000000000000000000000000000000000000000000000000000000000000000000000000000PES00010000001N00000000000000020170410
201703310060000600000000000000741703000000000000007417039900000000000000000000Consumidor Final              000000000068000000000000068000000000000000000000000000000000000000000000000000000000000000000000000000000000000000000000PES00010000001N00000000000000020170410
201703310060000600000000000000741704000000000000007417049900000000000000000000Consumidor Final              000000000068000000000000068000000000000000000000000000000000000000000000000000000000000000000000000000000000000000000000PES00010000001N00000000000000020170410
201703310060000600000000000000741705000000000000007417059900000000000000000000Consumidor Final              000000000068000000000000068000000000000000000000000000000000000000000000000000000000000000000000000000000000000000000000PES00010000001N00000000000000020170410
201703310510000100000000000000000371000000000000000003718000000000030670861682SERFOR SRL                    000000000058000000000000058000000000000000000000000000000000000000000000000000000000000000000000000000000000000000000000PES00010000001N00000000000000000000000
201703310060000600000000000000741646000000000000007416469900000000000000000000Consumidor Final              000000000068000000000000068000000000000000000000000000000000000000000000000000000000000000000000000000000000000000000000PES00010000001N00000000000000020170410
201703310060000600000000000000741706000000000000007417069900000000000000000000Consumidor Final              000000000073800000000000073800000000000000000000000000000000000000000000000000000000000000000000000000000000000000000000PES00010000001N00000000000000020170410
201703310060000700000000000000523206000000000000005232069900000000000000000000Consumidor Final              000000000068000000000000068000000000000000000000000000000000000000000000000000000000000000000000000000000000000000000000PES00010000001N00000000000000020170410
201703310060000700000000000000523207000000000000005232079900000000000000000000Consumidor Final              000000000073800000000000073800000000000000000000000000000000000000000000000000000000000000000000000000000000000000000000PES00010000001N00000000000000020170410
201703310060000700000000000000523208000000000000005232089900000000000000000000Consumidor Final              000000000068000000000000068000000000000000000000000000000000000000000000000000000000000000000000000000000000000000000000PES00010000001N00000000000000020170410
201703310060000700000000000000523209000000000000005232099900000000000000000000Consumidor Final              000000000068000000000000068000000000000000000000000000000000000000000000000000000000000000000000000000000000000000000000PES00010000001N00000000000000020170410
201703310060000700000000000000523210000000000000005232109900000000000000000000Consumidor Final              000000000058000000000000058000000000000000000000000000000000000000000000000000000000000000000000000000000000000000000000PES00010000001N00000000000000020170410
201703310060000700000000000000523211000000000000005232119900000000000000000000Consumidor Final              000000000068000000000000068000000000000000000000000000000000000000000000000000000000000000000000000000000000000000000000PES00010000001N00000000000000020170410
201703310060000600000000000000741707000000000000007417079900000000000000000000Consumidor Final              000000000068000000000000068000000000000000000000000000000000000000000000000000000000000000000000000000000000000000000000PES00010000001N00000000000000020170410
201703310060000600000000000000741708000000000000007417089900000000000000000000Consumidor Final              000000000068000000000000068000000000000000000000000000000000000000000000000000000000000000000000000000000000000000000000PES00010000001N00000000000000020170410
201703310060000900000000000000038120000000000000000381209900000000000000000000Consumidor Final              000000000058000000000000058000000000000000000000000000000000000000000000000000000000000000000000000000000000000000000000PES00010000001N00000000000000020170410
201703310060000600000000000000741647000000000000007416479900000000000000000000Consumidor Final              000000000076000000000000076000000000000000000000000000000000000000000000000000000000000000000000000000000000000000000000PES00010000001N00000000000000020170410
201703310060000600000000000000741648000000000000007416489900000000000000000000Consumidor Final              000000000076000000000000076000000000000000000000000000000000000000000000000000000000000000000000000000000000000000000000PES00010000001N00000000000000020170410
201703310060000600000000000000741653000000000000007416539900000000000000000000Consumidor Final              000000000068000000000000068000000000000000000000000000000000000000000000000000000000000000000000000000000000000000000000PES00010000001N00000000000000020170410
201703310060000600000000000000741654000000000000007416549900000000000000000000Consumidor Final              000000000068000000000000068000000000000000000000000000000000000000000000000000000000000000000000000000000000000000000000PES00010000001N00000000000000020170410
201703310060000600000000000000741655000000000000007416559900000000000000000000Consumidor Final              000000000068000000000000068000000000000000000000000000000000000000000000000000000000000000000000000000000000000000000000PES00010000001N00000000000000020170410
201703310060000600000000000000741656000000000000007416569900000000000000000000Consumidor Final              000000000079000000000000079000000000000000000000000000000000000000000000000000000000000000000000000000000000000000000000PES00010000001N00000000000000020170410
201703310060000600000000000000741657000000000000007416579900000000000000000000Consumidor Final              000000000072000000000000072000000000000000000000000000000000000000000000000000000000000000000000000000000000000000000000PES00010000001N00000000000000020170410
201703310060000600000000000000741658000000000000007416589900000000000000000000Consumidor Final              000000000068000000000000068000000000000000000000000000000000000000000000000000000000000000000000000000000000000000000000PES00010000001N00000000000000020170410
201703310060000600000000000000741659000000000000007416599900000000000000000000Consumidor Final              000000000070000000000000070000000000000000000000000000000000000000000000000000000000000000000000000000000000000000000000PES00010000001N00000000000000020170410
201703310060000600000000000000741660000000000000007416609900000000000000000000Consumidor Final              000000000068000000000000068000000000000000000000000000000000000000000000000000000000000000000000000000000000000000000000PES00010000001N00000000000000020170410
201703310060000600000000000000741661000000000000007416619900000000000000000000Consumidor Final              000000000068000000000000068000000000000000000000000000000000000000000000000000000000000000000000000000000000000000000000PES00010000001N00000000000000020170410
201703310060000600000000000000741662000000000000007416629900000000000000000000Consumidor Final              000000000068000000000000068000000000000000000000000000000000000000000000000000000000000000000000000000000000000000000000PES00010000001N00000000000000020170410
201703310060000600000000000000741713000000000000007417139900000000000000000000Consumidor Final              000000000069000000000000069000000000000000000000000000000000000000000000000000000000000000000000000000000000000000000000PES00010000001N00000000000000020170410
201703310060000600000000000000741714000000000000007417149900000000000000000000Consumidor Final              000000000068000000000000068000000000000000000000000000000000000000000000000000000000000000000000000000000000000000000000PES00010000001N00000000000000020170410
201703310060000900000000000000038125000000000000000381259900000000000000000000Consumidor Final              000000000068000000000000068000000000000000000000000000000000000000000000000000000000000000000000000000000000000000000000PES00010000001N00000000000000020170410
201703310060000700000000000000523212000000000000005232129900000000000000000000Consumidor Final              000000000068000000000000068000000000000000000000000000000000000000000000000000000000000000000000000000000000000000000000PES00010000001N00000000000000020170410
201703310060000900000000000000038126000000000000000381269900000000000000000000Consumidor Final              000000000067000000000000067000000000000000000000000000000000000000000000000000000000000000000000000000000000000000000000PES00010000001N00000000000000020170410
201703310060000900000000000000038127000000000000000381279000000000099999999999Consumidor Final              000000000101000000000000101000000000000000000000000000000000000000000000000000000000000000000000000000000000000000000000PES00010000001N00000000000000020170410
201703310060000600000000000000741737000000000000007417379900000000000000000000Consumidor Final              000000000073800000000000073800000000000000000000000000000000000000000000000000000000000000000000000000000000000000000000PES00010000001N00000000000000020170410
201703310060000600000000000000741738000000000000007417389900000000000000000000Consumidor Final              000000000068000000000000068000000000000000000000000000000000000000000000000000000000000000000000000000000000000000000000PES00010000001N00000000000000020170410
201703310060000900000000000000038128000000000000000381289900000000000000000000Consumidor Final              000000000033000000000000033000000000000000000000000000000000000000000000000000000000000000000000000000000000000000000000PES00010000001N00000000000000020170410
201703310060000600000000000000741739000000000000007417399900000000000000000000Consumidor Final              000000000068000000000000068000000000000000000000000000000000000000000000000000000000000000000000000000000000000000000000PES00010000001N00000000000000020170410
201703310060000600000000000000741663000000000000007416639900000000000000000000Consumidor Final              000000000073800000000000073800000000000000000000000000000000000000000000000000000000000000000000000000000000000000000000PES00010000001N00000000000000020170410
201703310060000600000000000000741669000000000000007416699900000000000000000000Consumidor Final              000000000068000000000000068000000000000000000000000000000000000000000000000000000000000000000000000000000000000000000000PES00010000001N00000000000000020170410
201703310060000600000000000000741670000000000000007416709900000000000000000000Consumidor Final              000000000082500000000000082500000000000000000000000000000000000000000000000000000000000000000000000000000000000000000000PES00010000001N00000000000000020170410
201703310060000600000000000000741671000000000000007416719900000000000000000000Consumidor Final              000000000068000000000000068000000000000000000000000000000000000000000000000000000000000000000000000000000000000000000000PES00010000001N00000000000000020170410
201703310060000600000000000000741672000000000000007416729900000000000000000000Consumidor Final              000000000092000000000000092000000000000000000000000000000000000000000000000000000000000000000000000000000000000000000000PES00010000001N00000000000000020170410
201703310060000600000000000000741673000000000000007416739000000000099999999999Consumidor Final              000000000105000000000000105000000000000000000000000000000000000000000000000000000000000000000000000000000000000000000000PES00010000001N00000000000000020170410
201703310060000600000000000000741674000000000000007416749900000000000000000000Consumidor Final              000000000068000000000000068000000000000000000000000000000000000000000000000000000000000000000000000000000000000000000000PES00010000001N00000000000000020170410
201703310060000600000000000000741675000000000000007416759900000000000000000000Consumidor Final              000000000041000000000000041000000000000000000000000000000000000000000000000000000000000000000000000000000000000000000000PES00010000001N00000000000000020170410
201703310060000600000000000000741676000000000000007416769900000000000000000000Consumidor Final              000000000072000000000000072000000000000000000000000000000000000000000000000000000000000000000000000000000000000000000000PES00010000001N00000000000000020170410
201703310060000600000000000000741677000000000000007416779900000000000000000000Consumidor Final              000000000085000000000000085000000000000000000000000000000000000000000000000000000000000000000000000000000000000000000000PES00010000001N00000000000000020170410
201703310060000600000000000000741709000000000000007417099900000000000000000000Consumidor Final              000000000035800000000000035800000000000000000000000000000000000000000000000000000000000000000000000000000000000000000000PES00010000001N00000000000000020170410
201703310060000900000000000000038116000000000000000381169900000000000000000000Consumidor Final              000000000068000000000000068000000000000000000000000000000000000000000000000000000000000000000000000000000000000000000000PES00010000001N00000000000000020170410
201703310060000600000000000000741720000000000000007417209900000000000000000000Consumidor Final              000000000073800000000000073800000000000000000000000000000000000000000000000000000000000000000000000000000000000000000000PES00010000001N00000000000000020170410
201703310060000600000000000000741721000000000000007417219900000000000000000000Consumidor Final              000000000068000000000000068000000000000000000000000000000000000000000000000000000000000000000000000000000000000000000000PES00010000001N00000000000000020170410
201703310060000900000000000000038129000000000000000381299900000000000000000000Consumidor Final              000000000068000000000000068000000000000000000000000000000000000000000000000000000000000000000000000000000000000000000000PES00010000001N00000000000000020170410
201703310060000600000000000000741740000000000000007417409900000000000000000000Consumidor Final              000000000068000000000000068000000000000000000000000000000000000000000000000000000000000000000000000000000000000000000000PES00010000001N00000000000000020170410
201703310060000600000000000000741741000000000000007417419900000000000000000000Consumidor Final              000000000073800000000000073800000000000000000000000000000000000000000000000000000000000000000000000000000000000000000000PES00010000001N00000000000000020170410
201703310060000600000000000000741742000000000000007417429900000000000000000000Consumidor Final              000000000033000000000000033000000000000000000000000000000000000000000000000000000000000000000000000000000000000000000000PES00010000001N00000000000000020170410
201703310060000600000000000000741743000000000000007417439900000000000000000000Consumidor Final              000000000081000000000000081000000000000000000000000000000000000000000000000000000000000000000000000000000000000000000000PES00010000001N00000000000000020170410
201703310060000600000000000000741744000000000000007417449900000000000000000000Consumidor Final              000000000081000000000000081000000000000000000000000000000000000000000000000000000000000000000000000000000000000000000000PES00010000001N00000000000000020170410
201703310060000600000000000000741745000000000000007417459900000000000000000000Consumidor Final              000000000073800000000000073800000000000000000000000000000000000000000000000000000000000000000000000000000000000000000000PES00010000001N00000000000000020170410
201703310060000600000000000000741746000000000000007417469900000000000000000000Consumidor Final              000000000068000000000000068000000000000000000000000000000000000000000000000000000000000000000000000000000000000000000000PES00010000001N00000000000000020170410
201703310060000800000000000000179029000000000000001790299900000000000000000000Consumidor Final              000000000058000000000000058000000000000000000000000000000000000000000000000000000000000000000000000000000000000000000000PES00010000001N00000000000000020170410
201703310060000600000000000000741731000000000000007417319900000000000000000000Consumidor Final              000000000073800000000000073800000000000000000000000000000000000000000000000000000000000000000000000000000000000000000000PES00010000001N00000000000000020170410
201703310060000600000000000000741732000000000000007417329000000000000031617539Consumidor Final              000000000059000000000000059000000000000000000000000000000000000000000000000000000000000000000000000000000000000000000000PES00010000001N00000000000000020170410
201703310060000600000000000000741733000000000000007417339900000000000000000000Consumidor Final              000000000068000000000000068000000000000000000000000000000000000000000000000000000000000000000000000000000000000000000000PES00010000001N00000000000000020170410
201703310060000600000000000000741734000000000000007417349900000000000000000000Consumidor Final              000000000064000000000000064000000000000000000000000000000000000000000000000000000000000000000000000000000000000000000000PES00010000001N00000000000000020170410
201703310060000600000000000000741735000000000000007417359900000000000000000000Consumidor Final              000000000068000000000000068000000000000000000000000000000000000000000000000000000000000000000000000000000000000000000000PES00010000001N00000000000000020170410
201703310060000600000000000000741736000000000000007417369900000000000000000000Consumidor Final              000000000068000000000000068000000000000000000000000000000000000000000000000000000000000000000000000000000000000000000000PES00010000001N00000000000000020170410
201703310060000600000000000000741747000000000000007417479900000000000000000000Consumidor Final              000000000068000000000000068000000000000000000000000000000000000000000000000000000000000000000000000000000000000000000000PES00010000001N00000000000000020170410
201703310060000600000000000000741748000000000000007417489900000000000000000000Consumidor Final              000000000035800000000000035800000000000000000000000000000000000000000000000000000000000000000000000000000000000000000000PES00010000001N00000000000000020170410
201703310060000600000000000000741749000000000000007417499900000000000000000000Consumidor Final              000000000073800000000000073800000000000000000000000000000000000000000000000000000000000000000000000000000000000000000000PES00010000001N00000000000000020170410
201703310060000900000000000000038130000000000000000381309900000000000000000000Consumidor Final              000000000068000000000000068000000000000000000000000000000000000000000000000000000000000000000000000000000000000000000000PES00010000001N00000000000000020170410
201703310060000800000000000000179030000000000000001790309900000000000000000000Consumidor Final              000000000058000000000000058000000000000000000000000000000000000000000000000000000000000000000000000000000000000000000000PES00010000001N00000000000000020170410
201703310060000800000000000000179031000000000000001790319900000000000000000000Consumidor Final              000000000058000000000000058000000000000000000000000000000000000000000000000000000000000000000000000000000000000000000000PES00010000001N00000000000000020170410
201703310060000800000000000000179032000000000000001790329900000000000000000000Consumidor Final              000000000068000000000000068000000000000000000000000000000000000000000000000000000000000000000000000000000000000000000000PES00010000001N00000000000000020170410
201703310060000800000000000000179033000000000000001790339900000000000000000000Consumidor Final              000000000058000000000000058000000000000000000000000000000000000000000000000000000000000000000000000000000000000000000000PES00010000001N00000000000000020170410
201703310060000800000000000000179034000000000000001790349900000000000000000000Consumidor Final              000000000058000000000000058000000000000000000000000000000000000000000000000000000000000000000000000000000000000000000000PES00010000001N00000000000000020170410
201703310060000800000000000000179035000000000000001790359900000000000000000000Consumidor Final              000000000058000000000000058000000000000000000000000000000000000000000000000000000000000000000000000000000000000000000000PES00010000001N00000000000000020170410
201703310060000800000000000000179036000000000000001790369900000000000000000000Consumidor Final              000000000058000000000000058000000000000000000000000000000000000000000000000000000000000000000000000000000000000000000000PES00010000001N00000000000000020170410
201703310060000800000000000000179037000000000000001790379900000000000000000000Consumidor Final              000000000058000000000000058000000000000000000000000000000000000000000000000000000000000000000000000000000000000000000000PES00010000001N00000000000000020170410
201703310060000900000000000000038121000000000000000381219900000000000000000000Consumidor Final              000000000068000000000000068000000000000000000000000000000000000000000000000000000000000000000000000000000000000000000000PES00010000001N00000000000000020170410
201703310060000900000000000000038122000000000000000381229900000000000000000000Consumidor Final              000000000059000000000000059000000000000000000000000000000000000000000000000000000000000000000000000000000000000000000000PES00010000001N00000000000000020170410
201703310060000900000000000000038123000000000000000381239900000000000000000000Consumidor Final              000000000038000000000000038000000000000000000000000000000000000000000000000000000000000000000000000000000000000000000000PES00010000001N00000000000000020170410
201703310060000600000000000000741722000000000000007417229000000000000000172483Consumidor Final              000000000073800000000000073800000000000000000000000000000000000000000000000000000000000000000000000000000000000000000000PES00010000001N00000000000000020170410
201703310060000900000000000000038124000000000000000381249900000000000000000000Consumidor Final              000000000033000000000000033000000000000000000000000000000000000000000000000000000000000000000000000000000000000000000000PES00010000001N00000000000000020170410
201703310060000600000000000000741756000000000000007417569900000000000000000000Consumidor Final              000000000068000000000000068000000000000000000000000000000000000000000000000000000000000000000000000000000000000000000000PES00010000001N00000000000000020170410
201703310060000600000000000000741760000000000000007417609900000000000000000000Consumidor Final              000000000068000000000000068000000000000000000000000000000000000000000000000000000000000000000000000000000000000000000000PES00010000001N00000000000000020170410
201703310060000600000000000000741761000000000000007417619900000000000000000000Consumidor Final              000000000068000000000000068000000000000000000000000000000000000000000000000000000000000000000000000000000000000000000000PES00010000001N00000000000000020170410
201703310060000700000000000000523213000000000000005232139900000000000000000000Consumidor Final              000000000076000000000000076000000000000000000000000000000000000000000000000000000000000000000000000000000000000000000000PES00010000001N00000000000000020170410
201703310060000700000000000000523214000000000000005232149900000000000000000000Consumidor Final              000000000073800000000000073800000000000000000000000000000000000000000000000000000000000000000000000000000000000000000000PES00010000001N00000000000000020170410
201703310060000700000000000000523219000000000000005232199900000000000000000000Consumidor Final              000000000068000000000000068000000000000000000000000000000000000000000000000000000000000000000000000000000000000000000000PES00010000001N00000000000000020170410
201703310060000600000000000000741766000000000000007417669900000000000000000000Consumidor Final              000000000076000000000000076000000000000000000000000000000000000000000000000000000000000000000000000000000000000000000000PES00010000001N00000000000000020170410
201703310060000700000000000000523220000000000000005232209900000000000000000000Consumidor Final              000000000068000000000000068000000000000000000000000000000000000000000000000000000000000000000000000000000000000000000000PES00010000001N00000000000000020170410
