201706300060000600000000000000758229000000000000007582299900000000000000000000Consumidor Final              000000000083000000000000083000000000000000000000000000000000000000000000000000000000000000000000000000000000000000000000PES00010000001N00000000000000020170710
201706300060000700000000000000538007000000000000005380079900000000000000000000Consumidor Final              000000000068000000000000068000000000000000000000000000000000000000000000000000000000000000000000000000000000000000000000PES00010000001N00000000000000020170710
201706300060000600000000000000758230000000000000007582309900000000000000000000Consumidor Final              000000000068000000000000068000000000000000000000000000000000000000000000000000000000000000000000000000000000000000000000PES00010000001N00000000000000020170710
201706300060000700000000000000538008000000000000005380089900000000000000000000Consumidor Final              000000000074300000000000074300000000000000000000000000000000000000000000000000000000000000000000000000000000000000000000PES00010000001N00000000000000020170710
201706300060000600000000000000758231000000000000007582319900000000000000000000Consumidor Final              000000000068000000000000068000000000000000000000000000000000000000000000000000000000000000000000000000000000000000000000PES00010000001N00000000000000020170710
201706300060000700000000000000538009000000000000005380099900000000000000000000Consumidor Final              000000000068000000000000068000000000000000000000000000000000000000000000000000000000000000000000000000000000000000000000PES00010000001N00000000000000020170710
201706300060000600000000000000758232000000000000007582329900000000000000000000Consumidor Final              000000000083000000000000083000000000000000000000000000000000000000000000000000000000000000000000000000000000000000000000PES00010000001N00000000000000020170710
201706300060000600000000000000758233000000000000007582339900000000000000000000Consumidor Final              000000000083000000000000083000000000000000000000000000000000000000000000000000000000000000000000000000000000000000000000PES00010000001N00000000000000020170710
201706300060000600000000000000758234000000000000007582349900000000000000000000Consumidor Final              000000000068000000000000068000000000000000000000000000000000000000000000000000000000000000000000000000000000000000000000PES00010000001N00000000000000020170710
201706300060000600000000000000758235000000000000007582359900000000000000000000Consumidor Final              000000000074300000000000074300000000000000000000000000000000000000000000000000000000000000000000000000000000000000000000PES00010000001N00000000000000020170710
201706300060000600000000000000758236000000000000007582369900000000000000000000Consumidor Final              000000000068000000000000068000000000000000000000000000000000000000000000000000000000000000000000000000000000000000000000PES00010000001N00000000000000020170710
201706300060000600000000000000758175000000000000007581759900000000000000000000Consumidor Final              000000000068000000000000068000000000000000000000000000000000000000000000000000000000000000000000000000000000000000000000PES00010000001N00000000000000020170710
201706300060000800000000000000184421000000000000001844219900000000000000000000Consumidor Final              000000000023000000000000023000000000000000000000000000000000000000000000000000000000000000000000000000000000000000000000PES00010000001N00000000000000020170710
201706300060000800000000000000184422000000000000001844229900000000000000000000Consumidor Final              000000000058000000000000058000000000000000000000000000000000000000000000000000000000000000000000000000000000000000000000PES00010000001N00000000000000020170710
201706300060000800000000000000184423000000000000001844239900000000000000000000Consumidor Final              000000000058000000000000058000000000000000000000000000000000000000000000000000000000000000000000000000000000000000000000PES00010000001N00000000000000020170710
201706300060000800000000000000184424000000000000001844249900000000000000000000Consumidor Final              000000000058000000000000058000000000000000000000000000000000000000000000000000000000000000000000000000000000000000000000PES00010000001N00000000000000020170710
201706300060000800000000000000184425000000000000001844259900000000000000000000Consumidor Final              000000000058000000000000058000000000000000000000000000000000000000000000000000000000000000000000000000000000000000000000PES00010000001N00000000000000020170710
201706300060000600000000000000758185000000000000007581859000000000099999999999Consumidor Final              000000000100000000000000100000000000000000000000000000000000000000000000000000000000000000000000000000000000000000000000PES00010000001N00000000000000020170710
201706300060000600000000000000758186000000000000007581869900000000000000000000Consumidor Final              000000000068000000000000068000000000000000000000000000000000000000000000000000000000000000000000000000000000000000000000PES00010000001N00000000000000020170710
201706300060000600000000000000758187000000000000007581879900000000000000000000Consumidor Final              000000000068000000000000068000000000000000000000000000000000000000000000000000000000000000000000000000000000000000000000PES00010000001N00000000000000020170710
201706300060000600000000000000758188000000000000007581889900000000000000000000Consumidor Final              000000000070000000000000070000000000000000000000000000000000000000000000000000000000000000000000000000000000000000000000PES00010000001N00000000000000020170710
201706300060000600000000000000758155000000000000007581559900000000000000000000Consumidor Final              000000000068000000000000068000000000000000000000000000000000000000000000000000000000000000000000000000000000000000000000PES00010000001N00000000000000020170710
201706300060000600000000000000758161000000000000007581619900000000000000000000Consumidor Final              000000000068000000000000068000000000000000000000000000000000000000000000000000000000000000000000000000000000000000000000PES00010000001N00000000000000020170710
201706300060000600000000000000758162000000000000007581629900000000000000000000Consumidor Final              000000000068000000000000068000000000000000000000000000000000000000000000000000000000000000000000000000000000000000000000PES00010000001N00000000000000020170710
201706300060000600000000000000758163000000000000007581639900000000000000000000Consumidor Final              000000000032000000000000032000000000000000000000000000000000000000000000000000000000000000000000000000000000000000000000PES00010000001N00000000000000020170710
201706300060000600000000000000758164000000000000007581649900000000000000000000Consumidor Final              000000000074300000000000074300000000000000000000000000000000000000000000000000000000000000000000000000000000000000000000PES00010000001N00000000000000020170710
201706300060000600000000000000758165000000000000007581659900000000000000000000Consumidor Final              000000000033000000000000033000000000000000000000000000000000000000000000000000000000000000000000000000000000000000000000PES00010000001N00000000000000020170710
201706300060000600000000000000758170000000000000007581709900000000000000000000Consumidor Final              000000000068000000000000068000000000000000000000000000000000000000000000000000000000000000000000000000000000000000000000PES00010000001N00000000000000020170710
201706300060000600000000000000758171000000000000007581719900000000000000000000Consumidor Final              000000000091000000000000091000000000000000000000000000000000000000000000000000000000000000000000000000000000000000000000PES00010000001N00000000000000020170710
201706300060000600000000000000758172000000000000007581729900000000000000000000Consumidor Final              000000000068000000000000068000000000000000000000000000000000000000000000000000000000000000000000000000000000000000000000PES00010000001N00000000000000020170710
201706300060000600000000000000758173000000000000007581739900000000000000000000Consumidor Final              000000000068000000000000068000000000000000000000000000000000000000000000000000000000000000000000000000000000000000000000PES00010000001N00000000000000020170710
201706300060000600000000000000758174000000000000007581749900000000000000000000Consumidor Final              000000000064000000000000064000000000000000000000000000000000000000000000000000000000000000000000000000000000000000000000PES00010000001N00000000000000020170710
201706300060000600000000000000758156000000000000007581569900000000000000000000Consumidor Final              000000000060000000000000060000000000000000000000000000000000000000000000000000000000000000000000000000000000000000000000PES00010000001N00000000000000020170710
201706300060000600000000000000758157000000000000007581579900000000000000000000Consumidor Final              000000000074300000000000074300000000000000000000000000000000000000000000000000000000000000000000000000000000000000000000PES00010000001N00000000000000020170710
201706300060000600000000000000758158000000000000007581589900000000000000000000Consumidor Final              000000000081000000000000081000000000000000000000000000000000000000000000000000000000000000000000000000000000000000000000PES00010000001N00000000000000020170710
201706300060000600000000000000758159000000000000007581599900000000000000000000Consumidor Final              000000000068000000000000068000000000000000000000000000000000000000000000000000000000000000000000000000000000000000000000PES00010000001N00000000000000020170710
201706300060000600000000000000758160000000000000007581609900000000000000000000Consumidor Final              000000000068000000000000068000000000000000000000000000000000000000000000000000000000000000000000000000000000000000000000PES00010000001N00000000000000020170710
201706300060000600000000000000758166000000000000007581669900000000000000000000Consumidor Final              000000000074300000000000074300000000000000000000000000000000000000000000000000000000000000000000000000000000000000000000PES00010000001N00000000000000020170710
201706300060000600000000000000758167000000000000007581679900000000000000000000Consumidor Final              000000000033000000000000033000000000000000000000000000000000000000000000000000000000000000000000000000000000000000000000PES00010000001N00000000000000020170710
201706300060000600000000000000758168000000000000007581689900000000000000000000Consumidor Final              000000000068000000000000068000000000000000000000000000000000000000000000000000000000000000000000000000000000000000000000PES00010000001N00000000000000020170710
201706300060000600000000000000758169000000000000007581699900000000000000000000Consumidor Final              000000000074300000000000074300000000000000000000000000000000000000000000000000000000000000000000000000000000000000000000PES00010000001N00000000000000020170710
201706300060000800000000000000184419000000000000001844199900000000000000000000Consumidor Final              000000000058000000000000058000000000000000000000000000000000000000000000000000000000000000000000000000000000000000000000PES00010000001N00000000000000020170710
201706300060000800000000000000184420000000000000001844209900000000000000000000Consumidor Final              000000000058000000000000058000000000000000000000000000000000000000000000000000000000000000000000000000000000000000000000PES00010000001N00000000000000020170710
201706300060000800000000000000184426000000000000001844269900000000000000000000Consumidor Final              000000000058000000000000058000000000000000000000000000000000000000000000000000000000000000000000000000000000000000000000PES00010000001N00000000000000020170710
201706300060000700000000000000537962000000000000005379629900000000000000000000Consumidor Final              000000000071000000000000071000000000000000000000000000000000000000000000000000000000000000000000000000000000000000000000PES00010000001N00000000000000020170710
201706300060000700000000000000537963000000000000005379639900000000000000000000Consumidor Final              000000000068000000000000068000000000000000000000000000000000000000000000000000000000000000000000000000000000000000000000PES00010000001N00000000000000020170710
201706300060000700000000000000537964000000000000005379649900000000000000000000Consumidor Final              000000000068000000000000068000000000000000000000000000000000000000000000000000000000000000000000000000000000000000000000PES00010000001N00000000000000020170710
201706300060000600000000000000758189000000000000007581899900000000000000000000Consumidor Final              000000000068000000000000068000000000000000000000000000000000000000000000000000000000000000000000000000000000000000000000PES00010000001N00000000000000020170710
201706300060000700000000000000537970000000000000005379709900000000000000000000Consumidor Final              000000000068000000000000068000000000000000000000000000000000000000000000000000000000000000000000000000000000000000000000PES00010000001N00000000000000020170710
201706300060000700000000000000537971000000000000005379719900000000000000000000Consumidor Final              000000000068000000000000068000000000000000000000000000000000000000000000000000000000000000000000000000000000000000000000PES00010000001N00000000000000020170710
201706300060000700000000000000537972000000000000005379729900000000000000000000Consumidor Final              000000000066000000000000066000000000000000000000000000000000000000000000000000000000000000000000000000000000000000000000PES00010000001N00000000000000020170710
201706300060000700000000000000537973000000000000005379739900000000000000000000Consumidor Final              000000000068000000000000068000000000000000000000000000000000000000000000000000000000000000000000000000000000000000000000PES00010000001N00000000000000020170710
201706300060000600000000000000758193000000000000007581939900000000000000000000Consumidor Final              000000000071000000000000071000000000000000000000000000000000000000000000000000000000000000000000000000000000000000000000PES00010000001N00000000000000020170710
201706300060000700000000000000537966000000000000005379669900000000000000000000Consumidor Final              000000000068000000000000068000000000000000000000000000000000000000000000000000000000000000000000000000000000000000000000PES00010000001N00000000000000020170710
201706300060000700000000000000537977000000000000005379779900000000000000000000Consumidor Final              000000000081000000000000081000000000000000000000000000000000000000000000000000000000000000000000000000000000000000000000PES00010000001N00000000000000020170710
201706300060000700000000000000537978000000000000005379789900000000000000000000Consumidor Final              000000000066000000000000066000000000000000000000000000000000000000000000000000000000000000000000000000000000000000000000PES00010000001N00000000000000020170710
201706300060000700000000000000537979000000000000005379799000000000099999999999Consumidor Final              000000000125000000000000125000000000000000000000000000000000000000000000000000000000000000000000000000000000000000000000PES00010000001N00000000000000020170710
201706300060000700000000000000537980000000000000005379809900000000000000000000Consumidor Final              000000000068000000000000068000000000000000000000000000000000000000000000000000000000000000000000000000000000000000000000PES00010000001N00000000000000020170710
201706300060000700000000000000537981000000000000005379819900000000000000000000Consumidor Final              000000000081000000000000081000000000000000000000000000000000000000000000000000000000000000000000000000000000000000000000PES00010000001N00000000000000020170710
201706300060000600000000000000758197000000000000007581979900000000000000000000Consumidor Final              000000000068000000000000068000000000000000000000000000000000000000000000000000000000000000000000000000000000000000000000PES00010000001N00000000000000020170710
201706300060000800000000000000184427000000000000001844279900000000000000000000Consumidor Final              000000000033000000000000033000000000000000000000000000000000000000000000000000000000000000000000000000000000000000000000PES00010000001N00000000000000020170710
201706300060000700000000000000537988000000000000005379889000000000099999999999Consumidor Final              000000000129000000000000129000000000000000000000000000000000000000000000000000000000000000000000000000000000000000000000PES00010000001N00000000000000020170710
201706300060000700000000000000537989000000000000005379899900000000000000000000Consumidor Final              000000000089000000000000089000000000000000000000000000000000000000000000000000000000000000000000000000000000000000000000PES00010000001N00000000000000020170710
201706300060000700000000000000537990000000000000005379909900000000000000000000Consumidor Final              000000000032000000000000032000000000000000000000000000000000000000000000000000000000000000000000000000000000000000000000PES00010000001N00000000000000020170710
201706300060000600000000000000758194000000000000007581949900000000000000000000Consumidor Final              000000000071000000000000071000000000000000000000000000000000000000000000000000000000000000000000000000000000000000000000PES00010000001N00000000000000020170710
201706300060000600000000000000758200000000000000007582009900000000000000000000Consumidor Final              000000000068000000000000068000000000000000000000000000000000000000000000000000000000000000000000000000000000000000000000PES00010000001N00000000000000020170710
201706300060000700000000000000537983000000000000005379839900000000000000000000Consumidor Final              000000000074300000000000074300000000000000000000000000000000000000000000000000000000000000000000000000000000000000000000PES00010000001N00000000000000020170710
201706300060000600000000000000758201000000000000007582019900000000000000000000Consumidor Final              000000000081000000000000081000000000000000000000000000000000000000000000000000000000000000000000000000000000000000000000PES00010000001N00000000000000020170710
201706300060000600000000000000758202000000000000007582029900000000000000000000Consumidor Final              000000000068000000000000068000000000000000000000000000000000000000000000000000000000000000000000000000000000000000000000PES00010000001N00000000000000020170710
201706300060000700000000000000537984000000000000005379849900000000000000000000Consumidor Final              000000000068000000000000068000000000000000000000000000000000000000000000000000000000000000000000000000000000000000000000PES00010000001N00000000000000020170710
201706300060000600000000000000758203000000000000007582039900000000000000000000Consumidor Final              000000000074300000000000074300000000000000000000000000000000000000000000000000000000000000000000000000000000000000000000PES00010000001N00000000000000020170710
201706300060000600000000000000758204000000000000007582049900000000000000000000Consumidor Final              000000000047000000000000047000000000000000000000000000000000000000000000000000000000000000000000000000000000000000000000PES00010000001N00000000000000020170710
201706300060000700000000000000537985000000000000005379859900000000000000000000Consumidor Final              000000000068000000000000068000000000000000000000000000000000000000000000000000000000000000000000000000000000000000000000PES00010000001N00000000000000020170710
201706300060000700000000000000537986000000000000005379869900000000000000000000Consumidor Final              000000000074300000000000074300000000000000000000000000000000000000000000000000000000000000000000000000000000000000000000PES00010000001N00000000000000020170710
201706300060000600000000000000758205000000000000007582059900000000000000000000Consumidor Final              000000000068000000000000068000000000000000000000000000000000000000000000000000000000000000000000000000000000000000000000PES00010000001N00000000000000020170710
201706300060000600000000000000758195000000000000007581959900000000000000000000Consumidor Final              000000000068000000000000068000000000000000000000000000000000000000000000000000000000000000000000000000000000000000000000PES00010000001N00000000000000020170710
201706300060000700000000000000537987000000000000005379879000000000099999999999Consumidor Final              000000000129000000000000129000000000000000000000000000000000000000000000000000000000000000000000000000000000000000000000PES00010000001N00000000000000020170710
201706300060000600000000000000758206000000000000007582069900000000000000000000Consumidor Final              000000000081000000000000081000000000000000000000000000000000000000000000000000000000000000000000000000000000000000000000PES00010000001N00000000000000020170710
201706300060000600000000000000758207000000000000007582079900000000000000000000Consumidor Final              000000000081000000000000081000000000000000000000000000000000000000000000000000000000000000000000000000000000000000000000PES00010000001N00000000000000020170710
201706300060000600000000000000758208000000000000007582089900000000000000000000Consumidor Final              000000000078600000000000078600000000000000000000000000000000000000000000000000000000000000000000000000000000000000000000PES00010000001N00000000000000020170710
201706300060000600000000000000758209000000000000007582099900000000000000000000Consumidor Final              000000000068000000000000068000000000000000000000000000000000000000000000000000000000000000000000000000000000000000000000PES00010000001N00000000000000020170710
201706300060000600000000000000758210000000000000007582109900000000000000000000Consumidor Final              000000000068000000000000068000000000000000000000000000000000000000000000000000000000000000000000000000000000000000000000PES00010000001N00000000000000020170710
201706300510000100000000000000000706000000000000000007068000000000030714437808ZENCAST S.R.L                 000000000081000000000000081000000000000000000000000000000000000000000000000000000000000000000000000000000000000000000000PES00010000001N00000000000000000000000
201706300060000600000000000000758216000000000000007582169900000000000000000000Consumidor Final              000000000066000000000000066000000000000000000000000000000000000000000000000000000000000000000000000000000000000000000000PES00010000001N00000000000000020170710
201706300060000600000000000000758217000000000000007582179900000000000000000000Consumidor Final              000000000068000000000000068000000000000000000000000000000000000000000000000000000000000000000000000000000000000000000000PES00010000001N00000000000000020170710
201706300060000600000000000000758220000000000000007582209900000000000000000000Consumidor Final              000000000068000000000000068000000000000000000000000000000000000000000000000000000000000000000000000000000000000000000000PES00010000001N00000000000000020170710
201706300060000600000000000000758196000000000000007581969900000000000000000000Consumidor Final              000000000068000000000000068000000000000000000000000000000000000000000000000000000000000000000000000000000000000000000000PES00010000001N00000000000000020170710
201706300060000600000000000000758221000000000000007582219900000000000000000000Consumidor Final              000000000068000000000000068000000000000000000000000000000000000000000000000000000000000000000000000000000000000000000000PES00010000001N00000000000000020170710
201706300060000600000000000000758222000000000000007582229900000000000000000000Consumidor Final              000000000068000000000000068000000000000000000000000000000000000000000000000000000000000000000000000000000000000000000000PES00010000001N00000000000000020170710
201706300060000600000000000000758223000000000000007582239900000000000000000000Consumidor Final              000000000068000000000000068000000000000000000000000000000000000000000000000000000000000000000000000000000000000000000000PES00010000001N00000000000000020170710
201706300060000600000000000000758224000000000000007582249900000000000000000000Consumidor Final              000000000068000000000000068000000000000000000000000000000000000000000000000000000000000000000000000000000000000000000000PES00010000001N00000000000000020170710
201706300060000600000000000000758225000000000000007582259900000000000000000000Consumidor Final              000000000068000000000000068000000000000000000000000000000000000000000000000000000000000000000000000000000000000000000000PES00010000001N00000000000000020170710
201706300060000600000000000000758226000000000000007582269900000000000000000000Consumidor Final              000000000064000000000000064000000000000000000000000000000000000000000000000000000000000000000000000000000000000000000000PES00010000001N00000000000000020170710
201706300060000600000000000000758227000000000000007582279900000000000000000000Consumidor Final              000000000068000000000000068000000000000000000000000000000000000000000000000000000000000000000000000000000000000000000000PES00010000001N00000000000000020170710
201706300060000600000000000000758228000000000000007582289900000000000000000000Consumidor Final              000000000068000000000000068000000000000000000000000000000000000000000000000000000000000000000000000000000000000000000000PES00010000001N00000000000000020170710
201706300060000700000000000000538010000000000000005380109900000000000000000000Consumidor Final              000000000068000000000000068000000000000000000000000000000000000000000000000000000000000000000000000000000000000000000000PES00010000001N00000000000000020170710
201706300060000700000000000000538011000000000000005380119900000000000000000000Consumidor Final              000000000068000000000000068000000000000000000000000000000000000000000000000000000000000000000000000000000000000000000000PES00010000001N00000000000000020170710
201706300060000700000000000000537991000000000000005379919900000000000000000000Consumidor Final              000000000068000000000000068000000000000000000000000000000000000000000000000000000000000000000000000000000000000000000000PES00010000001N00000000000000020170710
201706300060000600000000000000758211000000000000007582119900000000000000000000Consumidor Final              000000000068000000000000068000000000000000000000000000000000000000000000000000000000000000000000000000000000000000000000PES00010000001N00000000000000020170710
201706300060000700000000000000537992000000000000005379929900000000000000000000Consumidor Final              000000000068000000000000068000000000000000000000000000000000000000000000000000000000000000000000000000000000000000000000PES00010000001N00000000000000020170710
201706300060000600000000000000758212000000000000007582129900000000000000000000Consumidor Final              000000000088500000000000088500000000000000000000000000000000000000000000000000000000000000000000000000000000000000000000PES00010000001N00000000000000020170710
201706300060000700000000000000537993000000000000005379939900000000000000000000Consumidor Final              000000000068000000000000068000000000000000000000000000000000000000000000000000000000000000000000000000000000000000000000PES00010000001N00000000000000020170710
201706300510000100000000000000000705000000000000000007059900000000000000000000Consumidor Final              000000000088500000000000088500000000000000000000000000000000000000000000000000000000000000000000000000000000000000000000PES00010000001N00000000000000000000000
201706300060000600000000000000758213000000000000007582139900000000000000000000Consumidor Final              000000000068000000000000068000000000000000000000000000000000000000000000000000000000000000000000000000000000000000000000PES00010000001N00000000000000020170710
201706300060000700000000000000537994000000000000005379949900000000000000000000Consumidor Final              000000000074300000000000074300000000000000000000000000000000000000000000000000000000000000000000000000000000000000000000PES00010000001N00000000000000020170710
201706300060000600000000000000758214000000000000007582149900000000000000000000Consumidor Final              000000000072000000000000072000000000000000000000000000000000000000000000000000000000000000000000000000000000000000000000PES00010000001N00000000000000020170710
201706300060000600000000000000758215000000000000007582159900000000000000000000Consumidor Final              000000000072000000000000072000000000000000000000000000000000000000000000000000000000000000000000000000000000000000000000PES00010000001N00000000000000020170710
201706300060000700000000000000537995000000000000005379959900000000000000000000Consumidor Final              000000000066000000000000066000000000000000000000000000000000000000000000000000000000000000000000000000000000000000000000PES00010000001N00000000000000020170710
201706300060000700000000000000537996000000000000005379969900000000000000000000Consumidor Final              000000000080000000000000080000000000000000000000000000000000000000000000000000000000000000000000000000000000000000000000PES00010000001N00000000000000020170710
201706300060000800000000000000184428000000000000001844289900000000000000000000Consumidor Final              000000000058000000000000058000000000000000000000000000000000000000000000000000000000000000000000000000000000000000000000PES00010000001N00000000000000020170710
201706300060000700000000000000538012000000000000005380129900000000000000000000Consumidor Final              000000000068000000000000068000000000000000000000000000000000000000000000000000000000000000000000000000000000000000000000PES00010000001N00000000000000020170710
201706300060000700000000000000538013000000000000005380139900000000000000000000Consumidor Final              000000000069900000000000069900000000000000000000000000000000000000000000000000000000000000000000000000000000000000000000PES00010000001N00000000000000020170710
201706300060000700000000000000538014000000000000005380149900000000000000000000Consumidor Final              000000000068000000000000068000000000000000000000000000000000000000000000000000000000000000000000000000000000000000000000PES00010000001N00000000000000020170710
201706300060000800000000000000184429000000000000001844299900000000000000000000Consumidor Final              000000000058000000000000058000000000000000000000000000000000000000000000000000000000000000000000000000000000000000000000PES00010000001N00000000000000020170710
201706300060000600000000000000758244000000000000007582449900000000000000000000Consumidor Final              000000000074300000000000074300000000000000000000000000000000000000000000000000000000000000000000000000000000000000000000PES00010000001N00000000000000020170710
201706300060000600000000000000758245000000000000007582459900000000000000000000Consumidor Final              000000000068000000000000068000000000000000000000000000000000000000000000000000000000000000000000000000000000000000000000PES00010000001N00000000000000020170710
201706300060000600000000000000758246000000000000007582469900000000000000000000Consumidor Final              000000000072000000000000072000000000000000000000000000000000000000000000000000000000000000000000000000000000000000000000PES00010000001N00000000000000020170710
201706300060000600000000000000758247000000000000007582479900000000000000000000Consumidor Final              000000000074300000000000074300000000000000000000000000000000000000000000000000000000000000000000000000000000000000000000PES00010000001N00000000000000020170710
201706300060000600000000000000758257000000000000007582579900000000000000000000Consumidor Final              000000000068000000000000068000000000000000000000000000000000000000000000000000000000000000000000000000000000000000000000PES00010000001N00000000000000020170710
201706300060000600000000000000758218000000000000007582189900000000000000000000Consumidor Final              000000000068000000000000068000000000000000000000000000000000000000000000000000000000000000000000000000000000000000000000PES00010000001N00000000000000020170710
201706300060000700000000000000537997000000000000005379979900000000000000000000Consumidor Final              000000000076000000000000076000000000000000000000000000000000000000000000000000000000000000000000000000000000000000000000PES00010000001N00000000000000020170710
201706300060000600000000000000758219000000000000007582199900000000000000000000Consumidor Final              000000000081000000000000081000000000000000000000000000000000000000000000000000000000000000000000000000000000000000000000PES00010000001N00000000000000020170710
201706300060000700000000000000537998000000000000005379989900000000000000000000Consumidor Final              000000000083000000000000083000000000000000000000000000000000000000000000000000000000000000000000000000000000000000000000PES00010000001N00000000000000020170710
201706300060000700000000000000537999000000000000005379999900000000000000000000Consumidor Final              000000000068000000000000068000000000000000000000000000000000000000000000000000000000000000000000000000000000000000000000PES00010000001N00000000000000020170710
201706300060000700000000000000538000000000000000005380009900000000000000000000Consumidor Final              000000000068000000000000068000000000000000000000000000000000000000000000000000000000000000000000000000000000000000000000PES00010000001N00000000000000020170710
201706300060000700000000000000538001000000000000005380019900000000000000000000Consumidor Final              000000000068000000000000068000000000000000000000000000000000000000000000000000000000000000000000000000000000000000000000PES00010000001N00000000000000020170710
201706300060000700000000000000538002000000000000005380029900000000000000000000Consumidor Final              000000000068000000000000068000000000000000000000000000000000000000000000000000000000000000000000000000000000000000000000PES00010000001N00000000000000020170710
201706300060000700000000000000538003000000000000005380039900000000000000000000Consumidor Final              000000000066000000000000066000000000000000000000000000000000000000000000000000000000000000000000000000000000000000000000PES00010000001N00000000000000020170710
201706300060000700000000000000538004000000000000005380049900000000000000000000Consumidor Final              000000000089000000000000089000000000000000000000000000000000000000000000000000000000000000000000000000000000000000000000PES00010000001N00000000000000020170710
201706300060000700000000000000538005000000000000005380059900000000000000000000Consumidor Final              000000000068000000000000068000000000000000000000000000000000000000000000000000000000000000000000000000000000000000000000PES00010000001N00000000000000020170710
201706300060000700000000000000538006000000000000005380069900000000000000000000Consumidor Final              000000000068000000000000068000000000000000000000000000000000000000000000000000000000000000000000000000000000000000000000PES00010000001N00000000000000020170710
201706300060000700000000000000538033000000000000005380339900000000000000000000Consumidor Final              000000000068000000000000068000000000000000000000000000000000000000000000000000000000000000000000000000000000000000000000PES00010000001N00000000000000020170710
201706300060000700000000000000538034000000000000005380349900000000000000000000Consumidor Final              000000000068000000000000068000000000000000000000000000000000000000000000000000000000000000000000000000000000000000000000PES00010000001N00000000000000020170710
201706300060000700000000000000538035000000000000005380359900000000000000000000Consumidor Final              000000000068000000000000068000000000000000000000000000000000000000000000000000000000000000000000000000000000000000000000PES00010000001N00000000000000020170710
201706300060000600000000000000758261000000000000007582619900000000000000000000Consumidor Final              000000000078600000000000078600000000000000000000000000000000000000000000000000000000000000000000000000000000000000000000PES00010000001N00000000000000020170710
201706300510000100000000000000000707000000000000000007078000000000030712116230GLOBAL TECNOS S.A             000000000074300000000000074300000000000000000000000000000000000000000000000000000000000000000000000000000000000000000000PES00010000001N00000000000000000000000
201706300510000100000000000000000708000000000000000007088000000000030712131035SIMPLEZA S.A                  000000000074300000000000074300000000000000000000000000000000000000000000000000000000000000000000000000000000000000000000PES00010000001N00000000000000000000000
201706300510000100000000000000000709000000000000000007098000000000027228091885ARDIGO MARIA LAURA            000000000076000000000000076000000000000000000000000000000000000000000000000000000000000000000000000000000000000000000000PES00010000001N00000000000000000000000
201706300060000700000000000000538044000000000000005380449900000000000000000000Consumidor Final              000000000068000000000000068000000000000000000000000000000000000000000000000000000000000000000000000000000000000000000000PES00010000001N00000000000000020170710
201706300060000700000000000000538045000000000000005380459900000000000000000000Consumidor Final              000000000060000000000000060000000000000000000000000000000000000000000000000000000000000000000000000000000000000000000000PES00010000001N00000000000000020170710
201706300060000700000000000000538046000000000000005380469900000000000000000000Consumidor Final              000000000074300000000000074300000000000000000000000000000000000000000000000000000000000000000000000000000000000000000000PES00010000001N00000000000000020170710
201706300060000600000000000000758237000000000000007582379000000000099999999999Consumidor Final              000000000100000000000000100000000000000000000000000000000000000000000000000000000000000000000000000000000000000000000000PES00010000001N00000000000000020170710
201706300060000700000000000000538047000000000000005380479900000000000000000000Consumidor Final              000000000068000000000000068000000000000000000000000000000000000000000000000000000000000000000000000000000000000000000000PES00010000001N00000000000000020170710
201706300060000700000000000000538048000000000000005380489900000000000000000000Consumidor Final              000000000068000000000000068000000000000000000000000000000000000000000000000000000000000000000000000000000000000000000000PES00010000001N00000000000000020170710
201706300060000700000000000000538049000000000000005380499900000000000000000000Consumidor Final              000000000068000000000000068000000000000000000000000000000000000000000000000000000000000000000000000000000000000000000000PES00010000001N00000000000000020170710
201706300060000700000000000000538050000000000000005380509900000000000000000000Consumidor Final              000000000068000000000000068000000000000000000000000000000000000000000000000000000000000000000000000000000000000000000000PES00010000001N00000000000000020170710
201706300060000700000000000000538051000000000000005380519900000000000000000000Consumidor Final              000000000068000000000000068000000000000000000000000000000000000000000000000000000000000000000000000000000000000000000000PES00010000001N00000000000000020170710
201706300060000600000000000000758263000000000000007582639900000000000000000000Consumidor Final              000000000074300000000000074300000000000000000000000000000000000000000000000000000000000000000000000000000000000000000000PES00010000001N00000000000000020170710
201706300060000800000000000000184437000000000000001844379000000000099999999999Consumidor Final              000000000156000000000000156000000000000000000000000000000000000000000000000000000000000000000000000000000000000000000000PES00010000001N00000000000000020170710
201706300060000600000000000000758264000000000000007582649900000000000000000000Consumidor Final              000000000078600000000000078600000000000000000000000000000000000000000000000000000000000000000000000000000000000000000000PES00010000001N00000000000000020170710
201706300060000800000000000000184438000000000000001844389900000000000000000000Consumidor Final              000000000060000000000000060000000000000000000000000000000000000000000000000000000000000000000000000000000000000000000000PES00010000001N00000000000000020170710
201706300060000600000000000000758265000000000000007582659900000000000000000000Consumidor Final              000000000068000000000000068000000000000000000000000000000000000000000000000000000000000000000000000000000000000000000000PES00010000001N00000000000000020170710
201706300060000600000000000000758238000000000000007582389900000000000000000000Consumidor Final              000000000068000000000000068000000000000000000000000000000000000000000000000000000000000000000000000000000000000000000000PES00010000001N00000000000000020170710
201706300060000700000000000000538015000000000000005380159900000000000000000000Consumidor Final              000000000074300000000000074300000000000000000000000000000000000000000000000000000000000000000000000000000000000000000000PES00010000001N00000000000000020170710
201706300060000700000000000000538016000000000000005380169900000000000000000000Consumidor Final              000000000068000000000000068000000000000000000000000000000000000000000000000000000000000000000000000000000000000000000000PES00010000001N00000000000000020170710
201706300060000700000000000000538017000000000000005380179900000000000000000000Consumidor Final              000000000068000000000000068000000000000000000000000000000000000000000000000000000000000000000000000000000000000000000000PES00010000001N00000000000000020170710
201706300060000700000000000000538018000000000000005380189900000000000000000000Consumidor Final              000000000067000000000000067000000000000000000000000000000000000000000000000000000000000000000000000000000000000000000000PES00010000001N00000000000000020170710
201706300060000600000000000000758248000000000000007582489900000000000000000000Consumidor Final              000000000068000000000000068000000000000000000000000000000000000000000000000000000000000000000000000000000000000000000000PES00010000001N00000000000000020170710
201706300060000600000000000000758249000000000000007582499900000000000000000000Consumidor Final              000000000068000000000000068000000000000000000000000000000000000000000000000000000000000000000000000000000000000000000000PES00010000001N00000000000000020170710
201706300060000600000000000000758250000000000000007582509900000000000000000000Consumidor Final              000000000074300000000000074300000000000000000000000000000000000000000000000000000000000000000000000000000000000000000000PES00010000001N00000000000000020170710
201706300060000600000000000000758266000000000000007582669900000000000000000000Consumidor Final              000000000068000000000000068000000000000000000000000000000000000000000000000000000000000000000000000000000000000000000000PES00010000001N00000000000000020170710
201706300060000600000000000000758267000000000000007582679900000000000000000000Consumidor Final              000000000068000000000000068000000000000000000000000000000000000000000000000000000000000000000000000000000000000000000000PES00010000001N00000000000000020170710
201706300060000600000000000000758239000000000000007582399900000000000000000000Consumidor Final              000000000068000000000000068000000000000000000000000000000000000000000000000000000000000000000000000000000000000000000000PES00010000001N00000000000000020170710
201706300060000700000000000000538058000000000000005380589900000000000000000000Consumidor Final              000000000078600000000000078600000000000000000000000000000000000000000000000000000000000000000000000000000000000000000000PES00010000001N00000000000000020170710
201706300060000700000000000000538059000000000000005380599900000000000000000000Consumidor Final              000000000068000000000000068000000000000000000000000000000000000000000000000000000000000000000000000000000000000000000000PES00010000001N00000000000000020170710
201706300060000700000000000000538060000000000000005380609900000000000000000000Consumidor Final              000000000068000000000000068000000000000000000000000000000000000000000000000000000000000000000000000000000000000000000000PES00010000001N00000000000000020170710
201706300060000700000000000000538061000000000000005380619900000000000000000000Consumidor Final              000000000068000000000000068000000000000000000000000000000000000000000000000000000000000000000000000000000000000000000000PES00010000001N00000000000000020170710
201706300060000700000000000000538062000000000000005380629900000000000000000000Consumidor Final              000000000068000000000000068000000000000000000000000000000000000000000000000000000000000000000000000000000000000000000000PES00010000001N00000000000000020170710
201706300060000700000000000000538066000000000000005380669900000000000000000000Consumidor Final              000000000068000000000000068000000000000000000000000000000000000000000000000000000000000000000000000000000000000000000000PES00010000001N00000000000000020170710
201706300060000700000000000000538067000000000000005380679900000000000000000000Consumidor Final              000000000068000000000000068000000000000000000000000000000000000000000000000000000000000000000000000000000000000000000000PES00010000001N00000000000000020170710
201706300060000700000000000000538068000000000000005380689900000000000000000000Consumidor Final              000000000068000000000000068000000000000000000000000000000000000000000000000000000000000000000000000000000000000000000000PES00010000001N00000000000000020170710
201706300060000700000000000000538082000000000000005380829900000000000000000000Consumidor Final              000000000068000000000000068000000000000000000000000000000000000000000000000000000000000000000000000000000000000000000000PES00010000001N00000000000000020170710
201706300060000900000000000000039065000000000000000390659900000000000000000000Consumidor Final              000000000068000000000000068000000000000000000000000000000000000000000000000000000000000000000000000000000000000000000000PES00010000001N00000000000000020170710
201706300060000600000000000000758240000000000000007582409900000000000000000000Consumidor Final              000000000081000000000000081000000000000000000000000000000000000000000000000000000000000000000000000000000000000000000000PES00010000001N00000000000000020170710
201706300060000700000000000000538052000000000000005380529900000000000000000000Consumidor Final              000000000068000000000000068000000000000000000000000000000000000000000000000000000000000000000000000000000000000000000000PES00010000001N00000000000000020170710
201706300060000700000000000000538053000000000000005380539900000000000000000000Consumidor Final              000000000074300000000000074300000000000000000000000000000000000000000000000000000000000000000000000000000000000000000000PES00010000001N00000000000000020170710
201706300060000700000000000000538054000000000000005380549900000000000000000000Consumidor Final              000000000071000000000000071000000000000000000000000000000000000000000000000000000000000000000000000000000000000000000000PES00010000001N00000000000000020170710
201706300060000700000000000000538055000000000000005380559900000000000000000000Consumidor Final              000000000078600000000000078600000000000000000000000000000000000000000000000000000000000000000000000000000000000000000000PES00010000001N00000000000000020170710
201706300060000700000000000000538056000000000000005380569900000000000000000000Consumidor Final              000000000078600000000000078600000000000000000000000000000000000000000000000000000000000000000000000000000000000000000000PES00010000001N00000000000000020170710
201706300060000900000000000000039066000000000000000390669900000000000000000000Consumidor Final              000000000068000000000000068000000000000000000000000000000000000000000000000000000000000000000000000000000000000000000000PES00010000001N00000000000000020170710
201706300060000700000000000000538104000000000000005381049900000000000000000000Consumidor Final              000000000068000000000000068000000000000000000000000000000000000000000000000000000000000000000000000000000000000000000000PES00010000001N00000000000000020170710
201706300060000700000000000000538105000000000000005381059900000000000000000000Consumidor Final              000000000068000000000000068000000000000000000000000000000000000000000000000000000000000000000000000000000000000000000000PES00010000001N00000000000000020170710
201706300060000900000000000000039067000000000000000390679900000000000000000000Consumidor Final              000000000081000000000000081000000000000000000000000000000000000000000000000000000000000000000000000000000000000000000000PES00010000001N00000000000000020170710
201706300060000900000000000000039068000000000000000390689900000000000000000000Consumidor Final              000000000066000000000000066000000000000000000000000000000000000000000000000000000000000000000000000000000000000000000000PES00010000001N00000000000000020170710
201706300060000600000000000000758241000000000000007582419900000000000000000000Consumidor Final              000000000078600000000000078600000000000000000000000000000000000000000000000000000000000000000000000000000000000000000000PES00010000001N00000000000000020170710
201706300060000600000000000000758242000000000000007582429900000000000000000000Consumidor Final              000000000074300000000000074300000000000000000000000000000000000000000000000000000000000000000000000000000000000000000000PES00010000001N00000000000000020170710
201706300060000600000000000000758243000000000000007582439900000000000000000000Consumidor Final              000000000068000000000000068000000000000000000000000000000000000000000000000000000000000000000000000000000000000000000000PES00010000001N00000000000000020170710
201706300060000700000000000000538019000000000000005380199900000000000000000000Consumidor Final              000000000068000000000000068000000000000000000000000000000000000000000000000000000000000000000000000000000000000000000000PES00010000001N00000000000000020170710
201706300060000700000000000000538020000000000000005380209900000000000000000000Consumidor Final              000000000070000000000000070000000000000000000000000000000000000000000000000000000000000000000000000000000000000000000000PES00010000001N00000000000000020170710
201706300060000700000000000000538021000000000000005380219900000000000000000000Consumidor Final              000000000068000000000000068000000000000000000000000000000000000000000000000000000000000000000000000000000000000000000000PES00010000001N00000000000000020170710
201706300060000700000000000000538022000000000000005380229900000000000000000000Consumidor Final              000000000068000000000000068000000000000000000000000000000000000000000000000000000000000000000000000000000000000000000000PES00010000001N00000000000000020170710
201706300060000700000000000000538023000000000000005380239900000000000000000000Consumidor Final              000000000068000000000000068000000000000000000000000000000000000000000000000000000000000000000000000000000000000000000000PES00010000001N00000000000000020170710
201706300060000700000000000000538024000000000000005380249900000000000000000000Consumidor Final              000000000060000000000000060000000000000000000000000000000000000000000000000000000000000000000000000000000000000000000000PES00010000001N00000000000000020170710
201706300060000700000000000000538025000000000000005380259900000000000000000000Consumidor Final              000000000068000000000000068000000000000000000000000000000000000000000000000000000000000000000000000000000000000000000000PES00010000001N00000000000000020170710
201706300060000700000000000000538026000000000000005380269900000000000000000000Consumidor Final              000000000068000000000000068000000000000000000000000000000000000000000000000000000000000000000000000000000000000000000000PES00010000001N00000000000000020170710
201706300060000600000000000000758251000000000000007582519900000000000000000000Consumidor Final              000000000068000000000000068000000000000000000000000000000000000000000000000000000000000000000000000000000000000000000000PES00010000001N00000000000000020170710
201706300060000700000000000000538027000000000000005380279900000000000000000000Consumidor Final              000000000068000000000000068000000000000000000000000000000000000000000000000000000000000000000000000000000000000000000000PES00010000001N00000000000000020170710
201706300060000700000000000000538028000000000000005380289900000000000000000000Consumidor Final              000000000081000000000000081000000000000000000000000000000000000000000000000000000000000000000000000000000000000000000000PES00010000001N00000000000000020170710
201706300060000600000000000000758252000000000000007582529900000000000000000000Consumidor Final              000000000074300000000000074300000000000000000000000000000000000000000000000000000000000000000000000000000000000000000000PES00010000001N00000000000000020170710
201706300060000700000000000000538029000000000000005380299900000000000000000000Consumidor Final              000000000074300000000000074300000000000000000000000000000000000000000000000000000000000000000000000000000000000000000000PES00010000001N00000000000000020170710
201706300060000600000000000000758253000000000000007582539900000000000000000000Consumidor Final              000000000068000000000000068000000000000000000000000000000000000000000000000000000000000000000000000000000000000000000000PES00010000001N00000000000000020170710
201706300060000600000000000000758254000000000000007582549900000000000000000000Consumidor Final              000000000068000000000000068000000000000000000000000000000000000000000000000000000000000000000000000000000000000000000000PES00010000001N00000000000000020170710
201706300060000700000000000000538030000000000000005380309900000000000000000000Consumidor Final              000000000074300000000000074300000000000000000000000000000000000000000000000000000000000000000000000000000000000000000000PES00010000001N00000000000000020170710
201706300060000600000000000000758255000000000000007582559900000000000000000000Consumidor Final              000000000068000000000000068000000000000000000000000000000000000000000000000000000000000000000000000000000000000000000000PES00010000001N00000000000000020170710
201706300060000700000000000000538031000000000000005380319900000000000000000000Consumidor Final              000000000088500000000000088500000000000000000000000000000000000000000000000000000000000000000000000000000000000000000000PES00010000001N00000000000000020170710
201706300060000600000000000000758256000000000000007582569900000000000000000000Consumidor Final              000000000068000000000000068000000000000000000000000000000000000000000000000000000000000000000000000000000000000000000000PES00010000001N00000000000000020170710
201706300060000700000000000000538032000000000000005380329900000000000000000000Consumidor Final              000000000068000000000000068000000000000000000000000000000000000000000000000000000000000000000000000000000000000000000000PES00010000001N00000000000000020170710
201706300060000700000000000000538036000000000000005380369900000000000000000000Consumidor Final              000000000081000000000000081000000000000000000000000000000000000000000000000000000000000000000000000000000000000000000000PES00010000001N00000000000000020170710
201706300060000700000000000000538037000000000000005380379900000000000000000000Consumidor Final              000000000068000000000000068000000000000000000000000000000000000000000000000000000000000000000000000000000000000000000000PES00010000001N00000000000000020170710
201706300060000600000000000000758260000000000000007582609900000000000000000000Consumidor Final              000000000034900000000000034900000000000000000000000000000000000000000000000000000000000000000000000000000000000000000000PES00010000001N00000000000000020170710
201706300060000700000000000000538038000000000000005380389900000000000000000000Consumidor Final              000000000097000000000000097000000000000000000000000000000000000000000000000000000000000000000000000000000000000000000000PES00010000001N00000000000000020170710
201706300060000700000000000000538039000000000000005380399900000000000000000000Consumidor Final              000000000068000000000000068000000000000000000000000000000000000000000000000000000000000000000000000000000000000000000000PES00010000001N00000000000000020170710
201706300060000700000000000000538040000000000000005380409900000000000000000000Consumidor Final              000000000081000000000000081000000000000000000000000000000000000000000000000000000000000000000000000000000000000000000000PES00010000001N00000000000000020170710
201706300060000700000000000000538041000000000000005380419900000000000000000000Consumidor Final              000000000068000000000000068000000000000000000000000000000000000000000000000000000000000000000000000000000000000000000000PES00010000001N00000000000000020170710
201706300060000700000000000000538042000000000000005380429900000000000000000000Consumidor Final              000000000074300000000000074300000000000000000000000000000000000000000000000000000000000000000000000000000000000000000000PES00010000001N00000000000000020170710
201706300060000600000000000000758262000000000000007582629900000000000000000000Consumidor Final              000000000074300000000000074300000000000000000000000000000000000000000000000000000000000000000000000000000000000000000000PES00010000001N00000000000000020170710
201706300060000600000000000000758258000000000000007582589900000000000000000000Consumidor Final              000000000068000000000000068000000000000000000000000000000000000000000000000000000000000000000000000000000000000000000000PES00010000001N00000000000000020170710
201706300060000600000000000000758259000000000000007582599900000000000000000000Consumidor Final              000000000070000000000000070000000000000000000000000000000000000000000000000000000000000000000000000000000000000000000000PES00010000001N00000000000000020170710
201706300060000800000000000000184430000000000000001844309900000000000000000000Consumidor Final              000000000058000000000000058000000000000000000000000000000000000000000000000000000000000000000000000000000000000000000000PES00010000001N00000000000000020170710
201706300060000800000000000000184431000000000000001844319900000000000000000000Consumidor Final              000000000058000000000000058000000000000000000000000000000000000000000000000000000000000000000000000000000000000000000000PES00010000001N00000000000000020170710
201706300060000700000000000000538043000000000000005380439900000000000000000000Consumidor Final              000000000068000000000000068000000000000000000000000000000000000000000000000000000000000000000000000000000000000000000000PES00010000001N00000000000000020170710
201706300060000800000000000000184432000000000000001844329900000000000000000000Consumidor Final              000000000058000000000000058000000000000000000000000000000000000000000000000000000000000000000000000000000000000000000000PES00010000001N00000000000000020170710
201706300060000800000000000000184433000000000000001844339900000000000000000000Consumidor Final              000000000058000000000000058000000000000000000000000000000000000000000000000000000000000000000000000000000000000000000000PES00010000001N00000000000000020170710
201706300060000800000000000000184434000000000000001844349900000000000000000000Consumidor Final              000000000058000000000000058000000000000000000000000000000000000000000000000000000000000000000000000000000000000000000000PES00010000001N00000000000000020170710
201706300060000800000000000000184435000000000000001844359900000000000000000000Consumidor Final              000000000058000000000000058000000000000000000000000000000000000000000000000000000000000000000000000000000000000000000000PES00010000001N00000000000000020170710
201706300060000800000000000000184436000000000000001844369900000000000000000000Consumidor Final              000000000058000000000000058000000000000000000000000000000000000000000000000000000000000000000000000000000000000000000000PES00010000001N00000000000000020170710
201706300060000700000000000000538069000000000000005380699900000000000000000000Consumidor Final              000000000080000000000000080000000000000000000000000000000000000000000000000000000000000000000000000000000000000000000000PES00010000001N00000000000000020170710
201706300060000700000000000000538070000000000000005380709900000000000000000000Consumidor Final              000000000068000000000000068000000000000000000000000000000000000000000000000000000000000000000000000000000000000000000000PES00010000001N00000000000000020170710
201706300060000800000000000000184448000000000000001844489900000000000000000000Consumidor Final              000000000058000000000000058000000000000000000000000000000000000000000000000000000000000000000000000000000000000000000000PES00010000001N00000000000000020170710
201706300060000800000000000000184449000000000000001844499900000000000000000000Consumidor Final              000000000058000000000000058000000000000000000000000000000000000000000000000000000000000000000000000000000000000000000000PES00010000001N00000000000000020170710
201706300060000800000000000000184450000000000000001844509900000000000000000000Consumidor Final              000000000058000000000000058000000000000000000000000000000000000000000000000000000000000000000000000000000000000000000000PES00010000001N00000000000000020170710
201706300060000800000000000000184451000000000000001844519900000000000000000000Consumidor Final              000000000058000000000000058000000000000000000000000000000000000000000000000000000000000000000000000000000000000000000000PES00010000001N00000000000000020170710
201706300060000700000000000000538074000000000000005380749900000000000000000000Consumidor Final              000000000068000000000000068000000000000000000000000000000000000000000000000000000000000000000000000000000000000000000000PES00010000001N00000000000000020170710
201706300060000700000000000000538075000000000000005380759900000000000000000000Consumidor Final              000000000068000000000000068000000000000000000000000000000000000000000000000000000000000000000000000000000000000000000000PES00010000001N00000000000000020170710
201706300060000700000000000000538076000000000000005380769900000000000000000000Consumidor Final              000000000068000000000000068000000000000000000000000000000000000000000000000000000000000000000000000000000000000000000000PES00010000001N00000000000000020170710
201706300060000700000000000000538080000000000000005380809900000000000000000000Consumidor Final              000000000068000000000000068000000000000000000000000000000000000000000000000000000000000000000000000000000000000000000000PES00010000001N00000000000000020170710
201706300060000700000000000000538081000000000000005380819900000000000000000000Consumidor Final              000000000074300000000000074300000000000000000000000000000000000000000000000000000000000000000000000000000000000000000000PES00010000001N00000000000000020170710
201706300060000700000000000000538171000000000000005381719900000000000000000000Consumidor Final              000000000078600000000000078600000000000000000000000000000000000000000000000000000000000000000000000000000000000000000000PES00010000001N00000000000000020170710
201706300060000700000000000000538172000000000000005381729900000000000000000000Consumidor Final              000000000068000000000000068000000000000000000000000000000000000000000000000000000000000000000000000000000000000000000000PES00010000001N00000000000000020170710
201706300060000700000000000000538173000000000000005381739900000000000000000000Consumidor Final              000000000068000000000000068000000000000000000000000000000000000000000000000000000000000000000000000000000000000000000000PES00010000001N00000000000000020170710
201706300060000700000000000000538174000000000000005381749900000000000000000000Consumidor Final              000000000068000000000000068000000000000000000000000000000000000000000000000000000000000000000000000000000000000000000000PES00010000001N00000000000000020170710
201706300060000700000000000000538176000000000000005381769900000000000000000000Consumidor Final              000000000074300000000000074300000000000000000000000000000000000000000000000000000000000000000000000000000000000000000000PES00010000001N00000000000000020170710
201706300060000700000000000000538177000000000000005381779900000000000000000000Consumidor Final              000000000068000000000000068000000000000000000000000000000000000000000000000000000000000000000000000000000000000000000000PES00010000001N00000000000000020170710
201706300060000700000000000000538178000000000000005381789900000000000000000000Consumidor Final              000000000081000000000000081000000000000000000000000000000000000000000000000000000000000000000000000000000000000000000000PES00010000001N00000000000000020170710
201706300060000700000000000000538179000000000000005381799900000000000000000000Consumidor Final              000000000068000000000000068000000000000000000000000000000000000000000000000000000000000000000000000000000000000000000000PES00010000001N00000000000000020170710
201706300060000700000000000000538180000000000000005381809900000000000000000000Consumidor Final              000000000070000000000000070000000000000000000000000000000000000000000000000000000000000000000000000000000000000000000000PES00010000001N00000000000000020170710
201706300060000700000000000000538181000000000000005381819900000000000000000000Consumidor Final              000000000068000000000000068000000000000000000000000000000000000000000000000000000000000000000000000000000000000000000000PES00010000001N00000000000000020170710
201706300060000700000000000000538182000000000000005381829900000000000000000000Consumidor Final              000000000068000000000000068000000000000000000000000000000000000000000000000000000000000000000000000000000000000000000000PES00010000001N00000000000000020170710
201706300060000700000000000000538114000000000000005381149900000000000000000000Consumidor Final              000000000068000000000000068000000000000000000000000000000000000000000000000000000000000000000000000000000000000000000000PES00010000001N00000000000000020170710
201706300060000700000000000000538115000000000000005381159900000000000000000000Consumidor Final              000000000066000000000000066000000000000000000000000000000000000000000000000000000000000000000000000000000000000000000000PES00010000001N00000000000000020170710
201706300060000700000000000000538116000000000000005381169900000000000000000000Consumidor Final              000000000068000000000000068000000000000000000000000000000000000000000000000000000000000000000000000000000000000000000000PES00010000001N00000000000000020170710
201706300060000700000000000000538117000000000000005381179900000000000000000000Consumidor Final              000000000068000000000000068000000000000000000000000000000000000000000000000000000000000000000000000000000000000000000000PES00010000001N00000000000000020170710
201706300060000700000000000000538118000000000000005381189000000000099999999999Consumidor Final              000000000104000000000000104000000000000000000000000000000000000000000000000000000000000000000000000000000000000000000000PES00010000001N00000000000000020170710
201706300060000700000000000000538129000000000000005381299900000000000000000000Consumidor Final              000000000068000000000000068000000000000000000000000000000000000000000000000000000000000000000000000000000000000000000000PES00010000001N00000000000000020170710
201706300060000700000000000000538130000000000000005381309900000000000000000000Consumidor Final              000000000081000000000000081000000000000000000000000000000000000000000000000000000000000000000000000000000000000000000000PES00010000001N00000000000000020170710
201706300060000700000000000000538131000000000000005381319900000000000000000000Consumidor Final              000000000068000000000000068000000000000000000000000000000000000000000000000000000000000000000000000000000000000000000000PES00010000001N00000000000000020170710
201706300060000700000000000000538134000000000000005381349900000000000000000000Consumidor Final              000000000068000000000000068000000000000000000000000000000000000000000000000000000000000000000000000000000000000000000000PES00010000001N00000000000000020170710
201706300060000700000000000000538135000000000000005381359900000000000000000000Consumidor Final              000000000068000000000000068000000000000000000000000000000000000000000000000000000000000000000000000000000000000000000000PES00010000001N00000000000000020170710
201706300060000900000000000000039063000000000000000390639900000000000000000000Consumidor Final              000000000066000000000000066000000000000000000000000000000000000000000000000000000000000000000000000000000000000000000000PES00010000001N00000000000000020170710
201706300060000700000000000000538103000000000000005381039900000000000000000000Consumidor Final              000000000068000000000000068000000000000000000000000000000000000000000000000000000000000000000000000000000000000000000000PES00010000001N00000000000000020170710
201706300060000900000000000000039069000000000000000390699900000000000000000000Consumidor Final              000000000058000000000000058000000000000000000000000000000000000000000000000000000000000000000000000000000000000000000000PES00010000001N00000000000000020170710
201706300060000700000000000000538113000000000000005381139900000000000000000000Consumidor Final              000000000081000000000000081000000000000000000000000000000000000000000000000000000000000000000000000000000000000000000000PES00010000001N00000000000000020170710
201706300060000700000000000000538128000000000000005381289900000000000000000000Consumidor Final              000000000068000000000000068000000000000000000000000000000000000000000000000000000000000000000000000000000000000000000000PES00010000001N00000000000000020170710
201706300060000700000000000000538137000000000000005381379900000000000000000000Consumidor Final              000000000068000000000000068000000000000000000000000000000000000000000000000000000000000000000000000000000000000000000000PES00010000001N00000000000000020170710
201706300060000700000000000000538138000000000000005381389900000000000000000000Consumidor Final              000000000044000000000000044000000000000000000000000000000000000000000000000000000000000000000000000000000000000000000000PES00010000001N00000000000000020170710
201706300060000600000000000000758269000000000000007582699900000000000000000000Consumidor Final              000000000076400000000000076400000000000000000000000000000000000000000000000000000000000000000000000000000000000000000000PES00010000001N00000000000000020170710
201706300060000600000000000000758270000000000000007582709900000000000000000000Consumidor Final              000000000068000000000000068000000000000000000000000000000000000000000000000000000000000000000000000000000000000000000000PES00010000001N00000000000000020170710
201706300060000600000000000000758271000000000000007582719900000000000000000000Consumidor Final              000000000074300000000000074300000000000000000000000000000000000000000000000000000000000000000000000000000000000000000000PES00010000001N00000000000000020170710
201706300060000600000000000000758272000000000000007582729900000000000000000000Consumidor Final              000000000068000000000000068000000000000000000000000000000000000000000000000000000000000000000000000000000000000000000000PES00010000001N00000000000000020170710
201706300060000900000000000000039064000000000000000390649900000000000000000000Consumidor Final              000000000070000000000000070000000000000000000000000000000000000000000000000000000000000000000000000000000000000000000000PES00010000001N00000000000000020170710
201706300060000700000000000000538077000000000000005380779900000000000000000000Consumidor Final              000000000068000000000000068000000000000000000000000000000000000000000000000000000000000000000000000000000000000000000000PES00010000001N00000000000000020170710
201706300060000700000000000000538078000000000000005380789900000000000000000000Consumidor Final              000000000027000000000000027000000000000000000000000000000000000000000000000000000000000000000000000000000000000000000000PES00010000001N00000000000000020170710
201706300060000600000000000000758273000000000000007582739900000000000000000000Consumidor Final              000000000068000000000000068000000000000000000000000000000000000000000000000000000000000000000000000000000000000000000000PES00010000001N00000000000000020170710
201706300060000600000000000000758274000000000000007582749900000000000000000000Consumidor Final              000000000074300000000000074300000000000000000000000000000000000000000000000000000000000000000000000000000000000000000000PES00010000001N00000000000000020170710
201706300060000600000000000000758275000000000000007582759900000000000000000000Consumidor Final              000000000074300000000000074300000000000000000000000000000000000000000000000000000000000000000000000000000000000000000000PES00010000001N00000000000000020170710
201706300060000600000000000000758276000000000000007582769900000000000000000000Consumidor Final              000000000068000000000000068000000000000000000000000000000000000000000000000000000000000000000000000000000000000000000000PES00010000001N00000000000000020170710
201706300060000700000000000000538167000000000000005381679900000000000000000000Consumidor Final              000000000072000000000000072000000000000000000000000000000000000000000000000000000000000000000000000000000000000000000000PES00010000001N00000000000000020170710
201706300060000700000000000000538168000000000000005381689900000000000000000000Consumidor Final              000000000068000000000000068000000000000000000000000000000000000000000000000000000000000000000000000000000000000000000000PES00010000001N00000000000000020170710
201706300060000700000000000000538169000000000000005381699900000000000000000000Consumidor Final              000000000068000000000000068000000000000000000000000000000000000000000000000000000000000000000000000000000000000000000000PES00010000001N00000000000000020170710
201706300060000700000000000000538170000000000000005381709900000000000000000000Consumidor Final              000000000068000000000000068000000000000000000000000000000000000000000000000000000000000000000000000000000000000000000000PES00010000001N00000000000000020170710
201706300060000600000000000000758268000000000000007582689900000000000000000000Consumidor Final              000000000078600000000000078600000000000000000000000000000000000000000000000000000000000000000000000000000000000000000000PES00010000001N00000000000000020170710
201706300060000700000000000000538057000000000000005380579900000000000000000000Consumidor Final              000000000068000000000000068000000000000000000000000000000000000000000000000000000000000000000000000000000000000000000000PES00010000001N00000000000000020170710
201706300060000800000000000000184439000000000000001844399000000000099999999999Consumidor Final              000000000171000000000000171000000000000000000000000000000000000000000000000000000000000000000000000000000000000000000000PES00010000001N00000000000000020170710
201706300060000800000000000000184440000000000000001844409000000000099999999999Consumidor Final              000000000171000000000000171000000000000000000000000000000000000000000000000000000000000000000000000000000000000000000000PES00010000001N00000000000000020170710
201706300060000800000000000000184441000000000000001844419900000000000000000000Consumidor Final              000000000058000000000000058000000000000000000000000000000000000000000000000000000000000000000000000000000000000000000000PES00010000001N00000000000000020170710
201706300060000800000000000000184442000000000000001844429900000000000000000000Consumidor Final              000000000068000000000000068000000000000000000000000000000000000000000000000000000000000000000000000000000000000000000000PES00010000001N00000000000000020170710
201706300060000800000000000000184443000000000000001844439900000000000000000000Consumidor Final              000000000058000000000000058000000000000000000000000000000000000000000000000000000000000000000000000000000000000000000000PES00010000001N00000000000000020170710
201706300060000800000000000000184444000000000000001844449900000000000000000000Consumidor Final              000000000068000000000000068000000000000000000000000000000000000000000000000000000000000000000000000000000000000000000000PES00010000001N00000000000000020170710
201706300060000800000000000000184445000000000000001844459900000000000000000000Consumidor Final              000000000058000000000000058000000000000000000000000000000000000000000000000000000000000000000000000000000000000000000000PES00010000001N00000000000000020170710
201706300060000800000000000000184446000000000000001844469900000000000000000000Consumidor Final              000000000058000000000000058000000000000000000000000000000000000000000000000000000000000000000000000000000000000000000000PES00010000001N00000000000000020170710
201706300060000800000000000000184447000000000000001844479900000000000000000000Consumidor Final              000000000033000000000000033000000000000000000000000000000000000000000000000000000000000000000000000000000000000000000000PES00010000001N00000000000000020170710
201706300060000700000000000000538063000000000000005380639900000000000000000000Consumidor Final              000000000068000000000000068000000000000000000000000000000000000000000000000000000000000000000000000000000000000000000000PES00010000001N00000000000000020170710
201706300060000700000000000000538109000000000000005381099900000000000000000000Consumidor Final              000000000068000000000000068000000000000000000000000000000000000000000000000000000000000000000000000000000000000000000000PES00010000001N00000000000000020170710
201706300060000700000000000000538110000000000000005381109900000000000000000000Consumidor Final              000000000068000000000000068000000000000000000000000000000000000000000000000000000000000000000000000000000000000000000000PES00010000001N00000000000000020170710
201706300060000700000000000000538111000000000000005381119900000000000000000000Consumidor Final              000000000068000000000000068000000000000000000000000000000000000000000000000000000000000000000000000000000000000000000000PES00010000001N00000000000000020170710
201706300060000700000000000000538112000000000000005381128000000000020482309209Consumidor Final              000000000068000000000000068000000000000000000000000000000000000000000000000000000000000000000000000000000000000000000000PES00010000001N00000000000000020170710
201706300060000900000000000000039070000000000000000390709900000000000000000000Consumidor Final              000000000037000000000000037000000000000000000000000000000000000000000000000000000000000000000000000000000000000000000000PES00010000001N00000000000000020170710
201706300060000900000000000000039071000000000000000390719900000000000000000000Consumidor Final              000000000068000000000000068000000000000000000000000000000000000000000000000000000000000000000000000000000000000000000000PES00010000001N00000000000000020170710
201706300060000900000000000000039072000000000000000390729900000000000000000000Consumidor Final              000000000068000000000000068000000000000000000000000000000000000000000000000000000000000000000000000000000000000000000000PES00010000001N00000000000000020170710
201706300060000900000000000000039073000000000000000390739900000000000000000000Consumidor Final              000000000068000000000000068000000000000000000000000000000000000000000000000000000000000000000000000000000000000000000000PES00010000001N00000000000000020170710
201706300060000700000000000000538136000000000000005381369900000000000000000000Consumidor Final              000000000074300000000000074300000000000000000000000000000000000000000000000000000000000000000000000000000000000000000000PES00010000001N00000000000000020170710
201706300060000900000000000000039074000000000000000390749900000000000000000000Consumidor Final              000000000068000000000000068000000000000000000000000000000000000000000000000000000000000000000000000000000000000000000000PES00010000001N00000000000000020170710
201706300060000700000000000000538064000000000000005380649900000000000000000000Consumidor Final              000000000068000000000000068000000000000000000000000000000000000000000000000000000000000000000000000000000000000000000000PES00010000001N00000000000000020170710
201706300060000700000000000000538071000000000000005380719900000000000000000000Consumidor Final              000000000068000000000000068000000000000000000000000000000000000000000000000000000000000000000000000000000000000000000000PES00010000001N00000000000000020170710
201706300060000700000000000000538072000000000000005380729900000000000000000000Consumidor Final              000000000068000000000000068000000000000000000000000000000000000000000000000000000000000000000000000000000000000000000000PES00010000001N00000000000000020170710
201706300060000700000000000000538073000000000000005380739900000000000000000000Consumidor Final              000000000068000000000000068000000000000000000000000000000000000000000000000000000000000000000000000000000000000000000000PES00010000001N00000000000000020170710
201706300060000700000000000000538079000000000000005380799900000000000000000000Consumidor Final              000000000088500000000000088500000000000000000000000000000000000000000000000000000000000000000000000000000000000000000000PES00010000001N00000000000000020170710
201706300060000900000000000000039075000000000000000390759900000000000000000000Consumidor Final              000000000032000000000000032000000000000000000000000000000000000000000000000000000000000000000000000000000000000000000000PES00010000001N00000000000000020170710
201706300060000900000000000000039076000000000000000390769900000000000000000000Consumidor Final              000000000034000000000000034000000000000000000000000000000000000000000000000000000000000000000000000000000000000000000000PES00010000001N00000000000000020170710
201706300060000700000000000000538065000000000000005380659900000000000000000000Consumidor Final              000000000074300000000000074300000000000000000000000000000000000000000000000000000000000000000000000000000000000000000000PES00010000001N00000000000000020170710
201706300060000700000000000000538089000000000000005380899900000000000000000000Consumidor Final              000000000068000000000000068000000000000000000000000000000000000000000000000000000000000000000000000000000000000000000000PES00010000001N00000000000000020170710
201706300060000700000000000000538090000000000000005380909900000000000000000000Consumidor Final              000000000081000000000000081000000000000000000000000000000000000000000000000000000000000000000000000000000000000000000000PES00010000001N00000000000000020170710
201706300060000700000000000000538093000000000000005380939900000000000000000000Consumidor Final              000000000068000000000000068000000000000000000000000000000000000000000000000000000000000000000000000000000000000000000000PES00010000001N00000000000000020170710
201706300060000800000000000000184452000000000000001844529900000000000000000000Consumidor Final              000000000058000000000000058000000000000000000000000000000000000000000000000000000000000000000000000000000000000000000000PES00010000001N00000000000000020170710
201706300060000700000000000000538091000000000000005380919900000000000000000000Consumidor Final              000000000081000000000000081000000000000000000000000000000000000000000000000000000000000000000000000000000000000000000000PES00010000001N00000000000000020170710
201706300060000700000000000000538092000000000000005380929900000000000000000000Consumidor Final              000000000068000000000000068000000000000000000000000000000000000000000000000000000000000000000000000000000000000000000000PES00010000001N00000000000000020170710
201706300060000700000000000000538094000000000000005380949900000000000000000000Consumidor Final              000000000072000000000000072000000000000000000000000000000000000000000000000000000000000000000000000000000000000000000000PES00010000001N00000000000000020170710
201706300060000700000000000000538095000000000000005380959900000000000000000000Consumidor Final              000000000068000000000000068000000000000000000000000000000000000000000000000000000000000000000000000000000000000000000000PES00010000001N00000000000000020170710
201706300060000700000000000000538096000000000000005380969900000000000000000000Consumidor Final              000000000070000000000000070000000000000000000000000000000000000000000000000000000000000000000000000000000000000000000000PES00010000001N00000000000000020170710
201706300060000700000000000000538097000000000000005380979900000000000000000000Consumidor Final              000000000068000000000000068000000000000000000000000000000000000000000000000000000000000000000000000000000000000000000000PES00010000001N00000000000000020170710
201706300060000700000000000000538106000000000000005381069900000000000000000000Consumidor Final              000000000066000000000000066000000000000000000000000000000000000000000000000000000000000000000000000000000000000000000000PES00010000001N00000000000000020170710
201706300060000700000000000000538107000000000000005381079900000000000000000000Consumidor Final              000000000068000000000000068000000000000000000000000000000000000000000000000000000000000000000000000000000000000000000000PES00010000001N00000000000000020170710
201706300060000700000000000000538108000000000000005381089900000000000000000000Consumidor Final              000000000068000000000000068000000000000000000000000000000000000000000000000000000000000000000000000000000000000000000000PES00010000001N00000000000000020170710
201706300060000800000000000000184453000000000000001844539900000000000000000000Consumidor Final              000000000058000000000000058000000000000000000000000000000000000000000000000000000000000000000000000000000000000000000000PES00010000001N00000000000000020170710
201706300060000800000000000000184454000000000000001844549900000000000000000000Consumidor Final              000000000058000000000000058000000000000000000000000000000000000000000000000000000000000000000000000000000000000000000000PES00010000001N00000000000000020170710
201706300060000800000000000000184455000000000000001844559900000000000000000000Consumidor Final              000000000058000000000000058000000000000000000000000000000000000000000000000000000000000000000000000000000000000000000000PES00010000001N00000000000000020170710
201706300060000800000000000000184456000000000000001844569900000000000000000000Consumidor Final              000000000058000000000000058000000000000000000000000000000000000000000000000000000000000000000000000000000000000000000000PES00010000001N00000000000000020170710
201706300060000700000000000000538083000000000000005380839900000000000000000000Consumidor Final              000000000068000000000000068000000000000000000000000000000000000000000000000000000000000000000000000000000000000000000000PES00010000001N00000000000000020170710
201706300060000700000000000000538084000000000000005380849900000000000000000000Consumidor Final              000000000068000000000000068000000000000000000000000000000000000000000000000000000000000000000000000000000000000000000000PES00010000001N00000000000000020170710
201706300060000700000000000000538085000000000000005380859900000000000000000000Consumidor Final              000000000068000000000000068000000000000000000000000000000000000000000000000000000000000000000000000000000000000000000000PES00010000001N00000000000000020170710
201706300060000700000000000000538086000000000000005380869900000000000000000000Consumidor Final              000000000074300000000000074300000000000000000000000000000000000000000000000000000000000000000000000000000000000000000000PES00010000001N00000000000000020170710
201706300060000700000000000000538087000000000000005380879900000000000000000000Consumidor Final              000000000033000000000000033000000000000000000000000000000000000000000000000000000000000000000000000000000000000000000000PES00010000001N00000000000000020170710
201706300060000700000000000000538088000000000000005380889900000000000000000000Consumidor Final              000000000081000000000000081000000000000000000000000000000000000000000000000000000000000000000000000000000000000000000000PES00010000001N00000000000000020170710
201706300060000700000000000000538098000000000000005380989900000000000000000000Consumidor Final              000000000066000000000000066000000000000000000000000000000000000000000000000000000000000000000000000000000000000000000000PES00010000001N00000000000000020170710
201706300060000700000000000000538099000000000000005380999900000000000000000000Consumidor Final              000000000074300000000000074300000000000000000000000000000000000000000000000000000000000000000000000000000000000000000000PES00010000001N00000000000000020170710
201706300060000700000000000000538100000000000000005381009900000000000000000000Consumidor Final              000000000068000000000000068000000000000000000000000000000000000000000000000000000000000000000000000000000000000000000000PES00010000001N00000000000000020170710
201706300060000700000000000000538101000000000000005381019900000000000000000000Consumidor Final              000000000068000000000000068000000000000000000000000000000000000000000000000000000000000000000000000000000000000000000000PES00010000001N00000000000000020170710
201706300060000700000000000000538102000000000000005381029900000000000000000000Consumidor Final              000000000072000000000000072000000000000000000000000000000000000000000000000000000000000000000000000000000000000000000000PES00010000001N00000000000000020170710
201706300060000800000000000000184457000000000000001844579900000000000000000000Consumidor Final              000000000058000000000000058000000000000000000000000000000000000000000000000000000000000000000000000000000000000000000000PES00010000001N00000000000000020170710
201706300060000800000000000000184458000000000000001844589900000000000000000000Consumidor Final              000000000058000000000000058000000000000000000000000000000000000000000000000000000000000000000000000000000000000000000000PES00010000001N00000000000000020170710
201706300060000800000000000000184459000000000000001844599900000000000000000000Consumidor Final              000000000058000000000000058000000000000000000000000000000000000000000000000000000000000000000000000000000000000000000000PES00010000001N00000000000000020170710
201706300060000800000000000000184460000000000000001844609900000000000000000000Consumidor Final              000000000058000000000000058000000000000000000000000000000000000000000000000000000000000000000000000000000000000000000000PES00010000001N00000000000000020170710
201706300060000800000000000000184461000000000000001844619900000000000000000000Consumidor Final              000000000058000000000000058000000000000000000000000000000000000000000000000000000000000000000000000000000000000000000000PES00010000001N00000000000000020170710
201706300060000800000000000000184462000000000000001844629900000000000000000000Consumidor Final              000000000058000000000000058000000000000000000000000000000000000000000000000000000000000000000000000000000000000000000000PES00010000001N00000000000000020170710
201706300060000800000000000000184463000000000000001844639900000000000000000000Consumidor Final              000000000058000000000000058000000000000000000000000000000000000000000000000000000000000000000000000000000000000000000000PES00010000001N00000000000000020170710
201706300060000700000000000000538119000000000000005381199900000000000000000000Consumidor Final              000000000033000000000000033000000000000000000000000000000000000000000000000000000000000000000000000000000000000000000000PES00010000001N00000000000000020170710
201706300060000700000000000000538120000000000000005381209900000000000000000000Consumidor Final              000000000068000000000000068000000000000000000000000000000000000000000000000000000000000000000000000000000000000000000000PES00010000001N00000000000000020170710
201706300060000700000000000000538121000000000000005381219900000000000000000000Consumidor Final              000000000081000000000000081000000000000000000000000000000000000000000000000000000000000000000000000000000000000000000000PES00010000001N00000000000000020170710
201706300060000700000000000000538122000000000000005381229900000000000000000000Consumidor Final              000000000081000000000000081000000000000000000000000000000000000000000000000000000000000000000000000000000000000000000000PES00010000001N00000000000000020170710
201706300060000700000000000000538123000000000000005381239900000000000000000000Consumidor Final              000000000081000000000000081000000000000000000000000000000000000000000000000000000000000000000000000000000000000000000000PES00010000001N00000000000000020170710
201706300060000700000000000000538124000000000000005381249900000000000000000000Consumidor Final              000000000081000000000000081000000000000000000000000000000000000000000000000000000000000000000000000000000000000000000000PES00010000001N00000000000000020170710
201706300060000700000000000000538125000000000000005381259900000000000000000000Consumidor Final              000000000081000000000000081000000000000000000000000000000000000000000000000000000000000000000000000000000000000000000000PES00010000001N00000000000000020170710
201706300060000700000000000000538126000000000000005381269900000000000000000000Consumidor Final              000000000068000000000000068000000000000000000000000000000000000000000000000000000000000000000000000000000000000000000000PES00010000001N00000000000000020170710
201706300060000700000000000000538127000000000000005381279900000000000000000000Consumidor Final              000000000068000000000000068000000000000000000000000000000000000000000000000000000000000000000000000000000000000000000000PES00010000001N00000000000000020170710
201706300060000700000000000000538132000000000000005381329000000000099999999999Consumidor Final              000000000103000000000000103000000000000000000000000000000000000000000000000000000000000000000000000000000000000000000000PES00010000001N00000000000000020170710
201706300060000700000000000000538133000000000000005381339900000000000000000000Consumidor Final              000000000068000000000000068000000000000000000000000000000000000000000000000000000000000000000000000000000000000000000000PES00010000001N00000000000000020170710
201706300060000900000000000000039077000000000000000390779900000000000000000000Consumidor Final              000000000068000000000000068000000000000000000000000000000000000000000000000000000000000000000000000000000000000000000000PES00010000001N00000000000000020170710
201706300060000700000000000000538147000000000000005381479900000000000000000000Consumidor Final              000000000068000000000000068000000000000000000000000000000000000000000000000000000000000000000000000000000000000000000000PES00010000001N00000000000000020170710
201706300060000700000000000000538148000000000000005381489900000000000000000000Consumidor Final              000000000068000000000000068000000000000000000000000000000000000000000000000000000000000000000000000000000000000000000000PES00010000001N00000000000000020170710
201706300060000700000000000000538149000000000000005381499900000000000000000000Consumidor Final              000000000074300000000000074300000000000000000000000000000000000000000000000000000000000000000000000000000000000000000000PES00010000001N00000000000000020170710
201706300060000700000000000000538150000000000000005381509900000000000000000000Consumidor Final              000000000068000000000000068000000000000000000000000000000000000000000000000000000000000000000000000000000000000000000000PES00010000001N00000000000000020170710
201706300060000700000000000000538157000000000000005381579900000000000000000000Consumidor Final              000000000074300000000000074300000000000000000000000000000000000000000000000000000000000000000000000000000000000000000000PES00010000001N00000000000000020170710
201706300060000700000000000000538158000000000000005381589900000000000000000000Consumidor Final              000000000068000000000000068000000000000000000000000000000000000000000000000000000000000000000000000000000000000000000000PES00010000001N00000000000000020170710
201706300060000700000000000000538159000000000000005381599900000000000000000000Consumidor Final              000000000068800000000000068800000000000000000000000000000000000000000000000000000000000000000000000000000000000000000000PES00010000001N00000000000000020170710
201706300060000700000000000000538160000000000000005381609900000000000000000000Consumidor Final              000000000058000000000000058000000000000000000000000000000000000000000000000000000000000000000000000000000000000000000000PES00010000001N00000000000000020170710
201706300060000700000000000000538161000000000000005381619900000000000000000000Consumidor Final              000000000068000000000000068000000000000000000000000000000000000000000000000000000000000000000000000000000000000000000000PES00010000001N00000000000000020170710
201706300060000700000000000000538162000000000000005381629900000000000000000000Consumidor Final              000000000068000000000000068000000000000000000000000000000000000000000000000000000000000000000000000000000000000000000000PES00010000001N00000000000000020170710
201706300060000800000000000000184464000000000000001844649900000000000000000000Consumidor Final              000000000058000000000000058000000000000000000000000000000000000000000000000000000000000000000000000000000000000000000000PES00010000001N00000000000000020170710
201706300060000700000000000000538139000000000000005381399900000000000000000000Consumidor Final              000000000076400000000000076400000000000000000000000000000000000000000000000000000000000000000000000000000000000000000000PES00010000001N00000000000000020170710
201706300060000700000000000000538140000000000000005381409900000000000000000000Consumidor Final              000000000042600000000000042600000000000000000000000000000000000000000000000000000000000000000000000000000000000000000000PES00010000001N00000000000000020170710
201706300060000700000000000000538141000000000000005381419900000000000000000000Consumidor Final              000000000068000000000000068000000000000000000000000000000000000000000000000000000000000000000000000000000000000000000000PES00010000001N00000000000000020170710
201706300060000700000000000000538142000000000000005381429900000000000000000000Consumidor Final              000000000068000000000000068000000000000000000000000000000000000000000000000000000000000000000000000000000000000000000000PES00010000001N00000000000000020170710
201706300060000700000000000000538143000000000000005381439900000000000000000000Consumidor Final              000000000068000000000000068000000000000000000000000000000000000000000000000000000000000000000000000000000000000000000000PES00010000001N00000000000000020170710
201706300060000700000000000000538163000000000000005381639900000000000000000000Consumidor Final              000000000068000000000000068000000000000000000000000000000000000000000000000000000000000000000000000000000000000000000000PES00010000001N00000000000000020170710
