201707310060000700000000000000543745000000000000005437459900000000000000000000Consumidor Final              000000000038200000000000038200000000000000000000000000000000000000000000000000000000000000000000000000000000000000000000PES00010000001N00000000000000020170810
201707310060000600000000000000763064000000000000007630649900000000000000000000Consumidor Final              000000000081900000000000081900000000000000000000000000000000000000000000000000000000000000000000000000000000000000000000PES00010000001N00000000000000020170810
201707310060000700000000000000543746000000000000005437469900000000000000000000Consumidor Final              000000000072000000000000072000000000000000000000000000000000000000000000000000000000000000000000000000000000000000000000PES00010000001N00000000000000020170810
201707310060000600000000000000763065000000000000007630659900000000000000000000Consumidor Final              000000000075000000000000075000000000000000000000000000000000000000000000000000000000000000000000000000000000000000000000PES00010000001N00000000000000020170810
201707310060000700000000000000543747000000000000005437479900000000000000000000Consumidor Final              000000000078600000000000078600000000000000000000000000000000000000000000000000000000000000000000000000000000000000000000PES00010000001N00000000000000020170810
201707310060000600000000000000763066000000000000007630669900000000000000000000Consumidor Final              000000000062000000000000062000000000000000000000000000000000000000000000000000000000000000000000000000000000000000000000PES00010000001N00000000000000020170810
201707310060000600000000000000763067000000000000007630679900000000000000000000Consumidor Final              000000000087000000000000087000000000000000000000000000000000000000000000000000000000000000000000000000000000000000000000PES00010000001N00000000000000020170810
201707310060000600000000000000763068000000000000007630689900000000000000000000Consumidor Final              000000000070000000000000070000000000000000000000000000000000000000000000000000000000000000000000000000000000000000000000PES00010000001N00000000000000020170810
201707310060000300000000000000118146000000000000001181469900000000000000000000Consumidor Final              000000000072000000000000072000000000000000000000000000000000000000000000000000000000000000000000000000000000000000000000PES00010000001N00000000000000020170810
201707310060000300000000000000118147000000000000001181479900000000000000000000Consumidor Final              000000000078600000000000078600000000000000000000000000000000000000000000000000000000000000000000000000000000000000000000PES00010000001N00000000000000020170810
201707310060000300000000000000118148000000000000001181489900000000000000000000Consumidor Final              000000000078600000000000078600000000000000000000000000000000000000000000000000000000000000000000000000000000000000000000PES00010000001N00000000000000020170810
201707310060000800000000000000186456000000000000001864569900000000000000000000Consumidor Final              000000000035000000000000035000000000000000000000000000000000000000000000000000000000000000000000000000000000000000000000PES00010000001N00000000000000020170810
201707310060000700000000000000543742000000000000005437429900000000000000000000Consumidor Final              000000000086000000000000086000000000000000000000000000000000000000000000000000000000000000000000000000000000000000000000PES00010000001N00000000000000020170810
201707310060000700000000000000543743000000000000005437439900000000000000000000Consumidor Final              000000000086000000000000086000000000000000000000000000000000000000000000000000000000000000000000000000000000000000000000PES00010000001N00000000000000020170810
201707310060000600000000000000763062000000000000007630629900000000000000000000Consumidor Final              000000000078600000000000078600000000000000000000000000000000000000000000000000000000000000000000000000000000000000000000PES00010000001N00000000000000020170810
201707310060000700000000000000543744000000000000005437449900000000000000000000Consumidor Final              000000000086000000000000086000000000000000000000000000000000000000000000000000000000000000000000000000000000000000000000PES00010000001N00000000000000020170810
201707310060000600000000000000763063000000000000007630639900000000000000000000Consumidor Final              000000000033000000000000033000000000000000000000000000000000000000000000000000000000000000000000000000000000000000000000PES00010000001N00000000000000020170810
201707310060000700000000000000543748000000000000005437489900000000000000000000Consumidor Final              000000000072000000000000072000000000000000000000000000000000000000000000000000000000000000000000000000000000000000000000PES00010000001N00000000000000020170810
201707310060000300000000000000118139000000000000001181399900000000000000000000Consumidor Final              000000000072000000000000072000000000000000000000000000000000000000000000000000000000000000000000000000000000000000000000PES00010000001N00000000000000020170810
201707310060000300000000000000118140000000000000001181409900000000000000000000Consumidor Final              000000000072000000000000072000000000000000000000000000000000000000000000000000000000000000000000000000000000000000000000PES00010000001N00000000000000020170810
201707310060000800000000000000186437000000000000001864379900000000000000000000Consumidor Final              000000000062000000000000062000000000000000000000000000000000000000000000000000000000000000000000000000000000000000000000PES00010000001N00000000000000020170810
201707310060000800000000000000186438000000000000001864389900000000000000000000Consumidor Final              000000000062000000000000062000000000000000000000000000000000000000000000000000000000000000000000000000000000000000000000PES00010000001N00000000000000020170810
201707310060000800000000000000186439000000000000001864399900000000000000000000Consumidor Final              000000000062000000000000062000000000000000000000000000000000000000000000000000000000000000000000000000000000000000000000PES00010000001N00000000000000020170810
201707310060000800000000000000186440000000000000001864409900000000000000000000Consumidor Final              000000000062000000000000062000000000000000000000000000000000000000000000000000000000000000000000000000000000000000000000PES00010000001N00000000000000020170810
201707310060000800000000000000186441000000000000001864419900000000000000000000Consumidor Final              000000000062000000000000062000000000000000000000000000000000000000000000000000000000000000000000000000000000000000000000PES00010000001N00000000000000020170810
201707310060000800000000000000186442000000000000001864429900000000000000000000Consumidor Final              000000000062000000000000062000000000000000000000000000000000000000000000000000000000000000000000000000000000000000000000PES00010000001N00000000000000020170810
201707310060000800000000000000186443000000000000001864439900000000000000000000Consumidor Final              000000000062000000000000062000000000000000000000000000000000000000000000000000000000000000000000000000000000000000000000PES00010000001N00000000000000020170810
201707310060000800000000000000186452000000000000001864529900000000000000000000Consumidor Final              000000000062000000000000062000000000000000000000000000000000000000000000000000000000000000000000000000000000000000000000PES00010000001N00000000000000020170810
201707310060000800000000000000186453000000000000001864539900000000000000000000Consumidor Final              000000000062000000000000062000000000000000000000000000000000000000000000000000000000000000000000000000000000000000000000PES00010000001N00000000000000020170810
201707310060000800000000000000186454000000000000001864549900000000000000000000Consumidor Final              000000000062000000000000062000000000000000000000000000000000000000000000000000000000000000000000000000000000000000000000PES00010000001N00000000000000020170810
201707310060000800000000000000186433000000000000001864339900000000000000000000Consumidor Final              000000000062000000000000062000000000000000000000000000000000000000000000000000000000000000000000000000000000000000000000PES00010000001N00000000000000020170810
201707310060000800000000000000186434000000000000001864349900000000000000000000Consumidor Final              000000000062000000000000062000000000000000000000000000000000000000000000000000000000000000000000000000000000000000000000PES00010000001N00000000000000020170810
201707310060000800000000000000186444000000000000001864449900000000000000000000Consumidor Final              000000000062000000000000062000000000000000000000000000000000000000000000000000000000000000000000000000000000000000000000PES00010000001N00000000000000020170810
201707310060000800000000000000186445000000000000001864459900000000000000000000Consumidor Final              000000000062000000000000062000000000000000000000000000000000000000000000000000000000000000000000000000000000000000000000PES00010000001N00000000000000020170810
201707310060000800000000000000186446000000000000001864469900000000000000000000Consumidor Final              000000000062000000000000062000000000000000000000000000000000000000000000000000000000000000000000000000000000000000000000PES00010000001N00000000000000020170810
201707310060000800000000000000186447000000000000001864479900000000000000000000Consumidor Final              000000000062000000000000062000000000000000000000000000000000000000000000000000000000000000000000000000000000000000000000PES00010000001N00000000000000020170810
201707310060000800000000000000186448000000000000001864489900000000000000000000Consumidor Final              000000000072000000000000072000000000000000000000000000000000000000000000000000000000000000000000000000000000000000000000PES00010000001N00000000000000020170810
201707310060000800000000000000186449000000000000001864499900000000000000000000Consumidor Final              000000000072000000000000072000000000000000000000000000000000000000000000000000000000000000000000000000000000000000000000PES00010000001N00000000000000020170810
201707310060000800000000000000186450000000000000001864509900000000000000000000Consumidor Final              000000000062000000000000062000000000000000000000000000000000000000000000000000000000000000000000000000000000000000000000PES00010000001N00000000000000020170810
201707310060000800000000000000186451000000000000001864519900000000000000000000Consumidor Final              000000000062000000000000062000000000000000000000000000000000000000000000000000000000000000000000000000000000000000000000PES00010000001N00000000000000020170810
201707310060000800000000000000186455000000000000001864559900000000000000000000Consumidor Final              000000000062000000000000062000000000000000000000000000000000000000000000000000000000000000000000000000000000000000000000PES00010000001N00000000000000020170810
201707310060000300000000000000118141000000000000001181419900000000000000000000Consumidor Final              000000000078600000000000078600000000000000000000000000000000000000000000000000000000000000000000000000000000000000000000PES00010000001N00000000000000020170810
201707310060000100000000000000201807000000000000002018079900000000000000000000Consumidor Final              000000000072000000000000072000000000000000000000000000000000000000000000000000000000000000000000000000000000000000000000PES00010000001N00000000000000020170810
201707310060000100000000000000201808000000000000002018089900000000000000000000Consumidor Final              000000000072000000000000072000000000000000000000000000000000000000000000000000000000000000000000000000000000000000000000PES00010000001N00000000000000020170810
201707310060000700000000000000543749000000000000005437499900000000000000000000Consumidor Final              000000000078600000000000078600000000000000000000000000000000000000000000000000000000000000000000000000000000000000000000PES00010000001N00000000000000020170810
201707310060000100000000000000201809000000000000002018099900000000000000000000Consumidor Final              000000000038200000000000038200000000000000000000000000000000000000000000000000000000000000000000000000000000000000000000PES00010000001N00000000000000020170810
201707310060000100000000000000201810000000000000002018109900000000000000000000Consumidor Final              000000000079000000000000079000000000000000000000000000000000000000000000000000000000000000000000000000000000000000000000PES00010000001N00000000000000020170810
201707310060000100000000000000201811000000000000002018119900000000000000000000Consumidor Final              000000000081900000000000081900000000000000000000000000000000000000000000000000000000000000000000000000000000000000000000PES00010000001N00000000000000020170810
201707310060000100000000000000201812000000000000002018129900000000000000000000Consumidor Final              000000000072000000000000072000000000000000000000000000000000000000000000000000000000000000000000000000000000000000000000PES00010000001N00000000000000020170810
201707310060000100000000000000201813000000000000002018139900000000000000000000Consumidor Final              000000000072000000000000072000000000000000000000000000000000000000000000000000000000000000000000000000000000000000000000PES00010000001N00000000000000020170810
201707310060000100000000000000201814000000000000002018149000000000099999999999Consumidor Final              000000000128900000000000128900000000000000000000000000000000000000000000000000000000000000000000000000000000000000000000PES00010000001N00000000000000020170810
201707310060000300000000000000118145000000000000001181459900000000000000000000Consumidor Final              000000000072000000000000072000000000000000000000000000000000000000000000000000000000000000000000000000000000000000000000PES00010000001N00000000000000020170810
201707310060000300000000000000118142000000000000001181429900000000000000000000Consumidor Final              000000000062000000000000062000000000000000000000000000000000000000000000000000000000000000000000000000000000000000000000PES00010000001N00000000000000020170810
201707310060000300000000000000118143000000000000001181439900000000000000000000Consumidor Final              000000000078600000000000078600000000000000000000000000000000000000000000000000000000000000000000000000000000000000000000PES00010000001N00000000000000020170810
201707310060000300000000000000118144000000000000001181449900000000000000000000Consumidor Final              000000000075300000000000075300000000000000000000000000000000000000000000000000000000000000000000000000000000000000000000PES00010000001N00000000000000020170810
201707310060000100000000000000201815000000000000002018159900000000000000000000Consumidor Final              000000000072000000000000072000000000000000000000000000000000000000000000000000000000000000000000000000000000000000000000PES00010000001N00000000000000020170810
201707310060000100000000000000201816000000000000002018169900000000000000000000Consumidor Final              000000000086000000000000086000000000000000000000000000000000000000000000000000000000000000000000000000000000000000000000PES00010000001N00000000000000020170810
201707310060000100000000000000201817000000000000002018179900000000000000000000Consumidor Final              000000000072000000000000072000000000000000000000000000000000000000000000000000000000000000000000000000000000000000000000PES00010000001N00000000000000020170810
201707310060000100000000000000201827000000000000002018279900000000000000000000Consumidor Final              000000000083000000000000083000000000000000000000000000000000000000000000000000000000000000000000000000000000000000000000PES00010000001N00000000000000020170810
201707310060000100000000000000201828000000000000002018289900000000000000000000Consumidor Final              000000000072000000000000072000000000000000000000000000000000000000000000000000000000000000000000000000000000000000000000PES00010000001N00000000000000020170810
201707310060000100000000000000201829000000000000002018299900000000000000000000Consumidor Final              000000000072000000000000072000000000000000000000000000000000000000000000000000000000000000000000000000000000000000000000PES00010000001N00000000000000020170810
201707310060000100000000000000201830000000000000002018309900000000000000000000Consumidor Final              000000000069000000000000069000000000000000000000000000000000000000000000000000000000000000000000000000000000000000000000PES00010000001N00000000000000020170810
201707310060000700000000000000543751000000000000005437519900000000000000000000Consumidor Final              000000000078600000000000078600000000000000000000000000000000000000000000000000000000000000000000000000000000000000000000PES00010000001N00000000000000020170810
201707310060000300000000000000118149000000000000001181499000000000099999999999Consumidor Final              000000000112000000000000112000000000000000000000000000000000000000000000000000000000000000000000000000000000000000000000PES00010000001N00000000000000020170810
201707310060000100000000000000201818000000000000002018189900000000000000000000Consumidor Final              000000000086000000000000086000000000000000000000000000000000000000000000000000000000000000000000000000000000000000000000PES00010000001N00000000000000020170810
201707310060000100000000000000201819000000000000002018199900000000000000000000Consumidor Final              000000000072000000000000072000000000000000000000000000000000000000000000000000000000000000000000000000000000000000000000PES00010000001N00000000000000020170810
201707310060000100000000000000201820000000000000002018209900000000000000000000Consumidor Final              000000000072000000000000072000000000000000000000000000000000000000000000000000000000000000000000000000000000000000000000PES00010000001N00000000000000020170810
201707310060000100000000000000201821000000000000002018219900000000000000000000Consumidor Final              000000000078600000000000078600000000000000000000000000000000000000000000000000000000000000000000000000000000000000000000PES00010000001N00000000000000020170810
201707310060000100000000000000201822000000000000002018229900000000000000000000Consumidor Final              000000000072000000000000072000000000000000000000000000000000000000000000000000000000000000000000000000000000000000000000PES00010000001N00000000000000020170810
201707310060000100000000000000201823000000000000002018239900000000000000000000Consumidor Final              000000000078600000000000078600000000000000000000000000000000000000000000000000000000000000000000000000000000000000000000PES00010000001N00000000000000020170810
201707310060000700000000000000543750000000000000005437509900000000000000000000Consumidor Final              000000000072000000000000072000000000000000000000000000000000000000000000000000000000000000000000000000000000000000000000PES00010000001N00000000000000020170810
201707310060000100000000000000201824000000000000002018249900000000000000000000Consumidor Final              000000000039000000000000039000000000000000000000000000000000000000000000000000000000000000000000000000000000000000000000PES00010000001N00000000000000020170810
201707310060000100000000000000201825000000000000002018259900000000000000000000Consumidor Final              000000000062000000000000062000000000000000000000000000000000000000000000000000000000000000000000000000000000000000000000PES00010000001N00000000000000020170810
201707310060000100000000000000201826000000000000002018269900000000000000000000Consumidor Final              000000000072000000000000072000000000000000000000000000000000000000000000000000000000000000000000000000000000000000000000PES00010000001N00000000000000020170810
201707310060000300000000000000118150000000000000001181509900000000000000000000Consumidor Final              000000000072000000000000072000000000000000000000000000000000000000000000000000000000000000000000000000000000000000000000PES00010000001N00000000000000020170810
201707310060000600000000000000763069000000000000007630699900000000000000000000Consumidor Final              000000000078600000000000078600000000000000000000000000000000000000000000000000000000000000000000000000000000000000000000PES00010000001N00000000000000020170810
201707310060000700000000000000543752000000000000005437529900000000000000000000Consumidor Final              000000000086000000000000086000000000000000000000000000000000000000000000000000000000000000000000000000000000000000000000PES00010000001N00000000000000020170810
201707310060000800000000000000186435000000000000001864359900000000000000000000Consumidor Final              000000000062000000000000062000000000000000000000000000000000000000000000000000000000000000000000000000000000000000000000PES00010000001N00000000000000020170810
201707310060000800000000000000186436000000000000001864369900000000000000000000Consumidor Final              000000000062000000000000062000000000000000000000000000000000000000000000000000000000000000000000000000000000000000000000PES00010000001N00000000000000020170810
201707310060000700000000000000543753000000000000005437539900000000000000000000Consumidor Final              000000000093900000000000093900000000000000000000000000000000000000000000000000000000000000000000000000000000000000000000PES00010000001N00000000000000020170810
201707310060000600000000000000763070000000000000007630709900000000000000000000Consumidor Final              000000000086000000000000086000000000000000000000000000000000000000000000000000000000000000000000000000000000000000000000PES00010000001N00000000000000020170810
201707310060000300000000000000118151000000000000001181519900000000000000000000Consumidor Final              000000000086000000000000086000000000000000000000000000000000000000000000000000000000000000000000000000000000000000000000PES00010000001N00000000000000020170810
201707310060000300000000000000118152000000000000001181529900000000000000000000Consumidor Final              000000000072000000000000072000000000000000000000000000000000000000000000000000000000000000000000000000000000000000000000PES00010000001N00000000000000020170810
201707310060000600000000000000763071000000000000007630719900000000000000000000Consumidor Final              000000000078600000000000078600000000000000000000000000000000000000000000000000000000000000000000000000000000000000000000PES00010000001N00000000000000020170810
201707310060000800000000000000186457000000000000001864579900000000000000000000Consumidor Final              000000000080000000000000080000000000000000000000000000000000000000000000000000000000000000000000000000000000000000000000PES00010000001N00000000000000020170810
201707310060000700000000000000543754000000000000005437549900000000000000000000Consumidor Final              000000000072000000000000072000000000000000000000000000000000000000000000000000000000000000000000000000000000000000000000PES00010000001N00000000000000020170810
201707310060000600000000000000763072000000000000007630729900000000000000000000Consumidor Final              000000000072000000000000072000000000000000000000000000000000000000000000000000000000000000000000000000000000000000000000PES00010000001N00000000000000020170810
201707310060000800000000000000186458000000000000001864589900000000000000000000Consumidor Final              000000000062000000000000062000000000000000000000000000000000000000000000000000000000000000000000000000000000000000000000PES00010000001N00000000000000020170810
201707310060000700000000000000543763000000000000005437639900000000000000000000Consumidor Final              000000000078600000000000078600000000000000000000000000000000000000000000000000000000000000000000000000000000000000000000PES00010000001N00000000000000020170810
201707310060000700000000000000543768000000000000005437689900000000000000000000Consumidor Final              000000000072000000000000072000000000000000000000000000000000000000000000000000000000000000000000000000000000000000000000PES00010000001N00000000000000020170810
201707310060000300000000000000118125000000000000001181259900000000000000000000Consumidor Final              000000000082000000000000082000000000000000000000000000000000000000000000000000000000000000000000000000000000000000000000PES00010000001N00000000000000020170810
201707310060000300000000000000118123000000000000001181239000000000099999999999Consumidor Final              000000000101000000000000101000000000000000000000000000000000000000000000000000000000000000000000000000000000000000000000PES00010000001N00000000000000020170810
201707310060000300000000000000118121000000000000001181219900000000000000000000Consumidor Final              000000000072000000000000072000000000000000000000000000000000000000000000000000000000000000000000000000000000000000000000PES00010000001N00000000000000020170810
201707310060000300000000000000118119000000000000001181199900000000000000000000Consumidor Final              000000000062000000000000062000000000000000000000000000000000000000000000000000000000000000000000000000000000000000000000PES00010000001N00000000000000020170810
201707310060000300000000000000118117000000000000001181179900000000000000000000Consumidor Final              000000000038200000000000038200000000000000000000000000000000000000000000000000000000000000000000000000000000000000000000PES00010000001N00000000000000020170810
201707310060000300000000000000118116000000000000001181169900000000000000000000Consumidor Final              000000000042600000000000042600000000000000000000000000000000000000000000000000000000000000000000000000000000000000000000PES00010000001N00000000000000020170810
201707310060000300000000000000118115000000000000001181159900000000000000000000Consumidor Final              000000000072000000000000072000000000000000000000000000000000000000000000000000000000000000000000000000000000000000000000PES00010000001N00000000000000020170810
201707310060000300000000000000118112000000000000001181129900000000000000000000Consumidor Final              000000000072000000000000072000000000000000000000000000000000000000000000000000000000000000000000000000000000000000000000PES00010000001N00000000000000020170810
201707310060000700000000000000543769000000000000005437699900000000000000000000Consumidor Final              000000000080000000000000080000000000000000000000000000000000000000000000000000000000000000000000000000000000000000000000PES00010000001N00000000000000020170810
201707310060000300000000000000118110000000000000001181109900000000000000000000Consumidor Final              000000000072000000000000072000000000000000000000000000000000000000000000000000000000000000000000000000000000000000000000PES00010000001N00000000000000020170810
201707310060000700000000000000543776000000000000005437769900000000000000000000Consumidor Final              000000000089000000000000089000000000000000000000000000000000000000000000000000000000000000000000000000000000000000000000PES00010000001N00000000000000020170810
201707310060000800000000000000186462000000000000001864629900000000000000000000Consumidor Final              000000000062000000000000062000000000000000000000000000000000000000000000000000000000000000000000000000000000000000000000PES00010000001N00000000000000020170810
201707310060000800000000000000186463000000000000001864639900000000000000000000Consumidor Final              000000000062000000000000062000000000000000000000000000000000000000000000000000000000000000000000000000000000000000000000PES00010000001N00000000000000020170810
201707310060000700000000000000543777000000000000005437779900000000000000000000Consumidor Final              000000000080000000000000080000000000000000000000000000000000000000000000000000000000000000000000000000000000000000000000PES00010000001N00000000000000020170810
201707310060000600000000000000763093000000000000007630939900000000000000000000Consumidor Final              000000000080000000000000080000000000000000000000000000000000000000000000000000000000000000000000000000000000000000000000PES00010000001N00000000000000020170810
201707310060000600000000000000763094000000000000007630949900000000000000000000Consumidor Final              000000000072000000000000072000000000000000000000000000000000000000000000000000000000000000000000000000000000000000000000PES00010000001N00000000000000020170810
201707310060000600000000000000763095000000000000007630959900000000000000000000Consumidor Final              000000000086000000000000086000000000000000000000000000000000000000000000000000000000000000000000000000000000000000000000PES00010000001N00000000000000020170810
201707310060000700000000000000543796000000000000005437969900000000000000000000Consumidor Final              000000000075000000000000075000000000000000000000000000000000000000000000000000000000000000000000000000000000000000000000PES00010000001N00000000000000020170810
201707310060000800000000000000186470000000000000001864709900000000000000000000Consumidor Final              000000000062000000000000062000000000000000000000000000000000000000000000000000000000000000000000000000000000000000000000PES00010000001N00000000000000020170810
201707310060000700000000000000543812000000000000005438129900000000000000000000Consumidor Final              000000000072000000000000072000000000000000000000000000000000000000000000000000000000000000000000000000000000000000000000PES00010000001N00000000000000020170810
201707310060000700000000000000543813000000000000005438139900000000000000000000Consumidor Final              000000000083000000000000083000000000000000000000000000000000000000000000000000000000000000000000000000000000000000000000PES00010000001N00000000000000020170810
201707310060000700000000000000543814000000000000005438149900000000000000000000Consumidor Final              000000000086000000000000086000000000000000000000000000000000000000000000000000000000000000000000000000000000000000000000PES00010000001N00000000000000020170810
201707310060000800000000000000186471000000000000001864719900000000000000000000Consumidor Final              000000000062000000000000062000000000000000000000000000000000000000000000000000000000000000000000000000000000000000000000PES00010000001N00000000000000020170810
201707310060000800000000000000186472000000000000001864729900000000000000000000Consumidor Final              000000000062000000000000062000000000000000000000000000000000000000000000000000000000000000000000000000000000000000000000PES00010000001N00000000000000020170810
201707310060000700000000000000543825000000000000005438259900000000000000000000Consumidor Final              000000000072000000000000072000000000000000000000000000000000000000000000000000000000000000000000000000000000000000000000PES00010000001N00000000000000020170810
201707310060000800000000000000186473000000000000001864739900000000000000000000Consumidor Final              000000000072000000000000072000000000000000000000000000000000000000000000000000000000000000000000000000000000000000000000PES00010000001N00000000000000020170810
201707310060000800000000000000186474000000000000001864749900000000000000000000Consumidor Final              000000000062000000000000062000000000000000000000000000000000000000000000000000000000000000000000000000000000000000000000PES00010000001N00000000000000020170810
201707310060000800000000000000186475000000000000001864759900000000000000000000Consumidor Final              000000000062000000000000062000000000000000000000000000000000000000000000000000000000000000000000000000000000000000000000PES00010000001N00000000000000020170810
201707310060000300000000000000118166000000000000001181669900000000000000000000Consumidor Final              000000000072000000000000072000000000000000000000000000000000000000000000000000000000000000000000000000000000000000000000PES00010000001N00000000000000020170810
201707310060000300000000000000118167000000000000001181679900000000000000000000Consumidor Final              000000000072000000000000072000000000000000000000000000000000000000000000000000000000000000000000000000000000000000000000PES00010000001N00000000000000020170810
201707310060000300000000000000118186000000000000001181869900000000000000000000Consumidor Final              000000000086000000000000086000000000000000000000000000000000000000000000000000000000000000000000000000000000000000000000PES00010000001N00000000000000020170810
201707310060000300000000000000118187000000000000001181879900000000000000000000Consumidor Final              000000000086000000000000086000000000000000000000000000000000000000000000000000000000000000000000000000000000000000000000PES00010000001N00000000000000020170810
201707310060000300000000000000118188000000000000001181889900000000000000000000Consumidor Final              000000000086000000000000086000000000000000000000000000000000000000000000000000000000000000000000000000000000000000000000PES00010000001N00000000000000020170810
201707310060000300000000000000118189000000000000001181899900000000000000000000Consumidor Final              000000000072000000000000072000000000000000000000000000000000000000000000000000000000000000000000000000000000000000000000PES00010000001N00000000000000020170810
201707310060000300000000000000118190000000000000001181909900000000000000000000Consumidor Final              000000000072000000000000072000000000000000000000000000000000000000000000000000000000000000000000000000000000000000000000PES00010000001N00000000000000020170810
201707310060000300000000000000118191000000000000001181919900000000000000000000Consumidor Final              000000000086000000000000086000000000000000000000000000000000000000000000000000000000000000000000000000000000000000000000PES00010000001N00000000000000020170810
201707310060000300000000000000118192000000000000001181929900000000000000000000Consumidor Final              000000000086000000000000086000000000000000000000000000000000000000000000000000000000000000000000000000000000000000000000PES00010000001N00000000000000020170810
201707310060000300000000000000118193000000000000001181939900000000000000000000Consumidor Final              000000000072000000000000072000000000000000000000000000000000000000000000000000000000000000000000000000000000000000000000PES00010000001N00000000000000020170810
201707310060000300000000000000118194000000000000001181949900000000000000000000Consumidor Final              000000000072000000000000072000000000000000000000000000000000000000000000000000000000000000000000000000000000000000000000PES00010000001N00000000000000020170810
201707310060000300000000000000118195000000000000001181959900000000000000000000Consumidor Final              000000000078600000000000078600000000000000000000000000000000000000000000000000000000000000000000000000000000000000000000PES00010000001N00000000000000020170810
201707310060000300000000000000118196000000000000001181969900000000000000000000Consumidor Final              000000000078600000000000078600000000000000000000000000000000000000000000000000000000000000000000000000000000000000000000PES00010000001N00000000000000020170810
201707310060000100000000000000201846000000000000002018469900000000000000000000Consumidor Final              000000000078600000000000078600000000000000000000000000000000000000000000000000000000000000000000000000000000000000000000PES00010000001N00000000000000020170810
201707310060000300000000000000118203000000000000001182039900000000000000000000Consumidor Final              000000000086000000000000086000000000000000000000000000000000000000000000000000000000000000000000000000000000000000000000PES00010000001N00000000000000020170810
201707310060000300000000000000118207000000000000001182079900000000000000000000Consumidor Final              000000000072000000000000072000000000000000000000000000000000000000000000000000000000000000000000000000000000000000000000PES00010000001N00000000000000020170810
201707310060000300000000000000118209000000000000001182099900000000000000000000Consumidor Final              000000000072000000000000072000000000000000000000000000000000000000000000000000000000000000000000000000000000000000000000PES00010000001N00000000000000020170810
201707310060000600000000000000763073000000000000007630739900000000000000000000Consumidor Final              000000000078600000000000078600000000000000000000000000000000000000000000000000000000000000000000000000000000000000000000PES00010000001N00000000000000020170810
201707310060000700000000000000543759000000000000005437599900000000000000000000Consumidor Final              000000000072000000000000072000000000000000000000000000000000000000000000000000000000000000000000000000000000000000000000PES00010000001N00000000000000020170810
201707310060000600000000000000763077000000000000007630779900000000000000000000Consumidor Final              000000000086000000000000086000000000000000000000000000000000000000000000000000000000000000000000000000000000000000000000PES00010000001N00000000000000020170810
201707310060000600000000000000763078000000000000007630789900000000000000000000Consumidor Final              000000000069000000000000069000000000000000000000000000000000000000000000000000000000000000000000000000000000000000000000PES00010000001N00000000000000020170810
201707310060000600000000000000763079000000000000007630799900000000000000000000Consumidor Final              000000000078600000000000078600000000000000000000000000000000000000000000000000000000000000000000000000000000000000000000PES00010000001N00000000000000020170810
201707310060000700000000000000543755000000000000005437559900000000000000000000Consumidor Final              000000000072000000000000072000000000000000000000000000000000000000000000000000000000000000000000000000000000000000000000PES00010000001N00000000000000020170810
201707310060000600000000000000763074000000000000007630749900000000000000000000Consumidor Final              000000000078600000000000078600000000000000000000000000000000000000000000000000000000000000000000000000000000000000000000PES00010000001N00000000000000020170810
201707310060000700000000000000543756000000000000005437569900000000000000000000Consumidor Final              000000000078600000000000078600000000000000000000000000000000000000000000000000000000000000000000000000000000000000000000PES00010000001N00000000000000020170810
201707310060000600000000000000763075000000000000007630759900000000000000000000Consumidor Final              000000000078600000000000078600000000000000000000000000000000000000000000000000000000000000000000000000000000000000000000PES00010000001N00000000000000020170810
201707310060000700000000000000543757000000000000005437579900000000000000000000Consumidor Final              000000000042000000000000042000000000000000000000000000000000000000000000000000000000000000000000000000000000000000000000PES00010000001N00000000000000020170810
201707310060000600000000000000763076000000000000007630769900000000000000000000Consumidor Final              000000000093900000000000093900000000000000000000000000000000000000000000000000000000000000000000000000000000000000000000PES00010000001N00000000000000020170810
201707310060000700000000000000543758000000000000005437589900000000000000000000Consumidor Final              000000000072000000000000072000000000000000000000000000000000000000000000000000000000000000000000000000000000000000000000PES00010000001N00000000000000020170810
201707310060000700000000000000543765000000000000005437659900000000000000000000Consumidor Final              000000000079000000000000079000000000000000000000000000000000000000000000000000000000000000000000000000000000000000000000PES00010000001N00000000000000020170810
201707310060000600000000000000763110000000000000007631109900000000000000000000Consumidor Final              000000000078600000000000078600000000000000000000000000000000000000000000000000000000000000000000000000000000000000000000PES00010000001N00000000000000020170810
201707310060000600000000000000763111000000000000007631119900000000000000000000Consumidor Final              000000000072000000000000072000000000000000000000000000000000000000000000000000000000000000000000000000000000000000000000PES00010000001N00000000000000020170810
201707310060000600000000000000763112000000000000007631129900000000000000000000Consumidor Final              000000000078600000000000078600000000000000000000000000000000000000000000000000000000000000000000000000000000000000000000PES00010000001N00000000000000020170810
201707310060000600000000000000763115000000000000007631159900000000000000000000Consumidor Final              000000000072000000000000072000000000000000000000000000000000000000000000000000000000000000000000000000000000000000000000PES00010000001N00000000000000020170810
201707310060000600000000000000763122000000000000007631229900000000000000000000Consumidor Final              000000000078600000000000078600000000000000000000000000000000000000000000000000000000000000000000000000000000000000000000PES00010000001N00000000000000020170810
201707310060000600000000000000763123000000000000007631239900000000000000000000Consumidor Final              000000000078600000000000078600000000000000000000000000000000000000000000000000000000000000000000000000000000000000000000PES00010000001N00000000000000020170810
201707310060000700000000000000543790000000000000005437909900000000000000000000Consumidor Final              000000000072000000000000072000000000000000000000000000000000000000000000000000000000000000000000000000000000000000000000PES00010000001N00000000000000020170810
201707310060000700000000000000543791000000000000005437919900000000000000000000Consumidor Final              000000000072000000000000072000000000000000000000000000000000000000000000000000000000000000000000000000000000000000000000PES00010000001N00000000000000020170810
201707310060000700000000000000543799000000000000005437999900000000000000000000Consumidor Final              000000000072000000000000072000000000000000000000000000000000000000000000000000000000000000000000000000000000000000000000PES00010000001N00000000000000020170810
201707310060000600000000000000763117000000000000007631179900000000000000000000Consumidor Final              000000000072000000000000072000000000000000000000000000000000000000000000000000000000000000000000000000000000000000000000PES00010000001N00000000000000020170810
201707310060000600000000000000763118000000000000007631189900000000000000000000Consumidor Final              000000000072000000000000072000000000000000000000000000000000000000000000000000000000000000000000000000000000000000000000PES00010000001N00000000000000020170810
201707310060000600000000000000763119000000000000007631199900000000000000000000Consumidor Final              000000000072000000000000072000000000000000000000000000000000000000000000000000000000000000000000000000000000000000000000PES00010000001N00000000000000020170810
201707310060000700000000000000543816000000000000005438169900000000000000000000Consumidor Final              000000000078600000000000078600000000000000000000000000000000000000000000000000000000000000000000000000000000000000000000PES00010000001N00000000000000020170810
201707310060000700000000000000543817000000000000005438179900000000000000000000Consumidor Final              000000000086000000000000086000000000000000000000000000000000000000000000000000000000000000000000000000000000000000000000PES00010000001N00000000000000020170810
201707310060000700000000000000543820000000000000005438209900000000000000000000Consumidor Final              000000000075000000000000075000000000000000000000000000000000000000000000000000000000000000000000000000000000000000000000PES00010000001N00000000000000020170810
201707310060000700000000000000543821000000000000005438219900000000000000000000Consumidor Final              000000000072000000000000072000000000000000000000000000000000000000000000000000000000000000000000000000000000000000000000PES00010000001N00000000000000020170810
201707310060000700000000000000543822000000000000005438229900000000000000000000Consumidor Final              000000000072000000000000072000000000000000000000000000000000000000000000000000000000000000000000000000000000000000000000PES00010000001N00000000000000020170810
201707310060000700000000000000543823000000000000005438239900000000000000000000Consumidor Final              000000000078600000000000078600000000000000000000000000000000000000000000000000000000000000000000000000000000000000000000PES00010000001N00000000000000020170810
201707310060000700000000000000543824000000000000005438249900000000000000000000Consumidor Final              000000000072000000000000072000000000000000000000000000000000000000000000000000000000000000000000000000000000000000000000PES00010000001N00000000000000020170810
201707310060000600000000000000763120000000000000007631209900000000000000000000Consumidor Final              000000000078600000000000078600000000000000000000000000000000000000000000000000000000000000000000000000000000000000000000PES00010000001N00000000000000020170810
201707310060000600000000000000763121000000000000007631219900000000000000000000Consumidor Final              000000000072000000000000072000000000000000000000000000000000000000000000000000000000000000000000000000000000000000000000PES00010000001N00000000000000020170810
201707310060000700000000000000543828000000000000005438289900000000000000000000Consumidor Final              000000000072000000000000072000000000000000000000000000000000000000000000000000000000000000000000000000000000000000000000PES00010000001N00000000000000020170810
201707310060000700000000000000543829000000000000005438299900000000000000000000Consumidor Final              000000000072000000000000072000000000000000000000000000000000000000000000000000000000000000000000000000000000000000000000PES00010000001N00000000000000020170810
201707310060000700000000000000543830000000000000005438309000000000099999999999Consumidor Final              000000000120000000000000120000000000000000000000000000000000000000000000000000000000000000000000000000000000000000000000PES00010000001N00000000000000020170810
201707310060000700000000000000543831000000000000005438319900000000000000000000Consumidor Final              000000000038000000000000038000000000000000000000000000000000000000000000000000000000000000000000000000000000000000000000PES00010000001N00000000000000020170810
201707310060000700000000000000543832000000000000005438329900000000000000000000Consumidor Final              000000000072000000000000072000000000000000000000000000000000000000000000000000000000000000000000000000000000000000000000PES00010000001N00000000000000020170810
201707310060000800000000000000186476000000000000001864769900000000000000000000Consumidor Final              000000000062000000000000062000000000000000000000000000000000000000000000000000000000000000000000000000000000000000000000PES00010000001N00000000000000020170810
201707310060000800000000000000186477000000000000001864779900000000000000000000Consumidor Final              000000000062000000000000062000000000000000000000000000000000000000000000000000000000000000000000000000000000000000000000PES00010000001N00000000000000020170810
201707310060000800000000000000186478000000000000001864789900000000000000000000Consumidor Final              000000000062000000000000062000000000000000000000000000000000000000000000000000000000000000000000000000000000000000000000PES00010000001N00000000000000020170810
201707310060000800000000000000186479000000000000001864799900000000000000000000Consumidor Final              000000000062000000000000062000000000000000000000000000000000000000000000000000000000000000000000000000000000000000000000PES00010000001N00000000000000020170810
201707310060000700000000000000543785000000000000005437859900000000000000000000Consumidor Final              000000000080000000000000080000000000000000000000000000000000000000000000000000000000000000000000000000000000000000000000PES00010000001N00000000000000020170810
201707310060000700000000000000543786000000000000005437869900000000000000000000Consumidor Final              000000000072000000000000072000000000000000000000000000000000000000000000000000000000000000000000000000000000000000000000PES00010000001N00000000000000020170810
201707310060000800000000000000186468000000000000001864689900000000000000000000Consumidor Final              000000000062000000000000062000000000000000000000000000000000000000000000000000000000000000000000000000000000000000000000PES00010000001N00000000000000020170810
201707310060000700000000000000543787000000000000005437879900000000000000000000Consumidor Final              000000000072000000000000072000000000000000000000000000000000000000000000000000000000000000000000000000000000000000000000PES00010000001N00000000000000020170810
201707310060000800000000000000186469000000000000001864699900000000000000000000Consumidor Final              000000000062000000000000062000000000000000000000000000000000000000000000000000000000000000000000000000000000000000000000PES00010000001N00000000000000020170810
201707310060000700000000000000543788000000000000005437889900000000000000000000Consumidor Final              000000000072000000000000072000000000000000000000000000000000000000000000000000000000000000000000000000000000000000000000PES00010000001N00000000000000020170810
201707310060000700000000000000543789000000000000005437899900000000000000000000Consumidor Final              000000000072000000000000072000000000000000000000000000000000000000000000000000000000000000000000000000000000000000000000PES00010000001N00000000000000020170810
201707310060000700000000000000543792000000000000005437929900000000000000000000Consumidor Final              000000000070000000000000070000000000000000000000000000000000000000000000000000000000000000000000000000000000000000000000PES00010000001N00000000000000020170810
201707310060000700000000000000543793000000000000005437939900000000000000000000Consumidor Final              000000000033000000000000033000000000000000000000000000000000000000000000000000000000000000000000000000000000000000000000PES00010000001N00000000000000020170810
201707310060000700000000000000543794000000000000005437949900000000000000000000Consumidor Final              000000000069000000000000069000000000000000000000000000000000000000000000000000000000000000000000000000000000000000000000PES00010000001N00000000000000020170810
201707310060000700000000000000543795000000000000005437959900000000000000000000Consumidor Final              000000000069000000000000069000000000000000000000000000000000000000000000000000000000000000000000000000000000000000000000PES00010000001N00000000000000020170810
201707310060000700000000000000543797000000000000005437979900000000000000000000Consumidor Final              000000000087000000000000087000000000000000000000000000000000000000000000000000000000000000000000000000000000000000000000PES00010000001N00000000000000020170810
201707310060000700000000000000543800000000000000005438009900000000000000000000Consumidor Final              000000000086300000000000086300000000000000000000000000000000000000000000000000000000000000000000000000000000000000000000PES00010000001N00000000000000020170810
201707310060000700000000000000543801000000000000005438019900000000000000000000Consumidor Final              000000000072000000000000072000000000000000000000000000000000000000000000000000000000000000000000000000000000000000000000PES00010000001N00000000000000020170810
201707310060000700000000000000543802000000000000005438029900000000000000000000Consumidor Final              000000000078600000000000078600000000000000000000000000000000000000000000000000000000000000000000000000000000000000000000PES00010000001N00000000000000020170810
201707310060000700000000000000543803000000000000005438039900000000000000000000Consumidor Final              000000000086000000000000086000000000000000000000000000000000000000000000000000000000000000000000000000000000000000000000PES00010000001N00000000000000020170810
201707310060000700000000000000543826000000000000005438269900000000000000000000Consumidor Final              000000000089000000000000089000000000000000000000000000000000000000000000000000000000000000000000000000000000000000000000PES00010000001N00000000000000020170810
201707310060000700000000000000543827000000000000005438279900000000000000000000Consumidor Final              000000000086000000000000086000000000000000000000000000000000000000000000000000000000000000000000000000000000000000000000PES00010000001N00000000000000020170810
201707310060000600000000000000763124000000000000007631249000000000099999999999Consumidor Final              000000000120000000000000120000000000000000000000000000000000000000000000000000000000000000000000000000000000000000000000PES00010000001N00000000000000020170810
201707310060000600000000000000763125000000000000007631259000000000099999999999Consumidor Final              000000000101000000000000101000000000000000000000000000000000000000000000000000000000000000000000000000000000000000000000PES00010000001N00000000000000020170810
201707310060000700000000000000543833000000000000005438339900000000000000000000Consumidor Final              000000000072000000000000072000000000000000000000000000000000000000000000000000000000000000000000000000000000000000000000PES00010000001N00000000000000020170810
201707310060000700000000000000543798000000000000005437989900000000000000000000Consumidor Final              000000000072000000000000072000000000000000000000000000000000000000000000000000000000000000000000000000000000000000000000PES00010000001N00000000000000020170810
201707310060000700000000000000543804000000000000005438049900000000000000000000Consumidor Final              000000000072000000000000072000000000000000000000000000000000000000000000000000000000000000000000000000000000000000000000PES00010000001N00000000000000020170810
201707310060000700000000000000543805000000000000005438059900000000000000000000Consumidor Final              000000000078600000000000078600000000000000000000000000000000000000000000000000000000000000000000000000000000000000000000PES00010000001N00000000000000020170810
201707310060000700000000000000543806000000000000005438069900000000000000000000Consumidor Final              000000000072000000000000072000000000000000000000000000000000000000000000000000000000000000000000000000000000000000000000PES00010000001N00000000000000020170810
201707310060000700000000000000543807000000000000005438079900000000000000000000Consumidor Final              000000000072000000000000072000000000000000000000000000000000000000000000000000000000000000000000000000000000000000000000PES00010000001N00000000000000020170810
201707310060000700000000000000543808000000000000005438089900000000000000000000Consumidor Final              000000000072000000000000072000000000000000000000000000000000000000000000000000000000000000000000000000000000000000000000PES00010000001N00000000000000020170810
201707310060000700000000000000543809000000000000005438099900000000000000000000Consumidor Final              000000000042000000000000042000000000000000000000000000000000000000000000000000000000000000000000000000000000000000000000PES00010000001N00000000000000020170810
201707310060000700000000000000543810000000000000005438109900000000000000000000Consumidor Final              000000000072000000000000072000000000000000000000000000000000000000000000000000000000000000000000000000000000000000000000PES00010000001N00000000000000020170810
201707310060000700000000000000543811000000000000005438119900000000000000000000Consumidor Final              000000000072000000000000072000000000000000000000000000000000000000000000000000000000000000000000000000000000000000000000PES00010000001N00000000000000020170810
201707310060000700000000000000543815000000000000005438159900000000000000000000Consumidor Final              000000000078600000000000078600000000000000000000000000000000000000000000000000000000000000000000000000000000000000000000PES00010000001N00000000000000020170810
201707310060000700000000000000543818000000000000005438189900000000000000000000Consumidor Final              000000000089000000000000089000000000000000000000000000000000000000000000000000000000000000000000000000000000000000000000PES00010000001N00000000000000020170810
201707310060000300000000000000118154000000000000001181549900000000000000000000Consumidor Final              000000000040000000000000040000000000000000000000000000000000000000000000000000000000000000000000000000000000000000000000PES00010000001N00000000000000020170810
201707310060000300000000000000118155000000000000001181559900000000000000000000Consumidor Final              000000000072000000000000072000000000000000000000000000000000000000000000000000000000000000000000000000000000000000000000PES00010000001N00000000000000020170810
201707310060000300000000000000118156000000000000001181569900000000000000000000Consumidor Final              000000000069000000000000069000000000000000000000000000000000000000000000000000000000000000000000000000000000000000000000PES00010000001N00000000000000020170810
201707310060000300000000000000118157000000000000001181579900000000000000000000Consumidor Final              000000000072000000000000072000000000000000000000000000000000000000000000000000000000000000000000000000000000000000000000PES00010000001N00000000000000020170810
201707310060000700000000000000543819000000000000005438199900000000000000000000Consumidor Final              000000000062000000000000062000000000000000000000000000000000000000000000000000000000000000000000000000000000000000000000PES00010000001N00000000000000020170810
201707310060000800000000000000186480000000000000001864809900000000000000000000Consumidor Final              000000000062000000000000062000000000000000000000000000000000000000000000000000000000000000000000000000000000000000000000PES00010000001N00000000000000020170810
201707310060000800000000000000186481000000000000001864819900000000000000000000Consumidor Final              000000000062000000000000062000000000000000000000000000000000000000000000000000000000000000000000000000000000000000000000PES00010000001N00000000000000020170810
201707310060000800000000000000186482000000000000001864829900000000000000000000Consumidor Final              000000000072000000000000072000000000000000000000000000000000000000000000000000000000000000000000000000000000000000000000PES00010000001N00000000000000020170810
201707310060000800000000000000186483000000000000001864839900000000000000000000Consumidor Final              000000000072000000000000072000000000000000000000000000000000000000000000000000000000000000000000000000000000000000000000PES00010000001N00000000000000020170810
201707310060000800000000000000186484000000000000001864849900000000000000000000Consumidor Final              000000000062000000000000062000000000000000000000000000000000000000000000000000000000000000000000000000000000000000000000PES00010000001N00000000000000020170810
201707310060000700000000000000543834000000000000005438349900000000000000000000Consumidor Final              000000000078600000000000078600000000000000000000000000000000000000000000000000000000000000000000000000000000000000000000PES00010000001N00000000000000020170810
201707310060000600000000000000763126000000000000007631269900000000000000000000Consumidor Final              000000000078600000000000078600000000000000000000000000000000000000000000000000000000000000000000000000000000000000000000PES00010000001N00000000000000020170810
201707310060000700000000000000543835000000000000005438359900000000000000000000Consumidor Final              000000000072000000000000072000000000000000000000000000000000000000000000000000000000000000000000000000000000000000000000PES00010000001N00000000000000020170810
201707310060000700000000000000543836000000000000005438369900000000000000000000Consumidor Final              000000000087000000000000087000000000000000000000000000000000000000000000000000000000000000000000000000000000000000000000PES00010000001N00000000000000020170810
201707310060000600000000000000763127000000000000007631279900000000000000000000Consumidor Final              000000000039000000000000039000000000000000000000000000000000000000000000000000000000000000000000000000000000000000000000PES00010000001N00000000000000020170810
201707310060000300000000000000118159000000000000001181599900000000000000000000Consumidor Final              000000000072000000000000072000000000000000000000000000000000000000000000000000000000000000000000000000000000000000000000PES00010000001N00000000000000020170810
201707310060000300000000000000118160000000000000001181609900000000000000000000Consumidor Final              000000000078600000000000078600000000000000000000000000000000000000000000000000000000000000000000000000000000000000000000PES00010000001N00000000000000020170810
201707310060000700000000000000543837000000000000005438379900000000000000000000Consumidor Final              000000000072000000000000072000000000000000000000000000000000000000000000000000000000000000000000000000000000000000000000PES00010000001N00000000000000020170810
201707310060000700000000000000543838000000000000005438389900000000000000000000Consumidor Final              000000000078600000000000078600000000000000000000000000000000000000000000000000000000000000000000000000000000000000000000PES00010000001N00000000000000020170810
201707310060000600000000000000763130000000000000007631309900000000000000000000Consumidor Final              000000000078600000000000078600000000000000000000000000000000000000000000000000000000000000000000000000000000000000000000PES00010000001N00000000000000020170810
201707310060000600000000000000763131000000000000007631319900000000000000000000Consumidor Final              000000000078600000000000078600000000000000000000000000000000000000000000000000000000000000000000000000000000000000000000PES00010000001N00000000000000020170810
201707310060000800000000000000186485000000000000001864859900000000000000000000Consumidor Final              000000000062000000000000062000000000000000000000000000000000000000000000000000000000000000000000000000000000000000000000PES00010000001N00000000000000020170810
201707310060000900000000000000039764000000000000000397649900000000000000000000Consumidor Final              000000000072000000000000072000000000000000000000000000000000000000000000000000000000000000000000000000000000000000000000PES00010000001N00000000000000020170810
201707310060000300000000000000118158000000000000001181589900000000000000000000Consumidor Final              000000000072000000000000072000000000000000000000000000000000000000000000000000000000000000000000000000000000000000000000PES00010000001N00000000000000020170810
201707310510000100000000000000000913000000000000000009138000000000030648152732PROM TV SA                    000000000078600000000000078600000000000000000000000000000000000000000000000000000000000000000000000000000000000000000000PES00010000001N00000000000000000000000
201707310060000600000000000000763128000000000000007631289900000000000000000000Consumidor Final              000000000072000000000000072000000000000000000000000000000000000000000000000000000000000000000000000000000000000000000000PES00010000001N00000000000000020170810
201707310060000600000000000000763129000000000000007631299900000000000000000000Consumidor Final              000000000078600000000000078600000000000000000000000000000000000000000000000000000000000000000000000000000000000000000000PES00010000001N00000000000000020170810
201707310060000800000000000000186486000000000000001864869900000000000000000000Consumidor Final              000000000062000000000000062000000000000000000000000000000000000000000000000000000000000000000000000000000000000000000000PES00010000001N00000000000000020170810
201707310060000800000000000000186487000000000000001864879900000000000000000000Consumidor Final              000000000062000000000000062000000000000000000000000000000000000000000000000000000000000000000000000000000000000000000000PES00010000001N00000000000000020170810
201707310060000800000000000000186488000000000000001864889900000000000000000000Consumidor Final              000000000062000000000000062000000000000000000000000000000000000000000000000000000000000000000000000000000000000000000000PES00010000001N00000000000000020170810
201707310060000800000000000000186489000000000000001864899900000000000000000000Consumidor Final              000000000062000000000000062000000000000000000000000000000000000000000000000000000000000000000000000000000000000000000000PES00010000001N00000000000000020170810
201707310060000800000000000000186490000000000000001864909900000000000000000000Consumidor Final              000000000062000000000000062000000000000000000000000000000000000000000000000000000000000000000000000000000000000000000000PES00010000001N00000000000000020170810
201707310060000800000000000000186491000000000000001864919900000000000000000000Consumidor Final              000000000062000000000000062000000000000000000000000000000000000000000000000000000000000000000000000000000000000000000000PES00010000001N00000000000000020170810
201707310060000800000000000000186492000000000000001864929900000000000000000000Consumidor Final              000000000062000000000000062000000000000000000000000000000000000000000000000000000000000000000000000000000000000000000000PES00010000001N00000000000000020170810
201707310060000900000000000000039759000000000000000397599900000000000000000000Consumidor Final              000000000072000000000000072000000000000000000000000000000000000000000000000000000000000000000000000000000000000000000000PES00010000001N00000000000000020170810
201707310060000900000000000000039760000000000000000397609900000000000000000000Consumidor Final              000000000080000000000000080000000000000000000000000000000000000000000000000000000000000000000000000000000000000000000000PES00010000001N00000000000000020170810
201707310060000900000000000000039761000000000000000397619900000000000000000000Consumidor Final              000000000062000000000000062000000000000000000000000000000000000000000000000000000000000000000000000000000000000000000000PES00010000001N00000000000000020170810
201707310060000900000000000000039762000000000000000397628000000000030714456306Consumidor Final              000000000072000000000000072000000000000000000000000000000000000000000000000000000000000000000000000000000000000000000000PES00010000001N00000000000000020170810
201707310060000900000000000000039763000000000000000397639900000000000000000000Consumidor Final              000000000072000000000000072000000000000000000000000000000000000000000000000000000000000000000000000000000000000000000000PES00010000001N00000000000000020170810
201707310060000300000000000000118162000000000000001181629900000000000000000000Consumidor Final              000000000078600000000000078600000000000000000000000000000000000000000000000000000000000000000000000000000000000000000000PES00010000001N00000000000000020170810
201707310060000300000000000000118164000000000000001181649900000000000000000000Consumidor Final              000000000078600000000000078600000000000000000000000000000000000000000000000000000000000000000000000000000000000000000000PES00010000001N00000000000000020170810
201707310060000300000000000000118168000000000000001181689900000000000000000000Consumidor Final              000000000072000000000000072000000000000000000000000000000000000000000000000000000000000000000000000000000000000000000000PES00010000001N00000000000000020170810
201707310060000300000000000000118169000000000000001181699900000000000000000000Consumidor Final              000000000072000000000000072000000000000000000000000000000000000000000000000000000000000000000000000000000000000000000000PES00010000001N00000000000000020170810
201707310060000300000000000000118170000000000000001181709900000000000000000000Consumidor Final              000000000073200000000000073200000000000000000000000000000000000000000000000000000000000000000000000000000000000000000000PES00010000001N00000000000000020170810
201707310060000300000000000000118171000000000000001181719900000000000000000000Consumidor Final              000000000072000000000000072000000000000000000000000000000000000000000000000000000000000000000000000000000000000000000000PES00010000001N00000000000000020170810
201707310060000300000000000000118173000000000000001181739900000000000000000000Consumidor Final              000000000072000000000000072000000000000000000000000000000000000000000000000000000000000000000000000000000000000000000000PES00010000001N00000000000000020170810
201707310060000300000000000000118174000000000000001181749900000000000000000000Consumidor Final              000000000078600000000000078600000000000000000000000000000000000000000000000000000000000000000000000000000000000000000000PES00010000001N00000000000000020170810
201707310060000300000000000000118175000000000000001181759900000000000000000000Consumidor Final              000000000072000000000000072000000000000000000000000000000000000000000000000000000000000000000000000000000000000000000000PES00010000001N00000000000000020170810
201707310060000300000000000000118176000000000000001181769900000000000000000000Consumidor Final              000000000039000000000000039000000000000000000000000000000000000000000000000000000000000000000000000000000000000000000000PES00010000001N00000000000000020170810
201707310060000300000000000000118178000000000000001181789900000000000000000000Consumidor Final              000000000072000000000000072000000000000000000000000000000000000000000000000000000000000000000000000000000000000000000000PES00010000001N00000000000000020170810
201707310060000300000000000000118179000000000000001181799900000000000000000000Consumidor Final              000000000072000000000000072000000000000000000000000000000000000000000000000000000000000000000000000000000000000000000000PES00010000001N00000000000000020170810
201707310060000300000000000000118180000000000000001181809900000000000000000000Consumidor Final              000000000078600000000000078600000000000000000000000000000000000000000000000000000000000000000000000000000000000000000000PES00010000001N00000000000000020170810
201707310510000100000000000000000914000000000000000009148000000000030712165118QUELIJA SA                    000000000072000000000000072000000000000000000000000000000000000000000000000000000000000000000000000000000000000000000000PES00010000001N00000000000000000000000
201707310510000100000000000000000915000000000000000009158000000000030661713441AXSYS COMUNICACIONES DE ARGENT000000000062000000000000062000000000000000000000000000000000000000000000000000000000000000000000000000000000000000000000PES00010000001N00000000000000000000000
201707310060000300000000000000118161000000000000001181619900000000000000000000Consumidor Final              000000000072000000000000072000000000000000000000000000000000000000000000000000000000000000000000000000000000000000000000PES00010000001N00000000000000020170810
201707310060000300000000000000118163000000000000001181639900000000000000000000Consumidor Final              000000000093900000000000093900000000000000000000000000000000000000000000000000000000000000000000000000000000000000000000PES00010000001N00000000000000020170810
201707310060000300000000000000118165000000000000001181659900000000000000000000Consumidor Final              000000000040000000000000040000000000000000000000000000000000000000000000000000000000000000000000000000000000000000000000PES00010000001N00000000000000020170810
201707310060000300000000000000118172000000000000001181729900000000000000000000Consumidor Final              000000000072000000000000072000000000000000000000000000000000000000000000000000000000000000000000000000000000000000000000PES00010000001N00000000000000020170810
201707310060000300000000000000118177000000000000001181779900000000000000000000Consumidor Final              000000000072000000000000072000000000000000000000000000000000000000000000000000000000000000000000000000000000000000000000PES00010000001N00000000000000020170810
201707310060000300000000000000118181000000000000001181819900000000000000000000Consumidor Final              000000000072000000000000072000000000000000000000000000000000000000000000000000000000000000000000000000000000000000000000PES00010000001N00000000000000020170810
201707310060000300000000000000118185000000000000001181859900000000000000000000Consumidor Final              000000000086000000000000086000000000000000000000000000000000000000000000000000000000000000000000000000000000000000000000PES00010000001N00000000000000020170810
201707310060000300000000000000118198000000000000001181989900000000000000000000Consumidor Final              000000000078600000000000078600000000000000000000000000000000000000000000000000000000000000000000000000000000000000000000PES00010000001N00000000000000020170810
201707310060000300000000000000118182000000000000001181829900000000000000000000Consumidor Final              000000000072000000000000072000000000000000000000000000000000000000000000000000000000000000000000000000000000000000000000PES00010000001N00000000000000020170810
201707310060000100000000000000201856000000000000002018569900000000000000000000Consumidor Final              000000000072000000000000072000000000000000000000000000000000000000000000000000000000000000000000000000000000000000000000PES00010000001N00000000000000020170810
201707310060000300000000000000118184000000000000001181849900000000000000000000Consumidor Final              000000000067700000000000067700000000000000000000000000000000000000000000000000000000000000000000000000000000000000000000PES00010000001N00000000000000020170810
201707310060000300000000000000118197000000000000001181979900000000000000000000Consumidor Final              000000000078600000000000078600000000000000000000000000000000000000000000000000000000000000000000000000000000000000000000PES00010000001N00000000000000020170810
201707310060000300000000000000118200000000000000001182009900000000000000000000Consumidor Final              000000000072000000000000072000000000000000000000000000000000000000000000000000000000000000000000000000000000000000000000PES00010000001N00000000000000020170810
201707310060000300000000000000118202000000000000001182029900000000000000000000Consumidor Final              000000000072000000000000072000000000000000000000000000000000000000000000000000000000000000000000000000000000000000000000PES00010000001N00000000000000020170810
201707310060000100000000000000201840000000000000002018409900000000000000000000Consumidor Final              000000000072000000000000072000000000000000000000000000000000000000000000000000000000000000000000000000000000000000000000PES00010000001N00000000000000020170810
201707310060000100000000000000201842000000000000002018429900000000000000000000Consumidor Final              000000000062000000000000062000000000000000000000000000000000000000000000000000000000000000000000000000000000000000000000PES00010000001N00000000000000020170810
201707310060000100000000000000201844000000000000002018449900000000000000000000Consumidor Final              000000000072000000000000072000000000000000000000000000000000000000000000000000000000000000000000000000000000000000000000PES00010000001N00000000000000020170810
201707310060000300000000000000118199000000000000001181999900000000000000000000Consumidor Final              000000000078600000000000078600000000000000000000000000000000000000000000000000000000000000000000000000000000000000000000PES00010000001N00000000000000020170810
201707310060000300000000000000118204000000000000001182049000000000099999999999Consumidor Final              000000000116000000000000116000000000000000000000000000000000000000000000000000000000000000000000000000000000000000000000PES00010000001N00000000000000020170810
201707310060000300000000000000118201000000000000001182019900000000000000000000Consumidor Final              000000000078600000000000078600000000000000000000000000000000000000000000000000000000000000000000000000000000000000000000PES00010000001N00000000000000020170810
201707310060000100000000000000201860000000000000002018609900000000000000000000Consumidor Final              000000000039000000000000039000000000000000000000000000000000000000000000000000000000000000000000000000000000000000000000PES00010000001N00000000000000020170810
201707310060000100000000000000201862000000000000002018629900000000000000000000Consumidor Final              000000000086000000000000086000000000000000000000000000000000000000000000000000000000000000000000000000000000000000000000PES00010000001N00000000000000020170810
201707310060000100000000000000201865000000000000002018659900000000000000000000Consumidor Final              000000000072000000000000072000000000000000000000000000000000000000000000000000000000000000000000000000000000000000000000PES00010000001N00000000000000020170810
201707310060000100000000000000201831000000000000002018319900000000000000000000Consumidor Final              000000000072000000000000072000000000000000000000000000000000000000000000000000000000000000000000000000000000000000000000PES00010000001N00000000000000020170810
201707310060000100000000000000201832000000000000002018329900000000000000000000Consumidor Final              000000000072000000000000072000000000000000000000000000000000000000000000000000000000000000000000000000000000000000000000PES00010000001N00000000000000020170810
201707310060000100000000000000201833000000000000002018339900000000000000000000Consumidor Final              000000000072000000000000072000000000000000000000000000000000000000000000000000000000000000000000000000000000000000000000PES00010000001N00000000000000020170810
201707310060000100000000000000201834000000000000002018349900000000000000000000Consumidor Final              000000000072000000000000072000000000000000000000000000000000000000000000000000000000000000000000000000000000000000000000PES00010000001N00000000000000020170810
201707310060000100000000000000201835000000000000002018359900000000000000000000Consumidor Final              000000000078600000000000078600000000000000000000000000000000000000000000000000000000000000000000000000000000000000000000PES00010000001N00000000000000020170810
201707310060000100000000000000201836000000000000002018369900000000000000000000Consumidor Final              000000000072000000000000072000000000000000000000000000000000000000000000000000000000000000000000000000000000000000000000PES00010000001N00000000000000020170810
201707310060000100000000000000201837000000000000002018379900000000000000000000Consumidor Final              000000000069000000000000069000000000000000000000000000000000000000000000000000000000000000000000000000000000000000000000PES00010000001N00000000000000020170810
201707310060000100000000000000201838000000000000002018389900000000000000000000Consumidor Final              000000000072000000000000072000000000000000000000000000000000000000000000000000000000000000000000000000000000000000000000PES00010000001N00000000000000020170810
201707310060000100000000000000201839000000000000002018399900000000000000000000Consumidor Final              000000000072000000000000072000000000000000000000000000000000000000000000000000000000000000000000000000000000000000000000PES00010000001N00000000000000020170810
201707310060000100000000000000201841000000000000002018419900000000000000000000Consumidor Final              000000000035000000000000035000000000000000000000000000000000000000000000000000000000000000000000000000000000000000000000PES00010000001N00000000000000020170810
201707310060000100000000000000201843000000000000002018439900000000000000000000Consumidor Final              000000000086000000000000086000000000000000000000000000000000000000000000000000000000000000000000000000000000000000000000PES00010000001N00000000000000020170810
201707310060000100000000000000201852000000000000002018529900000000000000000000Consumidor Final              000000000072000000000000072000000000000000000000000000000000000000000000000000000000000000000000000000000000000000000000PES00010000001N00000000000000020170810
201707310060000100000000000000201845000000000000002018459900000000000000000000Consumidor Final              000000000072000000000000072000000000000000000000000000000000000000000000000000000000000000000000000000000000000000000000PES00010000001N00000000000000020170810
201707310060000100000000000000201847000000000000002018479900000000000000000000Consumidor Final              000000000078600000000000078600000000000000000000000000000000000000000000000000000000000000000000000000000000000000000000PES00010000001N00000000000000020170810
201707310060000100000000000000201848000000000000002018489900000000000000000000Consumidor Final              000000000072000000000000072000000000000000000000000000000000000000000000000000000000000000000000000000000000000000000000PES00010000001N00000000000000020170810
201707310060000100000000000000201849000000000000002018499900000000000000000000Consumidor Final              000000000078600000000000078600000000000000000000000000000000000000000000000000000000000000000000000000000000000000000000PES00010000001N00000000000000020170810
201707310060000100000000000000201850000000000000002018509900000000000000000000Consumidor Final              000000000072000000000000072000000000000000000000000000000000000000000000000000000000000000000000000000000000000000000000PES00010000001N00000000000000020170810
201707310060000100000000000000201851000000000000002018519900000000000000000000Consumidor Final              000000000086000000000000086000000000000000000000000000000000000000000000000000000000000000000000000000000000000000000000PES00010000001N00000000000000020170810
201707310060000100000000000000201853000000000000002018539900000000000000000000Consumidor Final              000000000086000000000000086000000000000000000000000000000000000000000000000000000000000000000000000000000000000000000000PES00010000001N00000000000000020170810
201707310060000100000000000000201854000000000000002018549900000000000000000000Consumidor Final              000000000072000000000000072000000000000000000000000000000000000000000000000000000000000000000000000000000000000000000000PES00010000001N00000000000000020170810
201707310060000100000000000000201855000000000000002018559900000000000000000000Consumidor Final              000000000072000000000000072000000000000000000000000000000000000000000000000000000000000000000000000000000000000000000000PES00010000001N00000000000000020170810
201707310060000100000000000000201857000000000000002018579900000000000000000000Consumidor Final              000000000072000000000000072000000000000000000000000000000000000000000000000000000000000000000000000000000000000000000000PES00010000001N00000000000000020170810
201707310060000100000000000000201858000000000000002018589900000000000000000000Consumidor Final              000000000072000000000000072000000000000000000000000000000000000000000000000000000000000000000000000000000000000000000000PES00010000001N00000000000000020170810
201707310060000100000000000000201859000000000000002018599900000000000000000000Consumidor Final              000000000086000000000000086000000000000000000000000000000000000000000000000000000000000000000000000000000000000000000000PES00010000001N00000000000000020170810
201707310060000100000000000000201861000000000000002018619900000000000000000000Consumidor Final              000000000072000000000000072000000000000000000000000000000000000000000000000000000000000000000000000000000000000000000000PES00010000001N00000000000000020170810
201707310060000100000000000000201863000000000000002018639900000000000000000000Consumidor Final              000000000072000000000000072000000000000000000000000000000000000000000000000000000000000000000000000000000000000000000000PES00010000001N00000000000000020170810
201707310060000100000000000000201864000000000000002018649900000000000000000000Consumidor Final              000000000072000000000000072000000000000000000000000000000000000000000000000000000000000000000000000000000000000000000000PES00010000001N00000000000000020170810
201707310060000100000000000000201866000000000000002018669900000000000000000000Consumidor Final              000000000086000000000000086000000000000000000000000000000000000000000000000000000000000000000000000000000000000000000000PES00010000001N00000000000000020170810
201707310060000100000000000000201867000000000000002018679900000000000000000000Consumidor Final              000000000039000000000000039000000000000000000000000000000000000000000000000000000000000000000000000000000000000000000000PES00010000001N00000000000000020170810
201707310060000100000000000000201868000000000000002018689900000000000000000000Consumidor Final              000000000046000000000000046000000000000000000000000000000000000000000000000000000000000000000000000000000000000000000000PES00010000001N00000000000000020170810
201707310060000100000000000000201869000000000000002018699900000000000000000000Consumidor Final              000000000086000000000000086000000000000000000000000000000000000000000000000000000000000000000000000000000000000000000000PES00010000001N00000000000000020170810
201707310060000100000000000000201870000000000000002018709900000000000000000000Consumidor Final              000000000078600000000000078600000000000000000000000000000000000000000000000000000000000000000000000000000000000000000000PES00010000001N00000000000000020170810
201707310060000300000000000000118205000000000000001182059900000000000000000000Consumidor Final              000000000072000000000000072000000000000000000000000000000000000000000000000000000000000000000000000000000000000000000000PES00010000001N00000000000000020170810
201707310060000300000000000000118206000000000000001182069900000000000000000000Consumidor Final              000000000072000000000000072000000000000000000000000000000000000000000000000000000000000000000000000000000000000000000000PES00010000001N00000000000000020170810
201707310060000300000000000000118208000000000000001182089900000000000000000000Consumidor Final              000000000078600000000000078600000000000000000000000000000000000000000000000000000000000000000000000000000000000000000000PES00010000001N00000000000000020170810
201707310060000300000000000000118210000000000000001182109900000000000000000000Consumidor Final              000000000086000000000000086000000000000000000000000000000000000000000000000000000000000000000000000000000000000000000000PES00010000001N00000000000000020170810
201707310060000400000000000000015255000000000000000152559900000000000000000000Consumidor Final              000000000039000000000000039000000000000000000000000000000000000000000000000000000000000000000000000000000000000000000000PES00010000001N00000000000000020170810
201707310060000400000000000000015256000000000000000152569900000000000000000000Consumidor Final              000000000097000000000000097000000000000000000000000000000000000000000000000000000000000000000000000000000000000000000000PES00010000001N00000000000000020170810
201707310060000400000000000000015258000000000000000152589900000000000000000000Consumidor Final              000000000033000000000000033000000000000000000000000000000000000000000000000000000000000000000000000000000000000000000000PES00010000001N00000000000000020170810
201707310060000400000000000000015242000000000000000152429900000000000000000000Consumidor Final              000000000062000000000000062000000000000000000000000000000000000000000000000000000000000000000000000000000000000000000000PES00010000001N00000000000000020170810
201707310060000400000000000000015245000000000000000152459900000000000000000000Consumidor Final              000000000072000000000000072000000000000000000000000000000000000000000000000000000000000000000000000000000000000000000000PES00010000001N00000000000000020170810
201707310060000400000000000000015248000000000000000152489900000000000000000000Consumidor Final              000000000072000000000000072000000000000000000000000000000000000000000000000000000000000000000000000000000000000000000000PES00010000001N00000000000000020170810
201707310060000400000000000000015250000000000000000152509900000000000000000000Consumidor Final              000000000062000000000000062000000000000000000000000000000000000000000000000000000000000000000000000000000000000000000000PES00010000001N00000000000000020170810
201707310060000400000000000000015253000000000000000152539900000000000000000000Consumidor Final              000000000039000000000000039000000000000000000000000000000000000000000000000000000000000000000000000000000000000000000000PES00010000001N00000000000000020170810
201707310060000400000000000000015241000000000000000152419900000000000000000000Consumidor Final              000000000072000000000000072000000000000000000000000000000000000000000000000000000000000000000000000000000000000000000000PES00010000001N00000000000000020170810
201707310060000400000000000000015243000000000000000152439900000000000000000000Consumidor Final              000000000086000000000000086000000000000000000000000000000000000000000000000000000000000000000000000000000000000000000000PES00010000001N00000000000000020170810
201707310060000400000000000000015244000000000000000152449900000000000000000000Consumidor Final              000000000072000000000000072000000000000000000000000000000000000000000000000000000000000000000000000000000000000000000000PES00010000001N00000000000000020170810
201707310060000400000000000000015246000000000000000152469900000000000000000000Consumidor Final              000000000062000000000000062000000000000000000000000000000000000000000000000000000000000000000000000000000000000000000000PES00010000001N00000000000000020170810
201707310060000400000000000000015247000000000000000152479900000000000000000000Consumidor Final              000000000068000000000000068000000000000000000000000000000000000000000000000000000000000000000000000000000000000000000000PES00010000001N00000000000000020170810
201707310060000400000000000000015249000000000000000152499900000000000000000000Consumidor Final              000000000033000000000000033000000000000000000000000000000000000000000000000000000000000000000000000000000000000000000000PES00010000001N00000000000000020170810
201707310060000400000000000000015251000000000000000152519900000000000000000000Consumidor Final              000000000062000000000000062000000000000000000000000000000000000000000000000000000000000000000000000000000000000000000000PES00010000001N00000000000000020170810
201707310060000400000000000000015252000000000000000152529900000000000000000000Consumidor Final              000000000072000000000000072000000000000000000000000000000000000000000000000000000000000000000000000000000000000000000000PES00010000001N00000000000000020170810
201707310060000400000000000000015254000000000000000152549900000000000000000000Consumidor Final              000000000072000000000000072000000000000000000000000000000000000000000000000000000000000000000000000000000000000000000000PES00010000001N00000000000000020170810
201707310060000400000000000000015257000000000000000152579900000000000000000000Consumidor Final              000000000075000000000000075000000000000000000000000000000000000000000000000000000000000000000000000000000000000000000000PES00010000001N00000000000000020170810
201707310060000600000000000000763080000000000000007630809900000000000000000000Consumidor Final              000000000098300000000000098300000000000000000000000000000000000000000000000000000000000000000000000000000000000000000000PES00010000001N00000000000000020170810
201707310060000700000000000000543760000000000000005437609900000000000000000000Consumidor Final              000000000072000000000000072000000000000000000000000000000000000000000000000000000000000000000000000000000000000000000000PES00010000001N00000000000000020170810
201707310060000700000000000000543761000000000000005437619900000000000000000000Consumidor Final              000000000086000000000000086000000000000000000000000000000000000000000000000000000000000000000000000000000000000000000000PES00010000001N00000000000000020170810
201707310060000700000000000000543762000000000000005437629900000000000000000000Consumidor Final              000000000086000000000000086000000000000000000000000000000000000000000000000000000000000000000000000000000000000000000000PES00010000001N00000000000000020170810
201707310060000700000000000000543764000000000000005437649900000000000000000000Consumidor Final              000000000068000000000000068000000000000000000000000000000000000000000000000000000000000000000000000000000000000000000000PES00010000001N00000000000000020170810
201707310060000700000000000000543766000000000000005437669900000000000000000000Consumidor Final              000000000075000000000000075000000000000000000000000000000000000000000000000000000000000000000000000000000000000000000000PES00010000001N00000000000000020170810
201707310060000800000000000000186461000000000000001864619900000000000000000000Consumidor Final              000000000062000000000000062000000000000000000000000000000000000000000000000000000000000000000000000000000000000000000000PES00010000001N00000000000000020170810
201707310060000600000000000000763081000000000000007630819900000000000000000000Consumidor Final              000000000040000000000000040000000000000000000000000000000000000000000000000000000000000000000000000000000000000000000000PES00010000001N00000000000000020170810
201707310060000600000000000000763083000000000000007630839900000000000000000000Consumidor Final              000000000078600000000000078600000000000000000000000000000000000000000000000000000000000000000000000000000000000000000000PES00010000001N00000000000000020170810
201707310060000300000000000000118138000000000000001181389900000000000000000000Consumidor Final              000000000062000000000000062000000000000000000000000000000000000000000000000000000000000000000000000000000000000000000000PES00010000001N00000000000000020170810
201707310060000300000000000000118137000000000000001181379900000000000000000000Consumidor Final              000000000072000000000000072000000000000000000000000000000000000000000000000000000000000000000000000000000000000000000000PES00010000001N00000000000000020170810
201707310060000300000000000000118135000000000000001181359900000000000000000000Consumidor Final              000000000035000000000000035000000000000000000000000000000000000000000000000000000000000000000000000000000000000000000000PES00010000001N00000000000000020170810
201707310060000300000000000000118133000000000000001181339900000000000000000000Consumidor Final              000000000072000000000000072000000000000000000000000000000000000000000000000000000000000000000000000000000000000000000000PES00010000001N00000000000000020170810
201707310060000300000000000000118132000000000000001181329900000000000000000000Consumidor Final              000000000079000000000000079000000000000000000000000000000000000000000000000000000000000000000000000000000000000000000000PES00010000001N00000000000000020170810
201707310060000300000000000000118129000000000000001181299900000000000000000000Consumidor Final              000000000069000000000000069000000000000000000000000000000000000000000000000000000000000000000000000000000000000000000000PES00010000001N00000000000000020170810
201707310060000300000000000000118127000000000000001181279900000000000000000000Consumidor Final              000000000078600000000000078600000000000000000000000000000000000000000000000000000000000000000000000000000000000000000000PES00010000001N00000000000000020170810
201707310060000300000000000000118124000000000000001181249900000000000000000000Consumidor Final              000000000072000000000000072000000000000000000000000000000000000000000000000000000000000000000000000000000000000000000000PES00010000001N00000000000000020170810
201707310060000300000000000000118120000000000000001181209900000000000000000000Consumidor Final              000000000086000000000000086000000000000000000000000000000000000000000000000000000000000000000000000000000000000000000000PES00010000001N00000000000000020170810
201707310060000300000000000000118118000000000000001181189900000000000000000000Consumidor Final              000000000086000000000000086000000000000000000000000000000000000000000000000000000000000000000000000000000000000000000000PES00010000001N00000000000000020170810
201707310060000300000000000000118114000000000000001181149900000000000000000000Consumidor Final              000000000072000000000000072000000000000000000000000000000000000000000000000000000000000000000000000000000000000000000000PES00010000001N00000000000000020170810
201707310060000300000000000000118106000000000000001181069900000000000000000000Consumidor Final              000000000062000000000000062000000000000000000000000000000000000000000000000000000000000000000000000000000000000000000000PES00010000001N00000000000000020170810
201707310060000600000000000000763084000000000000007630849000000000099999999999Consumidor Final              000000000103700000000000103700000000000000000000000000000000000000000000000000000000000000000000000000000000000000000000PES00010000001N00000000000000020170810
201707310060000700000000000000543770000000000000005437709900000000000000000000Consumidor Final              000000000078600000000000078600000000000000000000000000000000000000000000000000000000000000000000000000000000000000000000PES00010000001N00000000000000020170810
201707310060000600000000000000763085000000000000007630859900000000000000000000Consumidor Final              000000000078600000000000078600000000000000000000000000000000000000000000000000000000000000000000000000000000000000000000PES00010000001N00000000000000020170810
201707310060000300000000000000118130000000000000001181309900000000000000000000Consumidor Final              000000000072000000000000072000000000000000000000000000000000000000000000000000000000000000000000000000000000000000000000PES00010000001N00000000000000020170810
201707310060000300000000000000118126000000000000001181269000000000099999999999Consumidor Final              000000000129000000000000129000000000000000000000000000000000000000000000000000000000000000000000000000000000000000000000PES00010000001N00000000000000020170810
201707310060000300000000000000118122000000000000001181229900000000000000000000Consumidor Final              000000000072000000000000072000000000000000000000000000000000000000000000000000000000000000000000000000000000000000000000PES00010000001N00000000000000020170810
201707310060000300000000000000118113000000000000001181139900000000000000000000Consumidor Final              000000000072000000000000072000000000000000000000000000000000000000000000000000000000000000000000000000000000000000000000PES00010000001N00000000000000020170810
201707310060000300000000000000118111000000000000001181119900000000000000000000Consumidor Final              000000000080000000000000080000000000000000000000000000000000000000000000000000000000000000000000000000000000000000000000PES00010000001N00000000000000020170810
201707310060000300000000000000118109000000000000001181099900000000000000000000Consumidor Final              000000000072000000000000072000000000000000000000000000000000000000000000000000000000000000000000000000000000000000000000PES00010000001N00000000000000020170810
201707310060000300000000000000118107000000000000001181079900000000000000000000Consumidor Final              000000000072000000000000072000000000000000000000000000000000000000000000000000000000000000000000000000000000000000000000PES00010000001N00000000000000020170810
201707310060000300000000000000118104000000000000001181049900000000000000000000Consumidor Final              000000000078600000000000078600000000000000000000000000000000000000000000000000000000000000000000000000000000000000000000PES00010000001N00000000000000020170810
201707310060000300000000000000118103000000000000001181039000000000099999999999Consumidor Final              000000000122000000000000122000000000000000000000000000000000000000000000000000000000000000000000000000000000000000000000PES00010000001N00000000000000020170810
