201501120060000700000000000000387117000000000000003871179900000000000000000000Consumidor Final              000000000040000000000000000000000000000000000000000000000000000000000000000000000000000000000000000000000000000000000000PES00010000001 00000000000000020150122
201501120060000700000000000000387119000000000000003871199900000000000000000000Consumidor Final              000000000043000000000000000000000000000000000000000000000000000000000000000000000000000000000000000000000000000000000000PES00010000001 00000000000000020150122
201501120060000700000000000000387120000000000000003871209900000000000000000000Consumidor Final              000000000043000000000000000000000000000000000000000000000000000000000000000000000000000000000000000000000000000000000000PES00010000001 00000000000000020150122
201501120060000700000000000000387121000000000000003871219900000000000000000000Consumidor Final              000000000040000000000000000000000000000000000000000000000000000000000000000000000000000000000000000000000000000000000000PES00010000001 00000000000000020150122
201501120060000700000000000000387122000000000000003871229900000000000000000000Consumidor Final              000000000040000000000000000000000000000000000000000000000000000000000000000000000000000000000000000000000000000000000000PES00010000001 00000000000000020150122
201501120060000700000000000000387123000000000000003871239900000000000000000000Consumidor Final              000000000040000000000000000000000000000000000000000000000000000000000000000000000000000000000000000000000000000000000000PES00010000001 00000000000000020150122
201501120060000600000000000000597730000000000000005977309900000000000000000000Consumidor Final              000000000051000000000000000000000000000000000000000000000000000000000000000000000000000000000000000000000000000000000000PES00010000001 00000000000000020150122
201501120060000700000000000000387133000000000000003871339900000000000000000000Consumidor Final              000000000040000000000000000000000000000000000000000000000000000000000000000000000000000000000000000000000000000000000000PES00010000001 00000000000000020150122
201501120060000700000000000000387134000000000000003871349900000000000000000000Consumidor Final              000000000040000000000000000000000000000000000000000000000000000000000000000000000000000000000000000000000000000000000000PES00010000001 00000000000000020150122
201501120060000700000000000000387135000000000000003871359900000000000000000000Consumidor Final              000000000040000000000000000000000000000000000000000000000000000000000000000000000000000000000000000000000000000000000000PES00010000001 00000000000000020150122
201501120060000800000000000000120947000000000000001209479900000000000000000000Consumidor Final              000000000035000000000000000000000000000000000000000000000000000000000000000000000000000000000000000000000000000000000000PES00010000001 00000000000000020150122
201501120060000800000000000000120948000000000000001209489900000000000000000000Consumidor Final              000000000035000000000000000000000000000000000000000000000000000000000000000000000000000000000000000000000000000000000000PES00010000001 00000000000000020150122
201501120060000800000000000000120949000000000000001209499900000000000000000000Consumidor Final              000000000035000000000000000000000000000000000000000000000000000000000000000000000000000000000000000000000000000000000000PES00010000001 00000000000000020150122
201501120060000800000000000000120950000000000000001209509900000000000000000000Consumidor Final              000000000035000000000000000000000000000000000000000000000000000000000000000000000000000000000000000000000000000000000000PES00010000001 00000000000000020150122
201501260060000900000000000000017984000000000000000179849900000000000000000000Consumidor Final              000000000040000000000000000000000000000000000000000000000000000000000000000000000000000000000000000000000000000000000000PES00010000001 00000000000000020150205
201501260060000900000000000000017992000000000000000179929900000000000000000000Consumidor Final              000000000040000000000000000000000000000000000000000000000000000000000000000000000000000000000000000000000000000000000000PES00010000001 00000000000000020150205
201501270060000700000000000000389873000000000000003898739900000000000000000000Consumidor Final              000000000040000000000000000000000000000000000000000000000000000000000000000000000000000000000000000000000000000000000000PES00010000001 00000000000000020150206
201501270060000700000000000000389874000000000000003898749900000000000000000000Consumidor Final              000000000035000000000000000000000000000000000000000000000000000000000000000000000000000000000000000000000000000000000000PES00010000001 00000000000000020150206
201501270060000600000000000000600594000000000000006005949900000000000000000000Consumidor Final              000000000040000000000000000000000000000000000000000000000000000000000000000000000000000000000000000000000000000000000000PES00010000001 00000000000000020150206
201501270060000600000000000000600595000000000000006005959900000000000000000000Consumidor Final              000000000040000000000000000000000000000000000000000000000000000000000000000000000000000000000000000000000000000000000000PES00010000001 00000000000000020150206
201501270060000600000000000000600596000000000000006005969900000000000000000000Consumidor Final              000000000040000000000000000000000000000000000000000000000000000000000000000000000000000000000000000000000000000000000000PES00010000001 00000000000000020150206
201501270010000600000000000000004601000000000000000046018000000000030711656398NOVAMER SRL                   000000000040000000000000000000000000000000000000000000000000000000000000000000000000000000000000000000000000000000000000PES00010000001 00000000000000020150206
201501270060000600000000000000600597000000000000006005979900000000000000000000Consumidor Final              000000000043000000000000000000000000000000000000000000000000000000000000000000000000000000000000000000000000000000000000PES00010000001 00000000000000020150206
201501270060000600000000000000600598000000000000006005989900000000000000000000Consumidor Final              000000000040000000000000000000000000000000000000000000000000000000000000000000000000000000000000000000000000000000000000PES00010000001 00000000000000020150206
201501270060000700000000000000389882000000000000003898829900000000000000000000Consumidor Final              000000000040000000000000000000000000000000000000000000000000000000000000000000000000000000000000000000000000000000000000PES00010000001 00000000000000020150206
201501270060000800000000000000121776000000000000001217769900000000000000000000Consumidor Final              000000000035000000000000000000000000000000000000000000000000000000000000000000000000000000000000000000000000000000000000PES00010000001 00000000000000020150206
201501270060000800000000000000121777000000000000001217779900000000000000000000Consumidor Final              000000000035000000000000000000000000000000000000000000000000000000000000000000000000000000000000000000000000000000000000PES00010000001 00000000000000020150206
201501270060000800000000000000121778000000000000001217789900000000000000000000Consumidor Final              000000000035000000000000000000000000000000000000000000000000000000000000000000000000000000000000000000000000000000000000PES00010000001 00000000000000020150206
201501010060000600000000000000595387000000000000005953879900000000000000000000Consumidor Final              000000000040000000000000000000000000000000000000000000000000000000000000000000000000000000000000000000000000000000000000PES00010000001 00000000000000020150111
201501010060000700000000000000384646000000000000003846469900000000000000000000Consumidor Final              000000000040000000000000000000000000000000000000000000000000000000000000000000000000000000000000000000000000000000000000PES00010000001 00000000000000020150111
201501010060000700000000000000384655000000000000003846559900000000000000000000Consumidor Final              000000000043000000000000000000000000000000000000000000000000000000000000000000000000000000000000000000000000000000000000PES00010000001 00000000000000020150111
201501010060000700000000000000384657000000000000003846579900000000000000000000Consumidor Final              000000000040000000000000000000000000000000000000000000000000000000000000000000000000000000000000000000000000000000000000PES00010000001 00000000000000020150111
201501010060000700000000000000384658000000000000003846589900000000000000000000Consumidor Final              000000000040000000000000000000000000000000000000000000000000000000000000000000000000000000000000000000000000000000000000PES00010000001 00000000000000020150111
201501010060000700000000000000384659000000000000003846599900000000000000000000Consumidor Final              000000000040000000000000000000000000000000000000000000000000000000000000000000000000000000000000000000000000000000000000PES00010000001 00000000000000020150111
201501010060000700000000000000384660000000000000003846609900000000000000000000Consumidor Final              000000000040000000000000000000000000000000000000000000000000000000000000000000000000000000000000000000000000000000000000PES00010000001 00000000000000020150111
201501010060000700000000000000384661000000000000003846619900000000000000000000Consumidor Final              000000000049000000000000000000000000000000000000000000000000000000000000000000000000000000000000000000000000000000000000PES00010000001 00000000000000020150111
201501010060000700000000000000384662000000000000003846629900000000000000000000Consumidor Final              000000000043000000000000000000000000000000000000000000000000000000000000000000000000000000000000000000000000000000000000PES00010000001 00000000000000020150111
201501010060000700000000000000384663000000000000003846639900000000000000000000Consumidor Final              000000000040000000000000000000000000000000000000000000000000000000000000000000000000000000000000000000000000000000000000PES00010000001 00000000000000020150111
201501010060000700000000000000384664000000000000003846649900000000000000000000Consumidor Final              000000000040000000000000000000000000000000000000000000000000000000000000000000000000000000000000000000000000000000000000PES00010000001 00000000000000020150111
201501010060000700000000000000384665000000000000003846659900000000000000000000Consumidor Final              000000000040000000000000000000000000000000000000000000000000000000000000000000000000000000000000000000000000000000000000PES00010000001 00000000000000020150111
201501010060000700000000000000384666000000000000003846669900000000000000000000Consumidor Final              000000000040000000000000000000000000000000000000000000000000000000000000000000000000000000000000000000000000000000000000PES00010000001 00000000000000020150111
201501010060000700000000000000384667000000000000003846679900000000000000000000Consumidor Final              000000000040000000000000000000000000000000000000000000000000000000000000000000000000000000000000000000000000000000000000PES00010000001 00000000000000020150111
201501020060000900000000000000017094000000000000000170949900000000000000000000Consumidor Final              000000000040000000000000000000000000000000000000000000000000000000000000000000000000000000000000000000000000000000000000PES00010000001 00000000000000020150112
201501020060000900000000000000017095000000000000000170959900000000000000000000Consumidor Final              000000000040000000000000000000000000000000000000000000000000000000000000000000000000000000000000000000000000000000000000PES00010000001 00000000000000020150112
201501020060000900000000000000017096000000000000000170969900000000000000000000Consumidor Final              000000000040000000000000000000000000000000000000000000000000000000000000000000000000000000000000000000000000000000000000PES00010000001 00000000000000020150112
201501020060000900000000000000017097000000000000000170979900000000000000000000Consumidor Final              000000000040000000000000000000000000000000000000000000000000000000000000000000000000000000000000000000000000000000000000PES00010000001 00000000000000020150112
201501020060000900000000000000017098000000000000000170989900000000000000000000Consumidor Final              000000000040000000000000000000000000000000000000000000000000000000000000000000000000000000000000000000000000000000000000PES00010000001 00000000000000020150112
201501020060000800000000000000120334000000000000001203349900000000000000000000Consumidor Final              000000000035000000000000000000000000000000000000000000000000000000000000000000000000000000000000000000000000000000000000PES00010000001 00000000000000020150112
201501020060000900000000000000017099000000000000000170999900000000000000000000Consumidor Final              000000000040000000000000000000000000000000000000000000000000000000000000000000000000000000000000000000000000000000000000PES00010000001 00000000000000020150112
201501020060000900000000000000017100000000000000000171009900000000000000000000Consumidor Final              000000000040000000000000000000000000000000000000000000000000000000000000000000000000000000000000000000000000000000000000PES00010000001 00000000000000020150112
201501020060000900000000000000017101000000000000000171019900000000000000000000Consumidor Final              000000000040000000000000000000000000000000000000000000000000000000000000000000000000000000000000000000000000000000000000PES00010000001 00000000000000020150112
201501020060000900000000000000017102000000000000000171029900000000000000000000Consumidor Final              000000000040000000000000000000000000000000000000000000000000000000000000000000000000000000000000000000000000000000000000PES00010000001 00000000000000020150112
201501020060000700000000000000385070000000000000003850709900000000000000000000Consumidor Final              000000000040000000000000000000000000000000000000000000000000000000000000000000000000000000000000000000000000000000000000PES00010000001 00000000000000020150112
201501020060000700000000000000385071000000000000003850719900000000000000000000Consumidor Final              000000000040000000000000000000000000000000000000000000000000000000000000000000000000000000000000000000000000000000000000PES00010000001 00000000000000020150112
201501020060000700000000000000385072000000000000003850729900000000000000000000Consumidor Final              000000000040000000000000000000000000000000000000000000000000000000000000000000000000000000000000000000000000000000000000PES00010000001 00000000000000020150112
201501020060000700000000000000385073000000000000003850739900000000000000000000Consumidor Final              000000000040000000000000000000000000000000000000000000000000000000000000000000000000000000000000000000000000000000000000PES00010000001 00000000000000020150112
201501040060000600000000000000595910000000000000005959109900000000000000000000Consumidor Final              000000000042000000000000000000000000000000000000000000000000000000000000000000000000000000000000000000000000000000000000PES00010000001 00000000000000020150114
201501040060000700000000000000385500000000000000003855009900000000000000000000Consumidor Final              000000000040000000000000000000000000000000000000000000000000000000000000000000000000000000000000000000000000000000000000PES00010000001 00000000000000020150114
201501040060000700000000000000385502000000000000003855029900000000000000000000Consumidor Final              000000000040000000000000000000000000000000000000000000000000000000000000000000000000000000000000000000000000000000000000PES00010000001 00000000000000020150114
201501040060000700000000000000385503000000000000003855039900000000000000000000Consumidor Final              000000000035000000000000000000000000000000000000000000000000000000000000000000000000000000000000000000000000000000000000PES00010000001 00000000000000020150114
201501040060000700000000000000385504000000000000003855049900000000000000000000Consumidor Final              000000000040000000000000000000000000000000000000000000000000000000000000000000000000000000000000000000000000000000000000PES00010000001 00000000000000020150114
201501040060000600000000000000595915000000000000005959159900000000000000000000Consumidor Final              000000000038000000000000000000000000000000000000000000000000000000000000000000000000000000000000000000000000000000000000PES00010000001 00000000000000020150114
201501040060000600000000000000595916000000000000005959169900000000000000000000Consumidor Final              000000000035000000000000000000000000000000000000000000000000000000000000000000000000000000000000000000000000000000000000PES00010000001 00000000000000020150114
201501040060000600000000000000595917000000000000005959179900000000000000000000Consumidor Final              000000000015000000000000000000000000000000000000000000000000000000000000000000000000000000000000000000000000000000000000PES00010000001 00000000000000020150114
201501040060000600000000000000595918000000000000005959189900000000000000000000Consumidor Final              000000000015000000000000000000000000000000000000000000000000000000000000000000000000000000000000000000000000000000000000PES00010000001 00000000000000020150114
201501040060000600000000000000595919000000000000005959199900000000000000000000Consumidor Final              000000000015000000000000000000000000000000000000000000000000000000000000000000000000000000000000000000000000000000000000PES00010000001 00000000000000020150114
201501040060000600000000000000595922000000000000005959229900000000000000000000Consumidor Final              000000000051000000000000000000000000000000000000000000000000000000000000000000000000000000000000000000000000000000000000PES00010000001 00000000000000020150114
201501040060000600000000000000595923000000000000005959239900000000000000000000Consumidor Final              000000000043000000000000000000000000000000000000000000000000000000000000000000000000000000000000000000000000000000000000PES00010000001 00000000000000020150114
201501040060000600000000000000595932000000000000005959329900000000000000000000Consumidor Final              000000000040000000000000000000000000000000000000000000000000000000000000000000000000000000000000000000000000000000000000PES00010000001 00000000000000020150114
201501040060000700000000000000385506000000000000003855069900000000000000000000Consumidor Final              000000000040000000000000000000000000000000000000000000000000000000000000000000000000000000000000000000000000000000000000PES00010000001 00000000000000020150114
201501050060000600000000000000596259000000000000005962599900000000000000000000Consumidor Final              000000000048000000000000000000000000000000000000000000000000000000000000000000000000000000000000000000000000000000000000PES00010000001 00000000000000020150115
201501050060000600000000000000596260000000000000005962609900000000000000000000Consumidor Final              000000000040000000000000000000000000000000000000000000000000000000000000000000000000000000000000000000000000000000000000PES00010000001 00000000000000020150115
201501050060000700000000000000385818000000000000003858189900000000000000000000Consumidor Final              000000000040000000000000000000000000000000000000000000000000000000000000000000000000000000000000000000000000000000000000PES00010000001 00000000000000020150115
201501050060000700000000000000385819000000000000003858199900000000000000000000Consumidor Final              000000000040000000000000000000000000000000000000000000000000000000000000000000000000000000000000000000000000000000000000PES00010000001 00000000000000020150115
201501050060000700000000000000385820000000000000003858209900000000000000000000Consumidor Final              000000000040000000000000000000000000000000000000000000000000000000000000000000000000000000000000000000000000000000000000PES00010000001 00000000000000020150115
201501050060000700000000000000385844000000000000003858449900000000000000000000Consumidor Final              000000000040000000000000000000000000000000000000000000000000000000000000000000000000000000000000000000000000000000000000PES00010000001 00000000000000020150115
201501050060000700000000000000385845000000000000003858459900000000000000000000Consumidor Final              000000000040000000000000000000000000000000000000000000000000000000000000000000000000000000000000000000000000000000000000PES00010000001 00000000000000020150115
201501050060000700000000000000385846000000000000003858469900000000000000000000Consumidor Final              000000000040000000000000000000000000000000000000000000000000000000000000000000000000000000000000000000000000000000000000PES00010000001 00000000000000020150115
201501050060000700000000000000385847000000000000003858479900000000000000000000Consumidor Final              000000000040000000000000000000000000000000000000000000000000000000000000000000000000000000000000000000000000000000000000PES00010000001 00000000000000020150115
201501050060000700000000000000385848000000000000003858489900000000000000000000Consumidor Final              000000000040000000000000000000000000000000000000000000000000000000000000000000000000000000000000000000000000000000000000PES00010000001 00000000000000020150115
201501050060000700000000000000385849000000000000003858499900000000000000000000Consumidor Final              000000000040000000000000000000000000000000000000000000000000000000000000000000000000000000000000000000000000000000000000PES00010000001 00000000000000020150115
201501050060000600000000000000596282000000000000005962829900000000000000000000Consumidor Final              000000000040000000000000000000000000000000000000000000000000000000000000000000000000000000000000000000000000000000000000PES00010000001 00000000000000020150115
201501050060000600000000000000596283000000000000005962839900000000000000000000Consumidor Final              000000000040000000000000000000000000000000000000000000000000000000000000000000000000000000000000000000000000000000000000PES00010000001 00000000000000020150115
201501050060000700000000000000385856000000000000003858569900000000000000000000Consumidor Final              000000000048000000000000000000000000000000000000000000000000000000000000000000000000000000000000000000000000000000000000PES00010000001 00000000000000020150115
201501070060000600000000000000596580000000000000005965809900000000000000000000Consumidor Final              000000000043000000000000000000000000000000000000000000000000000000000000000000000000000000000000000000000000000000000000PES00010000001 00000000000000020150117
201501070060000700000000000000386217000000000000003862179900000000000000000000Consumidor Final              000000000040000000000000000000000000000000000000000000000000000000000000000000000000000000000000000000000000000000000000PES00010000001 00000000000000020150117
201501070060000700000000000000386218000000000000003862189900000000000000000000Consumidor Final              000000000040000000000000000000000000000000000000000000000000000000000000000000000000000000000000000000000000000000000000PES00010000001 00000000000000020150117
201501070060000700000000000000386219000000000000003862199900000000000000000000Consumidor Final              000000000024000000000000000000000000000000000000000000000000000000000000000000000000000000000000000000000000000000000000PES00010000001 00000000000000020150117
201501070060000700000000000000386220000000000000003862209900000000000000000000Consumidor Final              000000000040000000000000000000000000000000000000000000000000000000000000000000000000000000000000000000000000000000000000PES00010000001 00000000000000020150117
201501070060000700000000000000386221000000000000003862219900000000000000000000Consumidor Final              000000000040000000000000000000000000000000000000000000000000000000000000000000000000000000000000000000000000000000000000PES00010000001 00000000000000020150117
201501070060000700000000000000386222000000000000003862229900000000000000000000Consumidor Final              000000000040000000000000000000000000000000000000000000000000000000000000000000000000000000000000000000000000000000000000PES00010000001 00000000000000020150117
201501070060000700000000000000386223000000000000003862239900000000000000000000Consumidor Final              000000000059000000000000000000000000000000000000000000000000000000000000000000000000000000000000000000000000000000000000PES00010000001 00000000000000020150117
201501070060000700000000000000386224000000000000003862249900000000000000000000Consumidor Final              000000000040000000000000000000000000000000000000000000000000000000000000000000000000000000000000000000000000000000000000PES00010000001 00000000000000020150117
201501070060000700000000000000386225000000000000003862259900000000000000000000Consumidor Final              000000000040000000000000000000000000000000000000000000000000000000000000000000000000000000000000000000000000000000000000PES00010000001 00000000000000020150117
201501070060000700000000000000386226000000000000003862269900000000000000000000Consumidor Final              000000000040000000000000000000000000000000000000000000000000000000000000000000000000000000000000000000000000000000000000PES00010000001 00000000000000020150117
201501070060000700000000000000386234000000000000003862349900000000000000000000Consumidor Final              000000000040000000000000000000000000000000000000000000000000000000000000000000000000000000000000000000000000000000000000PES00010000001 00000000000000020150117
201501070060000700000000000000386235000000000000003862359900000000000000000000Consumidor Final              000000000040000000000000000000000000000000000000000000000000000000000000000000000000000000000000000000000000000000000000PES00010000001 00000000000000020150117
201501070060000800000000000000120632000000000000001206329900000000000000000000Consumidor Final              000000000035000000000000000000000000000000000000000000000000000000000000000000000000000000000000000000000000000000000000PES00010000001 00000000000000020150117
201501090060000600000000000000596912000000000000005969129900000000000000000000Consumidor Final              000000000040000000000000000000000000000000000000000000000000000000000000000000000000000000000000000000000000000000000000PES00010000001 00000000000000020150119
201501090060000700000000000000386572000000000000003865729900000000000000000000Consumidor Final              000000000040000000000000000000000000000000000000000000000000000000000000000000000000000000000000000000000000000000000000PES00010000001 00000000000000020150119
201501090060000700000000000000386579000000000000003865799900000000000000000000Consumidor Final              000000000043000000000000000000000000000000000000000000000000000000000000000000000000000000000000000000000000000000000000PES00010000001 00000000000000020150119
201501080060000400000000000000102114000000000000001021149900000000000000000000Consumidor Final              000000000040000000000000000000000000000000000000000000000000000000000000000000000000000000000000000000000000000000000000PES00010000001 00000000000000020150118
201501080060000400000000000000102115000000000000001021159900000000000000000000Consumidor Final              000000000040000000000000000000000000000000000000000000000000000000000000000000000000000000000000000000000000000000000000PES00010000001 00000000000000020150118
201501090060000600000000000000596940000000000000005969409900000000000000000000Consumidor Final              000000000043000000000000000000000000000000000000000000000000000000000000000000000000000000000000000000000000000000000000PES00010000001 00000000000000020150119
201501080060000400000000000000102116000000000000001021169900000000000000000000Consumidor Final              000000000040000000000000000000000000000000000000000000000000000000000000000000000000000000000000000000000000000000000000PES00010000001 00000000000000020150118
201501080060000400000000000000102117000000000000001021179900000000000000000000Consumidor Final              000000000040000000000000000000000000000000000000000000000000000000000000000000000000000000000000000000000000000000000000PES00010000001 00000000000000020150118
201501090060000700000000000000386580000000000000003865809900000000000000000000Consumidor Final              000000000043000000000000000000000000000000000000000000000000000000000000000000000000000000000000000000000000000000000000PES00010000001 00000000000000020150119
201501090060000600000000000000596941000000000000005969419900000000000000000000Consumidor Final              000000000040000000000000000000000000000000000000000000000000000000000000000000000000000000000000000000000000000000000000PES00010000001 00000000000000020150119
201501090060000600000000000000596942000000000000005969429900000000000000000000Consumidor Final              000000000040000000000000000000000000000000000000000000000000000000000000000000000000000000000000000000000000000000000000PES00010000001 00000000000000020150119
201501090060000700000000000000386581000000000000003865819900000000000000000000Consumidor Final              000000000040000000000000000000000000000000000000000000000000000000000000000000000000000000000000000000000000000000000000PES00010000001 00000000000000020150119
201501090060000700000000000000386582000000000000003865829900000000000000000000Consumidor Final              000000000041000000000000000000000000000000000000000000000000000000000000000000000000000000000000000000000000000000000000PES00010000001 00000000000000020150119
201501090060000600000000000000596943000000000000005969439900000000000000000000Consumidor Final              000000000040000000000000000000000000000000000000000000000000000000000000000000000000000000000000000000000000000000000000PES00010000001 00000000000000020150119
201501100060000700000000000000386785000000000000003867859900000000000000000000Consumidor Final              000000000040000000000000000000000000000000000000000000000000000000000000000000000000000000000000000000000000000000000000PES00010000001 00000000000000020150120
201501100060000700000000000000386786000000000000003867869900000000000000000000Consumidor Final              000000000040000000000000000000000000000000000000000000000000000000000000000000000000000000000000000000000000000000000000PES00010000001 00000000000000020150120
201501100060000700000000000000386795000000000000003867959900000000000000000000Consumidor Final              000000000040000000000000000000000000000000000000000000000000000000000000000000000000000000000000000000000000000000000000PES00010000001 00000000000000020150120
201501100060000700000000000000386796000000000000003867969900000000000000000000Consumidor Final              000000000040000000000000000000000000000000000000000000000000000000000000000000000000000000000000000000000000000000000000PES00010000001 00000000000000020150120
201501100060000700000000000000386797000000000000003867979900000000000000000000Consumidor Final              000000000040000000000000000000000000000000000000000000000000000000000000000000000000000000000000000000000000000000000000PES00010000001 00000000000000020150120
201501100060000700000000000000386798000000000000003867989900000000000000000000Consumidor Final              000000000048000000000000000000000000000000000000000000000000000000000000000000000000000000000000000000000000000000000000PES00010000001 00000000000000020150120
201501100060000700000000000000386799000000000000003867999900000000000000000000Consumidor Final              000000000040000000000000000000000000000000000000000000000000000000000000000000000000000000000000000000000000000000000000PES00010000001 00000000000000020150120
201501100060000700000000000000386800000000000000003868009900000000000000000000Consumidor Final              000000000040000000000000000000000000000000000000000000000000000000000000000000000000000000000000000000000000000000000000PES00010000001 00000000000000020150120
201501100060000700000000000000386801000000000000003868019900000000000000000000Consumidor Final              000000000040000000000000000000000000000000000000000000000000000000000000000000000000000000000000000000000000000000000000PES00010000001 00000000000000020150120
201501100060000600000000000000597282000000000000005972829900000000000000000000Consumidor Final              000000000040000000000000000000000000000000000000000000000000000000000000000000000000000000000000000000000000000000000000PES00010000001 00000000000000020150120
201501100060000700000000000000386802000000000000003868029900000000000000000000Consumidor Final              000000000051000000000000000000000000000000000000000000000000000000000000000000000000000000000000000000000000000000000000PES00010000001 00000000000000020150120
201501100060000700000000000000386803000000000000003868039900000000000000000000Consumidor Final              000000000024000000000000000000000000000000000000000000000000000000000000000000000000000000000000000000000000000000000000PES00010000001 00000000000000020150120
201501100060000600000000000000597283000000000000005972839900000000000000000000Consumidor Final              000000000040000000000000000000000000000000000000000000000000000000000000000000000000000000000000000000000000000000000000PES00010000001 00000000000000020150120
201501100060000600000000000000597284000000000000005972849900000000000000000000Consumidor Final              000000000040000000000000000000000000000000000000000000000000000000000000000000000000000000000000000000000000000000000000PES00010000001 00000000000000020150120
201501010060000600000000000000595397000000000000005953979900000000000000000000Consumidor Final              000000000040000000000000000000000000000000000000000000000000000000000000000000000000000000000000000000000000000000000000PES00010000001 00000000000000020150111
201501010060000700000000000000384627000000000000003846279900000000000000000000Consumidor Final              000000000043000000000000000000000000000000000000000000000000000000000000000000000000000000000000000000000000000000000000PES00010000001 00000000000000020150111
201501010060000700000000000000384628000000000000003846289900000000000000000000Consumidor Final              000000000028000000000000000000000000000000000000000000000000000000000000000000000000000000000000000000000000000000000000PES00010000001 00000000000000020150111
201501010060000700000000000000384629000000000000003846299900000000000000000000Consumidor Final              000000000028000000000000000000000000000000000000000000000000000000000000000000000000000000000000000000000000000000000000PES00010000001 00000000000000020150111
201501010060000700000000000000384630000000000000003846309900000000000000000000Consumidor Final              000000000040000000000000000000000000000000000000000000000000000000000000000000000000000000000000000000000000000000000000PES00010000001 00000000000000020150111
201501010060000700000000000000384644000000000000003846449900000000000000000000Consumidor Final              000000000040000000000000000000000000000000000000000000000000000000000000000000000000000000000000000000000000000000000000PES00010000001 00000000000000020150111
201501010060000700000000000000384645000000000000003846459900000000000000000000Consumidor Final              000000000040000000000000000000000000000000000000000000000000000000000000000000000000000000000000000000000000000000000000PES00010000001 00000000000000020150111
201501010060000600000000000000595389000000000000005953899900000000000000000000Consumidor Final              000000000040000000000000000000000000000000000000000000000000000000000000000000000000000000000000000000000000000000000000PES00010000001 00000000000000020150111
201501010060000600000000000000595390000000000000005953909900000000000000000000Consumidor Final              000000000035000000000000000000000000000000000000000000000000000000000000000000000000000000000000000000000000000000000000PES00010000001 00000000000000020150111
201501010060000600000000000000595391000000000000005953919900000000000000000000Consumidor Final              000000000040000000000000000000000000000000000000000000000000000000000000000000000000000000000000000000000000000000000000PES00010000001 00000000000000020150111
201501010060000600000000000000595392000000000000005953929900000000000000000000Consumidor Final              000000000040000000000000000000000000000000000000000000000000000000000000000000000000000000000000000000000000000000000000PES00010000001 00000000000000020150111
201501010060000600000000000000595393000000000000005953939900000000000000000000Consumidor Final              000000000040000000000000000000000000000000000000000000000000000000000000000000000000000000000000000000000000000000000000PES00010000001 00000000000000020150111
201501010060000600000000000000595394000000000000005953949900000000000000000000Consumidor Final              000000000042000000000000000000000000000000000000000000000000000000000000000000000000000000000000000000000000000000000000PES00010000001 00000000000000020150111
201501010060000600000000000000595395000000000000005953959900000000000000000000Consumidor Final              000000000035000000000000000000000000000000000000000000000000000000000000000000000000000000000000000000000000000000000000PES00010000001 00000000000000020150111
201501010060000600000000000000595398000000000000005953989900000000000000000000Consumidor Final              000000000040000000000000000000000000000000000000000000000000000000000000000000000000000000000000000000000000000000000000PES00010000001 00000000000000020150111
201501010060000600000000000000595399000000000000005953999900000000000000000000Consumidor Final              000000000040000000000000000000000000000000000000000000000000000000000000000000000000000000000000000000000000000000000000PES00010000001 00000000000000020150111
201501010060000600000000000000595400000000000000005954009900000000000000000000Consumidor Final              000000000040000000000000000000000000000000000000000000000000000000000000000000000000000000000000000000000000000000000000PES00010000001 00000000000000020150111
201501010060000600000000000000595401000000000000005954019900000000000000000000Consumidor Final              000000000055000000000000000000000000000000000000000000000000000000000000000000000000000000000000000000000000000000000000PES00010000001 00000000000000020150111
201501010060000600000000000000595384000000000000005953849900000000000000000000Consumidor Final              000000000040000000000000000000000000000000000000000000000000000000000000000000000000000000000000000000000000000000000000PES00010000001 00000000000000020150111
201501010060000600000000000000595385000000000000005953859900000000000000000000Consumidor Final              000000000040000000000000000000000000000000000000000000000000000000000000000000000000000000000000000000000000000000000000PES00010000001 00000000000000020150111
201501010060000600000000000000595386000000000000005953869900000000000000000000Consumidor Final              000000000040000000000000000000000000000000000000000000000000000000000000000000000000000000000000000000000000000000000000PES00010000001 00000000000000020150111
201501010060000600000000000000595388000000000000005953889900000000000000000000Consumidor Final              000000000040000000000000000000000000000000000000000000000000000000000000000000000000000000000000000000000000000000000000PES00010000001 00000000000000020150111
201501010060000600000000000000595396000000000000005953969900000000000000000000Consumidor Final              000000000040000000000000000000000000000000000000000000000000000000000000000000000000000000000000000000000000000000000000PES00010000001 00000000000000020150111
201501010060000700000000000000384677000000000000003846779900000000000000000000Consumidor Final              000000000040000000000000000000000000000000000000000000000000000000000000000000000000000000000000000000000000000000000000PES00010000001 00000000000000020150111
201501010060000700000000000000384678000000000000003846789900000000000000000000Consumidor Final              000000000052000000000000000000000000000000000000000000000000000000000000000000000000000000000000000000000000000000000000PES00010000001 00000000000000020150111
201501010060000700000000000000384679000000000000003846799900000000000000000000Consumidor Final              000000000040000000000000000000000000000000000000000000000000000000000000000000000000000000000000000000000000000000000000PES00010000001 00000000000000020150111
201501010060000700000000000000384680000000000000003846809900000000000000000000Consumidor Final              000000000040000000000000000000000000000000000000000000000000000000000000000000000000000000000000000000000000000000000000PES00010000001 00000000000000020150111
201501010060000700000000000000384681000000000000003846819900000000000000000000Consumidor Final              000000000040000000000000000000000000000000000000000000000000000000000000000000000000000000000000000000000000000000000000PES00010000001 00000000000000020150111
201501010060000700000000000000384685000000000000003846859900000000000000000000Consumidor Final              000000000041000000000000000000000000000000000000000000000000000000000000000000000000000000000000000000000000000000000000PES00010000001 00000000000000020150111
201501010060000700000000000000384686000000000000003846869900000000000000000000Consumidor Final              000000000041000000000000000000000000000000000000000000000000000000000000000000000000000000000000000000000000000000000000PES00010000001 00000000000000020150111
201501010060000700000000000000384687000000000000003846879900000000000000000000Consumidor Final              000000000041000000000000000000000000000000000000000000000000000000000000000000000000000000000000000000000000000000000000PES00010000001 00000000000000020150111
201501010060000700000000000000384688000000000000003846889900000000000000000000Consumidor Final              000000000040000000000000000000000000000000000000000000000000000000000000000000000000000000000000000000000000000000000000PES00010000001 00000000000000020150111
201501010060000700000000000000384689000000000000003846899900000000000000000000Consumidor Final              000000000040000000000000000000000000000000000000000000000000000000000000000000000000000000000000000000000000000000000000PES00010000001 00000000000000020150111
201501010060000800000000000000120240000000000000001202409900000000000000000000Consumidor Final              000000000035000000000000000000000000000000000000000000000000000000000000000000000000000000000000000000000000000000000000PES00010000001 00000000000000020150111
201501010060000800000000000000120241000000000000001202419900000000000000000000Consumidor Final              000000000035000000000000000000000000000000000000000000000000000000000000000000000000000000000000000000000000000000000000PES00010000001 00000000000000020150111
201501010060000600000000000000595402000000000000005954029900000000000000000000Consumidor Final              000000000040000000000000000000000000000000000000000000000000000000000000000000000000000000000000000000000000000000000000PES00010000001 00000000000000020150111
201501010060000600000000000000595403000000000000005954039900000000000000000000Consumidor Final              000000000063000000000000000000000000000000000000000000000000000000000000000000000000000000000000000000000000000000000000PES00010000001 00000000000000020150111
201501010060000600000000000000595404000000000000005954049900000000000000000000Consumidor Final              000000000015000000000000000000000000000000000000000000000000000000000000000000000000000000000000000000000000000000000000PES00010000001 00000000000000020150111
201501010060000600000000000000595405000000000000005954059900000000000000000000Consumidor Final              000000000015000000000000000000000000000000000000000000000000000000000000000000000000000000000000000000000000000000000000PES00010000001 00000000000000020150111
201501010060000600000000000000595406000000000000005954069900000000000000000000Consumidor Final              000000000063000000000000000000000000000000000000000000000000000000000000000000000000000000000000000000000000000000000000PES00010000001 00000000000000020150111
201501010060000600000000000000595407000000000000005954079900000000000000000000Consumidor Final              000000000040000000000000000000000000000000000000000000000000000000000000000000000000000000000000000000000000000000000000PES00010000001 00000000000000020150111
201501010060000700000000000000384606000000000000003846069900000000000000000000Consumidor Final              000000000040000000000000000000000000000000000000000000000000000000000000000000000000000000000000000000000000000000000000PES00010000001 00000000000000020150111
201501010060000700000000000000384607000000000000003846079900000000000000000000Consumidor Final              000000000040000000000000000000000000000000000000000000000000000000000000000000000000000000000000000000000000000000000000PES00010000001 00000000000000020150111
201501010060000700000000000000384608000000000000003846089900000000000000000000Consumidor Final              000000000040000000000000000000000000000000000000000000000000000000000000000000000000000000000000000000000000000000000000PES00010000001 00000000000000020150111
201501010060000700000000000000384609000000000000003846099900000000000000000000Consumidor Final              000000000040000000000000000000000000000000000000000000000000000000000000000000000000000000000000000000000000000000000000PES00010000001 00000000000000020150111
201501010060000700000000000000384672000000000000003846729900000000000000000000Consumidor Final              000000000040000000000000000000000000000000000000000000000000000000000000000000000000000000000000000000000000000000000000PES00010000001 00000000000000020150111
201501010060000700000000000000384673000000000000003846739900000000000000000000Consumidor Final              000000000040000000000000000000000000000000000000000000000000000000000000000000000000000000000000000000000000000000000000PES00010000001 00000000000000020150111
201501010060000700000000000000384674000000000000003846749900000000000000000000Consumidor Final              000000000040000000000000000000000000000000000000000000000000000000000000000000000000000000000000000000000000000000000000PES00010000001 00000000000000020150111
201501010060000700000000000000384675000000000000003846759900000000000000000000Consumidor Final              000000000040000000000000000000000000000000000000000000000000000000000000000000000000000000000000000000000000000000000000PES00010000001 00000000000000020150111
201501010060000600000000000000595408000000000000005954089900000000000000000000Consumidor Final              000000000040000000000000000000000000000000000000000000000000000000000000000000000000000000000000000000000000000000000000PES00010000001 00000000000000020150111
201501010060000600000000000000595409000000000000005954099900000000000000000000Consumidor Final              000000000035000000000000000000000000000000000000000000000000000000000000000000000000000000000000000000000000000000000000PES00010000001 00000000000000020150111
201501010060000600000000000000595410000000000000005954109900000000000000000000Consumidor Final              000000000035000000000000000000000000000000000000000000000000000000000000000000000000000000000000000000000000000000000000PES00010000001 00000000000000020150111
201501010060000600000000000000595411000000000000005954119900000000000000000000Consumidor Final              000000000040000000000000000000000000000000000000000000000000000000000000000000000000000000000000000000000000000000000000PES00010000001 00000000000000020150111
201501010060000600000000000000595412000000000000005954129900000000000000000000Consumidor Final              000000000040000000000000000000000000000000000000000000000000000000000000000000000000000000000000000000000000000000000000PES00010000001 00000000000000020150111
201501010060000700000000000000384604000000000000003846049900000000000000000000Consumidor Final              000000000040000000000000000000000000000000000000000000000000000000000000000000000000000000000000000000000000000000000000PES00010000001 00000000000000020150111
201501010060000700000000000000384605000000000000003846059900000000000000000000Consumidor Final              000000000048000000000000000000000000000000000000000000000000000000000000000000000000000000000000000000000000000000000000PES00010000001 00000000000000020150111
201501010060000800000000000000120234000000000000001202349900000000000000000000Consumidor Final              000000000035000000000000000000000000000000000000000000000000000000000000000000000000000000000000000000000000000000000000PES00010000001 00000000000000020150111
201501010060000700000000000000384625000000000000003846259900000000000000000000Consumidor Final              000000000040000000000000000000000000000000000000000000000000000000000000000000000000000000000000000000000000000000000000PES00010000001 00000000000000020150111
201501010060000700000000000000384626000000000000003846269900000000000000000000Consumidor Final              000000000040000000000000000000000000000000000000000000000000000000000000000000000000000000000000000000000000000000000000PES00010000001 00000000000000020150111
201501010060000800000000000000120239000000000000001202399900000000000000000000Consumidor Final              000000000035000000000000000000000000000000000000000000000000000000000000000000000000000000000000000000000000000000000000PES00010000001 00000000000000020150111
201501010060000700000000000000384653000000000000003846539900000000000000000000Consumidor Final              000000000040000000000000000000000000000000000000000000000000000000000000000000000000000000000000000000000000000000000000PES00010000001 00000000000000020150111
201501010060000700000000000000384654000000000000003846549900000000000000000000Consumidor Final              000000000024000000000000000000000000000000000000000000000000000000000000000000000000000000000000000000000000000000000000PES00010000001 00000000000000020150111
201501010060000700000000000000384656000000000000003846569900000000000000000000Consumidor Final              000000000040000000000000000000000000000000000000000000000000000000000000000000000000000000000000000000000000000000000000PES00010000001 00000000000000020150111
201501010060000700000000000000384610000000000000003846109900000000000000000000Consumidor Final              000000000040000000000000000000000000000000000000000000000000000000000000000000000000000000000000000000000000000000000000PES00010000001 00000000000000020150111
201501010060000800000000000000120235000000000000001202359900000000000000000000Consumidor Final              000000000035000000000000000000000000000000000000000000000000000000000000000000000000000000000000000000000000000000000000PES00010000001 00000000000000020150111
201501010060000800000000000000120236000000000000001202369900000000000000000000Consumidor Final              000000000035000000000000000000000000000000000000000000000000000000000000000000000000000000000000000000000000000000000000PES00010000001 00000000000000020150111
201501010060000800000000000000120237000000000000001202379900000000000000000000Consumidor Final              000000000035000000000000000000000000000000000000000000000000000000000000000000000000000000000000000000000000000000000000PES00010000001 00000000000000020150111
201501010060000700000000000000384631000000000000003846319900000000000000000000Consumidor Final              000000000040000000000000000000000000000000000000000000000000000000000000000000000000000000000000000000000000000000000000PES00010000001 00000000000000020150111
201501010060000700000000000000384632000000000000003846329900000000000000000000Consumidor Final              000000000040000000000000000000000000000000000000000000000000000000000000000000000000000000000000000000000000000000000000PES00010000001 00000000000000020150111
201501010060000700000000000000384633000000000000003846339900000000000000000000Consumidor Final              000000000048000000000000000000000000000000000000000000000000000000000000000000000000000000000000000000000000000000000000PES00010000001 00000000000000020150111
201501010060000700000000000000384634000000000000003846349900000000000000000000Consumidor Final              000000000040000000000000000000000000000000000000000000000000000000000000000000000000000000000000000000000000000000000000PES00010000001 00000000000000020150111
201501010060000700000000000000384635000000000000003846359900000000000000000000Consumidor Final              000000000040000000000000000000000000000000000000000000000000000000000000000000000000000000000000000000000000000000000000PES00010000001 00000000000000020150111
201501010060000700000000000000384639000000000000003846399900000000000000000000Consumidor Final              000000000040000000000000000000000000000000000000000000000000000000000000000000000000000000000000000000000000000000000000PES00010000001 00000000000000020150111
201501010060000700000000000000384668000000000000003846689900000000000000000000Consumidor Final              000000000040000000000000000000000000000000000000000000000000000000000000000000000000000000000000000000000000000000000000PES00010000001 00000000000000020150111
201501010060000700000000000000384669000000000000003846699900000000000000000000Consumidor Final              000000000040000000000000000000000000000000000000000000000000000000000000000000000000000000000000000000000000000000000000PES00010000001 00000000000000020150111
201501010060000700000000000000384670000000000000003846709900000000000000000000Consumidor Final              000000000043000000000000000000000000000000000000000000000000000000000000000000000000000000000000000000000000000000000000PES00010000001 00000000000000020150111
201501010060000700000000000000384671000000000000003846719900000000000000000000Consumidor Final              000000000040000000000000000000000000000000000000000000000000000000000000000000000000000000000000000000000000000000000000PES00010000001 00000000000000020150111
201501010060000700000000000000384611000000000000003846119900000000000000000000Consumidor Final              000000000040000000000000000000000000000000000000000000000000000000000000000000000000000000000000000000000000000000000000PES00010000001 00000000000000020150111
201501010060000700000000000000384612000000000000003846129900000000000000000000Consumidor Final              000000000040000000000000000000000000000000000000000000000000000000000000000000000000000000000000000000000000000000000000PES00010000001 00000000000000020150111
201501010060000700000000000000384613000000000000003846139900000000000000000000Consumidor Final              000000000040000000000000000000000000000000000000000000000000000000000000000000000000000000000000000000000000000000000000PES00010000001 00000000000000020150111
201501010060000700000000000000384614000000000000003846149900000000000000000000Consumidor Final              000000000040000000000000000000000000000000000000000000000000000000000000000000000000000000000000000000000000000000000000PES00010000001 00000000000000020150111
201501010060000700000000000000384615000000000000003846159900000000000000000000Consumidor Final              000000000040000000000000000000000000000000000000000000000000000000000000000000000000000000000000000000000000000000000000PES00010000001 00000000000000020150111
201501010060000700000000000000384616000000000000003846169900000000000000000000Consumidor Final              000000000040000000000000000000000000000000000000000000000000000000000000000000000000000000000000000000000000000000000000PES00010000001 00000000000000020150111
201501010060000700000000000000384617000000000000003846179900000000000000000000Consumidor Final              000000000040000000000000000000000000000000000000000000000000000000000000000000000000000000000000000000000000000000000000PES00010000001 00000000000000020150111
201501010060000700000000000000384618000000000000003846189900000000000000000000Consumidor Final              000000000040000000000000000000000000000000000000000000000000000000000000000000000000000000000000000000000000000000000000PES00010000001 00000000000000020150111
201501010060000700000000000000384619000000000000003846199900000000000000000000Consumidor Final              000000000040000000000000000000000000000000000000000000000000000000000000000000000000000000000000000000000000000000000000PES00010000001 00000000000000020150111
201501010060000700000000000000384620000000000000003846209900000000000000000000Consumidor Final              000000000040000000000000000000000000000000000000000000000000000000000000000000000000000000000000000000000000000000000000PES00010000001 00000000000000020150111
201501010060000700000000000000384621000000000000003846219900000000000000000000Consumidor Final              000000000040000000000000000000000000000000000000000000000000000000000000000000000000000000000000000000000000000000000000PES00010000001 00000000000000020150111
201501010060000700000000000000384622000000000000003846229900000000000000000000Consumidor Final              000000000040000000000000000000000000000000000000000000000000000000000000000000000000000000000000000000000000000000000000PES00010000001 00000000000000020150111
201501010060000700000000000000384623000000000000003846239900000000000000000000Consumidor Final              000000000040000000000000000000000000000000000000000000000000000000000000000000000000000000000000000000000000000000000000PES00010000001 00000000000000020150111
201501010060000700000000000000384624000000000000003846249900000000000000000000Consumidor Final              000000000040000000000000000000000000000000000000000000000000000000000000000000000000000000000000000000000000000000000000PES00010000001 00000000000000020150111
201501010060000800000000000000120238000000000000001202389900000000000000000000Consumidor Final              000000000035000000000000000000000000000000000000000000000000000000000000000000000000000000000000000000000000000000000000PES00010000001 00000000000000020150111
201501010060000700000000000000384636000000000000003846369900000000000000000000Consumidor Final              000000000040000000000000000000000000000000000000000000000000000000000000000000000000000000000000000000000000000000000000PES00010000001 00000000000000020150111
201501010060000700000000000000384637000000000000003846379900000000000000000000Consumidor Final              000000000040000000000000000000000000000000000000000000000000000000000000000000000000000000000000000000000000000000000000PES00010000001 00000000000000020150111
201501010060000700000000000000384638000000000000003846389900000000000000000000Consumidor Final              000000000040000000000000000000000000000000000000000000000000000000000000000000000000000000000000000000000000000000000000PES00010000001 00000000000000020150111
201501010060000700000000000000384640000000000000003846409900000000000000000000Consumidor Final              000000000040000000000000000000000000000000000000000000000000000000000000000000000000000000000000000000000000000000000000PES00010000001 00000000000000020150111
201501010060000700000000000000384641000000000000003846419900000000000000000000Consumidor Final              000000000040000000000000000000000000000000000000000000000000000000000000000000000000000000000000000000000000000000000000PES00010000001 00000000000000020150111
201501010060000700000000000000384642000000000000003846429900000000000000000000Consumidor Final              000000000048000000000000000000000000000000000000000000000000000000000000000000000000000000000000000000000000000000000000PES00010000001 00000000000000020150111
201501010060000700000000000000384643000000000000003846439900000000000000000000Consumidor Final              000000000040000000000000000000000000000000000000000000000000000000000000000000000000000000000000000000000000000000000000PES00010000001 00000000000000020150111
201501010060000700000000000000384647000000000000003846479900000000000000000000Consumidor Final              000000000043000000000000000000000000000000000000000000000000000000000000000000000000000000000000000000000000000000000000PES00010000001 00000000000000020150111
201501010060000700000000000000384648000000000000003846489900000000000000000000Consumidor Final              000000000040000000000000000000000000000000000000000000000000000000000000000000000000000000000000000000000000000000000000PES00010000001 00000000000000020150111
201501010060000700000000000000384649000000000000003846499900000000000000000000Consumidor Final              000000000040000000000000000000000000000000000000000000000000000000000000000000000000000000000000000000000000000000000000PES00010000001 00000000000000020150111
201501010060000700000000000000384650000000000000003846509900000000000000000000Consumidor Final              000000000040000000000000000000000000000000000000000000000000000000000000000000000000000000000000000000000000000000000000PES00010000001 00000000000000020150111
201501010060000700000000000000384651000000000000003846519900000000000000000000Consumidor Final              000000000040000000000000000000000000000000000000000000000000000000000000000000000000000000000000000000000000000000000000PES00010000001 00000000000000020150111
201501010060000700000000000000384652000000000000003846529900000000000000000000Consumidor Final              000000000040000000000000000000000000000000000000000000000000000000000000000000000000000000000000000000000000000000000000PES00010000001 00000000000000020150111
201501010060000700000000000000384676000000000000003846769900000000000000000000Consumidor Final              000000000040000000000000000000000000000000000000000000000000000000000000000000000000000000000000000000000000000000000000PES00010000001 00000000000000020150111
201501010060000700000000000000384682000000000000003846829900000000000000000000Consumidor Final              000000000048000000000000000000000000000000000000000000000000000000000000000000000000000000000000000000000000000000000000PES00010000001 00000000000000020150111
201501010060000700000000000000384683000000000000003846839900000000000000000000Consumidor Final              000000000040000000000000000000000000000000000000000000000000000000000000000000000000000000000000000000000000000000000000PES00010000001 00000000000000020150111
201501010060000700000000000000384684000000000000003846849900000000000000000000Consumidor Final              000000000043000000000000000000000000000000000000000000000000000000000000000000000000000000000000000000000000000000000000PES00010000001 00000000000000020150111
201501010060000700000000000000384700000000000000003847009900000000000000000000Consumidor Final              000000000040000000000000000000000000000000000000000000000000000000000000000000000000000000000000000000000000000000000000PES00010000001 00000000000000020150111
201501010060000700000000000000384701000000000000003847019900000000000000000000Consumidor Final              000000000048000000000000000000000000000000000000000000000000000000000000000000000000000000000000000000000000000000000000PES00010000001 00000000000000020150111
201501010060000700000000000000384702000000000000003847029900000000000000000000Consumidor Final              000000000040000000000000000000000000000000000000000000000000000000000000000000000000000000000000000000000000000000000000PES00010000001 00000000000000020150111
201501010060000700000000000000384703000000000000003847039900000000000000000000Consumidor Final              000000000040000000000000000000000000000000000000000000000000000000000000000000000000000000000000000000000000000000000000PES00010000001 00000000000000020150111
201501010060000700000000000000384704000000000000003847049900000000000000000000Consumidor Final              000000000040000000000000000000000000000000000000000000000000000000000000000000000000000000000000000000000000000000000000PES00010000001 00000000000000020150111
201501010060000700000000000000384705000000000000003847059900000000000000000000Consumidor Final              000000000040000000000000000000000000000000000000000000000000000000000000000000000000000000000000000000000000000000000000PES00010000001 00000000000000020150111
201501010060000700000000000000384706000000000000003847069900000000000000000000Consumidor Final              000000000040000000000000000000000000000000000000000000000000000000000000000000000000000000000000000000000000000000000000PES00010000001 00000000000000020150111
201501010060000700000000000000384707000000000000003847079900000000000000000000Consumidor Final              000000000040000000000000000000000000000000000000000000000000000000000000000000000000000000000000000000000000000000000000PES00010000001 00000000000000020150111
201501010060000700000000000000384708000000000000003847089900000000000000000000Consumidor Final              000000000040000000000000000000000000000000000000000000000000000000000000000000000000000000000000000000000000000000000000PES00010000001 00000000000000020150111
201501010060000700000000000000384709000000000000003847099900000000000000000000Consumidor Final              000000000040000000000000000000000000000000000000000000000000000000000000000000000000000000000000000000000000000000000000PES00010000001 00000000000000020150111
201501010060000800000000000000120242000000000000001202429900000000000000000000Consumidor Final              000000000035000000000000000000000000000000000000000000000000000000000000000000000000000000000000000000000000000000000000PES00010000001 00000000000000020150111
201501010060000700000000000000384690000000000000003846909900000000000000000000Consumidor Final              000000000040000000000000000000000000000000000000000000000000000000000000000000000000000000000000000000000000000000000000PES00010000001 00000000000000020150111
201501010060000800000000000000120243000000000000001202439900000000000000000000Consumidor Final              000000000035000000000000000000000000000000000000000000000000000000000000000000000000000000000000000000000000000000000000PES00010000001 00000000000000020150111
201501010060000700000000000000384691000000000000003846919900000000000000000000Consumidor Final              000000000040000000000000000000000000000000000000000000000000000000000000000000000000000000000000000000000000000000000000PES00010000001 00000000000000020150111
201501010060000700000000000000384692000000000000003846929900000000000000000000Consumidor Final              000000000040000000000000000000000000000000000000000000000000000000000000000000000000000000000000000000000000000000000000PES00010000001 00000000000000020150111
201501010060000700000000000000384693000000000000003846939900000000000000000000Consumidor Final              000000000039000000000000000000000000000000000000000000000000000000000000000000000000000000000000000000000000000000000000PES00010000001 00000000000000020150111
201501010060000700000000000000384694000000000000003846949900000000000000000000Consumidor Final              000000000040000000000000000000000000000000000000000000000000000000000000000000000000000000000000000000000000000000000000PES00010000001 00000000000000020150111
201501010060000700000000000000384695000000000000003846959900000000000000000000Consumidor Final              000000000040000000000000000000000000000000000000000000000000000000000000000000000000000000000000000000000000000000000000PES00010000001 00000000000000020150111
201501010060000700000000000000384696000000000000003846969900000000000000000000Consumidor Final              000000000040000000000000000000000000000000000000000000000000000000000000000000000000000000000000000000000000000000000000PES00010000001 00000000000000020150111
201501010060000700000000000000384697000000000000003846979900000000000000000000Consumidor Final              000000000040000000000000000000000000000000000000000000000000000000000000000000000000000000000000000000000000000000000000PES00010000001 00000000000000020150111
201501010060000700000000000000384698000000000000003846989900000000000000000000Consumidor Final              000000000040000000000000000000000000000000000000000000000000000000000000000000000000000000000000000000000000000000000000PES00010000001 00000000000000020150111
201501010060000700000000000000384699000000000000003846999900000000000000000000Consumidor Final              000000000040000000000000000000000000000000000000000000000000000000000000000000000000000000000000000000000000000000000000PES00010000001 00000000000000020150111
201501010060000700000000000000384729000000000000003847299900000000000000000000Consumidor Final              000000000040000000000000000000000000000000000000000000000000000000000000000000000000000000000000000000000000000000000000PES00010000001 00000000000000020150111
201501010060000700000000000000384730000000000000003847309900000000000000000000Consumidor Final              000000000040000000000000000000000000000000000000000000000000000000000000000000000000000000000000000000000000000000000000PES00010000001 00000000000000020150111
201501010060000700000000000000384778000000000000003847789900000000000000000000Consumidor Final              000000000040000000000000000000000000000000000000000000000000000000000000000000000000000000000000000000000000000000000000PES00010000001 00000000000000020150111
201501010060000700000000000000384779000000000000003847799900000000000000000000Consumidor Final              000000000048000000000000000000000000000000000000000000000000000000000000000000000000000000000000000000000000000000000000PES00010000001 00000000000000020150111
201501010060000700000000000000384780000000000000003847809900000000000000000000Consumidor Final              000000000040000000000000000000000000000000000000000000000000000000000000000000000000000000000000000000000000000000000000PES00010000001 00000000000000020150111
201501010060000700000000000000384781000000000000003847819900000000000000000000Consumidor Final              000000000040000000000000000000000000000000000000000000000000000000000000000000000000000000000000000000000000000000000000PES00010000001 00000000000000020150111
201501010060000700000000000000384782000000000000003847829900000000000000000000Consumidor Final              000000000040000000000000000000000000000000000000000000000000000000000000000000000000000000000000000000000000000000000000PES00010000001 00000000000000020150111
201501010060000700000000000000384783000000000000003847839900000000000000000000Consumidor Final              000000000040000000000000000000000000000000000000000000000000000000000000000000000000000000000000000000000000000000000000PES00010000001 00000000000000020150111
201501010060000600000000000000595432000000000000005954329900000000000000000000Consumidor Final              000000000048000000000000000000000000000000000000000000000000000000000000000000000000000000000000000000000000000000000000PES00010000001 00000000000000020150111
201501010060000700000000000000384790000000000000003847909900000000000000000000Consumidor Final              000000000040000000000000000000000000000000000000000000000000000000000000000000000000000000000000000000000000000000000000PES00010000001 00000000000000020150111
201501010060000600000000000000595438000000000000005954389900000000000000000000Consumidor Final              000000000043000000000000000000000000000000000000000000000000000000000000000000000000000000000000000000000000000000000000PES00010000001 00000000000000020150111
201501010060000600000000000000595439000000000000005954399900000000000000000000Consumidor Final              000000000041000000000000000000000000000000000000000000000000000000000000000000000000000000000000000000000000000000000000PES00010000001 00000000000000020150111
201501010060000600000000000000595440000000000000005954409900000000000000000000Consumidor Final              000000000043000000000000000000000000000000000000000000000000000000000000000000000000000000000000000000000000000000000000PES00010000001 00000000000000020150111
201501010060000600000000000000595441000000000000005954419900000000000000000000Consumidor Final              000000000040000000000000000000000000000000000000000000000000000000000000000000000000000000000000000000000000000000000000PES00010000001 00000000000000020150111
201501010060000800000000000000120254000000000000001202549900000000000000000000Consumidor Final              000000000035000000000000000000000000000000000000000000000000000000000000000000000000000000000000000000000000000000000000PES00010000001 00000000000000020150111
201501010060000800000000000000120255000000000000001202559900000000000000000000Consumidor Final              000000000035000000000000000000000000000000000000000000000000000000000000000000000000000000000000000000000000000000000000PES00010000001 00000000000000020150111
201501010060000600000000000000595461000000000000005954619900000000000000000000Consumidor Final              000000000040000000000000000000000000000000000000000000000000000000000000000000000000000000000000000000000000000000000000PES00010000001 00000000000000020150111
201501010060000600000000000000595462000000000000005954629900000000000000000000Consumidor Final              000000000040000000000000000000000000000000000000000000000000000000000000000000000000000000000000000000000000000000000000PES00010000001 00000000000000020150111
201501010060000600000000000000595463000000000000005954639900000000000000000000Consumidor Final              000000000040000000000000000000000000000000000000000000000000000000000000000000000000000000000000000000000000000000000000PES00010000001 00000000000000020150111
201501010060000600000000000000595466000000000000005954669900000000000000000000Consumidor Final              000000000040000000000000000000000000000000000000000000000000000000000000000000000000000000000000000000000000000000000000PES00010000001 00000000000000020150111
201501010060000600000000000000595467000000000000005954679900000000000000000000Consumidor Final              000000000040000000000000000000000000000000000000000000000000000000000000000000000000000000000000000000000000000000000000PES00010000001 00000000000000020150111
201501010060000600000000000000595468000000000000005954689900000000000000000000Consumidor Final              000000000040000000000000000000000000000000000000000000000000000000000000000000000000000000000000000000000000000000000000PES00010000001 00000000000000020150111
201501010060000600000000000000595469000000000000005954699900000000000000000000Consumidor Final              000000000040000000000000000000000000000000000000000000000000000000000000000000000000000000000000000000000000000000000000PES00010000001 00000000000000020150111
201501010060000600000000000000595470000000000000005954709900000000000000000000Consumidor Final              000000000040000000000000000000000000000000000000000000000000000000000000000000000000000000000000000000000000000000000000PES00010000001 00000000000000020150111
201501010060000600000000000000595471000000000000005954719900000000000000000000Consumidor Final              000000000015000000000000000000000000000000000000000000000000000000000000000000000000000000000000000000000000000000000000PES00010000001 00000000000000020150111
201501010060000600000000000000595472000000000000005954729900000000000000000000Consumidor Final              000000000040000000000000000000000000000000000000000000000000000000000000000000000000000000000000000000000000000000000000PES00010000001 00000000000000020150111
201501010010000900000000000000000417000000000000000004178000000000030630430913TOSHIN TOURS                  000000000040000000000000000000000000000000000000000000000000000000000000000000000000000000000000000000000000000000000000PES00010000001 00000000000000020150111
201501010060000900000000000000017081000000000000000170819900000000000000000000Consumidor Final              000000000040000000000000000000000000000000000000000000000000000000000000000000000000000000000000000000000000000000000000PES00010000001 00000000000000020150111
201501010060000900000000000000017082000000000000000170829900000000000000000000Consumidor Final              000000000040000000000000000000000000000000000000000000000000000000000000000000000000000000000000000000000000000000000000PES00010000001 00000000000000020150111
201501010060000900000000000000017083000000000000000170839900000000000000000000Consumidor Final              000000000040000000000000000000000000000000000000000000000000000000000000000000000000000000000000000000000000000000000000PES00010000001 00000000000000020150111
201501020060000800000000000000120269000000000000001202699900000000000000000000Consumidor Final              000000000035000000000000000000000000000000000000000000000000000000000000000000000000000000000000000000000000000000000000PES00010000001 00000000000000020150112
201501020060000700000000000000384894000000000000003848949900000000000000000000Consumidor Final              000000000040000000000000000000000000000000000000000000000000000000000000000000000000000000000000000000000000000000000000PES00010000001 00000000000000020150112
201501020060000700000000000000384895000000000000003848959900000000000000000000Consumidor Final              000000000040000000000000000000000000000000000000000000000000000000000000000000000000000000000000000000000000000000000000PES00010000001 00000000000000020150112
201501020060000700000000000000384900000000000000003849009900000000000000000000Consumidor Final              000000000040000000000000000000000000000000000000000000000000000000000000000000000000000000000000000000000000000000000000PES00010000001 00000000000000020150112
201501020060000700000000000000384901000000000000003849019900000000000000000000Consumidor Final              000000000040000000000000000000000000000000000000000000000000000000000000000000000000000000000000000000000000000000000000PES00010000001 00000000000000020150112
201501020060000700000000000000384902000000000000003849029900000000000000000000Consumidor Final              000000000040000000000000000000000000000000000000000000000000000000000000000000000000000000000000000000000000000000000000PES00010000001 00000000000000020150112
201501020060000700000000000000384903000000000000003849039900000000000000000000Consumidor Final              000000000043000000000000000000000000000000000000000000000000000000000000000000000000000000000000000000000000000000000000PES00010000001 00000000000000020150112
201501020060000700000000000000384904000000000000003849049900000000000000000000Consumidor Final              000000000040000000000000000000000000000000000000000000000000000000000000000000000000000000000000000000000000000000000000PES00010000001 00000000000000020150112
201501020060000700000000000000384921000000000000003849219900000000000000000000Consumidor Final              000000000040000000000000000000000000000000000000000000000000000000000000000000000000000000000000000000000000000000000000PES00010000001 00000000000000020150112
201501020060000700000000000000384922000000000000003849229900000000000000000000Consumidor Final              000000000040000000000000000000000000000000000000000000000000000000000000000000000000000000000000000000000000000000000000PES00010000001 00000000000000020150112
201501020060000700000000000000384923000000000000003849239900000000000000000000Consumidor Final              000000000040000000000000000000000000000000000000000000000000000000000000000000000000000000000000000000000000000000000000PES00010000001 00000000000000020150112
201501020060000700000000000000384924000000000000003849249900000000000000000000Consumidor Final              000000000048000000000000000000000000000000000000000000000000000000000000000000000000000000000000000000000000000000000000PES00010000001 00000000000000020150112
201501020060000700000000000000384925000000000000003849259900000000000000000000Consumidor Final              000000000040000000000000000000000000000000000000000000000000000000000000000000000000000000000000000000000000000000000000PES00010000001 00000000000000020150112
201501020060000700000000000000384927000000000000003849279900000000000000000000Consumidor Final              000000000040000000000000000000000000000000000000000000000000000000000000000000000000000000000000000000000000000000000000PES00010000001 00000000000000020150112
201501020060000700000000000000384926000000000000003849269900000000000000000000Consumidor Final              000000000040000000000000000000000000000000000000000000000000000000000000000000000000000000000000000000000000000000000000PES00010000001 00000000000000020150112
201501020060000600000000000000595572000000000000005955729900000000000000000000Consumidor Final              000000000040000000000000000000000000000000000000000000000000000000000000000000000000000000000000000000000000000000000000PES00010000001 00000000000000020150112
201501020060000800000000000000120288000000000000001202889900000000000000000000Consumidor Final              000000000043000000000000000000000000000000000000000000000000000000000000000000000000000000000000000000000000000000000000PES00010000001 00000000000000020150112
201501020060000700000000000000384966000000000000003849669900000000000000000000Consumidor Final              000000000048000000000000000000000000000000000000000000000000000000000000000000000000000000000000000000000000000000000000PES00010000001 00000000000000020150112
201501020060000800000000000000120289000000000000001202899900000000000000000000Consumidor Final              000000000035000000000000000000000000000000000000000000000000000000000000000000000000000000000000000000000000000000000000PES00010000001 00000000000000020150112
201501020060000800000000000000120290000000000000001202909900000000000000000000Consumidor Final              000000000035000000000000000000000000000000000000000000000000000000000000000000000000000000000000000000000000000000000000PES00010000001 00000000000000020150112
201501020060000800000000000000120291000000000000001202919900000000000000000000Consumidor Final              000000000035000000000000000000000000000000000000000000000000000000000000000000000000000000000000000000000000000000000000PES00010000001 00000000000000020150112
201501020060000800000000000000120292000000000000001202929900000000000000000000Consumidor Final              000000000035000000000000000000000000000000000000000000000000000000000000000000000000000000000000000000000000000000000000PES00010000001 00000000000000020150112
201501020060000700000000000000384967000000000000003849679900000000000000000000Consumidor Final              000000000040000000000000000000000000000000000000000000000000000000000000000000000000000000000000000000000000000000000000PES00010000001 00000000000000020150112
201501020060000700000000000000384968000000000000003849689900000000000000000000Consumidor Final              000000000040000000000000000000000000000000000000000000000000000000000000000000000000000000000000000000000000000000000000PES00010000001 00000000000000020150112
201501020060000700000000000000384969000000000000003849699900000000000000000000Consumidor Final              000000000040000000000000000000000000000000000000000000000000000000000000000000000000000000000000000000000000000000000000PES00010000001 00000000000000020150112
201501020060000700000000000000384970000000000000003849709900000000000000000000Consumidor Final              000000000040000000000000000000000000000000000000000000000000000000000000000000000000000000000000000000000000000000000000PES00010000001 00000000000000020150112
201501020010000800000000000000004147000000000000000041478000000000030540396678ARIMEX IMPORTADORA S.A.       000000000055000000000000000000000000000000000000000000000000000000000000000000000000000000000000000000000000000000000000PES00010000001 00000000000000020150112
201501020010000800000000000000004148000000000000000041488000000000030540396678ARIMEX IMPORTADORA S.A.       000000000035000000000000000000000000000000000000000000000000000000000000000000000000000000000000000000000000000000000000PES00010000001 00000000000000020150112
201501020060000700000000000000384986000000000000003849869900000000000000000000Consumidor Final              000000000040000000000000000000000000000000000000000000000000000000000000000000000000000000000000000000000000000000000000PES00010000001 00000000000000020150112
201501020060000600000000000000595594000000000000005955949900000000000000000000Consumidor Final              000000000040000000000000000000000000000000000000000000000000000000000000000000000000000000000000000000000000000000000000PES00010000001 00000000000000020150112
201501020060000700000000000000384987000000000000003849879900000000000000000000Consumidor Final              000000000040000000000000000000000000000000000000000000000000000000000000000000000000000000000000000000000000000000000000PES00010000001 00000000000000020150112
201501020060000600000000000000595595000000000000005955959900000000000000000000Consumidor Final              000000000045000000000000000000000000000000000000000000000000000000000000000000000000000000000000000000000000000000000000PES00010000001 00000000000000020150112
201501020060000600000000000000595597000000000000005955979900000000000000000000Consumidor Final              000000000076000000000000000000000000000000000000000000000000000000000000000000000000000000000000000000000000000000000000PES00010000001 00000000000000020150112
201501020060000600000000000000595598000000000000005955989900000000000000000000Consumidor Final              000000000040000000000000000000000000000000000000000000000000000000000000000000000000000000000000000000000000000000000000PES00010000001 00000000000000020150112
201501020060000600000000000000595599000000000000005955999900000000000000000000Consumidor Final              000000000040000000000000000000000000000000000000000000000000000000000000000000000000000000000000000000000000000000000000PES00010000001 00000000000000020150112
201501020060000600000000000000595600000000000000005956009900000000000000000000Consumidor Final              000000000040000000000000000000000000000000000000000000000000000000000000000000000000000000000000000000000000000000000000PES00010000001 00000000000000020150112
201501020060000600000000000000595601000000000000005956019900000000000000000000Consumidor Final              000000000040000000000000000000000000000000000000000000000000000000000000000000000000000000000000000000000000000000000000PES00010000001 00000000000000020150112
201501020060000600000000000000595602000000000000005956029900000000000000000000Consumidor Final              000000000040000000000000000000000000000000000000000000000000000000000000000000000000000000000000000000000000000000000000PES00010000001 00000000000000020150112
201501020060000700000000000000384995000000000000003849959900000000000000000000Consumidor Final              000000000040000000000000000000000000000000000000000000000000000000000000000000000000000000000000000000000000000000000000PES00010000001 00000000000000020150112
201501020060000700000000000000384996000000000000003849969900000000000000000000Consumidor Final              000000000040000000000000000000000000000000000000000000000000000000000000000000000000000000000000000000000000000000000000PES00010000001 00000000000000020150112
201501020060000800000000000000120296000000000000001202969900000000000000000000Consumidor Final              000000000035000000000000000000000000000000000000000000000000000000000000000000000000000000000000000000000000000000000000PES00010000001 00000000000000020150112
201501020060000800000000000000120297000000000000001202979900000000000000000000Consumidor Final              000000000035000000000000000000000000000000000000000000000000000000000000000000000000000000000000000000000000000000000000PES00010000001 00000000000000020150112
201501020060000700000000000000385004000000000000003850049900000000000000000000Consumidor Final              000000000040000000000000000000000000000000000000000000000000000000000000000000000000000000000000000000000000000000000000PES00010000001 00000000000000020150112
201501020060000700000000000000385015000000000000003850159900000000000000000000Consumidor Final              000000000040000000000000000000000000000000000000000000000000000000000000000000000000000000000000000000000000000000000000PES00010000001 00000000000000020150112
201501020060000600000000000000595620000000000000005956209900000000000000000000Consumidor Final              000000000040000000000000000000000000000000000000000000000000000000000000000000000000000000000000000000000000000000000000PES00010000001 00000000000000020150112
201501020060000700000000000000385028000000000000003850289900000000000000000000Consumidor Final              000000000045000000000000000000000000000000000000000000000000000000000000000000000000000000000000000000000000000000000000PES00010000001 00000000000000020150112
201501020060000600000000000000595621000000000000005956219900000000000000000000Consumidor Final              000000000040000000000000000000000000000000000000000000000000000000000000000000000000000000000000000000000000000000000000PES00010000001 00000000000000020150112
201501020060000600000000000000595622000000000000005956229900000000000000000000Consumidor Final              000000000040000000000000000000000000000000000000000000000000000000000000000000000000000000000000000000000000000000000000PES00010000001 00000000000000020150112
201501020060000600000000000000595623000000000000005956239900000000000000000000Consumidor Final              000000000048000000000000000000000000000000000000000000000000000000000000000000000000000000000000000000000000000000000000PES00010000001 00000000000000020150112
201501020060000600000000000000595624000000000000005956249900000000000000000000Consumidor Final              000000000047000000000000000000000000000000000000000000000000000000000000000000000000000000000000000000000000000000000000PES00010000001 00000000000000020150112
201501020060000600000000000000595625000000000000005956259900000000000000000000Consumidor Final              000000000040000000000000000000000000000000000000000000000000000000000000000000000000000000000000000000000000000000000000PES00010000001 00000000000000020150112
201501020060000600000000000000595627000000000000005956279900000000000000000000Consumidor Final              000000000043000000000000000000000000000000000000000000000000000000000000000000000000000000000000000000000000000000000000PES00010000001 00000000000000020150112
201501020060000600000000000000595628000000000000005956289900000000000000000000Consumidor Final              000000000040000000000000000000000000000000000000000000000000000000000000000000000000000000000000000000000000000000000000PES00010000001 00000000000000020150112
201501020060000600000000000000595629000000000000005956299900000000000000000000Consumidor Final              000000000040000000000000000000000000000000000000000000000000000000000000000000000000000000000000000000000000000000000000PES00010000001 00000000000000020150112
201501020060000700000000000000385030000000000000003850309900000000000000000000Consumidor Final              000000000040000000000000000000000000000000000000000000000000000000000000000000000000000000000000000000000000000000000000PES00010000001 00000000000000020150112
201501020060000700000000000000385031000000000000003850319900000000000000000000Consumidor Final              000000000040000000000000000000000000000000000000000000000000000000000000000000000000000000000000000000000000000000000000PES00010000001 00000000000000020150112
201501010060000700000000000000384710000000000000003847109900000000000000000000Consumidor Final              000000000040000000000000000000000000000000000000000000000000000000000000000000000000000000000000000000000000000000000000PES00010000001 00000000000000020150111
201501010060000700000000000000384712000000000000003847129900000000000000000000Consumidor Final              000000000040000000000000000000000000000000000000000000000000000000000000000000000000000000000000000000000000000000000000PES00010000001 00000000000000020150111
201501010060000700000000000000384713000000000000003847139900000000000000000000Consumidor Final              000000000040000000000000000000000000000000000000000000000000000000000000000000000000000000000000000000000000000000000000PES00010000001 00000000000000020150111
201501010060000700000000000000384714000000000000003847149900000000000000000000Consumidor Final              000000000040000000000000000000000000000000000000000000000000000000000000000000000000000000000000000000000000000000000000PES00010000001 00000000000000020150111
201501010060000700000000000000384715000000000000003847159900000000000000000000Consumidor Final              000000000040000000000000000000000000000000000000000000000000000000000000000000000000000000000000000000000000000000000000PES00010000001 00000000000000020150111
201501010060000700000000000000384716000000000000003847169900000000000000000000Consumidor Final              000000000057000000000000000000000000000000000000000000000000000000000000000000000000000000000000000000000000000000000000PES00010000001 00000000000000020150111
201501010060000700000000000000384721000000000000003847219900000000000000000000Consumidor Final              000000000040000000000000000000000000000000000000000000000000000000000000000000000000000000000000000000000000000000000000PES00010000001 00000000000000020150111
201501010060000700000000000000384722000000000000003847229900000000000000000000Consumidor Final              000000000040000000000000000000000000000000000000000000000000000000000000000000000000000000000000000000000000000000000000PES00010000001 00000000000000020150111
201501010060000700000000000000384723000000000000003847239900000000000000000000Consumidor Final              000000000040000000000000000000000000000000000000000000000000000000000000000000000000000000000000000000000000000000000000PES00010000001 00000000000000020150111
201501010060000700000000000000384724000000000000003847249900000000000000000000Consumidor Final              000000000040000000000000000000000000000000000000000000000000000000000000000000000000000000000000000000000000000000000000PES00010000001 00000000000000020150111
201501010060000700000000000000384725000000000000003847259900000000000000000000Consumidor Final              000000000040000000000000000000000000000000000000000000000000000000000000000000000000000000000000000000000000000000000000PES00010000001 00000000000000020150111
201501010060000700000000000000384726000000000000003847269900000000000000000000Consumidor Final              000000000038000000000000000000000000000000000000000000000000000000000000000000000000000000000000000000000000000000000000PES00010000001 00000000000000020150111
201501010060000700000000000000384727000000000000003847279900000000000000000000Consumidor Final              000000000040000000000000000000000000000000000000000000000000000000000000000000000000000000000000000000000000000000000000PES00010000001 00000000000000020150111
201501010060000700000000000000384728000000000000003847289900000000000000000000Consumidor Final              000000000040000000000000000000000000000000000000000000000000000000000000000000000000000000000000000000000000000000000000PES00010000001 00000000000000020150111
201501010060000700000000000000384711000000000000003847119900000000000000000000Consumidor Final              000000000040000000000000000000000000000000000000000000000000000000000000000000000000000000000000000000000000000000000000PES00010000001 00000000000000020150111
201501010060000700000000000000384731000000000000003847319900000000000000000000Consumidor Final              000000000038000000000000000000000000000000000000000000000000000000000000000000000000000000000000000000000000000000000000PES00010000001 00000000000000020150111
201501010060000700000000000000384732000000000000003847329900000000000000000000Consumidor Final              000000000040000000000000000000000000000000000000000000000000000000000000000000000000000000000000000000000000000000000000PES00010000001 00000000000000020150111
201501010060000800000000000000120249000000000000001202499900000000000000000000Consumidor Final              000000000035000000000000000000000000000000000000000000000000000000000000000000000000000000000000000000000000000000000000PES00010000001 00000000000000020150111
201501010060000700000000000000384744000000000000003847449900000000000000000000Consumidor Final              000000000041000000000000000000000000000000000000000000000000000000000000000000000000000000000000000000000000000000000000PES00010000001 00000000000000020150111
201501010060000700000000000000384746000000000000003847469900000000000000000000Consumidor Final              000000000040000000000000000000000000000000000000000000000000000000000000000000000000000000000000000000000000000000000000PES00010000001 00000000000000020150111
201501010060000600000000000000595416000000000000005954169900000000000000000000Consumidor Final              000000000040000000000000000000000000000000000000000000000000000000000000000000000000000000000000000000000000000000000000PES00010000001 00000000000000020150111
201501010060000700000000000000384772000000000000003847729900000000000000000000Consumidor Final              000000000031000000000000000000000000000000000000000000000000000000000000000000000000000000000000000000000000000000000000PES00010000001 00000000000000020150111
201501010060000800000000000000120251000000000000001202519900000000000000000000Consumidor Final              000000000035000000000000000000000000000000000000000000000000000000000000000000000000000000000000000000000000000000000000PES00010000001 00000000000000020150111
201501010060000800000000000000120252000000000000001202529900000000000000000000Consumidor Final              000000000042000000000000000000000000000000000000000000000000000000000000000000000000000000000000000000000000000000000000PES00010000001 00000000000000020150111
201501010060000800000000000000120253000000000000001202539900000000000000000000Consumidor Final              000000000042000000000000000000000000000000000000000000000000000000000000000000000000000000000000000000000000000000000000PES00010000001 00000000000000020150111
201501010060000600000000000000595417000000000000005954179900000000000000000000Consumidor Final              000000000040000000000000000000000000000000000000000000000000000000000000000000000000000000000000000000000000000000000000PES00010000001 00000000000000020150111
201501010060000700000000000000384775000000000000003847759900000000000000000000Consumidor Final              000000000040000000000000000000000000000000000000000000000000000000000000000000000000000000000000000000000000000000000000PES00010000001 00000000000000020150111
201501010060000700000000000000384776000000000000003847769900000000000000000000Consumidor Final              000000000040000000000000000000000000000000000000000000000000000000000000000000000000000000000000000000000000000000000000PES00010000001 00000000000000020150111
201501010060000700000000000000384717000000000000003847179900000000000000000000Consumidor Final              000000000040000000000000000000000000000000000000000000000000000000000000000000000000000000000000000000000000000000000000PES00010000001 00000000000000020150111
201501010060000700000000000000384718000000000000003847189900000000000000000000Consumidor Final              000000000040000000000000000000000000000000000000000000000000000000000000000000000000000000000000000000000000000000000000PES00010000001 00000000000000020150111
201501010060000700000000000000384719000000000000003847199900000000000000000000Consumidor Final              000000000040000000000000000000000000000000000000000000000000000000000000000000000000000000000000000000000000000000000000PES00010000001 00000000000000020150111
