201501050060000700000000000000385984000000000000003859849900000000000000000000Consumidor Final              000000000274000000000000000000000000000000000000000000000000000000000000000000000000000000000000000000000000000000000000PES00010000001 00000000000000020150115
201501050060000700000000000000385987000000000000003859879900000000000000000000Consumidor Final              000000000274000000000000000000000000000000000000000000000000000000000000000000000000000000000000000000000000000000000000PES00010000001 00000000000000020150115
201501060060000800000000000000120587000000000000001205879900000000000000000000Consumidor Final              000000000274000000000000000000000000000000000000000000000000000000000000000000000000000000000000000000000000000000000000PES00010000001 00000000000000020150116
201501070060000600000000000000596628000000000000005966289900000000000000000000Consumidor Final              000000000116000000000000000000000000000000000000000000000000000000000000000000000000000000000000000000000000000000000000PES00010000001 00000000000000020150117
201501080060000700000000000000386485000000000000003864859900000000000000000000Consumidor Final              000000000144000000000000000000000000000000000000000000000000000000000000000000000000000000000000000000000000000000000000PES00010000001 00000000000000020150118
201501090060000700000000000000386618000000000000003866189900000000000000000000Consumidor Final              000000000115000000000000000000000000000000000000000000000000000000000000000000000000000000000000000000000000000000000000PES00010000001 00000000000000020150119
201501130060000600000000000000597885000000000000005978859900000000000000000000Consumidor Final              000000000128000000000000000000000000000000000000000000000000000000000000000000000000000000000000000000000000000000000000PES00010000001 00000000000000020150123
201501150060000900000000000000017602000000000000000176029900000000000000000000Consumidor Final              000000000124000000000000000000000000000000000000000000000000000000000000000000000000000000000000000000000000000000000000PES00010000001 00000000000000020150125
201501160060000600000000000000598367000000000000005983679900000000000000000000Consumidor Final              000000000124000000000000000000000000000000000000000000000000000000000000000000000000000000000000000000000000000000000000PES00010000001 00000000000000020150126
201501170060000600000000000000598555000000000000005985559900000000000000000000Consumidor Final              000000000486600000000000000000000000000000000000000000000000000000000000000000000000000000000000000000000000000000000000PES00010000001 00000000000000020150127
201501180060000600000000000000598830000000000000005988309900000000000000000000Consumidor Final              000000000137000000000000000000000000000000000000000000000000000000000000000000000000000000000000000000000000000000000000PES00010000001 00000000000000020150128
201501260060000600000000000000600490000000000000006004909900000000000000000000Consumidor Final              000000000233000000000000000000000000000000000000000000000000000000000000000000000000000000000000000000000000000000000000PES00010000001 00000000000000020150205
201501270060000700000000000000389884000000000000003898849900000000000000000000Consumidor Final              000000000164000000000000000000000000000000000000000000000000000000000000000000000000000000000000000000000000000000000000PES00010000001 00000000000000020150206
201501290060000900000000000000018082000000000000000180829900000000000000000000Consumidor Final              000000000119000000000000000000000000000000000000000000000000000000000000000000000000000000000000000000000000000000000000PES00010000001 00000000000000020150208
201501310060000600000000000000601308000000000000006013089900000000000000000000Consumidor Final              000000000380000000000000000000000000000000000000000000000000000000000000000000000000000000000000000000000000000000000000PES00010000001 00000000000000020150210