201605020060000600000000000000678562000000000000006785629900000000000000000000Consumidor Final              000000000053000000000000053000000000000000000000000000000000000000000000000000000000000000000000000000000000000000000000PES00010000001N00000000000000020160512
201605020060000600000000000000678563000000000000006785639900000000000000000000Consumidor Final              000000000053000000000000053000000000000000000000000000000000000000000000000000000000000000000000000000000000000000000000PES00010000001N00000000000000020160512
201605020060000600000000000000678564000000000000006785649900000000000000000000Consumidor Final              000000000053000000000000053000000000000000000000000000000000000000000000000000000000000000000000000000000000000000000000PES00010000001N00000000000000020160512
201605020060000600000000000000678565000000000000006785659900000000000000000000Consumidor Final              000000000063000000000000063000000000000000000000000000000000000000000000000000000000000000000000000000000000000000000000PES00010000001N00000000000000020160512
201605020060000800000000000000157133000000000000001571339900000000000000000000Consumidor Final              000000000043000000000000043000000000000000000000000000000000000000000000000000000000000000000000000000000000000000000000PES00010000001N00000000000000020160512
201605020060000800000000000000157134000000000000001571349900000000000000000000Consumidor Final              000000000043000000000000043000000000000000000000000000000000000000000000000000000000000000000000000000000000000000000000PES00010000001N00000000000000020160512
201605020060000800000000000000157135000000000000001571359900000000000000000000Consumidor Final              000000000043000000000000043000000000000000000000000000000000000000000000000000000000000000000000000000000000000000000000PES00010000001N00000000000000020160512
201605020060000800000000000000157136000000000000001571369900000000000000000000Consumidor Final              000000000043000000000000043000000000000000000000000000000000000000000000000000000000000000000000000000000000000000000000PES00010000001N00000000000000020160512
201605020060000600000000000000678649000000000000006786499900000000000000000000Consumidor Final              000000000054000000000000054000000000000000000000000000000000000000000000000000000000000000000000000000000000000000000000PES00010000001N00000000000000020160512
201605020060000600000000000000678650000000000000006786509900000000000000000000Consumidor Final              000000000042000000000000042000000000000000000000000000000000000000000000000000000000000000000000000000000000000000000000PES00010000001N00000000000000020160512
201605020060000800000000000000157153000000000000001571539900000000000000000000Consumidor Final              000000000043000000000000043000000000000000000000000000000000000000000000000000000000000000000000000000000000000000000000PES00010000001N00000000000000020160512
201605020060000800000000000000157154000000000000001571549900000000000000000000Consumidor Final              000000000043000000000000043000000000000000000000000000000000000000000000000000000000000000000000000000000000000000000000PES00010000001N00000000000000020160512
201605020060000800000000000000157155000000000000001571559900000000000000000000Consumidor Final              000000000043000000000000043000000000000000000000000000000000000000000000000000000000000000000000000000000000000000000000PES00010000001N00000000000000020160512
201605020060000700000000000000463824000000000000004638249900000000000000000000Consumidor Final              000000000053000000000000053000000000000000000000000000000000000000000000000000000000000000000000000000000000000000000000PES00010000001N00000000000000020160512
201605120060000100000000000000197219000000000000001972199900000000000000000000Consumidor Final              000000000053000000000000053000000000000000000000000000000000000000000000000000000000000000000000000000000000000000000000PES00010000001N00000000000000020160522
201605120060000100000000000000197225000000000000001972259900000000000000000000Consumidor Final              000000000053000000000000053000000000000000000000000000000000000000000000000000000000000000000000000000000000000000000000PES00010000001N00000000000000020160522
201605120060000100000000000000197228000000000000001972289900000000000000000000Consumidor Final              000000000063000000000000063000000000000000000000000000000000000000000000000000000000000000000000000000000000000000000000PES00010000001N00000000000000020160522
201605120060000100000000000000197229000000000000001972299900000000000000000000Consumidor Final              000000000053000000000000053000000000000000000000000000000000000000000000000000000000000000000000000000000000000000000000PES00010000001N00000000000000020160522
201605120060000100000000000000197230000000000000001972309900000000000000000000Consumidor Final              000000000053000000000000053000000000000000000000000000000000000000000000000000000000000000000000000000000000000000000000PES00010000001N00000000000000020160522
201605120060000100000000000000197231000000000000001972319900000000000000000000Consumidor Final              000000000053000000000000053000000000000000000000000000000000000000000000000000000000000000000000000000000000000000000000PES00010000001N00000000000000020160522
201605120060000100000000000000197232000000000000001972329900000000000000000000Consumidor Final              000000000086000000000000086000000000000000000000000000000000000000000000000000000000000000000000000000000000000000000000PES00010000001N00000000000000020160522
201605120060000100000000000000197233000000000000001972339900000000000000000000Consumidor Final              000000000053000000000000053000000000000000000000000000000000000000000000000000000000000000000000000000000000000000000000PES00010000001N00000000000000020160522
201605120060000600000000000000680339000000000000006803399900000000000000000000Consumidor Final              000000000053000000000000053000000000000000000000000000000000000000000000000000000000000000000000000000000000000000000000PES00010000001N00000000000000020160522
201605120060000600000000000000680340000000000000006803409900000000000000000000Consumidor Final              000000000053000000000000053000000000000000000000000000000000000000000000000000000000000000000000000000000000000000000000PES00010000001N00000000000000020160522
201605120060000700000000000000464862000000000000004648629900000000000000000000Consumidor Final              000000000053000000000000053000000000000000000000000000000000000000000000000000000000000000000000000000000000000000000000PES00010000001N00000000000000020160522
201605120060000600000000000000680341000000000000006803419900000000000000000000Consumidor Final              000000000077000000000000077000000000000000000000000000000000000000000000000000000000000000000000000000000000000000000000PES00010000001N00000000000000020160522
201605120060000600000000000000680342000000000000006803429900000000000000000000Consumidor Final              000000000053000000000000053000000000000000000000000000000000000000000000000000000000000000000000000000000000000000000000PES00010000001N00000000000000020160522
201605120060000700000000000000464863000000000000004648639900000000000000000000Consumidor Final              000000000053000000000000053000000000000000000000000000000000000000000000000000000000000000000000000000000000000000000000PES00010000001N00000000000000020160522
201605120060000100000000000000197220000000000000001972209900000000000000000000Consumidor Final              000000000053000000000000053000000000000000000000000000000000000000000000000000000000000000000000000000000000000000000000PES00010000001N00000000000000020160522
201605120060000100000000000000197221000000000000001972219900000000000000000000Consumidor Final              000000000051000000000000051000000000000000000000000000000000000000000000000000000000000000000000000000000000000000000000PES00010000001N00000000000000020160522
201605120060000600000000000000680334000000000000006803349900000000000000000000Consumidor Final              000000000074000000000000074000000000000000000000000000000000000000000000000000000000000000000000000000000000000000000000PES00010000001N00000000000000020160522
201605120060000600000000000000680335000000000000006803359900000000000000000000Consumidor Final              000000000053000000000000053000000000000000000000000000000000000000000000000000000000000000000000000000000000000000000000PES00010000001N00000000000000020160522
201605120060000100000000000000197222000000000000001972229900000000000000000000Consumidor Final              000000000053000000000000053000000000000000000000000000000000000000000000000000000000000000000000000000000000000000000000PES00010000001N00000000000000020160522
201605120060000100000000000000197223000000000000001972239900000000000000000000Consumidor Final              000000000053000000000000053000000000000000000000000000000000000000000000000000000000000000000000000000000000000000000000PES00010000001N00000000000000020160522
201605120060000100000000000000197224000000000000001972249900000000000000000000Consumidor Final              000000000063000000000000063000000000000000000000000000000000000000000000000000000000000000000000000000000000000000000000PES00010000001N00000000000000020160522
201605120060000700000000000000464859000000000000004648599900000000000000000000Consumidor Final              000000000053000000000000053000000000000000000000000000000000000000000000000000000000000000000000000000000000000000000000PES00010000001N00000000000000020160522
201605120060000700000000000000464860000000000000004648609900000000000000000000Consumidor Final              000000000053000000000000053000000000000000000000000000000000000000000000000000000000000000000000000000000000000000000000PES00010000001N00000000000000020160522
201605120060000700000000000000464861000000000000004648619900000000000000000000Consumidor Final              000000000053000000000000053000000000000000000000000000000000000000000000000000000000000000000000000000000000000000000000PES00010000001N00000000000000020160522
201605120060000300000000000000112855000000000000001128559900000000000000000000Consumidor Final              000000000053000000000000053000000000000000000000000000000000000000000000000000000000000000000000000000000000000000000000PES00010000001N00000000000000020160522
201605120060000600000000000000680345000000000000006803459900000000000000000000Consumidor Final              000000000053000000000000053000000000000000000000000000000000000000000000000000000000000000000000000000000000000000000000PES00010000001N00000000000000020160522
201605120060000600000000000000680346000000000000006803469900000000000000000000Consumidor Final              000000000053000000000000053000000000000000000000000000000000000000000000000000000000000000000000000000000000000000000000PES00010000001N00000000000000020160522
201605120060000600000000000000680347000000000000006803479900000000000000000000Consumidor Final              000000000053000000000000053000000000000000000000000000000000000000000000000000000000000000000000000000000000000000000000PES00010000001N00000000000000020160522
201605120060000700000000000000464856000000000000004648569900000000000000000000Consumidor Final              000000000053000000000000053000000000000000000000000000000000000000000000000000000000000000000000000000000000000000000000PES00010000001N00000000000000020160522
201605120060000700000000000000464857000000000000004648579900000000000000000000Consumidor Final              000000000053000000000000053000000000000000000000000000000000000000000000000000000000000000000000000000000000000000000000PES00010000001N00000000000000020160522
201605120060000700000000000000464858000000000000004648589900000000000000000000Consumidor Final              000000000053000000000000053000000000000000000000000000000000000000000000000000000000000000000000000000000000000000000000PES00010000001N00000000000000020160522
201605120060000600000000000000680337000000000000006803379900000000000000000000Consumidor Final              000000000055000000000000055000000000000000000000000000000000000000000000000000000000000000000000000000000000000000000000PES00010000001N00000000000000020160522
201605120060000700000000000000464865000000000000004648659900000000000000000000Consumidor Final              000000000053000000000000053000000000000000000000000000000000000000000000000000000000000000000000000000000000000000000000PES00010000001N00000000000000020160522
201605120060000700000000000000464866000000000000004648669900000000000000000000Consumidor Final              000000000053000000000000053000000000000000000000000000000000000000000000000000000000000000000000000000000000000000000000PES00010000001N00000000000000020160522
201605120060000600000000000000680348000000000000006803489900000000000000000000Consumidor Final              000000000053000000000000053000000000000000000000000000000000000000000000000000000000000000000000000000000000000000000000PES00010000001N00000000000000020160522
201605120060000600000000000000680350000000000000006803509900000000000000000000Consumidor Final              000000000053000000000000053000000000000000000000000000000000000000000000000000000000000000000000000000000000000000000000PES00010000001N00000000000000020160522
201605120060000600000000000000680351000000000000006803519900000000000000000000Consumidor Final              000000000043000000000000043000000000000000000000000000000000000000000000000000000000000000000000000000000000000000000000PES00010000001N00000000000000020160522
201605120060000600000000000000680352000000000000006803529900000000000000000000Consumidor Final              000000000053000000000000053000000000000000000000000000000000000000000000000000000000000000000000000000000000000000000000PES00010000001N00000000000000020160522
201605120060000600000000000000680353000000000000006803539900000000000000000000Consumidor Final              000000000054000000000000054000000000000000000000000000000000000000000000000000000000000000000000000000000000000000000000PES00010000001N00000000000000020160522
201605120060000600000000000000680354000000000000006803549900000000000000000000Consumidor Final              000000000053000000000000053000000000000000000000000000000000000000000000000000000000000000000000000000000000000000000000PES00010000001N00000000000000020160522
201605120060000800000000000000157750000000000000001577509900000000000000000000Consumidor Final              000000000043000000000000043000000000000000000000000000000000000000000000000000000000000000000000000000000000000000000000PES00010000001N00000000000000020160522
201605120060000900000000000000029299000000000000000292999900000000000000000000Consumidor Final              000000000055000000000000055000000000000000000000000000000000000000000000000000000000000000000000000000000000000000000000PES00010000001N00000000000000020160522
201605120060000600000000000000680343000000000000006803439900000000000000000000Consumidor Final              000000000051000000000000051000000000000000000000000000000000000000000000000000000000000000000000000000000000000000000000PES00010000001N00000000000000020160522
201605120060000600000000000000680344000000000000006803449900000000000000000000Consumidor Final              000000000051000000000000051000000000000000000000000000000000000000000000000000000000000000000000000000000000000000000000PES00010000001N00000000000000020160522
201605120060000600000000000000680355000000000000006803559900000000000000000000Consumidor Final              000000000053000000000000053000000000000000000000000000000000000000000000000000000000000000000000000000000000000000000000PES00010000001N00000000000000020160522
201605120060000800000000000000157751000000000000001577519900000000000000000000Consumidor Final              000000000043000000000000043000000000000000000000000000000000000000000000000000000000000000000000000000000000000000000000PES00010000001N00000000000000020160522
201605120060000800000000000000157752000000000000001577529900000000000000000000Consumidor Final              000000000043000000000000043000000000000000000000000000000000000000000000000000000000000000000000000000000000000000000000PES00010000001N00000000000000020160522
201605120060000600000000000000680356000000000000006803569900000000000000000000Consumidor Final              000000000053000000000000053000000000000000000000000000000000000000000000000000000000000000000000000000000000000000000000PES00010000001N00000000000000020160522
201605120060000600000000000000680357000000000000006803579900000000000000000000Consumidor Final              000000000053000000000000053000000000000000000000000000000000000000000000000000000000000000000000000000000000000000000000PES00010000001N00000000000000020160522
201605120060000600000000000000680358000000000000006803589900000000000000000000Consumidor Final              000000000063000000000000063000000000000000000000000000000000000000000000000000000000000000000000000000000000000000000000PES00010000001N00000000000000020160522
201605120060000600000000000000680361000000000000006803619900000000000000000000Consumidor Final              000000000053000000000000053000000000000000000000000000000000000000000000000000000000000000000000000000000000000000000000PES00010000001N00000000000000020160522
201605120060000600000000000000680362000000000000006803629900000000000000000000Consumidor Final              000000000063000000000000063000000000000000000000000000000000000000000000000000000000000000000000000000000000000000000000PES00010000001N00000000000000020160522
201605120060000600000000000000680363000000000000006803639900000000000000000000Consumidor Final              000000000053000000000000053000000000000000000000000000000000000000000000000000000000000000000000000000000000000000000000PES00010000001N00000000000000020160522
201605120060000600000000000000680364000000000000006803649900000000000000000000Consumidor Final              000000000053000000000000053000000000000000000000000000000000000000000000000000000000000000000000000000000000000000000000PES00010000001N00000000000000020160522
201605120060000600000000000000680365000000000000006803659900000000000000000000Consumidor Final              000000000053000000000000053000000000000000000000000000000000000000000000000000000000000000000000000000000000000000000000PES00010000001N00000000000000020160522
201605120060000600000000000000680366000000000000006803669900000000000000000000Consumidor Final              000000000053000000000000053000000000000000000000000000000000000000000000000000000000000000000000000000000000000000000000PES00010000001N00000000000000020160522
201605120060000700000000000000464864000000000000004648649900000000000000000000Consumidor Final              000000000053000000000000053000000000000000000000000000000000000000000000000000000000000000000000000000000000000000000000PES00010000001N00000000000000020160522
201605120060000600000000000000680359000000000000006803599900000000000000000000Consumidor Final              000000000053000000000000053000000000000000000000000000000000000000000000000000000000000000000000000000000000000000000000PES00010000001N00000000000000020160522
201605120060000600000000000000680368000000000000006803689900000000000000000000Consumidor Final              000000000053000000000000053000000000000000000000000000000000000000000000000000000000000000000000000000000000000000000000PES00010000001N00000000000000020160522
201605120060000600000000000000680369000000000000006803699900000000000000000000Consumidor Final              000000000053000000000000053000000000000000000000000000000000000000000000000000000000000000000000000000000000000000000000PES00010000001N00000000000000020160522
201605120060000600000000000000680370000000000000006803709900000000000000000000Consumidor Final              000000000051000000000000051000000000000000000000000000000000000000000000000000000000000000000000000000000000000000000000PES00010000001N00000000000000020160522
201605120060000600000000000000680371000000000000006803719900000000000000000000Consumidor Final              000000000053000000000000053000000000000000000000000000000000000000000000000000000000000000000000000000000000000000000000PES00010000001N00000000000000020160522
201605120060000600000000000000680372000000000000006803729900000000000000000000Consumidor Final              000000000063000000000000063000000000000000000000000000000000000000000000000000000000000000000000000000000000000000000000PES00010000001N00000000000000020160522
201605120060000600000000000000680373000000000000006803739900000000000000000000Consumidor Final              000000000053000000000000053000000000000000000000000000000000000000000000000000000000000000000000000000000000000000000000PES00010000001N00000000000000020160522
201605120060000600000000000000680374000000000000006803749900000000000000000000Consumidor Final              000000000053000000000000053000000000000000000000000000000000000000000000000000000000000000000000000000000000000000000000PES00010000001N00000000000000020160522
201605120060000600000000000000680386000000000000006803869900000000000000000000Consumidor Final              000000000053000000000000053000000000000000000000000000000000000000000000000000000000000000000000000000000000000000000000PES00010000001N00000000000000020160522
201605120060000600000000000000680387000000000000006803879900000000000000000000Consumidor Final              000000000053000000000000053000000000000000000000000000000000000000000000000000000000000000000000000000000000000000000000PES00010000001N00000000000000020160522
201605120060000600000000000000680388000000000000006803889900000000000000000000Consumidor Final              000000000053000000000000053000000000000000000000000000000000000000000000000000000000000000000000000000000000000000000000PES00010000001N00000000000000020160522
201605120060000600000000000000680389000000000000006803899900000000000000000000Consumidor Final              000000000059000000000000059000000000000000000000000000000000000000000000000000000000000000000000000000000000000000000000PES00010000001N00000000000000020160522
201605120060000600000000000000680390000000000000006803909900000000000000000000Consumidor Final              000000000053000000000000053000000000000000000000000000000000000000000000000000000000000000000000000000000000000000000000PES00010000001N00000000000000020160522
201605110060000300000000000000112813000000000000001128139900000000000000000000Consumidor Final              000000000053000000000000053000000000000000000000000000000000000000000000000000000000000000000000000000000000000000000000PES00010000001N00000000000000020160521
201605110060000300000000000000112814000000000000001128149900000000000000000000Consumidor Final              000000000053000000000000053000000000000000000000000000000000000000000000000000000000000000000000000000000000000000000000PES00010000001N00000000000000020160521
201605110060000300000000000000112815000000000000001128159900000000000000000000Consumidor Final              000000000098000000000000098000000000000000000000000000000000000000000000000000000000000000000000000000000000000000000000PES00010000001N00000000000000020160521
201605110060000300000000000000112816000000000000001128169900000000000000000000Consumidor Final              000000000051000000000000051000000000000000000000000000000000000000000000000000000000000000000000000000000000000000000000PES00010000001N00000000000000020160521
201605110060000300000000000000112817000000000000001128179900000000000000000000Consumidor Final              000000000051000000000000051000000000000000000000000000000000000000000000000000000000000000000000000000000000000000000000PES00010000001N00000000000000020160521
201605110060000300000000000000112818000000000000001128189900000000000000000000Consumidor Final              000000000055000000000000055000000000000000000000000000000000000000000000000000000000000000000000000000000000000000000000PES00010000001N00000000000000020160521
201605110060000300000000000000112819000000000000001128199900000000000000000000Consumidor Final              000000000053000000000000053000000000000000000000000000000000000000000000000000000000000000000000000000000000000000000000PES00010000001N00000000000000020160521
201605110060000300000000000000112820000000000000001128209900000000000000000000Consumidor Final              000000000053000000000000053000000000000000000000000000000000000000000000000000000000000000000000000000000000000000000000PES00010000001N00000000000000020160521
201605110060000300000000000000112821000000000000001128219900000000000000000000Consumidor Final              000000000074000000000000074000000000000000000000000000000000000000000000000000000000000000000000000000000000000000000000PES00010000001N00000000000000020160521
201605110060000300000000000000112822000000000000001128229900000000000000000000Consumidor Final              000000000055000000000000055000000000000000000000000000000000000000000000000000000000000000000000000000000000000000000000PES00010000001N00000000000000020160521
201605110060000300000000000000112823000000000000001128239900000000000000000000Consumidor Final              000000000065000000000000065000000000000000000000000000000000000000000000000000000000000000000000000000000000000000000000PES00010000001N00000000000000020160521
201605110060000300000000000000112824000000000000001128249900000000000000000000Consumidor Final              000000000053000000000000053000000000000000000000000000000000000000000000000000000000000000000000000000000000000000000000PES00010000001N00000000000000020160521
201605110060000300000000000000112825000000000000001128259900000000000000000000Consumidor Final              000000000043000000000000043000000000000000000000000000000000000000000000000000000000000000000000000000000000000000000000PES00010000001N00000000000000020160521
201605110060000300000000000000112826000000000000001128269900000000000000000000Consumidor Final              000000000053000000000000053000000000000000000000000000000000000000000000000000000000000000000000000000000000000000000000PES00010000001N00000000000000020160521
201605120060000900000000000000029308000000000000000293089900000000000000000000Consumidor Final              000000000053000000000000053000000000000000000000000000000000000000000000000000000000000000000000000000000000000000000000PES00010000001N00000000000000020160522
201605120060000600000000000000680425000000000000006804259900000000000000000000Consumidor Final              000000000053000000000000053000000000000000000000000000000000000000000000000000000000000000000000000000000000000000000000PES00010000001N00000000000000020160522
201605120060000600000000000000680426000000000000006804269900000000000000000000Consumidor Final              000000000053000000000000053000000000000000000000000000000000000000000000000000000000000000000000000000000000000000000000PES00010000001N00000000000000020160522
201605120060000600000000000000680427000000000000006804279900000000000000000000Consumidor Final              000000000053000000000000053000000000000000000000000000000000000000000000000000000000000000000000000000000000000000000000PES00010000001N00000000000000020160522
201605120060000600000000000000680428000000000000006804289900000000000000000000Consumidor Final              000000000053000000000000053000000000000000000000000000000000000000000000000000000000000000000000000000000000000000000000PES00010000001N00000000000000020160522
201605120010000600000000000000007551000000000000000075518000000000030710360525AGGREKO ARGENTINA SRL         000000000053000000000000053000000000000000000000000000000000000000000000000000000000000000000000000000000000000000000000PES00010000001N00000000000000020160522
201605120060000700000000000000464885000000000000004648859900000000000000000000Consumidor Final              000000000053000000000000053000000000000000000000000000000000000000000000000000000000000000000000000000000000000000000000PES00010000001N00000000000000020160522
201605120060000600000000000000680431000000000000006804319900000000000000000000Consumidor Final              000000000053000000000000053000000000000000000000000000000000000000000000000000000000000000000000000000000000000000000000PES00010000001N00000000000000020160522
201605120060000700000000000000464886000000000000004648869900000000000000000000Consumidor Final              000000000053000000000000053000000000000000000000000000000000000000000000000000000000000000000000000000000000000000000000PES00010000001N00000000000000020160522
201605120060000600000000000000680432000000000000006804329900000000000000000000Consumidor Final              000000000033000000000000033000000000000000000000000000000000000000000000000000000000000000000000000000000000000000000000PES00010000001N00000000000000020160522
201605120060000700000000000000464887000000000000004648879900000000000000000000Consumidor Final              000000000053000000000000053000000000000000000000000000000000000000000000000000000000000000000000000000000000000000000000PES00010000001N00000000000000020160522
201605120060000700000000000000464888000000000000004648889900000000000000000000Consumidor Final              000000000028000000000000028000000000000000000000000000000000000000000000000000000000000000000000000000000000000000000000PES00010000001N00000000000000020160522
201605120060000800000000000000157781000000000000001577819900000000000000000000Consumidor Final              000000000043000000000000043000000000000000000000000000000000000000000000000000000000000000000000000000000000000000000000PES00010000001N00000000000000020160522
201605120060000800000000000000157782000000000000001577829900000000000000000000Consumidor Final              000000000051000000000000051000000000000000000000000000000000000000000000000000000000000000000000000000000000000000000000PES00010000001N00000000000000020160522
201605120060000700000000000000464898000000000000004648989900000000000000000000Consumidor Final              000000000053000000000000053000000000000000000000000000000000000000000000000000000000000000000000000000000000000000000000PES00010000001N00000000000000020160522
201605120060000700000000000000464901000000000000004649019900000000000000000000Consumidor Final              000000000053000000000000053000000000000000000000000000000000000000000000000000000000000000000000000000000000000000000000PES00010000001N00000000000000020160522
201605120060000900000000000000029329000000000000000293299900000000000000000000Consumidor Final              000000000043000000000000043000000000000000000000000000000000000000000000000000000000000000000000000000000000000000000000PES00010000001N00000000000000020160522
201605120060000700000000000000464914000000000000004649149900000000000000000000Consumidor Final              000000000053000000000000053000000000000000000000000000000000000000000000000000000000000000000000000000000000000000000000PES00010000001N00000000000000020160522
201605120060000700000000000000464915000000000000004649159900000000000000000000Consumidor Final              000000000053000000000000053000000000000000000000000000000000000000000000000000000000000000000000000000000000000000000000PES00010000001N00000000000000020160522
201605120060000700000000000000464916000000000000004649169900000000000000000000Consumidor Final              000000000053000000000000053000000000000000000000000000000000000000000000000000000000000000000000000000000000000000000000PES00010000001N00000000000000020160522
201605130060000700000000000000464926000000000000004649269900000000000000000000Consumidor Final              000000000053000000000000053000000000000000000000000000000000000000000000000000000000000000000000000000000000000000000000PES00010000001N00000000000000020160523
201605130060000700000000000000464927000000000000004649279900000000000000000000Consumidor Final              000000000053000000000000053000000000000000000000000000000000000000000000000000000000000000000000000000000000000000000000PES00010000001N00000000000000020160523
201605130060000700000000000000464928000000000000004649289900000000000000000000Consumidor Final              000000000053000000000000053000000000000000000000000000000000000000000000000000000000000000000000000000000000000000000000PES00010000001N00000000000000020160523
201605130060000700000000000000464929000000000000004649299900000000000000000000Consumidor Final              000000000053000000000000053000000000000000000000000000000000000000000000000000000000000000000000000000000000000000000000PES00010000001N00000000000000020160523
201605130060000700000000000000464930000000000000004649309900000000000000000000Consumidor Final              000000000053000000000000053000000000000000000000000000000000000000000000000000000000000000000000000000000000000000000000PES00010000001N00000000000000020160523
201605130060000700000000000000464935000000000000004649359900000000000000000000Consumidor Final              000000000053000000000000053000000000000000000000000000000000000000000000000000000000000000000000000000000000000000000000PES00010000001N00000000000000020160523
201605130060000700000000000000464936000000000000004649369900000000000000000000Consumidor Final              000000000053000000000000053000000000000000000000000000000000000000000000000000000000000000000000000000000000000000000000PES00010000001N00000000000000020160523
201605130060000700000000000000464940000000000000004649409900000000000000000000Consumidor Final              000000000053000000000000053000000000000000000000000000000000000000000000000000000000000000000000000000000000000000000000PES00010000001N00000000000000020160523
201605130060000800000000000000157791000000000000001577919900000000000000000000Consumidor Final              000000000043000000000000043000000000000000000000000000000000000000000000000000000000000000000000000000000000000000000000PES00010000001N00000000000000020160523
201605130060000800000000000000157792000000000000001577929900000000000000000000Consumidor Final              000000000043000000000000043000000000000000000000000000000000000000000000000000000000000000000000000000000000000000000000PES00010000001N00000000000000020160523
201605130060000800000000000000157793000000000000001577939900000000000000000000Consumidor Final              000000000043000000000000043000000000000000000000000000000000000000000000000000000000000000000000000000000000000000000000PES00010000001N00000000000000020160523
201605130060000100000000000000197234000000000000001972349900000000000000000000Consumidor Final              000000000053000000000000053000000000000000000000000000000000000000000000000000000000000000000000000000000000000000000000PES00010000001N00000000000000020160523
201605130060000100000000000000197237000000000000001972379900000000000000000000Consumidor Final              000000000053000000000000053000000000000000000000000000000000000000000000000000000000000000000000000000000000000000000000PES00010000001N00000000000000020160523
201605130060000700000000000000464943000000000000004649439900000000000000000000Consumidor Final              000000000053000000000000053000000000000000000000000000000000000000000000000000000000000000000000000000000000000000000000PES00010000001N00000000000000020160523
201605130060000600000000000000680486000000000000006804869900000000000000000000Consumidor Final              000000000054000000000000054000000000000000000000000000000000000000000000000000000000000000000000000000000000000000000000PES00010000001N00000000000000020160523
201605130060000600000000000000680487000000000000006804879900000000000000000000Consumidor Final              000000000053000000000000053000000000000000000000000000000000000000000000000000000000000000000000000000000000000000000000PES00010000001N00000000000000020160523
201605130060000700000000000000464947000000000000004649479900000000000000000000Consumidor Final              000000000098000000000000098000000000000000000000000000000000000000000000000000000000000000000000000000000000000000000000PES00010000001N00000000000000020160523
201605130060000600000000000000680488000000000000006804889900000000000000000000Consumidor Final              000000000053000000000000053000000000000000000000000000000000000000000000000000000000000000000000000000000000000000000000PES00010000001N00000000000000020160523
201605130060000600000000000000680489000000000000006804899900000000000000000000Consumidor Final              000000000053000000000000053000000000000000000000000000000000000000000000000000000000000000000000000000000000000000000000PES00010000001N00000000000000020160523
201605130060000600000000000000680490000000000000006804909900000000000000000000Consumidor Final              000000000053000000000000053000000000000000000000000000000000000000000000000000000000000000000000000000000000000000000000PES00010000001N00000000000000020160523
201605130060000600000000000000680491000000000000006804919900000000000000000000Consumidor Final              000000000053000000000000053000000000000000000000000000000000000000000000000000000000000000000000000000000000000000000000PES00010000001N00000000000000020160523
201605130060000600000000000000680492000000000000006804929900000000000000000000Consumidor Final              000000000053000000000000053000000000000000000000000000000000000000000000000000000000000000000000000000000000000000000000PES00010000001N00000000000000020160523
201605130060000800000000000000157794000000000000001577949900000000000000000000Consumidor Final              000000000043000000000000043000000000000000000000000000000000000000000000000000000000000000000000000000000000000000000000PES00010000001N00000000000000020160523
201605130060000800000000000000157795000000000000001577959900000000000000000000Consumidor Final              000000000043000000000000043000000000000000000000000000000000000000000000000000000000000000000000000000000000000000000000PES00010000001N00000000000000020160523
201605130060000800000000000000157796000000000000001577969900000000000000000000Consumidor Final              000000000043000000000000043000000000000000000000000000000000000000000000000000000000000000000000000000000000000000000000PES00010000001N00000000000000020160523
201605130060000800000000000000157797000000000000001577979900000000000000000000Consumidor Final              000000000043000000000000043000000000000000000000000000000000000000000000000000000000000000000000000000000000000000000000PES00010000001N00000000000000020160523
201605130060000100000000000000197235000000000000001972359900000000000000000000Consumidor Final              000000000060000000000000060000000000000000000000000000000000000000000000000000000000000000000000000000000000000000000000PES00010000001N00000000000000020160523
201605130060000100000000000000197236000000000000001972369900000000000000000000Consumidor Final              000000000053000000000000053000000000000000000000000000000000000000000000000000000000000000000000000000000000000000000000PES00010000001N00000000000000020160523
201605130060000600000000000000680508000000000000006805089900000000000000000000Consumidor Final              000000000053000000000000053000000000000000000000000000000000000000000000000000000000000000000000000000000000000000000000PES00010000001N00000000000000020160523
201605130060000800000000000000157799000000000000001577999900000000000000000000Consumidor Final              000000000043000000000000043000000000000000000000000000000000000000000000000000000000000000000000000000000000000000000000PES00010000001N00000000000000020160523
201605130060000800000000000000157800000000000000001578009900000000000000000000Consumidor Final              000000000043000000000000043000000000000000000000000000000000000000000000000000000000000000000000000000000000000000000000PES00010000001N00000000000000020160523
201605130060000800000000000000157801000000000000001578019900000000000000000000Consumidor Final              000000000043000000000000043000000000000000000000000000000000000000000000000000000000000000000000000000000000000000000000PES00010000001N00000000000000020160523
201605130060000600000000000000680509000000000000006805099900000000000000000000Consumidor Final              000000000053000000000000053000000000000000000000000000000000000000000000000000000000000000000000000000000000000000000000PES00010000001N00000000000000020160523
201605130060000600000000000000680510000000000000006805109900000000000000000000Consumidor Final              000000000053000000000000053000000000000000000000000000000000000000000000000000000000000000000000000000000000000000000000PES00010000001N00000000000000020160523
201605130060000600000000000000680511000000000000006805119900000000000000000000Consumidor Final              000000000053000000000000053000000000000000000000000000000000000000000000000000000000000000000000000000000000000000000000PES00010000001N00000000000000020160523
201605130060000700000000000000464941000000000000004649419900000000000000000000Consumidor Final              000000000053000000000000053000000000000000000000000000000000000000000000000000000000000000000000000000000000000000000000PES00010000001N00000000000000020160523
201605130060000700000000000000464942000000000000004649429900000000000000000000Consumidor Final              000000000053000000000000053000000000000000000000000000000000000000000000000000000000000000000000000000000000000000000000PES00010000001N00000000000000020160523
201605130060000300000000000000112856000000000000001128569900000000000000000000Consumidor Final              000000000053000000000000053000000000000000000000000000000000000000000000000000000000000000000000000000000000000000000000PES00010000001N00000000000000020160523
201605130060000300000000000000112857000000000000001128579900000000000000000000Consumidor Final              000000000053000000000000053000000000000000000000000000000000000000000000000000000000000000000000000000000000000000000000PES00010000001N00000000000000020160523
201605130060000300000000000000112858000000000000001128589900000000000000000000Consumidor Final              000000000053000000000000053000000000000000000000000000000000000000000000000000000000000000000000000000000000000000000000PES00010000001N00000000000000020160523
201605130060000300000000000000112859000000000000001128599900000000000000000000Consumidor Final              000000000053000000000000053000000000000000000000000000000000000000000000000000000000000000000000000000000000000000000000PES00010000001N00000000000000020160523
201605130060000300000000000000112860000000000000001128609900000000000000000000Consumidor Final              000000000059000000000000059000000000000000000000000000000000000000000000000000000000000000000000000000000000000000000000PES00010000001N00000000000000020160523
201605130060000700000000000000464944000000000000004649449900000000000000000000Consumidor Final              000000000053000000000000053000000000000000000000000000000000000000000000000000000000000000000000000000000000000000000000PES00010000001N00000000000000020160523
201605130060000700000000000000464945000000000000004649459900000000000000000000Consumidor Final              000000000055000000000000055000000000000000000000000000000000000000000000000000000000000000000000000000000000000000000000PES00010000001N00000000000000020160523
201605130060000700000000000000464946000000000000004649469900000000000000000000Consumidor Final              000000000081000000000000081000000000000000000000000000000000000000000000000000000000000000000000000000000000000000000000PES00010000001N00000000000000020160523
201605130060000600000000000000680493000000000000006804939900000000000000000000Consumidor Final              000000000053000000000000053000000000000000000000000000000000000000000000000000000000000000000000000000000000000000000000PES00010000001N00000000000000020160523
201605130060000600000000000000680494000000000000006804949900000000000000000000Consumidor Final              000000000055000000000000055000000000000000000000000000000000000000000000000000000000000000000000000000000000000000000000PES00010000001N00000000000000020160523
201605130060000600000000000000680496000000000000006804969900000000000000000000Consumidor Final              000000000053000000000000053000000000000000000000000000000000000000000000000000000000000000000000000000000000000000000000PES00010000001N00000000000000020160523
201605130060000600000000000000680497000000000000006804979900000000000000000000Consumidor Final              000000000055000000000000055000000000000000000000000000000000000000000000000000000000000000000000000000000000000000000000PES00010000001N00000000000000020160523
201605130060000600000000000000680495000000000000006804959900000000000000000000Consumidor Final              000000000053000000000000053000000000000000000000000000000000000000000000000000000000000000000000000000000000000000000000PES00010000001N00000000000000020160523
201605130060000600000000000000680498000000000000006804989900000000000000000000Consumidor Final              000000000058000000000000058000000000000000000000000000000000000000000000000000000000000000000000000000000000000000000000PES00010000001N00000000000000020160523
201605130060000600000000000000680499000000000000006804999900000000000000000000Consumidor Final              000000000053000000000000053000000000000000000000000000000000000000000000000000000000000000000000000000000000000000000000PES00010000001N00000000000000020160523
201605130060000600000000000000680500000000000000006805009900000000000000000000Consumidor Final              000000000052000000000000052000000000000000000000000000000000000000000000000000000000000000000000000000000000000000000000PES00010000001N00000000000000020160523
201605130060000600000000000000680501000000000000006805019900000000000000000000Consumidor Final              000000000053000000000000053000000000000000000000000000000000000000000000000000000000000000000000000000000000000000000000PES00010000001N00000000000000020160523
201605130060000700000000000000464959000000000000004649599900000000000000000000Consumidor Final              000000000053000000000000053000000000000000000000000000000000000000000000000000000000000000000000000000000000000000000000PES00010000001N00000000000000020160523
201605130060000700000000000000464960000000000000004649609900000000000000000000Consumidor Final              000000000053000000000000053000000000000000000000000000000000000000000000000000000000000000000000000000000000000000000000PES00010000001N00000000000000020160523
201605130060000700000000000000464961000000000000004649619900000000000000000000Consumidor Final              000000000053000000000000053000000000000000000000000000000000000000000000000000000000000000000000000000000000000000000000PES00010000001N00000000000000020160523
201605130060000600000000000000680549000000000000006805499900000000000000000000Consumidor Final              000000000053000000000000053000000000000000000000000000000000000000000000000000000000000000000000000000000000000000000000PES00010000001N00000000000000020160523
201605130060000700000000000000464977000000000000004649779900000000000000000000Consumidor Final              000000000053000000000000053000000000000000000000000000000000000000000000000000000000000000000000000000000000000000000000PES00010000001N00000000000000020160523
201605130060000600000000000000680550000000000000006805509900000000000000000000Consumidor Final              000000000045000000000000045000000000000000000000000000000000000000000000000000000000000000000000000000000000000000000000PES00010000001N00000000000000020160523
201605130060000700000000000000464978000000000000004649789900000000000000000000Consumidor Final              000000000053000000000000053000000000000000000000000000000000000000000000000000000000000000000000000000000000000000000000PES00010000001N00000000000000020160523
201605130060000600000000000000680551000000000000006805519900000000000000000000Consumidor Final              000000000053000000000000053000000000000000000000000000000000000000000000000000000000000000000000000000000000000000000000PES00010000001N00000000000000020160523
201605130060000600000000000000680552000000000000006805529900000000000000000000Consumidor Final              000000000053000000000000053000000000000000000000000000000000000000000000000000000000000000000000000000000000000000000000PES00010000001N00000000000000020160523
201605130060000600000000000000680553000000000000006805539900000000000000000000Consumidor Final              000000000053000000000000053000000000000000000000000000000000000000000000000000000000000000000000000000000000000000000000PES00010000001N00000000000000020160523
201605130060000600000000000000680554000000000000006805549900000000000000000000Consumidor Final              000000000053000000000000053000000000000000000000000000000000000000000000000000000000000000000000000000000000000000000000PES00010000001N00000000000000020160523
201605130060000700000000000000464979000000000000004649799900000000000000000000Consumidor Final              000000000063000000000000063000000000000000000000000000000000000000000000000000000000000000000000000000000000000000000000PES00010000001N00000000000000020160523
201605130060000800000000000000157806000000000000001578069900000000000000000000Consumidor Final              000000000043000000000000043000000000000000000000000000000000000000000000000000000000000000000000000000000000000000000000PES00010000001N00000000000000020160523
201605130060000800000000000000157807000000000000001578079900000000000000000000Consumidor Final              000000000043000000000000043000000000000000000000000000000000000000000000000000000000000000000000000000000000000000000000PES00010000001N00000000000000020160523
201605130060000800000000000000157808000000000000001578089900000000000000000000Consumidor Final              000000000043000000000000043000000000000000000000000000000000000000000000000000000000000000000000000000000000000000000000PES00010000001N00000000000000020160523
201605130060000800000000000000157809000000000000001578099900000000000000000000Consumidor Final              000000000043000000000000043000000000000000000000000000000000000000000000000000000000000000000000000000000000000000000000PES00010000001N00000000000000020160523
201605130060000600000000000000680583000000000000006805839900000000000000000000Consumidor Final              000000000053000000000000053000000000000000000000000000000000000000000000000000000000000000000000000000000000000000000000PES00010000001N00000000000000020160523
201605130060000800000000000000157830000000000000001578309900000000000000000000Consumidor Final              000000000043000000000000043000000000000000000000000000000000000000000000000000000000000000000000000000000000000000000000PES00010000001N00000000000000020160523
201605130060000400000000000000013865000000000000000138659900000000000000000000Consumidor Final              000000000053000000000000053000000000000000000000000000000000000000000000000000000000000000000000000000000000000000000000PES00010000001N00000000000000020160523
201605130060000400000000000000013866000000000000000138669900000000000000000000Consumidor Final              000000000032000000000000032000000000000000000000000000000000000000000000000000000000000000000000000000000000000000000000PES00010000001N00000000000000020160523
201605130060000400000000000000013867000000000000000138679900000000000000000000Consumidor Final              000000000028000000000000028000000000000000000000000000000000000000000000000000000000000000000000000000000000000000000000PES00010000001N00000000000000020160523
201605130060000400000000000000013868000000000000000138689900000000000000000000Consumidor Final              000000000051000000000000051000000000000000000000000000000000000000000000000000000000000000000000000000000000000000000000PES00010000001N00000000000000020160523
201605130060000400000000000000013869000000000000000138699900000000000000000000Consumidor Final              000000000053000000000000053000000000000000000000000000000000000000000000000000000000000000000000000000000000000000000000PES00010000001N00000000000000020160523
201605130060000400000000000000013870000000000000000138709900000000000000000000Consumidor Final              000000000055000000000000055000000000000000000000000000000000000000000000000000000000000000000000000000000000000000000000PES00010000001N00000000000000020160523
201605130060000400000000000000013871000000000000000138719900000000000000000000Consumidor Final              000000000053000000000000053000000000000000000000000000000000000000000000000000000000000000000000000000000000000000000000PES00010000001N00000000000000020160523
201605130060000400000000000000013875000000000000000138759900000000000000000000Consumidor Final              000000000053000000000000053000000000000000000000000000000000000000000000000000000000000000000000000000000000000000000000PES00010000001N00000000000000020160523
201605130060000400000000000000013876000000000000000138769900000000000000000000Consumidor Final              000000000053000000000000053000000000000000000000000000000000000000000000000000000000000000000000000000000000000000000000PES00010000001N00000000000000020160523
201605130060000400000000000000013877000000000000000138779900000000000000000000Consumidor Final              000000000053000000000000053000000000000000000000000000000000000000000000000000000000000000000000000000000000000000000000PES00010000001N00000000000000020160523
201605130060000900000000000000029333000000000000000293339900000000000000000000Consumidor Final              000000000030000000000000030000000000000000000000000000000000000000000000000000000000000000000000000000000000000000000000PES00010000001N00000000000000020160523
201605130060000600000000000000680599000000000000006805999900000000000000000000Consumidor Final              000000000053000000000000053000000000000000000000000000000000000000000000000000000000000000000000000000000000000000000000PES00010000001N00000000000000020160523
201605140060000300000000000000112864000000000000001128649900000000000000000000Consumidor Final              000000000053000000000000053000000000000000000000000000000000000000000000000000000000000000000000000000000000000000000000PES00010000001N00000000000000020160524
201605130060000100000000000000197254000000000000001972549900000000000000000000Consumidor Final              000000000051000000000000051000000000000000000000000000000000000000000000000000000000000000000000000000000000000000000000PES00010000001N00000000000000020160523
201605130060000100000000000000197255000000000000001972559900000000000000000000Consumidor Final              000000000053000000000000053000000000000000000000000000000000000000000000000000000000000000000000000000000000000000000000PES00010000001N00000000000000020160523
201605130060000800000000000000157829000000000000001578299900000000000000000000Consumidor Final              000000000043000000000000043000000000000000000000000000000000000000000000000000000000000000000000000000000000000000000000PES00010000001N00000000000000020160523
201605130060000100000000000000197257000000000000001972579900000000000000000000Consumidor Final              000000000053000000000000053000000000000000000000000000000000000000000000000000000000000000000000000000000000000000000000PES00010000001N00000000000000020160523
201605130060000100000000000000197258000000000000001972589900000000000000000000Consumidor Final              000000000053000000000000053000000000000000000000000000000000000000000000000000000000000000000000000000000000000000000000PES00010000001N00000000000000020160523
201605130060000100000000000000197259000000000000001972599900000000000000000000Consumidor Final              000000000053000000000000053000000000000000000000000000000000000000000000000000000000000000000000000000000000000000000000PES00010000001N00000000000000020160523
201605130060000100000000000000197260000000000000001972609900000000000000000000Consumidor Final              000000000053000000000000053000000000000000000000000000000000000000000000000000000000000000000000000000000000000000000000PES00010000001N00000000000000020160523
201605130060000100000000000000197261000000000000001972619900000000000000000000Consumidor Final              000000000053000000000000053000000000000000000000000000000000000000000000000000000000000000000000000000000000000000000000PES00010000001N00000000000000020160523
201605130060000100000000000000197262000000000000001972629900000000000000000000Consumidor Final              000000000053000000000000053000000000000000000000000000000000000000000000000000000000000000000000000000000000000000000000PES00010000001N00000000000000020160523
201605130060000100000000000000197263000000000000001972639900000000000000000000Consumidor Final              000000000055000000000000055000000000000000000000000000000000000000000000000000000000000000000000000000000000000000000000PES00010000001N00000000000000020160523
201605130060000100000000000000197264000000000000001972649900000000000000000000Consumidor Final              000000000028000000000000028000000000000000000000000000000000000000000000000000000000000000000000000000000000000000000000PES00010000001N00000000000000020160523
201605130060000100000000000000197265000000000000001972659900000000000000000000Consumidor Final              000000000053000000000000053000000000000000000000000000000000000000000000000000000000000000000000000000000000000000000000PES00010000001N00000000000000020160523
201605130060000400000000000000013861000000000000000138619900000000000000000000Consumidor Final              000000000053000000000000053000000000000000000000000000000000000000000000000000000000000000000000000000000000000000000000PES00010000001N00000000000000020160523
201605130060000100000000000000197272000000000000001972729900000000000000000000Consumidor Final              000000000053000000000000053000000000000000000000000000000000000000000000000000000000000000000000000000000000000000000000PES00010000001N00000000000000020160523
201605130060000600000000000000680597000000000000006805979900000000000000000000Consumidor Final              000000000053000000000000053000000000000000000000000000000000000000000000000000000000000000000000000000000000000000000000PES00010000001N00000000000000020160523
201605130060000100000000000000197256000000000000001972569900000000000000000000Consumidor Final              000000000053000000000000053000000000000000000000000000000000000000000000000000000000000000000000000000000000000000000000PES00010000001N00000000000000020160523
201605130060000600000000000000680593000000000000006805939900000000000000000000Consumidor Final              000000000053000000000000053000000000000000000000000000000000000000000000000000000000000000000000000000000000000000000000PES00010000001N00000000000000020160523
201605130060000600000000000000680594000000000000006805949900000000000000000000Consumidor Final              000000000053000000000000053000000000000000000000000000000000000000000000000000000000000000000000000000000000000000000000PES00010000001N00000000000000020160523
201605130060000600000000000000680595000000000000006805959900000000000000000000Consumidor Final              000000000053000000000000053000000000000000000000000000000000000000000000000000000000000000000000000000000000000000000000PES00010000001N00000000000000020160523
201605130060000600000000000000680596000000000000006805969900000000000000000000Consumidor Final              000000000053000000000000053000000000000000000000000000000000000000000000000000000000000000000000000000000000000000000000PES00010000001N00000000000000020160523
201605130060000100000000000000197266000000000000001972669900000000000000000000Consumidor Final              000000000053000000000000053000000000000000000000000000000000000000000000000000000000000000000000000000000000000000000000PES00010000001N00000000000000020160523
201605130060000100000000000000197267000000000000001972679900000000000000000000Consumidor Final              000000000053000000000000053000000000000000000000000000000000000000000000000000000000000000000000000000000000000000000000PES00010000001N00000000000000020160523
201605130060000100000000000000197268000000000000001972689900000000000000000000Consumidor Final              000000000053000000000000053000000000000000000000000000000000000000000000000000000000000000000000000000000000000000000000PES00010000001N00000000000000020160523
201605130060000100000000000000197269000000000000001972699900000000000000000000Consumidor Final              000000000043000000000000043000000000000000000000000000000000000000000000000000000000000000000000000000000000000000000000PES00010000001N00000000000000020160523
201605130060000100000000000000197270000000000000001972709900000000000000000000Consumidor Final              000000000053000000000000053000000000000000000000000000000000000000000000000000000000000000000000000000000000000000000000PES00010000001N00000000000000020160523
201605130060000100000000000000197271000000000000001972719900000000000000000000Consumidor Final              000000000053000000000000053000000000000000000000000000000000000000000000000000000000000000000000000000000000000000000000PES00010000001N00000000000000020160523
201605130060000600000000000000680598000000000000006805989900000000000000000000Consumidor Final              000000000053000000000000053000000000000000000000000000000000000000000000000000000000000000000000000000000000000000000000PES00010000001N00000000000000020160523
201605130060000100000000000000197273000000000000001972739900000000000000000000Consumidor Final              000000000053000000000000053000000000000000000000000000000000000000000000000000000000000000000000000000000000000000000000PES00010000001N00000000000000020160523
201605130060000100000000000000197274000000000000001972749900000000000000000000Consumidor Final              000000000024000000000000024000000000000000000000000000000000000000000000000000000000000000000000000000000000000000000000PES00010000001N00000000000000020160523
201605130060000100000000000000197275000000000000001972759900000000000000000000Consumidor Final              000000000024000000000000024000000000000000000000000000000000000000000000000000000000000000000000000000000000000000000000PES00010000001N00000000000000020160523
201605130060000100000000000000197276000000000000001972769900000000000000000000Consumidor Final              000000000033000000000000033000000000000000000000000000000000000000000000000000000000000000000000000000000000000000000000PES00010000001N00000000000000020160523
201605140060000300000000000000112886000000000000001128869900000000000000000000Consumidor Final              000000000053000000000000053000000000000000000000000000000000000000000000000000000000000000000000000000000000000000000000PES00010000001N00000000000000020160524
201605140060000300000000000000112887000000000000001128879900000000000000000000Consumidor Final              000000000053000000000000053000000000000000000000000000000000000000000000000000000000000000000000000000000000000000000000PES00010000001N00000000000000020160524
201605140060000300000000000000112889000000000000001128899900000000000000000000Consumidor Final              000000000060000000000000060000000000000000000000000000000000000000000000000000000000000000000000000000000000000000000000PES00010000001N00000000000000020160524
201605140060000600000000000000680622000000000000006806229900000000000000000000Consumidor Final              000000000067000000000000067000000000000000000000000000000000000000000000000000000000000000000000000000000000000000000000PES00010000001N00000000000000020160524
201605140060000600000000000000680623000000000000006806239900000000000000000000Consumidor Final              000000000053000000000000053000000000000000000000000000000000000000000000000000000000000000000000000000000000000000000000PES00010000001N00000000000000020160524
201605140060000600000000000000680624000000000000006806249900000000000000000000Consumidor Final              000000000053000000000000053000000000000000000000000000000000000000000000000000000000000000000000000000000000000000000000PES00010000001N00000000000000020160524
201605140060000600000000000000680625000000000000006806259900000000000000000000Consumidor Final              000000000053000000000000053000000000000000000000000000000000000000000000000000000000000000000000000000000000000000000000PES00010000001N00000000000000020160524
201605140060000600000000000000680626000000000000006806269900000000000000000000Consumidor Final              000000000053000000000000053000000000000000000000000000000000000000000000000000000000000000000000000000000000000000000000PES00010000001N00000000000000020160524
201605140060000600000000000000680627000000000000006806279900000000000000000000Consumidor Final              000000000053000000000000053000000000000000000000000000000000000000000000000000000000000000000000000000000000000000000000PES00010000001N00000000000000020160524
201605140060000600000000000000680628000000000000006806289900000000000000000000Consumidor Final              000000000053000000000000053000000000000000000000000000000000000000000000000000000000000000000000000000000000000000000000PES00010000001N00000000000000020160524
201605140060000300000000000000112945000000000000001129459900000000000000000000Consumidor Final              000000000053000000000000053000000000000000000000000000000000000000000000000000000000000000000000000000000000000000000000PES00010000001N00000000000000020160524
201605140060000300000000000000112946000000000000001129469900000000000000000000Consumidor Final              000000000054000000000000054000000000000000000000000000000000000000000000000000000000000000000000000000000000000000000000PES00010000001N00000000000000020160524
201605130060000400000000000000013872000000000000000138729900000000000000000000Consumidor Final              000000000063000000000000063000000000000000000000000000000000000000000000000000000000000000000000000000000000000000000000PES00010000001N00000000000000020160523
201605130060000400000000000000013873000000000000000138739900000000000000000000Consumidor Final              000000000053000000000000053000000000000000000000000000000000000000000000000000000000000000000000000000000000000000000000PES00010000001N00000000000000020160523
201605130060000400000000000000013874000000000000000138749900000000000000000000Consumidor Final              000000000053000000000000053000000000000000000000000000000000000000000000000000000000000000000000000000000000000000000000PES00010000001N00000000000000020160523
201605130060000400000000000000013878000000000000000138789900000000000000000000Consumidor Final              000000000025000000000000025000000000000000000000000000000000000000000000000000000000000000000000000000000000000000000000PES00010000001N00000000000000020160523
201605130060000400000000000000013879000000000000000138799900000000000000000000Consumidor Final              000000000053000000000000053000000000000000000000000000000000000000000000000000000000000000000000000000000000000000000000PES00010000001N00000000000000020160523
201605130060000400000000000000013880000000000000000138809900000000000000000000Consumidor Final              000000000055000000000000055000000000000000000000000000000000000000000000000000000000000000000000000000000000000000000000PES00010000001N00000000000000020160523
201605140060000600000000000000680600000000000000006806009900000000000000000000Consumidor Final              000000000043000000000000043000000000000000000000000000000000000000000000000000000000000000000000000000000000000000000000PES00010000001N00000000000000020160524
201605140060000600000000000000680601000000000000006806019900000000000000000000Consumidor Final              000000000053000000000000053000000000000000000000000000000000000000000000000000000000000000000000000000000000000000000000PES00010000001N00000000000000020160524
201605140060000600000000000000680602000000000000006806029900000000000000000000Consumidor Final              000000000043000000000000043000000000000000000000000000000000000000000000000000000000000000000000000000000000000000000000PES00010000001N00000000000000020160524
201605140060000600000000000000680603000000000000006806039900000000000000000000Consumidor Final              000000000043000000000000043000000000000000000000000000000000000000000000000000000000000000000000000000000000000000000000PES00010000001N00000000000000020160524
201605140060000600000000000000680604000000000000006806049900000000000000000000Consumidor Final              000000000053000000000000053000000000000000000000000000000000000000000000000000000000000000000000000000000000000000000000PES00010000001N00000000000000020160524
201605140060000600000000000000680605000000000000006806059900000000000000000000Consumidor Final              000000000053000000000000053000000000000000000000000000000000000000000000000000000000000000000000000000000000000000000000PES00010000001N00000000000000020160524
201605140060000600000000000000680606000000000000006806069900000000000000000000Consumidor Final              000000000053000000000000053000000000000000000000000000000000000000000000000000000000000000000000000000000000000000000000PES00010000001N00000000000000020160524
201605140060000600000000000000680607000000000000006806079900000000000000000000Consumidor Final              000000000066000000000000066000000000000000000000000000000000000000000000000000000000000000000000000000000000000000000000PES00010000001N00000000000000020160524
201605140060000300000000000000112865000000000000001128659900000000000000000000Consumidor Final              000000000029000000000000029000000000000000000000000000000000000000000000000000000000000000000000000000000000000000000000PES00010000001N00000000000000020160524
201605140060000300000000000000112866000000000000001128669900000000000000000000Consumidor Final              000000000053000000000000053000000000000000000000000000000000000000000000000000000000000000000000000000000000000000000000PES00010000001N00000000000000020160524
201605140060000300000000000000112867000000000000001128679900000000000000000000Consumidor Final              000000000055000000000000055000000000000000000000000000000000000000000000000000000000000000000000000000000000000000000000PES00010000001N00000000000000020160524
201605140060000300000000000000112868000000000000001128689900000000000000000000Consumidor Final              000000000053000000000000053000000000000000000000000000000000000000000000000000000000000000000000000000000000000000000000PES00010000001N00000000000000020160524
201605140060000300000000000000112869000000000000001128699900000000000000000000Consumidor Final              000000000051000000000000051000000000000000000000000000000000000000000000000000000000000000000000000000000000000000000000PES00010000001N00000000000000020160524
201605140060000300000000000000112870000000000000001128709900000000000000000000Consumidor Final              000000000053000000000000053000000000000000000000000000000000000000000000000000000000000000000000000000000000000000000000PES00010000001N00000000000000020160524
201605140060000300000000000000112871000000000000001128719900000000000000000000Consumidor Final              000000000053000000000000053000000000000000000000000000000000000000000000000000000000000000000000000000000000000000000000PES00010000001N00000000000000020160524
201605140060000300000000000000112872000000000000001128729900000000000000000000Consumidor Final              000000000053000000000000053000000000000000000000000000000000000000000000000000000000000000000000000000000000000000000000PES00010000001N00000000000000020160524
201605140060000300000000000000112873000000000000001128739900000000000000000000Consumidor Final              000000000053000000000000053000000000000000000000000000000000000000000000000000000000000000000000000000000000000000000000PES00010000001N00000000000000020160524
201605140060000300000000000000112874000000000000001128749900000000000000000000Consumidor Final              000000000053000000000000053000000000000000000000000000000000000000000000000000000000000000000000000000000000000000000000PES00010000001N00000000000000020160524
201605140060000300000000000000112875000000000000001128759900000000000000000000Consumidor Final              000000000053000000000000053000000000000000000000000000000000000000000000000000000000000000000000000000000000000000000000PES00010000001N00000000000000020160524
201605140060000300000000000000112876000000000000001128769900000000000000000000Consumidor Final              000000000053000000000000053000000000000000000000000000000000000000000000000000000000000000000000000000000000000000000000PES00010000001N00000000000000020160524
201605140060000300000000000000112877000000000000001128779900000000000000000000Consumidor Final              000000000053000000000000053000000000000000000000000000000000000000000000000000000000000000000000000000000000000000000000PES00010000001N00000000000000020160524
201605140060000300000000000000112878000000000000001128789900000000000000000000Consumidor Final              000000000053000000000000053000000000000000000000000000000000000000000000000000000000000000000000000000000000000000000000PES00010000001N00000000000000020160524
201605140060000300000000000000112879000000000000001128799900000000000000000000Consumidor Final              000000000053000000000000053000000000000000000000000000000000000000000000000000000000000000000000000000000000000000000000PES00010000001N00000000000000020160524
201605140060000800000000000000157832000000000000001578329900000000000000000000Consumidor Final              000000000043000000000000043000000000000000000000000000000000000000000000000000000000000000000000000000000000000000000000PES00010000001N00000000000000020160524
201605140060000800000000000000157833000000000000001578339900000000000000000000Consumidor Final              000000000043000000000000043000000000000000000000000000000000000000000000000000000000000000000000000000000000000000000000PES00010000001N00000000000000020160524
201605140060000800000000000000157834000000000000001578349900000000000000000000Consumidor Final              000000000043000000000000043000000000000000000000000000000000000000000000000000000000000000000000000000000000000000000000PES00010000001N00000000000000020160524
201605140060000800000000000000157835000000000000001578359900000000000000000000Consumidor Final              000000000043000000000000043000000000000000000000000000000000000000000000000000000000000000000000000000000000000000000000PES00010000001N00000000000000020160524
201605140060000800000000000000157836000000000000001578369900000000000000000000Consumidor Final              000000000043000000000000043000000000000000000000000000000000000000000000000000000000000000000000000000000000000000000000PES00010000001N00000000000000020160524
201605140060000800000000000000157837000000000000001578379900000000000000000000Consumidor Final              000000000043000000000000043000000000000000000000000000000000000000000000000000000000000000000000000000000000000000000000PES00010000001N00000000000000020160524
201605140060000800000000000000157838000000000000001578389900000000000000000000Consumidor Final              000000000051000000000000051000000000000000000000000000000000000000000000000000000000000000000000000000000000000000000000PES00010000001N00000000000000020160524
201605140060000800000000000000157839000000000000001578399900000000000000000000Consumidor Final              000000000043000000000000043000000000000000000000000000000000000000000000000000000000000000000000000000000000000000000000PES00010000001N00000000000000020160524
201605140060000800000000000000157840000000000000001578409900000000000000000000Consumidor Final              000000000043000000000000043000000000000000000000000000000000000000000000000000000000000000000000000000000000000000000000PES00010000001N00000000000000020160524
201605140060000800000000000000157841000000000000001578419900000000000000000000Consumidor Final              000000000043000000000000043000000000000000000000000000000000000000000000000000000000000000000000000000000000000000000000PES00010000001N00000000000000020160524
201605140060000800000000000000157842000000000000001578429900000000000000000000Consumidor Final              000000000043000000000000043000000000000000000000000000000000000000000000000000000000000000000000000000000000000000000000PES00010000001N00000000000000020160524
201605140060000800000000000000157843000000000000001578439900000000000000000000Consumidor Final              000000000043000000000000043000000000000000000000000000000000000000000000000000000000000000000000000000000000000000000000PES00010000001N00000000000000020160524
201605140060000800000000000000157844000000000000001578449900000000000000000000Consumidor Final              000000000043000000000000043000000000000000000000000000000000000000000000000000000000000000000000000000000000000000000000PES00010000001N00000000000000020160524
201605140060000700000000000000465011000000000000004650119900000000000000000000Consumidor Final              000000000053000000000000053000000000000000000000000000000000000000000000000000000000000000000000000000000000000000000000PES00010000001N00000000000000020160524
201605140060000800000000000000157845000000000000001578459900000000000000000000Consumidor Final              000000000043000000000000043000000000000000000000000000000000000000000000000000000000000000000000000000000000000000000000PES00010000001N00000000000000020160524
201605140060000800000000000000157846000000000000001578469900000000000000000000Consumidor Final              000000000043000000000000043000000000000000000000000000000000000000000000000000000000000000000000000000000000000000000000PES00010000001N00000000000000020160524
201605140060000800000000000000157847000000000000001578479900000000000000000000Consumidor Final              000000000043000000000000043000000000000000000000000000000000000000000000000000000000000000000000000000000000000000000000PES00010000001N00000000000000020160524
201605140060000800000000000000157848000000000000001578489900000000000000000000Consumidor Final              000000000043000000000000043000000000000000000000000000000000000000000000000000000000000000000000000000000000000000000000PES00010000001N00000000000000020160524
201605140060000800000000000000157849000000000000001578499900000000000000000000Consumidor Final              000000000043000000000000043000000000000000000000000000000000000000000000000000000000000000000000000000000000000000000000PES00010000001N00000000000000020160524
201605140060000800000000000000157850000000000000001578509900000000000000000000Consumidor Final              000000000043000000000000043000000000000000000000000000000000000000000000000000000000000000000000000000000000000000000000PES00010000001N00000000000000020160524
201605140060000800000000000000157851000000000000001578519900000000000000000000Consumidor Final              000000000043000000000000043000000000000000000000000000000000000000000000000000000000000000000000000000000000000000000000PES00010000001N00000000000000020160524
201605140060000800000000000000157852000000000000001578529900000000000000000000Consumidor Final              000000000043000000000000043000000000000000000000000000000000000000000000000000000000000000000000000000000000000000000000PES00010000001N00000000000000020160524
201605140060000300000000000000112947000000000000001129479900000000000000000000Consumidor Final              000000000054000000000000054000000000000000000000000000000000000000000000000000000000000000000000000000000000000000000000PES00010000001N00000000000000020160524
201605140060000300000000000000112948000000000000001129489900000000000000000000Consumidor Final              000000000064000000000000064000000000000000000000000000000000000000000000000000000000000000000000000000000000000000000000PES00010000001N00000000000000020160524
201605140060000300000000000000112949000000000000001129499900000000000000000000Consumidor Final              000000000053000000000000053000000000000000000000000000000000000000000000000000000000000000000000000000000000000000000000PES00010000001N00000000000000020160524
201605140060000300000000000000112950000000000000001129509900000000000000000000Consumidor Final              000000000053000000000000053000000000000000000000000000000000000000000000000000000000000000000000000000000000000000000000PES00010000001N00000000000000020160524
201605140060000300000000000000112951000000000000001129519900000000000000000000Consumidor Final              000000000053000000000000053000000000000000000000000000000000000000000000000000000000000000000000000000000000000000000000PES00010000001N00000000000000020160524
201605140060000300000000000000112952000000000000001129529900000000000000000000Consumidor Final              000000000053000000000000053000000000000000000000000000000000000000000000000000000000000000000000000000000000000000000000PES00010000001N00000000000000020160524
201605140060000300000000000000112953000000000000001129539900000000000000000000Consumidor Final              000000000053000000000000053000000000000000000000000000000000000000000000000000000000000000000000000000000000000000000000PES00010000001N00000000000000020160524
201605140060000800000000000000157853000000000000001578539900000000000000000000Consumidor Final              000000000043000000000000043000000000000000000000000000000000000000000000000000000000000000000000000000000000000000000000PES00010000001N00000000000000020160524
201605140060000300000000000000112954000000000000001129549900000000000000000000Consumidor Final              000000000053000000000000053000000000000000000000000000000000000000000000000000000000000000000000000000000000000000000000PES00010000001N00000000000000020160524
201605140060000300000000000000112955000000000000001129559900000000000000000000Consumidor Final              000000000053000000000000053000000000000000000000000000000000000000000000000000000000000000000000000000000000000000000000PES00010000001N00000000000000020160524
201605140060000300000000000000112956000000000000001129569900000000000000000000Consumidor Final              000000000059000000000000059000000000000000000000000000000000000000000000000000000000000000000000000000000000000000000000PES00010000001N00000000000000020160524
201605140060000300000000000000112957000000000000001129579900000000000000000000Consumidor Final              000000000059000000000000059000000000000000000000000000000000000000000000000000000000000000000000000000000000000000000000PES00010000001N00000000000000020160524
201605140060000300000000000000112958000000000000001129589900000000000000000000Consumidor Final              000000000053000000000000053000000000000000000000000000000000000000000000000000000000000000000000000000000000000000000000PES00010000001N00000000000000020160524
201605140060000100000000000000197322000000000000001973229900000000000000000000Consumidor Final              000000000067000000000000067000000000000000000000000000000000000000000000000000000000000000000000000000000000000000000000PES00010000001N00000000000000020160524
201605140060000600000000000000680634000000000000006806349900000000000000000000Consumidor Final              000000000053000000000000053000000000000000000000000000000000000000000000000000000000000000000000000000000000000000000000PES00010000001N00000000000000020160524
201605140060000600000000000000680635000000000000006806359900000000000000000000Consumidor Final              000000000063000000000000063000000000000000000000000000000000000000000000000000000000000000000000000000000000000000000000PES00010000001N00000000000000020160524
201605140060000800000000000000157854000000000000001578549900000000000000000000Consumidor Final              000000000064000000000000064000000000000000000000000000000000000000000000000000000000000000000000000000000000000000000000PES00010000001N00000000000000020160524
201605140060000600000000000000680636000000000000006806369900000000000000000000Consumidor Final              000000000053000000000000053000000000000000000000000000000000000000000000000000000000000000000000000000000000000000000000PES00010000001N00000000000000020160524
201605140060000600000000000000680637000000000000006806379900000000000000000000Consumidor Final              000000000053000000000000053000000000000000000000000000000000000000000000000000000000000000000000000000000000000000000000PES00010000001N00000000000000020160524
201605140060000600000000000000680638000000000000006806389900000000000000000000Consumidor Final              000000000053000000000000053000000000000000000000000000000000000000000000000000000000000000000000000000000000000000000000PES00010000001N00000000000000020160524
201605140060000600000000000000680639000000000000006806399900000000000000000000Consumidor Final              000000000053000000000000053000000000000000000000000000000000000000000000000000000000000000000000000000000000000000000000PES00010000001N00000000000000020160524
201605140060000100000000000000197306000000000000001973069900000000000000000000Consumidor Final              000000000057000000000000057000000000000000000000000000000000000000000000000000000000000000000000000000000000000000000000PES00010000001N00000000000000020160524
201605140060000300000000000000112942000000000000001129429900000000000000000000Consumidor Final              000000000053000000000000053000000000000000000000000000000000000000000000000000000000000000000000000000000000000000000000PES00010000001N00000000000000020160524
201605140060000300000000000000112943000000000000001129439900000000000000000000Consumidor Final              000000000059000000000000059000000000000000000000000000000000000000000000000000000000000000000000000000000000000000000000PES00010000001N00000000000000020160524
201605140060000300000000000000112944000000000000001129449900000000000000000000Consumidor Final              000000000053000000000000053000000000000000000000000000000000000000000000000000000000000000000000000000000000000000000000PES00010000001N00000000000000020160524
201605140060000600000000000000680640000000000000006806409900000000000000000000Consumidor Final              000000000053000000000000053000000000000000000000000000000000000000000000000000000000000000000000000000000000000000000000PES00010000001N00000000000000020160524
201605140060000600000000000000680641000000000000006806419900000000000000000000Consumidor Final              000000000053000000000000053000000000000000000000000000000000000000000000000000000000000000000000000000000000000000000000PES00010000001N00000000000000020160524
201605140060000700000000000000465017000000000000004650179900000000000000000000Consumidor Final              000000000053000000000000053000000000000000000000000000000000000000000000000000000000000000000000000000000000000000000000PES00010000001N00000000000000020160524
201605140060000600000000000000680642000000000000006806429900000000000000000000Consumidor Final              000000000053000000000000053000000000000000000000000000000000000000000000000000000000000000000000000000000000000000000000PES00010000001N00000000000000020160524
201605130060000100000000000000197277000000000000001972779900000000000000000000Consumidor Final              000000000024000000000000024000000000000000000000000000000000000000000000000000000000000000000000000000000000000000000000PES00010000001N00000000000000020160523
201605130060000100000000000000197278000000000000001972789900000000000000000000Consumidor Final              000000000053000000000000053000000000000000000000000000000000000000000000000000000000000000000000000000000000000000000000PES00010000001N00000000000000020160523
201605130060000100000000000000197279000000000000001972799900000000000000000000Consumidor Final              000000000051000000000000051000000000000000000000000000000000000000000000000000000000000000000000000000000000000000000000PES00010000001N00000000000000020160523
201605130060000100000000000000197280000000000000001972809900000000000000000000Consumidor Final              000000000053000000000000053000000000000000000000000000000000000000000000000000000000000000000000000000000000000000000000PES00010000001N00000000000000020160523
201605130060000100000000000000197281000000000000001972819900000000000000000000Consumidor Final              000000000051000000000000051000000000000000000000000000000000000000000000000000000000000000000000000000000000000000000000PES00010000001N00000000000000020160523
201605140060000600000000000000680643000000000000006806439900000000000000000000Consumidor Final              000000000053000000000000053000000000000000000000000000000000000000000000000000000000000000000000000000000000000000000000PES00010000001N00000000000000020160524
201605140060000100000000000000197307000000000000001973079900000000000000000000Consumidor Final              000000000053000000000000053000000000000000000000000000000000000000000000000000000000000000000000000000000000000000000000PES00010000001N00000000000000020160524
201605140060000100000000000000197308000000000000001973089900000000000000000000Consumidor Final              000000000053000000000000053000000000000000000000000000000000000000000000000000000000000000000000000000000000000000000000PES00010000001N00000000000000020160524
201605140060000100000000000000197309000000000000001973099900000000000000000000Consumidor Final              000000000053000000000000053000000000000000000000000000000000000000000000000000000000000000000000000000000000000000000000PES00010000001N00000000000000020160524
201605140060000300000000000000112941000000000000001129419900000000000000000000Consumidor Final              000000000053000000000000053000000000000000000000000000000000000000000000000000000000000000000000000000000000000000000000PES00010000001N00000000000000020160524
201605140060000100000000000000197310000000000000001973109900000000000000000000Consumidor Final              000000000053000000000000053000000000000000000000000000000000000000000000000000000000000000000000000000000000000000000000PES00010000001N00000000000000020160524
201605140060000100000000000000197311000000000000001973119900000000000000000000Consumidor Final              000000000053000000000000053000000000000000000000000000000000000000000000000000000000000000000000000000000000000000000000PES00010000001N00000000000000020160524
201605140060000100000000000000197312000000000000001973129900000000000000000000Consumidor Final              000000000053000000000000053000000000000000000000000000000000000000000000000000000000000000000000000000000000000000000000PES00010000001N00000000000000020160524
201605140060000100000000000000197313000000000000001973139900000000000000000000Consumidor Final              000000000053000000000000053000000000000000000000000000000000000000000000000000000000000000000000000000000000000000000000PES00010000001N00000000000000020160524
201605140060000100000000000000197314000000000000001973149900000000000000000000Consumidor Final              000000000084000000000000084000000000000000000000000000000000000000000000000000000000000000000000000000000000000000000000PES00010000001N00000000000000020160524
201605140060000100000000000000197315000000000000001973159900000000000000000000Consumidor Final              000000000053000000000000053000000000000000000000000000000000000000000000000000000000000000000000000000000000000000000000PES00010000001N00000000000000020160524
201605140060000100000000000000197316000000000000001973169900000000000000000000Consumidor Final              000000000053000000000000053000000000000000000000000000000000000000000000000000000000000000000000000000000000000000000000PES00010000001N00000000000000020160524
201605140060000100000000000000197317000000000000001973179900000000000000000000Consumidor Final              000000000082000000000000082000000000000000000000000000000000000000000000000000000000000000000000000000000000000000000000PES00010000001N00000000000000020160524
201605140060000100000000000000197318000000000000001973189900000000000000000000Consumidor Final              000000000053000000000000053000000000000000000000000000000000000000000000000000000000000000000000000000000000000000000000PES00010000001N00000000000000020160524
201605140060000600000000000000680633000000000000006806339900000000000000000000Consumidor Final              000000000053000000000000053000000000000000000000000000000000000000000000000000000000000000000000000000000000000000000000PES00010000001N00000000000000020160524
201605140060000100000000000000197319000000000000001973199900000000000000000000Consumidor Final              000000000055000000000000055000000000000000000000000000000000000000000000000000000000000000000000000000000000000000000000PES00010000001N00000000000000020160524
201605140060000100000000000000197320000000000000001973209900000000000000000000Consumidor Final              000000000053000000000000053000000000000000000000000000000000000000000000000000000000000000000000000000000000000000000000PES00010000001N00000000000000020160524
201605140060000100000000000000197321000000000000001973219900000000000000000000Consumidor Final              000000000053000000000000053000000000000000000000000000000000000000000000000000000000000000000000000000000000000000000000PES00010000001N00000000000000020160524
201605130060000100000000000000197293000000000000001972939900000000000000000000Consumidor Final              000000000053000000000000053000000000000000000000000000000000000000000000000000000000000000000000000000000000000000000000PES00010000001N00000000000000020160523
201605130060000100000000000000197294000000000000001972949900000000000000000000Consumidor Final              000000000053000000000000053000000000000000000000000000000000000000000000000000000000000000000000000000000000000000000000PES00010000001N00000000000000020160523
201605130060000100000000000000197295000000000000001972959900000000000000000000Consumidor Final              000000000053000000000000053000000000000000000000000000000000000000000000000000000000000000000000000000000000000000000000PES00010000001N00000000000000020160523
201605130060000100000000000000197296000000000000001972969900000000000000000000Consumidor Final              000000000053000000000000053000000000000000000000000000000000000000000000000000000000000000000000000000000000000000000000PES00010000001N00000000000000020160523
201605130060000100000000000000197297000000000000001972979900000000000000000000Consumidor Final              000000000038000000000000038000000000000000000000000000000000000000000000000000000000000000000000000000000000000000000000PES00010000001N00000000000000020160523
201605130060000100000000000000197298000000000000001972989900000000000000000000Consumidor Final              000000000059000000000000059000000000000000000000000000000000000000000000000000000000000000000000000000000000000000000000PES00010000001N00000000000000020160523
201605130060000100000000000000197299000000000000001972999900000000000000000000Consumidor Final              000000000053000000000000053000000000000000000000000000000000000000000000000000000000000000000000000000000000000000000000PES00010000001N00000000000000020160523
201605130060000100000000000000197300000000000000001973009900000000000000000000Consumidor Final              000000000053000000000000053000000000000000000000000000000000000000000000000000000000000000000000000000000000000000000000PES00010000001N00000000000000020160523
201605130060000100000000000000197301000000000000001973019900000000000000000000Consumidor Final              000000000063000000000000063000000000000000000000000000000000000000000000000000000000000000000000000000000000000000000000PES00010000001N00000000000000020160523
201605130060000100000000000000197302000000000000001973029900000000000000000000Consumidor Final              000000000053000000000000053000000000000000000000000000000000000000000000000000000000000000000000000000000000000000000000PES00010000001N00000000000000020160523
201605130060000100000000000000197303000000000000001973039900000000000000000000Consumidor Final              000000000053000000000000053000000000000000000000000000000000000000000000000000000000000000000000000000000000000000000000PES00010000001N00000000000000020160523
201605140060000900000000000000029337000000000000000293379900000000000000000000Consumidor Final              000000000055000000000000055000000000000000000000000000000000000000000000000000000000000000000000000000000000000000000000PES00010000001N00000000000000020160524
201605120060000700000000000000464867000000000000004648679900000000000000000000Consumidor Final              000000000033000000000000033000000000000000000000000000000000000000000000000000000000000000000000000000000000000000000000PES00010000001N00000000000000020160522
201605120060000700000000000000464868000000000000004648689900000000000000000000Consumidor Final              000000000053000000000000053000000000000000000000000000000000000000000000000000000000000000000000000000000000000000000000PES00010000001N00000000000000020160522
201605120060000700000000000000464869000000000000004648699900000000000000000000Consumidor Final              000000000053000000000000053000000000000000000000000000000000000000000000000000000000000000000000000000000000000000000000PES00010000001N00000000000000020160522
201605120060000600000000000000680349000000000000006803499900000000000000000000Consumidor Final              000000000033000000000000033000000000000000000000000000000000000000000000000000000000000000000000000000000000000000000000PES00010000001N00000000000000020160522
201605120060000800000000000000157753000000000000001577539900000000000000000000Consumidor Final              000000000043000000000000043000000000000000000000000000000000000000000000000000000000000000000000000000000000000000000000PES00010000001N00000000000000020160522
201605120060000800000000000000157754000000000000001577549900000000000000000000Consumidor Final              000000000043000000000000043000000000000000000000000000000000000000000000000000000000000000000000000000000000000000000000PES00010000001N00000000000000020160522
201605120060000800000000000000157755000000000000001577559900000000000000000000Consumidor Final              000000000043000000000000043000000000000000000000000000000000000000000000000000000000000000000000000000000000000000000000PES00010000001N00000000000000020160522
201605120060000800000000000000157756000000000000001577569900000000000000000000Consumidor Final              000000000043000000000000043000000000000000000000000000000000000000000000000000000000000000000000000000000000000000000000PES00010000001N00000000000000020160522
201605120060000800000000000000157757000000000000001577579900000000000000000000Consumidor Final              000000000043000000000000043000000000000000000000000000000000000000000000000000000000000000000000000000000000000000000000PES00010000001N00000000000000020160522
201605120060000800000000000000157758000000000000001577589900000000000000000000Consumidor Final              000000000043000000000000043000000000000000000000000000000000000000000000000000000000000000000000000000000000000000000000PES00010000001N00000000000000020160522
201605120060000800000000000000157759000000000000001577599900000000000000000000Consumidor Final              000000000043000000000000043000000000000000000000000000000000000000000000000000000000000000000000000000000000000000000000PES00010000001N00000000000000020160522
201605120060000800000000000000157760000000000000001577609900000000000000000000Consumidor Final              000000000043000000000000043000000000000000000000000000000000000000000000000000000000000000000000000000000000000000000000PES00010000001N00000000000000020160522
201605120060000800000000000000157761000000000000001577619900000000000000000000Consumidor Final              000000000043000000000000043000000000000000000000000000000000000000000000000000000000000000000000000000000000000000000000PES00010000001N00000000000000020160522
