201607140060000300000000000000116543000000000000001165439900000000000000000000Consumidor Final              000000000058000000000000058000000000000000000000000000000000000000000000000000000000000000000000000000000000000000000000PES00010000001N00000000000000020160724
201607140060000300000000000000116544000000000000001165449900000000000000000000Consumidor Final              000000000058000000000000058000000000000000000000000000000000000000000000000000000000000000000000000000000000000000000000PES00010000001N00000000000000020160724
201607140060000600000000000000688862000000000000006888629900000000000000000000Consumidor Final              000000000058000000000000058000000000000000000000000000000000000000000000000000000000000000000000000000000000000000000000PES00010000001N00000000000000020160724
201607140060000700000000000000471164000000000000004711649900000000000000000000Consumidor Final              000000000058000000000000058000000000000000000000000000000000000000000000000000000000000000000000000000000000000000000000PES00010000001N00000000000000020160724
201607140060000700000000000000471165000000000000004711659900000000000000000000Consumidor Final              000000000058000000000000058000000000000000000000000000000000000000000000000000000000000000000000000000000000000000000000PES00010000001N00000000000000020160724
201607140060000700000000000000471166000000000000004711669900000000000000000000Consumidor Final              000000000058000000000000058000000000000000000000000000000000000000000000000000000000000000000000000000000000000000000000PES00010000001N00000000000000020160724
201607140060000700000000000000471167000000000000004711679900000000000000000000Consumidor Final              000000000058000000000000058000000000000000000000000000000000000000000000000000000000000000000000000000000000000000000000PES00010000001N00000000000000020160724
201607140060000800000000000000161923000000000000001619239900000000000000000000Consumidor Final              000000000034000000000000034000000000000000000000000000000000000000000000000000000000000000000000000000000000000000000000PES00010000001N00000000000000020160724
201607140060000700000000000000471182000000000000004711829900000000000000000000Consumidor Final              000000000058000000000000058000000000000000000000000000000000000000000000000000000000000000000000000000000000000000000000PES00010000001N00000000000000020160724
201607140060000700000000000000471183000000000000004711839900000000000000000000Consumidor Final              000000000028000000000000028000000000000000000000000000000000000000000000000000000000000000000000000000000000000000000000PES00010000001N00000000000000020160724
201607140060000700000000000000471184000000000000004711849900000000000000000000Consumidor Final              000000000058000000000000058000000000000000000000000000000000000000000000000000000000000000000000000000000000000000000000PES00010000001N00000000000000020160724
201607140060000700000000000000471185000000000000004711859900000000000000000000Consumidor Final              000000000058000000000000058000000000000000000000000000000000000000000000000000000000000000000000000000000000000000000000PES00010000001N00000000000000020160724
201607140060000700000000000000471186000000000000004711869900000000000000000000Consumidor Final              000000000058000000000000058000000000000000000000000000000000000000000000000000000000000000000000000000000000000000000000PES00010000001N00000000000000020160724
201607140060000600000000000000688863000000000000006888639900000000000000000000Consumidor Final              000000000058000000000000058000000000000000000000000000000000000000000000000000000000000000000000000000000000000000000000PES00010000001N00000000000000020160724
201607240060000100000000000000200848000000000000002008489900000000000000000000Consumidor Final              000000000058000000000000058000000000000000000000000000000000000000000000000000000000000000000000000000000000000000000000PES00010000001N00000000000000020160803
201607240060000600000000000000690783000000000000006907839900000000000000000000Consumidor Final              000000000058000000000000058000000000000000000000000000000000000000000000000000000000000000000000000000000000000000000000PES00010000001N00000000000000020160803
201607240060000600000000000000690789000000000000006907899900000000000000000000Consumidor Final              000000000058000000000000058000000000000000000000000000000000000000000000000000000000000000000000000000000000000000000000PES00010000001N00000000000000020160803
201607240060000800000000000000162624000000000000001626249900000000000000000000Consumidor Final              000000000000000000000000000000000000000000000000000000000000000000000000000000000000000000000000000000000000000000000000PES00010000001N00000000000000020160803
201607240060000800000000000000162625000000000000001626259900000000000000000000Consumidor Final              000000000056000000000000056000000000000000000000000000000000000000000000000000000000000000000000000000000000000000000000PES00010000001N00000000000000020160803
201607240060000800000000000000162626000000000000001626269900000000000000000000Consumidor Final              000000000056000000000000056000000000000000000000000000000000000000000000000000000000000000000000000000000000000000000000PES00010000001N00000000000000020160803
201607240060000800000000000000162627000000000000001626279900000000000000000000Consumidor Final              000000000048000000000000048000000000000000000000000000000000000000000000000000000000000000000000000000000000000000000000PES00010000001N00000000000000020160803
201607240060000900000000000000030554000000000000000305549900000000000000000000Consumidor Final              000000000028000000000000028000000000000000000000000000000000000000000000000000000000000000000000000000000000000000000000PES00010000001N00000000000000020160803
201607240060000900000000000000030555000000000000000305559900000000000000000000Consumidor Final              000000000058000000000000058000000000000000000000000000000000000000000000000000000000000000000000000000000000000000000000PES00010000001N00000000000000020160803
201607240060000900000000000000030556000000000000000305569900000000000000000000Consumidor Final              000000000058000000000000058000000000000000000000000000000000000000000000000000000000000000000000000000000000000000000000PES00010000001N00000000000000020160803
201607240060000900000000000000030557000000000000000305579900000000000000000000Consumidor Final              000000000058000000000000058000000000000000000000000000000000000000000000000000000000000000000000000000000000000000000000PES00010000001N00000000000000020160803
201607240060000800000000000000162628000000000000001626289900000000000000000000Consumidor Final              000000000058000000000000058000000000000000000000000000000000000000000000000000000000000000000000000000000000000000000000PES00010000001N00000000000000020160803
201607240060000600000000000000690796000000000000006907969900000000000000000000Consumidor Final              000000000058000000000000058000000000000000000000000000000000000000000000000000000000000000000000000000000000000000000000PES00010000001N00000000000000020160803
201607240060000600000000000000690799000000000000006907999900000000000000000000Consumidor Final              000000000058000000000000058000000000000000000000000000000000000000000000000000000000000000000000000000000000000000000000PES00010000001N00000000000000020160803
201607240060000600000000000000690784000000000000006907849900000000000000000000Consumidor Final              000000000058000000000000058000000000000000000000000000000000000000000000000000000000000000000000000000000000000000000000PES00010000001N00000000000000020160803
201607240060000600000000000000690785000000000000006907859900000000000000000000Consumidor Final              000000000058000000000000058000000000000000000000000000000000000000000000000000000000000000000000000000000000000000000000PES00010000001N00000000000000020160803
201607240060000600000000000000690786000000000000006907869900000000000000000000Consumidor Final              000000000058000000000000058000000000000000000000000000000000000000000000000000000000000000000000000000000000000000000000PES00010000001N00000000000000020160803
201607240060000600000000000000690787000000000000006907879900000000000000000000Consumidor Final              000000000058000000000000058000000000000000000000000000000000000000000000000000000000000000000000000000000000000000000000PES00010000001N00000000000000020160803
201607240060000600000000000000690788000000000000006907889900000000000000000000Consumidor Final              000000000028000000000000028000000000000000000000000000000000000000000000000000000000000000000000000000000000000000000000PES00010000001N00000000000000020160803
201607240060000600000000000000690793000000000000006907939900000000000000000000Consumidor Final              000000000034000000000000034000000000000000000000000000000000000000000000000000000000000000000000000000000000000000000000PES00010000001N00000000000000020160803
201607240060000600000000000000690794000000000000006907949900000000000000000000Consumidor Final              000000000058000000000000058000000000000000000000000000000000000000000000000000000000000000000000000000000000000000000000PES00010000001N00000000000000020160803
201607240060000600000000000000690795000000000000006907959900000000000000000000Consumidor Final              000000000080000000000000080000000000000000000000000000000000000000000000000000000000000000000000000000000000000000000000PES00010000001N00000000000000020160803
201607240060000900000000000000030559000000000000000305599900000000000000000000Consumidor Final              000000000028000000000000028000000000000000000000000000000000000000000000000000000000000000000000000000000000000000000000PES00010000001N00000000000000020160803
201607240060000600000000000000690817000000000000006908179900000000000000000000Consumidor Final              000000000058000000000000058000000000000000000000000000000000000000000000000000000000000000000000000000000000000000000000PES00010000001N00000000000000020160803
201607240060000600000000000000690818000000000000006908189900000000000000000000Consumidor Final              000000000069000000000000069000000000000000000000000000000000000000000000000000000000000000000000000000000000000000000000PES00010000001N00000000000000020160803
201607240060000600000000000000690819000000000000006908199900000000000000000000Consumidor Final              000000000058000000000000058000000000000000000000000000000000000000000000000000000000000000000000000000000000000000000000PES00010000001N00000000000000020160803
201607240060000600000000000000690820000000000000006908209900000000000000000000Consumidor Final              000000000058000000000000058000000000000000000000000000000000000000000000000000000000000000000000000000000000000000000000PES00010000001N00000000000000020160803
201607240060000600000000000000690821000000000000006908219900000000000000000000Consumidor Final              000000000058000000000000058000000000000000000000000000000000000000000000000000000000000000000000000000000000000000000000PES00010000001N00000000000000020160803
201607240060000600000000000000690810000000000000006908109900000000000000000000Consumidor Final              000000000058000000000000058000000000000000000000000000000000000000000000000000000000000000000000000000000000000000000000PES00010000001N00000000000000020160803
201607240060000600000000000000690811000000000000006908119900000000000000000000Consumidor Final              000000000058000000000000058000000000000000000000000000000000000000000000000000000000000000000000000000000000000000000000PES00010000001N00000000000000020160803
201607240060000700000000000000473300000000000000004733009900000000000000000000Consumidor Final              000000000058000000000000058000000000000000000000000000000000000000000000000000000000000000000000000000000000000000000000PES00010000001N00000000000000020160803
201607240060000700000000000000473301000000000000004733019900000000000000000000Consumidor Final              000000000058000000000000058000000000000000000000000000000000000000000000000000000000000000000000000000000000000000000000PES00010000001N00000000000000020160803
201607240060000700000000000000473302000000000000004733029900000000000000000000Consumidor Final              000000000058000000000000058000000000000000000000000000000000000000000000000000000000000000000000000000000000000000000000PES00010000001N00000000000000020160803
201607240060000700000000000000473303000000000000004733039900000000000000000000Consumidor Final              000000000058000000000000058000000000000000000000000000000000000000000000000000000000000000000000000000000000000000000000PES00010000001N00000000000000020160803
201607240060000600000000000000690858000000000000006908589900000000000000000000Consumidor Final              000000000058000000000000058000000000000000000000000000000000000000000000000000000000000000000000000000000000000000000000PES00010000001N00000000000000020160803
201607240060000600000000000000690859000000000000006908599900000000000000000000Consumidor Final              000000000058000000000000058000000000000000000000000000000000000000000000000000000000000000000000000000000000000000000000PES00010000001N00000000000000020160803
201607240060000600000000000000690860000000000000006908609900000000000000000000Consumidor Final              000000000028000000000000028000000000000000000000000000000000000000000000000000000000000000000000000000000000000000000000PES00010000001N00000000000000020160803
201607240010000600000000000000007815000000000000000078158000000000027182634064ROJAS MIRIAM CLAUDIA GABRIELA 000000000028000000000000028000000000000000000000000000000000000000000000000000000000000000000000000000000000000000000000PES00010000001N00000000000000020160803
201607240060000600000000000000690861000000000000006908619900000000000000000000Consumidor Final              000000000058000000000000058000000000000000000000000000000000000000000000000000000000000000000000000000000000000000000000PES00010000001N00000000000000020160803
201607240060000800000000000000162647000000000000001626479900000000000000000000Consumidor Final              000000000048000000000000048000000000000000000000000000000000000000000000000000000000000000000000000000000000000000000000PES00010000001N00000000000000020160803
201607240060000600000000000000690874000000000000006908749900000000000000000000Consumidor Final              000000000058000000000000058000000000000000000000000000000000000000000000000000000000000000000000000000000000000000000000PES00010000001N00000000000000020160803
201607240060000600000000000000690875000000000000006908759900000000000000000000Consumidor Final              000000000058000000000000058000000000000000000000000000000000000000000000000000000000000000000000000000000000000000000000PES00010000001N00000000000000020160803
201607240060000800000000000000162634000000000000001626349900000000000000000000Consumidor Final              000000000048000000000000048000000000000000000000000000000000000000000000000000000000000000000000000000000000000000000000PES00010000001N00000000000000020160803
201607240060000800000000000000162635000000000000001626359900000000000000000000Consumidor Final              000000000048000000000000048000000000000000000000000000000000000000000000000000000000000000000000000000000000000000000000PES00010000001N00000000000000020160803
201607240060000800000000000000162636000000000000001626369900000000000000000000Consumidor Final              000000000056000000000000056000000000000000000000000000000000000000000000000000000000000000000000000000000000000000000000PES00010000001N00000000000000020160803
201607240060000800000000000000162637000000000000001626379900000000000000000000Consumidor Final              000000000048000000000000048000000000000000000000000000000000000000000000000000000000000000000000000000000000000000000000PES00010000001N00000000000000020160803
201607240060000800000000000000162638000000000000001626389900000000000000000000Consumidor Final              000000000048000000000000048000000000000000000000000000000000000000000000000000000000000000000000000000000000000000000000PES00010000001N00000000000000020160803
201607240060000800000000000000162639000000000000001626399900000000000000000000Consumidor Final              000000000048000000000000048000000000000000000000000000000000000000000000000000000000000000000000000000000000000000000000PES00010000001N00000000000000020160803
201607240060000900000000000000030561000000000000000305619900000000000000000000Consumidor Final              000000000028000000000000028000000000000000000000000000000000000000000000000000000000000000000000000000000000000000000000PES00010000001N00000000000000020160803
201607240060000900000000000000030562000000000000000305629900000000000000000000Consumidor Final              000000000033000000000000033000000000000000000000000000000000000000000000000000000000000000000000000000000000000000000000PES00010000001N00000000000000020160803
201607240060000900000000000000030563000000000000000305639900000000000000000000Consumidor Final              000000000028000000000000028000000000000000000000000000000000000000000000000000000000000000000000000000000000000000000000PES00010000001N00000000000000020160803
201607240060000900000000000000030564000000000000000305649900000000000000000000Consumidor Final              000000000055000000000000055000000000000000000000000000000000000000000000000000000000000000000000000000000000000000000000PES00010000001N00000000000000020160803
201607240060000900000000000000030565000000000000000305659900000000000000000000Consumidor Final              000000000060000000000000060000000000000000000000000000000000000000000000000000000000000000000000000000000000000000000000PES00010000001N00000000000000020160803
201607240060000800000000000000162640000000000000001626409900000000000000000000Consumidor Final              000000000048000000000000048000000000000000000000000000000000000000000000000000000000000000000000000000000000000000000000PES00010000001N00000000000000020160803
201607240060000800000000000000162641000000000000001626419900000000000000000000Consumidor Final              000000000048000000000000048000000000000000000000000000000000000000000000000000000000000000000000000000000000000000000000PES00010000001N00000000000000020160803
201607240060000800000000000000162642000000000000001626429900000000000000000000Consumidor Final              000000000056000000000000056000000000000000000000000000000000000000000000000000000000000000000000000000000000000000000000PES00010000001N00000000000000020160803
201607240060000900000000000000030566000000000000000305669900000000000000000000Consumidor Final              000000000058000000000000058000000000000000000000000000000000000000000000000000000000000000000000000000000000000000000000PES00010000001N00000000000000020160803
201607240060000900000000000000030567000000000000000305679900000000000000000000Consumidor Final              000000000058000000000000058000000000000000000000000000000000000000000000000000000000000000000000000000000000000000000000PES00010000001N00000000000000020160803
201607240060000900000000000000030570000000000000000305709900000000000000000000Consumidor Final              000000000059000000000000059000000000000000000000000000000000000000000000000000000000000000000000000000000000000000000000PES00010000001N00000000000000020160803
201607240060000800000000000000162643000000000000001626439900000000000000000000Consumidor Final              000000000048000000000000048000000000000000000000000000000000000000000000000000000000000000000000000000000000000000000000PES00010000001N00000000000000020160803
201607240060000600000000000000690854000000000000006908549900000000000000000000Consumidor Final              000000000058000000000000058000000000000000000000000000000000000000000000000000000000000000000000000000000000000000000000PES00010000001N00000000000000020160803
201607240060000600000000000000690855000000000000006908559900000000000000000000Consumidor Final              000000000058000000000000058000000000000000000000000000000000000000000000000000000000000000000000000000000000000000000000PES00010000001N00000000000000020160803
201607240060000600000000000000690856000000000000006908569900000000000000000000Consumidor Final              000000000058000000000000058000000000000000000000000000000000000000000000000000000000000000000000000000000000000000000000PES00010000001N00000000000000020160803
201607240060000600000000000000690857000000000000006908579900000000000000000000Consumidor Final              000000000058000000000000058000000000000000000000000000000000000000000000000000000000000000000000000000000000000000000000PES00010000001N00000000000000020160803
201607240060000600000000000000690862000000000000006908629900000000000000000000Consumidor Final              000000000058000000000000058000000000000000000000000000000000000000000000000000000000000000000000000000000000000000000000PES00010000001N00000000000000020160803
201607240060000600000000000000690865000000000000006908659900000000000000000000Consumidor Final              000000000058000000000000058000000000000000000000000000000000000000000000000000000000000000000000000000000000000000000000PES00010000001N00000000000000020160803
201607240060000600000000000000690866000000000000006908669900000000000000000000Consumidor Final              000000000067000000000000067000000000000000000000000000000000000000000000000000000000000000000000000000000000000000000000PES00010000001N00000000000000020160803
201607240060000900000000000000030573000000000000000305739900000000000000000000Consumidor Final              000000000056000000000000056000000000000000000000000000000000000000000000000000000000000000000000000000000000000000000000PES00010000001N00000000000000020160803
201607240060000600000000000000690867000000000000006908679900000000000000000000Consumidor Final              000000000058000000000000058000000000000000000000000000000000000000000000000000000000000000000000000000000000000000000000PES00010000001N00000000000000020160803
201607240060000600000000000000690868000000000000006908689900000000000000000000Consumidor Final              000000000058000000000000058000000000000000000000000000000000000000000000000000000000000000000000000000000000000000000000PES00010000001N00000000000000020160803
201607010060000800000000000000161128000000000000001611289900000000000000000000Consumidor Final              000000000048000000000000048000000000000000000000000000000000000000000000000000000000000000000000000000000000000000000000PES00010000001N00000000000000020160711
201607010060000400000000000000014730000000000000000147309900000000000000000000Consumidor Final              000000000058000000000000058000000000000000000000000000000000000000000000000000000000000000000000000000000000000000000000PES00010000001N00000000000000020160711
201607010060000400000000000000014731000000000000000147319900000000000000000000Consumidor Final              000000000058000000000000058000000000000000000000000000000000000000000000000000000000000000000000000000000000000000000000PES00010000001N00000000000000020160711
201607010060000400000000000000014732000000000000000147329900000000000000000000Consumidor Final              000000000058000000000000058000000000000000000000000000000000000000000000000000000000000000000000000000000000000000000000PES00010000001N00000000000000020160711
201607010060000400000000000000014733000000000000000147339900000000000000000000Consumidor Final              000000000065000000000000065000000000000000000000000000000000000000000000000000000000000000000000000000000000000000000000PES00010000001N00000000000000020160711
201607010060000400000000000000014734000000000000000147349900000000000000000000Consumidor Final              000000000060000000000000060000000000000000000000000000000000000000000000000000000000000000000000000000000000000000000000PES00010000001N00000000000000020160711
201607010060000100000000000000199483000000000000001994839900000000000000000000Consumidor Final              000000000058000000000000058000000000000000000000000000000000000000000000000000000000000000000000000000000000000000000000PES00010000001N00000000000000020160711
201607010060000100000000000000199484000000000000001994849900000000000000000000Consumidor Final              000000000058000000000000058000000000000000000000000000000000000000000000000000000000000000000000000000000000000000000000PES00010000001N00000000000000020160711
201607010060000100000000000000199485000000000000001994859900000000000000000000Consumidor Final              000000000058000000000000058000000000000000000000000000000000000000000000000000000000000000000000000000000000000000000000PES00010000001N00000000000000020160711
201607010060000100000000000000199486000000000000001994869900000000000000000000Consumidor Final              000000000078000000000000078000000000000000000000000000000000000000000000000000000000000000000000000000000000000000000000PES00010000001N00000000000000020160711
201607010060000300000000000000115494000000000000001154949900000000000000000000Consumidor Final              000000000058000000000000058000000000000000000000000000000000000000000000000000000000000000000000000000000000000000000000PES00010000001N00000000000000020160711
201607030060000800000000000000161223000000000000001612239900000000000000000000Consumidor Final              000000000056000000000000056000000000000000000000000000000000000000000000000000000000000000000000000000000000000000000000PES00010000001N00000000000000020160713
201607030060000100000000000000199823000000000000001998239900000000000000000000Consumidor Final              000000000060000000000000060000000000000000000000000000000000000000000000000000000000000000000000000000000000000000000000PES00010000001N00000000000000020160713
201607030060000100000000000000199824000000000000001998249900000000000000000000Consumidor Final              000000000033000000000000033000000000000000000000000000000000000000000000000000000000000000000000000000000000000000000000PES00010000001N00000000000000020160713
201607030060000100000000000000199825000000000000001998259900000000000000000000Consumidor Final              000000000060000000000000060000000000000000000000000000000000000000000000000000000000000000000000000000000000000000000000PES00010000001N00000000000000020160713
201607030060000100000000000000199826000000000000001998269900000000000000000000Consumidor Final              000000000028000000000000028000000000000000000000000000000000000000000000000000000000000000000000000000000000000000000000PES00010000001N00000000000000020160713
201607030060000100000000000000199827000000000000001998279900000000000000000000Consumidor Final              000000000069000000000000069000000000000000000000000000000000000000000000000000000000000000000000000000000000000000000000PES00010000001N00000000000000020160713
201607040060000800000000000000161306000000000000001613069900000000000000000000Consumidor Final              000000000048000000000000048000000000000000000000000000000000000000000000000000000000000000000000000000000000000000000000PES00010000001N00000000000000020160714
201607040060000800000000000000161307000000000000001613079900000000000000000000Consumidor Final              000000000048000000000000048000000000000000000000000000000000000000000000000000000000000000000000000000000000000000000000PES00010000001N00000000000000020160714
201607030060000100000000000000199995000000000000001999959900000000000000000000Consumidor Final              000000000058000000000000058000000000000000000000000000000000000000000000000000000000000000000000000000000000000000000000PES00010000001N00000000000000020160713
201607030060000100000000000000199967000000000000001999679900000000000000000000Consumidor Final              000000000070000000000000070000000000000000000000000000000000000000000000000000000000000000000000000000000000000000000000PES00010000001N00000000000000020160713
201607030060000100000000000000199966000000000000001999669900000000000000000000Consumidor Final              000000000058000000000000058000000000000000000000000000000000000000000000000000000000000000000000000000000000000000000000PES00010000001N00000000000000020160713
201607030060000100000000000000199965000000000000001999659900000000000000000000Consumidor Final              000000000058000000000000058000000000000000000000000000000000000000000000000000000000000000000000000000000000000000000000PES00010000001N00000000000000020160713
201607040060000300000000000000115878000000000000001158789900000000000000000000Consumidor Final              000000000058000000000000058000000000000000000000000000000000000000000000000000000000000000000000000000000000000000000000PES00010000001N00000000000000020160714
201607040060000300000000000000115879000000000000001158799900000000000000000000Consumidor Final              000000000058000000000000058000000000000000000000000000000000000000000000000000000000000000000000000000000000000000000000PES00010000001N00000000000000020160714
201607040060000300000000000000115880000000000000001158809900000000000000000000Consumidor Final              000000000028000000000000028000000000000000000000000000000000000000000000000000000000000000000000000000000000000000000000PES00010000001N00000000000000020160714
201607050060000100000000000000200320000000000000002003209900000000000000000000Consumidor Final              000000000058000000000000058000000000000000000000000000000000000000000000000000000000000000000000000000000000000000000000PES00010000001N00000000000000020160715
201607050060000100000000000000200361000000000000002003619900000000000000000000Consumidor Final              000000000058000000000000058000000000000000000000000000000000000000000000000000000000000000000000000000000000000000000000PES00010000001N00000000000000020160715
201607050060000100000000000000200362000000000000002003629900000000000000000000Consumidor Final              000000000071000000000000071000000000000000000000000000000000000000000000000000000000000000000000000000000000000000000000PES00010000001N00000000000000020160715
201607050060000100000000000000200363000000000000002003639900000000000000000000Consumidor Final              000000000090000000000000090000000000000000000000000000000000000000000000000000000000000000000000000000000000000000000000PES00010000001N00000000000000020160715
201607050060000100000000000000200364000000000000002003649900000000000000000000Consumidor Final              000000000058000000000000058000000000000000000000000000000000000000000000000000000000000000000000000000000000000000000000PES00010000001N00000000000000020160715
201607050060000100000000000000200365000000000000002003659900000000000000000000Consumidor Final              000000000058000000000000058000000000000000000000000000000000000000000000000000000000000000000000000000000000000000000000PES00010000001N00000000000000020160715
201607050060000100000000000000200366000000000000002003669900000000000000000000Consumidor Final              000000000058000000000000058000000000000000000000000000000000000000000000000000000000000000000000000000000000000000000000PES00010000001N00000000000000020160715
201607050060000100000000000000200367000000000000002003679900000000000000000000Consumidor Final              000000000071000000000000071000000000000000000000000000000000000000000000000000000000000000000000000000000000000000000000PES00010000001N00000000000000020160715
201607050060000100000000000000200368000000000000002003688000000000020236620167CRISTIAN RODRIGUEZ            000000000103000000000000103000000000000000000000000000000000000000000000000000000000000000000000000000000000000000000000PES00010000001N00000000000000020160715
201607050060000100000000000000200369000000000000002003699900000000000000000000Consumidor Final              000000000058000000000000058000000000000000000000000000000000000000000000000000000000000000000000000000000000000000000000PES00010000001N00000000000000020160715
201607050060000100000000000000200370000000000000002003709900000000000000000000Consumidor Final              000000000058000000000000058000000000000000000000000000000000000000000000000000000000000000000000000000000000000000000000PES00010000001N00000000000000020160715
201607050060000100000000000000200371000000000000002003719900000000000000000000Consumidor Final              000000000058000000000000058000000000000000000000000000000000000000000000000000000000000000000000000000000000000000000000PES00010000001N00000000000000020160715
201607050060000100000000000000200372000000000000002003729900000000000000000000Consumidor Final              000000000058000000000000058000000000000000000000000000000000000000000000000000000000000000000000000000000000000000000000PES00010000001N00000000000000020160715
201607050060000100000000000000200373000000000000002003739900000000000000000000Consumidor Final              000000000058000000000000058000000000000000000000000000000000000000000000000000000000000000000000000000000000000000000000PES00010000001N00000000000000020160715
201607070060000100000000000000200628000000000000002006289900000000000000000000Consumidor Final              000000000065000000000000065000000000000000000000000000000000000000000000000000000000000000000000000000000000000000000000PES00010000001N00000000000000020160717
201607080060000700000000000000470506000000000000004705069900000000000000000000Consumidor Final              000000000058000000000000058000000000000000000000000000000000000000000000000000000000000000000000000000000000000000000000PES00010000001N00000000000000020160718
201607080060000800000000000000161507000000000000001615079900000000000000000000Consumidor Final              000000000048000000000000048000000000000000000000000000000000000000000000000000000000000000000000000000000000000000000000PES00010000001N00000000000000020160718
201607080060000600000000000000687972000000000000006879729900000000000000000000Consumidor Final              000000000058000000000000058000000000000000000000000000000000000000000000000000000000000000000000000000000000000000000000PES00010000001N00000000000000020160718
201607080060000700000000000000470507000000000000004705079900000000000000000000Consumidor Final              000000000060000000000000060000000000000000000000000000000000000000000000000000000000000000000000000000000000000000000000PES00010000001N00000000000000020160718
201607080060000600000000000000687973000000000000006879739900000000000000000000Consumidor Final              000000000058000000000000058000000000000000000000000000000000000000000000000000000000000000000000000000000000000000000000PES00010000001N00000000000000020160718
201607080060000600000000000000687974000000000000006879749900000000000000000000Consumidor Final              000000000058000000000000058000000000000000000000000000000000000000000000000000000000000000000000000000000000000000000000PES00010000001N00000000000000020160718
201607080060000700000000000000470510000000000000004705109900000000000000000000Consumidor Final              000000000058000000000000058000000000000000000000000000000000000000000000000000000000000000000000000000000000000000000000PES00010000001N00000000000000020160718
201607080060000800000000000000161509000000000000001615099900000000000000000000Consumidor Final              000000000048000000000000048000000000000000000000000000000000000000000000000000000000000000000000000000000000000000000000PES00010000001N00000000000000020160718
201607080060000800000000000000161510000000000000001615109900000000000000000000Consumidor Final              000000000048000000000000048000000000000000000000000000000000000000000000000000000000000000000000000000000000000000000000PES00010000001N00000000000000020160718
201607080060000800000000000000161511000000000000001615119900000000000000000000Consumidor Final              000000000048000000000000048000000000000000000000000000000000000000000000000000000000000000000000000000000000000000000000PES00010000001N00000000000000020160718
201607080060000800000000000000161512000000000000001615129900000000000000000000Consumidor Final              000000000048000000000000048000000000000000000000000000000000000000000000000000000000000000000000000000000000000000000000PES00010000001N00000000000000020160718
201607080060000700000000000000470512000000000000004705129900000000000000000000Consumidor Final              000000000058000000000000058000000000000000000000000000000000000000000000000000000000000000000000000000000000000000000000PES00010000001N00000000000000020160718
201607080060000700000000000000470513000000000000004705139900000000000000000000Consumidor Final              000000000058000000000000058000000000000000000000000000000000000000000000000000000000000000000000000000000000000000000000PES00010000001N00000000000000020160718
201607100060000600000000000000688290000000000000006882909900000000000000000000Consumidor Final              000000000058000000000000058000000000000000000000000000000000000000000000000000000000000000000000000000000000000000000000PES00010000001N00000000000000020160720
201607100060000600000000000000688295000000000000006882959900000000000000000000Consumidor Final              000000000058000000000000058000000000000000000000000000000000000000000000000000000000000000000000000000000000000000000000PES00010000001N00000000000000020160720
201607100060000900000000000000030116000000000000000301169900000000000000000000Consumidor Final              000000000056000000000000056000000000000000000000000000000000000000000000000000000000000000000000000000000000000000000000PES00010000001N00000000000000020160720
201607100060000400000000000000014909000000000000000149099900000000000000000000Consumidor Final              000000000056000000000000056000000000000000000000000000000000000000000000000000000000000000000000000000000000000000000000PES00010000001N00000000000000020160720
201607100060000400000000000000014910000000000000000149109900000000000000000000Consumidor Final              000000000058000000000000058000000000000000000000000000000000000000000000000000000000000000000000000000000000000000000000PES00010000001N00000000000000020160720
201607100060000700000000000000470676000000000000004706769900000000000000000000Consumidor Final              000000000058000000000000058000000000000000000000000000000000000000000000000000000000000000000000000000000000000000000000PES00010000001N00000000000000020160720
201607100060000700000000000000470677000000000000004706779900000000000000000000Consumidor Final              000000000058000000000000058000000000000000000000000000000000000000000000000000000000000000000000000000000000000000000000PES00010000001N00000000000000020160720
201607100060000700000000000000470678000000000000004706789900000000000000000000Consumidor Final              000000000058000000000000058000000000000000000000000000000000000000000000000000000000000000000000000000000000000000000000PES00010000001N00000000000000020160720
201607100060000700000000000000470679000000000000004706799900000000000000000000Consumidor Final              000000000058000000000000058000000000000000000000000000000000000000000000000000000000000000000000000000000000000000000000PES00010000001N00000000000000020160720
201607100060000900000000000000030117000000000000000301179900000000000000000000Consumidor Final              000000000029000000000000029000000000000000000000000000000000000000000000000000000000000000000000000000000000000000000000PES00010000001N00000000000000020160720
201607100060000700000000000000470680000000000000004706809900000000000000000000Consumidor Final              000000000058000000000000058000000000000000000000000000000000000000000000000000000000000000000000000000000000000000000000PES00010000001N00000000000000020160720
201607100060000700000000000000470681000000000000004706819900000000000000000000Consumidor Final              000000000058000000000000058000000000000000000000000000000000000000000000000000000000000000000000000000000000000000000000PES00010000001N00000000000000020160720
201607100060000700000000000000470682000000000000004706829900000000000000000000Consumidor Final              000000000058000000000000058000000000000000000000000000000000000000000000000000000000000000000000000000000000000000000000PES00010000001N00000000000000020160720
201607100060000700000000000000470683000000000000004706839900000000000000000000Consumidor Final              000000000058000000000000058000000000000000000000000000000000000000000000000000000000000000000000000000000000000000000000PES00010000001N00000000000000020160720
201607120060000600000000000000688545000000000000006885459900000000000000000000Consumidor Final              000000000065000000000000065000000000000000000000000000000000000000000000000000000000000000000000000000000000000000000000PES00010000001N00000000000000020160722
201607120060000600000000000000688546000000000000006885469900000000000000000000Consumidor Final              000000000065000000000000065000000000000000000000000000000000000000000000000000000000000000000000000000000000000000000000PES00010000001N00000000000000020160722
201607120060000800000000000000161777000000000000001617779900000000000000000000Consumidor Final              000000000034000000000000034000000000000000000000000000000000000000000000000000000000000000000000000000000000000000000000PES00010000001N00000000000000020160722
201607120060000600000000000000688549000000000000006885499900000000000000000000Consumidor Final              000000000058000000000000058000000000000000000000000000000000000000000000000000000000000000000000000000000000000000000000PES00010000001N00000000000000020160722
201607120060000700000000000000470877000000000000004708779900000000000000000000Consumidor Final              000000000058000000000000058000000000000000000000000000000000000000000000000000000000000000000000000000000000000000000000PES00010000001N00000000000000020160722
201607120060000700000000000000470878000000000000004708788000000000020236620167CRISTIAN RODRIGUEZ            000000000123000000000000123000000000000000000000000000000000000000000000000000000000000000000000000000000000000000000000PES00010000001N00000000000000020160722
201607120060000600000000000000688550000000000000006885509900000000000000000000Consumidor Final              000000000058000000000000058000000000000000000000000000000000000000000000000000000000000000000000000000000000000000000000PES00010000001N00000000000000020160722
201607120060000600000000000000688551000000000000006885519900000000000000000000Consumidor Final              000000000058000000000000058000000000000000000000000000000000000000000000000000000000000000000000000000000000000000000000PES00010000001N00000000000000020160722
201607120060000700000000000000470880000000000000004708809900000000000000000000Consumidor Final              000000000059000000000000059000000000000000000000000000000000000000000000000000000000000000000000000000000000000000000000PES00010000001N00000000000000020160722
201607120060000700000000000000470881000000000000004708819900000000000000000000Consumidor Final              000000000055000000000000055000000000000000000000000000000000000000000000000000000000000000000000000000000000000000000000PES00010000001N00000000000000020160722
201607120060000600000000000000688552000000000000006885529900000000000000000000Consumidor Final              000000000058000000000000058000000000000000000000000000000000000000000000000000000000000000000000000000000000000000000000PES00010000001N00000000000000020160722
201607120060000600000000000000688553000000000000006885539900000000000000000000Consumidor Final              000000000058000000000000058000000000000000000000000000000000000000000000000000000000000000000000000000000000000000000000PES00010000001N00000000000000020160722
201607120060000600000000000000688554000000000000006885549900000000000000000000Consumidor Final              000000000058000000000000058000000000000000000000000000000000000000000000000000000000000000000000000000000000000000000000PES00010000001N00000000000000020160722
201607120060000600000000000000688555000000000000006885559900000000000000000000Consumidor Final              000000000058000000000000058000000000000000000000000000000000000000000000000000000000000000000000000000000000000000000000PES00010000001N00000000000000020160722
201607240060000600000000000000690853000000000000006908539900000000000000000000Consumidor Final              000000000036000000000000036000000000000000000000000000000000000000000000000000000000000000000000000000000000000000000000PES00010000001N00000000000000020160803
201607240060000800000000000000162644000000000000001626449900000000000000000000Consumidor Final              000000000048000000000000048000000000000000000000000000000000000000000000000000000000000000000000000000000000000000000000PES00010000001N00000000000000020160803
201607240060000800000000000000162645000000000000001626459900000000000000000000Consumidor Final              000000000048000000000000048000000000000000000000000000000000000000000000000000000000000000000000000000000000000000000000PES00010000001N00000000000000020160803
201607240060000800000000000000162646000000000000001626469900000000000000000000Consumidor Final              000000000048000000000000048000000000000000000000000000000000000000000000000000000000000000000000000000000000000000000000PES00010000001N00000000000000020160803
201607240060000900000000000000030571000000000000000305719900000000000000000000Consumidor Final              000000000058000000000000058000000000000000000000000000000000000000000000000000000000000000000000000000000000000000000000PES00010000001N00000000000000020160803
201607240060000900000000000000030572000000000000000305729900000000000000000000Consumidor Final              000000000057000000000000057000000000000000000000000000000000000000000000000000000000000000000000000000000000000000000000PES00010000001N00000000000000020160803
201607240060000600000000000000690863000000000000006908639900000000000000000000Consumidor Final              000000000058000000000000058000000000000000000000000000000000000000000000000000000000000000000000000000000000000000000000PES00010000001N00000000000000020160803
201607240060000600000000000000690864000000000000006908649900000000000000000000Consumidor Final              000000000058000000000000058000000000000000000000000000000000000000000000000000000000000000000000000000000000000000000000PES00010000001N00000000000000020160803
201607240060000900000000000000030574000000000000000305749900000000000000000000Consumidor Final              000000000058000000000000058000000000000000000000000000000000000000000000000000000000000000000000000000000000000000000000PES00010000001N00000000000000020160803
201607240060000600000000000000690869000000000000006908699900000000000000000000Consumidor Final              000000000058000000000000058000000000000000000000000000000000000000000000000000000000000000000000000000000000000000000000PES00010000001N00000000000000020160803
201607240060000600000000000000690870000000000000006908709900000000000000000000Consumidor Final              000000000058000000000000058000000000000000000000000000000000000000000000000000000000000000000000000000000000000000000000PES00010000001N00000000000000020160803
201607240060000600000000000000690871000000000000006908719900000000000000000000Consumidor Final              000000000058000000000000058000000000000000000000000000000000000000000000000000000000000000000000000000000000000000000000PES00010000001N00000000000000020160803
201607240060000600000000000000690872000000000000006908729900000000000000000000Consumidor Final              000000000058000000000000058000000000000000000000000000000000000000000000000000000000000000000000000000000000000000000000PES00010000001N00000000000000020160803
201607240060000600000000000000690873000000000000006908739900000000000000000000Consumidor Final              000000000058000000000000058000000000000000000000000000000000000000000000000000000000000000000000000000000000000000000000PES00010000001N00000000000000020160803
201607240060000600000000000000690897000000000000006908979900000000000000000000Consumidor Final              000000000058000000000000058000000000000000000000000000000000000000000000000000000000000000000000000000000000000000000000PES00010000001N00000000000000020160803
201607240060000600000000000000690898000000000000006908989900000000000000000000Consumidor Final              000000000058000000000000058000000000000000000000000000000000000000000000000000000000000000000000000000000000000000000000PES00010000001N00000000000000020160803
201607240060000600000000000000690899000000000000006908999900000000000000000000Consumidor Final              000000000058000000000000058000000000000000000000000000000000000000000000000000000000000000000000000000000000000000000000PES00010000001N00000000000000020160803
201607240060000900000000000000030585000000000000000305859900000000000000000000Consumidor Final              000000000069000000000000069000000000000000000000000000000000000000000000000000000000000000000000000000000000000000000000PES00010000001N00000000000000020160803
201607250060000800000000000000162656000000000000001626569900000000000000000000Consumidor Final              000000000028000000000000028000000000000000000000000000000000000000000000000000000000000000000000000000000000000000000000PES00010000001N00000000000000020160804
201607250060000800000000000000162657000000000000001626579900000000000000000000Consumidor Final              000000000048000000000000048000000000000000000000000000000000000000000000000000000000000000000000000000000000000000000000PES00010000001N00000000000000020160804
201607250060000800000000000000162658000000000000001626589900000000000000000000Consumidor Final              000000000048000000000000048000000000000000000000000000000000000000000000000000000000000000000000000000000000000000000000PES00010000001N00000000000000020160804
201607250060000600000000000000690903000000000000006909039900000000000000000000Consumidor Final              000000000058000000000000058000000000000000000000000000000000000000000000000000000000000000000000000000000000000000000000PES00010000001N00000000000000020160804
201607250060000600000000000000690907000000000000006909079900000000000000000000Consumidor Final              000000000056000000000000056000000000000000000000000000000000000000000000000000000000000000000000000000000000000000000000PES00010000001N00000000000000020160804
201607250060000600000000000000690908000000000000006909089900000000000000000000Consumidor Final              000000000028000000000000028000000000000000000000000000000000000000000000000000000000000000000000000000000000000000000000PES00010000001N00000000000000020160804
201607250060000600000000000000690909000000000000006909099900000000000000000000Consumidor Final              000000000028000000000000028000000000000000000000000000000000000000000000000000000000000000000000000000000000000000000000PES00010000001N00000000000000020160804
201607250060000700000000000000473411000000000000004734119900000000000000000000Consumidor Final              000000000037000000000000037000000000000000000000000000000000000000000000000000000000000000000000000000000000000000000000PES00010000001N00000000000000020160804
201607250060000700000000000000473412000000000000004734129900000000000000000000Consumidor Final              000000000038000000000000038000000000000000000000000000000000000000000000000000000000000000000000000000000000000000000000PES00010000001N00000000000000020160804
201607250060000700000000000000473420000000000000004734209900000000000000000000Consumidor Final              000000000058000000000000058000000000000000000000000000000000000000000000000000000000000000000000000000000000000000000000PES00010000001N00000000000000020160804
201607240060000700000000000000473353000000000000004733539900000000000000000000Consumidor Final              000000000058000000000000058000000000000000000000000000000000000000000000000000000000000000000000000000000000000000000000PES00010000001N00000000000000020160803
201607240060000700000000000000473354000000000000004733549900000000000000000000Consumidor Final              000000000058000000000000058000000000000000000000000000000000000000000000000000000000000000000000000000000000000000000000PES00010000001N00000000000000020160803
201607250060000700000000000000473363000000000000004733639900000000000000000000Consumidor Final              000000000058000000000000058000000000000000000000000000000000000000000000000000000000000000000000000000000000000000000000PES00010000001N00000000000000020160804
201607250060000700000000000000473364000000000000004733649900000000000000000000Consumidor Final              000000000056000000000000056000000000000000000000000000000000000000000000000000000000000000000000000000000000000000000000PES00010000001N00000000000000020160804
201607250060000700000000000000473365000000000000004733659900000000000000000000Consumidor Final              000000000034000000000000034000000000000000000000000000000000000000000000000000000000000000000000000000000000000000000000PES00010000001N00000000000000020160804
201607250060000700000000000000473366000000000000004733669900000000000000000000Consumidor Final              000000000034000000000000034000000000000000000000000000000000000000000000000000000000000000000000000000000000000000000000PES00010000001N00000000000000020160804
201607250060000700000000000000473367000000000000004733679900000000000000000000Consumidor Final              000000000060000000000000060000000000000000000000000000000000000000000000000000000000000000000000000000000000000000000000PES00010000001N00000000000000020160804
201607250060000700000000000000473368000000000000004733689900000000000000000000Consumidor Final              000000000058000000000000058000000000000000000000000000000000000000000000000000000000000000000000000000000000000000000000PES00010000001N00000000000000020160804
201607250060000800000000000000162649000000000000001626499900000000000000000000Consumidor Final              000000000048000000000000048000000000000000000000000000000000000000000000000000000000000000000000000000000000000000000000PES00010000001N00000000000000020160804
201607250060000800000000000000162650000000000000001626509900000000000000000000Consumidor Final              000000000048000000000000048000000000000000000000000000000000000000000000000000000000000000000000000000000000000000000000PES00010000001N00000000000000020160804
201607250060000700000000000000473404000000000000004734049900000000000000000000Consumidor Final              000000000058000000000000058000000000000000000000000000000000000000000000000000000000000000000000000000000000000000000000PES00010000001N00000000000000020160804
201607250060000800000000000000162660000000000000001626609900000000000000000000Consumidor Final              000000000048000000000000048000000000000000000000000000000000000000000000000000000000000000000000000000000000000000000000PES00010000001N00000000000000020160804
201607250060000800000000000000162661000000000000001626619900000000000000000000Consumidor Final              000000000056000000000000056000000000000000000000000000000000000000000000000000000000000000000000000000000000000000000000PES00010000001N00000000000000020160804
201607250060000800000000000000162662000000000000001626629900000000000000000000Consumidor Final              000000000048000000000000048000000000000000000000000000000000000000000000000000000000000000000000000000000000000000000000PES00010000001N00000000000000020160804
201607250060000700000000000000473425000000000000004734259900000000000000000000Consumidor Final              000000000069000000000000069000000000000000000000000000000000000000000000000000000000000000000000000000000000000000000000PES00010000001N00000000000000020160804
201607250060000700000000000000473426000000000000004734269900000000000000000000Consumidor Final              000000000058000000000000058000000000000000000000000000000000000000000000000000000000000000000000000000000000000000000000PES00010000001N00000000000000020160804
201607250060000700000000000000473427000000000000004734279900000000000000000000Consumidor Final              000000000058000000000000058000000000000000000000000000000000000000000000000000000000000000000000000000000000000000000000PES00010000001N00000000000000020160804
201607250060000700000000000000473428000000000000004734289900000000000000000000Consumidor Final              000000000058000000000000058000000000000000000000000000000000000000000000000000000000000000000000000000000000000000000000PES00010000001N00000000000000020160804
201607250060000700000000000000473429000000000000004734299900000000000000000000Consumidor Final              000000000053000000000000053000000000000000000000000000000000000000000000000000000000000000000000000000000000000000000000PES00010000001N00000000000000020160804
201607250060000700000000000000473430000000000000004734309900000000000000000000Consumidor Final              000000000058000000000000058000000000000000000000000000000000000000000000000000000000000000000000000000000000000000000000PES00010000001N00000000000000020160804
201607250060000700000000000000473431000000000000004734319900000000000000000000Consumidor Final              000000000058000000000000058000000000000000000000000000000000000000000000000000000000000000000000000000000000000000000000PES00010000001N00000000000000020160804
201607250060000700000000000000473432000000000000004734329900000000000000000000Consumidor Final              000000000060000000000000060000000000000000000000000000000000000000000000000000000000000000000000000000000000000000000000PES00010000001N00000000000000020160804
201607250060000700000000000000473433000000000000004734339900000000000000000000Consumidor Final              000000000058000000000000058000000000000000000000000000000000000000000000000000000000000000000000000000000000000000000000PES00010000001N00000000000000020160804
201607250060000600000000000000690915000000000000006909159900000000000000000000Consumidor Final              000000000060000000000000060000000000000000000000000000000000000000000000000000000000000000000000000000000000000000000000PES00010000001N00000000000000020160804
201607250060000600000000000000690916000000000000006909169900000000000000000000Consumidor Final              000000000058000000000000058000000000000000000000000000000000000000000000000000000000000000000000000000000000000000000000PES00010000001N00000000000000020160804
201607250060000600000000000000690917000000000000006909179900000000000000000000Consumidor Final              000000000060000000000000060000000000000000000000000000000000000000000000000000000000000000000000000000000000000000000000PES00010000001N00000000000000020160804
201607250060000600000000000000690918000000000000006909189900000000000000000000Consumidor Final              000000000058000000000000058000000000000000000000000000000000000000000000000000000000000000000000000000000000000000000000PES00010000001N00000000000000020160804
201607250060000900000000000000030586000000000000000305869900000000000000000000Consumidor Final              000000000060000000000000060000000000000000000000000000000000000000000000000000000000000000000000000000000000000000000000PES00010000001N00000000000000020160804
201607250060000900000000000000030587000000000000000305879900000000000000000000Consumidor Final              000000000058000000000000058000000000000000000000000000000000000000000000000000000000000000000000000000000000000000000000PES00010000001N00000000000000020160804
201607250060000800000000000000162677000000000000001626779900000000000000000000Consumidor Final              000000000048000000000000048000000000000000000000000000000000000000000000000000000000000000000000000000000000000000000000PES00010000001N00000000000000020160804
201607250060000900000000000000030588000000000000000305889900000000000000000000Consumidor Final              000000000058000000000000058000000000000000000000000000000000000000000000000000000000000000000000000000000000000000000000PES00010000001N00000000000000020160804
201607250060000900000000000000030589000000000000000305899900000000000000000000Consumidor Final              000000000058000000000000058000000000000000000000000000000000000000000000000000000000000000000000000000000000000000000000PES00010000001N00000000000000020160804
201607250060000900000000000000030590000000000000000305909900000000000000000000Consumidor Final              000000000069000000000000069000000000000000000000000000000000000000000000000000000000000000000000000000000000000000000000PES00010000001N00000000000000020160804
201607250060000700000000000000473458000000000000004734589900000000000000000000Consumidor Final              000000000033000000000000033000000000000000000000000000000000000000000000000000000000000000000000000000000000000000000000PES00010000001N00000000000000020160804
201607250060000700000000000000473459000000000000004734599900000000000000000000Consumidor Final              000000000058000000000000058000000000000000000000000000000000000000000000000000000000000000000000000000000000000000000000PES00010000001N00000000000000020160804
201607250060000700000000000000473465000000000000004734659900000000000000000000Consumidor Final              000000000058000000000000058000000000000000000000000000000000000000000000000000000000000000000000000000000000000000000000PES00010000001N00000000000000020160804
201607250060000800000000000000162684000000000000001626849900000000000000000000Consumidor Final              000000000048000000000000048000000000000000000000000000000000000000000000000000000000000000000000000000000000000000000000PES00010000001N00000000000000020160804
201607250060000800000000000000162685000000000000001626859900000000000000000000Consumidor Final              000000000048000000000000048000000000000000000000000000000000000000000000000000000000000000000000000000000000000000000000PES00010000001N00000000000000020160804
201607250060000800000000000000162686000000000000001626869900000000000000000000Consumidor Final              000000000048000000000000048000000000000000000000000000000000000000000000000000000000000000000000000000000000000000000000PES00010000001N00000000000000020160804
201607250060000800000000000000162687000000000000001626879900000000000000000000Consumidor Final              000000000048000000000000048000000000000000000000000000000000000000000000000000000000000000000000000000000000000000000000PES00010000001N00000000000000020160804
201607250060000800000000000000162688000000000000001626889900000000000000000000Consumidor Final              000000000048000000000000048000000000000000000000000000000000000000000000000000000000000000000000000000000000000000000000PES00010000001N00000000000000020160804
201607250060000800000000000000162689000000000000001626899900000000000000000000Consumidor Final              000000000048000000000000048000000000000000000000000000000000000000000000000000000000000000000000000000000000000000000000PES00010000001N00000000000000020160804
201607250060000700000000000000473489000000000000004734899900000000000000000000Consumidor Final              000000000058000000000000058000000000000000000000000000000000000000000000000000000000000000000000000000000000000000000000PES00010000001N00000000000000020160804
201607250060000700000000000000473493000000000000004734939900000000000000000000Consumidor Final              000000000058000000000000058000000000000000000000000000000000000000000000000000000000000000000000000000000000000000000000PES00010000001N00000000000000020160804
201607250060000700000000000000473494000000000000004734949900000000000000000000Consumidor Final              000000000058000000000000058000000000000000000000000000000000000000000000000000000000000000000000000000000000000000000000PES00010000001N00000000000000020160804
201607250060000700000000000000473495000000000000004734959900000000000000000000Consumidor Final              000000000058000000000000058000000000000000000000000000000000000000000000000000000000000000000000000000000000000000000000PES00010000001N00000000000000020160804
201607250060000700000000000000473501000000000000004735019900000000000000000000Consumidor Final              000000000058000000000000058000000000000000000000000000000000000000000000000000000000000000000000000000000000000000000000PES00010000001N00000000000000020160804
201607250060000700000000000000473502000000000000004735029900000000000000000000Consumidor Final              000000000058000000000000058000000000000000000000000000000000000000000000000000000000000000000000000000000000000000000000PES00010000001N00000000000000020160804
201607250060000700000000000000473503000000000000004735039900000000000000000000Consumidor Final              000000000060000000000000060000000000000000000000000000000000000000000000000000000000000000000000000000000000000000000000PES00010000001N00000000000000020160804
201607250060000700000000000000473504000000000000004735049900000000000000000000Consumidor Final              000000000060000000000000060000000000000000000000000000000000000000000000000000000000000000000000000000000000000000000000PES00010000001N00000000000000020160804
201607250060000600000000000000691048000000000000006910489900000000000000000000Consumidor Final              000000000058000000000000058000000000000000000000000000000000000000000000000000000000000000000000000000000000000000000000PES00010000001N00000000000000020160804
201607250060000600000000000000691052000000000000006910529900000000000000000000Consumidor Final              000000000058000000000000058000000000000000000000000000000000000000000000000000000000000000000000000000000000000000000000PES00010000001N00000000000000020160804
201607250060000600000000000000691053000000000000006910539900000000000000000000Consumidor Final              000000000058000000000000058000000000000000000000000000000000000000000000000000000000000000000000000000000000000000000000PES00010000001N00000000000000020160804
201607250060000600000000000000691054000000000000006910549900000000000000000000Consumidor Final              000000000058000000000000058000000000000000000000000000000000000000000000000000000000000000000000000000000000000000000000PES00010000001N00000000000000020160804
201607250060000700000000000000473511000000000000004735119900000000000000000000Consumidor Final              000000000058000000000000058000000000000000000000000000000000000000000000000000000000000000000000000000000000000000000000PES00010000001N00000000000000020160804
201607250060000700000000000000473512000000000000004735129900000000000000000000Consumidor Final              000000000058000000000000058000000000000000000000000000000000000000000000000000000000000000000000000000000000000000000000PES00010000001N00000000000000020160804
201607250060000800000000000000162712000000000000001627129900000000000000000000Consumidor Final              000000000048000000000000048000000000000000000000000000000000000000000000000000000000000000000000000000000000000000000000PES00010000001N00000000000000020160804
201607250060000700000000000000473536000000000000004735369900000000000000000000Consumidor Final              000000000058000000000000058000000000000000000000000000000000000000000000000000000000000000000000000000000000000000000000PES00010000001N00000000000000020160804
201607250060000800000000000000162713000000000000001627139900000000000000000000Consumidor Final              000000000048000000000000048000000000000000000000000000000000000000000000000000000000000000000000000000000000000000000000PES00010000001N00000000000000020160804
201607250060000700000000000000473537000000000000004735379900000000000000000000Consumidor Final              000000000058000000000000058000000000000000000000000000000000000000000000000000000000000000000000000000000000000000000000PES00010000001N00000000000000020160804
201607250060000800000000000000162714000000000000001627149900000000000000000000Consumidor Final              000000000048000000000000048000000000000000000000000000000000000000000000000000000000000000000000000000000000000000000000PES00010000001N00000000000000020160804
201607250060000800000000000000162715000000000000001627159900000000000000000000Consumidor Final              000000000048000000000000048000000000000000000000000000000000000000000000000000000000000000000000000000000000000000000000PES00010000001N00000000000000020160804
201607250060000700000000000000473538000000000000004735389900000000000000000000Consumidor Final              000000000058000000000000058000000000000000000000000000000000000000000000000000000000000000000000000000000000000000000000PES00010000001N00000000000000020160804
201607250060000700000000000000473539000000000000004735399900000000000000000000Consumidor Final              000000000058000000000000058000000000000000000000000000000000000000000000000000000000000000000000000000000000000000000000PES00010000001N00000000000000020160804
201607250060000700000000000000473540000000000000004735409900000000000000000000Consumidor Final              000000000058000000000000058000000000000000000000000000000000000000000000000000000000000000000000000000000000000000000000PES00010000001N00000000000000020160804
201607250060000700000000000000473541000000000000004735419900000000000000000000Consumidor Final              000000000058000000000000058000000000000000000000000000000000000000000000000000000000000000000000000000000000000000000000PES00010000001N00000000000000020160804
201607250060000700000000000000473542000000000000004735429900000000000000000000Consumidor Final              000000000058000000000000058000000000000000000000000000000000000000000000000000000000000000000000000000000000000000000000PES00010000001N00000000000000020160804
201607250060000700000000000000473543000000000000004735439900000000000000000000Consumidor Final              000000000028000000000000028000000000000000000000000000000000000000000000000000000000000000000000000000000000000000000000PES00010000001N00000000000000020160804
201607250060000700000000000000473544000000000000004735449900000000000000000000Consumidor Final              000000000058000000000000058000000000000000000000000000000000000000000000000000000000000000000000000000000000000000000000PES00010000001N00000000000000020160804
201607250060000700000000000000473553000000000000004735539900000000000000000000Consumidor Final              000000000058000000000000058000000000000000000000000000000000000000000000000000000000000000000000000000000000000000000000PES00010000001N00000000000000020160804
201607250060000600000000000000691102000000000000006911029900000000000000000000Consumidor Final              000000000058000000000000058000000000000000000000000000000000000000000000000000000000000000000000000000000000000000000000PES00010000001N00000000000000020160804
201607250060000600000000000000691120000000000000006911209900000000000000000000Consumidor Final              000000000072000000000000072000000000000000000000000000000000000000000000000000000000000000000000000000000000000000000000PES00010000001N00000000000000020160804
201607250060000600000000000000691121000000000000006911219900000000000000000000Consumidor Final              000000000058000000000000058000000000000000000000000000000000000000000000000000000000000000000000000000000000000000000000PES00010000001N00000000000000020160804
201607260060000600000000000000691122000000000000006911229900000000000000000000Consumidor Final              000000000058000000000000058000000000000000000000000000000000000000000000000000000000000000000000000000000000000000000000PES00010000001N00000000000000020160805
201607260060000600000000000000691123000000000000006911239900000000000000000000Consumidor Final              000000000058000000000000058000000000000000000000000000000000000000000000000000000000000000000000000000000000000000000000PES00010000001N00000000000000020160805
201607260060000600000000000000691124000000000000006911249900000000000000000000Consumidor Final              000000000058000000000000058000000000000000000000000000000000000000000000000000000000000000000000000000000000000000000000PES00010000001N00000000000000020160805
201607260060000600000000000000691125000000000000006911259900000000000000000000Consumidor Final              000000000058000000000000058000000000000000000000000000000000000000000000000000000000000000000000000000000000000000000000PES00010000001N00000000000000020160805
201607260060000600000000000000691126000000000000006911269900000000000000000000Consumidor Final              000000000058000000000000058000000000000000000000000000000000000000000000000000000000000000000000000000000000000000000000PES00010000001N00000000000000020160805
201607260060000600000000000000691127000000000000006911279900000000000000000000Consumidor Final              000000000058000000000000058000000000000000000000000000000000000000000000000000000000000000000000000000000000000000000000PES00010000001N00000000000000020160805
201607260060000600000000000000691128000000000000006911289900000000000000000000Consumidor Final              000000000060000000000000060000000000000000000000000000000000000000000000000000000000000000000000000000000000000000000000PES00010000001N00000000000000020160805
201607260060000600000000000000691129000000000000006911299900000000000000000000Consumidor Final              000000000058000000000000058000000000000000000000000000000000000000000000000000000000000000000000000000000000000000000000PES00010000001N00000000000000020160805
201607260060000600000000000000691130000000000000006911309900000000000000000000Consumidor Final              000000000058000000000000058000000000000000000000000000000000000000000000000000000000000000000000000000000000000000000000PES00010000001N00000000000000020160805
201607260060000800000000000000162722000000000000001627229900000000000000000000Consumidor Final              000000000048000000000000048000000000000000000000000000000000000000000000000000000000000000000000000000000000000000000000PES00010000001N00000000000000020160805
201607270060000600000000000000691558000000000000006915589900000000000000000000Consumidor Final              000000000058000000000000058000000000000000000000000000000000000000000000000000000000000000000000000000000000000000000000PES00010000001N00000000000000020160806
201607270060000800000000000000162831000000000000001628319900000000000000000000Consumidor Final              000000000056000000000000056000000000000000000000000000000000000000000000000000000000000000000000000000000000000000000000PES00010000001N00000000000000020160806
201607270060000800000000000000162832000000000000001628329900000000000000000000Consumidor Final              000000000056000000000000056000000000000000000000000000000000000000000000000000000000000000000000000000000000000000000000PES00010000001N00000000000000020160806
201607270060000800000000000000162833000000000000001628339900000000000000000000Consumidor Final              000000000048000000000000048000000000000000000000000000000000000000000000000000000000000000000000000000000000000000000000PES00010000001N00000000000000020160806
201607270060000800000000000000162840000000000000001628409900000000000000000000Consumidor Final              000000000048000000000000048000000000000000000000000000000000000000000000000000000000000000000000000000000000000000000000PES00010000001N00000000000000020160806
201607270060000800000000000000162841000000000000001628419900000000000000000000Consumidor Final              000000000048000000000000048000000000000000000000000000000000000000000000000000000000000000000000000000000000000000000000PES00010000001N00000000000000020160806
201607270060000800000000000000162842000000000000001628429900000000000000000000Consumidor Final              000000000048000000000000048000000000000000000000000000000000000000000000000000000000000000000000000000000000000000000000PES00010000001N00000000000000020160806
201607270060000800000000000000162843000000000000001628439900000000000000000000Consumidor Final              000000000048000000000000048000000000000000000000000000000000000000000000000000000000000000000000000000000000000000000000PES00010000001N00000000000000020160806
201607270060000800000000000000162844000000000000001628449900000000000000000000Consumidor Final              000000000056000000000000056000000000000000000000000000000000000000000000000000000000000000000000000000000000000000000000PES00010000001N00000000000000020160806
201607270060000600000000000000691572000000000000006915729900000000000000000000Consumidor Final              000000000058000000000000058000000000000000000000000000000000000000000000000000000000000000000000000000000000000000000000PES00010000001N00000000000000020160806
201607270060000600000000000000691573000000000000006915739900000000000000000000Consumidor Final              000000000058000000000000058000000000000000000000000000000000000000000000000000000000000000000000000000000000000000000000PES00010000001N00000000000000020160806
201607270060000600000000000000691574000000000000006915749900000000000000000000Consumidor Final              000000000069000000000000069000000000000000000000000000000000000000000000000000000000000000000000000000000000000000000000PES00010000001N00000000000000020160806
201607270060000600000000000000691575000000000000006915759900000000000000000000Consumidor Final              000000000058000000000000058000000000000000000000000000000000000000000000000000000000000000000000000000000000000000000000PES00010000001N00000000000000020160806
201607270060000600000000000000691576000000000000006915769900000000000000000000Consumidor Final              000000000058000000000000058000000000000000000000000000000000000000000000000000000000000000000000000000000000000000000000PES00010000001N00000000000000020160806
201607290060000600000000000000691876000000000000006918769900000000000000000000Consumidor Final              000000000058000000000000058000000000000000000000000000000000000000000000000000000000000000000000000000000000000000000000PES00010000001N00000000000000020160808
201607290060000600000000000000691877000000000000006918779900000000000000000000Consumidor Final              000000000058000000000000058000000000000000000000000000000000000000000000000000000000000000000000000000000000000000000000PES00010000001N00000000000000020160808
201607290060000600000000000000691878000000000000006918789900000000000000000000Consumidor Final              000000000058000000000000058000000000000000000000000000000000000000000000000000000000000000000000000000000000000000000000PES00010000001N00000000000000020160808
201607290060000700000000000000474110000000000000004741109900000000000000000000Consumidor Final              000000000065000000000000065000000000000000000000000000000000000000000000000000000000000000000000000000000000000000000000PES00010000001N00000000000000020160808
201607290060000600000000000000691882000000000000006918829900000000000000000000Consumidor Final              000000000058000000000000058000000000000000000000000000000000000000000000000000000000000000000000000000000000000000000000PES00010000001N00000000000000020160808
201607290060000600000000000000691883000000000000006918839900000000000000000000Consumidor Final              000000000058000000000000058000000000000000000000000000000000000000000000000000000000000000000000000000000000000000000000PES00010000001N00000000000000020160808
201607290060000700000000000000474111000000000000004741119900000000000000000000Consumidor Final              000000000058000000000000058000000000000000000000000000000000000000000000000000000000000000000000000000000000000000000000PES00010000001N00000000000000020160808
201607290060000700000000000000474112000000000000004741129900000000000000000000Consumidor Final              000000000058000000000000058000000000000000000000000000000000000000000000000000000000000000000000000000000000000000000000PES00010000001N00000000000000020160808
201607290060000600000000000000691884000000000000006918849900000000000000000000Consumidor Final              000000000058000000000000058000000000000000000000000000000000000000000000000000000000000000000000000000000000000000000000PES00010000001N00000000000000020160808
201607290060000700000000000000474113000000000000004741139900000000000000000000Consumidor Final              000000000058000000000000058000000000000000000000000000000000000000000000000000000000000000000000000000000000000000000000PES00010000001N00000000000000020160808
201607290060000700000000000000474114000000000000004741149900000000000000000000Consumidor Final              000000000058000000000000058000000000000000000000000000000000000000000000000000000000000000000000000000000000000000000000PES00010000001N00000000000000020160808
201607290060000700000000000000474121000000000000004741219900000000000000000000Consumidor Final              000000000069000000000000069000000000000000000000000000000000000000000000000000000000000000000000000000000000000000000000PES00010000001N00000000000000020160808
201607310060000800000000000000163050000000000000001630509900000000000000000000Consumidor Final              000000000065000000000000065000000000000000000000000000000000000000000000000000000000000000000000000000000000000000000000PES00010000001N00000000000000020160810
201607310060000700000000000000474421000000000000004744219900000000000000000000Consumidor Final              000000000070000000000000070000000000000000000000000000000000000000000000000000000000000000000000000000000000000000000000PES00010000001N00000000000000020160810
201607310060000700000000000000474455000000000000004744558000000000020236620167CRISTIAN RODRIGUEZ            000000000103000000000000103000000000000000000000000000000000000000000000000000000000000000000000000000000000000000000000PES00010000001N00000000000000020160810
201607310060000700000000000000474456000000000000004744569900000000000000000000Consumidor Final              000000000037000000000000037000000000000000000000000000000000000000000000000000000000000000000000000000000000000000000000PES00010000001N00000000000000020160810
201607310060000800000000000000163072000000000000001630729900000000000000000000Consumidor Final              000000000048000000000000048000000000000000000000000000000000000000000000000000000000000000000000000000000000000000000000PES00010000001N00000000000000020160810
201607310060000700000000000000474457000000000000004744579900000000000000000000Consumidor Final              000000000058000000000000058000000000000000000000000000000000000000000000000000000000000000000000000000000000000000000000PES00010000001N00000000000000020160810
201607310060000700000000000000474458000000000000004744589900000000000000000000Consumidor Final              000000000058000000000000058000000000000000000000000000000000000000000000000000000000000000000000000000000000000000000000PES00010000001N00000000000000020160810
201607310060000700000000000000474459000000000000004744599900000000000000000000Consumidor Final              000000000069000000000000069000000000000000000000000000000000000000000000000000000000000000000000000000000000000000000000PES00010000001N00000000000000020160810
201607310010000600000000000000007844000000000000000078448000000000030708683988CLAVE ROJA S.R.L.             000000000125000000000000125000000000000000000000000000000000000000000000000000000000000000000000000000000000000000000000PES00010000001N00000000000000020160810
201607310060000600000000000000692169000000000000006921699900000000000000000000Consumidor Final              000000000058000000000000058000000000000000000000000000000000000000000000000000000000000000000000000000000000000000000000PES00010000001N00000000000000020160810
201607310060000600000000000000692170000000000000006921709900000000000000000000Consumidor Final              000000000058000000000000058000000000000000000000000000000000000000000000000000000000000000000000000000000000000000000000PES00010000001N00000000000000020160810
201607310060000600000000000000692171000000000000006921719900000000000000000000Consumidor Final              000000000058000000000000058000000000000000000000000000000000000000000000000000000000000000000000000000000000000000000000PES00010000001N00000000000000020160810
201607240060000900000000000000030575000000000000000305759900000000000000000000Consumidor Final              000000000058000000000000058000000000000000000000000000000000000000000000000000000000000000000000000000000000000000000000PES00010000001N00000000000000020160803
201607240060000600000000000000690879000000000000006908799900000000000000000000Consumidor Final              000000000065000000000000065000000000000000000000000000000000000000000000000000000000000000000000000000000000000000000000PES00010000001N00000000000000020160803
201607240060000600000000000000690880000000000000006908809900000000000000000000Consumidor Final              000000000058000000000000058000000000000000000000000000000000000000000000000000000000000000000000000000000000000000000000PES00010000001N00000000000000020160803
201607240060000600000000000000690881000000000000006908819900000000000000000000Consumidor Final              000000000058000000000000058000000000000000000000000000000000000000000000000000000000000000000000000000000000000000000000PES00010000001N00000000000000020160803
201607240060000600000000000000690882000000000000006908829900000000000000000000Consumidor Final              000000000058000000000000058000000000000000000000000000000000000000000000000000000000000000000000000000000000000000000000PES00010000001N00000000000000020160803
201607240060000600000000000000690883000000000000006908839900000000000000000000Consumidor Final              000000000069000000000000069000000000000000000000000000000000000000000000000000000000000000000000000000000000000000000000PES00010000001N00000000000000020160803
201607240060000600000000000000690884000000000000006908849900000000000000000000Consumidor Final              000000000058000000000000058000000000000000000000000000000000000000000000000000000000000000000000000000000000000000000000PES00010000001N00000000000000020160803
201607240060000900000000000000030576000000000000000305769900000000000000000000Consumidor Final              000000000058000000000000058000000000000000000000000000000000000000000000000000000000000000000000000000000000000000000000PES00010000001N00000000000000020160803
201607240060000900000000000000030577000000000000000305779900000000000000000000Consumidor Final              000000000058000000000000058000000000000000000000000000000000000000000000000000000000000000000000000000000000000000000000PES00010000001N00000000000000020160803
201607240060000900000000000000030578000000000000000305789900000000000000000000Consumidor Final              000000000069000000000000069000000000000000000000000000000000000000000000000000000000000000000000000000000000000000000000PES00010000001N00000000000000020160803
201607240060000900000000000000030579000000000000000305799900000000000000000000Consumidor Final              000000000058000000000000058000000000000000000000000000000000000000000000000000000000000000000000000000000000000000000000PES00010000001N00000000000000020160803
201607240060000900000000000000030580000000000000000305809900000000000000000000Consumidor Final              000000000058000000000000058000000000000000000000000000000000000000000000000000000000000000000000000000000000000000000000PES00010000001N00000000000000020160803
201607240060000600000000000000690891000000000000006908919900000000000000000000Consumidor Final              000000000058000000000000058000000000000000000000000000000000000000000000000000000000000000000000000000000000000000000000PES00010000001N00000000000000020160803
201607240060000600000000000000690876000000000000006908769900000000000000000000Consumidor Final              000000000058000000000000058000000000000000000000000000000000000000000000000000000000000000000000000000000000000000000000PES00010000001N00000000000000020160803
201607240060000600000000000000690892000000000000006908929900000000000000000000Consumidor Final              000000000058000000000000058000000000000000000000000000000000000000000000000000000000000000000000000000000000000000000000PES00010000001N00000000000000020160803
201607240060000700000000000000473304000000000000004733049900000000000000000000Consumidor Final              000000000065000000000000065000000000000000000000000000000000000000000000000000000000000000000000000000000000000000000000PES00010000001N00000000000000020160803
201607240060000700000000000000473305000000000000004733059900000000000000000000Consumidor Final              000000000058000000000000058000000000000000000000000000000000000000000000000000000000000000000000000000000000000000000000PES00010000001N00000000000000020160803
201607240060000700000000000000473306000000000000004733069900000000000000000000Consumidor Final              000000000058000000000000058000000000000000000000000000000000000000000000000000000000000000000000000000000000000000000000PES00010000001N00000000000000020160803
201607240060000700000000000000473307000000000000004733079900000000000000000000Consumidor Final              000000000058000000000000058000000000000000000000000000000000000000000000000000000000000000000000000000000000000000000000PES00010000001N00000000000000020160803
201607240060000700000000000000473308000000000000004733089900000000000000000000Consumidor Final              000000000058000000000000058000000000000000000000000000000000000000000000000000000000000000000000000000000000000000000000PES00010000001N00000000000000020160803
201607240060000700000000000000473309000000000000004733099900000000000000000000Consumidor Final              000000000058000000000000058000000000000000000000000000000000000000000000000000000000000000000000000000000000000000000000PES00010000001N00000000000000020160803
201607240060000700000000000000473310000000000000004733109900000000000000000000Consumidor Final              000000000058000000000000058000000000000000000000000000000000000000000000000000000000000000000000000000000000000000000000PES00010000001N00000000000000020160803
201607240060000700000000000000473311000000000000004733119900000000000000000000Consumidor Final              000000000058000000000000058000000000000000000000000000000000000000000000000000000000000000000000000000000000000000000000PES00010000001N00000000000000020160803
201607240060000700000000000000473312000000000000004733129900000000000000000000Consumidor Final              000000000058000000000000058000000000000000000000000000000000000000000000000000000000000000000000000000000000000000000000PES00010000001N00000000000000020160803
201607240060000700000000000000473313000000000000004733139900000000000000000000Consumidor Final              000000000053000000000000053000000000000000000000000000000000000000000000000000000000000000000000000000000000000000000000PES00010000001N00000000000000020160803
201607240060000700000000000000473314000000000000004733149900000000000000000000Consumidor Final              000000000058000000000000058000000000000000000000000000000000000000000000000000000000000000000000000000000000000000000000PES00010000001N00000000000000020160803
201607240060000700000000000000473315000000000000004733159900000000000000000000Consumidor Final              000000000058000000000000058000000000000000000000000000000000000000000000000000000000000000000000000000000000000000000000PES00010000001N00000000000000020160803
201607240060000600000000000000690877000000000000006908779900000000000000000000Consumidor Final              000000000058000000000000058000000000000000000000000000000000000000000000000000000000000000000000000000000000000000000000PES00010000001N00000000000000020160803
201607240060000700000000000000473318000000000000004733189900000000000000000000Consumidor Final              000000000058000000000000058000000000000000000000000000000000000000000000000000000000000000000000000000000000000000000000PES00010000001N00000000000000020160803
201607240060000700000000000000473319000000000000004733199900000000000000000000Consumidor Final              000000000058000000000000058000000000000000000000000000000000000000000000000000000000000000000000000000000000000000000000PES00010000001N00000000000000020160803
201607240060000900000000000000030582000000000000000305829900000000000000000000Consumidor Final              000000000058000000000000058000000000000000000000000000000000000000000000000000000000000000000000000000000000000000000000PES00010000001N00000000000000020160803
201607240060000700000000000000473320000000000000004733209900000000000000000000Consumidor Final              000000000058000000000000058000000000000000000000000000000000000000000000000000000000000000000000000000000000000000000000PES00010000001N00000000000000020160803
201607240060000700000000000000473321000000000000004733219900000000000000000000Consumidor Final              000000000058000000000000058000000000000000000000000000000000000000000000000000000000000000000000000000000000000000000000PES00010000001N00000000000000020160803
201607240060000700000000000000473322000000000000004733229900000000000000000000Consumidor Final              000000000056000000000000056000000000000000000000000000000000000000000000000000000000000000000000000000000000000000000000PES00010000001N00000000000000020160803
201607240060000900000000000000030583000000000000000305839900000000000000000000Consumidor Final              000000000069000000000000069000000000000000000000000000000000000000000000000000000000000000000000000000000000000000000000PES00010000001N00000000000000020160803
201607240060000700000000000000473328000000000000004733289900000000000000000000Consumidor Final              000000000058000000000000058000000000000000000000000000000000000000000000000000000000000000000000000000000000000000000000PES00010000001N00000000000000020160803
201607240060000700000000000000473329000000000000004733299900000000000000000000Consumidor Final              000000000058000000000000058000000000000000000000000000000000000000000000000000000000000000000000000000000000000000000000PES00010000001N00000000000000020160803
201607240060000700000000000000473330000000000000004733309900000000000000000000Consumidor Final              000000000058000000000000058000000000000000000000000000000000000000000000000000000000000000000000000000000000000000000000PES00010000001N00000000000000020160803
201607240060000700000000000000473331000000000000004733319900000000000000000000Consumidor Final              000000000058000000000000058000000000000000000000000000000000000000000000000000000000000000000000000000000000000000000000PES00010000001N00000000000000020160803
201607240060000700000000000000473332000000000000004733329900000000000000000000Consumidor Final              000000000060000000000000060000000000000000000000000000000000000000000000000000000000000000000000000000000000000000000000PES00010000001N00000000000000020160803
201607240060000700000000000000473333000000000000004733339900000000000000000000Consumidor Final              000000000058000000000000058000000000000000000000000000000000000000000000000000000000000000000000000000000000000000000000PES00010000001N00000000000000020160803
201607240060000600000000000000690878000000000000006908789900000000000000000000Consumidor Final              000000000058000000000000058000000000000000000000000000000000000000000000000000000000000000000000000000000000000000000000PES00010000001N00000000000000020160803
201607240060000900000000000000030581000000000000000305819900000000000000000000Consumidor Final              000000000057000000000000057000000000000000000000000000000000000000000000000000000000000000000000000000000000000000000000PES00010000001N00000000000000020160803
201607240060000700000000000000473334000000000000004733349900000000000000000000Consumidor Final              000000000058000000000000058000000000000000000000000000000000000000000000000000000000000000000000000000000000000000000000PES00010000001N00000000000000020160803
201607240060000700000000000000473335000000000000004733359900000000000000000000Consumidor Final              000000000069000000000000069000000000000000000000000000000000000000000000000000000000000000000000000000000000000000000000PES00010000001N00000000000000020160803
201607240060000700000000000000473338000000000000004733389900000000000000000000Consumidor Final              000000000058000000000000058000000000000000000000000000000000000000000000000000000000000000000000000000000000000000000000PES00010000001N00000000000000020160803
201607240060000700000000000000473339000000000000004733399900000000000000000000Consumidor Final              000000000033000000000000033000000000000000000000000000000000000000000000000000000000000000000000000000000000000000000000PES00010000001N00000000000000020160803
201607240060000700000000000000473340000000000000004733409900000000000000000000Consumidor Final              000000000058000000000000058000000000000000000000000000000000000000000000000000000000000000000000000000000000000000000000PES00010000001N00000000000000020160803
201607240060000700000000000000473341000000000000004733419900000000000000000000Consumidor Final              000000000058000000000000058000000000000000000000000000000000000000000000000000000000000000000000000000000000000000000000PES00010000001N00000000000000020160803
201607240060000700000000000000473342000000000000004733429900000000000000000000Consumidor Final              000000000058000000000000058000000000000000000000000000000000000000000000000000000000000000000000000000000000000000000000PES00010000001N00000000000000020160803
201607240060000700000000000000473347000000000000004733479900000000000000000000Consumidor Final              000000000058000000000000058000000000000000000000000000000000000000000000000000000000000000000000000000000000000000000000PES00010000001N00000000000000020160803
201607240060000700000000000000473348000000000000004733489900000000000000000000Consumidor Final              000000000058000000000000058000000000000000000000000000000000000000000000000000000000000000000000000000000000000000000000PES00010000001N00000000000000020160803
201607240060000700000000000000473349000000000000004733499900000000000000000000Consumidor Final              000000000058000000000000058000000000000000000000000000000000000000000000000000000000000000000000000000000000000000000000PES00010000001N00000000000000020160803
201607240060000700000000000000473350000000000000004733509900000000000000000000Consumidor Final              000000000058000000000000058000000000000000000000000000000000000000000000000000000000000000000000000000000000000000000000PES00010000001N00000000000000020160803
201607240060000700000000000000473351000000000000004733519900000000000000000000Consumidor Final              000000000058000000000000058000000000000000000000000000000000000000000000000000000000000000000000000000000000000000000000PES00010000001N00000000000000020160803
201607240060000600000000000000690885000000000000006908859900000000000000000000Consumidor Final              000000000058000000000000058000000000000000000000000000000000000000000000000000000000000000000000000000000000000000000000PES00010000001N00000000000000020160803
201607240060000900000000000000030584000000000000000305849900000000000000000000Consumidor Final              000000000058000000000000058000000000000000000000000000000000000000000000000000000000000000000000000000000000000000000000PES00010000001N00000000000000020160803
201607250060000700000000000000473355000000000000004733559900000000000000000000Consumidor Final              000000000071000000000000071000000000000000000000000000000000000000000000000000000000000000000000000000000000000000000000PES00010000001N00000000000000020160804
201607250060000800000000000000162648000000000000001626489900000000000000000000Consumidor Final              000000000048000000000000048000000000000000000000000000000000000000000000000000000000000000000000000000000000000000000000PES00010000001N00000000000000020160804
