201705310060000700000000000000532930000000000000005329309900000000000000000000Consumidor Final              000000000073800000000000073800000000000000000000000000000000000000000000000000000000000000000000000000000000000000000000PES00010000001N00000000000000020170610
201705310060000600000000000000752695000000000000007526959900000000000000000000Consumidor Final              000000000068000000000000068000000000000000000000000000000000000000000000000000000000000000000000000000000000000000000000PES00010000001N00000000000000020170610
201705310060000600000000000000752700000000000000007527009900000000000000000000Consumidor Final              000000000068000000000000068000000000000000000000000000000000000000000000000000000000000000000000000000000000000000000000PES00010000001N00000000000000020170610
201705310060000600000000000000752701000000000000007527019900000000000000000000Consumidor Final              000000000068000000000000068000000000000000000000000000000000000000000000000000000000000000000000000000000000000000000000PES00010000001N00000000000000020170610
201705310060000600000000000000752702000000000000007527029900000000000000000000Consumidor Final              000000000068000000000000068000000000000000000000000000000000000000000000000000000000000000000000000000000000000000000000PES00010000001N00000000000000020170610
201705310060000600000000000000752703000000000000007527039900000000000000000000Consumidor Final              000000000073800000000000073800000000000000000000000000000000000000000000000000000000000000000000000000000000000000000000PES00010000001N00000000000000020170610
201705310060000600000000000000752704000000000000007527049900000000000000000000Consumidor Final              000000000082500000000000082500000000000000000000000000000000000000000000000000000000000000000000000000000000000000000000PES00010000001N00000000000000020170610
201705310060000800000000000000182724000000000000001827249900000000000000000000Consumidor Final              000000000058000000000000058000000000000000000000000000000000000000000000000000000000000000000000000000000000000000000000PES00010000001N00000000000000020170610
201705310060000800000000000000182725000000000000001827259900000000000000000000Consumidor Final              000000000058000000000000058000000000000000000000000000000000000000000000000000000000000000000000000000000000000000000000PES00010000001N00000000000000020170610
201705310060000800000000000000182726000000000000001827269900000000000000000000Consumidor Final              000000000058000000000000058000000000000000000000000000000000000000000000000000000000000000000000000000000000000000000000PES00010000001N00000000000000020170610
201705310060000600000000000000752705000000000000007527059900000000000000000000Consumidor Final              000000000083000000000000083000000000000000000000000000000000000000000000000000000000000000000000000000000000000000000000PES00010000001N00000000000000020170610
201705310060000600000000000000752675000000000000007526759900000000000000000000Consumidor Final              000000000068000000000000068000000000000000000000000000000000000000000000000000000000000000000000000000000000000000000000PES00010000001N00000000000000020170610
201705310060000600000000000000752676000000000000007526769900000000000000000000Consumidor Final              000000000089000000000000089000000000000000000000000000000000000000000000000000000000000000000000000000000000000000000000PES00010000001N00000000000000020170610
201705310060000700000000000000532940000000000000005329409900000000000000000000Consumidor Final              000000000068000000000000068000000000000000000000000000000000000000000000000000000000000000000000000000000000000000000000PES00010000001N00000000000000020170610
201705310060000700000000000000532941000000000000005329419900000000000000000000Consumidor Final              000000000041000000000000041000000000000000000000000000000000000000000000000000000000000000000000000000000000000000000000PES00010000001N00000000000000020170610
201705310060000700000000000000532942000000000000005329429900000000000000000000Consumidor Final              000000000081000000000000081000000000000000000000000000000000000000000000000000000000000000000000000000000000000000000000PES00010000001N00000000000000020170610
201705310060000700000000000000532943000000000000005329439900000000000000000000Consumidor Final              000000000032000000000000032000000000000000000000000000000000000000000000000000000000000000000000000000000000000000000000PES00010000001N00000000000000020170610
201705310060000700000000000000532944000000000000005329449900000000000000000000Consumidor Final              000000000032000000000000032000000000000000000000000000000000000000000000000000000000000000000000000000000000000000000000PES00010000001N00000000000000020170610
201705310060000600000000000000752706000000000000007527069900000000000000000000Consumidor Final              000000000068000000000000068000000000000000000000000000000000000000000000000000000000000000000000000000000000000000000000PES00010000001N00000000000000020170610
201705310060000600000000000000752707000000000000007527079900000000000000000000Consumidor Final              000000000068000000000000068000000000000000000000000000000000000000000000000000000000000000000000000000000000000000000000PES00010000001N00000000000000020170610
201705310060000600000000000000752708000000000000007527089900000000000000000000Consumidor Final              000000000073800000000000073800000000000000000000000000000000000000000000000000000000000000000000000000000000000000000000PES00010000001N00000000000000020170610
201705310060000300000000000000117679000000000000001176799900000000000000000000Consumidor Final              000000000070000000000000070000000000000000000000000000000000000000000000000000000000000000000000000000000000000000000000PES00010000001N00000000000000020170610
201705310510000100000000000000000591000000000000000005918000000000030708945540DYC VISUAL SRL                000000000068000000000000068000000000000000000000000000000000000000000000000000000000000000000000000000000000000000000000PES00010000001N00000000000000000000000
201705310060000600000000000000752673000000000000007526739900000000000000000000Consumidor Final              000000000084000000000000084000000000000000000000000000000000000000000000000000000000000000000000000000000000000000000000PES00010000001N00000000000000020170610
201705310060000700000000000000532932000000000000005329329900000000000000000000Consumidor Final              000000000068000000000000068000000000000000000000000000000000000000000000000000000000000000000000000000000000000000000000PES00010000001N00000000000000020170610
201705310060000600000000000000752674000000000000007526749900000000000000000000Consumidor Final              000000000067000000000000067000000000000000000000000000000000000000000000000000000000000000000000000000000000000000000000PES00010000001N00000000000000020170610
201705310060000700000000000000532933000000000000005329339900000000000000000000Consumidor Final              000000000096000000000000096000000000000000000000000000000000000000000000000000000000000000000000000000000000000000000000PES00010000001N00000000000000020170610
201705310060000700000000000000532934000000000000005329349900000000000000000000Consumidor Final              000000000068000000000000068000000000000000000000000000000000000000000000000000000000000000000000000000000000000000000000PES00010000001N00000000000000020170610
201705310060000700000000000000532935000000000000005329359900000000000000000000Consumidor Final              000000000068000000000000068000000000000000000000000000000000000000000000000000000000000000000000000000000000000000000000PES00010000001N00000000000000020170610
201705310060000600000000000000752677000000000000007526779900000000000000000000Consumidor Final              000000000078200000000000078200000000000000000000000000000000000000000000000000000000000000000000000000000000000000000000PES00010000001N00000000000000020170610
201705310060000700000000000000532936000000000000005329369900000000000000000000Consumidor Final              000000000072000000000000072000000000000000000000000000000000000000000000000000000000000000000000000000000000000000000000PES00010000001N00000000000000020170610
201705310060000600000000000000752678000000000000007526789900000000000000000000Consumidor Final              000000000068000000000000068000000000000000000000000000000000000000000000000000000000000000000000000000000000000000000000PES00010000001N00000000000000020170610
201705310060000600000000000000752679000000000000007526799900000000000000000000Consumidor Final              000000000068000000000000068000000000000000000000000000000000000000000000000000000000000000000000000000000000000000000000PES00010000001N00000000000000020170610
201705310060000700000000000000532938000000000000005329389900000000000000000000Consumidor Final              000000000068000000000000068000000000000000000000000000000000000000000000000000000000000000000000000000000000000000000000PES00010000001N00000000000000020170610
201705310060000600000000000000752680000000000000007526809900000000000000000000Consumidor Final              000000000068000000000000068000000000000000000000000000000000000000000000000000000000000000000000000000000000000000000000PES00010000001N00000000000000020170610
201705310060000700000000000000532939000000000000005329399900000000000000000000Consumidor Final              000000000067000000000000067000000000000000000000000000000000000000000000000000000000000000000000000000000000000000000000PES00010000001N00000000000000020170610
201705310060000600000000000000752681000000000000007526819900000000000000000000Consumidor Final              000000000088000000000000088000000000000000000000000000000000000000000000000000000000000000000000000000000000000000000000PES00010000001N00000000000000020170610
201705310060000700000000000000532949000000000000005329499900000000000000000000Consumidor Final              000000000068000000000000068000000000000000000000000000000000000000000000000000000000000000000000000000000000000000000000PES00010000001N00000000000000020170610
201705310060000700000000000000532950000000000000005329509900000000000000000000Consumidor Final              000000000072000000000000072000000000000000000000000000000000000000000000000000000000000000000000000000000000000000000000PES00010000001N00000000000000020170610
201705310060000700000000000000532951000000000000005329519900000000000000000000Consumidor Final              000000000068000000000000068000000000000000000000000000000000000000000000000000000000000000000000000000000000000000000000PES00010000001N00000000000000020170610
201705310060000700000000000000532952000000000000005329529900000000000000000000Consumidor Final              000000000068000000000000068000000000000000000000000000000000000000000000000000000000000000000000000000000000000000000000PES00010000001N00000000000000020170610
201705310060000700000000000000532953000000000000005329539900000000000000000000Consumidor Final              000000000081000000000000081000000000000000000000000000000000000000000000000000000000000000000000000000000000000000000000PES00010000001N00000000000000020170610
201705310060000700000000000000532954000000000000005329549900000000000000000000Consumidor Final              000000000068000000000000068000000000000000000000000000000000000000000000000000000000000000000000000000000000000000000000PES00010000001N00000000000000020170610
201705310060000700000000000000532956000000000000005329569900000000000000000000Consumidor Final              000000000068000000000000068000000000000000000000000000000000000000000000000000000000000000000000000000000000000000000000PES00010000001N00000000000000020170610
201705310060000700000000000000532957000000000000005329579900000000000000000000Consumidor Final              000000000082500000000000082500000000000000000000000000000000000000000000000000000000000000000000000000000000000000000000PES00010000001N00000000000000020170610
201705310060000600000000000000752696000000000000007526969900000000000000000000Consumidor Final              000000000083000000000000083000000000000000000000000000000000000000000000000000000000000000000000000000000000000000000000PES00010000001N00000000000000020170610
201705310060000600000000000000752697000000000000007526979900000000000000000000Consumidor Final              000000000068000000000000068000000000000000000000000000000000000000000000000000000000000000000000000000000000000000000000PES00010000001N00000000000000020170610
201705310060000600000000000000752698000000000000007526989900000000000000000000Consumidor Final              000000000083000000000000083000000000000000000000000000000000000000000000000000000000000000000000000000000000000000000000PES00010000001N00000000000000020170610
201705310510000100000000000000000592000000000000000005928000000000023130926509SIGNORINI RUBEN OSVALDO       000000000068000000000000068000000000000000000000000000000000000000000000000000000000000000000000000000000000000000000000PES00010000001N00000000000000000000000
201705310060000800000000000000182727000000000000001827279900000000000000000000Consumidor Final              000000000068000000000000068000000000000000000000000000000000000000000000000000000000000000000000000000000000000000000000PES00010000001N00000000000000020170610
201705310060000700000000000000532970000000000000005329709900000000000000000000Consumidor Final              000000000068000000000000068000000000000000000000000000000000000000000000000000000000000000000000000000000000000000000000PES00010000001N00000000000000020170610
201705310060000700000000000000532971000000000000005329719900000000000000000000Consumidor Final              000000000068000000000000068000000000000000000000000000000000000000000000000000000000000000000000000000000000000000000000PES00010000001N00000000000000020170610
201705310060000800000000000000182728000000000000001827289900000000000000000000Consumidor Final              000000000058000000000000058000000000000000000000000000000000000000000000000000000000000000000000000000000000000000000000PES00010000001N00000000000000020170610
201705310060000700000000000000532972000000000000005329729900000000000000000000Consumidor Final              000000000076000000000000076000000000000000000000000000000000000000000000000000000000000000000000000000000000000000000000PES00010000001N00000000000000020170610
201705310060000700000000000000532958000000000000005329589900000000000000000000Consumidor Final              000000000068000000000000068000000000000000000000000000000000000000000000000000000000000000000000000000000000000000000000PES00010000001N00000000000000020170610
201705310060000700000000000000532973000000000000005329739900000000000000000000Consumidor Final              000000000059000000000000059000000000000000000000000000000000000000000000000000000000000000000000000000000000000000000000PES00010000001N00000000000000020170610
201705310060000600000000000000752713000000000000007527139900000000000000000000Consumidor Final              000000000082000000000000082000000000000000000000000000000000000000000000000000000000000000000000000000000000000000000000PES00010000001N00000000000000020170610
201705310060000600000000000000752714000000000000007527149900000000000000000000Consumidor Final              000000000073800000000000073800000000000000000000000000000000000000000000000000000000000000000000000000000000000000000000PES00010000001N00000000000000020170610
201705310060000600000000000000752715000000000000007527159900000000000000000000Consumidor Final              000000000066000000000000066000000000000000000000000000000000000000000000000000000000000000000000000000000000000000000000PES00010000001N00000000000000020170610
201705310060000600000000000000752716000000000000007527169900000000000000000000Consumidor Final              000000000039000000000000039000000000000000000000000000000000000000000000000000000000000000000000000000000000000000000000PES00010000001N00000000000000020170610
201705310060000600000000000000752717000000000000007527179900000000000000000000Consumidor Final              000000000073800000000000073800000000000000000000000000000000000000000000000000000000000000000000000000000000000000000000PES00010000001N00000000000000020170610
201705310060000600000000000000752718000000000000007527189900000000000000000000Consumidor Final              000000000068000000000000068000000000000000000000000000000000000000000000000000000000000000000000000000000000000000000000PES00010000001N00000000000000020170610
201705310060000600000000000000752719000000000000007527199900000000000000000000Consumidor Final              000000000068000000000000068000000000000000000000000000000000000000000000000000000000000000000000000000000000000000000000PES00010000001N00000000000000020170610
201705310060000600000000000000752720000000000000007527209900000000000000000000Consumidor Final              000000000083000000000000083000000000000000000000000000000000000000000000000000000000000000000000000000000000000000000000PES00010000001N00000000000000020170610
201705310060000600000000000000752721000000000000007527219900000000000000000000Consumidor Final              000000000083000000000000083000000000000000000000000000000000000000000000000000000000000000000000000000000000000000000000PES00010000001N00000000000000020170610
201705310060000700000000000000532959000000000000005329599900000000000000000000Consumidor Final              000000000068000000000000068000000000000000000000000000000000000000000000000000000000000000000000000000000000000000000000PES00010000001N00000000000000020170610
201705310060000600000000000000752709000000000000007527099900000000000000000000Consumidor Final              000000000068000000000000068000000000000000000000000000000000000000000000000000000000000000000000000000000000000000000000PES00010000001N00000000000000020170610
201705310060000600000000000000752710000000000000007527109900000000000000000000Consumidor Final              000000000076000000000000076000000000000000000000000000000000000000000000000000000000000000000000000000000000000000000000PES00010000001N00000000000000020170610
201705310060000600000000000000752711000000000000007527119900000000000000000000Consumidor Final              000000000068000000000000068000000000000000000000000000000000000000000000000000000000000000000000000000000000000000000000PES00010000001N00000000000000020170610
201705310060000600000000000000752712000000000000007527129900000000000000000000Consumidor Final              000000000068000000000000068000000000000000000000000000000000000000000000000000000000000000000000000000000000000000000000PES00010000001N00000000000000020170610
201705310060000700000000000000532975000000000000005329759900000000000000000000Consumidor Final              000000000073800000000000073800000000000000000000000000000000000000000000000000000000000000000000000000000000000000000000PES00010000001N00000000000000020170610
201705310060000700000000000000532976000000000000005329769900000000000000000000Consumidor Final              000000000070000000000000070000000000000000000000000000000000000000000000000000000000000000000000000000000000000000000000PES00010000001N00000000000000020170610
201705310060000700000000000000532977000000000000005329779900000000000000000000Consumidor Final              000000000068000000000000068000000000000000000000000000000000000000000000000000000000000000000000000000000000000000000000PES00010000001N00000000000000020170610
201705310060000600000000000000752722000000000000007527229900000000000000000000Consumidor Final              000000000083000000000000083000000000000000000000000000000000000000000000000000000000000000000000000000000000000000000000PES00010000001N00000000000000020170610
201705310060000700000000000000532985000000000000005329859900000000000000000000Consumidor Final              000000000064000000000000064000000000000000000000000000000000000000000000000000000000000000000000000000000000000000000000PES00010000001N00000000000000020170610
201705310060000700000000000000532986000000000000005329869900000000000000000000Consumidor Final              000000000073800000000000073800000000000000000000000000000000000000000000000000000000000000000000000000000000000000000000PES00010000001N00000000000000020170610
201705310060000700000000000000532974000000000000005329749900000000000000000000Consumidor Final              000000000089000000000000089000000000000000000000000000000000000000000000000000000000000000000000000000000000000000000000PES00010000001N00000000000000020170610
201705310060000700000000000000532980000000000000005329808000000000030610704863Consumidor Final              000000000073800000000000073800000000000000000000000000000000000000000000000000000000000000000000000000000000000000000000PES00010000001N00000000000000020170610
201705310060000700000000000000532981000000000000005329819900000000000000000000Consumidor Final              000000000073800000000000073800000000000000000000000000000000000000000000000000000000000000000000000000000000000000000000PES00010000001N00000000000000020170610
201705310060000700000000000000532982000000000000005329829900000000000000000000Consumidor Final              000000000071000000000000071000000000000000000000000000000000000000000000000000000000000000000000000000000000000000000000PES00010000001N00000000000000020170610
201705310060000600000000000000752728000000000000007527289900000000000000000000Consumidor Final              000000000068000000000000068000000000000000000000000000000000000000000000000000000000000000000000000000000000000000000000PES00010000001N00000000000000020170610
201705310060000700000000000000532983000000000000005329839900000000000000000000Consumidor Final              000000000087000000000000087000000000000000000000000000000000000000000000000000000000000000000000000000000000000000000000PES00010000001N00000000000000020170610
201705310060000800000000000000182729000000000000001827299900000000000000000000Consumidor Final              000000000058000000000000058000000000000000000000000000000000000000000000000000000000000000000000000000000000000000000000PES00010000001N00000000000000020170610
201705310060000800000000000000182730000000000000001827309900000000000000000000Consumidor Final              000000000058000000000000058000000000000000000000000000000000000000000000000000000000000000000000000000000000000000000000PES00010000001N00000000000000020170610
201705310060000800000000000000182731000000000000001827319900000000000000000000Consumidor Final              000000000058000000000000058000000000000000000000000000000000000000000000000000000000000000000000000000000000000000000000PES00010000001N00000000000000020170610
201705310060000600000000000000752729000000000000007527299900000000000000000000Consumidor Final              000000000068000000000000068000000000000000000000000000000000000000000000000000000000000000000000000000000000000000000000PES00010000001N00000000000000020170610
201705310060000700000000000000532984000000000000005329849900000000000000000000Consumidor Final              000000000068000000000000068000000000000000000000000000000000000000000000000000000000000000000000000000000000000000000000PES00010000001N00000000000000020170610
201705310060000600000000000000752723000000000000007527239900000000000000000000Consumidor Final              000000000072000000000000072000000000000000000000000000000000000000000000000000000000000000000000000000000000000000000000PES00010000001N00000000000000020170610
201705310060000700000000000000532978000000000000005329789900000000000000000000Consumidor Final              000000000080000000000000080000000000000000000000000000000000000000000000000000000000000000000000000000000000000000000000PES00010000001N00000000000000020170610
201705310060000600000000000000752724000000000000007527249900000000000000000000Consumidor Final              000000000068000000000000068000000000000000000000000000000000000000000000000000000000000000000000000000000000000000000000PES00010000001N00000000000000020170610
201705310060000700000000000000532979000000000000005329799900000000000000000000Consumidor Final              000000000073800000000000073800000000000000000000000000000000000000000000000000000000000000000000000000000000000000000000PES00010000001N00000000000000020170610
201705310060000600000000000000752725000000000000007527259900000000000000000000Consumidor Final              000000000076000000000000076000000000000000000000000000000000000000000000000000000000000000000000000000000000000000000000PES00010000001N00000000000000020170610
201705310060000600000000000000752726000000000000007527269900000000000000000000Consumidor Final              000000000085000000000000085000000000000000000000000000000000000000000000000000000000000000000000000000000000000000000000PES00010000001N00000000000000020170610
201705310060000600000000000000752727000000000000007527279900000000000000000000Consumidor Final              000000000041000000000000041000000000000000000000000000000000000000000000000000000000000000000000000000000000000000000000PES00010000001N00000000000000020170610
201705310060000600000000000000752730000000000000007527309900000000000000000000Consumidor Final              000000000063000000000000063000000000000000000000000000000000000000000000000000000000000000000000000000000000000000000000PES00010000001N00000000000000020170610
201705310060000600000000000000752731000000000000007527319900000000000000000000Consumidor Final              000000000073800000000000073800000000000000000000000000000000000000000000000000000000000000000000000000000000000000000000PES00010000001N00000000000000020170610
201705310060000600000000000000752732000000000000007527329900000000000000000000Consumidor Final              000000000068000000000000068000000000000000000000000000000000000000000000000000000000000000000000000000000000000000000000PES00010000001N00000000000000020170610
201705310060000600000000000000752733000000000000007527339900000000000000000000Consumidor Final              000000000072000000000000072000000000000000000000000000000000000000000000000000000000000000000000000000000000000000000000PES00010000001N00000000000000020170610
201705310060000700000000000000532987000000000000005329879900000000000000000000Consumidor Final              000000000073800000000000073800000000000000000000000000000000000000000000000000000000000000000000000000000000000000000000PES00010000001N00000000000000020170610
201705310060000600000000000000752741000000000000007527419900000000000000000000Consumidor Final              000000000068000000000000068000000000000000000000000000000000000000000000000000000000000000000000000000000000000000000000PES00010000001N00000000000000020170610
201705310060000600000000000000752742000000000000007527429900000000000000000000Consumidor Final              000000000073800000000000073800000000000000000000000000000000000000000000000000000000000000000000000000000000000000000000PES00010000001N00000000000000020170610
201705310060000700000000000000533020000000000000005330209900000000000000000000Consumidor Final              000000000066000000000000066000000000000000000000000000000000000000000000000000000000000000000000000000000000000000000000PES00010000001N00000000000000020170610
201705310060000700000000000000533028000000000000005330289900000000000000000000Consumidor Final              000000000068000000000000068000000000000000000000000000000000000000000000000000000000000000000000000000000000000000000000PES00010000001N00000000000000020170610
201705310060000700000000000000533029000000000000005330299900000000000000000000Consumidor Final              000000000068000000000000068000000000000000000000000000000000000000000000000000000000000000000000000000000000000000000000PES00010000001N00000000000000020170610
201705310060000800000000000000182739000000000000001827399900000000000000000000Consumidor Final              000000000058000000000000058000000000000000000000000000000000000000000000000000000000000000000000000000000000000000000000PES00010000001N00000000000000020170610
201705310510000100000000000000000594000000000000000005948000000000023222930219ARMESTO ALEJANDRO LUIS        000000000058000000000000058000000000000000000000000000000000000000000000000000000000000000000000000000000000000000000000PES00010000001N00000000000000000000000
201705310060000700000000000000533032000000000000005330329900000000000000000000Consumidor Final              000000000068000000000000068000000000000000000000000000000000000000000000000000000000000000000000000000000000000000000000PES00010000001N00000000000000020170610
201705310060000600000000000000752751000000000000007527519900000000000000000000Consumidor Final              000000000068000000000000068000000000000000000000000000000000000000000000000000000000000000000000000000000000000000000000PES00010000001N00000000000000020170610
201705310060000700000000000000533033000000000000005330339900000000000000000000Consumidor Final              000000000037000000000000037000000000000000000000000000000000000000000000000000000000000000000000000000000000000000000000PES00010000001N00000000000000020170610
201705310060000600000000000000752734000000000000007527349900000000000000000000Consumidor Final              000000000068000000000000068000000000000000000000000000000000000000000000000000000000000000000000000000000000000000000000PES00010000001N00000000000000020170610
201705310060000700000000000000533023000000000000005330239900000000000000000000Consumidor Final              000000000081000000000000081000000000000000000000000000000000000000000000000000000000000000000000000000000000000000000000PES00010000001N00000000000000020170610
201705310060000700000000000000533024000000000000005330249900000000000000000000Consumidor Final              000000000068000000000000068000000000000000000000000000000000000000000000000000000000000000000000000000000000000000000000PES00010000001N00000000000000020170610
201705310060000600000000000000752752000000000000007527529900000000000000000000Consumidor Final              000000000068000000000000068000000000000000000000000000000000000000000000000000000000000000000000000000000000000000000000PES00010000001N00000000000000020170610
201705310060000600000000000000752753000000000000007527539900000000000000000000Consumidor Final              000000000073800000000000073800000000000000000000000000000000000000000000000000000000000000000000000000000000000000000000PES00010000001N00000000000000020170610
201705310060000600000000000000752754000000000000007527549900000000000000000000Consumidor Final              000000000068000000000000068000000000000000000000000000000000000000000000000000000000000000000000000000000000000000000000PES00010000001N00000000000000020170610
201705310060000600000000000000752755000000000000007527559900000000000000000000Consumidor Final              000000000081000000000000081000000000000000000000000000000000000000000000000000000000000000000000000000000000000000000000PES00010000001N00000000000000020170610
201705310060000600000000000000752756000000000000007527569900000000000000000000Consumidor Final              000000000068000000000000068000000000000000000000000000000000000000000000000000000000000000000000000000000000000000000000PES00010000001N00000000000000020170610
201705310060000600000000000000752757000000000000007527579900000000000000000000Consumidor Final              000000000068000000000000068000000000000000000000000000000000000000000000000000000000000000000000000000000000000000000000PES00010000001N00000000000000020170610
201705310060000700000000000000533037000000000000005330379900000000000000000000Consumidor Final              000000000073800000000000073800000000000000000000000000000000000000000000000000000000000000000000000000000000000000000000PES00010000001N00000000000000020170610
201705310060000600000000000000752764000000000000007527649900000000000000000000Consumidor Final              000000000068000000000000068000000000000000000000000000000000000000000000000000000000000000000000000000000000000000000000PES00010000001N00000000000000020170610
201705310060000600000000000000752735000000000000007527359900000000000000000000Consumidor Final              000000000081000000000000081000000000000000000000000000000000000000000000000000000000000000000000000000000000000000000000PES00010000001N00000000000000020170610
201705310060000600000000000000752767000000000000007527679900000000000000000000Consumidor Final              000000000068000000000000068000000000000000000000000000000000000000000000000000000000000000000000000000000000000000000000PES00010000001N00000000000000020170610
201705310060000600000000000000752768000000000000007527689900000000000000000000Consumidor Final              000000000081000000000000081000000000000000000000000000000000000000000000000000000000000000000000000000000000000000000000PES00010000001N00000000000000020170610
201705310060000700000000000000533038000000000000005330389900000000000000000000Consumidor Final              000000000073800000000000073800000000000000000000000000000000000000000000000000000000000000000000000000000000000000000000PES00010000001N00000000000000020170610
201705310060000600000000000000752770000000000000007527709900000000000000000000Consumidor Final              000000000068000000000000068000000000000000000000000000000000000000000000000000000000000000000000000000000000000000000000PES00010000001N00000000000000020170610
201705310060000600000000000000752771000000000000007527719900000000000000000000Consumidor Final              000000000081000000000000081000000000000000000000000000000000000000000000000000000000000000000000000000000000000000000000PES00010000001N00000000000000020170610
201705310060000600000000000000752772000000000000007527729900000000000000000000Consumidor Final              000000000068000000000000068000000000000000000000000000000000000000000000000000000000000000000000000000000000000000000000PES00010000001N00000000000000020170610
201705310060000600000000000000752773000000000000007527739900000000000000000000Consumidor Final              000000000068000000000000068000000000000000000000000000000000000000000000000000000000000000000000000000000000000000000000PES00010000001N00000000000000020170610
201705310060000600000000000000752774000000000000007527749900000000000000000000Consumidor Final              000000000068000000000000068000000000000000000000000000000000000000000000000000000000000000000000000000000000000000000000PES00010000001N00000000000000020170610
201705310060000600000000000000752775000000000000007527759900000000000000000000Consumidor Final              000000000070000000000000070000000000000000000000000000000000000000000000000000000000000000000000000000000000000000000000PES00010000001N00000000000000020170610
201705310060000600000000000000752776000000000000007527769900000000000000000000Consumidor Final              000000000066000000000000066000000000000000000000000000000000000000000000000000000000000000000000000000000000000000000000PES00010000001N00000000000000020170610
201705310060000700000000000000532988000000000000005329889900000000000000000000Consumidor Final              000000000089000000000000089000000000000000000000000000000000000000000000000000000000000000000000000000000000000000000000PES00010000001N00000000000000020170610
201705310060000600000000000000752747000000000000007527479900000000000000000000Consumidor Final              000000000068000000000000068000000000000000000000000000000000000000000000000000000000000000000000000000000000000000000000PES00010000001N00000000000000020170610
201705310060000700000000000000533031000000000000005330319000000000099999999999Consumidor Final              000000000114000000000000114000000000000000000000000000000000000000000000000000000000000000000000000000000000000000000000PES00010000001N00000000000000020170610
201705310060000600000000000000752762000000000000007527629900000000000000000000Consumidor Final              000000000068000000000000068000000000000000000000000000000000000000000000000000000000000000000000000000000000000000000000PES00010000001N00000000000000020170610
201705310060000600000000000000752763000000000000007527639900000000000000000000Consumidor Final              000000000081000000000000081000000000000000000000000000000000000000000000000000000000000000000000000000000000000000000000PES00010000001N00000000000000020170610
201705310060000600000000000000752777000000000000007527779900000000000000000000Consumidor Final              000000000066000000000000066000000000000000000000000000000000000000000000000000000000000000000000000000000000000000000000PES00010000001N00000000000000020170610
201705310060000600000000000000752778000000000000007527789900000000000000000000Consumidor Final              000000000081000000000000081000000000000000000000000000000000000000000000000000000000000000000000000000000000000000000000PES00010000001N00000000000000020170610
201705310060000600000000000000752779000000000000007527799900000000000000000000Consumidor Final              000000000068000000000000068000000000000000000000000000000000000000000000000000000000000000000000000000000000000000000000PES00010000001N00000000000000020170610
201705310060000600000000000000752780000000000000007527809900000000000000000000Consumidor Final              000000000068000000000000068000000000000000000000000000000000000000000000000000000000000000000000000000000000000000000000PES00010000001N00000000000000020170610
201705310060000600000000000000752781000000000000007527819900000000000000000000Consumidor Final              000000000068000000000000068000000000000000000000000000000000000000000000000000000000000000000000000000000000000000000000PES00010000001N00000000000000020170610
201705310060000700000000000000533046000000000000005330469900000000000000000000Consumidor Final              000000000038000000000000038000000000000000000000000000000000000000000000000000000000000000000000000000000000000000000000PES00010000001N00000000000000020170610
201705310060000600000000000000752736000000000000007527369900000000000000000000Consumidor Final              000000000068000000000000068000000000000000000000000000000000000000000000000000000000000000000000000000000000000000000000PES00010000001N00000000000000020170610
201705310060000700000000000000532989000000000000005329899900000000000000000000Consumidor Final              000000000073800000000000073800000000000000000000000000000000000000000000000000000000000000000000000000000000000000000000PES00010000001N00000000000000020170610
201705310060000800000000000000182732000000000000001827329900000000000000000000Consumidor Final              000000000068000000000000068000000000000000000000000000000000000000000000000000000000000000000000000000000000000000000000PES00010000001N00000000000000020170610
201705310060000600000000000000752737000000000000007527379900000000000000000000Consumidor Final              000000000068000000000000068000000000000000000000000000000000000000000000000000000000000000000000000000000000000000000000PES00010000001N00000000000000020170610
201705310060000600000000000000752738000000000000007527389900000000000000000000Consumidor Final              000000000073800000000000073800000000000000000000000000000000000000000000000000000000000000000000000000000000000000000000PES00010000001N00000000000000020170610
201705310060000700000000000000532990000000000000005329909900000000000000000000Consumidor Final              000000000076000000000000076000000000000000000000000000000000000000000000000000000000000000000000000000000000000000000000PES00010000001N00000000000000020170610
201705310060000600000000000000752739000000000000007527399900000000000000000000Consumidor Final              000000000059000000000000059000000000000000000000000000000000000000000000000000000000000000000000000000000000000000000000PES00010000001N00000000000000020170610
201705310060000600000000000000752740000000000000007527409900000000000000000000Consumidor Final              000000000094000000000000094000000000000000000000000000000000000000000000000000000000000000000000000000000000000000000000PES00010000001N00000000000000020170610
201705310060000800000000000000182733000000000000001827339900000000000000000000Consumidor Final              000000000038000000000000038000000000000000000000000000000000000000000000000000000000000000000000000000000000000000000000PES00010000001N00000000000000020170610
201705310060000800000000000000182734000000000000001827349900000000000000000000Consumidor Final              000000000058000000000000058000000000000000000000000000000000000000000000000000000000000000000000000000000000000000000000PES00010000001N00000000000000020170610
201705310060000700000000000000532991000000000000005329919900000000000000000000Consumidor Final              000000000090100000000000090100000000000000000000000000000000000000000000000000000000000000000000000000000000000000000000PES00010000001N00000000000000020170610
201705310060000700000000000000532993000000000000005329939900000000000000000000Consumidor Final              000000000066000000000000066000000000000000000000000000000000000000000000000000000000000000000000000000000000000000000000PES00010000001N00000000000000020170610
201705310060000700000000000000533047000000000000005330479900000000000000000000Consumidor Final              000000000069000000000000069000000000000000000000000000000000000000000000000000000000000000000000000000000000000000000000PES00010000001N00000000000000020170610
201705310060000700000000000000533048000000000000005330489900000000000000000000Consumidor Final              000000000068000000000000068000000000000000000000000000000000000000000000000000000000000000000000000000000000000000000000PES00010000001N00000000000000020170610
201705310060000700000000000000533049000000000000005330499900000000000000000000Consumidor Final              000000000068000000000000068000000000000000000000000000000000000000000000000000000000000000000000000000000000000000000000PES00010000001N00000000000000020170610
201705310060000700000000000000533050000000000000005330509900000000000000000000Consumidor Final              000000000068000000000000068000000000000000000000000000000000000000000000000000000000000000000000000000000000000000000000PES00010000001N00000000000000020170610
201705310060000700000000000000533051000000000000005330519900000000000000000000Consumidor Final              000000000068000000000000068000000000000000000000000000000000000000000000000000000000000000000000000000000000000000000000PES00010000001N00000000000000020170610
201705310060000600000000000000752819000000000000007528199900000000000000000000Consumidor Final              000000000068000000000000068000000000000000000000000000000000000000000000000000000000000000000000000000000000000000000000PES00010000001N00000000000000020170610
201705310060000600000000000000752820000000000000007528209900000000000000000000Consumidor Final              000000000079300000000000079300000000000000000000000000000000000000000000000000000000000000000000000000000000000000000000PES00010000001N00000000000000020170610
201705310060000600000000000000752834000000000000007528349900000000000000000000Consumidor Final              000000000068000000000000068000000000000000000000000000000000000000000000000000000000000000000000000000000000000000000000PES00010000001N00000000000000020170610
201705310060000300000000000000117680000000000000001176809900000000000000000000Consumidor Final              000000000032000000000000032000000000000000000000000000000000000000000000000000000000000000000000000000000000000000000000PES00010000001N00000000000000020170610
201705310060000600000000000000752835000000000000007528359900000000000000000000Consumidor Final              000000000068000000000000068000000000000000000000000000000000000000000000000000000000000000000000000000000000000000000000PES00010000001N00000000000000020170610
201705310060000600000000000000752743000000000000007527439900000000000000000000Consumidor Final              000000000083000000000000083000000000000000000000000000000000000000000000000000000000000000000000000000000000000000000000PES00010000001N00000000000000020170610
201705310060000700000000000000532994000000000000005329949900000000000000000000Consumidor Final              000000000093000000000000093000000000000000000000000000000000000000000000000000000000000000000000000000000000000000000000PES00010000001N00000000000000020170610
201705310060000700000000000000532995000000000000005329959900000000000000000000Consumidor Final              000000000023000000000000023000000000000000000000000000000000000000000000000000000000000000000000000000000000000000000000PES00010000001N00000000000000020170610
201705310060000700000000000000532996000000000000005329969900000000000000000000Consumidor Final              000000000076000000000000076000000000000000000000000000000000000000000000000000000000000000000000000000000000000000000000PES00010000001N00000000000000020170610
201705310060000700000000000000532997000000000000005329979900000000000000000000Consumidor Final              000000000087900000000000087900000000000000000000000000000000000000000000000000000000000000000000000000000000000000000000PES00010000001N00000000000000020170610
201705310060000700000000000000532998000000000000005329989900000000000000000000Consumidor Final              000000000073800000000000073800000000000000000000000000000000000000000000000000000000000000000000000000000000000000000000PES00010000001N00000000000000020170610
201705310060000700000000000000532999000000000000005329999900000000000000000000Consumidor Final              000000000068000000000000068000000000000000000000000000000000000000000000000000000000000000000000000000000000000000000000PES00010000001N00000000000000020170610
201705310060000700000000000000533000000000000000005330009900000000000000000000Consumidor Final              000000000068000000000000068000000000000000000000000000000000000000000000000000000000000000000000000000000000000000000000PES00010000001N00000000000000020170610
201705310060000700000000000000533001000000000000005330019900000000000000000000Consumidor Final              000000000068000000000000068000000000000000000000000000000000000000000000000000000000000000000000000000000000000000000000PES00010000001N00000000000000020170610
201705310060000700000000000000533002000000000000005330029900000000000000000000Consumidor Final              000000000068000000000000068000000000000000000000000000000000000000000000000000000000000000000000000000000000000000000000PES00010000001N00000000000000020170610
201705310060000700000000000000533003000000000000005330039900000000000000000000Consumidor Final              000000000068000000000000068000000000000000000000000000000000000000000000000000000000000000000000000000000000000000000000PES00010000001N00000000000000020170610
201705310060000700000000000000533004000000000000005330049900000000000000000000Consumidor Final              000000000068000000000000068000000000000000000000000000000000000000000000000000000000000000000000000000000000000000000000PES00010000001N00000000000000020170610
201705310060000700000000000000533005000000000000005330059900000000000000000000Consumidor Final              000000000068000000000000068000000000000000000000000000000000000000000000000000000000000000000000000000000000000000000000PES00010000001N00000000000000020170610
201705310060000700000000000000533006000000000000005330069900000000000000000000Consumidor Final              000000000068000000000000068000000000000000000000000000000000000000000000000000000000000000000000000000000000000000000000PES00010000001N00000000000000020170610
201705310060000700000000000000533007000000000000005330079900000000000000000000Consumidor Final              000000000073800000000000073800000000000000000000000000000000000000000000000000000000000000000000000000000000000000000000PES00010000001N00000000000000020170610
201705310060000700000000000000533008000000000000005330089900000000000000000000Consumidor Final              000000000068000000000000068000000000000000000000000000000000000000000000000000000000000000000000000000000000000000000000PES00010000001N00000000000000020170610
201705310060000700000000000000533009000000000000005330099000000000099999999999Consumidor Final              000000000125000000000000125000000000000000000000000000000000000000000000000000000000000000000000000000000000000000000000PES00010000001N00000000000000020170610
201705310060000700000000000000533010000000000000005330109900000000000000000000Consumidor Final              000000000023000000000000023000000000000000000000000000000000000000000000000000000000000000000000000000000000000000000000PES00010000001N00000000000000020170610
201705310060000700000000000000533011000000000000005330119900000000000000000000Consumidor Final              000000000023000000000000023000000000000000000000000000000000000000000000000000000000000000000000000000000000000000000000PES00010000001N00000000000000020170610
201705310060000700000000000000533012000000000000005330129900000000000000000000Consumidor Final              000000000068000000000000068000000000000000000000000000000000000000000000000000000000000000000000000000000000000000000000PES00010000001N00000000000000020170610
201705310060000700000000000000533013000000000000005330139900000000000000000000Consumidor Final              000000000083000000000000083000000000000000000000000000000000000000000000000000000000000000000000000000000000000000000000PES00010000001N00000000000000020170610
201705310060000700000000000000533014000000000000005330149900000000000000000000Consumidor Final              000000000084000000000000084000000000000000000000000000000000000000000000000000000000000000000000000000000000000000000000PES00010000001N00000000000000020170610
201705310060000700000000000000533015000000000000005330159900000000000000000000Consumidor Final              000000000085000000000000085000000000000000000000000000000000000000000000000000000000000000000000000000000000000000000000PES00010000001N00000000000000020170610
201705310060000600000000000000752749000000000000007527499900000000000000000000Consumidor Final              000000000066000000000000066000000000000000000000000000000000000000000000000000000000000000000000000000000000000000000000PES00010000001N00000000000000020170610
201705310060000600000000000000752750000000000000007527509900000000000000000000Consumidor Final              000000000073800000000000073800000000000000000000000000000000000000000000000000000000000000000000000000000000000000000000PES00010000001N00000000000000020170610
201705310060000700000000000000533034000000000000005330349900000000000000000000Consumidor Final              000000000076000000000000076000000000000000000000000000000000000000000000000000000000000000000000000000000000000000000000PES00010000001N00000000000000020170610
201705310060000700000000000000533035000000000000005330359900000000000000000000Consumidor Final              000000000068000000000000068000000000000000000000000000000000000000000000000000000000000000000000000000000000000000000000PES00010000001N00000000000000020170610
201705310060000700000000000000533036000000000000005330369900000000000000000000Consumidor Final              000000000073800000000000073800000000000000000000000000000000000000000000000000000000000000000000000000000000000000000000PES00010000001N00000000000000020170610
201705310060000800000000000000182745000000000000001827459900000000000000000000Consumidor Final              000000000058000000000000058000000000000000000000000000000000000000000000000000000000000000000000000000000000000000000000PES00010000001N00000000000000020170610
201705310060000800000000000000182746000000000000001827469900000000000000000000Consumidor Final              000000000058000000000000058000000000000000000000000000000000000000000000000000000000000000000000000000000000000000000000PES00010000001N00000000000000020170610
201705310060000800000000000000182747000000000000001827479900000000000000000000Consumidor Final              000000000058000000000000058000000000000000000000000000000000000000000000000000000000000000000000000000000000000000000000PES00010000001N00000000000000020170610
201705310060000800000000000000182748000000000000001827489900000000000000000000Consumidor Final              000000000058000000000000058000000000000000000000000000000000000000000000000000000000000000000000000000000000000000000000PES00010000001N00000000000000020170610
201705310060000800000000000000182749000000000000001827499900000000000000000000Consumidor Final              000000000068000000000000068000000000000000000000000000000000000000000000000000000000000000000000000000000000000000000000PES00010000001N00000000000000020170610
201705310060000700000000000000533016000000000000005330169000000000099999999999Consumidor Final              000000000105300000000000105300000000000000000000000000000000000000000000000000000000000000000000000000000000000000000000PES00010000001N00000000000000020170610
201705310060000700000000000000533017000000000000005330179000000000099999999999Consumidor Final              000000000105300000000000105300000000000000000000000000000000000000000000000000000000000000000000000000000000000000000000PES00010000001N00000000000000020170610
201705310060000700000000000000533018000000000000005330189900000000000000000000Consumidor Final              000000000068000000000000068000000000000000000000000000000000000000000000000000000000000000000000000000000000000000000000PES00010000001N00000000000000020170610
201705310060000700000000000000533019000000000000005330199900000000000000000000Consumidor Final              000000000095000000000000095000000000000000000000000000000000000000000000000000000000000000000000000000000000000000000000PES00010000001N00000000000000020170610
201705310060000700000000000000533021000000000000005330219900000000000000000000Consumidor Final              000000000068000000000000068000000000000000000000000000000000000000000000000000000000000000000000000000000000000000000000PES00010000001N00000000000000020170610
201705310060000700000000000000533022000000000000005330229900000000000000000000Consumidor Final              000000000068000000000000068000000000000000000000000000000000000000000000000000000000000000000000000000000000000000000000PES00010000001N00000000000000020170610
201705310060000700000000000000533025000000000000005330259900000000000000000000Consumidor Final              000000000068000000000000068000000000000000000000000000000000000000000000000000000000000000000000000000000000000000000000PES00010000001N00000000000000020170610
201705310060000700000000000000533026000000000000005330269900000000000000000000Consumidor Final              000000000073800000000000073800000000000000000000000000000000000000000000000000000000000000000000000000000000000000000000PES00010000001N00000000000000020170610
201705310060000700000000000000533027000000000000005330279900000000000000000000Consumidor Final              000000000068000000000000068000000000000000000000000000000000000000000000000000000000000000000000000000000000000000000000PES00010000001N00000000000000020170610
201705310060000700000000000000533030000000000000005330309900000000000000000000Consumidor Final              000000000068000000000000068000000000000000000000000000000000000000000000000000000000000000000000000000000000000000000000PES00010000001N00000000000000020170610
201705310060000600000000000000752748000000000000007527489900000000000000000000Consumidor Final              000000000073800000000000073800000000000000000000000000000000000000000000000000000000000000000000000000000000000000000000PES00010000001N00000000000000020170610
201705310060000800000000000000182742000000000000001827429900000000000000000000Consumidor Final              000000000058000000000000058000000000000000000000000000000000000000000000000000000000000000000000000000000000000000000000PES00010000001N00000000000000020170610
201705310060000800000000000000182743000000000000001827439900000000000000000000Consumidor Final              000000000058000000000000058000000000000000000000000000000000000000000000000000000000000000000000000000000000000000000000PES00010000001N00000000000000020170610
201705310060000800000000000000182744000000000000001827449900000000000000000000Consumidor Final              000000000058000000000000058000000000000000000000000000000000000000000000000000000000000000000000000000000000000000000000PES00010000001N00000000000000020170610
201705310060000600000000000000752758000000000000007527589900000000000000000000Consumidor Final              000000000068000000000000068000000000000000000000000000000000000000000000000000000000000000000000000000000000000000000000PES00010000001N00000000000000020170610
201705310060000600000000000000752759000000000000007527599900000000000000000000Consumidor Final              000000000069000000000000069000000000000000000000000000000000000000000000000000000000000000000000000000000000000000000000PES00010000001N00000000000000020170610
201705310060000600000000000000752760000000000000007527609900000000000000000000Consumidor Final              000000000068000000000000068000000000000000000000000000000000000000000000000000000000000000000000000000000000000000000000PES00010000001N00000000000000020170610
201705310060000600000000000000752761000000000000007527619900000000000000000000Consumidor Final              000000000076000000000000076000000000000000000000000000000000000000000000000000000000000000000000000000000000000000000000PES00010000001N00000000000000020170610
201705310060000600000000000000752765000000000000007527659900000000000000000000Consumidor Final              000000000068000000000000068000000000000000000000000000000000000000000000000000000000000000000000000000000000000000000000PES00010000001N00000000000000020170610
201705310060000600000000000000752766000000000000007527669900000000000000000000Consumidor Final              000000000068000000000000068000000000000000000000000000000000000000000000000000000000000000000000000000000000000000000000PES00010000001N00000000000000020170610
201705310060000600000000000000752769000000000000007527699900000000000000000000Consumidor Final              000000000068000000000000068000000000000000000000000000000000000000000000000000000000000000000000000000000000000000000000PES00010000001N00000000000000020170610
201705310060000600000000000000752782000000000000007527829900000000000000000000Consumidor Final              000000000068000000000000068000000000000000000000000000000000000000000000000000000000000000000000000000000000000000000000PES00010000001N00000000000000020170610
201705310060000800000000000000182750000000000000001827509900000000000000000000Consumidor Final              000000000058000000000000058000000000000000000000000000000000000000000000000000000000000000000000000000000000000000000000PES00010000001N00000000000000020170610
201705310060000800000000000000182751000000000000001827519900000000000000000000Consumidor Final              000000000058000000000000058000000000000000000000000000000000000000000000000000000000000000000000000000000000000000000000PES00010000001N00000000000000020170610
201705310060000800000000000000182752000000000000001827529900000000000000000000Consumidor Final              000000000068000000000000068000000000000000000000000000000000000000000000000000000000000000000000000000000000000000000000PES00010000001N00000000000000020170610
201705310060000800000000000000182753000000000000001827539900000000000000000000Consumidor Final              000000000058000000000000058000000000000000000000000000000000000000000000000000000000000000000000000000000000000000000000PES00010000001N00000000000000020170610
201705310060000800000000000000182754000000000000001827549900000000000000000000Consumidor Final              000000000058000000000000058000000000000000000000000000000000000000000000000000000000000000000000000000000000000000000000PES00010000001N00000000000000020170610
201705310060000800000000000000182755000000000000001827559900000000000000000000Consumidor Final              000000000071000000000000071000000000000000000000000000000000000000000000000000000000000000000000000000000000000000000000PES00010000001N00000000000000020170610
201705310060000800000000000000182756000000000000001827569900000000000000000000Consumidor Final              000000000058000000000000058000000000000000000000000000000000000000000000000000000000000000000000000000000000000000000000PES00010000001N00000000000000020170610
201705310060000600000000000000752836000000000000007528369900000000000000000000Consumidor Final              000000000068000000000000068000000000000000000000000000000000000000000000000000000000000000000000000000000000000000000000PES00010000001N00000000000000020170610
201705310060000600000000000000752837000000000000007528379900000000000000000000Consumidor Final              000000000068000000000000068000000000000000000000000000000000000000000000000000000000000000000000000000000000000000000000PES00010000001N00000000000000020170610
201705310060000600000000000000752841000000000000007528419900000000000000000000Consumidor Final              000000000091000000000000091000000000000000000000000000000000000000000000000000000000000000000000000000000000000000000000PES00010000001N00000000000000020170610
201705310060000600000000000000752842000000000000007528429900000000000000000000Consumidor Final              000000000068000000000000068000000000000000000000000000000000000000000000000000000000000000000000000000000000000000000000PES00010000001N00000000000000020170610
201705310060000600000000000000752784000000000000007527849900000000000000000000Consumidor Final              000000000068000000000000068000000000000000000000000000000000000000000000000000000000000000000000000000000000000000000000PES00010000001N00000000000000020170610
201705310060000600000000000000752785000000000000007527859900000000000000000000Consumidor Final              000000000068000000000000068000000000000000000000000000000000000000000000000000000000000000000000000000000000000000000000PES00010000001N00000000000000020170610
201705310060000600000000000000752786000000000000007527869900000000000000000000Consumidor Final              000000000068000000000000068000000000000000000000000000000000000000000000000000000000000000000000000000000000000000000000PES00010000001N00000000000000020170610
201705310060000600000000000000752807000000000000007528079900000000000000000000Consumidor Final              000000000068000000000000068000000000000000000000000000000000000000000000000000000000000000000000000000000000000000000000PES00010000001N00000000000000020170610
201705310060000700000000000000533039000000000000005330399000000000099999999999Consumidor Final              000000000115100000000000115100000000000000000000000000000000000000000000000000000000000000000000000000000000000000000000PES00010000001N00000000000000020170610
201705310060000700000000000000533040000000000000005330409900000000000000000000Consumidor Final              000000000068000000000000068000000000000000000000000000000000000000000000000000000000000000000000000000000000000000000000PES00010000001N00000000000000020170610
201705310060000700000000000000533041000000000000005330419900000000000000000000Consumidor Final              000000000068000000000000068000000000000000000000000000000000000000000000000000000000000000000000000000000000000000000000PES00010000001N00000000000000020170610
201705310060000700000000000000533042000000000000005330429900000000000000000000Consumidor Final              000000000073800000000000073800000000000000000000000000000000000000000000000000000000000000000000000000000000000000000000PES00010000001N00000000000000020170610
201705310060000700000000000000533043000000000000005330439900000000000000000000Consumidor Final              000000000068000000000000068000000000000000000000000000000000000000000000000000000000000000000000000000000000000000000000PES00010000001N00000000000000020170610
201705310060000700000000000000533044000000000000005330449900000000000000000000Consumidor Final              000000000068000000000000068000000000000000000000000000000000000000000000000000000000000000000000000000000000000000000000PES00010000001N00000000000000020170610
201705310060000700000000000000533045000000000000005330459900000000000000000000Consumidor Final              000000000068000000000000068000000000000000000000000000000000000000000000000000000000000000000000000000000000000000000000PES00010000001N00000000000000020170610
201705310060000600000000000000752787000000000000007527879900000000000000000000Consumidor Final              000000000068000000000000068000000000000000000000000000000000000000000000000000000000000000000000000000000000000000000000PES00010000001N00000000000000020170610
201705310060000600000000000000752788000000000000007527889900000000000000000000Consumidor Final              000000000068000000000000068000000000000000000000000000000000000000000000000000000000000000000000000000000000000000000000PES00010000001N00000000000000020170610
201705310060000600000000000000752795000000000000007527959900000000000000000000Consumidor Final              000000000068000000000000068000000000000000000000000000000000000000000000000000000000000000000000000000000000000000000000PES00010000001N00000000000000020170610
201705310060000800000000000000182757000000000000001827579900000000000000000000Consumidor Final              000000000058000000000000058000000000000000000000000000000000000000000000000000000000000000000000000000000000000000000000PES00010000001N00000000000000020170610
201705310060000600000000000000752833000000000000007528339900000000000000000000Consumidor Final              000000000081000000000000081000000000000000000000000000000000000000000000000000000000000000000000000000000000000000000000PES00010000001N00000000000000020170610
201705310060000600000000000000752838000000000000007528389900000000000000000000Consumidor Final              000000000068000000000000068000000000000000000000000000000000000000000000000000000000000000000000000000000000000000000000PES00010000001N00000000000000020170610
201705310060000600000000000000752839000000000000007528399900000000000000000000Consumidor Final              000000000068000000000000068000000000000000000000000000000000000000000000000000000000000000000000000000000000000000000000PES00010000001N00000000000000020170610
201705310060000600000000000000752840000000000000007528409900000000000000000000Consumidor Final              000000000073800000000000073800000000000000000000000000000000000000000000000000000000000000000000000000000000000000000000PES00010000001N00000000000000020170610
201705310060000600000000000000752843000000000000007528439900000000000000000000Consumidor Final              000000000081000000000000081000000000000000000000000000000000000000000000000000000000000000000000000000000000000000000000PES00010000001N00000000000000020170610
201705310060000600000000000000752844000000000000007528449900000000000000000000Consumidor Final              000000000068000000000000068000000000000000000000000000000000000000000000000000000000000000000000000000000000000000000000PES00010000001N00000000000000020170610
201705310060000600000000000000752845000000000000007528459900000000000000000000Consumidor Final              000000000073800000000000073800000000000000000000000000000000000000000000000000000000000000000000000000000000000000000000PES00010000001N00000000000000020170610
201705310510000100000000000000000595000000000000000005958000000000033710787439FULL CONGRESS DIVISION TURISMO000000000070000000000000070000000000000000000000000000000000000000000000000000000000000000000000000000000000000000000000PES00010000001N00000000000000000000000
201705310060000700000000000000533065000000000000005330659900000000000000000000Consumidor Final              000000000039000000000000039000000000000000000000000000000000000000000000000000000000000000000000000000000000000000000000PES00010000001N00000000000000020170610
201705310060000600000000000000752853000000000000007528539900000000000000000000Consumidor Final              000000000068000000000000068000000000000000000000000000000000000000000000000000000000000000000000000000000000000000000000PES00010000001N00000000000000020170610
201705310060000700000000000000533066000000000000005330669900000000000000000000Consumidor Final              000000000068000000000000068000000000000000000000000000000000000000000000000000000000000000000000000000000000000000000000PES00010000001N00000000000000020170610
201705310060000800000000000000182759000000000000001827599900000000000000000000Consumidor Final              000000000038000000000000038000000000000000000000000000000000000000000000000000000000000000000000000000000000000000000000PES00010000001N00000000000000020170610
201705310060000600000000000000752789000000000000007527899900000000000000000000Consumidor Final              000000000068000000000000068000000000000000000000000000000000000000000000000000000000000000000000000000000000000000000000PES00010000001N00000000000000020170610
201705310060000600000000000000752790000000000000007527909900000000000000000000Consumidor Final              000000000068000000000000068000000000000000000000000000000000000000000000000000000000000000000000000000000000000000000000PES00010000001N00000000000000020170610
201705310060000600000000000000752846000000000000007528469900000000000000000000Consumidor Final              000000000064000000000000064000000000000000000000000000000000000000000000000000000000000000000000000000000000000000000000PES00010000001N00000000000000020170610
201705310060000100000000000000201516000000000000002015169900000000000000000000Consumidor Final              000000000068000000000000068000000000000000000000000000000000000000000000000000000000000000000000000000000000000000000000PES00010000001N00000000000000020170610
201705310060000600000000000000752847000000000000007528479900000000000000000000Consumidor Final              000000000032000000000000032000000000000000000000000000000000000000000000000000000000000000000000000000000000000000000000PES00010000001N00000000000000020170610
201705310060000600000000000000752791000000000000007527919900000000000000000000Consumidor Final              000000000068000000000000068000000000000000000000000000000000000000000000000000000000000000000000000000000000000000000000PES00010000001N00000000000000020170610
201705310060000600000000000000752792000000000000007527929900000000000000000000Consumidor Final              000000000094000000000000094000000000000000000000000000000000000000000000000000000000000000000000000000000000000000000000PES00010000001N00000000000000020170610
201705310060000600000000000000752793000000000000007527939900000000000000000000Consumidor Final              000000000068000000000000068000000000000000000000000000000000000000000000000000000000000000000000000000000000000000000000PES00010000001N00000000000000020170610
201705310060000600000000000000752794000000000000007527949900000000000000000000Consumidor Final              000000000068000000000000068000000000000000000000000000000000000000000000000000000000000000000000000000000000000000000000PES00010000001N00000000000000020170610
201705310060000600000000000000752799000000000000007527999900000000000000000000Consumidor Final              000000000073800000000000073800000000000000000000000000000000000000000000000000000000000000000000000000000000000000000000PES00010000001N00000000000000020170610
201705310060000600000000000000752800000000000000007528009900000000000000000000Consumidor Final              000000000087900000000000087900000000000000000000000000000000000000000000000000000000000000000000000000000000000000000000PES00010000001N00000000000000020170610
201705310060000100000000000000201512000000000000002015129900000000000000000000Consumidor Final              000000000068000000000000068000000000000000000000000000000000000000000000000000000000000000000000000000000000000000000000PES00010000001N00000000000000020170610
201705310060000100000000000000201513000000000000002015139900000000000000000000Consumidor Final              000000000068000000000000068000000000000000000000000000000000000000000000000000000000000000000000000000000000000000000000PES00010000001N00000000000000020170610
201705310060000100000000000000201514000000000000002015149900000000000000000000Consumidor Final              000000000068000000000000068000000000000000000000000000000000000000000000000000000000000000000000000000000000000000000000PES00010000001N00000000000000020170610
201705310060000100000000000000201515000000000000002015159900000000000000000000Consumidor Final              000000000066000000000000066000000000000000000000000000000000000000000000000000000000000000000000000000000000000000000000PES00010000001N00000000000000020170610
201705310060000600000000000000752808000000000000007528089900000000000000000000Consumidor Final              000000000068000000000000068000000000000000000000000000000000000000000000000000000000000000000000000000000000000000000000PES00010000001N00000000000000020170610
201705310060000600000000000000752809000000000000007528099900000000000000000000Consumidor Final              000000000068000000000000068000000000000000000000000000000000000000000000000000000000000000000000000000000000000000000000PES00010000001N00000000000000020170610
201705310060000600000000000000752810000000000000007528109900000000000000000000Consumidor Final              000000000081000000000000081000000000000000000000000000000000000000000000000000000000000000000000000000000000000000000000PES00010000001N00000000000000020170610
201705310060000600000000000000752811000000000000007528119900000000000000000000Consumidor Final              000000000068000000000000068000000000000000000000000000000000000000000000000000000000000000000000000000000000000000000000PES00010000001N00000000000000020170610
201705310060000600000000000000752812000000000000007528129900000000000000000000Consumidor Final              000000000068000000000000068000000000000000000000000000000000000000000000000000000000000000000000000000000000000000000000PES00010000001N00000000000000020170610
201705310060000600000000000000752813000000000000007528139900000000000000000000Consumidor Final              000000000081000000000000081000000000000000000000000000000000000000000000000000000000000000000000000000000000000000000000PES00010000001N00000000000000020170610
201705310060000800000000000000182758000000000000001827589900000000000000000000Consumidor Final              000000000058000000000000058000000000000000000000000000000000000000000000000000000000000000000000000000000000000000000000PES00010000001N00000000000000020170610
201705310060000600000000000000752814000000000000007528149900000000000000000000Consumidor Final              000000000073800000000000073800000000000000000000000000000000000000000000000000000000000000000000000000000000000000000000PES00010000001N00000000000000020170610
201705310060000600000000000000752815000000000000007528159900000000000000000000Consumidor Final              000000000068000000000000068000000000000000000000000000000000000000000000000000000000000000000000000000000000000000000000PES00010000001N00000000000000020170610
201705310060000600000000000000752816000000000000007528169900000000000000000000Consumidor Final              000000000066000000000000066000000000000000000000000000000000000000000000000000000000000000000000000000000000000000000000PES00010000001N00000000000000020170610
201705310060000600000000000000752817000000000000007528179900000000000000000000Consumidor Final              000000000031500000000000031500000000000000000000000000000000000000000000000000000000000000000000000000000000000000000000PES00010000001N00000000000000020170610
201705310060000600000000000000752818000000000000007528189900000000000000000000Consumidor Final              000000000068000000000000068000000000000000000000000000000000000000000000000000000000000000000000000000000000000000000000PES00010000001N00000000000000020170610
201705310060000600000000000000752822000000000000007528229900000000000000000000Consumidor Final              000000000068000000000000068000000000000000000000000000000000000000000000000000000000000000000000000000000000000000000000PES00010000001N00000000000000020170610
201705310060000600000000000000752823000000000000007528239000000000099999999999Consumidor Final              000000000115100000000000115100000000000000000000000000000000000000000000000000000000000000000000000000000000000000000000PES00010000001N00000000000000020170610
201705310060000600000000000000752824000000000000007528249900000000000000000000Consumidor Final              000000000073800000000000073800000000000000000000000000000000000000000000000000000000000000000000000000000000000000000000PES00010000001N00000000000000020170610
201705310060000600000000000000752825000000000000007528259900000000000000000000Consumidor Final              000000000068000000000000068000000000000000000000000000000000000000000000000000000000000000000000000000000000000000000000PES00010000001N00000000000000020170610
201705310060000600000000000000752826000000000000007528269900000000000000000000Consumidor Final              000000000068000000000000068000000000000000000000000000000000000000000000000000000000000000000000000000000000000000000000PES00010000001N00000000000000020170610
201705310060000600000000000000752827000000000000007528279900000000000000000000Consumidor Final              000000000068000000000000068000000000000000000000000000000000000000000000000000000000000000000000000000000000000000000000PES00010000001N00000000000000020170610
201705310060000600000000000000752828000000000000007528289900000000000000000000Consumidor Final              000000000068000000000000068000000000000000000000000000000000000000000000000000000000000000000000000000000000000000000000PES00010000001N00000000000000020170610
201705310060000600000000000000752829000000000000007528299900000000000000000000Consumidor Final              000000000073800000000000073800000000000000000000000000000000000000000000000000000000000000000000000000000000000000000000PES00010000001N00000000000000020170610
201705310060000600000000000000752830000000000000007528309900000000000000000000Consumidor Final              000000000068000000000000068000000000000000000000000000000000000000000000000000000000000000000000000000000000000000000000PES00010000001N00000000000000020170610
201705310060000600000000000000752831000000000000007528319900000000000000000000Consumidor Final              000000000073800000000000073800000000000000000000000000000000000000000000000000000000000000000000000000000000000000000000PES00010000001N00000000000000020170610
201705310060000600000000000000752832000000000000007528329900000000000000000000Consumidor Final              000000000073800000000000073800000000000000000000000000000000000000000000000000000000000000000000000000000000000000000000PES00010000001N00000000000000020170610
201705310060000700000000000000533052000000000000005330529900000000000000000000Consumidor Final              000000000068000000000000068000000000000000000000000000000000000000000000000000000000000000000000000000000000000000000000PES00010000001N00000000000000020170610
201705310060000700000000000000533053000000000000005330539900000000000000000000Consumidor Final              000000000068000000000000068000000000000000000000000000000000000000000000000000000000000000000000000000000000000000000000PES00010000001N00000000000000020170610
201705310060000700000000000000533054000000000000005330549900000000000000000000Consumidor Final              000000000068000000000000068000000000000000000000000000000000000000000000000000000000000000000000000000000000000000000000PES00010000001N00000000000000020170610
201705310060000300000000000000117681000000000000001176819900000000000000000000Consumidor Final              000000000045000000000000045000000000000000000000000000000000000000000000000000000000000000000000000000000000000000000000PES00010000001N00000000000000020170610
201705310060000700000000000000533055000000000000005330559900000000000000000000Consumidor Final              000000000068000000000000068000000000000000000000000000000000000000000000000000000000000000000000000000000000000000000000PES00010000001N00000000000000020170610
201705310060000700000000000000533056000000000000005330569900000000000000000000Consumidor Final              000000000073800000000000073800000000000000000000000000000000000000000000000000000000000000000000000000000000000000000000PES00010000001N00000000000000020170610
201705310060000700000000000000533057000000000000005330579900000000000000000000Consumidor Final              000000000081000000000000081000000000000000000000000000000000000000000000000000000000000000000000000000000000000000000000PES00010000001N00000000000000020170610
201705310060000700000000000000533058000000000000005330589900000000000000000000Consumidor Final              000000000072000000000000072000000000000000000000000000000000000000000000000000000000000000000000000000000000000000000000PES00010000001N00000000000000020170610
201705310060000700000000000000533059000000000000005330599900000000000000000000Consumidor Final              000000000068000000000000068000000000000000000000000000000000000000000000000000000000000000000000000000000000000000000000PES00010000001N00000000000000020170610
201705310060000700000000000000533060000000000000005330609900000000000000000000Consumidor Final              000000000068000000000000068000000000000000000000000000000000000000000000000000000000000000000000000000000000000000000000PES00010000001N00000000000000020170610
201705310060000700000000000000533061000000000000005330619900000000000000000000Consumidor Final              000000000038000000000000038000000000000000000000000000000000000000000000000000000000000000000000000000000000000000000000PES00010000001N00000000000000020170610
201705310060000700000000000000533064000000000000005330649900000000000000000000Consumidor Final              000000000068000000000000068000000000000000000000000000000000000000000000000000000000000000000000000000000000000000000000PES00010000001N00000000000000020170610
201705310060000600000000000000752854000000000000007528549900000000000000000000Consumidor Final              000000000084000000000000084000000000000000000000000000000000000000000000000000000000000000000000000000000000000000000000PES00010000001N00000000000000020170610
201705310060000600000000000000752855000000000000007528559900000000000000000000Consumidor Final              000000000089000000000000089000000000000000000000000000000000000000000000000000000000000000000000000000000000000000000000PES00010000001N00000000000000020170610
201705310060000600000000000000752856000000000000007528569900000000000000000000Consumidor Final              000000000081000000000000081000000000000000000000000000000000000000000000000000000000000000000000000000000000000000000000PES00010000001N00000000000000020170610
201705310060000600000000000000752857000000000000007528579900000000000000000000Consumidor Final              000000000068000000000000068000000000000000000000000000000000000000000000000000000000000000000000000000000000000000000000PES00010000001N00000000000000020170610
201705310060000600000000000000752858000000000000007528589900000000000000000000Consumidor Final              000000000068000000000000068000000000000000000000000000000000000000000000000000000000000000000000000000000000000000000000PES00010000001N00000000000000020170610
201705310060000300000000000000117881000000000000001178819900000000000000000000Consumidor Final              000000000068000000000000068000000000000000000000000000000000000000000000000000000000000000000000000000000000000000000000PES00010000001N00000000000000020170610
201705310060000600000000000000752663000000000000007526639900000000000000000000Consumidor Final              000000000068000000000000068000000000000000000000000000000000000000000000000000000000000000000000000000000000000000000000PES00010000001N00000000000000020170610
201705310060000600000000000000752664000000000000007526649900000000000000000000Consumidor Final              000000000068000000000000068000000000000000000000000000000000000000000000000000000000000000000000000000000000000000000000PES00010000001N00000000000000020170610
201705310060000600000000000000752694000000000000007526949900000000000000000000Consumidor Final              000000000081000000000000081000000000000000000000000000000000000000000000000000000000000000000000000000000000000000000000PES00010000001N00000000000000020170610
201705310060000700000000000000532960000000000000005329609900000000000000000000Consumidor Final              000000000068000000000000068000000000000000000000000000000000000000000000000000000000000000000000000000000000000000000000PES00010000001N00000000000000020170610
201705310060000600000000000000752699000000000000007526999900000000000000000000Consumidor Final              000000000068000000000000068000000000000000000000000000000000000000000000000000000000000000000000000000000000000000000000PES00010000001N00000000000000020170610
201705310060000700000000000000532961000000000000005329619900000000000000000000Consumidor Final              000000000068000000000000068000000000000000000000000000000000000000000000000000000000000000000000000000000000000000000000PES00010000001N00000000000000020170610
201705310060000700000000000000532962000000000000005329629000000000099999999999Consumidor Final              000000000105300000000000105300000000000000000000000000000000000000000000000000000000000000000000000000000000000000000000PES00010000001N00000000000000020170610
201705310060000700000000000000532963000000000000005329639900000000000000000000Consumidor Final              000000000068000000000000068000000000000000000000000000000000000000000000000000000000000000000000000000000000000000000000PES00010000001N00000000000000020170610
201705310060000700000000000000532964000000000000005329649900000000000000000000Consumidor Final              000000000068000000000000068000000000000000000000000000000000000000000000000000000000000000000000000000000000000000000000PES00010000001N00000000000000020170610
201705310060000700000000000000532965000000000000005329659900000000000000000000Consumidor Final              000000000078200000000000078200000000000000000000000000000000000000000000000000000000000000000000000000000000000000000000PES00010000001N00000000000000020170610
201705310060000700000000000000532966000000000000005329669900000000000000000000Consumidor Final              000000000068000000000000068000000000000000000000000000000000000000000000000000000000000000000000000000000000000000000000PES00010000001N00000000000000020170610
201705310060000700000000000000532967000000000000005329679900000000000000000000Consumidor Final              000000000089000000000000089000000000000000000000000000000000000000000000000000000000000000000000000000000000000000000000PES00010000001N00000000000000020170610
201705310060000700000000000000532968000000000000005329689900000000000000000000Consumidor Final              000000000089000000000000089000000000000000000000000000000000000000000000000000000000000000000000000000000000000000000000PES00010000001N00000000000000020170610
201705310060000700000000000000532969000000000000005329699900000000000000000000Consumidor Final              000000000068000000000000068000000000000000000000000000000000000000000000000000000000000000000000000000000000000000000000PES00010000001N00000000000000020170610
201705310060000700000000000000532992000000000000005329929900000000000000000000Consumidor Final              000000000068000000000000068000000000000000000000000000000000000000000000000000000000000000000000000000000000000000000000PES00010000001N00000000000000020170610
201705310060000800000000000000182735000000000000001827359900000000000000000000Consumidor Final              000000000058000000000000058000000000000000000000000000000000000000000000000000000000000000000000000000000000000000000000PES00010000001N00000000000000020170610
201705310060000600000000000000752744000000000000007527449900000000000000000000Consumidor Final              000000000072000000000000072000000000000000000000000000000000000000000000000000000000000000000000000000000000000000000000PES00010000001N00000000000000020170610
201705310060000800000000000000182736000000000000001827369900000000000000000000Consumidor Final              000000000058000000000000058000000000000000000000000000000000000000000000000000000000000000000000000000000000000000000000PES00010000001N00000000000000020170610
201705310060000800000000000000182737000000000000001827379900000000000000000000Consumidor Final              000000000058000000000000058000000000000000000000000000000000000000000000000000000000000000000000000000000000000000000000PES00010000001N00000000000000020170610
201705310060000600000000000000752745000000000000007527459900000000000000000000Consumidor Final              000000000068000000000000068000000000000000000000000000000000000000000000000000000000000000000000000000000000000000000000PES00010000001N00000000000000020170610
201705310510000100000000000000000593000000000000000005938000000000033644674059NECHO SA                      000000000068000000000000068000000000000000000000000000000000000000000000000000000000000000000000000000000000000000000000PES00010000001N00000000000000000000000
201705310060000600000000000000752746000000000000007527469900000000000000000000Consumidor Final              000000000072000000000000072000000000000000000000000000000000000000000000000000000000000000000000000000000000000000000000PES00010000001N00000000000000020170610
201705310060000800000000000000182738000000000000001827389900000000000000000000Consumidor Final              000000000058000000000000058000000000000000000000000000000000000000000000000000000000000000000000000000000000000000000000PES00010000001N00000000000000020170610
201705310060000800000000000000182740000000000000001827409900000000000000000000Consumidor Final              000000000058000000000000058000000000000000000000000000000000000000000000000000000000000000000000000000000000000000000000PES00010000001N00000000000000020170610
201705310060000800000000000000182741000000000000001827419900000000000000000000Consumidor Final              000000000058000000000000058000000000000000000000000000000000000000000000000000000000000000000000000000000000000000000000PES00010000001N00000000000000020170610
201705310060000600000000000000752783000000000000007527839900000000000000000000Consumidor Final              000000000068000000000000068000000000000000000000000000000000000000000000000000000000000000000000000000000000000000000000PES00010000001N00000000000000020170610
201705310510000100000000000000000596000000000000000005968000000000033710787439FULL CONGRESS DIVISION TURISMO000000000060000000000000060000000000000000000000000000000000000000000000000000000000000000000000000000000000000000000000PES00010000001N00000000000000000000000
201705310060000600000000000000752796000000000000007527969900000000000000000000Consumidor Final              000000000084000000000000084000000000000000000000000000000000000000000000000000000000000000000000000000000000000000000000PES00010000001N00000000000000020170610
201705310060000600000000000000752797000000000000007527979900000000000000000000Consumidor Final              000000000068000000000000068000000000000000000000000000000000000000000000000000000000000000000000000000000000000000000000PES00010000001N00000000000000020170610
201705310060000600000000000000752798000000000000007527989900000000000000000000Consumidor Final              000000000081000000000000081000000000000000000000000000000000000000000000000000000000000000000000000000000000000000000000PES00010000001N00000000000000020170610
201705310060000600000000000000752801000000000000007528019900000000000000000000Consumidor Final              000000000068000000000000068000000000000000000000000000000000000000000000000000000000000000000000000000000000000000000000PES00010000001N00000000000000020170610
201705310060000600000000000000752802000000000000007528029900000000000000000000Consumidor Final              000000000069000000000000069000000000000000000000000000000000000000000000000000000000000000000000000000000000000000000000PES00010000001N00000000000000020170610
201705310060000600000000000000752803000000000000007528039900000000000000000000Consumidor Final              000000000068000000000000068000000000000000000000000000000000000000000000000000000000000000000000000000000000000000000000PES00010000001N00000000000000020170610
201705310060000600000000000000752804000000000000007528049900000000000000000000Consumidor Final              000000000068000000000000068000000000000000000000000000000000000000000000000000000000000000000000000000000000000000000000PES00010000001N00000000000000020170610
201705310060000600000000000000752805000000000000007528059900000000000000000000Consumidor Final              000000000068000000000000068000000000000000000000000000000000000000000000000000000000000000000000000000000000000000000000PES00010000001N00000000000000020170610
201705310060000600000000000000752806000000000000007528069900000000000000000000Consumidor Final              000000000068000000000000068000000000000000000000000000000000000000000000000000000000000000000000000000000000000000000000PES00010000001N00000000000000020170610
201705310060000600000000000000752821000000000000007528219900000000000000000000Consumidor Final              000000000068000000000000068000000000000000000000000000000000000000000000000000000000000000000000000000000000000000000000PES00010000001N00000000000000020170610
201705310060000100000000000000201517000000000000002015179900000000000000000000Consumidor Final              000000000068000000000000068000000000000000000000000000000000000000000000000000000000000000000000000000000000000000000000PES00010000001N00000000000000020170610
201705310060000100000000000000201518000000000000002015189900000000000000000000Consumidor Final              000000000070000000000000070000000000000000000000000000000000000000000000000000000000000000000000000000000000000000000000PES00010000001N00000000000000020170610
201705310060000100000000000000201519000000000000002015199900000000000000000000Consumidor Final              000000000068000000000000068000000000000000000000000000000000000000000000000000000000000000000000000000000000000000000000PES00010000001N00000000000000020170610
201705310060000600000000000000752848000000000000007528489900000000000000000000Consumidor Final              000000000068000000000000068000000000000000000000000000000000000000000000000000000000000000000000000000000000000000000000PES00010000001N00000000000000020170610
201705310060000600000000000000752849000000000000007528499900000000000000000000Consumidor Final              000000000079000000000000079000000000000000000000000000000000000000000000000000000000000000000000000000000000000000000000PES00010000001N00000000000000020170610
201705310060000600000000000000752850000000000000007528509900000000000000000000Consumidor Final              000000000073800000000000073800000000000000000000000000000000000000000000000000000000000000000000000000000000000000000000PES00010000001N00000000000000020170610
201705310060000700000000000000533062000000000000005330629900000000000000000000Consumidor Final              000000000068000000000000068000000000000000000000000000000000000000000000000000000000000000000000000000000000000000000000PES00010000001N00000000000000020170610
201705310060000700000000000000533063000000000000005330639900000000000000000000Consumidor Final              000000000068000000000000068000000000000000000000000000000000000000000000000000000000000000000000000000000000000000000000PES00010000001N00000000000000020170610
201705310060000800000000000000182716000000000000001827169900000000000000000000Consumidor Final              000000000058000000000000058000000000000000000000000000000000000000000000000000000000000000000000000000000000000000000000PES00010000001N00000000000000020170610
201705310060000800000000000000182717000000000000001827179900000000000000000000Consumidor Final              000000000058000000000000058000000000000000000000000000000000000000000000000000000000000000000000000000000000000000000000PES00010000001N00000000000000020170610
201705310060000800000000000000182718000000000000001827189900000000000000000000Consumidor Final              000000000023000000000000023000000000000000000000000000000000000000000000000000000000000000000000000000000000000000000000PES00010000001N00000000000000020170610
201705310060000800000000000000182719000000000000001827199900000000000000000000Consumidor Final              000000000058000000000000058000000000000000000000000000000000000000000000000000000000000000000000000000000000000000000000PES00010000001N00000000000000020170610
201705310060000800000000000000182720000000000000001827209900000000000000000000Consumidor Final              000000000058000000000000058000000000000000000000000000000000000000000000000000000000000000000000000000000000000000000000PES00010000001N00000000000000020170610
201705310060000800000000000000182721000000000000001827219900000000000000000000Consumidor Final              000000000058000000000000058000000000000000000000000000000000000000000000000000000000000000000000000000000000000000000000PES00010000001N00000000000000020170610
201705310060000700000000000000532937000000000000005329379900000000000000000000Consumidor Final              000000000093000000000000093000000000000000000000000000000000000000000000000000000000000000000000000000000000000000000000PES00010000001N00000000000000020170610
201705310060000600000000000000752682000000000000007526829900000000000000000000Consumidor Final              000000000094000000000000094000000000000000000000000000000000000000000000000000000000000000000000000000000000000000000000PES00010000001N00000000000000020170610
201705310060000600000000000000752662000000000000007526629000000000099999999999Consumidor Final              000000000122000000000000122000000000000000000000000000000000000000000000000000000000000000000000000000000000000000000000PES00010000001N00000000000000020170610
201705310060000800000000000000182722000000000000001827229900000000000000000000Consumidor Final              000000000058000000000000058000000000000000000000000000000000000000000000000000000000000000000000000000000000000000000000PES00010000001N00000000000000020170610
201705310060000800000000000000182723000000000000001827239900000000000000000000Consumidor Final              000000000058000000000000058000000000000000000000000000000000000000000000000000000000000000000000000000000000000000000000PES00010000001N00000000000000020170610
201705310060000600000000000000752665000000000000007526659900000000000000000000Consumidor Final              000000000074000000000000074000000000000000000000000000000000000000000000000000000000000000000000000000000000000000000000PES00010000001N00000000000000020170610
201705310060000600000000000000752666000000000000007526669900000000000000000000Consumidor Final              000000000068000000000000068000000000000000000000000000000000000000000000000000000000000000000000000000000000000000000000PES00010000001N00000000000000020170610
201705310060000600000000000000752667000000000000007526679900000000000000000000Consumidor Final              000000000068000000000000068000000000000000000000000000000000000000000000000000000000000000000000000000000000000000000000PES00010000001N00000000000000020170610
201705310060000600000000000000752668000000000000007526689900000000000000000000Consumidor Final              000000000060000000000000060000000000000000000000000000000000000000000000000000000000000000000000000000000000000000000000PES00010000001N00000000000000020170610
201705310060000600000000000000752669000000000000007526699900000000000000000000Consumidor Final              000000000068000000000000068000000000000000000000000000000000000000000000000000000000000000000000000000000000000000000000PES00010000001N00000000000000020170610
