201702280060000900000000000000037301000000000000000373019900000000000000000000Consumidor Final              000000000068000000000000068000000000000000000000000000000000000000000000000000000000000000000000000000000000000000000000PES00010000001N00000000000000020170310
201702280060000700000000000000516726000000000000005167269900000000000000000000Consumidor Final              000000000068000000000000068000000000000000000000000000000000000000000000000000000000000000000000000000000000000000000000PES00010000001N00000000000000020170310
201702280060000700000000000000516727000000000000005167279900000000000000000000Consumidor Final              000000000068000000000000068000000000000000000000000000000000000000000000000000000000000000000000000000000000000000000000PES00010000001N00000000000000020170310
201702280060000700000000000000516728000000000000005167289900000000000000000000Consumidor Final              000000000068000000000000068000000000000000000000000000000000000000000000000000000000000000000000000000000000000000000000PES00010000001N00000000000000020170310
201702280060000700000000000000516729000000000000005167299900000000000000000000Consumidor Final              000000000068000000000000068000000000000000000000000000000000000000000000000000000000000000000000000000000000000000000000PES00010000001N00000000000000020170310
201702280060000700000000000000516730000000000000005167309900000000000000000000Consumidor Final              000000000042400000000000042400000000000000000000000000000000000000000000000000000000000000000000000000000000000000000000PES00010000001N00000000000000020170310
201702280060000700000000000000516731000000000000005167319900000000000000000000Consumidor Final              000000000096000000000000096000000000000000000000000000000000000000000000000000000000000000000000000000000000000000000000PES00010000001N00000000000000020170310
201702280060000700000000000000516732000000000000005167329900000000000000000000Consumidor Final              000000000096000000000000096000000000000000000000000000000000000000000000000000000000000000000000000000000000000000000000PES00010000001N00000000000000020170310
201702280060000800000000000000177235000000000000001772359900000000000000000000Consumidor Final              000000000068000000000000068000000000000000000000000000000000000000000000000000000000000000000000000000000000000000000000PES00010000001N00000000000000020170310
201702280060000800000000000000177236000000000000001772369900000000000000000000Consumidor Final              000000000058000000000000058000000000000000000000000000000000000000000000000000000000000000000000000000000000000000000000PES00010000001N00000000000000020170310
201702280060000800000000000000177237000000000000001772379900000000000000000000Consumidor Final              000000000058000000000000058000000000000000000000000000000000000000000000000000000000000000000000000000000000000000000000PES00010000001N00000000000000020170310
201702280060000700000000000000516680000000000000005166809900000000000000000000Consumidor Final              000000000066000000000000066000000000000000000000000000000000000000000000000000000000000000000000000000000000000000000000PES00010000001N00000000000000020170310
201702280060000700000000000000516681000000000000005166819900000000000000000000Consumidor Final              000000000068000000000000068000000000000000000000000000000000000000000000000000000000000000000000000000000000000000000000PES00010000001N00000000000000020170310
201702280060000700000000000000516682000000000000005166829900000000000000000000Consumidor Final              000000000067000000000000067000000000000000000000000000000000000000000000000000000000000000000000000000000000000000000000PES00010000001N00000000000000020170310
201702280060000700000000000000516683000000000000005166839900000000000000000000Consumidor Final              000000000068000000000000068000000000000000000000000000000000000000000000000000000000000000000000000000000000000000000000PES00010000001N00000000000000020170310
201702280060000700000000000000516560000000000000005165609900000000000000000000Consumidor Final              000000000068000000000000068000000000000000000000000000000000000000000000000000000000000000000000000000000000000000000000PES00010000001N00000000000000020170310
201702280060000700000000000000516561000000000000005165619900000000000000000000Consumidor Final              000000000068000000000000068000000000000000000000000000000000000000000000000000000000000000000000000000000000000000000000PES00010000001N00000000000000020170310
201702280060000700000000000000516569000000000000005165699900000000000000000000Consumidor Final              000000000068000000000000068000000000000000000000000000000000000000000000000000000000000000000000000000000000000000000000PES00010000001N00000000000000020170310
201702280060000700000000000000516570000000000000005165709900000000000000000000Consumidor Final              000000000068000000000000068000000000000000000000000000000000000000000000000000000000000000000000000000000000000000000000PES00010000001N00000000000000020170310
201702280060000700000000000000516571000000000000005165719900000000000000000000Consumidor Final              000000000068000000000000068000000000000000000000000000000000000000000000000000000000000000000000000000000000000000000000PES00010000001N00000000000000020170310
201702280060000700000000000000516572000000000000005165729900000000000000000000Consumidor Final              000000000068000000000000068000000000000000000000000000000000000000000000000000000000000000000000000000000000000000000000PES00010000001N00000000000000020170310
201702280060000700000000000000516573000000000000005165739900000000000000000000Consumidor Final              000000000068000000000000068000000000000000000000000000000000000000000000000000000000000000000000000000000000000000000000PES00010000001N00000000000000020170310
201702280060000700000000000000516574000000000000005165749900000000000000000000Consumidor Final              000000000068000000000000068000000000000000000000000000000000000000000000000000000000000000000000000000000000000000000000PES00010000001N00000000000000020170310
201702280060000700000000000000516590000000000000005165909900000000000000000000Consumidor Final              000000000068000000000000068000000000000000000000000000000000000000000000000000000000000000000000000000000000000000000000PES00010000001N00000000000000020170310
201702280060000700000000000000516591000000000000005165919900000000000000000000Consumidor Final              000000000081000000000000081000000000000000000000000000000000000000000000000000000000000000000000000000000000000000000000PES00010000001N00000000000000020170310
201702280060000800000000000000177190000000000000001771909900000000000000000000Consumidor Final              000000000058000000000000058000000000000000000000000000000000000000000000000000000000000000000000000000000000000000000000PES00010000001N00000000000000020170310
201702280060000700000000000000516606000000000000005166069900000000000000000000Consumidor Final              000000000068000000000000068000000000000000000000000000000000000000000000000000000000000000000000000000000000000000000000PES00010000001N00000000000000020170310
201702280060000700000000000000516607000000000000005166079900000000000000000000Consumidor Final              000000000068000000000000068000000000000000000000000000000000000000000000000000000000000000000000000000000000000000000000PES00010000001N00000000000000020170310
201702280060000700000000000000516608000000000000005166089900000000000000000000Consumidor Final              000000000068000000000000068000000000000000000000000000000000000000000000000000000000000000000000000000000000000000000000PES00010000001N00000000000000020170310
201702280060000700000000000000516609000000000000005166099900000000000000000000Consumidor Final              000000000081000000000000081000000000000000000000000000000000000000000000000000000000000000000000000000000000000000000000PES00010000001N00000000000000020170310
201702280060000700000000000000516610000000000000005166109900000000000000000000Consumidor Final              000000000068000000000000068000000000000000000000000000000000000000000000000000000000000000000000000000000000000000000000PES00010000001N00000000000000020170310
201702280060000700000000000000516611000000000000005166119900000000000000000000Consumidor Final              000000000068000000000000068000000000000000000000000000000000000000000000000000000000000000000000000000000000000000000000PES00010000001N00000000000000020170310
201702280060000700000000000000516615000000000000005166159900000000000000000000Consumidor Final              000000000078200000000000078200000000000000000000000000000000000000000000000000000000000000000000000000000000000000000000PES00010000001N00000000000000020170310
201702280060000700000000000000516616000000000000005166169900000000000000000000Consumidor Final              000000000089000000000000089000000000000000000000000000000000000000000000000000000000000000000000000000000000000000000000PES00010000001N00000000000000020170310
201702280060000700000000000000516617000000000000005166179900000000000000000000Consumidor Final              000000000078200000000000078200000000000000000000000000000000000000000000000000000000000000000000000000000000000000000000PES00010000001N00000000000000020170310
201702280060000700000000000000516630000000000000005166309900000000000000000000Consumidor Final              000000000065200000000000065200000000000000000000000000000000000000000000000000000000000000000000000000000000000000000000PES00010000001N00000000000000020170310
201702280060000600000000000000735711000000000000007357119900000000000000000000Consumidor Final              000000000060000000000000060000000000000000000000000000000000000000000000000000000000000000000000000000000000000000000000PES00010000001N00000000000000020170310
201702280060000600000000000000735712000000000000007357129900000000000000000000Consumidor Final              000000000060000000000000060000000000000000000000000000000000000000000000000000000000000000000000000000000000000000000000PES00010000001N00000000000000020170310
201702280060000600000000000000735713000000000000007357139900000000000000000000Consumidor Final              000000000068000000000000068000000000000000000000000000000000000000000000000000000000000000000000000000000000000000000000PES00010000001N00000000000000020170310
201702280060000600000000000000735714000000000000007357149900000000000000000000Consumidor Final              000000000060000000000000060000000000000000000000000000000000000000000000000000000000000000000000000000000000000000000000PES00010000001N00000000000000020170310
201702280060000700000000000000516613000000000000005166139900000000000000000000Consumidor Final              000000000068000000000000068000000000000000000000000000000000000000000000000000000000000000000000000000000000000000000000PES00010000001N00000000000000020170310
201702280060000700000000000000516614000000000000005166149900000000000000000000Consumidor Final              000000000068000000000000068000000000000000000000000000000000000000000000000000000000000000000000000000000000000000000000PES00010000001N00000000000000020170310
201702280060000600000000000000735721000000000000007357219900000000000000000000Consumidor Final              000000000068000000000000068000000000000000000000000000000000000000000000000000000000000000000000000000000000000000000000PES00010000001N00000000000000020170310
201702280060000600000000000000735722000000000000007357229900000000000000000000Consumidor Final              000000000087000000000000087000000000000000000000000000000000000000000000000000000000000000000000000000000000000000000000PES00010000001N00000000000000020170310
201702280060000600000000000000735733000000000000007357339900000000000000000000Consumidor Final              000000000068000000000000068000000000000000000000000000000000000000000000000000000000000000000000000000000000000000000000PES00010000001N00000000000000020170310
201702280060000600000000000000735734000000000000007357349900000000000000000000Consumidor Final              000000000081000000000000081000000000000000000000000000000000000000000000000000000000000000000000000000000000000000000000PES00010000001N00000000000000020170310
201702280060000600000000000000735740000000000000007357409900000000000000000000Consumidor Final              000000000068000000000000068000000000000000000000000000000000000000000000000000000000000000000000000000000000000000000000PES00010000001N00000000000000020170310
201702280060000800000000000000177214000000000000001772149900000000000000000000Consumidor Final              000000000058000000000000058000000000000000000000000000000000000000000000000000000000000000000000000000000000000000000000PES00010000001N00000000000000020170310
201702280060000600000000000000735762000000000000007357629900000000000000000000Consumidor Final              000000000068000000000000068000000000000000000000000000000000000000000000000000000000000000000000000000000000000000000000PES00010000001N00000000000000020170310
201702280060000800000000000000177215000000000000001772159900000000000000000000Consumidor Final              000000000058000000000000058000000000000000000000000000000000000000000000000000000000000000000000000000000000000000000000PES00010000001N00000000000000020170310
201702280060000800000000000000177216000000000000001772169900000000000000000000Consumidor Final              000000000058000000000000058000000000000000000000000000000000000000000000000000000000000000000000000000000000000000000000PES00010000001N00000000000000020170310
201702280060000800000000000000177217000000000000001772179900000000000000000000Consumidor Final              000000000058000000000000058000000000000000000000000000000000000000000000000000000000000000000000000000000000000000000000PES00010000001N00000000000000020170310
201702280060000800000000000000177218000000000000001772189900000000000000000000Consumidor Final              000000000058000000000000058000000000000000000000000000000000000000000000000000000000000000000000000000000000000000000000PES00010000001N00000000000000020170310
201702280060000700000000000000516549000000000000005165499900000000000000000000Consumidor Final              000000000033000000000000033000000000000000000000000000000000000000000000000000000000000000000000000000000000000000000000PES00010000001N00000000000000020170310
201702280060000700000000000000516550000000000000005165509900000000000000000000Consumidor Final              000000000084000000000000084000000000000000000000000000000000000000000000000000000000000000000000000000000000000000000000PES00010000001N00000000000000020170310
201702280060000700000000000000516559000000000000005165599900000000000000000000Consumidor Final              000000000076000000000000076000000000000000000000000000000000000000000000000000000000000000000000000000000000000000000000PES00010000001N00000000000000020170310
201702280060000700000000000000516602000000000000005166029900000000000000000000Consumidor Final              000000000081000000000000081000000000000000000000000000000000000000000000000000000000000000000000000000000000000000000000PES00010000001N00000000000000020170310
201702280060000800000000000000177197000000000000001771979900000000000000000000Consumidor Final              000000000058000000000000058000000000000000000000000000000000000000000000000000000000000000000000000000000000000000000000PES00010000001N00000000000000020170310
201702280060000800000000000000177198000000000000001771989900000000000000000000Consumidor Final              000000000058000000000000058000000000000000000000000000000000000000000000000000000000000000000000000000000000000000000000PES00010000001N00000000000000020170310
201702280060000800000000000000177199000000000000001771999900000000000000000000Consumidor Final              000000000058000000000000058000000000000000000000000000000000000000000000000000000000000000000000000000000000000000000000PES00010000001N00000000000000020170310
201702280060000800000000000000177200000000000000001772009900000000000000000000Consumidor Final              000000000058000000000000058000000000000000000000000000000000000000000000000000000000000000000000000000000000000000000000PES00010000001N00000000000000020170310
201702280060000700000000000000516612000000000000005166129900000000000000000000Consumidor Final              000000000068000000000000068000000000000000000000000000000000000000000000000000000000000000000000000000000000000000000000PES00010000001N00000000000000020170310
201702280060000900000000000000037298000000000000000372989900000000000000000000Consumidor Final              000000000068000000000000068000000000000000000000000000000000000000000000000000000000000000000000000000000000000000000000PES00010000001N00000000000000020170310
201702280060000700000000000000516620000000000000005166209900000000000000000000Consumidor Final              000000000068000000000000068000000000000000000000000000000000000000000000000000000000000000000000000000000000000000000000PES00010000001N00000000000000020170310
201702280060000700000000000000516621000000000000005166219900000000000000000000Consumidor Final              000000000073800000000000073800000000000000000000000000000000000000000000000000000000000000000000000000000000000000000000PES00010000001N00000000000000020170310
201702280060000700000000000000516622000000000000005166229900000000000000000000Consumidor Final              000000000068000000000000068000000000000000000000000000000000000000000000000000000000000000000000000000000000000000000000PES00010000001N00000000000000020170310
201702280060000600000000000000735684000000000000007356849900000000000000000000Consumidor Final              000000000068000000000000068000000000000000000000000000000000000000000000000000000000000000000000000000000000000000000000PES00010000001N00000000000000020170310
201702280060000600000000000000735685000000000000007356859000000000000488450087JOSEPH KOHN                   000000000104000000000000104000000000000000000000000000000000000000000000000000000000000000000000000000000000000000000000PES00010000001N00000000000000020170310
201702280060000600000000000000735686000000000000007356869900000000000000000000Consumidor Final              000000000066000000000000066000000000000000000000000000000000000000000000000000000000000000000000000000000000000000000000PES00010000001N00000000000000020170310
201702280060000800000000000000177193000000000000001771939900000000000000000000Consumidor Final              000000000058000000000000058000000000000000000000000000000000000000000000000000000000000000000000000000000000000000000000PES00010000001N00000000000000020170310
201702280060000800000000000000177194000000000000001771949900000000000000000000Consumidor Final              000000000033000000000000033000000000000000000000000000000000000000000000000000000000000000000000000000000000000000000000PES00010000001N00000000000000020170310
201702280060000600000000000000735687000000000000007356879900000000000000000000Consumidor Final              000000000068000000000000068000000000000000000000000000000000000000000000000000000000000000000000000000000000000000000000PES00010000001N00000000000000020170310
201702280060000600000000000000735688000000000000007356889900000000000000000000Consumidor Final              000000000068000000000000068000000000000000000000000000000000000000000000000000000000000000000000000000000000000000000000PES00010000001N00000000000000020170310
201702280060000600000000000000735689000000000000007356899900000000000000000000Consumidor Final              000000000073800000000000073800000000000000000000000000000000000000000000000000000000000000000000000000000000000000000000PES00010000001N00000000000000020170310
201702280060000600000000000000735690000000000000007356909900000000000000000000Consumidor Final              000000000068000000000000068000000000000000000000000000000000000000000000000000000000000000000000000000000000000000000000PES00010000001N00000000000000020170310
201702280060000600000000000000735691000000000000007356919900000000000000000000Consumidor Final              000000000068000000000000068000000000000000000000000000000000000000000000000000000000000000000000000000000000000000000000PES00010000001N00000000000000020170310
201702280060000700000000000000516541000000000000005165419900000000000000000000Consumidor Final              000000000059000000000000059000000000000000000000000000000000000000000000000000000000000000000000000000000000000000000000PES00010000001N00000000000000020170310
201702280060000700000000000000516542000000000000005165429900000000000000000000Consumidor Final              000000000068000000000000068000000000000000000000000000000000000000000000000000000000000000000000000000000000000000000000PES00010000001N00000000000000020170310
201702280060000700000000000000516543000000000000005165439900000000000000000000Consumidor Final              000000000068000000000000068000000000000000000000000000000000000000000000000000000000000000000000000000000000000000000000PES00010000001N00000000000000020170310
201702280060000700000000000000516544000000000000005165449900000000000000000000Consumidor Final              000000000087900000000000087900000000000000000000000000000000000000000000000000000000000000000000000000000000000000000000PES00010000001N00000000000000020170310
201702280060000700000000000000516545000000000000005165459900000000000000000000Consumidor Final              000000000068000000000000068000000000000000000000000000000000000000000000000000000000000000000000000000000000000000000000PES00010000001N00000000000000020170310
201702280060000700000000000000516546000000000000005165469900000000000000000000Consumidor Final              000000000068000000000000068000000000000000000000000000000000000000000000000000000000000000000000000000000000000000000000PES00010000001N00000000000000020170310
201702280060000700000000000000516547000000000000005165479900000000000000000000Consumidor Final              000000000032000000000000032000000000000000000000000000000000000000000000000000000000000000000000000000000000000000000000PES00010000001N00000000000000020170310
201702280060000700000000000000516548000000000000005165489900000000000000000000Consumidor Final              000000000035800000000000035800000000000000000000000000000000000000000000000000000000000000000000000000000000000000000000PES00010000001N00000000000000020170310
201702280060000700000000000000516551000000000000005165519900000000000000000000Consumidor Final              000000000066000000000000066000000000000000000000000000000000000000000000000000000000000000000000000000000000000000000000PES00010000001N00000000000000020170310
201702280060000700000000000000516552000000000000005165529900000000000000000000Consumidor Final              000000000068000000000000068000000000000000000000000000000000000000000000000000000000000000000000000000000000000000000000PES00010000001N00000000000000020170310
201702280060000700000000000000516553000000000000005165539900000000000000000000Consumidor Final              000000000068000000000000068000000000000000000000000000000000000000000000000000000000000000000000000000000000000000000000PES00010000001N00000000000000020170310
201702280060000700000000000000516554000000000000005165549900000000000000000000Consumidor Final              000000000088000000000000088000000000000000000000000000000000000000000000000000000000000000000000000000000000000000000000PES00010000001N00000000000000020170310
201702280060000800000000000000177180000000000000001771809900000000000000000000Consumidor Final              000000000058000000000000058000000000000000000000000000000000000000000000000000000000000000000000000000000000000000000000PES00010000001N00000000000000020170310
201702280060000800000000000000177181000000000000001771819900000000000000000000Consumidor Final              000000000058000000000000058000000000000000000000000000000000000000000000000000000000000000000000000000000000000000000000PES00010000001N00000000000000020170310
201702280060000800000000000000177182000000000000001771829900000000000000000000Consumidor Final              000000000058000000000000058000000000000000000000000000000000000000000000000000000000000000000000000000000000000000000000PES00010000001N00000000000000020170310
201702280060000700000000000000516557000000000000005165579900000000000000000000Consumidor Final              000000000068000000000000068000000000000000000000000000000000000000000000000000000000000000000000000000000000000000000000PES00010000001N00000000000000020170310
201702280060000700000000000000516558000000000000005165589900000000000000000000Consumidor Final              000000000073800000000000073800000000000000000000000000000000000000000000000000000000000000000000000000000000000000000000PES00010000001N00000000000000020170310
201702280060000800000000000000177183000000000000001771839900000000000000000000Consumidor Final              000000000033000000000000033000000000000000000000000000000000000000000000000000000000000000000000000000000000000000000000PES00010000001N00000000000000020170310
201702280060000800000000000000177184000000000000001771849900000000000000000000Consumidor Final              000000000023000000000000023000000000000000000000000000000000000000000000000000000000000000000000000000000000000000000000PES00010000001N00000000000000020170310
201702280060000700000000000000516555000000000000005165559900000000000000000000Consumidor Final              000000000073800000000000073800000000000000000000000000000000000000000000000000000000000000000000000000000000000000000000PES00010000001N00000000000000020170310
201702280060000700000000000000516556000000000000005165569900000000000000000000Consumidor Final              000000000068000000000000068000000000000000000000000000000000000000000000000000000000000000000000000000000000000000000000PES00010000001N00000000000000020170310
201702280060000700000000000000516578000000000000005165789900000000000000000000Consumidor Final              000000000068000000000000068000000000000000000000000000000000000000000000000000000000000000000000000000000000000000000000PES00010000001N00000000000000020170310
201702280060000700000000000000516579000000000000005165799900000000000000000000Consumidor Final              000000000068000000000000068000000000000000000000000000000000000000000000000000000000000000000000000000000000000000000000PES00010000001N00000000000000020170310
201702280060000700000000000000516580000000000000005165809900000000000000000000Consumidor Final              000000000078200000000000078200000000000000000000000000000000000000000000000000000000000000000000000000000000000000000000PES00010000001N00000000000000020170310
201702280060000700000000000000516581000000000000005165819900000000000000000000Consumidor Final              000000000081000000000000081000000000000000000000000000000000000000000000000000000000000000000000000000000000000000000000PES00010000001N00000000000000020170310
201702280060000700000000000000516582000000000000005165829900000000000000000000Consumidor Final              000000000068000000000000068000000000000000000000000000000000000000000000000000000000000000000000000000000000000000000000PES00010000001N00000000000000020170310
201702280060000700000000000000516583000000000000005165839900000000000000000000Consumidor Final              000000000081000000000000081000000000000000000000000000000000000000000000000000000000000000000000000000000000000000000000PES00010000001N00000000000000020170310
201702280060000700000000000000516584000000000000005165849900000000000000000000Consumidor Final              000000000041000000000000041000000000000000000000000000000000000000000000000000000000000000000000000000000000000000000000PES00010000001N00000000000000020170310
201702280060000700000000000000516592000000000000005165929900000000000000000000Consumidor Final              000000000087900000000000087900000000000000000000000000000000000000000000000000000000000000000000000000000000000000000000PES00010000001N00000000000000020170310
201702280060000700000000000000516593000000000000005165939900000000000000000000Consumidor Final              000000000068000000000000068000000000000000000000000000000000000000000000000000000000000000000000000000000000000000000000PES00010000001N00000000000000020170310
201702280060000800000000000000177185000000000000001771859900000000000000000000Consumidor Final              000000000023000000000000023000000000000000000000000000000000000000000000000000000000000000000000000000000000000000000000PES00010000001N00000000000000020170310
201702280060000800000000000000177186000000000000001771869900000000000000000000Consumidor Final              000000000058000000000000058000000000000000000000000000000000000000000000000000000000000000000000000000000000000000000000PES00010000001N00000000000000020170310
201702280060000800000000000000177187000000000000001771879900000000000000000000Consumidor Final              000000000058000000000000058000000000000000000000000000000000000000000000000000000000000000000000000000000000000000000000PES00010000001N00000000000000020170310
201702280060000700000000000000516562000000000000005165629900000000000000000000Consumidor Final              000000000079300000000000079300000000000000000000000000000000000000000000000000000000000000000000000000000000000000000000PES00010000001N00000000000000020170310
201702280060000700000000000000516563000000000000005165639900000000000000000000Consumidor Final              000000000073800000000000073800000000000000000000000000000000000000000000000000000000000000000000000000000000000000000000PES00010000001N00000000000000020170310
201702280060000700000000000000516564000000000000005165649900000000000000000000Consumidor Final              000000000068000000000000068000000000000000000000000000000000000000000000000000000000000000000000000000000000000000000000PES00010000001N00000000000000020170310
201702280060000700000000000000516565000000000000005165659900000000000000000000Consumidor Final              000000000068000000000000068000000000000000000000000000000000000000000000000000000000000000000000000000000000000000000000PES00010000001N00000000000000020170310
201702280060000700000000000000516566000000000000005165669900000000000000000000Consumidor Final              000000000066000000000000066000000000000000000000000000000000000000000000000000000000000000000000000000000000000000000000PES00010000001N00000000000000020170310
201702280060000700000000000000516567000000000000005165679900000000000000000000Consumidor Final              000000000076000000000000076000000000000000000000000000000000000000000000000000000000000000000000000000000000000000000000PES00010000001N00000000000000020170310
201702280060000700000000000000516568000000000000005165689900000000000000000000Consumidor Final              000000000032000000000000032000000000000000000000000000000000000000000000000000000000000000000000000000000000000000000000PES00010000001N00000000000000020170310
201702280060000800000000000000177188000000000000001771889900000000000000000000Consumidor Final              000000000058000000000000058000000000000000000000000000000000000000000000000000000000000000000000000000000000000000000000PES00010000001N00000000000000020170310
201702280060000800000000000000177189000000000000001771899900000000000000000000Consumidor Final              000000000058000000000000058000000000000000000000000000000000000000000000000000000000000000000000000000000000000000000000PES00010000001N00000000000000020170310
201702280060000600000000000000735723000000000000007357239900000000000000000000Consumidor Final              000000000081000000000000081000000000000000000000000000000000000000000000000000000000000000000000000000000000000000000000PES00010000001N00000000000000020170310
201702280060000700000000000000516623000000000000005166239900000000000000000000Consumidor Final              000000000068000000000000068000000000000000000000000000000000000000000000000000000000000000000000000000000000000000000000PES00010000001N00000000000000020170310
201702280060000600000000000000735724000000000000007357249900000000000000000000Consumidor Final              000000000068000000000000068000000000000000000000000000000000000000000000000000000000000000000000000000000000000000000000PES00010000001N00000000000000020170310
201702280060000600000000000000735725000000000000007357259900000000000000000000Consumidor Final              000000000073800000000000073800000000000000000000000000000000000000000000000000000000000000000000000000000000000000000000PES00010000001N00000000000000020170310
201702280060000700000000000000516624000000000000005166249900000000000000000000Consumidor Final              000000000081000000000000081000000000000000000000000000000000000000000000000000000000000000000000000000000000000000000000PES00010000001N00000000000000020170310
201702280060000700000000000000516625000000000000005166259900000000000000000000Consumidor Final              000000000068000000000000068000000000000000000000000000000000000000000000000000000000000000000000000000000000000000000000PES00010000001N00000000000000020170310
201702280060000700000000000000516626000000000000005166269900000000000000000000Consumidor Final              000000000068000000000000068000000000000000000000000000000000000000000000000000000000000000000000000000000000000000000000PES00010000001N00000000000000020170310
201702280060000700000000000000516627000000000000005166279900000000000000000000Consumidor Final              000000000068000000000000068000000000000000000000000000000000000000000000000000000000000000000000000000000000000000000000PES00010000001N00000000000000020170310
201702280060000700000000000000516628000000000000005166289900000000000000000000Consumidor Final              000000000068000000000000068000000000000000000000000000000000000000000000000000000000000000000000000000000000000000000000PES00010000001N00000000000000020170310
201702280060000700000000000000516629000000000000005166299900000000000000000000Consumidor Final              000000000068000000000000068000000000000000000000000000000000000000000000000000000000000000000000000000000000000000000000PES00010000001N00000000000000020170310
201702280060000800000000000000177191000000000000001771919900000000000000000000Consumidor Final              000000000068000000000000068000000000000000000000000000000000000000000000000000000000000000000000000000000000000000000000PES00010000001N00000000000000020170310
201702280060000700000000000000516575000000000000005165759900000000000000000000Consumidor Final              000000000068000000000000068000000000000000000000000000000000000000000000000000000000000000000000000000000000000000000000PES00010000001N00000000000000020170310
201702280060000700000000000000516576000000000000005165769900000000000000000000Consumidor Final              000000000076000000000000076000000000000000000000000000000000000000000000000000000000000000000000000000000000000000000000PES00010000001N00000000000000020170310
201702280060000700000000000000516577000000000000005165779900000000000000000000Consumidor Final              000000000068000000000000068000000000000000000000000000000000000000000000000000000000000000000000000000000000000000000000PES00010000001N00000000000000020170310
201702280060000700000000000000516585000000000000005165859900000000000000000000Consumidor Final              000000000068000000000000068000000000000000000000000000000000000000000000000000000000000000000000000000000000000000000000PES00010000001N00000000000000020170310
201702280060000700000000000000516586000000000000005165869900000000000000000000Consumidor Final              000000000068000000000000068000000000000000000000000000000000000000000000000000000000000000000000000000000000000000000000PES00010000001N00000000000000020170310
201702280060000800000000000000177192000000000000001771929900000000000000000000Consumidor Final              000000000058000000000000058000000000000000000000000000000000000000000000000000000000000000000000000000000000000000000000PES00010000001N00000000000000020170310
201702280060000700000000000000516587000000000000005165879000000000000030746258JOSEFINA                      000000000117000000000000117000000000000000000000000000000000000000000000000000000000000000000000000000000000000000000000PES00010000001N00000000000000020170310
201702280060000700000000000000516588000000000000005165889900000000000000000000Consumidor Final              000000000038000000000000038000000000000000000000000000000000000000000000000000000000000000000000000000000000000000000000PES00010000001N00000000000000020170310
201702280060000700000000000000516589000000000000005165899900000000000000000000Consumidor Final              000000000032000000000000032000000000000000000000000000000000000000000000000000000000000000000000000000000000000000000000PES00010000001N00000000000000020170310
201702280060000600000000000000735683000000000000007356839900000000000000000000Consumidor Final              000000000068000000000000068000000000000000000000000000000000000000000000000000000000000000000000000000000000000000000000PES00010000001N00000000000000020170310
201702280060000700000000000000516594000000000000005165949900000000000000000000Consumidor Final              000000000073800000000000073800000000000000000000000000000000000000000000000000000000000000000000000000000000000000000000PES00010000001N00000000000000020170310
201702280060000600000000000000735715000000000000007357159900000000000000000000Consumidor Final              000000000081000000000000081000000000000000000000000000000000000000000000000000000000000000000000000000000000000000000000PES00010000001N00000000000000020170310
201702280060000600000000000000735716000000000000007357169900000000000000000000Consumidor Final              000000000081000000000000081000000000000000000000000000000000000000000000000000000000000000000000000000000000000000000000PES00010000001N00000000000000020170310
201702280060000600000000000000735717000000000000007357179900000000000000000000Consumidor Final              000000000068000000000000068000000000000000000000000000000000000000000000000000000000000000000000000000000000000000000000PES00010000001N00000000000000020170310
201702280060000600000000000000735718000000000000007357189900000000000000000000Consumidor Final              000000000068000000000000068000000000000000000000000000000000000000000000000000000000000000000000000000000000000000000000PES00010000001N00000000000000020170310
201702280060000600000000000000735719000000000000007357199900000000000000000000Consumidor Final              000000000068000000000000068000000000000000000000000000000000000000000000000000000000000000000000000000000000000000000000PES00010000001N00000000000000020170310
201702280060000600000000000000735720000000000000007357209900000000000000000000Consumidor Final              000000000068000000000000068000000000000000000000000000000000000000000000000000000000000000000000000000000000000000000000PES00010000001N00000000000000020170310
201702280060000600000000000000735726000000000000007357269900000000000000000000Consumidor Final              000000000081000000000000081000000000000000000000000000000000000000000000000000000000000000000000000000000000000000000000PES00010000001N00000000000000020170310
201702280060000600000000000000735727000000000000007357279900000000000000000000Consumidor Final              000000000073800000000000073800000000000000000000000000000000000000000000000000000000000000000000000000000000000000000000PES00010000001N00000000000000020170310
201702280060000600000000000000735728000000000000007357289900000000000000000000Consumidor Final              000000000076000000000000076000000000000000000000000000000000000000000000000000000000000000000000000000000000000000000000PES00010000001N00000000000000020170310
201702280060000600000000000000735729000000000000007357299900000000000000000000Consumidor Final              000000000081000000000000081000000000000000000000000000000000000000000000000000000000000000000000000000000000000000000000PES00010000001N00000000000000020170310
201702280060000600000000000000735692000000000000007356929900000000000000000000Consumidor Final              000000000068000000000000068000000000000000000000000000000000000000000000000000000000000000000000000000000000000000000000PES00010000001N00000000000000020170310
201702280060000700000000000000516595000000000000005165959900000000000000000000Consumidor Final              000000000068000000000000068000000000000000000000000000000000000000000000000000000000000000000000000000000000000000000000PES00010000001N00000000000000020170310
201702280060000700000000000000516596000000000000005165969900000000000000000000Consumidor Final              000000000088000000000000088000000000000000000000000000000000000000000000000000000000000000000000000000000000000000000000PES00010000001N00000000000000020170310
201702280060000700000000000000516597000000000000005165979900000000000000000000Consumidor Final              000000000068000000000000068000000000000000000000000000000000000000000000000000000000000000000000000000000000000000000000PES00010000001N00000000000000020170310
201702280060000700000000000000516598000000000000005165989900000000000000000000Consumidor Final              000000000068000000000000068000000000000000000000000000000000000000000000000000000000000000000000000000000000000000000000PES00010000001N00000000000000020170310
201702280060000700000000000000516599000000000000005165999900000000000000000000Consumidor Final              000000000073800000000000073800000000000000000000000000000000000000000000000000000000000000000000000000000000000000000000PES00010000001N00000000000000020170310
201702280060000600000000000000735696000000000000007356969900000000000000000000Consumidor Final              000000000068000000000000068000000000000000000000000000000000000000000000000000000000000000000000000000000000000000000000PES00010000001N00000000000000020170310
201702280060000600000000000000735697000000000000007356979900000000000000000000Consumidor Final              000000000068000000000000068000000000000000000000000000000000000000000000000000000000000000000000000000000000000000000000PES00010000001N00000000000000020170310
201702280060000600000000000000735698000000000000007356989900000000000000000000Consumidor Final              000000000068000000000000068000000000000000000000000000000000000000000000000000000000000000000000000000000000000000000000PES00010000001N00000000000000020170310
201702280060000900000000000000037292000000000000000372929900000000000000000000Consumidor Final              000000000068000000000000068000000000000000000000000000000000000000000000000000000000000000000000000000000000000000000000PES00010000001N00000000000000020170310
201702280060000900000000000000037293000000000000000372939900000000000000000000Consumidor Final              000000000068000000000000068000000000000000000000000000000000000000000000000000000000000000000000000000000000000000000000PES00010000001N00000000000000020170310
201702280060000600000000000000735693000000000000007356939900000000000000000000Consumidor Final              000000000068000000000000068000000000000000000000000000000000000000000000000000000000000000000000000000000000000000000000PES00010000001N00000000000000020170310
201702280060000600000000000000735694000000000000007356949900000000000000000000Consumidor Final              000000000068000000000000068000000000000000000000000000000000000000000000000000000000000000000000000000000000000000000000PES00010000001N00000000000000020170310
201702280060000800000000000000177195000000000000001771959900000000000000000000Consumidor Final              000000000039000000000000039000000000000000000000000000000000000000000000000000000000000000000000000000000000000000000000PES00010000001N00000000000000020170310
201702280060000600000000000000735695000000000000007356959900000000000000000000Consumidor Final              000000000068000000000000068000000000000000000000000000000000000000000000000000000000000000000000000000000000000000000000PES00010000001N00000000000000020170310
201702280060000700000000000000516600000000000000005166009900000000000000000000Consumidor Final              000000000068000000000000068000000000000000000000000000000000000000000000000000000000000000000000000000000000000000000000PES00010000001N00000000000000020170310
201702280060000700000000000000516601000000000000005166019900000000000000000000Consumidor Final              000000000076000000000000076000000000000000000000000000000000000000000000000000000000000000000000000000000000000000000000PES00010000001N00000000000000020170310
201702280060000600000000000000735699000000000000007356999900000000000000000000Consumidor Final              000000000076000000000000076000000000000000000000000000000000000000000000000000000000000000000000000000000000000000000000PES00010000001N00000000000000020170310
201702280060000600000000000000735700000000000000007357009900000000000000000000Consumidor Final              000000000076000000000000076000000000000000000000000000000000000000000000000000000000000000000000000000000000000000000000PES00010000001N00000000000000020170310
201702280060000600000000000000735701000000000000007357019900000000000000000000Consumidor Final              000000000076000000000000076000000000000000000000000000000000000000000000000000000000000000000000000000000000000000000000PES00010000001N00000000000000020170310
201702280060000800000000000000177196000000000000001771969900000000000000000000Consumidor Final              000000000058000000000000058000000000000000000000000000000000000000000000000000000000000000000000000000000000000000000000PES00010000001N00000000000000020170310
201702280060000600000000000000735702000000000000007357029900000000000000000000Consumidor Final              000000000070000000000000070000000000000000000000000000000000000000000000000000000000000000000000000000000000000000000000PES00010000001N00000000000000020170310
201702280060000600000000000000735703000000000000007357039900000000000000000000Consumidor Final              000000000087900000000000087900000000000000000000000000000000000000000000000000000000000000000000000000000000000000000000PES00010000001N00000000000000020170310
201702280060000700000000000000516603000000000000005166039900000000000000000000Consumidor Final              000000000081000000000000081000000000000000000000000000000000000000000000000000000000000000000000000000000000000000000000PES00010000001N00000000000000020170310
201702280060000600000000000000735704000000000000007357049900000000000000000000Consumidor Final              000000000068000000000000068000000000000000000000000000000000000000000000000000000000000000000000000000000000000000000000PES00010000001N00000000000000020170310
201702280060000700000000000000516604000000000000005166049900000000000000000000Consumidor Final              000000000059000000000000059000000000000000000000000000000000000000000000000000000000000000000000000000000000000000000000PES00010000001N00000000000000020170310
201702280060000700000000000000516605000000000000005166059900000000000000000000Consumidor Final              000000000072000000000000072000000000000000000000000000000000000000000000000000000000000000000000000000000000000000000000PES00010000001N00000000000000020170310
201702280060000600000000000000735705000000000000007357059900000000000000000000Consumidor Final              000000000076000000000000076000000000000000000000000000000000000000000000000000000000000000000000000000000000000000000000PES00010000001N00000000000000020170310
201702280060000600000000000000735706000000000000007357069900000000000000000000Consumidor Final              000000000068000000000000068000000000000000000000000000000000000000000000000000000000000000000000000000000000000000000000PES00010000001N00000000000000020170310
201702280060000800000000000000177201000000000000001772019900000000000000000000Consumidor Final              000000000058000000000000058000000000000000000000000000000000000000000000000000000000000000000000000000000000000000000000PES00010000001N00000000000000020170310
201702280060000600000000000000735707000000000000007357079900000000000000000000Consumidor Final              000000000078200000000000078200000000000000000000000000000000000000000000000000000000000000000000000000000000000000000000PES00010000001N00000000000000020170310
201702280060000800000000000000177202000000000000001772029900000000000000000000Consumidor Final              000000000058000000000000058000000000000000000000000000000000000000000000000000000000000000000000000000000000000000000000PES00010000001N00000000000000020170310
201702280060000600000000000000735708000000000000007357089900000000000000000000Consumidor Final              000000000068000000000000068000000000000000000000000000000000000000000000000000000000000000000000000000000000000000000000PES00010000001N00000000000000020170310
201702280060000600000000000000735709000000000000007357099900000000000000000000Consumidor Final              000000000068000000000000068000000000000000000000000000000000000000000000000000000000000000000000000000000000000000000000PES00010000001N00000000000000020170310
201702280060000600000000000000735730000000000000007357309900000000000000000000Consumidor Final              000000000073800000000000073800000000000000000000000000000000000000000000000000000000000000000000000000000000000000000000PES00010000001N00000000000000020170310
201702280060000600000000000000735731000000000000007357319900000000000000000000Consumidor Final              000000000072000000000000072000000000000000000000000000000000000000000000000000000000000000000000000000000000000000000000PES00010000001N00000000000000020170310
201702280060000600000000000000735732000000000000007357329900000000000000000000Consumidor Final              000000000073800000000000073800000000000000000000000000000000000000000000000000000000000000000000000000000000000000000000PES00010000001N00000000000000020170310
201702280060000700000000000000516631000000000000005166319900000000000000000000Consumidor Final              000000000068000000000000068000000000000000000000000000000000000000000000000000000000000000000000000000000000000000000000PES00010000001N00000000000000020170310
201702280060000700000000000000516632000000000000005166329900000000000000000000Consumidor Final              000000000067000000000000067000000000000000000000000000000000000000000000000000000000000000000000000000000000000000000000PES00010000001N00000000000000020170310
201702280060000700000000000000516633000000000000005166339900000000000000000000Consumidor Final              000000000071000000000000071000000000000000000000000000000000000000000000000000000000000000000000000000000000000000000000PES00010000001N00000000000000020170310
201702280060000700000000000000516634000000000000005166349900000000000000000000Consumidor Final              000000000068000000000000068000000000000000000000000000000000000000000000000000000000000000000000000000000000000000000000PES00010000001N00000000000000020170310
201702280060000600000000000000735735000000000000007357359000000000000001600124LAUNAY CONRRAD                000000000101000000000000101000000000000000000000000000000000000000000000000000000000000000000000000000000000000000000000PES00010000001N00000000000000020170310
201702280060000700000000000000516635000000000000005166359900000000000000000000Consumidor Final              000000000081000000000000081000000000000000000000000000000000000000000000000000000000000000000000000000000000000000000000PES00010000001N00000000000000020170310
201702280060000600000000000000735736000000000000007357369900000000000000000000Consumidor Final              000000000073800000000000073800000000000000000000000000000000000000000000000000000000000000000000000000000000000000000000PES00010000001N00000000000000020170310
201702280060000600000000000000735710000000000000007357109900000000000000000000Consumidor Final              000000000068000000000000068000000000000000000000000000000000000000000000000000000000000000000000000000000000000000000000PES00010000001N00000000000000020170310
201702280060000900000000000000037294000000000000000372949900000000000000000000Consumidor Final              000000000076000000000000076000000000000000000000000000000000000000000000000000000000000000000000000000000000000000000000PES00010000001N00000000000000020170310
201702280060000900000000000000037295000000000000000372959900000000000000000000Consumidor Final              000000000068000000000000068000000000000000000000000000000000000000000000000000000000000000000000000000000000000000000000PES00010000001N00000000000000020170310
201702280060000800000000000000177203000000000000001772039900000000000000000000Consumidor Final              000000000058000000000000058000000000000000000000000000000000000000000000000000000000000000000000000000000000000000000000PES00010000001N00000000000000020170310
201702280060000800000000000000177204000000000000001772049900000000000000000000Consumidor Final              000000000058000000000000058000000000000000000000000000000000000000000000000000000000000000000000000000000000000000000000PES00010000001N00000000000000020170310
201702280060000900000000000000037296000000000000000372969900000000000000000000Consumidor Final              000000000068000000000000068000000000000000000000000000000000000000000000000000000000000000000000000000000000000000000000PES00010000001N00000000000000020170310
201702280060000900000000000000037297000000000000000372979900000000000000000000Consumidor Final              000000000068000000000000068000000000000000000000000000000000000000000000000000000000000000000000000000000000000000000000PES00010000001N00000000000000020170310
201702280060000700000000000000516618000000000000005166189900000000000000000000Consumidor Final              000000000073800000000000073800000000000000000000000000000000000000000000000000000000000000000000000000000000000000000000PES00010000001N00000000000000020170310
201702280060000700000000000000516619000000000000005166199900000000000000000000Consumidor Final              000000000068000000000000068000000000000000000000000000000000000000000000000000000000000000000000000000000000000000000000PES00010000001N00000000000000020170310
201702280060000700000000000000516645000000000000005166459900000000000000000000Consumidor Final              000000000068000000000000068000000000000000000000000000000000000000000000000000000000000000000000000000000000000000000000PES00010000001N00000000000000020170310
201702280060000700000000000000516646000000000000005166469900000000000000000000Consumidor Final              000000000073800000000000073800000000000000000000000000000000000000000000000000000000000000000000000000000000000000000000PES00010000001N00000000000000020170310
201702280060000700000000000000516636000000000000005166369900000000000000000000Consumidor Final              000000000044000000000000044000000000000000000000000000000000000000000000000000000000000000000000000000000000000000000000PES00010000001N00000000000000020170310
201702280060000700000000000000516647000000000000005166479900000000000000000000Consumidor Final              000000000068000000000000068000000000000000000000000000000000000000000000000000000000000000000000000000000000000000000000PES00010000001N00000000000000020170310
201702280060000800000000000000177205000000000000001772059900000000000000000000Consumidor Final              000000000058000000000000058000000000000000000000000000000000000000000000000000000000000000000000000000000000000000000000PES00010000001N00000000000000020170310
201702280060000800000000000000177206000000000000001772069900000000000000000000Consumidor Final              000000000058000000000000058000000000000000000000000000000000000000000000000000000000000000000000000000000000000000000000PES00010000001N00000000000000020170310
201702280060000800000000000000177207000000000000001772079900000000000000000000Consumidor Final              000000000058000000000000058000000000000000000000000000000000000000000000000000000000000000000000000000000000000000000000PES00010000001N00000000000000020170310
201702280060000800000000000000177208000000000000001772089900000000000000000000Consumidor Final              000000000058000000000000058000000000000000000000000000000000000000000000000000000000000000000000000000000000000000000000PES00010000001N00000000000000020170310
201702280060000700000000000000516648000000000000005166489900000000000000000000Consumidor Final              000000000082500000000000082500000000000000000000000000000000000000000000000000000000000000000000000000000000000000000000PES00010000001N00000000000000020170310
201702280060000700000000000000516649000000000000005166499900000000000000000000Consumidor Final              000000000082500000000000082500000000000000000000000000000000000000000000000000000000000000000000000000000000000000000000PES00010000001N00000000000000020170310
201702280060000700000000000000516650000000000000005166509900000000000000000000Consumidor Final              000000000068000000000000068000000000000000000000000000000000000000000000000000000000000000000000000000000000000000000000PES00010000001N00000000000000020170310
201702280060000700000000000000516651000000000000005166519900000000000000000000Consumidor Final              000000000068000000000000068000000000000000000000000000000000000000000000000000000000000000000000000000000000000000000000PES00010000001N00000000000000020170310
201702280060000600000000000000735749000000000000007357499900000000000000000000Consumidor Final              000000000076000000000000076000000000000000000000000000000000000000000000000000000000000000000000000000000000000000000000PES00010000001N00000000000000020170310
201702280060000700000000000000516637000000000000005166379900000000000000000000Consumidor Final              000000000068000000000000068000000000000000000000000000000000000000000000000000000000000000000000000000000000000000000000PES00010000001N00000000000000020170310
201702280060000600000000000000735737000000000000007357379900000000000000000000Consumidor Final              000000000073800000000000073800000000000000000000000000000000000000000000000000000000000000000000000000000000000000000000PES00010000001N00000000000000020170310
201702280060000700000000000000516638000000000000005166389900000000000000000000Consumidor Final              000000000068000000000000068000000000000000000000000000000000000000000000000000000000000000000000000000000000000000000000PES00010000001N00000000000000020170310
201702280060000600000000000000735738000000000000007357389900000000000000000000Consumidor Final              000000000073800000000000073800000000000000000000000000000000000000000000000000000000000000000000000000000000000000000000PES00010000001N00000000000000020170310
201702280060000700000000000000516639000000000000005166399900000000000000000000Consumidor Final              000000000078200000000000078200000000000000000000000000000000000000000000000000000000000000000000000000000000000000000000PES00010000001N00000000000000020170310
201702280060000600000000000000735739000000000000007357399900000000000000000000Consumidor Final              000000000073800000000000073800000000000000000000000000000000000000000000000000000000000000000000000000000000000000000000PES00010000001N00000000000000020170310
201702280060000900000000000000037299000000000000000372999900000000000000000000Consumidor Final              000000000068000000000000068000000000000000000000000000000000000000000000000000000000000000000000000000000000000000000000PES00010000001N00000000000000020170310
201702280060000700000000000000516640000000000000005166409900000000000000000000Consumidor Final              000000000068000000000000068000000000000000000000000000000000000000000000000000000000000000000000000000000000000000000000PES00010000001N00000000000000020170310
201702280060000700000000000000516642000000000000005166429900000000000000000000Consumidor Final              000000000068000000000000068000000000000000000000000000000000000000000000000000000000000000000000000000000000000000000000PES00010000001N00000000000000020170310
201702280060000700000000000000516643000000000000005166439900000000000000000000Consumidor Final              000000000079000000000000079000000000000000000000000000000000000000000000000000000000000000000000000000000000000000000000PES00010000001N00000000000000020170310
201702280060000700000000000000516644000000000000005166449900000000000000000000Consumidor Final              000000000079000000000000079000000000000000000000000000000000000000000000000000000000000000000000000000000000000000000000PES00010000001N00000000000000020170310
201702280060000600000000000000735741000000000000007357419900000000000000000000Consumidor Final              000000000081000000000000081000000000000000000000000000000000000000000000000000000000000000000000000000000000000000000000PES00010000001N00000000000000020170310
201702280060000700000000000000516641000000000000005166419900000000000000000000Consumidor Final              000000000068000000000000068000000000000000000000000000000000000000000000000000000000000000000000000000000000000000000000PES00010000001N00000000000000020170310
201702280060000600000000000000735742000000000000007357429900000000000000000000Consumidor Final              000000000081000000000000081000000000000000000000000000000000000000000000000000000000000000000000000000000000000000000000PES00010000001N00000000000000020170310
201702280060000600000000000000735743000000000000007357439900000000000000000000Consumidor Final              000000000068000000000000068000000000000000000000000000000000000000000000000000000000000000000000000000000000000000000000PES00010000001N00000000000000020170310
201702280060000600000000000000735744000000000000007357449900000000000000000000Consumidor Final              000000000033000000000000033000000000000000000000000000000000000000000000000000000000000000000000000000000000000000000000PES00010000001N00000000000000020170310
201702280060000600000000000000735745000000000000007357459900000000000000000000Consumidor Final              000000000068000000000000068000000000000000000000000000000000000000000000000000000000000000000000000000000000000000000000PES00010000001N00000000000000020170310
201702280060000600000000000000735746000000000000007357469900000000000000000000Consumidor Final              000000000087900000000000087900000000000000000000000000000000000000000000000000000000000000000000000000000000000000000000PES00010000001N00000000000000020170310
201702280060000600000000000000735747000000000000007357479900000000000000000000Consumidor Final              000000000068000000000000068000000000000000000000000000000000000000000000000000000000000000000000000000000000000000000000PES00010000001N00000000000000020170310
201702280060000600000000000000735748000000000000007357489900000000000000000000Consumidor Final              000000000081000000000000081000000000000000000000000000000000000000000000000000000000000000000000000000000000000000000000PES00010000001N00000000000000020170310
201702280060000600000000000000735756000000000000007357569900000000000000000000Consumidor Final              000000000068000000000000068000000000000000000000000000000000000000000000000000000000000000000000000000000000000000000000PES00010000001N00000000000000020170310
201702280060000700000000000000516661000000000000005166619900000000000000000000Consumidor Final              000000000068000000000000068000000000000000000000000000000000000000000000000000000000000000000000000000000000000000000000PES00010000001N00000000000000020170310
201702280060000700000000000000516652000000000000005166529900000000000000000000Consumidor Final              000000000068000000000000068000000000000000000000000000000000000000000000000000000000000000000000000000000000000000000000PES00010000001N00000000000000020170310
201702280060000700000000000000516687000000000000005166879900000000000000000000Consumidor Final              000000000073800000000000073800000000000000000000000000000000000000000000000000000000000000000000000000000000000000000000PES00010000001N00000000000000020170310
201702280060000700000000000000516688000000000000005166888000000000030708861460Consumidor Final              000000000073800000000000073800000000000000000000000000000000000000000000000000000000000000000000000000000000000000000000PES00010000001N00000000000000020170310
201702280060000700000000000000516695000000000000005166959900000000000000000000Consumidor Final              000000000081000000000000081000000000000000000000000000000000000000000000000000000000000000000000000000000000000000000000PES00010000001N00000000000000020170310
201702280060000700000000000000516696000000000000005166969000000000000024128250CRESPO HERNAN                 000000000111900000000000111900000000000000000000000000000000000000000000000000000000000000000000000000000000000000000000PES00010000001N00000000000000020170310
201702280060000700000000000000516697000000000000005166979900000000000000000000Consumidor Final              000000000085000000000000085000000000000000000000000000000000000000000000000000000000000000000000000000000000000000000000PES00010000001N00000000000000020170310
201702280060000700000000000000516698000000000000005166989900000000000000000000Consumidor Final              000000000060000000000000060000000000000000000000000000000000000000000000000000000000000000000000000000000000000000000000PES00010000001N00000000000000020170310
201702280060000700000000000000516699000000000000005166999900000000000000000000Consumidor Final              000000000068000000000000068000000000000000000000000000000000000000000000000000000000000000000000000000000000000000000000PES00010000001N00000000000000020170310
201702280060000700000000000000516700000000000000005167009900000000000000000000Consumidor Final              000000000068000000000000068000000000000000000000000000000000000000000000000000000000000000000000000000000000000000000000PES00010000001N00000000000000020170310
201702280060000700000000000000516701000000000000005167019900000000000000000000Consumidor Final              000000000038000000000000038000000000000000000000000000000000000000000000000000000000000000000000000000000000000000000000PES00010000001N00000000000000020170310
201702280060000700000000000000516702000000000000005167029900000000000000000000Consumidor Final              000000000071000000000000071000000000000000000000000000000000000000000000000000000000000000000000000000000000000000000000PES00010000001N00000000000000020170310
201702280060000600000000000000735750000000000000007357509900000000000000000000Consumidor Final              000000000068000000000000068000000000000000000000000000000000000000000000000000000000000000000000000000000000000000000000PES00010000001N00000000000000020170310
201702280060000700000000000000516653000000000000005166539900000000000000000000Consumidor Final              000000000068000000000000068000000000000000000000000000000000000000000000000000000000000000000000000000000000000000000000PES00010000001N00000000000000020170310
201702280060000700000000000000516654000000000000005166549900000000000000000000Consumidor Final              000000000066000000000000066000000000000000000000000000000000000000000000000000000000000000000000000000000000000000000000PES00010000001N00000000000000020170310
201702280060000700000000000000516655000000000000005166559900000000000000000000Consumidor Final              000000000068000000000000068000000000000000000000000000000000000000000000000000000000000000000000000000000000000000000000PES00010000001N00000000000000020170310
201702280060000700000000000000516662000000000000005166629900000000000000000000Consumidor Final              000000000068000000000000068000000000000000000000000000000000000000000000000000000000000000000000000000000000000000000000PES00010000001N00000000000000020170310
201702280060000700000000000000516663000000000000005166639900000000000000000000Consumidor Final              000000000068000000000000068000000000000000000000000000000000000000000000000000000000000000000000000000000000000000000000PES00010000001N00000000000000020170310
201702280060000700000000000000516664000000000000005166649900000000000000000000Consumidor Final              000000000073800000000000073800000000000000000000000000000000000000000000000000000000000000000000000000000000000000000000PES00010000001N00000000000000020170310
201702280060000700000000000000516665000000000000005166659900000000000000000000Consumidor Final              000000000068000000000000068000000000000000000000000000000000000000000000000000000000000000000000000000000000000000000000PES00010000001N00000000000000020170310
201702280060000700000000000000516666000000000000005166669900000000000000000000Consumidor Final              000000000068000000000000068000000000000000000000000000000000000000000000000000000000000000000000000000000000000000000000PES00010000001N00000000000000020170310
201702280060000700000000000000516675000000000000005166759900000000000000000000Consumidor Final              000000000068000000000000068000000000000000000000000000000000000000000000000000000000000000000000000000000000000000000000PES00010000001N00000000000000020170310
201702280060000700000000000000516676000000000000005166769900000000000000000000Consumidor Final              000000000068000000000000068000000000000000000000000000000000000000000000000000000000000000000000000000000000000000000000PES00010000001N00000000000000020170310
201702280060000600000000000000735751000000000000007357519900000000000000000000Consumidor Final              000000000087900000000000087900000000000000000000000000000000000000000000000000000000000000000000000000000000000000000000PES00010000001N00000000000000020170310
201702280060000700000000000000516656000000000000005166569900000000000000000000Consumidor Final              000000000081000000000000081000000000000000000000000000000000000000000000000000000000000000000000000000000000000000000000PES00010000001N00000000000000020170310
201702280060000700000000000000516657000000000000005166579900000000000000000000Consumidor Final              000000000068000000000000068000000000000000000000000000000000000000000000000000000000000000000000000000000000000000000000PES00010000001N00000000000000020170310
201702280060000700000000000000516658000000000000005166589900000000000000000000Consumidor Final              000000000068000000000000068000000000000000000000000000000000000000000000000000000000000000000000000000000000000000000000PES00010000001N00000000000000020170310
201702280060000700000000000000516659000000000000005166599900000000000000000000Consumidor Final              000000000068000000000000068000000000000000000000000000000000000000000000000000000000000000000000000000000000000000000000PES00010000001N00000000000000020170310
201702280060000700000000000000516660000000000000005166609900000000000000000000Consumidor Final              000000000073800000000000073800000000000000000000000000000000000000000000000000000000000000000000000000000000000000000000PES00010000001N00000000000000020170310
201702280060000600000000000000735757000000000000007357579900000000000000000000Consumidor Final              000000000068000000000000068000000000000000000000000000000000000000000000000000000000000000000000000000000000000000000000PES00010000001N00000000000000020170310
201702280060000600000000000000735758000000000000007357589900000000000000000000Consumidor Final              000000000068000000000000068000000000000000000000000000000000000000000000000000000000000000000000000000000000000000000000PES00010000001N00000000000000020170310
201702280060000600000000000000735759000000000000007357599900000000000000000000Consumidor Final              000000000081000000000000081000000000000000000000000000000000000000000000000000000000000000000000000000000000000000000000PES00010000001N00000000000000020170310
201702280060000600000000000000735761000000000000007357619900000000000000000000Consumidor Final              000000000068000000000000068000000000000000000000000000000000000000000000000000000000000000000000000000000000000000000000PES00010000001N00000000000000020170310
201702280510000100000000000000000285000000000000000002858000000000030693810945AGRONICA                      000000000072000000000000072000000000000000000000000000000000000000000000000000000000000000000000000000000000000000000000PES00010000001N00000000000000000000000
201702280060000600000000000000735752000000000000007357529900000000000000000000Consumidor Final              000000000073800000000000073800000000000000000000000000000000000000000000000000000000000000000000000000000000000000000000PES00010000001N00000000000000020170310
201702280060000600000000000000735753000000000000007357539900000000000000000000Consumidor Final              000000000064000000000000064000000000000000000000000000000000000000000000000000000000000000000000000000000000000000000000PES00010000001N00000000000000020170310
201702280060000600000000000000735754000000000000007357549900000000000000000000Consumidor Final              000000000068000000000000068000000000000000000000000000000000000000000000000000000000000000000000000000000000000000000000PES00010000001N00000000000000020170310
201702280060000600000000000000735755000000000000007357559900000000000000000000Consumidor Final              000000000068000000000000068000000000000000000000000000000000000000000000000000000000000000000000000000000000000000000000PES00010000001N00000000000000020170310
201702280060000600000000000000735760000000000000007357609900000000000000000000Consumidor Final              000000000068000000000000068000000000000000000000000000000000000000000000000000000000000000000000000000000000000000000000PES00010000001N00000000000000020170310
201702280510000100000000000000000286000000000000000002868000000000030632161146GRAFICA PINTER SA             000000000068000000000000068000000000000000000000000000000000000000000000000000000000000000000000000000000000000000000000PES00010000001N00000000000000000000000
201702280060000800000000000000177209000000000000001772099900000000000000000000Consumidor Final              000000000058000000000000058000000000000000000000000000000000000000000000000000000000000000000000000000000000000000000000PES00010000001N00000000000000020170310
201702280060000800000000000000177210000000000000001772109900000000000000000000Consumidor Final              000000000058000000000000058000000000000000000000000000000000000000000000000000000000000000000000000000000000000000000000PES00010000001N00000000000000020170310
201702280060000800000000000000177211000000000000001772119900000000000000000000Consumidor Final              000000000058000000000000058000000000000000000000000000000000000000000000000000000000000000000000000000000000000000000000PES00010000001N00000000000000020170310
201702280060000800000000000000177212000000000000001772129900000000000000000000Consumidor Final              000000000058000000000000058000000000000000000000000000000000000000000000000000000000000000000000000000000000000000000000PES00010000001N00000000000000020170310
201702280060000800000000000000177213000000000000001772139900000000000000000000Consumidor Final              000000000058000000000000058000000000000000000000000000000000000000000000000000000000000000000000000000000000000000000000PES00010000001N00000000000000020170310
201702280060000800000000000000177219000000000000001772199900000000000000000000Consumidor Final              000000000058000000000000058000000000000000000000000000000000000000000000000000000000000000000000000000000000000000000000PES00010000001N00000000000000020170310
201702280060000800000000000000177220000000000000001772209900000000000000000000Consumidor Final              000000000058000000000000058000000000000000000000000000000000000000000000000000000000000000000000000000000000000000000000PES00010000001N00000000000000020170310
201702280060000800000000000000177221000000000000001772219900000000000000000000Consumidor Final              000000000058000000000000058000000000000000000000000000000000000000000000000000000000000000000000000000000000000000000000PES00010000001N00000000000000020170310
201702280060000700000000000000516667000000000000005166679900000000000000000000Consumidor Final              000000000068000000000000068000000000000000000000000000000000000000000000000000000000000000000000000000000000000000000000PES00010000001N00000000000000020170310
201702280060000700000000000000516668000000000000005166689900000000000000000000Consumidor Final              000000000077000000000000077000000000000000000000000000000000000000000000000000000000000000000000000000000000000000000000PES00010000001N00000000000000020170310
201702280060000700000000000000516669000000000000005166699900000000000000000000Consumidor Final              000000000071000000000000071000000000000000000000000000000000000000000000000000000000000000000000000000000000000000000000PES00010000001N00000000000000020170310
201702280060000700000000000000516670000000000000005166709900000000000000000000Consumidor Final              000000000073800000000000073800000000000000000000000000000000000000000000000000000000000000000000000000000000000000000000PES00010000001N00000000000000020170310
201702280060000700000000000000516671000000000000005166719900000000000000000000Consumidor Final              000000000073800000000000073800000000000000000000000000000000000000000000000000000000000000000000000000000000000000000000PES00010000001N00000000000000020170310
201702280060000700000000000000516672000000000000005166729900000000000000000000Consumidor Final              000000000068000000000000068000000000000000000000000000000000000000000000000000000000000000000000000000000000000000000000PES00010000001N00000000000000020170310
201702280060000700000000000000516673000000000000005166739900000000000000000000Consumidor Final              000000000066000000000000066000000000000000000000000000000000000000000000000000000000000000000000000000000000000000000000PES00010000001N00000000000000020170310
201702280060000700000000000000516674000000000000005166749900000000000000000000Consumidor Final              000000000068000000000000068000000000000000000000000000000000000000000000000000000000000000000000000000000000000000000000PES00010000001N00000000000000020170310
201702280060000800000000000000177222000000000000001772229900000000000000000000Consumidor Final              000000000058000000000000058000000000000000000000000000000000000000000000000000000000000000000000000000000000000000000000PES00010000001N00000000000000020170310
201702280060000800000000000000177223000000000000001772239900000000000000000000Consumidor Final              000000000058000000000000058000000000000000000000000000000000000000000000000000000000000000000000000000000000000000000000PES00010000001N00000000000000020170310
201702280060000800000000000000177224000000000000001772249900000000000000000000Consumidor Final              000000000058000000000000058000000000000000000000000000000000000000000000000000000000000000000000000000000000000000000000PES00010000001N00000000000000020170310
201702280060000800000000000000177225000000000000001772259900000000000000000000Consumidor Final              000000000058000000000000058000000000000000000000000000000000000000000000000000000000000000000000000000000000000000000000PES00010000001N00000000000000020170310
201702280060000700000000000000516677000000000000005166779900000000000000000000Consumidor Final              000000000068000000000000068000000000000000000000000000000000000000000000000000000000000000000000000000000000000000000000PES00010000001N00000000000000020170310
201702280060000700000000000000516678000000000000005166789900000000000000000000Consumidor Final              000000000068000000000000068000000000000000000000000000000000000000000000000000000000000000000000000000000000000000000000PES00010000001N00000000000000020170310
201702280060000700000000000000516679000000000000005166799900000000000000000000Consumidor Final              000000000068000000000000068000000000000000000000000000000000000000000000000000000000000000000000000000000000000000000000PES00010000001N00000000000000020170310
201702280060000700000000000000516684000000000000005166849900000000000000000000Consumidor Final              000000000068000000000000068000000000000000000000000000000000000000000000000000000000000000000000000000000000000000000000PES00010000001N00000000000000020170310
201702280060000700000000000000516685000000000000005166859900000000000000000000Consumidor Final              000000000068000000000000068000000000000000000000000000000000000000000000000000000000000000000000000000000000000000000000PES00010000001N00000000000000020170310
201702280060000700000000000000516686000000000000005166869900000000000000000000Consumidor Final              000000000077000000000000077000000000000000000000000000000000000000000000000000000000000000000000000000000000000000000000PES00010000001N00000000000000020170310
201702280060000700000000000000516689000000000000005166899900000000000000000000Consumidor Final              000000000068000000000000068000000000000000000000000000000000000000000000000000000000000000000000000000000000000000000000PES00010000001N00000000000000020170310
201702280060000700000000000000516690000000000000005166909900000000000000000000Consumidor Final              000000000032000000000000032000000000000000000000000000000000000000000000000000000000000000000000000000000000000000000000PES00010000001N00000000000000020170310
201702280060000700000000000000516691000000000000005166919900000000000000000000Consumidor Final              000000000066000000000000066000000000000000000000000000000000000000000000000000000000000000000000000000000000000000000000PES00010000001N00000000000000020170310
201702280060000700000000000000516692000000000000005166929900000000000000000000Consumidor Final              000000000068000000000000068000000000000000000000000000000000000000000000000000000000000000000000000000000000000000000000PES00010000001N00000000000000020170310
201702280060000700000000000000516693000000000000005166939900000000000000000000Consumidor Final              000000000068000000000000068000000000000000000000000000000000000000000000000000000000000000000000000000000000000000000000PES00010000001N00000000000000020170310
201702280060000700000000000000516694000000000000005166949900000000000000000000Consumidor Final              000000000068000000000000068000000000000000000000000000000000000000000000000000000000000000000000000000000000000000000000PES00010000001N00000000000000020170310
201702280060000800000000000000177226000000000000001772269900000000000000000000Consumidor Final              000000000058000000000000058000000000000000000000000000000000000000000000000000000000000000000000000000000000000000000000PES00010000001N00000000000000020170310
201702280060000800000000000000177227000000000000001772279900000000000000000000Consumidor Final              000000000058000000000000058000000000000000000000000000000000000000000000000000000000000000000000000000000000000000000000PES00010000001N00000000000000020170310
201702280060000800000000000000177228000000000000001772289900000000000000000000Consumidor Final              000000000058000000000000058000000000000000000000000000000000000000000000000000000000000000000000000000000000000000000000PES00010000001N00000000000000020170310
201702280060000800000000000000177229000000000000001772299900000000000000000000Consumidor Final              000000000058000000000000058000000000000000000000000000000000000000000000000000000000000000000000000000000000000000000000PES00010000001N00000000000000020170310
201702280060000700000000000000516703000000000000005167039900000000000000000000Consumidor Final              000000000068000000000000068000000000000000000000000000000000000000000000000000000000000000000000000000000000000000000000PES00010000001N00000000000000020170310
201702280060000700000000000000516704000000000000005167049900000000000000000000Consumidor Final              000000000068000000000000068000000000000000000000000000000000000000000000000000000000000000000000000000000000000000000000PES00010000001N00000000000000020170310
201702280060000700000000000000516705000000000000005167059900000000000000000000Consumidor Final              000000000072000000000000072000000000000000000000000000000000000000000000000000000000000000000000000000000000000000000000PES00010000001N00000000000000020170310
201702280060000700000000000000516706000000000000005167069900000000000000000000Consumidor Final              000000000072000000000000072000000000000000000000000000000000000000000000000000000000000000000000000000000000000000000000PES00010000001N00000000000000020170310
201702280060000700000000000000516707000000000000005167079900000000000000000000Consumidor Final              000000000068000000000000068000000000000000000000000000000000000000000000000000000000000000000000000000000000000000000000PES00010000001N00000000000000020170310
201702280060000800000000000000177230000000000000001772309900000000000000000000Consumidor Final              000000000068000000000000068000000000000000000000000000000000000000000000000000000000000000000000000000000000000000000000PES00010000001N00000000000000020170310
201702280060000700000000000000516708000000000000005167089900000000000000000000Consumidor Final              000000000068000000000000068000000000000000000000000000000000000000000000000000000000000000000000000000000000000000000000PES00010000001N00000000000000020170310
201702280060000700000000000000516709000000000000005167099900000000000000000000Consumidor Final              000000000081000000000000081000000000000000000000000000000000000000000000000000000000000000000000000000000000000000000000PES00010000001N00000000000000020170310
201702280060000800000000000000177231000000000000001772319900000000000000000000Consumidor Final              000000000058000000000000058000000000000000000000000000000000000000000000000000000000000000000000000000000000000000000000PES00010000001N00000000000000020170310
201702280060000800000000000000177232000000000000001772329900000000000000000000Consumidor Final              000000000058000000000000058000000000000000000000000000000000000000000000000000000000000000000000000000000000000000000000PES00010000001N00000000000000020170310
201702280060000700000000000000516710000000000000005167109900000000000000000000Consumidor Final              000000000068000000000000068000000000000000000000000000000000000000000000000000000000000000000000000000000000000000000000PES00010000001N00000000000000020170310
201702280060000700000000000000516711000000000000005167119900000000000000000000Consumidor Final              000000000041300000000000041300000000000000000000000000000000000000000000000000000000000000000000000000000000000000000000PES00010000001N00000000000000020170310
201702280060000700000000000000516712000000000000005167129900000000000000000000Consumidor Final              000000000073800000000000073800000000000000000000000000000000000000000000000000000000000000000000000000000000000000000000PES00010000001N00000000000000020170310
201702280060000700000000000000516713000000000000005167139900000000000000000000Consumidor Final              000000000071700000000000071700000000000000000000000000000000000000000000000000000000000000000000000000000000000000000000PES00010000001N00000000000000020170310
201702280060000700000000000000516716000000000000005167169900000000000000000000Consumidor Final              000000000081000000000000081000000000000000000000000000000000000000000000000000000000000000000000000000000000000000000000PES00010000001N00000000000000020170310
201702280060000700000000000000516717000000000000005167179900000000000000000000Consumidor Final              000000000073800000000000073800000000000000000000000000000000000000000000000000000000000000000000000000000000000000000000PES00010000001N00000000000000020170310
201702280060000700000000000000516718000000000000005167189900000000000000000000Consumidor Final              000000000068000000000000068000000000000000000000000000000000000000000000000000000000000000000000000000000000000000000000PES00010000001N00000000000000020170310
201702280060000700000000000000516719000000000000005167199900000000000000000000Consumidor Final              000000000081000000000000081000000000000000000000000000000000000000000000000000000000000000000000000000000000000000000000PES00010000001N00000000000000020170310
201702280060000700000000000000516720000000000000005167209900000000000000000000Consumidor Final              000000000068000000000000068000000000000000000000000000000000000000000000000000000000000000000000000000000000000000000000PES00010000001N00000000000000020170310
201702280060000700000000000000516721000000000000005167219900000000000000000000Consumidor Final              000000000068000000000000068000000000000000000000000000000000000000000000000000000000000000000000000000000000000000000000PES00010000001N00000000000000020170310
201702280060000800000000000000177233000000000000001772339900000000000000000000Consumidor Final              000000000058000000000000058000000000000000000000000000000000000000000000000000000000000000000000000000000000000000000000PES00010000001N00000000000000020170310
201702280060000800000000000000177234000000000000001772349900000000000000000000Consumidor Final              000000000058000000000000058000000000000000000000000000000000000000000000000000000000000000000000000000000000000000000000PES00010000001N00000000000000020170310
201702280060000900000000000000037303000000000000000373039900000000000000000000Consumidor Final              000000000068000000000000068000000000000000000000000000000000000000000000000000000000000000000000000000000000000000000000PES00010000001N00000000000000020170310
201702280060000700000000000000516714000000000000005167149900000000000000000000Consumidor Final              000000000068000000000000068000000000000000000000000000000000000000000000000000000000000000000000000000000000000000000000PES00010000001N00000000000000020170310
201702280060000700000000000000516715000000000000005167159900000000000000000000Consumidor Final              000000000071700000000000071700000000000000000000000000000000000000000000000000000000000000000000000000000000000000000000PES00010000001N00000000000000020170310
201702280060000900000000000000037304000000000000000373049900000000000000000000Consumidor Final              000000000068000000000000068000000000000000000000000000000000000000000000000000000000000000000000000000000000000000000000PES00010000001N00000000000000020170310
201702280060000900000000000000037305000000000000000373059900000000000000000000Consumidor Final              000000000060000000000000060000000000000000000000000000000000000000000000000000000000000000000000000000000000000000000000PES00010000001N00000000000000020170310
201702280060000900000000000000037306000000000000000373069900000000000000000000Consumidor Final              000000000068000000000000068000000000000000000000000000000000000000000000000000000000000000000000000000000000000000000000PES00010000001N00000000000000020170310
201702280060000900000000000000037307000000000000000373079900000000000000000000Consumidor Final              000000000070000000000000070000000000000000000000000000000000000000000000000000000000000000000000000000000000000000000000PES00010000001N00000000000000020170310
201702280060000900000000000000037308000000000000000373089900000000000000000000Consumidor Final              000000000068000000000000068000000000000000000000000000000000000000000000000000000000000000000000000000000000000000000000PES00010000001N00000000000000020170310
201702280060000700000000000000516722000000000000005167229900000000000000000000Consumidor Final              000000000073800000000000073800000000000000000000000000000000000000000000000000000000000000000000000000000000000000000000PES00010000001N00000000000000020170310
201702280060000900000000000000037300000000000000000373009900000000000000000000Consumidor Final              000000000068000000000000068000000000000000000000000000000000000000000000000000000000000000000000000000000000000000000000PES00010000001N00000000000000020170310
201702280060000800000000000000177238000000000000001772389900000000000000000000Consumidor Final              000000000058000000000000058000000000000000000000000000000000000000000000000000000000000000000000000000000000000000000000PES00010000001N00000000000000020170310
201702280060000700000000000000516733000000000000005167339900000000000000000000Consumidor Final              000000000068000000000000068000000000000000000000000000000000000000000000000000000000000000000000000000000000000000000000PES00010000001N00000000000000020170310
201702280060000700000000000000516734000000000000005167349900000000000000000000Consumidor Final              000000000068000000000000068000000000000000000000000000000000000000000000000000000000000000000000000000000000000000000000PES00010000001N00000000000000020170310
201702280060000700000000000000516736000000000000005167369900000000000000000000Consumidor Final              000000000076000000000000076000000000000000000000000000000000000000000000000000000000000000000000000000000000000000000000PES00010000001N00000000000000020170310
201702280060000800000000000000177239000000000000001772399900000000000000000000Consumidor Final              000000000058000000000000058000000000000000000000000000000000000000000000000000000000000000000000000000000000000000000000PES00010000001N00000000000000020170310
201702280060000700000000000000516740000000000000005167409900000000000000000000Consumidor Final              000000000072000000000000072000000000000000000000000000000000000000000000000000000000000000000000000000000000000000000000PES00010000001N00000000000000020170310
201702280060000700000000000000516742000000000000005167429900000000000000000000Consumidor Final              000000000068000000000000068000000000000000000000000000000000000000000000000000000000000000000000000000000000000000000000PES00010000001N00000000000000020170310
201702280060000700000000000000516743000000000000005167439900000000000000000000Consumidor Final              000000000068000000000000068000000000000000000000000000000000000000000000000000000000000000000000000000000000000000000000PES00010000001N00000000000000020170310
201702280060000900000000000000037302000000000000000373029900000000000000000000Consumidor Final              000000000068000000000000068000000000000000000000000000000000000000000000000000000000000000000000000000000000000000000000PES00010000001N00000000000000020170310
201702280060000900000000000000037309000000000000000373099900000000000000000000Consumidor Final              000000000072000000000000072000000000000000000000000000000000000000000000000000000000000000000000000000000000000000000000PES00010000001N00000000000000020170310
201702280060000700000000000000516737000000000000005167379900000000000000000000Consumidor Final              000000000068000000000000068000000000000000000000000000000000000000000000000000000000000000000000000000000000000000000000PES00010000001N00000000000000020170310
201702280060000700000000000000516738000000000000005167389900000000000000000000Consumidor Final              000000000068000000000000068000000000000000000000000000000000000000000000000000000000000000000000000000000000000000000000PES00010000001N00000000000000020170310
201702280060000700000000000000516739000000000000005167399900000000000000000000Consumidor Final              000000000068000000000000068000000000000000000000000000000000000000000000000000000000000000000000000000000000000000000000PES00010000001N00000000000000020170310
201702280060000700000000000000516747000000000000005167479900000000000000000000Consumidor Final              000000000060000000000000060000000000000000000000000000000000000000000000000000000000000000000000000000000000000000000000PES00010000001N00000000000000020170310
201702280060000600000000000000735763000000000000007357639900000000000000000000Consumidor Final              000000000068000000000000068000000000000000000000000000000000000000000000000000000000000000000000000000000000000000000000PES00010000001N00000000000000020170310
201702280060000600000000000000735764000000000000007357649900000000000000000000Consumidor Final              000000000068000000000000068000000000000000000000000000000000000000000000000000000000000000000000000000000000000000000000PES00010000001N00000000000000020170310
201702280060000600000000000000735765000000000000007357659900000000000000000000Consumidor Final              000000000068000000000000068000000000000000000000000000000000000000000000000000000000000000000000000000000000000000000000PES00010000001N00000000000000020170310
201702280060000600000000000000735766000000000000007357669900000000000000000000Consumidor Final              000000000068000000000000068000000000000000000000000000000000000000000000000000000000000000000000000000000000000000000000PES00010000001N00000000000000020170310
201702280060000600000000000000735767000000000000007357679900000000000000000000Consumidor Final              000000000068000000000000068000000000000000000000000000000000000000000000000000000000000000000000000000000000000000000000PES00010000001N00000000000000020170310
201702280060000700000000000000516723000000000000005167239900000000000000000000Consumidor Final              000000000076000000000000076000000000000000000000000000000000000000000000000000000000000000000000000000000000000000000000PES00010000001N00000000000000020170310
201702280060000900000000000000037310000000000000000373109900000000000000000000Consumidor Final              000000000076000000000000076000000000000000000000000000000000000000000000000000000000000000000000000000000000000000000000PES00010000001N00000000000000020170310
201702280060000700000000000000516744000000000000005167449900000000000000000000Consumidor Final              000000000087900000000000087900000000000000000000000000000000000000000000000000000000000000000000000000000000000000000000PES00010000001N00000000000000020170310
201702280060000900000000000000037311000000000000000373119900000000000000000000Consumidor Final              000000000084000000000000084000000000000000000000000000000000000000000000000000000000000000000000000000000000000000000000PES00010000001N00000000000000020170310
201702280060000700000000000000516745000000000000005167459900000000000000000000Consumidor Final              000000000068000000000000068000000000000000000000000000000000000000000000000000000000000000000000000000000000000000000000PES00010000001N00000000000000020170310
201702280060000700000000000000516746000000000000005167469900000000000000000000Consumidor Final              000000000073800000000000073800000000000000000000000000000000000000000000000000000000000000000000000000000000000000000000PES00010000001N00000000000000020170310
201702280060000700000000000000516751000000000000005167519900000000000000000000Consumidor Final              000000000068000000000000068000000000000000000000000000000000000000000000000000000000000000000000000000000000000000000000PES00010000001N00000000000000020170310
201702280060000700000000000000516752000000000000005167529900000000000000000000Consumidor Final              000000000068000000000000068000000000000000000000000000000000000000000000000000000000000000000000000000000000000000000000PES00010000001N00000000000000020170310
201702280060000900000000000000037318000000000000000373189900000000000000000000Consumidor Final              000000000068000000000000068000000000000000000000000000000000000000000000000000000000000000000000000000000000000000000000PES00010000001N00000000000000020170310
201702280060000900000000000000037319000000000000000373199900000000000000000000Consumidor Final              000000000068000000000000068000000000000000000000000000000000000000000000000000000000000000000000000000000000000000000000PES00010000001N00000000000000020170310
