201701310060000700000000000000510493000000000000005104939900000000000000000000Consumidor Final              000000000084700000000000084700000000000000000000000000000000000000000000000000000000000000000000000000000000000000000000PES00010000001N00000000000000020170210
201701310060000700000000000000510494000000000000005104949900000000000000000000Consumidor Final              000000000065000000000000065000000000000000000000000000000000000000000000000000000000000000000000000000000000000000000000PES00010000001N00000000000000020170210
201701310060000700000000000000510495000000000000005104959900000000000000000000Consumidor Final              000000000065000000000000065000000000000000000000000000000000000000000000000000000000000000000000000000000000000000000000PES00010000001N00000000000000020170210
201701310060000700000000000000510496000000000000005104969900000000000000000000Consumidor Final              000000000065000000000000065000000000000000000000000000000000000000000000000000000000000000000000000000000000000000000000PES00010000001N00000000000000020170210
201701310060000700000000000000510497000000000000005104979900000000000000000000Consumidor Final              000000000065000000000000065000000000000000000000000000000000000000000000000000000000000000000000000000000000000000000000PES00010000001N00000000000000020170210
201701310060000700000000000000510498000000000000005104989900000000000000000000Consumidor Final              000000000065000000000000065000000000000000000000000000000000000000000000000000000000000000000000000000000000000000000000PES00010000001N00000000000000020170210
201701310060000700000000000000510499000000000000005104999900000000000000000000Consumidor Final              000000000065000000000000065000000000000000000000000000000000000000000000000000000000000000000000000000000000000000000000PES00010000001N00000000000000020170210
201701310060000700000000000000510500000000000000005105009900000000000000000000Consumidor Final              000000000069000000000000069000000000000000000000000000000000000000000000000000000000000000000000000000000000000000000000PES00010000001N00000000000000020170210
201701310060000700000000000000510501000000000000005105019900000000000000000000Consumidor Final              000000000069000000000000069000000000000000000000000000000000000000000000000000000000000000000000000000000000000000000000PES00010000001N00000000000000020170210
201701310060000700000000000000510502000000000000005105029900000000000000000000Consumidor Final              000000000069000000000000069000000000000000000000000000000000000000000000000000000000000000000000000000000000000000000000PES00010000001N00000000000000020170210
201701310060000700000000000000510503000000000000005105039900000000000000000000Consumidor Final              000000000069000000000000069000000000000000000000000000000000000000000000000000000000000000000000000000000000000000000000PES00010000001N00000000000000020170210
201701310060000700000000000000510463000000000000005104639900000000000000000000Consumidor Final              000000000065000000000000065000000000000000000000000000000000000000000000000000000000000000000000000000000000000000000000PES00010000001N00000000000000020170210
201701310060000700000000000000510464000000000000005104649900000000000000000000Consumidor Final              000000000065000000000000065000000000000000000000000000000000000000000000000000000000000000000000000000000000000000000000PES00010000001N00000000000000020170210
201701310060000700000000000000510465000000000000005104659900000000000000000000Consumidor Final              000000000065000000000000065000000000000000000000000000000000000000000000000000000000000000000000000000000000000000000000PES00010000001N00000000000000020170210
201701310060000700000000000000510466000000000000005104669900000000000000000000Consumidor Final              000000000065000000000000065000000000000000000000000000000000000000000000000000000000000000000000000000000000000000000000PES00010000001N00000000000000020170210
201701310060000700000000000000510467000000000000005104679900000000000000000000Consumidor Final              000000000067000000000000067000000000000000000000000000000000000000000000000000000000000000000000000000000000000000000000PES00010000001N00000000000000020170210
201701310060000700000000000000510480000000000000005104809900000000000000000000Consumidor Final              000000000063000000000000063000000000000000000000000000000000000000000000000000000000000000000000000000000000000000000000PES00010000001N00000000000000020170210
201701310060000700000000000000510482000000000000005104829900000000000000000000Consumidor Final              000000000078000000000000078000000000000000000000000000000000000000000000000000000000000000000000000000000000000000000000PES00010000001N00000000000000020170210
201701310060000700000000000000510483000000000000005104839900000000000000000000Consumidor Final              000000000065000000000000065000000000000000000000000000000000000000000000000000000000000000000000000000000000000000000000PES00010000001N00000000000000020170210
201701310060000600000000000000730594000000000000007305949900000000000000000000Consumidor Final              000000000078000000000000078000000000000000000000000000000000000000000000000000000000000000000000000000000000000000000000PES00010000001N00000000000000020170210
201701310060000700000000000000510484000000000000005104849900000000000000000000Consumidor Final              000000000065000000000000065000000000000000000000000000000000000000000000000000000000000000000000000000000000000000000000PES00010000001N00000000000000020170210
201701310060000600000000000000730595000000000000007305959900000000000000000000Consumidor Final              000000000078000000000000078000000000000000000000000000000000000000000000000000000000000000000000000000000000000000000000PES00010000001N00000000000000020170210
201701310510000100000000000000000205000000000000000002058000000000002440043432RUBEN                         000000000065000000000000065000000000000000000000000000000000000000000000000000000000000000000000000000000000000000000000PES00010000001N00000000000000000000000
201701310510000100000000000000000206000000000000000002068000000000023131005849MARIO DANIEL                  000000000055000000000000055000000000000000000000000000000000000000000000000000000000000000000000000000000000000000000000PES00010000001N00000000000000000000000
201701310060000600000000000000730565000000000000007305659900000000000000000000Consumidor Final              000000000078000000000000078000000000000000000000000000000000000000000000000000000000000000000000000000000000000000000000PES00010000001N00000000000000020170210
201701310060000600000000000000730566000000000000007305669900000000000000000000Consumidor Final              000000000099000000000000099000000000000000000000000000000000000000000000000000000000000000000000000000000000000000000000PES00010000001N00000000000000020170210
201701310060000600000000000000730570000000000000007305709900000000000000000000Consumidor Final              000000000070600000000000070600000000000000000000000000000000000000000000000000000000000000000000000000000000000000000000PES00010000001N00000000000000020170210
201701310060000600000000000000730571000000000000007305719900000000000000000000Consumidor Final              000000000065000000000000065000000000000000000000000000000000000000000000000000000000000000000000000000000000000000000000PES00010000001N00000000000000020170210
201701310060000600000000000000730572000000000000007305729900000000000000000000Consumidor Final              000000000065000000000000065000000000000000000000000000000000000000000000000000000000000000000000000000000000000000000000PES00010000001N00000000000000020170210
201701310060000700000000000000510424000000000000005104249900000000000000000000Consumidor Final              000000000065000000000000065000000000000000000000000000000000000000000000000000000000000000000000000000000000000000000000PES00010000001N00000000000000020170210
201701310060000800000000000000175714000000000000001757149900000000000000000000Consumidor Final              000000000055000000000000055000000000000000000000000000000000000000000000000000000000000000000000000000000000000000000000PES00010000001N00000000000000020170210
201701310060000800000000000000175715000000000000001757159900000000000000000000Consumidor Final              000000000041000000000000041000000000000000000000000000000000000000000000000000000000000000000000000000000000000000000000PES00010000001N00000000000000020170210
201701310060000800000000000000175716000000000000001757169900000000000000000000Consumidor Final              000000000065000000000000065000000000000000000000000000000000000000000000000000000000000000000000000000000000000000000000PES00010000001N00000000000000020170210
201701310060000800000000000000175717000000000000001757179900000000000000000000Consumidor Final              000000000055000000000000055000000000000000000000000000000000000000000000000000000000000000000000000000000000000000000000PES00010000001N00000000000000020170210
201701310060000800000000000000175718000000000000001757189900000000000000000000Consumidor Final              000000000055000000000000055000000000000000000000000000000000000000000000000000000000000000000000000000000000000000000000PES00010000001N00000000000000020170210
201701310060000800000000000000175719000000000000001757199900000000000000000000Consumidor Final              000000000021000000000000021000000000000000000000000000000000000000000000000000000000000000000000000000000000000000000000PES00010000001N00000000000000020170210
201701310060000800000000000000175720000000000000001757209900000000000000000000Consumidor Final              000000000055000000000000055000000000000000000000000000000000000000000000000000000000000000000000000000000000000000000000PES00010000001N00000000000000020170210
201701310060000700000000000000510446000000000000005104469900000000000000000000Consumidor Final              000000000089000000000000089000000000000000000000000000000000000000000000000000000000000000000000000000000000000000000000PES00010000001N00000000000000020170210
201701310060000700000000000000510447000000000000005104479900000000000000000000Consumidor Final              000000000065000000000000065000000000000000000000000000000000000000000000000000000000000000000000000000000000000000000000PES00010000001N00000000000000020170210
201701310060000700000000000000510448000000000000005104489900000000000000000000Consumidor Final              000000000065000000000000065000000000000000000000000000000000000000000000000000000000000000000000000000000000000000000000PES00010000001N00000000000000020170210
201701310060000700000000000000510425000000000000005104259900000000000000000000Consumidor Final              000000000070600000000000070600000000000000000000000000000000000000000000000000000000000000000000000000000000000000000000PES00010000001N00000000000000020170210
201701310060000700000000000000510430000000000000005104309900000000000000000000Consumidor Final              000000000088000000000000088000000000000000000000000000000000000000000000000000000000000000000000000000000000000000000000PES00010000001N00000000000000020170210
201701310060000700000000000000510431000000000000005104319900000000000000000000Consumidor Final              000000000065000000000000065000000000000000000000000000000000000000000000000000000000000000000000000000000000000000000000PES00010000001N00000000000000020170210
201701310060000700000000000000510441000000000000005104419900000000000000000000Consumidor Final              000000000065000000000000065000000000000000000000000000000000000000000000000000000000000000000000000000000000000000000000PES00010000001N00000000000000020170210
201701310060000700000000000000510442000000000000005104429900000000000000000000Consumidor Final              000000000065000000000000065000000000000000000000000000000000000000000000000000000000000000000000000000000000000000000000PES00010000001N00000000000000020170210
201701310060000700000000000000510443000000000000005104439900000000000000000000Consumidor Final              000000000070600000000000070600000000000000000000000000000000000000000000000000000000000000000000000000000000000000000000PES00010000001N00000000000000020170210
201701310060000600000000000000730573000000000000007305739900000000000000000000Consumidor Final              000000000065000000000000065000000000000000000000000000000000000000000000000000000000000000000000000000000000000000000000PES00010000001N00000000000000020170210
201701310060000600000000000000730574000000000000007305749900000000000000000000Consumidor Final              000000000078000000000000078000000000000000000000000000000000000000000000000000000000000000000000000000000000000000000000PES00010000001N00000000000000020170210
201701310060000600000000000000730575000000000000007305759900000000000000000000Consumidor Final              000000000056000000000000056000000000000000000000000000000000000000000000000000000000000000000000000000000000000000000000PES00010000001N00000000000000020170210
201701310060000600000000000000730576000000000000007305769900000000000000000000Consumidor Final              000000000078000000000000078000000000000000000000000000000000000000000000000000000000000000000000000000000000000000000000PES00010000001N00000000000000020170210
201701310060000800000000000000175725000000000000001757259900000000000000000000Consumidor Final              000000000033000000000000033000000000000000000000000000000000000000000000000000000000000000000000000000000000000000000000PES00010000001N00000000000000020170210
201701310060000700000000000000510426000000000000005104269900000000000000000000Consumidor Final              000000000065000000000000065000000000000000000000000000000000000000000000000000000000000000000000000000000000000000000000PES00010000001N00000000000000020170210
201701310060000600000000000000730564000000000000007305649900000000000000000000Consumidor Final              000000000065000000000000065000000000000000000000000000000000000000000000000000000000000000000000000000000000000000000000PES00010000001N00000000000000020170210
201701310060000700000000000000510449000000000000005104499900000000000000000000Consumidor Final              000000000063000000000000063000000000000000000000000000000000000000000000000000000000000000000000000000000000000000000000PES00010000001N00000000000000020170210
201701310060000700000000000000510450000000000000005104509900000000000000000000Consumidor Final              000000000056000000000000056000000000000000000000000000000000000000000000000000000000000000000000000000000000000000000000PES00010000001N00000000000000020170210
201701310060000800000000000000175721000000000000001757219900000000000000000000Consumidor Final              000000000055000000000000055000000000000000000000000000000000000000000000000000000000000000000000000000000000000000000000PES00010000001N00000000000000020170210
201701310060000800000000000000175722000000000000001757229900000000000000000000Consumidor Final              000000000055000000000000055000000000000000000000000000000000000000000000000000000000000000000000000000000000000000000000PES00010000001N00000000000000020170210
201701310060000800000000000000175723000000000000001757239900000000000000000000Consumidor Final              000000000055000000000000055000000000000000000000000000000000000000000000000000000000000000000000000000000000000000000000PES00010000001N00000000000000020170210
201701310060000700000000000000510451000000000000005104519900000000000000000000Consumidor Final              000000000099000000000000099000000000000000000000000000000000000000000000000000000000000000000000000000000000000000000000PES00010000001N00000000000000020170210
201701310060000700000000000000510452000000000000005104529900000000000000000000Consumidor Final              000000000065000000000000065000000000000000000000000000000000000000000000000000000000000000000000000000000000000000000000PES00010000001N00000000000000020170210
201701310060000700000000000000510455000000000000005104559900000000000000000000Consumidor Final              000000000082000000000000082000000000000000000000000000000000000000000000000000000000000000000000000000000000000000000000PES00010000001N00000000000000020170210
201701310060000700000000000000510456000000000000005104569900000000000000000000Consumidor Final              000000000065000000000000065000000000000000000000000000000000000000000000000000000000000000000000000000000000000000000000PES00010000001N00000000000000020170210
201701310060000700000000000000510427000000000000005104279900000000000000000000Consumidor Final              000000000065000000000000065000000000000000000000000000000000000000000000000000000000000000000000000000000000000000000000PES00010000001N00000000000000020170210
201701310060000700000000000000510428000000000000005104289900000000000000000000Consumidor Final              000000000065000000000000065000000000000000000000000000000000000000000000000000000000000000000000000000000000000000000000PES00010000001N00000000000000020170210
201701310060000700000000000000510429000000000000005104299900000000000000000000Consumidor Final              000000000067000000000000067000000000000000000000000000000000000000000000000000000000000000000000000000000000000000000000PES00010000001N00000000000000020170210
201701310060000700000000000000510432000000000000005104329900000000000000000000Consumidor Final              000000000070600000000000070600000000000000000000000000000000000000000000000000000000000000000000000000000000000000000000PES00010000001N00000000000000020170210
201701310510000100000000000000000207000000000000000002078000000000023131005849VALLORANI MARIO DANIEL        000000000065000000000000065000000000000000000000000000000000000000000000000000000000000000000000000000000000000000000000PES00010000001N00000000000000000000000
201701310060000600000000000000730563000000000000007305639900000000000000000000Consumidor Final              000000000067000000000000067000000000000000000000000000000000000000000000000000000000000000000000000000000000000000000000PES00010000001N00000000000000020170210
201701310060000700000000000000510433000000000000005104339900000000000000000000Consumidor Final              000000000065000000000000065000000000000000000000000000000000000000000000000000000000000000000000000000000000000000000000PES00010000001N00000000000000020170210
201701310060000700000000000000510434000000000000005104349900000000000000000000Consumidor Final              000000000070600000000000070600000000000000000000000000000000000000000000000000000000000000000000000000000000000000000000PES00010000001N00000000000000020170210
201701310060000700000000000000510435000000000000005104359900000000000000000000Consumidor Final              000000000065000000000000065000000000000000000000000000000000000000000000000000000000000000000000000000000000000000000000PES00010000001N00000000000000020170210
201701310060000700000000000000510436000000000000005104369900000000000000000000Consumidor Final              000000000065000000000000065000000000000000000000000000000000000000000000000000000000000000000000000000000000000000000000PES00010000001N00000000000000020170210
201701310060000700000000000000510437000000000000005104379900000000000000000000Consumidor Final              000000000065000000000000065000000000000000000000000000000000000000000000000000000000000000000000000000000000000000000000PES00010000001N00000000000000020170210
201701310060000700000000000000510438000000000000005104389900000000000000000000Consumidor Final              000000000045000000000000045000000000000000000000000000000000000000000000000000000000000000000000000000000000000000000000PES00010000001N00000000000000020170210
201701310060000700000000000000510439000000000000005104399900000000000000000000Consumidor Final              000000000065000000000000065000000000000000000000000000000000000000000000000000000000000000000000000000000000000000000000PES00010000001N00000000000000020170210
201701310060000700000000000000510440000000000000005104409900000000000000000000Consumidor Final              000000000065000000000000065000000000000000000000000000000000000000000000000000000000000000000000000000000000000000000000PES00010000001N00000000000000020170210
201701310060000700000000000000510444000000000000005104449900000000000000000000Consumidor Final              000000000065000000000000065000000000000000000000000000000000000000000000000000000000000000000000000000000000000000000000PES00010000001N00000000000000020170210
201701310060000700000000000000510445000000000000005104459900000000000000000000Consumidor Final              000000000070600000000000070600000000000000000000000000000000000000000000000000000000000000000000000000000000000000000000PES00010000001N00000000000000020170210
201701310060000700000000000000510453000000000000005104539900000000000000000000Consumidor Final              000000000036000000000000036000000000000000000000000000000000000000000000000000000000000000000000000000000000000000000000PES00010000001N00000000000000020170210
201701310060000700000000000000510454000000000000005104549900000000000000000000Consumidor Final              000000000088000000000000088000000000000000000000000000000000000000000000000000000000000000000000000000000000000000000000PES00010000001N00000000000000020170210
201701310060000800000000000000175724000000000000001757249900000000000000000000Consumidor Final              000000000055000000000000055000000000000000000000000000000000000000000000000000000000000000000000000000000000000000000000PES00010000001N00000000000000020170210
201701310060000600000000000000730567000000000000007305679900000000000000000000Consumidor Final              000000000065000000000000065000000000000000000000000000000000000000000000000000000000000000000000000000000000000000000000PES00010000001N00000000000000020170210
201701310060000600000000000000730568000000000000007305689900000000000000000000Consumidor Final              000000000065000000000000065000000000000000000000000000000000000000000000000000000000000000000000000000000000000000000000PES00010000001N00000000000000020170210
201701310060000600000000000000730569000000000000007305699900000000000000000000Consumidor Final              000000000078000000000000078000000000000000000000000000000000000000000000000000000000000000000000000000000000000000000000PES00010000001N00000000000000020170210
201701310060000700000000000000510457000000000000005104579900000000000000000000Consumidor Final              000000000065000000000000065000000000000000000000000000000000000000000000000000000000000000000000000000000000000000000000PES00010000001N00000000000000020170210
201701310060000700000000000000510458000000000000005104589000000000000020294564DELORENZI MARIA VALERIA       000000000114000000000000114000000000000000000000000000000000000000000000000000000000000000000000000000000000000000000000PES00010000001N00000000000000020170210
201701310060000700000000000000510459000000000000005104599900000000000000000000Consumidor Final              000000000065000000000000065000000000000000000000000000000000000000000000000000000000000000000000000000000000000000000000PES00010000001N00000000000000020170210
201701310060000700000000000000510460000000000000005104609900000000000000000000Consumidor Final              000000000065000000000000065000000000000000000000000000000000000000000000000000000000000000000000000000000000000000000000PES00010000001N00000000000000020170210
201701310060000800000000000000175726000000000000001757269900000000000000000000Consumidor Final              000000000033000000000000033000000000000000000000000000000000000000000000000000000000000000000000000000000000000000000000PES00010000001N00000000000000020170210
201701310060000800000000000000175727000000000000001757279900000000000000000000Consumidor Final              000000000033000000000000033000000000000000000000000000000000000000000000000000000000000000000000000000000000000000000000PES00010000001N00000000000000020170210
201701310060000800000000000000175728000000000000001757289900000000000000000000Consumidor Final              000000000033000000000000033000000000000000000000000000000000000000000000000000000000000000000000000000000000000000000000PES00010000001N00000000000000020170210
201701310060000700000000000000510461000000000000005104619900000000000000000000Consumidor Final              000000000070600000000000070600000000000000000000000000000000000000000000000000000000000000000000000000000000000000000000PES00010000001N00000000000000020170210
201701310060000700000000000000510462000000000000005104629900000000000000000000Consumidor Final              000000000067000000000000067000000000000000000000000000000000000000000000000000000000000000000000000000000000000000000000PES00010000001N00000000000000020170210
201701310060000600000000000000730577000000000000007305779900000000000000000000Consumidor Final              000000000065000000000000065000000000000000000000000000000000000000000000000000000000000000000000000000000000000000000000PES00010000001N00000000000000020170210
201701310060000600000000000000730578000000000000007305789900000000000000000000Consumidor Final              000000000065000000000000065000000000000000000000000000000000000000000000000000000000000000000000000000000000000000000000PES00010000001N00000000000000020170210
201701310060000600000000000000730579000000000000007305799900000000000000000000Consumidor Final              000000000065000000000000065000000000000000000000000000000000000000000000000000000000000000000000000000000000000000000000PES00010000001N00000000000000020170210
201701310060000600000000000000730584000000000000007305849900000000000000000000Consumidor Final              000000000069000000000000069000000000000000000000000000000000000000000000000000000000000000000000000000000000000000000000PES00010000001N00000000000000020170210
201701310060000600000000000000730585000000000000007305859900000000000000000000Consumidor Final              000000000084700000000000084700000000000000000000000000000000000000000000000000000000000000000000000000000000000000000000PES00010000001N00000000000000020170210
201701310060000600000000000000730586000000000000007305869900000000000000000000Consumidor Final              000000000070600000000000070600000000000000000000000000000000000000000000000000000000000000000000000000000000000000000000PES00010000001N00000000000000020170210
201701310060000600000000000000730587000000000000007305879900000000000000000000Consumidor Final              000000000065000000000000065000000000000000000000000000000000000000000000000000000000000000000000000000000000000000000000PES00010000001N00000000000000020170210
201701310060000600000000000000730588000000000000007305889900000000000000000000Consumidor Final              000000000084700000000000084700000000000000000000000000000000000000000000000000000000000000000000000000000000000000000000PES00010000001N00000000000000020170210
201701310060000600000000000000730589000000000000007305899900000000000000000000Consumidor Final              000000000065000000000000065000000000000000000000000000000000000000000000000000000000000000000000000000000000000000000000PES00010000001N00000000000000020170210
201701310060000800000000000000175729000000000000001757299900000000000000000000Consumidor Final              000000000055000000000000055000000000000000000000000000000000000000000000000000000000000000000000000000000000000000000000PES00010000001N00000000000000020170210
201701310060000600000000000000730592000000000000007305929900000000000000000000Consumidor Final              000000000073000000000000073000000000000000000000000000000000000000000000000000000000000000000000000000000000000000000000PES00010000001N00000000000000020170210
201701310060000700000000000000510481000000000000005104819900000000000000000000Consumidor Final              000000000065000000000000065000000000000000000000000000000000000000000000000000000000000000000000000000000000000000000000PES00010000001N00000000000000020170210
201701310060000600000000000000730593000000000000007305939900000000000000000000Consumidor Final              000000000078000000000000078000000000000000000000000000000000000000000000000000000000000000000000000000000000000000000000PES00010000001N00000000000000020170210
201701310060000600000000000000730580000000000000007305809900000000000000000000Consumidor Final              000000000065000000000000065000000000000000000000000000000000000000000000000000000000000000000000000000000000000000000000PES00010000001N00000000000000020170210
201701310060000600000000000000730590000000000000007305909900000000000000000000Consumidor Final              000000000070600000000000070600000000000000000000000000000000000000000000000000000000000000000000000000000000000000000000PES00010000001N00000000000000020170210
201701310060000600000000000000730591000000000000007305919900000000000000000000Consumidor Final              000000000070600000000000070600000000000000000000000000000000000000000000000000000000000000000000000000000000000000000000PES00010000001N00000000000000020170210
201701310060000700000000000000510485000000000000005104859900000000000000000000Consumidor Final              000000000078000000000000078000000000000000000000000000000000000000000000000000000000000000000000000000000000000000000000PES00010000001N00000000000000020170210
201701310060000600000000000000730596000000000000007305969900000000000000000000Consumidor Final              000000000084700000000000084700000000000000000000000000000000000000000000000000000000000000000000000000000000000000000000PES00010000001N00000000000000020170210
201701310060000700000000000000510486000000000000005104869900000000000000000000Consumidor Final              000000000080000000000000080000000000000000000000000000000000000000000000000000000000000000000000000000000000000000000000PES00010000001N00000000000000020170210
201701310060000700000000000000510489000000000000005104899900000000000000000000Consumidor Final              000000000065000000000000065000000000000000000000000000000000000000000000000000000000000000000000000000000000000000000000PES00010000001N00000000000000020170210
201701310060000600000000000000730597000000000000007305979900000000000000000000Consumidor Final              000000000084700000000000084700000000000000000000000000000000000000000000000000000000000000000000000000000000000000000000PES00010000001N00000000000000020170210
201701310060000700000000000000510505000000000000005105059900000000000000000000Consumidor Final              000000000065000000000000065000000000000000000000000000000000000000000000000000000000000000000000000000000000000000000000PES00010000001N00000000000000020170210
201701310060000700000000000000510506000000000000005105069900000000000000000000Consumidor Final              000000000065000000000000065000000000000000000000000000000000000000000000000000000000000000000000000000000000000000000000PES00010000001N00000000000000020170210
201701310060000700000000000000510507000000000000005105079900000000000000000000Consumidor Final              000000000065000000000000065000000000000000000000000000000000000000000000000000000000000000000000000000000000000000000000PES00010000001N00000000000000020170210
201701310060000600000000000000730581000000000000007305819900000000000000000000Consumidor Final              000000000065000000000000065000000000000000000000000000000000000000000000000000000000000000000000000000000000000000000000PES00010000001N00000000000000020170210
201701310060000700000000000000510468000000000000005104689000000000099999999999Consumidor Final              000000000102000000000000102000000000000000000000000000000000000000000000000000000000000000000000000000000000000000000000PES00010000001N00000000000000020170210
201701310060000700000000000000510469000000000000005104699900000000000000000000Consumidor Final              000000000065000000000000065000000000000000000000000000000000000000000000000000000000000000000000000000000000000000000000PES00010000001N00000000000000020170210
201701310060000700000000000000510470000000000000005104709900000000000000000000Consumidor Final              000000000087000000000000087000000000000000000000000000000000000000000000000000000000000000000000000000000000000000000000PES00010000001N00000000000000020170210
201701310060000700000000000000510471000000000000005104719900000000000000000000Consumidor Final              000000000065000000000000065000000000000000000000000000000000000000000000000000000000000000000000000000000000000000000000PES00010000001N00000000000000020170210
201701310060000700000000000000510472000000000000005104729900000000000000000000Consumidor Final              000000000079000000000000079000000000000000000000000000000000000000000000000000000000000000000000000000000000000000000000PES00010000001N00000000000000020170210
201701310060000700000000000000510475000000000000005104759900000000000000000000Consumidor Final              000000000070600000000000070600000000000000000000000000000000000000000000000000000000000000000000000000000000000000000000PES00010000001N00000000000000020170210
201701310060000700000000000000510476000000000000005104769900000000000000000000Consumidor Final              000000000063000000000000063000000000000000000000000000000000000000000000000000000000000000000000000000000000000000000000PES00010000001N00000000000000020170210
201701310060000700000000000000510477000000000000005104779900000000000000000000Consumidor Final              000000000073000000000000073000000000000000000000000000000000000000000000000000000000000000000000000000000000000000000000PES00010000001N00000000000000020170210
201701310060000700000000000000510478000000000000005104789900000000000000000000Consumidor Final              000000000065000000000000065000000000000000000000000000000000000000000000000000000000000000000000000000000000000000000000PES00010000001N00000000000000020170210
201701310060000700000000000000510479000000000000005104799900000000000000000000Consumidor Final              000000000065000000000000065000000000000000000000000000000000000000000000000000000000000000000000000000000000000000000000PES00010000001N00000000000000020170210
201701310060000600000000000000730582000000000000007305829900000000000000000000Consumidor Final              000000000065000000000000065000000000000000000000000000000000000000000000000000000000000000000000000000000000000000000000PES00010000001N00000000000000020170210
201701310060000700000000000000510508000000000000005105089900000000000000000000Consumidor Final              000000000042400000000000042400000000000000000000000000000000000000000000000000000000000000000000000000000000000000000000PES00010000001N00000000000000020170210
201701310060000700000000000000510509000000000000005105099900000000000000000000Consumidor Final              000000000065000000000000065000000000000000000000000000000000000000000000000000000000000000000000000000000000000000000000PES00010000001N00000000000000020170210
201701310060000700000000000000510512000000000000005105129900000000000000000000Consumidor Final              000000000065000000000000065000000000000000000000000000000000000000000000000000000000000000000000000000000000000000000000PES00010000001N00000000000000020170210
201701310060000700000000000000510513000000000000005105139900000000000000000000Consumidor Final              000000000065000000000000065000000000000000000000000000000000000000000000000000000000000000000000000000000000000000000000PES00010000001N00000000000000020170210
201701310060000700000000000000510514000000000000005105149900000000000000000000Consumidor Final              000000000069000000000000069000000000000000000000000000000000000000000000000000000000000000000000000000000000000000000000PES00010000001N00000000000000020170210
201701310060000700000000000000510515000000000000005105159900000000000000000000Consumidor Final              000000000065000000000000065000000000000000000000000000000000000000000000000000000000000000000000000000000000000000000000PES00010000001N00000000000000020170210
201701310060000700000000000000510516000000000000005105169900000000000000000000Consumidor Final              000000000057000000000000057000000000000000000000000000000000000000000000000000000000000000000000000000000000000000000000PES00010000001N00000000000000020170210
201701310060000700000000000000510517000000000000005105179900000000000000000000Consumidor Final              000000000065000000000000065000000000000000000000000000000000000000000000000000000000000000000000000000000000000000000000PES00010000001N00000000000000020170210
201701310060000700000000000000510518000000000000005105189900000000000000000000Consumidor Final              000000000067000000000000067000000000000000000000000000000000000000000000000000000000000000000000000000000000000000000000PES00010000001N00000000000000020170210
201701310060000700000000000000510519000000000000005105199900000000000000000000Consumidor Final              000000000065000000000000065000000000000000000000000000000000000000000000000000000000000000000000000000000000000000000000PES00010000001N00000000000000020170210
201701310060000600000000000000730583000000000000007305839900000000000000000000Consumidor Final              000000000073000000000000073000000000000000000000000000000000000000000000000000000000000000000000000000000000000000000000PES00010000001N00000000000000020170210
201701310060000700000000000000510473000000000000005104739900000000000000000000Consumidor Final              000000000063000000000000063000000000000000000000000000000000000000000000000000000000000000000000000000000000000000000000PES00010000001N00000000000000020170210
201701310060000700000000000000510474000000000000005104749900000000000000000000Consumidor Final              000000000073000000000000073000000000000000000000000000000000000000000000000000000000000000000000000000000000000000000000PES00010000001N00000000000000020170210
201701310060000700000000000000510487000000000000005104879900000000000000000000Consumidor Final              000000000065000000000000065000000000000000000000000000000000000000000000000000000000000000000000000000000000000000000000PES00010000001N00000000000000020170210
201701310060000700000000000000510488000000000000005104889900000000000000000000Consumidor Final              000000000065000000000000065000000000000000000000000000000000000000000000000000000000000000000000000000000000000000000000PES00010000001N00000000000000020170210
201701310060000600000000000000730598000000000000007305989900000000000000000000Consumidor Final              000000000065000000000000065000000000000000000000000000000000000000000000000000000000000000000000000000000000000000000000PES00010000001N00000000000000020170210
201701310060000600000000000000730599000000000000007305999900000000000000000000Consumidor Final              000000000065000000000000065000000000000000000000000000000000000000000000000000000000000000000000000000000000000000000000PES00010000001N00000000000000020170210
201701310060000700000000000000510490000000000000005104909900000000000000000000Consumidor Final              000000000065000000000000065000000000000000000000000000000000000000000000000000000000000000000000000000000000000000000000PES00010000001N00000000000000020170210
201701310060000700000000000000510491000000000000005104919900000000000000000000Consumidor Final              000000000084700000000000084700000000000000000000000000000000000000000000000000000000000000000000000000000000000000000000PES00010000001N00000000000000020170210
201701310060000700000000000000510492000000000000005104929900000000000000000000Consumidor Final              000000000065000000000000065000000000000000000000000000000000000000000000000000000000000000000000000000000000000000000000PES00010000001N00000000000000020170210
201701310060000600000000000000730600000000000000007306009900000000000000000000Consumidor Final              000000000069000000000000069000000000000000000000000000000000000000000000000000000000000000000000000000000000000000000000PES00010000001N00000000000000020170210
201701310060000800000000000000175730000000000000001757309900000000000000000000Consumidor Final              000000000055000000000000055000000000000000000000000000000000000000000000000000000000000000000000000000000000000000000000PES00010000001N00000000000000020170210
201701310060000600000000000000730601000000000000007306019900000000000000000000Consumidor Final              000000000065000000000000065000000000000000000000000000000000000000000000000000000000000000000000000000000000000000000000PES00010000001N00000000000000020170210
201701310060000600000000000000730613000000000000007306139900000000000000000000Consumidor Final              000000000065000000000000065000000000000000000000000000000000000000000000000000000000000000000000000000000000000000000000PES00010000001N00000000000000020170210
201701310060000600000000000000730614000000000000007306149900000000000000000000Consumidor Final              000000000069000000000000069000000000000000000000000000000000000000000000000000000000000000000000000000000000000000000000PES00010000001N00000000000000020170210
201701310060000700000000000000510510000000000000005105109900000000000000000000Consumidor Final              000000000078000000000000078000000000000000000000000000000000000000000000000000000000000000000000000000000000000000000000PES00010000001N00000000000000020170210
201701310060000600000000000000730615000000000000007306159900000000000000000000Consumidor Final              000000000069000000000000069000000000000000000000000000000000000000000000000000000000000000000000000000000000000000000000PES00010000001N00000000000000020170210
201701310060000700000000000000510511000000000000005105119900000000000000000000Consumidor Final              000000000056000000000000056000000000000000000000000000000000000000000000000000000000000000000000000000000000000000000000PES00010000001N00000000000000020170210
201701310060000600000000000000730616000000000000007306169900000000000000000000Consumidor Final              000000000069000000000000069000000000000000000000000000000000000000000000000000000000000000000000000000000000000000000000PES00010000001N00000000000000020170210
201701310060000600000000000000730617000000000000007306179900000000000000000000Consumidor Final              000000000070600000000000070600000000000000000000000000000000000000000000000000000000000000000000000000000000000000000000PES00010000001N00000000000000020170210
201701310060000600000000000000730618000000000000007306189900000000000000000000Consumidor Final              000000000065000000000000065000000000000000000000000000000000000000000000000000000000000000000000000000000000000000000000PES00010000001N00000000000000020170210
201701310060000600000000000000730619000000000000007306199900000000000000000000Consumidor Final              000000000063000000000000063000000000000000000000000000000000000000000000000000000000000000000000000000000000000000000000PES00010000001N00000000000000020170210
201701310060000800000000000000175731000000000000001757319900000000000000000000Consumidor Final              000000000055000000000000055000000000000000000000000000000000000000000000000000000000000000000000000000000000000000000000PES00010000001N00000000000000020170210
201701310060000800000000000000175732000000000000001757329900000000000000000000Consumidor Final              000000000055000000000000055000000000000000000000000000000000000000000000000000000000000000000000000000000000000000000000PES00010000001N00000000000000020170210
201701310060000800000000000000175733000000000000001757339900000000000000000000Consumidor Final              000000000055000000000000055000000000000000000000000000000000000000000000000000000000000000000000000000000000000000000000PES00010000001N00000000000000020170210
201701310060000600000000000000730620000000000000007306209900000000000000000000Consumidor Final              000000000065000000000000065000000000000000000000000000000000000000000000000000000000000000000000000000000000000000000000PES00010000001N00000000000000020170210
201701310060000600000000000000730621000000000000007306219900000000000000000000Consumidor Final              000000000065000000000000065000000000000000000000000000000000000000000000000000000000000000000000000000000000000000000000PES00010000001N00000000000000020170210
201701310060000700000000000000510520000000000000005105209900000000000000000000Consumidor Final              000000000065000000000000065000000000000000000000000000000000000000000000000000000000000000000000000000000000000000000000PES00010000001N00000000000000020170210
201701310060000600000000000000730622000000000000007306229900000000000000000000Consumidor Final              000000000094000000000000094000000000000000000000000000000000000000000000000000000000000000000000000000000000000000000000PES00010000001N00000000000000020170210
201701310060000700000000000000510521000000000000005105219900000000000000000000Consumidor Final              000000000065000000000000065000000000000000000000000000000000000000000000000000000000000000000000000000000000000000000000PES00010000001N00000000000000020170210
201701310060000600000000000000730623000000000000007306239900000000000000000000Consumidor Final              000000000065000000000000065000000000000000000000000000000000000000000000000000000000000000000000000000000000000000000000PES00010000001N00000000000000020170210
201701310060000700000000000000510522000000000000005105229900000000000000000000Consumidor Final              000000000063000000000000063000000000000000000000000000000000000000000000000000000000000000000000000000000000000000000000PES00010000001N00000000000000020170210
201701310060000600000000000000730624000000000000007306249900000000000000000000Consumidor Final              000000000065000000000000065000000000000000000000000000000000000000000000000000000000000000000000000000000000000000000000PES00010000001N00000000000000020170210
201701310060000600000000000000730602000000000000007306029900000000000000000000Consumidor Final              000000000065000000000000065000000000000000000000000000000000000000000000000000000000000000000000000000000000000000000000PES00010000001N00000000000000020170210
201701310060000600000000000000730603000000000000007306039900000000000000000000Consumidor Final              000000000076000000000000076000000000000000000000000000000000000000000000000000000000000000000000000000000000000000000000PES00010000001N00000000000000020170210
201701310060000600000000000000730604000000000000007306049900000000000000000000Consumidor Final              000000000065000000000000065000000000000000000000000000000000000000000000000000000000000000000000000000000000000000000000PES00010000001N00000000000000020170210
201701310060000600000000000000730605000000000000007306059900000000000000000000Consumidor Final              000000000065000000000000065000000000000000000000000000000000000000000000000000000000000000000000000000000000000000000000PES00010000001N00000000000000020170210
201701310060000600000000000000730606000000000000007306069900000000000000000000Consumidor Final              000000000069000000000000069000000000000000000000000000000000000000000000000000000000000000000000000000000000000000000000PES00010000001N00000000000000020170210
201701310060000600000000000000730607000000000000007306079900000000000000000000Consumidor Final              000000000065000000000000065000000000000000000000000000000000000000000000000000000000000000000000000000000000000000000000PES00010000001N00000000000000020170210
201701310060000600000000000000730608000000000000007306089900000000000000000000Consumidor Final              000000000065000000000000065000000000000000000000000000000000000000000000000000000000000000000000000000000000000000000000PES00010000001N00000000000000020170210
201701310060000600000000000000730609000000000000007306099900000000000000000000Consumidor Final              000000000065000000000000065000000000000000000000000000000000000000000000000000000000000000000000000000000000000000000000PES00010000001N00000000000000020170210
201701310060000600000000000000730610000000000000007306109900000000000000000000Consumidor Final              000000000033000000000000033000000000000000000000000000000000000000000000000000000000000000000000000000000000000000000000PES00010000001N00000000000000020170210
201701310060000600000000000000730611000000000000007306119900000000000000000000Consumidor Final              000000000065000000000000065000000000000000000000000000000000000000000000000000000000000000000000000000000000000000000000PES00010000001N00000000000000020170210
201701310060000600000000000000730612000000000000007306129900000000000000000000Consumidor Final              000000000030000000000000030000000000000000000000000000000000000000000000000000000000000000000000000000000000000000000000PES00010000001N00000000000000020170210
201701310060000700000000000000510504000000000000005105049900000000000000000000Consumidor Final              000000000065000000000000065000000000000000000000000000000000000000000000000000000000000000000000000000000000000000000000PES00010000001N00000000000000020170210
201701310060000900000000000000036485000000000000000364859900000000000000000000Consumidor Final              000000000065000000000000065000000000000000000000000000000000000000000000000000000000000000000000000000000000000000000000PES00010000001N00000000000000020170210
201701310060000900000000000000036486000000000000000364869900000000000000000000Consumidor Final              000000000065000000000000065000000000000000000000000000000000000000000000000000000000000000000000000000000000000000000000PES00010000001N00000000000000020170210
201701310060000600000000000000730629000000000000007306299900000000000000000000Consumidor Final              000000000088000000000000088000000000000000000000000000000000000000000000000000000000000000000000000000000000000000000000PES00010000001N00000000000000020170210
201701310060000700000000000000510530000000000000005105309900000000000000000000Consumidor Final              000000000070600000000000070600000000000000000000000000000000000000000000000000000000000000000000000000000000000000000000PES00010000001N00000000000000020170210
201701310060000600000000000000730630000000000000007306309000000000000030973926Consumidor Final              000000000118000000000000118000000000000000000000000000000000000000000000000000000000000000000000000000000000000000000000PES00010000001N00000000000000020170210
201701310060000600000000000000730631000000000000007306319900000000000000000000Consumidor Final              000000000065000000000000065000000000000000000000000000000000000000000000000000000000000000000000000000000000000000000000PES00010000001N00000000000000020170210
201701310060000700000000000000510531000000000000005105319900000000000000000000Consumidor Final              000000000069000000000000069000000000000000000000000000000000000000000000000000000000000000000000000000000000000000000000PES00010000001N00000000000000020170210
201701310060000600000000000000730632000000000000007306329900000000000000000000Consumidor Final              000000000065000000000000065000000000000000000000000000000000000000000000000000000000000000000000000000000000000000000000PES00010000001N00000000000000020170210
201701310060000700000000000000510532000000000000005105329900000000000000000000Consumidor Final              000000000065000000000000065000000000000000000000000000000000000000000000000000000000000000000000000000000000000000000000PES00010000001N00000000000000020170210
201701310060000600000000000000730633000000000000007306339900000000000000000000Consumidor Final              000000000065000000000000065000000000000000000000000000000000000000000000000000000000000000000000000000000000000000000000PES00010000001N00000000000000020170210
201701310060000700000000000000510523000000000000005105239900000000000000000000Consumidor Final              000000000065000000000000065000000000000000000000000000000000000000000000000000000000000000000000000000000000000000000000PES00010000001N00000000000000020170210
201701310060000600000000000000730628000000000000007306289900000000000000000000Consumidor Final              000000000078000000000000078000000000000000000000000000000000000000000000000000000000000000000000000000000000000000000000PES00010000001N00000000000000020170210
201701310060000700000000000000510533000000000000005105339900000000000000000000Consumidor Final              000000000056000000000000056000000000000000000000000000000000000000000000000000000000000000000000000000000000000000000000PES00010000001N00000000000000020170210
201701310060000700000000000000510534000000000000005105349900000000000000000000Consumidor Final              000000000065000000000000065000000000000000000000000000000000000000000000000000000000000000000000000000000000000000000000PES00010000001N00000000000000020170210
201701310060000900000000000000036487000000000000000364879900000000000000000000Consumidor Final              000000000065000000000000065000000000000000000000000000000000000000000000000000000000000000000000000000000000000000000000PES00010000001N00000000000000020170210
201701310060000700000000000000510535000000000000005105359900000000000000000000Consumidor Final              000000000078000000000000078000000000000000000000000000000000000000000000000000000000000000000000000000000000000000000000PES00010000001N00000000000000020170210
201701310060000700000000000000510540000000000000005105409900000000000000000000Consumidor Final              000000000065000000000000065000000000000000000000000000000000000000000000000000000000000000000000000000000000000000000000PES00010000001N00000000000000020170210
201701310060000700000000000000510541000000000000005105419900000000000000000000Consumidor Final              000000000070600000000000070600000000000000000000000000000000000000000000000000000000000000000000000000000000000000000000PES00010000001N00000000000000020170210
201701310060000700000000000000510542000000000000005105429900000000000000000000Consumidor Final              000000000065000000000000065000000000000000000000000000000000000000000000000000000000000000000000000000000000000000000000PES00010000001N00000000000000020170210
201701310060000600000000000000730641000000000000007306419900000000000000000000Consumidor Final              000000000065000000000000065000000000000000000000000000000000000000000000000000000000000000000000000000000000000000000000PES00010000001N00000000000000020170210
201701310060000700000000000000510543000000000000005105439900000000000000000000Consumidor Final              000000000070600000000000070600000000000000000000000000000000000000000000000000000000000000000000000000000000000000000000PES00010000001N00000000000000020170210
201701310060000800000000000000175734000000000000001757349900000000000000000000Consumidor Final              000000000055000000000000055000000000000000000000000000000000000000000000000000000000000000000000000000000000000000000000PES00010000001N00000000000000020170210
201701310060000600000000000000730625000000000000007306259900000000000000000000Consumidor Final              000000000065000000000000065000000000000000000000000000000000000000000000000000000000000000000000000000000000000000000000PES00010000001N00000000000000020170210
201701310060000800000000000000175735000000000000001757359900000000000000000000Consumidor Final              000000000055000000000000055000000000000000000000000000000000000000000000000000000000000000000000000000000000000000000000PES00010000001N00000000000000020170210
201701310060000700000000000000510524000000000000005105249900000000000000000000Consumidor Final              000000000078000000000000078000000000000000000000000000000000000000000000000000000000000000000000000000000000000000000000PES00010000001N00000000000000020170210
201701310060000600000000000000730626000000000000007306269900000000000000000000Consumidor Final              000000000078000000000000078000000000000000000000000000000000000000000000000000000000000000000000000000000000000000000000PES00010000001N00000000000000020170210
201701310060000600000000000000730627000000000000007306279900000000000000000000Consumidor Final              000000000070600000000000070600000000000000000000000000000000000000000000000000000000000000000000000000000000000000000000PES00010000001N00000000000000020170210
201701310060000700000000000000510525000000000000005105259900000000000000000000Consumidor Final              000000000065000000000000065000000000000000000000000000000000000000000000000000000000000000000000000000000000000000000000PES00010000001N00000000000000020170210
201701310060000700000000000000510526000000000000005105269900000000000000000000Consumidor Final              000000000078000000000000078000000000000000000000000000000000000000000000000000000000000000000000000000000000000000000000PES00010000001N00000000000000020170210
201701310060000700000000000000510527000000000000005105279900000000000000000000Consumidor Final              000000000070600000000000070600000000000000000000000000000000000000000000000000000000000000000000000000000000000000000000PES00010000001N00000000000000020170210
201701310060000700000000000000510528000000000000005105289900000000000000000000Consumidor Final              000000000065000000000000065000000000000000000000000000000000000000000000000000000000000000000000000000000000000000000000PES00010000001N00000000000000020170210
201701310060000700000000000000510529000000000000005105299900000000000000000000Consumidor Final              000000000065000000000000065000000000000000000000000000000000000000000000000000000000000000000000000000000000000000000000PES00010000001N00000000000000020170210
201701310060000600000000000000730634000000000000007306349900000000000000000000Consumidor Final              000000000070600000000000070600000000000000000000000000000000000000000000000000000000000000000000000000000000000000000000PES00010000001N00000000000000020170210
201701310060000700000000000000510536000000000000005105369900000000000000000000Consumidor Final              000000000084700000000000084700000000000000000000000000000000000000000000000000000000000000000000000000000000000000000000PES00010000001N00000000000000020170210
201701310060000600000000000000730635000000000000007306359900000000000000000000Consumidor Final              000000000070600000000000070600000000000000000000000000000000000000000000000000000000000000000000000000000000000000000000PES00010000001N00000000000000020170210
201701310060000600000000000000730636000000000000007306369900000000000000000000Consumidor Final              000000000065000000000000065000000000000000000000000000000000000000000000000000000000000000000000000000000000000000000000PES00010000001N00000000000000020170210
201701310060000700000000000000510537000000000000005105379900000000000000000000Consumidor Final              000000000078000000000000078000000000000000000000000000000000000000000000000000000000000000000000000000000000000000000000PES00010000001N00000000000000020170210
201701310060000600000000000000730637000000000000007306379900000000000000000000Consumidor Final              000000000065000000000000065000000000000000000000000000000000000000000000000000000000000000000000000000000000000000000000PES00010000001N00000000000000020170210
201701310060000600000000000000730638000000000000007306389900000000000000000000Consumidor Final              000000000065000000000000065000000000000000000000000000000000000000000000000000000000000000000000000000000000000000000000PES00010000001N00000000000000020170210
201701310060000700000000000000510538000000000000005105389900000000000000000000Consumidor Final              000000000065000000000000065000000000000000000000000000000000000000000000000000000000000000000000000000000000000000000000PES00010000001N00000000000000020170210
201701310060000600000000000000730639000000000000007306399900000000000000000000Consumidor Final              000000000078000000000000078000000000000000000000000000000000000000000000000000000000000000000000000000000000000000000000PES00010000001N00000000000000020170210
201701310060000700000000000000510539000000000000005105399900000000000000000000Consumidor Final              000000000065000000000000065000000000000000000000000000000000000000000000000000000000000000000000000000000000000000000000PES00010000001N00000000000000020170210
201701310060000600000000000000730640000000000000007306409900000000000000000000Consumidor Final              000000000084700000000000084700000000000000000000000000000000000000000000000000000000000000000000000000000000000000000000PES00010000001N00000000000000020170210
201701310060000600000000000000730642000000000000007306429900000000000000000000Consumidor Final              000000000065000000000000065000000000000000000000000000000000000000000000000000000000000000000000000000000000000000000000PES00010000001N00000000000000020170210
201701310060000600000000000000730643000000000000007306439900000000000000000000Consumidor Final              000000000065000000000000065000000000000000000000000000000000000000000000000000000000000000000000000000000000000000000000PES00010000001N00000000000000020170210
201701310060000700000000000000510544000000000000005105449900000000000000000000Consumidor Final              000000000078000000000000078000000000000000000000000000000000000000000000000000000000000000000000000000000000000000000000PES00010000001N00000000000000020170210
201701310060000700000000000000510545000000000000005105459900000000000000000000Consumidor Final              000000000078000000000000078000000000000000000000000000000000000000000000000000000000000000000000000000000000000000000000PES00010000001N00000000000000020170210
201701310060000700000000000000510552000000000000005105529900000000000000000000Consumidor Final              000000000084700000000000084700000000000000000000000000000000000000000000000000000000000000000000000000000000000000000000PES00010000001N00000000000000020170210
201701310060000700000000000000510553000000000000005105539900000000000000000000Consumidor Final              000000000065000000000000065000000000000000000000000000000000000000000000000000000000000000000000000000000000000000000000PES00010000001N00000000000000020170210
201701310060000700000000000000510554000000000000005105549900000000000000000000Consumidor Final              000000000065000000000000065000000000000000000000000000000000000000000000000000000000000000000000000000000000000000000000PES00010000001N00000000000000020170210
201701310060000700000000000000510555000000000000005105559900000000000000000000Consumidor Final              000000000065000000000000065000000000000000000000000000000000000000000000000000000000000000000000000000000000000000000000PES00010000001N00000000000000020170210
201701310060000700000000000000510556000000000000005105569900000000000000000000Consumidor Final              000000000086000000000000086000000000000000000000000000000000000000000000000000000000000000000000000000000000000000000000PES00010000001N00000000000000020170210
201701310060000700000000000000510557000000000000005105579900000000000000000000Consumidor Final              000000000080000000000000080000000000000000000000000000000000000000000000000000000000000000000000000000000000000000000000PES00010000001N00000000000000020170210
201701310060000700000000000000510558000000000000005105589900000000000000000000Consumidor Final              000000000082000000000000082000000000000000000000000000000000000000000000000000000000000000000000000000000000000000000000PES00010000001N00000000000000020170210
201701310060000700000000000000510546000000000000005105469900000000000000000000Consumidor Final              000000000078000000000000078000000000000000000000000000000000000000000000000000000000000000000000000000000000000000000000PES00010000001N00000000000000020170210
201701310060000700000000000000510562000000000000005105629900000000000000000000Consumidor Final              000000000065000000000000065000000000000000000000000000000000000000000000000000000000000000000000000000000000000000000000PES00010000001N00000000000000020170210
201701310060000700000000000000510563000000000000005105639000000000000009311776JOSE ANTONIO BERTHO           000000000152000000000000152000000000000000000000000000000000000000000000000000000000000000000000000000000000000000000000PES00010000001N00000000000000020170210
201701310060000600000000000000730665000000000000007306659900000000000000000000Consumidor Final              000000000070600000000000070600000000000000000000000000000000000000000000000000000000000000000000000000000000000000000000PES00010000001N00000000000000020170210
201701310060000700000000000000510579000000000000005105799900000000000000000000Consumidor Final              000000000078000000000000078000000000000000000000000000000000000000000000000000000000000000000000000000000000000000000000PES00010000001N00000000000000020170210
201701310060000700000000000000510580000000000000005105809900000000000000000000Consumidor Final              000000000065000000000000065000000000000000000000000000000000000000000000000000000000000000000000000000000000000000000000PES00010000001N00000000000000020170210
201701310060000700000000000000510581000000000000005105819900000000000000000000Consumidor Final              000000000065000000000000065000000000000000000000000000000000000000000000000000000000000000000000000000000000000000000000PES00010000001N00000000000000020170210
201701310060000700000000000000510582000000000000005105829900000000000000000000Consumidor Final              000000000065000000000000065000000000000000000000000000000000000000000000000000000000000000000000000000000000000000000000PES00010000001N00000000000000020170210
201701310060000700000000000000510583000000000000005105839900000000000000000000Consumidor Final              000000000070600000000000070600000000000000000000000000000000000000000000000000000000000000000000000000000000000000000000PES00010000001N00000000000000020170210
201701310060000700000000000000510584000000000000005105849900000000000000000000Consumidor Final              000000000065000000000000065000000000000000000000000000000000000000000000000000000000000000000000000000000000000000000000PES00010000001N00000000000000020170210
201701310060000700000000000000510585000000000000005105859900000000000000000000Consumidor Final              000000000065000000000000065000000000000000000000000000000000000000000000000000000000000000000000000000000000000000000000PES00010000001N00000000000000020170210
201701310060000600000000000000730644000000000000007306449900000000000000000000Consumidor Final              000000000078000000000000078000000000000000000000000000000000000000000000000000000000000000000000000000000000000000000000PES00010000001N00000000000000020170210
201701310060000700000000000000510547000000000000005105479900000000000000000000Consumidor Final              000000000069000000000000069000000000000000000000000000000000000000000000000000000000000000000000000000000000000000000000PES00010000001N00000000000000020170210
201701310060000800000000000000175736000000000000001757369900000000000000000000Consumidor Final              000000000055000000000000055000000000000000000000000000000000000000000000000000000000000000000000000000000000000000000000PES00010000001N00000000000000020170210
201701310060000800000000000000175737000000000000001757379900000000000000000000Consumidor Final              000000000055000000000000055000000000000000000000000000000000000000000000000000000000000000000000000000000000000000000000PES00010000001N00000000000000020170210
201701310060000800000000000000175738000000000000001757389900000000000000000000Consumidor Final              000000000055000000000000055000000000000000000000000000000000000000000000000000000000000000000000000000000000000000000000PES00010000001N00000000000000020170210
201701310060000600000000000000730664000000000000007306649900000000000000000000Consumidor Final              000000000065000000000000065000000000000000000000000000000000000000000000000000000000000000000000000000000000000000000000PES00010000001N00000000000000020170210
201701310060000700000000000000510566000000000000005105669900000000000000000000Consumidor Final              000000000065000000000000065000000000000000000000000000000000000000000000000000000000000000000000000000000000000000000000PES00010000001N00000000000000020170210
201701310060000600000000000000730666000000000000007306669900000000000000000000Consumidor Final              000000000065000000000000065000000000000000000000000000000000000000000000000000000000000000000000000000000000000000000000PES00010000001N00000000000000020170210
201701310060000700000000000000510576000000000000005105768000000000030709148237Consumidor Final              000000000065000000000000065000000000000000000000000000000000000000000000000000000000000000000000000000000000000000000000PES00010000001N00000000000000020170210
201701310060000700000000000000510577000000000000005105779900000000000000000000Consumidor Final              000000000065000000000000065000000000000000000000000000000000000000000000000000000000000000000000000000000000000000000000PES00010000001N00000000000000020170210
201701310060000700000000000000510578000000000000005105789900000000000000000000Consumidor Final              000000000065000000000000065000000000000000000000000000000000000000000000000000000000000000000000000000000000000000000000PES00010000001N00000000000000020170210
201701310060000800000000000000175748000000000000001757489900000000000000000000Consumidor Final              000000000065000000000000065000000000000000000000000000000000000000000000000000000000000000000000000000000000000000000000PES00010000001N00000000000000020170210
201701310060000700000000000000510607000000000000005106079900000000000000000000Consumidor Final              000000000088000000000000088000000000000000000000000000000000000000000000000000000000000000000000000000000000000000000000PES00010000001N00000000000000020170210
201701310060000700000000000000510608000000000000005106089900000000000000000000Consumidor Final              000000000078000000000000078000000000000000000000000000000000000000000000000000000000000000000000000000000000000000000000PES00010000001N00000000000000020170210
201701310060000700000000000000510609000000000000005106099900000000000000000000Consumidor Final              000000000060000000000000060000000000000000000000000000000000000000000000000000000000000000000000000000000000000000000000PES00010000001N00000000000000020170210
201701310060000700000000000000510610000000000000005106109900000000000000000000Consumidor Final              000000000068400000000000068400000000000000000000000000000000000000000000000000000000000000000000000000000000000000000000PES00010000001N00000000000000020170210
201701310060000700000000000000510611000000000000005106119900000000000000000000Consumidor Final              000000000070600000000000070600000000000000000000000000000000000000000000000000000000000000000000000000000000000000000000PES00010000001N00000000000000020170210
201701310060000700000000000000510612000000000000005106129900000000000000000000Consumidor Final              000000000070600000000000070600000000000000000000000000000000000000000000000000000000000000000000000000000000000000000000PES00010000001N00000000000000020170210
201701310060000900000000000000036493000000000000000364939900000000000000000000Consumidor Final              000000000065000000000000065000000000000000000000000000000000000000000000000000000000000000000000000000000000000000000000PES00010000001N00000000000000020170210
201701310060000900000000000000036494000000000000000364949900000000000000000000Consumidor Final              000000000065000000000000065000000000000000000000000000000000000000000000000000000000000000000000000000000000000000000000PES00010000001N00000000000000020170210
201701310060000700000000000000510613000000000000005106139900000000000000000000Consumidor Final              000000000086000000000000086000000000000000000000000000000000000000000000000000000000000000000000000000000000000000000000PES00010000001N00000000000000020170210
201701310060000900000000000000036495000000000000000364959900000000000000000000Consumidor Final              000000000065000000000000065000000000000000000000000000000000000000000000000000000000000000000000000000000000000000000000PES00010000001N00000000000000020170210
201701310060000600000000000000730681000000000000007306819000000000099999999999Consumidor Final              000000000110800000000000110800000000000000000000000000000000000000000000000000000000000000000000000000000000000000000000PES00010000001N00000000000000020170210
201701310060000600000000000000730645000000000000007306459900000000000000000000Consumidor Final              000000000065000000000000065000000000000000000000000000000000000000000000000000000000000000000000000000000000000000000000PES00010000001N00000000000000020170210
201701310060000700000000000000510548000000000000005105489900000000000000000000Consumidor Final              000000000069000000000000069000000000000000000000000000000000000000000000000000000000000000000000000000000000000000000000PES00010000001N00000000000000020170210
201701310060000700000000000000510549000000000000005105499900000000000000000000Consumidor Final              000000000065000000000000065000000000000000000000000000000000000000000000000000000000000000000000000000000000000000000000PES00010000001N00000000000000020170210
201701310060000700000000000000510550000000000000005105509900000000000000000000Consumidor Final              000000000067000000000000067000000000000000000000000000000000000000000000000000000000000000000000000000000000000000000000PES00010000001N00000000000000020170210
201701310060000700000000000000510551000000000000005105519900000000000000000000Consumidor Final              000000000065000000000000065000000000000000000000000000000000000000000000000000000000000000000000000000000000000000000000PES00010000001N00000000000000020170210
201701310060000700000000000000510559000000000000005105599900000000000000000000Consumidor Final              000000000056000000000000056000000000000000000000000000000000000000000000000000000000000000000000000000000000000000000000PES00010000001N00000000000000020170210
201701310060000600000000000000730660000000000000007306609900000000000000000000Consumidor Final              000000000065000000000000065000000000000000000000000000000000000000000000000000000000000000000000000000000000000000000000PES00010000001N00000000000000020170210
201701310060000700000000000000510564000000000000005105649900000000000000000000Consumidor Final              000000000065000000000000065000000000000000000000000000000000000000000000000000000000000000000000000000000000000000000000PES00010000001N00000000000000020170210
201701310060000600000000000000730661000000000000007306619900000000000000000000Consumidor Final              000000000073000000000000073000000000000000000000000000000000000000000000000000000000000000000000000000000000000000000000PES00010000001N00000000000000020170210
201701310060000600000000000000730662000000000000007306629900000000000000000000Consumidor Final              000000000065000000000000065000000000000000000000000000000000000000000000000000000000000000000000000000000000000000000000PES00010000001N00000000000000020170210
201701310060000600000000000000730663000000000000007306639900000000000000000000Consumidor Final              000000000065000000000000065000000000000000000000000000000000000000000000000000000000000000000000000000000000000000000000PES00010000001N00000000000000020170210
201701310060000600000000000000730646000000000000007306469900000000000000000000Consumidor Final              000000000065000000000000065000000000000000000000000000000000000000000000000000000000000000000000000000000000000000000000PES00010000001N00000000000000020170210
201701310060000700000000000000510586000000000000005105869900000000000000000000Consumidor Final              000000000070600000000000070600000000000000000000000000000000000000000000000000000000000000000000000000000000000000000000PES00010000001N00000000000000020170210
201701310060000900000000000000036490000000000000000364909900000000000000000000Consumidor Final              000000000065000000000000065000000000000000000000000000000000000000000000000000000000000000000000000000000000000000000000PES00010000001N00000000000000020170210
201701310060000900000000000000036491000000000000000364919900000000000000000000Consumidor Final              000000000065000000000000065000000000000000000000000000000000000000000000000000000000000000000000000000000000000000000000PES00010000001N00000000000000020170210
201701310060000700000000000000510593000000000000005105939900000000000000000000Consumidor Final              000000000070600000000000070600000000000000000000000000000000000000000000000000000000000000000000000000000000000000000000PES00010000001N00000000000000020170210
201701310060000700000000000000510594000000000000005105949900000000000000000000Consumidor Final              000000000065000000000000065000000000000000000000000000000000000000000000000000000000000000000000000000000000000000000000PES00010000001N00000000000000020170210
201701310060000700000000000000510595000000000000005105959900000000000000000000Consumidor Final              000000000065000000000000065000000000000000000000000000000000000000000000000000000000000000000000000000000000000000000000PES00010000001N00000000000000020170210
201701310060000700000000000000510596000000000000005105969900000000000000000000Consumidor Final              000000000065000000000000065000000000000000000000000000000000000000000000000000000000000000000000000000000000000000000000PES00010000001N00000000000000020170210
201701310060000700000000000000510597000000000000005105979900000000000000000000Consumidor Final              000000000070600000000000070600000000000000000000000000000000000000000000000000000000000000000000000000000000000000000000PES00010000001N00000000000000020170210
201701310060000700000000000000510598000000000000005105989900000000000000000000Consumidor Final              000000000065000000000000065000000000000000000000000000000000000000000000000000000000000000000000000000000000000000000000PES00010000001N00000000000000020170210
201701310060000700000000000000510599000000000000005105999900000000000000000000Consumidor Final              000000000067000000000000067000000000000000000000000000000000000000000000000000000000000000000000000000000000000000000000PES00010000001N00000000000000020170210
201701310060000600000000000000730647000000000000007306479900000000000000000000Consumidor Final              000000000065000000000000065000000000000000000000000000000000000000000000000000000000000000000000000000000000000000000000PES00010000001N00000000000000020170210
201701310060000600000000000000730648000000000000007306489900000000000000000000Consumidor Final              000000000070600000000000070600000000000000000000000000000000000000000000000000000000000000000000000000000000000000000000PES00010000001N00000000000000020170210
201701310060000600000000000000730649000000000000007306499900000000000000000000Consumidor Final              000000000065000000000000065000000000000000000000000000000000000000000000000000000000000000000000000000000000000000000000PES00010000001N00000000000000020170210
201701310060000600000000000000730650000000000000007306509900000000000000000000Consumidor Final              000000000065000000000000065000000000000000000000000000000000000000000000000000000000000000000000000000000000000000000000PES00010000001N00000000000000020170210
201701310060000600000000000000730651000000000000007306519900000000000000000000Consumidor Final              000000000065000000000000065000000000000000000000000000000000000000000000000000000000000000000000000000000000000000000000PES00010000001N00000000000000020170210
201701310060000600000000000000730652000000000000007306529900000000000000000000Consumidor Final              000000000065000000000000065000000000000000000000000000000000000000000000000000000000000000000000000000000000000000000000PES00010000001N00000000000000020170210
201701310060000600000000000000730653000000000000007306539900000000000000000000Consumidor Final              000000000078000000000000078000000000000000000000000000000000000000000000000000000000000000000000000000000000000000000000PES00010000001N00000000000000020170210
201701310060000600000000000000730654000000000000007306549900000000000000000000Consumidor Final              000000000072000000000000072000000000000000000000000000000000000000000000000000000000000000000000000000000000000000000000PES00010000001N00000000000000020170210
201701310060000600000000000000730655000000000000007306559900000000000000000000Consumidor Final              000000000082000000000000082000000000000000000000000000000000000000000000000000000000000000000000000000000000000000000000PES00010000001N00000000000000020170210
201701310060000600000000000000730656000000000000007306569900000000000000000000Consumidor Final              000000000060000000000000060000000000000000000000000000000000000000000000000000000000000000000000000000000000000000000000PES00010000001N00000000000000020170210
201701310060000600000000000000730657000000000000007306579900000000000000000000Consumidor Final              000000000084700000000000084700000000000000000000000000000000000000000000000000000000000000000000000000000000000000000000PES00010000001N00000000000000020170210
201701310060000600000000000000730658000000000000007306589900000000000000000000Consumidor Final              000000000073000000000000073000000000000000000000000000000000000000000000000000000000000000000000000000000000000000000000PES00010000001N00000000000000020170210
201701310060000600000000000000730659000000000000007306599900000000000000000000Consumidor Final              000000000084700000000000084700000000000000000000000000000000000000000000000000000000000000000000000000000000000000000000PES00010000001N00000000000000020170210
201701310060000700000000000000510560000000000000005105609900000000000000000000Consumidor Final              000000000065000000000000065000000000000000000000000000000000000000000000000000000000000000000000000000000000000000000000PES00010000001N00000000000000020170210
201701310060000700000000000000510561000000000000005105619900000000000000000000Consumidor Final              000000000065000000000000065000000000000000000000000000000000000000000000000000000000000000000000000000000000000000000000PES00010000001N00000000000000020170210
201701310060000800000000000000175739000000000000001757399900000000000000000000Consumidor Final              000000000055000000000000055000000000000000000000000000000000000000000000000000000000000000000000000000000000000000000000PES00010000001N00000000000000020170210
201701310060000800000000000000175740000000000000001757409900000000000000000000Consumidor Final              000000000055000000000000055000000000000000000000000000000000000000000000000000000000000000000000000000000000000000000000PES00010000001N00000000000000020170210
201701310060000800000000000000175741000000000000001757419900000000000000000000Consumidor Final              000000000055000000000000055000000000000000000000000000000000000000000000000000000000000000000000000000000000000000000000PES00010000001N00000000000000020170210
201701310060000700000000000000510565000000000000005105659900000000000000000000Consumidor Final              000000000056000000000000056000000000000000000000000000000000000000000000000000000000000000000000000000000000000000000000PES00010000001N00000000000000020170210
201701310060000800000000000000175742000000000000001757429900000000000000000000Consumidor Final              000000000055000000000000055000000000000000000000000000000000000000000000000000000000000000000000000000000000000000000000PES00010000001N00000000000000020170210
201701310060000800000000000000175743000000000000001757439900000000000000000000Consumidor Final              000000000065000000000000065000000000000000000000000000000000000000000000000000000000000000000000000000000000000000000000PES00010000001N00000000000000020170210
201701310060000800000000000000175744000000000000001757449900000000000000000000Consumidor Final              000000000055000000000000055000000000000000000000000000000000000000000000000000000000000000000000000000000000000000000000PES00010000001N00000000000000020170210
201701310060000800000000000000175745000000000000001757459900000000000000000000Consumidor Final              000000000055000000000000055000000000000000000000000000000000000000000000000000000000000000000000000000000000000000000000PES00010000001N00000000000000020170210
201701310060000700000000000000510567000000000000005105679900000000000000000000Consumidor Final              000000000066000000000000066000000000000000000000000000000000000000000000000000000000000000000000000000000000000000000000PES00010000001N00000000000000020170210
201701310060000700000000000000510568000000000000005105689900000000000000000000Consumidor Final              000000000066000000000000066000000000000000000000000000000000000000000000000000000000000000000000000000000000000000000000PES00010000001N00000000000000020170210
201701310060000700000000000000510569000000000000005105699900000000000000000000Consumidor Final              000000000065000000000000065000000000000000000000000000000000000000000000000000000000000000000000000000000000000000000000PES00010000001N00000000000000020170210
201701310060000700000000000000510570000000000000005105709900000000000000000000Consumidor Final              000000000074900000000000074900000000000000000000000000000000000000000000000000000000000000000000000000000000000000000000PES00010000001N00000000000000020170210
201701310060000700000000000000510571000000000000005105719900000000000000000000Consumidor Final              000000000074900000000000074900000000000000000000000000000000000000000000000000000000000000000000000000000000000000000000PES00010000001N00000000000000020170210
201701310060000700000000000000510614000000000000005106149900000000000000000000Consumidor Final              000000000093400000000000093400000000000000000000000000000000000000000000000000000000000000000000000000000000000000000000PES00010000001N00000000000000020170210
201701310060000900000000000000036496000000000000000364969900000000000000000000Consumidor Final              000000000065000000000000065000000000000000000000000000000000000000000000000000000000000000000000000000000000000000000000PES00010000001N00000000000000020170210
201701310060000700000000000000510615000000000000005106159900000000000000000000Consumidor Final              000000000093400000000000093400000000000000000000000000000000000000000000000000000000000000000000000000000000000000000000PES00010000001N00000000000000020170210
201701310060000400000000000000015082000000000000000150829900000000000000000000Consumidor Final              000000000065000000000000065000000000000000000000000000000000000000000000000000000000000000000000000000000000000000000000PES00010000001N00000000000000020170210
201701310060000700000000000000510616000000000000005106169900000000000000000000Consumidor Final              000000000078000000000000078000000000000000000000000000000000000000000000000000000000000000000000000000000000000000000000PES00010000001N00000000000000020170210
201701310060000800000000000000175746000000000000001757469900000000000000000000Consumidor Final              000000000055000000000000055000000000000000000000000000000000000000000000000000000000000000000000000000000000000000000000PES00010000001N00000000000000020170210
201701310060000900000000000000036488000000000000000364889900000000000000000000Consumidor Final              000000000063000000000000063000000000000000000000000000000000000000000000000000000000000000000000000000000000000000000000PES00010000001N00000000000000020170210
201701310060000900000000000000036489000000000000000364899900000000000000000000Consumidor Final              000000000065000000000000065000000000000000000000000000000000000000000000000000000000000000000000000000000000000000000000PES00010000001N00000000000000020170210
201701310060000700000000000000510600000000000000005106009900000000000000000000Consumidor Final              000000000067000000000000067000000000000000000000000000000000000000000000000000000000000000000000000000000000000000000000PES00010000001N00000000000000020170210
201701310060000700000000000000510601000000000000005106019900000000000000000000Consumidor Final              000000000078000000000000078000000000000000000000000000000000000000000000000000000000000000000000000000000000000000000000PES00010000001N00000000000000020170210
201701310060000900000000000000036492000000000000000364929900000000000000000000Consumidor Final              000000000065000000000000065000000000000000000000000000000000000000000000000000000000000000000000000000000000000000000000PES00010000001N00000000000000020170210
201701310060000700000000000000510602000000000000005106029900000000000000000000Consumidor Final              000000000070600000000000070600000000000000000000000000000000000000000000000000000000000000000000000000000000000000000000PES00010000001N00000000000000020170210
201701310060000700000000000000510603000000000000005106039900000000000000000000Consumidor Final              000000000070600000000000070600000000000000000000000000000000000000000000000000000000000000000000000000000000000000000000PES00010000001N00000000000000020170210
201701310060000700000000000000510604000000000000005106049900000000000000000000Consumidor Final              000000000070600000000000070600000000000000000000000000000000000000000000000000000000000000000000000000000000000000000000PES00010000001N00000000000000020170210
201701310060000700000000000000510605000000000000005106059900000000000000000000Consumidor Final              000000000070600000000000070600000000000000000000000000000000000000000000000000000000000000000000000000000000000000000000PES00010000001N00000000000000020170210
201701310060000700000000000000510606000000000000005106069900000000000000000000Consumidor Final              000000000065000000000000065000000000000000000000000000000000000000000000000000000000000000000000000000000000000000000000PES00010000001N00000000000000020170210
201701310060000800000000000000175747000000000000001757479900000000000000000000Consumidor Final              000000000055000000000000055000000000000000000000000000000000000000000000000000000000000000000000000000000000000000000000PES00010000001N00000000000000020170210
201701310060000700000000000000510572000000000000005105729900000000000000000000Consumidor Final              000000000070600000000000070600000000000000000000000000000000000000000000000000000000000000000000000000000000000000000000PES00010000001N00000000000000020170210
201701310060000700000000000000510573000000000000005105739900000000000000000000Consumidor Final              000000000070600000000000070600000000000000000000000000000000000000000000000000000000000000000000000000000000000000000000PES00010000001N00000000000000020170210
201701310060000700000000000000510574000000000000005105749900000000000000000000Consumidor Final              000000000065000000000000065000000000000000000000000000000000000000000000000000000000000000000000000000000000000000000000PES00010000001N00000000000000020170210
201701310060000700000000000000510575000000000000005105759900000000000000000000Consumidor Final              000000000078000000000000078000000000000000000000000000000000000000000000000000000000000000000000000000000000000000000000PES00010000001N00000000000000020170210
201701310060000800000000000000175749000000000000001757499900000000000000000000Consumidor Final              000000000055000000000000055000000000000000000000000000000000000000000000000000000000000000000000000000000000000000000000PES00010000001N00000000000000020170210
201701310060000800000000000000175750000000000000001757509900000000000000000000Consumidor Final              000000000055000000000000055000000000000000000000000000000000000000000000000000000000000000000000000000000000000000000000PES00010000001N00000000000000020170210
201701310060000800000000000000175751000000000000001757519900000000000000000000Consumidor Final              000000000060000000000000060000000000000000000000000000000000000000000000000000000000000000000000000000000000000000000000PES00010000001N00000000000000020170210
201701310060000800000000000000175752000000000000001757529900000000000000000000Consumidor Final              000000000055000000000000055000000000000000000000000000000000000000000000000000000000000000000000000000000000000000000000PES00010000001N00000000000000020170210
201701310060000800000000000000175753000000000000001757539900000000000000000000Consumidor Final              000000000055000000000000055000000000000000000000000000000000000000000000000000000000000000000000000000000000000000000000PES00010000001N00000000000000020170210
201701310060000800000000000000175754000000000000001757549900000000000000000000Consumidor Final              000000000055000000000000055000000000000000000000000000000000000000000000000000000000000000000000000000000000000000000000PES00010000001N00000000000000020170210
201701310060000600000000000000730667000000000000007306679900000000000000000000Consumidor Final              000000000065000000000000065000000000000000000000000000000000000000000000000000000000000000000000000000000000000000000000PES00010000001N00000000000000020170210
201701310060000800000000000000175755000000000000001757559900000000000000000000Consumidor Final              000000000055000000000000055000000000000000000000000000000000000000000000000000000000000000000000000000000000000000000000PES00010000001N00000000000000020170210
201701310060000700000000000000510617000000000000005106179900000000000000000000Consumidor Final              000000000036000000000000036000000000000000000000000000000000000000000000000000000000000000000000000000000000000000000000PES00010000001N00000000000000020170210
201701310060000700000000000000510618000000000000005106189900000000000000000000Consumidor Final              000000000065000000000000065000000000000000000000000000000000000000000000000000000000000000000000000000000000000000000000PES00010000001N00000000000000020170210
201701310060000800000000000000175756000000000000001757569900000000000000000000Consumidor Final              000000000073000000000000073000000000000000000000000000000000000000000000000000000000000000000000000000000000000000000000PES00010000001N00000000000000020170210
201701310060000700000000000000510619000000000000005106199900000000000000000000Consumidor Final              000000000070600000000000070600000000000000000000000000000000000000000000000000000000000000000000000000000000000000000000PES00010000001N00000000000000020170210
201701310060000700000000000000510620000000000000005106209900000000000000000000Consumidor Final              000000000065000000000000065000000000000000000000000000000000000000000000000000000000000000000000000000000000000000000000PES00010000001N00000000000000020170210
201701310060000700000000000000510621000000000000005106219900000000000000000000Consumidor Final              000000000065000000000000065000000000000000000000000000000000000000000000000000000000000000000000000000000000000000000000PES00010000001N00000000000000020170210
201701310060000700000000000000510622000000000000005106229900000000000000000000Consumidor Final              000000000079300000000000079300000000000000000000000000000000000000000000000000000000000000000000000000000000000000000000PES00010000001N00000000000000020170210
201701310060000700000000000000510623000000000000005106239900000000000000000000Consumidor Final              000000000065000000000000065000000000000000000000000000000000000000000000000000000000000000000000000000000000000000000000PES00010000001N00000000000000020170210
201701310060000700000000000000510624000000000000005106249900000000000000000000Consumidor Final              000000000065000000000000065000000000000000000000000000000000000000000000000000000000000000000000000000000000000000000000PES00010000001N00000000000000020170210
201701310060000700000000000000510587000000000000005105879900000000000000000000Consumidor Final              000000000084700000000000084700000000000000000000000000000000000000000000000000000000000000000000000000000000000000000000PES00010000001N00000000000000020170210
201701310060000700000000000000510588000000000000005105889900000000000000000000Consumidor Final              000000000065000000000000065000000000000000000000000000000000000000000000000000000000000000000000000000000000000000000000PES00010000001N00000000000000020170210
201701310060000700000000000000510589000000000000005105899900000000000000000000Consumidor Final              000000000082000000000000082000000000000000000000000000000000000000000000000000000000000000000000000000000000000000000000PES00010000001N00000000000000020170210
201701310060000700000000000000510590000000000000005105909900000000000000000000Consumidor Final              000000000033000000000000033000000000000000000000000000000000000000000000000000000000000000000000000000000000000000000000PES00010000001N00000000000000020170210
201701310060000700000000000000510591000000000000005105919900000000000000000000Consumidor Final              000000000065000000000000065000000000000000000000000000000000000000000000000000000000000000000000000000000000000000000000PES00010000001N00000000000000020170210
201701310060000700000000000000510592000000000000005105929900000000000000000000Consumidor Final              000000000065000000000000065000000000000000000000000000000000000000000000000000000000000000000000000000000000000000000000PES00010000001N00000000000000020170210
201701310060000700000000000000510625000000000000005106259900000000000000000000Consumidor Final              000000000070600000000000070600000000000000000000000000000000000000000000000000000000000000000000000000000000000000000000PES00010000001N00000000000000020170210
201701310060000700000000000000510626000000000000005106269900000000000000000000Consumidor Final              000000000065000000000000065000000000000000000000000000000000000000000000000000000000000000000000000000000000000000000000PES00010000001N00000000000000020170210
201701310060000900000000000000036498000000000000000364989900000000000000000000Consumidor Final              000000000065000000000000065000000000000000000000000000000000000000000000000000000000000000000000000000000000000000000000PES00010000001N00000000000000020170210
201701310060000600000000000000730684000000000000007306849900000000000000000000Consumidor Final              000000000072800000000000072800000000000000000000000000000000000000000000000000000000000000000000000000000000000000000000PES00010000001N00000000000000020170210
201701310060000600000000000000730687000000000000007306879900000000000000000000Consumidor Final              000000000065000000000000065000000000000000000000000000000000000000000000000000000000000000000000000000000000000000000000PES00010000001N00000000000000020170210
201701310060000900000000000000036497000000000000000364979900000000000000000000Consumidor Final              000000000065000000000000065000000000000000000000000000000000000000000000000000000000000000000000000000000000000000000000PES00010000001N00000000000000020170210
201701310060000700000000000000510627000000000000005106279900000000000000000000Consumidor Final              000000000065000000000000065000000000000000000000000000000000000000000000000000000000000000000000000000000000000000000000PES00010000001N00000000000000020170210
201701310060000600000000000000730668000000000000007306689900000000000000000000Consumidor Final              000000000065000000000000065000000000000000000000000000000000000000000000000000000000000000000000000000000000000000000000PES00010000001N00000000000000020170210
