201711300060000700000000000000566034000000000000005660349900000000000000000000Consumidor Final              000000000085800000000000085800000000000000000000000000000000000000000000000000000000000000000000000000000000000000000000PES00010000001N00000000000000020171210
201711300060000700000000000000566051000000000000005660519900000000000000000000Consumidor Final              000000000085800000000000085800000000000000000000000000000000000000000000000000000000000000000000000000000000000000000000PES00010000001N00000000000000020171210
201711300060000800000000000000193532000000000000001935329900000000000000000000Consumidor Final              000000000068000000000000068000000000000000000000000000000000000000000000000000000000000000000000000000000000000000000000PES00010000001N00000000000000020171210
201711300060000800000000000000193533000000000000001935339900000000000000000000Consumidor Final              000000000068000000000000068000000000000000000000000000000000000000000000000000000000000000000000000000000000000000000000PES00010000001N00000000000000020171210
201711300060000800000000000000193534000000000000001935349900000000000000000000Consumidor Final              000000000068000000000000068000000000000000000000000000000000000000000000000000000000000000000000000000000000000000000000PES00010000001N00000000000000020171210
201711300060000800000000000000193535000000000000001935359900000000000000000000Consumidor Final              000000000068000000000000068000000000000000000000000000000000000000000000000000000000000000000000000000000000000000000000PES00010000001N00000000000000020171210
201711300060000800000000000000193536000000000000001935369900000000000000000000Consumidor Final              000000000068000000000000068000000000000000000000000000000000000000000000000000000000000000000000000000000000000000000000PES00010000001N00000000000000020171210
201711300060000800000000000000193537000000000000001935379900000000000000000000Consumidor Final              000000000078000000000000078000000000000000000000000000000000000000000000000000000000000000000000000000000000000000000000PES00010000001N00000000000000020171210
201711300060000800000000000000193538000000000000001935389900000000000000000000Consumidor Final              000000000038000000000000038000000000000000000000000000000000000000000000000000000000000000000000000000000000000000000000PES00010000001N00000000000000020171210
201711300060000800000000000000193539000000000000001935399900000000000000000000Consumidor Final              000000000026000000000000026000000000000000000000000000000000000000000000000000000000000000000000000000000000000000000000PES00010000001N00000000000000020171210
201711300060000800000000000000193540000000000000001935409900000000000000000000Consumidor Final              000000000078000000000000078000000000000000000000000000000000000000000000000000000000000000000000000000000000000000000000PES00010000001N00000000000000020171210
201711300060000700000000000000566038000000000000005660389900000000000000000000Consumidor Final              000000000079000000000000079000000000000000000000000000000000000000000000000000000000000000000000000000000000000000000000PES00010000001N00000000000000020171210
201711300060000700000000000000566039000000000000005660399900000000000000000000Consumidor Final              000000000086000000000000086000000000000000000000000000000000000000000000000000000000000000000000000000000000000000000000PES00010000001N00000000000000020171210
201711300060000700000000000000566040000000000000005660409900000000000000000000Consumidor Final              000000000038000000000000038000000000000000000000000000000000000000000000000000000000000000000000000000000000000000000000PES00010000001N00000000000000020171210
201711300060000700000000000000566041000000000000005660419900000000000000000000Consumidor Final              000000000038000000000000038000000000000000000000000000000000000000000000000000000000000000000000000000000000000000000000PES00010000001N00000000000000020171210
201711300060000700000000000000566042000000000000005660429900000000000000000000Consumidor Final              000000000078000000000000078000000000000000000000000000000000000000000000000000000000000000000000000000000000000000000000PES00010000001N00000000000000020171210
201711300060000700000000000000566052000000000000005660529900000000000000000000Consumidor Final              000000000078000000000000078000000000000000000000000000000000000000000000000000000000000000000000000000000000000000000000PES00010000001N00000000000000020171210
201711300060000700000000000000566053000000000000005660539900000000000000000000Consumidor Final              000000000078000000000000078000000000000000000000000000000000000000000000000000000000000000000000000000000000000000000000PES00010000001N00000000000000020171210
201711300060000700000000000000566035000000000000005660359900000000000000000000Consumidor Final              000000000078000000000000078000000000000000000000000000000000000000000000000000000000000000000000000000000000000000000000PES00010000001N00000000000000020171210
201711300060000700000000000000566062000000000000005660629900000000000000000000Consumidor Final              000000000078000000000000078000000000000000000000000000000000000000000000000000000000000000000000000000000000000000000000PES00010000001N00000000000000020171210
201711300060000700000000000000566063000000000000005660639900000000000000000000Consumidor Final              000000000085800000000000085800000000000000000000000000000000000000000000000000000000000000000000000000000000000000000000PES00010000001N00000000000000020171210
201711300060000700000000000000566065000000000000005660659900000000000000000000Consumidor Final              000000000078000000000000078000000000000000000000000000000000000000000000000000000000000000000000000000000000000000000000PES00010000001N00000000000000020171210
201711300060000700000000000000566066000000000000005660669900000000000000000000Consumidor Final              000000000078000000000000078000000000000000000000000000000000000000000000000000000000000000000000000000000000000000000000PES00010000001N00000000000000020171210
201711300060000700000000000000566067000000000000005660679900000000000000000000Consumidor Final              000000000099000000000000099000000000000000000000000000000000000000000000000000000000000000000000000000000000000000000000PES00010000001N00000000000000020171210
201711300060000700000000000000566068000000000000005660689900000000000000000000Consumidor Final              000000000081000000000000081000000000000000000000000000000000000000000000000000000000000000000000000000000000000000000000PES00010000001N00000000000000020171210
201711300060000700000000000000566069000000000000005660699900000000000000000000Consumidor Final              000000000081000000000000081000000000000000000000000000000000000000000000000000000000000000000000000000000000000000000000PES00010000001N00000000000000020171210
201711300060000700000000000000566070000000000000005660709900000000000000000000Consumidor Final              000000000078000000000000078000000000000000000000000000000000000000000000000000000000000000000000000000000000000000000000PES00010000001N00000000000000020171210
201711300060000800000000000000193541000000000000001935419900000000000000000000Consumidor Final              000000000068000000000000068000000000000000000000000000000000000000000000000000000000000000000000000000000000000000000000PES00010000001N00000000000000020171210
201711300060000800000000000000193542000000000000001935429900000000000000000000Consumidor Final              000000000068000000000000068000000000000000000000000000000000000000000000000000000000000000000000000000000000000000000000PES00010000001N00000000000000020171210
201711300060000700000000000000566036000000000000005660369900000000000000000000Consumidor Final              000000000085800000000000085800000000000000000000000000000000000000000000000000000000000000000000000000000000000000000000PES00010000001N00000000000000020171210
201711300060000600000000000000784647000000000000007846479900000000000000000000Consumidor Final              000000000078000000000000078000000000000000000000000000000000000000000000000000000000000000000000000000000000000000000000PES00010000001N00000000000000020171210
201711300060000600000000000000784648000000000000007846489900000000000000000000Consumidor Final              000000000078000000000000078000000000000000000000000000000000000000000000000000000000000000000000000000000000000000000000PES00010000001N00000000000000020171210
201711300060000800000000000000193545000000000000001935459900000000000000000000Consumidor Final              000000000038000000000000038000000000000000000000000000000000000000000000000000000000000000000000000000000000000000000000PES00010000001N00000000000000020171210
201711300060000600000000000000784650000000000000007846509900000000000000000000Consumidor Final              000000000078000000000000078000000000000000000000000000000000000000000000000000000000000000000000000000000000000000000000PES00010000001N00000000000000020171210
201711300060000600000000000000784651000000000000007846519900000000000000000000Consumidor Final              000000000085800000000000085800000000000000000000000000000000000000000000000000000000000000000000000000000000000000000000PES00010000001N00000000000000020171210
201711300060000800000000000000193546000000000000001935469900000000000000000000Consumidor Final              000000000068000000000000068000000000000000000000000000000000000000000000000000000000000000000000000000000000000000000000PES00010000001N00000000000000020171210
201711300060000800000000000000193547000000000000001935479900000000000000000000Consumidor Final              000000000068000000000000068000000000000000000000000000000000000000000000000000000000000000000000000000000000000000000000PES00010000001N00000000000000020171210
201711300060000600000000000000784652000000000000007846529900000000000000000000Consumidor Final              000000000078000000000000078000000000000000000000000000000000000000000000000000000000000000000000000000000000000000000000PES00010000001N00000000000000020171210
201711300060000600000000000000784653000000000000007846539000000000099999999999Consumidor Final              000000000124000000000000124000000000000000000000000000000000000000000000000000000000000000000000000000000000000000000000PES00010000001N00000000000000020171210
201711300060000800000000000000193548000000000000001935488000000000030710817452Consumidor Final              000000000068000000000000068000000000000000000000000000000000000000000000000000000000000000000000000000000000000000000000PES00010000001N00000000000000020171210
201711300060000700000000000000566037000000000000005660379900000000000000000000Consumidor Final              000000000085800000000000085800000000000000000000000000000000000000000000000000000000000000000000000000000000000000000000PES00010000001N00000000000000020171210
201711300060000700000000000000566043000000000000005660439900000000000000000000Consumidor Final              000000000078000000000000078000000000000000000000000000000000000000000000000000000000000000000000000000000000000000000000PES00010000001N00000000000000020171210
201711300060000700000000000000566044000000000000005660449900000000000000000000Consumidor Final              000000000085800000000000085800000000000000000000000000000000000000000000000000000000000000000000000000000000000000000000PES00010000001N00000000000000020171210
201711300060000700000000000000566045000000000000005660459900000000000000000000Consumidor Final              000000000078000000000000078000000000000000000000000000000000000000000000000000000000000000000000000000000000000000000000PES00010000001N00000000000000020171210
201711300060000700000000000000566046000000000000005660469900000000000000000000Consumidor Final              000000000078000000000000078000000000000000000000000000000000000000000000000000000000000000000000000000000000000000000000PES00010000001N00000000000000020171210
201711300060000700000000000000566047000000000000005660479900000000000000000000Consumidor Final              000000000075000000000000075000000000000000000000000000000000000000000000000000000000000000000000000000000000000000000000PES00010000001N00000000000000020171210
201711300060000700000000000000566048000000000000005660489900000000000000000000Consumidor Final              000000000078000000000000078000000000000000000000000000000000000000000000000000000000000000000000000000000000000000000000PES00010000001N00000000000000020171210
201711300060000700000000000000566054000000000000005660549000000000099999999999Consumidor Final              000000000299700000000000299700000000000000000000000000000000000000000000000000000000000000000000000000000000000000000000PES00010000001N00000000000000020171210
201711300060000700000000000000566055000000000000005660559900000000000000000000Consumidor Final              000000000078000000000000078000000000000000000000000000000000000000000000000000000000000000000000000000000000000000000000PES00010000001N00000000000000020171210
201711300060000700000000000000566056000000000000005660569900000000000000000000Consumidor Final              000000000078000000000000078000000000000000000000000000000000000000000000000000000000000000000000000000000000000000000000PES00010000001N00000000000000020171210
201711300060000700000000000000566057000000000000005660579900000000000000000000Consumidor Final              000000000092000000000000092000000000000000000000000000000000000000000000000000000000000000000000000000000000000000000000PES00010000001N00000000000000020171210
201711300060000700000000000000566058000000000000005660589900000000000000000000Consumidor Final              000000000078000000000000078000000000000000000000000000000000000000000000000000000000000000000000000000000000000000000000PES00010000001N00000000000000020171210
201711300060000700000000000000566059000000000000005660599900000000000000000000Consumidor Final              000000000078000000000000078000000000000000000000000000000000000000000000000000000000000000000000000000000000000000000000PES00010000001N00000000000000020171210
201711300060000700000000000000566060000000000000005660609900000000000000000000Consumidor Final              000000000085800000000000085800000000000000000000000000000000000000000000000000000000000000000000000000000000000000000000PES00010000001N00000000000000020171210
201711300060000700000000000000566061000000000000005660619900000000000000000000Consumidor Final              000000000081000000000000081000000000000000000000000000000000000000000000000000000000000000000000000000000000000000000000PES00010000001N00000000000000020171210
201711300060000700000000000000566064000000000000005660649900000000000000000000Consumidor Final              000000000085800000000000085800000000000000000000000000000000000000000000000000000000000000000000000000000000000000000000PES00010000001N00000000000000020171210
201711300060000700000000000000566072000000000000005660729900000000000000000000Consumidor Final              000000000085000000000000085000000000000000000000000000000000000000000000000000000000000000000000000000000000000000000000PES00010000001N00000000000000020171210
201711300060000700000000000000566073000000000000005660739900000000000000000000Consumidor Final              000000000092000000000000092000000000000000000000000000000000000000000000000000000000000000000000000000000000000000000000PES00010000001N00000000000000020171210
201711300060000700000000000000566074000000000000005660749900000000000000000000Consumidor Final              000000000078000000000000078000000000000000000000000000000000000000000000000000000000000000000000000000000000000000000000PES00010000001N00000000000000020171210
201711300060000700000000000000566075000000000000005660759900000000000000000000Consumidor Final              000000000075000000000000075000000000000000000000000000000000000000000000000000000000000000000000000000000000000000000000PES00010000001N00000000000000020171210
201711300060000700000000000000566071000000000000005660719900000000000000000000Consumidor Final              000000000078000000000000078000000000000000000000000000000000000000000000000000000000000000000000000000000000000000000000PES00010000001N00000000000000020171210
201711300060000700000000000000566076000000000000005660769900000000000000000000Consumidor Final              000000000079000000000000079000000000000000000000000000000000000000000000000000000000000000000000000000000000000000000000PES00010000001N00000000000000020171210
201711300060000700000000000000566077000000000000005660779900000000000000000000Consumidor Final              000000000081000000000000081000000000000000000000000000000000000000000000000000000000000000000000000000000000000000000000PES00010000001N00000000000000020171210
201711300060000700000000000000566078000000000000005660789900000000000000000000Consumidor Final              000000000089100000000000089100000000000000000000000000000000000000000000000000000000000000000000000000000000000000000000PES00010000001N00000000000000020171210
201711300060000700000000000000566079000000000000005660799900000000000000000000Consumidor Final              000000000078000000000000078000000000000000000000000000000000000000000000000000000000000000000000000000000000000000000000PES00010000001N00000000000000020171210
201711300060000700000000000000566081000000000000005660819900000000000000000000Consumidor Final              000000000078000000000000078000000000000000000000000000000000000000000000000000000000000000000000000000000000000000000000PES00010000001N00000000000000020171210
201711300060000700000000000000566082000000000000005660829000000000099999999999Consumidor Final              000000000102000000000000102000000000000000000000000000000000000000000000000000000000000000000000000000000000000000000000PES00010000001N00000000000000020171210
201711300060000700000000000000566083000000000000005660839900000000000000000000Consumidor Final              000000000078000000000000078000000000000000000000000000000000000000000000000000000000000000000000000000000000000000000000PES00010000001N00000000000000020171210
201711300060000700000000000000566084000000000000005660849900000000000000000000Consumidor Final              000000000078000000000000078000000000000000000000000000000000000000000000000000000000000000000000000000000000000000000000PES00010000001N00000000000000020171210
201711300060000600000000000000784669000000000000007846699900000000000000000000Consumidor Final              000000000085800000000000085800000000000000000000000000000000000000000000000000000000000000000000000000000000000000000000PES00010000001N00000000000000020171210
201711300060000600000000000000784641000000000000007846419000000000099999999999Consumidor Final              000000000134000000000000134000000000000000000000000000000000000000000000000000000000000000000000000000000000000000000000PES00010000001N00000000000000020171210
201711300060000600000000000000784654000000000000007846549900000000000000000000Consumidor Final              000000000038000000000000038000000000000000000000000000000000000000000000000000000000000000000000000000000000000000000000PES00010000001N00000000000000020171210
201711300060000800000000000000193549000000000000001935499900000000000000000000Consumidor Final              000000000068000000000000068000000000000000000000000000000000000000000000000000000000000000000000000000000000000000000000PES00010000001N00000000000000020171210
201711300060000600000000000000784655000000000000007846559900000000000000000000Consumidor Final              000000000078000000000000078000000000000000000000000000000000000000000000000000000000000000000000000000000000000000000000PES00010000001N00000000000000020171210
201711300060000600000000000000784656000000000000007846569900000000000000000000Consumidor Final              000000000078000000000000078000000000000000000000000000000000000000000000000000000000000000000000000000000000000000000000PES00010000001N00000000000000020171210
201711300060000800000000000000193550000000000000001935509900000000000000000000Consumidor Final              000000000068000000000000068000000000000000000000000000000000000000000000000000000000000000000000000000000000000000000000PES00010000001N00000000000000020171210
201711300060000600000000000000784658000000000000007846589900000000000000000000Consumidor Final              000000000078000000000000078000000000000000000000000000000000000000000000000000000000000000000000000000000000000000000000PES00010000001N00000000000000020171210
201711300060000600000000000000784659000000000000007846599900000000000000000000Consumidor Final              000000000085800000000000085800000000000000000000000000000000000000000000000000000000000000000000000000000000000000000000PES00010000001N00000000000000020171210
201711300060000600000000000000784660000000000000007846609900000000000000000000Consumidor Final              000000000078000000000000078000000000000000000000000000000000000000000000000000000000000000000000000000000000000000000000PES00010000001N00000000000000020171210
201711300060000600000000000000784661000000000000007846619900000000000000000000Consumidor Final              000000000092000000000000092000000000000000000000000000000000000000000000000000000000000000000000000000000000000000000000PES00010000001N00000000000000020171210
201711300060000600000000000000784662000000000000007846629900000000000000000000Consumidor Final              000000000078000000000000078000000000000000000000000000000000000000000000000000000000000000000000000000000000000000000000PES00010000001N00000000000000020171210
201711300060000600000000000000784649000000000000007846499900000000000000000000Consumidor Final              000000000085800000000000085800000000000000000000000000000000000000000000000000000000000000000000000000000000000000000000PES00010000001N00000000000000020171210
201711300060000600000000000000784663000000000000007846639900000000000000000000Consumidor Final              000000000078000000000000078000000000000000000000000000000000000000000000000000000000000000000000000000000000000000000000PES00010000001N00000000000000020171210
201711300060000600000000000000784664000000000000007846649000000000099999999999Consumidor Final              000000000124000000000000124000000000000000000000000000000000000000000000000000000000000000000000000000000000000000000000PES00010000001N00000000000000020171210
201711300060000600000000000000784665000000000000007846659900000000000000000000Consumidor Final              000000000088000000000000088000000000000000000000000000000000000000000000000000000000000000000000000000000000000000000000PES00010000001N00000000000000020171210
201711300060000700000000000000566085000000000000005660859900000000000000000000Consumidor Final              000000000078000000000000078000000000000000000000000000000000000000000000000000000000000000000000000000000000000000000000PES00010000001N00000000000000020171210
201711300060000800000000000000193551000000000000001935519900000000000000000000Consumidor Final              000000000068000000000000068000000000000000000000000000000000000000000000000000000000000000000000000000000000000000000000PES00010000001N00000000000000020171210
201711300060000800000000000000193552000000000000001935529900000000000000000000Consumidor Final              000000000068000000000000068000000000000000000000000000000000000000000000000000000000000000000000000000000000000000000000PES00010000001N00000000000000020171210
201711300060000700000000000000566086000000000000005660869000000000099999999999Consumidor Final              000000000122000000000000122000000000000000000000000000000000000000000000000000000000000000000000000000000000000000000000PES00010000001N00000000000000020171210
201711300060000700000000000000566087000000000000005660879900000000000000000000Consumidor Final              000000000085800000000000085800000000000000000000000000000000000000000000000000000000000000000000000000000000000000000000PES00010000001N00000000000000020171210
201711300060000700000000000000566088000000000000005660889000000000000000504086Consumidor Final              000000000078000000000000078000000000000000000000000000000000000000000000000000000000000000000000000000000000000000000000PES00010000001N00000000000000020171210
201711300060000700000000000000566089000000000000005660899900000000000000000000Consumidor Final              000000000085800000000000085800000000000000000000000000000000000000000000000000000000000000000000000000000000000000000000PES00010000001N00000000000000020171210
201711300060000600000000000000784657000000000000007846579900000000000000000000Consumidor Final              000000000038000000000000038000000000000000000000000000000000000000000000000000000000000000000000000000000000000000000000PES00010000001N00000000000000020171210
201711300060000600000000000000784673000000000000007846739900000000000000000000Consumidor Final              000000000078000000000000078000000000000000000000000000000000000000000000000000000000000000000000000000000000000000000000PES00010000001N00000000000000020171210
201711300060000600000000000000784674000000000000007846749900000000000000000000Consumidor Final              000000000085800000000000085800000000000000000000000000000000000000000000000000000000000000000000000000000000000000000000PES00010000001N00000000000000020171210
201711300060000600000000000000784675000000000000007846759900000000000000000000Consumidor Final              000000000078000000000000078000000000000000000000000000000000000000000000000000000000000000000000000000000000000000000000PES00010000001N00000000000000020171210
201711300060000600000000000000784676000000000000007846769900000000000000000000Consumidor Final              000000000078000000000000078000000000000000000000000000000000000000000000000000000000000000000000000000000000000000000000PES00010000001N00000000000000020171210
201711300060000600000000000000784677000000000000007846779900000000000000000000Consumidor Final              000000000081000000000000081000000000000000000000000000000000000000000000000000000000000000000000000000000000000000000000PES00010000001N00000000000000020171210
201711300060000600000000000000784678000000000000007846789900000000000000000000Consumidor Final              000000000092000000000000092000000000000000000000000000000000000000000000000000000000000000000000000000000000000000000000PES00010000001N00000000000000020171210
201711300060000600000000000000784679000000000000007846799900000000000000000000Consumidor Final              000000000078000000000000078000000000000000000000000000000000000000000000000000000000000000000000000000000000000000000000PES00010000001N00000000000000020171210
201711300060000600000000000000784680000000000000007846809900000000000000000000Consumidor Final              000000000078000000000000078000000000000000000000000000000000000000000000000000000000000000000000000000000000000000000000PES00010000001N00000000000000020171210
201711300060000600000000000000784681000000000000007846819900000000000000000000Consumidor Final              000000000085800000000000085800000000000000000000000000000000000000000000000000000000000000000000000000000000000000000000PES00010000001N00000000000000020171210
201711300060000600000000000000784692000000000000007846929900000000000000000000Consumidor Final              000000000085800000000000085800000000000000000000000000000000000000000000000000000000000000000000000000000000000000000000PES00010000001N00000000000000020171210
201711300060000700000000000000566150000000000000005661509900000000000000000000Consumidor Final              000000000085800000000000085800000000000000000000000000000000000000000000000000000000000000000000000000000000000000000000PES00010000001N00000000000000020171210
201711300060000700000000000000566151000000000000005661519900000000000000000000Consumidor Final              000000000078000000000000078000000000000000000000000000000000000000000000000000000000000000000000000000000000000000000000PES00010000001N00000000000000020171210
201711300060000700000000000000566152000000000000005661529900000000000000000000Consumidor Final              000000000078000000000000078000000000000000000000000000000000000000000000000000000000000000000000000000000000000000000000PES00010000001N00000000000000020171210
201711300060000600000000000000784715000000000000007847159900000000000000000000Consumidor Final              000000000078000000000000078000000000000000000000000000000000000000000000000000000000000000000000000000000000000000000000PES00010000001N00000000000000020171210
201711300060000600000000000000784716000000000000007847169900000000000000000000Consumidor Final              000000000041800000000000041800000000000000000000000000000000000000000000000000000000000000000000000000000000000000000000PES00010000001N00000000000000020171210
201711300060000800000000000000193570000000000000001935709900000000000000000000Consumidor Final              000000000068000000000000068000000000000000000000000000000000000000000000000000000000000000000000000000000000000000000000PES00010000001N00000000000000020171210
201711300060000800000000000000193571000000000000001935719900000000000000000000Consumidor Final              000000000072000000000000072000000000000000000000000000000000000000000000000000000000000000000000000000000000000000000000PES00010000001N00000000000000020171210
201711300060000600000000000000784717000000000000007847179900000000000000000000Consumidor Final              000000000078000000000000078000000000000000000000000000000000000000000000000000000000000000000000000000000000000000000000PES00010000001N00000000000000020171210
201711300060000600000000000000784718000000000000007847189900000000000000000000Consumidor Final              000000000082500000000000082500000000000000000000000000000000000000000000000000000000000000000000000000000000000000000000PES00010000001N00000000000000020171210
201711300060000600000000000000784719000000000000007847199900000000000000000000Consumidor Final              000000000075000000000000075000000000000000000000000000000000000000000000000000000000000000000000000000000000000000000000PES00010000001N00000000000000020171210
201711300060000800000000000000193565000000000000001935659000000000099999999999Consumidor Final              000000000118800000000000118800000000000000000000000000000000000000000000000000000000000000000000000000000000000000000000PES00010000001N00000000000000020171210
201711300060000800000000000000193566000000000000001935669900000000000000000000Consumidor Final              000000000068000000000000068000000000000000000000000000000000000000000000000000000000000000000000000000000000000000000000PES00010000001N00000000000000020171210
201711300060000800000000000000193567000000000000001935679900000000000000000000Consumidor Final              000000000068000000000000068000000000000000000000000000000000000000000000000000000000000000000000000000000000000000000000PES00010000001N00000000000000020171210
201711300060000800000000000000193568000000000000001935689900000000000000000000Consumidor Final              000000000068000000000000068000000000000000000000000000000000000000000000000000000000000000000000000000000000000000000000PES00010000001N00000000000000020171210
201711300060000800000000000000193569000000000000001935699900000000000000000000Consumidor Final              000000000068000000000000068000000000000000000000000000000000000000000000000000000000000000000000000000000000000000000000PES00010000001N00000000000000020171210
201711300060000600000000000000784720000000000000007847209900000000000000000000Consumidor Final              000000000078000000000000078000000000000000000000000000000000000000000000000000000000000000000000000000000000000000000000PES00010000001N00000000000000020171210
201711300060000600000000000000784721000000000000007847219900000000000000000000Consumidor Final              000000000078000000000000078000000000000000000000000000000000000000000000000000000000000000000000000000000000000000000000PES00010000001N00000000000000020171210
201711300060000700000000000000566158000000000000005661589900000000000000000000Consumidor Final              000000000078000000000000078000000000000000000000000000000000000000000000000000000000000000000000000000000000000000000000PES00010000001N00000000000000020171210
201711300060000600000000000000784722000000000000007847229900000000000000000000Consumidor Final              000000000085800000000000085800000000000000000000000000000000000000000000000000000000000000000000000000000000000000000000PES00010000001N00000000000000020171210
201711300060000600000000000000784726000000000000007847269900000000000000000000Consumidor Final              000000000085800000000000085800000000000000000000000000000000000000000000000000000000000000000000000000000000000000000000PES00010000001N00000000000000020171210
201711300060000900000000000000044003000000000000000440039900000000000000000000Consumidor Final              000000000092000000000000092000000000000000000000000000000000000000000000000000000000000000000000000000000000000000000000PES00010000001N00000000000000020171210
201711300060000900000000000000044004000000000000000440049000000000099999999999Consumidor Final              000000000106700000000000106700000000000000000000000000000000000000000000000000000000000000000000000000000000000000000000PES00010000001N00000000000000020171210
201711300060000900000000000000044005000000000000000440059900000000000000000000Consumidor Final              000000000078000000000000078000000000000000000000000000000000000000000000000000000000000000000000000000000000000000000000PES00010000001N00000000000000020171210
201711300060000900000000000000044006000000000000000440069900000000000000000000Consumidor Final              000000000038000000000000038000000000000000000000000000000000000000000000000000000000000000000000000000000000000000000000PES00010000001N00000000000000020171210
201711300060000900000000000000044007000000000000000440079900000000000000000000Consumidor Final              000000000078000000000000078000000000000000000000000000000000000000000000000000000000000000000000000000000000000000000000PES00010000001N00000000000000020171210
201711300060000900000000000000044008000000000000000440089900000000000000000000Consumidor Final              000000000078000000000000078000000000000000000000000000000000000000000000000000000000000000000000000000000000000000000000PES00010000001N00000000000000020171210
201711300060000600000000000000784778000000000000007847789900000000000000000000Consumidor Final              000000000085800000000000085800000000000000000000000000000000000000000000000000000000000000000000000000000000000000000000PES00010000001N00000000000000020171210
201711300060000600000000000000784779000000000000007847799900000000000000000000Consumidor Final              000000000078000000000000078000000000000000000000000000000000000000000000000000000000000000000000000000000000000000000000PES00010000001N00000000000000020171210
201711300060000900000000000000044009000000000000000440099900000000000000000000Consumidor Final              000000000040000000000000040000000000000000000000000000000000000000000000000000000000000000000000000000000000000000000000PES00010000001N00000000000000020171210
201711300060000600000000000000784780000000000000007847809900000000000000000000Consumidor Final              000000000078000000000000078000000000000000000000000000000000000000000000000000000000000000000000000000000000000000000000PES00010000001N00000000000000020171210
201711300060000600000000000000784792000000000000007847929900000000000000000000Consumidor Final              000000000078000000000000078000000000000000000000000000000000000000000000000000000000000000000000000000000000000000000000PES00010000001N00000000000000020171210
201711300060000600000000000000784793000000000000007847939900000000000000000000Consumidor Final              000000000045000000000000045000000000000000000000000000000000000000000000000000000000000000000000000000000000000000000000PES00010000001N00000000000000020171210
201711300060000600000000000000784794000000000000007847949900000000000000000000Consumidor Final              000000000078000000000000078000000000000000000000000000000000000000000000000000000000000000000000000000000000000000000000PES00010000001N00000000000000020171210
201711300060000600000000000000784795000000000000007847959900000000000000000000Consumidor Final              000000000078000000000000078000000000000000000000000000000000000000000000000000000000000000000000000000000000000000000000PES00010000001N00000000000000020171210
201711300060000600000000000000784796000000000000007847969900000000000000000000Consumidor Final              000000000078000000000000078000000000000000000000000000000000000000000000000000000000000000000000000000000000000000000000PES00010000001N00000000000000020171210
201711300060000600000000000000784666000000000000007846669900000000000000000000Consumidor Final              000000000085800000000000085800000000000000000000000000000000000000000000000000000000000000000000000000000000000000000000PES00010000001N00000000000000020171210
201711300060000800000000000000193553000000000000001935539900000000000000000000Consumidor Final              000000000068000000000000068000000000000000000000000000000000000000000000000000000000000000000000000000000000000000000000PES00010000001N00000000000000020171210
201711300060000800000000000000193554000000000000001935549900000000000000000000Consumidor Final              000000000068000000000000068000000000000000000000000000000000000000000000000000000000000000000000000000000000000000000000PES00010000001N00000000000000020171210
201711300060000800000000000000193555000000000000001935559900000000000000000000Consumidor Final              000000000068000000000000068000000000000000000000000000000000000000000000000000000000000000000000000000000000000000000000PES00010000001N00000000000000020171210
201711300060000700000000000000566090000000000000005660909900000000000000000000Consumidor Final              000000000078000000000000078000000000000000000000000000000000000000000000000000000000000000000000000000000000000000000000PES00010000001N00000000000000020171210
201711300060000700000000000000566091000000000000005660919900000000000000000000Consumidor Final              000000000078000000000000078000000000000000000000000000000000000000000000000000000000000000000000000000000000000000000000PES00010000001N00000000000000020171210
201711300060000700000000000000566092000000000000005660929900000000000000000000Consumidor Final              000000000075000000000000075000000000000000000000000000000000000000000000000000000000000000000000000000000000000000000000PES00010000001N00000000000000020171210
201711300060000700000000000000566093000000000000005660939900000000000000000000Consumidor Final              000000000081000000000000081000000000000000000000000000000000000000000000000000000000000000000000000000000000000000000000PES00010000001N00000000000000020171210
201711300060000700000000000000566094000000000000005660949900000000000000000000Consumidor Final              000000000078000000000000078000000000000000000000000000000000000000000000000000000000000000000000000000000000000000000000PES00010000001N00000000000000020171210
201711300060000800000000000000193556000000000000001935569900000000000000000000Consumidor Final              000000000068000000000000068000000000000000000000000000000000000000000000000000000000000000000000000000000000000000000000PES00010000001N00000000000000020171210
201711300060000800000000000000193557000000000000001935579900000000000000000000Consumidor Final              000000000068000000000000068000000000000000000000000000000000000000000000000000000000000000000000000000000000000000000000PES00010000001N00000000000000020171210
201711300060000600000000000000784667000000000000007846679900000000000000000000Consumidor Final              000000000078000000000000078000000000000000000000000000000000000000000000000000000000000000000000000000000000000000000000PES00010000001N00000000000000020171210
201711300060000600000000000000784668000000000000007846689900000000000000000000Consumidor Final              000000000078000000000000078000000000000000000000000000000000000000000000000000000000000000000000000000000000000000000000PES00010000001N00000000000000020171210
201711300060000600000000000000784670000000000000007846709000000000099999999999Consumidor Final              000000000124000000000000124000000000000000000000000000000000000000000000000000000000000000000000000000000000000000000000PES00010000001N00000000000000020171210
201711300060000600000000000000784671000000000000007846719900000000000000000000Consumidor Final              000000000092000000000000092000000000000000000000000000000000000000000000000000000000000000000000000000000000000000000000PES00010000001N00000000000000020171210
201711300060000600000000000000784672000000000000007846729900000000000000000000Consumidor Final              000000000089100000000000089100000000000000000000000000000000000000000000000000000000000000000000000000000000000000000000PES00010000001N00000000000000020171210
201711300060000600000000000000784682000000000000007846829900000000000000000000Consumidor Final              000000000078000000000000078000000000000000000000000000000000000000000000000000000000000000000000000000000000000000000000PES00010000001N00000000000000020171210
201711300060000600000000000000784683000000000000007846839900000000000000000000Consumidor Final              000000000078000000000000078000000000000000000000000000000000000000000000000000000000000000000000000000000000000000000000PES00010000001N00000000000000020171210
201711300060000600000000000000784684000000000000007846849900000000000000000000Consumidor Final              000000000095000000000000095000000000000000000000000000000000000000000000000000000000000000000000000000000000000000000000PES00010000001N00000000000000020171210
201711300060000600000000000000784685000000000000007846859900000000000000000000Consumidor Final              000000000078000000000000078000000000000000000000000000000000000000000000000000000000000000000000000000000000000000000000PES00010000001N00000000000000020171210
201711300060000700000000000000566095000000000000005660959900000000000000000000Consumidor Final              000000000089100000000000089100000000000000000000000000000000000000000000000000000000000000000000000000000000000000000000PES00010000001N00000000000000020171210
201711300060000600000000000000784686000000000000007846869900000000000000000000Consumidor Final              000000000078000000000000078000000000000000000000000000000000000000000000000000000000000000000000000000000000000000000000PES00010000001N00000000000000020171210
201711300060000600000000000000784687000000000000007846879900000000000000000000Consumidor Final              000000000078000000000000078000000000000000000000000000000000000000000000000000000000000000000000000000000000000000000000PES00010000001N00000000000000020171210
201711300060000800000000000000193558000000000000001935589900000000000000000000Consumidor Final              000000000078000000000000078000000000000000000000000000000000000000000000000000000000000000000000000000000000000000000000PES00010000001N00000000000000020171210
201711300060000700000000000000566109000000000000005661099900000000000000000000Consumidor Final              000000000075000000000000075000000000000000000000000000000000000000000000000000000000000000000000000000000000000000000000PES00010000001N00000000000000020171210
201711300060000700000000000000566110000000000000005661109900000000000000000000Consumidor Final              000000000078000000000000078000000000000000000000000000000000000000000000000000000000000000000000000000000000000000000000PES00010000001N00000000000000020171210
201711300060000700000000000000566111000000000000005661119900000000000000000000Consumidor Final              000000000078000000000000078000000000000000000000000000000000000000000000000000000000000000000000000000000000000000000000PES00010000001N00000000000000020171210
201711300060000800000000000000193559000000000000001935599900000000000000000000Consumidor Final              000000000068000000000000068000000000000000000000000000000000000000000000000000000000000000000000000000000000000000000000PES00010000001N00000000000000020171210
201711300060000800000000000000193560000000000000001935609900000000000000000000Consumidor Final              000000000068000000000000068000000000000000000000000000000000000000000000000000000000000000000000000000000000000000000000PES00010000001N00000000000000020171210
201711300060000800000000000000193561000000000000001935619900000000000000000000Consumidor Final              000000000068000000000000068000000000000000000000000000000000000000000000000000000000000000000000000000000000000000000000PES00010000001N00000000000000020171210
201711300060000700000000000000566112000000000000005661129900000000000000000000Consumidor Final              000000000078000000000000078000000000000000000000000000000000000000000000000000000000000000000000000000000000000000000000PES00010000001N00000000000000020171210
201711300060000700000000000000566113000000000000005661139900000000000000000000Consumidor Final              000000000078000000000000078000000000000000000000000000000000000000000000000000000000000000000000000000000000000000000000PES00010000001N00000000000000020171210
201711300060000700000000000000566096000000000000005660969900000000000000000000Consumidor Final              000000000078000000000000078000000000000000000000000000000000000000000000000000000000000000000000000000000000000000000000PES00010000001N00000000000000020171210
201711300060000700000000000000566114000000000000005661149900000000000000000000Consumidor Final              000000000078000000000000078000000000000000000000000000000000000000000000000000000000000000000000000000000000000000000000PES00010000001N00000000000000020171210
201711300060000700000000000000566115000000000000005661159900000000000000000000Consumidor Final              000000000078000000000000078000000000000000000000000000000000000000000000000000000000000000000000000000000000000000000000PES00010000001N00000000000000020171210
201711300060000700000000000000566116000000000000005661169900000000000000000000Consumidor Final              000000000085800000000000085800000000000000000000000000000000000000000000000000000000000000000000000000000000000000000000PES00010000001N00000000000000020171210
201711300060000700000000000000566117000000000000005661179900000000000000000000Consumidor Final              000000000078000000000000078000000000000000000000000000000000000000000000000000000000000000000000000000000000000000000000PES00010000001N00000000000000020171210
201711300060000800000000000000193562000000000000001935629900000000000000000000Consumidor Final              000000000093000000000000093000000000000000000000000000000000000000000000000000000000000000000000000000000000000000000000PES00010000001N00000000000000020171210
201711300060000700000000000000566118000000000000005661189900000000000000000000Consumidor Final              000000000078000000000000078000000000000000000000000000000000000000000000000000000000000000000000000000000000000000000000PES00010000001N00000000000000020171210
201711300060000700000000000000566119000000000000005661199900000000000000000000Consumidor Final              000000000092000000000000092000000000000000000000000000000000000000000000000000000000000000000000000000000000000000000000PES00010000001N00000000000000020171210
201711300010000100000000000000001658000000000000000016588000000000030696247222TEKNO BOMBA S A               000000000078000000000000078000000000000000000000000000000000000000000000000000000000000000000000000000000000000000000000PES00010000001N00000000000000020171210
201711300060000600000000000000784688000000000000007846889900000000000000000000Consumidor Final              000000000078000000000000078000000000000000000000000000000000000000000000000000000000000000000000000000000000000000000000PES00010000001N00000000000000020171210
201711300010000100000000000000001659000000000000000016598000000000030710320337CCIC SOUTH AMERICA S.R.L      000000000078000000000000078000000000000000000000000000000000000000000000000000000000000000000000000000000000000000000000PES00010000001N00000000000000020171210
201711300060000700000000000000566097000000000000005660979900000000000000000000Consumidor Final              000000000078000000000000078000000000000000000000000000000000000000000000000000000000000000000000000000000000000000000000PES00010000001N00000000000000020171210
201711300060000700000000000000566098000000000000005660989900000000000000000000Consumidor Final              000000000078000000000000078000000000000000000000000000000000000000000000000000000000000000000000000000000000000000000000PES00010000001N00000000000000020171210
201711300060000700000000000000566099000000000000005660999900000000000000000000Consumidor Final              000000000078000000000000078000000000000000000000000000000000000000000000000000000000000000000000000000000000000000000000PES00010000001N00000000000000020171210
201711300060000700000000000000566100000000000000005661009900000000000000000000Consumidor Final              000000000090000000000000090000000000000000000000000000000000000000000000000000000000000000000000000000000000000000000000PES00010000001N00000000000000020171210
201711300060000700000000000000566101000000000000005661019900000000000000000000Consumidor Final              000000000092000000000000092000000000000000000000000000000000000000000000000000000000000000000000000000000000000000000000PES00010000001N00000000000000020171210
201711300060000700000000000000566102000000000000005661029900000000000000000000Consumidor Final              000000000078000000000000078000000000000000000000000000000000000000000000000000000000000000000000000000000000000000000000PES00010000001N00000000000000020171210
201711300060000700000000000000566103000000000000005661039900000000000000000000Consumidor Final              000000000078000000000000078000000000000000000000000000000000000000000000000000000000000000000000000000000000000000000000PES00010000001N00000000000000020171210
201711300060000700000000000000566104000000000000005661049900000000000000000000Consumidor Final              000000000085800000000000085800000000000000000000000000000000000000000000000000000000000000000000000000000000000000000000PES00010000001N00000000000000020171210
201711300060000700000000000000566105000000000000005661059900000000000000000000Consumidor Final              000000000078000000000000078000000000000000000000000000000000000000000000000000000000000000000000000000000000000000000000PES00010000001N00000000000000020171210
201711300060000700000000000000566106000000000000005661069900000000000000000000Consumidor Final              000000000085800000000000085800000000000000000000000000000000000000000000000000000000000000000000000000000000000000000000PES00010000001N00000000000000020171210
201711300060000700000000000000566107000000000000005661079900000000000000000000Consumidor Final              000000000081000000000000081000000000000000000000000000000000000000000000000000000000000000000000000000000000000000000000PES00010000001N00000000000000020171210
201711300060000900000000000000043985000000000000000439859900000000000000000000Consumidor Final              000000000078000000000000078000000000000000000000000000000000000000000000000000000000000000000000000000000000000000000000PES00010000001N00000000000000020171210
201711300060000600000000000000784689000000000000007846899900000000000000000000Consumidor Final              000000000078000000000000078000000000000000000000000000000000000000000000000000000000000000000000000000000000000000000000PES00010000001N00000000000000020171210
201711300060000700000000000000566127000000000000005661279900000000000000000000Consumidor Final              000000000078000000000000078000000000000000000000000000000000000000000000000000000000000000000000000000000000000000000000PES00010000001N00000000000000020171210
201711300060000700000000000000566128000000000000005661289900000000000000000000Consumidor Final              000000000078000000000000078000000000000000000000000000000000000000000000000000000000000000000000000000000000000000000000PES00010000001N00000000000000020171210
201711300060000600000000000000784690000000000000007846909900000000000000000000Consumidor Final              000000000085800000000000085800000000000000000000000000000000000000000000000000000000000000000000000000000000000000000000PES00010000001N00000000000000020171210
201711300060000700000000000000566129000000000000005661299900000000000000000000Consumidor Final              000000000093000000000000093000000000000000000000000000000000000000000000000000000000000000000000000000000000000000000000PES00010000001N00000000000000020171210
201711300060000700000000000000566130000000000000005661309900000000000000000000Consumidor Final              000000000092000000000000092000000000000000000000000000000000000000000000000000000000000000000000000000000000000000000000PES00010000001N00000000000000020171210
201711300060000600000000000000784691000000000000007846919900000000000000000000Consumidor Final              000000000085800000000000085800000000000000000000000000000000000000000000000000000000000000000000000000000000000000000000PES00010000001N00000000000000020171210
201711300060000700000000000000566131000000000000005661319900000000000000000000Consumidor Final              000000000078000000000000078000000000000000000000000000000000000000000000000000000000000000000000000000000000000000000000PES00010000001N00000000000000020171210
201711300060000700000000000000566108000000000000005661089900000000000000000000Consumidor Final              000000000085800000000000085800000000000000000000000000000000000000000000000000000000000000000000000000000000000000000000PES00010000001N00000000000000020171210
201711300060000700000000000000566120000000000000005661209900000000000000000000Consumidor Final              000000000099000000000000099000000000000000000000000000000000000000000000000000000000000000000000000000000000000000000000PES00010000001N00000000000000020171210
201711300060000700000000000000566121000000000000005661219900000000000000000000Consumidor Final              000000000078000000000000078000000000000000000000000000000000000000000000000000000000000000000000000000000000000000000000PES00010000001N00000000000000020171210
201711300060000700000000000000566122000000000000005661229900000000000000000000Consumidor Final              000000000085800000000000085800000000000000000000000000000000000000000000000000000000000000000000000000000000000000000000PES00010000001N00000000000000020171210
201711300060000700000000000000566123000000000000005661239900000000000000000000Consumidor Final              000000000078000000000000078000000000000000000000000000000000000000000000000000000000000000000000000000000000000000000000PES00010000001N00000000000000020171210
201711300060000700000000000000566124000000000000005661249900000000000000000000Consumidor Final              000000000085800000000000085800000000000000000000000000000000000000000000000000000000000000000000000000000000000000000000PES00010000001N00000000000000020171210
201711300060000700000000000000566125000000000000005661259900000000000000000000Consumidor Final              000000000078000000000000078000000000000000000000000000000000000000000000000000000000000000000000000000000000000000000000PES00010000001N00000000000000020171210
201711300060000700000000000000566126000000000000005661269900000000000000000000Consumidor Final              000000000085800000000000085800000000000000000000000000000000000000000000000000000000000000000000000000000000000000000000PES00010000001N00000000000000020171210
201711300060000700000000000000566132000000000000005661329900000000000000000000Consumidor Final              000000000081000000000000081000000000000000000000000000000000000000000000000000000000000000000000000000000000000000000000PES00010000001N00000000000000020171210
201711300060000700000000000000566133000000000000005661339000000000099999999999Consumidor Final              000000000101200000000000101200000000000000000000000000000000000000000000000000000000000000000000000000000000000000000000PES00010000001N00000000000000020171210
201711300060000700000000000000566134000000000000005661349900000000000000000000Consumidor Final              000000000081000000000000081000000000000000000000000000000000000000000000000000000000000000000000000000000000000000000000PES00010000001N00000000000000020171210
201711300060000600000000000000784693000000000000007846939900000000000000000000Consumidor Final              000000000078000000000000078000000000000000000000000000000000000000000000000000000000000000000000000000000000000000000000PES00010000001N00000000000000020171210
201711300060000700000000000000566135000000000000005661359900000000000000000000Consumidor Final              000000000078000000000000078000000000000000000000000000000000000000000000000000000000000000000000000000000000000000000000PES00010000001N00000000000000020171210
201711300060000600000000000000784694000000000000007846949900000000000000000000Consumidor Final              000000000078000000000000078000000000000000000000000000000000000000000000000000000000000000000000000000000000000000000000PES00010000001N00000000000000020171210
201711300060000700000000000000566136000000000000005661369900000000000000000000Consumidor Final              000000000078000000000000078000000000000000000000000000000000000000000000000000000000000000000000000000000000000000000000PES00010000001N00000000000000020171210
201711300060000600000000000000784695000000000000007846959900000000000000000000Consumidor Final              000000000078000000000000078000000000000000000000000000000000000000000000000000000000000000000000000000000000000000000000PES00010000001N00000000000000020171210
201711300060000600000000000000784696000000000000007846969900000000000000000000Consumidor Final              000000000078000000000000078000000000000000000000000000000000000000000000000000000000000000000000000000000000000000000000PES00010000001N00000000000000020171210
201711300060000700000000000000566137000000000000005661379900000000000000000000Consumidor Final              000000000078000000000000078000000000000000000000000000000000000000000000000000000000000000000000000000000000000000000000PES00010000001N00000000000000020171210
201711300060000700000000000000566138000000000000005661389900000000000000000000Consumidor Final              000000000085800000000000085800000000000000000000000000000000000000000000000000000000000000000000000000000000000000000000PES00010000001N00000000000000020171210
201711300060000600000000000000784697000000000000007846979900000000000000000000Consumidor Final              000000000078000000000000078000000000000000000000000000000000000000000000000000000000000000000000000000000000000000000000PES00010000001N00000000000000020171210
201711300060000700000000000000566139000000000000005661399900000000000000000000Consumidor Final              000000000085800000000000085800000000000000000000000000000000000000000000000000000000000000000000000000000000000000000000PES00010000001N00000000000000020171210
201711300060000600000000000000784698000000000000007846989900000000000000000000Consumidor Final              000000000082000000000000082000000000000000000000000000000000000000000000000000000000000000000000000000000000000000000000PES00010000001N00000000000000020171210
201711300060000700000000000000566140000000000000005661409900000000000000000000Consumidor Final              000000000078000000000000078000000000000000000000000000000000000000000000000000000000000000000000000000000000000000000000PES00010000001N00000000000000020171210
201711300060000600000000000000784699000000000000007846999900000000000000000000Consumidor Final              000000000078000000000000078000000000000000000000000000000000000000000000000000000000000000000000000000000000000000000000PES00010000001N00000000000000020171210
201711300060000600000000000000784700000000000000007847009900000000000000000000Consumidor Final              000000000081000000000000081000000000000000000000000000000000000000000000000000000000000000000000000000000000000000000000PES00010000001N00000000000000020171210
201711300060000700000000000000566141000000000000005661419900000000000000000000Consumidor Final              000000000092000000000000092000000000000000000000000000000000000000000000000000000000000000000000000000000000000000000000PES00010000001N00000000000000020171210
201711300060000700000000000000566142000000000000005661429900000000000000000000Consumidor Final              000000000089100000000000089100000000000000000000000000000000000000000000000000000000000000000000000000000000000000000000PES00010000001N00000000000000020171210
201711300060000600000000000000784701000000000000007847019900000000000000000000Consumidor Final              000000000078000000000000078000000000000000000000000000000000000000000000000000000000000000000000000000000000000000000000PES00010000001N00000000000000020171210
201711300060000600000000000000784702000000000000007847029900000000000000000000Consumidor Final              000000000089100000000000089100000000000000000000000000000000000000000000000000000000000000000000000000000000000000000000PES00010000001N00000000000000020171210
201711300060000700000000000000566143000000000000005661439900000000000000000000Consumidor Final              000000000078000000000000078000000000000000000000000000000000000000000000000000000000000000000000000000000000000000000000PES00010000001N00000000000000020171210
201711300060000700000000000000566144000000000000005661449900000000000000000000Consumidor Final              000000000085800000000000085800000000000000000000000000000000000000000000000000000000000000000000000000000000000000000000PES00010000001N00000000000000020171210
201711300060000600000000000000784703000000000000007847039900000000000000000000Consumidor Final              000000000089100000000000089100000000000000000000000000000000000000000000000000000000000000000000000000000000000000000000PES00010000001N00000000000000020171210
201711300060000800000000000000193572000000000000001935729900000000000000000000Consumidor Final              000000000068000000000000068000000000000000000000000000000000000000000000000000000000000000000000000000000000000000000000PES00010000001N00000000000000020171210
201711300060000600000000000000784723000000000000007847239900000000000000000000Consumidor Final              000000000078000000000000078000000000000000000000000000000000000000000000000000000000000000000000000000000000000000000000PES00010000001N00000000000000020171210
201711300060000600000000000000784724000000000000007847249900000000000000000000Consumidor Final              000000000078000000000000078000000000000000000000000000000000000000000000000000000000000000000000000000000000000000000000PES00010000001N00000000000000020171210
201711300060000600000000000000784725000000000000007847259900000000000000000000Consumidor Final              000000000085800000000000085800000000000000000000000000000000000000000000000000000000000000000000000000000000000000000000PES00010000001N00000000000000020171210
201711300060000800000000000000193573000000000000001935739900000000000000000000Consumidor Final              000000000068000000000000068000000000000000000000000000000000000000000000000000000000000000000000000000000000000000000000PES00010000001N00000000000000020171210
201711300060000600000000000000784727000000000000007847279900000000000000000000Consumidor Final              000000000078000000000000078000000000000000000000000000000000000000000000000000000000000000000000000000000000000000000000PES00010000001N00000000000000020171210
201711300060000800000000000000193574000000000000001935749900000000000000000000Consumidor Final              000000000068000000000000068000000000000000000000000000000000000000000000000000000000000000000000000000000000000000000000PES00010000001N00000000000000020171210
201711300060000800000000000000193575000000000000001935759000000000099999999999Consumidor Final              000000000130000000000000130000000000000000000000000000000000000000000000000000000000000000000000000000000000000000000000PES00010000001N00000000000000020171210
201711300060000800000000000000193576000000000000001935769900000000000000000000Consumidor Final              000000000068000000000000068000000000000000000000000000000000000000000000000000000000000000000000000000000000000000000000PES00010000001N00000000000000020171210
201711300060000800000000000000193577000000000000001935779900000000000000000000Consumidor Final              000000000068000000000000068000000000000000000000000000000000000000000000000000000000000000000000000000000000000000000000PES00010000001N00000000000000020171210
201711300060000600000000000000784704000000000000007847049900000000000000000000Consumidor Final              000000000078000000000000078000000000000000000000000000000000000000000000000000000000000000000000000000000000000000000000PES00010000001N00000000000000020171210
201711300060000700000000000000566145000000000000005661459900000000000000000000Consumidor Final              000000000085800000000000085800000000000000000000000000000000000000000000000000000000000000000000000000000000000000000000PES00010000001N00000000000000020171210
201711300060000700000000000000566146000000000000005661469900000000000000000000Consumidor Final              000000000092000000000000092000000000000000000000000000000000000000000000000000000000000000000000000000000000000000000000PES00010000001N00000000000000020171210
201711300060000700000000000000566147000000000000005661479900000000000000000000Consumidor Final              000000000085800000000000085800000000000000000000000000000000000000000000000000000000000000000000000000000000000000000000PES00010000001N00000000000000020171210
201711300060000600000000000000784707000000000000007847079900000000000000000000Consumidor Final              000000000078000000000000078000000000000000000000000000000000000000000000000000000000000000000000000000000000000000000000PES00010000001N00000000000000020171210
201711300060000700000000000000566148000000000000005661489900000000000000000000Consumidor Final              000000000079000000000000079000000000000000000000000000000000000000000000000000000000000000000000000000000000000000000000PES00010000001N00000000000000020171210
201711300060000600000000000000784708000000000000007847089900000000000000000000Consumidor Final              000000000040000000000000040000000000000000000000000000000000000000000000000000000000000000000000000000000000000000000000PES00010000001N00000000000000020171210
201711300060000700000000000000566149000000000000005661499900000000000000000000Consumidor Final              000000000085800000000000085800000000000000000000000000000000000000000000000000000000000000000000000000000000000000000000PES00010000001N00000000000000020171210
201711300060000600000000000000784709000000000000007847099900000000000000000000Consumidor Final              000000000078000000000000078000000000000000000000000000000000000000000000000000000000000000000000000000000000000000000000PES00010000001N00000000000000020171210
201711300060000600000000000000784710000000000000007847109900000000000000000000Consumidor Final              000000000078000000000000078000000000000000000000000000000000000000000000000000000000000000000000000000000000000000000000PES00010000001N00000000000000020171210
201711300060000600000000000000784705000000000000007847059900000000000000000000Consumidor Final              000000000038000000000000038000000000000000000000000000000000000000000000000000000000000000000000000000000000000000000000PES00010000001N00000000000000020171210
201711300060000800000000000000193578000000000000001935789900000000000000000000Consumidor Final              000000000078000000000000078000000000000000000000000000000000000000000000000000000000000000000000000000000000000000000000PES00010000001N00000000000000020171210
201711300010000100000000000000001661000000000000000016618000000000023173855214REBOLA MARIA MANUELA          000000000078000000000000078000000000000000000000000000000000000000000000000000000000000000000000000000000000000000000000PES00010000001N00000000000000020171210
201711300060000600000000000000784733000000000000007847339900000000000000000000Consumidor Final              000000000078000000000000078000000000000000000000000000000000000000000000000000000000000000000000000000000000000000000000PES00010000001N00000000000000020171210
201711300060000900000000000000043986000000000000000439869900000000000000000000Consumidor Final              000000000085800000000000085800000000000000000000000000000000000000000000000000000000000000000000000000000000000000000000PES00010000001N00000000000000020171210
201711300060000700000000000000566159000000000000005661599900000000000000000000Consumidor Final              000000000078000000000000078000000000000000000000000000000000000000000000000000000000000000000000000000000000000000000000PES00010000001N00000000000000020171210
201711300060000600000000000000784735000000000000007847359900000000000000000000Consumidor Final              000000000078000000000000078000000000000000000000000000000000000000000000000000000000000000000000000000000000000000000000PES00010000001N00000000000000020171210
201711300060000600000000000000784736000000000000007847369900000000000000000000Consumidor Final              000000000078000000000000078000000000000000000000000000000000000000000000000000000000000000000000000000000000000000000000PES00010000001N00000000000000020171210
201711300060000900000000000000043988000000000000000439889900000000000000000000Consumidor Final              000000000038000000000000038000000000000000000000000000000000000000000000000000000000000000000000000000000000000000000000PES00010000001N00000000000000020171210
201711300060000900000000000000043989000000000000000439899900000000000000000000Consumidor Final              000000000078000000000000078000000000000000000000000000000000000000000000000000000000000000000000000000000000000000000000PES00010000001N00000000000000020171210
201711300060000900000000000000043990000000000000000439909900000000000000000000Consumidor Final              000000000038000000000000038000000000000000000000000000000000000000000000000000000000000000000000000000000000000000000000PES00010000001N00000000000000020171210
201711300060000600000000000000784706000000000000007847069900000000000000000000Consumidor Final              000000000085800000000000085800000000000000000000000000000000000000000000000000000000000000000000000000000000000000000000PES00010000001N00000000000000020171210
201711300060000800000000000000193579000000000000001935799900000000000000000000Consumidor Final              000000000068000000000000068000000000000000000000000000000000000000000000000000000000000000000000000000000000000000000000PES00010000001N00000000000000020171210
201711300060000600000000000000784745000000000000007847459900000000000000000000Consumidor Final              000000000078000000000000078000000000000000000000000000000000000000000000000000000000000000000000000000000000000000000000PES00010000001N00000000000000020171210
201711300060000700000000000000566165000000000000005661659900000000000000000000Consumidor Final              000000000079000000000000079000000000000000000000000000000000000000000000000000000000000000000000000000000000000000000000PES00010000001N00000000000000020171210
201711300060000700000000000000566166000000000000005661669900000000000000000000Consumidor Final              000000000044000000000000044000000000000000000000000000000000000000000000000000000000000000000000000000000000000000000000PES00010000001N00000000000000020171210
201711300060000600000000000000784746000000000000007847469900000000000000000000Consumidor Final              000000000078000000000000078000000000000000000000000000000000000000000000000000000000000000000000000000000000000000000000PES00010000001N00000000000000020171210
201711300060000700000000000000566167000000000000005661679900000000000000000000Consumidor Final              000000000078000000000000078000000000000000000000000000000000000000000000000000000000000000000000000000000000000000000000PES00010000001N00000000000000020171210
201711300060000600000000000000784747000000000000007847479900000000000000000000Consumidor Final              000000000069000000000000069000000000000000000000000000000000000000000000000000000000000000000000000000000000000000000000PES00010000001N00000000000000020171210
201711300060000900000000000000043991000000000000000439919900000000000000000000Consumidor Final              000000000078000000000000078000000000000000000000000000000000000000000000000000000000000000000000000000000000000000000000PES00010000001N00000000000000020171210
201711300060000900000000000000043992000000000000000439929900000000000000000000Consumidor Final              000000000078000000000000078000000000000000000000000000000000000000000000000000000000000000000000000000000000000000000000PES00010000001N00000000000000020171210
201711300060000600000000000000784711000000000000007847119900000000000000000000Consumidor Final              000000000078000000000000078000000000000000000000000000000000000000000000000000000000000000000000000000000000000000000000PES00010000001N00000000000000020171210
201711300060000800000000000000193563000000000000001935639900000000000000000000Consumidor Final              000000000068000000000000068000000000000000000000000000000000000000000000000000000000000000000000000000000000000000000000PES00010000001N00000000000000020171210
201711300060000700000000000000566153000000000000005661539900000000000000000000Consumidor Final              000000000078000000000000078000000000000000000000000000000000000000000000000000000000000000000000000000000000000000000000PES00010000001N00000000000000020171210
201711300060000700000000000000566154000000000000005661549900000000000000000000Consumidor Final              000000000085800000000000085800000000000000000000000000000000000000000000000000000000000000000000000000000000000000000000PES00010000001N00000000000000020171210
201711300060000600000000000000784712000000000000007847129900000000000000000000Consumidor Final              000000000078000000000000078000000000000000000000000000000000000000000000000000000000000000000000000000000000000000000000PES00010000001N00000000000000020171210
201711300060000700000000000000566155000000000000005661559900000000000000000000Consumidor Final              000000000095000000000000095000000000000000000000000000000000000000000000000000000000000000000000000000000000000000000000PES00010000001N00000000000000020171210
201711300060000700000000000000566156000000000000005661569900000000000000000000Consumidor Final              000000000095000000000000095000000000000000000000000000000000000000000000000000000000000000000000000000000000000000000000PES00010000001N00000000000000020171210
201711300060000600000000000000784713000000000000007847139900000000000000000000Consumidor Final              000000000085800000000000085800000000000000000000000000000000000000000000000000000000000000000000000000000000000000000000PES00010000001N00000000000000020171210
201711300060000800000000000000193564000000000000001935649900000000000000000000Consumidor Final              000000000041800000000000041800000000000000000000000000000000000000000000000000000000000000000000000000000000000000000000PES00010000001N00000000000000020171210
201711300060000700000000000000566157000000000000005661579900000000000000000000Consumidor Final              000000000026000000000000026000000000000000000000000000000000000000000000000000000000000000000000000000000000000000000000PES00010000001N00000000000000020171210
201711300060000600000000000000784714000000000000007847149900000000000000000000Consumidor Final              000000000078000000000000078000000000000000000000000000000000000000000000000000000000000000000000000000000000000000000000PES00010000001N00000000000000020171210
201711300060000600000000000000784728000000000000007847289900000000000000000000Consumidor Final              000000000092000000000000092000000000000000000000000000000000000000000000000000000000000000000000000000000000000000000000PES00010000001N00000000000000020171210
201711300060000600000000000000784729000000000000007847299900000000000000000000Consumidor Final              000000000092000000000000092000000000000000000000000000000000000000000000000000000000000000000000000000000000000000000000PES00010000001N00000000000000020171210
201711300060000600000000000000784730000000000000007847309900000000000000000000Consumidor Final              000000000080000000000000080000000000000000000000000000000000000000000000000000000000000000000000000000000000000000000000PES00010000001N00000000000000020171210
201711300060000600000000000000784731000000000000007847319900000000000000000000Consumidor Final              000000000078000000000000078000000000000000000000000000000000000000000000000000000000000000000000000000000000000000000000PES00010000001N00000000000000020171210
201711300060000600000000000000784732000000000000007847329900000000000000000000Consumidor Final              000000000079000000000000079000000000000000000000000000000000000000000000000000000000000000000000000000000000000000000000PES00010000001N00000000000000020171210
201711300010000100000000000000001660000000000000000016608000000000023173855214REBOLA MARIA NUELA            000000000079000000000000079000000000000000000000000000000000000000000000000000000000000000000000000000000000000000000000PES00010000001N00000000000000020171210
201711300060000900000000000000043987000000000000000439879900000000000000000000Consumidor Final              000000000074800000000000074800000000000000000000000000000000000000000000000000000000000000000000000000000000000000000000PES00010000001N00000000000000020171210
201711300060000600000000000000784734000000000000007847349900000000000000000000Consumidor Final              000000000085800000000000085800000000000000000000000000000000000000000000000000000000000000000000000000000000000000000000PES00010000001N00000000000000020171210
201711300060000600000000000000784737000000000000007847379900000000000000000000Consumidor Final              000000000089100000000000089100000000000000000000000000000000000000000000000000000000000000000000000000000000000000000000PES00010000001N00000000000000020171210
201711300060000600000000000000784738000000000000007847389900000000000000000000Consumidor Final              000000000078000000000000078000000000000000000000000000000000000000000000000000000000000000000000000000000000000000000000PES00010000001N00000000000000020171210
201711300060000700000000000000566160000000000000005661609900000000000000000000Consumidor Final              000000000078000000000000078000000000000000000000000000000000000000000000000000000000000000000000000000000000000000000000PES00010000001N00000000000000020171210
201711300060000600000000000000784739000000000000007847399900000000000000000000Consumidor Final              000000000078000000000000078000000000000000000000000000000000000000000000000000000000000000000000000000000000000000000000PES00010000001N00000000000000020171210
201711300060000700000000000000566161000000000000005661619900000000000000000000Consumidor Final              000000000092000000000000092000000000000000000000000000000000000000000000000000000000000000000000000000000000000000000000PES00010000001N00000000000000020171210
201711300060000700000000000000566162000000000000005661629900000000000000000000Consumidor Final              000000000088000000000000088000000000000000000000000000000000000000000000000000000000000000000000000000000000000000000000PES00010000001N00000000000000020171210
201711300060000600000000000000784740000000000000007847409900000000000000000000Consumidor Final              000000000078000000000000078000000000000000000000000000000000000000000000000000000000000000000000000000000000000000000000PES00010000001N00000000000000020171210
201711300060000600000000000000784741000000000000007847419900000000000000000000Consumidor Final              000000000078000000000000078000000000000000000000000000000000000000000000000000000000000000000000000000000000000000000000PES00010000001N00000000000000020171210
201711300060000700000000000000566163000000000000005661639900000000000000000000Consumidor Final              000000000078000000000000078000000000000000000000000000000000000000000000000000000000000000000000000000000000000000000000PES00010000001N00000000000000020171210
201711300060000600000000000000784742000000000000007847429900000000000000000000Consumidor Final              000000000075000000000000075000000000000000000000000000000000000000000000000000000000000000000000000000000000000000000000PES00010000001N00000000000000020171210
201711300060000600000000000000784743000000000000007847439900000000000000000000Consumidor Final              000000000075000000000000075000000000000000000000000000000000000000000000000000000000000000000000000000000000000000000000PES00010000001N00000000000000020171210
201711300060000700000000000000566164000000000000005661649900000000000000000000Consumidor Final              000000000085000000000000085000000000000000000000000000000000000000000000000000000000000000000000000000000000000000000000PES00010000001N00000000000000020171210
201711300060000600000000000000784744000000000000007847449900000000000000000000Consumidor Final              000000000078000000000000078000000000000000000000000000000000000000000000000000000000000000000000000000000000000000000000PES00010000001N00000000000000020171210
201711300060000900000000000000043993000000000000000439939900000000000000000000Consumidor Final              000000000078000000000000078000000000000000000000000000000000000000000000000000000000000000000000000000000000000000000000PES00010000001N00000000000000020171210
201711300060000900000000000000043994000000000000000439949900000000000000000000Consumidor Final              000000000069000000000000069000000000000000000000000000000000000000000000000000000000000000000000000000000000000000000000PES00010000001N00000000000000020171210
201711300060000600000000000000784752000000000000007847529900000000000000000000Consumidor Final              000000000078000000000000078000000000000000000000000000000000000000000000000000000000000000000000000000000000000000000000PES00010000001N00000000000000020171210
201711300060000600000000000000784753000000000000007847539900000000000000000000Consumidor Final              000000000088000000000000088000000000000000000000000000000000000000000000000000000000000000000000000000000000000000000000PES00010000001N00000000000000020171210
201711300060000600000000000000784754000000000000007847549900000000000000000000Consumidor Final              000000000085800000000000085800000000000000000000000000000000000000000000000000000000000000000000000000000000000000000000PES00010000001N00000000000000020171210
201711300060000600000000000000784755000000000000007847559900000000000000000000Consumidor Final              000000000078000000000000078000000000000000000000000000000000000000000000000000000000000000000000000000000000000000000000PES00010000001N00000000000000020171210
201711300060000900000000000000043995000000000000000439959900000000000000000000Consumidor Final              000000000068000000000000068000000000000000000000000000000000000000000000000000000000000000000000000000000000000000000000PES00010000001N00000000000000020171210
201711300060000900000000000000043996000000000000000439969900000000000000000000Consumidor Final              000000000028600000000000028600000000000000000000000000000000000000000000000000000000000000000000000000000000000000000000PES00010000001N00000000000000020171210
201711300060000800000000000000193580000000000000001935809900000000000000000000Consumidor Final              000000000068000000000000068000000000000000000000000000000000000000000000000000000000000000000000000000000000000000000000PES00010000001N00000000000000020171210
201711300060000800000000000000193581000000000000001935819900000000000000000000Consumidor Final              000000000068000000000000068000000000000000000000000000000000000000000000000000000000000000000000000000000000000000000000PES00010000001N00000000000000020171210
201711300060000600000000000000784762000000000000007847629900000000000000000000Consumidor Final              000000000078000000000000078000000000000000000000000000000000000000000000000000000000000000000000000000000000000000000000PES00010000001N00000000000000020171210
201711300060000600000000000000784748000000000000007847489900000000000000000000Consumidor Final              000000000075000000000000075000000000000000000000000000000000000000000000000000000000000000000000000000000000000000000000PES00010000001N00000000000000020171210
201711300060000600000000000000784749000000000000007847499000000000099999999999Consumidor Final              000000000102000000000000102000000000000000000000000000000000000000000000000000000000000000000000000000000000000000000000PES00010000001N00000000000000020171210
201711300060000600000000000000784750000000000000007847509900000000000000000000Consumidor Final              000000000078000000000000078000000000000000000000000000000000000000000000000000000000000000000000000000000000000000000000PES00010000001N00000000000000020171210
201711300060000600000000000000784751000000000000007847519900000000000000000000Consumidor Final              000000000076000000000000076000000000000000000000000000000000000000000000000000000000000000000000000000000000000000000000PES00010000001N00000000000000020171210
201711300060000600000000000000784761000000000000007847619900000000000000000000Consumidor Final              000000000078000000000000078000000000000000000000000000000000000000000000000000000000000000000000000000000000000000000000PES00010000001N00000000000000020171210
201711300060000600000000000000784763000000000000007847639900000000000000000000Consumidor Final              000000000078000000000000078000000000000000000000000000000000000000000000000000000000000000000000000000000000000000000000PES00010000001N00000000000000020171210
201711300060000600000000000000784764000000000000007847649900000000000000000000Consumidor Final              000000000078000000000000078000000000000000000000000000000000000000000000000000000000000000000000000000000000000000000000PES00010000001N00000000000000020171210
201711300060000900000000000000043997000000000000000439979000000000099999999999Consumidor Final              000000000101200000000000101200000000000000000000000000000000000000000000000000000000000000000000000000000000000000000000PES00010000001N00000000000000020171210
201711300060000900000000000000043998000000000000000439989900000000000000000000Consumidor Final              000000000085800000000000085800000000000000000000000000000000000000000000000000000000000000000000000000000000000000000000PES00010000001N00000000000000020171210
201711300060000900000000000000043999000000000000000439999900000000000000000000Consumidor Final              000000000044000000000000044000000000000000000000000000000000000000000000000000000000000000000000000000000000000000000000PES00010000001N00000000000000020171210
201711300060000600000000000000784756000000000000007847569900000000000000000000Consumidor Final              000000000078000000000000078000000000000000000000000000000000000000000000000000000000000000000000000000000000000000000000PES00010000001N00000000000000020171210
201711300060000600000000000000784765000000000000007847659900000000000000000000Consumidor Final              000000000078000000000000078000000000000000000000000000000000000000000000000000000000000000000000000000000000000000000000PES00010000001N00000000000000020171210
201711300060000600000000000000784766000000000000007847669900000000000000000000Consumidor Final              000000000078000000000000078000000000000000000000000000000000000000000000000000000000000000000000000000000000000000000000PES00010000001N00000000000000020171210
201711300060000600000000000000784767000000000000007847679900000000000000000000Consumidor Final              000000000092000000000000092000000000000000000000000000000000000000000000000000000000000000000000000000000000000000000000PES00010000001N00000000000000020171210
201711300060000900000000000000044000000000000000000440009900000000000000000000Consumidor Final              000000000079000000000000079000000000000000000000000000000000000000000000000000000000000000000000000000000000000000000000PES00010000001N00000000000000020171210
201711300060000900000000000000044001000000000000000440019000000000099999999999Consumidor Final              000000000101200000000000101200000000000000000000000000000000000000000000000000000000000000000000000000000000000000000000PES00010000001N00000000000000020171210
201711300060000600000000000000784768000000000000007847689900000000000000000000Consumidor Final              000000000078000000000000078000000000000000000000000000000000000000000000000000000000000000000000000000000000000000000000PES00010000001N00000000000000020171210
201711300060000900000000000000044002000000000000000440029900000000000000000000Consumidor Final              000000000078000000000000078000000000000000000000000000000000000000000000000000000000000000000000000000000000000000000000PES00010000001N00000000000000020171210
201711300060000600000000000000784769000000000000007847699900000000000000000000Consumidor Final              000000000078000000000000078000000000000000000000000000000000000000000000000000000000000000000000000000000000000000000000PES00010000001N00000000000000020171210
201711300060000600000000000000784770000000000000007847709900000000000000000000Consumidor Final              000000000078000000000000078000000000000000000000000000000000000000000000000000000000000000000000000000000000000000000000PES00010000001N00000000000000020171210
201711300060000600000000000000784757000000000000007847579900000000000000000000Consumidor Final              000000000080000000000000080000000000000000000000000000000000000000000000000000000000000000000000000000000000000000000000PES00010000001N00000000000000020171210
201711300060000600000000000000784758000000000000007847589900000000000000000000Consumidor Final              000000000093500000000000093500000000000000000000000000000000000000000000000000000000000000000000000000000000000000000000PES00010000001N00000000000000020171210
201711300060000600000000000000784759000000000000007847599900000000000000000000Consumidor Final              000000000078000000000000078000000000000000000000000000000000000000000000000000000000000000000000000000000000000000000000PES00010000001N00000000000000020171210
201711300060000600000000000000784760000000000000007847609900000000000000000000Consumidor Final              000000000085800000000000085800000000000000000000000000000000000000000000000000000000000000000000000000000000000000000000PES00010000001N00000000000000020171210
201711300010000100000000000000001662000000000000000016628000000000030709439266EGCP SA                       000000000092000000000000092000000000000000000000000000000000000000000000000000000000000000000000000000000000000000000000PES00010000001N00000000000000020171210
201711300060000600000000000000784771000000000000007847719900000000000000000000Consumidor Final              000000000078000000000000078000000000000000000000000000000000000000000000000000000000000000000000000000000000000000000000PES00010000001N00000000000000020171210
201711300060000600000000000000784772000000000000007847729900000000000000000000Consumidor Final              000000000078000000000000078000000000000000000000000000000000000000000000000000000000000000000000000000000000000000000000PES00010000001N00000000000000020171210
201711300060000600000000000000784774000000000000007847749900000000000000000000Consumidor Final              000000000092000000000000092000000000000000000000000000000000000000000000000000000000000000000000000000000000000000000000PES00010000001N00000000000000020171210
201711300060000600000000000000784775000000000000007847759900000000000000000000Consumidor Final              000000000078000000000000078000000000000000000000000000000000000000000000000000000000000000000000000000000000000000000000PES00010000001N00000000000000020171210
201711300060000600000000000000784776000000000000007847769900000000000000000000Consumidor Final              000000000078000000000000078000000000000000000000000000000000000000000000000000000000000000000000000000000000000000000000PES00010000001N00000000000000020171210
201711300060000600000000000000784773000000000000007847739900000000000000000000Consumidor Final              000000000092000000000000092000000000000000000000000000000000000000000000000000000000000000000000000000000000000000000000PES00010000001N00000000000000020171210
201711300060000600000000000000784777000000000000007847779900000000000000000000Consumidor Final              000000000078000000000000078000000000000000000000000000000000000000000000000000000000000000000000000000000000000000000000PES00010000001N00000000000000020171210
201711300060000700000000000000566168000000000000005661689900000000000000000000Consumidor Final              000000000092000000000000092000000000000000000000000000000000000000000000000000000000000000000000000000000000000000000000PES00010000001N00000000000000020171210
201711300060000700000000000000566169000000000000005661699900000000000000000000Consumidor Final              000000000069000000000000069000000000000000000000000000000000000000000000000000000000000000000000000000000000000000000000PES00010000001N00000000000000020171210
201711300060000700000000000000566170000000000000005661709900000000000000000000Consumidor Final              000000000078000000000000078000000000000000000000000000000000000000000000000000000000000000000000000000000000000000000000PES00010000001N00000000000000020171210
201711300060000700000000000000566171000000000000005661719900000000000000000000Consumidor Final              000000000085800000000000085800000000000000000000000000000000000000000000000000000000000000000000000000000000000000000000PES00010000001N00000000000000020171210
201711300060000700000000000000566174000000000000005661749900000000000000000000Consumidor Final              000000000078000000000000078000000000000000000000000000000000000000000000000000000000000000000000000000000000000000000000PES00010000001N00000000000000020171210
201711300060000600000000000000784784000000000000007847849900000000000000000000Consumidor Final              000000000078000000000000078000000000000000000000000000000000000000000000000000000000000000000000000000000000000000000000PES00010000001N00000000000000020171210
201711300060000600000000000000784785000000000000007847859900000000000000000000Consumidor Final              000000000085800000000000085800000000000000000000000000000000000000000000000000000000000000000000000000000000000000000000PES00010000001N00000000000000020171210
201711300060000600000000000000784787000000000000007847879900000000000000000000Consumidor Final              000000000092000000000000092000000000000000000000000000000000000000000000000000000000000000000000000000000000000000000000PES00010000001N00000000000000020171210
201711300060000800000000000000193582000000000000001935829900000000000000000000Consumidor Final              000000000068000000000000068000000000000000000000000000000000000000000000000000000000000000000000000000000000000000000000PES00010000001N00000000000000020171210
201711300060000700000000000000566172000000000000005661729900000000000000000000Consumidor Final              000000000078000000000000078000000000000000000000000000000000000000000000000000000000000000000000000000000000000000000000PES00010000001N00000000000000020171210
201711300060000600000000000000784781000000000000007847819900000000000000000000Consumidor Final              000000000085800000000000085800000000000000000000000000000000000000000000000000000000000000000000000000000000000000000000PES00010000001N00000000000000020171210
201711300060000600000000000000784782000000000000007847829900000000000000000000Consumidor Final              000000000089100000000000089100000000000000000000000000000000000000000000000000000000000000000000000000000000000000000000PES00010000001N00000000000000020171210
201711300060000900000000000000044010000000000000000440109900000000000000000000Consumidor Final              000000000038000000000000038000000000000000000000000000000000000000000000000000000000000000000000000000000000000000000000PES00010000001N00000000000000020171210
201711300060000600000000000000784783000000000000007847839900000000000000000000Consumidor Final              000000000081000000000000081000000000000000000000000000000000000000000000000000000000000000000000000000000000000000000000PES00010000001N00000000000000020171210
201711300060000700000000000000566173000000000000005661739900000000000000000000Consumidor Final              000000000078000000000000078000000000000000000000000000000000000000000000000000000000000000000000000000000000000000000000PES00010000001N00000000000000020171210
201711300060000900000000000000044011000000000000000440119900000000000000000000Consumidor Final              000000000038000000000000038000000000000000000000000000000000000000000000000000000000000000000000000000000000000000000000PES00010000001N00000000000000020171210
201711300060000900000000000000044012000000000000000440129900000000000000000000Consumidor Final              000000000078000000000000078000000000000000000000000000000000000000000000000000000000000000000000000000000000000000000000PES00010000001N00000000000000020171210
201711300060000900000000000000044013000000000000000440139900000000000000000000Consumidor Final              000000000078000000000000078000000000000000000000000000000000000000000000000000000000000000000000000000000000000000000000PES00010000001N00000000000000020171210
201711300060000600000000000000784786000000000000007847869900000000000000000000Consumidor Final              000000000078000000000000078000000000000000000000000000000000000000000000000000000000000000000000000000000000000000000000PES00010000001N00000000000000020171210
201711300060000800000000000000193583000000000000001935839900000000000000000000Consumidor Final              000000000068000000000000068000000000000000000000000000000000000000000000000000000000000000000000000000000000000000000000PES00010000001N00000000000000020171210
201711300060000800000000000000193584000000000000001935849900000000000000000000Consumidor Final              000000000068000000000000068000000000000000000000000000000000000000000000000000000000000000000000000000000000000000000000PES00010000001N00000000000000020171210
201711300060000800000000000000193585000000000000001935859900000000000000000000Consumidor Final              000000000078000000000000078000000000000000000000000000000000000000000000000000000000000000000000000000000000000000000000PES00010000001N00000000000000020171210
201711300060000800000000000000193586000000000000001935869900000000000000000000Consumidor Final              000000000068000000000000068000000000000000000000000000000000000000000000000000000000000000000000000000000000000000000000PES00010000001N00000000000000020171210
201711300060000800000000000000193587000000000000001935879900000000000000000000Consumidor Final              000000000068000000000000068000000000000000000000000000000000000000000000000000000000000000000000000000000000000000000000PES00010000001N00000000000000020171210
201711300060000800000000000000193588000000000000001935889900000000000000000000Consumidor Final              000000000068000000000000068000000000000000000000000000000000000000000000000000000000000000000000000000000000000000000000PES00010000001N00000000000000020171210
