201806300060000700000000000000605064000000000000006050649900000000000000000000Consumidor Final              000000000089500000000000089500000000000000000000000000000000000000000000000000000000000000000000000000000000000000000000PES00010000001N00000000000000020180710
201806300060000700000000000000605065000000000000006050659900000000000000000000Consumidor Final              000000000092000000000000092000000000000000000000000000000000000000000000000000000000000000000000000000000000000000000000PES00010000001N00000000000000020180710
201806300060000700000000000000605066000000000000006050669900000000000000000000Consumidor Final              000000000089500000000000089500000000000000000000000000000000000000000000000000000000000000000000000000000000000000000000PES00010000001N00000000000000020180710
201806300060000700000000000000605067000000000000006050679900000000000000000000Consumidor Final              000000000092000000000000092000000000000000000000000000000000000000000000000000000000000000000000000000000000000000000000PES00010000001N00000000000000020180710
201806300060000700000000000000605068000000000000006050689000000000099999999999Consumidor Final              000000000100000000000000100000000000000000000000000000000000000000000000000000000000000000000000000000000000000000000000PES00010000001N00000000000000020180710
201806300060000700000000000000605069000000000000006050699000000000099999999999Consumidor Final              000000000104500000000000104500000000000000000000000000000000000000000000000000000000000000000000000000000000000000000000PES00010000001N00000000000000020180710
201806300060000700000000000000605070000000000000006050709900000000000000000000Consumidor Final              000000000092000000000000092000000000000000000000000000000000000000000000000000000000000000000000000000000000000000000000PES00010000001N00000000000000020180710
201806300060000700000000000000605071000000000000006050719900000000000000000000Consumidor Final              000000000092000000000000092000000000000000000000000000000000000000000000000000000000000000000000000000000000000000000000PES00010000001N00000000000000020180710
201806300060000700000000000000605072000000000000006050729900000000000000000000Consumidor Final              000000000092000000000000092000000000000000000000000000000000000000000000000000000000000000000000000000000000000000000000PES00010000001N00000000000000020180710
201806300060000700000000000000605073000000000000006050739900000000000000000000Consumidor Final              000000000089500000000000089500000000000000000000000000000000000000000000000000000000000000000000000000000000000000000000PES00010000001N00000000000000020180710
201806300060000700000000000000605074000000000000006050749000000000099999999999Consumidor Final              000000000104500000000000104500000000000000000000000000000000000000000000000000000000000000000000000000000000000000000000PES00010000001N00000000000000020180710
201806300060000800000000000000205653000000000000002056539900000000000000000000Consumidor Final              000000000026000000000000026000000000000000000000000000000000000000000000000000000000000000000000000000000000000000000000PES00010000001N00000000000000020180710
201806300060000700000000000000605075000000000000006050759000000000099999999999Consumidor Final              000000000104500000000000104500000000000000000000000000000000000000000000000000000000000000000000000000000000000000000000PES00010000001N00000000000000020180710
201806300060000700000000000000605076000000000000006050769900000000000000000000Consumidor Final              000000000089500000000000089500000000000000000000000000000000000000000000000000000000000000000000000000000000000000000000PES00010000001N00000000000000020180710
201806300060000700000000000000605077000000000000006050779900000000000000000000Consumidor Final              000000000092000000000000092000000000000000000000000000000000000000000000000000000000000000000000000000000000000000000000PES00010000001N00000000000000020180710
201806300060000700000000000000605078000000000000006050789900000000000000000000Consumidor Final              000000000089500000000000089500000000000000000000000000000000000000000000000000000000000000000000000000000000000000000000PES00010000001N00000000000000020180710
201806300060000800000000000000205654000000000000002056549900000000000000000000Consumidor Final              000000000078000000000000078000000000000000000000000000000000000000000000000000000000000000000000000000000000000000000000PES00010000001N00000000000000020180710
201806300060000700000000000000605090000000000000006050909900000000000000000000Consumidor Final              000000000089500000000000089500000000000000000000000000000000000000000000000000000000000000000000000000000000000000000000PES00010000001N00000000000000020180710
201806300060000700000000000000605091000000000000006050919900000000000000000000Consumidor Final              000000000085000000000000085000000000000000000000000000000000000000000000000000000000000000000000000000000000000000000000PES00010000001N00000000000000020180710
201806300060000700000000000000605092000000000000006050929900000000000000000000Consumidor Final              000000000089500000000000089500000000000000000000000000000000000000000000000000000000000000000000000000000000000000000000PES00010000001N00000000000000020180710
201806300060000700000000000000605093000000000000006050939000000000099999999999Consumidor Final              000000000101200000000000101200000000000000000000000000000000000000000000000000000000000000000000000000000000000000000000PES00010000001N00000000000000020180710
201806300060000700000000000000605096000000000000006050969000000000099999999999Consumidor Final              000000000101200000000000101200000000000000000000000000000000000000000000000000000000000000000000000000000000000000000000PES00010000001N00000000000000020180710
201806300060000700000000000000605097000000000000006050979900000000000000000000Consumidor Final              000000000092000000000000092000000000000000000000000000000000000000000000000000000000000000000000000000000000000000000000PES00010000001N00000000000000020180710
201806300060000700000000000000605098000000000000006050989900000000000000000000Consumidor Final              000000000089500000000000089500000000000000000000000000000000000000000000000000000000000000000000000000000000000000000000PES00010000001N00000000000000020180710
201806300060000700000000000000605099000000000000006050999900000000000000000000Consumidor Final              000000000089500000000000089500000000000000000000000000000000000000000000000000000000000000000000000000000000000000000000PES00010000001N00000000000000020180710
201806300060000700000000000000605100000000000000006051009900000000000000000000Consumidor Final              000000000089500000000000089500000000000000000000000000000000000000000000000000000000000000000000000000000000000000000000PES00010000001N00000000000000020180710
201806300060000800000000000000205664000000000000002056649900000000000000000000Consumidor Final              000000000044000000000000044000000000000000000000000000000000000000000000000000000000000000000000000000000000000000000000PES00010000001N00000000000000020180710
201806300060000800000000000000205655000000000000002056559900000000000000000000Consumidor Final              000000000078000000000000078000000000000000000000000000000000000000000000000000000000000000000000000000000000000000000000PES00010000001N00000000000000020180710
201806300060000800000000000000205656000000000000002056569900000000000000000000Consumidor Final              000000000078000000000000078000000000000000000000000000000000000000000000000000000000000000000000000000000000000000000000PES00010000001N00000000000000020180710
201806300060000800000000000000205657000000000000002056579900000000000000000000Consumidor Final              000000000078000000000000078000000000000000000000000000000000000000000000000000000000000000000000000000000000000000000000PES00010000001N00000000000000020180710
201806300060000800000000000000205658000000000000002056589900000000000000000000Consumidor Final              000000000078000000000000078000000000000000000000000000000000000000000000000000000000000000000000000000000000000000000000PES00010000001N00000000000000020180710
201806300060000800000000000000205659000000000000002056599900000000000000000000Consumidor Final              000000000078000000000000078000000000000000000000000000000000000000000000000000000000000000000000000000000000000000000000PES00010000001N00000000000000020180710
201806300060000700000000000000605080000000000000006050809900000000000000000000Consumidor Final              000000000089500000000000089500000000000000000000000000000000000000000000000000000000000000000000000000000000000000000000PES00010000001N00000000000000020180710
201806300060000700000000000000605084000000000000006050849900000000000000000000Consumidor Final              000000000085000000000000085000000000000000000000000000000000000000000000000000000000000000000000000000000000000000000000PES00010000001N00000000000000020180710
201806300060000700000000000000605085000000000000006050859900000000000000000000Consumidor Final              000000000078000000000000078000000000000000000000000000000000000000000000000000000000000000000000000000000000000000000000PES00010000001N00000000000000020180710
201806300060000700000000000000605086000000000000006050869900000000000000000000Consumidor Final              000000000098400000000000098400000000000000000000000000000000000000000000000000000000000000000000000000000000000000000000PES00010000001N00000000000000020180710
201806300060000700000000000000605087000000000000006050879000000000099999999999Consumidor Final              000000000110000000000000110000000000000000000000000000000000000000000000000000000000000000000000000000000000000000000000PES00010000001N00000000000000020180710
201806300060000700000000000000605088000000000000006050889900000000000000000000Consumidor Final              000000000092000000000000092000000000000000000000000000000000000000000000000000000000000000000000000000000000000000000000PES00010000001N00000000000000020180710
201806300060000700000000000000605089000000000000006050899900000000000000000000Consumidor Final              000000000089500000000000089500000000000000000000000000000000000000000000000000000000000000000000000000000000000000000000PES00010000001N00000000000000020180710
201806300060000700000000000000605094000000000000006050949000000000099999999999Consumidor Final              000000000117700000000000117700000000000000000000000000000000000000000000000000000000000000000000000000000000000000000000PES00010000001N00000000000000020180710
201806300060000700000000000000605095000000000000006050959900000000000000000000Consumidor Final              000000000099000000000000099000000000000000000000000000000000000000000000000000000000000000000000000000000000000000000000PES00010000001N00000000000000020180710
201806300060000800000000000000205660000000000000002056609900000000000000000000Consumidor Final              000000000078000000000000078000000000000000000000000000000000000000000000000000000000000000000000000000000000000000000000PES00010000001N00000000000000020180710
201806300060000800000000000000205661000000000000002056619900000000000000000000Consumidor Final              000000000078000000000000078000000000000000000000000000000000000000000000000000000000000000000000000000000000000000000000PES00010000001N00000000000000020180710
201806300060000800000000000000205662000000000000002056629900000000000000000000Consumidor Final              000000000078000000000000078000000000000000000000000000000000000000000000000000000000000000000000000000000000000000000000PES00010000001N00000000000000020180710
201806300060000800000000000000205663000000000000002056639900000000000000000000Consumidor Final              000000000078000000000000078000000000000000000000000000000000000000000000000000000000000000000000000000000000000000000000PES00010000001N00000000000000020180710
201806300060000700000000000000605112000000000000006051129000000000099999999999Consumidor Final              000000000114900000000000114900000000000000000000000000000000000000000000000000000000000000000000000000000000000000000000PES00010000001N00000000000000020180710
201806300060000700000000000000605113000000000000006051139900000000000000000000Consumidor Final              000000000089500000000000089500000000000000000000000000000000000000000000000000000000000000000000000000000000000000000000PES00010000001N00000000000000020180710
201806300060000700000000000000605114000000000000006051149900000000000000000000Consumidor Final              000000000089500000000000089500000000000000000000000000000000000000000000000000000000000000000000000000000000000000000000PES00010000001N00000000000000020180710
201806300060000700000000000000605115000000000000006051159900000000000000000000Consumidor Final              000000000089500000000000089500000000000000000000000000000000000000000000000000000000000000000000000000000000000000000000PES00010000001N00000000000000020180710
201806300060000700000000000000605101000000000000006051019900000000000000000000Consumidor Final              000000000089500000000000089500000000000000000000000000000000000000000000000000000000000000000000000000000000000000000000PES00010000001N00000000000000020180710
201806300060000600000000000000823809000000000000008238099900000000000000000000Consumidor Final              000000000089500000000000089500000000000000000000000000000000000000000000000000000000000000000000000000000000000000000000PES00010000001N00000000000000020180710
201806300060000700000000000000605129000000000000006051299900000000000000000000Consumidor Final              000000000089500000000000089500000000000000000000000000000000000000000000000000000000000000000000000000000000000000000000PES00010000001N00000000000000020180710
201806300060000700000000000000605130000000000000006051309900000000000000000000Consumidor Final              000000000089500000000000089500000000000000000000000000000000000000000000000000000000000000000000000000000000000000000000PES00010000001N00000000000000020180710
201806300060000700000000000000605131000000000000006051319900000000000000000000Consumidor Final              000000000098400000000000098400000000000000000000000000000000000000000000000000000000000000000000000000000000000000000000PES00010000001N00000000000000020180710
201806300060000800000000000000205665000000000000002056659900000000000000000000Consumidor Final              000000000078000000000000078000000000000000000000000000000000000000000000000000000000000000000000000000000000000000000000PES00010000001N00000000000000020180710
201806300060000600000000000000823858000000000000008238589900000000000000000000Consumidor Final              000000000089500000000000089500000000000000000000000000000000000000000000000000000000000000000000000000000000000000000000PES00010000001N00000000000000020180710
201806300060000600000000000000823859000000000000008238599900000000000000000000Consumidor Final              000000000089500000000000089500000000000000000000000000000000000000000000000000000000000000000000000000000000000000000000PES00010000001N00000000000000020180710
201806300060000700000000000000605152000000000000006051529000000000099999999999Consumidor Final              000000000105000000000000105000000000000000000000000000000000000000000000000000000000000000000000000000000000000000000000PES00010000001N00000000000000020180710
201806300060000700000000000000605153000000000000006051539000000000099999999999Consumidor Final              000000000165000000000000165000000000000000000000000000000000000000000000000000000000000000000000000000000000000000000000PES00010000001N00000000000000020180710
201806300060000800000000000000205676000000000000002056769900000000000000000000Consumidor Final              000000000078000000000000078000000000000000000000000000000000000000000000000000000000000000000000000000000000000000000000PES00010000001N00000000000000020180710
201806300060000700000000000000605102000000000000006051029900000000000000000000Consumidor Final              000000000089500000000000089500000000000000000000000000000000000000000000000000000000000000000000000000000000000000000000PES00010000001N00000000000000020180710
201806300060000700000000000000605116000000000000006051169900000000000000000000Consumidor Final              000000000089500000000000089500000000000000000000000000000000000000000000000000000000000000000000000000000000000000000000PES00010000001N00000000000000020180710
201806300060000700000000000000605117000000000000006051179900000000000000000000Consumidor Final              000000000082000000000000082000000000000000000000000000000000000000000000000000000000000000000000000000000000000000000000PES00010000001N00000000000000020180710
201806300060000700000000000000605118000000000000006051189900000000000000000000Consumidor Final              000000000099000000000000099000000000000000000000000000000000000000000000000000000000000000000000000000000000000000000000PES00010000001N00000000000000020180710
201806300060000700000000000000605119000000000000006051199900000000000000000000Consumidor Final              000000000099000000000000099000000000000000000000000000000000000000000000000000000000000000000000000000000000000000000000PES00010000001N00000000000000020180710
201806300060000700000000000000605123000000000000006051239900000000000000000000Consumidor Final              000000000089500000000000089500000000000000000000000000000000000000000000000000000000000000000000000000000000000000000000PES00010000001N00000000000000020180710
201806300060000700000000000000605124000000000000006051249900000000000000000000Consumidor Final              000000000090000000000000090000000000000000000000000000000000000000000000000000000000000000000000000000000000000000000000PES00010000001N00000000000000020180710
201806300060000700000000000000605125000000000000006051259900000000000000000000Consumidor Final              000000000042000000000000042000000000000000000000000000000000000000000000000000000000000000000000000000000000000000000000PES00010000001N00000000000000020180710
201806300060000700000000000000605127000000000000006051279000000000099999999999Consumidor Final              000000000143000000000000143000000000000000000000000000000000000000000000000000000000000000000000000000000000000000000000PES00010000001N00000000000000020180710
201806300060000600000000000000823805000000000000008238059900000000000000000000Consumidor Final              000000000089500000000000089500000000000000000000000000000000000000000000000000000000000000000000000000000000000000000000PES00010000001N00000000000000020180710
201806300060000700000000000000605128000000000000006051289900000000000000000000Consumidor Final              000000000089500000000000089500000000000000000000000000000000000000000000000000000000000000000000000000000000000000000000PES00010000001N00000000000000020180710
201806300060000700000000000000605103000000000000006051039900000000000000000000Consumidor Final              000000000089500000000000089500000000000000000000000000000000000000000000000000000000000000000000000000000000000000000000PES00010000001N00000000000000020180710
201806300060000800000000000000205677000000000000002056779900000000000000000000Consumidor Final              000000000078000000000000078000000000000000000000000000000000000000000000000000000000000000000000000000000000000000000000PES00010000001N00000000000000020180710
201806300060000800000000000000205678000000000000002056789900000000000000000000Consumidor Final              000000000078000000000000078000000000000000000000000000000000000000000000000000000000000000000000000000000000000000000000PES00010000001N00000000000000020180710
201806300060000700000000000000605154000000000000006051549900000000000000000000Consumidor Final              000000000098400000000000098400000000000000000000000000000000000000000000000000000000000000000000000000000000000000000000PES00010000001N00000000000000020180710
201806300060000700000000000000605155000000000000006051559900000000000000000000Consumidor Final              000000000085000000000000085000000000000000000000000000000000000000000000000000000000000000000000000000000000000000000000PES00010000001N00000000000000020180710
201806300060000700000000000000605156000000000000006051569000000000099999999999Consumidor Final              000000000108900000000000108900000000000000000000000000000000000000000000000000000000000000000000000000000000000000000000PES00010000001N00000000000000020180710
201806300060000700000000000000605171000000000000006051719900000000000000000000Consumidor Final              000000000085000000000000085000000000000000000000000000000000000000000000000000000000000000000000000000000000000000000000PES00010000001N00000000000000020180710
201806300060000600000000000000823882000000000000008238829900000000000000000000Consumidor Final              000000000078000000000000078000000000000000000000000000000000000000000000000000000000000000000000000000000000000000000000PES00010000001N00000000000000020180710
201806300060000700000000000000605172000000000000006051729900000000000000000000Consumidor Final              000000000089500000000000089500000000000000000000000000000000000000000000000000000000000000000000000000000000000000000000PES00010000001N00000000000000020180710
201806300060000600000000000000823887000000000000008238879900000000000000000000Consumidor Final              000000000089500000000000089500000000000000000000000000000000000000000000000000000000000000000000000000000000000000000000PES00010000001N00000000000000020180710
201806300060000600000000000000823888000000000000008238889000000000099999999999Consumidor Final              000000000104500000000000104500000000000000000000000000000000000000000000000000000000000000000000000000000000000000000000PES00010000001N00000000000000020180710
201806300060000700000000000000605104000000000000006051049900000000000000000000Consumidor Final              000000000098400000000000098400000000000000000000000000000000000000000000000000000000000000000000000000000000000000000000PES00010000001N00000000000000020180710
201806300060000600000000000000823889000000000000008238899900000000000000000000Consumidor Final              000000000089500000000000089500000000000000000000000000000000000000000000000000000000000000000000000000000000000000000000PES00010000001N00000000000000020180710
201806300060000600000000000000823890000000000000008238909900000000000000000000Consumidor Final              000000000098400000000000098400000000000000000000000000000000000000000000000000000000000000000000000000000000000000000000PES00010000001N00000000000000020180710
201806300060000600000000000000823891000000000000008238919000000000099999999999Consumidor Final              000000000114900000000000114900000000000000000000000000000000000000000000000000000000000000000000000000000000000000000000PES00010000001N00000000000000020180710
201806300060000600000000000000823892000000000000008238929900000000000000000000Consumidor Final              000000000089500000000000089500000000000000000000000000000000000000000000000000000000000000000000000000000000000000000000PES00010000001N00000000000000020180710
201806300060000600000000000000823893000000000000008238939900000000000000000000Consumidor Final              000000000085000000000000085000000000000000000000000000000000000000000000000000000000000000000000000000000000000000000000PES00010000001N00000000000000020180710
201806300060000600000000000000823894000000000000008238949000000000099999999999Consumidor Final              000000000100000000000000100000000000000000000000000000000000000000000000000000000000000000000000000000000000000000000000PES00010000001N00000000000000020180710
201806300060000600000000000000823895000000000000008238959900000000000000000000Consumidor Final              000000000089500000000000089500000000000000000000000000000000000000000000000000000000000000000000000000000000000000000000PES00010000001N00000000000000020180710
201806300060000800000000000000205680000000000000002056809900000000000000000000Consumidor Final              000000000078000000000000078000000000000000000000000000000000000000000000000000000000000000000000000000000000000000000000PES00010000001N00000000000000020180710
201806300060000600000000000000823896000000000000008238969000000000099999999999Consumidor Final              000000000132000000000000132000000000000000000000000000000000000000000000000000000000000000000000000000000000000000000000PES00010000001N00000000000000020180710
201806300060000700000000000000605143000000000000006051439900000000000000000000Consumidor Final              000000000089500000000000089500000000000000000000000000000000000000000000000000000000000000000000000000000000000000000000PES00010000001N00000000000000020180710
201806300060000600000000000000823821000000000000008238219900000000000000000000Consumidor Final              000000000049000000000000049000000000000000000000000000000000000000000000000000000000000000000000000000000000000000000000PES00010000001N00000000000000020180710
201806300060000700000000000000605144000000000000006051449000000000099999999999Consumidor Final              000000000114900000000000114900000000000000000000000000000000000000000000000000000000000000000000000000000000000000000000PES00010000001N00000000000000020180710
201806300060000600000000000000823826000000000000008238269900000000000000000000Consumidor Final              000000000078000000000000078000000000000000000000000000000000000000000000000000000000000000000000000000000000000000000000PES00010000001N00000000000000020180710
201806300060000600000000000000823827000000000000008238279900000000000000000000Consumidor Final              000000000089500000000000089500000000000000000000000000000000000000000000000000000000000000000000000000000000000000000000PES00010000001N00000000000000020180710
201806300060000600000000000000823828000000000000008238289900000000000000000000Consumidor Final              000000000089500000000000089500000000000000000000000000000000000000000000000000000000000000000000000000000000000000000000PES00010000001N00000000000000020180710
201806300060000600000000000000823829000000000000008238299900000000000000000000Consumidor Final              000000000092000000000000092000000000000000000000000000000000000000000000000000000000000000000000000000000000000000000000PES00010000001N00000000000000020180710
201806300060000900000000000000050957000000000000000509579900000000000000000000Consumidor Final              000000000098400000000000098400000000000000000000000000000000000000000000000000000000000000000000000000000000000000000000PES00010000001N00000000000000020180710
201806300060000600000000000000823830000000000000008238309900000000000000000000Consumidor Final              000000000099000000000000099000000000000000000000000000000000000000000000000000000000000000000000000000000000000000000000PES00010000001N00000000000000020180710
201806300060000600000000000000823831000000000000008238319900000000000000000000Consumidor Final              000000000089500000000000089500000000000000000000000000000000000000000000000000000000000000000000000000000000000000000000PES00010000001N00000000000000020180710
201806300060000900000000000000050961000000000000000509619900000000000000000000Consumidor Final              000000000089500000000000089500000000000000000000000000000000000000000000000000000000000000000000000000000000000000000000PES00010000001N00000000000000020180710
201806300060000600000000000000823918000000000000008239189900000000000000000000Consumidor Final              000000000042000000000000042000000000000000000000000000000000000000000000000000000000000000000000000000000000000000000000PES00010000001N00000000000000020180710
201806300060000600000000000000823919000000000000008239199900000000000000000000Consumidor Final              000000000089500000000000089500000000000000000000000000000000000000000000000000000000000000000000000000000000000000000000PES00010000001N00000000000000020180710
201806300060000600000000000000823920000000000000008239209900000000000000000000Consumidor Final              000000000089500000000000089500000000000000000000000000000000000000000000000000000000000000000000000000000000000000000000PES00010000001N00000000000000020180710
201806300060000600000000000000823950000000000000008239509900000000000000000000Consumidor Final              000000000089500000000000089500000000000000000000000000000000000000000000000000000000000000000000000000000000000000000000PES00010000001N00000000000000020180710
201806300060000600000000000000823951000000000000008239519900000000000000000000Consumidor Final              000000000089500000000000089500000000000000000000000000000000000000000000000000000000000000000000000000000000000000000000PES00010000001N00000000000000020180710
201806300060000600000000000000823952000000000000008239529900000000000000000000Consumidor Final              000000000089500000000000089500000000000000000000000000000000000000000000000000000000000000000000000000000000000000000000PES00010000001N00000000000000020180710
201806300060000600000000000000823953000000000000008239539900000000000000000000Consumidor Final              000000000089500000000000089500000000000000000000000000000000000000000000000000000000000000000000000000000000000000000000PES00010000001N00000000000000020180710
201806300060000600000000000000823954000000000000008239549000000000099999999999Consumidor Final              000000000104500000000000104500000000000000000000000000000000000000000000000000000000000000000000000000000000000000000000PES00010000001N00000000000000020180710
201806300060000600000000000000823955000000000000008239559000000000099999999999Consumidor Final              000000000107000000000000107000000000000000000000000000000000000000000000000000000000000000000000000000000000000000000000PES00010000001N00000000000000020180710
201806300060000600000000000000823956000000000000008239569900000000000000000000Consumidor Final              000000000089500000000000089500000000000000000000000000000000000000000000000000000000000000000000000000000000000000000000PES00010000001N00000000000000020180710
201806300060000600000000000000823962000000000000008239629900000000000000000000Consumidor Final              000000000089500000000000089500000000000000000000000000000000000000000000000000000000000000000000000000000000000000000000PES00010000001N00000000000000020180710
201806300060000900000000000000050974000000000000000509749900000000000000000000Consumidor Final              000000000089500000000000089500000000000000000000000000000000000000000000000000000000000000000000000000000000000000000000PES00010000001N00000000000000020180710
201806300060000900000000000000050975000000000000000509759900000000000000000000Consumidor Final              000000000085000000000000085000000000000000000000000000000000000000000000000000000000000000000000000000000000000000000000PES00010000001N00000000000000020180710
201806300060000900000000000000050976000000000000000509769000000000099999999999Consumidor Final              000000000104500000000000104500000000000000000000000000000000000000000000000000000000000000000000000000000000000000000000PES00010000001N00000000000000020180710
201806300060000900000000000000050977000000000000000509779900000000000000000000Consumidor Final              000000000089500000000000089500000000000000000000000000000000000000000000000000000000000000000000000000000000000000000000PES00010000001N00000000000000020180710
201806300060000900000000000000050980000000000000000509809900000000000000000000Consumidor Final              000000000098400000000000098400000000000000000000000000000000000000000000000000000000000000000000000000000000000000000000PES00010000001N00000000000000020180710
201806300060000700000000000000605192000000000000006051929900000000000000000000Consumidor Final              000000000089500000000000089500000000000000000000000000000000000000000000000000000000000000000000000000000000000000000000PES00010000001N00000000000000020180710
201806300060000700000000000000605193000000000000006051939900000000000000000000Consumidor Final              000000000085000000000000085000000000000000000000000000000000000000000000000000000000000000000000000000000000000000000000PES00010000001N00000000000000020180710
201806300060000900000000000000050985000000000000000509859900000000000000000000Consumidor Final              000000000092000000000000092000000000000000000000000000000000000000000000000000000000000000000000000000000000000000000000PES00010000001N00000000000000020180710
201806300060000700000000000000605197000000000000006051978000000000030707046399Consumidor Final              000000000098500000000000098500000000000000000000000000000000000000000000000000000000000000000000000000000000000000000000PES00010000001N00000000000000020180710
201806300060000900000000000000050986000000000000000509869900000000000000000000Consumidor Final              000000000098500000000000098500000000000000000000000000000000000000000000000000000000000000000000000000000000000000000000PES00010000001N00000000000000020180710
201806300060000700000000000000605233000000000000006052339900000000000000000000Consumidor Final              000000000089500000000000089500000000000000000000000000000000000000000000000000000000000000000000000000000000000000000000PES00010000001N00000000000000020180710
201806300060000700000000000000605234000000000000006052349900000000000000000000Consumidor Final              000000000089500000000000089500000000000000000000000000000000000000000000000000000000000000000000000000000000000000000000PES00010000001N00000000000000020180710
201806300060000700000000000000605235000000000000006052359900000000000000000000Consumidor Final              000000000085000000000000085000000000000000000000000000000000000000000000000000000000000000000000000000000000000000000000PES00010000001N00000000000000020180710
201806300060000700000000000000605236000000000000006052369000000000099999999999Consumidor Final              000000000104500000000000104500000000000000000000000000000000000000000000000000000000000000000000000000000000000000000000PES00010000001N00000000000000020180710
201806300060000700000000000000605237000000000000006052379000000000099999999999Consumidor Final              000000000104500000000000104500000000000000000000000000000000000000000000000000000000000000000000000000000000000000000000PES00010000001N00000000000000020180710
201806300060000700000000000000605238000000000000006052389900000000000000000000Consumidor Final              000000000089500000000000089500000000000000000000000000000000000000000000000000000000000000000000000000000000000000000000PES00010000001N00000000000000020180710
201806300060000900000000000000051006000000000000000510069900000000000000000000Consumidor Final              000000000089500000000000089500000000000000000000000000000000000000000000000000000000000000000000000000000000000000000000PES00010000001N00000000000000020180710
201806300060000900000000000000051007000000000000000510079900000000000000000000Consumidor Final              000000000089500000000000089500000000000000000000000000000000000000000000000000000000000000000000000000000000000000000000PES00010000001N00000000000000020180710
201806300060000900000000000000051009000000000000000510099900000000000000000000Consumidor Final              000000000085000000000000085000000000000000000000000000000000000000000000000000000000000000000000000000000000000000000000PES00010000001N00000000000000020180710
201806300060000900000000000000051010000000000000000510109900000000000000000000Consumidor Final              000000000089500000000000089500000000000000000000000000000000000000000000000000000000000000000000000000000000000000000000PES00010000001N00000000000000020180710
201806300060000900000000000000051011000000000000000510119900000000000000000000Consumidor Final              000000000089500000000000089500000000000000000000000000000000000000000000000000000000000000000000000000000000000000000000PES00010000001N00000000000000020180710
201806300060000900000000000000051022000000000000000510229900000000000000000000Consumidor Final              000000000089500000000000089500000000000000000000000000000000000000000000000000000000000000000000000000000000000000000000PES00010000001N00000000000000020180710
201806300060000700000000000000605292000000000000006052929900000000000000000000Consumidor Final              000000000085000000000000085000000000000000000000000000000000000000000000000000000000000000000000000000000000000000000000PES00010000001N00000000000000020180710
201806300060000900000000000000051023000000000000000510239900000000000000000000Consumidor Final              000000000089500000000000089500000000000000000000000000000000000000000000000000000000000000000000000000000000000000000000PES00010000001N00000000000000020180710
201806300060000700000000000000605293000000000000006052939900000000000000000000Consumidor Final              000000000098400000000000098400000000000000000000000000000000000000000000000000000000000000000000000000000000000000000000PES00010000001N00000000000000020180710
201806300060000900000000000000051024000000000000000510249900000000000000000000Consumidor Final              000000000089500000000000089500000000000000000000000000000000000000000000000000000000000000000000000000000000000000000000PES00010000001N00000000000000020180710
201806300060000700000000000000605294000000000000006052949900000000000000000000Consumidor Final              000000000089500000000000089500000000000000000000000000000000000000000000000000000000000000000000000000000000000000000000PES00010000001N00000000000000020180710
201806300060000700000000000000605295000000000000006052959900000000000000000000Consumidor Final              000000000089500000000000089500000000000000000000000000000000000000000000000000000000000000000000000000000000000000000000PES00010000001N00000000000000020180710
201806300060000700000000000000605296000000000000006052969900000000000000000000Consumidor Final              000000000092000000000000092000000000000000000000000000000000000000000000000000000000000000000000000000000000000000000000PES00010000001N00000000000000020180710
201806300060000700000000000000605297000000000000006052979900000000000000000000Consumidor Final              000000000089500000000000089500000000000000000000000000000000000000000000000000000000000000000000000000000000000000000000PES00010000001N00000000000000020180710
201806300060000700000000000000605298000000000000006052989900000000000000000000Consumidor Final              000000000089500000000000089500000000000000000000000000000000000000000000000000000000000000000000000000000000000000000000PES00010000001N00000000000000020180710
201806300060000700000000000000605105000000000000006051059900000000000000000000Consumidor Final              000000000092000000000000092000000000000000000000000000000000000000000000000000000000000000000000000000000000000000000000PES00010000001N00000000000000020180710
201806300060000700000000000000605106000000000000006051069900000000000000000000Consumidor Final              000000000092000000000000092000000000000000000000000000000000000000000000000000000000000000000000000000000000000000000000PES00010000001N00000000000000020180710
201806300060000700000000000000605107000000000000006051079900000000000000000000Consumidor Final              000000000082000000000000082000000000000000000000000000000000000000000000000000000000000000000000000000000000000000000000PES00010000001N00000000000000020180710
201806300060000700000000000000605108000000000000006051089900000000000000000000Consumidor Final              000000000046200000000000046200000000000000000000000000000000000000000000000000000000000000000000000000000000000000000000PES00010000001N00000000000000020180710
201806300060000700000000000000605109000000000000006051099900000000000000000000Consumidor Final              000000000053900000000000053900000000000000000000000000000000000000000000000000000000000000000000000000000000000000000000PES00010000001N00000000000000020180710
201806300060000700000000000000605110000000000000006051109900000000000000000000Consumidor Final              000000000098400000000000098400000000000000000000000000000000000000000000000000000000000000000000000000000000000000000000PES00010000001N00000000000000020180710
201806300060000700000000000000605111000000000000006051119900000000000000000000Consumidor Final              000000000085000000000000085000000000000000000000000000000000000000000000000000000000000000000000000000000000000000000000PES00010000001N00000000000000020180710
201806300060000700000000000000605120000000000000006051209900000000000000000000Consumidor Final              000000000085000000000000085000000000000000000000000000000000000000000000000000000000000000000000000000000000000000000000PES00010000001N00000000000000020180710
201806300060000700000000000000605121000000000000006051219900000000000000000000Consumidor Final              000000000089500000000000089500000000000000000000000000000000000000000000000000000000000000000000000000000000000000000000PES00010000001N00000000000000020180710
201806300060000700000000000000605122000000000000006051229900000000000000000000Consumidor Final              000000000089500000000000089500000000000000000000000000000000000000000000000000000000000000000000000000000000000000000000PES00010000001N00000000000000020180710
201806300060000700000000000000605126000000000000006051269000000000099999999999Consumidor Final              000000000130000000000000130000000000000000000000000000000000000000000000000000000000000000000000000000000000000000000000PES00010000001N00000000000000020180710
201806300060000600000000000000823806000000000000008238069900000000000000000000Consumidor Final              000000000089500000000000089500000000000000000000000000000000000000000000000000000000000000000000000000000000000000000000PES00010000001N00000000000000020180710
201806300060000600000000000000823807000000000000008238079900000000000000000000Consumidor Final              000000000089500000000000089500000000000000000000000000000000000000000000000000000000000000000000000000000000000000000000PES00010000001N00000000000000020180710
201806300060000600000000000000823808000000000000008238089000000000099999999999Consumidor Final              000000000120000000000000120000000000000000000000000000000000000000000000000000000000000000000000000000000000000000000000PES00010000001N00000000000000020180710
201806300060000600000000000000823810000000000000008238109000000000099999999999Consumidor Final              000000000107000000000000107000000000000000000000000000000000000000000000000000000000000000000000000000000000000000000000PES00010000001N00000000000000020180710
201806300060000700000000000000605132000000000000006051329900000000000000000000Consumidor Final              000000000085000000000000085000000000000000000000000000000000000000000000000000000000000000000000000000000000000000000000PES00010000001N00000000000000020180710
201806300060000700000000000000605133000000000000006051339000000000099999999999Consumidor Final              000000000126500000000000126500000000000000000000000000000000000000000000000000000000000000000000000000000000000000000000PES00010000001N00000000000000020180710
201806300060000700000000000000605134000000000000006051349900000000000000000000Consumidor Final              000000000099000000000000099000000000000000000000000000000000000000000000000000000000000000000000000000000000000000000000PES00010000001N00000000000000020180710
201806300060000600000000000000823811000000000000008238119900000000000000000000Consumidor Final              000000000092000000000000092000000000000000000000000000000000000000000000000000000000000000000000000000000000000000000000PES00010000001N00000000000000020180710
201806300060000700000000000000605135000000000000006051359900000000000000000000Consumidor Final              000000000085000000000000085000000000000000000000000000000000000000000000000000000000000000000000000000000000000000000000PES00010000001N00000000000000020180710
201806300060000600000000000000823812000000000000008238129900000000000000000000Consumidor Final              000000000089500000000000089500000000000000000000000000000000000000000000000000000000000000000000000000000000000000000000PES00010000001N00000000000000020180710
201806300060000600000000000000823813000000000000008238139900000000000000000000Consumidor Final              000000000089500000000000089500000000000000000000000000000000000000000000000000000000000000000000000000000000000000000000PES00010000001N00000000000000020180710
201806300060000700000000000000605136000000000000006051369900000000000000000000Consumidor Final              000000000089500000000000089500000000000000000000000000000000000000000000000000000000000000000000000000000000000000000000PES00010000001N00000000000000020180710
201806300060000600000000000000823814000000000000008238149900000000000000000000Consumidor Final              000000000098500000000000098500000000000000000000000000000000000000000000000000000000000000000000000000000000000000000000PES00010000001N00000000000000020180710
201806300060000600000000000000823815000000000000008238159900000000000000000000Consumidor Final              000000000089500000000000089500000000000000000000000000000000000000000000000000000000000000000000000000000000000000000000PES00010000001N00000000000000020180710
201806300060000700000000000000605137000000000000006051379900000000000000000000Consumidor Final              000000000089500000000000089500000000000000000000000000000000000000000000000000000000000000000000000000000000000000000000PES00010000001N00000000000000020180710
201806300060000600000000000000823816000000000000008238169900000000000000000000Consumidor Final              000000000089500000000000089500000000000000000000000000000000000000000000000000000000000000000000000000000000000000000000PES00010000001N00000000000000020180710
201806300060000700000000000000605138000000000000006051389900000000000000000000Consumidor Final              000000000089500000000000089500000000000000000000000000000000000000000000000000000000000000000000000000000000000000000000PES00010000001N00000000000000020180710
201806300060000600000000000000823817000000000000008238179900000000000000000000Consumidor Final              000000000089500000000000089500000000000000000000000000000000000000000000000000000000000000000000000000000000000000000000PES00010000001N00000000000000020180710
201806300060000700000000000000605139000000000000006051399000000000099999999999Consumidor Final              000000000114900000000000114900000000000000000000000000000000000000000000000000000000000000000000000000000000000000000000PES00010000001N00000000000000020180710
201806300060000600000000000000823818000000000000008238189900000000000000000000Consumidor Final              000000000089500000000000089500000000000000000000000000000000000000000000000000000000000000000000000000000000000000000000PES00010000001N00000000000000020180710
201806300060000700000000000000605140000000000000006051409900000000000000000000Consumidor Final              000000000085000000000000085000000000000000000000000000000000000000000000000000000000000000000000000000000000000000000000PES00010000001N00000000000000020180710
201806300060000600000000000000823819000000000000008238199900000000000000000000Consumidor Final              000000000085800000000000085800000000000000000000000000000000000000000000000000000000000000000000000000000000000000000000PES00010000001N00000000000000020180710
201806300060000600000000000000823822000000000000008238229900000000000000000000Consumidor Final              000000000099000000000000099000000000000000000000000000000000000000000000000000000000000000000000000000000000000000000000PES00010000001N00000000000000020180710
201806300060000600000000000000823823000000000000008238239900000000000000000000Consumidor Final              000000000098400000000000098400000000000000000000000000000000000000000000000000000000000000000000000000000000000000000000PES00010000001N00000000000000020180710
201806300060000600000000000000823824000000000000008238249900000000000000000000Consumidor Final              000000000089500000000000089500000000000000000000000000000000000000000000000000000000000000000000000000000000000000000000PES00010000001N00000000000000020180710
201806300060000600000000000000823825000000000000008238259900000000000000000000Consumidor Final              000000000098500000000000098500000000000000000000000000000000000000000000000000000000000000000000000000000000000000000000PES00010000001N00000000000000020180710
201806300060000600000000000000823838000000000000008238389000000000099999999999Consumidor Final              000000000114900000000000114900000000000000000000000000000000000000000000000000000000000000000000000000000000000000000000PES00010000001N00000000000000020180710
201806300060000600000000000000823839000000000000008238399000000000099999999999Consumidor Final              000000000114900000000000114900000000000000000000000000000000000000000000000000000000000000000000000000000000000000000000PES00010000001N00000000000000020180710
201806300060000600000000000000823840000000000000008238409900000000000000000000Consumidor Final              000000000089500000000000089500000000000000000000000000000000000000000000000000000000000000000000000000000000000000000000PES00010000001N00000000000000020180710
201806300060000600000000000000823841000000000000008238419900000000000000000000Consumidor Final              000000000089500000000000089500000000000000000000000000000000000000000000000000000000000000000000000000000000000000000000PES00010000001N00000000000000020180710
201806300060000600000000000000823842000000000000008238429900000000000000000000Consumidor Final              000000000089500000000000089500000000000000000000000000000000000000000000000000000000000000000000000000000000000000000000PES00010000001N00000000000000020180710
201806300060000700000000000000605141000000000000006051419900000000000000000000Consumidor Final              000000000089500000000000089500000000000000000000000000000000000000000000000000000000000000000000000000000000000000000000PES00010000001N00000000000000020180710
201806300060000900000000000000050958000000000000000509589900000000000000000000Consumidor Final              000000000089500000000000089500000000000000000000000000000000000000000000000000000000000000000000000000000000000000000000PES00010000001N00000000000000020180710
201806300060000600000000000000823834000000000000008238349900000000000000000000Consumidor Final              000000000093000000000000093000000000000000000000000000000000000000000000000000000000000000000000000000000000000000000000PES00010000001N00000000000000020180710
201806300060000600000000000000823835000000000000008238359900000000000000000000Consumidor Final              000000000089500000000000089500000000000000000000000000000000000000000000000000000000000000000000000000000000000000000000PES00010000001N00000000000000020180710
201806300060000700000000000000605145000000000000006051459900000000000000000000Consumidor Final              000000000089500000000000089500000000000000000000000000000000000000000000000000000000000000000000000000000000000000000000PES00010000001N00000000000000020180710
201806300060000600000000000000823853000000000000008238539900000000000000000000Consumidor Final              000000000099000000000000099000000000000000000000000000000000000000000000000000000000000000000000000000000000000000000000PES00010000001N00000000000000020180710
201806300060000600000000000000823854000000000000008238549900000000000000000000Consumidor Final              000000000089500000000000089500000000000000000000000000000000000000000000000000000000000000000000000000000000000000000000PES00010000001N00000000000000020180710
201806300060000700000000000000605149000000000000006051499000000000099999999999Consumidor Final              000000000108900000000000108900000000000000000000000000000000000000000000000000000000000000000000000000000000000000000000PES00010000001N00000000000000020180710
201806300060000700000000000000605150000000000000006051509900000000000000000000Consumidor Final              000000000098400000000000098400000000000000000000000000000000000000000000000000000000000000000000000000000000000000000000PES00010000001N00000000000000020180710
201806300060000700000000000000605151000000000000006051519900000000000000000000Consumidor Final              000000000085000000000000085000000000000000000000000000000000000000000000000000000000000000000000000000000000000000000000PES00010000001N00000000000000020180710
201806300060000700000000000000605142000000000000006051429900000000000000000000Consumidor Final              000000000099000000000000099000000000000000000000000000000000000000000000000000000000000000000000000000000000000000000000PES00010000001N00000000000000020180710
201806300060000600000000000000823843000000000000008238439900000000000000000000Consumidor Final              000000000089500000000000089500000000000000000000000000000000000000000000000000000000000000000000000000000000000000000000PES00010000001N00000000000000020180710
201806300060000600000000000000823844000000000000008238449900000000000000000000Consumidor Final              000000000085000000000000085000000000000000000000000000000000000000000000000000000000000000000000000000000000000000000000PES00010000001N00000000000000020180710
201806300060000600000000000000823845000000000000008238459900000000000000000000Consumidor Final              000000000089500000000000089500000000000000000000000000000000000000000000000000000000000000000000000000000000000000000000PES00010000001N00000000000000020180710
201806300060000600000000000000823846000000000000008238469900000000000000000000Consumidor Final              000000000089500000000000089500000000000000000000000000000000000000000000000000000000000000000000000000000000000000000000PES00010000001N00000000000000020180710
201806300060000600000000000000823847000000000000008238479900000000000000000000Consumidor Final              000000000089500000000000089500000000000000000000000000000000000000000000000000000000000000000000000000000000000000000000PES00010000001N00000000000000020180710
201806300060000600000000000000823848000000000000008238489900000000000000000000Consumidor Final              000000000099000000000000099000000000000000000000000000000000000000000000000000000000000000000000000000000000000000000000PES00010000001N00000000000000020180710
201806300060000600000000000000823849000000000000008238499900000000000000000000Consumidor Final              000000000098400000000000098400000000000000000000000000000000000000000000000000000000000000000000000000000000000000000000PES00010000001N00000000000000020180710
201806300060000700000000000000605162000000000000006051629900000000000000000000Consumidor Final              000000000089500000000000089500000000000000000000000000000000000000000000000000000000000000000000000000000000000000000000PES00010000001N00000000000000020180710
201806300060000700000000000000605163000000000000006051639900000000000000000000Consumidor Final              000000000089500000000000089500000000000000000000000000000000000000000000000000000000000000000000000000000000000000000000PES00010000001N00000000000000020180710
201806300060000600000000000000823820000000000000008238209900000000000000000000Consumidor Final              000000000089500000000000089500000000000000000000000000000000000000000000000000000000000000000000000000000000000000000000PES00010000001N00000000000000020180710
201806300060000800000000000000205666000000000000002056669900000000000000000000Consumidor Final              000000000078000000000000078000000000000000000000000000000000000000000000000000000000000000000000000000000000000000000000PES00010000001N00000000000000020180710
201806300060000800000000000000205667000000000000002056679900000000000000000000Consumidor Final              000000000078000000000000078000000000000000000000000000000000000000000000000000000000000000000000000000000000000000000000PES00010000001N00000000000000020180710
201806300060000800000000000000205668000000000000002056689900000000000000000000Consumidor Final              000000000085000000000000085000000000000000000000000000000000000000000000000000000000000000000000000000000000000000000000PES00010000001N00000000000000020180710
201806300060000800000000000000205669000000000000002056699900000000000000000000Consumidor Final              000000000078000000000000078000000000000000000000000000000000000000000000000000000000000000000000000000000000000000000000PES00010000001N00000000000000020180710
201806300060000800000000000000205670000000000000002056709900000000000000000000Consumidor Final              000000000078000000000000078000000000000000000000000000000000000000000000000000000000000000000000000000000000000000000000PES00010000001N00000000000000020180710
201806300060000800000000000000205671000000000000002056719900000000000000000000Consumidor Final              000000000078000000000000078000000000000000000000000000000000000000000000000000000000000000000000000000000000000000000000PES00010000001N00000000000000020180710
201806300060000800000000000000205672000000000000002056729900000000000000000000Consumidor Final              000000000078000000000000078000000000000000000000000000000000000000000000000000000000000000000000000000000000000000000000PES00010000001N00000000000000020180710
201806300060000800000000000000205673000000000000002056739900000000000000000000Consumidor Final              000000000085000000000000085000000000000000000000000000000000000000000000000000000000000000000000000000000000000000000000PES00010000001N00000000000000020180710
201806300060000800000000000000205674000000000000002056749900000000000000000000Consumidor Final              000000000078000000000000078000000000000000000000000000000000000000000000000000000000000000000000000000000000000000000000PES00010000001N00000000000000020180710
201806300060000800000000000000205675000000000000002056759900000000000000000000Consumidor Final              000000000078000000000000078000000000000000000000000000000000000000000000000000000000000000000000000000000000000000000000PES00010000001N00000000000000020180710
201806300060000600000000000000823832000000000000008238329900000000000000000000Consumidor Final              000000000089500000000000089500000000000000000000000000000000000000000000000000000000000000000000000000000000000000000000PES00010000001N00000000000000020180710
201806300060000600000000000000823833000000000000008238339900000000000000000000Consumidor Final              000000000089500000000000089500000000000000000000000000000000000000000000000000000000000000000000000000000000000000000000PES00010000001N00000000000000020180710
201806300060000600000000000000823836000000000000008238369900000000000000000000Consumidor Final              000000000092000000000000092000000000000000000000000000000000000000000000000000000000000000000000000000000000000000000000PES00010000001N00000000000000020180710
201806300060000600000000000000823837000000000000008238379900000000000000000000Consumidor Final              000000000093500000000000093500000000000000000000000000000000000000000000000000000000000000000000000000000000000000000000PES00010000001N00000000000000020180710
201806300060000600000000000000823850000000000000008238509900000000000000000000Consumidor Final              000000000092000000000000092000000000000000000000000000000000000000000000000000000000000000000000000000000000000000000000PES00010000001N00000000000000020180710
201806300060000700000000000000605146000000000000006051469900000000000000000000Consumidor Final              000000000098400000000000098400000000000000000000000000000000000000000000000000000000000000000000000000000000000000000000PES00010000001N00000000000000020180710
201806300060000600000000000000823851000000000000008238519900000000000000000000Consumidor Final              000000000089500000000000089500000000000000000000000000000000000000000000000000000000000000000000000000000000000000000000PES00010000001N00000000000000020180710
201806300060000600000000000000823852000000000000008238529900000000000000000000Consumidor Final              000000000085000000000000085000000000000000000000000000000000000000000000000000000000000000000000000000000000000000000000PES00010000001N00000000000000020180710
201806300060000700000000000000605147000000000000006051479900000000000000000000Consumidor Final              000000000089500000000000089500000000000000000000000000000000000000000000000000000000000000000000000000000000000000000000PES00010000001N00000000000000020180710
201806300060000700000000000000605148000000000000006051489900000000000000000000Consumidor Final              000000000098400000000000098400000000000000000000000000000000000000000000000000000000000000000000000000000000000000000000PES00010000001N00000000000000020180710
201806300060000600000000000000823855000000000000008238559900000000000000000000Consumidor Final              000000000094000000000000094000000000000000000000000000000000000000000000000000000000000000000000000000000000000000000000PES00010000001N00000000000000020180710
201806300060000600000000000000823856000000000000008238569900000000000000000000Consumidor Final              000000000042000000000000042000000000000000000000000000000000000000000000000000000000000000000000000000000000000000000000PES00010000001N00000000000000020180710
201806300060000600000000000000823857000000000000008238579900000000000000000000Consumidor Final              000000000093500000000000093500000000000000000000000000000000000000000000000000000000000000000000000000000000000000000000PES00010000001N00000000000000020180710
201806300060000600000000000000823860000000000000008238609900000000000000000000Consumidor Final              000000000098400000000000098400000000000000000000000000000000000000000000000000000000000000000000000000000000000000000000PES00010000001N00000000000000020180710
201806300060000600000000000000823861000000000000008238619900000000000000000000Consumidor Final              000000000089500000000000089500000000000000000000000000000000000000000000000000000000000000000000000000000000000000000000PES00010000001N00000000000000020180710
201806300060000600000000000000823862000000000000008238629000000000099999999999Consumidor Final              000000000104500000000000104500000000000000000000000000000000000000000000000000000000000000000000000000000000000000000000PES00010000001N00000000000000020180710
201806300060000700000000000000605157000000000000006051579900000000000000000000Consumidor Final              000000000089500000000000089500000000000000000000000000000000000000000000000000000000000000000000000000000000000000000000PES00010000001N00000000000000020180710
201806300060000600000000000000823863000000000000008238639900000000000000000000Consumidor Final              000000000089500000000000089500000000000000000000000000000000000000000000000000000000000000000000000000000000000000000000PES00010000001N00000000000000020180710
201806300060000700000000000000605158000000000000006051589900000000000000000000Consumidor Final              000000000057000000000000057000000000000000000000000000000000000000000000000000000000000000000000000000000000000000000000PES00010000001N00000000000000020180710
201806300060000600000000000000823864000000000000008238649900000000000000000000Consumidor Final              000000000098400000000000098400000000000000000000000000000000000000000000000000000000000000000000000000000000000000000000PES00010000001N00000000000000020180710
201806300060000600000000000000823865000000000000008238659900000000000000000000Consumidor Final              000000000089500000000000089500000000000000000000000000000000000000000000000000000000000000000000000000000000000000000000PES00010000001N00000000000000020180710
201806300060000600000000000000823866000000000000008238669900000000000000000000Consumidor Final              000000000089500000000000089500000000000000000000000000000000000000000000000000000000000000000000000000000000000000000000PES00010000001N00000000000000020180710
201806300060000600000000000000823869000000000000008238699900000000000000000000Consumidor Final              000000000093500000000000093500000000000000000000000000000000000000000000000000000000000000000000000000000000000000000000PES00010000001N00000000000000020180710
201806300060000600000000000000823870000000000000008238709000000000099999999999Consumidor Final              000000000104500000000000104500000000000000000000000000000000000000000000000000000000000000000000000000000000000000000000PES00010000001N00000000000000020180710
201806300060000600000000000000823871000000000000008238719900000000000000000000Consumidor Final              000000000085000000000000085000000000000000000000000000000000000000000000000000000000000000000000000000000000000000000000PES00010000001N00000000000000020180710
201806300060000600000000000000823872000000000000008238729900000000000000000000Consumidor Final              000000000089500000000000089500000000000000000000000000000000000000000000000000000000000000000000000000000000000000000000PES00010000001N00000000000000020180710
201806300060000600000000000000823873000000000000008238739900000000000000000000Consumidor Final              000000000099000000000000099000000000000000000000000000000000000000000000000000000000000000000000000000000000000000000000PES00010000001N00000000000000020180710
201806300060000800000000000000205679000000000000002056799900000000000000000000Consumidor Final              000000000078000000000000078000000000000000000000000000000000000000000000000000000000000000000000000000000000000000000000PES00010000001N00000000000000020180710
201806300060000600000000000000823874000000000000008238749900000000000000000000Consumidor Final              000000000089500000000000089500000000000000000000000000000000000000000000000000000000000000000000000000000000000000000000PES00010000001N00000000000000020180710
201806300060000600000000000000823875000000000000008238759900000000000000000000Consumidor Final              000000000089500000000000089500000000000000000000000000000000000000000000000000000000000000000000000000000000000000000000PES00010000001N00000000000000020180710
201806300060000600000000000000823876000000000000008238769000000000099999999999Consumidor Final              000000000124300000000000124300000000000000000000000000000000000000000000000000000000000000000000000000000000000000000000PES00010000001N00000000000000020180710
201806300060000700000000000000605159000000000000006051599000000000099999999999Consumidor Final              000000000100000000000000100000000000000000000000000000000000000000000000000000000000000000000000000000000000000000000000PES00010000001N00000000000000020180710
201806300060000700000000000000605164000000000000006051649000000000099999999999Consumidor Final              000000000108000000000000108000000000000000000000000000000000000000000000000000000000000000000000000000000000000000000000PES00010000001N00000000000000020180710
201806300060000600000000000000823877000000000000008238779900000000000000000000Consumidor Final              000000000089500000000000089500000000000000000000000000000000000000000000000000000000000000000000000000000000000000000000PES00010000001N00000000000000020180710
201806300060000600000000000000823878000000000000008238789900000000000000000000Consumidor Final              000000000098400000000000098400000000000000000000000000000000000000000000000000000000000000000000000000000000000000000000PES00010000001N00000000000000020180710
201806300060000700000000000000605168000000000000006051689900000000000000000000Consumidor Final              000000000085000000000000085000000000000000000000000000000000000000000000000000000000000000000000000000000000000000000000PES00010000001N00000000000000020180710
201806300060000600000000000000823879000000000000008238799900000000000000000000Consumidor Final              000000000098400000000000098400000000000000000000000000000000000000000000000000000000000000000000000000000000000000000000PES00010000001N00000000000000020180710
201806300060000700000000000000605169000000000000006051699900000000000000000000Consumidor Final              000000000089500000000000089500000000000000000000000000000000000000000000000000000000000000000000000000000000000000000000PES00010000001N00000000000000020180710
201806300060000700000000000000605170000000000000006051709900000000000000000000Consumidor Final              000000000098400000000000098400000000000000000000000000000000000000000000000000000000000000000000000000000000000000000000PES00010000001N00000000000000020180710
201806300060000600000000000000823880000000000000008238809900000000000000000000Consumidor Final              000000000098400000000000098400000000000000000000000000000000000000000000000000000000000000000000000000000000000000000000PES00010000001N00000000000000020180710
201806300060000600000000000000823881000000000000008238819900000000000000000000Consumidor Final              000000000085000000000000085000000000000000000000000000000000000000000000000000000000000000000000000000000000000000000000PES00010000001N00000000000000020180710
201806300060000700000000000000605160000000000000006051609900000000000000000000Consumidor Final              000000000089500000000000089500000000000000000000000000000000000000000000000000000000000000000000000000000000000000000000PES00010000001N00000000000000020180710
201806300060000600000000000000823867000000000000008238679900000000000000000000Consumidor Final              000000000090000000000000090000000000000000000000000000000000000000000000000000000000000000000000000000000000000000000000PES00010000001N00000000000000020180710
201806300060000600000000000000823868000000000000008238689900000000000000000000Consumidor Final              000000000089500000000000089500000000000000000000000000000000000000000000000000000000000000000000000000000000000000000000PES00010000001N00000000000000020180710
201806300060000700000000000000605161000000000000006051619000000000099999999999Consumidor Final              000000000101000000000000101000000000000000000000000000000000000000000000000000000000000000000000000000000000000000000000PES00010000001N00000000000000020180710
201806300060000700000000000000605165000000000000006051659900000000000000000000Consumidor Final              000000000089500000000000089500000000000000000000000000000000000000000000000000000000000000000000000000000000000000000000PES00010000001N00000000000000020180710
201806300060000700000000000000605166000000000000006051669900000000000000000000Consumidor Final              000000000098400000000000098400000000000000000000000000000000000000000000000000000000000000000000000000000000000000000000PES00010000001N00000000000000020180710
201806300060000700000000000000605167000000000000006051679000000000099999999999Consumidor Final              000000000114900000000000114900000000000000000000000000000000000000000000000000000000000000000000000000000000000000000000PES00010000001N00000000000000020180710
201806300060000600000000000000823883000000000000008238839000000000099999999999Consumidor Final              000000000104500000000000104500000000000000000000000000000000000000000000000000000000000000000000000000000000000000000000PES00010000001N00000000000000020180710
201806300060000600000000000000823884000000000000008238849900000000000000000000Consumidor Final              000000000085000000000000085000000000000000000000000000000000000000000000000000000000000000000000000000000000000000000000PES00010000001N00000000000000020180710
201806300060000600000000000000823885000000000000008238859900000000000000000000Consumidor Final              000000000085000000000000085000000000000000000000000000000000000000000000000000000000000000000000000000000000000000000000PES00010000001N00000000000000020180710
201806300060000600000000000000823886000000000000008238869900000000000000000000Consumidor Final              000000000085000000000000085000000000000000000000000000000000000000000000000000000000000000000000000000000000000000000000PES00010000001N00000000000000020180710
201806300060000900000000000000050959000000000000000509599900000000000000000000Consumidor Final              000000000089500000000000089500000000000000000000000000000000000000000000000000000000000000000000000000000000000000000000PES00010000001N00000000000000020180710
201806300060000900000000000000050960000000000000000509609000000000099999999999Consumidor Final              000000000110000000000000110000000000000000000000000000000000000000000000000000000000000000000000000000000000000000000000PES00010000001N00000000000000020180710
201806300060000600000000000000823911000000000000008239119900000000000000000000Consumidor Final              000000000089500000000000089500000000000000000000000000000000000000000000000000000000000000000000000000000000000000000000PES00010000001N00000000000000020180710
201806300060000600000000000000823912000000000000008239129900000000000000000000Consumidor Final              000000000089500000000000089500000000000000000000000000000000000000000000000000000000000000000000000000000000000000000000PES00010000001N00000000000000020180710
201806300060000600000000000000823913000000000000008239139900000000000000000000Consumidor Final              000000000089500000000000089500000000000000000000000000000000000000000000000000000000000000000000000000000000000000000000PES00010000001N00000000000000020180710
201806300060000600000000000000823914000000000000008239149900000000000000000000Consumidor Final              000000000089500000000000089500000000000000000000000000000000000000000000000000000000000000000000000000000000000000000000PES00010000001N00000000000000020180710
201806300060000600000000000000823915000000000000008239159900000000000000000000Consumidor Final              000000000089500000000000089500000000000000000000000000000000000000000000000000000000000000000000000000000000000000000000PES00010000001N00000000000000020180710
201806300060000600000000000000823916000000000000008239169900000000000000000000Consumidor Final              000000000089500000000000089500000000000000000000000000000000000000000000000000000000000000000000000000000000000000000000PES00010000001N00000000000000020180710
201806300060000600000000000000823917000000000000008239179900000000000000000000Consumidor Final              000000000089500000000000089500000000000000000000000000000000000000000000000000000000000000000000000000000000000000000000PES00010000001N00000000000000020180710
201806300060000600000000000000823897000000000000008238979900000000000000000000Consumidor Final              000000000089500000000000089500000000000000000000000000000000000000000000000000000000000000000000000000000000000000000000PES00010000001N00000000000000020180710
201806300060000600000000000000823898000000000000008238989900000000000000000000Consumidor Final              000000000089500000000000089500000000000000000000000000000000000000000000000000000000000000000000000000000000000000000000PES00010000001N00000000000000020180710
201806300060000600000000000000823899000000000000008238999900000000000000000000Consumidor Final              000000000089500000000000089500000000000000000000000000000000000000000000000000000000000000000000000000000000000000000000PES00010000001N00000000000000020180710
201806300060000600000000000000823900000000000000008239009900000000000000000000Consumidor Final              000000000089500000000000089500000000000000000000000000000000000000000000000000000000000000000000000000000000000000000000PES00010000001N00000000000000020180710
201806300060000600000000000000823901000000000000008239019900000000000000000000Consumidor Final              000000000089500000000000089500000000000000000000000000000000000000000000000000000000000000000000000000000000000000000000PES00010000001N00000000000000020180710
201806300060000600000000000000823902000000000000008239029900000000000000000000Consumidor Final              000000000089500000000000089500000000000000000000000000000000000000000000000000000000000000000000000000000000000000000000PES00010000001N00000000000000020180710
201806300060000900000000000000050962000000000000000509629900000000000000000000Consumidor Final              000000000092000000000000092000000000000000000000000000000000000000000000000000000000000000000000000000000000000000000000PES00010000001N00000000000000020180710
201806300060000900000000000000050963000000000000000509639900000000000000000000Consumidor Final              000000000092000000000000092000000000000000000000000000000000000000000000000000000000000000000000000000000000000000000000PES00010000001N00000000000000020180710
201806300060000900000000000000050964000000000000000509649000000000099999999999Consumidor Final              000000000165000000000000165000000000000000000000000000000000000000000000000000000000000000000000000000000000000000000000PES00010000001N00000000000000020180710
201806300060000600000000000000823908000000000000008239089900000000000000000000Consumidor Final              000000000089500000000000089500000000000000000000000000000000000000000000000000000000000000000000000000000000000000000000PES00010000001N00000000000000020180710
201806300060000600000000000000823909000000000000008239099900000000000000000000Consumidor Final              000000000089500000000000089500000000000000000000000000000000000000000000000000000000000000000000000000000000000000000000PES00010000001N00000000000000020180710
201806300060000600000000000000823903000000000000008239039000000000099999999999Consumidor Final              000000000135000000000000135000000000000000000000000000000000000000000000000000000000000000000000000000000000000000000000PES00010000001N00000000000000020180710
201806300060000600000000000000823904000000000000008239049900000000000000000000Consumidor Final              000000000089500000000000089500000000000000000000000000000000000000000000000000000000000000000000000000000000000000000000PES00010000001N00000000000000020180710
201806300060000600000000000000823905000000000000008239059900000000000000000000Consumidor Final              000000000089500000000000089500000000000000000000000000000000000000000000000000000000000000000000000000000000000000000000PES00010000001N00000000000000020180710
201806300060000600000000000000823906000000000000008239069000000000099999999999Consumidor Final              000000000113500000000000113500000000000000000000000000000000000000000000000000000000000000000000000000000000000000000000PES00010000001N00000000000000020180710
201806300060000600000000000000823907000000000000008239079900000000000000000000Consumidor Final              000000000089500000000000089500000000000000000000000000000000000000000000000000000000000000000000000000000000000000000000PES00010000001N00000000000000020180710
201806300060000600000000000000823910000000000000008239109000000000099999999999Consumidor Final              000000000104500000000000104500000000000000000000000000000000000000000000000000000000000000000000000000000000000000000000PES00010000001N00000000000000020180710
201806300060000800000000000000205681000000000000002056819900000000000000000000Consumidor Final              000000000078000000000000078000000000000000000000000000000000000000000000000000000000000000000000000000000000000000000000PES00010000001N00000000000000020180710
201806300060000600000000000000823921000000000000008239219000000000099999999999Consumidor Final              000000000640000000000000640000000000000000000000000000000000000000000000000000000000000000000000000000000000000000000000PES00010000001N00000000000000020180710
201806300060000800000000000000205682000000000000002056829900000000000000000000Consumidor Final              000000000078000000000000078000000000000000000000000000000000000000000000000000000000000000000000000000000000000000000000PES00010000001N00000000000000020180710
201806300060000600000000000000823922000000000000008239229900000000000000000000Consumidor Final              000000000089500000000000089500000000000000000000000000000000000000000000000000000000000000000000000000000000000000000000PES00010000001N00000000000000020180710
201806300060000800000000000000205683000000000000002056839900000000000000000000Consumidor Final              000000000078000000000000078000000000000000000000000000000000000000000000000000000000000000000000000000000000000000000000PES00010000001N00000000000000020180710
201806300060000600000000000000823923000000000000008239239900000000000000000000Consumidor Final              000000000089500000000000089500000000000000000000000000000000000000000000000000000000000000000000000000000000000000000000PES00010000001N00000000000000020180710
201806300060000600000000000000823957000000000000008239579900000000000000000000Consumidor Final              000000000089500000000000089500000000000000000000000000000000000000000000000000000000000000000000000000000000000000000000PES00010000001N00000000000000020180710
201806300060000600000000000000823958000000000000008239589900000000000000000000Consumidor Final              000000000093500000000000093500000000000000000000000000000000000000000000000000000000000000000000000000000000000000000000PES00010000001N00000000000000020180710
201806300060000600000000000000823959000000000000008239599900000000000000000000Consumidor Final              000000000089500000000000089500000000000000000000000000000000000000000000000000000000000000000000000000000000000000000000PES00010000001N00000000000000020180710
201806300060000600000000000000823960000000000000008239609900000000000000000000Consumidor Final              000000000044000000000000044000000000000000000000000000000000000000000000000000000000000000000000000000000000000000000000PES00010000001N00000000000000020180710
201806300060000900000000000000050972000000000000000509729900000000000000000000Consumidor Final              000000000089500000000000089500000000000000000000000000000000000000000000000000000000000000000000000000000000000000000000PES00010000001N00000000000000020180710
201806300060000900000000000000050973000000000000000509739900000000000000000000Consumidor Final              000000000089500000000000089500000000000000000000000000000000000000000000000000000000000000000000000000000000000000000000PES00010000001N00000000000000020180710
201806300060000900000000000000050978000000000000000509789900000000000000000000Consumidor Final              000000000085000000000000085000000000000000000000000000000000000000000000000000000000000000000000000000000000000000000000PES00010000001N00000000000000020180710
201806300060000700000000000000605186000000000000006051869900000000000000000000Consumidor Final              000000000085000000000000085000000000000000000000000000000000000000000000000000000000000000000000000000000000000000000000PES00010000001N00000000000000020180710
201806300060000700000000000000605187000000000000006051879900000000000000000000Consumidor Final              000000000085000000000000085000000000000000000000000000000000000000000000000000000000000000000000000000000000000000000000PES00010000001N00000000000000020180710
201806300060000800000000000000205684000000000000002056849900000000000000000000Consumidor Final              000000000078000000000000078000000000000000000000000000000000000000000000000000000000000000000000000000000000000000000000PES00010000001N00000000000000020180710
201806300060000600000000000000823924000000000000008239249900000000000000000000Consumidor Final              000000000089500000000000089500000000000000000000000000000000000000000000000000000000000000000000000000000000000000000000PES00010000001N00000000000000020180710
201806300060000600000000000000823925000000000000008239259900000000000000000000Consumidor Final              000000000089500000000000089500000000000000000000000000000000000000000000000000000000000000000000000000000000000000000000PES00010000001N00000000000000020180710
201806300060000600000000000000823926000000000000008239269900000000000000000000Consumidor Final              000000000089500000000000089500000000000000000000000000000000000000000000000000000000000000000000000000000000000000000000PES00010000001N00000000000000020180710
201806300060000600000000000000823927000000000000008239279900000000000000000000Consumidor Final              000000000089500000000000089500000000000000000000000000000000000000000000000000000000000000000000000000000000000000000000PES00010000001N00000000000000020180710
201806300060000600000000000000823928000000000000008239289900000000000000000000Consumidor Final              000000000085000000000000085000000000000000000000000000000000000000000000000000000000000000000000000000000000000000000000PES00010000001N00000000000000020180710
201806300060000600000000000000823929000000000000008239299900000000000000000000Consumidor Final              000000000089500000000000089500000000000000000000000000000000000000000000000000000000000000000000000000000000000000000000PES00010000001N00000000000000020180710
201806300060000600000000000000823930000000000000008239309900000000000000000000Consumidor Final              000000000089500000000000089500000000000000000000000000000000000000000000000000000000000000000000000000000000000000000000PES00010000001N00000000000000020180710
201806300060000600000000000000823931000000000000008239319900000000000000000000Consumidor Final              000000000089500000000000089500000000000000000000000000000000000000000000000000000000000000000000000000000000000000000000PES00010000001N00000000000000020180710
201806300060000600000000000000823932000000000000008239329900000000000000000000Consumidor Final              000000000092000000000000092000000000000000000000000000000000000000000000000000000000000000000000000000000000000000000000PES00010000001N00000000000000020180710
201806300060000600000000000000823933000000000000008239339900000000000000000000Consumidor Final              000000000089500000000000089500000000000000000000000000000000000000000000000000000000000000000000000000000000000000000000PES00010000001N00000000000000020180710
201806300060000600000000000000823934000000000000008239349900000000000000000000Consumidor Final              000000000089500000000000089500000000000000000000000000000000000000000000000000000000000000000000000000000000000000000000PES00010000001N00000000000000020180710
201806300060000600000000000000823935000000000000008239359900000000000000000000Consumidor Final              000000000089500000000000089500000000000000000000000000000000000000000000000000000000000000000000000000000000000000000000PES00010000001N00000000000000020180710
201806300060000600000000000000823936000000000000008239369900000000000000000000Consumidor Final              000000000089500000000000089500000000000000000000000000000000000000000000000000000000000000000000000000000000000000000000PES00010000001N00000000000000020180710
201806300060000600000000000000823937000000000000008239379000000000099999999999Consumidor Final              000000000145000000000000145000000000000000000000000000000000000000000000000000000000000000000000000000000000000000000000PES00010000001N00000000000000020180710
201806300060000600000000000000823938000000000000008239389900000000000000000000Consumidor Final              000000000089500000000000089500000000000000000000000000000000000000000000000000000000000000000000000000000000000000000000PES00010000001N00000000000000020180710
201806300060000900000000000000050965000000000000000509659000000000099999999999Consumidor Final              000000000130000000000000130000000000000000000000000000000000000000000000000000000000000000000000000000000000000000000000PES00010000001N00000000000000020180710
201806300060000600000000000000823939000000000000008239399900000000000000000000Consumidor Final              000000000089500000000000089500000000000000000000000000000000000000000000000000000000000000000000000000000000000000000000PES00010000001N00000000000000020180710
201806300060000600000000000000823940000000000000008239409000000000099999999999Consumidor Final              000000000104500000000000104500000000000000000000000000000000000000000000000000000000000000000000000000000000000000000000PES00010000001N00000000000000020180710
201806300060000600000000000000823941000000000000008239419900000000000000000000Consumidor Final              000000000089500000000000089500000000000000000000000000000000000000000000000000000000000000000000000000000000000000000000PES00010000001N00000000000000020180710
201806300060000600000000000000823942000000000000008239429000000000099999999999Consumidor Final              000000000145000000000000145000000000000000000000000000000000000000000000000000000000000000000000000000000000000000000000PES00010000001N00000000000000020180710
201806300060000600000000000000823943000000000000008239439000000000099999999999Consumidor Final              000000000104500000000000104500000000000000000000000000000000000000000000000000000000000000000000000000000000000000000000PES00010000001N00000000000000020180710
201806300060000600000000000000823944000000000000008239449900000000000000000000Consumidor Final              000000000089500000000000089500000000000000000000000000000000000000000000000000000000000000000000000000000000000000000000PES00010000001N00000000000000020180710
201806300060000600000000000000823945000000000000008239459000000000099999999999Consumidor Final              000000000104500000000000104500000000000000000000000000000000000000000000000000000000000000000000000000000000000000000000PES00010000001N00000000000000020180710
201806300060000600000000000000823946000000000000008239469000000000099999999999Consumidor Final              000000000104500000000000104500000000000000000000000000000000000000000000000000000000000000000000000000000000000000000000PES00010000001N00000000000000020180710
201806300060000600000000000000823947000000000000008239479900000000000000000000Consumidor Final              000000000089500000000000089500000000000000000000000000000000000000000000000000000000000000000000000000000000000000000000PES00010000001N00000000000000020180710
201806300060000600000000000000823948000000000000008239489900000000000000000000Consumidor Final              000000000089500000000000089500000000000000000000000000000000000000000000000000000000000000000000000000000000000000000000PES00010000001N00000000000000020180710
201806300060000600000000000000823949000000000000008239499900000000000000000000Consumidor Final              000000000089500000000000089500000000000000000000000000000000000000000000000000000000000000000000000000000000000000000000PES00010000001N00000000000000020180710
201806300060000900000000000000050966000000000000000509669900000000000000000000Consumidor Final              000000000089500000000000089500000000000000000000000000000000000000000000000000000000000000000000000000000000000000000000PES00010000001N00000000000000020180710
201806300060000900000000000000050967000000000000000509679900000000000000000000Consumidor Final              000000000089500000000000089500000000000000000000000000000000000000000000000000000000000000000000000000000000000000000000PES00010000001N00000000000000020180710
201806300060000700000000000000605173000000000000006051739900000000000000000000Consumidor Final              000000000089500000000000089500000000000000000000000000000000000000000000000000000000000000000000000000000000000000000000PES00010000001N00000000000000020180710
201806300060000700000000000000605174000000000000006051749900000000000000000000Consumidor Final              000000000089500000000000089500000000000000000000000000000000000000000000000000000000000000000000000000000000000000000000PES00010000001N00000000000000020180710
201806300060000900000000000000050968000000000000000509689900000000000000000000Consumidor Final              000000000098500000000000098500000000000000000000000000000000000000000000000000000000000000000000000000000000000000000000PES00010000001N00000000000000020180710
201806300060000700000000000000605175000000000000006051759900000000000000000000Consumidor Final              000000000089500000000000089500000000000000000000000000000000000000000000000000000000000000000000000000000000000000000000PES00010000001N00000000000000020180710
201806300060000700000000000000605176000000000000006051769900000000000000000000Consumidor Final              000000000089500000000000089500000000000000000000000000000000000000000000000000000000000000000000000000000000000000000000PES00010000001N00000000000000020180710
201806300060000700000000000000605177000000000000006051779900000000000000000000Consumidor Final              000000000089500000000000089500000000000000000000000000000000000000000000000000000000000000000000000000000000000000000000PES00010000001N00000000000000020180710
201806300060000700000000000000605178000000000000006051789900000000000000000000Consumidor Final              000000000089500000000000089500000000000000000000000000000000000000000000000000000000000000000000000000000000000000000000PES00010000001N00000000000000020180710
201806300060000800000000000000205685000000000000002056859900000000000000000000Consumidor Final              000000000085000000000000085000000000000000000000000000000000000000000000000000000000000000000000000000000000000000000000PES00010000001N00000000000000020180710
201806300060000800000000000000205686000000000000002056869900000000000000000000Consumidor Final              000000000078000000000000078000000000000000000000000000000000000000000000000000000000000000000000000000000000000000000000PES00010000001N00000000000000020180710
201806300060000800000000000000205687000000000000002056879900000000000000000000Consumidor Final              000000000078000000000000078000000000000000000000000000000000000000000000000000000000000000000000000000000000000000000000PES00010000001N00000000000000020180710
201806300060000900000000000000050969000000000000000509699900000000000000000000Consumidor Final              000000000089500000000000089500000000000000000000000000000000000000000000000000000000000000000000000000000000000000000000PES00010000001N00000000000000020180710
201806300060000900000000000000050970000000000000000509709900000000000000000000Consumidor Final              000000000089500000000000089500000000000000000000000000000000000000000000000000000000000000000000000000000000000000000000PES00010000001N00000000000000020180710
201806300060000600000000000000823961000000000000008239619900000000000000000000Consumidor Final              000000000089500000000000089500000000000000000000000000000000000000000000000000000000000000000000000000000000000000000000PES00010000001N00000000000000020180710
201806300060000900000000000000050971000000000000000509719900000000000000000000Consumidor Final              000000000089500000000000089500000000000000000000000000000000000000000000000000000000000000000000000000000000000000000000PES00010000001N00000000000000020180710
201806300060000700000000000000605179000000000000006051799900000000000000000000Consumidor Final              000000000089500000000000089500000000000000000000000000000000000000000000000000000000000000000000000000000000000000000000PES00010000001N00000000000000020180710
201806300060000700000000000000605180000000000000006051809900000000000000000000Consumidor Final              000000000089500000000000089500000000000000000000000000000000000000000000000000000000000000000000000000000000000000000000PES00010000001N00000000000000020180710
201806300060000700000000000000605181000000000000006051819900000000000000000000Consumidor Final              000000000090000000000000090000000000000000000000000000000000000000000000000000000000000000000000000000000000000000000000PES00010000001N00000000000000020180710
201806300060000700000000000000605182000000000000006051829900000000000000000000Consumidor Final              000000000089500000000000089500000000000000000000000000000000000000000000000000000000000000000000000000000000000000000000PES00010000001N00000000000000020180710
201806300060000700000000000000605183000000000000006051839000000000099999999999Consumidor Final              000000000125500000000000125500000000000000000000000000000000000000000000000000000000000000000000000000000000000000000000PES00010000001N00000000000000020180710
201806300060000700000000000000605184000000000000006051849900000000000000000000Consumidor Final              000000000078000000000000078000000000000000000000000000000000000000000000000000000000000000000000000000000000000000000000PES00010000001N00000000000000020180710
201806300060000700000000000000605185000000000000006051859900000000000000000000Consumidor Final              000000000089500000000000089500000000000000000000000000000000000000000000000000000000000000000000000000000000000000000000PES00010000001N00000000000000020180710
201806300060000700000000000000605188000000000000006051889900000000000000000000Consumidor Final              000000000089500000000000089500000000000000000000000000000000000000000000000000000000000000000000000000000000000000000000PES00010000001N00000000000000020180710
201806300060000700000000000000605189000000000000006051899900000000000000000000Consumidor Final              000000000089500000000000089500000000000000000000000000000000000000000000000000000000000000000000000000000000000000000000PES00010000001N00000000000000020180710
201806300060000700000000000000605190000000000000006051909900000000000000000000Consumidor Final              000000000089500000000000089500000000000000000000000000000000000000000000000000000000000000000000000000000000000000000000PES00010000001N00000000000000020180710
201806300060000600000000000000823963000000000000008239639900000000000000000000Consumidor Final              000000000089500000000000089500000000000000000000000000000000000000000000000000000000000000000000000000000000000000000000PES00010000001N00000000000000020180710
201806300060000600000000000000823964000000000000008239649900000000000000000000Consumidor Final              000000000089500000000000089500000000000000000000000000000000000000000000000000000000000000000000000000000000000000000000PES00010000001N00000000000000020180710
201806300060000600000000000000823965000000000000008239659000000000099999999999Consumidor Final              000000000104500000000000104500000000000000000000000000000000000000000000000000000000000000000000000000000000000000000000PES00010000001N00000000000000020180710
201806300060000600000000000000823966000000000000008239669900000000000000000000Consumidor Final              000000000089500000000000089500000000000000000000000000000000000000000000000000000000000000000000000000000000000000000000PES00010000001N00000000000000020180710
201806300060000600000000000000823967000000000000008239679900000000000000000000Consumidor Final              000000000089500000000000089500000000000000000000000000000000000000000000000000000000000000000000000000000000000000000000PES00010000001N00000000000000020180710
201806300060000600000000000000823968000000000000008239689900000000000000000000Consumidor Final              000000000089500000000000089500000000000000000000000000000000000000000000000000000000000000000000000000000000000000000000PES00010000001N00000000000000020180710
201806300060000900000000000000050979000000000000000509799900000000000000000000Consumidor Final              000000000089500000000000089500000000000000000000000000000000000000000000000000000000000000000000000000000000000000000000PES00010000001N00000000000000020180710
201806300060000900000000000000050995000000000000000509959900000000000000000000Consumidor Final              000000000089500000000000089500000000000000000000000000000000000000000000000000000000000000000000000000000000000000000000PES00010000001N00000000000000020180710
201806300060000900000000000000050996000000000000000509969900000000000000000000Consumidor Final              000000000085000000000000085000000000000000000000000000000000000000000000000000000000000000000000000000000000000000000000PES00010000001N00000000000000020180710
