201805310060000800000000000000204162000000000000002041629900000000000000000000Consumidor Final              000000000078000000000000078000000000000000000000000000000000000000000000000000000000000000000000000000000000000000000000PES00010000001N00000000000000020180610
201805310060000700000000000000599571000000000000005995719900000000000000000000Consumidor Final              000000000050000000000000050000000000000000000000000000000000000000000000000000000000000000000000000000000000000000000000PES00010000001N00000000000000020180610
201805310060000700000000000000599572000000000000005995729900000000000000000000Consumidor Final              000000000089500000000000089500000000000000000000000000000000000000000000000000000000000000000000000000000000000000000000PES00010000001N00000000000000020180610
201805310060000700000000000000599573000000000000005995739900000000000000000000Consumidor Final              000000000098400000000000098400000000000000000000000000000000000000000000000000000000000000000000000000000000000000000000PES00010000001N00000000000000020180610
201805310060000700000000000000599578000000000000005995789900000000000000000000Consumidor Final              000000000089500000000000089500000000000000000000000000000000000000000000000000000000000000000000000000000000000000000000PES00010000001N00000000000000020180610
201805310060000700000000000000599579000000000000005995799900000000000000000000Consumidor Final              000000000089500000000000089500000000000000000000000000000000000000000000000000000000000000000000000000000000000000000000PES00010000001N00000000000000020180610
201805310060000700000000000000599580000000000000005995809900000000000000000000Consumidor Final              000000000093500000000000093500000000000000000000000000000000000000000000000000000000000000000000000000000000000000000000PES00010000001N00000000000000020180610
201805310060000700000000000000599581000000000000005995819900000000000000000000Consumidor Final              000000000089500000000000089500000000000000000000000000000000000000000000000000000000000000000000000000000000000000000000PES00010000001N00000000000000020180610
201805310060000700000000000000599582000000000000005995829900000000000000000000Consumidor Final              000000000089500000000000089500000000000000000000000000000000000000000000000000000000000000000000000000000000000000000000PES00010000001N00000000000000020180610
201805310060000700000000000000599583000000000000005995839900000000000000000000Consumidor Final              000000000089500000000000089500000000000000000000000000000000000000000000000000000000000000000000000000000000000000000000PES00010000001N00000000000000020180610
201805310060000700000000000000599584000000000000005995849900000000000000000000Consumidor Final              000000000089500000000000089500000000000000000000000000000000000000000000000000000000000000000000000000000000000000000000PES00010000001N00000000000000020180610
201805310060000700000000000000599460000000000000005994609900000000000000000000Consumidor Final              000000000089500000000000089500000000000000000000000000000000000000000000000000000000000000000000000000000000000000000000PES00010000001N00000000000000020180610
201805310060000700000000000000599461000000000000005994619900000000000000000000Consumidor Final              000000000092000000000000092000000000000000000000000000000000000000000000000000000000000000000000000000000000000000000000PES00010000001N00000000000000020180610
201805310060000700000000000000599462000000000000005994629900000000000000000000Consumidor Final              000000000089500000000000089500000000000000000000000000000000000000000000000000000000000000000000000000000000000000000000PES00010000001N00000000000000020180610
201805310060000700000000000000599463000000000000005994639900000000000000000000Consumidor Final              000000000089500000000000089500000000000000000000000000000000000000000000000000000000000000000000000000000000000000000000PES00010000001N00000000000000020180610
201805310060000700000000000000599464000000000000005994649900000000000000000000Consumidor Final              000000000089500000000000089500000000000000000000000000000000000000000000000000000000000000000000000000000000000000000000PES00010000001N00000000000000020180610
201805310060000700000000000000599445000000000000005994459900000000000000000000Consumidor Final              000000000089500000000000089500000000000000000000000000000000000000000000000000000000000000000000000000000000000000000000PES00010000001N00000000000000020180610
201805310060000700000000000000599446000000000000005994469900000000000000000000Consumidor Final              000000000089500000000000089500000000000000000000000000000000000000000000000000000000000000000000000000000000000000000000PES00010000001N00000000000000020180610
201805310060000700000000000000599447000000000000005994479900000000000000000000Consumidor Final              000000000089500000000000089500000000000000000000000000000000000000000000000000000000000000000000000000000000000000000000PES00010000001N00000000000000020180610
201805310060000700000000000000599448000000000000005994489900000000000000000000Consumidor Final              000000000089500000000000089500000000000000000000000000000000000000000000000000000000000000000000000000000000000000000000PES00010000001N00000000000000020180610
201805310060000700000000000000599449000000000000005994499900000000000000000000Consumidor Final              000000000085000000000000085000000000000000000000000000000000000000000000000000000000000000000000000000000000000000000000PES00010000001N00000000000000020180610
201805310060000700000000000000599450000000000000005994509900000000000000000000Consumidor Final              000000000089500000000000089500000000000000000000000000000000000000000000000000000000000000000000000000000000000000000000PES00010000001N00000000000000020180610
201805310060000700000000000000599451000000000000005994519900000000000000000000Consumidor Final              000000000042000000000000042000000000000000000000000000000000000000000000000000000000000000000000000000000000000000000000PES00010000001N00000000000000020180610
201805310060000700000000000000599452000000000000005994529900000000000000000000Consumidor Final              000000000089500000000000089500000000000000000000000000000000000000000000000000000000000000000000000000000000000000000000PES00010000001N00000000000000020180610
201805310060000700000000000000599453000000000000005994539900000000000000000000Consumidor Final              000000000089500000000000089500000000000000000000000000000000000000000000000000000000000000000000000000000000000000000000PES00010000001N00000000000000020180610
201805310060000700000000000000599454000000000000005994549900000000000000000000Consumidor Final              000000000089500000000000089500000000000000000000000000000000000000000000000000000000000000000000000000000000000000000000PES00010000001N00000000000000020180610
201805310060000700000000000000599455000000000000005994559000000000099999999999Consumidor Final              000000000104500000000000104500000000000000000000000000000000000000000000000000000000000000000000000000000000000000000000PES00010000001N00000000000000020180610
201805310060000700000000000000599456000000000000005994569000000000099999999999Consumidor Final              000000000104500000000000104500000000000000000000000000000000000000000000000000000000000000000000000000000000000000000000PES00010000001N00000000000000020180610
201805310060000700000000000000599457000000000000005994579900000000000000000000Consumidor Final              000000000089500000000000089500000000000000000000000000000000000000000000000000000000000000000000000000000000000000000000PES00010000001N00000000000000020180610
201805310060000700000000000000599458000000000000005994589900000000000000000000Consumidor Final              000000000089500000000000089500000000000000000000000000000000000000000000000000000000000000000000000000000000000000000000PES00010000001N00000000000000020180610
201805310060000700000000000000599459000000000000005994599900000000000000000000Consumidor Final              000000000089500000000000089500000000000000000000000000000000000000000000000000000000000000000000000000000000000000000000PES00010000001N00000000000000020180610
201805310060000700000000000000599465000000000000005994659900000000000000000000Consumidor Final              000000000089500000000000089500000000000000000000000000000000000000000000000000000000000000000000000000000000000000000000PES00010000001N00000000000000020180610
201805310060000700000000000000599476000000000000005994769900000000000000000000Consumidor Final              000000000089500000000000089500000000000000000000000000000000000000000000000000000000000000000000000000000000000000000000PES00010000001N00000000000000020180610
201805310060000700000000000000599477000000000000005994779900000000000000000000Consumidor Final              000000000089500000000000089500000000000000000000000000000000000000000000000000000000000000000000000000000000000000000000PES00010000001N00000000000000020180610
201805310060000700000000000000599478000000000000005994789900000000000000000000Consumidor Final              000000000089500000000000089500000000000000000000000000000000000000000000000000000000000000000000000000000000000000000000PES00010000001N00000000000000020180610
201805310060000700000000000000599479000000000000005994799900000000000000000000Consumidor Final              000000000092000000000000092000000000000000000000000000000000000000000000000000000000000000000000000000000000000000000000PES00010000001N00000000000000020180610
201805310060000700000000000000599480000000000000005994809900000000000000000000Consumidor Final              000000000089500000000000089500000000000000000000000000000000000000000000000000000000000000000000000000000000000000000000PES00010000001N00000000000000020180610
201805310060000700000000000000599481000000000000005994819900000000000000000000Consumidor Final              000000000089500000000000089500000000000000000000000000000000000000000000000000000000000000000000000000000000000000000000PES00010000001N00000000000000020180610
201805310060000700000000000000599466000000000000005994669900000000000000000000Consumidor Final              000000000089500000000000089500000000000000000000000000000000000000000000000000000000000000000000000000000000000000000000PES00010000001N00000000000000020180610
201805310060000700000000000000599467000000000000005994679900000000000000000000Consumidor Final              000000000089500000000000089500000000000000000000000000000000000000000000000000000000000000000000000000000000000000000000PES00010000001N00000000000000020180610
201805310060000700000000000000599468000000000000005994689900000000000000000000Consumidor Final              000000000089500000000000089500000000000000000000000000000000000000000000000000000000000000000000000000000000000000000000PES00010000001N00000000000000020180610
201805310060000600000000000000818957000000000000008189579900000000000000000000Consumidor Final              000000000089500000000000089500000000000000000000000000000000000000000000000000000000000000000000000000000000000000000000PES00010000001N00000000000000020180610
201805310060000700000000000000599469000000000000005994699000000000099999999999Consumidor Final              000000000107500000000000107500000000000000000000000000000000000000000000000000000000000000000000000000000000000000000000PES00010000001N00000000000000020180610
201805310060000700000000000000599470000000000000005994709900000000000000000000Consumidor Final              000000000089500000000000089500000000000000000000000000000000000000000000000000000000000000000000000000000000000000000000PES00010000001N00000000000000020180610
201805310060000700000000000000599471000000000000005994719900000000000000000000Consumidor Final              000000000089500000000000089500000000000000000000000000000000000000000000000000000000000000000000000000000000000000000000PES00010000001N00000000000000020180610
201805310060000700000000000000599472000000000000005994729900000000000000000000Consumidor Final              000000000089500000000000089500000000000000000000000000000000000000000000000000000000000000000000000000000000000000000000PES00010000001N00000000000000020180610
201805310060000700000000000000599473000000000000005994739900000000000000000000Consumidor Final              000000000089500000000000089500000000000000000000000000000000000000000000000000000000000000000000000000000000000000000000PES00010000001N00000000000000020180610
201805310060000700000000000000599474000000000000005994749900000000000000000000Consumidor Final              000000000089500000000000089500000000000000000000000000000000000000000000000000000000000000000000000000000000000000000000PES00010000001N00000000000000020180610
201805310060000600000000000000818958000000000000008189589900000000000000000000Consumidor Final              000000000089500000000000089500000000000000000000000000000000000000000000000000000000000000000000000000000000000000000000PES00010000001N00000000000000020180610
201805310060000600000000000000818964000000000000008189649900000000000000000000Consumidor Final              000000000089500000000000089500000000000000000000000000000000000000000000000000000000000000000000000000000000000000000000PES00010000001N00000000000000020180610
201805310060000600000000000000818965000000000000008189659900000000000000000000Consumidor Final              000000000089500000000000089500000000000000000000000000000000000000000000000000000000000000000000000000000000000000000000PES00010000001N00000000000000020180610
201805310060000600000000000000818966000000000000008189669900000000000000000000Consumidor Final              000000000089500000000000089500000000000000000000000000000000000000000000000000000000000000000000000000000000000000000000PES00010000001N00000000000000020180610
201805310060000600000000000000818967000000000000008189679900000000000000000000Consumidor Final              000000000089500000000000089500000000000000000000000000000000000000000000000000000000000000000000000000000000000000000000PES00010000001N00000000000000020180610
201805310060000700000000000000599504000000000000005995049900000000000000000000Consumidor Final              000000000085000000000000085000000000000000000000000000000000000000000000000000000000000000000000000000000000000000000000PES00010000001N00000000000000020180610
201805310060000600000000000000818977000000000000008189779900000000000000000000Consumidor Final              000000000089500000000000089500000000000000000000000000000000000000000000000000000000000000000000000000000000000000000000PES00010000001N00000000000000020180610
201805310060000800000000000000204159000000000000002041599900000000000000000000Consumidor Final              000000000078000000000000078000000000000000000000000000000000000000000000000000000000000000000000000000000000000000000000PES00010000001N00000000000000020180610
201805310060000800000000000000204160000000000000002041609900000000000000000000Consumidor Final              000000000078000000000000078000000000000000000000000000000000000000000000000000000000000000000000000000000000000000000000PES00010000001N00000000000000020180610
201805310060000600000000000000818981000000000000008189819900000000000000000000Consumidor Final              000000000098400000000000098400000000000000000000000000000000000000000000000000000000000000000000000000000000000000000000PES00010000001N00000000000000020180610
201805310060000700000000000000599555000000000000005995559900000000000000000000Consumidor Final              000000000089500000000000089500000000000000000000000000000000000000000000000000000000000000000000000000000000000000000000PES00010000001N00000000000000020180610
201805310060000600000000000000818959000000000000008189599900000000000000000000Consumidor Final              000000000089500000000000089500000000000000000000000000000000000000000000000000000000000000000000000000000000000000000000PES00010000001N00000000000000020180610
201805310060000700000000000000599488000000000000005994889900000000000000000000Consumidor Final              000000000089500000000000089500000000000000000000000000000000000000000000000000000000000000000000000000000000000000000000PES00010000001N00000000000000020180610
201805310060000700000000000000599489000000000000005994899000000000099999999999Consumidor Final              000000000104500000000000104500000000000000000000000000000000000000000000000000000000000000000000000000000000000000000000PES00010000001N00000000000000020180610
201805310060000700000000000000599490000000000000005994909900000000000000000000Consumidor Final              000000000089500000000000089500000000000000000000000000000000000000000000000000000000000000000000000000000000000000000000PES00010000001N00000000000000020180610
201805310060000700000000000000599491000000000000005994919900000000000000000000Consumidor Final              000000000089500000000000089500000000000000000000000000000000000000000000000000000000000000000000000000000000000000000000PES00010000001N00000000000000020180610
201805310060000700000000000000599492000000000000005994929900000000000000000000Consumidor Final              000000000089500000000000089500000000000000000000000000000000000000000000000000000000000000000000000000000000000000000000PES00010000001N00000000000000020180610
201805310060000700000000000000599493000000000000005994939900000000000000000000Consumidor Final              000000000089500000000000089500000000000000000000000000000000000000000000000000000000000000000000000000000000000000000000PES00010000001N00000000000000020180610
201805310060000700000000000000599494000000000000005994949900000000000000000000Consumidor Final              000000000085000000000000085000000000000000000000000000000000000000000000000000000000000000000000000000000000000000000000PES00010000001N00000000000000020180610
201805310060000700000000000000599495000000000000005994959900000000000000000000Consumidor Final              000000000089500000000000089500000000000000000000000000000000000000000000000000000000000000000000000000000000000000000000PES00010000001N00000000000000020180610
201805310060000700000000000000599496000000000000005994969900000000000000000000Consumidor Final              000000000089500000000000089500000000000000000000000000000000000000000000000000000000000000000000000000000000000000000000PES00010000001N00000000000000020180610
201805310060000600000000000000818960000000000000008189609900000000000000000000Consumidor Final              000000000089500000000000089500000000000000000000000000000000000000000000000000000000000000000000000000000000000000000000PES00010000001N00000000000000020180610
201805310060000600000000000000818968000000000000008189689900000000000000000000Consumidor Final              000000000089500000000000089500000000000000000000000000000000000000000000000000000000000000000000000000000000000000000000PES00010000001N00000000000000020180610
201805310060000700000000000000599497000000000000005994979900000000000000000000Consumidor Final              000000000089500000000000089500000000000000000000000000000000000000000000000000000000000000000000000000000000000000000000PES00010000001N00000000000000020180610
201805310060000700000000000000599498000000000000005994989900000000000000000000Consumidor Final              000000000092000000000000092000000000000000000000000000000000000000000000000000000000000000000000000000000000000000000000PES00010000001N00000000000000020180610
201805310060000600000000000000818969000000000000008189699900000000000000000000Consumidor Final              000000000089500000000000089500000000000000000000000000000000000000000000000000000000000000000000000000000000000000000000PES00010000001N00000000000000020180610
201805310060000700000000000000599499000000000000005994999900000000000000000000Consumidor Final              000000000089500000000000089500000000000000000000000000000000000000000000000000000000000000000000000000000000000000000000PES00010000001N00000000000000020180610
201805310060000700000000000000599500000000000000005995009900000000000000000000Consumidor Final              000000000089500000000000089500000000000000000000000000000000000000000000000000000000000000000000000000000000000000000000PES00010000001N00000000000000020180610
201805310060000600000000000000818970000000000000008189709900000000000000000000Consumidor Final              000000000092000000000000092000000000000000000000000000000000000000000000000000000000000000000000000000000000000000000000PES00010000001N00000000000000020180610
201805310060000600000000000000818971000000000000008189719900000000000000000000Consumidor Final              000000000092000000000000092000000000000000000000000000000000000000000000000000000000000000000000000000000000000000000000PES00010000001N00000000000000020180610
201805310060000600000000000000818972000000000000008189729900000000000000000000Consumidor Final              000000000089500000000000089500000000000000000000000000000000000000000000000000000000000000000000000000000000000000000000PES00010000001N00000000000000020180610
201805310060000600000000000000818973000000000000008189739900000000000000000000Consumidor Final              000000000089500000000000089500000000000000000000000000000000000000000000000000000000000000000000000000000000000000000000PES00010000001N00000000000000020180610
201805310060000600000000000000818961000000000000008189619900000000000000000000Consumidor Final              000000000089500000000000089500000000000000000000000000000000000000000000000000000000000000000000000000000000000000000000PES00010000001N00000000000000020180610
201805310060000600000000000000818962000000000000008189629900000000000000000000Consumidor Final              000000000089500000000000089500000000000000000000000000000000000000000000000000000000000000000000000000000000000000000000PES00010000001N00000000000000020180610
201805310060000600000000000000818963000000000000008189639900000000000000000000Consumidor Final              000000000089500000000000089500000000000000000000000000000000000000000000000000000000000000000000000000000000000000000000PES00010000001N00000000000000020180610
201805310060000700000000000000599501000000000000005995019000000000099999999999Consumidor Final              000000000118000000000000118000000000000000000000000000000000000000000000000000000000000000000000000000000000000000000000PES00010000001N00000000000000020180610
201805310060000700000000000000599502000000000000005995029900000000000000000000Consumidor Final              000000000089500000000000089500000000000000000000000000000000000000000000000000000000000000000000000000000000000000000000PES00010000001N00000000000000020180610
201805310060000700000000000000599503000000000000005995039900000000000000000000Consumidor Final              000000000089500000000000089500000000000000000000000000000000000000000000000000000000000000000000000000000000000000000000PES00010000001N00000000000000020180610
201805310060000700000000000000599515000000000000005995159900000000000000000000Consumidor Final              000000000089500000000000089500000000000000000000000000000000000000000000000000000000000000000000000000000000000000000000PES00010000001N00000000000000020180610
201805310060000700000000000000599516000000000000005995169000000000099999999999Consumidor Final              000000000118200000000000118200000000000000000000000000000000000000000000000000000000000000000000000000000000000000000000PES00010000001N00000000000000020180610
201805310060000700000000000000599517000000000000005995179900000000000000000000Consumidor Final              000000000089500000000000089500000000000000000000000000000000000000000000000000000000000000000000000000000000000000000000PES00010000001N00000000000000020180610
201805310060000700000000000000599518000000000000005995189900000000000000000000Consumidor Final              000000000089500000000000089500000000000000000000000000000000000000000000000000000000000000000000000000000000000000000000PES00010000001N00000000000000020180610
201805310060000700000000000000599506000000000000005995069900000000000000000000Consumidor Final              000000000089500000000000089500000000000000000000000000000000000000000000000000000000000000000000000000000000000000000000PES00010000001N00000000000000020180610
201805310060000700000000000000599519000000000000005995199900000000000000000000Consumidor Final              000000000085000000000000085000000000000000000000000000000000000000000000000000000000000000000000000000000000000000000000PES00010000001N00000000000000020180610
201805310060000700000000000000599520000000000000005995209900000000000000000000Consumidor Final              000000000089500000000000089500000000000000000000000000000000000000000000000000000000000000000000000000000000000000000000PES00010000001N00000000000000020180610
201805310060000700000000000000599540000000000000005995409000000000099999999999Consumidor Final              000000000122500000000000122500000000000000000000000000000000000000000000000000000000000000000000000000000000000000000000PES00010000001N00000000000000020180610
201805310060000700000000000000599541000000000000005995419900000000000000000000Consumidor Final              000000000089500000000000089500000000000000000000000000000000000000000000000000000000000000000000000000000000000000000000PES00010000001N00000000000000020180610
201805310060000700000000000000599542000000000000005995429900000000000000000000Consumidor Final              000000000090000000000000090000000000000000000000000000000000000000000000000000000000000000000000000000000000000000000000PES00010000001N00000000000000020180610
201805310060000700000000000000599549000000000000005995499900000000000000000000Consumidor Final              000000000089500000000000089500000000000000000000000000000000000000000000000000000000000000000000000000000000000000000000PES00010000001N00000000000000020180610
201805310060000800000000000000204161000000000000002041619900000000000000000000Consumidor Final              000000000042000000000000042000000000000000000000000000000000000000000000000000000000000000000000000000000000000000000000PES00010000001N00000000000000020180610
201805310060000700000000000000599556000000000000005995569900000000000000000000Consumidor Final              000000000089500000000000089500000000000000000000000000000000000000000000000000000000000000000000000000000000000000000000PES00010000001N00000000000000020180610
201805310060000700000000000000599557000000000000005995579900000000000000000000Consumidor Final              000000000050000000000000050000000000000000000000000000000000000000000000000000000000000000000000000000000000000000000000PES00010000001N00000000000000020180610
201805310060000700000000000000599507000000000000005995079900000000000000000000Consumidor Final              000000000089500000000000089500000000000000000000000000000000000000000000000000000000000000000000000000000000000000000000PES00010000001N00000000000000020180610
201805310060000700000000000000599525000000000000005995259900000000000000000000Consumidor Final              000000000089500000000000089500000000000000000000000000000000000000000000000000000000000000000000000000000000000000000000PES00010000001N00000000000000020180610
201805310060000700000000000000599526000000000000005995269900000000000000000000Consumidor Final              000000000089500000000000089500000000000000000000000000000000000000000000000000000000000000000000000000000000000000000000PES00010000001N00000000000000020180610
201805310060000700000000000000599527000000000000005995279900000000000000000000Consumidor Final              000000000089500000000000089500000000000000000000000000000000000000000000000000000000000000000000000000000000000000000000PES00010000001N00000000000000020180610
201805310060000700000000000000599535000000000000005995359900000000000000000000Consumidor Final              000000000093500000000000093500000000000000000000000000000000000000000000000000000000000000000000000000000000000000000000PES00010000001N00000000000000020180610
201805310060000700000000000000599536000000000000005995369900000000000000000000Consumidor Final              000000000089500000000000089500000000000000000000000000000000000000000000000000000000000000000000000000000000000000000000PES00010000001N00000000000000020180610
201805310060000700000000000000599537000000000000005995379900000000000000000000Consumidor Final              000000000089500000000000089500000000000000000000000000000000000000000000000000000000000000000000000000000000000000000000PES00010000001N00000000000000020180610
201805310060000700000000000000599538000000000000005995389900000000000000000000Consumidor Final              000000000098400000000000098400000000000000000000000000000000000000000000000000000000000000000000000000000000000000000000PES00010000001N00000000000000020180610
201805310060000700000000000000599539000000000000005995399900000000000000000000Consumidor Final              000000000089500000000000089500000000000000000000000000000000000000000000000000000000000000000000000000000000000000000000PES00010000001N00000000000000020180610
201805310060000700000000000000599543000000000000005995439900000000000000000000Consumidor Final              000000000089500000000000089500000000000000000000000000000000000000000000000000000000000000000000000000000000000000000000PES00010000001N00000000000000020180610
201805310060000700000000000000599508000000000000005995089900000000000000000000Consumidor Final              000000000046200000000000046200000000000000000000000000000000000000000000000000000000000000000000000000000000000000000000PES00010000001N00000000000000020180610
201805310060000800000000000000204148000000000000002041489900000000000000000000Consumidor Final              000000000078000000000000078000000000000000000000000000000000000000000000000000000000000000000000000000000000000000000000PES00010000001N00000000000000020180610
201805310060000800000000000000204149000000000000002041499900000000000000000000Consumidor Final              000000000078000000000000078000000000000000000000000000000000000000000000000000000000000000000000000000000000000000000000PES00010000001N00000000000000020180610
201805310060000800000000000000204150000000000000002041509900000000000000000000Consumidor Final              000000000078000000000000078000000000000000000000000000000000000000000000000000000000000000000000000000000000000000000000PES00010000001N00000000000000020180610
201805310060000800000000000000204151000000000000002041519900000000000000000000Consumidor Final              000000000078000000000000078000000000000000000000000000000000000000000000000000000000000000000000000000000000000000000000PES00010000001N00000000000000020180610
201805310060000800000000000000204152000000000000002041529900000000000000000000Consumidor Final              000000000090000000000000090000000000000000000000000000000000000000000000000000000000000000000000000000000000000000000000PES00010000001N00000000000000020180610
201805310060000800000000000000204153000000000000002041539900000000000000000000Consumidor Final              000000000078000000000000078000000000000000000000000000000000000000000000000000000000000000000000000000000000000000000000PES00010000001N00000000000000020180610
201805310060000800000000000000204154000000000000002041549900000000000000000000Consumidor Final              000000000078000000000000078000000000000000000000000000000000000000000000000000000000000000000000000000000000000000000000PES00010000001N00000000000000020180610
201805310060000700000000000000599509000000000000005995099900000000000000000000Consumidor Final              000000000089500000000000089500000000000000000000000000000000000000000000000000000000000000000000000000000000000000000000PES00010000001N00000000000000020180610
201805310060000700000000000000599510000000000000005995109900000000000000000000Consumidor Final              000000000089500000000000089500000000000000000000000000000000000000000000000000000000000000000000000000000000000000000000PES00010000001N00000000000000020180610
201805310060000700000000000000599511000000000000005995119900000000000000000000Consumidor Final              000000000089500000000000089500000000000000000000000000000000000000000000000000000000000000000000000000000000000000000000PES00010000001N00000000000000020180610
201805310060000700000000000000599513000000000000005995139000000000099999999999Consumidor Final              000000000110000000000000110000000000000000000000000000000000000000000000000000000000000000000000000000000000000000000000PES00010000001N00000000000000020180610
201805310060000700000000000000599544000000000000005995449900000000000000000000Consumidor Final              000000000089500000000000089500000000000000000000000000000000000000000000000000000000000000000000000000000000000000000000PES00010000001N00000000000000020180610
201805310060000700000000000000599545000000000000005995459900000000000000000000Consumidor Final              000000000089500000000000089500000000000000000000000000000000000000000000000000000000000000000000000000000000000000000000PES00010000001N00000000000000020180610
201805310060000700000000000000599546000000000000005995469900000000000000000000Consumidor Final              000000000089500000000000089500000000000000000000000000000000000000000000000000000000000000000000000000000000000000000000PES00010000001N00000000000000020180610
201805310060000600000000000000818988000000000000008189889900000000000000000000Consumidor Final              000000000089500000000000089500000000000000000000000000000000000000000000000000000000000000000000000000000000000000000000PES00010000001N00000000000000020180610
201805310060000600000000000000818989000000000000008189899900000000000000000000Consumidor Final              000000000089500000000000089500000000000000000000000000000000000000000000000000000000000000000000000000000000000000000000PES00010000001N00000000000000020180610
201805310060000600000000000000818990000000000000008189909900000000000000000000Consumidor Final              000000000090000000000000090000000000000000000000000000000000000000000000000000000000000000000000000000000000000000000000PES00010000001N00000000000000020180610
201805310060000700000000000000599564000000000000005995649900000000000000000000Consumidor Final              000000000089500000000000089500000000000000000000000000000000000000000000000000000000000000000000000000000000000000000000PES00010000001N00000000000000020180610
201805310060000700000000000000599565000000000000005995659900000000000000000000Consumidor Final              000000000089500000000000089500000000000000000000000000000000000000000000000000000000000000000000000000000000000000000000PES00010000001N00000000000000020180610
201805310060000700000000000000599566000000000000005995669900000000000000000000Consumidor Final              000000000085000000000000085000000000000000000000000000000000000000000000000000000000000000000000000000000000000000000000PES00010000001N00000000000000020180610
201805310060000700000000000000599514000000000000005995149900000000000000000000Consumidor Final              000000000098400000000000098400000000000000000000000000000000000000000000000000000000000000000000000000000000000000000000PES00010000001N00000000000000020180610
201805310060000700000000000000599547000000000000005995479900000000000000000000Consumidor Final              000000000089500000000000089500000000000000000000000000000000000000000000000000000000000000000000000000000000000000000000PES00010000001N00000000000000020180610
201805310060000700000000000000599548000000000000005995489000000000099999999999Consumidor Final              000000000107000000000000107000000000000000000000000000000000000000000000000000000000000000000000000000000000000000000000PES00010000001N00000000000000020180610
201805310060000600000000000000818978000000000000008189789900000000000000000000Consumidor Final              000000000089500000000000089500000000000000000000000000000000000000000000000000000000000000000000000000000000000000000000PES00010000001N00000000000000020180610
201805310060000600000000000000818979000000000000008189799000000000099999999999Consumidor Final              000000000101200000000000101200000000000000000000000000000000000000000000000000000000000000000000000000000000000000000000PES00010000001N00000000000000020180610
201805310060000700000000000000599550000000000000005995509000000000099999999999Consumidor Final              000000000108000000000000108000000000000000000000000000000000000000000000000000000000000000000000000000000000000000000000PES00010000001N00000000000000020180610
201805310060000700000000000000599551000000000000005995519900000000000000000000Consumidor Final              000000000085000000000000085000000000000000000000000000000000000000000000000000000000000000000000000000000000000000000000PES00010000001N00000000000000020180610
201805310060000700000000000000599552000000000000005995529900000000000000000000Consumidor Final              000000000098400000000000098400000000000000000000000000000000000000000000000000000000000000000000000000000000000000000000PES00010000001N00000000000000020180610
201805310060000600000000000000818980000000000000008189809900000000000000000000Consumidor Final              000000000089500000000000089500000000000000000000000000000000000000000000000000000000000000000000000000000000000000000000PES00010000001N00000000000000020180610
201805310060000800000000000000204158000000000000002041589900000000000000000000Consumidor Final              000000000078000000000000078000000000000000000000000000000000000000000000000000000000000000000000000000000000000000000000PES00010000001N00000000000000020180610
201805310060000700000000000000599523000000000000005995239000000000099999999999Consumidor Final              000000000110000000000000110000000000000000000000000000000000000000000000000000000000000000000000000000000000000000000000PES00010000001N00000000000000020180610
201805310060000600000000000000818983000000000000008189839900000000000000000000Consumidor Final              000000000089500000000000089500000000000000000000000000000000000000000000000000000000000000000000000000000000000000000000PES00010000001N00000000000000020180610
201805310060000600000000000000818984000000000000008189849900000000000000000000Consumidor Final              000000000098400000000000098400000000000000000000000000000000000000000000000000000000000000000000000000000000000000000000PES00010000001N00000000000000020180610
201805310060000600000000000000818985000000000000008189859900000000000000000000Consumidor Final              000000000089500000000000089500000000000000000000000000000000000000000000000000000000000000000000000000000000000000000000PES00010000001N00000000000000020180610
201805310060000600000000000000818986000000000000008189869900000000000000000000Consumidor Final              000000000098400000000000098400000000000000000000000000000000000000000000000000000000000000000000000000000000000000000000PES00010000001N00000000000000020180610
201805310060000600000000000000818991000000000000008189919900000000000000000000Consumidor Final              000000000089500000000000089500000000000000000000000000000000000000000000000000000000000000000000000000000000000000000000PES00010000001N00000000000000020180610
201805310060000600000000000000818992000000000000008189929900000000000000000000Consumidor Final              000000000085000000000000085000000000000000000000000000000000000000000000000000000000000000000000000000000000000000000000PES00010000001N00000000000000020180610
201805310060000600000000000000818993000000000000008189939900000000000000000000Consumidor Final              000000000089500000000000089500000000000000000000000000000000000000000000000000000000000000000000000000000000000000000000PES00010000001N00000000000000020180610
201805310060000600000000000000818994000000000000008189949900000000000000000000Consumidor Final              000000000089500000000000089500000000000000000000000000000000000000000000000000000000000000000000000000000000000000000000PES00010000001N00000000000000020180610
201805310060000600000000000000818995000000000000008189959900000000000000000000Consumidor Final              000000000089500000000000089500000000000000000000000000000000000000000000000000000000000000000000000000000000000000000000PES00010000001N00000000000000020180610
201805310060000700000000000000599524000000000000005995249900000000000000000000Consumidor Final              000000000089500000000000089500000000000000000000000000000000000000000000000000000000000000000000000000000000000000000000PES00010000001N00000000000000020180610
201805310060000800000000000000204155000000000000002041559900000000000000000000Consumidor Final              000000000078000000000000078000000000000000000000000000000000000000000000000000000000000000000000000000000000000000000000PES00010000001N00000000000000020180610
201805310060000800000000000000204156000000000000002041569900000000000000000000Consumidor Final              000000000078000000000000078000000000000000000000000000000000000000000000000000000000000000000000000000000000000000000000PES00010000001N00000000000000020180610
201805310060000800000000000000204157000000000000002041579900000000000000000000Consumidor Final              000000000078000000000000078000000000000000000000000000000000000000000000000000000000000000000000000000000000000000000000PES00010000001N00000000000000020180610
201805310060000700000000000000599528000000000000005995289900000000000000000000Consumidor Final              000000000078000000000000078000000000000000000000000000000000000000000000000000000000000000000000000000000000000000000000PES00010000001N00000000000000020180610
201805310060000700000000000000599529000000000000005995299900000000000000000000Consumidor Final              000000000089500000000000089500000000000000000000000000000000000000000000000000000000000000000000000000000000000000000000PES00010000001N00000000000000020180610
201805310060000700000000000000599530000000000000005995309900000000000000000000Consumidor Final              000000000085000000000000085000000000000000000000000000000000000000000000000000000000000000000000000000000000000000000000PES00010000001N00000000000000020180610
201805310060000700000000000000599531000000000000005995319900000000000000000000Consumidor Final              000000000089500000000000089500000000000000000000000000000000000000000000000000000000000000000000000000000000000000000000PES00010000001N00000000000000020180610
201805310060000700000000000000599532000000000000005995329900000000000000000000Consumidor Final              000000000098400000000000098400000000000000000000000000000000000000000000000000000000000000000000000000000000000000000000PES00010000001N00000000000000020180610
201805310060000700000000000000599533000000000000005995339900000000000000000000Consumidor Final              000000000089500000000000089500000000000000000000000000000000000000000000000000000000000000000000000000000000000000000000PES00010000001N00000000000000020180610
201805310060000700000000000000599534000000000000005995349900000000000000000000Consumidor Final              000000000089500000000000089500000000000000000000000000000000000000000000000000000000000000000000000000000000000000000000PES00010000001N00000000000000020180610
201805310060000700000000000000599553000000000000005995539900000000000000000000Consumidor Final              000000000089500000000000089500000000000000000000000000000000000000000000000000000000000000000000000000000000000000000000PES00010000001N00000000000000020180610
201805310060000700000000000000599567000000000000005995679900000000000000000000Consumidor Final              000000000085000000000000085000000000000000000000000000000000000000000000000000000000000000000000000000000000000000000000PES00010000001N00000000000000020180610
201805310060000600000000000000818996000000000000008189969900000000000000000000Consumidor Final              000000000090000000000000090000000000000000000000000000000000000000000000000000000000000000000000000000000000000000000000PES00010000001N00000000000000020180610
201805310060000700000000000000599568000000000000005995689900000000000000000000Consumidor Final              000000000089500000000000089500000000000000000000000000000000000000000000000000000000000000000000000000000000000000000000PES00010000001N00000000000000020180610
201805310060000700000000000000599569000000000000005995699900000000000000000000Consumidor Final              000000000085000000000000085000000000000000000000000000000000000000000000000000000000000000000000000000000000000000000000PES00010000001N00000000000000020180610
201805310060000700000000000000599570000000000000005995709900000000000000000000Consumidor Final              000000000098400000000000098400000000000000000000000000000000000000000000000000000000000000000000000000000000000000000000PES00010000001N00000000000000020180610
201805310060000600000000000000818997000000000000008189979900000000000000000000Consumidor Final              000000000089500000000000089500000000000000000000000000000000000000000000000000000000000000000000000000000000000000000000PES00010000001N00000000000000020180610
201805310060000600000000000000818998000000000000008189989900000000000000000000Consumidor Final              000000000089500000000000089500000000000000000000000000000000000000000000000000000000000000000000000000000000000000000000PES00010000001N00000000000000020180610
201805310060000600000000000000818999000000000000008189999900000000000000000000Consumidor Final              000000000085000000000000085000000000000000000000000000000000000000000000000000000000000000000000000000000000000000000000PES00010000001N00000000000000020180610
201805310060000700000000000000599574000000000000005995749900000000000000000000Consumidor Final              000000000089500000000000089500000000000000000000000000000000000000000000000000000000000000000000000000000000000000000000PES00010000001N00000000000000020180610
201805310060000700000000000000599575000000000000005995759900000000000000000000Consumidor Final              000000000089500000000000089500000000000000000000000000000000000000000000000000000000000000000000000000000000000000000000PES00010000001N00000000000000020180610
201805310060000700000000000000599554000000000000005995549900000000000000000000Consumidor Final              000000000095000000000000095000000000000000000000000000000000000000000000000000000000000000000000000000000000000000000000PES00010000001N00000000000000020180610
201805310060000600000000000000819000000000000000008190009900000000000000000000Consumidor Final              000000000098400000000000098400000000000000000000000000000000000000000000000000000000000000000000000000000000000000000000PES00010000001N00000000000000020180610
201805310060000600000000000000819001000000000000008190019900000000000000000000Consumidor Final              000000000089500000000000089500000000000000000000000000000000000000000000000000000000000000000000000000000000000000000000PES00010000001N00000000000000020180610
201805310060000600000000000000819002000000000000008190029900000000000000000000Consumidor Final              000000000098400000000000098400000000000000000000000000000000000000000000000000000000000000000000000000000000000000000000PES00010000001N00000000000000020180610
201805310060000600000000000000819007000000000000008190079900000000000000000000Consumidor Final              000000000092000000000000092000000000000000000000000000000000000000000000000000000000000000000000000000000000000000000000PES00010000001N00000000000000020180610
201805310060000600000000000000819008000000000000008190089000000000099999999999Consumidor Final              000000000110000000000000110000000000000000000000000000000000000000000000000000000000000000000000000000000000000000000000PES00010000001N00000000000000020180610
201805310060000600000000000000819009000000000000008190099000000000099999999999Consumidor Final              000000000104500000000000104500000000000000000000000000000000000000000000000000000000000000000000000000000000000000000000PES00010000001N00000000000000020180610
201805310060000600000000000000819010000000000000008190109000000000099999999999Consumidor Final              000000000100000000000000100000000000000000000000000000000000000000000000000000000000000000000000000000000000000000000000PES00010000001N00000000000000020180610
201805310060000600000000000000819015000000000000008190159900000000000000000000Consumidor Final              000000000098400000000000098400000000000000000000000000000000000000000000000000000000000000000000000000000000000000000000PES00010000001N00000000000000020180610
201805310060000600000000000000819016000000000000008190169900000000000000000000Consumidor Final              000000000089500000000000089500000000000000000000000000000000000000000000000000000000000000000000000000000000000000000000PES00010000001N00000000000000020180610
201805310060000600000000000000818982000000000000008189829900000000000000000000Consumidor Final              000000000089500000000000089500000000000000000000000000000000000000000000000000000000000000000000000000000000000000000000PES00010000001N00000000000000020180610
201805310060000700000000000000599585000000000000005995859900000000000000000000Consumidor Final              000000000085000000000000085000000000000000000000000000000000000000000000000000000000000000000000000000000000000000000000PES00010000001N00000000000000020180610
201805310060000600000000000000819017000000000000008190179900000000000000000000Consumidor Final              000000000089500000000000089500000000000000000000000000000000000000000000000000000000000000000000000000000000000000000000PES00010000001N00000000000000020180610
201805310060000600000000000000819018000000000000008190189900000000000000000000Consumidor Final              000000000098400000000000098400000000000000000000000000000000000000000000000000000000000000000000000000000000000000000000PES00010000001N00000000000000020180610
201805310060000700000000000000599586000000000000005995869000000000099999999999Consumidor Final              000000000110000000000000110000000000000000000000000000000000000000000000000000000000000000000000000000000000000000000000PES00010000001N00000000000000020180610
201805310060000700000000000000599587000000000000005995879900000000000000000000Consumidor Final              000000000092000000000000092000000000000000000000000000000000000000000000000000000000000000000000000000000000000000000000PES00010000001N00000000000000020180610
201805310060000700000000000000599588000000000000005995889900000000000000000000Consumidor Final              000000000089500000000000089500000000000000000000000000000000000000000000000000000000000000000000000000000000000000000000PES00010000001N00000000000000020180610
201805310060000600000000000000819019000000000000008190199000000000099999999999Consumidor Final              000000000120000000000000120000000000000000000000000000000000000000000000000000000000000000000000000000000000000000000000PES00010000001N00000000000000020180610
201805310060000600000000000000819020000000000000008190209900000000000000000000Consumidor Final              000000000098400000000000098400000000000000000000000000000000000000000000000000000000000000000000000000000000000000000000PES00010000001N00000000000000020180610
201805310060000700000000000000599589000000000000005995899900000000000000000000Consumidor Final              000000000098400000000000098400000000000000000000000000000000000000000000000000000000000000000000000000000000000000000000PES00010000001N00000000000000020180610
201805310060000800000000000000204163000000000000002041639900000000000000000000Consumidor Final              000000000078000000000000078000000000000000000000000000000000000000000000000000000000000000000000000000000000000000000000PES00010000001N00000000000000020180610
201805310060000600000000000000819021000000000000008190219900000000000000000000Consumidor Final              000000000089500000000000089500000000000000000000000000000000000000000000000000000000000000000000000000000000000000000000PES00010000001N00000000000000020180610
201805310060000600000000000000819022000000000000008190229900000000000000000000Consumidor Final              000000000089500000000000089500000000000000000000000000000000000000000000000000000000000000000000000000000000000000000000PES00010000001N00000000000000020180610
201805310060000600000000000000819023000000000000008190239900000000000000000000Consumidor Final              000000000089500000000000089500000000000000000000000000000000000000000000000000000000000000000000000000000000000000000000PES00010000001N00000000000000020180610
201805310060000700000000000000599590000000000000005995909900000000000000000000Consumidor Final              000000000085000000000000085000000000000000000000000000000000000000000000000000000000000000000000000000000000000000000000PES00010000001N00000000000000020180610
201805310060000600000000000000819024000000000000008190249900000000000000000000Consumidor Final              000000000098400000000000098400000000000000000000000000000000000000000000000000000000000000000000000000000000000000000000PES00010000001N00000000000000020180610
201805310060000700000000000000599591000000000000005995919900000000000000000000Consumidor Final              000000000089500000000000089500000000000000000000000000000000000000000000000000000000000000000000000000000000000000000000PES00010000001N00000000000000020180610
201805310060000700000000000000599592000000000000005995929900000000000000000000Consumidor Final              000000000098400000000000098400000000000000000000000000000000000000000000000000000000000000000000000000000000000000000000PES00010000001N00000000000000020180610
201805310060000700000000000000599593000000000000005995939900000000000000000000Consumidor Final              000000000092000000000000092000000000000000000000000000000000000000000000000000000000000000000000000000000000000000000000PES00010000001N00000000000000020180610
201805310060000700000000000000599594000000000000005995949900000000000000000000Consumidor Final              000000000089500000000000089500000000000000000000000000000000000000000000000000000000000000000000000000000000000000000000PES00010000001N00000000000000020180610
201805310060000700000000000000599595000000000000005995959900000000000000000000Consumidor Final              000000000090200000000000090200000000000000000000000000000000000000000000000000000000000000000000000000000000000000000000PES00010000001N00000000000000020180610
201805310060000600000000000000819003000000000000008190039900000000000000000000Consumidor Final              000000000098400000000000098400000000000000000000000000000000000000000000000000000000000000000000000000000000000000000000PES00010000001N00000000000000020180610
201805310060000600000000000000819040000000000000008190409900000000000000000000Consumidor Final              000000000089500000000000089500000000000000000000000000000000000000000000000000000000000000000000000000000000000000000000PES00010000001N00000000000000020180610
201805310060000700000000000000599601000000000000005996019900000000000000000000Consumidor Final              000000000085000000000000085000000000000000000000000000000000000000000000000000000000000000000000000000000000000000000000PES00010000001N00000000000000020180610
201805310060000600000000000000819041000000000000008190419000000000099999999999Consumidor Final              000000000104500000000000104500000000000000000000000000000000000000000000000000000000000000000000000000000000000000000000PES00010000001N00000000000000020180610
201805310060000700000000000000599602000000000000005996029900000000000000000000Consumidor Final              000000000085000000000000085000000000000000000000000000000000000000000000000000000000000000000000000000000000000000000000PES00010000001N00000000000000020180610
201805310060000700000000000000599603000000000000005996039000000000099999999999Consumidor Final              000000000104500000000000104500000000000000000000000000000000000000000000000000000000000000000000000000000000000000000000PES00010000001N00000000000000020180610
201805310060000600000000000000819042000000000000008190429900000000000000000000Consumidor Final              000000000089500000000000089500000000000000000000000000000000000000000000000000000000000000000000000000000000000000000000PES00010000001N00000000000000020180610
201805310060000700000000000000599604000000000000005996049900000000000000000000Consumidor Final              000000000089500000000000089500000000000000000000000000000000000000000000000000000000000000000000000000000000000000000000PES00010000001N00000000000000020180610
201805310060000700000000000000599605000000000000005996059900000000000000000000Consumidor Final              000000000085000000000000085000000000000000000000000000000000000000000000000000000000000000000000000000000000000000000000PES00010000001N00000000000000020180610
201805310060000700000000000000599606000000000000005996069900000000000000000000Consumidor Final              000000000089500000000000089500000000000000000000000000000000000000000000000000000000000000000000000000000000000000000000PES00010000001N00000000000000020180610
201805310060000600000000000000819043000000000000008190439900000000000000000000Consumidor Final              000000000085000000000000085000000000000000000000000000000000000000000000000000000000000000000000000000000000000000000000PES00010000001N00000000000000020180610
201805310060000600000000000000819004000000000000008190049900000000000000000000Consumidor Final              000000000089500000000000089500000000000000000000000000000000000000000000000000000000000000000000000000000000000000000000PES00010000001N00000000000000020180610
201805310060000700000000000000599576000000000000005995769900000000000000000000Consumidor Final              000000000090000000000000090000000000000000000000000000000000000000000000000000000000000000000000000000000000000000000000PES00010000001N00000000000000020180610
201805310060000600000000000000819005000000000000008190059900000000000000000000Consumidor Final              000000000089500000000000089500000000000000000000000000000000000000000000000000000000000000000000000000000000000000000000PES00010000001N00000000000000020180610
201805310060000700000000000000599577000000000000005995779000000000099999999999Consumidor Final              000000000131000000000000131000000000000000000000000000000000000000000000000000000000000000000000000000000000000000000000PES00010000001N00000000000000020180610
201805310060000600000000000000819006000000000000008190069900000000000000000000Consumidor Final              000000000092000000000000092000000000000000000000000000000000000000000000000000000000000000000000000000000000000000000000PES00010000001N00000000000000020180610
201805310060000800000000000000204164000000000000002041649900000000000000000000Consumidor Final              000000000082000000000000082000000000000000000000000000000000000000000000000000000000000000000000000000000000000000000000PES00010000001N00000000000000020180610
201805310060000600000000000000819011000000000000008190119900000000000000000000Consumidor Final              000000000092000000000000092000000000000000000000000000000000000000000000000000000000000000000000000000000000000000000000PES00010000001N00000000000000020180610
201805310060000600000000000000819012000000000000008190129000000000099999999999Consumidor Final              000000000106700000000000106700000000000000000000000000000000000000000000000000000000000000000000000000000000000000000000PES00010000001N00000000000000020180610
201805310060000600000000000000819013000000000000008190139000000000099999999999Consumidor Final              000000000210600000000000210600000000000000000000000000000000000000000000000000000000000000000000000000000000000000000000PES00010000001N00000000000000020180610
201805310060000600000000000000819014000000000000008190149900000000000000000000Consumidor Final              000000000085000000000000085000000000000000000000000000000000000000000000000000000000000000000000000000000000000000000000PES00010000001N00000000000000020180610
201805310060000600000000000000819025000000000000008190259900000000000000000000Consumidor Final              000000000098400000000000098400000000000000000000000000000000000000000000000000000000000000000000000000000000000000000000PES00010000001N00000000000000020180610
201805310060000600000000000000819031000000000000008190319900000000000000000000Consumidor Final              000000000098400000000000098400000000000000000000000000000000000000000000000000000000000000000000000000000000000000000000PES00010000001N00000000000000020180610
201805310060000600000000000000819032000000000000008190329900000000000000000000Consumidor Final              000000000089500000000000089500000000000000000000000000000000000000000000000000000000000000000000000000000000000000000000PES00010000001N00000000000000020180610
201805310060000700000000000000599598000000000000005995989000000000099999999999Consumidor Final              000000000163900000000000163900000000000000000000000000000000000000000000000000000000000000000000000000000000000000000000PES00010000001N00000000000000020180610
201805310060000700000000000000599599000000000000005995999900000000000000000000Consumidor Final              000000000095000000000000095000000000000000000000000000000000000000000000000000000000000000000000000000000000000000000000PES00010000001N00000000000000020180610
201805310060000600000000000000819036000000000000008190369900000000000000000000Consumidor Final              000000000089500000000000089500000000000000000000000000000000000000000000000000000000000000000000000000000000000000000000PES00010000001N00000000000000020180610
201805310060000600000000000000819037000000000000008190379900000000000000000000Consumidor Final              000000000082000000000000082000000000000000000000000000000000000000000000000000000000000000000000000000000000000000000000PES00010000001N00000000000000020180610
201805310060000700000000000000599600000000000000005996009900000000000000000000Consumidor Final              000000000090000000000000090000000000000000000000000000000000000000000000000000000000000000000000000000000000000000000000PES00010000001N00000000000000020180610
201805310060000600000000000000819038000000000000008190389900000000000000000000Consumidor Final              000000000089500000000000089500000000000000000000000000000000000000000000000000000000000000000000000000000000000000000000PES00010000001N00000000000000020180610
201805310060000600000000000000819039000000000000008190399900000000000000000000Consumidor Final              000000000085000000000000085000000000000000000000000000000000000000000000000000000000000000000000000000000000000000000000PES00010000001N00000000000000020180610
201805310060000800000000000000204165000000000000002041659900000000000000000000Consumidor Final              000000000078000000000000078000000000000000000000000000000000000000000000000000000000000000000000000000000000000000000000PES00010000001N00000000000000020180610
201805310060000700000000000000599607000000000000005996079900000000000000000000Consumidor Final              000000000085000000000000085000000000000000000000000000000000000000000000000000000000000000000000000000000000000000000000PES00010000001N00000000000000020180610
201805310060000600000000000000819044000000000000008190449900000000000000000000Consumidor Final              000000000089500000000000089500000000000000000000000000000000000000000000000000000000000000000000000000000000000000000000PES00010000001N00000000000000020180610
201805310060000600000000000000819045000000000000008190459900000000000000000000Consumidor Final              000000000089500000000000089500000000000000000000000000000000000000000000000000000000000000000000000000000000000000000000PES00010000001N00000000000000020180610
201805310060000700000000000000599608000000000000005996089900000000000000000000Consumidor Final              000000000089500000000000089500000000000000000000000000000000000000000000000000000000000000000000000000000000000000000000PES00010000001N00000000000000020180610
201805310060000600000000000000819046000000000000008190469900000000000000000000Consumidor Final              000000000089500000000000089500000000000000000000000000000000000000000000000000000000000000000000000000000000000000000000PES00010000001N00000000000000020180610
201805310060000600000000000000819047000000000000008190479900000000000000000000Consumidor Final              000000000089500000000000089500000000000000000000000000000000000000000000000000000000000000000000000000000000000000000000PES00010000001N00000000000000020180610
201805310060000700000000000000599609000000000000005996099900000000000000000000Consumidor Final              000000000089500000000000089500000000000000000000000000000000000000000000000000000000000000000000000000000000000000000000PES00010000001N00000000000000020180610
201805310060000900000000000000050472000000000000000504729900000000000000000000Consumidor Final              000000000042000000000000042000000000000000000000000000000000000000000000000000000000000000000000000000000000000000000000PES00010000001N00000000000000020180610
201805310060000700000000000000599610000000000000005996109900000000000000000000Consumidor Final              000000000089500000000000089500000000000000000000000000000000000000000000000000000000000000000000000000000000000000000000PES00010000001N00000000000000020180610
201805310060000600000000000000819048000000000000008190489900000000000000000000Consumidor Final              000000000089500000000000089500000000000000000000000000000000000000000000000000000000000000000000000000000000000000000000PES00010000001N00000000000000020180610
201805310060000600000000000000819026000000000000008190269900000000000000000000Consumidor Final              000000000078000000000000078000000000000000000000000000000000000000000000000000000000000000000000000000000000000000000000PES00010000001N00000000000000020180610
201805310060000600000000000000819027000000000000008190279900000000000000000000Consumidor Final              000000000089500000000000089500000000000000000000000000000000000000000000000000000000000000000000000000000000000000000000PES00010000001N00000000000000020180610
201805310060000600000000000000819028000000000000008190289900000000000000000000Consumidor Final              000000000089500000000000089500000000000000000000000000000000000000000000000000000000000000000000000000000000000000000000PES00010000001N00000000000000020180610
201805310060000600000000000000819029000000000000008190299900000000000000000000Consumidor Final              000000000092000000000000092000000000000000000000000000000000000000000000000000000000000000000000000000000000000000000000PES00010000001N00000000000000020180610
201805310060000600000000000000819030000000000000008190309900000000000000000000Consumidor Final              000000000089500000000000089500000000000000000000000000000000000000000000000000000000000000000000000000000000000000000000PES00010000001N00000000000000020180610
201805310060000700000000000000599596000000000000005995969900000000000000000000Consumidor Final              000000000089500000000000089500000000000000000000000000000000000000000000000000000000000000000000000000000000000000000000PES00010000001N00000000000000020180610
201805310060000700000000000000599597000000000000005995979900000000000000000000Consumidor Final              000000000089500000000000089500000000000000000000000000000000000000000000000000000000000000000000000000000000000000000000PES00010000001N00000000000000020180610
201805310060000600000000000000819033000000000000008190339900000000000000000000Consumidor Final              000000000089500000000000089500000000000000000000000000000000000000000000000000000000000000000000000000000000000000000000PES00010000001N00000000000000020180610
201805310060000600000000000000819034000000000000008190349900000000000000000000Consumidor Final              000000000089500000000000089500000000000000000000000000000000000000000000000000000000000000000000000000000000000000000000PES00010000001N00000000000000020180610
201805310060000600000000000000819035000000000000008190359900000000000000000000Consumidor Final              000000000089500000000000089500000000000000000000000000000000000000000000000000000000000000000000000000000000000000000000PES00010000001N00000000000000020180610
201805310060000700000000000000599629000000000000005996299900000000000000000000Consumidor Final              000000000089500000000000089500000000000000000000000000000000000000000000000000000000000000000000000000000000000000000000PES00010000001N00000000000000020180610
201805310060000800000000000000204166000000000000002041669900000000000000000000Consumidor Final              000000000078000000000000078000000000000000000000000000000000000000000000000000000000000000000000000000000000000000000000PES00010000001N00000000000000020180610
201805310060000800000000000000204167000000000000002041679900000000000000000000Consumidor Final              000000000078000000000000078000000000000000000000000000000000000000000000000000000000000000000000000000000000000000000000PES00010000001N00000000000000020180610
201805310060000800000000000000204168000000000000002041689900000000000000000000Consumidor Final              000000000078000000000000078000000000000000000000000000000000000000000000000000000000000000000000000000000000000000000000PES00010000001N00000000000000020180610
201805310060000800000000000000204169000000000000002041699900000000000000000000Consumidor Final              000000000078000000000000078000000000000000000000000000000000000000000000000000000000000000000000000000000000000000000000PES00010000001N00000000000000020180610
201805310060000600000000000000819049000000000000008190499900000000000000000000Consumidor Final              000000000089500000000000089500000000000000000000000000000000000000000000000000000000000000000000000000000000000000000000PES00010000001N00000000000000020180610
201805310060000700000000000000599613000000000000005996139000000000099999999999Consumidor Final              000000000103000000000000103000000000000000000000000000000000000000000000000000000000000000000000000000000000000000000000PES00010000001N00000000000000020180610
201805310060000900000000000000050473000000000000000504739900000000000000000000Consumidor Final              000000000098400000000000098400000000000000000000000000000000000000000000000000000000000000000000000000000000000000000000PES00010000001N00000000000000020180610
201805310060000600000000000000819054000000000000008190549000000000099999999999Consumidor Final              000000000100000000000000100000000000000000000000000000000000000000000000000000000000000000000000000000000000000000000000PES00010000001N00000000000000020180610
201805310060000600000000000000819055000000000000008190559900000000000000000000Consumidor Final              000000000098400000000000098400000000000000000000000000000000000000000000000000000000000000000000000000000000000000000000PES00010000001N00000000000000020180610
201805310060000600000000000000819056000000000000008190569900000000000000000000Consumidor Final              000000000089500000000000089500000000000000000000000000000000000000000000000000000000000000000000000000000000000000000000PES00010000001N00000000000000020180610
201805310060000600000000000000819065000000000000008190659900000000000000000000Consumidor Final              000000000089500000000000089500000000000000000000000000000000000000000000000000000000000000000000000000000000000000000000PES00010000001N00000000000000020180610
201805310060000700000000000000599611000000000000005996119900000000000000000000Consumidor Final              000000000089500000000000089500000000000000000000000000000000000000000000000000000000000000000000000000000000000000000000PES00010000001N00000000000000020180610
201805310060000600000000000000819062000000000000008190629000000000099999999999Consumidor Final              000000000101200000000000101200000000000000000000000000000000000000000000000000000000000000000000000000000000000000000000PES00010000001N00000000000000020180610
201805310060000600000000000000819066000000000000008190669900000000000000000000Consumidor Final              000000000085800000000000085800000000000000000000000000000000000000000000000000000000000000000000000000000000000000000000PES00010000001N00000000000000020180610
201805310060000600000000000000819067000000000000008190679900000000000000000000Consumidor Final              000000000078000000000000078000000000000000000000000000000000000000000000000000000000000000000000000000000000000000000000PES00010000001N00000000000000020180610
201805310060000600000000000000819068000000000000008190689900000000000000000000Consumidor Final              000000000085800000000000085800000000000000000000000000000000000000000000000000000000000000000000000000000000000000000000PES00010000001N00000000000000020180610
201805310060000700000000000000599639000000000000005996399900000000000000000000Consumidor Final              000000000089500000000000089500000000000000000000000000000000000000000000000000000000000000000000000000000000000000000000PES00010000001N00000000000000020180610
201805310060000700000000000000599646000000000000005996469900000000000000000000Consumidor Final              000000000089500000000000089500000000000000000000000000000000000000000000000000000000000000000000000000000000000000000000PES00010000001N00000000000000020180610
201805310060000700000000000000599647000000000000005996479900000000000000000000Consumidor Final              000000000089500000000000089500000000000000000000000000000000000000000000000000000000000000000000000000000000000000000000PES00010000001N00000000000000020180610
201805310060000700000000000000599648000000000000005996489900000000000000000000Consumidor Final              000000000089500000000000089500000000000000000000000000000000000000000000000000000000000000000000000000000000000000000000PES00010000001N00000000000000020180610
201805310060000700000000000000599649000000000000005996499900000000000000000000Consumidor Final              000000000089500000000000089500000000000000000000000000000000000000000000000000000000000000000000000000000000000000000000PES00010000001N00000000000000020180610
201805310060000700000000000000599650000000000000005996509000000000099999999999Consumidor Final              000000000104500000000000104500000000000000000000000000000000000000000000000000000000000000000000000000000000000000000000PES00010000001N00000000000000020180610
201805310060000700000000000000599668000000000000005996689900000000000000000000Consumidor Final              000000000089500000000000089500000000000000000000000000000000000000000000000000000000000000000000000000000000000000000000PES00010000001N00000000000000020180610
201805310060000700000000000000599669000000000000005996699900000000000000000000Consumidor Final              000000000089500000000000089500000000000000000000000000000000000000000000000000000000000000000000000000000000000000000000PES00010000001N00000000000000020180610
201805310060000700000000000000599670000000000000005996709900000000000000000000Consumidor Final              000000000089500000000000089500000000000000000000000000000000000000000000000000000000000000000000000000000000000000000000PES00010000001N00000000000000020180610
201805310060000700000000000000599671000000000000005996719900000000000000000000Consumidor Final              000000000089500000000000089500000000000000000000000000000000000000000000000000000000000000000000000000000000000000000000PES00010000001N00000000000000020180610
201805310060000700000000000000599678000000000000005996789900000000000000000000Consumidor Final              000000000089500000000000089500000000000000000000000000000000000000000000000000000000000000000000000000000000000000000000PES00010000001N00000000000000020180610
201805310060000700000000000000599679000000000000005996799900000000000000000000Consumidor Final              000000000089500000000000089500000000000000000000000000000000000000000000000000000000000000000000000000000000000000000000PES00010000001N00000000000000020180610
201805310060000700000000000000599680000000000000005996809900000000000000000000Consumidor Final              000000000098400000000000098400000000000000000000000000000000000000000000000000000000000000000000000000000000000000000000PES00010000001N00000000000000020180610
201805310060000700000000000000599685000000000000005996859900000000000000000000Consumidor Final              000000000089500000000000089500000000000000000000000000000000000000000000000000000000000000000000000000000000000000000000PES00010000001N00000000000000020180610
201805310060000700000000000000599686000000000000005996869900000000000000000000Consumidor Final              000000000089500000000000089500000000000000000000000000000000000000000000000000000000000000000000000000000000000000000000PES00010000001N00000000000000020180610
201805310060000700000000000000599687000000000000005996879900000000000000000000Consumidor Final              000000000089500000000000089500000000000000000000000000000000000000000000000000000000000000000000000000000000000000000000PES00010000001N00000000000000020180610
201805310060000700000000000000599700000000000000005997009900000000000000000000Consumidor Final              000000000089500000000000089500000000000000000000000000000000000000000000000000000000000000000000000000000000000000000000PES00010000001N00000000000000020180610
201805310060000700000000000000599706000000000000005997069900000000000000000000Consumidor Final              000000000089500000000000089500000000000000000000000000000000000000000000000000000000000000000000000000000000000000000000PES00010000001N00000000000000020180610
201805310060000800000000000000204192000000000000002041929900000000000000000000Consumidor Final              000000000042000000000000042000000000000000000000000000000000000000000000000000000000000000000000000000000000000000000000PES00010000001N00000000000000020180610
201805310060000800000000000000204193000000000000002041939900000000000000000000Consumidor Final              000000000078000000000000078000000000000000000000000000000000000000000000000000000000000000000000000000000000000000000000PES00010000001N00000000000000020180610
201805310060000800000000000000204194000000000000002041949900000000000000000000Consumidor Final              000000000078000000000000078000000000000000000000000000000000000000000000000000000000000000000000000000000000000000000000PES00010000001N00000000000000020180610
201805310060000800000000000000204195000000000000002041959900000000000000000000Consumidor Final              000000000078000000000000078000000000000000000000000000000000000000000000000000000000000000000000000000000000000000000000PES00010000001N00000000000000020180610
201805310060000800000000000000204196000000000000002041969900000000000000000000Consumidor Final              000000000078000000000000078000000000000000000000000000000000000000000000000000000000000000000000000000000000000000000000PES00010000001N00000000000000020180610
201805310060000800000000000000204197000000000000002041979900000000000000000000Consumidor Final              000000000078000000000000078000000000000000000000000000000000000000000000000000000000000000000000000000000000000000000000PES00010000001N00000000000000020180610
201805310060000800000000000000204198000000000000002041989900000000000000000000Consumidor Final              000000000078000000000000078000000000000000000000000000000000000000000000000000000000000000000000000000000000000000000000PES00010000001N00000000000000020180610
201805310060000800000000000000204199000000000000002041999900000000000000000000Consumidor Final              000000000078000000000000078000000000000000000000000000000000000000000000000000000000000000000000000000000000000000000000PES00010000001N00000000000000020180610
201805310060000800000000000000204200000000000000002042009900000000000000000000Consumidor Final              000000000078000000000000078000000000000000000000000000000000000000000000000000000000000000000000000000000000000000000000PES00010000001N00000000000000020180610
201805310060000600000000000000819085000000000000008190859900000000000000000000Consumidor Final              000000000089500000000000089500000000000000000000000000000000000000000000000000000000000000000000000000000000000000000000PES00010000001N00000000000000020180610
201805310060000600000000000000819087000000000000008190879900000000000000000000Consumidor Final              000000000089500000000000089500000000000000000000000000000000000000000000000000000000000000000000000000000000000000000000PES00010000001N00000000000000020180610
201805310060000600000000000000819088000000000000008190889900000000000000000000Consumidor Final              000000000098400000000000098400000000000000000000000000000000000000000000000000000000000000000000000000000000000000000000PES00010000001N00000000000000020180610
201805310060000600000000000000819089000000000000008190899900000000000000000000Consumidor Final              000000000098400000000000098400000000000000000000000000000000000000000000000000000000000000000000000000000000000000000000PES00010000001N00000000000000020180610
201805310060000600000000000000819090000000000000008190909900000000000000000000Consumidor Final              000000000089500000000000089500000000000000000000000000000000000000000000000000000000000000000000000000000000000000000000PES00010000001N00000000000000020180610
201805310060000600000000000000819091000000000000008190919900000000000000000000Consumidor Final              000000000089500000000000089500000000000000000000000000000000000000000000000000000000000000000000000000000000000000000000PES00010000001N00000000000000020180610
201805310060000600000000000000819092000000000000008190929900000000000000000000Consumidor Final              000000000089500000000000089500000000000000000000000000000000000000000000000000000000000000000000000000000000000000000000PES00010000001N00000000000000020180610
201805310060000600000000000000819093000000000000008190939900000000000000000000Consumidor Final              000000000098400000000000098400000000000000000000000000000000000000000000000000000000000000000000000000000000000000000000PES00010000001N00000000000000020180610
201805310060000600000000000000819096000000000000008190969900000000000000000000Consumidor Final              000000000098400000000000098400000000000000000000000000000000000000000000000000000000000000000000000000000000000000000000PES00010000001N00000000000000020180610
201805310060000600000000000000819097000000000000008190979900000000000000000000Consumidor Final              000000000098400000000000098400000000000000000000000000000000000000000000000000000000000000000000000000000000000000000000PES00010000001N00000000000000020180610
201805310060000700000000000000599612000000000000005996129000000000099999999999Consumidor Final              000000000104500000000000104500000000000000000000000000000000000000000000000000000000000000000000000000000000000000000000PES00010000001N00000000000000020180610
201805310060000600000000000000819050000000000000008190509900000000000000000000Consumidor Final              000000000085000000000000085000000000000000000000000000000000000000000000000000000000000000000000000000000000000000000000PES00010000001N00000000000000020180610
201805310060000600000000000000819051000000000000008190519900000000000000000000Consumidor Final              000000000085000000000000085000000000000000000000000000000000000000000000000000000000000000000000000000000000000000000000PES00010000001N00000000000000020180610
201805310060000600000000000000819052000000000000008190529900000000000000000000Consumidor Final              000000000085800000000000085800000000000000000000000000000000000000000000000000000000000000000000000000000000000000000000PES00010000001N00000000000000020180610
201805310060000600000000000000819053000000000000008190539900000000000000000000Consumidor Final              000000000089500000000000089500000000000000000000000000000000000000000000000000000000000000000000000000000000000000000000PES00010000001N00000000000000020180610
201805310060000700000000000000599614000000000000005996149000000000099999999999Consumidor Final              000000000104500000000000104500000000000000000000000000000000000000000000000000000000000000000000000000000000000000000000PES00010000001N00000000000000020180610
201805310060000700000000000000599615000000000000005996159900000000000000000000Consumidor Final              000000000085000000000000085000000000000000000000000000000000000000000000000000000000000000000000000000000000000000000000PES00010000001N00000000000000020180610
201805310060000700000000000000599616000000000000005996169900000000000000000000Consumidor Final              000000000090200000000000090200000000000000000000000000000000000000000000000000000000000000000000000000000000000000000000PES00010000001N00000000000000020180610
201805310060000700000000000000599617000000000000005996179900000000000000000000Consumidor Final              000000000089500000000000089500000000000000000000000000000000000000000000000000000000000000000000000000000000000000000000PES00010000001N00000000000000020180610
201805310060000700000000000000599618000000000000005996189900000000000000000000Consumidor Final              000000000089500000000000089500000000000000000000000000000000000000000000000000000000000000000000000000000000000000000000PES00010000001N00000000000000020180610
201805310060000600000000000000819057000000000000008190579000000000099999999999Consumidor Final              000000000104500000000000104500000000000000000000000000000000000000000000000000000000000000000000000000000000000000000000PES00010000001N00000000000000020180610
201805310060000600000000000000819059000000000000008190599900000000000000000000Consumidor Final              000000000089500000000000089500000000000000000000000000000000000000000000000000000000000000000000000000000000000000000000PES00010000001N00000000000000020180610
201805310060000600000000000000819060000000000000008190609900000000000000000000Consumidor Final              000000000089500000000000089500000000000000000000000000000000000000000000000000000000000000000000000000000000000000000000PES00010000001N00000000000000020180610
201805310060000600000000000000819061000000000000008190619900000000000000000000Consumidor Final              000000000092000000000000092000000000000000000000000000000000000000000000000000000000000000000000000000000000000000000000PES00010000001N00000000000000020180610
201805310060000700000000000000599619000000000000005996199900000000000000000000Consumidor Final              000000000098500000000000098500000000000000000000000000000000000000000000000000000000000000000000000000000000000000000000PES00010000001N00000000000000020180610
201805310060000700000000000000599620000000000000005996209900000000000000000000Consumidor Final              000000000089500000000000089500000000000000000000000000000000000000000000000000000000000000000000000000000000000000000000PES00010000001N00000000000000020180610
201805310060000700000000000000599621000000000000005996219900000000000000000000Consumidor Final              000000000089500000000000089500000000000000000000000000000000000000000000000000000000000000000000000000000000000000000000PES00010000001N00000000000000020180610
201805310060000600000000000000819063000000000000008190639900000000000000000000Consumidor Final              000000000089500000000000089500000000000000000000000000000000000000000000000000000000000000000000000000000000000000000000PES00010000001N00000000000000020180610
201805310060000700000000000000599622000000000000005996229900000000000000000000Consumidor Final              000000000089500000000000089500000000000000000000000000000000000000000000000000000000000000000000000000000000000000000000PES00010000001N00000000000000020180610
201805310060000600000000000000819064000000000000008190649900000000000000000000Consumidor Final              000000000089500000000000089500000000000000000000000000000000000000000000000000000000000000000000000000000000000000000000PES00010000001N00000000000000020180610
201805310060000600000000000000819058000000000000008190589900000000000000000000Consumidor Final              000000000089500000000000089500000000000000000000000000000000000000000000000000000000000000000000000000000000000000000000PES00010000001N00000000000000020180610
201805310060000800000000000000204170000000000000002041709900000000000000000000Consumidor Final              000000000078000000000000078000000000000000000000000000000000000000000000000000000000000000000000000000000000000000000000PES00010000001N00000000000000020180610
201805310060000800000000000000204171000000000000002041719900000000000000000000Consumidor Final              000000000078000000000000078000000000000000000000000000000000000000000000000000000000000000000000000000000000000000000000PES00010000001N00000000000000020180610
201805310060000800000000000000204172000000000000002041729900000000000000000000Consumidor Final              000000000078000000000000078000000000000000000000000000000000000000000000000000000000000000000000000000000000000000000000PES00010000001N00000000000000020180610
201805310060000700000000000000599623000000000000005996239900000000000000000000Consumidor Final              000000000089500000000000089500000000000000000000000000000000000000000000000000000000000000000000000000000000000000000000PES00010000001N00000000000000020180610
201805310060000700000000000000599624000000000000005996249900000000000000000000Consumidor Final              000000000098400000000000098400000000000000000000000000000000000000000000000000000000000000000000000000000000000000000000PES00010000001N00000000000000020180610
201805310060000700000000000000599625000000000000005996259900000000000000000000Consumidor Final              000000000089500000000000089500000000000000000000000000000000000000000000000000000000000000000000000000000000000000000000PES00010000001N00000000000000020180610
201805310060000700000000000000599626000000000000005996269900000000000000000000Consumidor Final              000000000089500000000000089500000000000000000000000000000000000000000000000000000000000000000000000000000000000000000000PES00010000001N00000000000000020180610
201805310060000700000000000000599627000000000000005996279900000000000000000000Consumidor Final              000000000098400000000000098400000000000000000000000000000000000000000000000000000000000000000000000000000000000000000000PES00010000001N00000000000000020180610
201805310060000700000000000000599628000000000000005996289900000000000000000000Consumidor Final              000000000098400000000000098400000000000000000000000000000000000000000000000000000000000000000000000000000000000000000000PES00010000001N00000000000000020180610
201805310060000700000000000000599638000000000000005996389900000000000000000000Consumidor Final              000000000089500000000000089500000000000000000000000000000000000000000000000000000000000000000000000000000000000000000000PES00010000001N00000000000000020180610
201805310060000700000000000000599630000000000000005996309000000000099999999999Consumidor Final              000000000104500000000000104500000000000000000000000000000000000000000000000000000000000000000000000000000000000000000000PES00010000001N00000000000000020180610
201805310060000700000000000000599631000000000000005996319900000000000000000000Consumidor Final              000000000098400000000000098400000000000000000000000000000000000000000000000000000000000000000000000000000000000000000000PES00010000001N00000000000000020180610
201805310060000700000000000000599632000000000000005996329900000000000000000000Consumidor Final              000000000089500000000000089500000000000000000000000000000000000000000000000000000000000000000000000000000000000000000000PES00010000001N00000000000000020180610
201805310060000700000000000000599633000000000000005996339900000000000000000000Consumidor Final              000000000089500000000000089500000000000000000000000000000000000000000000000000000000000000000000000000000000000000000000PES00010000001N00000000000000020180610
201805310060000700000000000000599634000000000000005996349900000000000000000000Consumidor Final              000000000089500000000000089500000000000000000000000000000000000000000000000000000000000000000000000000000000000000000000PES00010000001N00000000000000020180610
201805310060000600000000000000819069000000000000008190699900000000000000000000Consumidor Final              000000000089500000000000089500000000000000000000000000000000000000000000000000000000000000000000000000000000000000000000PES00010000001N00000000000000020180610
201805310060000700000000000000599635000000000000005996359900000000000000000000Consumidor Final              000000000089500000000000089500000000000000000000000000000000000000000000000000000000000000000000000000000000000000000000PES00010000001N00000000000000020180610
201805310060000700000000000000599636000000000000005996369900000000000000000000Consumidor Final              000000000089500000000000089500000000000000000000000000000000000000000000000000000000000000000000000000000000000000000000PES00010000001N00000000000000020180610
201805310060000700000000000000599637000000000000005996379900000000000000000000Consumidor Final              000000000089500000000000089500000000000000000000000000000000000000000000000000000000000000000000000000000000000000000000PES00010000001N00000000000000020180610
201805310060000600000000000000819070000000000000008190709900000000000000000000Consumidor Final              000000000093500000000000093500000000000000000000000000000000000000000000000000000000000000000000000000000000000000000000PES00010000001N00000000000000020180610
201805310060000700000000000000599640000000000000005996409900000000000000000000Consumidor Final              000000000089500000000000089500000000000000000000000000000000000000000000000000000000000000000000000000000000000000000000PES00010000001N00000000000000020180610
201805310060000700000000000000599641000000000000005996419900000000000000000000Consumidor Final              000000000089500000000000089500000000000000000000000000000000000000000000000000000000000000000000000000000000000000000000PES00010000001N00000000000000020180610
201805310060000700000000000000599642000000000000005996429900000000000000000000Consumidor Final              000000000089500000000000089500000000000000000000000000000000000000000000000000000000000000000000000000000000000000000000PES00010000001N00000000000000020180610
201805310060000700000000000000599643000000000000005996439900000000000000000000Consumidor Final              000000000089500000000000089500000000000000000000000000000000000000000000000000000000000000000000000000000000000000000000PES00010000001N00000000000000020180610
201805310060000700000000000000599644000000000000005996449900000000000000000000Consumidor Final              000000000089500000000000089500000000000000000000000000000000000000000000000000000000000000000000000000000000000000000000PES00010000001N00000000000000020180610
201805310060000700000000000000599645000000000000005996459900000000000000000000Consumidor Final              000000000089500000000000089500000000000000000000000000000000000000000000000000000000000000000000000000000000000000000000PES00010000001N00000000000000020180610
201805310060000700000000000000599652000000000000005996529900000000000000000000Consumidor Final              000000000089500000000000089500000000000000000000000000000000000000000000000000000000000000000000000000000000000000000000PES00010000001N00000000000000020180610
201805310060000700000000000000599653000000000000005996539900000000000000000000Consumidor Final              000000000089500000000000089500000000000000000000000000000000000000000000000000000000000000000000000000000000000000000000PES00010000001N00000000000000020180610
201805310060000700000000000000599654000000000000005996549900000000000000000000Consumidor Final              000000000089500000000000089500000000000000000000000000000000000000000000000000000000000000000000000000000000000000000000PES00010000001N00000000000000020180610
201805310060000700000000000000599655000000000000005996559900000000000000000000Consumidor Final              000000000089500000000000089500000000000000000000000000000000000000000000000000000000000000000000000000000000000000000000PES00010000001N00000000000000020180610
201805310060000700000000000000599656000000000000005996569900000000000000000000Consumidor Final              000000000089500000000000089500000000000000000000000000000000000000000000000000000000000000000000000000000000000000000000PES00010000001N00000000000000020180610
201805310060000700000000000000599651000000000000005996519900000000000000000000Consumidor Final              000000000089500000000000089500000000000000000000000000000000000000000000000000000000000000000000000000000000000000000000PES00010000001N00000000000000020180610
201805310060000800000000000000204173000000000000002041739900000000000000000000Consumidor Final              000000000078000000000000078000000000000000000000000000000000000000000000000000000000000000000000000000000000000000000000PES00010000001N00000000000000020180610
201805310060000800000000000000204174000000000000002041749900000000000000000000Consumidor Final              000000000085800000000000085800000000000000000000000000000000000000000000000000000000000000000000000000000000000000000000PES00010000001N00000000000000020180610
201805310060000800000000000000204175000000000000002041759900000000000000000000Consumidor Final              000000000085000000000000085000000000000000000000000000000000000000000000000000000000000000000000000000000000000000000000PES00010000001N00000000000000020180610
201805310060000800000000000000204176000000000000002041769900000000000000000000Consumidor Final              000000000078000000000000078000000000000000000000000000000000000000000000000000000000000000000000000000000000000000000000PES00010000001N00000000000000020180610
201805310060000800000000000000204177000000000000002041779900000000000000000000Consumidor Final              000000000078000000000000078000000000000000000000000000000000000000000000000000000000000000000000000000000000000000000000PES00010000001N00000000000000020180610
201805310060000800000000000000204178000000000000002041789900000000000000000000Consumidor Final              000000000078000000000000078000000000000000000000000000000000000000000000000000000000000000000000000000000000000000000000PES00010000001N00000000000000020180610
201805310060000800000000000000204179000000000000002041799900000000000000000000Consumidor Final              000000000078000000000000078000000000000000000000000000000000000000000000000000000000000000000000000000000000000000000000PES00010000001N00000000000000020180610
201805310060000700000000000000599691000000000000005996919900000000000000000000Consumidor Final              000000000089500000000000089500000000000000000000000000000000000000000000000000000000000000000000000000000000000000000000PES00010000001N00000000000000020180610
201805310060000700000000000000599692000000000000005996929900000000000000000000Consumidor Final              000000000089500000000000089500000000000000000000000000000000000000000000000000000000000000000000000000000000000000000000PES00010000001N00000000000000020180610
201805310060000700000000000000599657000000000000005996579000000000099999999999Consumidor Final              000000000134000000000000134000000000000000000000000000000000000000000000000000000000000000000000000000000000000000000000PES00010000001N00000000000000020180610
201805310060000700000000000000599658000000000000005996589900000000000000000000Consumidor Final              000000000089500000000000089500000000000000000000000000000000000000000000000000000000000000000000000000000000000000000000PES00010000001N00000000000000020180610
