201802280060000600000000000000801525000000000000008015259000000000099999999999Consumidor Final              000000000101200000000000101200000000000000000000000000000000000000000000000000000000000000000000000000000000000000000000PES00010000001N00000000000000020180310
201802280060000700000000000000583560000000000000005835609900000000000000000000Consumidor Final              000000000078000000000000078000000000000000000000000000000000000000000000000000000000000000000000000000000000000000000000PES00010000001N00000000000000020180310
201802280060000700000000000000583561000000000000005835619900000000000000000000Consumidor Final              000000000085800000000000085800000000000000000000000000000000000000000000000000000000000000000000000000000000000000000000PES00010000001N00000000000000020180310
201802280060000700000000000000583562000000000000005835629900000000000000000000Consumidor Final              000000000078000000000000078000000000000000000000000000000000000000000000000000000000000000000000000000000000000000000000PES00010000001N00000000000000020180310
201802280060000700000000000000583563000000000000005835639900000000000000000000Consumidor Final              000000000085800000000000085800000000000000000000000000000000000000000000000000000000000000000000000000000000000000000000PES00010000001N00000000000000020180310
201802280060000700000000000000583564000000000000005835649900000000000000000000Consumidor Final              000000000085800000000000085800000000000000000000000000000000000000000000000000000000000000000000000000000000000000000000PES00010000001N00000000000000020180310
201802280060000900000000000000047784000000000000000477849900000000000000000000Consumidor Final              000000000084000000000000084000000000000000000000000000000000000000000000000000000000000000000000000000000000000000000000PES00010000001N00000000000000020180310
201802280060000900000000000000047785000000000000000477859900000000000000000000Consumidor Final              000000000078000000000000078000000000000000000000000000000000000000000000000000000000000000000000000000000000000000000000PES00010000001N00000000000000020180310
201802280060000900000000000000047786000000000000000477869900000000000000000000Consumidor Final              000000000085800000000000085800000000000000000000000000000000000000000000000000000000000000000000000000000000000000000000PES00010000001N00000000000000020180310
201802280060000700000000000000583572000000000000005835729900000000000000000000Consumidor Final              000000000085800000000000085800000000000000000000000000000000000000000000000000000000000000000000000000000000000000000000PES00010000001N00000000000000020180310
201802280060000700000000000000583404000000000000005834049900000000000000000000Consumidor Final              000000000085800000000000085800000000000000000000000000000000000000000000000000000000000000000000000000000000000000000000PES00010000001N00000000000000020180310
201802280060000700000000000000583405000000000000005834059900000000000000000000Consumidor Final              000000000078000000000000078000000000000000000000000000000000000000000000000000000000000000000000000000000000000000000000PES00010000001N00000000000000020180310
201802280060000700000000000000583406000000000000005834069900000000000000000000Consumidor Final              000000000078000000000000078000000000000000000000000000000000000000000000000000000000000000000000000000000000000000000000PES00010000001N00000000000000020180310
201802280060000900000000000000047743000000000000000477439900000000000000000000Consumidor Final              000000000078000000000000078000000000000000000000000000000000000000000000000000000000000000000000000000000000000000000000PES00010000001N00000000000000020180310
201802280060000700000000000000583407000000000000005834079900000000000000000000Consumidor Final              000000000078000000000000078000000000000000000000000000000000000000000000000000000000000000000000000000000000000000000000PES00010000001N00000000000000020180310
201802280060000700000000000000583408000000000000005834089900000000000000000000Consumidor Final              000000000094000000000000094000000000000000000000000000000000000000000000000000000000000000000000000000000000000000000000PES00010000001N00000000000000020180310
201802280060000700000000000000583409000000000000005834099900000000000000000000Consumidor Final              000000000078000000000000078000000000000000000000000000000000000000000000000000000000000000000000000000000000000000000000PES00010000001N00000000000000020180310
201802280060000700000000000000583410000000000000005834109900000000000000000000Consumidor Final              000000000078000000000000078000000000000000000000000000000000000000000000000000000000000000000000000000000000000000000000PES00010000001N00000000000000020180310
201802280060000700000000000000583431000000000000005834319900000000000000000000Consumidor Final              000000000078000000000000078000000000000000000000000000000000000000000000000000000000000000000000000000000000000000000000PES00010000001N00000000000000020180310
201802280060000700000000000000583432000000000000005834329900000000000000000000Consumidor Final              000000000078000000000000078000000000000000000000000000000000000000000000000000000000000000000000000000000000000000000000PES00010000001N00000000000000020180310
201802280060000700000000000000583433000000000000005834339900000000000000000000Consumidor Final              000000000069000000000000069000000000000000000000000000000000000000000000000000000000000000000000000000000000000000000000PES00010000001N00000000000000020180310
201802280060000700000000000000583434000000000000005834349900000000000000000000Consumidor Final              000000000089000000000000089000000000000000000000000000000000000000000000000000000000000000000000000000000000000000000000PES00010000001N00000000000000020180310
201802280060000700000000000000583435000000000000005834359900000000000000000000Consumidor Final              000000000078000000000000078000000000000000000000000000000000000000000000000000000000000000000000000000000000000000000000PES00010000001N00000000000000020180310
201802280060000700000000000000583436000000000000005834369900000000000000000000Consumidor Final              000000000078000000000000078000000000000000000000000000000000000000000000000000000000000000000000000000000000000000000000PES00010000001N00000000000000020180310
201802280060000600000000000000801358000000000000008013589900000000000000000000Consumidor Final              000000000078000000000000078000000000000000000000000000000000000000000000000000000000000000000000000000000000000000000000PES00010000001N00000000000000020180310
201802280060000600000000000000801359000000000000008013599900000000000000000000Consumidor Final              000000000078000000000000078000000000000000000000000000000000000000000000000000000000000000000000000000000000000000000000PES00010000001N00000000000000020180310
201802280060000600000000000000801360000000000000008013609900000000000000000000Consumidor Final              000000000078000000000000078000000000000000000000000000000000000000000000000000000000000000000000000000000000000000000000PES00010000001N00000000000000020180310
201802280060000700000000000000583411000000000000005834119900000000000000000000Consumidor Final              000000000078000000000000078000000000000000000000000000000000000000000000000000000000000000000000000000000000000000000000PES00010000001N00000000000000020180310
201802280060000800000000000000198746000000000000001987469900000000000000000000Consumidor Final              000000000028000000000000028000000000000000000000000000000000000000000000000000000000000000000000000000000000000000000000PES00010000001N00000000000000020180310
201802280060000800000000000000198747000000000000001987479900000000000000000000Consumidor Final              000000000026000000000000026000000000000000000000000000000000000000000000000000000000000000000000000000000000000000000000PES00010000001N00000000000000020180310
201802280060000700000000000000583443000000000000005834439900000000000000000000Consumidor Final              000000000069000000000000069000000000000000000000000000000000000000000000000000000000000000000000000000000000000000000000PES00010000001N00000000000000020180310
201802280060000700000000000000583444000000000000005834449900000000000000000000Consumidor Final              000000000079000000000000079000000000000000000000000000000000000000000000000000000000000000000000000000000000000000000000PES00010000001N00000000000000020180310
201802280060000700000000000000583445000000000000005834459900000000000000000000Consumidor Final              000000000079000000000000079000000000000000000000000000000000000000000000000000000000000000000000000000000000000000000000PES00010000001N00000000000000020180310
201802280060000700000000000000583446000000000000005834469900000000000000000000Consumidor Final              000000000092000000000000092000000000000000000000000000000000000000000000000000000000000000000000000000000000000000000000PES00010000001N00000000000000020180310
201802280060000700000000000000583447000000000000005834479900000000000000000000Consumidor Final              000000000081000000000000081000000000000000000000000000000000000000000000000000000000000000000000000000000000000000000000PES00010000001N00000000000000020180310
201802280060000700000000000000583448000000000000005834489000000000099999999999Consumidor Final              000000000108000000000000108000000000000000000000000000000000000000000000000000000000000000000000000000000000000000000000PES00010000001N00000000000000020180310
201802280060000700000000000000583449000000000000005834499900000000000000000000Consumidor Final              000000000092000000000000092000000000000000000000000000000000000000000000000000000000000000000000000000000000000000000000PES00010000001N00000000000000020180310
201802280060000700000000000000583450000000000000005834509900000000000000000000Consumidor Final              000000000069000000000000069000000000000000000000000000000000000000000000000000000000000000000000000000000000000000000000PES00010000001N00000000000000020180310
201802280060000700000000000000583412000000000000005834129900000000000000000000Consumidor Final              000000000076000000000000076000000000000000000000000000000000000000000000000000000000000000000000000000000000000000000000PES00010000001N00000000000000020180310
201802280060000800000000000000198739000000000000001987399900000000000000000000Consumidor Final              000000000068000000000000068000000000000000000000000000000000000000000000000000000000000000000000000000000000000000000000PES00010000001N00000000000000020180310
201802280060000800000000000000198740000000000000001987409900000000000000000000Consumidor Final              000000000068000000000000068000000000000000000000000000000000000000000000000000000000000000000000000000000000000000000000PES00010000001N00000000000000020180310
201802280060000800000000000000198741000000000000001987419900000000000000000000Consumidor Final              000000000068000000000000068000000000000000000000000000000000000000000000000000000000000000000000000000000000000000000000PES00010000001N00000000000000020180310
201802280060000800000000000000198742000000000000001987429900000000000000000000Consumidor Final              000000000068000000000000068000000000000000000000000000000000000000000000000000000000000000000000000000000000000000000000PES00010000001N00000000000000020180310
201802280060000800000000000000198743000000000000001987439900000000000000000000Consumidor Final              000000000068000000000000068000000000000000000000000000000000000000000000000000000000000000000000000000000000000000000000PES00010000001N00000000000000020180310
201802280060000800000000000000198744000000000000001987449900000000000000000000Consumidor Final              000000000068000000000000068000000000000000000000000000000000000000000000000000000000000000000000000000000000000000000000PES00010000001N00000000000000020180310
201802280060000800000000000000198745000000000000001987459900000000000000000000Consumidor Final              000000000068000000000000068000000000000000000000000000000000000000000000000000000000000000000000000000000000000000000000PES00010000001N00000000000000020180310
201802280060000800000000000000198748000000000000001987489900000000000000000000Consumidor Final              000000000038000000000000038000000000000000000000000000000000000000000000000000000000000000000000000000000000000000000000PES00010000001N00000000000000020180310
201802280060000800000000000000198749000000000000001987499900000000000000000000Consumidor Final              000000000038000000000000038000000000000000000000000000000000000000000000000000000000000000000000000000000000000000000000PES00010000001N00000000000000020180310
201802280060000800000000000000198750000000000000001987509900000000000000000000Consumidor Final              000000000068000000000000068000000000000000000000000000000000000000000000000000000000000000000000000000000000000000000000PES00010000001N00000000000000020180310
201802280060000700000000000000583413000000000000005834139900000000000000000000Consumidor Final              000000000038000000000000038000000000000000000000000000000000000000000000000000000000000000000000000000000000000000000000PES00010000001N00000000000000020180310
201802280060000700000000000000583414000000000000005834149900000000000000000000Consumidor Final              000000000075000000000000075000000000000000000000000000000000000000000000000000000000000000000000000000000000000000000000PES00010000001N00000000000000020180310
201802280060000600000000000000801351000000000000008013519900000000000000000000Consumidor Final              000000000078000000000000078000000000000000000000000000000000000000000000000000000000000000000000000000000000000000000000PES00010000001N00000000000000020180310
201802280060000700000000000000583416000000000000005834169900000000000000000000Consumidor Final              000000000078000000000000078000000000000000000000000000000000000000000000000000000000000000000000000000000000000000000000PES00010000001N00000000000000020180310
201802280510000100000000000000001310000000000000000013108000000000030710320337CCIC SOUTH AMERICA SRL        000000000068000000000000068000000000000000000000000000000000000000000000000000000000000000000000000000000000000000000000PES00010000001N00000000000000000000000
201802280060000800000000000000198751000000000000001987519900000000000000000000Consumidor Final              000000000068000000000000068000000000000000000000000000000000000000000000000000000000000000000000000000000000000000000000PES00010000001N00000000000000020180310
201802280060000800000000000000198752000000000000001987529900000000000000000000Consumidor Final              000000000068000000000000068000000000000000000000000000000000000000000000000000000000000000000000000000000000000000000000PES00010000001N00000000000000020180310
201802280060000800000000000000198753000000000000001987539900000000000000000000Consumidor Final              000000000068000000000000068000000000000000000000000000000000000000000000000000000000000000000000000000000000000000000000PES00010000001N00000000000000020180310
201802280060000800000000000000198754000000000000001987549900000000000000000000Consumidor Final              000000000078000000000000078000000000000000000000000000000000000000000000000000000000000000000000000000000000000000000000PES00010000001N00000000000000020180310
201802280060000800000000000000198755000000000000001987559900000000000000000000Consumidor Final              000000000068000000000000068000000000000000000000000000000000000000000000000000000000000000000000000000000000000000000000PES00010000001N00000000000000020180310
201802280060000700000000000000583437000000000000005834379900000000000000000000Consumidor Final              000000000069000000000000069000000000000000000000000000000000000000000000000000000000000000000000000000000000000000000000PES00010000001N00000000000000020180310
201802280060000700000000000000583438000000000000005834389900000000000000000000Consumidor Final              000000000078000000000000078000000000000000000000000000000000000000000000000000000000000000000000000000000000000000000000PES00010000001N00000000000000020180310
201802280060000700000000000000583439000000000000005834399900000000000000000000Consumidor Final              000000000078000000000000078000000000000000000000000000000000000000000000000000000000000000000000000000000000000000000000PES00010000001N00000000000000020180310
201802280060000700000000000000583440000000000000005834409900000000000000000000Consumidor Final              000000000078000000000000078000000000000000000000000000000000000000000000000000000000000000000000000000000000000000000000PES00010000001N00000000000000020180310
201802280060000600000000000000801353000000000000008013539900000000000000000000Consumidor Final              000000000083000000000000083000000000000000000000000000000000000000000000000000000000000000000000000000000000000000000000PES00010000001N00000000000000020180310
201802280060000700000000000000583441000000000000005834419900000000000000000000Consumidor Final              000000000092000000000000092000000000000000000000000000000000000000000000000000000000000000000000000000000000000000000000PES00010000001N00000000000000020180310
201802280060000600000000000000801354000000000000008013549900000000000000000000Consumidor Final              000000000089000000000000089000000000000000000000000000000000000000000000000000000000000000000000000000000000000000000000PES00010000001N00000000000000020180310
201802280060000700000000000000583442000000000000005834429900000000000000000000Consumidor Final              000000000084000000000000084000000000000000000000000000000000000000000000000000000000000000000000000000000000000000000000PES00010000001N00000000000000020180310
201802280060000600000000000000801355000000000000008013559900000000000000000000Consumidor Final              000000000089000000000000089000000000000000000000000000000000000000000000000000000000000000000000000000000000000000000000PES00010000001N00000000000000020180310
201802280060000600000000000000801356000000000000008013569900000000000000000000Consumidor Final              000000000092000000000000092000000000000000000000000000000000000000000000000000000000000000000000000000000000000000000000PES00010000001N00000000000000020180310
201802280060000600000000000000801357000000000000008013579900000000000000000000Consumidor Final              000000000078000000000000078000000000000000000000000000000000000000000000000000000000000000000000000000000000000000000000PES00010000001N00000000000000020180310
201802280060000700000000000000583451000000000000005834519900000000000000000000Consumidor Final              000000000086900000000000086900000000000000000000000000000000000000000000000000000000000000000000000000000000000000000000PES00010000001N00000000000000020180310
201802280060000600000000000000801366000000000000008013669900000000000000000000Consumidor Final              000000000075000000000000075000000000000000000000000000000000000000000000000000000000000000000000000000000000000000000000PES00010000001N00000000000000020180310
201802280060000700000000000000583452000000000000005834529900000000000000000000Consumidor Final              000000000085800000000000085800000000000000000000000000000000000000000000000000000000000000000000000000000000000000000000PES00010000001N00000000000000020180310
201802280060000600000000000000801367000000000000008013679900000000000000000000Consumidor Final              000000000078000000000000078000000000000000000000000000000000000000000000000000000000000000000000000000000000000000000000PES00010000001N00000000000000020180310
201802280060000600000000000000801368000000000000008013689900000000000000000000Consumidor Final              000000000078000000000000078000000000000000000000000000000000000000000000000000000000000000000000000000000000000000000000PES00010000001N00000000000000020180310
201802280060000600000000000000801369000000000000008013699900000000000000000000Consumidor Final              000000000078000000000000078000000000000000000000000000000000000000000000000000000000000000000000000000000000000000000000PES00010000001N00000000000000020180310
201802280060000600000000000000801370000000000000008013709900000000000000000000Consumidor Final              000000000092000000000000092000000000000000000000000000000000000000000000000000000000000000000000000000000000000000000000PES00010000001N00000000000000020180310
201802280060000600000000000000801371000000000000008013719900000000000000000000Consumidor Final              000000000092000000000000092000000000000000000000000000000000000000000000000000000000000000000000000000000000000000000000PES00010000001N00000000000000020180310
201802280060000600000000000000801372000000000000008013729900000000000000000000Consumidor Final              000000000095000000000000095000000000000000000000000000000000000000000000000000000000000000000000000000000000000000000000PES00010000001N00000000000000020180310
201802280060000600000000000000801374000000000000008013749900000000000000000000Consumidor Final              000000000078000000000000078000000000000000000000000000000000000000000000000000000000000000000000000000000000000000000000PES00010000001N00000000000000020180310
201802280060000700000000000000583458000000000000005834589900000000000000000000Consumidor Final              000000000078000000000000078000000000000000000000000000000000000000000000000000000000000000000000000000000000000000000000PES00010000001N00000000000000020180310
201802280060000700000000000000583477000000000000005834779900000000000000000000Consumidor Final              000000000078000000000000078000000000000000000000000000000000000000000000000000000000000000000000000000000000000000000000PES00010000001N00000000000000020180310
201802280060000600000000000000801389000000000000008013899000000000099999999999Consumidor Final              000000000104500000000000104500000000000000000000000000000000000000000000000000000000000000000000000000000000000000000000PES00010000001N00000000000000020180310
201802280060000600000000000000801390000000000000008013909000000000099999999999Consumidor Final              000000000104500000000000104500000000000000000000000000000000000000000000000000000000000000000000000000000000000000000000PES00010000001N00000000000000020180310
201802280060000600000000000000801391000000000000008013919000000000099999999999Consumidor Final              000000000104500000000000104500000000000000000000000000000000000000000000000000000000000000000000000000000000000000000000PES00010000001N00000000000000020180310
201802280060000700000000000000583478000000000000005834789900000000000000000000Consumidor Final              000000000085800000000000085800000000000000000000000000000000000000000000000000000000000000000000000000000000000000000000PES00010000001N00000000000000020180310
201802280060000600000000000000801392000000000000008013929000000000099999999999Consumidor Final              000000000104500000000000104500000000000000000000000000000000000000000000000000000000000000000000000000000000000000000000PES00010000001N00000000000000020180310
201802280060000700000000000000583479000000000000005834799900000000000000000000Consumidor Final              000000000085800000000000085800000000000000000000000000000000000000000000000000000000000000000000000000000000000000000000PES00010000001N00000000000000020180310
201802280060000700000000000000583480000000000000005834809900000000000000000000Consumidor Final              000000000078000000000000078000000000000000000000000000000000000000000000000000000000000000000000000000000000000000000000PES00010000001N00000000000000020180310
201802280060000700000000000000583481000000000000005834819900000000000000000000Consumidor Final              000000000078000000000000078000000000000000000000000000000000000000000000000000000000000000000000000000000000000000000000PES00010000001N00000000000000020180310
201802280060000700000000000000583459000000000000005834599000000000099999999999Consumidor Final              000000000102300000000000102300000000000000000000000000000000000000000000000000000000000000000000000000000000000000000000PES00010000001N00000000000000020180310
201802280060000600000000000000801373000000000000008013739000000000099999999999Consumidor Final              000000000101200000000000101200000000000000000000000000000000000000000000000000000000000000000000000000000000000000000000PES00010000001N00000000000000020180310
201802280060000600000000000000801393000000000000008013939900000000000000000000Consumidor Final              000000000078000000000000078000000000000000000000000000000000000000000000000000000000000000000000000000000000000000000000PES00010000001N00000000000000020180310
201802280060000600000000000000801394000000000000008013949900000000000000000000Consumidor Final              000000000089100000000000089100000000000000000000000000000000000000000000000000000000000000000000000000000000000000000000PES00010000001N00000000000000020180310
201802280060000600000000000000801395000000000000008013959900000000000000000000Consumidor Final              000000000078000000000000078000000000000000000000000000000000000000000000000000000000000000000000000000000000000000000000PES00010000001N00000000000000020180310
201802280060000600000000000000801396000000000000008013969000000000099999999999Consumidor Final              000000000104500000000000104500000000000000000000000000000000000000000000000000000000000000000000000000000000000000000000PES00010000001N00000000000000020180310
201802280060000700000000000000583484000000000000005834849900000000000000000000Consumidor Final              000000000078000000000000078000000000000000000000000000000000000000000000000000000000000000000000000000000000000000000000PES00010000001N00000000000000020180310
201802280060000700000000000000583485000000000000005834859900000000000000000000Consumidor Final              000000000078000000000000078000000000000000000000000000000000000000000000000000000000000000000000000000000000000000000000PES00010000001N00000000000000020180310
201802280060000600000000000000801397000000000000008013979900000000000000000000Consumidor Final              000000000085800000000000085800000000000000000000000000000000000000000000000000000000000000000000000000000000000000000000PES00010000001N00000000000000020180310
201802280060000700000000000000583486000000000000005834869900000000000000000000Consumidor Final              000000000078000000000000078000000000000000000000000000000000000000000000000000000000000000000000000000000000000000000000PES00010000001N00000000000000020180310
201802280060000700000000000000583460000000000000005834609900000000000000000000Consumidor Final              000000000085800000000000085800000000000000000000000000000000000000000000000000000000000000000000000000000000000000000000PES00010000001N00000000000000020180310
201802280060000700000000000000583473000000000000005834739900000000000000000000Consumidor Final              000000000085800000000000085800000000000000000000000000000000000000000000000000000000000000000000000000000000000000000000PES00010000001N00000000000000020180310
201802280060000600000000000000801384000000000000008013849900000000000000000000Consumidor Final              000000000085800000000000085800000000000000000000000000000000000000000000000000000000000000000000000000000000000000000000PES00010000001N00000000000000020180310
201802280060000700000000000000583474000000000000005834749900000000000000000000Consumidor Final              000000000085800000000000085800000000000000000000000000000000000000000000000000000000000000000000000000000000000000000000PES00010000001N00000000000000020180310
201802280060000600000000000000801385000000000000008013859900000000000000000000Consumidor Final              000000000081000000000000081000000000000000000000000000000000000000000000000000000000000000000000000000000000000000000000PES00010000001N00000000000000020180310
201802280060000700000000000000583475000000000000005834759900000000000000000000Consumidor Final              000000000078000000000000078000000000000000000000000000000000000000000000000000000000000000000000000000000000000000000000PES00010000001N00000000000000020180310
201802280060000600000000000000801386000000000000008013869900000000000000000000Consumidor Final              000000000078000000000000078000000000000000000000000000000000000000000000000000000000000000000000000000000000000000000000PES00010000001N00000000000000020180310
201802280060000600000000000000801387000000000000008013879900000000000000000000Consumidor Final              000000000085800000000000085800000000000000000000000000000000000000000000000000000000000000000000000000000000000000000000PES00010000001N00000000000000020180310
201802280060000700000000000000583476000000000000005834769900000000000000000000Consumidor Final              000000000089100000000000089100000000000000000000000000000000000000000000000000000000000000000000000000000000000000000000PES00010000001N00000000000000020180310
201802280060000600000000000000801388000000000000008013889900000000000000000000Consumidor Final              000000000078000000000000078000000000000000000000000000000000000000000000000000000000000000000000000000000000000000000000PES00010000001N00000000000000020180310
201802280060000600000000000000801375000000000000008013759900000000000000000000Consumidor Final              000000000078000000000000078000000000000000000000000000000000000000000000000000000000000000000000000000000000000000000000PES00010000001N00000000000000020180310
201802280060000700000000000000583482000000000000005834829900000000000000000000Consumidor Final              000000000075000000000000075000000000000000000000000000000000000000000000000000000000000000000000000000000000000000000000PES00010000001N00000000000000020180310
201802280060000800000000000000198761000000000000001987619900000000000000000000Consumidor Final              000000000068000000000000068000000000000000000000000000000000000000000000000000000000000000000000000000000000000000000000PES00010000001N00000000000000020180310
201802280060000800000000000000198762000000000000001987629900000000000000000000Consumidor Final              000000000068000000000000068000000000000000000000000000000000000000000000000000000000000000000000000000000000000000000000PES00010000001N00000000000000020180310
201802280060000700000000000000583483000000000000005834839000000000099999999999Consumidor Final              000000000116000000000000116000000000000000000000000000000000000000000000000000000000000000000000000000000000000000000000PES00010000001N00000000000000020180310
201802280060000700000000000000583487000000000000005834879900000000000000000000Consumidor Final              000000000078000000000000078000000000000000000000000000000000000000000000000000000000000000000000000000000000000000000000PES00010000001N00000000000000020180310
201802280060000600000000000000801399000000000000008013999900000000000000000000Consumidor Final              000000000078000000000000078000000000000000000000000000000000000000000000000000000000000000000000000000000000000000000000PES00010000001N00000000000000020180310
201802280060000700000000000000583492000000000000005834929900000000000000000000Consumidor Final              000000000078000000000000078000000000000000000000000000000000000000000000000000000000000000000000000000000000000000000000PES00010000001N00000000000000020180310
201802280060000600000000000000801404000000000000008014049900000000000000000000Consumidor Final              000000000085000000000000085000000000000000000000000000000000000000000000000000000000000000000000000000000000000000000000PES00010000001N00000000000000020180310
201802280060000700000000000000583497000000000000005834979900000000000000000000Consumidor Final              000000000078000000000000078000000000000000000000000000000000000000000000000000000000000000000000000000000000000000000000PES00010000001N00000000000000020180310
201802280060000600000000000000801405000000000000008014059900000000000000000000Consumidor Final              000000000078000000000000078000000000000000000000000000000000000000000000000000000000000000000000000000000000000000000000PES00010000001N00000000000000020180310
201802280060000600000000000000801376000000000000008013769900000000000000000000Consumidor Final              000000000078000000000000078000000000000000000000000000000000000000000000000000000000000000000000000000000000000000000000PES00010000001N00000000000000020180310
201802280060000600000000000000801406000000000000008014069900000000000000000000Consumidor Final              000000000078000000000000078000000000000000000000000000000000000000000000000000000000000000000000000000000000000000000000PES00010000001N00000000000000020180310
201802280060000600000000000000801407000000000000008014079900000000000000000000Consumidor Final              000000000085800000000000085800000000000000000000000000000000000000000000000000000000000000000000000000000000000000000000PES00010000001N00000000000000020180310
201802280060000600000000000000801414000000000000008014149900000000000000000000Consumidor Final              000000000078000000000000078000000000000000000000000000000000000000000000000000000000000000000000000000000000000000000000PES00010000001N00000000000000020180310
201802280060000700000000000000583508000000000000005835089900000000000000000000Consumidor Final              000000000078000000000000078000000000000000000000000000000000000000000000000000000000000000000000000000000000000000000000PES00010000001N00000000000000020180310
201802280060000700000000000000583509000000000000005835099900000000000000000000Consumidor Final              000000000078000000000000078000000000000000000000000000000000000000000000000000000000000000000000000000000000000000000000PES00010000001N00000000000000020180310
201802280060000700000000000000583510000000000000005835109900000000000000000000Consumidor Final              000000000078000000000000078000000000000000000000000000000000000000000000000000000000000000000000000000000000000000000000PES00010000001N00000000000000020180310
201802280060000700000000000000583511000000000000005835119900000000000000000000Consumidor Final              000000000078000000000000078000000000000000000000000000000000000000000000000000000000000000000000000000000000000000000000PES00010000001N00000000000000020180310
201802280060000600000000000000801418000000000000008014189900000000000000000000Consumidor Final              000000000078000000000000078000000000000000000000000000000000000000000000000000000000000000000000000000000000000000000000PES00010000001N00000000000000020180310
201802280060000700000000000000583512000000000000005835129900000000000000000000Consumidor Final              000000000078000000000000078000000000000000000000000000000000000000000000000000000000000000000000000000000000000000000000PES00010000001N00000000000000020180310
201802280060000600000000000000801419000000000000008014199900000000000000000000Consumidor Final              000000000078000000000000078000000000000000000000000000000000000000000000000000000000000000000000000000000000000000000000PES00010000001N00000000000000020180310
201802280060000600000000000000801377000000000000008013779900000000000000000000Consumidor Final              000000000085800000000000085800000000000000000000000000000000000000000000000000000000000000000000000000000000000000000000PES00010000001N00000000000000020180310
201802280060000600000000000000801378000000000000008013789900000000000000000000Consumidor Final              000000000078000000000000078000000000000000000000000000000000000000000000000000000000000000000000000000000000000000000000PES00010000001N00000000000000020180310
201802280060000700000000000000583464000000000000005834649000000000099999999999Consumidor Final              000000000151800000000000151800000000000000000000000000000000000000000000000000000000000000000000000000000000000000000000PES00010000001N00000000000000020180310
201802280060000600000000000000801379000000000000008013799900000000000000000000Consumidor Final              000000000078000000000000078000000000000000000000000000000000000000000000000000000000000000000000000000000000000000000000PES00010000001N00000000000000020180310
201802280060000700000000000000583465000000000000005834659900000000000000000000Consumidor Final              000000000085800000000000085800000000000000000000000000000000000000000000000000000000000000000000000000000000000000000000PES00010000001N00000000000000020180310
201802280060000600000000000000801380000000000000008013809900000000000000000000Consumidor Final              000000000078000000000000078000000000000000000000000000000000000000000000000000000000000000000000000000000000000000000000PES00010000001N00000000000000020180310
201802280060000700000000000000583466000000000000005834669900000000000000000000Consumidor Final              000000000085800000000000085800000000000000000000000000000000000000000000000000000000000000000000000000000000000000000000PES00010000001N00000000000000020180310
201802280060000700000000000000583467000000000000005834679900000000000000000000Consumidor Final              000000000078000000000000078000000000000000000000000000000000000000000000000000000000000000000000000000000000000000000000PES00010000001N00000000000000020180310
201802280060000700000000000000583468000000000000005834689000000000099999999999Consumidor Final              000000000134000000000000134000000000000000000000000000000000000000000000000000000000000000000000000000000000000000000000PES00010000001N00000000000000020180310
201802280060000700000000000000583469000000000000005834699900000000000000000000Consumidor Final              000000000078000000000000078000000000000000000000000000000000000000000000000000000000000000000000000000000000000000000000PES00010000001N00000000000000020180310
201802280060000600000000000000801381000000000000008013819900000000000000000000Consumidor Final              000000000089000000000000089000000000000000000000000000000000000000000000000000000000000000000000000000000000000000000000PES00010000001N00000000000000020180310
201802280060000600000000000000801382000000000000008013829900000000000000000000Consumidor Final              000000000078000000000000078000000000000000000000000000000000000000000000000000000000000000000000000000000000000000000000PES00010000001N00000000000000020180310
201802280060000600000000000000801383000000000000008013839900000000000000000000Consumidor Final              000000000078000000000000078000000000000000000000000000000000000000000000000000000000000000000000000000000000000000000000PES00010000001N00000000000000020180310
201802280060000600000000000000801398000000000000008013989900000000000000000000Consumidor Final              000000000085800000000000085800000000000000000000000000000000000000000000000000000000000000000000000000000000000000000000PES00010000001N00000000000000020180310
201802280060000600000000000000801402000000000000008014029000000000099999999999Consumidor Final              000000000108000000000000108000000000000000000000000000000000000000000000000000000000000000000000000000000000000000000000PES00010000001N00000000000000020180310
201802280060000800000000000000198763000000000000001987639900000000000000000000Consumidor Final              000000000068000000000000068000000000000000000000000000000000000000000000000000000000000000000000000000000000000000000000PES00010000001N00000000000000020180310
201802280060000800000000000000198764000000000000001987649900000000000000000000Consumidor Final              000000000068000000000000068000000000000000000000000000000000000000000000000000000000000000000000000000000000000000000000PES00010000001N00000000000000020180310
201802280060000700000000000000583506000000000000005835069000000000099999999999Consumidor Final              000000000101200000000000101200000000000000000000000000000000000000000000000000000000000000000000000000000000000000000000PES00010000001N00000000000000020180310
201802280060000700000000000000583507000000000000005835079900000000000000000000Consumidor Final              000000000085800000000000085800000000000000000000000000000000000000000000000000000000000000000000000000000000000000000000PES00010000001N00000000000000020180310
201802280060000700000000000000583513000000000000005835139900000000000000000000Consumidor Final              000000000078000000000000078000000000000000000000000000000000000000000000000000000000000000000000000000000000000000000000PES00010000001N00000000000000020180310
201802280060000700000000000000583514000000000000005835149900000000000000000000Consumidor Final              000000000078000000000000078000000000000000000000000000000000000000000000000000000000000000000000000000000000000000000000PES00010000001N00000000000000020180310
201802280060000700000000000000583498000000000000005834989900000000000000000000Consumidor Final              000000000085800000000000085800000000000000000000000000000000000000000000000000000000000000000000000000000000000000000000PES00010000001N00000000000000020180310
201802280060000700000000000000583503000000000000005835039900000000000000000000Consumidor Final              000000000085800000000000085800000000000000000000000000000000000000000000000000000000000000000000000000000000000000000000PES00010000001N00000000000000020180310
201802280060000700000000000000583504000000000000005835049900000000000000000000Consumidor Final              000000000078000000000000078000000000000000000000000000000000000000000000000000000000000000000000000000000000000000000000PES00010000001N00000000000000020180310
201802280060000700000000000000583505000000000000005835059900000000000000000000Consumidor Final              000000000085800000000000085800000000000000000000000000000000000000000000000000000000000000000000000000000000000000000000PES00010000001N00000000000000020180310
201802280060000600000000000000801415000000000000008014159900000000000000000000Consumidor Final              000000000078000000000000078000000000000000000000000000000000000000000000000000000000000000000000000000000000000000000000PES00010000001N00000000000000020180310
201802280060000600000000000000801416000000000000008014169900000000000000000000Consumidor Final              000000000085800000000000085800000000000000000000000000000000000000000000000000000000000000000000000000000000000000000000PES00010000001N00000000000000020180310
201802280060000600000000000000801417000000000000008014179900000000000000000000Consumidor Final              000000000085800000000000085800000000000000000000000000000000000000000000000000000000000000000000000000000000000000000000PES00010000001N00000000000000020180310
201802280060000700000000000000583515000000000000005835159900000000000000000000Consumidor Final              000000000078000000000000078000000000000000000000000000000000000000000000000000000000000000000000000000000000000000000000PES00010000001N00000000000000020180310
201802280060000700000000000000583516000000000000005835169900000000000000000000Consumidor Final              000000000078000000000000078000000000000000000000000000000000000000000000000000000000000000000000000000000000000000000000PES00010000001N00000000000000020180310
201802280060000600000000000000801423000000000000008014239900000000000000000000Consumidor Final              000000000081000000000000081000000000000000000000000000000000000000000000000000000000000000000000000000000000000000000000PES00010000001N00000000000000020180310
201802280060000700000000000000583499000000000000005834999900000000000000000000Consumidor Final              000000000078000000000000078000000000000000000000000000000000000000000000000000000000000000000000000000000000000000000000PES00010000001N00000000000000020180310
201802280060000700000000000000583500000000000000005835009900000000000000000000Consumidor Final              000000000078000000000000078000000000000000000000000000000000000000000000000000000000000000000000000000000000000000000000PES00010000001N00000000000000020180310
201802280060000600000000000000801408000000000000008014089900000000000000000000Consumidor Final              000000000085800000000000085800000000000000000000000000000000000000000000000000000000000000000000000000000000000000000000PES00010000001N00000000000000020180310
201802280060000700000000000000583501000000000000005835019900000000000000000000Consumidor Final              000000000090000000000000090000000000000000000000000000000000000000000000000000000000000000000000000000000000000000000000PES00010000001N00000000000000020180310
201802280060000700000000000000583502000000000000005835029900000000000000000000Consumidor Final              000000000078000000000000078000000000000000000000000000000000000000000000000000000000000000000000000000000000000000000000PES00010000001N00000000000000020180310
201802280060000600000000000000801409000000000000008014099900000000000000000000Consumidor Final              000000000078000000000000078000000000000000000000000000000000000000000000000000000000000000000000000000000000000000000000PES00010000001N00000000000000020180310
201802280060000600000000000000801410000000000000008014109900000000000000000000Consumidor Final              000000000085800000000000085800000000000000000000000000000000000000000000000000000000000000000000000000000000000000000000PES00010000001N00000000000000020180310
201802280060000600000000000000801411000000000000008014119900000000000000000000Consumidor Final              000000000078000000000000078000000000000000000000000000000000000000000000000000000000000000000000000000000000000000000000PES00010000001N00000000000000020180310
201802280060000600000000000000801412000000000000008014129900000000000000000000Consumidor Final              000000000078000000000000078000000000000000000000000000000000000000000000000000000000000000000000000000000000000000000000PES00010000001N00000000000000020180310
201802280060000600000000000000801413000000000000008014139900000000000000000000Consumidor Final              000000000085800000000000085800000000000000000000000000000000000000000000000000000000000000000000000000000000000000000000PES00010000001N00000000000000020180310
201802280060000600000000000000801420000000000000008014209900000000000000000000Consumidor Final              000000000038000000000000038000000000000000000000000000000000000000000000000000000000000000000000000000000000000000000000PES00010000001N00000000000000020180310
201802280060000600000000000000801421000000000000008014219900000000000000000000Consumidor Final              000000000078000000000000078000000000000000000000000000000000000000000000000000000000000000000000000000000000000000000000PES00010000001N00000000000000020180310
201802280060000600000000000000801422000000000000008014229900000000000000000000Consumidor Final              000000000078000000000000078000000000000000000000000000000000000000000000000000000000000000000000000000000000000000000000PES00010000001N00000000000000020180310
201802280060000700000000000000583517000000000000005835179900000000000000000000Consumidor Final              000000000078000000000000078000000000000000000000000000000000000000000000000000000000000000000000000000000000000000000000PES00010000001N00000000000000020180310
201802280060000600000000000000801424000000000000008014249900000000000000000000Consumidor Final              000000000078000000000000078000000000000000000000000000000000000000000000000000000000000000000000000000000000000000000000PES00010000001N00000000000000020180310
201802280060000600000000000000801425000000000000008014259900000000000000000000Consumidor Final              000000000078000000000000078000000000000000000000000000000000000000000000000000000000000000000000000000000000000000000000PES00010000001N00000000000000020180310
201802280060000700000000000000583518000000000000005835189900000000000000000000Consumidor Final              000000000078000000000000078000000000000000000000000000000000000000000000000000000000000000000000000000000000000000000000PES00010000001N00000000000000020180310
201802280060000700000000000000583519000000000000005835199900000000000000000000Consumidor Final              000000000078000000000000078000000000000000000000000000000000000000000000000000000000000000000000000000000000000000000000PES00010000001N00000000000000020180310
201802280060000700000000000000583520000000000000005835209900000000000000000000Consumidor Final              000000000085800000000000085800000000000000000000000000000000000000000000000000000000000000000000000000000000000000000000PES00010000001N00000000000000020180310
201802280060000700000000000000583521000000000000005835219900000000000000000000Consumidor Final              000000000078000000000000078000000000000000000000000000000000000000000000000000000000000000000000000000000000000000000000PES00010000001N00000000000000020180310
201802280060000700000000000000583522000000000000005835229900000000000000000000Consumidor Final              000000000078000000000000078000000000000000000000000000000000000000000000000000000000000000000000000000000000000000000000PES00010000001N00000000000000020180310
201802280060000600000000000000801426000000000000008014269900000000000000000000Consumidor Final              000000000078000000000000078000000000000000000000000000000000000000000000000000000000000000000000000000000000000000000000PES00010000001N00000000000000020180310
201802280060000700000000000000583530000000000000005835309900000000000000000000Consumidor Final              000000000089100000000000089100000000000000000000000000000000000000000000000000000000000000000000000000000000000000000000PES00010000001N00000000000000020180310
201802280060000700000000000000583531000000000000005835319900000000000000000000Consumidor Final              000000000085800000000000085800000000000000000000000000000000000000000000000000000000000000000000000000000000000000000000PES00010000001N00000000000000020180310
201802280060000700000000000000583550000000000000005835509900000000000000000000Consumidor Final              000000000078000000000000078000000000000000000000000000000000000000000000000000000000000000000000000000000000000000000000PES00010000001N00000000000000020180310
201802280060000700000000000000583551000000000000005835519900000000000000000000Consumidor Final              000000000078000000000000078000000000000000000000000000000000000000000000000000000000000000000000000000000000000000000000PES00010000001N00000000000000020180310
201802280060000600000000000000801462000000000000008014629900000000000000000000Consumidor Final              000000000078000000000000078000000000000000000000000000000000000000000000000000000000000000000000000000000000000000000000PES00010000001N00000000000000020180310
201802280060000600000000000000801464000000000000008014649900000000000000000000Consumidor Final              000000000079000000000000079000000000000000000000000000000000000000000000000000000000000000000000000000000000000000000000PES00010000001N00000000000000020180310
201802280060000600000000000000801465000000000000008014659900000000000000000000Consumidor Final              000000000078000000000000078000000000000000000000000000000000000000000000000000000000000000000000000000000000000000000000PES00010000001N00000000000000020180310
201802280060000600000000000000801466000000000000008014669900000000000000000000Consumidor Final              000000000078000000000000078000000000000000000000000000000000000000000000000000000000000000000000000000000000000000000000PES00010000001N00000000000000020180310
201802280060000600000000000000801467000000000000008014679900000000000000000000Consumidor Final              000000000038000000000000038000000000000000000000000000000000000000000000000000000000000000000000000000000000000000000000PES00010000001N00000000000000020180310
201802280060000600000000000000801468000000000000008014689900000000000000000000Consumidor Final              000000000078000000000000078000000000000000000000000000000000000000000000000000000000000000000000000000000000000000000000PES00010000001N00000000000000020180310
201802280060000600000000000000801427000000000000008014279900000000000000000000Consumidor Final              000000000083000000000000083000000000000000000000000000000000000000000000000000000000000000000000000000000000000000000000PES00010000001N00000000000000020180310
201802280060000700000000000000583540000000000000005835409900000000000000000000Consumidor Final              000000000078000000000000078000000000000000000000000000000000000000000000000000000000000000000000000000000000000000000000PES00010000001N00000000000000020180310
201802280060000700000000000000583541000000000000005835419900000000000000000000Consumidor Final              000000000078000000000000078000000000000000000000000000000000000000000000000000000000000000000000000000000000000000000000PES00010000001N00000000000000020180310
201802280060000600000000000000801437000000000000008014379900000000000000000000Consumidor Final              000000000078000000000000078000000000000000000000000000000000000000000000000000000000000000000000000000000000000000000000PES00010000001N00000000000000020180310
201802280060000700000000000000583542000000000000005835429900000000000000000000Consumidor Final              000000000026000000000000026000000000000000000000000000000000000000000000000000000000000000000000000000000000000000000000PES00010000001N00000000000000020180310
201802280060000700000000000000583543000000000000005835439900000000000000000000Consumidor Final              000000000079000000000000079000000000000000000000000000000000000000000000000000000000000000000000000000000000000000000000PES00010000001N00000000000000020180310
201802280060000700000000000000583544000000000000005835449900000000000000000000Consumidor Final              000000000075000000000000075000000000000000000000000000000000000000000000000000000000000000000000000000000000000000000000PES00010000001N00000000000000020180310
201802280060000700000000000000583545000000000000005835459900000000000000000000Consumidor Final              000000000078000000000000078000000000000000000000000000000000000000000000000000000000000000000000000000000000000000000000PES00010000001N00000000000000020180310
201802280060000700000000000000583546000000000000005835469900000000000000000000Consumidor Final              000000000078000000000000078000000000000000000000000000000000000000000000000000000000000000000000000000000000000000000000PES00010000001N00000000000000020180310
201802280060000700000000000000583547000000000000005835479900000000000000000000Consumidor Final              000000000078000000000000078000000000000000000000000000000000000000000000000000000000000000000000000000000000000000000000PES00010000001N00000000000000020180310
201802280060000700000000000000583548000000000000005835489900000000000000000000Consumidor Final              000000000078000000000000078000000000000000000000000000000000000000000000000000000000000000000000000000000000000000000000PES00010000001N00000000000000020180310
201802280060000600000000000000801428000000000000008014289000000000099999999999Consumidor Final              000000000101200000000000101200000000000000000000000000000000000000000000000000000000000000000000000000000000000000000000PES00010000001N00000000000000020180310
201802280060000800000000000000198769000000000000001987699900000000000000000000Consumidor Final              000000000095000000000000095000000000000000000000000000000000000000000000000000000000000000000000000000000000000000000000PES00010000001N00000000000000020180310
201802280060000800000000000000198770000000000000001987709900000000000000000000Consumidor Final              000000000095000000000000095000000000000000000000000000000000000000000000000000000000000000000000000000000000000000000000PES00010000001N00000000000000020180310
201802280060000800000000000000198771000000000000001987719000000000099999999999Consumidor Final              000000000104000000000000104000000000000000000000000000000000000000000000000000000000000000000000000000000000000000000000PES00010000001N00000000000000020180310
201802280060000700000000000000583549000000000000005835499900000000000000000000Consumidor Final              000000000078000000000000078000000000000000000000000000000000000000000000000000000000000000000000000000000000000000000000PES00010000001N00000000000000020180310
201802280060000800000000000000198772000000000000001987729900000000000000000000Consumidor Final              000000000068000000000000068000000000000000000000000000000000000000000000000000000000000000000000000000000000000000000000PES00010000001N00000000000000020180310
201802280060000800000000000000198773000000000000001987739900000000000000000000Consumidor Final              000000000068000000000000068000000000000000000000000000000000000000000000000000000000000000000000000000000000000000000000PES00010000001N00000000000000020180310
201802280060000800000000000000198774000000000000001987749900000000000000000000Consumidor Final              000000000068000000000000068000000000000000000000000000000000000000000000000000000000000000000000000000000000000000000000PES00010000001N00000000000000020180310
201802280060000800000000000000198775000000000000001987759900000000000000000000Consumidor Final              000000000078000000000000078000000000000000000000000000000000000000000000000000000000000000000000000000000000000000000000PES00010000001N00000000000000020180310
201802280060000800000000000000198776000000000000001987769900000000000000000000Consumidor Final              000000000078000000000000078000000000000000000000000000000000000000000000000000000000000000000000000000000000000000000000PES00010000001N00000000000000020180310
201802280060000600000000000000801461000000000000008014619900000000000000000000Consumidor Final              000000000078000000000000078000000000000000000000000000000000000000000000000000000000000000000000000000000000000000000000PES00010000001N00000000000000020180310
201802280060000700000000000000583523000000000000005835239900000000000000000000Consumidor Final              000000000078000000000000078000000000000000000000000000000000000000000000000000000000000000000000000000000000000000000000PES00010000001N00000000000000020180310
201802280060000600000000000000801429000000000000008014299900000000000000000000Consumidor Final              000000000092000000000000092000000000000000000000000000000000000000000000000000000000000000000000000000000000000000000000PES00010000001N00000000000000020180310
201802280060000600000000000000801430000000000000008014309900000000000000000000Consumidor Final              000000000092000000000000092000000000000000000000000000000000000000000000000000000000000000000000000000000000000000000000PES00010000001N00000000000000020180310
201802280060000600000000000000801431000000000000008014319900000000000000000000Consumidor Final              000000000078000000000000078000000000000000000000000000000000000000000000000000000000000000000000000000000000000000000000PES00010000001N00000000000000020180310
201802280060000600000000000000801432000000000000008014329900000000000000000000Consumidor Final              000000000078000000000000078000000000000000000000000000000000000000000000000000000000000000000000000000000000000000000000PES00010000001N00000000000000020180310
201802280060000600000000000000801433000000000000008014339900000000000000000000Consumidor Final              000000000078000000000000078000000000000000000000000000000000000000000000000000000000000000000000000000000000000000000000PES00010000001N00000000000000020180310
201802280060000700000000000000583532000000000000005835329900000000000000000000Consumidor Final              000000000078000000000000078000000000000000000000000000000000000000000000000000000000000000000000000000000000000000000000PES00010000001N00000000000000020180310
201802280060000600000000000000801434000000000000008014349000000000099999999999Consumidor Final              000000000100000000000000100000000000000000000000000000000000000000000000000000000000000000000000000000000000000000000000PES00010000001N00000000000000020180310
201802280060000700000000000000583533000000000000005835339900000000000000000000Consumidor Final              000000000092000000000000092000000000000000000000000000000000000000000000000000000000000000000000000000000000000000000000PES00010000001N00000000000000020180310
201802280060000700000000000000583534000000000000005835349900000000000000000000Consumidor Final              000000000078000000000000078000000000000000000000000000000000000000000000000000000000000000000000000000000000000000000000PES00010000001N00000000000000020180310
201802280060000700000000000000583525000000000000005835259000000000099999999999Consumidor Final              000000000116600000000000116600000000000000000000000000000000000000000000000000000000000000000000000000000000000000000000PES00010000001N00000000000000020180310
201802280060000700000000000000583526000000000000005835269900000000000000000000Consumidor Final              000000000092000000000000092000000000000000000000000000000000000000000000000000000000000000000000000000000000000000000000PES00010000001N00000000000000020180310
201802280060000700000000000000583527000000000000005835279900000000000000000000Consumidor Final              000000000078000000000000078000000000000000000000000000000000000000000000000000000000000000000000000000000000000000000000PES00010000001N00000000000000020180310
201802280060000700000000000000583528000000000000005835289900000000000000000000Consumidor Final              000000000078000000000000078000000000000000000000000000000000000000000000000000000000000000000000000000000000000000000000PES00010000001N00000000000000020180310
201802280060000700000000000000583529000000000000005835299900000000000000000000Consumidor Final              000000000085800000000000085800000000000000000000000000000000000000000000000000000000000000000000000000000000000000000000PES00010000001N00000000000000020180310
201802280060000600000000000000801451000000000000008014519900000000000000000000Consumidor Final              000000000076000000000000076000000000000000000000000000000000000000000000000000000000000000000000000000000000000000000000PES00010000001N00000000000000020180310
201802280060000600000000000000801452000000000000008014529900000000000000000000Consumidor Final              000000000078000000000000078000000000000000000000000000000000000000000000000000000000000000000000000000000000000000000000PES00010000001N00000000000000020180310
201802280060000600000000000000801453000000000000008014539000000000099999999999Consumidor Final              000000000104500000000000104500000000000000000000000000000000000000000000000000000000000000000000000000000000000000000000PES00010000001N00000000000000020180310
201802280060000600000000000000801458000000000000008014589900000000000000000000Consumidor Final              000000000085800000000000085800000000000000000000000000000000000000000000000000000000000000000000000000000000000000000000PES00010000001N00000000000000020180310
201802280060000600000000000000801459000000000000008014599900000000000000000000Consumidor Final              000000000094000000000000094000000000000000000000000000000000000000000000000000000000000000000000000000000000000000000000PES00010000001N00000000000000020180310
201802280060000600000000000000801436000000000000008014369900000000000000000000Consumidor Final              000000000078000000000000078000000000000000000000000000000000000000000000000000000000000000000000000000000000000000000000PES00010000001N00000000000000020180310
201802280060000600000000000000801460000000000000008014609900000000000000000000Consumidor Final              000000000078000000000000078000000000000000000000000000000000000000000000000000000000000000000000000000000000000000000000PES00010000001N00000000000000020180310
201802280060000800000000000000198779000000000000001987799900000000000000000000Consumidor Final              000000000068000000000000068000000000000000000000000000000000000000000000000000000000000000000000000000000000000000000000PES00010000001N00000000000000020180310
201802280060000800000000000000198780000000000000001987809900000000000000000000Consumidor Final              000000000068000000000000068000000000000000000000000000000000000000000000000000000000000000000000000000000000000000000000PES00010000001N00000000000000020180310
201802280060000800000000000000198781000000000000001987819900000000000000000000Consumidor Final              000000000068000000000000068000000000000000000000000000000000000000000000000000000000000000000000000000000000000000000000PES00010000001N00000000000000020180310
201802280060000800000000000000198782000000000000001987829900000000000000000000Consumidor Final              000000000068000000000000068000000000000000000000000000000000000000000000000000000000000000000000000000000000000000000000PES00010000001N00000000000000020180310
201802280060000800000000000000198783000000000000001987839900000000000000000000Consumidor Final              000000000068000000000000068000000000000000000000000000000000000000000000000000000000000000000000000000000000000000000000PES00010000001N00000000000000020180310
201802280060000800000000000000198784000000000000001987849900000000000000000000Consumidor Final              000000000082000000000000082000000000000000000000000000000000000000000000000000000000000000000000000000000000000000000000PES00010000001N00000000000000020180310
201802280060000600000000000000801482000000000000008014829900000000000000000000Consumidor Final              000000000080000000000000080000000000000000000000000000000000000000000000000000000000000000000000000000000000000000000000PES00010000001N00000000000000020180310
201802280060000600000000000000801483000000000000008014839900000000000000000000Consumidor Final              000000000078000000000000078000000000000000000000000000000000000000000000000000000000000000000000000000000000000000000000PES00010000001N00000000000000020180310
201802280060000600000000000000801484000000000000008014849900000000000000000000Consumidor Final              000000000078000000000000078000000000000000000000000000000000000000000000000000000000000000000000000000000000000000000000PES00010000001N00000000000000020180310
201802280060000600000000000000801438000000000000008014389900000000000000000000Consumidor Final              000000000078000000000000078000000000000000000000000000000000000000000000000000000000000000000000000000000000000000000000PES00010000001N00000000000000020180310
201802280060000600000000000000801439000000000000008014399900000000000000000000Consumidor Final              000000000085800000000000085800000000000000000000000000000000000000000000000000000000000000000000000000000000000000000000PES00010000001N00000000000000020180310
201802280060000600000000000000801440000000000000008014409900000000000000000000Consumidor Final              000000000094000000000000094000000000000000000000000000000000000000000000000000000000000000000000000000000000000000000000PES00010000001N00000000000000020180310
201802280060000600000000000000801441000000000000008014419900000000000000000000Consumidor Final              000000000078000000000000078000000000000000000000000000000000000000000000000000000000000000000000000000000000000000000000PES00010000001N00000000000000020180310
201802280060000900000000000000047751000000000000000477519900000000000000000000Consumidor Final              000000000082500000000000082500000000000000000000000000000000000000000000000000000000000000000000000000000000000000000000PES00010000001N00000000000000020180310
201802280060000900000000000000047754000000000000000477549900000000000000000000Consumidor Final              000000000088000000000000088000000000000000000000000000000000000000000000000000000000000000000000000000000000000000000000PES00010000001N00000000000000020180310
201802280060000900000000000000047755000000000000000477559900000000000000000000Consumidor Final              000000000085800000000000085800000000000000000000000000000000000000000000000000000000000000000000000000000000000000000000PES00010000001N00000000000000020180310
201802280060000800000000000000198785000000000000001987859900000000000000000000Consumidor Final              000000000068000000000000068000000000000000000000000000000000000000000000000000000000000000000000000000000000000000000000PES00010000001N00000000000000020180310
201802280060000800000000000000198786000000000000001987869900000000000000000000Consumidor Final              000000000068000000000000068000000000000000000000000000000000000000000000000000000000000000000000000000000000000000000000PES00010000001N00000000000000020180310
201802280060000800000000000000198787000000000000001987879900000000000000000000Consumidor Final              000000000078000000000000078000000000000000000000000000000000000000000000000000000000000000000000000000000000000000000000PES00010000001N00000000000000020180310
201802280060000600000000000000801442000000000000008014429900000000000000000000Consumidor Final              000000000078000000000000078000000000000000000000000000000000000000000000000000000000000000000000000000000000000000000000PES00010000001N00000000000000020180310
201802280060000600000000000000801443000000000000008014439900000000000000000000Consumidor Final              000000000038000000000000038000000000000000000000000000000000000000000000000000000000000000000000000000000000000000000000PES00010000001N00000000000000020180310
201802280060000600000000000000801444000000000000008014449900000000000000000000Consumidor Final              000000000085800000000000085800000000000000000000000000000000000000000000000000000000000000000000000000000000000000000000PES00010000001N00000000000000020180310
201802280060000600000000000000801445000000000000008014459900000000000000000000Consumidor Final              000000000078000000000000078000000000000000000000000000000000000000000000000000000000000000000000000000000000000000000000PES00010000001N00000000000000020180310
201802280060000600000000000000801446000000000000008014469900000000000000000000Consumidor Final              000000000078000000000000078000000000000000000000000000000000000000000000000000000000000000000000000000000000000000000000PES00010000001N00000000000000020180310
201802280060000600000000000000801447000000000000008014479900000000000000000000Consumidor Final              000000000078000000000000078000000000000000000000000000000000000000000000000000000000000000000000000000000000000000000000PES00010000001N00000000000000020180310
201802280060000800000000000000198777000000000000001987779900000000000000000000Consumidor Final              000000000068000000000000068000000000000000000000000000000000000000000000000000000000000000000000000000000000000000000000PES00010000001N00000000000000020180310
201802280060000800000000000000198778000000000000001987789900000000000000000000Consumidor Final              000000000068000000000000068000000000000000000000000000000000000000000000000000000000000000000000000000000000000000000000PES00010000001N00000000000000020180310
201802280060000600000000000000801448000000000000008014489900000000000000000000Consumidor Final              000000000078000000000000078000000000000000000000000000000000000000000000000000000000000000000000000000000000000000000000PES00010000001N00000000000000020180310
201802280060000600000000000000801449000000000000008014499900000000000000000000Consumidor Final              000000000085800000000000085800000000000000000000000000000000000000000000000000000000000000000000000000000000000000000000PES00010000001N00000000000000020180310
201802280060000600000000000000801450000000000000008014509900000000000000000000Consumidor Final              000000000078000000000000078000000000000000000000000000000000000000000000000000000000000000000000000000000000000000000000PES00010000001N00000000000000020180310
201802280060000600000000000000801454000000000000008014549900000000000000000000Consumidor Final              000000000085800000000000085800000000000000000000000000000000000000000000000000000000000000000000000000000000000000000000PES00010000001N00000000000000020180310
201802280060000600000000000000801469000000000000008014699900000000000000000000Consumidor Final              000000000078000000000000078000000000000000000000000000000000000000000000000000000000000000000000000000000000000000000000PES00010000001N00000000000000020180310
201802280060000600000000000000801470000000000000008014709900000000000000000000Consumidor Final              000000000075000000000000075000000000000000000000000000000000000000000000000000000000000000000000000000000000000000000000PES00010000001N00000000000000020180310
201802280060000600000000000000801471000000000000008014719900000000000000000000Consumidor Final              000000000085800000000000085800000000000000000000000000000000000000000000000000000000000000000000000000000000000000000000PES00010000001N00000000000000020180310
201802280060000600000000000000801472000000000000008014729900000000000000000000Consumidor Final              000000000092000000000000092000000000000000000000000000000000000000000000000000000000000000000000000000000000000000000000PES00010000001N00000000000000020180310
201802280060000600000000000000801473000000000000008014739900000000000000000000Consumidor Final              000000000078000000000000078000000000000000000000000000000000000000000000000000000000000000000000000000000000000000000000PES00010000001N00000000000000020180310
201802280060000600000000000000801474000000000000008014749900000000000000000000Consumidor Final              000000000078000000000000078000000000000000000000000000000000000000000000000000000000000000000000000000000000000000000000PES00010000001N00000000000000020180310
201802280060000600000000000000801475000000000000008014759900000000000000000000Consumidor Final              000000000026000000000000026000000000000000000000000000000000000000000000000000000000000000000000000000000000000000000000PES00010000001N00000000000000020180310
201802280060000600000000000000801476000000000000008014769900000000000000000000Consumidor Final              000000000078000000000000078000000000000000000000000000000000000000000000000000000000000000000000000000000000000000000000PES00010000001N00000000000000020180310
201802280060000600000000000000801477000000000000008014779900000000000000000000Consumidor Final              000000000078000000000000078000000000000000000000000000000000000000000000000000000000000000000000000000000000000000000000PES00010000001N00000000000000020180310
201802280060000600000000000000801478000000000000008014789900000000000000000000Consumidor Final              000000000085800000000000085800000000000000000000000000000000000000000000000000000000000000000000000000000000000000000000PES00010000001N00000000000000020180310
201802280060000600000000000000801455000000000000008014559900000000000000000000Consumidor Final              000000000078000000000000078000000000000000000000000000000000000000000000000000000000000000000000000000000000000000000000PES00010000001N00000000000000020180310
201802280060000600000000000000801456000000000000008014569900000000000000000000Consumidor Final              000000000078000000000000078000000000000000000000000000000000000000000000000000000000000000000000000000000000000000000000PES00010000001N00000000000000020180310
201802280060000600000000000000801457000000000000008014579900000000000000000000Consumidor Final              000000000040000000000000040000000000000000000000000000000000000000000000000000000000000000000000000000000000000000000000PES00010000001N00000000000000020180310
201802280060000900000000000000047748000000000000000477489900000000000000000000Consumidor Final              000000000085800000000000085800000000000000000000000000000000000000000000000000000000000000000000000000000000000000000000PES00010000001N00000000000000020180310
201802280060000900000000000000047749000000000000000477499900000000000000000000Consumidor Final              000000000078000000000000078000000000000000000000000000000000000000000000000000000000000000000000000000000000000000000000PES00010000001N00000000000000020180310
201802280060000900000000000000047750000000000000000477509000000000099999999999Consumidor Final              000000000101200000000000101200000000000000000000000000000000000000000000000000000000000000000000000000000000000000000000PES00010000001N00000000000000020180310
201802280060000600000000000000801463000000000000008014639900000000000000000000Consumidor Final              000000000038000000000000038000000000000000000000000000000000000000000000000000000000000000000000000000000000000000000000PES00010000001N00000000000000020180310
201802280060000600000000000000801498000000000000008014989900000000000000000000Consumidor Final              000000000078000000000000078000000000000000000000000000000000000000000000000000000000000000000000000000000000000000000000PES00010000001N00000000000000020180310
201802280060000600000000000000801499000000000000008014999900000000000000000000Consumidor Final              000000000078000000000000078000000000000000000000000000000000000000000000000000000000000000000000000000000000000000000000PES00010000001N00000000000000020180310
201802280060000600000000000000801500000000000000008015009900000000000000000000Consumidor Final              000000000086900000000000086900000000000000000000000000000000000000000000000000000000000000000000000000000000000000000000PES00010000001N00000000000000020180310
201802280060000700000000000000583552000000000000005835529900000000000000000000Consumidor Final              000000000078000000000000078000000000000000000000000000000000000000000000000000000000000000000000000000000000000000000000PES00010000001N00000000000000020180310
201802280060000600000000000000801501000000000000008015019900000000000000000000Consumidor Final              000000000085800000000000085800000000000000000000000000000000000000000000000000000000000000000000000000000000000000000000PES00010000001N00000000000000020180310
201802280060000900000000000000047761000000000000000477619900000000000000000000Consumidor Final              000000000078000000000000078000000000000000000000000000000000000000000000000000000000000000000000000000000000000000000000PES00010000001N00000000000000020180310
201802280060000900000000000000047762000000000000000477629900000000000000000000Consumidor Final              000000000085800000000000085800000000000000000000000000000000000000000000000000000000000000000000000000000000000000000000PES00010000001N00000000000000020180310
201802280060000900000000000000047763000000000000000477639900000000000000000000Consumidor Final              000000000085800000000000085800000000000000000000000000000000000000000000000000000000000000000000000000000000000000000000PES00010000001N00000000000000020180310
201802280060000900000000000000047764000000000000000477649900000000000000000000Consumidor Final              000000000085800000000000085800000000000000000000000000000000000000000000000000000000000000000000000000000000000000000000PES00010000001N00000000000000020180310
201802280060000900000000000000047765000000000000000477659900000000000000000000Consumidor Final              000000000085800000000000085800000000000000000000000000000000000000000000000000000000000000000000000000000000000000000000PES00010000001N00000000000000020180310
201802280060000900000000000000047766000000000000000477669900000000000000000000Consumidor Final              000000000078000000000000078000000000000000000000000000000000000000000000000000000000000000000000000000000000000000000000PES00010000001N00000000000000020180310
201802280060000900000000000000047767000000000000000477679000000000099999999999Consumidor Final              000000000101200000000000101200000000000000000000000000000000000000000000000000000000000000000000000000000000000000000000PES00010000001N00000000000000020180310
201802280060000900000000000000047768000000000000000477689900000000000000000000Consumidor Final              000000000078000000000000078000000000000000000000000000000000000000000000000000000000000000000000000000000000000000000000PES00010000001N00000000000000020180310
201802280060000600000000000000801480000000000000008014809900000000000000000000Consumidor Final              000000000092000000000000092000000000000000000000000000000000000000000000000000000000000000000000000000000000000000000000PES00010000001N00000000000000020180310
201802280060000600000000000000801481000000000000008014819900000000000000000000Consumidor Final              000000000081000000000000081000000000000000000000000000000000000000000000000000000000000000000000000000000000000000000000PES00010000001N00000000000000020180310
201802280060000700000000000000583553000000000000005835539900000000000000000000Consumidor Final              000000000079000000000000079000000000000000000000000000000000000000000000000000000000000000000000000000000000000000000000PES00010000001N00000000000000020180310
201802280060000600000000000000801485000000000000008014859900000000000000000000Consumidor Final              000000000085800000000000085800000000000000000000000000000000000000000000000000000000000000000000000000000000000000000000PES00010000001N00000000000000020180310
201802280060000600000000000000801486000000000000008014869900000000000000000000Consumidor Final              000000000075000000000000075000000000000000000000000000000000000000000000000000000000000000000000000000000000000000000000PES00010000001N00000000000000020180310
201802280060000600000000000000801487000000000000008014879900000000000000000000Consumidor Final              000000000081000000000000081000000000000000000000000000000000000000000000000000000000000000000000000000000000000000000000PES00010000001N00000000000000020180310
201802280060000600000000000000801488000000000000008014889900000000000000000000Consumidor Final              000000000081000000000000081000000000000000000000000000000000000000000000000000000000000000000000000000000000000000000000PES00010000001N00000000000000020180310
201802280060000700000000000000583554000000000000005835549900000000000000000000Consumidor Final              000000000078000000000000078000000000000000000000000000000000000000000000000000000000000000000000000000000000000000000000PES00010000001N00000000000000020180310
201802280060000900000000000000047752000000000000000477529900000000000000000000Consumidor Final              000000000086900000000000086900000000000000000000000000000000000000000000000000000000000000000000000000000000000000000000PES00010000001N00000000000000020180310
201802280060000900000000000000047753000000000000000477539900000000000000000000Consumidor Final              000000000094600000000000094600000000000000000000000000000000000000000000000000000000000000000000000000000000000000000000PES00010000001N00000000000000020180310
201802280060000900000000000000047756000000000000000477569900000000000000000000Consumidor Final              000000000078000000000000078000000000000000000000000000000000000000000000000000000000000000000000000000000000000000000000PES00010000001N00000000000000020180310
201802280060000900000000000000047757000000000000000477579900000000000000000000Consumidor Final              000000000078000000000000078000000000000000000000000000000000000000000000000000000000000000000000000000000000000000000000PES00010000001N00000000000000020180310
201802280060000900000000000000047758000000000000000477589900000000000000000000Consumidor Final              000000000085800000000000085800000000000000000000000000000000000000000000000000000000000000000000000000000000000000000000PES00010000001N00000000000000020180310
201802280060000600000000000000801502000000000000008015029900000000000000000000Consumidor Final              000000000078000000000000078000000000000000000000000000000000000000000000000000000000000000000000000000000000000000000000PES00010000001N00000000000000020180310
201802280060000900000000000000047759000000000000000477599900000000000000000000Consumidor Final              000000000040000000000000040000000000000000000000000000000000000000000000000000000000000000000000000000000000000000000000PES00010000001N00000000000000020180310
201802280060000900000000000000047760000000000000000477609900000000000000000000Consumidor Final              000000000044000000000000044000000000000000000000000000000000000000000000000000000000000000000000000000000000000000000000PES00010000001N00000000000000020180310
201802280060000600000000000000801503000000000000008015039900000000000000000000Consumidor Final              000000000078000000000000078000000000000000000000000000000000000000000000000000000000000000000000000000000000000000000000PES00010000001N00000000000000020180310
201802280060000600000000000000801504000000000000008015049900000000000000000000Consumidor Final              000000000078000000000000078000000000000000000000000000000000000000000000000000000000000000000000000000000000000000000000PES00010000001N00000000000000020180310
201802280060000600000000000000801505000000000000008015059900000000000000000000Consumidor Final              000000000078000000000000078000000000000000000000000000000000000000000000000000000000000000000000000000000000000000000000PES00010000001N00000000000000020180310
201802280060000900000000000000047769000000000000000477699900000000000000000000Consumidor Final              000000000078000000000000078000000000000000000000000000000000000000000000000000000000000000000000000000000000000000000000PES00010000001N00000000000000020180310
201802280060000900000000000000047770000000000000000477709900000000000000000000Consumidor Final              000000000094600000000000094600000000000000000000000000000000000000000000000000000000000000000000000000000000000000000000PES00010000001N00000000000000020180310
201802280060000900000000000000047771000000000000000477719900000000000000000000Consumidor Final              000000000078000000000000078000000000000000000000000000000000000000000000000000000000000000000000000000000000000000000000PES00010000001N00000000000000020180310
201802280060000900000000000000047774000000000000000477749900000000000000000000Consumidor Final              000000000078000000000000078000000000000000000000000000000000000000000000000000000000000000000000000000000000000000000000PES00010000001N00000000000000020180310
201802280060000900000000000000047775000000000000000477759900000000000000000000Consumidor Final              000000000078000000000000078000000000000000000000000000000000000000000000000000000000000000000000000000000000000000000000PES00010000001N00000000000000020180310
201802280060000900000000000000047776000000000000000477769000000000099999999999Consumidor Final              000000000124000000000000124000000000000000000000000000000000000000000000000000000000000000000000000000000000000000000000PES00010000001N00000000000000020180310
201802280060000900000000000000047777000000000000000477779900000000000000000000Consumidor Final              000000000085800000000000085800000000000000000000000000000000000000000000000000000000000000000000000000000000000000000000PES00010000001N00000000000000020180310
201802280060000900000000000000047778000000000000000477789900000000000000000000Consumidor Final              000000000075000000000000075000000000000000000000000000000000000000000000000000000000000000000000000000000000000000000000PES00010000001N00000000000000020180310
201802280060000600000000000000801531000000000000008015319900000000000000000000Consumidor Final              000000000078000000000000078000000000000000000000000000000000000000000000000000000000000000000000000000000000000000000000PES00010000001N00000000000000020180310
201802280060000600000000000000801532000000000000008015329900000000000000000000Consumidor Final              000000000079000000000000079000000000000000000000000000000000000000000000000000000000000000000000000000000000000000000000PES00010000001N00000000000000020180310
201802280060000900000000000000047772000000000000000477729900000000000000000000Consumidor Final              000000000038000000000000038000000000000000000000000000000000000000000000000000000000000000000000000000000000000000000000PES00010000001N00000000000000020180310
201802280060000900000000000000047773000000000000000477739900000000000000000000Consumidor Final              000000000078000000000000078000000000000000000000000000000000000000000000000000000000000000000000000000000000000000000000PES00010000001N00000000000000020180310
201802280060000600000000000000801506000000000000008015069900000000000000000000Consumidor Final              000000000078000000000000078000000000000000000000000000000000000000000000000000000000000000000000000000000000000000000000PES00010000001N00000000000000020180310
201802280060000600000000000000801507000000000000008015079900000000000000000000Consumidor Final              000000000092000000000000092000000000000000000000000000000000000000000000000000000000000000000000000000000000000000000000PES00010000001N00000000000000020180310
201802280060000600000000000000801508000000000000008015089900000000000000000000Consumidor Final              000000000078000000000000078000000000000000000000000000000000000000000000000000000000000000000000000000000000000000000000PES00010000001N00000000000000020180310
201802280060000600000000000000801509000000000000008015099900000000000000000000Consumidor Final              000000000040000000000000040000000000000000000000000000000000000000000000000000000000000000000000000000000000000000000000PES00010000001N00000000000000020180310
201802280060000600000000000000801510000000000000008015109900000000000000000000Consumidor Final              000000000053000000000000053000000000000000000000000000000000000000000000000000000000000000000000000000000000000000000000PES00010000001N00000000000000020180310
201802280060000600000000000000801511000000000000008015119900000000000000000000Consumidor Final              000000000046000000000000046000000000000000000000000000000000000000000000000000000000000000000000000000000000000000000000PES00010000001N00000000000000020180310
201802280060000600000000000000801512000000000000008015129900000000000000000000Consumidor Final              000000000078000000000000078000000000000000000000000000000000000000000000000000000000000000000000000000000000000000000000PES00010000001N00000000000000020180310
201802280060000800000000000000198788000000000000001987889900000000000000000000Consumidor Final              000000000068000000000000068000000000000000000000000000000000000000000000000000000000000000000000000000000000000000000000PES00010000001N00000000000000020180310
201802280060000800000000000000198789000000000000001987899900000000000000000000Consumidor Final              000000000068000000000000068000000000000000000000000000000000000000000000000000000000000000000000000000000000000000000000PES00010000001N00000000000000020180310
201802280060000800000000000000198790000000000000001987909900000000000000000000Consumidor Final              000000000038000000000000038000000000000000000000000000000000000000000000000000000000000000000000000000000000000000000000PES00010000001N00000000000000020180310
201802280060000600000000000000801513000000000000008015139900000000000000000000Consumidor Final              000000000079000000000000079000000000000000000000000000000000000000000000000000000000000000000000000000000000000000000000PES00010000001N00000000000000020180310
201802280060000600000000000000801514000000000000008015149900000000000000000000Consumidor Final              000000000079000000000000079000000000000000000000000000000000000000000000000000000000000000000000000000000000000000000000PES00010000001N00000000000000020180310
201802280060000600000000000000801526000000000000008015269900000000000000000000Consumidor Final              000000000078000000000000078000000000000000000000000000000000000000000000000000000000000000000000000000000000000000000000PES00010000001N00000000000000020180310
201802280060000600000000000000801527000000000000008015279900000000000000000000Consumidor Final              000000000078000000000000078000000000000000000000000000000000000000000000000000000000000000000000000000000000000000000000PES00010000001N00000000000000020180310
201802280060000600000000000000801528000000000000008015289900000000000000000000Consumidor Final              000000000078000000000000078000000000000000000000000000000000000000000000000000000000000000000000000000000000000000000000PES00010000001N00000000000000020180310
201802280060000600000000000000801529000000000000008015299900000000000000000000Consumidor Final              000000000078000000000000078000000000000000000000000000000000000000000000000000000000000000000000000000000000000000000000PES00010000001N00000000000000020180310
201802280060000600000000000000801530000000000000008015309900000000000000000000Consumidor Final              000000000085800000000000085800000000000000000000000000000000000000000000000000000000000000000000000000000000000000000000PES00010000001N00000000000000020180310
201802280060000700000000000000583555000000000000005835559900000000000000000000Consumidor Final              000000000078000000000000078000000000000000000000000000000000000000000000000000000000000000000000000000000000000000000000PES00010000001N00000000000000020180310
201802280060000700000000000000583556000000000000005835569900000000000000000000Consumidor Final              000000000078000000000000078000000000000000000000000000000000000000000000000000000000000000000000000000000000000000000000PES00010000001N00000000000000020180310
201802280060000700000000000000583557000000000000005835579900000000000000000000Consumidor Final              000000000078000000000000078000000000000000000000000000000000000000000000000000000000000000000000000000000000000000000000PES00010000001N00000000000000020180310
201802280060000600000000000000801515000000000000008015159900000000000000000000Consumidor Final              000000000092000000000000092000000000000000000000000000000000000000000000000000000000000000000000000000000000000000000000PES00010000001N00000000000000020180310
201802280060000700000000000000583558000000000000005835589900000000000000000000Consumidor Final              000000000076000000000000076000000000000000000000000000000000000000000000000000000000000000000000000000000000000000000000PES00010000001N00000000000000020180310
201802280060000700000000000000583559000000000000005835599900000000000000000000Consumidor Final              000000000078000000000000078000000000000000000000000000000000000000000000000000000000000000000000000000000000000000000000PES00010000001N00000000000000020180310
201802280060000700000000000000583569000000000000005835699900000000000000000000Consumidor Final              000000000038000000000000038000000000000000000000000000000000000000000000000000000000000000000000000000000000000000000000PES00010000001N00000000000000020180310
201802280060000700000000000000583570000000000000005835709900000000000000000000Consumidor Final              000000000078000000000000078000000000000000000000000000000000000000000000000000000000000000000000000000000000000000000000PES00010000001N00000000000000020180310
201802280060000700000000000000583571000000000000005835719900000000000000000000Consumidor Final              000000000078000000000000078000000000000000000000000000000000000000000000000000000000000000000000000000000000000000000000PES00010000001N00000000000000020180310
201802280060000600000000000000801516000000000000008015169900000000000000000000Consumidor Final              000000000079000000000000079000000000000000000000000000000000000000000000000000000000000000000000000000000000000000000000PES00010000001N00000000000000020180310
201802280060000600000000000000801517000000000000008015179900000000000000000000Consumidor Final              000000000092000000000000092000000000000000000000000000000000000000000000000000000000000000000000000000000000000000000000PES00010000001N00000000000000020180310
201802280060000600000000000000801518000000000000008015189900000000000000000000Consumidor Final              000000000085800000000000085800000000000000000000000000000000000000000000000000000000000000000000000000000000000000000000PES00010000001N00000000000000020180310
201802280060000600000000000000801519000000000000008015199900000000000000000000Consumidor Final              000000000078000000000000078000000000000000000000000000000000000000000000000000000000000000000000000000000000000000000000PES00010000001N00000000000000020180310
201802280060000600000000000000801520000000000000008015209000000000099999999999Consumidor Final              000000000101200000000000101200000000000000000000000000000000000000000000000000000000000000000000000000000000000000000000PES00010000001N00000000000000020180310
201802280060000600000000000000801521000000000000008015219900000000000000000000Consumidor Final              000000000084000000000000084000000000000000000000000000000000000000000000000000000000000000000000000000000000000000000000PES00010000001N00000000000000020180310
201802280060000900000000000000047779000000000000000477799900000000000000000000Consumidor Final              000000000081000000000000081000000000000000000000000000000000000000000000000000000000000000000000000000000000000000000000PES00010000001N00000000000000020180310
201802280060000600000000000000801522000000000000008015229900000000000000000000Consumidor Final              000000000078000000000000078000000000000000000000000000000000000000000000000000000000000000000000000000000000000000000000PES00010000001N00000000000000020180310
201802280060000600000000000000801523000000000000008015239900000000000000000000Consumidor Final              000000000041800000000000041800000000000000000000000000000000000000000000000000000000000000000000000000000000000000000000PES00010000001N00000000000000020180310
201802280060000600000000000000801524000000000000008015249900000000000000000000Consumidor Final              000000000078000000000000078000000000000000000000000000000000000000000000000000000000000000000000000000000000000000000000PES00010000001N00000000000000020180310
201802280060000900000000000000047780000000000000000477809900000000000000000000Consumidor Final              000000000085800000000000085800000000000000000000000000000000000000000000000000000000000000000000000000000000000000000000PES00010000001N00000000000000020180310
201802280060000900000000000000047781000000000000000477819900000000000000000000Consumidor Final              000000000078000000000000078000000000000000000000000000000000000000000000000000000000000000000000000000000000000000000000PES00010000001N00000000000000020180310
201802280060000900000000000000047782000000000000000477829900000000000000000000Consumidor Final              000000000085800000000000085800000000000000000000000000000000000000000000000000000000000000000000000000000000000000000000PES00010000001N00000000000000020180310
201802280060000900000000000000047783000000000000000477839900000000000000000000Consumidor Final              000000000078000000000000078000000000000000000000000000000000000000000000000000000000000000000000000000000000000000000000PES00010000001N00000000000000020180310
201802280060000700000000000000583573000000000000005835739900000000000000000000Consumidor Final              000000000078000000000000078000000000000000000000000000000000000000000000000000000000000000000000000000000000000000000000PES00010000001N00000000000000020180310
201802280060000700000000000000583574000000000000005835749900000000000000000000Consumidor Final              000000000078000000000000078000000000000000000000000000000000000000000000000000000000000000000000000000000000000000000000PES00010000001N00000000000000020180310
201802280060000700000000000000583575000000000000005835759900000000000000000000Consumidor Final              000000000078000000000000078000000000000000000000000000000000000000000000000000000000000000000000000000000000000000000000PES00010000001N00000000000000020180310
