201608010060000600000000000000692490000000000000006924909900000000000000000000Consumidor Final              000000000092000000000000092000000000000000000000000000000000000000000000000000000000000000000000000000000000000000000000PES00010000001N00000000000000020160811
201608020060000700000000000000474911000000000000004749119900000000000000000000Consumidor Final              000000000058000000000000058000000000000000000000000000000000000000000000000000000000000000000000000000000000000000000000PES00010000001N00000000000000020160812
201608020060000800000000000000163210000000000000001632109900000000000000000000Consumidor Final              000000000058000000000000058000000000000000000000000000000000000000000000000000000000000000000000000000000000000000000000PES00010000001N00000000000000020160812
201608030060000600000000000000692834000000000000006928349900000000000000000000Consumidor Final              000000000058000000000000058000000000000000000000000000000000000000000000000000000000000000000000000000000000000000000000PES00010000001N00000000000000020160813
201608030060000600000000000000692835000000000000006928359900000000000000000000Consumidor Final              000000000058000000000000058000000000000000000000000000000000000000000000000000000000000000000000000000000000000000000000PES00010000001N00000000000000020160813
201608030060000600000000000000692836000000000000006928369900000000000000000000Consumidor Final              000000000058000000000000058000000000000000000000000000000000000000000000000000000000000000000000000000000000000000000000PES00010000001N00000000000000020160813
201608030060000800000000000000163211000000000000001632119900000000000000000000Consumidor Final              000000000048000000000000048000000000000000000000000000000000000000000000000000000000000000000000000000000000000000000000PES00010000001N00000000000000020160813
201608030060000600000000000000692837000000000000006928379900000000000000000000Consumidor Final              000000000058000000000000058000000000000000000000000000000000000000000000000000000000000000000000000000000000000000000000PES00010000001N00000000000000020160813
201608030060000800000000000000163212000000000000001632129900000000000000000000Consumidor Final              000000000048000000000000048000000000000000000000000000000000000000000000000000000000000000000000000000000000000000000000PES00010000001N00000000000000020160813
201608030060000600000000000000692838000000000000006928389900000000000000000000Consumidor Final              000000000058000000000000058000000000000000000000000000000000000000000000000000000000000000000000000000000000000000000000PES00010000001N00000000000000020160813
201608030060000800000000000000163213000000000000001632139900000000000000000000Consumidor Final              000000000048000000000000048000000000000000000000000000000000000000000000000000000000000000000000000000000000000000000000PES00010000001N00000000000000020160813
201608030060000600000000000000692845000000000000006928459900000000000000000000Consumidor Final              000000000070000000000000070000000000000000000000000000000000000000000000000000000000000000000000000000000000000000000000PES00010000001N00000000000000020160813
201608030060000600000000000000692846000000000000006928469900000000000000000000Consumidor Final              000000000060000000000000060000000000000000000000000000000000000000000000000000000000000000000000000000000000000000000000PES00010000001N00000000000000020160813
201608040060000600000000000000693287000000000000006932879900000000000000000000Consumidor Final              000000000058000000000000058000000000000000000000000000000000000000000000000000000000000000000000000000000000000000000000PES00010000001N00000000000000020160814
201608040060000700000000000000475005000000000000004750059900000000000000000000Consumidor Final              000000000058000000000000058000000000000000000000000000000000000000000000000000000000000000000000000000000000000000000000PES00010000001N00000000000000020160814
201608040060000700000000000000475006000000000000004750069900000000000000000000Consumidor Final              000000000058000000000000058000000000000000000000000000000000000000000000000000000000000000000000000000000000000000000000PES00010000001N00000000000000020160814
201608040060000700000000000000475011000000000000004750119900000000000000000000Consumidor Final              000000000058000000000000058000000000000000000000000000000000000000000000000000000000000000000000000000000000000000000000PES00010000001N00000000000000020160814
201608040060000700000000000000475012000000000000004750129900000000000000000000Consumidor Final              000000000058000000000000058000000000000000000000000000000000000000000000000000000000000000000000000000000000000000000000PES00010000001N00000000000000020160814
201608040060000700000000000000475013000000000000004750139900000000000000000000Consumidor Final              000000000058000000000000058000000000000000000000000000000000000000000000000000000000000000000000000000000000000000000000PES00010000001N00000000000000020160814
201608040060000700000000000000475014000000000000004750149900000000000000000000Consumidor Final              000000000058000000000000058000000000000000000000000000000000000000000000000000000000000000000000000000000000000000000000PES00010000001N00000000000000020160814
201608040060000700000000000000475026000000000000004750269900000000000000000000Consumidor Final              000000000058000000000000058000000000000000000000000000000000000000000000000000000000000000000000000000000000000000000000PES00010000001N00000000000000020160814
201608040060000600000000000000693321000000000000006933219900000000000000000000Consumidor Final              000000000058000000000000058000000000000000000000000000000000000000000000000000000000000000000000000000000000000000000000PES00010000001N00000000000000020160814
201608040060000600000000000000693322000000000000006933229900000000000000000000Consumidor Final              000000000058000000000000058000000000000000000000000000000000000000000000000000000000000000000000000000000000000000000000PES00010000001N00000000000000020160814
201608040060000600000000000000693323000000000000006933239900000000000000000000Consumidor Final              000000000058000000000000058000000000000000000000000000000000000000000000000000000000000000000000000000000000000000000000PES00010000001N00000000000000020160814
201608040060000600000000000000693324000000000000006933249900000000000000000000Consumidor Final              000000000058000000000000058000000000000000000000000000000000000000000000000000000000000000000000000000000000000000000000PES00010000001N00000000000000020160814
201608040060000600000000000000693408000000000000006934089900000000000000000000Consumidor Final              000000000058000000000000058000000000000000000000000000000000000000000000000000000000000000000000000000000000000000000000PES00010000001N00000000000000020160814
201608040060000600000000000000693409000000000000006934099900000000000000000000Consumidor Final              000000000058000000000000058000000000000000000000000000000000000000000000000000000000000000000000000000000000000000000000PES00010000001N00000000000000020160814
201608040060000600000000000000693410000000000000006934109900000000000000000000Consumidor Final              000000000058000000000000058000000000000000000000000000000000000000000000000000000000000000000000000000000000000000000000PES00010000001N00000000000000020160814
201608040060000900000000000000030907000000000000000309079900000000000000000000Consumidor Final              000000000053000000000000053000000000000000000000000000000000000000000000000000000000000000000000000000000000000000000000PES00010000001N00000000000000020160814
201608040060000600000000000000693411000000000000006934119900000000000000000000Consumidor Final              000000000058000000000000058000000000000000000000000000000000000000000000000000000000000000000000000000000000000000000000PES00010000001N00000000000000020160814
201608040060000600000000000000693412000000000000006934129900000000000000000000Consumidor Final              000000000058000000000000058000000000000000000000000000000000000000000000000000000000000000000000000000000000000000000000PES00010000001N00000000000000020160814
201608040060000600000000000000693413000000000000006934139900000000000000000000Consumidor Final              000000000058000000000000058000000000000000000000000000000000000000000000000000000000000000000000000000000000000000000000PES00010000001N00000000000000020160814
201608040060000600000000000000693414000000000000006934149900000000000000000000Consumidor Final              000000000058000000000000058000000000000000000000000000000000000000000000000000000000000000000000000000000000000000000000PES00010000001N00000000000000020160814
201608040060000600000000000000693415000000000000006934159900000000000000000000Consumidor Final              000000000058000000000000058000000000000000000000000000000000000000000000000000000000000000000000000000000000000000000000PES00010000001N00000000000000020160814
201608040060000600000000000000693416000000000000006934169900000000000000000000Consumidor Final              000000000058000000000000058000000000000000000000000000000000000000000000000000000000000000000000000000000000000000000000PES00010000001N00000000000000020160814
201608040060000600000000000000693417000000000000006934179900000000000000000000Consumidor Final              000000000058000000000000058000000000000000000000000000000000000000000000000000000000000000000000000000000000000000000000PES00010000001N00000000000000020160814
201608040060000600000000000000693418000000000000006934189900000000000000000000Consumidor Final              000000000058000000000000058000000000000000000000000000000000000000000000000000000000000000000000000000000000000000000000PES00010000001N00000000000000020160814
201608040060000600000000000000693430000000000000006934309900000000000000000000Consumidor Final              000000000060000000000000060000000000000000000000000000000000000000000000000000000000000000000000000000000000000000000000PES00010000001N00000000000000020160814
201608040060000600000000000000693433000000000000006934339900000000000000000000Consumidor Final              000000000069000000000000069000000000000000000000000000000000000000000000000000000000000000000000000000000000000000000000PES00010000001N00000000000000020160814
201608040060000600000000000000693434000000000000006934349900000000000000000000Consumidor Final              000000000058000000000000058000000000000000000000000000000000000000000000000000000000000000000000000000000000000000000000PES00010000001N00000000000000020160814
201608050060000600000000000000693438000000000000006934389900000000000000000000Consumidor Final              000000000058000000000000058000000000000000000000000000000000000000000000000000000000000000000000000000000000000000000000PES00010000001N00000000000000020160815
201608050060000600000000000000693439000000000000006934399900000000000000000000Consumidor Final              000000000058000000000000058000000000000000000000000000000000000000000000000000000000000000000000000000000000000000000000PES00010000001N00000000000000020160815
201608050060000600000000000000693440000000000000006934409900000000000000000000Consumidor Final              000000000058000000000000058000000000000000000000000000000000000000000000000000000000000000000000000000000000000000000000PES00010000001N00000000000000020160815
201608050060000600000000000000693441000000000000006934419900000000000000000000Consumidor Final              000000000058000000000000058000000000000000000000000000000000000000000000000000000000000000000000000000000000000000000000PES00010000001N00000000000000020160815
201608050010000600000000000000007864000000000000000078648000000000030606188451LABYES SA                     000000000058000000000000058000000000000000000000000000000000000000000000000000000000000000000000000000000000000000000000PES00010000001N00000000000000020160815
201608050060000600000000000000693444000000000000006934449900000000000000000000Consumidor Final              000000000058000000000000058000000000000000000000000000000000000000000000000000000000000000000000000000000000000000000000PES00010000001N00000000000000020160815
201608050060000600000000000000693445000000000000006934459900000000000000000000Consumidor Final              000000000069000000000000069000000000000000000000000000000000000000000000000000000000000000000000000000000000000000000000PES00010000001N00000000000000020160815
201608050060000600000000000000693597000000000000006935979900000000000000000000Consumidor Final              000000000058000000000000058000000000000000000000000000000000000000000000000000000000000000000000000000000000000000000000PES00010000001N00000000000000020160815
201608050060000600000000000000693453000000000000006934539900000000000000000000Consumidor Final              000000000065000000000000065000000000000000000000000000000000000000000000000000000000000000000000000000000000000000000000PES00010000001N00000000000000020160815
201608040060000600000000000000693435000000000000006934359900000000000000000000Consumidor Final              000000000069000000000000069000000000000000000000000000000000000000000000000000000000000000000000000000000000000000000000PES00010000001N00000000000000020160814
201608040060000600000000000000693436000000000000006934369900000000000000000000Consumidor Final              000000000071000000000000071000000000000000000000000000000000000000000000000000000000000000000000000000000000000000000000PES00010000001N00000000000000020160814
201608040060000600000000000000693437000000000000006934379900000000000000000000Consumidor Final              000000000060000000000000060000000000000000000000000000000000000000000000000000000000000000000000000000000000000000000000PES00010000001N00000000000000020160814
201608050060000600000000000000693475000000000000006934759900000000000000000000Consumidor Final              000000000058000000000000058000000000000000000000000000000000000000000000000000000000000000000000000000000000000000000000PES00010000001N00000000000000020160815
201608050060000600000000000000693476000000000000006934769900000000000000000000Consumidor Final              000000000071000000000000071000000000000000000000000000000000000000000000000000000000000000000000000000000000000000000000PES00010000001N00000000000000020160815
201608050060000600000000000000693477000000000000006934779900000000000000000000Consumidor Final              000000000058000000000000058000000000000000000000000000000000000000000000000000000000000000000000000000000000000000000000PES00010000001N00000000000000020160815
201608050060000600000000000000693478000000000000006934789900000000000000000000Consumidor Final              000000000058000000000000058000000000000000000000000000000000000000000000000000000000000000000000000000000000000000000000PES00010000001N00000000000000020160815
201608050060000800000000000000163324000000000000001633249900000000000000000000Consumidor Final              000000000033000000000000033000000000000000000000000000000000000000000000000000000000000000000000000000000000000000000000PES00010000001N00000000000000020160815
201608050060000800000000000000163325000000000000001633259900000000000000000000Consumidor Final              000000000028000000000000028000000000000000000000000000000000000000000000000000000000000000000000000000000000000000000000PES00010000001N00000000000000020160815
201608050060000600000000000000693496000000000000006934969900000000000000000000Consumidor Final              000000000059000000000000059000000000000000000000000000000000000000000000000000000000000000000000000000000000000000000000PES00010000001N00000000000000020160815
201608050060000700000000000000475068000000000000004750689900000000000000000000Consumidor Final              000000000058000000000000058000000000000000000000000000000000000000000000000000000000000000000000000000000000000000000000PES00010000001N00000000000000020160815
201608050060000700000000000000475069000000000000004750699900000000000000000000Consumidor Final              000000000058000000000000058000000000000000000000000000000000000000000000000000000000000000000000000000000000000000000000PES00010000001N00000000000000020160815
201608050060000600000000000000693442000000000000006934429900000000000000000000Consumidor Final              000000000058000000000000058000000000000000000000000000000000000000000000000000000000000000000000000000000000000000000000PES00010000001N00000000000000020160815
201608050060000600000000000000693443000000000000006934439900000000000000000000Consumidor Final              000000000059000000000000059000000000000000000000000000000000000000000000000000000000000000000000000000000000000000000000PES00010000001N00000000000000020160815
201608050060000800000000000000163320000000000000001633209900000000000000000000Consumidor Final              000000000048000000000000048000000000000000000000000000000000000000000000000000000000000000000000000000000000000000000000PES00010000001N00000000000000020160815
201608050060000800000000000000163321000000000000001633219900000000000000000000Consumidor Final              000000000048000000000000048000000000000000000000000000000000000000000000000000000000000000000000000000000000000000000000PES00010000001N00000000000000020160815
201608050060000800000000000000163322000000000000001633229900000000000000000000Consumidor Final              000000000048000000000000048000000000000000000000000000000000000000000000000000000000000000000000000000000000000000000000PES00010000001N00000000000000020160815
201608050060000800000000000000163323000000000000001633239900000000000000000000Consumidor Final              000000000048000000000000048000000000000000000000000000000000000000000000000000000000000000000000000000000000000000000000PES00010000001N00000000000000020160815
201608050060000600000000000000693485000000000000006934859900000000000000000000Consumidor Final              000000000058000000000000058000000000000000000000000000000000000000000000000000000000000000000000000000000000000000000000PES00010000001N00000000000000020160815
201608050060000600000000000000693486000000000000006934869900000000000000000000Consumidor Final              000000000069000000000000069000000000000000000000000000000000000000000000000000000000000000000000000000000000000000000000PES00010000001N00000000000000020160815
201608050060000600000000000000693487000000000000006934879900000000000000000000Consumidor Final              000000000058000000000000058000000000000000000000000000000000000000000000000000000000000000000000000000000000000000000000PES00010000001N00000000000000020160815
201608050060000800000000000000163335000000000000001633359900000000000000000000Consumidor Final              000000000048000000000000048000000000000000000000000000000000000000000000000000000000000000000000000000000000000000000000PES00010000001N00000000000000020160815
201608050060000600000000000000693542000000000000006935429900000000000000000000Consumidor Final              000000000058000000000000058000000000000000000000000000000000000000000000000000000000000000000000000000000000000000000000PES00010000001N00000000000000020160815
201608050060000600000000000000693454000000000000006934549900000000000000000000Consumidor Final              000000000060000000000000060000000000000000000000000000000000000000000000000000000000000000000000000000000000000000000000PES00010000001N00000000000000020160815
201608050060000600000000000000693455000000000000006934559900000000000000000000Consumidor Final              000000000058000000000000058000000000000000000000000000000000000000000000000000000000000000000000000000000000000000000000PES00010000001N00000000000000020160815
201608050060000600000000000000693456000000000000006934569900000000000000000000Consumidor Final              000000000056000000000000056000000000000000000000000000000000000000000000000000000000000000000000000000000000000000000000PES00010000001N00000000000000020160815
201608050060000600000000000000693457000000000000006934579900000000000000000000Consumidor Final              000000000058000000000000058000000000000000000000000000000000000000000000000000000000000000000000000000000000000000000000PES00010000001N00000000000000020160815
201608050060000600000000000000693458000000000000006934589900000000000000000000Consumidor Final              000000000058000000000000058000000000000000000000000000000000000000000000000000000000000000000000000000000000000000000000PES00010000001N00000000000000020160815
201608050060000600000000000000693459000000000000006934599900000000000000000000Consumidor Final              000000000058000000000000058000000000000000000000000000000000000000000000000000000000000000000000000000000000000000000000PES00010000001N00000000000000020160815
201608050060000600000000000000693468000000000000006934689900000000000000000000Consumidor Final              000000000060000000000000060000000000000000000000000000000000000000000000000000000000000000000000000000000000000000000000PES00010000001N00000000000000020160815
201608050060000600000000000000693469000000000000006934699900000000000000000000Consumidor Final              000000000060000000000000060000000000000000000000000000000000000000000000000000000000000000000000000000000000000000000000PES00010000001N00000000000000020160815
201608050060000600000000000000693470000000000000006934709900000000000000000000Consumidor Final              000000000028000000000000028000000000000000000000000000000000000000000000000000000000000000000000000000000000000000000000PES00010000001N00000000000000020160815
201608050060000600000000000000693471000000000000006934719900000000000000000000Consumidor Final              000000000069000000000000069000000000000000000000000000000000000000000000000000000000000000000000000000000000000000000000PES00010000001N00000000000000020160815
201608050060000600000000000000693472000000000000006934729900000000000000000000Consumidor Final              000000000058000000000000058000000000000000000000000000000000000000000000000000000000000000000000000000000000000000000000PES00010000001N00000000000000020160815
201608050060000600000000000000693474000000000000006934749900000000000000000000Consumidor Final              000000000058000000000000058000000000000000000000000000000000000000000000000000000000000000000000000000000000000000000000PES00010000001N00000000000000020160815
201608050060000600000000000000693460000000000000006934609900000000000000000000Consumidor Final              000000000058000000000000058000000000000000000000000000000000000000000000000000000000000000000000000000000000000000000000PES00010000001N00000000000000020160815
201608050060000600000000000000693461000000000000006934619900000000000000000000Consumidor Final              000000000069000000000000069000000000000000000000000000000000000000000000000000000000000000000000000000000000000000000000PES00010000001N00000000000000020160815
201608050060000600000000000000693462000000000000006934629900000000000000000000Consumidor Final              000000000058000000000000058000000000000000000000000000000000000000000000000000000000000000000000000000000000000000000000PES00010000001N00000000000000020160815
201608050060000600000000000000693463000000000000006934639900000000000000000000Consumidor Final              000000000069000000000000069000000000000000000000000000000000000000000000000000000000000000000000000000000000000000000000PES00010000001N00000000000000020160815
201608050060000600000000000000693464000000000000006934649900000000000000000000Consumidor Final              000000000058000000000000058000000000000000000000000000000000000000000000000000000000000000000000000000000000000000000000PES00010000001N00000000000000020160815
201608050060000600000000000000693465000000000000006934659900000000000000000000Consumidor Final              000000000058000000000000058000000000000000000000000000000000000000000000000000000000000000000000000000000000000000000000PES00010000001N00000000000000020160815
201608050060000600000000000000693466000000000000006934669900000000000000000000Consumidor Final              000000000058000000000000058000000000000000000000000000000000000000000000000000000000000000000000000000000000000000000000PES00010000001N00000000000000020160815
201608050060000600000000000000693467000000000000006934679900000000000000000000Consumidor Final              000000000058000000000000058000000000000000000000000000000000000000000000000000000000000000000000000000000000000000000000PES00010000001N00000000000000020160815
201608050060000600000000000000693473000000000000006934739900000000000000000000Consumidor Final              000000000058000000000000058000000000000000000000000000000000000000000000000000000000000000000000000000000000000000000000PES00010000001N00000000000000020160815
201608050060000600000000000000693479000000000000006934799900000000000000000000Consumidor Final              000000000058000000000000058000000000000000000000000000000000000000000000000000000000000000000000000000000000000000000000PES00010000001N00000000000000020160815
201608050060000600000000000000693480000000000000006934809900000000000000000000Consumidor Final              000000000058000000000000058000000000000000000000000000000000000000000000000000000000000000000000000000000000000000000000PES00010000001N00000000000000020160815
201608050060000600000000000000693500000000000000006935009900000000000000000000Consumidor Final              000000000069000000000000069000000000000000000000000000000000000000000000000000000000000000000000000000000000000000000000PES00010000001N00000000000000020160815
201608050060000600000000000000693481000000000000006934819900000000000000000000Consumidor Final              000000000069000000000000069000000000000000000000000000000000000000000000000000000000000000000000000000000000000000000000PES00010000001N00000000000000020160815
201608050060000600000000000000693482000000000000006934829900000000000000000000Consumidor Final              000000000060000000000000060000000000000000000000000000000000000000000000000000000000000000000000000000000000000000000000PES00010000001N00000000000000020160815
201608050060000600000000000000693483000000000000006934839900000000000000000000Consumidor Final              000000000058000000000000058000000000000000000000000000000000000000000000000000000000000000000000000000000000000000000000PES00010000001N00000000000000020160815
201608050060000600000000000000693484000000000000006934849900000000000000000000Consumidor Final              000000000058000000000000058000000000000000000000000000000000000000000000000000000000000000000000000000000000000000000000PES00010000001N00000000000000020160815
201608050060000800000000000000163326000000000000001633269900000000000000000000Consumidor Final              000000000048000000000000048000000000000000000000000000000000000000000000000000000000000000000000000000000000000000000000PES00010000001N00000000000000020160815
201608050060000800000000000000163327000000000000001633279900000000000000000000Consumidor Final              000000000048000000000000048000000000000000000000000000000000000000000000000000000000000000000000000000000000000000000000PES00010000001N00000000000000020160815
201608050060000800000000000000163328000000000000001633289900000000000000000000Consumidor Final              000000000033000000000000033000000000000000000000000000000000000000000000000000000000000000000000000000000000000000000000PES00010000001N00000000000000020160815
201608050060000800000000000000163329000000000000001633299900000000000000000000Consumidor Final              000000000033000000000000033000000000000000000000000000000000000000000000000000000000000000000000000000000000000000000000PES00010000001N00000000000000020160815
201608050060000600000000000000693497000000000000006934979900000000000000000000Consumidor Final              000000000058000000000000058000000000000000000000000000000000000000000000000000000000000000000000000000000000000000000000PES00010000001N00000000000000020160815
201608050060000600000000000000693498000000000000006934989900000000000000000000Consumidor Final              000000000058000000000000058000000000000000000000000000000000000000000000000000000000000000000000000000000000000000000000PES00010000001N00000000000000020160815
201608050060000600000000000000693499000000000000006934999900000000000000000000Consumidor Final              000000000058000000000000058000000000000000000000000000000000000000000000000000000000000000000000000000000000000000000000PES00010000001N00000000000000020160815
201608050060000600000000000000693501000000000000006935019900000000000000000000Consumidor Final              000000000028000000000000028000000000000000000000000000000000000000000000000000000000000000000000000000000000000000000000PES00010000001N00000000000000020160815
201608010060000700000000000000474570000000000000004745709900000000000000000000Consumidor Final              000000000048000000000000048000000000000000000000000000000000000000000000000000000000000000000000000000000000000000000000PES00010000001N00000000000000020160811
201608010060000700000000000000474571000000000000004745719900000000000000000000Consumidor Final              000000000058000000000000058000000000000000000000000000000000000000000000000000000000000000000000000000000000000000000000PES00010000001N00000000000000020160811
201608010060000700000000000000474572000000000000004745729900000000000000000000Consumidor Final              000000000058000000000000058000000000000000000000000000000000000000000000000000000000000000000000000000000000000000000000PES00010000001N00000000000000020160811
201608010060000700000000000000474573000000000000004745739900000000000000000000Consumidor Final              000000000057000000000000057000000000000000000000000000000000000000000000000000000000000000000000000000000000000000000000PES00010000001N00000000000000020160811
201608010060000600000000000000692361000000000000006923619900000000000000000000Consumidor Final              000000000060000000000000060000000000000000000000000000000000000000000000000000000000000000000000000000000000000000000000PES00010000001N00000000000000020160811
201608010060000700000000000000474635000000000000004746359900000000000000000000Consumidor Final              000000000058000000000000058000000000000000000000000000000000000000000000000000000000000000000000000000000000000000000000PES00010000001N00000000000000020160811
201608010060000700000000000000474636000000000000004746369900000000000000000000Consumidor Final              000000000058000000000000058000000000000000000000000000000000000000000000000000000000000000000000000000000000000000000000PES00010000001N00000000000000020160811
201608010060000700000000000000474637000000000000004746378000000000020101184413HECTOR EDUARDO GARCIA         000000000103000000000000103000000000000000000000000000000000000000000000000000000000000000000000000000000000000000000000PES00010000001N00000000000000020160811
201608010060000600000000000000692410000000000000006924109900000000000000000000Consumidor Final              000000000058000000000000058000000000000000000000000000000000000000000000000000000000000000000000000000000000000000000000PES00010000001N00000000000000020160811
201608010060000600000000000000692411000000000000006924119900000000000000000000Consumidor Final              000000000092000000000000092000000000000000000000000000000000000000000000000000000000000000000000000000000000000000000000PES00010000001N00000000000000020160811
201608010060000600000000000000692412000000000000006924129900000000000000000000Consumidor Final              000000000053000000000000053000000000000000000000000000000000000000000000000000000000000000000000000000000000000000000000PES00010000001N00000000000000020160811
201608010060000700000000000000474642000000000000004746429900000000000000000000Consumidor Final              000000000048000000000000048000000000000000000000000000000000000000000000000000000000000000000000000000000000000000000000PES00010000001N00000000000000020160811
201608010060000600000000000000692413000000000000006924139900000000000000000000Consumidor Final              000000000058000000000000058000000000000000000000000000000000000000000000000000000000000000000000000000000000000000000000PES00010000001N00000000000000020160811
201608010060000700000000000000474643000000000000004746439900000000000000000000Consumidor Final              000000000048000000000000048000000000000000000000000000000000000000000000000000000000000000000000000000000000000000000000PES00010000001N00000000000000020160811
201608010060000700000000000000474644000000000000004746449900000000000000000000Consumidor Final              000000000049000000000000049000000000000000000000000000000000000000000000000000000000000000000000000000000000000000000000PES00010000001N00000000000000020160811
201608010060000700000000000000474645000000000000004746459900000000000000000000Consumidor Final              000000000059000000000000059000000000000000000000000000000000000000000000000000000000000000000000000000000000000000000000PES00010000001N00000000000000020160811
201608010060000800000000000000163108000000000000001631089900000000000000000000Consumidor Final              000000000048000000000000048000000000000000000000000000000000000000000000000000000000000000000000000000000000000000000000PES00010000001N00000000000000020160811
201608010060000600000000000000692439000000000000006924399900000000000000000000Consumidor Final              000000000049000000000000049000000000000000000000000000000000000000000000000000000000000000000000000000000000000000000000PES00010000001N00000000000000020160811
201608010060000700000000000000474574000000000000004745749900000000000000000000Consumidor Final              000000000058000000000000058000000000000000000000000000000000000000000000000000000000000000000000000000000000000000000000PES00010000001N00000000000000020160811
201608010060000700000000000000474575000000000000004745759900000000000000000000Consumidor Final              000000000058000000000000058000000000000000000000000000000000000000000000000000000000000000000000000000000000000000000000PES00010000001N00000000000000020160811
201608010060000700000000000000474576000000000000004745769900000000000000000000Consumidor Final              000000000058000000000000058000000000000000000000000000000000000000000000000000000000000000000000000000000000000000000000PES00010000001N00000000000000020160811
201608010060000700000000000000474577000000000000004745779900000000000000000000Consumidor Final              000000000058000000000000058000000000000000000000000000000000000000000000000000000000000000000000000000000000000000000000PES00010000001N00000000000000020160811
201608010060000700000000000000474627000000000000004746279900000000000000000000Consumidor Final              000000000058000000000000058000000000000000000000000000000000000000000000000000000000000000000000000000000000000000000000PES00010000001N00000000000000020160811
201608010060000700000000000000474628000000000000004746289900000000000000000000Consumidor Final              000000000058000000000000058000000000000000000000000000000000000000000000000000000000000000000000000000000000000000000000PES00010000001N00000000000000020160811
201608010060000700000000000000474582000000000000004745829900000000000000000000Consumidor Final              000000000060000000000000060000000000000000000000000000000000000000000000000000000000000000000000000000000000000000000000PES00010000001N00000000000000020160811
201608010060000600000000000000692367000000000000006923679900000000000000000000Consumidor Final              000000000058000000000000058000000000000000000000000000000000000000000000000000000000000000000000000000000000000000000000PES00010000001N00000000000000020160811
201608010060000600000000000000692368000000000000006923689900000000000000000000Consumidor Final              000000000058000000000000058000000000000000000000000000000000000000000000000000000000000000000000000000000000000000000000PES00010000001N00000000000000020160811
201608010060000700000000000000474596000000000000004745969900000000000000000000Consumidor Final              000000000092000000000000092000000000000000000000000000000000000000000000000000000000000000000000000000000000000000000000PES00010000001N00000000000000020160811
201608010060000700000000000000474597000000000000004745979900000000000000000000Consumidor Final              000000000056000000000000056000000000000000000000000000000000000000000000000000000000000000000000000000000000000000000000PES00010000001N00000000000000020160811
201608010060000700000000000000474610000000000000004746109900000000000000000000Consumidor Final              000000000058000000000000058000000000000000000000000000000000000000000000000000000000000000000000000000000000000000000000PES00010000001N00000000000000020160811
201608010060000700000000000000474618000000000000004746189900000000000000000000Consumidor Final              000000000058000000000000058000000000000000000000000000000000000000000000000000000000000000000000000000000000000000000000PES00010000001N00000000000000020160811
201608010060000700000000000000474619000000000000004746199900000000000000000000Consumidor Final              000000000053000000000000053000000000000000000000000000000000000000000000000000000000000000000000000000000000000000000000PES00010000001N00000000000000020160811
201608010060000700000000000000474620000000000000004746209900000000000000000000Consumidor Final              000000000084000000000000084000000000000000000000000000000000000000000000000000000000000000000000000000000000000000000000PES00010000001N00000000000000020160811
201608010060000700000000000000474621000000000000004746219900000000000000000000Consumidor Final              000000000055000000000000055000000000000000000000000000000000000000000000000000000000000000000000000000000000000000000000PES00010000001N00000000000000020160811
201608010060000700000000000000474622000000000000004746229900000000000000000000Consumidor Final              000000000058000000000000058000000000000000000000000000000000000000000000000000000000000000000000000000000000000000000000PES00010000001N00000000000000020160811
201608010060000700000000000000474623000000000000004746239900000000000000000000Consumidor Final              000000000058000000000000058000000000000000000000000000000000000000000000000000000000000000000000000000000000000000000000PES00010000001N00000000000000020160811
201608010060000700000000000000474583000000000000004745839900000000000000000000Consumidor Final              000000000060000000000000060000000000000000000000000000000000000000000000000000000000000000000000000000000000000000000000PES00010000001N00000000000000020160811
201608010060000700000000000000474590000000000000004745909900000000000000000000Consumidor Final              000000000058000000000000058000000000000000000000000000000000000000000000000000000000000000000000000000000000000000000000PES00010000001N00000000000000020160811
201608010060000700000000000000474591000000000000004745919900000000000000000000Consumidor Final              000000000038000000000000038000000000000000000000000000000000000000000000000000000000000000000000000000000000000000000000PES00010000001N00000000000000020160811
201608010060000700000000000000474592000000000000004745929900000000000000000000Consumidor Final              000000000058000000000000058000000000000000000000000000000000000000000000000000000000000000000000000000000000000000000000PES00010000001N00000000000000020160811
201608010060000600000000000000692362000000000000006923629900000000000000000000Consumidor Final              000000000058000000000000058000000000000000000000000000000000000000000000000000000000000000000000000000000000000000000000PES00010000001N00000000000000020160811
201608010060000600000000000000692363000000000000006923639900000000000000000000Consumidor Final              000000000058000000000000058000000000000000000000000000000000000000000000000000000000000000000000000000000000000000000000PES00010000001N00000000000000020160811
201608010060000600000000000000692364000000000000006923649900000000000000000000Consumidor Final              000000000060000000000000060000000000000000000000000000000000000000000000000000000000000000000000000000000000000000000000PES00010000001N00000000000000020160811
201608010060000600000000000000692365000000000000006923659900000000000000000000Consumidor Final              000000000058000000000000058000000000000000000000000000000000000000000000000000000000000000000000000000000000000000000000PES00010000001N00000000000000020160811
201608010060000600000000000000692366000000000000006923669900000000000000000000Consumidor Final              000000000059000000000000059000000000000000000000000000000000000000000000000000000000000000000000000000000000000000000000PES00010000001N00000000000000020160811
201608010060000700000000000000474578000000000000004745789900000000000000000000Consumidor Final              000000000058000000000000058000000000000000000000000000000000000000000000000000000000000000000000000000000000000000000000PES00010000001N00000000000000020160811
201608010060000700000000000000474579000000000000004745799900000000000000000000Consumidor Final              000000000058000000000000058000000000000000000000000000000000000000000000000000000000000000000000000000000000000000000000PES00010000001N00000000000000020160811
201608010060000700000000000000474580000000000000004745809900000000000000000000Consumidor Final              000000000048000000000000048000000000000000000000000000000000000000000000000000000000000000000000000000000000000000000000PES00010000001N00000000000000020160811
201608010060000700000000000000474581000000000000004745819900000000000000000000Consumidor Final              000000000060000000000000060000000000000000000000000000000000000000000000000000000000000000000000000000000000000000000000PES00010000001N00000000000000020160811
201608010060000700000000000000474584000000000000004745849900000000000000000000Consumidor Final              000000000058000000000000058000000000000000000000000000000000000000000000000000000000000000000000000000000000000000000000PES00010000001N00000000000000020160811
201608010060000700000000000000474585000000000000004745859900000000000000000000Consumidor Final              000000000028000000000000028000000000000000000000000000000000000000000000000000000000000000000000000000000000000000000000PES00010000001N00000000000000020160811
201608010060000700000000000000474586000000000000004745869900000000000000000000Consumidor Final              000000000058000000000000058000000000000000000000000000000000000000000000000000000000000000000000000000000000000000000000PES00010000001N00000000000000020160811
201608010060000700000000000000474587000000000000004745879900000000000000000000Consumidor Final              000000000058000000000000058000000000000000000000000000000000000000000000000000000000000000000000000000000000000000000000PES00010000001N00000000000000020160811
201608010060000700000000000000474588000000000000004745889900000000000000000000Consumidor Final              000000000058000000000000058000000000000000000000000000000000000000000000000000000000000000000000000000000000000000000000PES00010000001N00000000000000020160811
201608010060000700000000000000474589000000000000004745899900000000000000000000Consumidor Final              000000000058000000000000058000000000000000000000000000000000000000000000000000000000000000000000000000000000000000000000PES00010000001N00000000000000020160811
201608010060000700000000000000474593000000000000004745939900000000000000000000Consumidor Final              000000000058000000000000058000000000000000000000000000000000000000000000000000000000000000000000000000000000000000000000PES00010000001N00000000000000020160811
201608010060000700000000000000474594000000000000004745949900000000000000000000Consumidor Final              000000000060000000000000060000000000000000000000000000000000000000000000000000000000000000000000000000000000000000000000PES00010000001N00000000000000020160811
201608010060000700000000000000474595000000000000004745959900000000000000000000Consumidor Final              000000000060000000000000060000000000000000000000000000000000000000000000000000000000000000000000000000000000000000000000PES00010000001N00000000000000020160811
201608010060000600000000000000692369000000000000006923699900000000000000000000Consumidor Final              000000000048000000000000048000000000000000000000000000000000000000000000000000000000000000000000000000000000000000000000PES00010000001N00000000000000020160811
201608010060000600000000000000692370000000000000006923709900000000000000000000Consumidor Final              000000000048000000000000048000000000000000000000000000000000000000000000000000000000000000000000000000000000000000000000PES00010000001N00000000000000020160811
201608010060000600000000000000692371000000000000006923719900000000000000000000Consumidor Final              000000000048000000000000048000000000000000000000000000000000000000000000000000000000000000000000000000000000000000000000PES00010000001N00000000000000020160811
201608010060000600000000000000692372000000000000006923729900000000000000000000Consumidor Final              000000000048000000000000048000000000000000000000000000000000000000000000000000000000000000000000000000000000000000000000PES00010000001N00000000000000020160811
201608010060000600000000000000692373000000000000006923739900000000000000000000Consumidor Final              000000000048000000000000048000000000000000000000000000000000000000000000000000000000000000000000000000000000000000000000PES00010000001N00000000000000020160811
201608010060000600000000000000692374000000000000006923749900000000000000000000Consumidor Final              000000000058000000000000058000000000000000000000000000000000000000000000000000000000000000000000000000000000000000000000PES00010000001N00000000000000020160811
201608010060000600000000000000692375000000000000006923759900000000000000000000Consumidor Final              000000000069000000000000069000000000000000000000000000000000000000000000000000000000000000000000000000000000000000000000PES00010000001N00000000000000020160811
201608010060000600000000000000692376000000000000006923769900000000000000000000Consumidor Final              000000000056000000000000056000000000000000000000000000000000000000000000000000000000000000000000000000000000000000000000PES00010000001N00000000000000020160811
201608010060000600000000000000692377000000000000006923779900000000000000000000Consumidor Final              000000000071000000000000071000000000000000000000000000000000000000000000000000000000000000000000000000000000000000000000PES00010000001N00000000000000020160811
201608010060000600000000000000692378000000000000006923789900000000000000000000Consumidor Final              000000000056000000000000056000000000000000000000000000000000000000000000000000000000000000000000000000000000000000000000PES00010000001N00000000000000020160811
201608010060000600000000000000692379000000000000006923799900000000000000000000Consumidor Final              000000000048000000000000048000000000000000000000000000000000000000000000000000000000000000000000000000000000000000000000PES00010000001N00000000000000020160811
201608010060000600000000000000692380000000000000006923809900000000000000000000Consumidor Final              000000000058000000000000058000000000000000000000000000000000000000000000000000000000000000000000000000000000000000000000PES00010000001N00000000000000020160811
201608010060000700000000000000474598000000000000004745989900000000000000000000Consumidor Final              000000000024000000000000024000000000000000000000000000000000000000000000000000000000000000000000000000000000000000000000PES00010000001N00000000000000020160811
201608010060000700000000000000474599000000000000004745999900000000000000000000Consumidor Final              000000000058000000000000058000000000000000000000000000000000000000000000000000000000000000000000000000000000000000000000PES00010000001N00000000000000020160811
201608010060000700000000000000474600000000000000004746009900000000000000000000Consumidor Final              000000000053000000000000053000000000000000000000000000000000000000000000000000000000000000000000000000000000000000000000PES00010000001N00000000000000020160811
201608010060000600000000000000692381000000000000006923819900000000000000000000Consumidor Final              000000000048000000000000048000000000000000000000000000000000000000000000000000000000000000000000000000000000000000000000PES00010000001N00000000000000020160811
201608010060000600000000000000692382000000000000006923829900000000000000000000Consumidor Final              000000000048000000000000048000000000000000000000000000000000000000000000000000000000000000000000000000000000000000000000PES00010000001N00000000000000020160811
201608010060000700000000000000474601000000000000004746019900000000000000000000Consumidor Final              000000000069000000000000069000000000000000000000000000000000000000000000000000000000000000000000000000000000000000000000PES00010000001N00000000000000020160811
201608010060000600000000000000692383000000000000006923839900000000000000000000Consumidor Final              000000000028000000000000028000000000000000000000000000000000000000000000000000000000000000000000000000000000000000000000PES00010000001N00000000000000020160811
201608010060000600000000000000692384000000000000006923849900000000000000000000Consumidor Final              000000000058000000000000058000000000000000000000000000000000000000000000000000000000000000000000000000000000000000000000PES00010000001N00000000000000020160811
201608010060000600000000000000692385000000000000006923859900000000000000000000Consumidor Final              000000000048000000000000048000000000000000000000000000000000000000000000000000000000000000000000000000000000000000000000PES00010000001N00000000000000020160811
201608010060000700000000000000474624000000000000004746249900000000000000000000Consumidor Final              000000000058000000000000058000000000000000000000000000000000000000000000000000000000000000000000000000000000000000000000PES00010000001N00000000000000020160811
201608010060000700000000000000474625000000000000004746259900000000000000000000Consumidor Final              000000000069000000000000069000000000000000000000000000000000000000000000000000000000000000000000000000000000000000000000PES00010000001N00000000000000020160811
201608010060000700000000000000474626000000000000004746269900000000000000000000Consumidor Final              000000000048000000000000048000000000000000000000000000000000000000000000000000000000000000000000000000000000000000000000PES00010000001N00000000000000020160811
201608010060000600000000000000692387000000000000006923879900000000000000000000Consumidor Final              000000000060000000000000060000000000000000000000000000000000000000000000000000000000000000000000000000000000000000000000PES00010000001N00000000000000020160811
201608010060000600000000000000692388000000000000006923889900000000000000000000Consumidor Final              000000000065000000000000065000000000000000000000000000000000000000000000000000000000000000000000000000000000000000000000PES00010000001N00000000000000020160811
201608010060000600000000000000692389000000000000006923899900000000000000000000Consumidor Final              000000000048000000000000048000000000000000000000000000000000000000000000000000000000000000000000000000000000000000000000PES00010000001N00000000000000020160811
201608010060000600000000000000692390000000000000006923909900000000000000000000Consumidor Final              000000000058000000000000058000000000000000000000000000000000000000000000000000000000000000000000000000000000000000000000PES00010000001N00000000000000020160811
201608010060000600000000000000692391000000000000006923919900000000000000000000Consumidor Final              000000000048000000000000048000000000000000000000000000000000000000000000000000000000000000000000000000000000000000000000PES00010000001N00000000000000020160811
201608010060000600000000000000692392000000000000006923929900000000000000000000Consumidor Final              000000000048000000000000048000000000000000000000000000000000000000000000000000000000000000000000000000000000000000000000PES00010000001N00000000000000020160811
201608010060000600000000000000692386000000000000006923869900000000000000000000Consumidor Final              000000000048000000000000048000000000000000000000000000000000000000000000000000000000000000000000000000000000000000000000PES00010000001N00000000000000020160811
201608010060000800000000000000163107000000000000001631079900000000000000000000Consumidor Final              000000000048000000000000048000000000000000000000000000000000000000000000000000000000000000000000000000000000000000000000PES00010000001N00000000000000020160811
201608010010000600000000000000007850000000000000000078508000000000020129653141KLEIN FRANCISCO               000000000058000000000000058000000000000000000000000000000000000000000000000000000000000000000000000000000000000000000000PES00010000001N00000000000000020160811
201608010060000700000000000000474611000000000000004746119900000000000000000000Consumidor Final              000000000058000000000000058000000000000000000000000000000000000000000000000000000000000000000000000000000000000000000000PES00010000001N00000000000000020160811
201608010060000700000000000000474612000000000000004746129900000000000000000000Consumidor Final              000000000061000000000000061000000000000000000000000000000000000000000000000000000000000000000000000000000000000000000000PES00010000001N00000000000000020160811
201608010060000700000000000000474613000000000000004746139900000000000000000000Consumidor Final              000000000058000000000000058000000000000000000000000000000000000000000000000000000000000000000000000000000000000000000000PES00010000001N00000000000000020160811
201608010060000700000000000000474614000000000000004746149900000000000000000000Consumidor Final              000000000049000000000000049000000000000000000000000000000000000000000000000000000000000000000000000000000000000000000000PES00010000001N00000000000000020160811
201608010060000700000000000000474615000000000000004746159900000000000000000000Consumidor Final              000000000053000000000000053000000000000000000000000000000000000000000000000000000000000000000000000000000000000000000000PES00010000001N00000000000000020160811
201608010060000700000000000000474616000000000000004746169900000000000000000000Consumidor Final              000000000058000000000000058000000000000000000000000000000000000000000000000000000000000000000000000000000000000000000000PES00010000001N00000000000000020160811
201608010060000700000000000000474617000000000000004746179900000000000000000000Consumidor Final              000000000056000000000000056000000000000000000000000000000000000000000000000000000000000000000000000000000000000000000000PES00010000001N00000000000000020160811
201608010060000700000000000000474633000000000000004746339900000000000000000000Consumidor Final              000000000058000000000000058000000000000000000000000000000000000000000000000000000000000000000000000000000000000000000000PES00010000001N00000000000000020160811
201608010060000700000000000000474634000000000000004746349900000000000000000000Consumidor Final              000000000075000000000000075000000000000000000000000000000000000000000000000000000000000000000000000000000000000000000000PES00010000001N00000000000000020160811
201608010010000600000000000000007849000000000000000078498000000000030714403679AUBEN SA                      000000000048000000000000048000000000000000000000000000000000000000000000000000000000000000000000000000000000000000000000PES00010000001N00000000000000020160811
201608010060000700000000000000474602000000000000004746029900000000000000000000Consumidor Final              000000000019000000000000019000000000000000000000000000000000000000000000000000000000000000000000000000000000000000000000PES00010000001N00000000000000020160811
201608010060000700000000000000474603000000000000004746039900000000000000000000Consumidor Final              000000000069000000000000069000000000000000000000000000000000000000000000000000000000000000000000000000000000000000000000PES00010000001N00000000000000020160811
201608010060000700000000000000474604000000000000004746049900000000000000000000Consumidor Final              000000000058000000000000058000000000000000000000000000000000000000000000000000000000000000000000000000000000000000000000PES00010000001N00000000000000020160811
201608010060000700000000000000474605000000000000004746059900000000000000000000Consumidor Final              000000000069000000000000069000000000000000000000000000000000000000000000000000000000000000000000000000000000000000000000PES00010000001N00000000000000020160811
201608010060000700000000000000474606000000000000004746069900000000000000000000Consumidor Final              000000000058000000000000058000000000000000000000000000000000000000000000000000000000000000000000000000000000000000000000PES00010000001N00000000000000020160811
201608010060000700000000000000474607000000000000004746079900000000000000000000Consumidor Final              000000000058000000000000058000000000000000000000000000000000000000000000000000000000000000000000000000000000000000000000PES00010000001N00000000000000020160811
201608010060000700000000000000474608000000000000004746089900000000000000000000Consumidor Final              000000000056000000000000056000000000000000000000000000000000000000000000000000000000000000000000000000000000000000000000PES00010000001N00000000000000020160811
201608010060000700000000000000474609000000000000004746099900000000000000000000Consumidor Final              000000000028000000000000028000000000000000000000000000000000000000000000000000000000000000000000000000000000000000000000PES00010000001N00000000000000020160811
201608010060000700000000000000474629000000000000004746299900000000000000000000Consumidor Final              000000000058000000000000058000000000000000000000000000000000000000000000000000000000000000000000000000000000000000000000PES00010000001N00000000000000020160811
201608010060000700000000000000474630000000000000004746309900000000000000000000Consumidor Final              000000000058000000000000058000000000000000000000000000000000000000000000000000000000000000000000000000000000000000000000PES00010000001N00000000000000020160811
201608010060000700000000000000474631000000000000004746319900000000000000000000Consumidor Final              000000000058000000000000058000000000000000000000000000000000000000000000000000000000000000000000000000000000000000000000PES00010000001N00000000000000020160811
201608010060000700000000000000474632000000000000004746329900000000000000000000Consumidor Final              000000000058000000000000058000000000000000000000000000000000000000000000000000000000000000000000000000000000000000000000PES00010000001N00000000000000020160811
201608010060000600000000000000692393000000000000006923939900000000000000000000Consumidor Final              000000000048000000000000048000000000000000000000000000000000000000000000000000000000000000000000000000000000000000000000PES00010000001N00000000000000020160811
201608010060000600000000000000692394000000000000006923949900000000000000000000Consumidor Final              000000000048000000000000048000000000000000000000000000000000000000000000000000000000000000000000000000000000000000000000PES00010000001N00000000000000020160811
201608010060000600000000000000692395000000000000006923959900000000000000000000Consumidor Final              000000000060000000000000060000000000000000000000000000000000000000000000000000000000000000000000000000000000000000000000PES00010000001N00000000000000020160811
201608010060000600000000000000692396000000000000006923969900000000000000000000Consumidor Final              000000000048000000000000048000000000000000000000000000000000000000000000000000000000000000000000000000000000000000000000PES00010000001N00000000000000020160811
201608010060000600000000000000692397000000000000006923979900000000000000000000Consumidor Final              000000000048000000000000048000000000000000000000000000000000000000000000000000000000000000000000000000000000000000000000PES00010000001N00000000000000020160811
201608010060000600000000000000692398000000000000006923989900000000000000000000Consumidor Final              000000000048000000000000048000000000000000000000000000000000000000000000000000000000000000000000000000000000000000000000PES00010000001N00000000000000020160811
201608010060000600000000000000692399000000000000006923999900000000000000000000Consumidor Final              000000000048000000000000048000000000000000000000000000000000000000000000000000000000000000000000000000000000000000000000PES00010000001N00000000000000020160811
201608010060000600000000000000692400000000000000006924009900000000000000000000Consumidor Final              000000000048000000000000048000000000000000000000000000000000000000000000000000000000000000000000000000000000000000000000PES00010000001N00000000000000020160811
201608010060000600000000000000692401000000000000006924019900000000000000000000Consumidor Final              000000000048000000000000048000000000000000000000000000000000000000000000000000000000000000000000000000000000000000000000PES00010000001N00000000000000020160811
201608010060000600000000000000692402000000000000006924029900000000000000000000Consumidor Final              000000000058000000000000058000000000000000000000000000000000000000000000000000000000000000000000000000000000000000000000PES00010000001N00000000000000020160811
201608010060000700000000000000474638000000000000004746389900000000000000000000Consumidor Final              000000000058000000000000058000000000000000000000000000000000000000000000000000000000000000000000000000000000000000000000PES00010000001N00000000000000020160811
201608010060000600000000000000692403000000000000006924039900000000000000000000Consumidor Final              000000000048000000000000048000000000000000000000000000000000000000000000000000000000000000000000000000000000000000000000PES00010000001N00000000000000020160811
201608010060000600000000000000692404000000000000006924049900000000000000000000Consumidor Final              000000000048000000000000048000000000000000000000000000000000000000000000000000000000000000000000000000000000000000000000PES00010000001N00000000000000020160811
201608010060000700000000000000474639000000000000004746399900000000000000000000Consumidor Final              000000000058000000000000058000000000000000000000000000000000000000000000000000000000000000000000000000000000000000000000PES00010000001N00000000000000020160811
201608010060000600000000000000692405000000000000006924059900000000000000000000Consumidor Final              000000000048000000000000048000000000000000000000000000000000000000000000000000000000000000000000000000000000000000000000PES00010000001N00000000000000020160811
201608010060000700000000000000474640000000000000004746409900000000000000000000Consumidor Final              000000000058000000000000058000000000000000000000000000000000000000000000000000000000000000000000000000000000000000000000PES00010000001N00000000000000020160811
201608010060000700000000000000474641000000000000004746419900000000000000000000Consumidor Final              000000000058000000000000058000000000000000000000000000000000000000000000000000000000000000000000000000000000000000000000PES00010000001N00000000000000020160811
201608010060000600000000000000692406000000000000006924069900000000000000000000Consumidor Final              000000000058000000000000058000000000000000000000000000000000000000000000000000000000000000000000000000000000000000000000PES00010000001N00000000000000020160811
201608010060000600000000000000692407000000000000006924079900000000000000000000Consumidor Final              000000000058000000000000058000000000000000000000000000000000000000000000000000000000000000000000000000000000000000000000PES00010000001N00000000000000020160811
201608010060000600000000000000692408000000000000006924089900000000000000000000Consumidor Final              000000000059000000000000059000000000000000000000000000000000000000000000000000000000000000000000000000000000000000000000PES00010000001N00000000000000020160811
201608010060000600000000000000692409000000000000006924099900000000000000000000Consumidor Final              000000000059000000000000059000000000000000000000000000000000000000000000000000000000000000000000000000000000000000000000PES00010000001N00000000000000020160811
201608010060000600000000000000692414000000000000006924149900000000000000000000Consumidor Final              000000000030000000000000030000000000000000000000000000000000000000000000000000000000000000000000000000000000000000000000PES00010000001N00000000000000020160811
201608010060000600000000000000692415000000000000006924159900000000000000000000Consumidor Final              000000000058000000000000058000000000000000000000000000000000000000000000000000000000000000000000000000000000000000000000PES00010000001N00000000000000020160811
201608010060000600000000000000692416000000000000006924169900000000000000000000Consumidor Final              000000000058000000000000058000000000000000000000000000000000000000000000000000000000000000000000000000000000000000000000PES00010000001N00000000000000020160811
201608010060000800000000000000163109000000000000001631099900000000000000000000Consumidor Final              000000000048000000000000048000000000000000000000000000000000000000000000000000000000000000000000000000000000000000000000PES00010000001N00000000000000020160811
201608010060000800000000000000163110000000000000001631109900000000000000000000Consumidor Final              000000000048000000000000048000000000000000000000000000000000000000000000000000000000000000000000000000000000000000000000PES00010000001N00000000000000020160811
201608010060000600000000000000692423000000000000006924239900000000000000000000Consumidor Final              000000000058000000000000058000000000000000000000000000000000000000000000000000000000000000000000000000000000000000000000PES00010000001N00000000000000020160811
201608010060000600000000000000692424000000000000006924249900000000000000000000Consumidor Final              000000000058000000000000058000000000000000000000000000000000000000000000000000000000000000000000000000000000000000000000PES00010000001N00000000000000020160811
201608010060000600000000000000692425000000000000006924259900000000000000000000Consumidor Final              000000000058000000000000058000000000000000000000000000000000000000000000000000000000000000000000000000000000000000000000PES00010000001N00000000000000020160811
201608010060000700000000000000474646000000000000004746469900000000000000000000Consumidor Final              000000000028000000000000028000000000000000000000000000000000000000000000000000000000000000000000000000000000000000000000PES00010000001N00000000000000020160811
201608010060000600000000000000692417000000000000006924179900000000000000000000Consumidor Final              000000000058000000000000058000000000000000000000000000000000000000000000000000000000000000000000000000000000000000000000PES00010000001N00000000000000020160811
201608010060000600000000000000692418000000000000006924189900000000000000000000Consumidor Final              000000000069000000000000069000000000000000000000000000000000000000000000000000000000000000000000000000000000000000000000PES00010000001N00000000000000020160811
201608010060000600000000000000692419000000000000006924199900000000000000000000Consumidor Final              000000000058000000000000058000000000000000000000000000000000000000000000000000000000000000000000000000000000000000000000PES00010000001N00000000000000020160811
201608010060000600000000000000692420000000000000006924209900000000000000000000Consumidor Final              000000000069000000000000069000000000000000000000000000000000000000000000000000000000000000000000000000000000000000000000PES00010000001N00000000000000020160811
201608010060000600000000000000692421000000000000006924219900000000000000000000Consumidor Final              000000000058000000000000058000000000000000000000000000000000000000000000000000000000000000000000000000000000000000000000PES00010000001N00000000000000020160811
201608010060000600000000000000692422000000000000006924229900000000000000000000Consumidor Final              000000000090000000000000090000000000000000000000000000000000000000000000000000000000000000000000000000000000000000000000PES00010000001N00000000000000020160811
201608010060000600000000000000692426000000000000006924269900000000000000000000Consumidor Final              000000000067000000000000067000000000000000000000000000000000000000000000000000000000000000000000000000000000000000000000PES00010000001N00000000000000020160811
201608010060000600000000000000692427000000000000006924279900000000000000000000Consumidor Final              000000000053000000000000053000000000000000000000000000000000000000000000000000000000000000000000000000000000000000000000PES00010000001N00000000000000020160811
201608010060000600000000000000692428000000000000006924289900000000000000000000Consumidor Final              000000000064000000000000064000000000000000000000000000000000000000000000000000000000000000000000000000000000000000000000PES00010000001N00000000000000020160811
201608010060000600000000000000692429000000000000006924299900000000000000000000Consumidor Final              000000000058000000000000058000000000000000000000000000000000000000000000000000000000000000000000000000000000000000000000PES00010000001N00000000000000020160811
201608010060000600000000000000692430000000000000006924309900000000000000000000Consumidor Final              000000000058000000000000058000000000000000000000000000000000000000000000000000000000000000000000000000000000000000000000PES00010000001N00000000000000020160811
201608010060000700000000000000474647000000000000004746479900000000000000000000Consumidor Final              000000000030000000000000030000000000000000000000000000000000000000000000000000000000000000000000000000000000000000000000PES00010000001N00000000000000020160811
201608010060000600000000000000692431000000000000006924319900000000000000000000Consumidor Final              000000000058000000000000058000000000000000000000000000000000000000000000000000000000000000000000000000000000000000000000PES00010000001N00000000000000020160811
201608010060000600000000000000692432000000000000006924329900000000000000000000Consumidor Final              000000000058000000000000058000000000000000000000000000000000000000000000000000000000000000000000000000000000000000000000PES00010000001N00000000000000020160811
201608010060000600000000000000692433000000000000006924339900000000000000000000Consumidor Final              000000000069000000000000069000000000000000000000000000000000000000000000000000000000000000000000000000000000000000000000PES00010000001N00000000000000020160811
201608010060000600000000000000692434000000000000006924349900000000000000000000Consumidor Final              000000000049000000000000049000000000000000000000000000000000000000000000000000000000000000000000000000000000000000000000PES00010000001N00000000000000020160811
201608010060000600000000000000692435000000000000006924359900000000000000000000Consumidor Final              000000000058000000000000058000000000000000000000000000000000000000000000000000000000000000000000000000000000000000000000PES00010000001N00000000000000020160811
201608010060000600000000000000692436000000000000006924369900000000000000000000Consumidor Final              000000000079000000000000079000000000000000000000000000000000000000000000000000000000000000000000000000000000000000000000PES00010000001N00000000000000020160811
201608010060000700000000000000474661000000000000004746619900000000000000000000Consumidor Final              000000000058000000000000058000000000000000000000000000000000000000000000000000000000000000000000000000000000000000000000PES00010000001N00000000000000020160811
201608010060000700000000000000474648000000000000004746489900000000000000000000Consumidor Final              000000000058000000000000058000000000000000000000000000000000000000000000000000000000000000000000000000000000000000000000PES00010000001N00000000000000020160811
201608010060000700000000000000474649000000000000004746499900000000000000000000Consumidor Final              000000000028000000000000028000000000000000000000000000000000000000000000000000000000000000000000000000000000000000000000PES00010000001N00000000000000020160811
201608010060000700000000000000474650000000000000004746509900000000000000000000Consumidor Final              000000000076000000000000076000000000000000000000000000000000000000000000000000000000000000000000000000000000000000000000PES00010000001N00000000000000020160811
201608010060000800000000000000163111000000000000001631119900000000000000000000Consumidor Final              000000000048000000000000048000000000000000000000000000000000000000000000000000000000000000000000000000000000000000000000PES00010000001N00000000000000020160811
201608010060000700000000000000474651000000000000004746519900000000000000000000Consumidor Final              000000000056000000000000056000000000000000000000000000000000000000000000000000000000000000000000000000000000000000000000PES00010000001N00000000000000020160811
201608010060000700000000000000474652000000000000004746529900000000000000000000Consumidor Final              000000000079000000000000079000000000000000000000000000000000000000000000000000000000000000000000000000000000000000000000PES00010000001N00000000000000020160811
201608010060000700000000000000474653000000000000004746539900000000000000000000Consumidor Final              000000000058000000000000058000000000000000000000000000000000000000000000000000000000000000000000000000000000000000000000PES00010000001N00000000000000020160811
201608010060000700000000000000474654000000000000004746549900000000000000000000Consumidor Final              000000000058000000000000058000000000000000000000000000000000000000000000000000000000000000000000000000000000000000000000PES00010000001N00000000000000020160811
201608010060000700000000000000474655000000000000004746559900000000000000000000Consumidor Final              000000000058000000000000058000000000000000000000000000000000000000000000000000000000000000000000000000000000000000000000PES00010000001N00000000000000020160811
201608010060000700000000000000474656000000000000004746569900000000000000000000Consumidor Final              000000000058000000000000058000000000000000000000000000000000000000000000000000000000000000000000000000000000000000000000PES00010000001N00000000000000020160811
201608010060000700000000000000474657000000000000004746579900000000000000000000Consumidor Final              000000000058000000000000058000000000000000000000000000000000000000000000000000000000000000000000000000000000000000000000PES00010000001N00000000000000020160811
201608010060000700000000000000474658000000000000004746589900000000000000000000Consumidor Final              000000000058000000000000058000000000000000000000000000000000000000000000000000000000000000000000000000000000000000000000PES00010000001N00000000000000020160811
201608010060000600000000000000692437000000000000006924379900000000000000000000Consumidor Final              000000000028000000000000028000000000000000000000000000000000000000000000000000000000000000000000000000000000000000000000PES00010000001N00000000000000020160811
201608010060000700000000000000474659000000000000004746599900000000000000000000Consumidor Final              000000000058000000000000058000000000000000000000000000000000000000000000000000000000000000000000000000000000000000000000PES00010000001N00000000000000020160811
201608010060000600000000000000692441000000000000006924419900000000000000000000Consumidor Final              000000000058000000000000058000000000000000000000000000000000000000000000000000000000000000000000000000000000000000000000PES00010000001N00000000000000020160811
201608010060000600000000000000692442000000000000006924429900000000000000000000Consumidor Final              000000000058000000000000058000000000000000000000000000000000000000000000000000000000000000000000000000000000000000000000PES00010000001N00000000000000020160811
201608010060000700000000000000474660000000000000004746609900000000000000000000Consumidor Final              000000000058000000000000058000000000000000000000000000000000000000000000000000000000000000000000000000000000000000000000PES00010000001N00000000000000020160811
201608010060000600000000000000692443000000000000006924439900000000000000000000Consumidor Final              000000000058000000000000058000000000000000000000000000000000000000000000000000000000000000000000000000000000000000000000PES00010000001N00000000000000020160811
201608010060000600000000000000692444000000000000006924449900000000000000000000Consumidor Final              000000000058000000000000058000000000000000000000000000000000000000000000000000000000000000000000000000000000000000000000PES00010000001N00000000000000020160811
201608010060000600000000000000692438000000000000006924389900000000000000000000Consumidor Final              000000000058000000000000058000000000000000000000000000000000000000000000000000000000000000000000000000000000000000000000PES00010000001N00000000000000020160811
201608010060000600000000000000692440000000000000006924409900000000000000000000Consumidor Final              000000000065000000000000065000000000000000000000000000000000000000000000000000000000000000000000000000000000000000000000PES00010000001N00000000000000020160811
201608010060000600000000000000692445000000000000006924459900000000000000000000Consumidor Final              000000000058000000000000058000000000000000000000000000000000000000000000000000000000000000000000000000000000000000000000PES00010000001N00000000000000020160811
201608010060000700000000000000474662000000000000004746629900000000000000000000Consumidor Final              000000000058000000000000058000000000000000000000000000000000000000000000000000000000000000000000000000000000000000000000PES00010000001N00000000000000020160811
201608010060000800000000000000163116000000000000001631169900000000000000000000Consumidor Final              000000000048000000000000048000000000000000000000000000000000000000000000000000000000000000000000000000000000000000000000PES00010000001N00000000000000020160811
201608010060000600000000000000692447000000000000006924479900000000000000000000Consumidor Final              000000000058000000000000058000000000000000000000000000000000000000000000000000000000000000000000000000000000000000000000PES00010000001N00000000000000020160811
201608010060000600000000000000692448000000000000006924489900000000000000000000Consumidor Final              000000000058000000000000058000000000000000000000000000000000000000000000000000000000000000000000000000000000000000000000PES00010000001N00000000000000020160811
201608010060000800000000000000163117000000000000001631179900000000000000000000Consumidor Final              000000000048000000000000048000000000000000000000000000000000000000000000000000000000000000000000000000000000000000000000PES00010000001N00000000000000020160811
201608010060000800000000000000163118000000000000001631189900000000000000000000Consumidor Final              000000000048000000000000048000000000000000000000000000000000000000000000000000000000000000000000000000000000000000000000PES00010000001N00000000000000020160811
201608010060000600000000000000692449000000000000006924499900000000000000000000Consumidor Final              000000000071000000000000071000000000000000000000000000000000000000000000000000000000000000000000000000000000000000000000PES00010000001N00000000000000020160811
201608010060000700000000000000474666000000000000004746669900000000000000000000Consumidor Final              000000000049000000000000049000000000000000000000000000000000000000000000000000000000000000000000000000000000000000000000PES00010000001N00000000000000020160811
201608010060000600000000000000692450000000000000006924509900000000000000000000Consumidor Final              000000000058000000000000058000000000000000000000000000000000000000000000000000000000000000000000000000000000000000000000PES00010000001N00000000000000020160811
201608010060000600000000000000692460000000000000006924609900000000000000000000Consumidor Final              000000000056000000000000056000000000000000000000000000000000000000000000000000000000000000000000000000000000000000000000PES00010000001N00000000000000020160811
201608010060000600000000000000692446000000000000006924469900000000000000000000Consumidor Final              000000000058000000000000058000000000000000000000000000000000000000000000000000000000000000000000000000000000000000000000PES00010000001N00000000000000020160811
201608010060000700000000000000474667000000000000004746679900000000000000000000Consumidor Final              000000000049000000000000049000000000000000000000000000000000000000000000000000000000000000000000000000000000000000000000PES00010000001N00000000000000020160811
201608010060000600000000000000692462000000000000006924629900000000000000000000Consumidor Final              000000000058000000000000058000000000000000000000000000000000000000000000000000000000000000000000000000000000000000000000PES00010000001N00000000000000020160811
201608010060000600000000000000692463000000000000006924639900000000000000000000Consumidor Final              000000000069000000000000069000000000000000000000000000000000000000000000000000000000000000000000000000000000000000000000PES00010000001N00000000000000020160811
201608010060000900000000000000030823000000000000000308239900000000000000000000Consumidor Final              000000000059000000000000059000000000000000000000000000000000000000000000000000000000000000000000000000000000000000000000PES00010000001N00000000000000020160811
201608010060000600000000000000692464000000000000006924649900000000000000000000Consumidor Final              000000000069000000000000069000000000000000000000000000000000000000000000000000000000000000000000000000000000000000000000PES00010000001N00000000000000020160811
201608010060000600000000000000692465000000000000006924659900000000000000000000Consumidor Final              000000000067000000000000067000000000000000000000000000000000000000000000000000000000000000000000000000000000000000000000PES00010000001N00000000000000020160811
201608010060000600000000000000692466000000000000006924669900000000000000000000Consumidor Final              000000000058000000000000058000000000000000000000000000000000000000000000000000000000000000000000000000000000000000000000PES00010000001N00000000000000020160811
201608010060000900000000000000030824000000000000000308249900000000000000000000Consumidor Final              000000000059000000000000059000000000000000000000000000000000000000000000000000000000000000000000000000000000000000000000PES00010000001N00000000000000020160811
201608010060000600000000000000692467000000000000006924679900000000000000000000Consumidor Final              000000000058000000000000058000000000000000000000000000000000000000000000000000000000000000000000000000000000000000000000PES00010000001N00000000000000020160811
201608010060000600000000000000692468000000000000006924689900000000000000000000Consumidor Final              000000000058000000000000058000000000000000000000000000000000000000000000000000000000000000000000000000000000000000000000PES00010000001N00000000000000020160811
201608010060000600000000000000692451000000000000006924519900000000000000000000Consumidor Final              000000000058000000000000058000000000000000000000000000000000000000000000000000000000000000000000000000000000000000000000PES00010000001N00000000000000020160811
201608010060000600000000000000692452000000000000006924529900000000000000000000Consumidor Final              000000000058000000000000058000000000000000000000000000000000000000000000000000000000000000000000000000000000000000000000PES00010000001N00000000000000020160811
201608010060000600000000000000692453000000000000006924539900000000000000000000Consumidor Final              000000000058000000000000058000000000000000000000000000000000000000000000000000000000000000000000000000000000000000000000PES00010000001N00000000000000020160811
201608010060000600000000000000692454000000000000006924548000000000020101184413HECTOR EDUARDO GARCIA         000000000103000000000000103000000000000000000000000000000000000000000000000000000000000000000000000000000000000000000000PES00010000001N00000000000000020160811
201608010060000600000000000000692455000000000000006924559900000000000000000000Consumidor Final              000000000058000000000000058000000000000000000000000000000000000000000000000000000000000000000000000000000000000000000000PES00010000001N00000000000000020160811
201608010060000600000000000000692456000000000000006924569900000000000000000000Consumidor Final              000000000058000000000000058000000000000000000000000000000000000000000000000000000000000000000000000000000000000000000000PES00010000001N00000000000000020160811
201608010060000600000000000000692457000000000000006924579900000000000000000000Consumidor Final              000000000058000000000000058000000000000000000000000000000000000000000000000000000000000000000000000000000000000000000000PES00010000001N00000000000000020160811
201608010060000600000000000000692458000000000000006924589900000000000000000000Consumidor Final              000000000049000000000000049000000000000000000000000000000000000000000000000000000000000000000000000000000000000000000000PES00010000001N00000000000000020160811
201608010060000700000000000000474665000000000000004746659900000000000000000000Consumidor Final              000000000049000000000000049000000000000000000000000000000000000000000000000000000000000000000000000000000000000000000000PES00010000001N00000000000000020160811
201608010060000600000000000000692459000000000000006924599900000000000000000000Consumidor Final              000000000058000000000000058000000000000000000000000000000000000000000000000000000000000000000000000000000000000000000000PES00010000001N00000000000000020160811
201608010060000600000000000000692474000000000000006924749900000000000000000000Consumidor Final              000000000058000000000000058000000000000000000000000000000000000000000000000000000000000000000000000000000000000000000000PES00010000001N00000000000000020160811
201608010010000600000000000000007851000000000000000078518000000000030540770782AVENALES S A C I F I Y A      000000000065000000000000065000000000000000000000000000000000000000000000000000000000000000000000000000000000000000000000PES00010000001N00000000000000020160811
201608010060000600000000000000692475000000000000006924759900000000000000000000Consumidor Final              000000000028000000000000028000000000000000000000000000000000000000000000000000000000000000000000000000000000000000000000PES00010000001N00000000000000020160811
201608010060000600000000000000692476000000000000006924769900000000000000000000Consumidor Final              000000000058000000000000058000000000000000000000000000000000000000000000000000000000000000000000000000000000000000000000PES00010000001N00000000000000020160811
201608010060000600000000000000692477000000000000006924779900000000000000000000Consumidor Final              000000000058000000000000058000000000000000000000000000000000000000000000000000000000000000000000000000000000000000000000PES00010000001N00000000000000020160811
201608010060000600000000000000692478000000000000006924789900000000000000000000Consumidor Final              000000000064000000000000064000000000000000000000000000000000000000000000000000000000000000000000000000000000000000000000PES00010000001N00000000000000020160811
201608010060000800000000000000163119000000000000001631199900000000000000000000Consumidor Final              000000000048000000000000048000000000000000000000000000000000000000000000000000000000000000000000000000000000000000000000PES00010000001N00000000000000020160811
201608010060000700000000000000474669000000000000004746699900000000000000000000Consumidor Final              000000000058000000000000058000000000000000000000000000000000000000000000000000000000000000000000000000000000000000000000PES00010000001N00000000000000020160811
201608010060000700000000000000474670000000000000004746709900000000000000000000Consumidor Final              000000000058000000000000058000000000000000000000000000000000000000000000000000000000000000000000000000000000000000000000PES00010000001N00000000000000020160811
201608010060000700000000000000474663000000000000004746639900000000000000000000Consumidor Final              000000000069000000000000069000000000000000000000000000000000000000000000000000000000000000000000000000000000000000000000PES00010000001N00000000000000020160811
201608010060000700000000000000474664000000000000004746649900000000000000000000Consumidor Final              000000000069000000000000069000000000000000000000000000000000000000000000000000000000000000000000000000000000000000000000PES00010000001N00000000000000020160811
201608010060000800000000000000163112000000000000001631129900000000000000000000Consumidor Final              000000000048000000000000048000000000000000000000000000000000000000000000000000000000000000000000000000000000000000000000PES00010000001N00000000000000020160811
201608010060000800000000000000163113000000000000001631139900000000000000000000Consumidor Final              000000000048000000000000048000000000000000000000000000000000000000000000000000000000000000000000000000000000000000000000PES00010000001N00000000000000020160811
201608010060000800000000000000163114000000000000001631149900000000000000000000Consumidor Final              000000000048000000000000048000000000000000000000000000000000000000000000000000000000000000000000000000000000000000000000PES00010000001N00000000000000020160811
201608010060000800000000000000163115000000000000001631159900000000000000000000Consumidor Final              000000000048000000000000048000000000000000000000000000000000000000000000000000000000000000000000000000000000000000000000PES00010000001N00000000000000020160811
201608010060000700000000000000474668000000000000004746689900000000000000000000Consumidor Final              000000000058000000000000058000000000000000000000000000000000000000000000000000000000000000000000000000000000000000000000PES00010000001N00000000000000020160811
201608010060000600000000000000692461000000000000006924619900000000000000000000Consumidor Final              000000000058000000000000058000000000000000000000000000000000000000000000000000000000000000000000000000000000000000000000PES00010000001N00000000000000020160811
201608010060000600000000000000692469000000000000006924699900000000000000000000Consumidor Final              000000000058000000000000058000000000000000000000000000000000000000000000000000000000000000000000000000000000000000000000PES00010000001N00000000000000020160811
201608010060000600000000000000692470000000000000006924709900000000000000000000Consumidor Final              000000000058000000000000058000000000000000000000000000000000000000000000000000000000000000000000000000000000000000000000PES00010000001N00000000000000020160811
201608010060000600000000000000692471000000000000006924719900000000000000000000Consumidor Final              000000000058000000000000058000000000000000000000000000000000000000000000000000000000000000000000000000000000000000000000PES00010000001N00000000000000020160811
201608010060000600000000000000692472000000000000006924729900000000000000000000Consumidor Final              000000000061000000000000061000000000000000000000000000000000000000000000000000000000000000000000000000000000000000000000PES00010000001N00000000000000020160811
201608010060000600000000000000692473000000000000006924739900000000000000000000Consumidor Final              000000000058000000000000058000000000000000000000000000000000000000000000000000000000000000000000000000000000000000000000PES00010000001N00000000000000020160811
201608010060000900000000000000030825000000000000000308259900000000000000000000Consumidor Final              000000000055000000000000055000000000000000000000000000000000000000000000000000000000000000000000000000000000000000000000PES00010000001N00000000000000020160811
201608010060000600000000000000692479000000000000006924799900000000000000000000Consumidor Final              000000000056000000000000056000000000000000000000000000000000000000000000000000000000000000000000000000000000000000000000PES00010000001N00000000000000020160811
201608010060000600000000000000692480000000000000006924809900000000000000000000Consumidor Final              000000000058000000000000058000000000000000000000000000000000000000000000000000000000000000000000000000000000000000000000PES00010000001N00000000000000020160811
201608010060000600000000000000692481000000000000006924819900000000000000000000Consumidor Final              000000000069000000000000069000000000000000000000000000000000000000000000000000000000000000000000000000000000000000000000PES00010000001N00000000000000020160811
201608010060000600000000000000692482000000000000006924829900000000000000000000Consumidor Final              000000000090000000000000090000000000000000000000000000000000000000000000000000000000000000000000000000000000000000000000PES00010000001N00000000000000020160811
201608010060000600000000000000692483000000000000006924839900000000000000000000Consumidor Final              000000000090000000000000090000000000000000000000000000000000000000000000000000000000000000000000000000000000000000000000PES00010000001N00000000000000020160811
201608010060000600000000000000692484000000000000006924849900000000000000000000Consumidor Final              000000000057000000000000057000000000000000000000000000000000000000000000000000000000000000000000000000000000000000000000PES00010000001N00000000000000020160811
201608010060000600000000000000692485000000000000006924859900000000000000000000Consumidor Final              000000000059000000000000059000000000000000000000000000000000000000000000000000000000000000000000000000000000000000000000PES00010000001N00000000000000020160811
201608010060000800000000000000163120000000000000001631209900000000000000000000Consumidor Final              000000000048000000000000048000000000000000000000000000000000000000000000000000000000000000000000000000000000000000000000PES00010000001N00000000000000020160811
201608010060000600000000000000692486000000000000006924869900000000000000000000Consumidor Final              000000000058000000000000058000000000000000000000000000000000000000000000000000000000000000000000000000000000000000000000PES00010000001N00000000000000020160811
201608010060000600000000000000692487000000000000006924879900000000000000000000Consumidor Final              000000000058000000000000058000000000000000000000000000000000000000000000000000000000000000000000000000000000000000000000PES00010000001N00000000000000020160811
201608010060000600000000000000692488000000000000006924889900000000000000000000Consumidor Final              000000000058000000000000058000000000000000000000000000000000000000000000000000000000000000000000000000000000000000000000PES00010000001N00000000000000020160811
201608010060000600000000000000692489000000000000006924899900000000000000000000Consumidor Final              000000000059000000000000059000000000000000000000000000000000000000000000000000000000000000000000000000000000000000000000PES00010000001N00000000000000020160811
201608010060000600000000000000692491000000000000006924919900000000000000000000Consumidor Final              000000000060000000000000060000000000000000000000000000000000000000000000000000000000000000000000000000000000000000000000PES00010000001N00000000000000020160811
201608010060000700000000000000474671000000000000004746719900000000000000000000Consumidor Final              000000000065000000000000065000000000000000000000000000000000000000000000000000000000000000000000000000000000000000000000PES00010000001N00000000000000020160811
201608010060000700000000000000474672000000000000004746729900000000000000000000Consumidor Final              000000000058000000000000058000000000000000000000000000000000000000000000000000000000000000000000000000000000000000000000PES00010000001N00000000000000020160811
201608010060000700000000000000474673000000000000004746739900000000000000000000Consumidor Final              000000000058000000000000058000000000000000000000000000000000000000000000000000000000000000000000000000000000000000000000PES00010000001N00000000000000020160811
201608010060000700000000000000474674000000000000004746749900000000000000000000Consumidor Final              000000000058000000000000058000000000000000000000000000000000000000000000000000000000000000000000000000000000000000000000PES00010000001N00000000000000020160811
201608010060000900000000000000030826000000000000000308269900000000000000000000Consumidor Final              000000000058000000000000058000000000000000000000000000000000000000000000000000000000000000000000000000000000000000000000PES00010000001N00000000000000020160811
201608010060000600000000000000692513000000000000006925139900000000000000000000Consumidor Final              000000000076000000000000076000000000000000000000000000000000000000000000000000000000000000000000000000000000000000000000PES00010000001N00000000000000020160811
201608010060000600000000000000692515000000000000006925159900000000000000000000Consumidor Final              000000000058000000000000058000000000000000000000000000000000000000000000000000000000000000000000000000000000000000000000PES00010000001N00000000000000020160811
201608010060000700000000000000474686000000000000004746869900000000000000000000Consumidor Final              000000000058000000000000058000000000000000000000000000000000000000000000000000000000000000000000000000000000000000000000PES00010000001N00000000000000020160811
201608010060000700000000000000474687000000000000004746879900000000000000000000Consumidor Final              000000000028000000000000028000000000000000000000000000000000000000000000000000000000000000000000000000000000000000000000PES00010000001N00000000000000020160811
201608010060000600000000000000692492000000000000006924929900000000000000000000Consumidor Final              000000000090000000000000090000000000000000000000000000000000000000000000000000000000000000000000000000000000000000000000PES00010000001N00000000000000020160811
201608010060000600000000000000692496000000000000006924969900000000000000000000Consumidor Final              000000000065000000000000065000000000000000000000000000000000000000000000000000000000000000000000000000000000000000000000PES00010000001N00000000000000020160811
201608010060000600000000000000692497000000000000006924979900000000000000000000Consumidor Final              000000000065000000000000065000000000000000000000000000000000000000000000000000000000000000000000000000000000000000000000PES00010000001N00000000000000020160811
201608010060000700000000000000474675000000000000004746759900000000000000000000Consumidor Final              000000000058000000000000058000000000000000000000000000000000000000000000000000000000000000000000000000000000000000000000PES00010000001N00000000000000020160811
201608010060000600000000000000692498000000000000006924989900000000000000000000Consumidor Final              000000000058000000000000058000000000000000000000000000000000000000000000000000000000000000000000000000000000000000000000PES00010000001N00000000000000020160811
201608010060000600000000000000692499000000000000006924999900000000000000000000Consumidor Final              000000000058000000000000058000000000000000000000000000000000000000000000000000000000000000000000000000000000000000000000PES00010000001N00000000000000020160811
