201609020060000600000000000000699842000000000000006998429900000000000000000000Consumidor Final              000000000058000000000000058000000000000000000000000000000000000000000000000000000000000000000000000000000000000000000000PES00010000001N00000000000000020160912
201609020060000600000000000000699843000000000000006998439900000000000000000000Consumidor Final              000000000058000000000000058000000000000000000000000000000000000000000000000000000000000000000000000000000000000000000000PES00010000001N00000000000000020160912
201609020060000600000000000000699844000000000000006998449900000000000000000000Consumidor Final              000000000063000000000000063000000000000000000000000000000000000000000000000000000000000000000000000000000000000000000000PES00010000001N00000000000000020160912
201609020060000600000000000000699845000000000000006998459900000000000000000000Consumidor Final              000000000058000000000000058000000000000000000000000000000000000000000000000000000000000000000000000000000000000000000000PES00010000001N00000000000000020160912
201609020060000600000000000000699846000000000000006998469900000000000000000000Consumidor Final              000000000058000000000000058000000000000000000000000000000000000000000000000000000000000000000000000000000000000000000000PES00010000001N00000000000000020160912
201609020060000600000000000000699847000000000000006998479900000000000000000000Consumidor Final              000000000058000000000000058000000000000000000000000000000000000000000000000000000000000000000000000000000000000000000000PES00010000001N00000000000000020160912
201609020060000600000000000000699848000000000000006998489900000000000000000000Consumidor Final              000000000058000000000000058000000000000000000000000000000000000000000000000000000000000000000000000000000000000000000000PES00010000001N00000000000000020160912
201609020060000600000000000000699849000000000000006998499900000000000000000000Consumidor Final              000000000058000000000000058000000000000000000000000000000000000000000000000000000000000000000000000000000000000000000000PES00010000001N00000000000000020160912
201609020060000600000000000000699850000000000000006998509900000000000000000000Consumidor Final              000000000058000000000000058000000000000000000000000000000000000000000000000000000000000000000000000000000000000000000000PES00010000001N00000000000000020160912
201609020060000600000000000000699851000000000000006998519900000000000000000000Consumidor Final              000000000058000000000000058000000000000000000000000000000000000000000000000000000000000000000000000000000000000000000000PES00010000001N00000000000000020160912
201609020060000600000000000000699852000000000000006998529900000000000000000000Consumidor Final              000000000069000000000000069000000000000000000000000000000000000000000000000000000000000000000000000000000000000000000000PES00010000001N00000000000000020160912
201609030060000700000000000000479388000000000000004793889900000000000000000000Consumidor Final              000000000058000000000000058000000000000000000000000000000000000000000000000000000000000000000000000000000000000000000000PES00010000001N00000000000000020160913
201609030060000700000000000000479459000000000000004794599900000000000000000000Consumidor Final              000000000058000000000000058000000000000000000000000000000000000000000000000000000000000000000000000000000000000000000000PES00010000001N00000000000000020160913
201609030060000700000000000000479462000000000000004794629900000000000000000000Consumidor Final              000000000058000000000000058000000000000000000000000000000000000000000000000000000000000000000000000000000000000000000000PES00010000001N00000000000000020160913
201609030060000600000000000000700124000000000000007001249900000000000000000000Consumidor Final              000000000058000000000000058000000000000000000000000000000000000000000000000000000000000000000000000000000000000000000000PES00010000001N00000000000000020160913
201609030060000700000000000000479463000000000000004794639900000000000000000000Consumidor Final              000000000063000000000000063000000000000000000000000000000000000000000000000000000000000000000000000000000000000000000000PES00010000001N00000000000000020160913
201609030060000600000000000000700125000000000000007001259900000000000000000000Consumidor Final              000000000069000000000000069000000000000000000000000000000000000000000000000000000000000000000000000000000000000000000000PES00010000001N00000000000000020160913
201609030060000600000000000000700126000000000000007001269900000000000000000000Consumidor Final              000000000058000000000000058000000000000000000000000000000000000000000000000000000000000000000000000000000000000000000000PES00010000001N00000000000000020160913
201609030060000700000000000000479464000000000000004794649900000000000000000000Consumidor Final              000000000057000000000000057000000000000000000000000000000000000000000000000000000000000000000000000000000000000000000000PES00010000001N00000000000000020160913
201609030060000600000000000000700127000000000000007001279900000000000000000000Consumidor Final              000000000058000000000000058000000000000000000000000000000000000000000000000000000000000000000000000000000000000000000000PES00010000001N00000000000000020160913
201609030060000600000000000000700128000000000000007001289900000000000000000000Consumidor Final              000000000063000000000000063000000000000000000000000000000000000000000000000000000000000000000000000000000000000000000000PES00010000001N00000000000000020160913
201609030060000600000000000000700129000000000000007001299900000000000000000000Consumidor Final              000000000058000000000000058000000000000000000000000000000000000000000000000000000000000000000000000000000000000000000000PES00010000001N00000000000000020160913
201609040060000600000000000000700385000000000000007003859900000000000000000000Consumidor Final              000000000058000000000000058000000000000000000000000000000000000000000000000000000000000000000000000000000000000000000000PES00010000001N00000000000000020160914
201609040060000600000000000000700390000000000000007003909900000000000000000000Consumidor Final              000000000058000000000000058000000000000000000000000000000000000000000000000000000000000000000000000000000000000000000000PES00010000001N00000000000000020160914
201609040060000600000000000000700391000000000000007003919900000000000000000000Consumidor Final              000000000071000000000000071000000000000000000000000000000000000000000000000000000000000000000000000000000000000000000000PES00010000001N00000000000000020160914
201609040060000600000000000000700392000000000000007003929900000000000000000000Consumidor Final              000000000069000000000000069000000000000000000000000000000000000000000000000000000000000000000000000000000000000000000000PES00010000001N00000000000000020160914
201609040060000600000000000000700393000000000000007003939900000000000000000000Consumidor Final              000000000049000000000000049000000000000000000000000000000000000000000000000000000000000000000000000000000000000000000000PES00010000001N00000000000000020160914
201609040060000600000000000000700394000000000000007003949900000000000000000000Consumidor Final              000000000058000000000000058000000000000000000000000000000000000000000000000000000000000000000000000000000000000000000000PES00010000001N00000000000000020160914
201609040060000600000000000000700397000000000000007003979900000000000000000000Consumidor Final              000000000058000000000000058000000000000000000000000000000000000000000000000000000000000000000000000000000000000000000000PES00010000001N00000000000000020160914
201609040060000700000000000000479714000000000000004797149900000000000000000000Consumidor Final              000000000058000000000000058000000000000000000000000000000000000000000000000000000000000000000000000000000000000000000000PES00010000001N00000000000000020160914
201609040060000600000000000000700398000000000000007003989900000000000000000000Consumidor Final              000000000063000000000000063000000000000000000000000000000000000000000000000000000000000000000000000000000000000000000000PES00010000001N00000000000000020160914
201609040060000700000000000000479715000000000000004797159900000000000000000000Consumidor Final              000000000058000000000000058000000000000000000000000000000000000000000000000000000000000000000000000000000000000000000000PES00010000001N00000000000000020160914
201609040060000700000000000000479716000000000000004797169900000000000000000000Consumidor Final              000000000063000000000000063000000000000000000000000000000000000000000000000000000000000000000000000000000000000000000000PES00010000001N00000000000000020160914
201609050060000600000000000000700665000000000000007006659900000000000000000000Consumidor Final              000000000063000000000000063000000000000000000000000000000000000000000000000000000000000000000000000000000000000000000000PES00010000001N00000000000000020160915
201609050060000600000000000000700666000000000000007006669900000000000000000000Consumidor Final              000000000096000000000000096000000000000000000000000000000000000000000000000000000000000000000000000000000000000000000000PES00010000001N00000000000000020160915
201609050010000600000000000000008005000000000000000080058000000000030712569804OPENSOFT ARGENTINA S.R.L.     000000000243000000000000243000000000000000000000000000000000000000000000000000000000000000000000000000000000000000000000PES00010000001N00000000000000020160915
201609050060000600000000000000700670000000000000007006709900000000000000000000Consumidor Final              000000000034000000000000034000000000000000000000000000000000000000000000000000000000000000000000000000000000000000000000PES00010000001N00000000000000020160915
201609060060000600000000000000700967000000000000007009679900000000000000000000Consumidor Final              000000000063000000000000063000000000000000000000000000000000000000000000000000000000000000000000000000000000000000000000PES00010000001N00000000000000020160916
201609060060000600000000000000700968000000000000007009689900000000000000000000Consumidor Final              000000000058000000000000058000000000000000000000000000000000000000000000000000000000000000000000000000000000000000000000PES00010000001N00000000000000020160916
201609060060000800000000000000165376000000000000001653769900000000000000000000Consumidor Final              000000000048000000000000048000000000000000000000000000000000000000000000000000000000000000000000000000000000000000000000PES00010000001N00000000000000020160916
201609060060000900000000000000031789000000000000000317899900000000000000000000Consumidor Final              000000000058000000000000058000000000000000000000000000000000000000000000000000000000000000000000000000000000000000000000PES00010000001N00000000000000020160916
201609060060000800000000000000165377000000000000001653779900000000000000000000Consumidor Final              000000000048000000000000048000000000000000000000000000000000000000000000000000000000000000000000000000000000000000000000PES00010000001N00000000000000020160916
201609060060000800000000000000165378000000000000001653789900000000000000000000Consumidor Final              000000000066000000000000066000000000000000000000000000000000000000000000000000000000000000000000000000000000000000000000PES00010000001N00000000000000020160916
201609060060000800000000000000165379000000000000001653799900000000000000000000Consumidor Final              000000000048000000000000048000000000000000000000000000000000000000000000000000000000000000000000000000000000000000000000PES00010000001N00000000000000020160916
201609060060000900000000000000031790000000000000000317909900000000000000000000Consumidor Final              000000000066200000000000066200000000000000000000000000000000000000000000000000000000000000000000000000000000000000000000PES00010000001N00000000000000020160916
201609060060000900000000000000031791000000000000000317919900000000000000000000Consumidor Final              000000000037000000000000037000000000000000000000000000000000000000000000000000000000000000000000000000000000000000000000PES00010000001N00000000000000020160916
201609060060000900000000000000031792000000000000000317929900000000000000000000Consumidor Final              000000000058000000000000058000000000000000000000000000000000000000000000000000000000000000000000000000000000000000000000PES00010000001N00000000000000020160916
201609060060000600000000000000700980000000000000007009809900000000000000000000Consumidor Final              000000000058000000000000058000000000000000000000000000000000000000000000000000000000000000000000000000000000000000000000PES00010000001N00000000000000020160916
201609090060000800000000000000165513000000000000001655139900000000000000000000Consumidor Final              000000000048000000000000048000000000000000000000000000000000000000000000000000000000000000000000000000000000000000000000PES00010000001N00000000000000020160919
201609090060000800000000000000165514000000000000001655149900000000000000000000Consumidor Final              000000000028000000000000028000000000000000000000000000000000000000000000000000000000000000000000000000000000000000000000PES00010000001N00000000000000020160919
201609090060000800000000000000165515000000000000001655159900000000000000000000Consumidor Final              000000000048000000000000048000000000000000000000000000000000000000000000000000000000000000000000000000000000000000000000PES00010000001N00000000000000020160919
201609090060000800000000000000165516000000000000001655169900000000000000000000Consumidor Final              000000000048000000000000048000000000000000000000000000000000000000000000000000000000000000000000000000000000000000000000PES00010000001N00000000000000020160919
201609090060000800000000000000165517000000000000001655179900000000000000000000Consumidor Final              000000000048000000000000048000000000000000000000000000000000000000000000000000000000000000000000000000000000000000000000PES00010000001N00000000000000020160919
201609090060000800000000000000165518000000000000001655189900000000000000000000Consumidor Final              000000000056000000000000056000000000000000000000000000000000000000000000000000000000000000000000000000000000000000000000PES00010000001N00000000000000020160919
201609090060000800000000000000165519000000000000001655199900000000000000000000Consumidor Final              000000000019000000000000019000000000000000000000000000000000000000000000000000000000000000000000000000000000000000000000PES00010000001N00000000000000020160919
201609090060000800000000000000165520000000000000001655209900000000000000000000Consumidor Final              000000000048000000000000048000000000000000000000000000000000000000000000000000000000000000000000000000000000000000000000PES00010000001N00000000000000020160919
201609090060000800000000000000165521000000000000001655219900000000000000000000Consumidor Final              000000000048000000000000048000000000000000000000000000000000000000000000000000000000000000000000000000000000000000000000PES00010000001N00000000000000020160919
201609090060000800000000000000165522000000000000001655229900000000000000000000Consumidor Final              000000000048000000000000048000000000000000000000000000000000000000000000000000000000000000000000000000000000000000000000PES00010000001N00000000000000020160919
201609090060000800000000000000165523000000000000001655239900000000000000000000Consumidor Final              000000000048000000000000048000000000000000000000000000000000000000000000000000000000000000000000000000000000000000000000PES00010000001N00000000000000020160919
201609090060000800000000000000165524000000000000001655249900000000000000000000Consumidor Final              000000000048000000000000048000000000000000000000000000000000000000000000000000000000000000000000000000000000000000000000PES00010000001N00000000000000020160919
201609090060000800000000000000165525000000000000001655259900000000000000000000Consumidor Final              000000000048000000000000048000000000000000000000000000000000000000000000000000000000000000000000000000000000000000000000PES00010000001N00000000000000020160919
201609090060000800000000000000165526000000000000001655269900000000000000000000Consumidor Final              000000000048000000000000048000000000000000000000000000000000000000000000000000000000000000000000000000000000000000000000PES00010000001N00000000000000020160919
201609090060000800000000000000165527000000000000001655279900000000000000000000Consumidor Final              000000000048000000000000048000000000000000000000000000000000000000000000000000000000000000000000000000000000000000000000PES00010000001N00000000000000020160919
201609090060000800000000000000165528000000000000001655289900000000000000000000Consumidor Final              000000000048000000000000048000000000000000000000000000000000000000000000000000000000000000000000000000000000000000000000PES00010000001N00000000000000020160919
201609090060000400000000000000015023000000000000000150239900000000000000000000Consumidor Final              000000000060000000000000060000000000000000000000000000000000000000000000000000000000000000000000000000000000000000000000PES00010000001N00000000000000020160919
201609090060000300000000000000116926000000000000001169269900000000000000000000Consumidor Final              000000000065000000000000065000000000000000000000000000000000000000000000000000000000000000000000000000000000000000000000PES00010000001N00000000000000020160919
201609090060000300000000000000116941000000000000001169419900000000000000000000Consumidor Final              000000000058000000000000058000000000000000000000000000000000000000000000000000000000000000000000000000000000000000000000PES00010000001N00000000000000020160919
201609090060000300000000000000116942000000000000001169429900000000000000000000Consumidor Final              000000000072000000000000072000000000000000000000000000000000000000000000000000000000000000000000000000000000000000000000PES00010000001N00000000000000020160919
201609090060000300000000000000116943000000000000001169439900000000000000000000Consumidor Final              000000000058000000000000058000000000000000000000000000000000000000000000000000000000000000000000000000000000000000000000PES00010000001N00000000000000020160919
201609090060000300000000000000116944000000000000001169449900000000000000000000Consumidor Final              000000000058000000000000058000000000000000000000000000000000000000000000000000000000000000000000000000000000000000000000PES00010000001N00000000000000020160919
201609090060000300000000000000116945000000000000001169459900000000000000000000Consumidor Final              000000000081000000000000081000000000000000000000000000000000000000000000000000000000000000000000000000000000000000000000PES00010000001N00000000000000020160919
201609090060000600000000000000701414000000000000007014149900000000000000000000Consumidor Final              000000000090000000000000090000000000000000000000000000000000000000000000000000000000000000000000000000000000000000000000PES00010000001N00000000000000020160919
201609090060000600000000000000701415000000000000007014159900000000000000000000Consumidor Final              000000000058000000000000058000000000000000000000000000000000000000000000000000000000000000000000000000000000000000000000PES00010000001N00000000000000020160919
201609090060000600000000000000701416000000000000007014169900000000000000000000Consumidor Final              000000000056000000000000056000000000000000000000000000000000000000000000000000000000000000000000000000000000000000000000PES00010000001N00000000000000020160919
201609090060000600000000000000701417000000000000007014179900000000000000000000Consumidor Final              000000000098800000000000098800000000000000000000000000000000000000000000000000000000000000000000000000000000000000000000PES00010000001N00000000000000020160919
201609090060000300000000000000116895000000000000001168959900000000000000000000Consumidor Final              000000000058000000000000058000000000000000000000000000000000000000000000000000000000000000000000000000000000000000000000PES00010000001N00000000000000020160919
201609090060000300000000000000116893000000000000001168939900000000000000000000Consumidor Final              000000000060000000000000060000000000000000000000000000000000000000000000000000000000000000000000000000000000000000000000PES00010000001N00000000000000020160919
201609090060000300000000000000116894000000000000001168949900000000000000000000Consumidor Final              000000000058000000000000058000000000000000000000000000000000000000000000000000000000000000000000000000000000000000000000PES00010000001N00000000000000020160919
201609090060000300000000000000116892000000000000001168929900000000000000000000Consumidor Final              000000000060000000000000060000000000000000000000000000000000000000000000000000000000000000000000000000000000000000000000PES00010000001N00000000000000020160919
201609090060000300000000000000116890000000000000001168909900000000000000000000Consumidor Final              000000000058000000000000058000000000000000000000000000000000000000000000000000000000000000000000000000000000000000000000PES00010000001N00000000000000020160919
201609090060000300000000000000116891000000000000001168919900000000000000000000Consumidor Final              000000000058000000000000058000000000000000000000000000000000000000000000000000000000000000000000000000000000000000000000PES00010000001N00000000000000020160919
201609090060000300000000000000116886000000000000001168869900000000000000000000Consumidor Final              000000000028000000000000028000000000000000000000000000000000000000000000000000000000000000000000000000000000000000000000PES00010000001N00000000000000020160919
201609090060000300000000000000116887000000000000001168879900000000000000000000Consumidor Final              000000000058000000000000058000000000000000000000000000000000000000000000000000000000000000000000000000000000000000000000PES00010000001N00000000000000020160919
201609090060000300000000000000116888000000000000001168889900000000000000000000Consumidor Final              000000000058000000000000058000000000000000000000000000000000000000000000000000000000000000000000000000000000000000000000PES00010000001N00000000000000020160919
201609090060000300000000000000116889000000000000001168899900000000000000000000Consumidor Final              000000000058000000000000058000000000000000000000000000000000000000000000000000000000000000000000000000000000000000000000PES00010000001N00000000000000020160919
201609090060000300000000000000116925000000000000001169259900000000000000000000Consumidor Final              000000000058000000000000058000000000000000000000000000000000000000000000000000000000000000000000000000000000000000000000PES00010000001N00000000000000020160919
201609090060000300000000000000116920000000000000001169209900000000000000000000Consumidor Final              000000000058000000000000058000000000000000000000000000000000000000000000000000000000000000000000000000000000000000000000PES00010000001N00000000000000020160919
201609090060000300000000000000116921000000000000001169219900000000000000000000Consumidor Final              000000000065200000000000065200000000000000000000000000000000000000000000000000000000000000000000000000000000000000000000PES00010000001N00000000000000020160919
201609090060000300000000000000116922000000000000001169229900000000000000000000Consumidor Final              000000000058000000000000058000000000000000000000000000000000000000000000000000000000000000000000000000000000000000000000PES00010000001N00000000000000020160919
201609090060000300000000000000116923000000000000001169239900000000000000000000Consumidor Final              000000000058000000000000058000000000000000000000000000000000000000000000000000000000000000000000000000000000000000000000PES00010000001N00000000000000020160919
201609090060000300000000000000116924000000000000001169249900000000000000000000Consumidor Final              000000000058000000000000058000000000000000000000000000000000000000000000000000000000000000000000000000000000000000000000PES00010000001N00000000000000020160919
201609090060000300000000000000116918000000000000001169189900000000000000000000Consumidor Final              000000000068000000000000068000000000000000000000000000000000000000000000000000000000000000000000000000000000000000000000PES00010000001N00000000000000020160919
201609090060000300000000000000116919000000000000001169199900000000000000000000Consumidor Final              000000000058000000000000058000000000000000000000000000000000000000000000000000000000000000000000000000000000000000000000PES00010000001N00000000000000020160919
201609090060000300000000000000116917000000000000001169179900000000000000000000Consumidor Final              000000000068000000000000068000000000000000000000000000000000000000000000000000000000000000000000000000000000000000000000PES00010000001N00000000000000020160919
201609090060000300000000000000116916000000000000001169169900000000000000000000Consumidor Final              000000000059000000000000059000000000000000000000000000000000000000000000000000000000000000000000000000000000000000000000PES00010000001N00000000000000020160919
201609090060000300000000000000116915000000000000001169159900000000000000000000Consumidor Final              000000000063000000000000063000000000000000000000000000000000000000000000000000000000000000000000000000000000000000000000PES00010000001N00000000000000020160919
201609090060000300000000000000116914000000000000001169149900000000000000000000Consumidor Final              000000000058000000000000058000000000000000000000000000000000000000000000000000000000000000000000000000000000000000000000PES00010000001N00000000000000020160919
201609090060000300000000000000116912000000000000001169129900000000000000000000Consumidor Final              000000000058000000000000058000000000000000000000000000000000000000000000000000000000000000000000000000000000000000000000PES00010000001N00000000000000020160919
201609090060000300000000000000116913000000000000001169139900000000000000000000Consumidor Final              000000000058000000000000058000000000000000000000000000000000000000000000000000000000000000000000000000000000000000000000PES00010000001N00000000000000020160919
201609090060000300000000000000116910000000000000001169109900000000000000000000Consumidor Final              000000000058000000000000058000000000000000000000000000000000000000000000000000000000000000000000000000000000000000000000PES00010000001N00000000000000020160919
201609090060000300000000000000116911000000000000001169119900000000000000000000Consumidor Final              000000000058000000000000058000000000000000000000000000000000000000000000000000000000000000000000000000000000000000000000PES00010000001N00000000000000020160919
201609090060000300000000000000116909000000000000001169099900000000000000000000Consumidor Final              000000000058000000000000058000000000000000000000000000000000000000000000000000000000000000000000000000000000000000000000PES00010000001N00000000000000020160919
201609090060000300000000000000116908000000000000001169089900000000000000000000Consumidor Final              000000000078000000000000078000000000000000000000000000000000000000000000000000000000000000000000000000000000000000000000PES00010000001N00000000000000020160919
201609090060000300000000000000116901000000000000001169019900000000000000000000Consumidor Final              000000000058000000000000058000000000000000000000000000000000000000000000000000000000000000000000000000000000000000000000PES00010000001N00000000000000020160919
201609090060000700000000000000480523000000000000004805239900000000000000000000Consumidor Final              000000000058000000000000058000000000000000000000000000000000000000000000000000000000000000000000000000000000000000000000PES00010000001N00000000000000020160919
201609090060000600000000000000701419000000000000007014199900000000000000000000Consumidor Final              000000000058000000000000058000000000000000000000000000000000000000000000000000000000000000000000000000000000000000000000PES00010000001N00000000000000020160919
201609090060000700000000000000480524000000000000004805249900000000000000000000Consumidor Final              000000000058000000000000058000000000000000000000000000000000000000000000000000000000000000000000000000000000000000000000PES00010000001N00000000000000020160919
201609090060000600000000000000701420000000000000007014209900000000000000000000Consumidor Final              000000000058000000000000058000000000000000000000000000000000000000000000000000000000000000000000000000000000000000000000PES00010000001N00000000000000020160919
201609090060000700000000000000480525000000000000004805259900000000000000000000Consumidor Final              000000000058000000000000058000000000000000000000000000000000000000000000000000000000000000000000000000000000000000000000PES00010000001N00000000000000020160919
201609090060000700000000000000480526000000000000004805269900000000000000000000Consumidor Final              000000000058000000000000058000000000000000000000000000000000000000000000000000000000000000000000000000000000000000000000PES00010000001N00000000000000020160919
201609090060000700000000000000480527000000000000004805279900000000000000000000Consumidor Final              000000000058000000000000058000000000000000000000000000000000000000000000000000000000000000000000000000000000000000000000PES00010000001N00000000000000020160919
201609090060000700000000000000480528000000000000004805289900000000000000000000Consumidor Final              000000000058000000000000058000000000000000000000000000000000000000000000000000000000000000000000000000000000000000000000PES00010000001N00000000000000020160919
201609090060000300000000000000116902000000000000001169029900000000000000000000Consumidor Final              000000000058000000000000058000000000000000000000000000000000000000000000000000000000000000000000000000000000000000000000PES00010000001N00000000000000020160919
201609090060000300000000000000116903000000000000001169039900000000000000000000Consumidor Final              000000000056000000000000056000000000000000000000000000000000000000000000000000000000000000000000000000000000000000000000PES00010000001N00000000000000020160919
201609090060000300000000000000116904000000000000001169049900000000000000000000Consumidor Final              000000000058000000000000058000000000000000000000000000000000000000000000000000000000000000000000000000000000000000000000PES00010000001N00000000000000020160919
201609090060000300000000000000116905000000000000001169059900000000000000000000Consumidor Final              000000000058000000000000058000000000000000000000000000000000000000000000000000000000000000000000000000000000000000000000PES00010000001N00000000000000020160919
201609090060000300000000000000116906000000000000001169069900000000000000000000Consumidor Final              000000000058000000000000058000000000000000000000000000000000000000000000000000000000000000000000000000000000000000000000PES00010000001N00000000000000020160919
201609090060000300000000000000116907000000000000001169079900000000000000000000Consumidor Final              000000000058000000000000058000000000000000000000000000000000000000000000000000000000000000000000000000000000000000000000PES00010000001N00000000000000020160919
201609090060000300000000000000116900000000000000001169009900000000000000000000Consumidor Final              000000000058000000000000058000000000000000000000000000000000000000000000000000000000000000000000000000000000000000000000PES00010000001N00000000000000020160919
201609090060000300000000000000116896000000000000001168969900000000000000000000Consumidor Final              000000000058000000000000058000000000000000000000000000000000000000000000000000000000000000000000000000000000000000000000PES00010000001N00000000000000020160919
201609090060000300000000000000116897000000000000001168979900000000000000000000Consumidor Final              000000000058000000000000058000000000000000000000000000000000000000000000000000000000000000000000000000000000000000000000PES00010000001N00000000000000020160919
201609090060000700000000000000480541000000000000004805419900000000000000000000Consumidor Final              000000000058000000000000058000000000000000000000000000000000000000000000000000000000000000000000000000000000000000000000PES00010000001N00000000000000020160919
201609090060000700000000000000480555000000000000004805559900000000000000000000Consumidor Final              000000000063000000000000063000000000000000000000000000000000000000000000000000000000000000000000000000000000000000000000PES00010000001N00000000000000020160919
201609090060000700000000000000480556000000000000004805569900000000000000000000Consumidor Final              000000000058000000000000058000000000000000000000000000000000000000000000000000000000000000000000000000000000000000000000PES00010000001N00000000000000020160919
201609090060000700000000000000480557000000000000004805579900000000000000000000Consumidor Final              000000000058000000000000058000000000000000000000000000000000000000000000000000000000000000000000000000000000000000000000PES00010000001N00000000000000020160919
201609090060000700000000000000480558000000000000004805589900000000000000000000Consumidor Final              000000000090000000000000090000000000000000000000000000000000000000000000000000000000000000000000000000000000000000000000PES00010000001N00000000000000020160919
201609090060000700000000000000480559000000000000004805599900000000000000000000Consumidor Final              000000000049000000000000049000000000000000000000000000000000000000000000000000000000000000000000000000000000000000000000PES00010000001N00000000000000020160919
201609090060000700000000000000480560000000000000004805609900000000000000000000Consumidor Final              000000000053200000000000053200000000000000000000000000000000000000000000000000000000000000000000000000000000000000000000PES00010000001N00000000000000020160919
201609090060000600000000000000701454000000000000007014549900000000000000000000Consumidor Final              000000000063000000000000063000000000000000000000000000000000000000000000000000000000000000000000000000000000000000000000PES00010000001N00000000000000020160919
201609090060000600000000000000701455000000000000007014559900000000000000000000Consumidor Final              000000000058000000000000058000000000000000000000000000000000000000000000000000000000000000000000000000000000000000000000PES00010000001N00000000000000020160919
201609090060000700000000000000480569000000000000004805699900000000000000000000Consumidor Final              000000000058000000000000058000000000000000000000000000000000000000000000000000000000000000000000000000000000000000000000PES00010000001N00000000000000020160919
201609090060000600000000000000701456000000000000007014569900000000000000000000Consumidor Final              000000000058000000000000058000000000000000000000000000000000000000000000000000000000000000000000000000000000000000000000PES00010000001N00000000000000020160919
201609090060000600000000000000701462000000000000007014629900000000000000000000Consumidor Final              000000000063000000000000063000000000000000000000000000000000000000000000000000000000000000000000000000000000000000000000PES00010000001N00000000000000020160919
201609090060000700000000000000480595000000000000004805959900000000000000000000Consumidor Final              000000000058000000000000058000000000000000000000000000000000000000000000000000000000000000000000000000000000000000000000PES00010000001N00000000000000020160919
201609090060000700000000000000480596000000000000004805969900000000000000000000Consumidor Final              000000000058000000000000058000000000000000000000000000000000000000000000000000000000000000000000000000000000000000000000PES00010000001N00000000000000020160919
201609090060000700000000000000480597000000000000004805979900000000000000000000Consumidor Final              000000000058000000000000058000000000000000000000000000000000000000000000000000000000000000000000000000000000000000000000PES00010000001N00000000000000020160919
201609090060000700000000000000480598000000000000004805989900000000000000000000Consumidor Final              000000000058000000000000058000000000000000000000000000000000000000000000000000000000000000000000000000000000000000000000PES00010000001N00000000000000020160919
201609090060000600000000000000701480000000000000007014809900000000000000000000Consumidor Final              000000000058000000000000058000000000000000000000000000000000000000000000000000000000000000000000000000000000000000000000PES00010000001N00000000000000020160919
201609090060000600000000000000701481000000000000007014819900000000000000000000Consumidor Final              000000000058000000000000058000000000000000000000000000000000000000000000000000000000000000000000000000000000000000000000PES00010000001N00000000000000020160919
201609090010000600000000000000008020000000000000000080208000000000030645355713GRUPO PUJOL FIGUERAS SRL      000000000058000000000000058000000000000000000000000000000000000000000000000000000000000000000000000000000000000000000000PES00010000001N00000000000000020160919
201609090060000600000000000000701491000000000000007014919900000000000000000000Consumidor Final              000000000058000000000000058000000000000000000000000000000000000000000000000000000000000000000000000000000000000000000000PES00010000001N00000000000000020160919
201609090060000600000000000000701492000000000000007014929900000000000000000000Consumidor Final              000000000058000000000000058000000000000000000000000000000000000000000000000000000000000000000000000000000000000000000000PES00010000001N00000000000000020160919
201609090060000600000000000000701493000000000000007014939900000000000000000000Consumidor Final              000000000063000000000000063000000000000000000000000000000000000000000000000000000000000000000000000000000000000000000000PES00010000001N00000000000000020160919
201609090060000600000000000000701519000000000000007015199900000000000000000000Consumidor Final              000000000030400000000000030400000000000000000000000000000000000000000000000000000000000000000000000000000000000000000000PES00010000001N00000000000000020160919
201609090060000800000000000000165560000000000000001655609900000000000000000000Consumidor Final              000000000058000000000000058000000000000000000000000000000000000000000000000000000000000000000000000000000000000000000000PES00010000001N00000000000000020160919
201609090060000800000000000000165561000000000000001655619900000000000000000000Consumidor Final              000000000049000000000000049000000000000000000000000000000000000000000000000000000000000000000000000000000000000000000000PES00010000001N00000000000000020160919
201609090060000900000000000000031881000000000000000318819900000000000000000000Consumidor Final              000000000058000000000000058000000000000000000000000000000000000000000000000000000000000000000000000000000000000000000000PES00010000001N00000000000000020160919
201609090060000900000000000000031882000000000000000318829900000000000000000000Consumidor Final              000000000058000000000000058000000000000000000000000000000000000000000000000000000000000000000000000000000000000000000000PES00010000001N00000000000000020160919
201609090060000600000000000000701530000000000000007015309900000000000000000000Consumidor Final              000000000058000000000000058000000000000000000000000000000000000000000000000000000000000000000000000000000000000000000000PES00010000001N00000000000000020160919
201609090060000900000000000000031883000000000000000318839900000000000000000000Consumidor Final              000000000058000000000000058000000000000000000000000000000000000000000000000000000000000000000000000000000000000000000000PES00010000001N00000000000000020160919
201609090060000600000000000000701531000000000000007015319900000000000000000000Consumidor Final              000000000058000000000000058000000000000000000000000000000000000000000000000000000000000000000000000000000000000000000000PES00010000001N00000000000000020160919
201609090060000900000000000000031884000000000000000318849900000000000000000000Consumidor Final              000000000058000000000000058000000000000000000000000000000000000000000000000000000000000000000000000000000000000000000000PES00010000001N00000000000000020160919
201609090060000600000000000000701532000000000000007015329900000000000000000000Consumidor Final              000000000058000000000000058000000000000000000000000000000000000000000000000000000000000000000000000000000000000000000000PES00010000001N00000000000000020160919
201609090060000600000000000000701533000000000000007015339900000000000000000000Consumidor Final              000000000058000000000000058000000000000000000000000000000000000000000000000000000000000000000000000000000000000000000000PES00010000001N00000000000000020160919
201609090060000600000000000000701537000000000000007015379900000000000000000000Consumidor Final              000000000058000000000000058000000000000000000000000000000000000000000000000000000000000000000000000000000000000000000000PES00010000001N00000000000000020160919
201609090060000700000000000000480610000000000000004806109900000000000000000000Consumidor Final              000000000058000000000000058000000000000000000000000000000000000000000000000000000000000000000000000000000000000000000000PES00010000001N00000000000000020160919
201609090060000700000000000000480611000000000000004806119900000000000000000000Consumidor Final              000000000063000000000000063000000000000000000000000000000000000000000000000000000000000000000000000000000000000000000000PES00010000001N00000000000000020160919
201609090060000700000000000000480612000000000000004806129900000000000000000000Consumidor Final              000000000059000000000000059000000000000000000000000000000000000000000000000000000000000000000000000000000000000000000000PES00010000001N00000000000000020160919
201609090060000700000000000000480613000000000000004806139900000000000000000000Consumidor Final              000000000058000000000000058000000000000000000000000000000000000000000000000000000000000000000000000000000000000000000000PES00010000001N00000000000000020160919
201609090060000700000000000000480614000000000000004806149900000000000000000000Consumidor Final              000000000063000000000000063000000000000000000000000000000000000000000000000000000000000000000000000000000000000000000000PES00010000001N00000000000000020160919
201609090060000700000000000000480619000000000000004806199900000000000000000000Consumidor Final              000000000065200000000000065200000000000000000000000000000000000000000000000000000000000000000000000000000000000000000000PES00010000001N00000000000000020160919
201609090060000700000000000000480620000000000000004806209900000000000000000000Consumidor Final              000000000058000000000000058000000000000000000000000000000000000000000000000000000000000000000000000000000000000000000000PES00010000001N00000000000000020160919
201609090060000800000000000000165563000000000000001655639900000000000000000000Consumidor Final              000000000048000000000000048000000000000000000000000000000000000000000000000000000000000000000000000000000000000000000000PES00010000001N00000000000000020160919
201609090060000800000000000000165564000000000000001655649900000000000000000000Consumidor Final              000000000048000000000000048000000000000000000000000000000000000000000000000000000000000000000000000000000000000000000000PES00010000001N00000000000000020160919
201609090060000800000000000000165565000000000000001655659900000000000000000000Consumidor Final              000000000048000000000000048000000000000000000000000000000000000000000000000000000000000000000000000000000000000000000000PES00010000001N00000000000000020160919
201609090060000600000000000000701564000000000000007015649900000000000000000000Consumidor Final              000000000063000000000000063000000000000000000000000000000000000000000000000000000000000000000000000000000000000000000000PES00010000001N00000000000000020160919
201609100060000700000000000000480630000000000000004806309900000000000000000000Consumidor Final              000000000059000000000000059000000000000000000000000000000000000000000000000000000000000000000000000000000000000000000000PES00010000001N00000000000000020160920
201609100060000700000000000000480631000000000000004806319900000000000000000000Consumidor Final              000000000058000000000000058000000000000000000000000000000000000000000000000000000000000000000000000000000000000000000000PES00010000001N00000000000000020160920
201609100060000700000000000000480632000000000000004806329900000000000000000000Consumidor Final              000000000063000000000000063000000000000000000000000000000000000000000000000000000000000000000000000000000000000000000000PES00010000001N00000000000000020160920
201609100060000700000000000000480633000000000000004806339900000000000000000000Consumidor Final              000000000058000000000000058000000000000000000000000000000000000000000000000000000000000000000000000000000000000000000000PES00010000001N00000000000000020160920
201609100060000700000000000000480634000000000000004806349900000000000000000000Consumidor Final              000000000058000000000000058000000000000000000000000000000000000000000000000000000000000000000000000000000000000000000000PES00010000001N00000000000000020160920
201609100060000700000000000000480635000000000000004806359900000000000000000000Consumidor Final              000000000058000000000000058000000000000000000000000000000000000000000000000000000000000000000000000000000000000000000000PES00010000001N00000000000000020160920
201609100060000300000000000000116966000000000000001169669900000000000000000000Consumidor Final              000000000058000000000000058000000000000000000000000000000000000000000000000000000000000000000000000000000000000000000000PES00010000001N00000000000000020160920
201609100060000300000000000000116967000000000000001169679900000000000000000000Consumidor Final              000000000058000000000000058000000000000000000000000000000000000000000000000000000000000000000000000000000000000000000000PES00010000001N00000000000000020160920
201609100060000300000000000000116968000000000000001169689900000000000000000000Consumidor Final              000000000059000000000000059000000000000000000000000000000000000000000000000000000000000000000000000000000000000000000000PES00010000001N00000000000000020160920
201609100060000300000000000000116969000000000000001169699900000000000000000000Consumidor Final              000000000058000000000000058000000000000000000000000000000000000000000000000000000000000000000000000000000000000000000000PES00010000001N00000000000000020160920
201609100060000800000000000000165572000000000000001655729900000000000000000000Consumidor Final              000000000048000000000000048000000000000000000000000000000000000000000000000000000000000000000000000000000000000000000000PES00010000001N00000000000000020160920
201609100060000800000000000000165573000000000000001655739900000000000000000000Consumidor Final              000000000048000000000000048000000000000000000000000000000000000000000000000000000000000000000000000000000000000000000000PES00010000001N00000000000000020160920
201609100060000800000000000000165574000000000000001655749900000000000000000000Consumidor Final              000000000048000000000000048000000000000000000000000000000000000000000000000000000000000000000000000000000000000000000000PES00010000001N00000000000000020160920
201609100060000800000000000000165575000000000000001655759900000000000000000000Consumidor Final              000000000048000000000000048000000000000000000000000000000000000000000000000000000000000000000000000000000000000000000000PES00010000001N00000000000000020160920
201609100060000600000000000000701585000000000000007015859900000000000000000000Consumidor Final              000000000058000000000000058000000000000000000000000000000000000000000000000000000000000000000000000000000000000000000000PES00010000001N00000000000000020160920
201609100060000600000000000000701586000000000000007015869900000000000000000000Consumidor Final              000000000058000000000000058000000000000000000000000000000000000000000000000000000000000000000000000000000000000000000000PES00010000001N00000000000000020160920
201609100060000600000000000000701587000000000000007015879900000000000000000000Consumidor Final              000000000058000000000000058000000000000000000000000000000000000000000000000000000000000000000000000000000000000000000000PES00010000001N00000000000000020160920
201609100060000600000000000000701588000000000000007015889900000000000000000000Consumidor Final              000000000059000000000000059000000000000000000000000000000000000000000000000000000000000000000000000000000000000000000000PES00010000001N00000000000000020160920
201609100060000700000000000000480648000000000000004806489900000000000000000000Consumidor Final              000000000049000000000000049000000000000000000000000000000000000000000000000000000000000000000000000000000000000000000000PES00010000001N00000000000000020160920
201609100060000700000000000000480649000000000000004806499900000000000000000000Consumidor Final              000000000063000000000000063000000000000000000000000000000000000000000000000000000000000000000000000000000000000000000000PES00010000001N00000000000000020160920
201609100060000700000000000000480650000000000000004806509900000000000000000000Consumidor Final              000000000087000000000000087000000000000000000000000000000000000000000000000000000000000000000000000000000000000000000000PES00010000001N00000000000000020160920
201609100060000800000000000000165576000000000000001655769900000000000000000000Consumidor Final              000000000028000000000000028000000000000000000000000000000000000000000000000000000000000000000000000000000000000000000000PES00010000001N00000000000000020160920
201609100060000800000000000000165577000000000000001655779900000000000000000000Consumidor Final              000000000028000000000000028000000000000000000000000000000000000000000000000000000000000000000000000000000000000000000000PES00010000001N00000000000000020160920
201609100060000800000000000000165578000000000000001655789900000000000000000000Consumidor Final              000000000048000000000000048000000000000000000000000000000000000000000000000000000000000000000000000000000000000000000000PES00010000001N00000000000000020160920
201609100060000800000000000000165579000000000000001655799900000000000000000000Consumidor Final              000000000048000000000000048000000000000000000000000000000000000000000000000000000000000000000000000000000000000000000000PES00010000001N00000000000000020160920
201609100060000600000000000000701575000000000000007015759900000000000000000000Consumidor Final              000000000058000000000000058000000000000000000000000000000000000000000000000000000000000000000000000000000000000000000000PES00010000001N00000000000000020160920
201609100060000600000000000000701576000000000000007015769900000000000000000000Consumidor Final              000000000058000000000000058000000000000000000000000000000000000000000000000000000000000000000000000000000000000000000000PES00010000001N00000000000000020160920
201609100060000300000000000000116953000000000000001169539900000000000000000000Consumidor Final              000000000065000000000000065000000000000000000000000000000000000000000000000000000000000000000000000000000000000000000000PES00010000001N00000000000000020160920
201609100060000800000000000000165580000000000000001655809900000000000000000000Consumidor Final              000000000048000000000000048000000000000000000000000000000000000000000000000000000000000000000000000000000000000000000000PES00010000001N00000000000000020160920
201609100060000800000000000000165581000000000000001655819900000000000000000000Consumidor Final              000000000048000000000000048000000000000000000000000000000000000000000000000000000000000000000000000000000000000000000000PES00010000001N00000000000000020160920
201609100060000800000000000000165582000000000000001655829900000000000000000000Consumidor Final              000000000048000000000000048000000000000000000000000000000000000000000000000000000000000000000000000000000000000000000000PES00010000001N00000000000000020160920
201609100060000800000000000000165583000000000000001655839900000000000000000000Consumidor Final              000000000048000000000000048000000000000000000000000000000000000000000000000000000000000000000000000000000000000000000000PES00010000001N00000000000000020160920
201609100060000600000000000000701601000000000000007016019900000000000000000000Consumidor Final              000000000060000000000000060000000000000000000000000000000000000000000000000000000000000000000000000000000000000000000000PES00010000001N00000000000000020160920
201609100060000700000000000000480677000000000000004806779900000000000000000000Consumidor Final              000000000063000000000000063000000000000000000000000000000000000000000000000000000000000000000000000000000000000000000000PES00010000001N00000000000000020160920
201609100060000600000000000000701614000000000000007016149900000000000000000000Consumidor Final              000000000058000000000000058000000000000000000000000000000000000000000000000000000000000000000000000000000000000000000000PES00010000001N00000000000000020160920
201609100060000700000000000000480678000000000000004806789900000000000000000000Consumidor Final              000000000069000000000000069000000000000000000000000000000000000000000000000000000000000000000000000000000000000000000000PES00010000001N00000000000000020160920
201609100060000600000000000000701615000000000000007016159900000000000000000000Consumidor Final              000000000058000000000000058000000000000000000000000000000000000000000000000000000000000000000000000000000000000000000000PES00010000001N00000000000000020160920
201609100060000600000000000000701616000000000000007016169900000000000000000000Consumidor Final              000000000058000000000000058000000000000000000000000000000000000000000000000000000000000000000000000000000000000000000000PES00010000001N00000000000000020160920
201609100060000600000000000000701617000000000000007016179900000000000000000000Consumidor Final              000000000058000000000000058000000000000000000000000000000000000000000000000000000000000000000000000000000000000000000000PES00010000001N00000000000000020160920
201609100060000700000000000000480679000000000000004806799900000000000000000000Consumidor Final              000000000058000000000000058000000000000000000000000000000000000000000000000000000000000000000000000000000000000000000000PES00010000001N00000000000000020160920
201609100060000600000000000000701618000000000000007016189900000000000000000000Consumidor Final              000000000063000000000000063000000000000000000000000000000000000000000000000000000000000000000000000000000000000000000000PES00010000001N00000000000000020160920
201609100060000700000000000000480680000000000000004806809900000000000000000000Consumidor Final              000000000058000000000000058000000000000000000000000000000000000000000000000000000000000000000000000000000000000000000000PES00010000001N00000000000000020160920
201609100060000600000000000000701619000000000000007016199900000000000000000000Consumidor Final              000000000065000000000000065000000000000000000000000000000000000000000000000000000000000000000000000000000000000000000000PES00010000001N00000000000000020160920
201609100060000800000000000000165600000000000000001656009900000000000000000000Consumidor Final              000000000048000000000000048000000000000000000000000000000000000000000000000000000000000000000000000000000000000000000000PES00010000001N00000000000000020160920
201609100060000800000000000000165601000000000000001656019900000000000000000000Consumidor Final              000000000048000000000000048000000000000000000000000000000000000000000000000000000000000000000000000000000000000000000000PES00010000001N00000000000000020160920
201609100060000600000000000000701637000000000000007016379900000000000000000000Consumidor Final              000000000063000000000000063000000000000000000000000000000000000000000000000000000000000000000000000000000000000000000000PES00010000001N00000000000000020160920
201609100060000700000000000000480710000000000000004807109900000000000000000000Consumidor Final              000000000069000000000000069000000000000000000000000000000000000000000000000000000000000000000000000000000000000000000000PES00010000001N00000000000000020160920
201609100060000700000000000000480711000000000000004807119900000000000000000000Consumidor Final              000000000064000000000000064000000000000000000000000000000000000000000000000000000000000000000000000000000000000000000000PES00010000001N00000000000000020160920
201609100060000700000000000000480712000000000000004807129900000000000000000000Consumidor Final              000000000058000000000000058000000000000000000000000000000000000000000000000000000000000000000000000000000000000000000000PES00010000001N00000000000000020160920
201609100060000700000000000000480713000000000000004807139900000000000000000000Consumidor Final              000000000063000000000000063000000000000000000000000000000000000000000000000000000000000000000000000000000000000000000000PES00010000001N00000000000000020160920
201609100060000700000000000000480714000000000000004807149900000000000000000000Consumidor Final              000000000058000000000000058000000000000000000000000000000000000000000000000000000000000000000000000000000000000000000000PES00010000001N00000000000000020160920
201609100060000700000000000000480715000000000000004807159900000000000000000000Consumidor Final              000000000063000000000000063000000000000000000000000000000000000000000000000000000000000000000000000000000000000000000000PES00010000001N00000000000000020160920
201609100060000700000000000000480716000000000000004807169900000000000000000000Consumidor Final              000000000058000000000000058000000000000000000000000000000000000000000000000000000000000000000000000000000000000000000000PES00010000001N00000000000000020160920
201609100060000700000000000000480731000000000000004807319900000000000000000000Consumidor Final              000000000059000000000000059000000000000000000000000000000000000000000000000000000000000000000000000000000000000000000000PES00010000001N00000000000000020160920
201609100060000800000000000000165617000000000000001656179900000000000000000000Consumidor Final              000000000028000000000000028000000000000000000000000000000000000000000000000000000000000000000000000000000000000000000000PES00010000001N00000000000000020160920
201609100060000700000000000000480741000000000000004807419900000000000000000000Consumidor Final              000000000058000000000000058000000000000000000000000000000000000000000000000000000000000000000000000000000000000000000000PES00010000001N00000000000000020160920
201609100060000600000000000000701667000000000000007016679900000000000000000000Consumidor Final              000000000069000000000000069000000000000000000000000000000000000000000000000000000000000000000000000000000000000000000000PES00010000001N00000000000000020160920
201609100060000700000000000000480742000000000000004807429900000000000000000000Consumidor Final              000000000058000000000000058000000000000000000000000000000000000000000000000000000000000000000000000000000000000000000000PES00010000001N00000000000000020160920
201609100060000600000000000000701668000000000000007016689900000000000000000000Consumidor Final              000000000058000000000000058000000000000000000000000000000000000000000000000000000000000000000000000000000000000000000000PES00010000001N00000000000000020160920
201609100060000700000000000000480743000000000000004807439900000000000000000000Consumidor Final              000000000063000000000000063000000000000000000000000000000000000000000000000000000000000000000000000000000000000000000000PES00010000001N00000000000000020160920
201609100060000600000000000000701669000000000000007016699900000000000000000000Consumidor Final              000000000058000000000000058000000000000000000000000000000000000000000000000000000000000000000000000000000000000000000000PES00010000001N00000000000000020160920
201609100060000600000000000000701670000000000000007016709900000000000000000000Consumidor Final              000000000058000000000000058000000000000000000000000000000000000000000000000000000000000000000000000000000000000000000000PES00010000001N00000000000000020160920
201609100060000800000000000000165624000000000000001656249900000000000000000000Consumidor Final              000000000048000000000000048000000000000000000000000000000000000000000000000000000000000000000000000000000000000000000000PES00010000001N00000000000000020160920
201609100060000800000000000000165625000000000000001656259900000000000000000000Consumidor Final              000000000048000000000000048000000000000000000000000000000000000000000000000000000000000000000000000000000000000000000000PES00010000001N00000000000000020160920
201609100060000800000000000000165626000000000000001656269900000000000000000000Consumidor Final              000000000048000000000000048000000000000000000000000000000000000000000000000000000000000000000000000000000000000000000000PES00010000001N00000000000000020160920
201609100060000900000000000000031910000000000000000319109900000000000000000000Consumidor Final              000000000058000000000000058000000000000000000000000000000000000000000000000000000000000000000000000000000000000000000000PES00010000001N00000000000000020160920
201609100060000600000000000000701692000000000000007016929900000000000000000000Consumidor Final              000000000060000000000000060000000000000000000000000000000000000000000000000000000000000000000000000000000000000000000000PES00010000001N00000000000000020160920
201609100060000900000000000000031911000000000000000319119900000000000000000000Consumidor Final              000000000058000000000000058000000000000000000000000000000000000000000000000000000000000000000000000000000000000000000000PES00010000001N00000000000000020160920
201609100060000600000000000000701693000000000000007016939900000000000000000000Consumidor Final              000000000058000000000000058000000000000000000000000000000000000000000000000000000000000000000000000000000000000000000000PES00010000001N00000000000000020160920
201609100060000600000000000000701694000000000000007016949900000000000000000000Consumidor Final              000000000063000000000000063000000000000000000000000000000000000000000000000000000000000000000000000000000000000000000000PES00010000001N00000000000000020160920
201609100060000600000000000000701749000000000000007017499900000000000000000000Consumidor Final              000000000069000000000000069000000000000000000000000000000000000000000000000000000000000000000000000000000000000000000000PES00010000001N00000000000000020160920
201609100060000600000000000000701750000000000000007017509900000000000000000000Consumidor Final              000000000058000000000000058000000000000000000000000000000000000000000000000000000000000000000000000000000000000000000000PES00010000001N00000000000000020160920
201609100060000600000000000000701751000000000000007017519900000000000000000000Consumidor Final              000000000063000000000000063000000000000000000000000000000000000000000000000000000000000000000000000000000000000000000000PES00010000001N00000000000000020160920
201609100060000600000000000000701752000000000000007017529900000000000000000000Consumidor Final              000000000058000000000000058000000000000000000000000000000000000000000000000000000000000000000000000000000000000000000000PES00010000001N00000000000000020160920
201609100060000600000000000000701753000000000000007017539900000000000000000000Consumidor Final              000000000058000000000000058000000000000000000000000000000000000000000000000000000000000000000000000000000000000000000000PES00010000001N00000000000000020160920
201609100060000600000000000000701754000000000000007017549900000000000000000000Consumidor Final              000000000058000000000000058000000000000000000000000000000000000000000000000000000000000000000000000000000000000000000000PES00010000001N00000000000000020160920
201609110060000600000000000000701756000000000000007017569900000000000000000000Consumidor Final              000000000090000000000000090000000000000000000000000000000000000000000000000000000000000000000000000000000000000000000000PES00010000001N00000000000000020160921
201609110060000700000000000000480780000000000000004807809900000000000000000000Consumidor Final              000000000058000000000000058000000000000000000000000000000000000000000000000000000000000000000000000000000000000000000000PES00010000001N00000000000000020160921
201609110060000600000000000000701757000000000000007017579900000000000000000000Consumidor Final              000000000058000000000000058000000000000000000000000000000000000000000000000000000000000000000000000000000000000000000000PES00010000001N00000000000000020160921
201609110060000600000000000000701758000000000000007017589900000000000000000000Consumidor Final              000000000060000000000000060000000000000000000000000000000000000000000000000000000000000000000000000000000000000000000000PES00010000001N00000000000000020160921
201609110060000600000000000000701759000000000000007017599900000000000000000000Consumidor Final              000000000058000000000000058000000000000000000000000000000000000000000000000000000000000000000000000000000000000000000000PES00010000001N00000000000000020160921
201609110060000600000000000000701760000000000000007017609900000000000000000000Consumidor Final              000000000060000000000000060000000000000000000000000000000000000000000000000000000000000000000000000000000000000000000000PES00010000001N00000000000000020160921
201609110060000600000000000000701761000000000000007017619900000000000000000000Consumidor Final              000000000058000000000000058000000000000000000000000000000000000000000000000000000000000000000000000000000000000000000000PES00010000001N00000000000000020160921
201609110060000600000000000000701762000000000000007017629900000000000000000000Consumidor Final              000000000058000000000000058000000000000000000000000000000000000000000000000000000000000000000000000000000000000000000000PES00010000001N00000000000000020160921
201609110060000600000000000000701763000000000000007017639900000000000000000000Consumidor Final              000000000058000000000000058000000000000000000000000000000000000000000000000000000000000000000000000000000000000000000000PES00010000001N00000000000000020160921
201609110060000600000000000000701764000000000000007017649900000000000000000000Consumidor Final              000000000090000000000000090000000000000000000000000000000000000000000000000000000000000000000000000000000000000000000000PES00010000001N00000000000000020160921
201609110060000600000000000000701765000000000000007017659900000000000000000000Consumidor Final              000000000069000000000000069000000000000000000000000000000000000000000000000000000000000000000000000000000000000000000000PES00010000001N00000000000000020160921
201609110060000700000000000000480807000000000000004808079900000000000000000000Consumidor Final              000000000058000000000000058000000000000000000000000000000000000000000000000000000000000000000000000000000000000000000000PES00010000001N00000000000000020160921
201609110060000600000000000000701818000000000000007018189900000000000000000000Consumidor Final              000000000069000000000000069000000000000000000000000000000000000000000000000000000000000000000000000000000000000000000000PES00010000001N00000000000000020160921
201609110060000600000000000000701819000000000000007018199900000000000000000000Consumidor Final              000000000058000000000000058000000000000000000000000000000000000000000000000000000000000000000000000000000000000000000000PES00010000001N00000000000000020160921
201609110060000600000000000000701820000000000000007018209900000000000000000000Consumidor Final              000000000057000000000000057000000000000000000000000000000000000000000000000000000000000000000000000000000000000000000000PES00010000001N00000000000000020160921
201609110060000600000000000000701821000000000000007018219900000000000000000000Consumidor Final              000000000058000000000000058000000000000000000000000000000000000000000000000000000000000000000000000000000000000000000000PES00010000001N00000000000000020160921
201609110060000600000000000000701822000000000000007018229900000000000000000000Consumidor Final              000000000063000000000000063000000000000000000000000000000000000000000000000000000000000000000000000000000000000000000000PES00010000001N00000000000000020160921
201609110060000600000000000000701823000000000000007018239900000000000000000000Consumidor Final              000000000065200000000000065200000000000000000000000000000000000000000000000000000000000000000000000000000000000000000000PES00010000001N00000000000000020160921
201609110060000600000000000000701824000000000000007018249900000000000000000000Consumidor Final              000000000058000000000000058000000000000000000000000000000000000000000000000000000000000000000000000000000000000000000000PES00010000001N00000000000000020160921
201609110060000600000000000000701825000000000000007018259900000000000000000000Consumidor Final              000000000063000000000000063000000000000000000000000000000000000000000000000000000000000000000000000000000000000000000000PES00010000001N00000000000000020160921
201609110060000800000000000000165671000000000000001656719900000000000000000000Consumidor Final              000000000048000000000000048000000000000000000000000000000000000000000000000000000000000000000000000000000000000000000000PES00010000001N00000000000000020160921
201609110060000800000000000000165672000000000000001656729900000000000000000000Consumidor Final              000000000048000000000000048000000000000000000000000000000000000000000000000000000000000000000000000000000000000000000000PES00010000001N00000000000000020160921
201609110060000600000000000000701841000000000000007018419900000000000000000000Consumidor Final              000000000058000000000000058000000000000000000000000000000000000000000000000000000000000000000000000000000000000000000000PES00010000001N00000000000000020160921
201609110060000700000000000000480847000000000000004808479900000000000000000000Consumidor Final              000000000058000000000000058000000000000000000000000000000000000000000000000000000000000000000000000000000000000000000000PES00010000001N00000000000000020160921
201609110060000700000000000000480848000000000000004808489900000000000000000000Consumidor Final              000000000063000000000000063000000000000000000000000000000000000000000000000000000000000000000000000000000000000000000000PES00010000001N00000000000000020160921
201609110060000700000000000000480849000000000000004808499900000000000000000000Consumidor Final              000000000058000000000000058000000000000000000000000000000000000000000000000000000000000000000000000000000000000000000000PES00010000001N00000000000000020160921
201609110060000700000000000000480853000000000000004808539900000000000000000000Consumidor Final              000000000065000000000000065000000000000000000000000000000000000000000000000000000000000000000000000000000000000000000000PES00010000001N00000000000000020160921
201609110060000700000000000000480854000000000000004808549900000000000000000000Consumidor Final              000000000063000000000000063000000000000000000000000000000000000000000000000000000000000000000000000000000000000000000000PES00010000001N00000000000000020160921
201609110060000700000000000000480855000000000000004808559900000000000000000000Consumidor Final              000000000063000000000000063000000000000000000000000000000000000000000000000000000000000000000000000000000000000000000000PES00010000001N00000000000000020160921
201609110060000700000000000000480856000000000000004808569900000000000000000000Consumidor Final              000000000063000000000000063000000000000000000000000000000000000000000000000000000000000000000000000000000000000000000000PES00010000001N00000000000000020160921
201609110060000800000000000000165687000000000000001656879900000000000000000000Consumidor Final              000000000058000000000000058000000000000000000000000000000000000000000000000000000000000000000000000000000000000000000000PES00010000001N00000000000000020160921
201609110060000700000000000000480876000000000000004808769900000000000000000000Consumidor Final              000000000058000000000000058000000000000000000000000000000000000000000000000000000000000000000000000000000000000000000000PES00010000001N00000000000000020160921
201609110060000700000000000000480877000000000000004808779900000000000000000000Consumidor Final              000000000058000000000000058000000000000000000000000000000000000000000000000000000000000000000000000000000000000000000000PES00010000001N00000000000000020160921
201609120060000600000000000000702123000000000000007021239900000000000000000000Consumidor Final              000000000058000000000000058000000000000000000000000000000000000000000000000000000000000000000000000000000000000000000000PES00010000001N00000000000000020160922
201609120060000600000000000000702124000000000000007021249900000000000000000000Consumidor Final              000000000058000000000000058000000000000000000000000000000000000000000000000000000000000000000000000000000000000000000000PES00010000001N00000000000000020160922
201609120060000600000000000000702125000000000000007021259900000000000000000000Consumidor Final              000000000049000000000000049000000000000000000000000000000000000000000000000000000000000000000000000000000000000000000000PES00010000001N00000000000000020160922
201609120060000600000000000000702126000000000000007021269900000000000000000000Consumidor Final              000000000064100000000000064100000000000000000000000000000000000000000000000000000000000000000000000000000000000000000000PES00010000001N00000000000000020160922
201609120060000600000000000000702127000000000000007021279900000000000000000000Consumidor Final              000000000065200000000000065200000000000000000000000000000000000000000000000000000000000000000000000000000000000000000000PES00010000001N00000000000000020160922
201609120060000600000000000000702128000000000000007021289900000000000000000000Consumidor Final              000000000071000000000000071000000000000000000000000000000000000000000000000000000000000000000000000000000000000000000000PES00010000001N00000000000000020160922
201609120060000600000000000000702129000000000000007021299900000000000000000000Consumidor Final              000000000065000000000000065000000000000000000000000000000000000000000000000000000000000000000000000000000000000000000000PES00010000001N00000000000000020160922
201609120060000600000000000000702145000000000000007021459900000000000000000000Consumidor Final              000000000059000000000000059000000000000000000000000000000000000000000000000000000000000000000000000000000000000000000000PES00010000001N00000000000000020160922
201609120060000600000000000000702146000000000000007021469900000000000000000000Consumidor Final              000000000063000000000000063000000000000000000000000000000000000000000000000000000000000000000000000000000000000000000000PES00010000001N00000000000000020160922
201609120060000700000000000000481128000000000000004811289900000000000000000000Consumidor Final              000000000058000000000000058000000000000000000000000000000000000000000000000000000000000000000000000000000000000000000000PES00010000001N00000000000000020160922
201609120060000600000000000000702147000000000000007021479900000000000000000000Consumidor Final              000000000063000000000000063000000000000000000000000000000000000000000000000000000000000000000000000000000000000000000000PES00010000001N00000000000000020160922
201609140060000700000000000000481406000000000000004814069900000000000000000000Consumidor Final              000000000086000000000000086000000000000000000000000000000000000000000000000000000000000000000000000000000000000000000000PES00010000001N00000000000000020160924
201609140060000700000000000000481407000000000000004814079900000000000000000000Consumidor Final              000000000086000000000000086000000000000000000000000000000000000000000000000000000000000000000000000000000000000000000000PES00010000001N00000000000000020160924
201609140060000700000000000000481408000000000000004814089900000000000000000000Consumidor Final              000000000060000000000000060000000000000000000000000000000000000000000000000000000000000000000000000000000000000000000000PES00010000001N00000000000000020160924
201609140060000700000000000000481409000000000000004814099900000000000000000000Consumidor Final              000000000058000000000000058000000000000000000000000000000000000000000000000000000000000000000000000000000000000000000000PES00010000001N00000000000000020160924
201609140060000700000000000000481410000000000000004814109900000000000000000000Consumidor Final              000000000078000000000000078000000000000000000000000000000000000000000000000000000000000000000000000000000000000000000000PES00010000001N00000000000000020160924
201609140060000700000000000000481411000000000000004814119900000000000000000000Consumidor Final              000000000058000000000000058000000000000000000000000000000000000000000000000000000000000000000000000000000000000000000000PES00010000001N00000000000000020160924
201609140060000700000000000000481412000000000000004814129900000000000000000000Consumidor Final              000000000070600000000000070600000000000000000000000000000000000000000000000000000000000000000000000000000000000000000000PES00010000001N00000000000000020160924
201609140060000700000000000000481413000000000000004814138000000000023141205374MARGARITA ROJAS               000000000566700000000000566700000000000000000000000000000000000000000000000000000000000000000000000000000000000000000000PES00010000001N00000000000000020160924
201609140060000700000000000000481414000000000000004814148000000000023141205374MARGARITA ROJAS               000000000566700000000000566700000000000000000000000000000000000000000000000000000000000000000000000000000000000000000000PES00010000001N00000000000000020160924
201609140060000700000000000000481415000000000000004814159900000000000000000000Consumidor Final              000000000059000000000000059000000000000000000000000000000000000000000000000000000000000000000000000000000000000000000000PES00010000001N00000000000000020160924
201609150060000600000000000000702604000000000000007026049900000000000000000000Consumidor Final              000000000065200000000000065200000000000000000000000000000000000000000000000000000000000000000000000000000000000000000000PES00010000001N00000000000000020160925
201609150060000600000000000000702605000000000000007026059900000000000000000000Consumidor Final              000000000063000000000000063000000000000000000000000000000000000000000000000000000000000000000000000000000000000000000000PES00010000001N00000000000000020160925
201609150060000600000000000000702606000000000000007026069900000000000000000000Consumidor Final              000000000059000000000000059000000000000000000000000000000000000000000000000000000000000000000000000000000000000000000000PES00010000001N00000000000000020160925
201609150060000600000000000000702607000000000000007026079900000000000000000000Consumidor Final              000000000058000000000000058000000000000000000000000000000000000000000000000000000000000000000000000000000000000000000000PES00010000001N00000000000000020160925
201609150060000600000000000000702608000000000000007026089900000000000000000000Consumidor Final              000000000058000000000000058000000000000000000000000000000000000000000000000000000000000000000000000000000000000000000000PES00010000001N00000000000000020160925
201609150060000600000000000000702609000000000000007026099900000000000000000000Consumidor Final              000000000058000000000000058000000000000000000000000000000000000000000000000000000000000000000000000000000000000000000000PES00010000001N00000000000000020160925
201609150060000600000000000000702610000000000000007026109900000000000000000000Consumidor Final              000000000059000000000000059000000000000000000000000000000000000000000000000000000000000000000000000000000000000000000000PES00010000001N00000000000000020160925
201609150060000600000000000000702614000000000000007026149900000000000000000000Consumidor Final              000000000063000000000000063000000000000000000000000000000000000000000000000000000000000000000000000000000000000000000000PES00010000001N00000000000000020160925
201609150060000600000000000000702629000000000000007026299900000000000000000000Consumidor Final              000000000058000000000000058000000000000000000000000000000000000000000000000000000000000000000000000000000000000000000000PES00010000001N00000000000000020160925
201609150060000600000000000000702630000000000000007026309900000000000000000000Consumidor Final              000000000058000000000000058000000000000000000000000000000000000000000000000000000000000000000000000000000000000000000000PES00010000001N00000000000000020160925
201609150060000600000000000000702631000000000000007026319900000000000000000000Consumidor Final              000000000058000000000000058000000000000000000000000000000000000000000000000000000000000000000000000000000000000000000000PES00010000001N00000000000000020160925
201609150060000800000000000000165971000000000000001659719900000000000000000000Consumidor Final              000000000048000000000000048000000000000000000000000000000000000000000000000000000000000000000000000000000000000000000000PES00010000001N00000000000000020160925
201609150060000800000000000000165972000000000000001659729900000000000000000000Consumidor Final              000000000048000000000000048000000000000000000000000000000000000000000000000000000000000000000000000000000000000000000000PES00010000001N00000000000000020160925
201609150060000800000000000000165973000000000000001659739900000000000000000000Consumidor Final              000000000048000000000000048000000000000000000000000000000000000000000000000000000000000000000000000000000000000000000000PES00010000001N00000000000000020160925
201609150060000800000000000000165974000000000000001659749900000000000000000000Consumidor Final              000000000048000000000000048000000000000000000000000000000000000000000000000000000000000000000000000000000000000000000000PES00010000001N00000000000000020160925
201609150060000800000000000000165975000000000000001659759900000000000000000000Consumidor Final              000000000056000000000000056000000000000000000000000000000000000000000000000000000000000000000000000000000000000000000000PES00010000001N00000000000000020160925
201609150060000700000000000000481726000000000000004817269900000000000000000000Consumidor Final              000000000058000000000000058000000000000000000000000000000000000000000000000000000000000000000000000000000000000000000000PES00010000001N00000000000000020160925
201609150060000700000000000000481730000000000000004817309900000000000000000000Consumidor Final              000000000058000000000000058000000000000000000000000000000000000000000000000000000000000000000000000000000000000000000000PES00010000001N00000000000000020160925
201609150060000700000000000000481731000000000000004817319900000000000000000000Consumidor Final              000000000058000000000000058000000000000000000000000000000000000000000000000000000000000000000000000000000000000000000000PES00010000001N00000000000000020160925
201609150060000300000000000000117007000000000000001170079900000000000000000000Consumidor Final              000000000063000000000000063000000000000000000000000000000000000000000000000000000000000000000000000000000000000000000000PES00010000001N00000000000000020160925
201609150060000700000000000000481732000000000000004817329900000000000000000000Consumidor Final              000000000058000000000000058000000000000000000000000000000000000000000000000000000000000000000000000000000000000000000000PES00010000001N00000000000000020160925
201609150060000800000000000000165978000000000000001659789900000000000000000000Consumidor Final              000000000048000000000000048000000000000000000000000000000000000000000000000000000000000000000000000000000000000000000000PES00010000001N00000000000000020160925
201609150060000800000000000000165979000000000000001659799900000000000000000000Consumidor Final              000000000048000000000000048000000000000000000000000000000000000000000000000000000000000000000000000000000000000000000000PES00010000001N00000000000000020160925
201609150060000800000000000000165980000000000000001659809900000000000000000000Consumidor Final              000000000048000000000000048000000000000000000000000000000000000000000000000000000000000000000000000000000000000000000000PES00010000001N00000000000000020160925
201609150060000800000000000000165981000000000000001659819900000000000000000000Consumidor Final              000000000048000000000000048000000000000000000000000000000000000000000000000000000000000000000000000000000000000000000000PES00010000001N00000000000000020160925
201609150060000300000000000000117004000000000000001170049900000000000000000000Consumidor Final              000000000058000000000000058000000000000000000000000000000000000000000000000000000000000000000000000000000000000000000000PES00010000001N00000000000000020160925
201609150060000300000000000000117005000000000000001170059900000000000000000000Consumidor Final              000000000065000000000000065000000000000000000000000000000000000000000000000000000000000000000000000000000000000000000000PES00010000001N00000000000000020160925
201609150060000300000000000000117006000000000000001170069900000000000000000000Consumidor Final              000000000069000000000000069000000000000000000000000000000000000000000000000000000000000000000000000000000000000000000000PES00010000001N00000000000000020160925
201609150060000700000000000000481727000000000000004817279900000000000000000000Consumidor Final              000000000065200000000000065200000000000000000000000000000000000000000000000000000000000000000000000000000000000000000000PES00010000001N00000000000000020160925
201609150060000600000000000000702622000000000000007026229900000000000000000000Consumidor Final              000000000058000000000000058000000000000000000000000000000000000000000000000000000000000000000000000000000000000000000000PES00010000001N00000000000000020160925
201609150060000600000000000000702623000000000000007026239900000000000000000000Consumidor Final              000000000058000000000000058000000000000000000000000000000000000000000000000000000000000000000000000000000000000000000000PES00010000001N00000000000000020160925
201609150060000600000000000000702624000000000000007026249900000000000000000000Consumidor Final              000000000058000000000000058000000000000000000000000000000000000000000000000000000000000000000000000000000000000000000000PES00010000001N00000000000000020160925
201609150060000600000000000000702625000000000000007026259900000000000000000000Consumidor Final              000000000058000000000000058000000000000000000000000000000000000000000000000000000000000000000000000000000000000000000000PES00010000001N00000000000000020160925
201609150060000600000000000000702626000000000000007026269900000000000000000000Consumidor Final              000000000028000000000000028000000000000000000000000000000000000000000000000000000000000000000000000000000000000000000000PES00010000001N00000000000000020160925
201609150060000600000000000000702627000000000000007026279900000000000000000000Consumidor Final              000000000058000000000000058000000000000000000000000000000000000000000000000000000000000000000000000000000000000000000000PES00010000001N00000000000000020160925
201609150060000600000000000000702628000000000000007026289900000000000000000000Consumidor Final              000000000063000000000000063000000000000000000000000000000000000000000000000000000000000000000000000000000000000000000000PES00010000001N00000000000000020160925
201609010060000600000000000000699582000000000000006995829900000000000000000000Consumidor Final              000000000058000000000000058000000000000000000000000000000000000000000000000000000000000000000000000000000000000000000000PES00010000001N00000000000000020160911
201609010060000600000000000000699583000000000000006995839900000000000000000000Consumidor Final              000000000058000000000000058000000000000000000000000000000000000000000000000000000000000000000000000000000000000000000000PES00010000001N00000000000000020160911
201609010060000600000000000000699584000000000000006995849900000000000000000000Consumidor Final              000000000019000000000000019000000000000000000000000000000000000000000000000000000000000000000000000000000000000000000000PES00010000001N00000000000000020160911
201609010060000600000000000000699593000000000000006995939900000000000000000000Consumidor Final              000000000058000000000000058000000000000000000000000000000000000000000000000000000000000000000000000000000000000000000000PES00010000001N00000000000000020160911
201609010060000600000000000000699594000000000000006995949900000000000000000000Consumidor Final              000000000058000000000000058000000000000000000000000000000000000000000000000000000000000000000000000000000000000000000000PES00010000001N00000000000000020160911
201609010060000600000000000000699595000000000000006995959900000000000000000000Consumidor Final              000000000058000000000000058000000000000000000000000000000000000000000000000000000000000000000000000000000000000000000000PES00010000001N00000000000000020160911
201609010060000600000000000000699596000000000000006995969900000000000000000000Consumidor Final              000000000058000000000000058000000000000000000000000000000000000000000000000000000000000000000000000000000000000000000000PES00010000001N00000000000000020160911
201609010060000600000000000000699597000000000000006995979900000000000000000000Consumidor Final              000000000049000000000000049000000000000000000000000000000000000000000000000000000000000000000000000000000000000000000000PES00010000001N00000000000000020160911
201609010060000600000000000000699598000000000000006995989900000000000000000000Consumidor Final              000000000058000000000000058000000000000000000000000000000000000000000000000000000000000000000000000000000000000000000000PES00010000001N00000000000000020160911
201609010060000600000000000000699599000000000000006995999900000000000000000000Consumidor Final              000000000065200000000000065200000000000000000000000000000000000000000000000000000000000000000000000000000000000000000000PES00010000001N00000000000000020160911
201609010060000800000000000000165049000000000000001650499900000000000000000000Consumidor Final              000000000048000000000000048000000000000000000000000000000000000000000000000000000000000000000000000000000000000000000000PES00010000001N00000000000000020160911
201609010060000600000000000000699656000000000000006996569900000000000000000000Consumidor Final              000000000069000000000000069000000000000000000000000000000000000000000000000000000000000000000000000000000000000000000000PES00010000001N00000000000000020160911
201609010060000600000000000000699657000000000000006996579900000000000000000000Consumidor Final              000000000063000000000000063000000000000000000000000000000000000000000000000000000000000000000000000000000000000000000000PES00010000001N00000000000000020160911
201609010060000600000000000000699678000000000000006996789900000000000000000000Consumidor Final              000000000058000000000000058000000000000000000000000000000000000000000000000000000000000000000000000000000000000000000000PES00010000001N00000000000000020160911
201609010060000700000000000000479100000000000000004791009900000000000000000000Consumidor Final              000000000059000000000000059000000000000000000000000000000000000000000000000000000000000000000000000000000000000000000000PES00010000001N00000000000000020160911
201609010060000600000000000000699679000000000000006996799900000000000000000000Consumidor Final              000000000058000000000000058000000000000000000000000000000000000000000000000000000000000000000000000000000000000000000000PES00010000001N00000000000000020160911
201609010060000600000000000000699680000000000000006996809900000000000000000000Consumidor Final              000000000058000000000000058000000000000000000000000000000000000000000000000000000000000000000000000000000000000000000000PES00010000001N00000000000000020160911
201609010060000700000000000000479101000000000000004791019900000000000000000000Consumidor Final              000000000063000000000000063000000000000000000000000000000000000000000000000000000000000000000000000000000000000000000000PES00010000001N00000000000000020160911
201609010060000600000000000000699681000000000000006996819900000000000000000000Consumidor Final              000000000058000000000000058000000000000000000000000000000000000000000000000000000000000000000000000000000000000000000000PES00010000001N00000000000000020160911
201609010060000700000000000000479102000000000000004791029900000000000000000000Consumidor Final              000000000058000000000000058000000000000000000000000000000000000000000000000000000000000000000000000000000000000000000000PES00010000001N00000000000000020160911
201609010060000600000000000000699682000000000000006996829900000000000000000000Consumidor Final              000000000058000000000000058000000000000000000000000000000000000000000000000000000000000000000000000000000000000000000000PES00010000001N00000000000000020160911
201609010060000700000000000000479103000000000000004791039900000000000000000000Consumidor Final              000000000058000000000000058000000000000000000000000000000000000000000000000000000000000000000000000000000000000000000000PES00010000001N00000000000000020160911
201609010060000700000000000000479108000000000000004791089900000000000000000000Consumidor Final              000000000028000000000000028000000000000000000000000000000000000000000000000000000000000000000000000000000000000000000000PES00010000001N00000000000000020160911
201609010060000700000000000000479109000000000000004791099900000000000000000000Consumidor Final              000000000058000000000000058000000000000000000000000000000000000000000000000000000000000000000000000000000000000000000000PES00010000001N00000000000000020160911
201609010060000700000000000000479110000000000000004791109900000000000000000000Consumidor Final              000000000058000000000000058000000000000000000000000000000000000000000000000000000000000000000000000000000000000000000000PES00010000001N00000000000000020160911
201609010060000700000000000000479111000000000000004791119900000000000000000000Consumidor Final              000000000097700000000000097700000000000000000000000000000000000000000000000000000000000000000000000000000000000000000000PES00010000001N00000000000000020160911
201609010060000700000000000000479112000000000000004791129900000000000000000000Consumidor Final              000000000049000000000000049000000000000000000000000000000000000000000000000000000000000000000000000000000000000000000000PES00010000001N00000000000000020160911
201609010060000600000000000000699690000000000000006996909900000000000000000000Consumidor Final              000000000057000000000000057000000000000000000000000000000000000000000000000000000000000000000000000000000000000000000000PES00010000001N00000000000000020160911
201609010060000700000000000000479113000000000000004791139900000000000000000000Consumidor Final              000000000058000000000000058000000000000000000000000000000000000000000000000000000000000000000000000000000000000000000000PES00010000001N00000000000000020160911
201609010060000700000000000000479114000000000000004791149900000000000000000000Consumidor Final              000000000053000000000000053000000000000000000000000000000000000000000000000000000000000000000000000000000000000000000000PES00010000001N00000000000000020160911
201609010060000700000000000000479115000000000000004791159900000000000000000000Consumidor Final              000000000058000000000000058000000000000000000000000000000000000000000000000000000000000000000000000000000000000000000000PES00010000001N00000000000000020160911
201609010060000600000000000000699693000000000000006996939900000000000000000000Consumidor Final              000000000079000000000000079000000000000000000000000000000000000000000000000000000000000000000000000000000000000000000000PES00010000001N00000000000000020160911
201609010060000600000000000000699694000000000000006996949900000000000000000000Consumidor Final              000000000058000000000000058000000000000000000000000000000000000000000000000000000000000000000000000000000000000000000000PES00010000001N00000000000000020160911
201609010060000600000000000000699726000000000000006997269900000000000000000000Consumidor Final              000000000058000000000000058000000000000000000000000000000000000000000000000000000000000000000000000000000000000000000000PES00010000001N00000000000000020160911
201609010060000600000000000000699727000000000000006997279900000000000000000000Consumidor Final              000000000058000000000000058000000000000000000000000000000000000000000000000000000000000000000000000000000000000000000000PES00010000001N00000000000000020160911
201609010060000600000000000000699728000000000000006997289900000000000000000000Consumidor Final              000000000058000000000000058000000000000000000000000000000000000000000000000000000000000000000000000000000000000000000000PES00010000001N00000000000000020160911
201609010060000600000000000000699729000000000000006997299900000000000000000000Consumidor Final              000000000058000000000000058000000000000000000000000000000000000000000000000000000000000000000000000000000000000000000000PES00010000001N00000000000000020160911
201609010060000600000000000000699730000000000000006997309900000000000000000000Consumidor Final              000000000058000000000000058000000000000000000000000000000000000000000000000000000000000000000000000000000000000000000000PES00010000001N00000000000000020160911
201609010060000600000000000000699731000000000000006997319900000000000000000000Consumidor Final              000000000058000000000000058000000000000000000000000000000000000000000000000000000000000000000000000000000000000000000000PES00010000001N00000000000000020160911
201609010060000600000000000000699732000000000000006997329900000000000000000000Consumidor Final              000000000058000000000000058000000000000000000000000000000000000000000000000000000000000000000000000000000000000000000000PES00010000001N00000000000000020160911
201609010060000600000000000000699733000000000000006997339900000000000000000000Consumidor Final              000000000063000000000000063000000000000000000000000000000000000000000000000000000000000000000000000000000000000000000000PES00010000001N00000000000000020160911
201609010060000600000000000000699734000000000000006997349900000000000000000000Consumidor Final              000000000058000000000000058000000000000000000000000000000000000000000000000000000000000000000000000000000000000000000000PES00010000001N00000000000000020160911
