201401020060000700000000000000314152000000000000003141529900000000000000000000Consumidor Final              000000000027000000000000027000000000000000000000000000000000000000000000000000000000000000000000000000000000000000000000PES00010000001N00000000000000020140112
201401020060000600000000000000509125000000000000005091259900000000000000000000Consumidor Final              000000000027000000000000027000000000000000000000000000000000000000000000000000000000000000000000000000000000000000000000PES00010000001N00000000000000020140112
201401020060000600000000000000509126000000000000005091269900000000000000000000Consumidor Final              000000000027000000000000027000000000000000000000000000000000000000000000000000000000000000000000000000000000000000000000PES00010000001N00000000000000020140112
201401020060000600000000000000509127000000000000005091279900000000000000000000Consumidor Final              000000000027000000000000027000000000000000000000000000000000000000000000000000000000000000000000000000000000000000000000PES00010000001N00000000000000020140112
201401020060000600000000000000509128000000000000005091289900000000000000000000Consumidor Final              000000000027000000000000027000000000000000000000000000000000000000000000000000000000000000000000000000000000000000000000PES00010000001N00000000000000020140112
201401020060000600000000000000509150000000000000005091509900000000000000000000Consumidor Final              000000000027000000000000027000000000000000000000000000000000000000000000000000000000000000000000000000000000000000000000PES00010000001N00000000000000020140112
201401020060000600000000000000509151000000000000005091519900000000000000000000Consumidor Final              000000000025000000000000025000000000000000000000000000000000000000000000000000000000000000000000000000000000000000000000PES00010000001N00000000000000020140112
201401020060000600000000000000509155000000000000005091559900000000000000000000Consumidor Final              000000000027000000000000027000000000000000000000000000000000000000000000000000000000000000000000000000000000000000000000PES00010000001N00000000000000020140112
201401020060000900000000000000007363000000000000000073639900000000000000000000Consumidor Final              000000000027000000000000027000000000000000000000000000000000000000000000000000000000000000000000000000000000000000000000PES00010000001N00000000000000020140112
201401020060000900000000000000007364000000000000000073649900000000000000000000Consumidor Final              000000000027000000000000027000000000000000000000000000000000000000000000000000000000000000000000000000000000000000000000PES00010000001N00000000000000020140112
201401020060000600000000000000509163000000000000005091639900000000000000000000Consumidor Final              000000000021500000000000021500000000000000000000000000000000000000000000000000000000000000000000000000000000000000000000PES00010000001N00000000000000020140112
201401020060000600000000000000509164000000000000005091649900000000000000000000Consumidor Final              000000000021500000000000021500000000000000000000000000000000000000000000000000000000000000000000000000000000000000000000PES00010000001N00000000000000020140112
201401020060000600000000000000509165000000000000005091659900000000000000000000Consumidor Final              000000000030000000000000030000000000000000000000000000000000000000000000000000000000000000000000000000000000000000000000PES00010000001N00000000000000020140112
201401020060000600000000000000509166000000000000005091669900000000000000000000Consumidor Final              000000000021500000000000021500000000000000000000000000000000000000000000000000000000000000000000000000000000000000000000PES00010000001N00000000000000020140112
201401040060000600000000000000509322000000000000005093229900000000000000000000Consumidor Final              000000000034000000000000034000000000000000000000000000000000000000000000000000000000000000000000000000000000000000000000PES00010000001N00000000000000020140114
201401040060000600000000000000509335000000000000005093359900000000000000000000Consumidor Final              000000000030000000000000030000000000000000000000000000000000000000000000000000000000000000000000000000000000000000000000PES00010000001N00000000000000020140114
201401040060000600000000000000509336000000000000005093369900000000000000000000Consumidor Final              000000000021500000000000021500000000000000000000000000000000000000000000000000000000000000000000000000000000000000000000PES00010000001N00000000000000020140114
201401040060000600000000000000509337000000000000005093379900000000000000000000Consumidor Final              000000000027000000000000027000000000000000000000000000000000000000000000000000000000000000000000000000000000000000000000PES00010000001N00000000000000020140114
201401040060000600000000000000509338000000000000005093389900000000000000000000Consumidor Final              000000000027000000000000027000000000000000000000000000000000000000000000000000000000000000000000000000000000000000000000PES00010000001N00000000000000020140114
201401040060000600000000000000509340000000000000005093409900000000000000000000Consumidor Final              000000000027000000000000027000000000000000000000000000000000000000000000000000000000000000000000000000000000000000000000PES00010000001N00000000000000020140114
201401040060000600000000000000509341000000000000005093419900000000000000000000Consumidor Final              000000000027000000000000027000000000000000000000000000000000000000000000000000000000000000000000000000000000000000000000PES00010000001N00000000000000020140114
201401040060000600000000000000509342000000000000005093429900000000000000000000Consumidor Final              000000000030000000000000030000000000000000000000000000000000000000000000000000000000000000000000000000000000000000000000PES00010000001N00000000000000020140114
201401040060000600000000000000509343000000000000005093439900000000000000000000Consumidor Final              000000000010000000000000010000000000000000000000000000000000000000000000000000000000000000000000000000000000000000000000PES00010000001N00000000000000020140114
201401040060000600000000000000509344000000000000005093449900000000000000000000Consumidor Final              000000000030000000000000030000000000000000000000000000000000000000000000000000000000000000000000000000000000000000000000PES00010000001N00000000000000020140114
201401040060000600000000000000509345000000000000005093459900000000000000000000Consumidor Final              000000000013000000000000013000000000000000000000000000000000000000000000000000000000000000000000000000000000000000000000PES00010000001N00000000000000020140114
201401040060000600000000000000509349000000000000005093499900000000000000000000Consumidor Final              000000000027000000000000027000000000000000000000000000000000000000000000000000000000000000000000000000000000000000000000PES00010000001N00000000000000020140114
201401040060000600000000000000509350000000000000005093509900000000000000000000Consumidor Final              000000000027000000000000027000000000000000000000000000000000000000000000000000000000000000000000000000000000000000000000PES00010000001N00000000000000020140114
201401040060000600000000000000509351000000000000005093519900000000000000000000Consumidor Final              000000000027000000000000027000000000000000000000000000000000000000000000000000000000000000000000000000000000000000000000PES00010000001N00000000000000020140114
201401050060000700000000000000315178000000000000003151789900000000000000000000Consumidor Final              000000000027000000000000027000000000000000000000000000000000000000000000000000000000000000000000000000000000000000000000PES00010000001N00000000000000020140115
201401050060000800000000000000097881000000000000000978819900000000000000000000Consumidor Final              000000000030000000000000030000000000000000000000000000000000000000000000000000000000000000000000000000000000000000000000PES00010000001N00000000000000020140115
201401050060000700000000000000315196000000000000003151969900000000000000000000Consumidor Final              000000000030000000000000030000000000000000000000000000000000000000000000000000000000000000000000000000000000000000000000PES00010000001N00000000000000020140115
201401050060000300000000000000100214000000000000001002149900000000000000000000Consumidor Final              000000000021500000000000021500000000000000000000000000000000000000000000000000000000000000000000000000000000000000000000PES00010000001N00000000000000020140115
201401050060000300000000000000100215000000000000001002159900000000000000000000Consumidor Final              000000000027000000000000027000000000000000000000000000000000000000000000000000000000000000000000000000000000000000000000PES00010000001N00000000000000020140115
201401050060000700000000000000315197000000000000003151979900000000000000000000Consumidor Final              000000000027000000000000027000000000000000000000000000000000000000000000000000000000000000000000000000000000000000000000PES00010000001N00000000000000020140115
201401050060000700000000000000315198000000000000003151989900000000000000000000Consumidor Final              000000000027000000000000027000000000000000000000000000000000000000000000000000000000000000000000000000000000000000000000PES00010000001N00000000000000020140115
201401050060000700000000000000315205000000000000003152059900000000000000000000Consumidor Final              000000000027000000000000027000000000000000000000000000000000000000000000000000000000000000000000000000000000000000000000PES00010000001N00000000000000020140115
201401050060000700000000000000315206000000000000003152069900000000000000000000Consumidor Final              000000000027000000000000027000000000000000000000000000000000000000000000000000000000000000000000000000000000000000000000PES00010000001N00000000000000020140115
201401050060000700000000000000315207000000000000003152079900000000000000000000Consumidor Final              000000000027000000000000027000000000000000000000000000000000000000000000000000000000000000000000000000000000000000000000PES00010000001N00000000000000020140115
201401050060000700000000000000315208000000000000003152089900000000000000000000Consumidor Final              000000000027000000000000027000000000000000000000000000000000000000000000000000000000000000000000000000000000000000000000PES00010000001N00000000000000020140115
201401050060000700000000000000315209000000000000003152099900000000000000000000Consumidor Final              000000000027000000000000027000000000000000000000000000000000000000000000000000000000000000000000000000000000000000000000PES00010000001N00000000000000020140115
201401050060000700000000000000315210000000000000003152109900000000000000000000Consumidor Final              000000000027000000000000027000000000000000000000000000000000000000000000000000000000000000000000000000000000000000000000PES00010000001N00000000000000020140115
201401050060000300000000000000100216000000000000001002169900000000000000000000Consumidor Final              000000000027000000000000027000000000000000000000000000000000000000000000000000000000000000000000000000000000000000000000PES00010000001N00000000000000020140115
201401050060000300000000000000100217000000000000001002179900000000000000000000Consumidor Final              000000000027000000000000027000000000000000000000000000000000000000000000000000000000000000000000000000000000000000000000PES00010000001N00000000000000020140115
201401050060000300000000000000100218000000000000001002189900000000000000000000Consumidor Final              000000000027000000000000027000000000000000000000000000000000000000000000000000000000000000000000000000000000000000000000PES00010000001N00000000000000020140115
201401050060000300000000000000100219000000000000001002199900000000000000000000Consumidor Final              000000000017000000000000017000000000000000000000000000000000000000000000000000000000000000000000000000000000000000000000PES00010000001N00000000000000020140115
201401050060000300000000000000100220000000000000001002209900000000000000000000Consumidor Final              000000000030000000000000030000000000000000000000000000000000000000000000000000000000000000000000000000000000000000000000PES00010000001N00000000000000020140115
201401050060000300000000000000100221000000000000001002219900000000000000000000Consumidor Final              000000000027000000000000027000000000000000000000000000000000000000000000000000000000000000000000000000000000000000000000PES00010000001N00000000000000020140115
201401050060000300000000000000100233000000000000001002339900000000000000000000Consumidor Final              000000000027000000000000027000000000000000000000000000000000000000000000000000000000000000000000000000000000000000000000PES00010000001N00000000000000020140115
201401050060000300000000000000100234000000000000001002349900000000000000000000Consumidor Final              000000000027000000000000027000000000000000000000000000000000000000000000000000000000000000000000000000000000000000000000PES00010000001N00000000000000020140115
201401050060000300000000000000100235000000000000001002359900000000000000000000Consumidor Final              000000000027000000000000027000000000000000000000000000000000000000000000000000000000000000000000000000000000000000000000PES00010000001N00000000000000020140115
201401050060000300000000000000100236000000000000001002369900000000000000000000Consumidor Final              000000000027000000000000027000000000000000000000000000000000000000000000000000000000000000000000000000000000000000000000PES00010000001N00000000000000020140115
201401050060000700000000000000315211000000000000003152119900000000000000000000Consumidor Final              000000000027000000000000027000000000000000000000000000000000000000000000000000000000000000000000000000000000000000000000PES00010000001N00000000000000020140115
201401050060000700000000000000315212000000000000003152129900000000000000000000Consumidor Final              000000000027000000000000027000000000000000000000000000000000000000000000000000000000000000000000000000000000000000000000PES00010000001N00000000000000020140115
201401050060000700000000000000315213000000000000003152139900000000000000000000Consumidor Final              000000000027000000000000027000000000000000000000000000000000000000000000000000000000000000000000000000000000000000000000PES00010000001N00000000000000020140115
201401010060000700000000000000313841000000000000003138419900000000000000000000Consumidor Final              000000000027000000000000027000000000000000000000000000000000000000000000000000000000000000000000000000000000000000000000PES00010000001N00000000000000020140111
201401010060000700000000000000313842000000000000003138429900000000000000000000Consumidor Final              000000000034000000000000034000000000000000000000000000000000000000000000000000000000000000000000000000000000000000000000PES00010000001N00000000000000020140111
201401010060000700000000000000313843000000000000003138439900000000000000000000Consumidor Final              000000000027000000000000027000000000000000000000000000000000000000000000000000000000000000000000000000000000000000000000PES00010000001N00000000000000020140111
201401010060000700000000000000313844000000000000003138449900000000000000000000Consumidor Final              000000000027000000000000027000000000000000000000000000000000000000000000000000000000000000000000000000000000000000000000PES00010000001N00000000000000020140111
201401010060000700000000000000313839000000000000003138399900000000000000000000Consumidor Final              000000000030000000000000030000000000000000000000000000000000000000000000000000000000000000000000000000000000000000000000PES00010000001N00000000000000020140111
201401010060000700000000000000313840000000000000003138409900000000000000000000Consumidor Final              000000000027000000000000027000000000000000000000000000000000000000000000000000000000000000000000000000000000000000000000PES00010000001N00000000000000020140111
201401010060000700000000000000313845000000000000003138459900000000000000000000Consumidor Final              000000000039000000000000039000000000000000000000000000000000000000000000000000000000000000000000000000000000000000000000PES00010000001N00000000000000020140111
201401010060000700000000000000313849000000000000003138499900000000000000000000Consumidor Final              000000000027000000000000027000000000000000000000000000000000000000000000000000000000000000000000000000000000000000000000PES00010000001N00000000000000020140111
201401010060000700000000000000313850000000000000003138509900000000000000000000Consumidor Final              000000000025000000000000025000000000000000000000000000000000000000000000000000000000000000000000000000000000000000000000PES00010000001N00000000000000020140111
201401010060000700000000000000313851000000000000003138519900000000000000000000Consumidor Final              000000000027000000000000027000000000000000000000000000000000000000000000000000000000000000000000000000000000000000000000PES00010000001N00000000000000020140111
201401010060000700000000000000313852000000000000003138529900000000000000000000Consumidor Final              000000000034000000000000034000000000000000000000000000000000000000000000000000000000000000000000000000000000000000000000PES00010000001N00000000000000020140111
201401010060000700000000000000313853000000000000003138539900000000000000000000Consumidor Final              000000000027000000000000027000000000000000000000000000000000000000000000000000000000000000000000000000000000000000000000PES00010000001N00000000000000020140111
201401010060000700000000000000313856000000000000003138569900000000000000000000Consumidor Final              000000000027000000000000027000000000000000000000000000000000000000000000000000000000000000000000000000000000000000000000PES00010000001N00000000000000020140111
201401010060000700000000000000313857000000000000003138579900000000000000000000Consumidor Final              000000000034000000000000034000000000000000000000000000000000000000000000000000000000000000000000000000000000000000000000PES00010000001N00000000000000020140111
201401010060000600000000000000508913000000000000005089139900000000000000000000Consumidor Final              000000000031000000000000031000000000000000000000000000000000000000000000000000000000000000000000000000000000000000000000PES00010000001N00000000000000020140111
201401010060000600000000000000508923000000000000005089239900000000000000000000Consumidor Final              000000000027000000000000027000000000000000000000000000000000000000000000000000000000000000000000000000000000000000000000PES00010000001N00000000000000020140111
201401010060000600000000000000508924000000000000005089249900000000000000000000Consumidor Final              000000000027000000000000027000000000000000000000000000000000000000000000000000000000000000000000000000000000000000000000PES00010000001N00000000000000020140111
201401010060000600000000000000508925000000000000005089259900000000000000000000Consumidor Final              000000000027000000000000027000000000000000000000000000000000000000000000000000000000000000000000000000000000000000000000PES00010000001N00000000000000020140111
201401010060000600000000000000508926000000000000005089269900000000000000000000Consumidor Final              000000000027000000000000027000000000000000000000000000000000000000000000000000000000000000000000000000000000000000000000PES00010000001N00000000000000020140111
201401010060000800000000000000097579000000000000000975799900000000000000000000Consumidor Final              000000000021500000000000021500000000000000000000000000000000000000000000000000000000000000000000000000000000000000000000PES00010000001N00000000000000020140111
201401010060000800000000000000097580000000000000000975809900000000000000000000Consumidor Final              000000000021500000000000021500000000000000000000000000000000000000000000000000000000000000000000000000000000000000000000PES00010000001N00000000000000020140111
201401010060000800000000000000097581000000000000000975819900000000000000000000Consumidor Final              000000000027000000000000027000000000000000000000000000000000000000000000000000000000000000000000000000000000000000000000PES00010000001N00000000000000020140111
201401010060000800000000000000097582000000000000000975829900000000000000000000Consumidor Final              000000000021500000000000021500000000000000000000000000000000000000000000000000000000000000000000000000000000000000000000PES00010000001N00000000000000020140111
201401010060000600000000000000508944000000000000005089449900000000000000000000Consumidor Final              000000000027000000000000027000000000000000000000000000000000000000000000000000000000000000000000000000000000000000000000PES00010000001N00000000000000020140111
201401010060000600000000000000508945000000000000005089459900000000000000000000Consumidor Final              000000000027000000000000027000000000000000000000000000000000000000000000000000000000000000000000000000000000000000000000PES00010000001N00000000000000020140111
201401010060000600000000000000508946000000000000005089469900000000000000000000Consumidor Final              000000000027000000000000027000000000000000000000000000000000000000000000000000000000000000000000000000000000000000000000PES00010000001N00000000000000020140111
201401010060000600000000000000508928000000000000005089289900000000000000000000Consumidor Final              000000000027000000000000027000000000000000000000000000000000000000000000000000000000000000000000000000000000000000000000PES00010000001N00000000000000020140111
201401010060000600000000000000508929000000000000005089299900000000000000000000Consumidor Final              000000000027000000000000027000000000000000000000000000000000000000000000000000000000000000000000000000000000000000000000PES00010000001N00000000000000020140111
201401010060000600000000000000508930000000000000005089309900000000000000000000Consumidor Final              000000000056800000000000056800000000000000000000000000000000000000000000000000000000000000000000000000000000000000000000PES00010000001N00000000000000020140111
201401010060000600000000000000508931000000000000005089319900000000000000000000Consumidor Final              000000000027000000000000027000000000000000000000000000000000000000000000000000000000000000000000000000000000000000000000PES00010000001N00000000000000020140111
201401010060000600000000000000508932000000000000005089329900000000000000000000Consumidor Final              000000000027000000000000027000000000000000000000000000000000000000000000000000000000000000000000000000000000000000000000PES00010000001N00000000000000020140111
201401010060000600000000000000508933000000000000005089339900000000000000000000Consumidor Final              000000000027000000000000027000000000000000000000000000000000000000000000000000000000000000000000000000000000000000000000PES00010000001N00000000000000020140111
201401010060000600000000000000508934000000000000005089349900000000000000000000Consumidor Final              000000000027000000000000027000000000000000000000000000000000000000000000000000000000000000000000000000000000000000000000PES00010000001N00000000000000020140111
201401010060000600000000000000508935000000000000005089359900000000000000000000Consumidor Final              000000000025000000000000025000000000000000000000000000000000000000000000000000000000000000000000000000000000000000000000PES00010000001N00000000000000020140111
201401010060000600000000000000508936000000000000005089369900000000000000000000Consumidor Final              000000000027000000000000027000000000000000000000000000000000000000000000000000000000000000000000000000000000000000000000PES00010000001N00000000000000020140111
201401010060000600000000000000508939000000000000005089399900000000000000000000Consumidor Final              000000000030000000000000030000000000000000000000000000000000000000000000000000000000000000000000000000000000000000000000PES00010000001N00000000000000020140111
201401010060000600000000000000508940000000000000005089409900000000000000000000Consumidor Final              000000000037000000000000037000000000000000000000000000000000000000000000000000000000000000000000000000000000000000000000PES00010000001N00000000000000020140111
201401010060000600000000000000508941000000000000005089419900000000000000000000Consumidor Final              000000000030000000000000030000000000000000000000000000000000000000000000000000000000000000000000000000000000000000000000PES00010000001N00000000000000020140111
201401010060000600000000000000508942000000000000005089429900000000000000000000Consumidor Final              000000000034000000000000034000000000000000000000000000000000000000000000000000000000000000000000000000000000000000000000PES00010000001N00000000000000020140111
201401010060000600000000000000508953000000000000005089539900000000000000000000Consumidor Final              000000000033000000000000033000000000000000000000000000000000000000000000000000000000000000000000000000000000000000000000PES00010000001N00000000000000020140111
201401010060000700000000000000313897000000000000003138979900000000000000000000Consumidor Final              000000000027000000000000027000000000000000000000000000000000000000000000000000000000000000000000000000000000000000000000PES00010000001N00000000000000020140111
201401020060000700000000000000313925000000000000003139259900000000000000000000Consumidor Final              000000000021500000000000021500000000000000000000000000000000000000000000000000000000000000000000000000000000000000000000PES00010000001N00000000000000020140112
201401020060000700000000000000313926000000000000003139269900000000000000000000Consumidor Final              000000000021500000000000021500000000000000000000000000000000000000000000000000000000000000000000000000000000000000000000PES00010000001N00000000000000020140112
201401020060000700000000000000313938000000000000003139389900000000000000000000Consumidor Final              000000000027000000000000027000000000000000000000000000000000000000000000000000000000000000000000000000000000000000000000PES00010000001N00000000000000020140112
201401020060000700000000000000313939000000000000003139399900000000000000000000Consumidor Final              000000000027000000000000027000000000000000000000000000000000000000000000000000000000000000000000000000000000000000000000PES00010000001N00000000000000020140112
201401020060000700000000000000313940000000000000003139409900000000000000000000Consumidor Final              000000000034000000000000034000000000000000000000000000000000000000000000000000000000000000000000000000000000000000000000PES00010000001N00000000000000020140112
201401020060000700000000000000313941000000000000003139419900000000000000000000Consumidor Final              000000000050000000000000050000000000000000000000000000000000000000000000000000000000000000000000000000000000000000000000PES00010000001N00000000000000020140112
201401020060000700000000000000313942000000000000003139429900000000000000000000Consumidor Final              000000000027000000000000027000000000000000000000000000000000000000000000000000000000000000000000000000000000000000000000PES00010000001N00000000000000020140112
201401020060000700000000000000313952000000000000003139529900000000000000000000Consumidor Final              000000000016000000000000016000000000000000000000000000000000000000000000000000000000000000000000000000000000000000000000PES00010000001N00000000000000020140112
201401020060000700000000000000313953000000000000003139539900000000000000000000Consumidor Final              000000000027000000000000027000000000000000000000000000000000000000000000000000000000000000000000000000000000000000000000PES00010000001N00000000000000020140112
201401020060000700000000000000313954000000000000003139549900000000000000000000Consumidor Final              000000000027000000000000027000000000000000000000000000000000000000000000000000000000000000000000000000000000000000000000PES00010000001N00000000000000020140112
201401020060000700000000000000313963000000000000003139639900000000000000000000Consumidor Final              000000000027000000000000027000000000000000000000000000000000000000000000000000000000000000000000000000000000000000000000PES00010000001N00000000000000020140112
201401020060000700000000000000313964000000000000003139649900000000000000000000Consumidor Final              000000000027000000000000027000000000000000000000000000000000000000000000000000000000000000000000000000000000000000000000PES00010000001N00000000000000020140112
201401020060000700000000000000313965000000000000003139659900000000000000000000Consumidor Final              000000000027000000000000027000000000000000000000000000000000000000000000000000000000000000000000000000000000000000000000PES00010000001N00000000000000020140112
201401020060000800000000000000097619000000000000000976199900000000000000000000Consumidor Final              000000000021500000000000021500000000000000000000000000000000000000000000000000000000000000000000000000000000000000000000PES00010000001N00000000000000020140112
201401020060000700000000000000313983000000000000003139839900000000000000000000Consumidor Final              000000000027000000000000027000000000000000000000000000000000000000000000000000000000000000000000000000000000000000000000PES00010000001N00000000000000020140112
201401020060000700000000000000313984000000000000003139849900000000000000000000Consumidor Final              000000000027000000000000027000000000000000000000000000000000000000000000000000000000000000000000000000000000000000000000PES00010000001N00000000000000020140112
201401020060000700000000000000313985000000000000003139859900000000000000000000Consumidor Final              000000000027000000000000027000000000000000000000000000000000000000000000000000000000000000000000000000000000000000000000PES00010000001N00000000000000020140112
201401020060000700000000000000313986000000000000003139869900000000000000000000Consumidor Final              000000000027000000000000027000000000000000000000000000000000000000000000000000000000000000000000000000000000000000000000PES00010000001N00000000000000020140112
201401020060000700000000000000313987000000000000003139879900000000000000000000Consumidor Final              000000000027000000000000027000000000000000000000000000000000000000000000000000000000000000000000000000000000000000000000PES00010000001N00000000000000020140112
201401020060000700000000000000313988000000000000003139889900000000000000000000Consumidor Final              000000000027000000000000027000000000000000000000000000000000000000000000000000000000000000000000000000000000000000000000PES00010000001N00000000000000020140112
201401020060000700000000000000313989000000000000003139899900000000000000000000Consumidor Final              000000000027000000000000027000000000000000000000000000000000000000000000000000000000000000000000000000000000000000000000PES00010000001N00000000000000020140112
201401020060000700000000000000313990000000000000003139909900000000000000000000Consumidor Final              000000000027000000000000027000000000000000000000000000000000000000000000000000000000000000000000000000000000000000000000PES00010000001N00000000000000020140112
201401020060000700000000000000313991000000000000003139919900000000000000000000Consumidor Final              000000000030000000000000030000000000000000000000000000000000000000000000000000000000000000000000000000000000000000000000PES00010000001N00000000000000020140112
201401020060000700000000000000313992000000000000003139929900000000000000000000Consumidor Final              000000000027000000000000027000000000000000000000000000000000000000000000000000000000000000000000000000000000000000000000PES00010000001N00000000000000020140112
201401020060000800000000000000097620000000000000000976209900000000000000000000Consumidor Final              000000000028500000000000028500000000000000000000000000000000000000000000000000000000000000000000000000000000000000000000PES00010000001N00000000000000020140112
201401020060000700000000000000313996000000000000003139969900000000000000000000Consumidor Final              000000000027000000000000027000000000000000000000000000000000000000000000000000000000000000000000000000000000000000000000PES00010000001N00000000000000020140112
201401020060000700000000000000313997000000000000003139979900000000000000000000Consumidor Final              000000000027000000000000027000000000000000000000000000000000000000000000000000000000000000000000000000000000000000000000PES00010000001N00000000000000020140112
201401020060000700000000000000314056000000000000003140569900000000000000000000Consumidor Final              000000000027000000000000027000000000000000000000000000000000000000000000000000000000000000000000000000000000000000000000PES00010000001N00000000000000020140112
201401020060000700000000000000314057000000000000003140579900000000000000000000Consumidor Final              000000000027000000000000027000000000000000000000000000000000000000000000000000000000000000000000000000000000000000000000PES00010000001N00000000000000020140112
201401020060000700000000000000314058000000000000003140589900000000000000000000Consumidor Final              000000000030000000000000030000000000000000000000000000000000000000000000000000000000000000000000000000000000000000000000PES00010000001N00000000000000020140112
201401020060000700000000000000314059000000000000003140599900000000000000000000Consumidor Final              000000000027000000000000027000000000000000000000000000000000000000000000000000000000000000000000000000000000000000000000PES00010000001N00000000000000020140112
201401020060000700000000000000314060000000000000003140609900000000000000000000Consumidor Final              000000000027000000000000027000000000000000000000000000000000000000000000000000000000000000000000000000000000000000000000PES00010000001N00000000000000020140112
201401020060000700000000000000314061000000000000003140619900000000000000000000Consumidor Final              000000000027000000000000027000000000000000000000000000000000000000000000000000000000000000000000000000000000000000000000PES00010000001N00000000000000020140112
201401020060000700000000000000314062000000000000003140628000000000000000000000Consumidor Final              000000000200000000000000200000000000000000000000000000000000000000000000000000000000000000000000000000000000000000000000PES00010000001N00000000000000020140112
201401020060000700000000000000314066000000000000003140669900000000000000000000Consumidor Final              000000000027000000000000027000000000000000000000000000000000000000000000000000000000000000000000000000000000000000000000PES00010000001N00000000000000020140112
201401020060000700000000000000314067000000000000003140679900000000000000000000Consumidor Final              000000000027000000000000027000000000000000000000000000000000000000000000000000000000000000000000000000000000000000000000PES00010000001N00000000000000020140112
201401020060000700000000000000314068000000000000003140689900000000000000000000Consumidor Final              000000000027000000000000027000000000000000000000000000000000000000000000000000000000000000000000000000000000000000000000PES00010000001N00000000000000020140112
201401020060000700000000000000314069000000000000003140699900000000000000000000Consumidor Final              000000000027000000000000027000000000000000000000000000000000000000000000000000000000000000000000000000000000000000000000PES00010000001N00000000000000020140112
201401020060000700000000000000314070000000000000003140709900000000000000000000Consumidor Final              000000000027000000000000027000000000000000000000000000000000000000000000000000000000000000000000000000000000000000000000PES00010000001N00000000000000020140112
201401020060000700000000000000314071000000000000003140719900000000000000000000Consumidor Final              000000000027000000000000027000000000000000000000000000000000000000000000000000000000000000000000000000000000000000000000PES00010000001N00000000000000020140112
201401020060000700000000000000314072000000000000003140729900000000000000000000Consumidor Final              000000000042000000000000042000000000000000000000000000000000000000000000000000000000000000000000000000000000000000000000PES00010000001N00000000000000020140112
201401020060000600000000000000509092000000000000005090929900000000000000000000Consumidor Final              000000000030000000000000030000000000000000000000000000000000000000000000000000000000000000000000000000000000000000000000PES00010000001N00000000000000020140112
201401020060000800000000000000097639000000000000000976399900000000000000000000Consumidor Final              000000000021500000000000021500000000000000000000000000000000000000000000000000000000000000000000000000000000000000000000PES00010000001N00000000000000020140112
201401020060000600000000000000509093000000000000005090939900000000000000000000Consumidor Final              000000000034000000000000034000000000000000000000000000000000000000000000000000000000000000000000000000000000000000000000PES00010000001N00000000000000020140112
201401020060000600000000000000509094000000000000005090949900000000000000000000Consumidor Final              000000000027000000000000027000000000000000000000000000000000000000000000000000000000000000000000000000000000000000000000PES00010000001N00000000000000020140112
201401020060000800000000000000097640000000000000000976409900000000000000000000Consumidor Final              000000000021500000000000021500000000000000000000000000000000000000000000000000000000000000000000000000000000000000000000PES00010000001N00000000000000020140112
201401020060000800000000000000097641000000000000000976419900000000000000000000Consumidor Final              000000000021500000000000021500000000000000000000000000000000000000000000000000000000000000000000000000000000000000000000PES00010000001N00000000000000020140112
201401020060000800000000000000097642000000000000000976429900000000000000000000Consumidor Final              000000000021500000000000021500000000000000000000000000000000000000000000000000000000000000000000000000000000000000000000PES00010000001N00000000000000020140112
201401020060000800000000000000097643000000000000000976439900000000000000000000Consumidor Final              000000000021500000000000021500000000000000000000000000000000000000000000000000000000000000000000000000000000000000000000PES00010000001N00000000000000020140112
201401020060000600000000000000509095000000000000005090959900000000000000000000Consumidor Final              000000000025000000000000025000000000000000000000000000000000000000000000000000000000000000000000000000000000000000000000PES00010000001N00000000000000020140112
201401020060000700000000000000314139000000000000003141399900000000000000000000Consumidor Final              000000000027000000000000027000000000000000000000000000000000000000000000000000000000000000000000000000000000000000000000PES00010000001N00000000000000020140112
201401020060000700000000000000314140000000000000003141409900000000000000000000Consumidor Final              000000000027000000000000027000000000000000000000000000000000000000000000000000000000000000000000000000000000000000000000PES00010000001N00000000000000020140112
201401020060000700000000000000314141000000000000003141419900000000000000000000Consumidor Final              000000000027000000000000027000000000000000000000000000000000000000000000000000000000000000000000000000000000000000000000PES00010000001N00000000000000020140112
201401020060000700000000000000314142000000000000003141429900000000000000000000Consumidor Final              000000000027000000000000027000000000000000000000000000000000000000000000000000000000000000000000000000000000000000000000PES00010000001N00000000000000020140112
201401020060000600000000000000509099000000000000005090999900000000000000000000Consumidor Final              000000000027000000000000027000000000000000000000000000000000000000000000000000000000000000000000000000000000000000000000PES00010000001N00000000000000020140112
201401010060000600000000000000508836000000000000005088369900000000000000000000Consumidor Final              000000000027000000000000027000000000000000000000000000000000000000000000000000000000000000000000000000000000000000000000PES00010000001N00000000000000020140111
201401010060000600000000000000508838000000000000005088389900000000000000000000Consumidor Final              000000000027000000000000027000000000000000000000000000000000000000000000000000000000000000000000000000000000000000000000PES00010000001N00000000000000020140111
201401010060000600000000000000508839000000000000005088399900000000000000000000Consumidor Final              000000000027000000000000027000000000000000000000000000000000000000000000000000000000000000000000000000000000000000000000PES00010000001N00000000000000020140111
201401010060000600000000000000508840000000000000005088409900000000000000000000Consumidor Final              000000000027000000000000027000000000000000000000000000000000000000000000000000000000000000000000000000000000000000000000PES00010000001N00000000000000020140111
201401010060000600000000000000508853000000000000005088539900000000000000000000Consumidor Final              000000000027000000000000027000000000000000000000000000000000000000000000000000000000000000000000000000000000000000000000PES00010000001N00000000000000020140111
201401010060000600000000000000508854000000000000005088549900000000000000000000Consumidor Final              000000000027000000000000027000000000000000000000000000000000000000000000000000000000000000000000000000000000000000000000PES00010000001N00000000000000020140111
201401010060000600000000000000508855000000000000005088559900000000000000000000Consumidor Final              000000000027000000000000027000000000000000000000000000000000000000000000000000000000000000000000000000000000000000000000PES00010000001N00000000000000020140111
201401010060000600000000000000508856000000000000005088569900000000000000000000Consumidor Final              000000000027000000000000027000000000000000000000000000000000000000000000000000000000000000000000000000000000000000000000PES00010000001N00000000000000020140111
201401010060000600000000000000508865000000000000005088659900000000000000000000Consumidor Final              000000000027000000000000027000000000000000000000000000000000000000000000000000000000000000000000000000000000000000000000PES00010000001N00000000000000020140111
201401010060000600000000000000508866000000000000005088669900000000000000000000Consumidor Final              000000000027000000000000027000000000000000000000000000000000000000000000000000000000000000000000000000000000000000000000PES00010000001N00000000000000020140111
201401010060000600000000000000508870000000000000005088709900000000000000000000Consumidor Final              000000000027000000000000027000000000000000000000000000000000000000000000000000000000000000000000000000000000000000000000PES00010000001N00000000000000020140111
201401010060000700000000000000313846000000000000003138469900000000000000000000Consumidor Final              000000000021500000000000021500000000000000000000000000000000000000000000000000000000000000000000000000000000000000000000PES00010000001N00000000000000020140111
201401010060000700000000000000313847000000000000003138479900000000000000000000Consumidor Final              000000000027000000000000027000000000000000000000000000000000000000000000000000000000000000000000000000000000000000000000PES00010000001N00000000000000020140111
201401010060000600000000000000508832000000000000005088329900000000000000000000Consumidor Final              000000000027000000000000027000000000000000000000000000000000000000000000000000000000000000000000000000000000000000000000PES00010000001N00000000000000020140111
201401010060000600000000000000508833000000000000005088339900000000000000000000Consumidor Final              000000000027000000000000027000000000000000000000000000000000000000000000000000000000000000000000000000000000000000000000PES00010000001N00000000000000020140111
201401010060000600000000000000508834000000000000005088349900000000000000000000Consumidor Final              000000000029000000000000029000000000000000000000000000000000000000000000000000000000000000000000000000000000000000000000PES00010000001N00000000000000020140111
201401010060000600000000000000508835000000000000005088359900000000000000000000Consumidor Final              000000000025000000000000025000000000000000000000000000000000000000000000000000000000000000000000000000000000000000000000PES00010000001N00000000000000020140111
201401010060000600000000000000508837000000000000005088379900000000000000000000Consumidor Final              000000000027000000000000027000000000000000000000000000000000000000000000000000000000000000000000000000000000000000000000PES00010000001N00000000000000020140111
201401010060000600000000000000508871000000000000005088719900000000000000000000Consumidor Final              000000000027000000000000027000000000000000000000000000000000000000000000000000000000000000000000000000000000000000000000PES00010000001N00000000000000020140111
201401010060000600000000000000508872000000000000005088729900000000000000000000Consumidor Final              000000000027000000000000027000000000000000000000000000000000000000000000000000000000000000000000000000000000000000000000PES00010000001N00000000000000020140111
201401010060000600000000000000508873000000000000005088739900000000000000000000Consumidor Final              000000000027000000000000027000000000000000000000000000000000000000000000000000000000000000000000000000000000000000000000PES00010000001N00000000000000020140111
201401010060000600000000000000508874000000000000005088749900000000000000000000Consumidor Final              000000000030000000000000030000000000000000000000000000000000000000000000000000000000000000000000000000000000000000000000PES00010000001N00000000000000020140111
201401010060000600000000000000508875000000000000005088759900000000000000000000Consumidor Final              000000000027000000000000027000000000000000000000000000000000000000000000000000000000000000000000000000000000000000000000PES00010000001N00000000000000020140111
201401010060000600000000000000508876000000000000005088769900000000000000000000Consumidor Final              000000000027000000000000027000000000000000000000000000000000000000000000000000000000000000000000000000000000000000000000PES00010000001N00000000000000020140111
201401010060000600000000000000508877000000000000005088779900000000000000000000Consumidor Final              000000000027000000000000027000000000000000000000000000000000000000000000000000000000000000000000000000000000000000000000PES00010000001N00000000000000020140111
201401010060000600000000000000508878000000000000005088789900000000000000000000Consumidor Final              000000000027000000000000027000000000000000000000000000000000000000000000000000000000000000000000000000000000000000000000PES00010000001N00000000000000020140111
201401010060000600000000000000508879000000000000005088799900000000000000000000Consumidor Final              000000000049000000000000049000000000000000000000000000000000000000000000000000000000000000000000000000000000000000000000PES00010000001N00000000000000020140111
201401010060000600000000000000508880000000000000005088809900000000000000000000Consumidor Final              000000000027000000000000027000000000000000000000000000000000000000000000000000000000000000000000000000000000000000000000PES00010000001N00000000000000020140111
201401010060000600000000000000508881000000000000005088819900000000000000000000Consumidor Final              000000000027000000000000027000000000000000000000000000000000000000000000000000000000000000000000000000000000000000000000PES00010000001N00000000000000020140111
201401010060000600000000000000508882000000000000005088829900000000000000000000Consumidor Final              000000000027000000000000027000000000000000000000000000000000000000000000000000000000000000000000000000000000000000000000PES00010000001N00000000000000020140111
201401010060000600000000000000508841000000000000005088419900000000000000000000Consumidor Final              000000000027000000000000027000000000000000000000000000000000000000000000000000000000000000000000000000000000000000000000PES00010000001N00000000000000020140111
201401010060000600000000000000508842000000000000005088429900000000000000000000Consumidor Final              000000000027000000000000027000000000000000000000000000000000000000000000000000000000000000000000000000000000000000000000PES00010000001N00000000000000020140111
201401010060000600000000000000508843000000000000005088439900000000000000000000Consumidor Final              000000000027000000000000027000000000000000000000000000000000000000000000000000000000000000000000000000000000000000000000PES00010000001N00000000000000020140111
201401010060000600000000000000508844000000000000005088449900000000000000000000Consumidor Final              000000000027000000000000027000000000000000000000000000000000000000000000000000000000000000000000000000000000000000000000PES00010000001N00000000000000020140111
201401010060000600000000000000508845000000000000005088459900000000000000000000Consumidor Final              000000000027000000000000027000000000000000000000000000000000000000000000000000000000000000000000000000000000000000000000PES00010000001N00000000000000020140111
201401010060000600000000000000508846000000000000005088469900000000000000000000Consumidor Final              000000000027000000000000027000000000000000000000000000000000000000000000000000000000000000000000000000000000000000000000PES00010000001N00000000000000020140111
201401010060000600000000000000508847000000000000005088479900000000000000000000Consumidor Final              000000000027000000000000027000000000000000000000000000000000000000000000000000000000000000000000000000000000000000000000PES00010000001N00000000000000020140111
201401010060000600000000000000508848000000000000005088489900000000000000000000Consumidor Final              000000000027000000000000027000000000000000000000000000000000000000000000000000000000000000000000000000000000000000000000PES00010000001N00000000000000020140111
201401010060000600000000000000508849000000000000005088499900000000000000000000Consumidor Final              000000000027000000000000027000000000000000000000000000000000000000000000000000000000000000000000000000000000000000000000PES00010000001N00000000000000020140111
201401010060000600000000000000508850000000000000005088509900000000000000000000Consumidor Final              000000000027000000000000027000000000000000000000000000000000000000000000000000000000000000000000000000000000000000000000PES00010000001N00000000000000020140111
201401010060000700000000000000313848000000000000003138489900000000000000000000Consumidor Final              000000000027000000000000027000000000000000000000000000000000000000000000000000000000000000000000000000000000000000000000PES00010000001N00000000000000020140111
201401010060000600000000000000508851000000000000005088519900000000000000000000Consumidor Final              000000000034000000000000034000000000000000000000000000000000000000000000000000000000000000000000000000000000000000000000PES00010000001N00000000000000020140111
201401010060000600000000000000508852000000000000005088529900000000000000000000Consumidor Final              000000000027000000000000027000000000000000000000000000000000000000000000000000000000000000000000000000000000000000000000PES00010000001N00000000000000020140111
201401010060000800000000000000097565000000000000000975659900000000000000000000Consumidor Final              000000000021500000000000021500000000000000000000000000000000000000000000000000000000000000000000000000000000000000000000PES00010000001N00000000000000020140111
201401010060000600000000000000508857000000000000005088579900000000000000000000Consumidor Final              000000000027000000000000027000000000000000000000000000000000000000000000000000000000000000000000000000000000000000000000PES00010000001N00000000000000020140111
201401010060000600000000000000508858000000000000005088589900000000000000000000Consumidor Final              000000000027000000000000027000000000000000000000000000000000000000000000000000000000000000000000000000000000000000000000PES00010000001N00000000000000020140111
201401010060000600000000000000508859000000000000005088599900000000000000000000Consumidor Final              000000000027000000000000027000000000000000000000000000000000000000000000000000000000000000000000000000000000000000000000PES00010000001N00000000000000020140111
201401010060000600000000000000508860000000000000005088609900000000000000000000Consumidor Final              000000000027000000000000027000000000000000000000000000000000000000000000000000000000000000000000000000000000000000000000PES00010000001N00000000000000020140111
201401010060000600000000000000508861000000000000005088619900000000000000000000Consumidor Final              000000000027000000000000027000000000000000000000000000000000000000000000000000000000000000000000000000000000000000000000PES00010000001N00000000000000020140111
201401010060000600000000000000508862000000000000005088629900000000000000000000Consumidor Final              000000000030000000000000030000000000000000000000000000000000000000000000000000000000000000000000000000000000000000000000PES00010000001N00000000000000020140111
201401010060000600000000000000508863000000000000005088639900000000000000000000Consumidor Final              000000000027000000000000027000000000000000000000000000000000000000000000000000000000000000000000000000000000000000000000PES00010000001N00000000000000020140111
201401010060000600000000000000508864000000000000005088649900000000000000000000Consumidor Final              000000000027000000000000027000000000000000000000000000000000000000000000000000000000000000000000000000000000000000000000PES00010000001N00000000000000020140111
201401010060000600000000000000508868000000000000005088689900000000000000000000Consumidor Final              000000000027000000000000027000000000000000000000000000000000000000000000000000000000000000000000000000000000000000000000PES00010000001N00000000000000020140111
201401010060000600000000000000508869000000000000005088699900000000000000000000Consumidor Final              000000000027000000000000027000000000000000000000000000000000000000000000000000000000000000000000000000000000000000000000PES00010000001N00000000000000020140111
201401010060000700000000000000313854000000000000003138549900000000000000000000Consumidor Final              000000000027000000000000027000000000000000000000000000000000000000000000000000000000000000000000000000000000000000000000PES00010000001N00000000000000020140111
201401010060000800000000000000097569000000000000000975699900000000000000000000Consumidor Final              000000000032000000000000032000000000000000000000000000000000000000000000000000000000000000000000000000000000000000000000PES00010000001N00000000000000020140111
201401010060000600000000000000508883000000000000005088839900000000000000000000Consumidor Final              000000000027000000000000027000000000000000000000000000000000000000000000000000000000000000000000000000000000000000000000PES00010000001N00000000000000020140111
201401010060000800000000000000097570000000000000000975709900000000000000000000Consumidor Final              000000000021500000000000021500000000000000000000000000000000000000000000000000000000000000000000000000000000000000000000PES00010000001N00000000000000020140111
201401010060000800000000000000097571000000000000000975719900000000000000000000Consumidor Final              000000000021500000000000021500000000000000000000000000000000000000000000000000000000000000000000000000000000000000000000PES00010000001N00000000000000020140111
201401010060000800000000000000097572000000000000000975729900000000000000000000Consumidor Final              000000000021500000000000021500000000000000000000000000000000000000000000000000000000000000000000000000000000000000000000PES00010000001N00000000000000020140111
201401010060000600000000000000508884000000000000005088849900000000000000000000Consumidor Final              000000000027000000000000027000000000000000000000000000000000000000000000000000000000000000000000000000000000000000000000PES00010000001N00000000000000020140111
201401010060000600000000000000508885000000000000005088859900000000000000000000Consumidor Final              000000000034000000000000034000000000000000000000000000000000000000000000000000000000000000000000000000000000000000000000PES00010000001N00000000000000020140111
201401010060000600000000000000508886000000000000005088869900000000000000000000Consumidor Final              000000000027000000000000027000000000000000000000000000000000000000000000000000000000000000000000000000000000000000000000PES00010000001N00000000000000020140111
201401010060000600000000000000508887000000000000005088879900000000000000000000Consumidor Final              000000000027000000000000027000000000000000000000000000000000000000000000000000000000000000000000000000000000000000000000PES00010000001N00000000000000020140111
201401010060000600000000000000508888000000000000005088889900000000000000000000Consumidor Final              000000000027000000000000027000000000000000000000000000000000000000000000000000000000000000000000000000000000000000000000PES00010000001N00000000000000020140111
201401010060000600000000000000508889000000000000005088899900000000000000000000Consumidor Final              000000000027000000000000027000000000000000000000000000000000000000000000000000000000000000000000000000000000000000000000PES00010000001N00000000000000020140111
201401010060000600000000000000508890000000000000005088909900000000000000000000Consumidor Final              000000000015000000000000015000000000000000000000000000000000000000000000000000000000000000000000000000000000000000000000PES00010000001N00000000000000020140111
201401010060000600000000000000508891000000000000005088919900000000000000000000Consumidor Final              000000000049000000000000049000000000000000000000000000000000000000000000000000000000000000000000000000000000000000000000PES00010000001N00000000000000020140111
201401010060000700000000000000313855000000000000003138559900000000000000000000Consumidor Final              000000000027000000000000027000000000000000000000000000000000000000000000000000000000000000000000000000000000000000000000PES00010000001N00000000000000020140111
201401010060000600000000000000508892000000000000005088929900000000000000000000Consumidor Final              000000000027000000000000027000000000000000000000000000000000000000000000000000000000000000000000000000000000000000000000PES00010000001N00000000000000020140111
201401010060000600000000000000508893000000000000005088939900000000000000000000Consumidor Final              000000000049000000000000049000000000000000000000000000000000000000000000000000000000000000000000000000000000000000000000PES00010000001N00000000000000020140111
201401010060000600000000000000508894000000000000005088949900000000000000000000Consumidor Final              000000000027000000000000027000000000000000000000000000000000000000000000000000000000000000000000000000000000000000000000PES00010000001N00000000000000020140111
201401010060000600000000000000508901000000000000005089019900000000000000000000Consumidor Final              000000000027000000000000027000000000000000000000000000000000000000000000000000000000000000000000000000000000000000000000PES00010000001N00000000000000020140111
201401010060000600000000000000508904000000000000005089049900000000000000000000Consumidor Final              000000000030000000000000030000000000000000000000000000000000000000000000000000000000000000000000000000000000000000000000PES00010000001N00000000000000020140111
201401010060000600000000000000508905000000000000005089059900000000000000000000Consumidor Final              000000000055000000000000055000000000000000000000000000000000000000000000000000000000000000000000000000000000000000000000PES00010000001N00000000000000020140111
201401010060000600000000000000508906000000000000005089069900000000000000000000Consumidor Final              000000000027000000000000027000000000000000000000000000000000000000000000000000000000000000000000000000000000000000000000PES00010000001N00000000000000020140111
201401010060000600000000000000508907000000000000005089079900000000000000000000Consumidor Final              000000000030000000000000030000000000000000000000000000000000000000000000000000000000000000000000000000000000000000000000PES00010000001N00000000000000020140111
201401010060000600000000000000508908000000000000005089089900000000000000000000Consumidor Final              000000000027000000000000027000000000000000000000000000000000000000000000000000000000000000000000000000000000000000000000PES00010000001N00000000000000020140111
201401010060000600000000000000508909000000000000005089099900000000000000000000Consumidor Final              000000000027000000000000027000000000000000000000000000000000000000000000000000000000000000000000000000000000000000000000PES00010000001N00000000000000020140111
201401010060000600000000000000508910000000000000005089109900000000000000000000Consumidor Final              000000000027000000000000027000000000000000000000000000000000000000000000000000000000000000000000000000000000000000000000PES00010000001N00000000000000020140111
201401010060000600000000000000508911000000000000005089119900000000000000000000Consumidor Final              000000000027000000000000027000000000000000000000000000000000000000000000000000000000000000000000000000000000000000000000PES00010000001N00000000000000020140111
201401010060000600000000000000508912000000000000005089129900000000000000000000Consumidor Final              000000000027000000000000027000000000000000000000000000000000000000000000000000000000000000000000000000000000000000000000PES00010000001N00000000000000020140111
201401010060000800000000000000097566000000000000000975669900000000000000000000Consumidor Final              000000000021500000000000021500000000000000000000000000000000000000000000000000000000000000000000000000000000000000000000PES00010000001N00000000000000020140111
201401010060000600000000000000508867000000000000005088679900000000000000000000Consumidor Final              000000000027000000000000027000000000000000000000000000000000000000000000000000000000000000000000000000000000000000000000PES00010000001N00000000000000020140111
201401010060000800000000000000097567000000000000000975679900000000000000000000Consumidor Final              000000000021500000000000021500000000000000000000000000000000000000000000000000000000000000000000000000000000000000000000PES00010000001N00000000000000020140111
201401010060000800000000000000097568000000000000000975689900000000000000000000Consumidor Final              000000000021500000000000021500000000000000000000000000000000000000000000000000000000000000000000000000000000000000000000PES00010000001N00000000000000020140111
201401010060000600000000000000508895000000000000005088959900000000000000000000Consumidor Final              000000000034000000000000034000000000000000000000000000000000000000000000000000000000000000000000000000000000000000000000PES00010000001N00000000000000020140111
201401010060000600000000000000508896000000000000005088969900000000000000000000Consumidor Final              000000000027000000000000027000000000000000000000000000000000000000000000000000000000000000000000000000000000000000000000PES00010000001N00000000000000020140111
201401010060000600000000000000508897000000000000005088979900000000000000000000Consumidor Final              000000000027000000000000027000000000000000000000000000000000000000000000000000000000000000000000000000000000000000000000PES00010000001N00000000000000020140111
201401010060000600000000000000508898000000000000005088989900000000000000000000Consumidor Final              000000000027000000000000027000000000000000000000000000000000000000000000000000000000000000000000000000000000000000000000PES00010000001N00000000000000020140111
201401010060000600000000000000508899000000000000005088999900000000000000000000Consumidor Final              000000000027000000000000027000000000000000000000000000000000000000000000000000000000000000000000000000000000000000000000PES00010000001N00000000000000020140111
201401010060000600000000000000508900000000000000005089009900000000000000000000Consumidor Final              000000000027000000000000027000000000000000000000000000000000000000000000000000000000000000000000000000000000000000000000PES00010000001N00000000000000020140111
201401010060000600000000000000508902000000000000005089029900000000000000000000Consumidor Final              000000000027000000000000027000000000000000000000000000000000000000000000000000000000000000000000000000000000000000000000PES00010000001N00000000000000020140111
201401010060000600000000000000508903000000000000005089039900000000000000000000Consumidor Final              000000000055000000000000055000000000000000000000000000000000000000000000000000000000000000000000000000000000000000000000PES00010000001N00000000000000020140111
201401010060000800000000000000097573000000000000000975739900000000000000000000Consumidor Final              000000000021500000000000021500000000000000000000000000000000000000000000000000000000000000000000000000000000000000000000PES00010000001N00000000000000020140111
201401010060000800000000000000097574000000000000000975749900000000000000000000Consumidor Final              000000000028500000000000028500000000000000000000000000000000000000000000000000000000000000000000000000000000000000000000PES00010000001N00000000000000020140111
201401010060000800000000000000097575000000000000000975759900000000000000000000Consumidor Final              000000000021500000000000021500000000000000000000000000000000000000000000000000000000000000000000000000000000000000000000PES00010000001N00000000000000020140111
201401010060000600000000000000508947000000000000005089479900000000000000000000Consumidor Final              000000000027000000000000027000000000000000000000000000000000000000000000000000000000000000000000000000000000000000000000PES00010000001N00000000000000020140111
201401010060000600000000000000508949000000000000005089499900000000000000000000Consumidor Final              000000000027000000000000027000000000000000000000000000000000000000000000000000000000000000000000000000000000000000000000PES00010000001N00000000000000020140111
201401010060000600000000000000508950000000000000005089509900000000000000000000Consumidor Final              000000000027000000000000027000000000000000000000000000000000000000000000000000000000000000000000000000000000000000000000PES00010000001N00000000000000020140111
201401010060000600000000000000508951000000000000005089519900000000000000000000Consumidor Final              000000000027000000000000027000000000000000000000000000000000000000000000000000000000000000000000000000000000000000000000PES00010000001N00000000000000020140111
201401010060000600000000000000508952000000000000005089529900000000000000000000Consumidor Final              000000000027000000000000027000000000000000000000000000000000000000000000000000000000000000000000000000000000000000000000PES00010000001N00000000000000020140111
201401010060000600000000000000508959000000000000005089599900000000000000000000Consumidor Final              000000000027000000000000027000000000000000000000000000000000000000000000000000000000000000000000000000000000000000000000PES00010000001N00000000000000020140111
201401010060000600000000000000508960000000000000005089609900000000000000000000Consumidor Final              000000000027000000000000027000000000000000000000000000000000000000000000000000000000000000000000000000000000000000000000PES00010000001N00000000000000020140111
201401010060000600000000000000508967000000000000005089679900000000000000000000Consumidor Final              000000000027000000000000027000000000000000000000000000000000000000000000000000000000000000000000000000000000000000000000PES00010000001N00000000000000020140111
201401010060000600000000000000508968000000000000005089689900000000000000000000Consumidor Final              000000000027000000000000027000000000000000000000000000000000000000000000000000000000000000000000000000000000000000000000PES00010000001N00000000000000020140111
201401010060000600000000000000508969000000000000005089699900000000000000000000Consumidor Final              000000000027000000000000027000000000000000000000000000000000000000000000000000000000000000000000000000000000000000000000PES00010000001N00000000000000020140111
201401010060000600000000000000508970000000000000005089709900000000000000000000Consumidor Final              000000000034000000000000034000000000000000000000000000000000000000000000000000000000000000000000000000000000000000000000PES00010000001N00000000000000020140111
201401010060000600000000000000508971000000000000005089719900000000000000000000Consumidor Final              000000000027000000000000027000000000000000000000000000000000000000000000000000000000000000000000000000000000000000000000PES00010000001N00000000000000020140111
201401010060000600000000000000508972000000000000005089729900000000000000000000Consumidor Final              000000000027000000000000027000000000000000000000000000000000000000000000000000000000000000000000000000000000000000000000PES00010000001N00000000000000020140111
201401010060000800000000000000097576000000000000000975769900000000000000000000Consumidor Final              000000000021500000000000021500000000000000000000000000000000000000000000000000000000000000000000000000000000000000000000PES00010000001N00000000000000020140111
201401010060000600000000000000508973000000000000005089739900000000000000000000Consumidor Final              000000000027000000000000027000000000000000000000000000000000000000000000000000000000000000000000000000000000000000000000PES00010000001N00000000000000020140111
201401010060000600000000000000508974000000000000005089749900000000000000000000Consumidor Final              000000000027000000000000027000000000000000000000000000000000000000000000000000000000000000000000000000000000000000000000PES00010000001N00000000000000020140111
201401010060000600000000000000508993000000000000005089939900000000000000000000Consumidor Final              000000000027000000000000027000000000000000000000000000000000000000000000000000000000000000000000000000000000000000000000PES00010000001N00000000000000020140111
201401010060000600000000000000508994000000000000005089949900000000000000000000Consumidor Final              000000000027000000000000027000000000000000000000000000000000000000000000000000000000000000000000000000000000000000000000PES00010000001N00000000000000020140111
201401010060000600000000000000508995000000000000005089959900000000000000000000Consumidor Final              000000000027000000000000027000000000000000000000000000000000000000000000000000000000000000000000000000000000000000000000PES00010000001N00000000000000020140111
201401010060000600000000000000508996000000000000005089969900000000000000000000Consumidor Final              000000000027000000000000027000000000000000000000000000000000000000000000000000000000000000000000000000000000000000000000PES00010000001N00000000000000020140111
201401010060000600000000000000509005000000000000005090059900000000000000000000Consumidor Final              000000000027000000000000027000000000000000000000000000000000000000000000000000000000000000000000000000000000000000000000PES00010000001N00000000000000020140111
201401010060000600000000000000509013000000000000005090139900000000000000000000Consumidor Final              000000000027000000000000027000000000000000000000000000000000000000000000000000000000000000000000000000000000000000000000PES00010000001N00000000000000020140111
201401010060000600000000000000509014000000000000005090149900000000000000000000Consumidor Final              000000000027000000000000027000000000000000000000000000000000000000000000000000000000000000000000000000000000000000000000PES00010000001N00000000000000020140111
201401010060000600000000000000509015000000000000005090159900000000000000000000Consumidor Final              000000000027000000000000027000000000000000000000000000000000000000000000000000000000000000000000000000000000000000000000PES00010000001N00000000000000020140111
201401010060000700000000000000313866000000000000003138669900000000000000000000Consumidor Final              000000000035500000000000035500000000000000000000000000000000000000000000000000000000000000000000000000000000000000000000PES00010000001N00000000000000020140111
201401010060000700000000000000313867000000000000003138679900000000000000000000Consumidor Final              000000000027000000000000027000000000000000000000000000000000000000000000000000000000000000000000000000000000000000000000PES00010000001N00000000000000020140111
201401010060000700000000000000313870000000000000003138709900000000000000000000Consumidor Final              000000000027000000000000027000000000000000000000000000000000000000000000000000000000000000000000000000000000000000000000PES00010000001N00000000000000020140111
201401010060000800000000000000097577000000000000000975779900000000000000000000Consumidor Final              000000000021500000000000021500000000000000000000000000000000000000000000000000000000000000000000000000000000000000000000PES00010000001N00000000000000020140111
201401010060000600000000000000508927000000000000005089279900000000000000000000Consumidor Final              000000000027000000000000027000000000000000000000000000000000000000000000000000000000000000000000000000000000000000000000PES00010000001N00000000000000020140111
201401010060000600000000000000509016000000000000005090169900000000000000000000Consumidor Final              000000000027000000000000027000000000000000000000000000000000000000000000000000000000000000000000000000000000000000000000PES00010000001N00000000000000020140111
201401010060000600000000000000509017000000000000005090179900000000000000000000Consumidor Final              000000000017000000000000017000000000000000000000000000000000000000000000000000000000000000000000000000000000000000000000PES00010000001N00000000000000020140111
201401010060000600000000000000509022000000000000005090229900000000000000000000Consumidor Final              000000000027000000000000027000000000000000000000000000000000000000000000000000000000000000000000000000000000000000000000PES00010000001N00000000000000020140111
201401010060000600000000000000509023000000000000005090239900000000000000000000Consumidor Final              000000000027000000000000027000000000000000000000000000000000000000000000000000000000000000000000000000000000000000000000PES00010000001N00000000000000020140111
201401010060000600000000000000509024000000000000005090249900000000000000000000Consumidor Final              000000000027000000000000027000000000000000000000000000000000000000000000000000000000000000000000000000000000000000000000PES00010000001N00000000000000020140111
201401010060000600000000000000509025000000000000005090259900000000000000000000Consumidor Final              000000000027000000000000027000000000000000000000000000000000000000000000000000000000000000000000000000000000000000000000PES00010000001N00000000000000020140111
201401010060000600000000000000509026000000000000005090269900000000000000000000Consumidor Final              000000000027000000000000027000000000000000000000000000000000000000000000000000000000000000000000000000000000000000000000PES00010000001N00000000000000020140111
201401010060000600000000000000509027000000000000005090279900000000000000000000Consumidor Final              000000000027000000000000027000000000000000000000000000000000000000000000000000000000000000000000000000000000000000000000PES00010000001N00000000000000020140111
201401010060000600000000000000509030000000000000005090309900000000000000000000Consumidor Final              000000000034000000000000034000000000000000000000000000000000000000000000000000000000000000000000000000000000000000000000PES00010000001N00000000000000020140111
201401010060000600000000000000509035000000000000005090359900000000000000000000Consumidor Final              000000000027000000000000027000000000000000000000000000000000000000000000000000000000000000000000000000000000000000000000PES00010000001N00000000000000020140111
201401010060000700000000000000313877000000000000003138779900000000000000000000Consumidor Final              000000000027000000000000027000000000000000000000000000000000000000000000000000000000000000000000000000000000000000000000PES00010000001N00000000000000020140111
201401010060000700000000000000313878000000000000003138789900000000000000000000Consumidor Final              000000000027000000000000027000000000000000000000000000000000000000000000000000000000000000000000000000000000000000000000PES00010000001N00000000000000020140111
201401010060000800000000000000097578000000000000000975789900000000000000000000Consumidor Final              000000000021500000000000021500000000000000000000000000000000000000000000000000000000000000000000000000000000000000000000PES00010000001N00000000000000020140111
201401010060000600000000000000508914000000000000005089149900000000000000000000Consumidor Final              000000000027000000000000027000000000000000000000000000000000000000000000000000000000000000000000000000000000000000000000PES00010000001N00000000000000020140111
201401010060000600000000000000508915000000000000005089159900000000000000000000Consumidor Final              000000000034000000000000034000000000000000000000000000000000000000000000000000000000000000000000000000000000000000000000PES00010000001N00000000000000020140111
201401010060000600000000000000508916000000000000005089169900000000000000000000Consumidor Final              000000000034000000000000034000000000000000000000000000000000000000000000000000000000000000000000000000000000000000000000PES00010000001N00000000000000020140111
201401010060000600000000000000508917000000000000005089179900000000000000000000Consumidor Final              000000000034000000000000034000000000000000000000000000000000000000000000000000000000000000000000000000000000000000000000PES00010000001N00000000000000020140111
201401010060000600000000000000508918000000000000005089189900000000000000000000Consumidor Final              000000000027000000000000027000000000000000000000000000000000000000000000000000000000000000000000000000000000000000000000PES00010000001N00000000000000020140111
201401010060000600000000000000508919000000000000005089199900000000000000000000Consumidor Final              000000000027000000000000027000000000000000000000000000000000000000000000000000000000000000000000000000000000000000000000PES00010000001N00000000000000020140111
201401010060000600000000000000508920000000000000005089209900000000000000000000Consumidor Final              000000000027000000000000027000000000000000000000000000000000000000000000000000000000000000000000000000000000000000000000PES00010000001N00000000000000020140111
201401010060000600000000000000508921000000000000005089219900000000000000000000Consumidor Final              000000000027000000000000027000000000000000000000000000000000000000000000000000000000000000000000000000000000000000000000PES00010000001N00000000000000020140111
201401010060000600000000000000508922000000000000005089229900000000000000000000Consumidor Final              000000000027000000000000027000000000000000000000000000000000000000000000000000000000000000000000000000000000000000000000PES00010000001N00000000000000020140111
201401010060000600000000000000508937000000000000005089379900000000000000000000Consumidor Final              000000000027000000000000027000000000000000000000000000000000000000000000000000000000000000000000000000000000000000000000PES00010000001N00000000000000020140111
201401010060000600000000000000508938000000000000005089389900000000000000000000Consumidor Final              000000000027000000000000027000000000000000000000000000000000000000000000000000000000000000000000000000000000000000000000PES00010000001N00000000000000020140111
201401010060000600000000000000508943000000000000005089439900000000000000000000Consumidor Final              000000000027000000000000027000000000000000000000000000000000000000000000000000000000000000000000000000000000000000000000PES00010000001N00000000000000020140111
201401010060000600000000000000508954000000000000005089549900000000000000000000Consumidor Final              000000000027000000000000027000000000000000000000000000000000000000000000000000000000000000000000000000000000000000000000PES00010000001N00000000000000020140111
201401010010000600000000000000003685000000000000000036858000000000030714059587OFICINA NERD SRL              000000000027000000000000027000000000000000000000000000000000000000000000000000000000000000000000000000000000000000000000PES00010000001N00000000000000020140111
201401010060000600000000000000508948000000000000005089489900000000000000000000Consumidor Final              000000000027000000000000027000000000000000000000000000000000000000000000000000000000000000000000000000000000000000000000PES00010000001N00000000000000020140111
201401010060000600000000000000508964000000000000005089649900000000000000000000Consumidor Final              000000000027000000000000027000000000000000000000000000000000000000000000000000000000000000000000000000000000000000000000PES00010000001N00000000000000020140111
201401010060000600000000000000508986000000000000005089869900000000000000000000Consumidor Final              000000000027000000000000027000000000000000000000000000000000000000000000000000000000000000000000000000000000000000000000PES00010000001N00000000000000020140111
201401010060000600000000000000508987000000000000005089879900000000000000000000Consumidor Final              000000000027000000000000027000000000000000000000000000000000000000000000000000000000000000000000000000000000000000000000PES00010000001N00000000000000020140111
201401010060000600000000000000508988000000000000005089889900000000000000000000Consumidor Final              000000000034000000000000034000000000000000000000000000000000000000000000000000000000000000000000000000000000000000000000PES00010000001N00000000000000020140111
201401010060000600000000000000508989000000000000005089899900000000000000000000Consumidor Final              000000000027000000000000027000000000000000000000000000000000000000000000000000000000000000000000000000000000000000000000PES00010000001N00000000000000020140111
201401010060000600000000000000509006000000000000005090069900000000000000000000Consumidor Final              000000000034000000000000034000000000000000000000000000000000000000000000000000000000000000000000000000000000000000000000PES00010000001N00000000000000020140111
201401010060000600000000000000509007000000000000005090079900000000000000000000Consumidor Final              000000000017000000000000017000000000000000000000000000000000000000000000000000000000000000000000000000000000000000000000PES00010000001N00000000000000020140111
201401010060000600000000000000509011000000000000005090119900000000000000000000Consumidor Final              000000000027000000000000027000000000000000000000000000000000000000000000000000000000000000000000000000000000000000000000PES00010000001N00000000000000020140111
201401010060000600000000000000509012000000000000005090129900000000000000000000Consumidor Final              000000000035000000000000035000000000000000000000000000000000000000000000000000000000000000000000000000000000000000000000PES00010000001N00000000000000020140111
201401010060000700000000000000313875000000000000003138759900000000000000000000Consumidor Final              000000000027000000000000027000000000000000000000000000000000000000000000000000000000000000000000000000000000000000000000PES00010000001N00000000000000020140111
201401010060000700000000000000313876000000000000003138769900000000000000000000Consumidor Final              000000000027000000000000027000000000000000000000000000000000000000000000000000000000000000000000000000000000000000000000PES00010000001N00000000000000020140111
201401010010000600000000000000003686000000000000000036868000000000030714059587OFICINA NERD SRL              000000000027000000000000027000000000000000000000000000000000000000000000000000000000000000000000000000000000000000000000PES00010000001N00000000000000020140111
201401010060000600000000000000508955000000000000005089559900000000000000000000Consumidor Final              000000000027000000000000027000000000000000000000000000000000000000000000000000000000000000000000000000000000000000000000PES00010000001N00000000000000020140111
201401010060000600000000000000508956000000000000005089569900000000000000000000Consumidor Final              000000000027000000000000027000000000000000000000000000000000000000000000000000000000000000000000000000000000000000000000PES00010000001N00000000000000020140111
201401010060000600000000000000508957000000000000005089579900000000000000000000Consumidor Final              000000000027000000000000027000000000000000000000000000000000000000000000000000000000000000000000000000000000000000000000PES00010000001N00000000000000020140111
201401010060000600000000000000508958000000000000005089589900000000000000000000Consumidor Final              000000000027000000000000027000000000000000000000000000000000000000000000000000000000000000000000000000000000000000000000PES00010000001N00000000000000020140111
201401010060000600000000000000508985000000000000005089859900000000000000000000Consumidor Final              000000000027000000000000027000000000000000000000000000000000000000000000000000000000000000000000000000000000000000000000PES00010000001N00000000000000020140111
201401010060000800000000000000097598000000000000000975989900000000000000000000Consumidor Final              000000000021500000000000021500000000000000000000000000000000000000000000000000000000000000000000000000000000000000000000PES00010000001N00000000000000020140111
201401010060000800000000000000097599000000000000000975999900000000000000000000Consumidor Final              000000000021500000000000021500000000000000000000000000000000000000000000000000000000000000000000000000000000000000000000PES00010000001N00000000000000020140111
201401010060000700000000000000313871000000000000003138719900000000000000000000Consumidor Final              000000000027000000000000027000000000000000000000000000000000000000000000000000000000000000000000000000000000000000000000PES00010000001N00000000000000020140111
201401010060000700000000000000313872000000000000003138729900000000000000000000Consumidor Final              000000000027000000000000027000000000000000000000000000000000000000000000000000000000000000000000000000000000000000000000PES00010000001N00000000000000020140111
201401010060000600000000000000509028000000000000005090289900000000000000000000Consumidor Final              000000000027000000000000027000000000000000000000000000000000000000000000000000000000000000000000000000000000000000000000PES00010000001N00000000000000020140111
201401010060000600000000000000509029000000000000005090299900000000000000000000Consumidor Final              000000000027000000000000027000000000000000000000000000000000000000000000000000000000000000000000000000000000000000000000PES00010000001N00000000000000020140111
201401010060000700000000000000313873000000000000003138739900000000000000000000Consumidor Final              000000000027000000000000027000000000000000000000000000000000000000000000000000000000000000000000000000000000000000000000PES00010000001N00000000000000020140111
201401010060000700000000000000313874000000000000003138749900000000000000000000Consumidor Final              000000000034000000000000034000000000000000000000000000000000000000000000000000000000000000000000000000000000000000000000PES00010000001N00000000000000020140111
201401010060000800000000000000097583000000000000000975839900000000000000000000Consumidor Final              000000000021500000000000021500000000000000000000000000000000000000000000000000000000000000000000000000000000000000000000PES00010000001N00000000000000020140111
201401010060000800000000000000097584000000000000000975849900000000000000000000Consumidor Final              000000000021500000000000021500000000000000000000000000000000000000000000000000000000000000000000000000000000000000000000PES00010000001N00000000000000020140111
201401010060000800000000000000097585000000000000000975859900000000000000000000Consumidor Final              000000000021500000000000021500000000000000000000000000000000000000000000000000000000000000000000000000000000000000000000PES00010000001N00000000000000020140111
201401010060000800000000000000097586000000000000000975869900000000000000000000Consumidor Final              000000000021500000000000021500000000000000000000000000000000000000000000000000000000000000000000000000000000000000000000PES00010000001N00000000000000020140111
201401010060000600000000000000508961000000000000005089619900000000000000000000Consumidor Final              000000000027000000000000027000000000000000000000000000000000000000000000000000000000000000000000000000000000000000000000PES00010000001N00000000000000020140111
201401010060000600000000000000508962000000000000005089629900000000000000000000Consumidor Final              000000000027000000000000027000000000000000000000000000000000000000000000000000000000000000000000000000000000000000000000PES00010000001N00000000000000020140111
201401010060000600000000000000508963000000000000005089639900000000000000000000Consumidor Final              000000000034000000000000034000000000000000000000000000000000000000000000000000000000000000000000000000000000000000000000PES00010000001N00000000000000020140111
201401010060000600000000000000508965000000000000005089659900000000000000000000Consumidor Final              000000000027000000000000027000000000000000000000000000000000000000000000000000000000000000000000000000000000000000000000PES00010000001N00000000000000020140111
201401010060000600000000000000508966000000000000005089669900000000000000000000Consumidor Final              000000000027000000000000027000000000000000000000000000000000000000000000000000000000000000000000000000000000000000000000PES00010000001N00000000000000020140111
201401010060000600000000000000508997000000000000005089979900000000000000000000Consumidor Final              000000000027000000000000027000000000000000000000000000000000000000000000000000000000000000000000000000000000000000000000PES00010000001N00000000000000020140111
201401010060000600000000000000508998000000000000005089989900000000000000000000Consumidor Final              000000000027000000000000027000000000000000000000000000000000000000000000000000000000000000000000000000000000000000000000PES00010000001N00000000000000020140111
201401010060000600000000000000508999000000000000005089999900000000000000000000Consumidor Final              000000000027000000000000027000000000000000000000000000000000000000000000000000000000000000000000000000000000000000000000PES00010000001N00000000000000020140111
201401010060000600000000000000509008000000000000005090089900000000000000000000Consumidor Final              000000000027000000000000027000000000000000000000000000000000000000000000000000000000000000000000000000000000000000000000PES00010000001N00000000000000020140111
201401010060000600000000000000509009000000000000005090099900000000000000000000Consumidor Final              000000000027000000000000027000000000000000000000000000000000000000000000000000000000000000000000000000000000000000000000PES00010000001N00000000000000020140111
201401010060000600000000000000508975000000000000005089759900000000000000000000Consumidor Final              000000000027000000000000027000000000000000000000000000000000000000000000000000000000000000000000000000000000000000000000PES00010000001N00000000000000020140111
201401010060000800000000000000097587000000000000000975879900000000000000000000Consumidor Final              000000000021500000000000021500000000000000000000000000000000000000000000000000000000000000000000000000000000000000000000PES00010000001N00000000000000020140111
201401010060000800000000000000097588000000000000000975889900000000000000000000Consumidor Final              000000000032000000000000032000000000000000000000000000000000000000000000000000000000000000000000000000000000000000000000PES00010000001N00000000000000020140111
201401010060000800000000000000097589000000000000000975899900000000000000000000Consumidor Final              000000000021500000000000021500000000000000000000000000000000000000000000000000000000000000000000000000000000000000000000PES00010000001N00000000000000020140111
201401010060000600000000000000508976000000000000005089769900000000000000000000Consumidor Final              000000000027000000000000027000000000000000000000000000000000000000000000000000000000000000000000000000000000000000000000PES00010000001N00000000000000020140111
201401010060000600000000000000508977000000000000005089779900000000000000000000Consumidor Final              000000000027000000000000027000000000000000000000000000000000000000000000000000000000000000000000000000000000000000000000PES00010000001N00000000000000020140111
201401010060000600000000000000508978000000000000005089789900000000000000000000Consumidor Final              000000000027000000000000027000000000000000000000000000000000000000000000000000000000000000000000000000000000000000000000PES00010000001N00000000000000020140111
201401010060000600000000000000508979000000000000005089799900000000000000000000Consumidor Final              000000000027000000000000027000000000000000000000000000000000000000000000000000000000000000000000000000000000000000000000PES00010000001N00000000000000020140111
201401010060000600000000000000508980000000000000005089809900000000000000000000Consumidor Final              000000000034000000000000034000000000000000000000000000000000000000000000000000000000000000000000000000000000000000000000PES00010000001N00000000000000020140111
201401010060000600000000000000508981000000000000005089819900000000000000000000Consumidor Final              000000000027000000000000027000000000000000000000000000000000000000000000000000000000000000000000000000000000000000000000PES00010000001N00000000000000020140111
201401010060000600000000000000508982000000000000005089829900000000000000000000Consumidor Final              000000000027000000000000027000000000000000000000000000000000000000000000000000000000000000000000000000000000000000000000PES00010000001N00000000000000020140111
201401010060000600000000000000508983000000000000005089839900000000000000000000Consumidor Final              000000000027000000000000027000000000000000000000000000000000000000000000000000000000000000000000000000000000000000000000PES00010000001N00000000000000020140111
201401010060000600000000000000508984000000000000005089849900000000000000000000Consumidor Final              000000000027000000000000027000000000000000000000000000000000000000000000000000000000000000000000000000000000000000000000PES00010000001N00000000000000020140111
201401010060000600000000000000508990000000000000005089909900000000000000000000Consumidor Final              000000000017000000000000017000000000000000000000000000000000000000000000000000000000000000000000000000000000000000000000PES00010000001N00000000000000020140111
201401010060000600000000000000508991000000000000005089919900000000000000000000Consumidor Final              000000000025000000000000025000000000000000000000000000000000000000000000000000000000000000000000000000000000000000000000PES00010000001N00000000000000020140111
201401010060000600000000000000508992000000000000005089929900000000000000000000Consumidor Final              000000000027000000000000027000000000000000000000000000000000000000000000000000000000000000000000000000000000000000000000PES00010000001N00000000000000020140111
201401010060000600000000000000509000000000000000005090009900000000000000000000Consumidor Final              000000000027000000000000027000000000000000000000000000000000000000000000000000000000000000000000000000000000000000000000PES00010000001N00000000000000020140111
201401010060000600000000000000509001000000000000005090019900000000000000000000Consumidor Final              000000000027000000000000027000000000000000000000000000000000000000000000000000000000000000000000000000000000000000000000PES00010000001N00000000000000020140111
201401010060000600000000000000509002000000000000005090029900000000000000000000Consumidor Final              000000000027000000000000027000000000000000000000000000000000000000000000000000000000000000000000000000000000000000000000PES00010000001N00000000000000020140111
201401010060000600000000000000509003000000000000005090039900000000000000000000Consumidor Final              000000000027000000000000027000000000000000000000000000000000000000000000000000000000000000000000000000000000000000000000PES00010000001N00000000000000020140111
201401010060000600000000000000509004000000000000005090049900000000000000000000Consumidor Final              000000000027000000000000027000000000000000000000000000000000000000000000000000000000000000000000000000000000000000000000PES00010000001N00000000000000020140111
201401010060000600000000000000509010000000000000005090109900000000000000000000Consumidor Final              000000000025000000000000025000000000000000000000000000000000000000000000000000000000000000000000000000000000000000000000PES00010000001N00000000000000020140111
201401010060000800000000000000097590000000000000000975909900000000000000000000Consumidor Final              000000000021500000000000021500000000000000000000000000000000000000000000000000000000000000000000000000000000000000000000PES00010000001N00000000000000020140111
201401010060000800000000000000097591000000000000000975919900000000000000000000Consumidor Final              000000000028500000000000028500000000000000000000000000000000000000000000000000000000000000000000000000000000000000000000PES00010000001N00000000000000020140111
201401010060000800000000000000097592000000000000000975929900000000000000000000Consumidor Final              000000000021500000000000021500000000000000000000000000000000000000000000000000000000000000000000000000000000000000000000PES00010000001N00000000000000020140111
201401010060000800000000000000097593000000000000000975939900000000000000000000Consumidor Final              000000000021500000000000021500000000000000000000000000000000000000000000000000000000000000000000000000000000000000000000PES00010000001N00000000000000020140111
201401010060000800000000000000097594000000000000000975949900000000000000000000Consumidor Final              000000000021500000000000021500000000000000000000000000000000000000000000000000000000000000000000000000000000000000000000PES00010000001N00000000000000020140111
201401010060000800000000000000097595000000000000000975959900000000000000000000Consumidor Final              000000000021500000000000021500000000000000000000000000000000000000000000000000000000000000000000000000000000000000000000PES00010000001N00000000000000020140111
201401010060000800000000000000097596000000000000000975969900000000000000000000Consumidor Final              000000000028500000000000028500000000000000000000000000000000000000000000000000000000000000000000000000000000000000000000PES00010000001N00000000000000020140111
201401010060000800000000000000097597000000000000000975979900000000000000000000Consumidor Final              000000000021500000000000021500000000000000000000000000000000000000000000000000000000000000000000000000000000000000000000PES00010000001N00000000000000020140111
201401010060000700000000000000313858000000000000003138589900000000000000000000Consumidor Final              000000000027000000000000027000000000000000000000000000000000000000000000000000000000000000000000000000000000000000000000PES00010000001N00000000000000020140111
