201709300060000700000000000000553461000000000000005534619900000000000000000000Consumidor Final              000000000072000000000000072000000000000000000000000000000000000000000000000000000000000000000000000000000000000000000000PES00010000001N00000000000000020171010
201709300060000700000000000000553504000000000000005535049900000000000000000000Consumidor Final              000000000033000000000000033000000000000000000000000000000000000000000000000000000000000000000000000000000000000000000000PES00010000001N00000000000000020171010
201709300060000600000000000000772765000000000000007727659900000000000000000000Consumidor Final              000000000072000000000000072000000000000000000000000000000000000000000000000000000000000000000000000000000000000000000000PES00010000001N00000000000000020171010
201709300060000600000000000000772766000000000000007727669900000000000000000000Consumidor Final              000000000072000000000000072000000000000000000000000000000000000000000000000000000000000000000000000000000000000000000000PES00010000001N00000000000000020171010
201709300060000700000000000000553505000000000000005535059900000000000000000000Consumidor Final              000000000072000000000000072000000000000000000000000000000000000000000000000000000000000000000000000000000000000000000000PES00010000001N00000000000000020171010
201709300060000600000000000000772767000000000000007727679900000000000000000000Consumidor Final              000000000065000000000000065000000000000000000000000000000000000000000000000000000000000000000000000000000000000000000000PES00010000001N00000000000000020171010
201709300060000700000000000000553506000000000000005535069900000000000000000000Consumidor Final              000000000072000000000000072000000000000000000000000000000000000000000000000000000000000000000000000000000000000000000000PES00010000001N00000000000000020171010
201709300060000600000000000000772768000000000000007727689900000000000000000000Consumidor Final              000000000042000000000000042000000000000000000000000000000000000000000000000000000000000000000000000000000000000000000000PES00010000001N00000000000000020171010
201709300060000600000000000000772769000000000000007727699900000000000000000000Consumidor Final              000000000086000000000000086000000000000000000000000000000000000000000000000000000000000000000000000000000000000000000000PES00010000001N00000000000000020171010
201709300060000600000000000000772770000000000000007727709900000000000000000000Consumidor Final              000000000072000000000000072000000000000000000000000000000000000000000000000000000000000000000000000000000000000000000000PES00010000001N00000000000000020171010
201709300060000600000000000000772771000000000000007727719900000000000000000000Consumidor Final              000000000072000000000000072000000000000000000000000000000000000000000000000000000000000000000000000000000000000000000000PES00010000001N00000000000000020171010
201709300060000700000000000000553462000000000000005534629900000000000000000000Consumidor Final              000000000072000000000000072000000000000000000000000000000000000000000000000000000000000000000000000000000000000000000000PES00010000001N00000000000000020171010
201709300060000800000000000000189898000000000000001898988000000000030628540787Consumidor Final              000000000062000000000000062000000000000000000000000000000000000000000000000000000000000000000000000000000000000000000000PES00010000001N00000000000000020171010
201709300060000800000000000000189899000000000000001898998000000000030628540787Consumidor Final              000000000062000000000000062000000000000000000000000000000000000000000000000000000000000000000000000000000000000000000000PES00010000001N00000000000000020171010
201709300060000800000000000000189900000000000000001899008000000000030628540787Consumidor Final              000000000062000000000000062000000000000000000000000000000000000000000000000000000000000000000000000000000000000000000000PES00010000001N00000000000000020171010
201709300060000700000000000000553471000000000000005534719900000000000000000000Consumidor Final              000000000043000000000000043000000000000000000000000000000000000000000000000000000000000000000000000000000000000000000000PES00010000001N00000000000000020171010
201709300060000700000000000000553472000000000000005534729900000000000000000000Consumidor Final              000000000072000000000000072000000000000000000000000000000000000000000000000000000000000000000000000000000000000000000000PES00010000001N00000000000000020171010
201709300060000700000000000000553473000000000000005534739900000000000000000000Consumidor Final              000000000072000000000000072000000000000000000000000000000000000000000000000000000000000000000000000000000000000000000000PES00010000001N00000000000000020171010
201709300060000700000000000000553474000000000000005534749900000000000000000000Consumidor Final              000000000072000000000000072000000000000000000000000000000000000000000000000000000000000000000000000000000000000000000000PES00010000001N00000000000000020171010
201709300060000700000000000000553475000000000000005534759900000000000000000000Consumidor Final              000000000072000000000000072000000000000000000000000000000000000000000000000000000000000000000000000000000000000000000000PES00010000001N00000000000000020171010
201709300060000700000000000000553476000000000000005534769900000000000000000000Consumidor Final              000000000072000000000000072000000000000000000000000000000000000000000000000000000000000000000000000000000000000000000000PES00010000001N00000000000000020171010
201709300060000700000000000000553477000000000000005534779900000000000000000000Consumidor Final              000000000072000000000000072000000000000000000000000000000000000000000000000000000000000000000000000000000000000000000000PES00010000001N00000000000000020171010
201709300060000700000000000000553463000000000000005534639900000000000000000000Consumidor Final              000000000072000000000000072000000000000000000000000000000000000000000000000000000000000000000000000000000000000000000000PES00010000001N00000000000000020171010
201709300060000700000000000000553464000000000000005534649900000000000000000000Consumidor Final              000000000086000000000000086000000000000000000000000000000000000000000000000000000000000000000000000000000000000000000000PES00010000001N00000000000000020171010
201709300060000700000000000000553465000000000000005534659900000000000000000000Consumidor Final              000000000072000000000000072000000000000000000000000000000000000000000000000000000000000000000000000000000000000000000000PES00010000001N00000000000000020171010
201709300060000800000000000000189901000000000000001899019900000000000000000000Consumidor Final              000000000062000000000000062000000000000000000000000000000000000000000000000000000000000000000000000000000000000000000000PES00010000001N00000000000000020171010
201709300060000800000000000000189902000000000000001899029900000000000000000000Consumidor Final              000000000062000000000000062000000000000000000000000000000000000000000000000000000000000000000000000000000000000000000000PES00010000001N00000000000000020171010
201709300060000800000000000000189903000000000000001899039900000000000000000000Consumidor Final              000000000062000000000000062000000000000000000000000000000000000000000000000000000000000000000000000000000000000000000000PES00010000001N00000000000000020171010
201709300060000700000000000000553467000000000000005534679900000000000000000000Consumidor Final              000000000072000000000000072000000000000000000000000000000000000000000000000000000000000000000000000000000000000000000000PES00010000001N00000000000000020171010
201709300060000700000000000000553468000000000000005534689900000000000000000000Consumidor Final              000000000072000000000000072000000000000000000000000000000000000000000000000000000000000000000000000000000000000000000000PES00010000001N00000000000000020171010
201709300060000700000000000000553469000000000000005534699900000000000000000000Consumidor Final              000000000072000000000000072000000000000000000000000000000000000000000000000000000000000000000000000000000000000000000000PES00010000001N00000000000000020171010
201709300060000700000000000000553470000000000000005534709900000000000000000000Consumidor Final              000000000095700000000000095700000000000000000000000000000000000000000000000000000000000000000000000000000000000000000000PES00010000001N00000000000000020171010
201709300060000800000000000000189904000000000000001899049900000000000000000000Consumidor Final              000000000062000000000000062000000000000000000000000000000000000000000000000000000000000000000000000000000000000000000000PES00010000001N00000000000000020171010
201709300060000700000000000000553466000000000000005534669900000000000000000000Consumidor Final              000000000072000000000000072000000000000000000000000000000000000000000000000000000000000000000000000000000000000000000000PES00010000001N00000000000000020171010
201709300060000800000000000000189905000000000000001899059900000000000000000000Consumidor Final              000000000062000000000000062000000000000000000000000000000000000000000000000000000000000000000000000000000000000000000000PES00010000001N00000000000000020171010
201709300060000800000000000000189906000000000000001899069900000000000000000000Consumidor Final              000000000062000000000000062000000000000000000000000000000000000000000000000000000000000000000000000000000000000000000000PES00010000001N00000000000000020171010
201709300060000800000000000000189907000000000000001899079900000000000000000000Consumidor Final              000000000062000000000000062000000000000000000000000000000000000000000000000000000000000000000000000000000000000000000000PES00010000001N00000000000000020171010
201709300060000800000000000000189908000000000000001899089900000000000000000000Consumidor Final              000000000062000000000000062000000000000000000000000000000000000000000000000000000000000000000000000000000000000000000000PES00010000001N00000000000000020171010
201709300060000800000000000000189909000000000000001899099900000000000000000000Consumidor Final              000000000062000000000000062000000000000000000000000000000000000000000000000000000000000000000000000000000000000000000000PES00010000001N00000000000000020171010
201709300060000800000000000000189910000000000000001899109900000000000000000000Consumidor Final              000000000062000000000000062000000000000000000000000000000000000000000000000000000000000000000000000000000000000000000000PES00010000001N00000000000000020171010
201709300060000800000000000000189911000000000000001899119900000000000000000000Consumidor Final              000000000035000000000000035000000000000000000000000000000000000000000000000000000000000000000000000000000000000000000000PES00010000001N00000000000000020171010
201709300060000600000000000000772759000000000000007727599900000000000000000000Consumidor Final              000000000079200000000000079200000000000000000000000000000000000000000000000000000000000000000000000000000000000000000000PES00010000001N00000000000000020171010
201709300060000600000000000000772760000000000000007727609900000000000000000000Consumidor Final              000000000072000000000000072000000000000000000000000000000000000000000000000000000000000000000000000000000000000000000000PES00010000001N00000000000000020171010
201709300060000700000000000000553496000000000000005534969900000000000000000000Consumidor Final              000000000079200000000000079200000000000000000000000000000000000000000000000000000000000000000000000000000000000000000000PES00010000001N00000000000000020171010
201709300060000600000000000000772789000000000000007727899900000000000000000000Consumidor Final              000000000072000000000000072000000000000000000000000000000000000000000000000000000000000000000000000000000000000000000000PES00010000001N00000000000000020171010
201709300060000700000000000000553541000000000000005535419900000000000000000000Consumidor Final              000000000072000000000000072000000000000000000000000000000000000000000000000000000000000000000000000000000000000000000000PES00010000001N00000000000000020171010
201709300060000700000000000000553542000000000000005535429900000000000000000000Consumidor Final              000000000079200000000000079200000000000000000000000000000000000000000000000000000000000000000000000000000000000000000000PES00010000001N00000000000000020171010
201709300060000700000000000000553543000000000000005535439900000000000000000000Consumidor Final              000000000072000000000000072000000000000000000000000000000000000000000000000000000000000000000000000000000000000000000000PES00010000001N00000000000000020171010
201709300060000700000000000000553551000000000000005535519000000000099999999999Consumidor Final              000000000126500000000000126500000000000000000000000000000000000000000000000000000000000000000000000000000000000000000000PES00010000001N00000000000000020171010
201709300060000600000000000000772811000000000000007728119900000000000000000000Consumidor Final              000000000075000000000000075000000000000000000000000000000000000000000000000000000000000000000000000000000000000000000000PES00010000001N00000000000000020171010
201709300060000700000000000000553552000000000000005535529900000000000000000000Consumidor Final              000000000086000000000000086000000000000000000000000000000000000000000000000000000000000000000000000000000000000000000000PES00010000001N00000000000000020171010
201709300060000600000000000000772812000000000000007728129900000000000000000000Consumidor Final              000000000075000000000000075000000000000000000000000000000000000000000000000000000000000000000000000000000000000000000000PES00010000001N00000000000000020171010
201709300060000600000000000000772813000000000000007728139900000000000000000000Consumidor Final              000000000072000000000000072000000000000000000000000000000000000000000000000000000000000000000000000000000000000000000000PES00010000001N00000000000000020171010
201709300060000700000000000000553553000000000000005535539900000000000000000000Consumidor Final              000000000079200000000000079200000000000000000000000000000000000000000000000000000000000000000000000000000000000000000000PES00010000001N00000000000000020171010
201709300060000600000000000000772814000000000000007728149900000000000000000000Consumidor Final              000000000094600000000000094600000000000000000000000000000000000000000000000000000000000000000000000000000000000000000000PES00010000001N00000000000000020171010
201709300060000700000000000000553579000000000000005535799900000000000000000000Consumidor Final              000000000079200000000000079200000000000000000000000000000000000000000000000000000000000000000000000000000000000000000000PES00010000001N00000000000000020171010
201709300060000700000000000000553580000000000000005535809900000000000000000000Consumidor Final              000000000072000000000000072000000000000000000000000000000000000000000000000000000000000000000000000000000000000000000000PES00010000001N00000000000000020171010
201709300060000700000000000000553592000000000000005535929900000000000000000000Consumidor Final              000000000072000000000000072000000000000000000000000000000000000000000000000000000000000000000000000000000000000000000000PES00010000001N00000000000000020171010
201709300060000700000000000000553593000000000000005535939900000000000000000000Consumidor Final              000000000072000000000000072000000000000000000000000000000000000000000000000000000000000000000000000000000000000000000000PES00010000001N00000000000000020171010
201709300060000700000000000000553594000000000000005535949900000000000000000000Consumidor Final              000000000079200000000000079200000000000000000000000000000000000000000000000000000000000000000000000000000000000000000000PES00010000001N00000000000000020171010
201709300060000700000000000000553595000000000000005535959900000000000000000000Consumidor Final              000000000079200000000000079200000000000000000000000000000000000000000000000000000000000000000000000000000000000000000000PES00010000001N00000000000000020171010
201709300060000700000000000000553596000000000000005535969900000000000000000000Consumidor Final              000000000079200000000000079200000000000000000000000000000000000000000000000000000000000000000000000000000000000000000000PES00010000001N00000000000000020171010
201709300060000700000000000000553597000000000000005535979900000000000000000000Consumidor Final              000000000072000000000000072000000000000000000000000000000000000000000000000000000000000000000000000000000000000000000000PES00010000001N00000000000000020171010
201709300060000700000000000000553598000000000000005535989900000000000000000000Consumidor Final              000000000072000000000000072000000000000000000000000000000000000000000000000000000000000000000000000000000000000000000000PES00010000001N00000000000000020171010
201709300060000700000000000000553599000000000000005535999000000000099999999999Consumidor Final              000000000127600000000000127600000000000000000000000000000000000000000000000000000000000000000000000000000000000000000000PES00010000001N00000000000000020171010
201709300060000800000000000000189927000000000000001899279900000000000000000000Consumidor Final              000000000062000000000000062000000000000000000000000000000000000000000000000000000000000000000000000000000000000000000000PES00010000001N00000000000000020171010
201709300060000600000000000000772864000000000000007728649900000000000000000000Consumidor Final              000000000072000000000000072000000000000000000000000000000000000000000000000000000000000000000000000000000000000000000000PES00010000001N00000000000000020171010
201709300060000600000000000000772867000000000000007728679900000000000000000000Consumidor Final              000000000072000000000000072000000000000000000000000000000000000000000000000000000000000000000000000000000000000000000000PES00010000001N00000000000000020171010
201709300060000600000000000000772868000000000000007728689900000000000000000000Consumidor Final              000000000072000000000000072000000000000000000000000000000000000000000000000000000000000000000000000000000000000000000000PES00010000001N00000000000000020171010
201709300060000600000000000000772869000000000000007728699900000000000000000000Consumidor Final              000000000033000000000000033000000000000000000000000000000000000000000000000000000000000000000000000000000000000000000000PES00010000001N00000000000000020171010
201709300060000600000000000000772870000000000000007728709900000000000000000000Consumidor Final              000000000072000000000000072000000000000000000000000000000000000000000000000000000000000000000000000000000000000000000000PES00010000001N00000000000000020171010
201709300060000600000000000000772871000000000000007728719900000000000000000000Consumidor Final              000000000072000000000000072000000000000000000000000000000000000000000000000000000000000000000000000000000000000000000000PES00010000001N00000000000000020171010
201709300060000600000000000000772872000000000000007728729900000000000000000000Consumidor Final              000000000069000000000000069000000000000000000000000000000000000000000000000000000000000000000000000000000000000000000000PES00010000001N00000000000000020171010
201709300060000600000000000000772873000000000000007728739900000000000000000000Consumidor Final              000000000072000000000000072000000000000000000000000000000000000000000000000000000000000000000000000000000000000000000000PES00010000001N00000000000000020171010
201709300060000600000000000000772874000000000000007728749900000000000000000000Consumidor Final              000000000079200000000000079200000000000000000000000000000000000000000000000000000000000000000000000000000000000000000000PES00010000001N00000000000000020171010
201709300060000600000000000000772875000000000000007728759900000000000000000000Consumidor Final              000000000072000000000000072000000000000000000000000000000000000000000000000000000000000000000000000000000000000000000000PES00010000001N00000000000000020171010
201709300060000600000000000000772881000000000000007728819900000000000000000000Consumidor Final              000000000042000000000000042000000000000000000000000000000000000000000000000000000000000000000000000000000000000000000000PES00010000001N00000000000000020171010
201709300060000900000000000000041553000000000000000415539900000000000000000000Consumidor Final              000000000072000000000000072000000000000000000000000000000000000000000000000000000000000000000000000000000000000000000000PES00010000001N00000000000000020171010
201709300060000700000000000000553632000000000000005536329900000000000000000000Consumidor Final              000000000072000000000000072000000000000000000000000000000000000000000000000000000000000000000000000000000000000000000000PES00010000001N00000000000000020171010
201709300060000700000000000000553633000000000000005536339900000000000000000000Consumidor Final              000000000072000000000000072000000000000000000000000000000000000000000000000000000000000000000000000000000000000000000000PES00010000001N00000000000000020171010
201709300060000700000000000000553634000000000000005536349900000000000000000000Consumidor Final              000000000072000000000000072000000000000000000000000000000000000000000000000000000000000000000000000000000000000000000000PES00010000001N00000000000000020171010
201709300060000600000000000000772917000000000000007729179900000000000000000000Consumidor Final              000000000079200000000000079200000000000000000000000000000000000000000000000000000000000000000000000000000000000000000000PES00010000001N00000000000000020171010
201709300060000700000000000000553635000000000000005536359900000000000000000000Consumidor Final              000000000072000000000000072000000000000000000000000000000000000000000000000000000000000000000000000000000000000000000000PES00010000001N00000000000000020171010
201709300060000600000000000000772918000000000000007729189900000000000000000000Consumidor Final              000000000079200000000000079200000000000000000000000000000000000000000000000000000000000000000000000000000000000000000000PES00010000001N00000000000000020171010
201709300060000700000000000000553636000000000000005536369900000000000000000000Consumidor Final              000000000036300000000000036300000000000000000000000000000000000000000000000000000000000000000000000000000000000000000000PES00010000001N00000000000000020171010
201709300060000700000000000000553637000000000000005536379900000000000000000000Consumidor Final              000000000079200000000000079200000000000000000000000000000000000000000000000000000000000000000000000000000000000000000000PES00010000001N00000000000000020171010
201709300060000700000000000000553478000000000000005534789900000000000000000000Consumidor Final              000000000075000000000000075000000000000000000000000000000000000000000000000000000000000000000000000000000000000000000000PES00010000001N00000000000000020171010
201709300060000700000000000000553479000000000000005534799900000000000000000000Consumidor Final              000000000072000000000000072000000000000000000000000000000000000000000000000000000000000000000000000000000000000000000000PES00010000001N00000000000000020171010
201709300060000700000000000000553480000000000000005534809900000000000000000000Consumidor Final              000000000072000000000000072000000000000000000000000000000000000000000000000000000000000000000000000000000000000000000000PES00010000001N00000000000000020171010
201709300060000700000000000000553481000000000000005534819000000000000082900449Consumidor Final              000000000072000000000000072000000000000000000000000000000000000000000000000000000000000000000000000000000000000000000000PES00010000001N00000000000000020171010
201709300060000700000000000000553482000000000000005534829900000000000000000000Consumidor Final              000000000072000000000000072000000000000000000000000000000000000000000000000000000000000000000000000000000000000000000000PES00010000001N00000000000000020171010
201709300060000700000000000000553483000000000000005534839900000000000000000000Consumidor Final              000000000072000000000000072000000000000000000000000000000000000000000000000000000000000000000000000000000000000000000000PES00010000001N00000000000000020171010
201709300060000700000000000000553484000000000000005534849900000000000000000000Consumidor Final              000000000086000000000000086000000000000000000000000000000000000000000000000000000000000000000000000000000000000000000000PES00010000001N00000000000000020171010
201709300060000700000000000000553485000000000000005534859900000000000000000000Consumidor Final              000000000072000000000000072000000000000000000000000000000000000000000000000000000000000000000000000000000000000000000000PES00010000001N00000000000000020171010
201709300060000700000000000000553486000000000000005534869900000000000000000000Consumidor Final              000000000072000000000000072000000000000000000000000000000000000000000000000000000000000000000000000000000000000000000000PES00010000001N00000000000000020171010
201709300060000700000000000000553487000000000000005534879900000000000000000000Consumidor Final              000000000094000000000000094000000000000000000000000000000000000000000000000000000000000000000000000000000000000000000000PES00010000001N00000000000000020171010
201709300060000700000000000000553488000000000000005534889900000000000000000000Consumidor Final              000000000072000000000000072000000000000000000000000000000000000000000000000000000000000000000000000000000000000000000000PES00010000001N00000000000000020171010
201709300060000700000000000000553489000000000000005534899900000000000000000000Consumidor Final              000000000039000000000000039000000000000000000000000000000000000000000000000000000000000000000000000000000000000000000000PES00010000001N00000000000000020171010
201709300060000700000000000000553490000000000000005534909900000000000000000000Consumidor Final              000000000079200000000000079200000000000000000000000000000000000000000000000000000000000000000000000000000000000000000000PES00010000001N00000000000000020171010
201709300060000700000000000000553491000000000000005534919900000000000000000000Consumidor Final              000000000075000000000000075000000000000000000000000000000000000000000000000000000000000000000000000000000000000000000000PES00010000001N00000000000000020171010
201709300060000700000000000000553492000000000000005534929900000000000000000000Consumidor Final              000000000095700000000000095700000000000000000000000000000000000000000000000000000000000000000000000000000000000000000000PES00010000001N00000000000000020171010
201709300060000700000000000000553493000000000000005534939900000000000000000000Consumidor Final              000000000075000000000000075000000000000000000000000000000000000000000000000000000000000000000000000000000000000000000000PES00010000001N00000000000000020171010
201709300060000700000000000000553494000000000000005534949900000000000000000000Consumidor Final              000000000072000000000000072000000000000000000000000000000000000000000000000000000000000000000000000000000000000000000000PES00010000001N00000000000000020171010
201709300060000700000000000000553495000000000000005534959900000000000000000000Consumidor Final              000000000072000000000000072000000000000000000000000000000000000000000000000000000000000000000000000000000000000000000000PES00010000001N00000000000000020171010
201709300060000700000000000000553510000000000000005535109900000000000000000000Consumidor Final              000000000072000000000000072000000000000000000000000000000000000000000000000000000000000000000000000000000000000000000000PES00010000001N00000000000000020171010
201709300060000700000000000000553511000000000000005535119900000000000000000000Consumidor Final              000000000072000000000000072000000000000000000000000000000000000000000000000000000000000000000000000000000000000000000000PES00010000001N00000000000000020171010
201709300060000600000000000000772772000000000000007727729900000000000000000000Consumidor Final              000000000062000000000000062000000000000000000000000000000000000000000000000000000000000000000000000000000000000000000000PES00010000001N00000000000000020171010
201709300060000700000000000000553512000000000000005535129900000000000000000000Consumidor Final              000000000094000000000000094000000000000000000000000000000000000000000000000000000000000000000000000000000000000000000000PES00010000001N00000000000000020171010
201709300060000700000000000000553527000000000000005535279900000000000000000000Consumidor Final              000000000079200000000000079200000000000000000000000000000000000000000000000000000000000000000000000000000000000000000000PES00010000001N00000000000000020171010
201709300060000700000000000000553528000000000000005535289900000000000000000000Consumidor Final              000000000072000000000000072000000000000000000000000000000000000000000000000000000000000000000000000000000000000000000000PES00010000001N00000000000000020171010
201709300060000700000000000000553529000000000000005535299900000000000000000000Consumidor Final              000000000072000000000000072000000000000000000000000000000000000000000000000000000000000000000000000000000000000000000000PES00010000001N00000000000000020171010
201709300060000700000000000000553531000000000000005535319900000000000000000000Consumidor Final              000000000087000000000000087000000000000000000000000000000000000000000000000000000000000000000000000000000000000000000000PES00010000001N00000000000000020171010
201709300060000700000000000000553532000000000000005535329900000000000000000000Consumidor Final              000000000079000000000000079000000000000000000000000000000000000000000000000000000000000000000000000000000000000000000000PES00010000001N00000000000000020171010
201709300060000700000000000000553566000000000000005535669900000000000000000000Consumidor Final              000000000072000000000000072000000000000000000000000000000000000000000000000000000000000000000000000000000000000000000000PES00010000001N00000000000000020171010
201709300060000700000000000000553567000000000000005535679900000000000000000000Consumidor Final              000000000072000000000000072000000000000000000000000000000000000000000000000000000000000000000000000000000000000000000000PES00010000001N00000000000000020171010
201709300060000700000000000000553568000000000000005535689900000000000000000000Consumidor Final              000000000072000000000000072000000000000000000000000000000000000000000000000000000000000000000000000000000000000000000000PES00010000001N00000000000000020171010
201709300060000700000000000000553507000000000000005535079900000000000000000000Consumidor Final              000000000082500000000000082500000000000000000000000000000000000000000000000000000000000000000000000000000000000000000000PES00010000001N00000000000000020171010
201709300060000700000000000000553508000000000000005535089900000000000000000000Consumidor Final              000000000082500000000000082500000000000000000000000000000000000000000000000000000000000000000000000000000000000000000000PES00010000001N00000000000000020171010
201709300060000600000000000000772775000000000000007727759900000000000000000000Consumidor Final              000000000079200000000000079200000000000000000000000000000000000000000000000000000000000000000000000000000000000000000000PES00010000001N00000000000000020171010
201709300060000600000000000000772776000000000000007727769000000000099999999999Consumidor Final              000000000113300000000000113300000000000000000000000000000000000000000000000000000000000000000000000000000000000000000000PES00010000001N00000000000000020171010
201709300060000600000000000000772777000000000000007727779900000000000000000000Consumidor Final              000000000072000000000000072000000000000000000000000000000000000000000000000000000000000000000000000000000000000000000000PES00010000001N00000000000000020171010
201709300060000600000000000000772778000000000000007727789000000000099999999999Consumidor Final              000000000141900000000000141900000000000000000000000000000000000000000000000000000000000000000000000000000000000000000000PES00010000001N00000000000000020171010
201709300060000700000000000000553513000000000000005535139900000000000000000000Consumidor Final              000000000072000000000000072000000000000000000000000000000000000000000000000000000000000000000000000000000000000000000000PES00010000001N00000000000000020171010
201709300060000700000000000000553514000000000000005535149900000000000000000000Consumidor Final              000000000086000000000000086000000000000000000000000000000000000000000000000000000000000000000000000000000000000000000000PES00010000001N00000000000000020171010
201709300060000700000000000000553515000000000000005535159000000000099999999999Consumidor Final              000000000109000000000000109000000000000000000000000000000000000000000000000000000000000000000000000000000000000000000000PES00010000001N00000000000000020171010
201709300060000700000000000000553516000000000000005535169900000000000000000000Consumidor Final              000000000075000000000000075000000000000000000000000000000000000000000000000000000000000000000000000000000000000000000000PES00010000001N00000000000000020171010
201709300060000700000000000000553517000000000000005535179900000000000000000000Consumidor Final              000000000072000000000000072000000000000000000000000000000000000000000000000000000000000000000000000000000000000000000000PES00010000001N00000000000000020171010
201709300060000600000000000000772773000000000000007727739900000000000000000000Consumidor Final              000000000079200000000000079200000000000000000000000000000000000000000000000000000000000000000000000000000000000000000000PES00010000001N00000000000000020171010
201709300060000700000000000000553518000000000000005535189900000000000000000000Consumidor Final              000000000086000000000000086000000000000000000000000000000000000000000000000000000000000000000000000000000000000000000000PES00010000001N00000000000000020171010
201709300060000700000000000000553519000000000000005535199900000000000000000000Consumidor Final              000000000069000000000000069000000000000000000000000000000000000000000000000000000000000000000000000000000000000000000000PES00010000001N00000000000000020171010
201709300060000700000000000000553520000000000000005535209900000000000000000000Consumidor Final              000000000086000000000000086000000000000000000000000000000000000000000000000000000000000000000000000000000000000000000000PES00010000001N00000000000000020171010
201709300060000700000000000000553521000000000000005535219900000000000000000000Consumidor Final              000000000087000000000000087000000000000000000000000000000000000000000000000000000000000000000000000000000000000000000000PES00010000001N00000000000000020171010
201709300060000700000000000000553522000000000000005535229900000000000000000000Consumidor Final              000000000075000000000000075000000000000000000000000000000000000000000000000000000000000000000000000000000000000000000000PES00010000001N00000000000000020171010
201709300060000800000000000000189912000000000000001899129900000000000000000000Consumidor Final              000000000035000000000000035000000000000000000000000000000000000000000000000000000000000000000000000000000000000000000000PES00010000001N00000000000000020171010
201709300060000700000000000000553523000000000000005535239900000000000000000000Consumidor Final              000000000069000000000000069000000000000000000000000000000000000000000000000000000000000000000000000000000000000000000000PES00010000001N00000000000000020171010
201709300060000700000000000000553524000000000000005535249900000000000000000000Consumidor Final              000000000079200000000000079200000000000000000000000000000000000000000000000000000000000000000000000000000000000000000000PES00010000001N00000000000000020171010
201709300060000700000000000000553525000000000000005535259900000000000000000000Consumidor Final              000000000065000000000000065000000000000000000000000000000000000000000000000000000000000000000000000000000000000000000000PES00010000001N00000000000000020171010
201709300060000700000000000000553526000000000000005535269900000000000000000000Consumidor Final              000000000079200000000000079200000000000000000000000000000000000000000000000000000000000000000000000000000000000000000000PES00010000001N00000000000000020171010
201709300060000600000000000000772774000000000000007727749900000000000000000000Consumidor Final              000000000075000000000000075000000000000000000000000000000000000000000000000000000000000000000000000000000000000000000000PES00010000001N00000000000000020171010
201709300060000700000000000000553509000000000000005535099900000000000000000000Consumidor Final              000000000082500000000000082500000000000000000000000000000000000000000000000000000000000000000000000000000000000000000000PES00010000001N00000000000000020171010
201709300060000600000000000000772779000000000000007727799900000000000000000000Consumidor Final              000000000086000000000000086000000000000000000000000000000000000000000000000000000000000000000000000000000000000000000000PES00010000001N00000000000000020171010
201709300060000600000000000000772780000000000000007727809900000000000000000000Consumidor Final              000000000072000000000000072000000000000000000000000000000000000000000000000000000000000000000000000000000000000000000000PES00010000001N00000000000000020171010
201709300060000600000000000000772781000000000000007727819900000000000000000000Consumidor Final              000000000086000000000000086000000000000000000000000000000000000000000000000000000000000000000000000000000000000000000000PES00010000001N00000000000000020171010
201709300060000600000000000000772782000000000000007727829900000000000000000000Consumidor Final              000000000072000000000000072000000000000000000000000000000000000000000000000000000000000000000000000000000000000000000000PES00010000001N00000000000000020171010
201709300060000600000000000000772783000000000000007727839900000000000000000000Consumidor Final              000000000072000000000000072000000000000000000000000000000000000000000000000000000000000000000000000000000000000000000000PES00010000001N00000000000000020171010
201709300060000600000000000000772784000000000000007727849900000000000000000000Consumidor Final              000000000072000000000000072000000000000000000000000000000000000000000000000000000000000000000000000000000000000000000000PES00010000001N00000000000000020171010
201709300060000600000000000000772785000000000000007727859900000000000000000000Consumidor Final              000000000072000000000000072000000000000000000000000000000000000000000000000000000000000000000000000000000000000000000000PES00010000001N00000000000000020171010
201709300060000600000000000000772786000000000000007727869900000000000000000000Consumidor Final              000000000072000000000000072000000000000000000000000000000000000000000000000000000000000000000000000000000000000000000000PES00010000001N00000000000000020171010
201709300060000600000000000000772787000000000000007727879900000000000000000000Consumidor Final              000000000083000000000000083000000000000000000000000000000000000000000000000000000000000000000000000000000000000000000000PES00010000001N00000000000000020171010
201709300060000600000000000000772788000000000000007727889900000000000000000000Consumidor Final              000000000068000000000000068000000000000000000000000000000000000000000000000000000000000000000000000000000000000000000000PES00010000001N00000000000000020171010
201709300060000700000000000000553530000000000000005535309900000000000000000000Consumidor Final              000000000072000000000000072000000000000000000000000000000000000000000000000000000000000000000000000000000000000000000000PES00010000001N00000000000000020171010
201709300060000700000000000000553533000000000000005535339900000000000000000000Consumidor Final              000000000072000000000000072000000000000000000000000000000000000000000000000000000000000000000000000000000000000000000000PES00010000001N00000000000000020171010
201709300060000600000000000000772791000000000000007727919900000000000000000000Consumidor Final              000000000092000000000000092000000000000000000000000000000000000000000000000000000000000000000000000000000000000000000000PES00010000001N00000000000000020171010
201709300060000700000000000000553534000000000000005535349900000000000000000000Consumidor Final              000000000072000000000000072000000000000000000000000000000000000000000000000000000000000000000000000000000000000000000000PES00010000001N00000000000000020171010
201709300060000600000000000000772792000000000000007727929900000000000000000000Consumidor Final              000000000072000000000000072000000000000000000000000000000000000000000000000000000000000000000000000000000000000000000000PES00010000001N00000000000000020171010
201709300060000700000000000000553535000000000000005535359900000000000000000000Consumidor Final              000000000086900000000000086900000000000000000000000000000000000000000000000000000000000000000000000000000000000000000000PES00010000001N00000000000000020171010
201709300060000600000000000000772793000000000000007727939900000000000000000000Consumidor Final              000000000086900000000000086900000000000000000000000000000000000000000000000000000000000000000000000000000000000000000000PES00010000001N00000000000000020171010
201709300060000700000000000000553536000000000000005535369900000000000000000000Consumidor Final              000000000079200000000000079200000000000000000000000000000000000000000000000000000000000000000000000000000000000000000000PES00010000001N00000000000000020171010
201709300060000600000000000000772809000000000000007728099900000000000000000000Consumidor Final              000000000073000000000000073000000000000000000000000000000000000000000000000000000000000000000000000000000000000000000000PES00010000001N00000000000000020171010
201709300060000600000000000000772810000000000000007728109900000000000000000000Consumidor Final              000000000072000000000000072000000000000000000000000000000000000000000000000000000000000000000000000000000000000000000000PES00010000001N00000000000000020171010
201709300060000600000000000000772790000000000000007727909900000000000000000000Consumidor Final              000000000072000000000000072000000000000000000000000000000000000000000000000000000000000000000000000000000000000000000000PES00010000001N00000000000000020171010
201709300060000700000000000000553537000000000000005535379900000000000000000000Consumidor Final              000000000072000000000000072000000000000000000000000000000000000000000000000000000000000000000000000000000000000000000000PES00010000001N00000000000000020171010
201709300060000700000000000000553538000000000000005535389900000000000000000000Consumidor Final              000000000072000000000000072000000000000000000000000000000000000000000000000000000000000000000000000000000000000000000000PES00010000001N00000000000000020171010
201709300060000700000000000000553539000000000000005535399900000000000000000000Consumidor Final              000000000079200000000000079200000000000000000000000000000000000000000000000000000000000000000000000000000000000000000000PES00010000001N00000000000000020171010
201709300060000700000000000000553540000000000000005535409900000000000000000000Consumidor Final              000000000079000000000000079000000000000000000000000000000000000000000000000000000000000000000000000000000000000000000000PES00010000001N00000000000000020171010
201709300060000700000000000000553544000000000000005535449900000000000000000000Consumidor Final              000000000093000000000000093000000000000000000000000000000000000000000000000000000000000000000000000000000000000000000000PES00010000001N00000000000000020171010
201709300060000700000000000000553545000000000000005535459900000000000000000000Consumidor Final              000000000079200000000000079200000000000000000000000000000000000000000000000000000000000000000000000000000000000000000000PES00010000001N00000000000000020171010
201709300060000700000000000000553546000000000000005535469900000000000000000000Consumidor Final              000000000072000000000000072000000000000000000000000000000000000000000000000000000000000000000000000000000000000000000000PES00010000001N00000000000000020171010
201709300060000700000000000000553547000000000000005535479900000000000000000000Consumidor Final              000000000087000000000000087000000000000000000000000000000000000000000000000000000000000000000000000000000000000000000000PES00010000001N00000000000000020171010
201709300060000700000000000000553548000000000000005535489900000000000000000000Consumidor Final              000000000079000000000000079000000000000000000000000000000000000000000000000000000000000000000000000000000000000000000000PES00010000001N00000000000000020171010
201709300060000600000000000000772808000000000000007728089900000000000000000000Consumidor Final              000000000069000000000000069000000000000000000000000000000000000000000000000000000000000000000000000000000000000000000000PES00010000001N00000000000000020171010
201709300060000600000000000000772794000000000000007727949900000000000000000000Consumidor Final              000000000033000000000000033000000000000000000000000000000000000000000000000000000000000000000000000000000000000000000000PES00010000001N00000000000000020171010
201709300060000700000000000000553554000000000000005535549900000000000000000000Consumidor Final              000000000079200000000000079200000000000000000000000000000000000000000000000000000000000000000000000000000000000000000000PES00010000001N00000000000000020171010
201709300060000700000000000000553555000000000000005535559900000000000000000000Consumidor Final              000000000079200000000000079200000000000000000000000000000000000000000000000000000000000000000000000000000000000000000000PES00010000001N00000000000000020171010
201709300060000700000000000000553556000000000000005535569900000000000000000000Consumidor Final              000000000072000000000000072000000000000000000000000000000000000000000000000000000000000000000000000000000000000000000000PES00010000001N00000000000000020171010
201709300060000700000000000000553557000000000000005535579900000000000000000000Consumidor Final              000000000075000000000000075000000000000000000000000000000000000000000000000000000000000000000000000000000000000000000000PES00010000001N00000000000000020171010
201709300060000600000000000000772815000000000000007728159000000000099999999999Consumidor Final              000000000115500000000000115500000000000000000000000000000000000000000000000000000000000000000000000000000000000000000000PES00010000001N00000000000000020171010
201709300060000600000000000000772816000000000000007728169900000000000000000000Consumidor Final              000000000094600000000000094600000000000000000000000000000000000000000000000000000000000000000000000000000000000000000000PES00010000001N00000000000000020171010
201709300060000600000000000000772817000000000000007728179900000000000000000000Consumidor Final              000000000072000000000000072000000000000000000000000000000000000000000000000000000000000000000000000000000000000000000000PES00010000001N00000000000000020171010
201709300060000600000000000000772818000000000000007728189900000000000000000000Consumidor Final              000000000072000000000000072000000000000000000000000000000000000000000000000000000000000000000000000000000000000000000000PES00010000001N00000000000000020171010
201709300060000600000000000000772819000000000000007728199900000000000000000000Consumidor Final              000000000072000000000000072000000000000000000000000000000000000000000000000000000000000000000000000000000000000000000000PES00010000001N00000000000000020171010
201709300060000600000000000000772820000000000000007728209900000000000000000000Consumidor Final              000000000072000000000000072000000000000000000000000000000000000000000000000000000000000000000000000000000000000000000000PES00010000001N00000000000000020171010
201709300060000600000000000000772795000000000000007727959900000000000000000000Consumidor Final              000000000072000000000000072000000000000000000000000000000000000000000000000000000000000000000000000000000000000000000000PES00010000001N00000000000000020171010
201709300060000700000000000000553569000000000000005535699900000000000000000000Consumidor Final              000000000072000000000000072000000000000000000000000000000000000000000000000000000000000000000000000000000000000000000000PES00010000001N00000000000000020171010
201709300060000700000000000000553570000000000000005535709900000000000000000000Consumidor Final              000000000072000000000000072000000000000000000000000000000000000000000000000000000000000000000000000000000000000000000000PES00010000001N00000000000000020171010
201709300060000700000000000000553571000000000000005535719900000000000000000000Consumidor Final              000000000072000000000000072000000000000000000000000000000000000000000000000000000000000000000000000000000000000000000000PES00010000001N00000000000000020171010
201709300060000700000000000000553572000000000000005535729900000000000000000000Consumidor Final              000000000072000000000000072000000000000000000000000000000000000000000000000000000000000000000000000000000000000000000000PES00010000001N00000000000000020171010
201709300060000900000000000000041534000000000000000415349900000000000000000000Consumidor Final              000000000068000000000000068000000000000000000000000000000000000000000000000000000000000000000000000000000000000000000000PES00010000001N00000000000000020171010
201709300060000900000000000000041535000000000000000415359900000000000000000000Consumidor Final              000000000075000000000000075000000000000000000000000000000000000000000000000000000000000000000000000000000000000000000000PES00010000001N00000000000000020171010
201709300060000700000000000000553587000000000000005535879900000000000000000000Consumidor Final              000000000072000000000000072000000000000000000000000000000000000000000000000000000000000000000000000000000000000000000000PES00010000001N00000000000000020171010
201709300060000700000000000000553588000000000000005535889900000000000000000000Consumidor Final              000000000092000000000000092000000000000000000000000000000000000000000000000000000000000000000000000000000000000000000000PES00010000001N00000000000000020171010
201709300060000700000000000000553589000000000000005535899900000000000000000000Consumidor Final              000000000086000000000000086000000000000000000000000000000000000000000000000000000000000000000000000000000000000000000000PES00010000001N00000000000000020171010
201709300060000700000000000000553590000000000000005535909900000000000000000000Consumidor Final              000000000072000000000000072000000000000000000000000000000000000000000000000000000000000000000000000000000000000000000000PES00010000001N00000000000000020171010
201709300060000600000000000000772796000000000000007727969000000000099999999999Consumidor Final              000000000106000000000000106000000000000000000000000000000000000000000000000000000000000000000000000000000000000000000000PES00010000001N00000000000000020171010
201709300060000600000000000000772797000000000000007727979900000000000000000000Consumidor Final              000000000087000000000000087000000000000000000000000000000000000000000000000000000000000000000000000000000000000000000000PES00010000001N00000000000000020171010
201709300060000600000000000000772798000000000000007727989900000000000000000000Consumidor Final              000000000072000000000000072000000000000000000000000000000000000000000000000000000000000000000000000000000000000000000000PES00010000001N00000000000000020171010
201709300060000600000000000000772799000000000000007727999900000000000000000000Consumidor Final              000000000072000000000000072000000000000000000000000000000000000000000000000000000000000000000000000000000000000000000000PES00010000001N00000000000000020171010
201709300060000600000000000000772800000000000000007728009900000000000000000000Consumidor Final              000000000072000000000000072000000000000000000000000000000000000000000000000000000000000000000000000000000000000000000000PES00010000001N00000000000000020171010
201709300060000600000000000000772801000000000000007728019900000000000000000000Consumidor Final              000000000072000000000000072000000000000000000000000000000000000000000000000000000000000000000000000000000000000000000000PES00010000001N00000000000000020171010
201709300060000600000000000000772802000000000000007728029900000000000000000000Consumidor Final              000000000072000000000000072000000000000000000000000000000000000000000000000000000000000000000000000000000000000000000000PES00010000001N00000000000000020171010
201709300060000600000000000000772803000000000000007728039900000000000000000000Consumidor Final              000000000072000000000000072000000000000000000000000000000000000000000000000000000000000000000000000000000000000000000000PES00010000001N00000000000000020171010
201709300060000600000000000000772804000000000000007728049900000000000000000000Consumidor Final              000000000072000000000000072000000000000000000000000000000000000000000000000000000000000000000000000000000000000000000000PES00010000001N00000000000000020171010
201709300060000600000000000000772805000000000000007728059900000000000000000000Consumidor Final              000000000083000000000000083000000000000000000000000000000000000000000000000000000000000000000000000000000000000000000000PES00010000001N00000000000000020171010
201709300060000600000000000000772806000000000000007728069000000000099999999999Consumidor Final              000000000101000000000000101000000000000000000000000000000000000000000000000000000000000000000000000000000000000000000000PES00010000001N00000000000000020171010
201709300060000600000000000000772807000000000000007728079900000000000000000000Consumidor Final              000000000072000000000000072000000000000000000000000000000000000000000000000000000000000000000000000000000000000000000000PES00010000001N00000000000000020171010
201709300060000800000000000000189913000000000000001899139900000000000000000000Consumidor Final              000000000062000000000000062000000000000000000000000000000000000000000000000000000000000000000000000000000000000000000000PES00010000001N00000000000000020171010
201709300060000700000000000000553549000000000000005535499900000000000000000000Consumidor Final              000000000083000000000000083000000000000000000000000000000000000000000000000000000000000000000000000000000000000000000000PES00010000001N00000000000000020171010
201709300060000700000000000000553550000000000000005535509900000000000000000000Consumidor Final              000000000075000000000000075000000000000000000000000000000000000000000000000000000000000000000000000000000000000000000000PES00010000001N00000000000000020171010
201709300060000800000000000000189914000000000000001899149900000000000000000000Consumidor Final              000000000080000000000000080000000000000000000000000000000000000000000000000000000000000000000000000000000000000000000000PES00010000001N00000000000000020171010
201709300060000800000000000000189915000000000000001899159900000000000000000000Consumidor Final              000000000062000000000000062000000000000000000000000000000000000000000000000000000000000000000000000000000000000000000000PES00010000001N00000000000000020171010
201709300060000800000000000000189916000000000000001899169900000000000000000000Consumidor Final              000000000062000000000000062000000000000000000000000000000000000000000000000000000000000000000000000000000000000000000000PES00010000001N00000000000000020171010
201709300060000800000000000000189917000000000000001899179900000000000000000000Consumidor Final              000000000062000000000000062000000000000000000000000000000000000000000000000000000000000000000000000000000000000000000000PES00010000001N00000000000000020171010
201709300060000700000000000000553558000000000000005535589900000000000000000000Consumidor Final              000000000072000000000000072000000000000000000000000000000000000000000000000000000000000000000000000000000000000000000000PES00010000001N00000000000000020171010
201709300060000700000000000000553559000000000000005535599900000000000000000000Consumidor Final              000000000086000000000000086000000000000000000000000000000000000000000000000000000000000000000000000000000000000000000000PES00010000001N00000000000000020171010
201709300060000700000000000000553560000000000000005535609000000000099999999999Consumidor Final              000000000126000000000000126000000000000000000000000000000000000000000000000000000000000000000000000000000000000000000000PES00010000001N00000000000000020171010
201709300060000700000000000000553562000000000000005535629900000000000000000000Consumidor Final              000000000072000000000000072000000000000000000000000000000000000000000000000000000000000000000000000000000000000000000000PES00010000001N00000000000000020171010
201709300060000700000000000000553563000000000000005535639900000000000000000000Consumidor Final              000000000072000000000000072000000000000000000000000000000000000000000000000000000000000000000000000000000000000000000000PES00010000001N00000000000000020171010
201709300060000700000000000000553564000000000000005535649900000000000000000000Consumidor Final              000000000072000000000000072000000000000000000000000000000000000000000000000000000000000000000000000000000000000000000000PES00010000001N00000000000000020171010
201709300060000700000000000000553565000000000000005535659900000000000000000000Consumidor Final              000000000079200000000000079200000000000000000000000000000000000000000000000000000000000000000000000000000000000000000000PES00010000001N00000000000000020171010
201709300060000700000000000000553573000000000000005535739900000000000000000000Consumidor Final              000000000072000000000000072000000000000000000000000000000000000000000000000000000000000000000000000000000000000000000000PES00010000001N00000000000000020171010
201709300060000700000000000000553574000000000000005535749900000000000000000000Consumidor Final              000000000072000000000000072000000000000000000000000000000000000000000000000000000000000000000000000000000000000000000000PES00010000001N00000000000000020171010
201709300060000700000000000000553575000000000000005535759900000000000000000000Consumidor Final              000000000079200000000000079200000000000000000000000000000000000000000000000000000000000000000000000000000000000000000000PES00010000001N00000000000000020171010
201709300060000700000000000000553576000000000000005535769900000000000000000000Consumidor Final              000000000072000000000000072000000000000000000000000000000000000000000000000000000000000000000000000000000000000000000000PES00010000001N00000000000000020171010
201709300060000700000000000000553577000000000000005535779900000000000000000000Consumidor Final              000000000080000000000000080000000000000000000000000000000000000000000000000000000000000000000000000000000000000000000000PES00010000001N00000000000000020171010
201709300060000700000000000000553561000000000000005535619900000000000000000000Consumidor Final              000000000072000000000000072000000000000000000000000000000000000000000000000000000000000000000000000000000000000000000000PES00010000001N00000000000000020171010
201709300060000700000000000000553578000000000000005535789900000000000000000000Consumidor Final              000000000072000000000000072000000000000000000000000000000000000000000000000000000000000000000000000000000000000000000000PES00010000001N00000000000000020171010
201709300060000700000000000000553581000000000000005535819900000000000000000000Consumidor Final              000000000072000000000000072000000000000000000000000000000000000000000000000000000000000000000000000000000000000000000000PES00010000001N00000000000000020171010
201709300060000700000000000000553582000000000000005535829900000000000000000000Consumidor Final              000000000079200000000000079200000000000000000000000000000000000000000000000000000000000000000000000000000000000000000000PES00010000001N00000000000000020171010
201709300060000700000000000000553583000000000000005535839900000000000000000000Consumidor Final              000000000072000000000000072000000000000000000000000000000000000000000000000000000000000000000000000000000000000000000000PES00010000001N00000000000000020171010
201709300060000700000000000000553584000000000000005535849900000000000000000000Consumidor Final              000000000072000000000000072000000000000000000000000000000000000000000000000000000000000000000000000000000000000000000000PES00010000001N00000000000000020171010
201709300060000700000000000000553585000000000000005535859900000000000000000000Consumidor Final              000000000086000000000000086000000000000000000000000000000000000000000000000000000000000000000000000000000000000000000000PES00010000001N00000000000000020171010
201709300060000700000000000000553586000000000000005535869900000000000000000000Consumidor Final              000000000072000000000000072000000000000000000000000000000000000000000000000000000000000000000000000000000000000000000000PES00010000001N00000000000000020171010
201709300060000800000000000000189918000000000000001899189900000000000000000000Consumidor Final              000000000062000000000000062000000000000000000000000000000000000000000000000000000000000000000000000000000000000000000000PES00010000001N00000000000000020171010
201709300060000800000000000000189919000000000000001899199900000000000000000000Consumidor Final              000000000062000000000000062000000000000000000000000000000000000000000000000000000000000000000000000000000000000000000000PES00010000001N00000000000000020171010
201709300060000700000000000000553591000000000000005535919900000000000000000000Consumidor Final              000000000079200000000000079200000000000000000000000000000000000000000000000000000000000000000000000000000000000000000000PES00010000001N00000000000000020171010
201709300060000700000000000000553600000000000000005536009900000000000000000000Consumidor Final              000000000072000000000000072000000000000000000000000000000000000000000000000000000000000000000000000000000000000000000000PES00010000001N00000000000000020171010
201709300060000700000000000000553601000000000000005536019900000000000000000000Consumidor Final              000000000072000000000000072000000000000000000000000000000000000000000000000000000000000000000000000000000000000000000000PES00010000001N00000000000000020171010
201709300060000700000000000000553602000000000000005536029900000000000000000000Consumidor Final              000000000079200000000000079200000000000000000000000000000000000000000000000000000000000000000000000000000000000000000000PES00010000001N00000000000000020171010
201709300060000700000000000000553603000000000000005536039900000000000000000000Consumidor Final              000000000072000000000000072000000000000000000000000000000000000000000000000000000000000000000000000000000000000000000000PES00010000001N00000000000000020171010
201709300060000700000000000000553604000000000000005536049900000000000000000000Consumidor Final              000000000072000000000000072000000000000000000000000000000000000000000000000000000000000000000000000000000000000000000000PES00010000001N00000000000000020171010
201709300060000700000000000000553605000000000000005536059900000000000000000000Consumidor Final              000000000086000000000000086000000000000000000000000000000000000000000000000000000000000000000000000000000000000000000000PES00010000001N00000000000000020171010
201709300060000700000000000000553606000000000000005536069900000000000000000000Consumidor Final              000000000072000000000000072000000000000000000000000000000000000000000000000000000000000000000000000000000000000000000000PES00010000001N00000000000000020171010
201709300060000700000000000000553607000000000000005536079900000000000000000000Consumidor Final              000000000072000000000000072000000000000000000000000000000000000000000000000000000000000000000000000000000000000000000000PES00010000001N00000000000000020171010
201709300060000700000000000000553608000000000000005536089900000000000000000000Consumidor Final              000000000086000000000000086000000000000000000000000000000000000000000000000000000000000000000000000000000000000000000000PES00010000001N00000000000000020171010
201709300060000700000000000000553609000000000000005536099000000000099999999999Consumidor Final              000000000125000000000000125000000000000000000000000000000000000000000000000000000000000000000000000000000000000000000000PES00010000001N00000000000000020171010
201709300060000700000000000000553610000000000000005536109900000000000000000000Consumidor Final              000000000079200000000000079200000000000000000000000000000000000000000000000000000000000000000000000000000000000000000000PES00010000001N00000000000000020171010
201709300060000900000000000000041539000000000000000415399900000000000000000000Consumidor Final              000000000082500000000000082500000000000000000000000000000000000000000000000000000000000000000000000000000000000000000000PES00010000001N00000000000000020171010
201709300060000900000000000000041540000000000000000415409900000000000000000000Consumidor Final              000000000097900000000000097900000000000000000000000000000000000000000000000000000000000000000000000000000000000000000000PES00010000001N00000000000000020171010
201709300060000900000000000000041541000000000000000415419900000000000000000000Consumidor Final              000000000039000000000000039000000000000000000000000000000000000000000000000000000000000000000000000000000000000000000000PES00010000001N00000000000000020171010
201709300060000800000000000000189944000000000000001899449900000000000000000000Consumidor Final              000000000062000000000000062000000000000000000000000000000000000000000000000000000000000000000000000000000000000000000000PES00010000001N00000000000000020171010
201709300060000800000000000000189945000000000000001899459900000000000000000000Consumidor Final              000000000062000000000000062000000000000000000000000000000000000000000000000000000000000000000000000000000000000000000000PES00010000001N00000000000000020171010
201709300060000800000000000000189946000000000000001899469900000000000000000000Consumidor Final              000000000062000000000000062000000000000000000000000000000000000000000000000000000000000000000000000000000000000000000000PES00010000001N00000000000000020171010
201709300060000900000000000000041542000000000000000415429900000000000000000000Consumidor Final              000000000072000000000000072000000000000000000000000000000000000000000000000000000000000000000000000000000000000000000000PES00010000001N00000000000000020171010
201709300060000900000000000000041543000000000000000415439900000000000000000000Consumidor Final              000000000072000000000000072000000000000000000000000000000000000000000000000000000000000000000000000000000000000000000000PES00010000001N00000000000000020171010
201709300060000900000000000000041546000000000000000415469900000000000000000000Consumidor Final              000000000079200000000000079200000000000000000000000000000000000000000000000000000000000000000000000000000000000000000000PES00010000001N00000000000000020171010
201709300060000600000000000000772863000000000000007728639900000000000000000000Consumidor Final              000000000072000000000000072000000000000000000000000000000000000000000000000000000000000000000000000000000000000000000000PES00010000001N00000000000000020171010
201709300060000700000000000000553611000000000000005536119900000000000000000000Consumidor Final              000000000072000000000000072000000000000000000000000000000000000000000000000000000000000000000000000000000000000000000000PES00010000001N00000000000000020171010
201709300060000700000000000000553616000000000000005536169900000000000000000000Consumidor Final              000000000072000000000000072000000000000000000000000000000000000000000000000000000000000000000000000000000000000000000000PES00010000001N00000000000000020171010
201709300060000700000000000000553617000000000000005536179900000000000000000000Consumidor Final              000000000072000000000000072000000000000000000000000000000000000000000000000000000000000000000000000000000000000000000000PES00010000001N00000000000000020171010
201709300060000700000000000000553618000000000000005536189900000000000000000000Consumidor Final              000000000072000000000000072000000000000000000000000000000000000000000000000000000000000000000000000000000000000000000000PES00010000001N00000000000000020171010
201709300060000700000000000000553619000000000000005536199900000000000000000000Consumidor Final              000000000072000000000000072000000000000000000000000000000000000000000000000000000000000000000000000000000000000000000000PES00010000001N00000000000000020171010
201709300060000700000000000000553620000000000000005536209900000000000000000000Consumidor Final              000000000072000000000000072000000000000000000000000000000000000000000000000000000000000000000000000000000000000000000000PES00010000001N00000000000000020171010
201709300060000700000000000000553621000000000000005536219900000000000000000000Consumidor Final              000000000086000000000000086000000000000000000000000000000000000000000000000000000000000000000000000000000000000000000000PES00010000001N00000000000000020171010
201709300060000700000000000000553624000000000000005536249900000000000000000000Consumidor Final              000000000079200000000000079200000000000000000000000000000000000000000000000000000000000000000000000000000000000000000000PES00010000001N00000000000000020171010
201709300060000700000000000000553627000000000000005536279900000000000000000000Consumidor Final              000000000042000000000000042000000000000000000000000000000000000000000000000000000000000000000000000000000000000000000000PES00010000001N00000000000000020171010
201709300060000800000000000000189920000000000000001899209900000000000000000000Consumidor Final              000000000062000000000000062000000000000000000000000000000000000000000000000000000000000000000000000000000000000000000000PES00010000001N00000000000000020171010
201709300060000800000000000000189921000000000000001899219900000000000000000000Consumidor Final              000000000062000000000000062000000000000000000000000000000000000000000000000000000000000000000000000000000000000000000000PES00010000001N00000000000000020171010
201709300060000700000000000000553612000000000000005536129900000000000000000000Consumidor Final              000000000073000000000000073000000000000000000000000000000000000000000000000000000000000000000000000000000000000000000000PES00010000001N00000000000000020171010
201709300060000800000000000000189922000000000000001899229900000000000000000000Consumidor Final              000000000062000000000000062000000000000000000000000000000000000000000000000000000000000000000000000000000000000000000000PES00010000001N00000000000000020171010
201709300060000800000000000000189923000000000000001899239900000000000000000000Consumidor Final              000000000062000000000000062000000000000000000000000000000000000000000000000000000000000000000000000000000000000000000000PES00010000001N00000000000000020171010
201709300060000800000000000000189924000000000000001899249900000000000000000000Consumidor Final              000000000072000000000000072000000000000000000000000000000000000000000000000000000000000000000000000000000000000000000000PES00010000001N00000000000000020171010
201709300060000600000000000000772839000000000000007728399900000000000000000000Consumidor Final              000000000089000000000000089000000000000000000000000000000000000000000000000000000000000000000000000000000000000000000000PES00010000001N00000000000000020171010
201709300060000600000000000000772840000000000000007728409900000000000000000000Consumidor Final              000000000072000000000000072000000000000000000000000000000000000000000000000000000000000000000000000000000000000000000000PES00010000001N00000000000000020171010
201709300060000600000000000000772841000000000000007728419900000000000000000000Consumidor Final              000000000072000000000000072000000000000000000000000000000000000000000000000000000000000000000000000000000000000000000000PES00010000001N00000000000000020171010
201709300060000600000000000000772857000000000000007728579900000000000000000000Consumidor Final              000000000072000000000000072000000000000000000000000000000000000000000000000000000000000000000000000000000000000000000000PES00010000001N00000000000000020171010
201709300060000600000000000000772858000000000000007728589900000000000000000000Consumidor Final              000000000072000000000000072000000000000000000000000000000000000000000000000000000000000000000000000000000000000000000000PES00010000001N00000000000000020171010
201709300060000600000000000000772859000000000000007728599900000000000000000000Consumidor Final              000000000072000000000000072000000000000000000000000000000000000000000000000000000000000000000000000000000000000000000000PES00010000001N00000000000000020171010
201709300060000600000000000000772862000000000000007728629900000000000000000000Consumidor Final              000000000072000000000000072000000000000000000000000000000000000000000000000000000000000000000000000000000000000000000000PES00010000001N00000000000000020171010
201709300060000700000000000000553613000000000000005536139900000000000000000000Consumidor Final              000000000072000000000000072000000000000000000000000000000000000000000000000000000000000000000000000000000000000000000000PES00010000001N00000000000000020171010
201709300060000700000000000000553614000000000000005536149900000000000000000000Consumidor Final              000000000079200000000000079200000000000000000000000000000000000000000000000000000000000000000000000000000000000000000000PES00010000001N00000000000000020171010
201709300060000700000000000000553615000000000000005536159900000000000000000000Consumidor Final              000000000075900000000000075900000000000000000000000000000000000000000000000000000000000000000000000000000000000000000000PES00010000001N00000000000000020171010
201709300060000900000000000000041536000000000000000415369900000000000000000000Consumidor Final              000000000079000000000000079000000000000000000000000000000000000000000000000000000000000000000000000000000000000000000000PES00010000001N00000000000000020171010
201709300060000900000000000000041537000000000000000415379900000000000000000000Consumidor Final              000000000089000000000000089000000000000000000000000000000000000000000000000000000000000000000000000000000000000000000000PES00010000001N00000000000000020171010
201709300060000900000000000000041538000000000000000415389900000000000000000000Consumidor Final              000000000072000000000000072000000000000000000000000000000000000000000000000000000000000000000000000000000000000000000000PES00010000001N00000000000000020171010
201709300060000700000000000000553622000000000000005536229900000000000000000000Consumidor Final              000000000049500000000000049500000000000000000000000000000000000000000000000000000000000000000000000000000000000000000000PES00010000001N00000000000000020171010
201709300060000700000000000000553623000000000000005536239900000000000000000000Consumidor Final              000000000086000000000000086000000000000000000000000000000000000000000000000000000000000000000000000000000000000000000000PES00010000001N00000000000000020171010
201709300060000700000000000000553625000000000000005536259900000000000000000000Consumidor Final              000000000079200000000000079200000000000000000000000000000000000000000000000000000000000000000000000000000000000000000000PES00010000001N00000000000000020171010
201709300060000700000000000000553626000000000000005536269900000000000000000000Consumidor Final              000000000072000000000000072000000000000000000000000000000000000000000000000000000000000000000000000000000000000000000000PES00010000001N00000000000000020171010
201709300060000400000000000000015350000000000000000153509900000000000000000000Consumidor Final              000000000073700000000000073700000000000000000000000000000000000000000000000000000000000000000000000000000000000000000000PES00010000001N00000000000000020171010
201709300060000800000000000000189925000000000000001899259900000000000000000000Consumidor Final              000000000062000000000000062000000000000000000000000000000000000000000000000000000000000000000000000000000000000000000000PES00010000001N00000000000000020171010
201709300060000700000000000000553628000000000000005536289900000000000000000000Consumidor Final              000000000072000000000000072000000000000000000000000000000000000000000000000000000000000000000000000000000000000000000000PES00010000001N00000000000000020171010
201709300060000700000000000000553629000000000000005536299900000000000000000000Consumidor Final              000000000072000000000000072000000000000000000000000000000000000000000000000000000000000000000000000000000000000000000000PES00010000001N00000000000000020171010
201709300060000700000000000000553630000000000000005536309900000000000000000000Consumidor Final              000000000072000000000000072000000000000000000000000000000000000000000000000000000000000000000000000000000000000000000000PES00010000001N00000000000000020171010
201709300060000700000000000000553631000000000000005536319900000000000000000000Consumidor Final              000000000072000000000000072000000000000000000000000000000000000000000000000000000000000000000000000000000000000000000000PES00010000001N00000000000000020171010
201709300060000600000000000000772823000000000000007728239900000000000000000000Consumidor Final              000000000072000000000000072000000000000000000000000000000000000000000000000000000000000000000000000000000000000000000000PES00010000001N00000000000000020171010
201709300060000600000000000000772825000000000000007728259900000000000000000000Consumidor Final              000000000069000000000000069000000000000000000000000000000000000000000000000000000000000000000000000000000000000000000000PES00010000001N00000000000000020171010
201709300060000600000000000000772826000000000000007728269900000000000000000000Consumidor Final              000000000079200000000000079200000000000000000000000000000000000000000000000000000000000000000000000000000000000000000000PES00010000001N00000000000000020171010
201709300060000600000000000000772827000000000000007728279900000000000000000000Consumidor Final              000000000072000000000000072000000000000000000000000000000000000000000000000000000000000000000000000000000000000000000000PES00010000001N00000000000000020171010
201709300060000600000000000000772833000000000000007728339000000000099999999999Consumidor Final              000000000118000000000000118000000000000000000000000000000000000000000000000000000000000000000000000000000000000000000000PES00010000001N00000000000000020171010
201709300060000600000000000000772834000000000000007728349900000000000000000000Consumidor Final              000000000079200000000000079200000000000000000000000000000000000000000000000000000000000000000000000000000000000000000000PES00010000001N00000000000000020171010
201709300060000800000000000000189926000000000000001899269900000000000000000000Consumidor Final              000000000062000000000000062000000000000000000000000000000000000000000000000000000000000000000000000000000000000000000000PES00010000001N00000000000000020171010
201709300060000600000000000000772828000000000000007728289900000000000000000000Consumidor Final              000000000079200000000000079200000000000000000000000000000000000000000000000000000000000000000000000000000000000000000000PES00010000001N00000000000000020171010
201709300060000600000000000000772829000000000000007728299900000000000000000000Consumidor Final              000000000072000000000000072000000000000000000000000000000000000000000000000000000000000000000000000000000000000000000000PES00010000001N00000000000000020171010
201709300060000600000000000000772830000000000000007728309900000000000000000000Consumidor Final              000000000072000000000000072000000000000000000000000000000000000000000000000000000000000000000000000000000000000000000000PES00010000001N00000000000000020171010
201709300060000600000000000000772831000000000000007728319900000000000000000000Consumidor Final              000000000072000000000000072000000000000000000000000000000000000000000000000000000000000000000000000000000000000000000000PES00010000001N00000000000000020171010
201709300060000600000000000000772836000000000000007728369900000000000000000000Consumidor Final              000000000072000000000000072000000000000000000000000000000000000000000000000000000000000000000000000000000000000000000000PES00010000001N00000000000000020171010
201709300060000600000000000000772837000000000000007728379900000000000000000000Consumidor Final              000000000072000000000000072000000000000000000000000000000000000000000000000000000000000000000000000000000000000000000000PES00010000001N00000000000000020171010
201709300060000600000000000000772838000000000000007728389900000000000000000000Consumidor Final              000000000072000000000000072000000000000000000000000000000000000000000000000000000000000000000000000000000000000000000000PES00010000001N00000000000000020171010
201709300060000800000000000000189941000000000000001899419900000000000000000000Consumidor Final              000000000062000000000000062000000000000000000000000000000000000000000000000000000000000000000000000000000000000000000000PES00010000001N00000000000000020171010
201709300060000800000000000000189942000000000000001899429900000000000000000000Consumidor Final              000000000062000000000000062000000000000000000000000000000000000000000000000000000000000000000000000000000000000000000000PES00010000001N00000000000000020171010
201709300060000800000000000000189943000000000000001899439900000000000000000000Consumidor Final              000000000062000000000000062000000000000000000000000000000000000000000000000000000000000000000000000000000000000000000000PES00010000001N00000000000000020171010
201709300060000800000000000000189928000000000000001899289900000000000000000000Consumidor Final              000000000062000000000000062000000000000000000000000000000000000000000000000000000000000000000000000000000000000000000000PES00010000001N00000000000000020171010
201709300060000600000000000000772821000000000000007728219900000000000000000000Consumidor Final              000000000087000000000000087000000000000000000000000000000000000000000000000000000000000000000000000000000000000000000000PES00010000001N00000000000000020171010
201709300060000600000000000000772822000000000000007728229900000000000000000000Consumidor Final              000000000086000000000000086000000000000000000000000000000000000000000000000000000000000000000000000000000000000000000000PES00010000001N00000000000000020171010
201709300060000600000000000000772824000000000000007728249900000000000000000000Consumidor Final              000000000079200000000000079200000000000000000000000000000000000000000000000000000000000000000000000000000000000000000000PES00010000001N00000000000000020171010
201709300060000800000000000000189938000000000000001899389900000000000000000000Consumidor Final              000000000062000000000000062000000000000000000000000000000000000000000000000000000000000000000000000000000000000000000000PES00010000001N00000000000000020171010
201709300060000800000000000000189939000000000000001899399900000000000000000000Consumidor Final              000000000062000000000000062000000000000000000000000000000000000000000000000000000000000000000000000000000000000000000000PES00010000001N00000000000000020171010
201709300060000800000000000000189940000000000000001899409900000000000000000000Consumidor Final              000000000072000000000000072000000000000000000000000000000000000000000000000000000000000000000000000000000000000000000000PES00010000001N00000000000000020171010
201709300060000600000000000000772876000000000000007728769900000000000000000000Consumidor Final              000000000086000000000000086000000000000000000000000000000000000000000000000000000000000000000000000000000000000000000000PES00010000001N00000000000000020171010
201709300060000600000000000000772877000000000000007728779900000000000000000000Consumidor Final              000000000082500000000000082500000000000000000000000000000000000000000000000000000000000000000000000000000000000000000000PES00010000001N00000000000000020171010
201709300060000600000000000000772878000000000000007728789900000000000000000000Consumidor Final              000000000072000000000000072000000000000000000000000000000000000000000000000000000000000000000000000000000000000000000000PES00010000001N00000000000000020171010
201709300060000600000000000000772879000000000000007728799900000000000000000000Consumidor Final              000000000072000000000000072000000000000000000000000000000000000000000000000000000000000000000000000000000000000000000000PES00010000001N00000000000000020171010
201709300060000800000000000000189929000000000000001899299900000000000000000000Consumidor Final              000000000062000000000000062000000000000000000000000000000000000000000000000000000000000000000000000000000000000000000000PES00010000001N00000000000000020171010
201709300060000600000000000000772835000000000000007728359900000000000000000000Consumidor Final              000000000072000000000000072000000000000000000000000000000000000000000000000000000000000000000000000000000000000000000000PES00010000001N00000000000000020171010
201709300060000600000000000000772842000000000000007728429900000000000000000000Consumidor Final              000000000072000000000000072000000000000000000000000000000000000000000000000000000000000000000000000000000000000000000000PES00010000001N00000000000000020171010
201709300060000600000000000000772843000000000000007728439900000000000000000000Consumidor Final              000000000072000000000000072000000000000000000000000000000000000000000000000000000000000000000000000000000000000000000000PES00010000001N00000000000000020171010
201709300060000600000000000000772847000000000000007728479900000000000000000000Consumidor Final              000000000072000000000000072000000000000000000000000000000000000000000000000000000000000000000000000000000000000000000000PES00010000001N00000000000000020171010
201709300060000600000000000000772848000000000000007728489900000000000000000000Consumidor Final              000000000072000000000000072000000000000000000000000000000000000000000000000000000000000000000000000000000000000000000000PES00010000001N00000000000000020171010
201709300060000900000000000000041544000000000000000415449900000000000000000000Consumidor Final              000000000072000000000000072000000000000000000000000000000000000000000000000000000000000000000000000000000000000000000000PES00010000001N00000000000000020171010
201709300060000600000000000000772854000000000000007728549900000000000000000000Consumidor Final              000000000079200000000000079200000000000000000000000000000000000000000000000000000000000000000000000000000000000000000000PES00010000001N00000000000000020171010
201709300060000600000000000000772855000000000000007728559900000000000000000000Consumidor Final              000000000072000000000000072000000000000000000000000000000000000000000000000000000000000000000000000000000000000000000000PES00010000001N00000000000000020171010
201709300060000900000000000000041545000000000000000415458000000000030611160344Consumidor Final              000000000080000000000000080000000000000000000000000000000000000000000000000000000000000000000000000000000000000000000000PES00010000001N00000000000000020171010
201709300060000600000000000000772856000000000000007728569900000000000000000000Consumidor Final              000000000072000000000000072000000000000000000000000000000000000000000000000000000000000000000000000000000000000000000000PES00010000001N00000000000000020171010
201709300060000800000000000000189930000000000000001899309900000000000000000000Consumidor Final              000000000062000000000000062000000000000000000000000000000000000000000000000000000000000000000000000000000000000000000000PES00010000001N00000000000000020171010
201709300060000800000000000000189931000000000000001899319900000000000000000000Consumidor Final              000000000062000000000000062000000000000000000000000000000000000000000000000000000000000000000000000000000000000000000000PES00010000001N00000000000000020171010
201709300060000800000000000000189932000000000000001899329900000000000000000000Consumidor Final              000000000062000000000000062000000000000000000000000000000000000000000000000000000000000000000000000000000000000000000000PES00010000001N00000000000000020171010
201709300060000800000000000000189933000000000000001899339900000000000000000000Consumidor Final              000000000062000000000000062000000000000000000000000000000000000000000000000000000000000000000000000000000000000000000000PES00010000001N00000000000000020171010
201709300060000800000000000000189934000000000000001899349900000000000000000000Consumidor Final              000000000038500000000000038500000000000000000000000000000000000000000000000000000000000000000000000000000000000000000000PES00010000001N00000000000000020171010
201709300060000800000000000000189935000000000000001899359900000000000000000000Consumidor Final              000000000062000000000000062000000000000000000000000000000000000000000000000000000000000000000000000000000000000000000000PES00010000001N00000000000000020171010
201709300060000800000000000000189936000000000000001899369900000000000000000000Consumidor Final              000000000062000000000000062000000000000000000000000000000000000000000000000000000000000000000000000000000000000000000000PES00010000001N00000000000000020171010
201709300060000800000000000000189937000000000000001899379900000000000000000000Consumidor Final              000000000062000000000000062000000000000000000000000000000000000000000000000000000000000000000000000000000000000000000000PES00010000001N00000000000000020171010
201709300060000600000000000000772832000000000000007728329900000000000000000000Consumidor Final              000000000075900000000000075900000000000000000000000000000000000000000000000000000000000000000000000000000000000000000000PES00010000001N00000000000000020171010
201709300060000600000000000000772844000000000000007728449900000000000000000000Consumidor Final              000000000075000000000000075000000000000000000000000000000000000000000000000000000000000000000000000000000000000000000000PES00010000001N00000000000000020171010
201709300060000600000000000000772845000000000000007728459900000000000000000000Consumidor Final              000000000072000000000000072000000000000000000000000000000000000000000000000000000000000000000000000000000000000000000000PES00010000001N00000000000000020171010
201709300060000600000000000000772846000000000000007728469900000000000000000000Consumidor Final              000000000072000000000000072000000000000000000000000000000000000000000000000000000000000000000000000000000000000000000000PES00010000001N00000000000000020171010
201709300060000600000000000000772849000000000000007728499900000000000000000000Consumidor Final              000000000062000000000000062000000000000000000000000000000000000000000000000000000000000000000000000000000000000000000000PES00010000001N00000000000000020171010
201709300060000600000000000000772850000000000000007728509900000000000000000000Consumidor Final              000000000072000000000000072000000000000000000000000000000000000000000000000000000000000000000000000000000000000000000000PES00010000001N00000000000000020171010
201709300060000600000000000000772851000000000000007728519900000000000000000000Consumidor Final              000000000072000000000000072000000000000000000000000000000000000000000000000000000000000000000000000000000000000000000000PES00010000001N00000000000000020171010
201709300060000600000000000000772852000000000000007728529900000000000000000000Consumidor Final              000000000072000000000000072000000000000000000000000000000000000000000000000000000000000000000000000000000000000000000000PES00010000001N00000000000000020171010
201709300060000600000000000000772853000000000000007728539000000000099999999999Consumidor Final              000000000129000000000000129000000000000000000000000000000000000000000000000000000000000000000000000000000000000000000000PES00010000001N00000000000000020171010
201709300060000600000000000000772860000000000000007728609900000000000000000000Consumidor Final              000000000072000000000000072000000000000000000000000000000000000000000000000000000000000000000000000000000000000000000000PES00010000001N00000000000000020171010
201709300060000600000000000000772861000000000000007728619900000000000000000000Consumidor Final              000000000072000000000000072000000000000000000000000000000000000000000000000000000000000000000000000000000000000000000000PES00010000001N00000000000000020171010
201709300060000600000000000000772865000000000000007728659900000000000000000000Consumidor Final              000000000086000000000000086000000000000000000000000000000000000000000000000000000000000000000000000000000000000000000000PES00010000001N00000000000000020171010
201709300060000600000000000000772866000000000000007728669900000000000000000000Consumidor Final              000000000086000000000000086000000000000000000000000000000000000000000000000000000000000000000000000000000000000000000000PES00010000001N00000000000000020171010
201709300060000600000000000000772887000000000000007728879900000000000000000000Consumidor Final              000000000072000000000000072000000000000000000000000000000000000000000000000000000000000000000000000000000000000000000000PES00010000001N00000000000000020171010
201709300060000800000000000000189947000000000000001899479900000000000000000000Consumidor Final              000000000072000000000000072000000000000000000000000000000000000000000000000000000000000000000000000000000000000000000000PES00010000001N00000000000000020171010
201709300060000900000000000000041547000000000000000415479900000000000000000000Consumidor Final              000000000072000000000000072000000000000000000000000000000000000000000000000000000000000000000000000000000000000000000000PES00010000001N00000000000000020171010
201709300060000900000000000000041548000000000000000415489000000000000021731969Consumidor Final              000000000079000000000000079000000000000000000000000000000000000000000000000000000000000000000000000000000000000000000000PES00010000001N00000000000000020171010
201709300060000900000000000000041549000000000000000415499900000000000000000000Consumidor Final              000000000079000000000000079000000000000000000000000000000000000000000000000000000000000000000000000000000000000000000000PES00010000001N00000000000000020171010
201709300060000900000000000000041550000000000000000415509900000000000000000000Consumidor Final              000000000072000000000000072000000000000000000000000000000000000000000000000000000000000000000000000000000000000000000000PES00010000001N00000000000000020171010
201709300060000600000000000000772895000000000000007728959900000000000000000000Consumidor Final              000000000072000000000000072000000000000000000000000000000000000000000000000000000000000000000000000000000000000000000000PES00010000001N00000000000000020171010
201709300060000600000000000000772896000000000000007728969900000000000000000000Consumidor Final              000000000086000000000000086000000000000000000000000000000000000000000000000000000000000000000000000000000000000000000000PES00010000001N00000000000000020171010
201709300060000600000000000000772897000000000000007728979900000000000000000000Consumidor Final              000000000072000000000000072000000000000000000000000000000000000000000000000000000000000000000000000000000000000000000000PES00010000001N00000000000000020171010
201709300060000600000000000000772901000000000000007729019900000000000000000000Consumidor Final              000000000068000000000000068000000000000000000000000000000000000000000000000000000000000000000000000000000000000000000000PES00010000001N00000000000000020171010
201709300060000600000000000000772902000000000000007729029900000000000000000000Consumidor Final              000000000072000000000000072000000000000000000000000000000000000000000000000000000000000000000000000000000000000000000000PES00010000001N00000000000000020171010
201709300060000600000000000000772926000000000000007729269900000000000000000000Consumidor Final              000000000072000000000000072000000000000000000000000000000000000000000000000000000000000000000000000000000000000000000000PES00010000001N00000000000000020171010
201709300060000800000000000000189948000000000000001899489900000000000000000000Consumidor Final              000000000062000000000000062000000000000000000000000000000000000000000000000000000000000000000000000000000000000000000000PES00010000001N00000000000000020171010
201709300060000800000000000000189949000000000000001899499900000000000000000000Consumidor Final              000000000062000000000000062000000000000000000000000000000000000000000000000000000000000000000000000000000000000000000000PES00010000001N00000000000000020171010
201709300060000800000000000000189950000000000000001899509900000000000000000000Consumidor Final              000000000062000000000000062000000000000000000000000000000000000000000000000000000000000000000000000000000000000000000000PES00010000001N00000000000000020171010
201709300060000800000000000000189951000000000000001899519900000000000000000000Consumidor Final              000000000062000000000000062000000000000000000000000000000000000000000000000000000000000000000000000000000000000000000000PES00010000001N00000000000000020171010
201709300060000800000000000000189952000000000000001899529900000000000000000000Consumidor Final              000000000062000000000000062000000000000000000000000000000000000000000000000000000000000000000000000000000000000000000000PES00010000001N00000000000000020171010
201709300060000800000000000000189953000000000000001899539900000000000000000000Consumidor Final              000000000062000000000000062000000000000000000000000000000000000000000000000000000000000000000000000000000000000000000000PES00010000001N00000000000000020171010
201709300060000700000000000000553640000000000000005536409900000000000000000000Consumidor Final              000000000072000000000000072000000000000000000000000000000000000000000000000000000000000000000000000000000000000000000000PES00010000001N00000000000000020171010
201709300060000700000000000000553641000000000000005536419900000000000000000000Consumidor Final              000000000072000000000000072000000000000000000000000000000000000000000000000000000000000000000000000000000000000000000000PES00010000001N00000000000000020171010
